{
  "_format": "hh-sol-artifact-1",
  "contractName": "Flash",
  "sourceName": "contracts/test/Flash.sol",
  "abi": [
    {
      "inputs": [
        {
          "internalType": "address",
          "name": "_optionToken",
          "type": "address"
        }
      ],
      "stateMutability": "nonpayable",
      "type": "constructor"
    },
    {
      "anonymous": false,
      "inputs": [
        {
          "indexed": true,
          "internalType": "address",
          "name": "from",
          "type": "address"
        }
      ],
      "name": "FlashExercise",
      "type": "event"
    },
    {
      "inputs": [
        {
          "internalType": "uint256",
          "name": "amount",
          "type": "uint256"
        }
      ],
      "name": "badFlashLoan",
      "outputs": [],
      "stateMutability": "nonpayable",
      "type": "function"
    },
    {
      "inputs": [
        {
          "internalType": "uint256",
          "name": "amount",
          "type": "uint256"
        }
      ],
      "name": "goodFlashLoan",
      "outputs": [],
      "stateMutability": "nonpayable",
      "type": "function"
    },
    {
      "inputs": [],
      "name": "optionToken",
      "outputs": [
        {
          "internalType": "address",
          "name": "",
          "type": "address"
        }
      ],
      "stateMutability": "view",
      "type": "function"
    },
    {
      "inputs": [
        {
          "internalType": "address",
          "name": "receiver",
          "type": "address"
        },
        {
          "internalType": "uint256",
          "name": "outUnderlyings",
          "type": "uint256"
        },
        {
          "internalType": "bytes",
          "name": "data",
          "type": "bytes"
        }
      ],
      "name": "primitiveFlash",
      "outputs": [],
      "stateMutability": "nonpayable",
      "type": "function"
    }
  ],
  "bytecode": "0x608060405234801561001057600080fd5b506040516105953803806105958339818101604052602081101561003357600080fd5b5051600080546001600160a01b039092166001600160a01b0319909216919091179055610530806100656000396000f3fe608060405234801561001057600080fd5b506004361061004c5760003560e01c80630f098e14146100515780632bab754b146100705780636511d27514610094578063dc07959214610119575b600080fd5b61006e6004803603602081101561006757600080fd5b5035610136565b005b61007861024e565b604080516001600160a01b039092168252519081900360200190f35b61006e600480360360608110156100aa57600080fd5b6001600160a01b03823516916020810135918101906060810160408201356401000000008111156100da57600080fd5b8201836020820111156100ec57600080fd5b8035906020019184600183028401116401000000008311171561010e57600080fd5b50909250905061025d565b61006e6004803603602081101561012f57600080fd5b5035610461565b6000546040805160018082528183019092526001600160a01b039092169163787eae30913091859160208201818038833950506040516001600160e01b031960e087901b1681526001600160a01b03851660048201908152602482018590526060604483019081528451606484015284519193509160840190602085019080838360005b838110156101d25781810151838201526020016101ba565b50505050905090810190601f1680156101ff5780820380516001836020036101000a031916815260200191505b509450505050506040805180830381600087803b15801561021f57600080fd5b505af1158015610233573d6000803e3d6000fd5b505050506040513d604081101561024957600080fd5b505050565b6000546001600160a01b031681565b60008060009054906101000a90046001600160a01b03166001600160a01b031663440f5fd26040518163ffffffff1660e01b815260040160206040518083038186803b1580156102ac57600080fd5b505afa1580156102c0573d6000803e3d6000fd5b505050506040513d60208110156102d657600080fd5b505160408051600180825281830190925291925060009190602082018180388339019050506040516020018082805190602001908083835b6020831061032d5780518252601f19909201916020918201910161030e565b6001836020036101000a03801982511681845116808217855250505050505090500191505060405160208183030381529060405280519060200120848460405160200180838380828437808301925050509250505060405160208183030381529060405280519060200120149050801561042557600080546040805163a9059cbb60e01b81526001600160a01b0392831660048201526024810189905290519185169263a9059cbb926044808401936020939083900390910190829087803b1580156103f857600080fd5b505af115801561040c573d6000803e3d6000fd5b505050506040513d602081101561042257600080fd5b50505b6040516001600160a01b038716907fa98493e56997f36088ef8c95d74188854c97c32615ed6033e09a24c14543bd5890600090a2505050505050565b6000546040805160028082528183019092526001600160a01b039092169163787eae30913091859160208201818038833950506040516001600160e01b031960e087901b1681526001600160a01b038516600482019081526024820185905260606044830190815284516064840152845191935091608401906020850190808383600083156101d25781810151838201526020016101ba56fea26469706673582212206f810df46ce99396a6a392d7a30af8f4471abc402f69e83ff4f853289d96390a64736f6c63430006020033",
  "linkReferences": {},
  "deployedLinkReferences": {}
}