{
  "abi": [
    {
      "inputs": [
        {
          "internalType": "address payable",
          "name": "_weth",
          "type": "address"
        }
      ],
      "stateMutability": "nonpayable",
      "type": "constructor"
    },
    {
      "anonymous": false,
      "inputs": [
        {
          "indexed": true,
          "internalType": "address",
          "name": "from",
          "type": "address"
        },
        {
          "indexed": false,
          "internalType": "uint256",
          "name": "inTokenP",
          "type": "uint256"
        }
      ],
      "name": "Close",
      "type": "event"
    },
    {
      "anonymous": false,
      "inputs": [
        {
          "indexed": true,
          "internalType": "address",
          "name": "from",
          "type": "address"
        },
        {
          "indexed": false,
          "internalType": "uint256",
          "name": "outTokenU",
          "type": "uint256"
        },
        {
          "indexed": false,
          "internalType": "uint256",
          "name": "inTokenS",
          "type": "uint256"
        }
      ],
      "name": "Exercise",
      "type": "event"
    },
    {
      "anonymous": false,
      "inputs": [
        {
          "indexed": true,
          "internalType": "address",
          "name": "from",
          "type": "address"
        },
        {
          "indexed": false,
          "internalType": "uint256",
          "name": "outTokenP",
          "type": "uint256"
        },
        {
          "indexed": false,
          "internalType": "uint256",
          "name": "outTokenR",
          "type": "uint256"
        }
      ],
      "name": "Mint",
      "type": "event"
    },
    {
      "anonymous": false,
      "inputs": [
        {
          "indexed": true,
          "internalType": "address",
          "name": "from",
          "type": "address"
        },
        {
          "indexed": false,
          "internalType": "uint256",
          "name": "inTokenR",
          "type": "uint256"
        }
      ],
      "name": "Redeem",
      "type": "event"
    },
    {
      "inputs": [
        {
          "internalType": "contract IOption",
          "name": "tokenP",
          "type": "address"
        },
        {
          "internalType": "uint256",
          "name": "amount",
          "type": "uint256"
        },
        {
          "internalType": "address",
          "name": "receiver",
          "type": "address"
        }
      ],
      "name": "safeClose",
      "outputs": [
        {
          "internalType": "uint256",
          "name": "inTokenR",
          "type": "uint256"
        },
        {
          "internalType": "uint256",
          "name": "inTokenP",
          "type": "uint256"
        },
        {
          "internalType": "uint256",
          "name": "outTokenU",
          "type": "uint256"
        }
      ],
      "stateMutability": "nonpayable",
      "type": "function"
    },
    {
      "inputs": [
        {
          "internalType": "contract IOption",
          "name": "tokenP",
          "type": "address"
        },
        {
          "internalType": "uint256",
          "name": "amount",
          "type": "uint256"
        },
        {
          "internalType": "address",
          "name": "receiver",
          "type": "address"
        }
      ],
      "name": "safeExercise",
      "outputs": [
        {
          "internalType": "uint256",
          "name": "inTokenS",
          "type": "uint256"
        },
        {
          "internalType": "uint256",
          "name": "inTokenP",
          "type": "uint256"
        }
      ],
      "stateMutability": "nonpayable",
      "type": "function"
    },
    {
      "inputs": [
        {
          "internalType": "contract IOption",
          "name": "tokenP",
          "type": "address"
        },
        {
          "internalType": "uint256",
          "name": "amount",
          "type": "uint256"
        },
        {
          "internalType": "address",
          "name": "receiver",
          "type": "address"
        }
      ],
      "name": "safeMint",
      "outputs": [
        {
          "internalType": "uint256",
          "name": "inTokenU",
          "type": "uint256"
        },
        {
          "internalType": "uint256",
          "name": "outTokenR",
          "type": "uint256"
        }
      ],
      "stateMutability": "nonpayable",
      "type": "function"
    },
    {
      "inputs": [
        {
          "internalType": "contract IOption",
          "name": "tokenP",
          "type": "address"
        },
        {
          "internalType": "uint256",
          "name": "amount",
          "type": "uint256"
        },
        {
          "internalType": "address",
          "name": "receiver",
          "type": "address"
        }
      ],
      "name": "safeRedeem",
      "outputs": [
        {
          "internalType": "uint256",
          "name": "inTokenR",
          "type": "uint256"
        }
      ],
      "stateMutability": "nonpayable",
      "type": "function"
    },
    {
      "inputs": [
        {
          "internalType": "contract IOption",
          "name": "tokenP",
          "type": "address"
        },
        {
          "internalType": "uint256",
          "name": "amount",
          "type": "uint256"
        },
        {
          "internalType": "address",
          "name": "receiver",
          "type": "address"
        }
      ],
      "name": "safeUnwind",
      "outputs": [
        {
          "internalType": "uint256",
          "name": "inTokenR",
          "type": "uint256"
        },
        {
          "internalType": "uint256",
          "name": "inTokenP",
          "type": "uint256"
        },
        {
          "internalType": "uint256",
          "name": "outTokenU",
          "type": "uint256"
        }
      ],
      "stateMutability": "nonpayable",
      "type": "function"
    },
    {
      "inputs": [],
      "name": "weth",
      "outputs": [
        {
          "internalType": "address payable",
          "name": "",
          "type": "address"
        }
      ],
      "stateMutability": "view",
      "type": "function"
    }
  ],
  "address": "0x500D1d6A4c7D8Ae28240b47c8FCde034D827fD5e",
  "args": [
    "0x1A1FEe7EeD918BD762173e4dc5EfDB8a78C924A8"
  ],
  "bytecode": "0x608060405234801561001057600080fd5b506040516128a13803806128a18339818101604052602081101561003357600080fd5b8101908080519060200190929190505050600160008190555080600160006101000a81548173ffffffffffffffffffffffffffffffffffffffff021916908373ffffffffffffffffffffffffffffffffffffffff160217905550506128048061009d6000396000f3fe608060405234801561001057600080fd5b50600436106100625760003560e01c8063087b063214610067578063154fa089146100f057806320e469d6146101805780633fc8cef314610209578063a1d8778f14610253578063b8a6bb3b146102d5575b600080fd5b6100d36004803603606081101561007d57600080fd5b81019080803573ffffffffffffffffffffffffffffffffffffffff16906020019092919080359060200190929190803573ffffffffffffffffffffffffffffffffffffffff169060200190929190505050610365565b604051808381526020018281526020019250505060405180910390f35b61015c6004803603606081101561010657600080fd5b81019080803573ffffffffffffffffffffffffffffffffffffffff16906020019092919080359060200190929190803573ffffffffffffffffffffffffffffffffffffffff169060200190929190505050610c78565b60405180848152602001838152602001828152602001935050505060405180910390f35b6101ec6004803603606081101561019657600080fd5b81019080803573ffffffffffffffffffffffffffffffffffffffff16906020019092919080359060200190929190803573ffffffffffffffffffffffffffffffffffffffff1690602001909291905050506113ed565b604051808381526020018281526020019250505060405180910390f35b61021161178f565b604051808273ffffffffffffffffffffffffffffffffffffffff1673ffffffffffffffffffffffffffffffffffffffff16815260200191505060405180910390f35b6102bf6004803603606081101561026957600080fd5b81019080803573ffffffffffffffffffffffffffffffffffffffff16906020019092919080359060200190929190803573ffffffffffffffffffffffffffffffffffffffff1690602001909291905050506117b5565b6040518082815260200191505060405180910390f35b610341600480360360608110156102eb57600080fd5b81019080803573ffffffffffffffffffffffffffffffffffffffff16906020019092919080359060200190929190803573ffffffffffffffffffffffffffffffffffffffff169060200190929190505050611ceb565b60405180848152602001838152602001828152602001935050505060405180910390f35b600080600260005414156103e1576040517f08c379a000000000000000000000000000000000000000000000000000000000815260040180806020018281038252601f8152602001807f5265656e7472616e637947756172643a207265656e7472616e742063616c6c0081525060200191505060405180910390fd5b60026000819055506000841161045f576040517f08c379a00000000000000000000000000000000000000000000000000000000081526004018080602001828103825260088152602001807f4552525f5a45524f00000000000000000000000000000000000000000000000081525060200191505060405180910390fd5b838573ffffffffffffffffffffffffffffffffffffffff166370a08231336040518263ffffffff1660e01b8152600401808273ffffffffffffffffffffffffffffffffffffffff1673ffffffffffffffffffffffffffffffffffffffff16815260200191505060206040518083038186803b1580156104dd57600080fd5b505afa1580156104f1573d6000803e3d6000fd5b505050506040513d602081101561050757600080fd5b8101908080519060200190929190505050101561058c576040517f08c379a000000000000000000000000000000000000000000000000000000000815260040180806020018281038252600d8152602001807f4552525f42414c5f5052494d450000000000000000000000000000000000000081525060200191505060405180910390fd5b6106d78573ffffffffffffffffffffffffffffffffffffffff16635001f3b56040518163ffffffff1660e01b815260040160206040518083038186803b1580156105d557600080fd5b505afa1580156105e9573d6000803e3d6000fd5b505050506040513d60208110156105ff57600080fd5b81019080805190602001909291905050506106c98773ffffffffffffffffffffffffffffffffffffffff1663999b93af6040518163ffffffff1660e01b815260040160206040518083038186803b15801561065957600080fd5b505afa15801561066d573d6000803e3d6000fd5b505050506040513d602081101561068357600080fd5b81019080805190602001909291905050506106bb6106ac6103e88a61258f90919063ffffffff16565b896125d990919063ffffffff16565b61266190919063ffffffff16565b61258f90919063ffffffff16565b9150818573ffffffffffffffffffffffffffffffffffffffff16630727d5d26040518163ffffffff1660e01b815260040160206040518083038186803b15801561072057600080fd5b505afa158015610734573d6000803e3d6000fd5b505050506040513d602081101561074a57600080fd5b810190808051906020019092919050505073ffffffffffffffffffffffffffffffffffffffff166370a08231336040518263ffffffff1660e01b8152600401808273ffffffffffffffffffffffffffffffffffffffff1673ffffffffffffffffffffffffffffffffffffffff16815260200191505060206040518083038186803b1580156107d757600080fd5b505afa1580156107eb573d6000803e3d6000fd5b505050506040513d602081101561080157600080fd5b81019080805190602001909291905050501015610886576040517f08c379a000000000000000000000000000000000000000000000000000000000815260040180806020018281038252600e8152602001807f4552525f42414c5f535452494b4500000000000000000000000000000000000081525060200191505060405180910390fd5b8473ffffffffffffffffffffffffffffffffffffffff16630727d5d26040518163ffffffff1660e01b815260040160206040518083038186803b1580156108cc57600080fd5b505afa1580156108e0573d6000803e3d6000fd5b505050506040513d60208110156108f657600080fd5b810190808051906020019092919050505073ffffffffffffffffffffffffffffffffffffffff166323b872dd3387856040518463ffffffff1660e01b8152600401808473ffffffffffffffffffffffffffffffffffffffff1673ffffffffffffffffffffffffffffffffffffffff1681526020018373ffffffffffffffffffffffffffffffffffffffff1673ffffffffffffffffffffffffffffffffffffffff1681526020018281526020019350505050602060405180830381600087803b1580156109c157600080fd5b505af11580156109d5573d6000803e3d6000fd5b505050506040513d60208110156109eb57600080fd5b8101908080519060200190929190505050508473ffffffffffffffffffffffffffffffffffffffff166323b872dd3387876040518463ffffffff1660e01b8152600401808473ffffffffffffffffffffffffffffffffffffffff1673ffffffffffffffffffffffffffffffffffffffff1681526020018373ffffffffffffffffffffffffffffffffffffffff1673ffffffffffffffffffffffffffffffffffffffff1681526020018281526020019350505050602060405180830381600087803b158015610ab857600080fd5b505af1158015610acc573d6000803e3d6000fd5b505050506040513d6020811015610ae257600080fd5b8101908080519060200190929190505050508473ffffffffffffffffffffffffffffffffffffffff1663f82390d0848660006040519080825280601f01601f191660200182016040528015610b465781602001600182028038833980820191505090505b506040518463ffffffff1660e01b8152600401808473ffffffffffffffffffffffffffffffffffffffff1673ffffffffffffffffffffffffffffffffffffffff16815260200183815260200180602001828103825283818151815260200191508051906020019080838360005b83811015610bce578082015181840152602081019050610bb3565b50505050905090810190601f168015610bfb5780820380516001836020036101000a031916815260200191505b509450505050506040805180830381600087803b158015610c1b57600080fd5b505af1158015610c2f573d6000803e3d6000fd5b505050506040513d6040811015610c4557600080fd5b81019080805190602001909291908051906020019092919050505080925081935050506001600081905550935093915050565b600080600060026000541415610cf6576040517f08c379a000000000000000000000000000000000000000000000000000000000815260040180806020018281038252601f8152602001807f5265656e7472616e637947756172643a207265656e7472616e742063616c6c0081525060200191505060405180910390fd5b600260008190555060008511610d74576040517f08c379a00000000000000000000000000000000000000000000000000000000081526004018080602001828103825260088152602001807f4552525f5a45524f00000000000000000000000000000000000000000000000081525060200191505060405180910390fd5b428673ffffffffffffffffffffffffffffffffffffffff1663e184c9be6040518163ffffffff1660e01b815260040160206040518083038186803b158015610dbb57600080fd5b505afa158015610dcf573d6000803e3d6000fd5b505050506040513d6020811015610de557600080fd5b810190808051906020019092919050505010610e69576040517f08c379a000000000000000000000000000000000000000000000000000000000815260040180806020018281038252600f8152602001807f4552525f4e4f545f45585049524544000000000000000000000000000000000081525060200191505060405180910390fd5b610f8e8673ffffffffffffffffffffffffffffffffffffffff16635001f3b56040518163ffffffff1660e01b815260040160206040518083038186803b158015610eb257600080fd5b505afa158015610ec6573d6000803e3d6000fd5b505050506040513d6020811015610edc57600080fd5b8101908080519060200190929190505050610f808873ffffffffffffffffffffffffffffffffffffffff1663999b93af6040518163ffffffff1660e01b815260040160206040518083038186803b158015610f3657600080fd5b505afa158015610f4a573d6000803e3d6000fd5b505050506040513d6020811015610f6057600080fd5b81019080805190602001909291905050508861266190919063ffffffff16565b61258f90919063ffffffff16565b9250828673ffffffffffffffffffffffffffffffffffffffff166360f880356040518163ffffffff1660e01b815260040160206040518083038186803b158015610fd757600080fd5b505afa158015610feb573d6000803e3d6000fd5b505050506040513d602081101561100157600080fd5b810190808051906020019092919050505073ffffffffffffffffffffffffffffffffffffffff166370a08231336040518263ffffffff1660e01b8152600401808273ffffffffffffffffffffffffffffffffffffffff1673ffffffffffffffffffffffffffffffffffffffff16815260200191505060206040518083038186803b15801561108e57600080fd5b505afa1580156110a2573d6000803e3d6000fd5b505050506040513d60208110156110b857600080fd5b8101908080519060200190929190505050101561113d576040517f08c379a000000000000000000000000000000000000000000000000000000000815260040180806020018281038252600e8152602001807f4552525f42414c5f52454445454d00000000000000000000000000000000000081525060200191505060405180910390fd5b8573ffffffffffffffffffffffffffffffffffffffff166360f880356040518163ffffffff1660e01b815260040160206040518083038186803b15801561118357600080fd5b505afa158015611197573d6000803e3d6000fd5b505050506040513d60208110156111ad57600080fd5b810190808051906020019092919050505073ffffffffffffffffffffffffffffffffffffffff166323b872dd3388866040518463ffffffff1660e01b8152600401808473ffffffffffffffffffffffffffffffffffffffff1673ffffffffffffffffffffffffffffffffffffffff1681526020018373ffffffffffffffffffffffffffffffffffffffff1673ffffffffffffffffffffffffffffffffffffffff1681526020018281526020019350505050602060405180830381600087803b15801561127857600080fd5b505af115801561128c573d6000803e3d6000fd5b505050506040513d60208110156112a257600080fd5b8101908080519060200190929190505050508573ffffffffffffffffffffffffffffffffffffffff1663c74073a1856040518263ffffffff1660e01b8152600401808273ffffffffffffffffffffffffffffffffffffffff1673ffffffffffffffffffffffffffffffffffffffff168152602001915050606060405180830381600087803b15801561133357600080fd5b505af1158015611347573d6000803e3d6000fd5b505050506040513d606081101561135d57600080fd5b810190808051906020019092919080519060200190929190805190602001909291905050508093508194508295505050503373ffffffffffffffffffffffffffffffffffffffff167f684222b0069d4a2e5e0d986611cc5182d543904c4e4264bf770d4e51faefc822836040518082815260200191505060405180910390a2600160008190555093509350939050565b60008060026000541415611469576040517f08c379a000000000000000000000000000000000000000000000000000000000815260040180806020018281038252601f8152602001807f5265656e7472616e637947756172643a207265656e7472616e742063616c6c0081525060200191505060405180910390fd5b6002600081905550600084116114e7576040517f08c379a00000000000000000000000000000000000000000000000000000000081526004018080602001828103825260088152602001807f4552525f5a45524f00000000000000000000000000000000000000000000000081525060200191505060405180910390fd5b8473ffffffffffffffffffffffffffffffffffffffff16634a244e546040518163ffffffff1660e01b815260040160206040518083038186803b15801561152d57600080fd5b505afa158015611541573d6000803e3d6000fd5b505050506040513d602081101561155757600080fd5b810190808051906020019092919050505073ffffffffffffffffffffffffffffffffffffffff166323b872dd3387876040518463ffffffff1660e01b8152600401808473ffffffffffffffffffffffffffffffffffffffff1673ffffffffffffffffffffffffffffffffffffffff1681526020018373ffffffffffffffffffffffffffffffffffffffff1673ffffffffffffffffffffffffffffffffffffffff1681526020018281526020019350505050602060405180830381600087803b15801561162257600080fd5b505af1158015611636573d6000803e3d6000fd5b505050506040513d602081101561164c57600080fd5b8101908080519060200190929190505050508473ffffffffffffffffffffffffffffffffffffffff16636a627842846040518263ffffffff1660e01b8152600401808273ffffffffffffffffffffffffffffffffffffffff1673ffffffffffffffffffffffffffffffffffffffff1681526020019150506040805180830381600087803b1580156116dc57600080fd5b505af11580156116f0573d6000803e3d6000fd5b505050506040513d604081101561170657600080fd5b81019080805190602001909291908051906020019092919050505080925081935050503373ffffffffffffffffffffffffffffffffffffffff167f4c209b5fc8ad50758f13e2e1088ba56a560dff690a1c6fef26394f4c03821c4f8383604051808381526020018281526020019250505060405180910390a26001600081905550935093915050565b600160009054906101000a900473ffffffffffffffffffffffffffffffffffffffff1681565b600060026000541415611830576040517f08c379a000000000000000000000000000000000000000000000000000000000815260040180806020018281038252601f8152602001807f5265656e7472616e637947756172643a207265656e7472616e742063616c6c0081525060200191505060405180910390fd5b6002600081905550600083116118ae576040517f08c379a00000000000000000000000000000000000000000000000000000000081526004018080602001828103825260088152602001807f4552525f5a45524f00000000000000000000000000000000000000000000000081525060200191505060405180910390fd5b828473ffffffffffffffffffffffffffffffffffffffff166360f880356040518163ffffffff1660e01b815260040160206040518083038186803b1580156118f557600080fd5b505afa158015611909573d6000803e3d6000fd5b505050506040513d602081101561191f57600080fd5b810190808051906020019092919050505073ffffffffffffffffffffffffffffffffffffffff166370a08231336040518263ffffffff1660e01b8152600401808273ffffffffffffffffffffffffffffffffffffffff1673ffffffffffffffffffffffffffffffffffffffff16815260200191505060206040518083038186803b1580156119ac57600080fd5b505afa1580156119c0573d6000803e3d6000fd5b505050506040513d60208110156119d657600080fd5b81019080805190602001909291905050501015611a5b576040517f08c379a000000000000000000000000000000000000000000000000000000000815260040180806020018281038252600e8152602001807f4552525f42414c5f52454445454d00000000000000000000000000000000000081525060200191505060405180910390fd5b8373ffffffffffffffffffffffffffffffffffffffff166360f880356040518163ffffffff1660e01b815260040160206040518083038186803b158015611aa157600080fd5b505afa158015611ab5573d6000803e3d6000fd5b505050506040513d6020811015611acb57600080fd5b810190808051906020019092919050505073ffffffffffffffffffffffffffffffffffffffff166323b872dd3386866040518463ffffffff1660e01b8152600401808473ffffffffffffffffffffffffffffffffffffffff1673ffffffffffffffffffffffffffffffffffffffff1681526020018373ffffffffffffffffffffffffffffffffffffffff1673ffffffffffffffffffffffffffffffffffffffff1681526020018281526020019350505050602060405180830381600087803b158015611b9657600080fd5b505af1158015611baa573d6000803e3d6000fd5b505050506040513d6020811015611bc057600080fd5b8101908080519060200190929190505050508373ffffffffffffffffffffffffffffffffffffffff166395a2251f836040518263ffffffff1660e01b8152600401808273ffffffffffffffffffffffffffffffffffffffff1673ffffffffffffffffffffffffffffffffffffffff168152602001915050602060405180830381600087803b158015611c5157600080fd5b505af1158015611c65573d6000803e3d6000fd5b505050506040513d6020811015611c7b57600080fd5b810190808051906020019092919050505090503373ffffffffffffffffffffffffffffffffffffffff167f222838db2794d11532d940e8dec38ae307ed0b63cd97c233322e221f998767a6826040518082815260200191505060405180910390a260016000819055509392505050565b600080600060026000541415611d69576040517f08c379a000000000000000000000000000000000000000000000000000000000815260040180806020018281038252601f8152602001807f5265656e7472616e637947756172643a207265656e7472616e742063616c6c0081525060200191505060405180910390fd5b600260008190555060008511611de7576040517f08c379a00000000000000000000000000000000000000000000000000000000081526004018080602001828103825260088152602001807f4552525f5a45524f00000000000000000000000000000000000000000000000081525060200191505060405180910390fd5b848673ffffffffffffffffffffffffffffffffffffffff166370a08231336040518263ffffffff1660e01b8152600401808273ffffffffffffffffffffffffffffffffffffffff1673ffffffffffffffffffffffffffffffffffffffff16815260200191505060206040518083038186803b158015611e6557600080fd5b505afa158015611e79573d6000803e3d6000fd5b505050506040513d6020811015611e8f57600080fd5b81019080805190602001909291905050501015611f14576040517f08c379a000000000000000000000000000000000000000000000000000000000815260040180806020018281038252600d8152602001807f4552525f42414c5f5052494d450000000000000000000000000000000000000081525060200191505060405180910390fd5b6120398673ffffffffffffffffffffffffffffffffffffffff16635001f3b56040518163ffffffff1660e01b815260040160206040518083038186803b158015611f5d57600080fd5b505afa158015611f71573d6000803e3d6000fd5b505050506040513d6020811015611f8757600080fd5b810190808051906020019092919050505061202b8873ffffffffffffffffffffffffffffffffffffffff1663999b93af6040518163ffffffff1660e01b815260040160206040518083038186803b158015611fe157600080fd5b505afa158015611ff5573d6000803e3d6000fd5b505050506040513d602081101561200b57600080fd5b81019080805190602001909291905050508861266190919063ffffffff16565b61258f90919063ffffffff16565b9250828673ffffffffffffffffffffffffffffffffffffffff166360f880356040518163ffffffff1660e01b815260040160206040518083038186803b15801561208257600080fd5b505afa158015612096573d6000803e3d6000fd5b505050506040513d60208110156120ac57600080fd5b810190808051906020019092919050505073ffffffffffffffffffffffffffffffffffffffff166370a08231336040518263ffffffff1660e01b8152600401808273ffffffffffffffffffffffffffffffffffffffff1673ffffffffffffffffffffffffffffffffffffffff16815260200191505060206040518083038186803b15801561213957600080fd5b505afa15801561214d573d6000803e3d6000fd5b505050506040513d602081101561216357600080fd5b810190808051906020019092919050505010156121e8576040517f08c379a000000000000000000000000000000000000000000000000000000000815260040180806020018281038252600e8152602001807f4552525f42414c5f52454445454d00000000000000000000000000000000000081525060200191505060405180910390fd5b8573ffffffffffffffffffffffffffffffffffffffff166360f880356040518163ffffffff1660e01b815260040160206040518083038186803b15801561222e57600080fd5b505afa158015612242573d6000803e3d6000fd5b505050506040513d602081101561225857600080fd5b810190808051906020019092919050505073ffffffffffffffffffffffffffffffffffffffff166323b872dd3388866040518463ffffffff1660e01b8152600401808473ffffffffffffffffffffffffffffffffffffffff1673ffffffffffffffffffffffffffffffffffffffff1681526020018373ffffffffffffffffffffffffffffffffffffffff1673ffffffffffffffffffffffffffffffffffffffff1681526020018281526020019350505050602060405180830381600087803b15801561232357600080fd5b505af1158015612337573d6000803e3d6000fd5b505050506040513d602081101561234d57600080fd5b8101908080519060200190929190505050508573ffffffffffffffffffffffffffffffffffffffff166323b872dd3388886040518463ffffffff1660e01b8152600401808473ffffffffffffffffffffffffffffffffffffffff1673ffffffffffffffffffffffffffffffffffffffff1681526020018373ffffffffffffffffffffffffffffffffffffffff1673ffffffffffffffffffffffffffffffffffffffff1681526020018281526020019350505050602060405180830381600087803b15801561241a57600080fd5b505af115801561242e573d6000803e3d6000fd5b505050506040513d602081101561244457600080fd5b8101908080519060200190929190505050508573ffffffffffffffffffffffffffffffffffffffff1663c74073a1856040518263ffffffff1660e01b8152600401808273ffffffffffffffffffffffffffffffffffffffff1673ffffffffffffffffffffffffffffffffffffffff168152602001915050606060405180830381600087803b1580156124d557600080fd5b505af11580156124e9573d6000803e3d6000fd5b505050506040513d60608110156124ff57600080fd5b810190808051906020019092919080519060200190929190805190602001909291905050508093508194508295505050503373ffffffffffffffffffffffffffffffffffffffff167f684222b0069d4a2e5e0d986611cc5182d543904c4e4264bf770d4e51faefc822836040518082815260200191505060405180910390a2600160008190555093509350939050565b60006125d183836040518060400160405280601a81526020017f536166654d6174683a206469766973696f6e206279207a65726f0000000000008152506126e7565b905092915050565b600080828401905083811015612657576040517f08c379a000000000000000000000000000000000000000000000000000000000815260040180806020018281038252601b8152602001807f536166654d6174683a206164646974696f6e206f766572666c6f77000000000081525060200191505060405180910390fd5b8091505092915050565b60008083141561267457600090506126e1565b600082840290508284828161268557fe5b04146126dc576040517f08c379a00000000000000000000000000000000000000000000000000000000081526004018080602001828103825260218152602001806127ae6021913960400191505060405180910390fd5b809150505b92915050565b60008083118290612793576040517f08c379a00000000000000000000000000000000000000000000000000000000081526004018080602001828103825283818151815260200191508051906020019080838360005b8381101561275857808201518184015260208101905061273d565b50505050905090810190601f1680156127855780820380516001836020036101000a031916815260200191505b509250505060405180910390fd5b50600083858161279f57fe5b04905080915050939250505056fe536166654d6174683a206d756c7469706c69636174696f6e206f766572666c6f77a26469706673582212209eb64468bb20cb615a0c8e6de4c2327ee4a439ef21f690eaae500936a7e55ae064736f6c63430006020033"
}