{
  "_format": "hh-sol-artifact-1",
  "contractName": "NullCloneConstructor",
  "sourceName": "contracts/option/applications/NullCloneConstructor.sol",
  "abi": [
    {
      "inputs": [
        {
          "internalType": "bytes",
          "name": "consData",
          "type": "bytes"
        }
      ],
      "name": "cloneConstructor",
      "outputs": [],
      "stateMutability": "nonpayable",
      "type": "function"
    }
  ],
  "bytecode": "0x608060405234801561001057600080fd5b50610108806100206000396000f3fe6080604052348015600f57600080fd5b506004361060285760003560e01c806352e831dd14602d575b600080fd5b60cd60048036036020811015604157600080fd5b810190602081018135640100000000811115605b57600080fd5b820183602082011115606c57600080fd5b80359060200191846001830284011164010000000083111715608d57600080fd5b91908080601f01602080910402602001604051908101604052809392919081815260200183838082843760009201919091525092955060cf945050505050565b005b5056fea264697066735822122091a68691f297aec857b8cae060d9ba3f9d8144230c42f055fdcb638111166d7a64736f6c63430006020033",
  "linkReferences": {},
  "deployedLinkReferences": {}
}