{
  "_format": "hh-sol-artifact-1",
  "contractName": "OptionTest",
  "sourceName": "contracts/test/OptionTest.sol",
  "abi": [
    {
      "inputs": [],
      "stateMutability": "nonpayable",
      "type": "constructor"
    },
    {
      "anonymous": false,
      "inputs": [
        {
          "indexed": true,
          "internalType": "address",
          "name": "owner",
          "type": "address"
        },
        {
          "indexed": true,
          "internalType": "address",
          "name": "spender",
          "type": "address"
        },
        {
          "indexed": false,
          "internalType": "uint256",
          "name": "value",
          "type": "uint256"
        }
      ],
      "name": "Approval",
      "type": "event"
    },
    {
      "anonymous": false,
      "inputs": [
        {
          "indexed": true,
          "internalType": "address",
          "name": "from",
          "type": "address"
        },
        {
          "indexed": false,
          "internalType": "uint256",
          "name": "outUnderlyings",
          "type": "uint256"
        }
      ],
      "name": "Close",
      "type": "event"
    },
    {
      "anonymous": false,
      "inputs": [
        {
          "indexed": true,
          "internalType": "address",
          "name": "from",
          "type": "address"
        },
        {
          "indexed": false,
          "internalType": "uint256",
          "name": "outUnderlyings",
          "type": "uint256"
        },
        {
          "indexed": false,
          "internalType": "uint256",
          "name": "inStrikes",
          "type": "uint256"
        }
      ],
      "name": "Exercise",
      "type": "event"
    },
    {
      "anonymous": false,
      "inputs": [
        {
          "indexed": true,
          "internalType": "address",
          "name": "caller",
          "type": "address"
        },
        {
          "indexed": true,
          "internalType": "address",
          "name": "redeemToken",
          "type": "address"
        }
      ],
      "name": "InitializedRedeem",
      "type": "event"
    },
    {
      "anonymous": false,
      "inputs": [
        {
          "indexed": true,
          "internalType": "address",
          "name": "from",
          "type": "address"
        },
        {
          "indexed": false,
          "internalType": "uint256",
          "name": "outOptions",
          "type": "uint256"
        },
        {
          "indexed": false,
          "internalType": "uint256",
          "name": "outRedeems",
          "type": "uint256"
        }
      ],
      "name": "Mint",
      "type": "event"
    },
    {
      "anonymous": false,
      "inputs": [
        {
          "indexed": true,
          "internalType": "address",
          "name": "from",
          "type": "address"
        },
        {
          "indexed": false,
          "internalType": "uint256",
          "name": "inRedeems",
          "type": "uint256"
        }
      ],
      "name": "Redeem",
      "type": "event"
    },
    {
      "anonymous": false,
      "inputs": [
        {
          "indexed": true,
          "internalType": "address",
          "name": "from",
          "type": "address"
        },
        {
          "indexed": true,
          "internalType": "address",
          "name": "to",
          "type": "address"
        },
        {
          "indexed": false,
          "internalType": "uint256",
          "name": "value",
          "type": "uint256"
        }
      ],
      "name": "Transfer",
      "type": "event"
    },
    {
      "anonymous": false,
      "inputs": [
        {
          "indexed": false,
          "internalType": "uint256",
          "name": "underlyingCache",
          "type": "uint256"
        },
        {
          "indexed": false,
          "internalType": "uint256",
          "name": "strikeCache",
          "type": "uint256"
        }
      ],
      "name": "UpdatedCacheBalances",
      "type": "event"
    },
    {
      "inputs": [
        {
          "internalType": "address",
          "name": "owner",
          "type": "address"
        },
        {
          "internalType": "address",
          "name": "spender",
          "type": "address"
        }
      ],
      "name": "allowance",
      "outputs": [
        {
          "internalType": "uint256",
          "name": "",
          "type": "uint256"
        }
      ],
      "stateMutability": "view",
      "type": "function"
    },
    {
      "inputs": [
        {
          "internalType": "address",
          "name": "spender",
          "type": "address"
        },
        {
          "internalType": "uint256",
          "name": "amount",
          "type": "uint256"
        }
      ],
      "name": "approve",
      "outputs": [
        {
          "internalType": "bool",
          "name": "",
          "type": "bool"
        }
      ],
      "stateMutability": "nonpayable",
      "type": "function"
    },
    {
      "inputs": [
        {
          "internalType": "address",
          "name": "account",
          "type": "address"
        }
      ],
      "name": "balanceOf",
      "outputs": [
        {
          "internalType": "uint256",
          "name": "",
          "type": "uint256"
        }
      ],
      "stateMutability": "view",
      "type": "function"
    },
    {
      "inputs": [
        {
          "internalType": "address",
          "name": "receiver",
          "type": "address"
        }
      ],
      "name": "closeOptions",
      "outputs": [
        {
          "internalType": "uint256",
          "name": "",
          "type": "uint256"
        },
        {
          "internalType": "uint256",
          "name": "",
          "type": "uint256"
        },
        {
          "internalType": "uint256",
          "name": "",
          "type": "uint256"
        }
      ],
      "stateMutability": "nonpayable",
      "type": "function"
    },
    {
      "inputs": [],
      "name": "decimals",
      "outputs": [
        {
          "internalType": "uint8",
          "name": "",
          "type": "uint8"
        }
      ],
      "stateMutability": "view",
      "type": "function"
    },
    {
      "inputs": [
        {
          "internalType": "address",
          "name": "spender",
          "type": "address"
        },
        {
          "internalType": "uint256",
          "name": "subtractedValue",
          "type": "uint256"
        }
      ],
      "name": "decreaseAllowance",
      "outputs": [
        {
          "internalType": "bool",
          "name": "",
          "type": "bool"
        }
      ],
      "stateMutability": "nonpayable",
      "type": "function"
    },
    {
      "inputs": [
        {
          "internalType": "address",
          "name": "receiver",
          "type": "address"
        },
        {
          "internalType": "uint256",
          "name": "outUnderlyings",
          "type": "uint256"
        },
        {
          "internalType": "bytes",
          "name": "data",
          "type": "bytes"
        }
      ],
      "name": "exerciseOptions",
      "outputs": [
        {
          "internalType": "uint256",
          "name": "",
          "type": "uint256"
        },
        {
          "internalType": "uint256",
          "name": "",
          "type": "uint256"
        }
      ],
      "stateMutability": "nonpayable",
      "type": "function"
    },
    {
      "inputs": [],
      "name": "factory",
      "outputs": [
        {
          "internalType": "address",
          "name": "",
          "type": "address"
        }
      ],
      "stateMutability": "view",
      "type": "function"
    },
    {
      "inputs": [],
      "name": "getAssetAddresses",
      "outputs": [
        {
          "internalType": "address",
          "name": "",
          "type": "address"
        },
        {
          "internalType": "address",
          "name": "",
          "type": "address"
        },
        {
          "internalType": "address",
          "name": "",
          "type": "address"
        }
      ],
      "stateMutability": "view",
      "type": "function"
    },
    {
      "inputs": [],
      "name": "getBaseValue",
      "outputs": [
        {
          "internalType": "uint256",
          "name": "",
          "type": "uint256"
        }
      ],
      "stateMutability": "view",
      "type": "function"
    },
    {
      "inputs": [],
      "name": "getCacheBalances",
      "outputs": [
        {
          "internalType": "uint256",
          "name": "",
          "type": "uint256"
        },
        {
          "internalType": "uint256",
          "name": "",
          "type": "uint256"
        }
      ],
      "stateMutability": "view",
      "type": "function"
    },
    {
      "inputs": [],
      "name": "getExpiryTime",
      "outputs": [
        {
          "internalType": "uint256",
          "name": "",
          "type": "uint256"
        }
      ],
      "stateMutability": "view",
      "type": "function"
    },
    {
      "inputs": [],
      "name": "getParameters",
      "outputs": [
        {
          "internalType": "address",
          "name": "_underlyingToken",
          "type": "address"
        },
        {
          "internalType": "address",
          "name": "_strikeToken",
          "type": "address"
        },
        {
          "internalType": "address",
          "name": "_redeemToken",
          "type": "address"
        },
        {
          "internalType": "uint256",
          "name": "_base",
          "type": "uint256"
        },
        {
          "internalType": "uint256",
          "name": "_quote",
          "type": "uint256"
        },
        {
          "internalType": "uint256",
          "name": "_expiry",
          "type": "uint256"
        }
      ],
      "stateMutability": "view",
      "type": "function"
    },
    {
      "inputs": [],
      "name": "getQuoteValue",
      "outputs": [
        {
          "internalType": "uint256",
          "name": "",
          "type": "uint256"
        }
      ],
      "stateMutability": "view",
      "type": "function"
    },
    {
      "inputs": [],
      "name": "getStrikeTokenAddress",
      "outputs": [
        {
          "internalType": "address",
          "name": "",
          "type": "address"
        }
      ],
      "stateMutability": "view",
      "type": "function"
    },
    {
      "inputs": [],
      "name": "getUnderlyingTokenAddress",
      "outputs": [
        {
          "internalType": "address",
          "name": "",
          "type": "address"
        }
      ],
      "stateMutability": "view",
      "type": "function"
    },
    {
      "inputs": [
        {
          "internalType": "address",
          "name": "spender",
          "type": "address"
        },
        {
          "internalType": "uint256",
          "name": "addedValue",
          "type": "uint256"
        }
      ],
      "name": "increaseAllowance",
      "outputs": [
        {
          "internalType": "bool",
          "name": "",
          "type": "bool"
        }
      ],
      "stateMutability": "nonpayable",
      "type": "function"
    },
    {
      "inputs": [
        {
          "internalType": "address",
          "name": "redeemToken_",
          "type": "address"
        }
      ],
      "name": "initRedeemToken",
      "outputs": [],
      "stateMutability": "nonpayable",
      "type": "function"
    },
    {
      "inputs": [
        {
          "internalType": "address",
          "name": "underlyingToken",
          "type": "address"
        },
        {
          "internalType": "address",
          "name": "strikeToken",
          "type": "address"
        },
        {
          "internalType": "uint256",
          "name": "base",
          "type": "uint256"
        },
        {
          "internalType": "uint256",
          "name": "quote",
          "type": "uint256"
        },
        {
          "internalType": "uint256",
          "name": "expiry",
          "type": "uint256"
        }
      ],
      "name": "initialize",
      "outputs": [],
      "stateMutability": "nonpayable",
      "type": "function"
    },
    {
      "inputs": [
        {
          "internalType": "address",
          "name": "receiver",
          "type": "address"
        }
      ],
      "name": "mintOptions",
      "outputs": [
        {
          "internalType": "uint256",
          "name": "",
          "type": "uint256"
        },
        {
          "internalType": "uint256",
          "name": "",
          "type": "uint256"
        }
      ],
      "stateMutability": "nonpayable",
      "type": "function"
    },
    {
      "inputs": [],
      "name": "name",
      "outputs": [
        {
          "internalType": "string",
          "name": "",
          "type": "string"
        }
      ],
      "stateMutability": "view",
      "type": "function"
    },
    {
      "inputs": [],
      "name": "optionParameters",
      "outputs": [
        {
          "internalType": "address",
          "name": "underlyingToken",
          "type": "address"
        },
        {
          "internalType": "address",
          "name": "strikeToken",
          "type": "address"
        },
        {
          "internalType": "uint256",
          "name": "base",
          "type": "uint256"
        },
        {
          "internalType": "uint256",
          "name": "quote",
          "type": "uint256"
        },
        {
          "internalType": "uint256",
          "name": "expiry",
          "type": "uint256"
        }
      ],
      "stateMutability": "view",
      "type": "function"
    },
    {
      "inputs": [
        {
          "internalType": "address",
          "name": "receiver",
          "type": "address"
        }
      ],
      "name": "redeemStrikeTokens",
      "outputs": [
        {
          "internalType": "uint256",
          "name": "",
          "type": "uint256"
        }
      ],
      "stateMutability": "nonpayable",
      "type": "function"
    },
    {
      "inputs": [],
      "name": "redeemToken",
      "outputs": [
        {
          "internalType": "address",
          "name": "",
          "type": "address"
        }
      ],
      "stateMutability": "view",
      "type": "function"
    },
    {
      "inputs": [
        {
          "internalType": "uint256",
          "name": "expiry",
          "type": "uint256"
        }
      ],
      "name": "setExpiry",
      "outputs": [],
      "stateMutability": "nonpayable",
      "type": "function"
    },
    {
      "inputs": [
        {
          "internalType": "address",
          "name": "redeem",
          "type": "address"
        }
      ],
      "name": "setRedeemToken",
      "outputs": [],
      "stateMutability": "nonpayable",
      "type": "function"
    },
    {
      "inputs": [],
      "name": "strikeCache",
      "outputs": [
        {
          "internalType": "uint256",
          "name": "",
          "type": "uint256"
        }
      ],
      "stateMutability": "view",
      "type": "function"
    },
    {
      "inputs": [],
      "name": "symbol",
      "outputs": [
        {
          "internalType": "string",
          "name": "",
          "type": "string"
        }
      ],
      "stateMutability": "view",
      "type": "function"
    },
    {
      "inputs": [],
      "name": "totalSupply",
      "outputs": [
        {
          "internalType": "uint256",
          "name": "",
          "type": "uint256"
        }
      ],
      "stateMutability": "view",
      "type": "function"
    },
    {
      "inputs": [
        {
          "internalType": "address",
          "name": "recipient",
          "type": "address"
        },
        {
          "internalType": "uint256",
          "name": "amount",
          "type": "uint256"
        }
      ],
      "name": "transfer",
      "outputs": [
        {
          "internalType": "bool",
          "name": "",
          "type": "bool"
        }
      ],
      "stateMutability": "nonpayable",
      "type": "function"
    },
    {
      "inputs": [
        {
          "internalType": "address",
          "name": "sender",
          "type": "address"
        },
        {
          "internalType": "address",
          "name": "recipient",
          "type": "address"
        },
        {
          "internalType": "uint256",
          "name": "amount",
          "type": "uint256"
        }
      ],
      "name": "transferFrom",
      "outputs": [
        {
          "internalType": "bool",
          "name": "",
          "type": "bool"
        }
      ],
      "stateMutability": "nonpayable",
      "type": "function"
    },
    {
      "inputs": [],
      "name": "underlyingCache",
      "outputs": [
        {
          "internalType": "uint256",
          "name": "",
          "type": "uint256"
        }
      ],
      "stateMutability": "view",
      "type": "function"
    },
    {
      "inputs": [],
      "name": "updateCacheBalances",
      "outputs": [],
      "stateMutability": "nonpayable",
      "type": "function"
    }
  ],
  "bytecode": "0x608060405234801561001057600080fd5b506128cb806100206000396000f3fe608060405234801561001057600080fd5b50600436106101fa5760003560e01c806370a082311161011a578063a49b41d4116100ad578063b592a1381161007c578063b592a1381461066f578063c45a015514610677578063d13f90b41461067f578063dd62ed3e146106c1578063fa9ad7c4146106ef576101fa565b8063a49b41d414610594578063a5ea11da146105d3578063a9059cbb1461061d578063b43bb13514610649576101fa565b806387685fb9116100e957806387685fb91461052557806395d89b4114610558578063a1a4076114610560578063a457c2d714610568576101fa565b806370a082311461042e578063787eae30146104545780637a4fe387146104d957806383499805146104e1576101fa565b806323b872dd11610192578063395093511161016157806339509351146103b3578063440f5fd2146103df5780634a9d1036146103e75780635e86929d14610408576101fa565b806323b872dd1461033357806325cb5bc0146103695780632f310bad14610371578063313ce56714610395576101fa565b8063095ea7b3116101ce578063095ea7b3146102bd5780630b5cec95146102fd57806318160ddd146103235780631f12b3f81461032b576101fa565b8062fe19fa146101ff57806301cceb381461021957806302a5fea21461023857806306fdde0314610240575b600080fd5b610207610715565b60408051918252519081900360200190f35b6102366004803603602081101561022f57600080fd5b503561071b565b005b610236610720565b610248610883565b6040805160208082528351818301528351919283929083019185019080838360005b8381101561028257818101518382015260200161026a565b50505050905090810190601f1680156102af5780820380516001836020036101000a031916815260200191505b509250505060405180910390f35b6102e9600480360360408110156102d357600080fd5b506001600160a01b0381351690602001356108b2565b604080519115158252519081900360200190f35b6102366004803603602081101561031357600080fd5b50356001600160a01b03166108d0565b6102076108f2565b6102076108f8565b6102e96004803603606081101561034957600080fd5b506001600160a01b038135811691602081013590911690604001356108fe565b61020761098b565b610379610991565b604080516001600160a01b039092168252519081900360200190f35b61039d6109a0565b6040805160ff9092168252519081900360200190f35b6102e9600480360360408110156103c957600080fd5b506001600160a01b0381351690602001356109a5565b6103796109f9565b6103ef610a08565b6040805192835260208301919091528051918290030190f35b6102076004803603602081101561041e57600080fd5b50356001600160a01b0316610a12565b6102076004803603602081101561044457600080fd5b50356001600160a01b0316610d40565b6103ef6004803603606081101561046a57600080fd5b6001600160a01b038235169160208101359181019060608101604082013564010000000081111561049a57600080fd5b8201836020820111156104ac57600080fd5b803590602001918460018302840111640100000000831117156104ce57600080fd5b509092509050610d5b565b6102076112ae565b610507600480360360208110156104f757600080fd5b50356001600160a01b03166112b4565b60408051938452602084019290925282820152519081900360600190f35b61052d611669565b604080516001600160a01b039485168152928416602084015292168183015290519081900360600190f35b610248611686565b6103796116a5565b6102e96004803603604081101561057e57600080fd5b506001600160a01b0381351690602001356116b4565b61059c611722565b604080516001600160a01b039687168152949095166020850152838501929092526060830152608082015290519081900360a00190f35b6105db611744565b604080516001600160a01b039788168152958716602087015293909516848401526060840191909152608083015260a082019290925290519081900360c00190f35b6102e96004803603604081101561063357600080fd5b506001600160a01b0381351690602001356117b4565b6102366004803603602081101561065f57600080fd5b50356001600160a01b03166117c8565b6102076118ba565b6103796118c0565b610236600480360360a081101561069557600080fd5b506001600160a01b038135811691602081013590911690604081013590606081013590608001356118cf565b610207600480360360408110156106d757600080fd5b506001600160a01b0381358116916020013516611acb565b6103ef6004803603602081101561070557600080fd5b50356001600160a01b0316611af6565b60065490565b600755565b600b54600160a01b900460ff1661076c576040805162461bcd60e51b815260206004820152601f602482015260008051602061270a833981519152604482015290519081900360640190fd5b600b805460ff60a01b19169055600354604080516370a0823160e01b8152306004820152905161086e926001600160a01b0316916370a08231916024808301926020929190829003018186803b1580156107c557600080fd5b505afa1580156107d9573d6000803e3d6000fd5b505050506040513d60208110156107ef57600080fd5b505160048054604080516370a0823160e01b81523093810193909352516001600160a01b03909116916370a08231916024808301926020929190829003018186803b15801561083d57600080fd5b505afa158015610851573d6000803e3d6000fd5b505050506040513d602081101561086757600080fd5b5051611d6d565b600b805460ff60a01b1916600160a01b179055565b60405180604001604052806013815260200172283934b6b4ba34bb32902b189027b83a34b7b760691b81525081565b60006108c66108bf611db6565b8484611dba565b5060015b92915050565b600a80546001600160a01b0319166001600160a01b0392909216919091179055565b60025490565b60095481565b600061090b848484611ea6565b61098184610917611db6565b61097c856040518060600160405280602881526020016127b5602891396001600160a01b038a16600090815260016020526040812090610955611db6565b6001600160a01b03168152602081019190915260400160002054919063ffffffff61200d16565b611dba565b5060019392505050565b60075490565b600a546001600160a01b031681565b601281565b60006108c66109b2611db6565b8461097c85600160006109c3611db6565b6001600160a01b03908116825260208083019390935260409182016000908120918c16815292529020549063ffffffff6120a416565b6003546001600160a01b031690565b6008546009549091565b600b54600090600160a01b900460ff16610a61576040805162461bcd60e51b815260206004820152601f602482015260008051602061270a833981519152604482015290519081900360640190fd5b600b805460ff60a01b1916905560048054600a54604080516370a0823160e01b81523094810194909452516001600160a01b0392831693929091169160009184916370a08231916024808301926020929190829003018186803b158015610ac757600080fd5b505afa158015610adb573d6000803e3d6000fd5b505050506040513d6020811015610af157600080fd5b5051604080516370a0823160e01b815230600482015290519192506000916001600160a01b038516916370a08231916024808301926020929190829003018186803b158015610b3f57600080fd5b505afa158015610b53573d6000803e3d6000fd5b505050506040513d6020811015610b6957600080fd5b5051905080610baa576040805162461bcd60e51b81526020600482015260086024820152674552525f5a45524f60c01b604482015290519081900360640190fd5b80821015610bf0576040805162461bcd60e51b815260206004820152600e60248201526d4552525f42414c5f535452494b4560901b604482015290519081900360640190fd5b60408051632770a7eb60e21b81523060048201526024810183905290516001600160a01b03851691639dc29fac91604480830192600092919082900301818387803b158015610c3e57600080fd5b505af1158015610c52573d6000803e3d6000fd5b50610c6b925050506001600160a01b0385168783612105565b604080516370a0823160e01b815230600482015290516001600160a01b038616916370a08231916024808301926020929190829003018186803b158015610cb157600080fd5b505afa158015610cc5573d6000803e3d6000fd5b505050506040513d6020811015610cdb57600080fd5b5051600854909250610ced9083611d6d565b60408051828152905133917f222838db2794d11532d940e8dec38ae307ed0b63cd97c233322e221f998767a6919081900360200190a29350505050600b805460ff60a01b1916600160a01b179055919050565b6001600160a01b031660009081526020819052604090205490565b600b546000908190600160a01b900460ff16610dac576040805162461bcd60e51b815260206004820152601f602482015260008051602061270a833981519152604482015290519081900360640190fd5b600b805460ff60a01b19169055610dc161215c565b610e00576040805162461bcd60e51b815260206004820152600b60248201526a11549497d156141254915160aa1b604482015290519081900360640190fd5b6003546001600160a01b031685610e49576040805162461bcd60e51b81526020600482015260086024820152674552525f5a45524f60c01b604482015290519081900360640190fd5b604080516370a0823160e01b8152306004820152905187916001600160a01b038416916370a0823191602480820192602092909190829003018186803b158015610e9257600080fd5b505afa158015610ea6573d6000803e3d6000fd5b505050506040513d6020811015610ebc57600080fd5b50511015610f06576040805162461bcd60e51b81526020600482015260126024820152714552525f42414c5f554e4445524c59494e4760701b604482015290519081900360640190fd5b610f206001600160a01b038216888863ffffffff61210516565b8315610fc657604051636511d27560e01b8152336004820181815260248301899052606060448401908152606484018890526001600160a01b038b1693636511d27593928b928b928b929190608401848480828437600081840152601f19601f82011690508083019250505095505050505050600060405180830381600087803b158015610fad57600080fd5b505af1158015610fc1573d6000803e3d6000fd5b505050505b60048054604080516370a0823160e01b81523093810193909352516000926001600160a01b03909216916370a08231916024808301926020929190829003018186803b15801561101557600080fd5b505afa158015611029573d6000803e3d6000fd5b505050506040513d602081101561103f57600080fd5b5051604080516370a0823160e01b815230600482015290519192506000916001600160a01b038516916370a08231916024808301926020929190829003018186803b15801561108d57600080fd5b505afa1580156110a1573d6000803e3d6000fd5b505050506040513d60208110156110b757600080fd5b50516009549091506000906110d390849063ffffffff61216516565b905060006110fc6110ef8b60085461216590919063ffffffff16565b849063ffffffff61216516565b9050600082118061110d5750600081115b611149576040805162461bcd60e51b81526020600482015260086024820152674552525f5a45524f60c01b604482015290519081900360640190fd5b60008a8211611167576111628b8363ffffffff61216516565b61116a565b60005b600554600654919250600091611198919061118c90859063ffffffff6121a716565b9063ffffffff61220016565b905060006111a530610d40565b9050818510156111f0576040805162461bcd60e51b815260206004820152601160248201527011549497d4d5149252d154d7d253941555607a1b604482015290519081900360640190fd5b82811015611239576040805162461bcd60e51b815260206004820152601160248201527011549497d3d4151253d394d7d253941555607a1b604482015290519081900360640190fd5b6112433082612242565b61124d8688611d6d565b604080518e815260208101879052815133927f7fb8af33a94ca7bd709d59757a015eb48270f350724a5409fd77b579d0b7247d928290030190a2600b805460ff60a01b1916600160a01b179055939d939c50929a5050505050505050505050565b60085481565b6000806000600b60149054906101000a900460ff16611308576040805162461bcd60e51b815260206004820152601f602482015260008051602061270a833981519152604482015290519081900360640190fd5b600b805460ff60a01b19169055600354600a54604080516370a0823160e01b815230600482015290516001600160a01b03938416939092169160009184916370a0823191602480820192602092909190829003018186803b15801561136c57600080fd5b505afa158015611380573d6000803e3d6000fd5b505050506040513d602081101561139657600080fd5b5051905060006113a530610d40565b604080516370a0823160e01b815230600482015290519192506000916001600160a01b038616916370a08231916024808301926020929190829003018186803b1580156113f157600080fd5b505afa158015611405573d6000803e3d6000fd5b505050506040513d602081101561141b57600080fd5b505160065460055491925060009161143f919061118c90859063ffffffff6121a716565b9050600061144b61215c565b6114555781611457565b835b90506000831180156114695750600081115b6114a5576040805162461bcd60e51b81526020600482015260086024820152674552525f5a45524f60c01b604482015290519081900360640190fd5b8181101580156114b55750818510155b6114fb576040805162461bcd60e51b81526020600482015260126024820152714552525f42414c5f554e4445524c59494e4760701b604482015290519081900360640190fd5b61150361215c565b15611512576115123082612242565b60408051632770a7eb60e21b81523060048201526024810185905290516001600160a01b03881691639dc29fac91604480830192600092919082900301818387803b15801561156057600080fd5b505af1158015611574573d6000803e3d6000fd5b5061158d925050506001600160a01b0388168c84612105565b604080516370a0823160e01b815230600482015290516001600160a01b038916916370a08231916024808301926020929190829003018186803b1580156115d357600080fd5b505afa1580156115e7573d6000803e3d6000fd5b505050506040513d60208110156115fd57600080fd5b5051600954909550611610908690611d6d565b60408051838152905133917f684222b0069d4a2e5e0d986611cc5182d543904c4e4264bf770d4e51faefc822919081900360200190a2600b805460ff60a01b1916600160a01b179055919a919950975095505050505050565b600354600454600a546001600160a01b0392831693918316921690565b6040518060400160405280600381526020016250524d60e81b81525081565b6004546001600160a01b031690565b60006108c66116c1611db6565b8461097c8560405180606001604052806025815260200161287160259139600160006116eb611db6565b6001600160a01b03908116825260208083019390935260409182016000908120918d1681529252902054919063ffffffff61200d16565b6003546004546005546006546007546001600160a01b03948516949093169285565b6000806000806000806117556126a5565b50506040805160a0810182526003546001600160a01b03908116808352600454821660208401819052600554948401859052600654606085018190526007546080909501859052600a54929b919a509190921697509295509193509150565b60006108c66117c1611db6565b8484611ea6565b600b546001600160a01b03163314611817576040805162461bcd60e51b815260206004820152600d60248201526c22a9292fa727aa2fa7aba722a960991b604482015290519081900360640190fd5b600a546001600160a01b03161561186e576040805162461bcd60e51b815260206004820152601660248201527511549497d4915111515357d25392551250531256915160521b604482015290519081900360640190fd5b600a80546001600160a01b0319166001600160a01b03831690811790915560405133907f89d82022efb79096928f354aadac8912185187b551963720c3cf4db45f2b3fea90600090a350565b60055490565b600b546001600160a01b031681565b600b546001600160a01b031615611922576040805162461bcd60e51b815260206004820152601260248201527111549497d254d7d25392551250531256915160721b604482015290519081900360640190fd5b836001600160a01b0316856001600160a01b0316141561197b576040805162461bcd60e51b815260206004820152600f60248201526e4552525f53414d455f41535345545360881b604482015290519081900360640190fd5b600083116119c0576040805162461bcd60e51b815260206004820152600d60248201526c4552525f424153455f5a45524f60981b604482015290519081900360640190fd5b60008211611a06576040805162461bcd60e51b815260206004820152600e60248201526d4552525f51554f54455f5a45524f60901b604482015290519081900360640190fd5b42811015611a48576040805162461bcd60e51b815260206004820152600a6024820152694552525f45585049525960b01b604482015290519081900360640190fd5b600b80546040805160a0810182526001600160a01b039889168082529790981660208901819052908801869052606088018590526080909701839052600380546001600160a01b0319908116909717905560048054871690971790965560059390935560069190915560075560ff60a01b1991909216331716600160a01b179055565b6001600160a01b03918216600090815260016020908152604080832093909416825291909152205490565b600b546000908190600160a01b900460ff16611b47576040805162461bcd60e51b815260206004820152601f602482015260008051602061270a833981519152604482015290519081900360640190fd5b600b805460ff60a01b19169055611b5c61215c565b611b9b576040805162461bcd60e51b815260206004820152600b60248201526a11549497d156141254915160aa1b604482015290519081900360640190fd5b600354604080516370a0823160e01b815230600482015290516000926001600160a01b0316916370a08231916024808301926020929190829003018186803b158015611be657600080fd5b505afa158015611bfa573d6000803e3d6000fd5b505050506040513d6020811015611c1057600080fd5b5051600854909150600090611c2c90839063ffffffff61216516565b600554600654919250600091611c4e919061118c90859063ffffffff6121a716565b905060008111611c90576040805162461bcd60e51b81526020600482015260086024820152674552525f5a45524f60c01b604482015290519081900360640190fd5b600a54604080516340c10f1960e01b81526001600160a01b03898116600483015260248201859052915191909216916340c10f1991604480830192600092919082900301818387803b158015611ce557600080fd5b505af1158015611cf9573d6000803e3d6000fd5b50505050611d07868361234a565b611d1383600954611d6d565b6040805183815260208101839052815133927f4c209b5fc8ad50758f13e2e1088ba56a560dff690a1c6fef26394f4c03821c4f928290030190a2909350915050600b805460ff60a01b1916600160a01b1790559092909150565b60088290556009819055604080518381526020810183905281517f5a1c3e4cdfd0698a8d6ff240a75a16c8b2f07d2b7579bb89c8065077eda06d5f929181900390910190a15050565b3390565b6001600160a01b038316611dff5760405162461bcd60e51b81526004018080602001828103825260248152602001806128236024913960400191505060405180910390fd5b6001600160a01b038216611e445760405162461bcd60e51b815260040180806020018281038252602281526020018061274c6022913960400191505060405180910390fd5b6001600160a01b03808416600081815260016020908152604080832094871680845294825291829020859055815185815291517f8c5be1e5ebec7d5bd14f71427d1e84f3dd0314c0f7b2291e5b200ac8c7c3b9259281900390910190a3505050565b6001600160a01b038316611eeb5760405162461bcd60e51b81526004018080602001828103825260258152602001806127fe6025913960400191505060405180910390fd5b6001600160a01b038216611f305760405162461bcd60e51b81526004018080602001828103825260238152602001806126e76023913960400191505060405180910390fd5b611f3b838383612157565b611f7e8160405180606001604052806026815260200161276e602691396001600160a01b038616600090815260208190526040902054919063ffffffff61200d16565b6001600160a01b038085166000908152602081905260408082209390935590841681522054611fb3908263ffffffff6120a416565b6001600160a01b038084166000818152602081815260409182902094909455805185815290519193928716927fddf252ad1be2c89b69c2b068fc378daa952ba7f163c4a11628f55a4df523b3ef92918290030190a3505050565b6000818484111561209c5760405162461bcd60e51b81526004018080602001828103825283818151815260200191508051906020019080838360005b83811015612061578181015183820152602001612049565b50505050905090810190601f16801561208e5780820380516001836020036101000a031916815260200191505b509250505060405180910390fd5b505050900390565b6000828201838110156120fe576040805162461bcd60e51b815260206004820152601b60248201527f536166654d6174683a206164646974696f6e206f766572666c6f770000000000604482015290519081900360640190fd5b9392505050565b604080516001600160a01b038416602482015260448082018490528251808303909101815260649091019091526020810180516001600160e01b031663a9059cbb60e01b179052612157908490612446565b505050565b60075442111590565b60006120fe83836040518060400160405280601e81526020017f536166654d6174683a207375627472616374696f6e206f766572666c6f77000081525061200d565b6000826121b6575060006108ca565b828202828482816121c357fe5b04146120fe5760405162461bcd60e51b81526004018080602001828103825260218152602001806127946021913960400191505060405180910390fd5b60006120fe83836040518060400160405280601a81526020017f536166654d6174683a206469766973696f6e206279207a65726f000000000000815250612604565b6001600160a01b0382166122875760405162461bcd60e51b81526004018080602001828103825260218152602001806127dd6021913960400191505060405180910390fd5b61229382600083612157565b6122d68160405180606001604052806022815260200161272a602291396001600160a01b038516600090815260208190526040902054919063ffffffff61200d16565b6001600160a01b038316600090815260208190526040902055600254612302908263ffffffff61216516565b6002556040805182815290516000916001600160a01b038516917fddf252ad1be2c89b69c2b068fc378daa952ba7f163c4a11628f55a4df523b3ef9181900360200190a35050565b6001600160a01b0382166123a5576040805162461bcd60e51b815260206004820152601f60248201527f45524332303a206d696e7420746f20746865207a65726f206164647265737300604482015290519081900360640190fd5b6123b160008383612157565b6002546123c4908263ffffffff6120a416565b6002556001600160a01b0382166000908152602081905260409020546123f0908263ffffffff6120a416565b6001600160a01b0383166000818152602081815260408083209490945583518581529351929391927fddf252ad1be2c89b69c2b068fc378daa952ba7f163c4a11628f55a4df523b3ef9281900390910190a35050565b612458826001600160a01b0316612669565b6124a9576040805162461bcd60e51b815260206004820152601f60248201527f5361666545524332303a2063616c6c20746f206e6f6e2d636f6e747261637400604482015290519081900360640190fd5b60006060836001600160a01b0316836040518082805190602001908083835b602083106124e75780518252601f1990920191602091820191016124c8565b6001836020036101000a0380198251168184511680821785525050505050509050019150506000604051808303816000865af19150503d8060008114612549576040519150601f19603f3d011682016040523d82523d6000602084013e61254e565b606091505b5091509150816125a5576040805162461bcd60e51b815260206004820181905260248201527f5361666545524332303a206c6f772d6c6576656c2063616c6c206661696c6564604482015290519081900360640190fd5b8051156125fe578080602001905160208110156125c157600080fd5b50516125fe5760405162461bcd60e51b815260040180806020018281038252602a815260200180612847602a913960400191505060405180910390fd5b50505050565b600081836126535760405162461bcd60e51b8152602060048201818152835160248401528351909283926044909101919085019080838360008315612061578181015183820152602001612049565b50600083858161265f57fe5b0495945050505050565b6000813f7fc5d2460186f7233c927e7db2dcc703c0e500b653ca82273b7bfad8045d85a47081811480159061269d57508115155b949350505050565b6040518060a0016040528060006001600160a01b0316815260200160006001600160a01b03168152602001600081526020016000815260200160008152509056fe45524332303a207472616e7366657220746f20746865207a65726f20616464726573735265656e7472616e637947756172643a207265656e7472616e742063616c6c0045524332303a206275726e20616d6f756e7420657863656564732062616c616e636545524332303a20617070726f766520746f20746865207a65726f206164647265737345524332303a207472616e7366657220616d6f756e7420657863656564732062616c616e6365536166654d6174683a206d756c7469706c69636174696f6e206f766572666c6f7745524332303a207472616e7366657220616d6f756e74206578636565647320616c6c6f77616e636545524332303a206275726e2066726f6d20746865207a65726f206164647265737345524332303a207472616e736665722066726f6d20746865207a65726f206164647265737345524332303a20617070726f76652066726f6d20746865207a65726f20616464726573735361666545524332303a204552433230206f7065726174696f6e20646964206e6f74207375636365656445524332303a2064656372656173656420616c6c6f77616e63652062656c6f77207a65726fa26469706673582212201bd6b875b26743c6769ba6072c9d7a046c8704cf850246fd1b20205436c4ad0c64736f6c63430006020033",
  "linkReferences": {},
  "deployedLinkReferences": {}
}