{
  "contractName": "ERC721",
  "abi": [
    {
      "inputs": [],
      "stateMutability": "nonpayable",
      "type": "constructor"
    },
    {
      "anonymous": false,
      "inputs": [
        {
          "indexed": true,
          "internalType": "address",
          "name": "owner",
          "type": "address"
        },
        {
          "indexed": true,
          "internalType": "address",
          "name": "approved",
          "type": "address"
        },
        {
          "indexed": true,
          "internalType": "uint256",
          "name": "tokenId",
          "type": "uint256"
        }
      ],
      "name": "Approval",
      "type": "event"
    },
    {
      "anonymous": false,
      "inputs": [
        {
          "indexed": true,
          "internalType": "address",
          "name": "owner",
          "type": "address"
        },
        {
          "indexed": true,
          "internalType": "address",
          "name": "operator",
          "type": "address"
        },
        {
          "indexed": false,
          "internalType": "bool",
          "name": "approved",
          "type": "bool"
        }
      ],
      "name": "ApprovalForAll",
      "type": "event"
    },
    {
      "anonymous": false,
      "inputs": [
        {
          "indexed": true,
          "internalType": "address",
          "name": "from",
          "type": "address"
        },
        {
          "indexed": true,
          "internalType": "address",
          "name": "to",
          "type": "address"
        },
        {
          "indexed": true,
          "internalType": "uint256",
          "name": "tokenId",
          "type": "uint256"
        }
      ],
      "name": "Transfer",
      "type": "event"
    },
    {
      "inputs": [
        {
          "internalType": "bytes4",
          "name": "interfaceId",
          "type": "bytes4"
        }
      ],
      "name": "supportsInterface",
      "outputs": [
        {
          "internalType": "bool",
          "name": "",
          "type": "bool"
        }
      ],
      "stateMutability": "view",
      "type": "function"
    },
    {
      "inputs": [
        {
          "internalType": "address",
          "name": "owner",
          "type": "address"
        }
      ],
      "name": "balanceOf",
      "outputs": [
        {
          "internalType": "uint256",
          "name": "",
          "type": "uint256"
        }
      ],
      "stateMutability": "view",
      "type": "function"
    },
    {
      "inputs": [
        {
          "internalType": "uint256",
          "name": "tokenId",
          "type": "uint256"
        }
      ],
      "name": "ownerOf",
      "outputs": [
        {
          "internalType": "address",
          "name": "",
          "type": "address"
        }
      ],
      "stateMutability": "view",
      "type": "function"
    },
    {
      "inputs": [
        {
          "internalType": "address",
          "name": "to",
          "type": "address"
        },
        {
          "internalType": "uint256",
          "name": "tokenId",
          "type": "uint256"
        }
      ],
      "name": "approve",
      "outputs": [],
      "stateMutability": "nonpayable",
      "type": "function"
    },
    {
      "inputs": [
        {
          "internalType": "uint256",
          "name": "tokenId",
          "type": "uint256"
        }
      ],
      "name": "getApproved",
      "outputs": [
        {
          "internalType": "address",
          "name": "",
          "type": "address"
        }
      ],
      "stateMutability": "view",
      "type": "function"
    },
    {
      "inputs": [
        {
          "internalType": "address",
          "name": "operator",
          "type": "address"
        },
        {
          "internalType": "bool",
          "name": "approved",
          "type": "bool"
        }
      ],
      "name": "setApprovalForAll",
      "outputs": [],
      "stateMutability": "nonpayable",
      "type": "function"
    },
    {
      "inputs": [
        {
          "internalType": "address",
          "name": "owner",
          "type": "address"
        },
        {
          "internalType": "address",
          "name": "operator",
          "type": "address"
        }
      ],
      "name": "isApprovedForAll",
      "outputs": [
        {
          "internalType": "bool",
          "name": "",
          "type": "bool"
        }
      ],
      "stateMutability": "view",
      "type": "function"
    },
    {
      "inputs": [
        {
          "internalType": "address",
          "name": "from",
          "type": "address"
        },
        {
          "internalType": "address",
          "name": "to",
          "type": "address"
        },
        {
          "internalType": "uint256",
          "name": "tokenId",
          "type": "uint256"
        }
      ],
      "name": "transferFrom",
      "outputs": [],
      "stateMutability": "nonpayable",
      "type": "function"
    },
    {
      "inputs": [
        {
          "internalType": "address",
          "name": "from",
          "type": "address"
        },
        {
          "internalType": "address",
          "name": "to",
          "type": "address"
        },
        {
          "internalType": "uint256",
          "name": "tokenId",
          "type": "uint256"
        }
      ],
      "name": "safeTransferFrom",
      "outputs": [],
      "stateMutability": "nonpayable",
      "type": "function"
    },
    {
      "inputs": [
        {
          "internalType": "address",
          "name": "from",
          "type": "address"
        },
        {
          "internalType": "address",
          "name": "to",
          "type": "address"
        },
        {
          "internalType": "uint256",
          "name": "tokenId",
          "type": "uint256"
        },
        {
          "internalType": "bytes",
          "name": "_data",
          "type": "bytes"
        }
      ],
      "name": "safeTransferFrom",
      "outputs": [],
      "stateMutability": "nonpayable",
      "type": "function"
    }
  ],
  "bytecode": "0x608060405234801561001057600080fd5b506100276301ffc9a760e01b61004260201b60201c565b61003d6380ac58cd60e01b61004260201b60201c565b61014a565b63ffffffff60e01b817bffffffffffffffffffffffffffffffffffffffffffffffffffffffff191614156100de576040517f08c379a000000000000000000000000000000000000000000000000000000000815260040180806020018281038252601c8152602001807f4552433136353a20696e76616c696420696e746572666163652069640000000081525060200191505060405180910390fd5b6001600080837bffffffffffffffffffffffffffffffffffffffffffffffffffffffff19167bffffffffffffffffffffffffffffffffffffffffffffffffffffffff1916815260200190815260200160002060006101000a81548160ff02191690831515021790555050565b611823806101596000396000f3fe608060405234801561001057600080fd5b506004361061009e5760003560e01c80636352211e116100665780636352211e146102a057806370a082311461030e578063a22cb46514610366578063b88d4fde146103b6578063e985e9c5146104bb5761009e565b806301ffc9a7146100a3578063081812fc14610108578063095ea7b31461017657806323b872dd146101c457806342842e0e14610232575b600080fd5b6100ee600480360360208110156100b957600080fd5b8101908080357bffffffffffffffffffffffffffffffffffffffffffffffffffffffff19169060200190929190505050610537565b604051808215151515815260200191505060405180910390f35b6101346004803603602081101561011e57600080fd5b810190808035906020019092919050505061059e565b604051808273ffffffffffffffffffffffffffffffffffffffff1673ffffffffffffffffffffffffffffffffffffffff16815260200191505060405180910390f35b6101c26004803603604081101561018c57600080fd5b81019080803573ffffffffffffffffffffffffffffffffffffffff16906020019092919080359060200190929190505050610639565b005b610230600480360360608110156101da57600080fd5b81019080803573ffffffffffffffffffffffffffffffffffffffff169060200190929190803573ffffffffffffffffffffffffffffffffffffffff1690602001909291908035906020019092919050505061077d565b005b61029e6004803603606081101561024857600080fd5b81019080803573ffffffffffffffffffffffffffffffffffffffff169060200190929190803573ffffffffffffffffffffffffffffffffffffffff169060200190929190803590602001909291905050506107f3565b005b6102cc600480360360208110156102b657600080fd5b8101908080359060200190929190505050610813565b604051808273ffffffffffffffffffffffffffffffffffffffff1673ffffffffffffffffffffffffffffffffffffffff16815260200191505060405180910390f35b6103506004803603602081101561032457600080fd5b81019080803573ffffffffffffffffffffffffffffffffffffffff1690602001909291905050506108db565b6040518082815260200191505060405180910390f35b6103b46004803603604081101561037c57600080fd5b81019080803573ffffffffffffffffffffffffffffffffffffffff1690602001909291908035151590602001909291905050506109b0565b005b6104b9600480360360808110156103cc57600080fd5b81019080803573ffffffffffffffffffffffffffffffffffffffff169060200190929190803573ffffffffffffffffffffffffffffffffffffffff169060200190929190803590602001909291908035906020019064010000000081111561043357600080fd5b82018360208201111561044557600080fd5b8035906020019184600183028401116401000000008311171561046757600080fd5b91908080601f016020809104026020016040519081016040528093929190818152602001838380828437600081840152601f19601f820116905080830192505050505050509192919290505050610b68565b005b61051d600480360360408110156104d157600080fd5b81019080803573ffffffffffffffffffffffffffffffffffffffff169060200190929190803573ffffffffffffffffffffffffffffffffffffffff169060200190929190505050610be0565b604051808215151515815260200191505060405180910390f35b6000806000837bffffffffffffffffffffffffffffffffffffffffffffffffffffffff19167bffffffffffffffffffffffffffffffffffffffffffffffffffffffff1916815260200190815260200160002060009054906101000a900460ff169050919050565b60006105a982610c74565b6105fe576040517f08c379a000000000000000000000000000000000000000000000000000000000815260040180806020018281038252602c815260200180611747602c913960400191505060405180910390fd5b6002600083815260200190815260200160002060009054906101000a900473ffffffffffffffffffffffffffffffffffffffff169050919050565b600061064482610813565b90508073ffffffffffffffffffffffffffffffffffffffff168373ffffffffffffffffffffffffffffffffffffffff1614156106cb576040517f08c379a000000000000000000000000000000000000000000000000000000000815260040180806020018281038252602181526020018061179c6021913960400191505060405180910390fd5b8073ffffffffffffffffffffffffffffffffffffffff166106ea610ce6565b73ffffffffffffffffffffffffffffffffffffffff161480610719575061071881610713610ce6565b610be0565b5b61076e576040517f08c379a00000000000000000000000000000000000000000000000000000000081526004018080602001828103825260388152602001806116bc6038913960400191505060405180910390fd5b6107788383610cee565b505050565b61078e610788610ce6565b82610da7565b6107e3576040517f08c379a00000000000000000000000000000000000000000000000000000000081526004018080602001828103825260318152602001806117bd6031913960400191505060405180910390fd5b6107ee838383610e9b565b505050565b61080e83838360405180602001604052806000815250610b68565b505050565b6000806001600084815260200190815260200160002060009054906101000a900473ffffffffffffffffffffffffffffffffffffffff169050600073ffffffffffffffffffffffffffffffffffffffff168173ffffffffffffffffffffffffffffffffffffffff1614156108d2576040517f08c379a000000000000000000000000000000000000000000000000000000000815260040180806020018281038252602981526020018061171e6029913960400191505060405180910390fd5b80915050919050565b60008073ffffffffffffffffffffffffffffffffffffffff168273ffffffffffffffffffffffffffffffffffffffff161415610962576040517f08c379a000000000000000000000000000000000000000000000000000000000815260040180806020018281038252602a8152602001806116f4602a913960400191505060405180910390fd5b6109a9600360008473ffffffffffffffffffffffffffffffffffffffff1673ffffffffffffffffffffffffffffffffffffffff168152602001908152602001600020611103565b9050919050565b6109b8610ce6565b73ffffffffffffffffffffffffffffffffffffffff168273ffffffffffffffffffffffffffffffffffffffff161415610a59576040517f08c379a00000000000000000000000000000000000000000000000000000000081526004018080602001828103825260198152602001807f4552433732313a20617070726f766520746f2063616c6c65720000000000000081525060200191505060405180910390fd5b8060046000610a66610ce6565b73ffffffffffffffffffffffffffffffffffffffff1673ffffffffffffffffffffffffffffffffffffffff16815260200190815260200160002060008473ffffffffffffffffffffffffffffffffffffffff1673ffffffffffffffffffffffffffffffffffffffff16815260200190815260200160002060006101000a81548160ff0219169083151502179055508173ffffffffffffffffffffffffffffffffffffffff16610b13610ce6565b73ffffffffffffffffffffffffffffffffffffffff167f17307eab39ab6107e8899845ad3d59bd9653f200f220920489ca2b5937696c3183604051808215151515815260200191505060405180910390a35050565b610b79610b73610ce6565b83610da7565b610bce576040517f08c379a00000000000000000000000000000000000000000000000000000000081526004018080602001828103825260318152602001806117bd6031913960400191505060405180910390fd5b610bda84848484611111565b50505050565b6000600460008473ffffffffffffffffffffffffffffffffffffffff1673ffffffffffffffffffffffffffffffffffffffff16815260200190815260200160002060008373ffffffffffffffffffffffffffffffffffffffff1673ffffffffffffffffffffffffffffffffffffffff16815260200190815260200160002060009054906101000a900460ff16905092915050565b6000806001600084815260200190815260200160002060009054906101000a900473ffffffffffffffffffffffffffffffffffffffff169050600073ffffffffffffffffffffffffffffffffffffffff168173ffffffffffffffffffffffffffffffffffffffff161415915050919050565b600033905090565b816002600083815260200190815260200160002060006101000a81548173ffffffffffffffffffffffffffffffffffffffff021916908373ffffffffffffffffffffffffffffffffffffffff160217905550808273ffffffffffffffffffffffffffffffffffffffff16610d6183610813565b73ffffffffffffffffffffffffffffffffffffffff167f8c5be1e5ebec7d5bd14f71427d1e84f3dd0314c0f7b2291e5b200ac8c7c3b92560405160405180910390a45050565b6000610db282610c74565b610e07576040517f08c379a000000000000000000000000000000000000000000000000000000000815260040180806020018281038252602c815260200180611690602c913960400191505060405180910390fd5b6000610e1283610813565b90508073ffffffffffffffffffffffffffffffffffffffff168473ffffffffffffffffffffffffffffffffffffffff161480610e8157508373ffffffffffffffffffffffffffffffffffffffff16610e698461059e565b73ffffffffffffffffffffffffffffffffffffffff16145b80610e925750610e918185610be0565b5b91505092915050565b8273ffffffffffffffffffffffffffffffffffffffff16610ebb82610813565b73ffffffffffffffffffffffffffffffffffffffff1614610f27576040517f08c379a00000000000000000000000000000000000000000000000000000000081526004018080602001828103825260298152602001806117736029913960400191505060405180910390fd5b600073ffffffffffffffffffffffffffffffffffffffff168273ffffffffffffffffffffffffffffffffffffffff161415610fad576040517f08c379a000000000000000000000000000000000000000000000000000000000815260040180806020018281038252602481526020018061166c6024913960400191505060405180910390fd5b610fb8838383611183565b610fc3600082610cee565b61100a600360008573ffffffffffffffffffffffffffffffffffffffff1673ffffffffffffffffffffffffffffffffffffffff168152602001908152602001600020611188565b611051600360008473ffffffffffffffffffffffffffffffffffffffff1673ffffffffffffffffffffffffffffffffffffffff1681526020019081526020016000206111ab565b816001600083815260200190815260200160002060006101000a81548173ffffffffffffffffffffffffffffffffffffffff021916908373ffffffffffffffffffffffffffffffffffffffff160217905550808273ffffffffffffffffffffffffffffffffffffffff168473ffffffffffffffffffffffffffffffffffffffff167fddf252ad1be2c89b69c2b068fc378daa952ba7f163c4a11628f55a4df523b3ef60405160405180910390a4505050565b600081600001549050919050565b61111c848484610e9b565b611128848484846111c1565b61117d576040517f08c379a000000000000000000000000000000000000000000000000000000000815260040180806020018281038252603281526020018061163a6032913960400191505060405180910390fd5b50505050565b505050565b6111a0600182600001546114e490919063ffffffff16565b816000018190555050565b6001816000016000828254019250508190555050565b60006111e28473ffffffffffffffffffffffffffffffffffffffff1661152e565b6111ef57600190506114dc565b600060608573ffffffffffffffffffffffffffffffffffffffff1663150b7a0260e01b61121a610ce6565b898888604051602401808573ffffffffffffffffffffffffffffffffffffffff1673ffffffffffffffffffffffffffffffffffffffff1681526020018473ffffffffffffffffffffffffffffffffffffffff1673ffffffffffffffffffffffffffffffffffffffff16815260200183815260200180602001828103825283818151815260200191508051906020019080838360005b838110156112ca5780820151818401526020810190506112af565b50505050905090810190601f1680156112f75780820380516001836020036101000a031916815260200191505b5095505050505050604051602081830303815290604052907bffffffffffffffffffffffffffffffffffffffffffffffffffffffff19166020820180517bffffffffffffffffffffffffffffffffffffffffffffffffffffffff83818316178352505050506040518082805190602001908083835b6020831061138f578051825260208201915060208101905060208303925061136c565b6001836020036101000a0380198251168184511680821785525050505050509050019150506000604051808303816000865af19150503d80600081146113f1576040519150601f19603f3d011682016040523d82523d6000602084013e6113f6565b606091505b509150915081611464576000815111156114135780518082602001fd5b6040517f08c379a000000000000000000000000000000000000000000000000000000000815260040180806020018281038252603281526020018061163a6032913960400191505060405180910390fd5b600081806020019051602081101561147b57600080fd5b8101908080519060200190929190505050905063150b7a0260e01b7bffffffffffffffffffffffffffffffffffffffffffffffffffffffff1916817bffffffffffffffffffffffffffffffffffffffffffffffffffffffff19161493505050505b949350505050565b600061152683836040518060400160405280601e81526020017f536166654d6174683a207375627472616374696f6e206f766572666c6f770000815250611579565b905092915050565b60008060007fc5d2460186f7233c927e7db2dcc703c0e500b653ca82273b7bfad8045d85a47060001b9050833f915080821415801561157057506000801b8214155b92505050919050565b6000838311158290611626576040517f08c379a00000000000000000000000000000000000000000000000000000000081526004018080602001828103825283818151815260200191508051906020019080838360005b838110156115eb5780820151818401526020810190506115d0565b50505050905090810190601f1680156116185780820380516001836020036101000a031916815260200191505b509250505060405180910390fd5b506000838503905080915050939250505056fe4552433732313a207472616e7366657220746f206e6f6e20455243373231526563656976657220696d706c656d656e7465724552433732313a207472616e7366657220746f20746865207a65726f20616464726573734552433732313a206f70657261746f7220717565727920666f72206e6f6e6578697374656e7420746f6b656e4552433732313a20617070726f76652063616c6c6572206973206e6f74206f776e6572206e6f7220617070726f76656420666f7220616c6c4552433732313a2062616c616e636520717565727920666f7220746865207a65726f20616464726573734552433732313a206f776e657220717565727920666f72206e6f6e6578697374656e7420746f6b656e4552433732313a20617070726f76656420717565727920666f72206e6f6e6578697374656e7420746f6b656e4552433732313a207472616e73666572206f6620746f6b656e2074686174206973206e6f74206f776e4552433732313a20617070726f76616c20746f2063757272656e74206f776e65724552433732313a207472616e736665722063616c6c6572206973206e6f74206f776e6572206e6f7220617070726f766564a264697066735822122085113a46a9a5162568e132662e1e9a5dbf96d7bcb29de441fa8a235a26c812dd64736f6c63430006020033",
  "source": "pragma solidity ^0.6.0;\r\n\r\nimport \"./tokens/SafeMath.sol\";\r\n\r\n\r\ncontract Context {\r\n    // Empty internal constructor, to prevent people from mistakenly deploying\r\n    // an instance of this contract, which should be used via inheritance.\r\n    constructor () internal { }\r\n\r\n    function _msgSender() internal view virtual returns (address payable) {\r\n        return msg.sender;\r\n    }\r\n\r\n    function _msgData() internal view virtual returns (bytes memory) {\r\n        this; // silence state mutability warning without generating bytecode - see https://github.com/ethereum/solidity/issues/2691\r\n        return msg.data;\r\n    }\r\n}\r\n\r\n\r\n/**\r\n * @dev Collection of functions related to the address type\r\n */\r\nlibrary Address {\r\n    /**\r\n     * @dev Returns true if `account` is a contract.\r\n     *\r\n     * [IMPORTANT]\r\n     * ====\r\n     * It is unsafe to assume that an address for which this function returns\r\n     * false is an externally-owned account (EOA) and not a contract.\r\n     *\r\n     * Among others, `isContract` will return false for the following\r\n     * types of addresses:\r\n     *\r\n     *  - an externally-owned account\r\n     *  - a contract in construction\r\n     *  - an address where a contract will be created\r\n     *  - an address where a contract lived, but was destroyed\r\n     * ====\r\n     */\r\n    function isContract(address account) internal view returns (bool) {\r\n        // According to EIP-1052, 0x0 is the value returned for not-yet created accounts\r\n        // and 0xc5d2460186f7233c927e7db2dcc703c0e500b653ca82273b7bfad8045d85a470 is returned\r\n        // for accounts without code, i.e. `keccak256('')`\r\n        bytes32 codehash;\r\n        bytes32 accountHash = 0xc5d2460186f7233c927e7db2dcc703c0e500b653ca82273b7bfad8045d85a470;\r\n        // solhint-disable-next-line no-inline-assembly\r\n        assembly { codehash := extcodehash(account) }\r\n        return (codehash != accountHash && codehash != 0x0);\r\n    }\r\n\r\n    /**\r\n     * @dev Converts an `address` into `address payable`. Note that this is\r\n     * simply a type cast: the actual underlying value is not changed.\r\n     *\r\n     * _Available since v2.4.0._\r\n     */\r\n    function toPayable(address account) internal pure returns (address payable) {\r\n        return address(uint160(account));\r\n    }\r\n\r\n    /**\r\n     * @dev Replacement for Solidity's `transfer`: sends `amount` wei to\r\n     * `recipient`, forwarding all available gas and reverting on errors.\r\n     *\r\n     * https://eips.ethereum.org/EIPS/eip-1884[EIP1884] increases the gas cost\r\n     * of certain opcodes, possibly making contracts go over the 2300 gas limit\r\n     * imposed by `transfer`, making them unable to receive funds via\r\n     * `transfer`. {sendValue} removes this limitation.\r\n     *\r\n     * https://diligence.consensys.net/posts/2019/09/stop-using-soliditys-transfer-now/[Learn more].\r\n     *\r\n     * IMPORTANT: because control is transferred to `recipient`, care must be\r\n     * taken to not create reentrancy vulnerabilities. Consider using\r\n     * {ReentrancyGuard} or the\r\n     * https://solidity.readthedocs.io/en/v0.5.11/security-considerations.html#use-the-checks-effects-interactions-pattern[checks-effects-interactions pattern].\r\n     *\r\n     * _Available since v2.4.0._\r\n     */\r\n    function sendValue(address payable recipient, uint256 amount) internal {\r\n        require(address(this).balance >= amount, \"Address: insufficient balance\");\r\n\r\n        // solhint-disable-next-line avoid-low-level-calls, avoid-call-value\r\n        (bool success, ) = recipient.call.value(amount)(\"\");\r\n        require(success, \"Address: unable to send value, recipient may have reverted\");\r\n    }\r\n}\r\n\r\n\r\n/**\r\n * @dev Interface of the ERC165 standard, as defined in the\r\n * https://eips.ethereum.org/EIPS/eip-165[EIP].\r\n *\r\n * Implementers can declare support of contract interfaces, which can then be\r\n * queried by others ({ERC165Checker}).\r\n *\r\n * For an implementation, see {ERC165}.\r\n */\r\ninterface IERC165 {\r\n    /**\r\n     * @dev Returns true if this contract implements the interface defined by\r\n     * `interfaceId`. See the corresponding\r\n     * https://eips.ethereum.org/EIPS/eip-165#how-interfaces-are-identified[EIP section]\r\n     * to learn more about how these ids are created.\r\n     *\r\n     * This function call must use less than 30 000 gas.\r\n     */\r\n    function supportsInterface(bytes4 interfaceId) external view returns (bool);\r\n}\r\n\r\n\r\n/**\r\n * @dev Implementation of the {IERC165} interface.\r\n *\r\n * Contracts may inherit from this and call {_registerInterface} to declare\r\n * their support of an interface.\r\n */\r\ncontract ERC165 is IERC165 {\r\n    /*\r\n     * bytes4(keccak256('supportsInterface(bytes4)')) == 0x01ffc9a7\r\n     */\r\n    bytes4 private constant _INTERFACE_ID_ERC165 = 0x01ffc9a7;\r\n\r\n    /**\r\n     * @dev Mapping of interface ids to whether or not it's supported.\r\n     */\r\n    mapping(bytes4 => bool) private _supportedInterfaces;\r\n\r\n    constructor () internal {\r\n        // Derived contracts need only register support for their own interfaces,\r\n        // we register support for ERC165 itself here\r\n        _registerInterface(_INTERFACE_ID_ERC165);\r\n    }\r\n\r\n    /**\r\n     * @dev See {IERC165-supportsInterface}.\r\n     *\r\n     * Time complexity O(1), guaranteed to always use less than 30 000 gas.\r\n     */\r\n    function supportsInterface(bytes4 interfaceId) external view override returns (bool) {\r\n        return _supportedInterfaces[interfaceId];\r\n    }\r\n\r\n    /**\r\n     * @dev Registers the contract as an implementer of the interface defined by\r\n     * `interfaceId`. Support of the actual ERC165 interface is automatic and\r\n     * registering its interface id is not required.\r\n     *\r\n     * See {IERC165-supportsInterface}.\r\n     *\r\n     * Requirements:\r\n     *\r\n     * - `interfaceId` cannot be the ERC165 invalid interface (`0xffffffff`).\r\n     */\r\n    function _registerInterface(bytes4 interfaceId) internal virtual {\r\n        require(interfaceId != 0xffffffff, \"ERC165: invalid interface id\");\r\n        _supportedInterfaces[interfaceId] = true;\r\n    }\r\n}\r\n\r\n\r\n/**\r\n * @title Counters\r\n * @author Matt Condon (@shrugs)\r\n * @dev Provides counters that can only be incremented or decremented by one. This can be used e.g. to track the number\r\n * of elements in a mapping, issuing ERC721 ids, or counting request ids.\r\n *\r\n * Include with `using Counters for Counters.Counter;`\r\n * Since it is not possible to overflow a 256 bit integer with increments of one, `increment` can skip the {SafeMath}\r\n * overflow check, thereby saving gas. This does assume however correct usage, in that the underlying `_value` is never\r\n * directly accessed.\r\n */\r\nlibrary Counters {\r\n    using SafeMath for uint256;\r\n\r\n    struct Counter {\r\n        // This variable should never be directly accessed by users of the library: interactions must be restricted to\r\n        // the library's function. As of Solidity v0.5.2, this cannot be enforced, though there is a proposal to add\r\n        // this feature: see https://github.com/ethereum/solidity/issues/4637\r\n        uint256 _value; // default: 0\r\n    }\r\n\r\n    function current(Counter storage counter) internal view returns (uint256) {\r\n        return counter._value;\r\n    }\r\n\r\n    function increment(Counter storage counter) internal {\r\n        // The {SafeMath} overflow check can be skipped here, see the comment at the top\r\n        counter._value += 1;\r\n    }\r\n\r\n    function decrement(Counter storage counter) internal {\r\n        counter._value = counter._value.sub(1);\r\n    }\r\n}\r\n\r\n\r\n/**\r\n * @dev Required interface of an ERC721 compliant contract.\r\n */\r\nabstract contract IERC721 is IERC165 {\r\n    event Transfer(address indexed from, address indexed to, uint256 indexed tokenId);\r\n    event Approval(address indexed owner, address indexed approved, uint256 indexed tokenId);\r\n    event ApprovalForAll(address indexed owner, address indexed operator, bool approved);\r\n\r\n    /**\r\n     * @dev Returns the number of NFTs in `owner`'s account.\r\n     */\r\n    function balanceOf(address owner) public view virtual returns (uint256 balance);\r\n\r\n    /**\r\n     * @dev Returns the owner of the NFT specified by `tokenId`.\r\n     */\r\n    function ownerOf(uint256 tokenId) public view virtual returns (address owner);\r\n\r\n    /**\r\n     * @dev Transfers a specific NFT (`tokenId`) from one account (`from`) to\r\n     * another (`to`).\r\n     *\r\n     *\r\n     *\r\n     * Requirements:\r\n     * - `from`, `to` cannot be zero.\r\n     * - `tokenId` must be owned by `from`.\r\n     * - If the caller is not `from`, it must be have been allowed to move this\r\n     * NFT by either {approve} or {setApprovalForAll}.\r\n     */\r\n    function safeTransferFrom(address from, address to, uint256 tokenId) public virtual;\r\n    /**\r\n     * @dev Transfers a specific NFT (`tokenId`) from one account (`from`) to\r\n     * another (`to`).\r\n     *\r\n     * Requirements:\r\n     * - If the caller is not `from`, it must be approved to move this NFT by\r\n     * either {approve} or {setApprovalForAll}.\r\n     */\r\n    function transferFrom(address from, address to, uint256 tokenId) public virtual;\r\n    function approve(address to, uint256 tokenId) public virtual;\r\n    function getApproved(uint256 tokenId) public view virtual returns (address operator);\r\n\r\n    function setApprovalForAll(address operator, bool _approved) public virtual;\r\n    function isApprovedForAll(address owner, address operator) public view virtual returns (bool);\r\n\r\n\r\n    function safeTransferFrom(address from, address to, uint256 tokenId, bytes memory data) public virtual;\r\n}\r\n\r\n\r\n/**\r\n * @title ERC721 token receiver interface\r\n * @dev Interface for any contract that wants to support safeTransfers\r\n * from ERC721 asset contracts.\r\n */\r\nabstract contract IERC721Receiver {\r\n    /**\r\n     * @notice Handle the receipt of an NFT\r\n     * @dev The ERC721 smart contract calls this function on the recipient\r\n     * after a {IERC721-safeTransferFrom}. This function MUST return the function selector,\r\n     * otherwise the caller will revert the transaction. The selector to be\r\n     * returned can be obtained as `this.onERC721Received.selector`. This\r\n     * function MAY throw to revert and reject the transfer.\r\n     * Note: the ERC721 contract address is always the message sender.\r\n     * @param operator The address which called `safeTransferFrom` function\r\n     * @param from The address which previously owned the token\r\n     * @param tokenId The NFT identifier which is being transferred\r\n     * @param data Additional data with no specified format\r\n     * @return bytes4 `bytes4(keccak256(\"onERC721Received(address,address,uint256,bytes)\"))`\r\n     */\r\n    function onERC721Received(address operator, address from, uint256 tokenId, bytes memory data)\r\n    public virtual returns (bytes4);\r\n}\r\n\r\n\r\n/**\r\n * @title ERC-721 Non-Fungible Token Standard, optional metadata extension\r\n * @dev See https://eips.ethereum.org/EIPS/eip-721\r\n */\r\nabstract contract IERC721Metadata is IERC721 {\r\n    function name() external view virtual returns (string memory);\r\n    function symbol() external view virtual returns (string memory);\r\n    function tokenURI(uint256 tokenId) external view virtual returns (string memory);\r\n}\r\n\r\n\r\n/**\r\n * @title ERC721 Non-Fungible Token Standard basic implementation\r\n * @dev see https://eips.ethereum.org/EIPS/eip-721\r\n */\r\ncontract ERC721 is Context, ERC165, IERC721 {\r\n    using SafeMath for uint256;\r\n    using Address for address;\r\n    using Counters for Counters.Counter;\r\n\r\n    // Equals to `bytes4(keccak256(\"onERC721Received(address,address,uint256,bytes)\"))`\r\n    // which can be also obtained as `IERC721Receiver(0).onERC721Received.selector`\r\n    bytes4 private constant _ERC721_RECEIVED = 0x150b7a02;\r\n\r\n    // Mapping from token ID to owner\r\n    mapping (uint256 => address) private _tokenOwner;\r\n\r\n    // Mapping from token ID to approved address\r\n    mapping (uint256 => address) private _tokenApprovals;\r\n\r\n    // Mapping from owner to number of owned token\r\n    mapping (address => Counters.Counter) private _ownedTokensCount;\r\n\r\n    // Mapping from owner to operator approvals\r\n    mapping (address => mapping (address => bool)) private _operatorApprovals;\r\n\r\n    /*\r\n     *     bytes4(keccak256('balanceOf(address)')) == 0x70a08231\r\n     *     bytes4(keccak256('ownerOf(uint256)')) == 0x6352211e\r\n     *     bytes4(keccak256('approve(address,uint256)')) == 0x095ea7b3\r\n     *     bytes4(keccak256('getApproved(uint256)')) == 0x081812fc\r\n     *     bytes4(keccak256('setApprovalForAll(address,bool)')) == 0xa22cb465\r\n     *     bytes4(keccak256('isApprovedForAll(address,address)')) == 0xe985e9c5\r\n     *     bytes4(keccak256('transferFrom(address,address,uint256)')) == 0x23b872dd\r\n     *     bytes4(keccak256('safeTransferFrom(address,address,uint256)')) == 0x42842e0e\r\n     *     bytes4(keccak256('safeTransferFrom(address,address,uint256,bytes)')) == 0xb88d4fde\r\n     *\r\n     *     => 0x70a08231 ^ 0x6352211e ^ 0x095ea7b3 ^ 0x081812fc ^\r\n     *        0xa22cb465 ^ 0xe985e9c ^ 0x23b872dd ^ 0x42842e0e ^ 0xb88d4fde == 0x80ac58cd\r\n     */\r\n    bytes4 private constant _INTERFACE_ID_ERC721 = 0x80ac58cd;\r\n\r\n\r\n    constructor () public {\r\n        // register the supported interfaces to conform to ERC721 via ERC165\r\n        _registerInterface(_INTERFACE_ID_ERC721);\r\n    }\r\n\r\n\r\n    /**\r\n     * @dev Gets the balance of the specified address.\r\n     * @param owner address to query the balance of\r\n     * @return uint256 representing the amount owned by the passed address\r\n     */\r\n    function balanceOf(address owner) public view override returns (uint256) {\r\n        require(owner != address(0), \"ERC721: balance query for the zero address\");\r\n\r\n        return _ownedTokensCount[owner].current();\r\n    }\r\n\r\n    /**\r\n     * @dev Gets the owner of the specified token ID.\r\n     * @param tokenId uint256 ID of the token to query the owner of\r\n     * @return address currently marked as the owner of the given token ID\r\n     */\r\n    function ownerOf(uint256 tokenId) public view override returns (address) {\r\n        address owner = _tokenOwner[tokenId];\r\n        require(owner != address(0), \"ERC721: owner query for nonexistent token\");\r\n\r\n        return owner;\r\n    }\r\n\r\n    /**\r\n     * @dev Approves another address to transfer the given token ID\r\n     * The zero address indicates there is no approved address.\r\n     * There can only be one approved address per token at a given time.\r\n     * Can only be called by the token owner or an approved operator.\r\n     * @param to address to be approved for the given token ID\r\n     * @param tokenId uint256 ID of the token to be approved\r\n     */\r\n    function approve(address to, uint256 tokenId) public virtual override {\r\n        address owner = ownerOf(tokenId);\r\n        require(to != owner, \"ERC721: approval to current owner\");\r\n\r\n        require(_msgSender() == owner || isApprovedForAll(owner, _msgSender()),\r\n            \"ERC721: approve caller is not owner nor approved for all\"\r\n        );\r\n\r\n        _approve(to, tokenId);\r\n    }\r\n\r\n    /**\r\n     * @dev Gets the approved address for a token ID, or zero if no address set\r\n     * Reverts if the token ID does not exist.\r\n     * @param tokenId uint256 ID of the token to query the approval of\r\n     * @return address currently approved for the given token ID\r\n     */\r\n    function getApproved(uint256 tokenId) public view override returns (address) {\r\n        require(_exists(tokenId), \"ERC721: approved query for nonexistent token\");\r\n\r\n        return _tokenApprovals[tokenId];\r\n    }\r\n\r\n    /**\r\n     * @dev Sets or unsets the approval of a given operator\r\n     * An operator is allowed to transfer all tokens of the sender on their behalf.\r\n     * @param operator operator address to set the approval\r\n     * @param approved representing the status of the approval to be set\r\n     */\r\n    function setApprovalForAll(address operator, bool approved) public virtual override {\r\n        require(operator != _msgSender(), \"ERC721: approve to caller\");\r\n\r\n        _operatorApprovals[_msgSender()][operator] = approved;\r\n        emit ApprovalForAll(_msgSender(), operator, approved);\r\n    }\r\n\r\n    /**\r\n     * @dev Tells whether an operator is approved by a given owner.\r\n     * @param owner owner address which you want to query the approval of\r\n     * @param operator operator address which you want to query the approval of\r\n     * @return bool whether the given operator is approved by the given owner\r\n     */\r\n    function isApprovedForAll(address owner, address operator) public view override returns (bool) {\r\n        return _operatorApprovals[owner][operator];\r\n    }\r\n\r\n    /**\r\n     * @dev Transfers the ownership of a given token ID to another address.\r\n     * Usage of this method is discouraged, use {safeTransferFrom} whenever possible.\r\n     * Requires the msg.sender to be the owner, approved, or operator.\r\n     * @param from current owner of the token\r\n     * @param to address to receive the ownership of the given token ID\r\n     * @param tokenId uint256 ID of the token to be transferred\r\n     */\r\n    function transferFrom(address from, address to, uint256 tokenId) public virtual override {\r\n        //solhint-disable-next-line max-line-length\r\n        require(_isApprovedOrOwner(_msgSender(), tokenId), \"ERC721: transfer caller is not owner nor approved\");\r\n\r\n        _transferFrom(from, to, tokenId);\r\n    }\r\n\r\n    /**\r\n     * @dev Safely transfers the ownership of a given token ID to another address\r\n     * If the target address is a contract, it must implement {IERC721Receiver-onERC721Received},\r\n     * which is called upon a safe transfer, and return the magic value\r\n     * `bytes4(keccak256(\"onERC721Received(address,address,uint256,bytes)\"))`; otherwise,\r\n     * the transfer is reverted.\r\n     * Requires the msg.sender to be the owner, approved, or operator\r\n     * @param from current owner of the token\r\n     * @param to address to receive the ownership of the given token ID\r\n     * @param tokenId uint256 ID of the token to be transferred\r\n     */\r\n    function safeTransferFrom(address from, address to, uint256 tokenId) public virtual override {\r\n        safeTransferFrom(from, to, tokenId, \"\");\r\n    }\r\n\r\n    /**\r\n     * @dev Safely transfers the ownership of a given token ID to another address\r\n     * If the target address is a contract, it must implement {IERC721Receiver-onERC721Received},\r\n     * which is called upon a safe transfer, and return the magic value\r\n     * `bytes4(keccak256(\"onERC721Received(address,address,uint256,bytes)\"))`; otherwise,\r\n     * the transfer is reverted.\r\n     * Requires the _msgSender() to be the owner, approved, or operator\r\n     * @param from current owner of the token\r\n     * @param to address to receive the ownership of the given token ID\r\n     * @param tokenId uint256 ID of the token to be transferred\r\n     * @param _data bytes data to send along with a safe transfer check\r\n     */\r\n    function safeTransferFrom(address from, address to, uint256 tokenId, bytes memory _data) public virtual override {\r\n        require(_isApprovedOrOwner(_msgSender(), tokenId), \"ERC721: transfer caller is not owner nor approved\");\r\n        _safeTransferFrom(from, to, tokenId, _data);\r\n    }\r\n\r\n    /**\r\n     * @dev Safely transfers the ownership of a given token ID to another address\r\n     * If the target address is a contract, it must implement `onERC721Received`,\r\n     * which is called upon a safe transfer, and return the magic value\r\n     * `bytes4(keccak256(\"onERC721Received(address,address,uint256,bytes)\"))`; otherwise,\r\n     * the transfer is reverted.\r\n     * Requires the msg.sender to be the owner, approved, or operator\r\n     * @param from current owner of the token\r\n     * @param to address to receive the ownership of the given token ID\r\n     * @param tokenId uint256 ID of the token to be transferred\r\n     * @param _data bytes data to send along with a safe transfer check\r\n     */\r\n    function _safeTransferFrom(address from, address to, uint256 tokenId, bytes memory _data) internal virtual {\r\n        _transferFrom(from, to, tokenId);\r\n        require(_checkOnERC721Received(from, to, tokenId, _data), \"ERC721: transfer to non ERC721Receiver implementer\");\r\n    }\r\n\r\n    /**\r\n     * @dev Returns whether the specified token exists.\r\n     * @param tokenId uint256 ID of the token to query the existence of\r\n     * @return bool whether the token exists\r\n     */\r\n    function _exists(uint256 tokenId) internal view returns (bool) {\r\n        address owner = _tokenOwner[tokenId];\r\n        return owner != address(0);\r\n    }\r\n\r\n    /**\r\n     * @dev Returns whether the given spender can transfer a given token ID.\r\n     * @param spender address of the spender to query\r\n     * @param tokenId uint256 ID of the token to be transferred\r\n     * @return bool whether the msg.sender is approved for the given token ID,\r\n     * is an operator of the owner, or is the owner of the token\r\n     */\r\n    function _isApprovedOrOwner(address spender, uint256 tokenId) internal view returns (bool) {\r\n        require(_exists(tokenId), \"ERC721: operator query for nonexistent token\");\r\n        address owner = ownerOf(tokenId);\r\n        return (spender == owner || getApproved(tokenId) == spender || isApprovedForAll(owner, spender));\r\n    }\r\n\r\n    /**\r\n     * @dev Internal function to safely mint a new token.\r\n     * Reverts if the given token ID already exists.\r\n     * If the target address is a contract, it must implement `onERC721Received`,\r\n     * which is called upon a safe transfer, and return the magic value\r\n     * `bytes4(keccak256(\"onERC721Received(address,address,uint256,bytes)\"))`; otherwise,\r\n     * the transfer is reverted.\r\n     * @param to The address that will own the minted token\r\n     * @param tokenId uint256 ID of the token to be minted\r\n     */\r\n    function _safeMint(address to, uint256 tokenId) internal virtual {\r\n        _safeMint(to, tokenId, \"\");\r\n    }\r\n\r\n    /**\r\n     * @dev Internal function to safely mint a new token.\r\n     * Reverts if the given token ID already exists.\r\n     * If the target address is a contract, it must implement `onERC721Received`,\r\n     * which is called upon a safe transfer, and return the magic value\r\n     * `bytes4(keccak256(\"onERC721Received(address,address,uint256,bytes)\"))`; otherwise,\r\n     * the transfer is reverted.\r\n     * @param to The address that will own the minted token\r\n     * @param tokenId uint256 ID of the token to be minted\r\n     * @param _data bytes data to send along with a safe transfer check\r\n     */\r\n    function _safeMint(address to, uint256 tokenId, bytes memory _data) internal virtual {\r\n        _mint(to, tokenId);\r\n        require(_checkOnERC721Received(address(0), to, tokenId, _data), \"ERC721: transfer to non ERC721Receiver implementer\");\r\n    }\r\n\r\n    /**\r\n     * @dev Internal function to mint a new token.\r\n     * Reverts if the given token ID already exists.\r\n     * @param to The address that will own the minted token\r\n     * @param tokenId uint256 ID of the token to be minted\r\n     */\r\n    function _mint(address to, uint256 tokenId) internal virtual {\r\n        require(to != address(0), \"ERC721: mint to the zero address\");\r\n        require(!_exists(tokenId), \"ERC721: token already minted\");\r\n\r\n        _beforeTokenTransfer(address(0), to, tokenId);\r\n\r\n        _tokenOwner[tokenId] = to;\r\n        _ownedTokensCount[to].increment();\r\n\r\n        emit Transfer(address(0), to, tokenId);\r\n    }\r\n\r\n    /**\r\n     * @dev Internal function to burn a specific token.\r\n     * Reverts if the token does not exist.\r\n     * Deprecated, use {_burn} instead.\r\n     * @param owner owner of the token to burn\r\n     * @param tokenId uint256 ID of the token being burned\r\n     */\r\n    function _burn(address owner, uint256 tokenId) internal virtual {\r\n        require(ownerOf(tokenId) == owner, \"ERC721: burn of token that is not own\");\r\n\r\n        _beforeTokenTransfer(owner, address(0), tokenId);\r\n\r\n        // Clear approvals\r\n        _approve(address(0), tokenId);\r\n\r\n        _ownedTokensCount[owner].decrement();\r\n        _tokenOwner[tokenId] = address(0);\r\n\r\n        emit Transfer(owner, address(0), tokenId);\r\n    }\r\n\r\n    /**\r\n     * @dev Internal function to burn a specific token.\r\n     * Reverts if the token does not exist.\r\n     * @param tokenId uint256 ID of the token being burned\r\n     */\r\n    function _burn(uint256 tokenId) internal virtual {\r\n        _burn(ownerOf(tokenId), tokenId);\r\n    }\r\n\r\n    /**\r\n     * @dev Internal function to transfer ownership of a given token ID to another address.\r\n     * As opposed to {transferFrom}, this imposes no restrictions on msg.sender.\r\n     * @param from current owner of the token\r\n     * @param to address to receive the ownership of the given token ID\r\n     * @param tokenId uint256 ID of the token to be transferred\r\n     */\r\n    function _transferFrom(address from, address to, uint256 tokenId) internal virtual {\r\n        require(ownerOf(tokenId) == from, \"ERC721: transfer of token that is not own\");\r\n        require(to != address(0), \"ERC721: transfer to the zero address\");\r\n\r\n        _beforeTokenTransfer(from, to, tokenId);\r\n\r\n        // Clear approvals\r\n        _approve(address(0), tokenId);\r\n\r\n        _ownedTokensCount[from].decrement();\r\n        _ownedTokensCount[to].increment();\r\n\r\n        _tokenOwner[tokenId] = to;\r\n\r\n        emit Transfer(from, to, tokenId);\r\n    }\r\n\r\n    /**\r\n     * @dev Internal function to invoke {IERC721Receiver-onERC721Received} on a target address.\r\n     * The call is not executed if the target address is not a contract.\r\n     *\r\n     * This is an internal detail of the `ERC721` contract and its use is deprecated.\r\n     * @param from address representing the previous owner of the given token ID\r\n     * @param to target address that will receive the tokens\r\n     * @param tokenId uint256 ID of the token to be transferred\r\n     * @param _data bytes optional data to send along with the call\r\n     * @return bool whether the call correctly returned the expected magic value\r\n     */\r\n    function _checkOnERC721Received(address from, address to, uint256 tokenId, bytes memory _data)\r\n        internal virtual returns (bool)\r\n    {\r\n        if (!to.isContract()) {\r\n            return true;\r\n        }\r\n        // solhint-disable-next-line avoid-low-level-calls\r\n        (bool success, bytes memory returndata) = to.call(abi.encodeWithSelector(\r\n            IERC721Receiver(to).onERC721Received.selector,\r\n            _msgSender(),\r\n            from,\r\n            tokenId,\r\n            _data\r\n        ));\r\n        if (!success) {\r\n            if (returndata.length > 0) {\r\n                // solhint-disable-next-line no-inline-assembly\r\n                assembly {\r\n                    let returndata_size := mload(returndata)\r\n                    revert(add(32, returndata), returndata_size)\r\n                }\r\n            } else {\r\n                revert(\"ERC721: transfer to non ERC721Receiver implementer\");\r\n            }\r\n        } else {\r\n            bytes4 retval = abi.decode(returndata, (bytes4));\r\n            return (retval == _ERC721_RECEIVED);\r\n        }\r\n    }\r\n\r\n    function _approve(address to, uint256 tokenId) private {\r\n        _tokenApprovals[tokenId] = to;\r\n        emit Approval(ownerOf(tokenId), to, tokenId);\r\n    }\r\n\r\n\r\n    function _beforeTokenTransfer(address from, address to, uint256 tokenId) internal virtual { }\r\n}\r\n\r\n\r\ncontract Slate is Context, ERC165, ERC721, IERC721Metadata {\r\n    // Token name\r\n    string public _name;\r\n\r\n    // Token symbol\r\n    string public _symbol;\r\n\r\n    // Base URI\r\n    string public _baseURI;\r\n\r\n    // Controller\r\n    address public _controller;\r\n\r\n    // Optional mapping for token URIs\r\n    mapping(uint256 => string) private _tokenURIs;\r\n\r\n    /*\r\n     *     bytes4(keccak256('name()')) == 0x06fdde03\r\n     *     bytes4(keccak256('symbol()')) == 0x95d89b41\r\n     *     bytes4(keccak256('tokenURI(uint256)')) == 0xc87b56dd\r\n     *\r\n     *     => 0x06fdde03 ^ 0x95d89b41 ^ 0xc87b56dd == 0x5b5e139f\r\n     */\r\n    bytes4 public constant _INTERFACE_ID_ERC721_METADATA = 0x5b5e139f;\r\n\r\n    /**\r\n     * @dev Constructor function\r\n     */\r\n    constructor (string memory name, string memory symbol) public {\r\n        _name = name;\r\n        _symbol = symbol;\r\n        _controller = msg.sender;\r\n\r\n        // register the supported interfaces to conform to ERC721 via ERC165\r\n        _registerInterface(_INTERFACE_ID_ERC721_METADATA);\r\n    }\r\n\r\n    function setController(address controller) public returns (bool) {\r\n        require(_controller == msg.sender, 'Sender not controller');\r\n        _controller = controller;\r\n        return true;\r\n    }\r\n\r\n    function mintSlate(address to, uint256 tokenId, string memory tokenURI) public returns (bool) {\r\n        //require(_controller == msg.sender, 'Sender not controller');\r\n        _safeMint(to, tokenId);\r\n        _setTokenURI(tokenId, tokenURI);\r\n        return true;\r\n    }\r\n\r\n    function burn(address owner, uint256 tokenId) public returns (bool) {\r\n        _burn(owner, tokenId);\r\n        return true;\r\n    }\r\n\r\n    /**\r\n     * @dev Gets the token name.\r\n     * @return string representing the token name\r\n     */\r\n    function name() external view override returns (string memory) {\r\n        return _name;\r\n    }\r\n\r\n    /**\r\n     * @dev Gets the token symbol.\r\n     * @return string representing the token symbol\r\n     */\r\n    function symbol() external view override returns (string memory) {\r\n        return _symbol;\r\n    }\r\n\r\n    /**\r\n     * @dev Returns the URI for a given token ID. May return an empty string.\r\n     *\r\n     * If the token's URI is non-empty and a base URI was set (via\r\n     * {_setBaseURI}), it will be added to the token ID's URI as a prefix.\r\n     *\r\n     * Reverts if the token ID does not exist.\r\n     */\r\n    function tokenURI(uint256 tokenId) external view override returns (string memory) {\r\n        require(_exists(tokenId), \"ERC721Metadata: URI query for nonexistent token\");\r\n\r\n        string memory _tokenURI = _tokenURIs[tokenId];\r\n\r\n        // Even if there is a base URI, it is only appended to non-empty token-specific URIs\r\n        if (bytes(_tokenURI).length == 0) {\r\n            return \"\";\r\n        } else {\r\n            // abi.encodePacked is being used to concatenate strings\r\n            return string(abi.encodePacked(_baseURI, _tokenURI));\r\n        }\r\n    }\r\n\r\n    /**\r\n     * @dev Internal function to set the token URI for a given token.\r\n     *\r\n     * Reverts if the token ID does not exist.\r\n     *\r\n     * TIP: if all token IDs share a prefix (e.g. if your URIs look like\r\n     * `http://api.myproject.com/token/<id>`), use {_setBaseURI} to store\r\n     * it and save gas.\r\n     */\r\n    function _setTokenURI(uint256 tokenId, string memory _tokenURI) internal virtual {\r\n        require(_exists(tokenId), \"ERC721Metadata: URI set of nonexistent token\");\r\n        _tokenURIs[tokenId] = _tokenURI;\r\n    }\r\n\r\n    /**\r\n     * @dev Internal function to set the base URI for all token IDs. It is\r\n     * automatically added as a prefix to the value returned in {tokenURI}.\r\n     *\r\n     * _Available since v2.5.0._\r\n     */\r\n    function _setBaseURI(string memory baseURI) internal virtual {\r\n        _baseURI = baseURI;\r\n    }\r\n\r\n    /**\r\n    * @dev Returns the base URI set via {_setBaseURI}. This will be\r\n    * automatically added as a preffix in {tokenURI} to each token's URI, when\r\n    * they are non-empty.\r\n    *\r\n    * _Available since v2.5.0._\r\n    */\r\n    function baseURI() external view returns (string memory) {\r\n        return _baseURI;\r\n    }\r\n\r\n\r\n    function _beforeTokenTransfer(address from, address to, uint256 tokenId) internal virtual override {\r\n        super._beforeTokenTransfer(from, to, tokenId);\r\n\r\n        if (to == address(0)) { // When burning tokens\r\n            // Clear metadata (if any)\r\n            if (bytes(_tokenURIs[tokenId]).length != 0) {\r\n                delete _tokenURIs[tokenId];\r\n            }\r\n        }\r\n    }\r\n}\r\n",
  "sourcePath": "C:\\Users\\alexa\\OneDrive\\Documents\\Master\\Blockchain\\Projects\\carbon\\contracts\\Slate.sol",
  "compiler": {
    "name": "solc",
    "version": "0.6.2+commit.bacdbe57.Emscripten.clang"
  },
  "schemaVersion": "3.0.23",
  "updatedAt": "2020-03-05T19:11:03.051Z",
  "devdoc": {
    "details": "see https://eips.ethereum.org/EIPS/eip-721",
    "methods": {
      "approve(address,uint256)": {
        "details": "Approves another address to transfer the given token ID The zero address indicates there is no approved address. There can only be one approved address per token at a given time. Can only be called by the token owner or an approved operator.",
        "params": {
          "to": "address to be approved for the given token ID",
          "tokenId": "uint256 ID of the token to be approved"
        }
      },
      "balanceOf(address)": {
        "details": "Gets the balance of the specified address.",
        "params": {
          "owner": "address to query the balance of"
        },
        "returns": {
          "_0": "uint256 representing the amount owned by the passed address"
        }
      },
      "getApproved(uint256)": {
        "details": "Gets the approved address for a token ID, or zero if no address set Reverts if the token ID does not exist.",
        "params": {
          "tokenId": "uint256 ID of the token to query the approval of"
        },
        "returns": {
          "_0": "address currently approved for the given token ID"
        }
      },
      "isApprovedForAll(address,address)": {
        "details": "Tells whether an operator is approved by a given owner.",
        "params": {
          "operator": "operator address which you want to query the approval of",
          "owner": "owner address which you want to query the approval of"
        },
        "returns": {
          "_0": "bool whether the given operator is approved by the given owner"
        }
      },
      "ownerOf(uint256)": {
        "details": "Gets the owner of the specified token ID.",
        "params": {
          "tokenId": "uint256 ID of the token to query the owner of"
        },
        "returns": {
          "_0": "address currently marked as the owner of the given token ID"
        }
      },
      "safeTransferFrom(address,address,uint256)": {
        "details": "Safely transfers the ownership of a given token ID to another address If the target address is a contract, it must implement {IERC721Receiver-onERC721Received}, which is called upon a safe transfer, and return the magic value `bytes4(keccak256(\"onERC721Received(address,address,uint256,bytes)\"))`; otherwise, the transfer is reverted. Requires the msg.sender to be the owner, approved, or operator",
        "params": {
          "from": "current owner of the token",
          "to": "address to receive the ownership of the given token ID",
          "tokenId": "uint256 ID of the token to be transferred"
        }
      },
      "safeTransferFrom(address,address,uint256,bytes)": {
        "details": "Safely transfers the ownership of a given token ID to another address If the target address is a contract, it must implement {IERC721Receiver-onERC721Received}, which is called upon a safe transfer, and return the magic value `bytes4(keccak256(\"onERC721Received(address,address,uint256,bytes)\"))`; otherwise, the transfer is reverted. Requires the _msgSender() to be the owner, approved, or operator",
        "params": {
          "_data": "bytes data to send along with a safe transfer check",
          "from": "current owner of the token",
          "to": "address to receive the ownership of the given token ID",
          "tokenId": "uint256 ID of the token to be transferred"
        }
      },
      "setApprovalForAll(address,bool)": {
        "details": "Sets or unsets the approval of a given operator An operator is allowed to transfer all tokens of the sender on their behalf.",
        "params": {
          "approved": "representing the status of the approval to be set",
          "operator": "operator address to set the approval"
        }
      },
      "supportsInterface(bytes4)": {
        "details": "See {IERC165-supportsInterface}.      * Time complexity O(1), guaranteed to always use less than 30 000 gas."
      },
      "transferFrom(address,address,uint256)": {
        "details": "Transfers the ownership of a given token ID to another address. Usage of this method is discouraged, use {safeTransferFrom} whenever possible. Requires the msg.sender to be the owner, approved, or operator.",
        "params": {
          "from": "current owner of the token",
          "to": "address to receive the ownership of the given token ID",
          "tokenId": "uint256 ID of the token to be transferred"
        }
      }
    },
    "title": "ERC721 Non-Fungible Token Standard basic implementation"
  },
  "userdoc": {
    "methods": {}
  }
}