{
  "contractName": "Exchange",
  "abi": [
    {
      "inputs": [
        {
          "internalType": "address",
          "name": "primeAddress",
          "type": "address"
        }
      ],
      "stateMutability": "nonpayable",
      "type": "constructor"
    },
    {
      "anonymous": false,
      "inputs": [
        {
          "indexed": false,
          "internalType": "address",
          "name": "_buyer",
          "type": "address"
        },
        {
          "indexed": false,
          "internalType": "uint256",
          "name": "_bidPrice",
          "type": "uint256"
        },
        {
          "indexed": false,
          "internalType": "uint256",
          "name": "_tokenId",
          "type": "uint256"
        },
        {
          "indexed": false,
          "internalType": "bool",
          "name": "_filled",
          "type": "bool"
        }
      ],
      "name": "BuyOrder",
      "type": "event"
    },
    {
      "anonymous": false,
      "inputs": [
        {
          "indexed": false,
          "internalType": "address",
          "name": "_buyer",
          "type": "address"
        },
        {
          "indexed": false,
          "internalType": "uint256",
          "name": "_bidPrice",
          "type": "uint256"
        },
        {
          "indexed": false,
          "internalType": "uint256",
          "name": "_nonce",
          "type": "uint256"
        }
      ],
      "name": "BuyOrderUnfilled",
      "type": "event"
    },
    {
      "anonymous": false,
      "inputs": [
        {
          "indexed": false,
          "internalType": "address",
          "name": "_user",
          "type": "address"
        },
        {
          "indexed": false,
          "internalType": "uint256",
          "name": "_tokenId",
          "type": "uint256"
        },
        {
          "indexed": false,
          "internalType": "bool",
          "name": "_buyOrder",
          "type": "bool"
        }
      ],
      "name": "CloseOrder",
      "type": "event"
    },
    {
      "anonymous": false,
      "inputs": [
        {
          "indexed": false,
          "internalType": "address",
          "name": "_seller",
          "type": "address"
        },
        {
          "indexed": false,
          "internalType": "address",
          "name": "_buyer",
          "type": "address"
        },
        {
          "indexed": false,
          "internalType": "uint256",
          "name": "_filledPrice",
          "type": "uint256"
        },
        {
          "indexed": false,
          "internalType": "uint256",
          "name": "_tokenId",
          "type": "uint256"
        }
      ],
      "name": "FillOrder",
      "type": "event"
    },
    {
      "anonymous": false,
      "inputs": [
        {
          "indexed": false,
          "internalType": "address",
          "name": "_seller",
          "type": "address"
        },
        {
          "indexed": false,
          "internalType": "uint256",
          "name": "_tokenId",
          "type": "uint256"
        }
      ],
      "name": "FillOrderUnfilled",
      "type": "event"
    },
    {
      "anonymous": false,
      "inputs": [
        {
          "indexed": false,
          "internalType": "address",
          "name": "_seller",
          "type": "address"
        },
        {
          "indexed": false,
          "internalType": "uint256",
          "name": "_askPrice",
          "type": "uint256"
        },
        {
          "indexed": false,
          "internalType": "uint256",
          "name": "_tokenId",
          "type": "uint256"
        },
        {
          "indexed": false,
          "internalType": "bool",
          "name": "_filled",
          "type": "bool"
        }
      ],
      "name": "SellOrder",
      "type": "event"
    },
    {
      "inputs": [
        {
          "internalType": "uint256",
          "name": "",
          "type": "uint256"
        }
      ],
      "name": "_buyOrders",
      "outputs": [
        {
          "internalType": "address payable",
          "name": "buyer",
          "type": "address"
        },
        {
          "internalType": "uint256",
          "name": "bidPrice",
          "type": "uint256"
        },
        {
          "internalType": "uint256",
          "name": "tokenId",
          "type": "uint256"
        }
      ],
      "stateMutability": "view",
      "type": "function",
      "constant": true
    },
    {
      "inputs": [
        {
          "internalType": "bytes4",
          "name": "",
          "type": "bytes4"
        },
        {
          "internalType": "uint256",
          "name": "",
          "type": "uint256"
        }
      ],
      "name": "_buyOrdersUnfilled",
      "outputs": [
        {
          "internalType": "address payable",
          "name": "buyer",
          "type": "address"
        },
        {
          "internalType": "uint256",
          "name": "bidPrice",
          "type": "uint256"
        },
        {
          "internalType": "bytes4",
          "name": "chain",
          "type": "bytes4"
        },
        {
          "internalType": "uint256",
          "name": "xis",
          "type": "uint256"
        },
        {
          "internalType": "address",
          "name": "yak",
          "type": "address"
        },
        {
          "internalType": "uint256",
          "name": "zed",
          "type": "uint256"
        },
        {
          "internalType": "address",
          "name": "wax",
          "type": "address"
        },
        {
          "internalType": "uint256",
          "name": "pow",
          "type": "uint256"
        }
      ],
      "stateMutability": "view",
      "type": "function",
      "constant": true
    },
    {
      "inputs": [
        {
          "internalType": "uint256",
          "name": "",
          "type": "uint256"
        }
      ],
      "name": "_sellOrders",
      "outputs": [
        {
          "internalType": "address payable",
          "name": "seller",
          "type": "address"
        },
        {
          "internalType": "uint256",
          "name": "askPrice",
          "type": "uint256"
        },
        {
          "internalType": "uint256",
          "name": "tokenId",
          "type": "uint256"
        }
      ],
      "stateMutability": "view",
      "type": "function",
      "constant": true
    },
    {
      "inputs": [
        {
          "internalType": "bytes4",
          "name": "",
          "type": "bytes4"
        }
      ],
      "name": "_unfilledNonce",
      "outputs": [
        {
          "internalType": "uint256",
          "name": "",
          "type": "uint256"
        }
      ],
      "stateMutability": "view",
      "type": "function",
      "constant": true
    },
    {
      "inputs": [
        {
          "internalType": "address",
          "name": "",
          "type": "address"
        },
        {
          "internalType": "address",
          "name": "",
          "type": "address"
        },
        {
          "internalType": "uint256",
          "name": "",
          "type": "uint256"
        },
        {
          "internalType": "bytes",
          "name": "",
          "type": "bytes"
        }
      ],
      "name": "onERC721Received",
      "outputs": [
        {
          "internalType": "bytes4",
          "name": "",
          "type": "bytes4"
        }
      ],
      "stateMutability": "nonpayable",
      "type": "function"
    },
    {
      "inputs": [],
      "name": "getPrimeAddress",
      "outputs": [
        {
          "internalType": "address",
          "name": "",
          "type": "address"
        }
      ],
      "stateMutability": "view",
      "type": "function",
      "constant": true
    },
    {
      "inputs": [
        {
          "internalType": "uint256",
          "name": "_tokenId",
          "type": "uint256"
        },
        {
          "internalType": "uint256",
          "name": "_askPrice",
          "type": "uint256"
        }
      ],
      "name": "sellOrder",
      "outputs": [
        {
          "internalType": "bool",
          "name": "",
          "type": "bool"
        }
      ],
      "stateMutability": "nonpayable",
      "type": "function"
    },
    {
      "inputs": [
        {
          "internalType": "uint256",
          "name": "_tokenId",
          "type": "uint256"
        },
        {
          "internalType": "uint256",
          "name": "_bidPrice",
          "type": "uint256"
        }
      ],
      "name": "buyOrder",
      "outputs": [
        {
          "internalType": "bool",
          "name": "",
          "type": "bool"
        }
      ],
      "stateMutability": "payable",
      "type": "function",
      "payable": true
    },
    {
      "inputs": [
        {
          "internalType": "uint256",
          "name": "_tokenId",
          "type": "uint256"
        }
      ],
      "name": "checkUnfilledOrders",
      "outputs": [
        {
          "internalType": "uint256",
          "name": "",
          "type": "uint256"
        }
      ],
      "stateMutability": "nonpayable",
      "type": "function"
    },
    {
      "inputs": [
        {
          "internalType": "uint256",
          "name": "_bidPrice",
          "type": "uint256"
        },
        {
          "internalType": "bytes4",
          "name": "_chain",
          "type": "bytes4"
        },
        {
          "internalType": "uint256",
          "name": "_xis",
          "type": "uint256"
        },
        {
          "internalType": "address",
          "name": "_yak",
          "type": "address"
        },
        {
          "internalType": "uint256",
          "name": "_zed",
          "type": "uint256"
        },
        {
          "internalType": "address",
          "name": "_wax",
          "type": "address"
        },
        {
          "internalType": "uint256",
          "name": "_pow",
          "type": "uint256"
        }
      ],
      "name": "buyOrderUnfilled",
      "outputs": [
        {
          "internalType": "bool",
          "name": "",
          "type": "bool"
        }
      ],
      "stateMutability": "payable",
      "type": "function",
      "payable": true
    },
    {
      "inputs": [
        {
          "internalType": "uint256",
          "name": "_tokenId",
          "type": "uint256"
        }
      ],
      "name": "closeOrder",
      "outputs": [],
      "stateMutability": "nonpayable",
      "type": "function"
    },
    {
      "inputs": [
        {
          "internalType": "uint256",
          "name": "_tokenId",
          "type": "uint256"
        }
      ],
      "name": "getBuyOrder",
      "outputs": [
        {
          "internalType": "address payable",
          "name": "buyer",
          "type": "address"
        },
        {
          "internalType": "uint256",
          "name": "bidPrice",
          "type": "uint256"
        },
        {
          "internalType": "uint256",
          "name": "tokenId",
          "type": "uint256"
        }
      ],
      "stateMutability": "view",
      "type": "function",
      "constant": true
    },
    {
      "inputs": [
        {
          "internalType": "uint256",
          "name": "_tokenId",
          "type": "uint256"
        }
      ],
      "name": "getSellOrder",
      "outputs": [
        {
          "internalType": "address payable",
          "name": "seller",
          "type": "address"
        },
        {
          "internalType": "uint256",
          "name": "askPrice",
          "type": "uint256"
        },
        {
          "internalType": "uint256",
          "name": "tokenId",
          "type": "uint256"
        }
      ],
      "stateMutability": "view",
      "type": "function",
      "constant": true
    }
  ],
  "bytecode": "0x608060405234801561001057600080fd5b5060405161374e38038061374e8339818101604052602081101561003357600080fd5b810190808051906020019092919050505060016000806101000a81548160ff02191690831515021790555080600060016101000a81548173ffffffffffffffffffffffffffffffffffffffff021916908373ffffffffffffffffffffffffffffffffffffffff1602179055506040518060600160405280600073ffffffffffffffffffffffffffffffffffffffff1681526020016000815260200160008152506002600080815260200190815260200160002060008201518160000160006101000a81548173ffffffffffffffffffffffffffffffffffffffff021916908373ffffffffffffffffffffffffffffffffffffffff16021790555060208201518160010155604082015181600201559050506040518060600160405280600073ffffffffffffffffffffffffffffffffffffffff1681526020016000815260200160008152506001600080815260200190815260200160002060008201518160000160006101000a81548173ffffffffffffffffffffffffffffffffffffffff021916908373ffffffffffffffffffffffffffffffffffffffff1602179055506020820151816001015560408201518160020155905050604051806101000160405280600073ffffffffffffffffffffffffffffffffffffffff16815260200160008152602001600060e01b7bffffffffffffffffffffffffffffffffffffffffffffffffffffffff1916815260200160008152602001600073ffffffffffffffffffffffffffffffffffffffff16815260200160008152602001600073ffffffffffffffffffffffffffffffffffffffff1681526020016000815250600360008060e01b7bffffffffffffffffffffffffffffffffffffffffffffffffffffffff19168152602001908152602001600020600080815260200190815260200160002060008201518160000160006101000a81548173ffffffffffffffffffffffffffffffffffffffff021916908373ffffffffffffffffffffffffffffffffffffffff1602179055506020820151816001015560408201518160020160006101000a81548163ffffffff021916908360e01c02179055506060820151816003015560808201518160040160006101000a81548173ffffffffffffffffffffffffffffffffffffffff021916908373ffffffffffffffffffffffffffffffffffffffff16021790555060a0820151816005015560c08201518160060160006101000a81548173ffffffffffffffffffffffffffffffffffffffff021916908373ffffffffffffffffffffffffffffffffffffffff16021790555060e0820151816007015590505050613345806104096000396000f3fe6080604052600436106100c25760003560e01c8063715b47681161007f578063b02e682611610059578063b02e6826146106c5578063b1af1bda1461074e578063cd61a95a146107d7578063f35120a914610834576100c2565b8063715b47681461041f5780638938bb601461048d578063aec967e71461055a576100c2565b8063069d6d1c146100c7578063142ee8d814610102578063150b7a0214610152578063323e64a2146102b6578063390ce0d31461030d578063647fd08e14610396575b600080fd5b3480156100d357600080fd5b50610100600480360360208110156100ea57600080fd5b8101908080359060200190929190505050610883565b005b6101386004803603604081101561011857600080fd5b810190808035906020019092919080359060200190929190505050610c12565b604051808215151515815260200191505060405180910390f35b34801561015e57600080fd5b506102626004803603608081101561017557600080fd5b81019080803573ffffffffffffffffffffffffffffffffffffffff169060200190929190803573ffffffffffffffffffffffffffffffffffffffff16906020019092919080359060200190929190803590602001906401000000008111156101dc57600080fd5b8201836020820111156101ee57600080fd5b8035906020019184600183028401116401000000008311171561021057600080fd5b91908080601f016020809104026020016040519081016040528093929190818152602001838380828437600081840152601f19601f820116905080830192505050505050509192919290505050611060565b60405180827bffffffffffffffffffffffffffffffffffffffffffffffffffffffff19167bffffffffffffffffffffffffffffffffffffffffffffffffffffffff1916815260200191505060405180910390f35b3480156102c257600080fd5b506102cb611074565b604051808273ffffffffffffffffffffffffffffffffffffffff1673ffffffffffffffffffffffffffffffffffffffff16815260200191505060405180910390f35b34801561031957600080fd5b506103466004803603602081101561033057600080fd5b810190808035906020019092919050505061109d565b604051808473ffffffffffffffffffffffffffffffffffffffff1673ffffffffffffffffffffffffffffffffffffffff168152602001838152602001828152602001935050505060405180910390f35b3480156103a257600080fd5b506103cf600480360360208110156103b957600080fd5b8101908080359060200190929190505050611151565b604051808473ffffffffffffffffffffffffffffffffffffffff1673ffffffffffffffffffffffffffffffffffffffff168152602001838152602001828152602001935050505060405180910390f35b34801561042b57600080fd5b506104776004803603602081101561044257600080fd5b8101908080357bffffffffffffffffffffffffffffffffffffffffffffffffffffffff1916906020019092919050505061119b565b6040518082815260200191505060405180910390f35b610540600480360360e08110156104a357600080fd5b810190808035906020019092919080357bffffffffffffffffffffffffffffffffffffffffffffffffffffffff1916906020019092919080359060200190929190803573ffffffffffffffffffffffffffffffffffffffff16906020019092919080359060200190929190803573ffffffffffffffffffffffffffffffffffffffff169060200190929190803590602001909291905050506111b3565b604051808215151515815260200191505060405180910390f35b34801561056657600080fd5b506105bc6004803603604081101561057d57600080fd5b8101908080357bffffffffffffffffffffffffffffffffffffffffffffffffffffffff1916906020019092919080359060200190929190505050611709565b604051808973ffffffffffffffffffffffffffffffffffffffff1673ffffffffffffffffffffffffffffffffffffffff168152602001888152602001877bffffffffffffffffffffffffffffffffffffffffffffffffffffffff19167bffffffffffffffffffffffffffffffffffffffffffffffffffffffff191681526020018681526020018573ffffffffffffffffffffffffffffffffffffffff1673ffffffffffffffffffffffffffffffffffffffff1681526020018481526020018373ffffffffffffffffffffffffffffffffffffffff1673ffffffffffffffffffffffffffffffffffffffff1681526020018281526020019850505050505050505060405180910390f35b3480156106d157600080fd5b506106fe600480360360208110156106e857600080fd5b81019080803590602001909291905050506117cb565b604051808473ffffffffffffffffffffffffffffffffffffffff1673ffffffffffffffffffffffffffffffffffffffff168152602001838152602001828152602001935050505060405180910390f35b34801561075a57600080fd5b506107876004803603602081101561077157600080fd5b8101908080359060200190929190505050611815565b604051808473ffffffffffffffffffffffffffffffffffffffff1673ffffffffffffffffffffffffffffffffffffffff168152602001838152602001828152602001935050505060405180910390f35b3480156107e357600080fd5b5061081a600480360360408110156107fa57600080fd5b8101908080359060200190929190803590602001909291905050506118c9565b604051808215151515815260200191505060405180910390f35b34801561084057600080fd5b5061086d6004803603602081101561085757600080fd5b8101908080359060200190929190505050611df3565b6040518082815260200191505060405180910390f35b600081116108f9576040517f08c379a000000000000000000000000000000000000000000000000000000000815260040180806020018281038252601c8152602001807f546f6b656e206d75737420657869737420746f20636c6f73652069740000000081525060200191505060405180910390fd5b60008090506109066131fb565b600260008481526020019081526020016000206040518060600160405290816000820160009054906101000a900473ffffffffffffffffffffffffffffffffffffffff1673ffffffffffffffffffffffffffffffffffffffff1673ffffffffffffffffffffffffffffffffffffffff168152602001600182015481526020016002820154815250509050600081602001511115610a5457806000015173ffffffffffffffffffffffffffffffffffffffff163373ffffffffffffffffffffffffffffffffffffffff1614610a42576040517f08c379a000000000000000000000000000000000000000000000000000000000815260040180806020018281038252601f8152602001807f63616e206f6e6c7920636c6f736520696620796f75206172652062757965720081525060200191505060405180910390fd5b60019150610a4f83612397565b610b96565b610a5c613232565b600160008581526020019081526020016000206040518060600160405290816000820160009054906101000a900473ffffffffffffffffffffffffffffffffffffffff1673ffffffffffffffffffffffffffffffffffffffff1673ffffffffffffffffffffffffffffffffffffffff168152602001600182015481526020016002820154815250509050806000015173ffffffffffffffffffffffffffffffffffffffff163373ffffffffffffffffffffffffffffffffffffffff1614610b8b576040517f08c379a00000000000000000000000000000000000000000000000000000000081526004018080602001828103825260208152602001807f63616e206f6e6c7920636c6f736520696620796f75206172652073656c6c657281525060200191505060405180910390fd5b610b948461243e565b505b7f1ca96d5875625dda27dd28020a4261caf15b1fdc17367dc711606490812845ea338484604051808473ffffffffffffffffffffffffffffffffffffffff1673ffffffffffffffffffffffffffffffffffffffff16815260200183815260200182151515158152602001935050505060405180910390a1505050565b60008060009054906101000a900460ff16610c95576040517f08c379a000000000000000000000000000000000000000000000000000000000815260040180806020018281038252601f8152602001807f5265656e7472616e637947756172643a207265656e7472616e742063616c6c0081525060200191505060405180910390fd5b60008060006101000a81548160ff021916908315150217905550600080905060006001905060008511610d30576040517f08c379a00000000000000000000000000000000000000000000000000000000081526004018080602001828103825260138152602001807f546f6b656e204944206d7573742065786973740000000000000000000000000081525060200191505060405180910390fd5b60008411610da6576040517f08c379a00000000000000000000000000000000000000000000000000000000081526004018080602001828103825260158152602001807f41736b2050726963652063616e6e6f742062652030000000000000000000000081525060200191505060405180910390fd5b833414610e1b576040517f08c379a00000000000000000000000000000000000000000000000000000000081526004018080602001828103825260178152602001807f56616c75652073686f756c64203d20626964507269636500000000000000000081525060200191505060405180910390fd5b610e23613232565b600160008781526020019081526020016000206040518060600160405290816000820160009054906101000a900473ffffffffffffffffffffffffffffffffffffffff1673ffffffffffffffffffffffffffffffffffffffff1673ffffffffffffffffffffffffffffffffffffffff16815260200160018201548152602001600282015481525050905080602001518510158015610ec5575060008160200151115b15610ed35760019250610f76565b60405180606001604052803373ffffffffffffffffffffffffffffffffffffffff168152602001868152602001878152506002600088815260200190815260200160002060008201518160000160006101000a81548173ffffffffffffffffffffffffffffffffffffffff021916908373ffffffffffffffffffffffffffffffffffffffff16021790555060208201518160010155604082015181600201559050505b60008060019054906101000a900473ffffffffffffffffffffffffffffffffffffffff1690507fde9d8b888f0d2795244dfcb9f98957e107ed8e1014b2762473613be297b2858533878987604051808573ffffffffffffffffffffffffffffffffffffffff1673ffffffffffffffffffffffffffffffffffffffff1681526020018481526020018381526020018215151515815260200194505050505060405180910390a183156110385761103783888885602001513387600001516124e5565b5b600194505050505060016000806101000a81548160ff02191690831515021790555092915050565b600063150b7a0260e01b9050949350505050565b60008060019054906101000a900473ffffffffffffffffffffffffffffffffffffffff16905090565b60008060006110aa613232565b600160008681526020019081526020016000206040518060600160405290816000820160009054906101000a900473ffffffffffffffffffffffffffffffffffffffff1673ffffffffffffffffffffffffffffffffffffffff1673ffffffffffffffffffffffffffffffffffffffff168152602001600182015481526020016002820154815250509050806000015181602001518260400151935093509350509193909250565b60016020528060005260406000206000915090508060000160009054906101000a900473ffffffffffffffffffffffffffffffffffffffff16908060010154908060020154905083565b60046020528060005260406000206000915090505481565b60008060009054906101000a900460ff16611236576040517f08c379a000000000000000000000000000000000000000000000000000000000815260040180806020018281038252601f8152602001807f5265656e7472616e637947756172643a207265656e7472616e742063616c6c0081525060200191505060405180910390fd5b60008060006101000a81548160ff021916908315150217905550600088116112c6576040517f08c379a00000000000000000000000000000000000000000000000000000000081526004018080602001828103825260158152602001807f41736b2050726963652063616e6e6f742062652030000000000000000000000081525060200191505060405180910390fd5b87341461133b576040517f08c379a00000000000000000000000000000000000000000000000000000000081526004018080602001828103825260178152602001807f56616c75652073686f756c64203d20626964507269636500000000000000000081525060200191505060405180910390fd5b60006113a26001600460008b7bffffffffffffffffffffffffffffffffffffffffffffffffffffffff19167bffffffffffffffffffffffffffffffffffffffffffffffffffffffff191681526020019081526020016000205461290690919063ffffffff16565b905080600460008a7bffffffffffffffffffffffffffffffffffffffffffffffffffffffff19167bffffffffffffffffffffffffffffffffffffffffffffffffffffffff19168152602001908152602001600020819055506040518061010001604052803373ffffffffffffffffffffffffffffffffffffffff1681526020018a8152602001897bffffffffffffffffffffffffffffffffffffffffffffffffffffffff191681526020018881526020018773ffffffffffffffffffffffffffffffffffffffff1681526020018681526020018573ffffffffffffffffffffffffffffffffffffffff16815260200184815250600360008a7bffffffffffffffffffffffffffffffffffffffffffffffffffffffff19167bffffffffffffffffffffffffffffffffffffffffffffffffffffffff19168152602001908152602001600020600083815260200190815260200160002060008201518160000160006101000a81548173ffffffffffffffffffffffffffffffffffffffff021916908373ffffffffffffffffffffffffffffffffffffffff1602179055506020820151816001015560408201518160020160006101000a81548163ffffffff021916908360e01c02179055506060820151816003015560808201518160040160006101000a81548173ffffffffffffffffffffffffffffffffffffffff021916908373ffffffffffffffffffffffffffffffffffffffff16021790555060a0820151816005015560c08201518160060160006101000a81548173ffffffffffffffffffffffffffffffffffffffff021916908373ffffffffffffffffffffffffffffffffffffffff16021790555060e082015181600701559050507fd2d7ace432bb8c05ed9428315fadbca40c8210a9bc53367e4df31921fceee29e338a600460008c7bffffffffffffffffffffffffffffffffffffffffffffffffffffffff19167bffffffffffffffffffffffffffffffffffffffffffffffffffffffff1916815260200190815260200160002054604051808473ffffffffffffffffffffffffffffffffffffffff1673ffffffffffffffffffffffffffffffffffffffff168152602001838152602001828152602001935050505060405180910390a1600191505060016000806101000a81548160ff021916908315150217905550979650505050505050565b6003602052816000526040600020602052806000526040600020600091509150508060000160009054906101000a900473ffffffffffffffffffffffffffffffffffffffff16908060010154908060020160009054906101000a900460e01b908060030154908060040160009054906101000a900473ffffffffffffffffffffffffffffffffffffffff16908060050154908060060160009054906101000a900473ffffffffffffffffffffffffffffffffffffffff16908060070154905088565b60026020528060005260406000206000915090508060000160009054906101000a900473ffffffffffffffffffffffffffffffffffffffff16908060010154908060020154905083565b60008060006118226131fb565b600260008681526020019081526020016000206040518060600160405290816000820160009054906101000a900473ffffffffffffffffffffffffffffffffffffffff1673ffffffffffffffffffffffffffffffffffffffff1673ffffffffffffffffffffffffffffffffffffffff168152602001600182015481526020016002820154815250509050806000015181602001518260400151935093509350509193909250565b60008060009054906101000a900460ff1661194c576040517f08c379a000000000000000000000000000000000000000000000000000000000815260040180806020018281038252601f8152602001807f5265656e7472616e637947756172643a207265656e7472616e742063616c6c0081525060200191505060405180910390fd5b60008060006101000a81548160ff02191690831515021790555060008060019054906101000a900473ffffffffffffffffffffffffffffffffffffffff16905060008411611a02576040517f08c379a00000000000000000000000000000000000000000000000000000000081526004018080602001828103825260138152602001807f546f6b656e204944206d7573742065786973740000000000000000000000000081525060200191505060405180910390fd5b60008311611a78576040517f08c379a00000000000000000000000000000000000000000000000000000000081526004018080602001828103825260158152602001807f41736b2050726963652063616e6e6f742062652030000000000000000000000081525060200191505060405180910390fd5b6000611a8385611df3565b90506000811115611b0e577f561162c02389350e5ab524c360cbb69d712cd035f9c6c56baa8efb2eea83b2ce3386604051808373ffffffffffffffffffffffffffffffffffffffff1673ffffffffffffffffffffffffffffffffffffffff1681526020018281526020019250505060405180910390a1611b058582863361298e565b92505050611dd3565b611b166131fb565b600260008781526020019081526020016000206040518060600160405290816000820160009054906101000a900473ffffffffffffffffffffffffffffffffffffffff1673ffffffffffffffffffffffffffffffffffffffff1673ffffffffffffffffffffffffffffffffffffffff16815260200160018201548152602001600282015481525050905084816020015110158015611bb45750600085115b15611bd557611bd06000878360200151888560000151336124e5565b611d4b565b60405180606001604052803373ffffffffffffffffffffffffffffffffffffffff168152602001868152602001878152506001600088815260200190815260200160002060008201518160000160006101000a81548173ffffffffffffffffffffffffffffffffffffffff021916908373ffffffffffffffffffffffffffffffffffffffff16021790555060208201518160010155604082015181600201559050508273ffffffffffffffffffffffffffffffffffffffff166342842e0e3330896040518463ffffffff1660e01b8152600401808473ffffffffffffffffffffffffffffffffffffffff1673ffffffffffffffffffffffffffffffffffffffff1681526020018373ffffffffffffffffffffffffffffffffffffffff1673ffffffffffffffffffffffffffffffffffffffff1681526020018281526020019350505050600060405180830381600087803b158015611d3257600080fd5b505af1158015611d46573d6000803e3d6000fd5b505050505b7ffc606b54ed37a7bb79f8a5ce668180eae183f82dd0b0dcf5f0af54153f26f5e63386886001604051808573ffffffffffffffffffffffffffffffffffffffff1673ffffffffffffffffffffffffffffffffffffffff1681526020018481526020018381526020018215151515815260200194505050505060405180910390a1600193505050505b60016000806101000a81548160ff02191690831515021790555092915050565b600080600060019054906101000a900473ffffffffffffffffffffffffffffffffffffffff16905060008173ffffffffffffffffffffffffffffffffffffffff1663b6791ad4856040518263ffffffff1660e01b81526004018082815260200191505060206040518083038186803b158015611e6e57600080fd5b505afa158015611e82573d6000803e3d6000fd5b505050506040513d6020811015611e9857600080fd5b8101908080519060200190929190505050905060008060008060008060008873ffffffffffffffffffffffffffffffffffffffff1663dc38daf88c6040518263ffffffff1660e01b81526004018082815260200191505060e06040518083038186803b158015611f0757600080fd5b505afa158015611f1b573d6000803e3d6000fd5b505050506040513d60e0811015611f3157600080fd5b8101908080519060200190929190805190602001909291908051906020019092919080519060200190929190805190602001909291908051906020019092919080519060200190929190505050809750819850829950839a50849b50859c50869d505050505050505060008686868686604051602001808681526020018573ffffffffffffffffffffffffffffffffffffffff1673ffffffffffffffffffffffffffffffffffffffff1660601b81526014018481526020018373ffffffffffffffffffffffffffffffffffffffff1673ffffffffffffffffffffffffffffffffffffffff1660601b8152601401828152602001955050505050506040516020818303038152906040528051906020012090506000600190505b600460008b7bffffffffffffffffffffffffffffffffffffffffffffffffffffffff19167bffffffffffffffffffffffffffffffffffffffffffffffffffffffff19168152602001908152602001600020548111612382576120aa613269565b600360008c7bffffffffffffffffffffffffffffffffffffffffffffffffffffffff19167bffffffffffffffffffffffffffffffffffffffffffffffffffffffff191681526020019081526020016000206000838152602001908152602001600020604051806101000160405290816000820160009054906101000a900473ffffffffffffffffffffffffffffffffffffffff1673ffffffffffffffffffffffffffffffffffffffff1673ffffffffffffffffffffffffffffffffffffffff168152602001600182015481526020016002820160009054906101000a900460e01b7bffffffffffffffffffffffffffffffffffffffffffffffffffffffff19167bffffffffffffffffffffffffffffffffffffffffffffffffffffffff19168152602001600382015481526020016004820160009054906101000a900473ffffffffffffffffffffffffffffffffffffffff1673ffffffffffffffffffffffffffffffffffffffff1673ffffffffffffffffffffffffffffffffffffffff168152602001600582015481526020016006820160009054906101000a900473ffffffffffffffffffffffffffffffffffffffff1673ffffffffffffffffffffffffffffffffffffffff1673ffffffffffffffffffffffffffffffffffffffff16815260200160078201548152505090506000816060015182608001518360a001518460c001518560e00151604051602001808681526020018573ffffffffffffffffffffffffffffffffffffffff1673ffffffffffffffffffffffffffffffffffffffff1660601b81526014018481526020018373ffffffffffffffffffffffffffffffffffffffff1673ffffffffffffffffffffffffffffffffffffffff1660601b8152601401828152602001955050505050506040516020818303038152906040528051906020012090508084141561237357829d5050505050505050505050505050612392565b5050808060010191505061204a565b5060009a50505050505050505050505b919050565b60026000808152602001908152602001600020600260008381526020019081526020016000206000820160009054906101000a900473ffffffffffffffffffffffffffffffffffffffff168160000160006101000a81548173ffffffffffffffffffffffffffffffffffffffff021916908373ffffffffffffffffffffffffffffffffffffffff160217905550600182015481600101556002820154816002015590505050565b60016000808152602001908152602001600020600160008381526020019081526020016000206000820160009054906101000a900473ffffffffffffffffffffffffffffffffffffffff168160000160006101000a81548173ffffffffffffffffffffffffffffffffffffffff021916908373ffffffffffffffffffffffffffffffffffffffff160217905550600182015481600101556002820154816002015590505050565b8284101561255b576040517f08c379a000000000000000000000000000000000000000000000000000000000815260040180806020018281038252601e8152602001807f426964207072696365206d757374206265203e3d2061736b207072696365000081525060200191505060405180910390fd5b60008060019054906101000a900473ffffffffffffffffffffffffffffffffffffffff1690508615612595576125908661243e565b61259f565b61259e86612397565b5b60006125b48587612eb490919063ffffffff16565b9050600081101561262d576040517f08c379a00000000000000000000000000000000000000000000000000000000081526004018080602001828103825260148152602001807f52656d61696e65642063616e6e6f74206265203000000000000000000000000081525060200191505060405180910390fd5b871561270b578173ffffffffffffffffffffffffffffffffffffffff166342842e0e30868a6040518463ffffffff1660e01b8152600401808473ffffffffffffffffffffffffffffffffffffffff1673ffffffffffffffffffffffffffffffffffffffff1681526020018373ffffffffffffffffffffffffffffffffffffffff1673ffffffffffffffffffffffffffffffffffffffff1681526020018281526020019350505050600060405180830381600087803b1580156126ee57600080fd5b505af1158015612702573d6000803e3d6000fd5b505050506127df565b8173ffffffffffffffffffffffffffffffffffffffff166342842e0e84868a6040518463ffffffff1660e01b8152600401808473ffffffffffffffffffffffffffffffffffffffff1673ffffffffffffffffffffffffffffffffffffffff1681526020018373ffffffffffffffffffffffffffffffffffffffff1673ffffffffffffffffffffffffffffffffffffffff1681526020018281526020019350505050600060405180830381600087803b1580156127c657600080fd5b505af11580156127da573d6000803e3d6000fd5b505050505b8273ffffffffffffffffffffffffffffffffffffffff166108fc869081150290604051600060405180830381858888f19350505050506000811115612855578373ffffffffffffffffffffffffffffffffffffffff166108fc829081150290604051600060405180830381858888f19350505050505b7f9b2a24ddc2ec8723850257da7c71559ce2c0db09c79c037d7117f6b5b71544d18385878a604051808573ffffffffffffffffffffffffffffffffffffffff1673ffffffffffffffffffffffffffffffffffffffff1681526020018473ffffffffffffffffffffffffffffffffffffffff1673ffffffffffffffffffffffffffffffffffffffff16815260200183815260200182815260200194505050505060405180910390a15050505050505050565b600080828401905083811015612984576040517f08c379a000000000000000000000000000000000000000000000000000000000815260040180806020018281038252601b8152602001807f536166654d6174683a206164646974696f6e206f766572666c6f77000000000081525060200191505060405180910390fd5b8091505092915050565b600080600060019054906101000a900473ffffffffffffffffffffffffffffffffffffffff16905060008173ffffffffffffffffffffffffffffffffffffffff1663b6791ad4886040518263ffffffff1660e01b81526004018082815260200191505060206040518083038186803b158015612a0957600080fd5b505afa158015612a1d573d6000803e3d6000fd5b505050506040513d6020811015612a3357600080fd5b81019080805190602001909291905050509050612a4e613269565b60036000837bffffffffffffffffffffffffffffffffffffffffffffffffffffffff19167bffffffffffffffffffffffffffffffffffffffffffffffffffffffff191681526020019081526020016000206000888152602001908152602001600020604051806101000160405290816000820160009054906101000a900473ffffffffffffffffffffffffffffffffffffffff1673ffffffffffffffffffffffffffffffffffffffff1673ffffffffffffffffffffffffffffffffffffffff168152602001600182015481526020016002820160009054906101000a900460e01b7bffffffffffffffffffffffffffffffffffffffffffffffffffffffff19167bffffffffffffffffffffffffffffffffffffffffffffffffffffffff19168152602001600382015481526020016004820160009054906101000a900473ffffffffffffffffffffffffffffffffffffffff1673ffffffffffffffffffffffffffffffffffffffff1673ffffffffffffffffffffffffffffffffffffffff168152602001600582015481526020016006820160009054906101000a900473ffffffffffffffffffffffffffffffffffffffff1673ffffffffffffffffffffffffffffffffffffffff1673ffffffffffffffffffffffffffffffffffffffff16815260200160078201548152505090508581602001511015612cb7576040517f08c379a00000000000000000000000000000000000000000000000000000000081526004018080602001828103825260098152602001807f426964203c2061736b000000000000000000000000000000000000000000000081525060200191505060405180910390fd5b612cc18288612efe565b6000612cda878360200151612eb490919063ffffffff16565b90506000811015612d53576040517f08c379a000000000000000000000000000000000000000000000000000000000815260040180806020018281038252600d8152602001807f52656d61696e646572203c20300000000000000000000000000000000000000081525060200191505060405180910390fd5b8373ffffffffffffffffffffffffffffffffffffffff166342842e0e8784600001518c6040518463ffffffff1660e01b8152600401808473ffffffffffffffffffffffffffffffffffffffff1673ffffffffffffffffffffffffffffffffffffffff1681526020018373ffffffffffffffffffffffffffffffffffffffff1673ffffffffffffffffffffffffffffffffffffffff1681526020018281526020019350505050600060405180830381600087803b158015612e1257600080fd5b505af1158015612e26573d6000803e3d6000fd5b505050508573ffffffffffffffffffffffffffffffffffffffff166108fc889081150290604051600060405180830381858888f19350505050506000811115612ea457816000015173ffffffffffffffffffffffffffffffffffffffff166108fc829081150290604051600060405180830381858888f19350505050505b6001945050505050949350505050565b6000612ef683836040518060400160405280601e81526020017f536166654d6174683a207375627472616374696f6e206f766572666c6f77000081525061313b565b905092915050565b600360008060e01b7bffffffffffffffffffffffffffffffffffffffffffffffffffffffff19168152602001908152602001600020600080815260200190815260200160002060036000847bffffffffffffffffffffffffffffffffffffffffffffffffffffffff19167bffffffffffffffffffffffffffffffffffffffffffffffffffffffff1916815260200190815260200160002060008381526020019081526020016000206000820160009054906101000a900473ffffffffffffffffffffffffffffffffffffffff168160000160006101000a81548173ffffffffffffffffffffffffffffffffffffffff021916908373ffffffffffffffffffffffffffffffffffffffff160217905550600182015481600101556002820160009054906101000a900460e01b8160020160006101000a81548163ffffffff021916908360e01c0217905550600382015481600301556004820160009054906101000a900473ffffffffffffffffffffffffffffffffffffffff168160040160006101000a81548173ffffffffffffffffffffffffffffffffffffffff021916908373ffffffffffffffffffffffffffffffffffffffff160217905550600582015481600501556006820160009054906101000a900473ffffffffffffffffffffffffffffffffffffffff168160060160006101000a81548173ffffffffffffffffffffffffffffffffffffffff021916908373ffffffffffffffffffffffffffffffffffffffff160217905550600782015481600701559050505050565b60008383111582906131e8576040517f08c379a00000000000000000000000000000000000000000000000000000000081526004018080602001828103825283818151815260200191508051906020019080838360005b838110156131ad578082015181840152602081019050613192565b50505050905090810190601f1680156131da5780820380516001836020036101000a031916815260200191505b509250505060405180910390fd5b5060008385039050809150509392505050565b6040518060600160405280600073ffffffffffffffffffffffffffffffffffffffff16815260200160008152602001600081525090565b6040518060600160405280600073ffffffffffffffffffffffffffffffffffffffff16815260200160008152602001600081525090565b604051806101000160405280600073ffffffffffffffffffffffffffffffffffffffff1681526020016000815260200160007bffffffffffffffffffffffffffffffffffffffffffffffffffffffff1916815260200160008152602001600073ffffffffffffffffffffffffffffffffffffffff16815260200160008152602001600073ffffffffffffffffffffffffffffffffffffffff16815260200160008152509056fea2646970667358221220ba6143e3ebeb36ea43883d98d3d97699510b7ab2e67b5a1bf14de553dcae225664736f6c63430006020033",
  "source": "pragma solidity ^0.6.2;\r\n\r\n/**\r\n * @title   DFCP's Exchange Contract\r\n * @notice  A Decentralized Exchange to manage the buying and selling\r\n            of Prime Option tokens.\r\n * @author  Decentralized Financial Crafting Protocol\r\n */\r\n\r\n\r\nimport \"@openzeppelin/contracts/math/SafeMath.sol\";\r\nimport \"@openzeppelin/contracts/token/ERC721/ERC721Holder.sol\";\r\nimport \"@openzeppelin/contracts/utils/ReentrancyGuard.sol\";\r\nimport \"./Instruments.sol\";\r\n\r\n\r\n\r\nabstract contract IPrime {\r\n    function safeTransferFrom(address from, address to, uint256 tokenId) public virtual;\r\n    function createPrime(uint256 _xis, address _yak, uint256 _zed, address _wax, uint256 _pow, address _gem) external virtual returns (bool);\r\n    function exercise(uint256 _tokenId) external virtual returns (bool);\r\n    function close(uint256 _collateralId, uint256 _burnId) external virtual returns (bool);\r\n    function withdraw(uint256 _amount, address _asset) public virtual returns (bool);\r\n    function getPrime(uint256 _tokenId) external view virtual returns(\r\n            address ace,\r\n            uint256 xis,\r\n            address yak,\r\n            uint256 zed,\r\n            address wax,\r\n            uint256 pow,\r\n            address gem\r\n        );\r\n    function _primeCompare(uint256 _collateralId, uint256 _burnId) public view virtual returns (bool burn);\r\n    function getChain(uint256 _tokenId) external view virtual returns (bytes4 chain);\r\n}\r\n\r\ncontract Exchange is ERC721Holder, ReentrancyGuard {\r\n    using SafeMath for uint256;\r\n\r\n    address private _primeAddress;\r\n\r\n    event SellOrder(address _seller, uint256 _askPrice, uint256 _tokenId, bool _filled);\r\n    event BuyOrder(address _buyer, uint256 _bidPrice, uint256 _tokenId, bool _filled);\r\n    event BuyOrderUnfilled(address _buyer, uint256 _bidPrice, uint256 _nonce);\r\n    event FillOrderUnfilled(address _seller, uint256 _tokenId);\r\n    event FillOrder(address _seller, address _buyer, uint256 _filledPrice, uint256 _tokenId);\r\n    event CloseOrder(address _user, uint256 _tokenId, bool _buyOrder);\r\n\r\n    struct SellOrders {\r\n        address payable seller;\r\n        uint256 askPrice;\r\n        uint256 tokenId;\r\n    }\r\n\r\n    struct BuyOrders {\r\n        address payable buyer;\r\n        uint256 bidPrice;\r\n        uint256 tokenId;\r\n    }\r\n\r\n    struct BuyOrdersUnfilled {\r\n        address payable buyer;\r\n        uint256 bidPrice;\r\n        bytes4 chain;\r\n        uint256 xis;\r\n        address yak;\r\n        uint256 zed;\r\n        address wax;\r\n        uint256 pow;\r\n    }\r\n\r\n    /* Maps tokenIds to sell orders */\r\n    mapping(uint256 => SellOrders) public _sellOrders;\r\n\r\n    /* Maps tokenIds to buy orders */\r\n    mapping(uint256 => BuyOrders) public _buyOrders;\r\n\r\n     /* Maps hash of assets/expiration to nonce to buy orders */\r\n    mapping(bytes4 => mapping(uint256 => BuyOrdersUnfilled)) public _buyOrdersUnfilled;\r\n\r\n    mapping(bytes4 => uint256) public _unfilledNonce;\r\n\r\n\r\n    constructor(address primeAddress) public {\r\n        _primeAddress = primeAddress;\r\n        _buyOrders[0] = BuyOrders(\r\n            address(0),\r\n            0,\r\n            0\r\n        );\r\n        _sellOrders[0] = SellOrders(\r\n            address(0),\r\n            0,\r\n            0\r\n        );\r\n\r\n        _buyOrdersUnfilled[0][0] = BuyOrdersUnfilled(\r\n            address(0),\r\n            0,\r\n            0,\r\n            0,\r\n            address(0),\r\n            0,\r\n            address(0),\r\n            0\r\n        );\r\n    }\r\n\r\n    function getPrimeAddress() public view returns (address) {\r\n        return _primeAddress;\r\n    }\r\n\r\n    function sellOrder(\r\n        uint256 _tokenId, \r\n        uint256 _askPrice\r\n    ) \r\n        external\r\n        nonReentrant\r\n        returns (bool) \r\n    {\r\n        IPrime _prime = IPrime(_primeAddress);\r\n\r\n        /* CHECKS */\r\n        require(_tokenId > 0, 'Token ID must exist');\r\n        require(_askPrice > 0, 'Ask Price cannot be 0');\r\n\r\n        /* CHECKS UNFILLED ORDERS BY COMPARING TOKEN WITH BUY ORDER */\r\n        uint256 fillable = checkUnfilledOrders(_tokenId);\r\n        if(fillable > 0) {\r\n            emit FillOrderUnfilled(msg.sender, _tokenId);\r\n            return fillUnfilled(_tokenId, fillable, _askPrice, msg.sender);\r\n        }\r\n\r\n        /* EFFECTS */\r\n        BuyOrders memory _buy = _buyOrders[_tokenId];\r\n        \r\n        \r\n        /* INTERACTIONS */\r\n        if(_buy.bidPrice >= _askPrice && _askPrice > 0) {\r\n            fillOrder(false, _tokenId, _buy.bidPrice, _askPrice, _buy.buyer, msg.sender);\r\n        } else {\r\n            _sellOrders[_tokenId] = SellOrders(\r\n                msg.sender,\r\n                _askPrice,\r\n                _tokenId\r\n            );\r\n            _prime.safeTransferFrom(msg.sender, address(this), _tokenId);\r\n        }\r\n        \r\n        emit SellOrder(msg.sender, _askPrice, _tokenId, true);\r\n        return true;\r\n    }\r\n\r\n    function buyOrder(\r\n        uint256 _tokenId, \r\n        uint256 _bidPrice\r\n    ) \r\n        external \r\n        payable\r\n        nonReentrant\r\n        returns (bool) \r\n    {\r\n        bool filled = false;\r\n        bool buyOrder = true;\r\n\r\n        /* CHECKS */\r\n        require(_tokenId > 0, 'Token ID must exist');\r\n        require(_bidPrice > 0, 'Ask Price cannot be 0');\r\n        require(msg.value == _bidPrice, 'Value should = bidPrice');\r\n\r\n        /* EFFECTS */\r\n        SellOrders memory _sell = _sellOrders[_tokenId];\r\n        if(_bidPrice >= _sell.askPrice && _sell.askPrice > 0) {\r\n            filled = true;\r\n        } else {\r\n            _buyOrders[_tokenId] = BuyOrders(\r\n                msg.sender,\r\n                _bidPrice,\r\n                _tokenId\r\n            );\r\n        }\r\n\r\n        /* INTERACTIONS */\r\n        IPrime _prime = IPrime(_primeAddress);\r\n\r\n        emit BuyOrder(msg.sender, _bidPrice, _tokenId, filled);\r\n\r\n        if(filled) {\r\n            fillOrder(buyOrder, _tokenId, _bidPrice, _sell.askPrice, msg.sender, _sell.seller);\r\n        }\r\n\r\n        return true;\r\n    }\r\n\r\n    function checkUnfilledOrders(uint256 _tokenId) public returns (uint256) {\r\n        IPrime _prime = IPrime(_primeAddress);\r\n        bytes4 _chain = _prime.getChain(_tokenId);\r\n        address ace;\r\n        uint256 xis;\r\n        address yak;\r\n        uint256 zed;\r\n        address wax;\r\n        uint256 pow;\r\n        address gem;\r\n        (ace, xis, yak, zed, wax, pow, gem) = _prime.getPrime(_tokenId);\r\n        \r\n        bytes32 primeHash = keccak256(\r\n            abi.encodePacked(\r\n                    xis,\r\n                    yak,\r\n                    zed,\r\n                    wax,\r\n                    pow\r\n                )\r\n            );\r\n         \r\n        for(uint i = 1; i <= _unfilledNonce[_chain]; i++) {\r\n            BuyOrdersUnfilled memory _buyObj = _buyOrdersUnfilled[_chain][i];\r\n            bytes32 buyHash = keccak256(\r\n                abi.encodePacked(\r\n                    _buyObj.xis,\r\n                    _buyObj.yak,\r\n                    _buyObj.zed,\r\n                    _buyObj.wax,\r\n                    _buyObj.pow\r\n                )\r\n            );\r\n\r\n            if(primeHash == buyHash) {\r\n                return i;\r\n            }\r\n        }\r\n\r\n        return 0;\r\n    }\r\n\r\n    function fillUnfilled(\r\n        uint256 _tokenId, \r\n        uint256 _buyOrderNonce, \r\n        uint256 _askPrice, \r\n        address payable _seller\r\n    ) \r\n        internal \r\n        returns (bool) \r\n    {\r\n        /* CHECKS */\r\n        IPrime _prime = IPrime(_primeAddress);\r\n        bytes4 _chain = _prime.getChain(_tokenId);\r\n        BuyOrdersUnfilled memory _buy = _buyOrdersUnfilled[_chain][_buyOrderNonce];\r\n        require(_buy.bidPrice >= _askPrice, 'Bid < ask');\r\n\r\n        \r\n        \r\n\r\n        /* EFFECTS */\r\n        closeUnfilledBuyOrder(_chain, _buyOrderNonce);\r\n\r\n        uint256 _remainder = _buy.bidPrice.sub(_askPrice);\r\n\r\n        require(_remainder >= 0, 'Remainder < 0');\r\n\r\n        /* INTERACTIONS */\r\n\r\n        /* \r\n         * IF ITS BUY ORDER - PRIME IS OWNED BY EXCHANGE\r\n         * IF ITS SELL ORDER - PRIME IS OWNED BY SELLER\r\n         * IF ITS A SELL ORDER WITH A MATCHED BUY ORDER\r\n         * TRANSFER OF PRIME IS DIRECTLY P2P\r\n         */\r\n        _prime.safeTransferFrom(_seller, _buy.buyer, _tokenId);\r\n        \r\n        _seller.send(_askPrice);\r\n\r\n        if(_remainder > 0) {\r\n            _buy.buyer.send(_remainder);\r\n        }\r\n        return true;\r\n    }\r\n    \r\n    function buyOrderUnfilled(\r\n        uint256 _bidPrice,\r\n        bytes4 _chain,\r\n        uint256 _xis,\r\n        address _yak,\r\n        uint256 _zed,\r\n        address _wax,\r\n        uint256 _pow\r\n    )\r\n        external\r\n        payable\r\n        nonReentrant\r\n        returns (bool)\r\n    {\r\n        /* CHECKS */\r\n        require(_bidPrice > 0, 'Ask Price cannot be 0');\r\n        require(msg.value == _bidPrice, 'Value should = bidPrice');\r\n\r\n        /* EFFECTS */\r\n        uint256 nonce = (_unfilledNonce[_chain]).add(1);\r\n        _unfilledNonce[_chain] = nonce;\r\n        _buyOrdersUnfilled[_chain][nonce] = BuyOrdersUnfilled(\r\n            msg.sender,\r\n            _bidPrice,\r\n            _chain,\r\n            _xis,\r\n            _yak,\r\n            _zed,\r\n            _wax,\r\n            _pow\r\n        );\r\n\r\n        /* INTERACTIONS */\r\n        emit BuyOrderUnfilled(msg.sender, _bidPrice, _unfilledNonce[_chain]);\r\n        \r\n        return true;\r\n    }\r\n\r\n    function fillOrder(\r\n        bool _buyOrder,\r\n        uint256 _tokenId, \r\n        uint256 _bidPrice, \r\n        uint256 _askPrice, \r\n        address payable _buyer, \r\n        address payable _seller\r\n    ) internal {\r\n        \r\n        /* CHECKS */\r\n        require(_bidPrice >= _askPrice, 'Bid price must be >= ask price');\r\n\r\n        IPrime _prime = IPrime(_primeAddress);\r\n\r\n        /* EFFECTS */\r\n        if(_buyOrder) {\r\n            closeSellOrder(_tokenId);\r\n        } else {\r\n            closeBuyOrder(_tokenId);\r\n        }\r\n\r\n\r\n        uint256 _remainder = _bidPrice.sub(_askPrice);\r\n\r\n        require(_remainder >= 0, 'Remained cannot be 0');\r\n\r\n        /* INTERACTIONS */\r\n\r\n        /* \r\n         * IF ITS BUY ORDER - PRIME IS OWNED BY EXCHANGE\r\n         * IF ITS SELL ORDER - PRIME IS OWNED BY SELLER\r\n         * IF ITS A SELL ORDER WITH A MATCHED BUY ORDER\r\n         * TRANSFER OF PRIME IS DIRECTLY P2P\r\n         */\r\n        if(_buyOrder) {\r\n            _prime.safeTransferFrom(address(this), _buyer, _tokenId);\r\n        } else {\r\n            _prime.safeTransferFrom(_seller, _buyer, _tokenId);\r\n        }\r\n        \r\n        _seller.send(_askPrice);\r\n\r\n        if(_remainder > 0) {\r\n            _buyer.send(_remainder);\r\n        }\r\n\r\n        emit FillOrder(_seller, _buyer, _askPrice, _tokenId);\r\n    }\r\n\r\n    function closeBuyOrder(uint256 _tokenId) internal {\r\n        /* CLEARS BUY ORDER */\r\n        _buyOrders[_tokenId] = _buyOrders[0];\r\n    }\r\n\r\n    function closeUnfilledBuyOrder(bytes4 _chain, uint256 _buyOrderNonce) internal {\r\n        /* CLEARS BUY ORDER */\r\n        _buyOrdersUnfilled[_chain][_buyOrderNonce] = _buyOrdersUnfilled[0][0];\r\n    }\r\n\r\n    function closeSellOrder(uint256 _tokenId) internal {\r\n        /* CLEARS SELL ORDER */\r\n        _sellOrders[_tokenId] = _sellOrders[0];\r\n    }\r\n\r\n    function closeOrder(uint256 _tokenId) external {\r\n        require(_tokenId > 0, 'Token must exist to close it');\r\n\r\n        bool buyOrder = false;\r\n        BuyOrders memory _buys = _buyOrders[_tokenId];\r\n        \r\n        /* IF THE BID PRICE > 0 ITS A BUY ORDER, ELSE ITS A SELL ORDER */\r\n        if(_buys.bidPrice > 0) {\r\n            require(msg.sender == _buys.buyer, 'can only close if you are buyer');\r\n\r\n            buyOrder = true;\r\n\r\n            closeBuyOrder(_tokenId);\r\n        } else {\r\n            SellOrders memory _sells = _sellOrders[_tokenId];\r\n            require(msg.sender == _sells.seller, 'can only close if you are seller');\r\n\r\n            closeSellOrder(_tokenId);\r\n        }\r\n\r\n        emit CloseOrder(msg.sender, _tokenId, buyOrder);\r\n    }\r\n\r\n    function getBuyOrder(uint256 _tokenId) \r\n        public \r\n        view \r\n        returns(\r\n            address payable buyer,\r\n            uint256 bidPrice,\r\n            uint256 tokenId\r\n        )\r\n    {\r\n        BuyOrders memory _buys = _buyOrders[_tokenId];\r\n        return (\r\n            _buys.buyer,\r\n            _buys.bidPrice,\r\n            _buys.tokenId\r\n        );\r\n    }\r\n\r\n    function getSellOrder(uint256 _tokenId) \r\n        public \r\n        view \r\n        returns(\r\n            address payable seller,\r\n            uint256 askPrice,\r\n            uint256 tokenId\r\n        )\r\n    {\r\n        SellOrders memory _sells = _sellOrders[_tokenId];\r\n        return (\r\n            _sells.seller,\r\n            _sells.askPrice,\r\n            _sells.tokenId\r\n        );\r\n    }\r\n\r\n}",
  "sourcePath": "C:\\Users\\alexa\\OneDrive\\Documents\\Master\\Blockchain\\Projects\\carbon\\contracts\\Exchange.sol",
  "compiler": {
    "name": "solc",
    "version": "0.6.2+commit.bacdbe57.Emscripten.clang"
  },
  "schemaVersion": "3.0.23",
  "updatedAt": "2020-03-23T18:59:25.291Z",
  "networkType": "ethereum",
  "devdoc": {
    "methods": {}
  },
  "userdoc": {
    "methods": {}
  }
}