{
  "contractName": "Exchange",
  "abi": [
    {
      "inputs": [
        {
          "internalType": "address",
          "name": "primeAddress",
          "type": "address"
        }
      ],
      "stateMutability": "nonpayable",
      "type": "constructor"
    },
    {
      "anonymous": false,
      "inputs": [
        {
          "indexed": false,
          "internalType": "address",
          "name": "_buyer",
          "type": "address"
        },
        {
          "indexed": false,
          "internalType": "uint256",
          "name": "_bidPrice",
          "type": "uint256"
        },
        {
          "indexed": false,
          "internalType": "uint256",
          "name": "_tokenId",
          "type": "uint256"
        },
        {
          "indexed": false,
          "internalType": "bool",
          "name": "_filled",
          "type": "bool"
        }
      ],
      "name": "BuyOrder",
      "type": "event"
    },
    {
      "anonymous": false,
      "inputs": [
        {
          "indexed": false,
          "internalType": "address",
          "name": "_user",
          "type": "address"
        },
        {
          "indexed": false,
          "internalType": "uint256",
          "name": "_tokenId",
          "type": "uint256"
        },
        {
          "indexed": false,
          "internalType": "bool",
          "name": "_buyOrder",
          "type": "bool"
        }
      ],
      "name": "CloseOrder",
      "type": "event"
    },
    {
      "anonymous": false,
      "inputs": [
        {
          "indexed": false,
          "internalType": "address",
          "name": "_seller",
          "type": "address"
        },
        {
          "indexed": false,
          "internalType": "address",
          "name": "_buyer",
          "type": "address"
        },
        {
          "indexed": false,
          "internalType": "uint256",
          "name": "_filledPrice",
          "type": "uint256"
        },
        {
          "indexed": false,
          "internalType": "uint256",
          "name": "_tokenId",
          "type": "uint256"
        }
      ],
      "name": "FillOrder",
      "type": "event"
    },
    {
      "anonymous": false,
      "inputs": [
        {
          "indexed": false,
          "internalType": "address",
          "name": "_seller",
          "type": "address"
        },
        {
          "indexed": false,
          "internalType": "uint256",
          "name": "_askPrice",
          "type": "uint256"
        },
        {
          "indexed": false,
          "internalType": "uint256",
          "name": "_tokenId",
          "type": "uint256"
        },
        {
          "indexed": false,
          "internalType": "bool",
          "name": "_filled",
          "type": "bool"
        }
      ],
      "name": "SellOrder",
      "type": "event"
    },
    {
      "inputs": [
        {
          "internalType": "uint256",
          "name": "",
          "type": "uint256"
        }
      ],
      "name": "_buyOrders",
      "outputs": [
        {
          "internalType": "address payable",
          "name": "buyer",
          "type": "address"
        },
        {
          "internalType": "uint256",
          "name": "bidPrice",
          "type": "uint256"
        },
        {
          "internalType": "uint256",
          "name": "tokenId",
          "type": "uint256"
        }
      ],
      "stateMutability": "view",
      "type": "function",
      "constant": true
    },
    {
      "inputs": [
        {
          "internalType": "uint256",
          "name": "",
          "type": "uint256"
        }
      ],
      "name": "_sellOrders",
      "outputs": [
        {
          "internalType": "address payable",
          "name": "seller",
          "type": "address"
        },
        {
          "internalType": "uint256",
          "name": "askPrice",
          "type": "uint256"
        },
        {
          "internalType": "uint256",
          "name": "tokenId",
          "type": "uint256"
        }
      ],
      "stateMutability": "view",
      "type": "function",
      "constant": true
    },
    {
      "inputs": [
        {
          "internalType": "address",
          "name": "",
          "type": "address"
        },
        {
          "internalType": "address",
          "name": "",
          "type": "address"
        },
        {
          "internalType": "uint256",
          "name": "",
          "type": "uint256"
        },
        {
          "internalType": "bytes",
          "name": "",
          "type": "bytes"
        }
      ],
      "name": "onERC721Received",
      "outputs": [
        {
          "internalType": "bytes4",
          "name": "",
          "type": "bytes4"
        }
      ],
      "stateMutability": "nonpayable",
      "type": "function"
    },
    {
      "inputs": [],
      "name": "getPrimeAddress",
      "outputs": [
        {
          "internalType": "address",
          "name": "",
          "type": "address"
        }
      ],
      "stateMutability": "view",
      "type": "function",
      "constant": true
    },
    {
      "inputs": [
        {
          "internalType": "uint256",
          "name": "_tokenId",
          "type": "uint256"
        },
        {
          "internalType": "uint256",
          "name": "_askPrice",
          "type": "uint256"
        }
      ],
      "name": "sellOrder",
      "outputs": [
        {
          "internalType": "bool",
          "name": "",
          "type": "bool"
        }
      ],
      "stateMutability": "nonpayable",
      "type": "function"
    },
    {
      "inputs": [
        {
          "internalType": "uint256",
          "name": "_tokenId",
          "type": "uint256"
        },
        {
          "internalType": "uint256",
          "name": "_bidPrice",
          "type": "uint256"
        }
      ],
      "name": "buyOrder",
      "outputs": [
        {
          "internalType": "bool",
          "name": "",
          "type": "bool"
        }
      ],
      "stateMutability": "payable",
      "type": "function",
      "payable": true
    },
    {
      "inputs": [
        {
          "internalType": "uint256",
          "name": "_tokenId",
          "type": "uint256"
        }
      ],
      "name": "closeOrder",
      "outputs": [],
      "stateMutability": "nonpayable",
      "type": "function"
    },
    {
      "inputs": [
        {
          "internalType": "uint256",
          "name": "_tokenId",
          "type": "uint256"
        }
      ],
      "name": "getBuyOrder",
      "outputs": [
        {
          "internalType": "address payable",
          "name": "buyer",
          "type": "address"
        },
        {
          "internalType": "uint256",
          "name": "bidPrice",
          "type": "uint256"
        },
        {
          "internalType": "uint256",
          "name": "tokenId",
          "type": "uint256"
        }
      ],
      "stateMutability": "view",
      "type": "function",
      "constant": true
    },
    {
      "inputs": [
        {
          "internalType": "uint256",
          "name": "_tokenId",
          "type": "uint256"
        }
      ],
      "name": "getSellOrder",
      "outputs": [
        {
          "internalType": "address payable",
          "name": "seller",
          "type": "address"
        },
        {
          "internalType": "uint256",
          "name": "askPrice",
          "type": "uint256"
        },
        {
          "internalType": "uint256",
          "name": "tokenId",
          "type": "uint256"
        }
      ],
      "stateMutability": "view",
      "type": "function",
      "constant": true
    }
  ],
  "bytecode": "0x608060405234801561001057600080fd5b50604051611d2a380380611d2a8339818101604052602081101561003357600080fd5b810190808051906020019092919050505060016000806101000a81548160ff02191690831515021790555080600060016101000a81548173ffffffffffffffffffffffffffffffffffffffff021916908373ffffffffffffffffffffffffffffffffffffffff1602179055506040518060600160405280600073ffffffffffffffffffffffffffffffffffffffff1681526020016000815260200160008152506002600080815260200190815260200160002060008201518160000160006101000a81548173ffffffffffffffffffffffffffffffffffffffff021916908373ffffffffffffffffffffffffffffffffffffffff16021790555060208201518160010155604082015181600201559050506040518060600160405280600073ffffffffffffffffffffffffffffffffffffffff1681526020016000815260200160008152506001600080815260200190815260200160002060008201518160000160006101000a81548173ffffffffffffffffffffffffffffffffffffffff021916908373ffffffffffffffffffffffffffffffffffffffff160217905550602082015181600101556040820151816002015590505050611b31806101f96000396000f3fe6080604052600436106100865760003560e01c8063390ce0d311610059578063390ce0d3146102d1578063647fd08e1461035a578063b02e6826146103e3578063b1af1bda1461046c578063cd61a95a146104f557610086565b8063069d6d1c1461008b578063142ee8d8146100c6578063150b7a0214610116578063323e64a21461027a575b600080fd5b34801561009757600080fd5b506100c4600480360360208110156100ae57600080fd5b8101908080359060200190929190505050610552565b005b6100fc600480360360408110156100dc57600080fd5b8101908080359060200190929190803590602001909291905050506108e1565b604051808215151515815260200191505060405180910390f35b34801561012257600080fd5b506102266004803603608081101561013957600080fd5b81019080803573ffffffffffffffffffffffffffffffffffffffff169060200190929190803573ffffffffffffffffffffffffffffffffffffffff16906020019092919080359060200190929190803590602001906401000000008111156101a057600080fd5b8201836020820111156101b257600080fd5b803590602001918460018302840111640100000000831117156101d457600080fd5b91908080601f016020809104026020016040519081016040528093929190818152602001838380828437600081840152601f19601f820116905080830192505050505050509192919290505050610d2f565b60405180827bffffffffffffffffffffffffffffffffffffffffffffffffffffffff19167bffffffffffffffffffffffffffffffffffffffffffffffffffffffff1916815260200191505060405180910390f35b34801561028657600080fd5b5061028f610d43565b604051808273ffffffffffffffffffffffffffffffffffffffff1673ffffffffffffffffffffffffffffffffffffffff16815260200191505060405180910390f35b3480156102dd57600080fd5b5061030a600480360360208110156102f457600080fd5b8101908080359060200190929190505050610d6c565b604051808473ffffffffffffffffffffffffffffffffffffffff1673ffffffffffffffffffffffffffffffffffffffff168152602001838152602001828152602001935050505060405180910390f35b34801561036657600080fd5b506103936004803603602081101561037d57600080fd5b8101908080359060200190929190505050610e20565b604051808473ffffffffffffffffffffffffffffffffffffffff1673ffffffffffffffffffffffffffffffffffffffff168152602001838152602001828152602001935050505060405180910390f35b3480156103ef57600080fd5b5061041c6004803603602081101561040657600080fd5b8101908080359060200190929190505050610e6a565b604051808473ffffffffffffffffffffffffffffffffffffffff1673ffffffffffffffffffffffffffffffffffffffff168152602001838152602001828152602001935050505060405180910390f35b34801561047857600080fd5b506104a56004803603602081101561048f57600080fd5b8101908080359060200190929190505050610eb4565b604051808473ffffffffffffffffffffffffffffffffffffffff1673ffffffffffffffffffffffffffffffffffffffff168152602001838152602001828152602001935050505060405180910390f35b34801561050157600080fd5b506105386004803603604081101561051857600080fd5b810190808035906020019092919080359060200190929190505050610f68565b604051808215151515815260200191505060405180910390f35b600081116105c8576040517f08c379a000000000000000000000000000000000000000000000000000000000815260040180806020018281038252601c8152602001807f546f6b656e206d75737420657869737420746f20636c6f73652069740000000081525060200191505060405180910390fd5b60008090506105d5611a8d565b600260008481526020019081526020016000206040518060600160405290816000820160009054906101000a900473ffffffffffffffffffffffffffffffffffffffff1673ffffffffffffffffffffffffffffffffffffffff1673ffffffffffffffffffffffffffffffffffffffff16815260200160018201548152602001600282015481525050905060008160200151111561072357806000015173ffffffffffffffffffffffffffffffffffffffff163373ffffffffffffffffffffffffffffffffffffffff1614610711576040517f08c379a000000000000000000000000000000000000000000000000000000000815260040180806020018281038252601f8152602001807f63616e206f6e6c7920636c6f736520696620796f75206172652062757965720081525060200191505060405180910390fd5b6001915061071e83611414565b610865565b61072b611ac4565b600160008581526020019081526020016000206040518060600160405290816000820160009054906101000a900473ffffffffffffffffffffffffffffffffffffffff1673ffffffffffffffffffffffffffffffffffffffff1673ffffffffffffffffffffffffffffffffffffffff168152602001600182015481526020016002820154815250509050806000015173ffffffffffffffffffffffffffffffffffffffff163373ffffffffffffffffffffffffffffffffffffffff161461085a576040517f08c379a00000000000000000000000000000000000000000000000000000000081526004018080602001828103825260208152602001807f63616e206f6e6c7920636c6f736520696620796f75206172652073656c6c657281525060200191505060405180910390fd5b610863846114bb565b505b7f1ca96d5875625dda27dd28020a4261caf15b1fdc17367dc711606490812845ea338484604051808473ffffffffffffffffffffffffffffffffffffffff1673ffffffffffffffffffffffffffffffffffffffff16815260200183815260200182151515158152602001935050505060405180910390a1505050565b60008060009054906101000a900460ff16610964576040517f08c379a000000000000000000000000000000000000000000000000000000000815260040180806020018281038252601f8152602001807f5265656e7472616e637947756172643a207265656e7472616e742063616c6c0081525060200191505060405180910390fd5b60008060006101000a81548160ff0219169083151502179055506000809050600060019050600085116109ff576040517f08c379a00000000000000000000000000000000000000000000000000000000081526004018080602001828103825260138152602001807f546f6b656e204944206d7573742065786973740000000000000000000000000081525060200191505060405180910390fd5b60008411610a75576040517f08c379a00000000000000000000000000000000000000000000000000000000081526004018080602001828103825260158152602001807f41736b2050726963652063616e6e6f742062652030000000000000000000000081525060200191505060405180910390fd5b833414610aea576040517f08c379a00000000000000000000000000000000000000000000000000000000081526004018080602001828103825260178152602001807f56616c75652073686f756c64203d20626964507269636500000000000000000081525060200191505060405180910390fd5b610af2611ac4565b600160008781526020019081526020016000206040518060600160405290816000820160009054906101000a900473ffffffffffffffffffffffffffffffffffffffff1673ffffffffffffffffffffffffffffffffffffffff1673ffffffffffffffffffffffffffffffffffffffff16815260200160018201548152602001600282015481525050905080602001518510158015610b94575060008160200151115b15610ba25760019250610c45565b60405180606001604052803373ffffffffffffffffffffffffffffffffffffffff168152602001868152602001878152506002600088815260200190815260200160002060008201518160000160006101000a81548173ffffffffffffffffffffffffffffffffffffffff021916908373ffffffffffffffffffffffffffffffffffffffff16021790555060208201518160010155604082015181600201559050505b60008060019054906101000a900473ffffffffffffffffffffffffffffffffffffffff1690507fde9d8b888f0d2795244dfcb9f98957e107ed8e1014b2762473613be297b2858533878987604051808573ffffffffffffffffffffffffffffffffffffffff1673ffffffffffffffffffffffffffffffffffffffff1681526020018481526020018381526020018215151515815260200194505050505060405180910390a18315610d0757610d068388888560200151338760000151611562565b5b600194505050505060016000806101000a81548160ff02191690831515021790555092915050565b600063150b7a0260e01b9050949350505050565b60008060019054906101000a900473ffffffffffffffffffffffffffffffffffffffff16905090565b6000806000610d79611ac4565b600160008681526020019081526020016000206040518060600160405290816000820160009054906101000a900473ffffffffffffffffffffffffffffffffffffffff1673ffffffffffffffffffffffffffffffffffffffff1673ffffffffffffffffffffffffffffffffffffffff168152602001600182015481526020016002820154815250509050806000015181602001518260400151935093509350509193909250565b60016020528060005260406000206000915090508060000160009054906101000a900473ffffffffffffffffffffffffffffffffffffffff16908060010154908060020154905083565b60026020528060005260406000206000915090508060000160009054906101000a900473ffffffffffffffffffffffffffffffffffffffff16908060010154908060020154905083565b6000806000610ec1611a8d565b600260008681526020019081526020016000206040518060600160405290816000820160009054906101000a900473ffffffffffffffffffffffffffffffffffffffff1673ffffffffffffffffffffffffffffffffffffffff1673ffffffffffffffffffffffffffffffffffffffff168152602001600182015481526020016002820154815250509050806000015181602001518260400151935093509350509193909250565b60008060009054906101000a900460ff16610feb576040517f08c379a000000000000000000000000000000000000000000000000000000000815260040180806020018281038252601f8152602001807f5265656e7472616e637947756172643a207265656e7472616e742063616c6c0081525060200191505060405180910390fd5b60008060006101000a81548160ff0219169083151502179055506000809050600080905060008511611085576040517f08c379a00000000000000000000000000000000000000000000000000000000081526004018080602001828103825260138152602001807f546f6b656e204944206d7573742065786973740000000000000000000000000081525060200191505060405180910390fd5b600084116110fb576040517f08c379a00000000000000000000000000000000000000000000000000000000081526004018080602001828103825260158152602001807f41736b2050726963652063616e6e6f742062652030000000000000000000000081525060200191505060405180910390fd5b611103611a8d565b600260008781526020019081526020016000206040518060600160405290816000820160009054906101000a900473ffffffffffffffffffffffffffffffffffffffff1673ffffffffffffffffffffffffffffffffffffffff1673ffffffffffffffffffffffffffffffffffffffff168152602001600182015481526020016002820154815250509050848160200151101580156111a15750600085115b156111af5760019250611252565b60405180606001604052803373ffffffffffffffffffffffffffffffffffffffff168152602001868152602001878152506001600088815260200190815260200160002060008201518160000160006101000a81548173ffffffffffffffffffffffffffffffffffffffff021916908373ffffffffffffffffffffffffffffffffffffffff16021790555060208201518160010155604082015181600201559050505b60008060019054906101000a900473ffffffffffffffffffffffffffffffffffffffff1690508315611299576112948388846020015189866000015133611562565b61136d565b8073ffffffffffffffffffffffffffffffffffffffff166342842e0e33308a6040518463ffffffff1660e01b8152600401808473ffffffffffffffffffffffffffffffffffffffff1673ffffffffffffffffffffffffffffffffffffffff1681526020018373ffffffffffffffffffffffffffffffffffffffff1673ffffffffffffffffffffffffffffffffffffffff1681526020018281526020019350505050600060405180830381600087803b15801561135457600080fd5b505af1158015611368573d6000803e3d6000fd5b505050505b7ffc606b54ed37a7bb79f8a5ce668180eae183f82dd0b0dcf5f0af54153f26f5e633878987604051808573ffffffffffffffffffffffffffffffffffffffff1673ffffffffffffffffffffffffffffffffffffffff1681526020018481526020018381526020018215151515815260200194505050505060405180910390a1600194505050505060016000806101000a81548160ff02191690831515021790555092915050565b60026000808152602001908152602001600020600260008381526020019081526020016000206000820160009054906101000a900473ffffffffffffffffffffffffffffffffffffffff168160000160006101000a81548173ffffffffffffffffffffffffffffffffffffffff021916908373ffffffffffffffffffffffffffffffffffffffff160217905550600182015481600101556002820154816002015590505050565b60016000808152602001908152602001600020600160008381526020019081526020016000206000820160009054906101000a900473ffffffffffffffffffffffffffffffffffffffff168160000160006101000a81548173ffffffffffffffffffffffffffffffffffffffff021916908373ffffffffffffffffffffffffffffffffffffffff160217905550600182015481600101556002820154816002015590505050565b828410156115d8576040517f08c379a000000000000000000000000000000000000000000000000000000000815260040180806020018281038252601e8152602001807f426964207072696365206d757374206265203e3d2061736b207072696365000081525060200191505060405180910390fd5b60008060019054906101000a900473ffffffffffffffffffffffffffffffffffffffff16905086156116125761160d866114bb565b61161c565b61161b86611414565b5b6000611631858761198390919063ffffffff16565b905060008110156116aa576040517f08c379a00000000000000000000000000000000000000000000000000000000081526004018080602001828103825260148152602001807f52656d61696e65642063616e6e6f74206265203000000000000000000000000081525060200191505060405180910390fd5b8715611788578173ffffffffffffffffffffffffffffffffffffffff166342842e0e30868a6040518463ffffffff1660e01b8152600401808473ffffffffffffffffffffffffffffffffffffffff1673ffffffffffffffffffffffffffffffffffffffff1681526020018373ffffffffffffffffffffffffffffffffffffffff1673ffffffffffffffffffffffffffffffffffffffff1681526020018281526020019350505050600060405180830381600087803b15801561176b57600080fd5b505af115801561177f573d6000803e3d6000fd5b5050505061185c565b8173ffffffffffffffffffffffffffffffffffffffff166342842e0e84868a6040518463ffffffff1660e01b8152600401808473ffffffffffffffffffffffffffffffffffffffff1673ffffffffffffffffffffffffffffffffffffffff1681526020018373ffffffffffffffffffffffffffffffffffffffff1673ffffffffffffffffffffffffffffffffffffffff1681526020018281526020019350505050600060405180830381600087803b15801561184357600080fd5b505af1158015611857573d6000803e3d6000fd5b505050505b8273ffffffffffffffffffffffffffffffffffffffff166108fc869081150290604051600060405180830381858888f193505050505060008111156118d2578373ffffffffffffffffffffffffffffffffffffffff166108fc829081150290604051600060405180830381858888f19350505050505b7f9b2a24ddc2ec8723850257da7c71559ce2c0db09c79c037d7117f6b5b71544d18385878a604051808573ffffffffffffffffffffffffffffffffffffffff1673ffffffffffffffffffffffffffffffffffffffff1681526020018473ffffffffffffffffffffffffffffffffffffffff1673ffffffffffffffffffffffffffffffffffffffff16815260200183815260200182815260200194505050505060405180910390a15050505050505050565b60006119c583836040518060400160405280601e81526020017f536166654d6174683a207375627472616374696f6e206f766572666c6f7700008152506119cd565b905092915050565b6000838311158290611a7a576040517f08c379a00000000000000000000000000000000000000000000000000000000081526004018080602001828103825283818151815260200191508051906020019080838360005b83811015611a3f578082015181840152602081019050611a24565b50505050905090810190601f168015611a6c5780820380516001836020036101000a031916815260200191505b509250505060405180910390fd5b5060008385039050809150509392505050565b6040518060600160405280600073ffffffffffffffffffffffffffffffffffffffff16815260200160008152602001600081525090565b6040518060600160405280600073ffffffffffffffffffffffffffffffffffffffff1681526020016000815260200160008152509056fea2646970667358221220585613fa257544865749ac1f30a2c098c5cf99f3038ca176cec9873812bba0b764736f6c63430006020033",
  "source": "pragma solidity ^0.6.2;\r\n\r\n/**\r\n * @title   DFCP's Exchange Contract\r\n * @notice  A Decentralized Exchange to manage the buying and selling\r\n            of Prime Option tokens.\r\n * @author  Decentralized Financial Crafting Protocol\r\n */\r\n\r\n\r\nimport \"@openzeppelin/contracts/math/SafeMath.sol\";\r\nimport \"@openzeppelin/contracts/token/ERC721/ERC721Holder.sol\";\r\nimport \"@openzeppelin/contracts/utils/ReentrancyGuard.sol\";\r\n\r\n\r\n\r\nabstract contract IPrime {\r\n    function safeTransferFrom(address from, address to, uint256 tokenId) public virtual;\r\n    function createPrime(uint256 _xis, address _yak, uint256 _zed, address _wax, uint256 _pow, address _gem) external virtual returns (bool);\r\n    function exercise(uint256 _tokenId) external virtual returns (bool);\r\n    function close(uint256 _collateralId, uint256 _burnId) external virtual returns (bool);\r\n    function withdraw(uint256 _amount, address _asset) public virtual returns (bool);\r\n}\r\n\r\n\r\n\r\ncontract Exchange is ERC721Holder, ReentrancyGuard {\r\n    using SafeMath for uint256;\r\n\r\n    address private _primeAddress;\r\n\r\n    event SellOrder(address _seller, uint256 _askPrice, uint256 _tokenId, bool _filled);\r\n    event BuyOrder(address _buyer, uint256 _bidPrice, uint256 _tokenId, bool _filled);\r\n    event FillOrder(address _seller, address _buyer, uint256 _filledPrice, uint256 _tokenId);\r\n    event CloseOrder(address _user, uint256 _tokenId, bool _buyOrder);\r\n\r\n    struct SellOrders {\r\n        address payable seller;\r\n        uint256 askPrice;\r\n        uint256 tokenId;\r\n    }\r\n\r\n    struct BuyOrders {\r\n        address payable buyer;\r\n        uint256 bidPrice;\r\n        uint256 tokenId;\r\n    }\r\n\r\n    /* Maps tokenIds to sell orders */\r\n    mapping(uint256 => SellOrders) public _sellOrders;\r\n\r\n    /* Maps tokenIds to buy orders */\r\n    mapping(uint256 => BuyOrders) public _buyOrders;\r\n\r\n\r\n    constructor(address primeAddress) public {\r\n        _primeAddress = primeAddress;\r\n        _buyOrders[0] = BuyOrders(\r\n            address(0),\r\n            0,\r\n            0\r\n        );\r\n        _sellOrders[0] = SellOrders(\r\n            address(0),\r\n            0,\r\n            0\r\n        );\r\n    }\r\n\r\n    function getPrimeAddress() public view returns (address) {\r\n        return _primeAddress;\r\n    }\r\n\r\n    function sellOrder(\r\n        uint256 _tokenId, \r\n        uint256 _askPrice\r\n    ) \r\n        external\r\n        nonReentrant\r\n        returns (bool) \r\n    {\r\n        bool filled = false;\r\n        bool buyOrder = false;\r\n\r\n        /* CHECKS */\r\n        require(_tokenId > 0, 'Token ID must exist');\r\n        require(_askPrice > 0, 'Ask Price cannot be 0');\r\n\r\n        /* EFFECTS */\r\n        BuyOrders memory _buy = _buyOrders[_tokenId];\r\n        if(_buy.bidPrice >= _askPrice && _askPrice > 0) {\r\n            filled = true;\r\n        } else {\r\n            _sellOrders[_tokenId] = SellOrders(\r\n                msg.sender,\r\n                _askPrice,\r\n                _tokenId\r\n            );\r\n\r\n        }   \r\n        \r\n        /* INTERACTIONS */\r\n        IPrime _prime = IPrime(_primeAddress);\r\n        \r\n        if(filled) {\r\n            fillOrder(buyOrder, _tokenId, _buy.bidPrice, _askPrice, _buy.buyer, msg.sender);\r\n        } else {\r\n            _prime.safeTransferFrom(msg.sender, address(this), _tokenId);\r\n        }\r\n        \r\n        emit SellOrder(msg.sender, _askPrice, _tokenId, filled);\r\n        return true;\r\n    }\r\n\r\n    function buyOrder(\r\n        uint256 _tokenId, \r\n        uint256 _bidPrice\r\n    ) \r\n        external \r\n        payable\r\n        nonReentrant\r\n        returns (bool) \r\n    {\r\n        bool filled = false;\r\n        bool buyOrder = true;\r\n\r\n        /* CHECKS */\r\n        require(_tokenId > 0, 'Token ID must exist');\r\n        require(_bidPrice > 0, 'Ask Price cannot be 0');\r\n        require(msg.value == _bidPrice, 'Value should = bidPrice');\r\n\r\n        /* EFFECTS */\r\n        SellOrders memory _sell = _sellOrders[_tokenId];\r\n        if(_bidPrice >= _sell.askPrice && _sell.askPrice > 0) {\r\n            filled = true;\r\n        } else {\r\n            _buyOrders[_tokenId] = BuyOrders(\r\n                msg.sender,\r\n                _bidPrice,\r\n                _tokenId\r\n            );\r\n        }\r\n\r\n        /* INTERACTIONS */\r\n        IPrime _prime = IPrime(_primeAddress);\r\n\r\n        emit BuyOrder(msg.sender, _bidPrice, _tokenId, filled);\r\n\r\n        if(filled) {\r\n            fillOrder(buyOrder, _tokenId, _bidPrice, _sell.askPrice, msg.sender, _sell.seller);\r\n        }\r\n\r\n        return true;\r\n    }\r\n\r\n    function fillOrder(\r\n        bool _buyOrder,\r\n        uint256 _tokenId, \r\n        uint256 _bidPrice, \r\n        uint256 _askPrice, \r\n        address payable _buyer, \r\n        address payable _seller\r\n    ) internal {\r\n        \r\n        /* CHECKS */\r\n        require(_bidPrice >= _askPrice, 'Bid price must be >= ask price');\r\n\r\n        IPrime _prime = IPrime(_primeAddress);\r\n\r\n        /* EFFECTS */\r\n        if(_buyOrder) {\r\n            closeSellOrder(_tokenId);\r\n        } else {\r\n            closeBuyOrder(_tokenId);\r\n        }\r\n\r\n\r\n        uint256 _remainder = _bidPrice.sub(_askPrice);\r\n\r\n        require(_remainder >= 0, 'Remained cannot be 0');\r\n\r\n        /* INTERACTIONS */\r\n\r\n        /* \r\n         * IF ITS BUY ORDER - PRIME IS OWNED BY EXCHANGE\r\n         * IF ITS SELL ORDER - PRIME IS OWNED BY SELLER\r\n         * IF ITS A SELL ORDER WITH A MATCHED BUY ORDER\r\n         * TRANSFER OF PRIME IS DIRECTLY P2P\r\n         */\r\n        if(_buyOrder) {\r\n            _prime.safeTransferFrom(address(this), _buyer, _tokenId);\r\n        } else {\r\n            _prime.safeTransferFrom(_seller, _buyer, _tokenId);\r\n        }\r\n        \r\n        _seller.send(_askPrice);\r\n\r\n        if(_remainder > 0) {\r\n            _buyer.send(_remainder);\r\n        }\r\n\r\n        emit FillOrder(_seller, _buyer, _askPrice, _tokenId);\r\n    }\r\n\r\n    function closeBuyOrder(uint256 _tokenId) internal {\r\n        /* CLEARS BUY ORDER */\r\n        _buyOrders[_tokenId] = _buyOrders[0];\r\n    }\r\n\r\n    function closeSellOrder(uint256 _tokenId) internal {\r\n        /* CLEARS SELL ORDER */\r\n        _sellOrders[_tokenId] = _sellOrders[0];\r\n    }\r\n\r\n    function closeOrder(uint256 _tokenId) external {\r\n        require(_tokenId > 0, 'Token must exist to close it');\r\n\r\n        bool buyOrder = false;\r\n        BuyOrders memory _buys = _buyOrders[_tokenId];\r\n        \r\n        /* IF THE BID PRICE > 0 ITS A BUY ORDER, ELSE ITS A SELL ORDER */\r\n        if(_buys.bidPrice > 0) {\r\n            require(msg.sender == _buys.buyer, 'can only close if you are buyer');\r\n\r\n            buyOrder = true;\r\n\r\n            closeBuyOrder(_tokenId);\r\n        } else {\r\n            SellOrders memory _sells = _sellOrders[_tokenId];\r\n            require(msg.sender == _sells.seller, 'can only close if you are seller');\r\n\r\n            closeSellOrder(_tokenId);\r\n        }\r\n\r\n        emit CloseOrder(msg.sender, _tokenId, buyOrder);\r\n    }\r\n\r\n    function getBuyOrder(uint256 _tokenId) \r\n        public \r\n        view \r\n        returns(\r\n            address payable buyer,\r\n            uint256 bidPrice,\r\n            uint256 tokenId\r\n        )\r\n    {\r\n        BuyOrders memory _buys = _buyOrders[_tokenId];\r\n        return (\r\n            _buys.buyer,\r\n            _buys.bidPrice,\r\n            _buys.tokenId\r\n        );\r\n    }\r\n\r\n    function getSellOrder(uint256 _tokenId) \r\n        public \r\n        view \r\n        returns(\r\n            address payable seller,\r\n            uint256 askPrice,\r\n            uint256 tokenId\r\n        )\r\n    {\r\n        SellOrders memory _sells = _sellOrders[_tokenId];\r\n        return (\r\n            _sells.seller,\r\n            _sells.askPrice,\r\n            _sells.tokenId\r\n        );\r\n    }\r\n\r\n}",
  "sourcePath": "C:\\Users\\alexa\\OneDrive\\Documents\\Master\\Blockchain\\Projects\\carbon\\contracts\\Exchange.sol",
  "compiler": {
    "name": "solc",
    "version": "0.6.2+commit.bacdbe57.Emscripten.clang"
  },
  "schemaVersion": "3.0.23",
  "updatedAt": "2020-03-19T22:30:00.930Z",
  "networkType": "ethereum",
  "devdoc": {
    "methods": {}
  },
  "userdoc": {
    "methods": {}
  }
}