{
  "contractName": "Prime",
  "abi": [
    {
      "inputs": [],
      "stateMutability": "nonpayable",
      "type": "constructor"
    },
    {
      "anonymous": false,
      "inputs": [
        {
          "indexed": true,
          "internalType": "address",
          "name": "owner",
          "type": "address"
        },
        {
          "indexed": true,
          "internalType": "address",
          "name": "approved",
          "type": "address"
        },
        {
          "indexed": true,
          "internalType": "uint256",
          "name": "tokenId",
          "type": "uint256"
        }
      ],
      "name": "Approval",
      "type": "event"
    },
    {
      "anonymous": false,
      "inputs": [
        {
          "indexed": true,
          "internalType": "address",
          "name": "owner",
          "type": "address"
        },
        {
          "indexed": true,
          "internalType": "address",
          "name": "operator",
          "type": "address"
        },
        {
          "indexed": false,
          "internalType": "bool",
          "name": "approved",
          "type": "bool"
        }
      ],
      "name": "ApprovalForAll",
      "type": "event"
    },
    {
      "anonymous": false,
      "inputs": [
        {
          "indexed": true,
          "internalType": "address",
          "name": "_user",
          "type": "address"
        },
        {
          "indexed": false,
          "internalType": "uint256",
          "name": "_collateralQty",
          "type": "uint256"
        },
        {
          "indexed": true,
          "internalType": "address",
          "name": "_collateral",
          "type": "address"
        },
        {
          "indexed": true,
          "internalType": "uint256",
          "name": "_tokenId",
          "type": "uint256"
        },
        {
          "indexed": false,
          "internalType": "uint256",
          "name": "_timestamp",
          "type": "uint256"
        }
      ],
      "name": "PrimeClosed",
      "type": "event"
    },
    {
      "anonymous": false,
      "inputs": [
        {
          "indexed": true,
          "internalType": "address",
          "name": "_user",
          "type": "address"
        },
        {
          "indexed": false,
          "internalType": "uint256",
          "name": "_collateralQty",
          "type": "uint256"
        },
        {
          "indexed": false,
          "internalType": "address",
          "name": "_collateral",
          "type": "address"
        },
        {
          "indexed": false,
          "internalType": "uint256",
          "name": "_paymentQty",
          "type": "uint256"
        },
        {
          "indexed": false,
          "internalType": "address",
          "name": "_payment",
          "type": "address"
        },
        {
          "indexed": true,
          "internalType": "uint256",
          "name": "_tokenId",
          "type": "uint256"
        },
        {
          "indexed": false,
          "internalType": "uint256",
          "name": "_timestamp",
          "type": "uint256"
        }
      ],
      "name": "PrimeExercised",
      "type": "event"
    },
    {
      "anonymous": false,
      "inputs": [
        {
          "indexed": true,
          "internalType": "address",
          "name": "_user",
          "type": "address"
        },
        {
          "indexed": false,
          "internalType": "uint256",
          "name": "_collateralQty",
          "type": "uint256"
        },
        {
          "indexed": false,
          "internalType": "address",
          "name": "_collateral",
          "type": "address"
        },
        {
          "indexed": false,
          "internalType": "uint256",
          "name": "_paymentQty",
          "type": "uint256"
        },
        {
          "indexed": false,
          "internalType": "address",
          "name": "_payment",
          "type": "address"
        },
        {
          "indexed": true,
          "internalType": "uint256",
          "name": "_tokenId",
          "type": "uint256"
        },
        {
          "indexed": false,
          "internalType": "uint256",
          "name": "_timestamp",
          "type": "uint256"
        }
      ],
      "name": "PrimeMinted",
      "type": "event"
    },
    {
      "anonymous": false,
      "inputs": [
        {
          "indexed": true,
          "internalType": "address",
          "name": "from",
          "type": "address"
        },
        {
          "indexed": true,
          "internalType": "address",
          "name": "to",
          "type": "address"
        },
        {
          "indexed": true,
          "internalType": "uint256",
          "name": "tokenId",
          "type": "uint256"
        }
      ],
      "name": "Transfer",
      "type": "event"
    },
    {
      "anonymous": false,
      "inputs": [
        {
          "indexed": true,
          "internalType": "address",
          "name": "_user",
          "type": "address"
        },
        {
          "indexed": false,
          "internalType": "uint256",
          "name": "_collateralQty",
          "type": "uint256"
        },
        {
          "indexed": true,
          "internalType": "address",
          "name": "_collateral",
          "type": "address"
        },
        {
          "indexed": false,
          "internalType": "uint256",
          "name": "_timestamp",
          "type": "uint256"
        }
      ],
      "name": "Withdrawal",
      "type": "event"
    },
    {
      "inputs": [
        {
          "internalType": "uint256",
          "name": "",
          "type": "uint256"
        }
      ],
      "name": "_chains",
      "outputs": [
        {
          "internalType": "bytes4",
          "name": "chain",
          "type": "bytes4"
        }
      ],
      "stateMutability": "view",
      "type": "function"
    },
    {
      "inputs": [
        {
          "internalType": "uint256",
          "name": "",
          "type": "uint256"
        }
      ],
      "name": "_primes",
      "outputs": [
        {
          "internalType": "address",
          "name": "ace",
          "type": "address"
        },
        {
          "internalType": "uint256",
          "name": "xis",
          "type": "uint256"
        },
        {
          "internalType": "address",
          "name": "yak",
          "type": "address"
        },
        {
          "internalType": "uint256",
          "name": "zed",
          "type": "uint256"
        },
        {
          "internalType": "address",
          "name": "wax",
          "type": "address"
        },
        {
          "internalType": "uint256",
          "name": "pow",
          "type": "uint256"
        },
        {
          "internalType": "address",
          "name": "gem",
          "type": "address"
        }
      ],
      "stateMutability": "view",
      "type": "function"
    },
    {
      "inputs": [
        {
          "internalType": "address",
          "name": "to",
          "type": "address"
        },
        {
          "internalType": "uint256",
          "name": "tokenId",
          "type": "uint256"
        }
      ],
      "name": "approve",
      "outputs": [],
      "stateMutability": "nonpayable",
      "type": "function"
    },
    {
      "inputs": [
        {
          "internalType": "address",
          "name": "owner",
          "type": "address"
        }
      ],
      "name": "balanceOf",
      "outputs": [
        {
          "internalType": "uint256",
          "name": "",
          "type": "uint256"
        }
      ],
      "stateMutability": "view",
      "type": "function"
    },
    {
      "inputs": [],
      "name": "baseURI",
      "outputs": [
        {
          "internalType": "string",
          "name": "",
          "type": "string"
        }
      ],
      "stateMutability": "view",
      "type": "function"
    },
    {
      "inputs": [
        {
          "internalType": "uint256",
          "name": "tokenId",
          "type": "uint256"
        }
      ],
      "name": "getApproved",
      "outputs": [
        {
          "internalType": "address",
          "name": "",
          "type": "address"
        }
      ],
      "stateMutability": "view",
      "type": "function"
    },
    {
      "inputs": [
        {
          "internalType": "address",
          "name": "owner",
          "type": "address"
        },
        {
          "internalType": "address",
          "name": "operator",
          "type": "address"
        }
      ],
      "name": "isApprovedForAll",
      "outputs": [
        {
          "internalType": "bool",
          "name": "",
          "type": "bool"
        }
      ],
      "stateMutability": "view",
      "type": "function"
    },
    {
      "inputs": [],
      "name": "name",
      "outputs": [
        {
          "internalType": "string",
          "name": "",
          "type": "string"
        }
      ],
      "stateMutability": "view",
      "type": "function"
    },
    {
      "inputs": [],
      "name": "nonce",
      "outputs": [
        {
          "internalType": "uint256",
          "name": "",
          "type": "uint256"
        }
      ],
      "stateMutability": "view",
      "type": "function"
    },
    {
      "inputs": [
        {
          "internalType": "uint256",
          "name": "tokenId",
          "type": "uint256"
        }
      ],
      "name": "ownerOf",
      "outputs": [
        {
          "internalType": "address",
          "name": "",
          "type": "address"
        }
      ],
      "stateMutability": "view",
      "type": "function"
    },
    {
      "inputs": [
        {
          "internalType": "address",
          "name": "from",
          "type": "address"
        },
        {
          "internalType": "address",
          "name": "to",
          "type": "address"
        },
        {
          "internalType": "uint256",
          "name": "tokenId",
          "type": "uint256"
        }
      ],
      "name": "safeTransferFrom",
      "outputs": [],
      "stateMutability": "nonpayable",
      "type": "function"
    },
    {
      "inputs": [
        {
          "internalType": "address",
          "name": "from",
          "type": "address"
        },
        {
          "internalType": "address",
          "name": "to",
          "type": "address"
        },
        {
          "internalType": "uint256",
          "name": "tokenId",
          "type": "uint256"
        },
        {
          "internalType": "bytes",
          "name": "_data",
          "type": "bytes"
        }
      ],
      "name": "safeTransferFrom",
      "outputs": [],
      "stateMutability": "nonpayable",
      "type": "function"
    },
    {
      "inputs": [
        {
          "internalType": "address",
          "name": "operator",
          "type": "address"
        },
        {
          "internalType": "bool",
          "name": "approved",
          "type": "bool"
        }
      ],
      "name": "setApprovalForAll",
      "outputs": [],
      "stateMutability": "nonpayable",
      "type": "function"
    },
    {
      "inputs": [
        {
          "internalType": "bytes4",
          "name": "interfaceId",
          "type": "bytes4"
        }
      ],
      "name": "supportsInterface",
      "outputs": [
        {
          "internalType": "bool",
          "name": "",
          "type": "bool"
        }
      ],
      "stateMutability": "view",
      "type": "function"
    },
    {
      "inputs": [],
      "name": "symbol",
      "outputs": [
        {
          "internalType": "string",
          "name": "",
          "type": "string"
        }
      ],
      "stateMutability": "view",
      "type": "function"
    },
    {
      "inputs": [
        {
          "internalType": "uint256",
          "name": "index",
          "type": "uint256"
        }
      ],
      "name": "tokenByIndex",
      "outputs": [
        {
          "internalType": "uint256",
          "name": "",
          "type": "uint256"
        }
      ],
      "stateMutability": "view",
      "type": "function"
    },
    {
      "inputs": [
        {
          "internalType": "address",
          "name": "owner",
          "type": "address"
        },
        {
          "internalType": "uint256",
          "name": "index",
          "type": "uint256"
        }
      ],
      "name": "tokenOfOwnerByIndex",
      "outputs": [
        {
          "internalType": "uint256",
          "name": "",
          "type": "uint256"
        }
      ],
      "stateMutability": "view",
      "type": "function"
    },
    {
      "inputs": [
        {
          "internalType": "uint256",
          "name": "tokenId",
          "type": "uint256"
        }
      ],
      "name": "tokenURI",
      "outputs": [
        {
          "internalType": "string",
          "name": "",
          "type": "string"
        }
      ],
      "stateMutability": "view",
      "type": "function"
    },
    {
      "inputs": [],
      "name": "totalSupply",
      "outputs": [
        {
          "internalType": "uint256",
          "name": "",
          "type": "uint256"
        }
      ],
      "stateMutability": "view",
      "type": "function"
    },
    {
      "inputs": [
        {
          "internalType": "address",
          "name": "from",
          "type": "address"
        },
        {
          "internalType": "address",
          "name": "to",
          "type": "address"
        },
        {
          "internalType": "uint256",
          "name": "tokenId",
          "type": "uint256"
        }
      ],
      "name": "transferFrom",
      "outputs": [],
      "stateMutability": "nonpayable",
      "type": "function"
    },
    {
      "inputs": [
        {
          "internalType": "uint256",
          "name": "_xis",
          "type": "uint256"
        },
        {
          "internalType": "address",
          "name": "_yak",
          "type": "address"
        },
        {
          "internalType": "uint256",
          "name": "_zed",
          "type": "uint256"
        },
        {
          "internalType": "address",
          "name": "_wax",
          "type": "address"
        },
        {
          "internalType": "uint256",
          "name": "_pow",
          "type": "uint256"
        },
        {
          "internalType": "address",
          "name": "_gem",
          "type": "address"
        }
      ],
      "name": "createPrime",
      "outputs": [
        {
          "internalType": "bool",
          "name": "",
          "type": "bool"
        }
      ],
      "stateMutability": "nonpayable",
      "type": "function"
    },
    {
      "inputs": [
        {
          "internalType": "uint256",
          "name": "_tokenId",
          "type": "uint256"
        }
      ],
      "name": "exercise",
      "outputs": [
        {
          "internalType": "bool",
          "name": "",
          "type": "bool"
        }
      ],
      "stateMutability": "nonpayable",
      "type": "function"
    },
    {
      "inputs": [
        {
          "internalType": "uint256",
          "name": "_collateralId",
          "type": "uint256"
        },
        {
          "internalType": "uint256",
          "name": "_burnId",
          "type": "uint256"
        }
      ],
      "name": "close",
      "outputs": [
        {
          "internalType": "bool",
          "name": "",
          "type": "bool"
        }
      ],
      "stateMutability": "nonpayable",
      "type": "function"
    },
    {
      "inputs": [
        {
          "internalType": "uint256",
          "name": "_amount",
          "type": "uint256"
        },
        {
          "internalType": "address",
          "name": "_asset",
          "type": "address"
        }
      ],
      "name": "withdraw",
      "outputs": [
        {
          "internalType": "bool",
          "name": "",
          "type": "bool"
        }
      ],
      "stateMutability": "nonpayable",
      "type": "function"
    },
    {
      "inputs": [
        {
          "internalType": "uint256",
          "name": "_collateralId",
          "type": "uint256"
        },
        {
          "internalType": "uint256",
          "name": "_burnId",
          "type": "uint256"
        }
      ],
      "name": "_primeCompare",
      "outputs": [
        {
          "internalType": "bool",
          "name": "burn",
          "type": "bool"
        }
      ],
      "stateMutability": "view",
      "type": "function"
    },
    {
      "inputs": [
        {
          "internalType": "uint256",
          "name": "_tokenId",
          "type": "uint256"
        }
      ],
      "name": "getPrime",
      "outputs": [
        {
          "internalType": "address",
          "name": "ace",
          "type": "address"
        },
        {
          "internalType": "uint256",
          "name": "xis",
          "type": "uint256"
        },
        {
          "internalType": "address",
          "name": "yak",
          "type": "address"
        },
        {
          "internalType": "uint256",
          "name": "zed",
          "type": "uint256"
        },
        {
          "internalType": "address",
          "name": "wax",
          "type": "address"
        },
        {
          "internalType": "uint256",
          "name": "pow",
          "type": "uint256"
        },
        {
          "internalType": "address",
          "name": "gem",
          "type": "address"
        }
      ],
      "stateMutability": "view",
      "type": "function"
    },
    {
      "inputs": [
        {
          "internalType": "address",
          "name": "_user",
          "type": "address"
        },
        {
          "internalType": "address",
          "name": "_asset",
          "type": "address"
        }
      ],
      "name": "getBalance",
      "outputs": [
        {
          "internalType": "uint256",
          "name": "",
          "type": "uint256"
        }
      ],
      "stateMutability": "view",
      "type": "function"
    },
    {
      "inputs": [
        {
          "internalType": "address",
          "name": "_user",
          "type": "address"
        }
      ],
      "name": "getActor",
      "outputs": [
        {
          "internalType": "uint256[]",
          "name": "mintedTokens",
          "type": "uint256[]"
        },
        {
          "internalType": "uint256[]",
          "name": "deactivatedTokens",
          "type": "uint256[]"
        }
      ],
      "stateMutability": "view",
      "type": "function"
    },
    {
      "inputs": [
        {
          "internalType": "uint256",
          "name": "_tokenId",
          "type": "uint256"
        }
      ],
      "name": "getChain",
      "outputs": [
        {
          "internalType": "bytes4",
          "name": "chain",
          "type": "bytes4"
        }
      ],
      "stateMutability": "view",
      "type": "function"
    }
  ],
  "bytecode": "0x60806040523480156200001157600080fd5b506040518060400160405280601081526020017f5072696d652044657269766174697665000000000000000000000000000000008152506040518060400160405280600581526020017f5052494d450000000000000000000000000000000000000000000000000000008152508181620000986301ffc9a760e01b6200013760201b60201c565b620000b06380ac58cd60e01b6200013760201b60201c565b620000c863780e9d6360e01b6200013760201b60201c565b8160099080519060200190620000e092919062000240565b5080600a9080519060200190620000f992919062000240565b5062000112635b5e139f60e01b6200013760201b60201c565b505050506001600d60006101000a81548160ff021916908315150217905550620002ef565b63ffffffff60e01b817bffffffffffffffffffffffffffffffffffffffffffffffffffffffff19161415620001d4576040517f08c379a000000000000000000000000000000000000000000000000000000000815260040180806020018281038252601c8152602001807f4552433136353a20696e76616c696420696e746572666163652069640000000081525060200191505060405180910390fd5b6001600080837bffffffffffffffffffffffffffffffffffffffffffffffffffffffff19167bffffffffffffffffffffffffffffffffffffffffffffffffffffffff1916815260200190815260200160002060006101000a81548160ff02191690831515021790555050565b828054600181600116156101000203166002900490600052602060002090601f016020900481019282601f106200028357805160ff1916838001178555620002b4565b82800160010185558215620002b4579182015b82811115620002b357825182559160200191906001019062000296565b5b509050620002c39190620002c7565b5090565b620002ec91905b80821115620002e8576000816000905550600101620002ce565b5090565b90565b615bda80620002ff6000396000f3fe608060405234801561001057600080fd5b50600436106101ce5760003560e01c80636c0360eb11610104578063b6791ad4116100a2578063d24bce8011610071578063d24bce8014610dae578063d4fac45d14610dfe578063dc38daf814610e76578063e985e9c514610f92576101ce565b8063b6791ad414610b02578063b88d4fde14610b82578063bce53ab714610c87578063c87b56dd14610d07576101ce565b8063a22cb465116100de578063a22cb46514610994578063a22ddfd7146109e4578063affed0e014610a9e578063b07f0a4114610abc576101ce565b80636c0360eb1461083657806370a08231146108b957806395d89b4114610911576101ce565b80632dfec9dd1161017157806342842e0e1161014b57806342842e0e146106c85780634f6ccce714610736578063596c8976146107785780636352211e146107c8576101ce565b80632dfec9dd146104695780632f745c59146105855780634138d167146105e7576101ce565b8063081812fc116101ad578063081812fc14610321578063095ea7b31461038f57806318160ddd146103dd57806323b872dd146103fb576101ce565b8062f714ce146101d357806301ffc9a71461023957806306fdde031461029e575b600080fd5b61021f600480360360408110156101e957600080fd5b8101908080359060200190929190803573ffffffffffffffffffffffffffffffffffffffff16906020019092919050505061100e565b604051808215151515815260200191505060405180910390f35b6102846004803603602081101561024f57600080fd5b8101908080357bffffffffffffffffffffffffffffffffffffffffffffffffffffffff19169060200190929190505050611390565b604051808215151515815260200191505060405180910390f35b6102a66113f7565b6040518080602001828103825283818151815260200191508051906020019080838360005b838110156102e65780820151818401526020810190506102cb565b50505050905090810190601f1680156103135780820380516001836020036101000a031916815260200191505b509250505060405180910390f35b61034d6004803603602081101561033757600080fd5b8101908080359060200190929190505050611499565b604051808273ffffffffffffffffffffffffffffffffffffffff1673ffffffffffffffffffffffffffffffffffffffff16815260200191505060405180910390f35b6103db600480360360408110156103a557600080fd5b81019080803573ffffffffffffffffffffffffffffffffffffffff16906020019092919080359060200190929190505050611534565b005b6103e5611678565b6040518082815260200191505060405180910390f35b6104676004803603606081101561041157600080fd5b81019080803573ffffffffffffffffffffffffffffffffffffffff169060200190929190803573ffffffffffffffffffffffffffffffffffffffff16906020019092919080359060200190929190505050611685565b005b6104956004803603602081101561047f57600080fd5b81019080803590602001909291905050506116fb565b604051808873ffffffffffffffffffffffffffffffffffffffff1673ffffffffffffffffffffffffffffffffffffffff1681526020018781526020018673ffffffffffffffffffffffffffffffffffffffff1673ffffffffffffffffffffffffffffffffffffffff1681526020018581526020018473ffffffffffffffffffffffffffffffffffffffff1673ffffffffffffffffffffffffffffffffffffffff1681526020018381526020018273ffffffffffffffffffffffffffffffffffffffff1673ffffffffffffffffffffffffffffffffffffffff16815260200197505050505050505060405180910390f35b6105d16004803603604081101561059b57600080fd5b81019080803573ffffffffffffffffffffffffffffffffffffffff169060200190929190803590602001909291905050506117bd565b6040518082815260200191505060405180910390f35b610629600480360360208110156105fd57600080fd5b81019080803573ffffffffffffffffffffffffffffffffffffffff16906020019092919050505061187c565b604051808060200180602001838103835285818151815260200191508051906020019060200280838360005b83811015610670578082015181840152602081019050610655565b50505050905001838103825284818151815260200191508051906020019060200280838360005b838110156106b2578082015181840152602081019050610697565b5050505090500194505050505060405180910390f35b610734600480360360608110156106de57600080fd5b81019080803573ffffffffffffffffffffffffffffffffffffffff169060200190929190803573ffffffffffffffffffffffffffffffffffffffff1690602001909291908035906020019092919050505061199d565b005b6107626004803603602081101561074c57600080fd5b81019080803590602001909291905050506119bd565b6040518082815260200191505060405180910390f35b6107ae6004803603604081101561078e57600080fd5b810190808035906020019092919080359060200190929190505050611a3d565b604051808215151515815260200191505060405180910390f35b6107f4600480360360208110156107de57600080fd5b810190808035906020019092919050505061220d565b604051808273ffffffffffffffffffffffffffffffffffffffff1673ffffffffffffffffffffffffffffffffffffffff16815260200191505060405180910390f35b61083e6122d5565b6040518080602001828103825283818151815260200191508051906020019080838360005b8381101561087e578082015181840152602081019050610863565b50505050905090810190601f1680156108ab5780820380516001836020036101000a031916815260200191505b509250505060405180910390f35b6108fb600480360360208110156108cf57600080fd5b81019080803573ffffffffffffffffffffffffffffffffffffffff169060200190929190505050612377565b6040518082815260200191505060405180910390f35b61091961244c565b6040518080602001828103825283818151815260200191508051906020019080838360005b8381101561095957808201518184015260208101905061093e565b50505050905090810190601f1680156109865780820380516001836020036101000a031916815260200191505b509250505060405180910390f35b6109e2600480360360408110156109aa57600080fd5b81019080803573ffffffffffffffffffffffffffffffffffffffff1690602001909291908035151590602001909291905050506124ee565b005b610a84600480360360c08110156109fa57600080fd5b8101908080359060200190929190803573ffffffffffffffffffffffffffffffffffffffff16906020019092919080359060200190929190803573ffffffffffffffffffffffffffffffffffffffff16906020019092919080359060200190929190803573ffffffffffffffffffffffffffffffffffffffff1690602001909291905050506126a6565b604051808215151515815260200191505060405180910390f35b610aa6612e57565b6040518082815260200191505060405180910390f35b610ae860048036036020811015610ad257600080fd5b8101908080359060200190929190505050612e5d565b604051808215151515815260200191505060405180910390f35b610b2e60048036036020811015610b1857600080fd5b81019080803590602001909291905050506138c8565b60405180827bffffffffffffffffffffffffffffffffffffffffffffffffffffffff19167bffffffffffffffffffffffffffffffffffffffffffffffffffffffff1916815260200191505060405180910390f35b610c8560048036036080811015610b9857600080fd5b81019080803573ffffffffffffffffffffffffffffffffffffffff169060200190929190803573ffffffffffffffffffffffffffffffffffffffff1690602001909291908035906020019092919080359060200190640100000000811115610bff57600080fd5b820183602082011115610c1157600080fd5b80359060200191846001830284011164010000000083111715610c3357600080fd5b91908080601f016020809104026020016040519081016040528093929190818152602001838380828437600081840152601f19601f820116905080830192505050505050509192919290505050613954565b005b610cb360048036036020811015610c9d57600080fd5b81019080803590602001909291905050506139cc565b60405180827bffffffffffffffffffffffffffffffffffffffffffffffffffffffff19167bffffffffffffffffffffffffffffffffffffffffffffffffffffffff1916815260200191505060405180910390f35b610d3360048036036020811015610d1d57600080fd5b81019080803590602001909291905050506139f7565b6040518080602001828103825283818151815260200191508051906020019080838360005b83811015610d73578082015181840152602081019050610d58565b50505050905090810190601f168015610da05780820380516001836020036101000a031916815260200191505b509250505060405180910390f35b610de460048036036040811015610dc457600080fd5b810190808035906020019092919080359060200190929190505050613bf9565b604051808215151515815260200191505060405180910390f35b610e6060048036036040811015610e1457600080fd5b81019080803573ffffffffffffffffffffffffffffffffffffffff169060200190929190803573ffffffffffffffffffffffffffffffffffffffff16906020019092919050505061413a565b6040518082815260200191505060405180910390f35b610ea260048036036020811015610e8c57600080fd5b81019080803590602001909291905050506141c1565b604051808873ffffffffffffffffffffffffffffffffffffffff1673ffffffffffffffffffffffffffffffffffffffff1681526020018781526020018673ffffffffffffffffffffffffffffffffffffffff1673ffffffffffffffffffffffffffffffffffffffff1681526020018581526020018473ffffffffffffffffffffffffffffffffffffffff1673ffffffffffffffffffffffffffffffffffffffff1681526020018381526020018273ffffffffffffffffffffffffffffffffffffffff1673ffffffffffffffffffffffffffffffffffffffff16815260200197505050505050505060405180910390f35b610ff460048036036040811015610fa857600080fd5b81019080803573ffffffffffffffffffffffffffffffffffffffff169060200190929190803573ffffffffffffffffffffffffffffffffffffffff1690602001909291905050506143a7565b604051808215151515815260200191505060405180910390f35b6000600d60009054906101000a900460ff16611092576040517f08c379a000000000000000000000000000000000000000000000000000000000815260040180806020018281038252601f8152602001807f5265656e7472616e637947756172643a207265656e7472616e742063616c6c0081525060200191505060405180910390fd5b6000600d60006101000a81548160ff0219169083151502179055506000600f60003373ffffffffffffffffffffffffffffffffffffffff1673ffffffffffffffffffffffffffffffffffffffff16815260200190815260200160002060008473ffffffffffffffffffffffffffffffffffffffff1673ffffffffffffffffffffffffffffffffffffffff168152602001908152602001600020549050838110156111a4576040517f08c379a000000000000000000000000000000000000000000000000000000000815260040180806020018281038252601c8152602001807f43616e6e6f7420776974686472617720616d6f756e74203e2062616c0000000081525060200191505060405180910390fd5b6111b7848261443b90919063ffffffff16565b600f60003373ffffffffffffffffffffffffffffffffffffffff1673ffffffffffffffffffffffffffffffffffffffff16815260200190815260200160002060008573ffffffffffffffffffffffffffffffffffffffff1673ffffffffffffffffffffffffffffffffffffffff168152602001908152602001600020819055508273ffffffffffffffffffffffffffffffffffffffff163373ffffffffffffffffffffffffffffffffffffffff167fa708f6433a1b53b1e6af0c278ad548516ef5eab45716a7f85657ee720cd2ece08642604051808381526020018281526020019250505060405180910390a360008390508073ffffffffffffffffffffffffffffffffffffffff1663a9059cbb33876040518363ffffffff1660e01b8152600401808373ffffffffffffffffffffffffffffffffffffffff1673ffffffffffffffffffffffffffffffffffffffff16815260200182815260200192505050602060405180830381600087803b15801561133057600080fd5b505af1158015611344573d6000803e3d6000fd5b505050506040513d602081101561135a57600080fd5b8101908080519060200190929190505050925050506001600d60006101000a81548160ff02191690831515021790555092915050565b6000806000837bffffffffffffffffffffffffffffffffffffffffffffffffffffffff19167bffffffffffffffffffffffffffffffffffffffffffffffffffffffff1916815260200190815260200160002060009054906101000a900460ff169050919050565b606060098054600181600116156101000203166002900480601f01602080910402602001604051908101604052809291908181526020018280546001816001161561010002031660029004801561148f5780601f106114645761010080835404028352916020019161148f565b820191906000526020600020905b81548152906001019060200180831161147257829003601f168201915b5050505050905090565b60006114a482614485565b6114f9576040517f08c379a000000000000000000000000000000000000000000000000000000000815260040180806020018281038252602c815260200180615a7e602c913960400191505060405180910390fd5b6002600083815260200190815260200160002060009054906101000a900473ffffffffffffffffffffffffffffffffffffffff169050919050565b600061153f8261220d565b90508073ffffffffffffffffffffffffffffffffffffffff168373ffffffffffffffffffffffffffffffffffffffff1614156115c6576040517f08c379a0000000000000000000000000000000000000000000000000000000008152600401808060200182810382526021815260200180615b026021913960400191505060405180910390fd5b8073ffffffffffffffffffffffffffffffffffffffff166115e56144f7565b73ffffffffffffffffffffffffffffffffffffffff16148061161457506116138161160e6144f7565b6143a7565b5b611669576040517f08c379a00000000000000000000000000000000000000000000000000000000081526004018080602001828103825260388152602001806159f36038913960400191505060405180910390fd5b61167383836144ff565b505050565b6000600780549050905090565b6116966116906144f7565b826145b8565b6116eb576040517f08c379a0000000000000000000000000000000000000000000000000000000008152600401808060200182810382526031815260200180615b236031913960400191505060405180910390fd5b6116f68383836146ac565b505050565b60106020528060005260406000206000915090508060000160009054906101000a900473ffffffffffffffffffffffffffffffffffffffff16908060010154908060020160009054906101000a900473ffffffffffffffffffffffffffffffffffffffff16908060030154908060040160009054906101000a900473ffffffffffffffffffffffffffffffffffffffff16908060050154908060060160009054906101000a900473ffffffffffffffffffffffffffffffffffffffff16905087565b60006117c883612377565b821061181f576040517f08c379a000000000000000000000000000000000000000000000000000000000815260040180806020018281038252602b815260200180615946602b913960400191505060405180910390fd5b600560008473ffffffffffffffffffffffffffffffffffffffff1673ffffffffffffffffffffffffffffffffffffffff168152602001908152602001600020828154811061186957fe5b9060005260206000200154905092915050565b6060806118876157f7565b601160008573ffffffffffffffffffffffffffffffffffffffff1673ffffffffffffffffffffffffffffffffffffffff1681526020019081526020016000206040518060400160405290816000820180548060200260200160405190810160405280929190818152602001828054801561192057602002820191906000526020600020905b81548152602001906001019080831161190c575b505050505081526020016001820180548060200260200160405190810160405280929190818152602001828054801561197857602002820191906000526020600020905b815481526020019060010190808311611964575b5050505050815250509050806000015181602001518191508090509250925050915091565b6119b883838360405180602001604052806000815250613954565b505050565b60006119c7611678565b8210611a1e576040517f08c379a000000000000000000000000000000000000000000000000000000000815260040180806020018281038252602c815260200180615b54602c913960400191505060405180910390fd5b60078281548110611a2b57fe5b90600052602060002001549050919050565b6000600d60009054906101000a900460ff16611ac1576040517f08c379a000000000000000000000000000000000000000000000000000000000815260040180806020018281038252601f8152602001807f5265656e7472616e637947756172643a207265656e7472616e742063616c6c0081525060200191505060405180910390fd5b6000600d60006101000a81548160ff0219169083151502179055503373ffffffffffffffffffffffffffffffffffffffff16611afc8361220d565b73ffffffffffffffffffffffffffffffffffffffff1614611b85576040517f08c379a00000000000000000000000000000000000000000000000000000000081526004018080602001828103825260108152602001807f4f776e6572206e6f742073656e6465720000000000000000000000000000000081525060200191505060405180910390fd5b611b8d615811565b601060008481526020019081526020016000206040518060e00160405290816000820160009054906101000a900473ffffffffffffffffffffffffffffffffffffffff1673ffffffffffffffffffffffffffffffffffffffff1673ffffffffffffffffffffffffffffffffffffffff168152602001600182015481526020016002820160009054906101000a900473ffffffffffffffffffffffffffffffffffffffff1673ffffffffffffffffffffffffffffffffffffffff1673ffffffffffffffffffffffffffffffffffffffff168152602001600382015481526020016004820160009054906101000a900473ffffffffffffffffffffffffffffffffffffffff1673ffffffffffffffffffffffffffffffffffffffff1673ffffffffffffffffffffffffffffffffffffffff168152602001600582015481526020016006820160009054906101000a900473ffffffffffffffffffffffffffffffffffffffff1673ffffffffffffffffffffffffffffffffffffffff1673ffffffffffffffffffffffffffffffffffffffff168152505090506000816040015190506000611d388686613bf9565b905080611dad576040517f08c379a00000000000000000000000000000000000000000000000000000000081526004018080602001828103825260088152602001807f50726f707320213d00000000000000000000000000000000000000000000000081525060200191505060405180910390fd5b6000600f60003373ffffffffffffffffffffffffffffffffffffffff1673ffffffffffffffffffffffffffffffffffffffff1681526020019081526020016000206000856040015173ffffffffffffffffffffffffffffffffffffffff1673ffffffffffffffffffffffffffffffffffffffff1681526020019081526020016000205411611ea3576040517f08c379a000000000000000000000000000000000000000000000000000000000815260040180806020018281038252600d8152602001807f4e6f20636f6c6c61746572616c0000000000000000000000000000000000000081525060200191505060405180910390fd5b428360a001511015611f1d576040517f08c379a00000000000000000000000000000000000000000000000000000000081526004018080602001828103825260078152602001807f457870697265640000000000000000000000000000000000000000000000000081525060200191505060405180910390fd5b601160003373ffffffffffffffffffffffffffffffffffffffff1673ffffffffffffffffffffffffffffffffffffffff16815260200190815260200160002060010185908060018154018082558091505060019003906000526020600020016000909190919091505561201d8360200151600f60003373ffffffffffffffffffffffffffffffffffffffff1673ffffffffffffffffffffffffffffffffffffffff1681526020019081526020016000206000866040015173ffffffffffffffffffffffffffffffffffffffff1673ffffffffffffffffffffffffffffffffffffffff1681526020019081526020016000205461443b90919063ffffffff16565b600f60003373ffffffffffffffffffffffffffffffffffffffff1673ffffffffffffffffffffffffffffffffffffffff1681526020019081526020016000206000856040015173ffffffffffffffffffffffffffffffffffffffff1673ffffffffffffffffffffffffffffffffffffffff1681526020019081526020016000208190555084836040015173ffffffffffffffffffffffffffffffffffffffff163373ffffffffffffffffffffffffffffffffffffffff167f044d95a6770e3bc7d504a5cc1a74c3d41a6396347c6a1ff244df89815e29bc34866020015142604051808381526020018281526020019250505060405180910390a46121213386614914565b8173ffffffffffffffffffffffffffffffffffffffff1663a9059cbb3385602001516040518363ffffffff1660e01b8152600401808373ffffffffffffffffffffffffffffffffffffffff1673ffffffffffffffffffffffffffffffffffffffff16815260200182815260200192505050602060405180830381600087803b1580156121ac57600080fd5b505af11580156121c0573d6000803e3d6000fd5b505050506040513d60208110156121d657600080fd5b810190808051906020019092919050505093505050506001600d60006101000a81548160ff02191690831515021790555092915050565b6000806001600084815260200190815260200160002060009054906101000a900473ffffffffffffffffffffffffffffffffffffffff169050600073ffffffffffffffffffffffffffffffffffffffff168173ffffffffffffffffffffffffffffffffffffffff1614156122cc576040517f08c379a0000000000000000000000000000000000000000000000000000000008152600401808060200182810382526029815260200180615a556029913960400191505060405180910390fd5b80915050919050565b6060600b8054600181600116156101000203166002900480601f01602080910402602001604051908101604052809291908181526020018280546001816001161561010002031660029004801561236d5780601f106123425761010080835404028352916020019161236d565b820191906000526020600020905b81548152906001019060200180831161235057829003601f168201915b5050505050905090565b60008073ffffffffffffffffffffffffffffffffffffffff168273ffffffffffffffffffffffffffffffffffffffff1614156123fe576040517f08c379a000000000000000000000000000000000000000000000000000000000815260040180806020018281038252602a815260200180615a2b602a913960400191505060405180910390fd5b612445600360008473ffffffffffffffffffffffffffffffffffffffff1673ffffffffffffffffffffffffffffffffffffffff168152602001908152602001600020614ab1565b9050919050565b6060600a8054600181600116156101000203166002900480601f0160208091040260200160405190810160405280929190818152602001828054600181600116156101000203166002900480156124e45780601f106124b9576101008083540402835291602001916124e4565b820191906000526020600020905b8154815290600101906020018083116124c757829003601f168201915b5050505050905090565b6124f66144f7565b73ffffffffffffffffffffffffffffffffffffffff168273ffffffffffffffffffffffffffffffffffffffff161415612597576040517f08c379a00000000000000000000000000000000000000000000000000000000081526004018080602001828103825260198152602001807f4552433732313a20617070726f766520746f2063616c6c65720000000000000081525060200191505060405180910390fd5b80600460006125a46144f7565b73ffffffffffffffffffffffffffffffffffffffff1673ffffffffffffffffffffffffffffffffffffffff16815260200190815260200160002060008473ffffffffffffffffffffffffffffffffffffffff1673ffffffffffffffffffffffffffffffffffffffff16815260200190815260200160002060006101000a81548160ff0219169083151502179055508173ffffffffffffffffffffffffffffffffffffffff166126516144f7565b73ffffffffffffffffffffffffffffffffffffffff167f17307eab39ab6107e8899845ad3d59bd9653f200f220920489ca2b5937696c3183604051808215151515815260200191505060405180910390a35050565b600080869050878173ffffffffffffffffffffffffffffffffffffffff166370a08231336040518263ffffffff1660e01b8152600401808273ffffffffffffffffffffffffffffffffffffffff1673ffffffffffffffffffffffffffffffffffffffff168152602001915050602060405180830381600087803b15801561272c57600080fd5b505af1158015612740573d6000803e3d6000fd5b505050506040513d602081101561275657600080fd5b810190808051906020019092919050505010156127db576040517f08c379a00000000000000000000000000000000000000000000000000000000081526004018080602001828103825260098152602001807f62616c203c20616d74000000000000000000000000000000000000000000000081525060200191505060405180910390fd5b6127e3614abf565b506040518060e001604052803373ffffffffffffffffffffffffffffffffffffffff1681526020018981526020018873ffffffffffffffffffffffffffffffffffffffff1681526020018781526020018673ffffffffffffffffffffffffffffffffffffffff1681526020018581526020018473ffffffffffffffffffffffffffffffffffffffff1681525060106000600e54815260200190815260200160002060008201518160000160006101000a81548173ffffffffffffffffffffffffffffffffffffffff021916908373ffffffffffffffffffffffffffffffffffffffff1602179055506020820151816001015560408201518160020160006101000a81548173ffffffffffffffffffffffffffffffffffffffff021916908373ffffffffffffffffffffffffffffffffffffffff1602179055506060820151816003015560808201518160040160006101000a81548173ffffffffffffffffffffffffffffffffffffffff021916908373ffffffffffffffffffffffffffffffffffffffff16021790555060a0820151816005015560c08201518160060160006101000a81548173ffffffffffffffffffffffffffffffffffffffff021916908373ffffffffffffffffffffffffffffffffffffffff160217905550905050600084604051602001808281526020019150506040516020818303038152906040528051906020012086604051602001808273ffffffffffffffffffffffffffffffffffffffff1673ffffffffffffffffffffffffffffffffffffffff1660601b81526014019150506040516020818303038152906040528051906020012089604051602001808273ffffffffffffffffffffffffffffffffffffffff1673ffffffffffffffffffffffffffffffffffffffff1660601b815260140191505060405160208183030381529060405280519060200120181890506040518060200160405280827bffffffffffffffffffffffffffffffffffffffffffffffffffffffff191681525060126000600e54815260200190815260200160002060008201518160000160006101000a81548163ffffffff021916908360e01c0217905550905050601160003373ffffffffffffffffffffffffffffffffffffffff1673ffffffffffffffffffffffffffffffffffffffff168152602001908152602001600020600001600e549080600181540180825580915050600190039060005260206000200160009091909190915055612bfe89600f60003373ffffffffffffffffffffffffffffffffffffffff1673ffffffffffffffffffffffffffffffffffffffff16815260200190815260200160002060008b73ffffffffffffffffffffffffffffffffffffffff1673ffffffffffffffffffffffffffffffffffffffff16815260200190815260200160002054614ae590919063ffffffff16565b600f60003373ffffffffffffffffffffffffffffffffffffffff1673ffffffffffffffffffffffffffffffffffffffff16815260200190815260200160002060008a73ffffffffffffffffffffffffffffffffffffffff1673ffffffffffffffffffffffffffffffffffffffff16815260200190815260200160002081905550600e543373ffffffffffffffffffffffffffffffffffffffff167f572285c32c8660e81709e8da83d73d6b3845c576bcbb9532b63aa0d2e70c9b4e8b8b8b8b42604051808681526020018573ffffffffffffffffffffffffffffffffffffffff1673ffffffffffffffffffffffffffffffffffffffff1681526020018481526020018373ffffffffffffffffffffffffffffffffffffffff1673ffffffffffffffffffffffffffffffffffffffff1681526020018281526020019550505050505060405180910390a3612d5333600e54614b6d565b8173ffffffffffffffffffffffffffffffffffffffff166323b872dd33308c6040518463ffffffff1660e01b8152600401808473ffffffffffffffffffffffffffffffffffffffff1673ffffffffffffffffffffffffffffffffffffffff1681526020018373ffffffffffffffffffffffffffffffffffffffff1673ffffffffffffffffffffffffffffffffffffffff1681526020018281526020019350505050602060405180830381600087803b158015612e0e57600080fd5b505af1158015612e22573d6000803e3d6000fd5b505050506040513d6020811015612e3857600080fd5b8101908080519060200190929190505050925050509695505050505050565b600e5481565b6000600d60009054906101000a900460ff16612ee1576040517f08c379a000000000000000000000000000000000000000000000000000000000815260040180806020018281038252601f8152602001807f5265656e7472616e637947756172643a207265656e7472616e742063616c6c0081525060200191505060405180910390fd5b6000600d60006101000a81548160ff0219169083151502179055506000612f078361220d565b90503373ffffffffffffffffffffffffffffffffffffffff168173ffffffffffffffffffffffffffffffffffffffff1614612faa576040517f08c379a00000000000000000000000000000000000000000000000000000000081526004018080602001828103825260108152602001807f4f776e6572206e6f742073656e6465720000000000000000000000000000000081525060200191505060405180910390fd5b612fb2615811565b601060008581526020019081526020016000206040518060e00160405290816000820160009054906101000a900473ffffffffffffffffffffffffffffffffffffffff1673ffffffffffffffffffffffffffffffffffffffff1673ffffffffffffffffffffffffffffffffffffffff168152602001600182015481526020016002820160009054906101000a900473ffffffffffffffffffffffffffffffffffffffff1673ffffffffffffffffffffffffffffffffffffffff1673ffffffffffffffffffffffffffffffffffffffff168152602001600382015481526020016004820160009054906101000a900473ffffffffffffffffffffffffffffffffffffffff1673ffffffffffffffffffffffffffffffffffffffff1673ffffffffffffffffffffffffffffffffffffffff168152602001600582015481526020016006820160009054906101000a900473ffffffffffffffffffffffffffffffffffffffff1673ffffffffffffffffffffffffffffffffffffffff1673ffffffffffffffffffffffffffffffffffffffff1681525050905060008160800151905081606001518173ffffffffffffffffffffffffffffffffffffffff166370a08231336040518263ffffffff1660e01b8152600401808273ffffffffffffffffffffffffffffffffffffffff1673ffffffffffffffffffffffffffffffffffffffff168152602001915050602060405180830381600087803b1580156131d557600080fd5b505af11580156131e9573d6000803e3d6000fd5b505050506040513d60208110156131ff57600080fd5b81019080805190602001909291905050501015613284576040517f08c379a00000000000000000000000000000000000000000000000000000000081526004018080602001828103825260098152602001807f42616c203c20616d74000000000000000000000000000000000000000000000081525060200191505060405180910390fd5b428260a0015110156132fe576040517f08c379a00000000000000000000000000000000000000000000000000000000081526004018080602001828103825260078152602001807f457870697265640000000000000000000000000000000000000000000000000081525060200191505060405180910390fd5b601160003373ffffffffffffffffffffffffffffffffffffffff1673ffffffffffffffffffffffffffffffffffffffff1681526020019081526020016000206001018590806001815401808255809150506001900390600052602060002001600090919091909150556134028260200151600f6000856000015173ffffffffffffffffffffffffffffffffffffffff1673ffffffffffffffffffffffffffffffffffffffff1681526020019081526020016000206000856040015173ffffffffffffffffffffffffffffffffffffffff1673ffffffffffffffffffffffffffffffffffffffff1681526020019081526020016000205461443b90919063ffffffff16565b600f6000846000015173ffffffffffffffffffffffffffffffffffffffff1673ffffffffffffffffffffffffffffffffffffffff1681526020019081526020016000206000846040015173ffffffffffffffffffffffffffffffffffffffff1673ffffffffffffffffffffffffffffffffffffffff168152602001908152602001600020819055506135258260600151600f60008560c0015173ffffffffffffffffffffffffffffffffffffffff1673ffffffffffffffffffffffffffffffffffffffff1681526020019081526020016000206000856080015173ffffffffffffffffffffffffffffffffffffffff1673ffffffffffffffffffffffffffffffffffffffff16815260200190815260200160002054614ae590919063ffffffff16565b600f60008460c0015173ffffffffffffffffffffffffffffffffffffffff1673ffffffffffffffffffffffffffffffffffffffff1681526020019081526020016000206000846080015173ffffffffffffffffffffffffffffffffffffffff1673ffffffffffffffffffffffffffffffffffffffff168152602001908152602001600020819055506136448260200151600f60003373ffffffffffffffffffffffffffffffffffffffff1673ffffffffffffffffffffffffffffffffffffffff1681526020019081526020016000206000856040015173ffffffffffffffffffffffffffffffffffffffff1673ffffffffffffffffffffffffffffffffffffffff16815260200190815260200160002054614ae590919063ffffffff16565b600f60003373ffffffffffffffffffffffffffffffffffffffff1673ffffffffffffffffffffffffffffffffffffffff1681526020019081526020016000206000846040015173ffffffffffffffffffffffffffffffffffffffff1673ffffffffffffffffffffffffffffffffffffffff168152602001908152602001600020819055506136d23386614914565b843373ffffffffffffffffffffffffffffffffffffffff167f5c8f4a596d9efd99c9c098c1cb49d46a3973ce83aa7ea4d229accbcf9bc5a9f0846020015185604001518660600151876080015142604051808681526020018573ffffffffffffffffffffffffffffffffffffffff1673ffffffffffffffffffffffffffffffffffffffff1681526020018481526020018373ffffffffffffffffffffffffffffffffffffffff1673ffffffffffffffffffffffffffffffffffffffff1681526020018281526020019550505050505060405180910390a38073ffffffffffffffffffffffffffffffffffffffff166323b872dd333085606001516040518463ffffffff1660e01b8152600401808473ffffffffffffffffffffffffffffffffffffffff1673ffffffffffffffffffffffffffffffffffffffff1681526020018373ffffffffffffffffffffffffffffffffffffffff1673ffffffffffffffffffffffffffffffffffffffff1681526020018281526020019350505050602060405180830381600087803b15801561386857600080fd5b505af115801561387c573d6000803e3d6000fd5b505050506040513d602081101561389257600080fd5b810190808051906020019092919050505093505050506001600d60006101000a81548160ff021916908315150217905550919050565b60006138d26158a6565b601260008481526020019081526020016000206040518060200160405290816000820160009054906101000a900460e01b7bffffffffffffffffffffffffffffffffffffffffffffffffffffffff19167bffffffffffffffffffffffffffffffffffffffffffffffffffffffff19168152505090508060000151915050919050565b61396561395f6144f7565b836145b8565b6139ba576040517f08c379a0000000000000000000000000000000000000000000000000000000008152600401808060200182810382526031815260200180615b236031913960400191505060405180910390fd5b6139c684848484614b8b565b50505050565b60126020528060005260406000206000915090508060000160009054906101000a900460e01b905081565b6060613a0282614485565b613a57576040517f08c379a000000000000000000000000000000000000000000000000000000000815260040180806020018281038252602f815260200180615ad3602f913960400191505060405180910390fd5b6060600c60008481526020019081526020016000208054600181600116156101000203166002900480601f016020809104026020016040519081016040528092919081815260200182805460018160011615610100020316600290048015613b005780601f10613ad557610100808354040283529160200191613b00565b820191906000526020600020905b815481529060010190602001808311613ae357829003601f168201915b50505050509050600081511415613b295760405180602001604052806000815250915050613bf4565b600b816040516020018083805460018160011615610100020316600290048015613b8a5780601f10613b68576101008083540402835291820191613b8a565b820191906000526020600020905b815481529060010190602001808311613b76575b505082805190602001908083835b60208310613bbb5780518252602082019150602081019050602083039250613b98565b6001836020036101000a038019825116818451168082178552505050505050905001925050506040516020818303038152906040529150505b919050565b6000613c03615811565b601060008581526020019081526020016000206040518060e00160405290816000820160009054906101000a900473ffffffffffffffffffffffffffffffffffffffff1673ffffffffffffffffffffffffffffffffffffffff1673ffffffffffffffffffffffffffffffffffffffff168152602001600182015481526020016002820160009054906101000a900473ffffffffffffffffffffffffffffffffffffffff1673ffffffffffffffffffffffffffffffffffffffff1673ffffffffffffffffffffffffffffffffffffffff168152602001600382015481526020016004820160009054906101000a900473ffffffffffffffffffffffffffffffffffffffff1673ffffffffffffffffffffffffffffffffffffffff1673ffffffffffffffffffffffffffffffffffffffff168152602001600582015481526020016006820160009054906101000a900473ffffffffffffffffffffffffffffffffffffffff1673ffffffffffffffffffffffffffffffffffffffff1673ffffffffffffffffffffffffffffffffffffffff16815250509050613da1615811565b601060008581526020019081526020016000206040518060e00160405290816000820160009054906101000a900473ffffffffffffffffffffffffffffffffffffffff1673ffffffffffffffffffffffffffffffffffffffff1673ffffffffffffffffffffffffffffffffffffffff168152602001600182015481526020016002820160009054906101000a900473ffffffffffffffffffffffffffffffffffffffff1673ffffffffffffffffffffffffffffffffffffffff1673ffffffffffffffffffffffffffffffffffffffff168152602001600382015481526020016004820160009054906101000a900473ffffffffffffffffffffffffffffffffffffffff1673ffffffffffffffffffffffffffffffffffffffff1673ffffffffffffffffffffffffffffffffffffffff168152602001600582015481526020016006820160009054906101000a900473ffffffffffffffffffffffffffffffffffffffff1673ffffffffffffffffffffffffffffffffffffffff1673ffffffffffffffffffffffffffffffffffffffff16815250509050600082602001518360400151846060015185608001518660a00151604051602001808681526020018573ffffffffffffffffffffffffffffffffffffffff1673ffffffffffffffffffffffffffffffffffffffff1660601b81526014018481526020018373ffffffffffffffffffffffffffffffffffffffff1673ffffffffffffffffffffffffffffffffffffffff1660601b815260140182815260200195505050505050604051602081830303815290604052805190602001209050600082602001518360400151846060015185608001518660a00151604051602001808681526020018573ffffffffffffffffffffffffffffffffffffffff1673ffffffffffffffffffffffffffffffffffffffff1660601b81526014018481526020018373ffffffffffffffffffffffffffffffffffffffff1673ffffffffffffffffffffffffffffffffffffffff1660601b815260140182815260200195505050505050604051602081830303815290604052805190602001209050808214156140c6576001945050505050614134565b6040517f08c379a00000000000000000000000000000000000000000000000000000000081526004018080602001828103825260088152602001807f50726f707320213d00000000000000000000000000000000000000000000000081525060200191505060405180910390fd5b92915050565b6000600f60008473ffffffffffffffffffffffffffffffffffffffff1673ffffffffffffffffffffffffffffffffffffffff16815260200190815260200160002060008373ffffffffffffffffffffffffffffffffffffffff1673ffffffffffffffffffffffffffffffffffffffff16815260200190815260200160002054905092915050565b60008060008060008060006141d4615811565b601060008a81526020019081526020016000206040518060e00160405290816000820160009054906101000a900473ffffffffffffffffffffffffffffffffffffffff1673ffffffffffffffffffffffffffffffffffffffff1673ffffffffffffffffffffffffffffffffffffffff168152602001600182015481526020016002820160009054906101000a900473ffffffffffffffffffffffffffffffffffffffff1673ffffffffffffffffffffffffffffffffffffffff1673ffffffffffffffffffffffffffffffffffffffff168152602001600382015481526020016004820160009054906101000a900473ffffffffffffffffffffffffffffffffffffffff1673ffffffffffffffffffffffffffffffffffffffff1673ffffffffffffffffffffffffffffffffffffffff168152602001600582015481526020016006820160009054906101000a900473ffffffffffffffffffffffffffffffffffffffff1673ffffffffffffffffffffffffffffffffffffffff1673ffffffffffffffffffffffffffffffffffffffff16815250509050806000015181602001518260400151836060015184608001518560a001518660c00151975097509750975097509750975050919395979092949650565b6000600460008473ffffffffffffffffffffffffffffffffffffffff1673ffffffffffffffffffffffffffffffffffffffff16815260200190815260200160002060008373ffffffffffffffffffffffffffffffffffffffff1673ffffffffffffffffffffffffffffffffffffffff16815260200190815260200160002060009054906101000a900460ff16905092915050565b600061447d83836040518060400160405280601e81526020017f536166654d6174683a207375627472616374696f6e206f766572666c6f770000815250614bfd565b905092915050565b6000806001600084815260200190815260200160002060009054906101000a900473ffffffffffffffffffffffffffffffffffffffff169050600073ffffffffffffffffffffffffffffffffffffffff168173ffffffffffffffffffffffffffffffffffffffff161415915050919050565b600033905090565b816002600083815260200190815260200160002060006101000a81548173ffffffffffffffffffffffffffffffffffffffff021916908373ffffffffffffffffffffffffffffffffffffffff160217905550808273ffffffffffffffffffffffffffffffffffffffff166145728361220d565b73ffffffffffffffffffffffffffffffffffffffff167f8c5be1e5ebec7d5bd14f71427d1e84f3dd0314c0f7b2291e5b200ac8c7c3b92560405160405180910390a45050565b60006145c382614485565b614618576040517f08c379a000000000000000000000000000000000000000000000000000000000815260040180806020018281038252602c8152602001806159c7602c913960400191505060405180910390fd5b60006146238361220d565b90508073ffffffffffffffffffffffffffffffffffffffff168473ffffffffffffffffffffffffffffffffffffffff16148061469257508373ffffffffffffffffffffffffffffffffffffffff1661467a84611499565b73ffffffffffffffffffffffffffffffffffffffff16145b806146a357506146a281856143a7565b5b91505092915050565b8273ffffffffffffffffffffffffffffffffffffffff166146cc8261220d565b73ffffffffffffffffffffffffffffffffffffffff1614614738576040517f08c379a0000000000000000000000000000000000000000000000000000000008152600401808060200182810382526029815260200180615aaa6029913960400191505060405180910390fd5b600073ffffffffffffffffffffffffffffffffffffffff168273ffffffffffffffffffffffffffffffffffffffff1614156147be576040517f08c379a00000000000000000000000000000000000000000000000000000000081526004018080602001828103825260248152602001806159a36024913960400191505060405180910390fd5b6147c9838383614cbd565b6147d46000826144ff565b61481b600360008573ffffffffffffffffffffffffffffffffffffffff1673ffffffffffffffffffffffffffffffffffffffff168152602001908152602001600020614ccd565b614862600360008473ffffffffffffffffffffffffffffffffffffffff1673ffffffffffffffffffffffffffffffffffffffff168152602001908152602001600020614cf0565b816001600083815260200190815260200160002060006101000a81548173ffffffffffffffffffffffffffffffffffffffff021916908373ffffffffffffffffffffffffffffffffffffffff160217905550808273ffffffffffffffffffffffffffffffffffffffff168473ffffffffffffffffffffffffffffffffffffffff167fddf252ad1be2c89b69c2b068fc378daa952ba7f163c4a11628f55a4df523b3ef60405160405180910390a4505050565b8173ffffffffffffffffffffffffffffffffffffffff166149348261220d565b73ffffffffffffffffffffffffffffffffffffffff16146149a0576040517f08c379a0000000000000000000000000000000000000000000000000000000008152600401808060200182810382526025815260200180615b806025913960400191505060405180910390fd5b6149ac82600083614cbd565b6149b76000826144ff565b6149fe600360008473ffffffffffffffffffffffffffffffffffffffff1673ffffffffffffffffffffffffffffffffffffffff168152602001908152602001600020614ccd565b60006001600083815260200190815260200160002060006101000a81548173ffffffffffffffffffffffffffffffffffffffff021916908373ffffffffffffffffffffffffffffffffffffffff16021790555080600073ffffffffffffffffffffffffffffffffffffffff168373ffffffffffffffffffffffffffffffffffffffff167fddf252ad1be2c89b69c2b068fc378daa952ba7f163c4a11628f55a4df523b3ef60405160405180910390a45050565b600081600001549050919050565b6000614ad76001600e54614ae590919063ffffffff16565b600e81905550600e54905090565b600080828401905083811015614b63576040517f08c379a000000000000000000000000000000000000000000000000000000000815260040180806020018281038252601b8152602001807f536166654d6174683a206164646974696f6e206f766572666c6f77000000000081525060200191505060405180910390fd5b8091505092915050565b614b87828260405180602001604052806000815250614d06565b5050565b614b968484846146ac565b614ba284848484614d77565b614bf7576040517f08c379a00000000000000000000000000000000000000000000000000000000081526004018080602001828103825260328152602001806159716032913960400191505060405180910390fd5b50505050565b6000838311158290614caa576040517f08c379a00000000000000000000000000000000000000000000000000000000081526004018080602001828103825283818151815260200191508051906020019080838360005b83811015614c6f578082015181840152602081019050614c54565b50505050905090810190601f168015614c9c5780820380516001836020036101000a031916815260200191505b509250505060405180910390fd5b5060008385039050809150509392505050565b614cc883838361509a565b505050565b614ce56001826000015461443b90919063ffffffff16565b816000018190555050565b6001816000016000828254019250508190555050565b614d10838361512f565b614d1d6000848484614d77565b614d72576040517f08c379a00000000000000000000000000000000000000000000000000000000081526004018080602001828103825260328152602001806159716032913960400191505060405180910390fd5b505050565b6000614d988473ffffffffffffffffffffffffffffffffffffffff16615353565b614da55760019050615092565b600060608573ffffffffffffffffffffffffffffffffffffffff1663150b7a0260e01b614dd06144f7565b898888604051602401808573ffffffffffffffffffffffffffffffffffffffff1673ffffffffffffffffffffffffffffffffffffffff1681526020018473ffffffffffffffffffffffffffffffffffffffff1673ffffffffffffffffffffffffffffffffffffffff16815260200183815260200180602001828103825283818151815260200191508051906020019080838360005b83811015614e80578082015181840152602081019050614e65565b50505050905090810190601f168015614ead5780820380516001836020036101000a031916815260200191505b5095505050505050604051602081830303815290604052907bffffffffffffffffffffffffffffffffffffffffffffffffffffffff19166020820180517bffffffffffffffffffffffffffffffffffffffffffffffffffffffff83818316178352505050506040518082805190602001908083835b60208310614f455780518252602082019150602081019050602083039250614f22565b6001836020036101000a0380198251168184511680821785525050505050509050019150506000604051808303816000865af19150503d8060008114614fa7576040519150601f19603f3d011682016040523d82523d6000602084013e614fac565b606091505b50915091508161501a57600081511115614fc95780518082602001fd5b6040517f08c379a00000000000000000000000000000000000000000000000000000000081526004018080602001828103825260328152602001806159716032913960400191505060405180910390fd5b600081806020019051602081101561503157600080fd5b8101908080519060200190929190505050905063150b7a0260e01b7bffffffffffffffffffffffffffffffffffffffffffffffffffffffff1916817bffffffffffffffffffffffffffffffffffffffffffffffffffffffff19161493505050505b949350505050565b6150a583838361539e565b600073ffffffffffffffffffffffffffffffffffffffff168273ffffffffffffffffffffffffffffffffffffffff16141561512a576000600c60008381526020019081526020016000208054600181600116156101000203166002900490501461512957600c6000828152602001908152602001600020600061512891906158d8565b5b5b505050565b600073ffffffffffffffffffffffffffffffffffffffff168273ffffffffffffffffffffffffffffffffffffffff1614156151d2576040517f08c379a00000000000000000000000000000000000000000000000000000000081526004018080602001828103825260208152602001807f4552433732313a206d696e7420746f20746865207a65726f206164647265737381525060200191505060405180910390fd5b6151db81614485565b1561524e576040517f08c379a000000000000000000000000000000000000000000000000000000000815260040180806020018281038252601c8152602001807f4552433732313a20746f6b656e20616c7265616479206d696e7465640000000081525060200191505060405180910390fd5b61525a60008383614cbd565b816001600083815260200190815260200160002060006101000a81548173ffffffffffffffffffffffffffffffffffffffff021916908373ffffffffffffffffffffffffffffffffffffffff1602179055506152f3600360008473ffffffffffffffffffffffffffffffffffffffff1673ffffffffffffffffffffffffffffffffffffffff168152602001908152602001600020614cf0565b808273ffffffffffffffffffffffffffffffffffffffff16600073ffffffffffffffffffffffffffffffffffffffff167fddf252ad1be2c89b69c2b068fc378daa952ba7f163c4a11628f55a4df523b3ef60405160405180910390a45050565b60008060007fc5d2460186f7233c927e7db2dcc703c0e500b653ca82273b7bfad8045d85a47060001b9050833f915080821415801561539557506000801b8214155b92505050919050565b6153a9838383615477565b600073ffffffffffffffffffffffffffffffffffffffff168373ffffffffffffffffffffffffffffffffffffffff1614156153f6576153e8828261547c565b6153f181615540565b615472565b600073ffffffffffffffffffffffffffffffffffffffff168273ffffffffffffffffffffffffffffffffffffffff16141561545c576154358382615589565b6000600660008381526020019081526020016000208190555061545781615732565b615471565b6154668382615589565b615470828261547c565b5b5b505050565b505050565b600560008373ffffffffffffffffffffffffffffffffffffffff1673ffffffffffffffffffffffffffffffffffffffff168152602001908152602001600020805490506006600083815260200190815260200160002081905550600560008373ffffffffffffffffffffffffffffffffffffffff1673ffffffffffffffffffffffffffffffffffffffff1681526020019081526020016000208190806001815401808255809150506001900390600052602060002001600090919091909150555050565b6007805490506008600083815260200190815260200160002081905550600781908060018154018082558091505060019003906000526020600020016000909190919091505550565b60006155e16001600560008673ffffffffffffffffffffffffffffffffffffffff1673ffffffffffffffffffffffffffffffffffffffff1681526020019081526020016000208054905061443b90919063ffffffff16565b90506000600660008481526020019081526020016000205490508181146156ce576000600560008673ffffffffffffffffffffffffffffffffffffffff1673ffffffffffffffffffffffffffffffffffffffff168152602001908152602001600020838154811061564e57fe5b9060005260206000200154905080600560008773ffffffffffffffffffffffffffffffffffffffff1673ffffffffffffffffffffffffffffffffffffffff16815260200190815260200160002083815481106156a657fe5b9060005260206000200181905550816006600083815260200190815260200160002081905550505b600560008573ffffffffffffffffffffffffffffffffffffffff1673ffffffffffffffffffffffffffffffffffffffff16815260200190815260200160002080548061571657fe5b6001900381819060005260206000200160009055905550505050565b600061574d600160078054905061443b90919063ffffffff16565b905060006008600084815260200190815260200160002054905060006007838154811061577657fe5b90600052602060002001549050806007838154811061579157fe5b906000526020600020018190555081600860008381526020019081526020016000208190555060078054806157c257fe5b600190038181906000526020600020016000905590556000600860008681526020019081526020016000208190555050505050565b604051806040016040528060608152602001606081525090565b6040518060e00160405280600073ffffffffffffffffffffffffffffffffffffffff16815260200160008152602001600073ffffffffffffffffffffffffffffffffffffffff16815260200160008152602001600073ffffffffffffffffffffffffffffffffffffffff16815260200160008152602001600073ffffffffffffffffffffffffffffffffffffffff1681525090565b604051806020016040528060007bffffffffffffffffffffffffffffffffffffffffffffffffffffffff191681525090565b50805460018160011615610100020316600290046000825580601f106158fe575061591d565b601f01602090049060005260206000209081019061591c9190615920565b5b50565b61594291905b8082111561593e576000816000905550600101615926565b5090565b9056fe455243373231456e756d657261626c653a206f776e657220696e646578206f7574206f6620626f756e64734552433732313a207472616e7366657220746f206e6f6e20455243373231526563656976657220696d706c656d656e7465724552433732313a207472616e7366657220746f20746865207a65726f20616464726573734552433732313a206f70657261746f7220717565727920666f72206e6f6e6578697374656e7420746f6b656e4552433732313a20617070726f76652063616c6c6572206973206e6f74206f776e6572206e6f7220617070726f76656420666f7220616c6c4552433732313a2062616c616e636520717565727920666f7220746865207a65726f20616464726573734552433732313a206f776e657220717565727920666f72206e6f6e6578697374656e7420746f6b656e4552433732313a20617070726f76656420717565727920666f72206e6f6e6578697374656e7420746f6b656e4552433732313a207472616e73666572206f6620746f6b656e2074686174206973206e6f74206f776e4552433732314d657461646174613a2055524920717565727920666f72206e6f6e6578697374656e7420746f6b656e4552433732313a20617070726f76616c20746f2063757272656e74206f776e65724552433732313a207472616e736665722063616c6c6572206973206e6f74206f776e6572206e6f7220617070726f766564455243373231456e756d657261626c653a20676c6f62616c20696e646578206f7574206f6620626f756e64734552433732313a206275726e206f6620746f6b656e2074686174206973206e6f74206f776ea26469706673582212205af25ae9d276f9f1cddb68868ad280215549c5d180689ed330d01c2ab2f24f2764736f6c63430006020033",
  "source": "pragma solidity ^0.6.2;\r\n\r\n/**\r\n * @title   DFCP's Prime Contract\r\n * @notice  The core ERC721 contract that holds all Instruments.Primes.\r\n *          A Prime isn ERC-721 token that wraps ERC-20 assets\r\n *          with functions to interact with them.\r\n * @author  Decentralized Financial Crafting Protocol\r\n */\r\n\r\n\r\nimport \"@openzeppelin/contracts/math/SafeMath.sol\";\r\nimport \"@openzeppelin/contracts/token/ERC721/ERC721Full.sol\";\r\nimport \"@openzeppelin/contracts/utils/ReentrancyGuard.sol\";\r\nimport \"./Instruments.sol\";\r\n\r\n\r\nabstract contract ERC20 {\r\n    function balanceOf(address _owner) virtual external returns(uint256);\r\n    function transferFrom(address sender, address recipient, uint256 amount) public virtual returns (bool);\r\n    function transfer(address recipient, uint256 amount) public virtual returns (bool);\r\n}\r\n\r\n\r\nabstract contract IPrime {\r\n    /**\r\n    * @dev Emitted when a Minter deposits collateral.\r\n    * @param _user Address of user.\r\n    * @param _collateralQty Quantity of the deposited asset.\r\n    * @param _collateral Address of the deposited asset.\r\n    * @param _paymentQty Quantity of the deposited asset.\r\n    * @param _payment Address of the deposited asset.\r\n    * @param _tokenId Nonce of minted Prime -> ID.\r\n    * @param _timestamp Block.timestamp of deposit.\r\n    **/\r\n    event PrimeMinted(\r\n        address indexed _user,\r\n        uint256 _collateralQty,\r\n        address  _collateral,\r\n        uint256 _paymentQty,\r\n        address  _payment,\r\n        uint256 indexed _tokenId, \r\n        uint256 _timestamp\r\n    );\r\n\r\n    /**\r\n    * @dev Emitted when a Burner purchases collateral.\r\n    * @param _user Address of user.\r\n    * @param _collateralQty Quantity of the deposited asset.\r\n    * @param _collateral Address of the deposited asset.\r\n    * @param _paymentQty Quantity of the deposited asset.\r\n    * @param _payment Address of the deposited asset.\r\n    * @param _tokenId Nonce of minted Prime -> ID.\r\n    * @param _timestamp Block.timestamp of deposit.\r\n    **/\r\n    event PrimeExercised(\r\n        address indexed _user,\r\n        uint256 _collateralQty,\r\n        address  _collateral,\r\n        uint256 _paymentQty,\r\n        address  _payment,\r\n        uint256 indexed _tokenId, \r\n        uint256 _timestamp\r\n    );\r\n\r\n    /**\r\n    * @dev Emitted when collateral is withdrawable by Minter.\r\n    * @param _user Address of user.\r\n    * @param _collateralQty Quantity of the deposited asset.\r\n    * @param _collateral Address of the deposited asset.\r\n    * @param _tokenId Nonce of minted Prime -> ID.\r\n    * @param _timestamp Block.timestamp of deposit.\r\n    **/\r\n    event PrimeClosed(\r\n        address indexed _user,\r\n        uint256 _collateralQty,\r\n        address  indexed _collateral,\r\n        uint256 indexed _tokenId, \r\n        uint256 _timestamp\r\n    );\r\n\r\n    /**\r\n    * @dev Emitted when collateral is withdrawn from Prime.\r\n    * @param _user Address of user.\r\n    * @param _collateralQty Quantity of the deposited asset.\r\n    * @param _collateral Address of the deposited asset.\r\n    * @param _timestamp Block.timestamp of deposit.\r\n    **/\r\n    event Withdrawal(\r\n        address indexed _user,\r\n        uint256 _collateralQty,\r\n        address indexed _collateral,\r\n        uint256 _timestamp\r\n    );\r\n\r\n\r\n    function createPrime(uint256 _xis, address _yak, uint256 _zed, address _wax, uint256 _pow, address _gem) external virtual returns (bool);\r\n    function exercise(uint256 _tokenId) external virtual returns (bool);\r\n    function close(uint256 _collateralId, uint256 _burnId) external virtual returns (bool);\r\n    function withdraw(uint256 _amount, address _asset) public virtual returns (bool);\r\n}\r\n\r\n\r\ncontract Prime is IPrime, ERC721Full, ReentrancyGuard {\r\n    using SafeMath for uint256;\r\n\r\n    string constant URI = '';\r\n    uint256 constant INCREMENT = 1;\r\n    uint256 public nonce;\r\n\r\n    // Maps a user's withdrawable asset balance\r\n    mapping(address => mapping(address => uint256)) private _bank;\r\n\r\n    // Map NFT IDs to Prime Struct\r\n    mapping(uint256 => Instruments.Primes) public _primes;\r\n\r\n    // Maps user addresses to Actor accounts\r\n    mapping(address => Instruments.Actors) private _actors;\r\n\r\n    // Maps token Ids to hash of collateral/strike/expiration\r\n    mapping(uint256 => Instruments.Chain) public _chains;\r\n\r\n\r\n    constructor () public\r\n        ERC721Full(\r\n            \"Prime Derivative\",\r\n            \"PRIME\"\r\n        ) {}\r\n    \r\n    /* CORE FUNCTIONS */\r\n\r\n    /** \r\n     * @dev `msg.sender` Deposits asset x, mints new Slate.\r\n     * @param _xis Amount of collateral to deposit.\r\n     * @param _yak Address of collateral asset.\r\n     * @param _zed Amount of payment asset.\r\n     * @param _wax Payment asset address.\r\n     * @param _pow Expiry timestamp.\r\n     * @param _gem Receiver address.\r\n     * @return bool Success.\r\n     */\r\n    function createPrime(\r\n        uint256 _xis,\r\n        address _yak,\r\n        uint256 _zed,\r\n        address _wax,\r\n        uint256 _pow,\r\n        address _gem\r\n    ) \r\n        external \r\n        override\r\n        returns (bool) \r\n    {\r\n\r\n        // CHECKS\r\n        ERC20 yak = ERC20(_yak);\r\n        require(\r\n            yak.balanceOf(msg.sender) >= _xis, \r\n            'bal < amt'\r\n        );\r\n\r\n        // EFFECTS\r\n        _incrementNonce();\r\n        _primes[nonce] = Instruments.Primes(\r\n            msg.sender, \r\n            _xis,\r\n            _yak, \r\n            _zed, \r\n            _wax, \r\n            _pow, \r\n            _gem\r\n        );\r\n\r\n        bytes4 chain = bytes4(\r\n            keccak256(abi.encodePacked(_yak))) \r\n            ^ bytes4(keccak256(abi.encodePacked(_wax))) \r\n            ^ bytes4(keccak256(abi.encodePacked(_pow))\r\n        );\r\n        _chains[nonce] = Instruments.Chain(\r\n            chain\r\n        );\r\n\r\n        _actors[msg.sender].mintedTokens.push(nonce);\r\n\r\n        _bank[msg.sender][_yak] = _bank[msg.sender][_yak].add(_xis);\r\n\r\n        // INTERACTIONS\r\n        emit PrimeMinted(\r\n            msg.sender, \r\n            _xis,\r\n            _yak,\r\n            _zed,\r\n            _wax,\r\n            nonce, \r\n            block.timestamp\r\n        );\r\n\r\n        _safeMint(\r\n            msg.sender, \r\n            nonce\r\n        );\r\n\r\n        return yak.transferFrom(msg.sender, address(this), _xis);\r\n    }\r\n\r\n    /** \r\n     * @dev `msg.sender` Exercises right to purchase collateral.\r\n     * @param _tokenId ID of Prime.\r\n     * @return bool Success.\r\n     */\r\n    function exercise(\r\n        uint256 _tokenId\r\n    ) \r\n        external \r\n        override\r\n        nonReentrant\r\n        returns (bool) \r\n    {\r\n        // CHECKS\r\n        address own = ownerOf(_tokenId);\r\n        require(\r\n            own == msg.sender, \r\n            'Owner not sender'\r\n        );\r\n\r\n        // Get Prime\r\n        Instruments.Primes memory _prime = _primes[_tokenId];\r\n        ERC20 _wax = ERC20(_prime.wax);\r\n\r\n        require(\r\n            _wax.balanceOf(msg.sender) >= _prime.zed, \r\n            'Bal < amt'\r\n        );\r\n        \r\n        require(\r\n            _prime.pow >= block.timestamp, \r\n            'Expired'\r\n        );\r\n\r\n        // EFFECTS\r\n\r\n        _actors[msg.sender].deactivatedTokens.push(_tokenId);\r\n\r\n        // Original Minter has their collateral balance debited.\r\n        _bank[_prime.ace][_prime.yak] = _bank[_prime.ace][_prime.yak].sub(_prime.xis);\r\n        // Payment receiver has their payment balance credited.\r\n        _bank[_prime.gem][_prime.wax] = _bank[_prime.gem][_prime.wax].add(_prime.zed);\r\n        // Exercisor has their collateral balance credited.\r\n        _bank[msg.sender][_prime.yak] = _bank[msg.sender][_prime.yak].add(_prime.xis);\r\n\r\n        // INTERACTIONS\r\n\r\n        _burn(msg.sender, _tokenId);\r\n\r\n        emit PrimeExercised(\r\n            msg.sender,\r\n            _prime.xis,\r\n            _prime.yak,\r\n            _prime.zed,\r\n            _prime.wax,\r\n            _tokenId, \r\n            block.timestamp\r\n        );\r\n        \r\n        return _wax.transferFrom(msg.sender, address(this), _prime.zed);\r\n    }\r\n\r\n    /** \r\n     * @dev `msg.sender` Closes Prime and \r\n     * can withdraw collateral as Prime minter.\r\n     * Msg.sender can burn any Prime NFT \r\n     * that has matching properties when compared\r\n     * to their minted Prime NFT. This way, \r\n     * they can sell their Minted Prime, and if\r\n     * they need to close the position, \r\n     * they can buy another Prime rather than track down \r\n     * the exact one they sold/traded away. \r\n     * @param _collateralId Prime NFT ID with Minter's collateral.\r\n     * @param _burnId Prime NFT ID that Minter owns,\r\n     *  and intends to burn to withdraw collateral.\r\n     * @return bool Success.\r\n     */\r\n    function close(\r\n        uint256 _collateralId,\r\n        uint256 _burnId\r\n    ) \r\n        external \r\n        override\r\n        nonReentrant\r\n        returns (bool) \r\n    {\r\n        // CHECKS\r\n        require(\r\n            ownerOf(_burnId) == msg.sender, \r\n            'Owner not sender'\r\n        );\r\n\r\n\r\n        // Get Prime that will get Burned\r\n        Instruments.Primes memory _burnPrime = _primes[_burnId];\r\n        ERC20 _yakBurn = ERC20(_burnPrime.yak);\r\n\r\n        // Msg.sender burns a Prime that they did not mint.\r\n        // Prime properties need to match, else the tx reverts.\r\n        \r\n        bool burn = _primeCompare(_collateralId, _burnId);\r\n        require(\r\n            burn,\r\n            'Props !='\r\n        );\r\n\r\n        require(\r\n            _bank[msg.sender][_burnPrime.yak] > 0, \r\n            'No collateral'\r\n        );\r\n\r\n        require(\r\n            _burnPrime.pow >= block.timestamp, \r\n            'Expired'\r\n        );\r\n\r\n        // EFFECTS\r\n\r\n        _actors[msg.sender].deactivatedTokens.push(_burnId);\r\n\r\n        // Minter's collateral is debited.\r\n        _bank[msg.sender][_burnPrime.yak] = _bank[msg.sender][_burnPrime.yak].sub(_burnPrime.xis);\r\n\r\n        // INTERACTIONS\r\n        emit PrimeClosed(\r\n            msg.sender, \r\n            _burnPrime.xis,\r\n            _burnPrime.yak,\r\n            _burnId, \r\n            block.timestamp\r\n        );\r\n\r\n        _burn(msg.sender, _burnId);\r\n\r\n        return _yakBurn.transfer(msg.sender, _burnPrime.xis);\r\n    }\r\n\r\n    /** \r\n     * @dev `msg.sender` Withdraw assets from contract.\r\n     * @param _amount Quantity to withdraw.\r\n     * @param _asset Address of asset.\r\n     * @return success\r\n     */\r\n    function withdraw(\r\n        uint256 _amount, \r\n        address _asset\r\n    ) \r\n        public \r\n        override\r\n        nonReentrant\r\n        returns (bool) \r\n    {\r\n        // CHECKS\r\n        uint256 bank = _bank[msg.sender][_asset];\r\n        require(\r\n            bank >= _amount, \r\n            'Cannot withdraw amount > bal'\r\n        );\r\n\r\n        // EFFECTS\r\n\r\n        // User's account is debited\r\n        _bank[msg.sender][_asset] = bank.sub(_amount);\r\n\r\n        // INTERACTIONS \r\n        emit Withdrawal(\r\n            msg.sender, \r\n            _amount,\r\n            _asset,\r\n            block.timestamp\r\n        );\r\n\r\n        ERC20 erc20 = ERC20(_asset);\r\n        return erc20.transfer(msg.sender, _amount);\r\n    }\r\n\r\n\r\n    /* UTILITY FUNCTIONS */\r\n\r\n\r\n    /** \r\n     * @dev Utility to update tokenId Nonce.\r\n     * @return uint256 nonce.\r\n     */\r\n    function _incrementNonce() internal returns (uint256) {\r\n        nonce = nonce.add(INCREMENT);\r\n        return nonce;\r\n    }\r\n\r\n    /** \r\n     * @dev Utility to compare hashes of Prime properties.\r\n     * @return burn bool of whether Instruments.Primes match.\r\n     */\r\n    function _primeCompare(\r\n        uint256 _collateralId,\r\n        uint256 _burnId\r\n    ) \r\n        public \r\n        view \r\n        returns\r\n        (bool burn)\r\n    {\r\n        Instruments.Primes memory _collateralPrime = _primes[_collateralId];\r\n        Instruments.Primes memory _burnPrime = _primes[_burnId];\r\n\r\n        bytes32 hashCollateral = keccak256(\r\n            abi.encodePacked(\r\n                _collateralPrime.xis,\r\n                _collateralPrime.yak,\r\n                _collateralPrime.zed,\r\n                _collateralPrime.wax,\r\n                _collateralPrime.pow\r\n            )\r\n        );\r\n\r\n        bytes32 hashBurn = keccak256(\r\n            abi.encodePacked(\r\n                _burnPrime.xis,\r\n                _burnPrime.yak,\r\n                _burnPrime.zed,\r\n                _burnPrime.wax,\r\n                _burnPrime.pow\r\n            )\r\n        );\r\n\r\n        if(hashCollateral == hashBurn) {\r\n            return true;\r\n        } else {\r\n            revert('Props !=');\r\n        }\r\n    }\r\n\r\n\r\n    /* VIEW FUNCTIONS */\r\n\r\n\r\n    /** \r\n     * @dev Public view function to get Prime properties.\r\n     */\r\n    function getPrime(uint256 _tokenId) external view returns (\r\n            address ace,\r\n            uint256 xis,\r\n            address yak,\r\n            uint256 zed,\r\n            address wax,\r\n            uint256 pow,\r\n            address gem\r\n        ) {\r\n            Instruments.Primes memory _prime = _primes[_tokenId];\r\n            return (\r\n                _prime.ace,\r\n                _prime.xis,\r\n                _prime.yak,\r\n                _prime.zed,\r\n                _prime.wax,\r\n                _prime.pow,\r\n                _prime.gem\r\n            );\r\n    }\r\n\r\n    /** \r\n     * @dev Public view function to get the Bank's balance of a User\r\n     */\r\n    function getBalance(address _user, address _asset) public view returns (\r\n        uint256\r\n        ) {\r\n            return _bank[_user][_asset];\r\n    }\r\n\r\n    /** \r\n     * @dev Public view function to Actor properties\r\n     */\r\n    function getActor(address _user) external view returns (\r\n        uint[] memory mintedTokens,\r\n        uint[] memory deactivatedTokens\r\n        ) {\r\n            Instruments.Actors memory _actor = _actors[_user];\r\n            return (\r\n                _actor.mintedTokens,\r\n                _actor.deactivatedTokens\r\n            );\r\n    }\r\n\r\n    /** \r\n     * @dev Public view function to Rank\r\n     */\r\n    function getChain(uint256 _tokenId) external view returns (\r\n        bytes4 chain\r\n    ) {\r\n        Instruments.Chain memory _chain = _chains[_tokenId];\r\n        return (\r\n            _chain.chain\r\n        );\r\n    }\r\n}",
  "sourcePath": "C:\\Users\\alexa\\OneDrive\\Documents\\Master\\Blockchain\\Projects\\carbon\\contracts\\Prime.sol",
  "compiler": {
    "name": "solc",
    "version": "0.6.2+commit.bacdbe57.Emscripten.clang"
  },
  "schemaVersion": "3.0.23",
  "updatedAt": "2020-03-23T04:18:59.772Z",
  "devdoc": {
    "methods": {
      "_primeCompare(uint256,uint256)": {
        "details": "Utility to compare hashes of Prime properties.",
        "returns": {
          "burn": "bool of whether Instruments.Primes match."
        }
      },
      "approve(address,uint256)": {
        "details": "Approves another address to transfer the given token ID The zero address indicates there is no approved address. There can only be one approved address per token at a given time. Can only be called by the token owner or an approved operator.",
        "params": {
          "to": "address to be approved for the given token ID",
          "tokenId": "uint256 ID of the token to be approved"
        }
      },
      "balanceOf(address)": {
        "details": "Gets the balance of the specified address.",
        "params": {
          "owner": "address to query the balance of"
        },
        "returns": {
          "_0": "uint256 representing the amount owned by the passed address"
        }
      },
      "baseURI()": {
        "details": "Returns the base URI set via {_setBaseURI}. This will be automatically added as a preffix in {tokenURI} to each token's URI, when they are non-empty.    * _Available since v2.5.0._"
      },
      "close(uint256,uint256)": {
        "details": "`msg.sender` Closes Prime and  can withdraw collateral as Prime minter. Msg.sender can burn any Prime NFT  that has matching properties when compared to their minted Prime NFT. This way,  they can sell their Minted Prime, and if they need to close the position,  they can buy another Prime rather than track down  the exact one they sold/traded away. ",
        "params": {
          "_burnId": "Prime NFT ID that Minter owns, and intends to burn to withdraw collateral.",
          "_collateralId": "Prime NFT ID with Minter's collateral."
        },
        "returns": {
          "_0": "bool Success."
        }
      },
      "createPrime(uint256,address,uint256,address,uint256,address)": {
        "details": "`msg.sender` Deposits asset x, mints new Slate.",
        "params": {
          "_gem": "Receiver address.",
          "_pow": "Expiry timestamp.",
          "_wax": "Payment asset address.",
          "_xis": "Amount of collateral to deposit.",
          "_yak": "Address of collateral asset.",
          "_zed": "Amount of payment asset."
        },
        "returns": {
          "_0": "bool Success."
        }
      },
      "exercise(uint256)": {
        "details": "`msg.sender` Exercises right to purchase collateral.",
        "params": {
          "_tokenId": "ID of Prime."
        },
        "returns": {
          "_0": "bool Success."
        }
      },
      "getActor(address)": {
        "details": "Public view function to Actor properties"
      },
      "getApproved(uint256)": {
        "details": "Gets the approved address for a token ID, or zero if no address set Reverts if the token ID does not exist.",
        "params": {
          "tokenId": "uint256 ID of the token to query the approval of"
        },
        "returns": {
          "_0": "address currently approved for the given token ID"
        }
      },
      "getBalance(address,address)": {
        "details": "Public view function to get the Bank's balance of a User"
      },
      "getChain(uint256)": {
        "details": "Public view function to Rank"
      },
      "getPrime(uint256)": {
        "details": "Public view function to get Prime properties."
      },
      "isApprovedForAll(address,address)": {
        "details": "Tells whether an operator is approved by a given owner.",
        "params": {
          "operator": "operator address which you want to query the approval of",
          "owner": "owner address which you want to query the approval of"
        },
        "returns": {
          "_0": "bool whether the given operator is approved by the given owner"
        }
      },
      "name()": {
        "details": "Gets the token name.",
        "returns": {
          "_0": "string representing the token name"
        }
      },
      "ownerOf(uint256)": {
        "details": "Gets the owner of the specified token ID.",
        "params": {
          "tokenId": "uint256 ID of the token to query the owner of"
        },
        "returns": {
          "_0": "address currently marked as the owner of the given token ID"
        }
      },
      "safeTransferFrom(address,address,uint256)": {
        "details": "Safely transfers the ownership of a given token ID to another address If the target address is a contract, it must implement {IERC721Receiver-onERC721Received}, which is called upon a safe transfer, and return the magic value `bytes4(keccak256(\"onERC721Received(address,address,uint256,bytes)\"))`; otherwise, the transfer is reverted. Requires the msg.sender to be the owner, approved, or operator",
        "params": {
          "from": "current owner of the token",
          "to": "address to receive the ownership of the given token ID",
          "tokenId": "uint256 ID of the token to be transferred"
        }
      },
      "safeTransferFrom(address,address,uint256,bytes)": {
        "details": "Safely transfers the ownership of a given token ID to another address If the target address is a contract, it must implement {IERC721Receiver-onERC721Received}, which is called upon a safe transfer, and return the magic value `bytes4(keccak256(\"onERC721Received(address,address,uint256,bytes)\"))`; otherwise, the transfer is reverted. Requires the _msgSender() to be the owner, approved, or operator",
        "params": {
          "_data": "bytes data to send along with a safe transfer check",
          "from": "current owner of the token",
          "to": "address to receive the ownership of the given token ID",
          "tokenId": "uint256 ID of the token to be transferred"
        }
      },
      "setApprovalForAll(address,bool)": {
        "details": "Sets or unsets the approval of a given operator An operator is allowed to transfer all tokens of the sender on their behalf.",
        "params": {
          "approved": "representing the status of the approval to be set",
          "operator": "operator address to set the approval"
        }
      },
      "supportsInterface(bytes4)": {
        "details": "See {IERC165-supportsInterface}.     * Time complexity O(1), guaranteed to always use less than 30 000 gas."
      },
      "symbol()": {
        "details": "Gets the token symbol.",
        "returns": {
          "_0": "string representing the token symbol"
        }
      },
      "tokenByIndex(uint256)": {
        "details": "Gets the token ID at a given index of all the tokens in this contract Reverts if the index is greater or equal to the total number of tokens.",
        "params": {
          "index": "uint256 representing the index to be accessed of the tokens list"
        },
        "returns": {
          "_0": "uint256 token ID at the given index of the tokens list"
        }
      },
      "tokenOfOwnerByIndex(address,uint256)": {
        "details": "Gets the token ID at a given index of the tokens list of the requested owner.",
        "params": {
          "index": "uint256 representing the index to be accessed of the requested tokens list",
          "owner": "address owning the tokens list to be accessed"
        },
        "returns": {
          "_0": "uint256 token ID at the given index of the tokens list owned by the requested address"
        }
      },
      "tokenURI(uint256)": {
        "details": "Returns the URI for a given token ID. May return an empty string.     * If the token's URI is non-empty and a base URI was set (via {_setBaseURI}), it will be added to the token ID's URI as a prefix.     * Reverts if the token ID does not exist."
      },
      "totalSupply()": {
        "details": "Gets the total amount of tokens stored by the contract.",
        "returns": {
          "_0": "uint256 representing the total amount of tokens"
        }
      },
      "transferFrom(address,address,uint256)": {
        "details": "Transfers the ownership of a given token ID to another address. Usage of this method is discouraged, use {safeTransferFrom} whenever possible. Requires the msg.sender to be the owner, approved, or operator.",
        "params": {
          "from": "current owner of the token",
          "to": "address to receive the ownership of the given token ID",
          "tokenId": "uint256 ID of the token to be transferred"
        }
      },
      "withdraw(uint256,address)": {
        "details": "`msg.sender` Withdraw assets from contract.",
        "params": {
          "_amount": "Quantity to withdraw.",
          "_asset": "Address of asset."
        },
        "returns": {
          "_0": "success"
        }
      }
    }
  },
  "userdoc": {
    "methods": {}
  }
}