{
  "contractName": "Prime",
  "abi": [
    {
      "inputs": [
        {
          "internalType": "string",
          "name": "name",
          "type": "string"
        },
        {
          "internalType": "string",
          "name": "symbol",
          "type": "string"
        }
      ],
      "stateMutability": "nonpayable",
      "type": "constructor"
    },
    {
      "anonymous": false,
      "inputs": [
        {
          "indexed": true,
          "internalType": "address",
          "name": "owner",
          "type": "address"
        },
        {
          "indexed": true,
          "internalType": "address",
          "name": "approved",
          "type": "address"
        },
        {
          "indexed": true,
          "internalType": "uint256",
          "name": "tokenId",
          "type": "uint256"
        }
      ],
      "name": "Approval",
      "type": "event"
    },
    {
      "anonymous": false,
      "inputs": [
        {
          "indexed": true,
          "internalType": "address",
          "name": "owner",
          "type": "address"
        },
        {
          "indexed": true,
          "internalType": "address",
          "name": "operator",
          "type": "address"
        },
        {
          "indexed": false,
          "internalType": "bool",
          "name": "approved",
          "type": "bool"
        }
      ],
      "name": "ApprovalForAll",
      "type": "event"
    },
    {
      "anonymous": false,
      "inputs": [
        {
          "indexed": false,
          "internalType": "uint256",
          "name": "_return",
          "type": "uint256"
        },
        {
          "indexed": false,
          "internalType": "bool",
          "name": "_success",
          "type": "bool"
        }
      ],
      "name": "Debug",
      "type": "event"
    },
    {
      "anonymous": false,
      "inputs": [
        {
          "indexed": true,
          "internalType": "address",
          "name": "_user",
          "type": "address"
        },
        {
          "indexed": false,
          "internalType": "uint256",
          "name": "_collateralQty",
          "type": "uint256"
        },
        {
          "indexed": true,
          "internalType": "address",
          "name": "_collateral",
          "type": "address"
        },
        {
          "indexed": true,
          "internalType": "uint256",
          "name": "_tokenId",
          "type": "uint256"
        },
        {
          "indexed": false,
          "internalType": "uint256",
          "name": "_timestamp",
          "type": "uint256"
        }
      ],
      "name": "SlateClosed",
      "type": "event"
    },
    {
      "anonymous": false,
      "inputs": [
        {
          "indexed": true,
          "internalType": "address",
          "name": "_user",
          "type": "address"
        },
        {
          "indexed": false,
          "internalType": "uint256",
          "name": "_collateralQty",
          "type": "uint256"
        },
        {
          "indexed": false,
          "internalType": "address",
          "name": "_collateral",
          "type": "address"
        },
        {
          "indexed": false,
          "internalType": "uint256",
          "name": "_paymentQty",
          "type": "uint256"
        },
        {
          "indexed": false,
          "internalType": "address",
          "name": "_payment",
          "type": "address"
        },
        {
          "indexed": true,
          "internalType": "uint256",
          "name": "_tokenId",
          "type": "uint256"
        },
        {
          "indexed": false,
          "internalType": "uint256",
          "name": "_timestamp",
          "type": "uint256"
        }
      ],
      "name": "SlateExercised",
      "type": "event"
    },
    {
      "anonymous": false,
      "inputs": [
        {
          "indexed": true,
          "internalType": "address",
          "name": "_user",
          "type": "address"
        },
        {
          "indexed": false,
          "internalType": "uint256",
          "name": "_collateralQty",
          "type": "uint256"
        },
        {
          "indexed": false,
          "internalType": "address",
          "name": "_collateral",
          "type": "address"
        },
        {
          "indexed": false,
          "internalType": "uint256",
          "name": "_paymentQty",
          "type": "uint256"
        },
        {
          "indexed": false,
          "internalType": "address",
          "name": "_payment",
          "type": "address"
        },
        {
          "indexed": true,
          "internalType": "uint256",
          "name": "_tokenId",
          "type": "uint256"
        },
        {
          "indexed": false,
          "internalType": "uint256",
          "name": "_timestamp",
          "type": "uint256"
        }
      ],
      "name": "SlateMinted",
      "type": "event"
    },
    {
      "anonymous": false,
      "inputs": [
        {
          "indexed": true,
          "internalType": "address",
          "name": "from",
          "type": "address"
        },
        {
          "indexed": true,
          "internalType": "address",
          "name": "to",
          "type": "address"
        },
        {
          "indexed": true,
          "internalType": "uint256",
          "name": "tokenId",
          "type": "uint256"
        }
      ],
      "name": "Transfer",
      "type": "event"
    },
    {
      "anonymous": false,
      "inputs": [
        {
          "indexed": true,
          "internalType": "address",
          "name": "_user",
          "type": "address"
        },
        {
          "indexed": false,
          "internalType": "uint256",
          "name": "_collateralQty",
          "type": "uint256"
        },
        {
          "indexed": true,
          "internalType": "address",
          "name": "_collateral",
          "type": "address"
        },
        {
          "indexed": false,
          "internalType": "uint256",
          "name": "_timestamp",
          "type": "uint256"
        }
      ],
      "name": "Withdrawal",
      "type": "event"
    },
    {
      "inputs": [],
      "name": "_INTERFACE_ID_ERC721_METADATA",
      "outputs": [
        {
          "internalType": "bytes4",
          "name": "",
          "type": "bytes4"
        }
      ],
      "stateMutability": "view",
      "type": "function",
      "constant": true
    },
    {
      "inputs": [],
      "name": "_baseURI",
      "outputs": [
        {
          "internalType": "string",
          "name": "",
          "type": "string"
        }
      ],
      "stateMutability": "view",
      "type": "function",
      "constant": true
    },
    {
      "inputs": [
        {
          "internalType": "uint256",
          "name": "",
          "type": "uint256"
        },
        {
          "internalType": "uint256",
          "name": "",
          "type": "uint256"
        }
      ],
      "name": "_collateral",
      "outputs": [
        {
          "internalType": "uint256",
          "name": "",
          "type": "uint256"
        }
      ],
      "stateMutability": "view",
      "type": "function",
      "constant": true
    },
    {
      "inputs": [],
      "name": "_controller",
      "outputs": [
        {
          "internalType": "address",
          "name": "",
          "type": "address"
        }
      ],
      "stateMutability": "view",
      "type": "function",
      "constant": true
    },
    {
      "inputs": [],
      "name": "_name",
      "outputs": [
        {
          "internalType": "string",
          "name": "",
          "type": "string"
        }
      ],
      "stateMutability": "view",
      "type": "function",
      "constant": true
    },
    {
      "inputs": [
        {
          "internalType": "uint256",
          "name": "",
          "type": "uint256"
        }
      ],
      "name": "_slates",
      "outputs": [
        {
          "internalType": "address",
          "name": "ace",
          "type": "address"
        },
        {
          "internalType": "uint256",
          "name": "xis",
          "type": "uint256"
        },
        {
          "internalType": "address",
          "name": "yak",
          "type": "address"
        },
        {
          "internalType": "uint256",
          "name": "zed",
          "type": "uint256"
        },
        {
          "internalType": "address",
          "name": "wax",
          "type": "address"
        },
        {
          "internalType": "uint256",
          "name": "pow",
          "type": "uint256"
        },
        {
          "internalType": "address",
          "name": "gem",
          "type": "address"
        }
      ],
      "stateMutability": "view",
      "type": "function",
      "constant": true
    },
    {
      "inputs": [],
      "name": "_symbol",
      "outputs": [
        {
          "internalType": "string",
          "name": "",
          "type": "string"
        }
      ],
      "stateMutability": "view",
      "type": "function",
      "constant": true
    },
    {
      "inputs": [
        {
          "internalType": "address",
          "name": "to",
          "type": "address"
        },
        {
          "internalType": "uint256",
          "name": "tokenId",
          "type": "uint256"
        }
      ],
      "name": "approve",
      "outputs": [],
      "stateMutability": "nonpayable",
      "type": "function"
    },
    {
      "inputs": [
        {
          "internalType": "address",
          "name": "owner",
          "type": "address"
        }
      ],
      "name": "balanceOf",
      "outputs": [
        {
          "internalType": "uint256",
          "name": "",
          "type": "uint256"
        }
      ],
      "stateMutability": "view",
      "type": "function",
      "constant": true
    },
    {
      "inputs": [],
      "name": "baseURI",
      "outputs": [
        {
          "internalType": "string",
          "name": "",
          "type": "string"
        }
      ],
      "stateMutability": "view",
      "type": "function",
      "constant": true
    },
    {
      "inputs": [
        {
          "internalType": "address",
          "name": "owner",
          "type": "address"
        },
        {
          "internalType": "uint256",
          "name": "tokenId",
          "type": "uint256"
        }
      ],
      "name": "burn",
      "outputs": [
        {
          "internalType": "bool",
          "name": "",
          "type": "bool"
        }
      ],
      "stateMutability": "nonpayable",
      "type": "function"
    },
    {
      "inputs": [
        {
          "internalType": "uint256",
          "name": "tokenId",
          "type": "uint256"
        }
      ],
      "name": "getApproved",
      "outputs": [
        {
          "internalType": "address",
          "name": "",
          "type": "address"
        }
      ],
      "stateMutability": "view",
      "type": "function",
      "constant": true
    },
    {
      "inputs": [
        {
          "internalType": "address",
          "name": "owner",
          "type": "address"
        },
        {
          "internalType": "address",
          "name": "operator",
          "type": "address"
        }
      ],
      "name": "isApprovedForAll",
      "outputs": [
        {
          "internalType": "bool",
          "name": "",
          "type": "bool"
        }
      ],
      "stateMutability": "view",
      "type": "function",
      "constant": true
    },
    {
      "inputs": [
        {
          "internalType": "address",
          "name": "to",
          "type": "address"
        },
        {
          "internalType": "uint256",
          "name": "tokenId",
          "type": "uint256"
        },
        {
          "internalType": "string",
          "name": "tokenURI",
          "type": "string"
        }
      ],
      "name": "mintSlate",
      "outputs": [
        {
          "internalType": "bool",
          "name": "",
          "type": "bool"
        }
      ],
      "stateMutability": "nonpayable",
      "type": "function"
    },
    {
      "inputs": [],
      "name": "name",
      "outputs": [
        {
          "internalType": "string",
          "name": "",
          "type": "string"
        }
      ],
      "stateMutability": "view",
      "type": "function",
      "constant": true
    },
    {
      "inputs": [],
      "name": "nonce",
      "outputs": [
        {
          "internalType": "uint256",
          "name": "",
          "type": "uint256"
        }
      ],
      "stateMutability": "view",
      "type": "function",
      "constant": true
    },
    {
      "inputs": [
        {
          "internalType": "uint256",
          "name": "tokenId",
          "type": "uint256"
        }
      ],
      "name": "ownerOf",
      "outputs": [
        {
          "internalType": "address",
          "name": "",
          "type": "address"
        }
      ],
      "stateMutability": "view",
      "type": "function",
      "constant": true
    },
    {
      "inputs": [
        {
          "internalType": "address",
          "name": "from",
          "type": "address"
        },
        {
          "internalType": "address",
          "name": "to",
          "type": "address"
        },
        {
          "internalType": "uint256",
          "name": "tokenId",
          "type": "uint256"
        }
      ],
      "name": "safeTransferFrom",
      "outputs": [],
      "stateMutability": "nonpayable",
      "type": "function"
    },
    {
      "inputs": [
        {
          "internalType": "address",
          "name": "from",
          "type": "address"
        },
        {
          "internalType": "address",
          "name": "to",
          "type": "address"
        },
        {
          "internalType": "uint256",
          "name": "tokenId",
          "type": "uint256"
        },
        {
          "internalType": "bytes",
          "name": "_data",
          "type": "bytes"
        }
      ],
      "name": "safeTransferFrom",
      "outputs": [],
      "stateMutability": "nonpayable",
      "type": "function"
    },
    {
      "inputs": [
        {
          "internalType": "address",
          "name": "operator",
          "type": "address"
        },
        {
          "internalType": "bool",
          "name": "approved",
          "type": "bool"
        }
      ],
      "name": "setApprovalForAll",
      "outputs": [],
      "stateMutability": "nonpayable",
      "type": "function"
    },
    {
      "inputs": [
        {
          "internalType": "address",
          "name": "controller",
          "type": "address"
        }
      ],
      "name": "setController",
      "outputs": [
        {
          "internalType": "bool",
          "name": "",
          "type": "bool"
        }
      ],
      "stateMutability": "nonpayable",
      "type": "function"
    },
    {
      "inputs": [
        {
          "internalType": "bytes4",
          "name": "interfaceId",
          "type": "bytes4"
        }
      ],
      "name": "supportsInterface",
      "outputs": [
        {
          "internalType": "bool",
          "name": "",
          "type": "bool"
        }
      ],
      "stateMutability": "view",
      "type": "function",
      "constant": true
    },
    {
      "inputs": [],
      "name": "symbol",
      "outputs": [
        {
          "internalType": "string",
          "name": "",
          "type": "string"
        }
      ],
      "stateMutability": "view",
      "type": "function",
      "constant": true
    },
    {
      "inputs": [
        {
          "internalType": "uint256",
          "name": "tokenId",
          "type": "uint256"
        }
      ],
      "name": "tokenURI",
      "outputs": [
        {
          "internalType": "string",
          "name": "",
          "type": "string"
        }
      ],
      "stateMutability": "view",
      "type": "function",
      "constant": true
    },
    {
      "inputs": [
        {
          "internalType": "address",
          "name": "from",
          "type": "address"
        },
        {
          "internalType": "address",
          "name": "to",
          "type": "address"
        },
        {
          "internalType": "uint256",
          "name": "tokenId",
          "type": "uint256"
        }
      ],
      "name": "transferFrom",
      "outputs": [],
      "stateMutability": "nonpayable",
      "type": "function"
    },
    {
      "inputs": [
        {
          "internalType": "uint256",
          "name": "_xis",
          "type": "uint256"
        },
        {
          "internalType": "address",
          "name": "_yak",
          "type": "address"
        },
        {
          "internalType": "uint256",
          "name": "_zed",
          "type": "uint256"
        },
        {
          "internalType": "address",
          "name": "_wax",
          "type": "address"
        },
        {
          "internalType": "uint256",
          "name": "_pow",
          "type": "uint256"
        },
        {
          "internalType": "address",
          "name": "_gem",
          "type": "address"
        }
      ],
      "name": "createSlate",
      "outputs": [
        {
          "internalType": "bool",
          "name": "",
          "type": "bool"
        }
      ],
      "stateMutability": "nonpayable",
      "type": "function"
    },
    {
      "inputs": [
        {
          "internalType": "uint256",
          "name": "_tokenId",
          "type": "uint256"
        }
      ],
      "name": "exercise",
      "outputs": [
        {
          "internalType": "bool",
          "name": "",
          "type": "bool"
        }
      ],
      "stateMutability": "nonpayable",
      "type": "function"
    },
    {
      "inputs": [
        {
          "internalType": "uint256",
          "name": "_collateralId",
          "type": "uint256"
        },
        {
          "internalType": "uint256",
          "name": "_burnId",
          "type": "uint256"
        }
      ],
      "name": "close",
      "outputs": [
        {
          "internalType": "bool",
          "name": "",
          "type": "bool"
        }
      ],
      "stateMutability": "nonpayable",
      "type": "function"
    },
    {
      "inputs": [
        {
          "internalType": "uint256",
          "name": "_amount",
          "type": "uint256"
        },
        {
          "internalType": "address",
          "name": "_addr",
          "type": "address"
        }
      ],
      "name": "withdraw",
      "outputs": [
        {
          "internalType": "bool",
          "name": "",
          "type": "bool"
        }
      ],
      "stateMutability": "nonpayable",
      "type": "function"
    },
    {
      "inputs": [
        {
          "internalType": "uint256",
          "name": "_tokenId",
          "type": "uint256"
        }
      ],
      "name": "getSlate",
      "outputs": [
        {
          "internalType": "address",
          "name": "ace",
          "type": "address"
        },
        {
          "internalType": "uint256",
          "name": "xis",
          "type": "uint256"
        },
        {
          "internalType": "address",
          "name": "yak",
          "type": "address"
        },
        {
          "internalType": "uint256",
          "name": "zed",
          "type": "uint256"
        },
        {
          "internalType": "address",
          "name": "wax",
          "type": "address"
        },
        {
          "internalType": "uint256",
          "name": "pow",
          "type": "uint256"
        },
        {
          "internalType": "address",
          "name": "gem",
          "type": "address"
        }
      ],
      "stateMutability": "view",
      "type": "function",
      "constant": true
    }
  ],
  "bytecode": "0x60806040523480156200001157600080fd5b506040516200585f3803806200585f833981810160405260408110156200003757600080fd5b81019080805160405193929190846401000000008211156200005857600080fd5b838201915060208201858111156200006f57600080fd5b82518660018202830111640100000000821117156200008d57600080fd5b8083526020830192505050908051906020019080838360005b83811015620000c3578082015181840152602081019050620000a6565b50505050905090810190601f168015620000f15780820380516001836020036101000a031916815260200191505b50604052602001805160405193929190846401000000008211156200011557600080fd5b838201915060208201858111156200012c57600080fd5b82518660018202830111640100000000821117156200014a57600080fd5b8083526020830192505050908051906020019080838360005b838110156200018057808201518184015260208101905062000163565b50505050905090810190601f168015620001ae5780820380516001836020036101000a031916815260200191505b506040525050508181620001cf6301ffc9a760e01b6200030760201b60201c565b620001e76380ac58cd60e01b6200030760201b60201c565b8160059080519060200190620001ff92919062000410565b5080600690805190602001906200021892919062000410565b5033600860006101000a81548173ffffffffffffffffffffffffffffffffffffffff021916908373ffffffffffffffffffffffffffffffffffffffff16021790555062000272635b5e139f60e01b6200030760201b60201c565b505081600590805190602001906200028c92919062000410565b508060069080519060200190620002a592919062000410565b5033600860006101000a81548173ffffffffffffffffffffffffffffffffffffffff021916908373ffffffffffffffffffffffffffffffffffffffff160217905550620002ff635b5e139f60e01b6200030760201b60201c565b5050620004bf565b63ffffffff60e01b817bffffffffffffffffffffffffffffffffffffffffffffffffffffffff19161415620003a4576040517f08c379a000000000000000000000000000000000000000000000000000000000815260040180806020018281038252601c8152602001807f4552433136353a20696e76616c696420696e746572666163652069640000000081525060200191505060405180910390fd5b6001600080837bffffffffffffffffffffffffffffffffffffffffffffffffffffffff19167bffffffffffffffffffffffffffffffffffffffffffffffffffffffff1916815260200190815260200160002060006101000a81548160ff02191690831515021790555050565b828054600181600116156101000203166002900490600052602060002090601f016020900481019282601f106200045357805160ff191683800117855562000484565b8280016001018555821562000484579182015b828111156200048357825182559160200191906001019062000466565b5b50905062000493919062000497565b5090565b620004bc91905b80821115620004b85760008160009055506001016200049e565b5090565b90565b61539080620004cf6000396000f3fe608060405234801561001057600080fd5b50600436106101d95760003560e01c806377d11bf111610104578063affed0e0116100a2578063c87b56dd11610071578063c87b56dd14610ef8578063d28d885214610f9f578063dd3f952614611022578063e985e9c51461106c576101d9565b8063affed0e014610d0c578063b07f0a4114610d2a578063b09f126614610d70578063b88d4fde14610df3576101d9565b806394a509dd116100de57806394a509dd14610b7757806395d89b4114610bd35780639dc29fac14610c56578063a22cb46514610cbc576101d9565b806377d11bf1146109645780639203a46514610a1e57806392eefe9b14610b1b576101d9565b8063244204da1161017c5780636352211e1161014b5780636352211e146107985780636c0360eb1461080657806370a0823114610889578063743976a0146108e1576101d9565b8063244204da146104a257806342842e0e146105be57806355b8ec851461062c578063596c897614610748576101d9565b8063081812fc116101b8578063081812fc1461032c578063095ea7b31461039a5780631e85d864146103e857806323b872dd14610434576101d9565b8062f714ce146101de57806301ffc9a71461024457806306fdde03146102a9575b600080fd5b61022a600480360360408110156101f457600080fd5b8101908080359060200190929190803573ffffffffffffffffffffffffffffffffffffffff1690602001909291905050506110e8565b604051808215151515815260200191505060405180910390f35b61028f6004803603602081101561025a57600080fd5b8101908080357bffffffffffffffffffffffffffffffffffffffffffffffffffffffff1916906020019092919050505061131e565b604051808215151515815260200191505060405180910390f35b6102b1611385565b6040518080602001828103825283818151815260200191508051906020019080838360005b838110156102f15780820151818401526020810190506102d6565b50505050905090810190601f16801561031e5780820380516001836020036101000a031916815260200191505b509250505060405180910390f35b6103586004803603602081101561034257600080fd5b8101908080359060200190929190505050611427565b604051808273ffffffffffffffffffffffffffffffffffffffff1673ffffffffffffffffffffffffffffffffffffffff16815260200191505060405180910390f35b6103e6600480360360408110156103b057600080fd5b81019080803573ffffffffffffffffffffffffffffffffffffffff169060200190929190803590602001909291905050506114c2565b005b61041e600480360360408110156103fe57600080fd5b810190808035906020019092919080359060200190929190505050611606565b6040518082815260200191505060405180910390f35b6104a06004803603606081101561044a57600080fd5b81019080803573ffffffffffffffffffffffffffffffffffffffff169060200190929190803573ffffffffffffffffffffffffffffffffffffffff1690602001909291908035906020019092919050505061162b565b005b6104ce600480360360208110156104b857600080fd5b81019080803590602001909291905050506116a1565b604051808873ffffffffffffffffffffffffffffffffffffffff1673ffffffffffffffffffffffffffffffffffffffff1681526020018781526020018673ffffffffffffffffffffffffffffffffffffffff1673ffffffffffffffffffffffffffffffffffffffff1681526020018581526020018473ffffffffffffffffffffffffffffffffffffffff1673ffffffffffffffffffffffffffffffffffffffff1681526020018381526020018273ffffffffffffffffffffffffffffffffffffffff1673ffffffffffffffffffffffffffffffffffffffff16815260200197505050505050505060405180910390f35b61062a600480360360608110156105d457600080fd5b81019080803573ffffffffffffffffffffffffffffffffffffffff169060200190929190803573ffffffffffffffffffffffffffffffffffffffff16906020019092919080359060200190929190505050611763565b005b6106586004803603602081101561064257600080fd5b8101908080359060200190929190505050611783565b604051808873ffffffffffffffffffffffffffffffffffffffff1673ffffffffffffffffffffffffffffffffffffffff1681526020018781526020018673ffffffffffffffffffffffffffffffffffffffff1673ffffffffffffffffffffffffffffffffffffffff1681526020018581526020018473ffffffffffffffffffffffffffffffffffffffff1673ffffffffffffffffffffffffffffffffffffffff1681526020018381526020018273ffffffffffffffffffffffffffffffffffffffff1673ffffffffffffffffffffffffffffffffffffffff16815260200197505050505050505060405180910390f35b61077e6004803603604081101561075e57600080fd5b810190808035906020019092919080359060200190929190505050611969565b604051808215151515815260200191505060405180910390f35b6107c4600480360360208110156107ae57600080fd5b81019080803590602001909291905050506121de565b604051808273ffffffffffffffffffffffffffffffffffffffff1673ffffffffffffffffffffffffffffffffffffffff16815260200191505060405180910390f35b61080e6122a6565b6040518080602001828103825283818151815260200191508051906020019080838360005b8381101561084e578082015181840152602081019050610833565b50505050905090810190601f16801561087b5780820380516001836020036101000a031916815260200191505b509250505060405180910390f35b6108cb6004803603602081101561089f57600080fd5b81019080803573ffffffffffffffffffffffffffffffffffffffff169060200190929190505050612348565b6040518082815260200191505060405180910390f35b6108e961241d565b6040518080602001828103825283818151815260200191508051906020019080838360005b8381101561092957808201518184015260208101905061090e565b50505050905090810190601f1680156109565780820380516001836020036101000a031916815260200191505b509250505060405180910390f35b610a04600480360360c081101561097a57600080fd5b8101908080359060200190929190803573ffffffffffffffffffffffffffffffffffffffff16906020019092919080359060200190929190803573ffffffffffffffffffffffffffffffffffffffff16906020019092919080359060200190929190803573ffffffffffffffffffffffffffffffffffffffff1690602001909291905050506124bb565b604051808215151515815260200191505060405180910390f35b610b0160048036036060811015610a3457600080fd5b81019080803573ffffffffffffffffffffffffffffffffffffffff1690602001909291908035906020019092919080359060200190640100000000811115610a7b57600080fd5b820183602082011115610a8d57600080fd5b80359060200191846001830284011164010000000083111715610aaf57600080fd5b91908080601f016020809104026020016040519081016040528093929190818152602001838380828437600081840152601f19601f820116905080830192505050505050509192919290505050612a40565b604051808215151515815260200191505060405180910390f35b610b5d60048036036020811015610b3157600080fd5b81019080803573ffffffffffffffffffffffffffffffffffffffff169060200190929190505050612a61565b604051808215151515815260200191505060405180910390f35b610b7f612b70565b60405180827bffffffffffffffffffffffffffffffffffffffffffffffffffffffff19167bffffffffffffffffffffffffffffffffffffffffffffffffffffffff1916815260200191505060405180910390f35b610bdb612b7b565b6040518080602001828103825283818151815260200191508051906020019080838360005b83811015610c1b578082015181840152602081019050610c00565b50505050905090810190601f168015610c485780820380516001836020036101000a031916815260200191505b509250505060405180910390f35b610ca260048036036040811015610c6c57600080fd5b81019080803573ffffffffffffffffffffffffffffffffffffffff16906020019092919080359060200190929190505050612c1d565b604051808215151515815260200191505060405180910390f35b610d0a60048036036040811015610cd257600080fd5b81019080803573ffffffffffffffffffffffffffffffffffffffff169060200190929190803515159060200190929190505050612c33565b005b610d14612deb565b6040518082815260200191505060405180910390f35b610d5660048036036020811015610d4057600080fd5b8101908080359060200190929190505050612df1565b604051808215151515815260200191505060405180910390f35b610d7861367a565b6040518080602001828103825283818151815260200191508051906020019080838360005b83811015610db8578082015181840152602081019050610d9d565b50505050905090810190601f168015610de55780820380516001836020036101000a031916815260200191505b509250505060405180910390f35b610ef660048036036080811015610e0957600080fd5b81019080803573ffffffffffffffffffffffffffffffffffffffff169060200190929190803573ffffffffffffffffffffffffffffffffffffffff1690602001909291908035906020019092919080359060200190640100000000811115610e7057600080fd5b820183602082011115610e8257600080fd5b80359060200191846001830284011164010000000083111715610ea457600080fd5b91908080601f016020809104026020016040519081016040528093929190818152602001838380828437600081840152601f19601f820116905080830192505050505050509192919290505050613718565b005b610f2460048036036020811015610f0e57600080fd5b8101908080359060200190929190505050613790565b6040518080602001828103825283818151815260200191508051906020019080838360005b83811015610f64578082015181840152602081019050610f49565b50505050905090810190601f168015610f915780820380516001836020036101000a031916815260200191505b509250505060405180910390f35b610fa7613992565b6040518080602001828103825283818151815260200191508051906020019080838360005b83811015610fe7578082015181840152602081019050610fcc565b50505050905090810190601f1680156110145780820380516001836020036101000a031916815260200191505b509250505060405180910390f35b61102a613a30565b604051808273ffffffffffffffffffffffffffffffffffffffff1673ffffffffffffffffffffffffffffffffffffffff16815260200191505060405180910390f35b6110ce6004803603604081101561108257600080fd5b81019080803573ffffffffffffffffffffffffffffffffffffffff169060200190929190803573ffffffffffffffffffffffffffffffffffffffff169060200190929190505050613a56565b604051808215151515815260200191505060405180910390f35b600080600d60003373ffffffffffffffffffffffffffffffffffffffff1673ffffffffffffffffffffffffffffffffffffffff16815260200190815260200160002060008473ffffffffffffffffffffffffffffffffffffffff1673ffffffffffffffffffffffffffffffffffffffff168152602001908152602001600020549050838110156111e0576040517f08c379a000000000000000000000000000000000000000000000000000000000815260040180806020018281038252601c8152602001807f43616e6e6f7420776974686472617720616d6f756e74203e2062616c0000000081525060200191505060405180910390fd5b8273ffffffffffffffffffffffffffffffffffffffff163373ffffffffffffffffffffffffffffffffffffffff167fa708f6433a1b53b1e6af0c278ad548516ef5eab45716a7f85657ee720cd2ece08642604051808381526020018281526020019250505060405180910390a360008390508073ffffffffffffffffffffffffffffffffffffffff1663a9059cbb33876040518363ffffffff1660e01b8152600401808373ffffffffffffffffffffffffffffffffffffffff1673ffffffffffffffffffffffffffffffffffffffff16815260200182815260200192505050602060405180830381600087803b1580156112d957600080fd5b505af11580156112ed573d6000803e3d6000fd5b505050506040513d602081101561130357600080fd5b81019080805190602001909291905050509250505092915050565b6000806000837bffffffffffffffffffffffffffffffffffffffffffffffffffffffff19167bffffffffffffffffffffffffffffffffffffffffffffffffffffffff1916815260200190815260200160002060009054906101000a900460ff169050919050565b606060058054600181600116156101000203166002900480601f01602080910402602001604051908101604052809291908181526020018280546001816001161561010002031660029004801561141d5780601f106113f25761010080835404028352916020019161141d565b820191906000526020600020905b81548152906001019060200180831161140057829003601f168201915b5050505050905090565b600061143282613aea565b611487576040517f08c379a000000000000000000000000000000000000000000000000000000000815260040180806020018281038252602c815260200180615234602c913960400191505060405180910390fd5b6002600083815260200190815260200160002060009054906101000a900473ffffffffffffffffffffffffffffffffffffffff169050919050565b60006114cd826121de565b90508073ffffffffffffffffffffffffffffffffffffffff168373ffffffffffffffffffffffffffffffffffffffff161415611554576040517f08c379a00000000000000000000000000000000000000000000000000000000081526004018080602001828103825260218152602001806152e46021913960400191505060405180910390fd5b8073ffffffffffffffffffffffffffffffffffffffff16611573613b5c565b73ffffffffffffffffffffffffffffffffffffffff1614806115a257506115a18161159c613b5c565b613a56565b5b6115f7576040517f08c379a00000000000000000000000000000000000000000000000000000000081526004018080602001828103825260388152602001806151a96038913960400191505060405180910390fd5b6116018383613b64565b505050565b600c602052816000526040600020602052806000526040600020600091509150505481565b61163c611636613b5c565b82613c1d565b611691576040517f08c379a00000000000000000000000000000000000000000000000000000000081526004018080602001828103825260318152602001806153056031913960400191505060405180910390fd5b61169c838383613d11565b505050565b600b6020528060005260406000206000915090508060000160009054906101000a900473ffffffffffffffffffffffffffffffffffffffff16908060010154908060020160009054906101000a900473ffffffffffffffffffffffffffffffffffffffff16908060030154908060040160009054906101000a900473ffffffffffffffffffffffffffffffffffffffff16908060050154908060060160009054906101000a900473ffffffffffffffffffffffffffffffffffffffff16905087565b61177e83838360405180602001604052806000815250613718565b505050565b6000806000806000806000611796614fa4565b600b60008a81526020019081526020016000206040518060e00160405290816000820160009054906101000a900473ffffffffffffffffffffffffffffffffffffffff1673ffffffffffffffffffffffffffffffffffffffff1673ffffffffffffffffffffffffffffffffffffffff168152602001600182015481526020016002820160009054906101000a900473ffffffffffffffffffffffffffffffffffffffff1673ffffffffffffffffffffffffffffffffffffffff1673ffffffffffffffffffffffffffffffffffffffff168152602001600382015481526020016004820160009054906101000a900473ffffffffffffffffffffffffffffffffffffffff1673ffffffffffffffffffffffffffffffffffffffff1673ffffffffffffffffffffffffffffffffffffffff168152602001600582015481526020016006820160009054906101000a900473ffffffffffffffffffffffffffffffffffffffff1673ffffffffffffffffffffffffffffffffffffffff1673ffffffffffffffffffffffffffffffffffffffff16815250509050806000015181602001518260400151836060015184608001518560a001518660c00151975097509750975097509750975050919395979092949650565b6000600161197633612348565b10156119ea576040517f08c379a000000000000000000000000000000000000000000000000000000000815260040180806020018281038252601e8152602001807f43616e6e6f742073656e6420536c61746520616d6f756e74203e2062616c000081525060200191505060405180910390fd5b3373ffffffffffffffffffffffffffffffffffffffff16611a0a836121de565b73ffffffffffffffffffffffffffffffffffffffff1614611a93576040517f08c379a000000000000000000000000000000000000000000000000000000000815260040180806020018281038252601c8152602001807f4f776e6572206f6620536c617465206973206e6f742073656e6465720000000081525060200191505060405180910390fd5b611a9b614fa4565b600b60008581526020019081526020016000206040518060e00160405290816000820160009054906101000a900473ffffffffffffffffffffffffffffffffffffffff1673ffffffffffffffffffffffffffffffffffffffff1673ffffffffffffffffffffffffffffffffffffffff168152602001600182015481526020016002820160009054906101000a900473ffffffffffffffffffffffffffffffffffffffff1673ffffffffffffffffffffffffffffffffffffffff1673ffffffffffffffffffffffffffffffffffffffff168152602001600382015481526020016004820160009054906101000a900473ffffffffffffffffffffffffffffffffffffffff1673ffffffffffffffffffffffffffffffffffffffff1673ffffffffffffffffffffffffffffffffffffffff168152602001600582015481526020016006820160009054906101000a900473ffffffffffffffffffffffffffffffffffffffff1673ffffffffffffffffffffffffffffffffffffffff1673ffffffffffffffffffffffffffffffffffffffff16815250509050611c39614fa4565b600b60008581526020019081526020016000206040518060e00160405290816000820160009054906101000a900473ffffffffffffffffffffffffffffffffffffffff1673ffffffffffffffffffffffffffffffffffffffff1673ffffffffffffffffffffffffffffffffffffffff168152602001600182015481526020016002820160009054906101000a900473ffffffffffffffffffffffffffffffffffffffff1673ffffffffffffffffffffffffffffffffffffffff1673ffffffffffffffffffffffffffffffffffffffff168152602001600382015481526020016004820160009054906101000a900473ffffffffffffffffffffffffffffffffffffffff1673ffffffffffffffffffffffffffffffffffffffff1673ffffffffffffffffffffffffffffffffffffffff168152602001600582015481526020016006820160009054906101000a900473ffffffffffffffffffffffffffffffffffffffff1673ffffffffffffffffffffffffffffffffffffffff1673ffffffffffffffffffffffffffffffffffffffff16815250509050600081604001519050816000015173ffffffffffffffffffffffffffffffffffffffff16836000015173ffffffffffffffffffffffffffffffffffffffff1614611e96576000611e1f8787613f79565b905080611e94576040517f08c379a00000000000000000000000000000000000000000000000000000000081526004018080602001828103825260188152602001807f536c6174652070726f707320646f206e6f74206d61746368000000000000000081525060200191505060405180910390fd5b505b6000600d60003373ffffffffffffffffffffffffffffffffffffffff1673ffffffffffffffffffffffffffffffffffffffff1681526020019081526020016000206000846040015173ffffffffffffffffffffffffffffffffffffffff1673ffffffffffffffffffffffffffffffffffffffff1681526020019081526020016000205411611f8c576040517f08c379a000000000000000000000000000000000000000000000000000000000815260040180806020018281038252601f8152602001807f5573657220686173206e6f20636f6c6c61746572616c20746f20636c61696d0081525060200191505060405180910390fd5b428260a001511015612006576040517f08c379a000000000000000000000000000000000000000000000000000000000815260040180806020018281038252600d8152602001807f4578706972656420536c6174650000000000000000000000000000000000000081525060200191505060405180910390fd5b6000600d60003373ffffffffffffffffffffffffffffffffffffffff1673ffffffffffffffffffffffffffffffffffffffff1681526020019081526020016000206000846040015173ffffffffffffffffffffffffffffffffffffffff1673ffffffffffffffffffffffffffffffffffffffff1681526020019081526020016000208190555084826040015173ffffffffffffffffffffffffffffffffffffffff163373ffffffffffffffffffffffffffffffffffffffff167f63d65b78160392ece57b68e63386ac035ebc4a3b8715c2f86ed2df8477510746856020015142604051808381526020018281526020019250505060405180910390a461210c3386612c1d565b508073ffffffffffffffffffffffffffffffffffffffff1663a9059cbb3384602001516040518363ffffffff1660e01b8152600401808373ffffffffffffffffffffffffffffffffffffffff1673ffffffffffffffffffffffffffffffffffffffff16815260200182815260200192505050602060405180830381600087803b15801561219857600080fd5b505af11580156121ac573d6000803e3d6000fd5b505050506040513d60208110156121c257600080fd5b8101908080519060200190929190505050935050505092915050565b6000806001600084815260200190815260200160002060009054906101000a900473ffffffffffffffffffffffffffffffffffffffff169050600073ffffffffffffffffffffffffffffffffffffffff168173ffffffffffffffffffffffffffffffffffffffff16141561229d576040517f08c379a000000000000000000000000000000000000000000000000000000000815260040180806020018281038252602981526020018061520b6029913960400191505060405180910390fd5b80915050919050565b606060078054600181600116156101000203166002900480601f01602080910402602001604051908101604052809291908181526020018280546001816001161561010002031660029004801561233e5780601f106123135761010080835404028352916020019161233e565b820191906000526020600020905b81548152906001019060200180831161232157829003601f168201915b5050505050905090565b60008073ffffffffffffffffffffffffffffffffffffffff168273ffffffffffffffffffffffffffffffffffffffff1614156123cf576040517f08c379a000000000000000000000000000000000000000000000000000000000815260040180806020018281038252602a8152602001806151e1602a913960400191505060405180910390fd5b612416600360008473ffffffffffffffffffffffffffffffffffffffff1673ffffffffffffffffffffffffffffffffffffffff168152602001908152602001600020614451565b9050919050565b60078054600181600116156101000203166002900480601f0160208091040260200160405190810160405280929190818152602001828054600181600116156101000203166002900480156124b35780601f10612488576101008083540402835291602001916124b3565b820191906000526020600020905b81548152906001019060200180831161249657829003601f168201915b505050505081565b600080869050878173ffffffffffffffffffffffffffffffffffffffff166370a08231336040518263ffffffff1660e01b8152600401808273ffffffffffffffffffffffffffffffffffffffff1673ffffffffffffffffffffffffffffffffffffffff168152602001915050602060405180830381600087803b15801561254157600080fd5b505af1158015612555573d6000803e3d6000fd5b505050506040513d602081101561256b57600080fd5b810190808051906020019092919050505010156125f0576040517f08c379a00000000000000000000000000000000000000000000000000000000081526004018080602001828103825260188152602001807f43616e6e6f742073656e6420616d6f756e74203e2062616c000000000000000081525060200191505060405180910390fd5b6125f861445f565b506040518060e001604052803373ffffffffffffffffffffffffffffffffffffffff1681526020018981526020018873ffffffffffffffffffffffffffffffffffffffff1681526020018781526020018673ffffffffffffffffffffffffffffffffffffffff1681526020018581526020018473ffffffffffffffffffffffffffffffffffffffff16815250600b6000600a54815260200190815260200160002060008201518160000160006101000a81548173ffffffffffffffffffffffffffffffffffffffff021916908373ffffffffffffffffffffffffffffffffffffffff1602179055506020820151816001015560408201518160020160006101000a81548173ffffffffffffffffffffffffffffffffffffffff021916908373ffffffffffffffffffffffffffffffffffffffff1602179055506060820151816003015560808201518160040160006101000a81548173ffffffffffffffffffffffffffffffffffffffff021916908373ffffffffffffffffffffffffffffffffffffffff16021790555060a0820151816005015560c08201518160060160006101000a81548173ffffffffffffffffffffffffffffffffffffffff021916908373ffffffffffffffffffffffffffffffffffffffff16021790555090505087600d60003373ffffffffffffffffffffffffffffffffffffffff1673ffffffffffffffffffffffffffffffffffffffff16815260200190815260200160002060008973ffffffffffffffffffffffffffffffffffffffff1673ffffffffffffffffffffffffffffffffffffffff16815260200190815260200160002081905550600a543373ffffffffffffffffffffffffffffffffffffffff167ff3967994889c238dc7ebf181767198fe70f60c199ecae0fd75708fa9718aed0a8a8a8a8a42604051808681526020018573ffffffffffffffffffffffffffffffffffffffff1673ffffffffffffffffffffffffffffffffffffffff1681526020018481526020018373ffffffffffffffffffffffffffffffffffffffff1673ffffffffffffffffffffffffffffffffffffffff1681526020018281526020019550505050505060405180910390a361293c33600a5460405180602001604052806000815250612a40565b508073ffffffffffffffffffffffffffffffffffffffff166323b872dd33308b6040518463ffffffff1660e01b8152600401808473ffffffffffffffffffffffffffffffffffffffff1673ffffffffffffffffffffffffffffffffffffffff1681526020018373ffffffffffffffffffffffffffffffffffffffff1673ffffffffffffffffffffffffffffffffffffffff1681526020018281526020019350505050602060405180830381600087803b1580156129f857600080fd5b505af1158015612a0c573d6000803e3d6000fd5b505050506040513d6020811015612a2257600080fd5b81019080805190602001909291905050509150509695505050505050565b6000612a4c8484614485565b612a5683836144a3565b600190509392505050565b60003373ffffffffffffffffffffffffffffffffffffffff16600860009054906101000a900473ffffffffffffffffffffffffffffffffffffffff1673ffffffffffffffffffffffffffffffffffffffff1614612b26576040517f08c379a00000000000000000000000000000000000000000000000000000000081526004018080602001828103825260158152602001807f53656e646572206e6f7420636f6e74726f6c6c6572000000000000000000000081525060200191505060405180910390fd5b81600860006101000a81548173ffffffffffffffffffffffffffffffffffffffff021916908373ffffffffffffffffffffffffffffffffffffffff16021790555060019050919050565b635b5e139f60e01b81565b606060068054600181600116156101000203166002900480601f016020809104026020016040519081016040528092919081815260200182805460018160011615610100020316600290048015612c135780601f10612be857610100808354040283529160200191612c13565b820191906000526020600020905b815481529060010190602001808311612bf657829003601f168201915b5050505050905090565b6000612c29838361452d565b6001905092915050565b612c3b613b5c565b73ffffffffffffffffffffffffffffffffffffffff168273ffffffffffffffffffffffffffffffffffffffff161415612cdc576040517f08c379a00000000000000000000000000000000000000000000000000000000081526004018080602001828103825260198152602001807f4552433732313a20617070726f766520746f2063616c6c65720000000000000081525060200191505060405180910390fd5b8060046000612ce9613b5c565b73ffffffffffffffffffffffffffffffffffffffff1673ffffffffffffffffffffffffffffffffffffffff16815260200190815260200160002060008473ffffffffffffffffffffffffffffffffffffffff1673ffffffffffffffffffffffffffffffffffffffff16815260200190815260200160002060006101000a81548160ff0219169083151502179055508173ffffffffffffffffffffffffffffffffffffffff16612d96613b5c565b73ffffffffffffffffffffffffffffffffffffffff167f17307eab39ab6107e8899845ad3d59bd9653f200f220920489ca2b5937696c3183604051808215151515815260200191505060405180910390a35050565b600a5481565b600080612dfd33612348565b90506001811015612e76576040517f08c379a00000000000000000000000000000000000000000000000000000000081526004018080602001828103825260188152602001807f43616e6e6f742073656e6420616d6f756e74203e2062616c000000000000000081525060200191505060405180910390fd5b6000612e81846121de565b90503373ffffffffffffffffffffffffffffffffffffffff168173ffffffffffffffffffffffffffffffffffffffff1614612f24576040517f08c379a00000000000000000000000000000000000000000000000000000000081526004018080602001828103825260138152602001807f4f776e6572206973206e6f742073656e6465720000000000000000000000000081525060200191505060405180910390fd5b612f2c614fa4565b600b60008681526020019081526020016000206040518060e00160405290816000820160009054906101000a900473ffffffffffffffffffffffffffffffffffffffff1673ffffffffffffffffffffffffffffffffffffffff1673ffffffffffffffffffffffffffffffffffffffff168152602001600182015481526020016002820160009054906101000a900473ffffffffffffffffffffffffffffffffffffffff1673ffffffffffffffffffffffffffffffffffffffff1673ffffffffffffffffffffffffffffffffffffffff168152602001600382015481526020016004820160009054906101000a900473ffffffffffffffffffffffffffffffffffffffff1673ffffffffffffffffffffffffffffffffffffffff1673ffffffffffffffffffffffffffffffffffffffff168152602001600582015481526020016006820160009054906101000a900473ffffffffffffffffffffffffffffffffffffffff1673ffffffffffffffffffffffffffffffffffffffff1673ffffffffffffffffffffffffffffffffffffffff1681525050905060008160400151905060008260800151905082606001518173ffffffffffffffffffffffffffffffffffffffff166370a08231336040518263ffffffff1660e01b8152600401808273ffffffffffffffffffffffffffffffffffffffff1673ffffffffffffffffffffffffffffffffffffffff168152602001915050602060405180830381600087803b15801561315857600080fd5b505af115801561316c573d6000803e3d6000fd5b505050506040513d602081101561318257600080fd5b81019080805190602001909291905050501015613207576040517f08c379a000000000000000000000000000000000000000000000000000000000815260040180806020018281038252601e8152602001807f42616c2063616e6e6f74206265203c207061796d656e7420616d6f756e74000081525060200191505060405180910390fd5b428360a001511015613281576040517f08c379a000000000000000000000000000000000000000000000000000000000815260040180806020018281038252600d8152602001807f4578706972656420536c6174650000000000000000000000000000000000000081525060200191505060405180910390fd5b8073ffffffffffffffffffffffffffffffffffffffff166323b872dd333086606001516040518463ffffffff1660e01b8152600401808473ffffffffffffffffffffffffffffffffffffffff1673ffffffffffffffffffffffffffffffffffffffff1681526020018373ffffffffffffffffffffffffffffffffffffffff1673ffffffffffffffffffffffffffffffffffffffff1681526020018281526020019350505050602060405180830381600087803b15801561334057600080fd5b505af1158015613354573d6000803e3d6000fd5b505050506040513d602081101561336a57600080fd5b81019080805190602001909291905050506133ed576040517f08c379a00000000000000000000000000000000000000000000000000000000081526004018080602001828103825260178152602001807f5061796d656e74206e6f74207472616e7366657272656400000000000000000081525060200191505060405180910390fd5b6000600d6000856000015173ffffffffffffffffffffffffffffffffffffffff1673ffffffffffffffffffffffffffffffffffffffff1681526020019081526020016000206000856040015173ffffffffffffffffffffffffffffffffffffffff1673ffffffffffffffffffffffffffffffffffffffff168152602001908152602001600020819055508260600151600d60008560c0015173ffffffffffffffffffffffffffffffffffffffff1673ffffffffffffffffffffffffffffffffffffffff1681526020019081526020016000206000856080015173ffffffffffffffffffffffffffffffffffffffff1673ffffffffffffffffffffffffffffffffffffffff168152602001908152602001600020819055508260200151600d60003373ffffffffffffffffffffffffffffffffffffffff1673ffffffffffffffffffffffffffffffffffffffff1681526020019081526020016000206000856040015173ffffffffffffffffffffffffffffffffffffffff1673ffffffffffffffffffffffffffffffffffffffff16815260200190815260200160002081905550863373ffffffffffffffffffffffffffffffffffffffff167fa3f30fb6292a73178b71393a4c39c611f417517e5fc2e49070280d36f0aafd91856020015186604001518760600151886080015142604051808681526020018573ffffffffffffffffffffffffffffffffffffffff1673ffffffffffffffffffffffffffffffffffffffff1681526020018481526020018373ffffffffffffffffffffffffffffffffffffffff1673ffffffffffffffffffffffffffffffffffffffff1681526020018281526020019550505050505060405180910390a361366e3388612c1d565b95505050505050919050565b60068054600181600116156101000203166002900480601f0160208091040260200160405190810160405280929190818152602001828054600181600116156101000203166002900480156137105780601f106136e557610100808354040283529160200191613710565b820191906000526020600020905b8154815290600101906020018083116136f357829003601f168201915b505050505081565b613729613723613b5c565b83613c1d565b61377e576040517f08c379a00000000000000000000000000000000000000000000000000000000081526004018080602001828103825260318152602001806153056031913960400191505060405180910390fd5b61378a848484846146ca565b50505050565b606061379b82613aea565b6137f0576040517f08c379a000000000000000000000000000000000000000000000000000000000815260040180806020018281038252602f8152602001806152b5602f913960400191505060405180910390fd5b6060600960008481526020019081526020016000208054600181600116156101000203166002900480601f0160208091040260200160405190810160405280929190818152602001828054600181600116156101000203166002900480156138995780601f1061386e57610100808354040283529160200191613899565b820191906000526020600020905b81548152906001019060200180831161387c57829003601f168201915b505050505090506000815114156138c2576040518060200160405280600081525091505061398d565b60078160405160200180838054600181600116156101000203166002900480156139235780601f10613901576101008083540402835291820191613923565b820191906000526020600020905b81548152906001019060200180831161390f575b505082805190602001908083835b602083106139545780518252602082019150602081019050602083039250613931565b6001836020036101000a038019825116818451168082178552505050505050905001925050506040516020818303038152906040529150505b919050565b60058054600181600116156101000203166002900480601f016020809104026020016040519081016040528092919081815260200182805460018160011615610100020316600290048015613a285780601f106139fd57610100808354040283529160200191613a28565b820191906000526020600020905b815481529060010190602001808311613a0b57829003601f168201915b505050505081565b600860009054906101000a900473ffffffffffffffffffffffffffffffffffffffff1681565b6000600460008473ffffffffffffffffffffffffffffffffffffffff1673ffffffffffffffffffffffffffffffffffffffff16815260200190815260200160002060008373ffffffffffffffffffffffffffffffffffffffff1673ffffffffffffffffffffffffffffffffffffffff16815260200190815260200160002060009054906101000a900460ff16905092915050565b6000806001600084815260200190815260200160002060009054906101000a900473ffffffffffffffffffffffffffffffffffffffff169050600073ffffffffffffffffffffffffffffffffffffffff168173ffffffffffffffffffffffffffffffffffffffff161415915050919050565b600033905090565b816002600083815260200190815260200160002060006101000a81548173ffffffffffffffffffffffffffffffffffffffff021916908373ffffffffffffffffffffffffffffffffffffffff160217905550808273ffffffffffffffffffffffffffffffffffffffff16613bd7836121de565b73ffffffffffffffffffffffffffffffffffffffff167f8c5be1e5ebec7d5bd14f71427d1e84f3dd0314c0f7b2291e5b200ac8c7c3b92560405160405180910390a45050565b6000613c2882613aea565b613c7d576040517f08c379a000000000000000000000000000000000000000000000000000000000815260040180806020018281038252602c81526020018061517d602c913960400191505060405180910390fd5b6000613c88836121de565b90508073ffffffffffffffffffffffffffffffffffffffff168473ffffffffffffffffffffffffffffffffffffffff161480613cf757508373ffffffffffffffffffffffffffffffffffffffff16613cdf84611427565b73ffffffffffffffffffffffffffffffffffffffff16145b80613d085750613d078185613a56565b5b91505092915050565b8273ffffffffffffffffffffffffffffffffffffffff16613d31826121de565b73ffffffffffffffffffffffffffffffffffffffff1614613d9d576040517f08c379a000000000000000000000000000000000000000000000000000000000815260040180806020018281038252602981526020018061528c6029913960400191505060405180910390fd5b600073ffffffffffffffffffffffffffffffffffffffff168273ffffffffffffffffffffffffffffffffffffffff161415613e23576040517f08c379a00000000000000000000000000000000000000000000000000000000081526004018080602001828103825260248152602001806151596024913960400191505060405180910390fd5b613e2e83838361473c565b613e39600082613b64565b613e80600360008573ffffffffffffffffffffffffffffffffffffffff1673ffffffffffffffffffffffffffffffffffffffff1681526020019081526020016000206147d1565b613ec7600360008473ffffffffffffffffffffffffffffffffffffffff1673ffffffffffffffffffffffffffffffffffffffff1681526020019081526020016000206147f4565b816001600083815260200190815260200160002060006101000a81548173ffffffffffffffffffffffffffffffffffffffff021916908373ffffffffffffffffffffffffffffffffffffffff160217905550808273ffffffffffffffffffffffffffffffffffffffff168473ffffffffffffffffffffffffffffffffffffffff167fddf252ad1be2c89b69c2b068fc378daa952ba7f163c4a11628f55a4df523b3ef60405160405180910390a4505050565b6000613f83614fa4565b600b60008581526020019081526020016000206040518060e00160405290816000820160009054906101000a900473ffffffffffffffffffffffffffffffffffffffff1673ffffffffffffffffffffffffffffffffffffffff1673ffffffffffffffffffffffffffffffffffffffff168152602001600182015481526020016002820160009054906101000a900473ffffffffffffffffffffffffffffffffffffffff1673ffffffffffffffffffffffffffffffffffffffff1673ffffffffffffffffffffffffffffffffffffffff168152602001600382015481526020016004820160009054906101000a900473ffffffffffffffffffffffffffffffffffffffff1673ffffffffffffffffffffffffffffffffffffffff1673ffffffffffffffffffffffffffffffffffffffff168152602001600582015481526020016006820160009054906101000a900473ffffffffffffffffffffffffffffffffffffffff1673ffffffffffffffffffffffffffffffffffffffff1673ffffffffffffffffffffffffffffffffffffffff16815250509050614121614fa4565b600b60008581526020019081526020016000206040518060e00160405290816000820160009054906101000a900473ffffffffffffffffffffffffffffffffffffffff1673ffffffffffffffffffffffffffffffffffffffff1673ffffffffffffffffffffffffffffffffffffffff168152602001600182015481526020016002820160009054906101000a900473ffffffffffffffffffffffffffffffffffffffff1673ffffffffffffffffffffffffffffffffffffffff1673ffffffffffffffffffffffffffffffffffffffff168152602001600382015481526020016004820160009054906101000a900473ffffffffffffffffffffffffffffffffffffffff1673ffffffffffffffffffffffffffffffffffffffff1673ffffffffffffffffffffffffffffffffffffffff168152602001600582015481526020016006820160009054906101000a900473ffffffffffffffffffffffffffffffffffffffff1673ffffffffffffffffffffffffffffffffffffffff1673ffffffffffffffffffffffffffffffffffffffff16815250509050600082602001518360400151846060015185608001518660a00151604051602001808681526020018573ffffffffffffffffffffffffffffffffffffffff1673ffffffffffffffffffffffffffffffffffffffff1660601b81526014018481526020018373ffffffffffffffffffffffffffffffffffffffff1673ffffffffffffffffffffffffffffffffffffffff1660601b815260140182815260200195505050505050604051602081830303815290604052805190602001209050600082602001518360400151846060015185608001518660a00151604051602001808681526020018573ffffffffffffffffffffffffffffffffffffffff1673ffffffffffffffffffffffffffffffffffffffff1660601b81526014018481526020018373ffffffffffffffffffffffffffffffffffffffff1673ffffffffffffffffffffffffffffffffffffffff1660601b8152601401828152602001955050505050506040516020818303038152906040528051906020012090508082141561444657600194505050505061444b565b600080fd5b92915050565b600081600001549050919050565b60006144776001600a5461480a90919063ffffffff16565b600a81905550600a54905090565b61449f828260405180602001604052806000815250614892565b5050565b6144ac82613aea565b614501576040517f08c379a000000000000000000000000000000000000000000000000000000000815260040180806020018281038252602c815260200180615260602c913960400191505060405180910390fd5b80600960008481526020019081526020016000209080519060200190614528929190615039565b505050565b8173ffffffffffffffffffffffffffffffffffffffff1661454d826121de565b73ffffffffffffffffffffffffffffffffffffffff16146145b9576040517f08c379a00000000000000000000000000000000000000000000000000000000081526004018080602001828103825260258152602001806153366025913960400191505060405180910390fd5b6145c58260008361473c565b6145d0600082613b64565b614617600360008473ffffffffffffffffffffffffffffffffffffffff1673ffffffffffffffffffffffffffffffffffffffff1681526020019081526020016000206147d1565b60006001600083815260200190815260200160002060006101000a81548173ffffffffffffffffffffffffffffffffffffffff021916908373ffffffffffffffffffffffffffffffffffffffff16021790555080600073ffffffffffffffffffffffffffffffffffffffff168373ffffffffffffffffffffffffffffffffffffffff167fddf252ad1be2c89b69c2b068fc378daa952ba7f163c4a11628f55a4df523b3ef60405160405180910390a45050565b6146d5848484613d11565b6146e184848484614903565b614736576040517f08c379a00000000000000000000000000000000000000000000000000000000081526004018080602001828103825260328152602001806151276032913960400191505060405180910390fd5b50505050565b614747838383614c26565b600073ffffffffffffffffffffffffffffffffffffffff168273ffffffffffffffffffffffffffffffffffffffff1614156147cc57600060096000838152602001908152602001600020805460018160011615610100020316600290049050146147cb576009600082815260200190815260200160002060006147ca91906150b9565b5b5b505050565b6147e960018260000154614c2b90919063ffffffff16565b816000018190555050565b6001816000016000828254019250508190555050565b600080828401905083811015614888576040517f08c379a000000000000000000000000000000000000000000000000000000000815260040180806020018281038252601b8152602001807f536166654d6174683a206164646974696f6e206f766572666c6f77000000000081525060200191505060405180910390fd5b8091505092915050565b61489c8383614c75565b6148a96000848484614903565b6148fe576040517f08c379a00000000000000000000000000000000000000000000000000000000081526004018080602001828103825260328152602001806151276032913960400191505060405180910390fd5b505050565b60006149248473ffffffffffffffffffffffffffffffffffffffff16614e99565b6149315760019050614c1e565b600060608573ffffffffffffffffffffffffffffffffffffffff1663150b7a0260e01b61495c613b5c565b898888604051602401808573ffffffffffffffffffffffffffffffffffffffff1673ffffffffffffffffffffffffffffffffffffffff1681526020018473ffffffffffffffffffffffffffffffffffffffff1673ffffffffffffffffffffffffffffffffffffffff16815260200183815260200180602001828103825283818151815260200191508051906020019080838360005b83811015614a0c5780820151818401526020810190506149f1565b50505050905090810190601f168015614a395780820380516001836020036101000a031916815260200191505b5095505050505050604051602081830303815290604052907bffffffffffffffffffffffffffffffffffffffffffffffffffffffff19166020820180517bffffffffffffffffffffffffffffffffffffffffffffffffffffffff83818316178352505050506040518082805190602001908083835b60208310614ad15780518252602082019150602081019050602083039250614aae565b6001836020036101000a0380198251168184511680821785525050505050509050019150506000604051808303816000865af19150503d8060008114614b33576040519150601f19603f3d011682016040523d82523d6000602084013e614b38565b606091505b509150915081614ba657600081511115614b555780518082602001fd5b6040517f08c379a00000000000000000000000000000000000000000000000000000000081526004018080602001828103825260328152602001806151276032913960400191505060405180910390fd5b6000818060200190516020811015614bbd57600080fd5b8101908080519060200190929190505050905063150b7a0260e01b7bffffffffffffffffffffffffffffffffffffffffffffffffffffffff1916817bffffffffffffffffffffffffffffffffffffffffffffffffffffffff19161493505050505b949350505050565b505050565b6000614c6d83836040518060400160405280601e81526020017f536166654d6174683a207375627472616374696f6e206f766572666c6f770000815250614ee4565b905092915050565b600073ffffffffffffffffffffffffffffffffffffffff168273ffffffffffffffffffffffffffffffffffffffff161415614d18576040517f08c379a00000000000000000000000000000000000000000000000000000000081526004018080602001828103825260208152602001807f4552433732313a206d696e7420746f20746865207a65726f206164647265737381525060200191505060405180910390fd5b614d2181613aea565b15614d94576040517f08c379a000000000000000000000000000000000000000000000000000000000815260040180806020018281038252601c8152602001807f4552433732313a20746f6b656e20616c7265616479206d696e7465640000000081525060200191505060405180910390fd5b614da06000838361473c565b816001600083815260200190815260200160002060006101000a81548173ffffffffffffffffffffffffffffffffffffffff021916908373ffffffffffffffffffffffffffffffffffffffff160217905550614e39600360008473ffffffffffffffffffffffffffffffffffffffff1673ffffffffffffffffffffffffffffffffffffffff1681526020019081526020016000206147f4565b808273ffffffffffffffffffffffffffffffffffffffff16600073ffffffffffffffffffffffffffffffffffffffff167fddf252ad1be2c89b69c2b068fc378daa952ba7f163c4a11628f55a4df523b3ef60405160405180910390a45050565b60008060007fc5d2460186f7233c927e7db2dcc703c0e500b653ca82273b7bfad8045d85a47060001b9050833f9150808214158015614edb57506000801b8214155b92505050919050565b6000838311158290614f91576040517f08c379a00000000000000000000000000000000000000000000000000000000081526004018080602001828103825283818151815260200191508051906020019080838360005b83811015614f56578082015181840152602081019050614f3b565b50505050905090810190601f168015614f835780820380516001836020036101000a031916815260200191505b509250505060405180910390fd5b5060008385039050809150509392505050565b6040518060e00160405280600073ffffffffffffffffffffffffffffffffffffffff16815260200160008152602001600073ffffffffffffffffffffffffffffffffffffffff16815260200160008152602001600073ffffffffffffffffffffffffffffffffffffffff16815260200160008152602001600073ffffffffffffffffffffffffffffffffffffffff1681525090565b828054600181600116156101000203166002900490600052602060002090601f016020900481019282601f1061507a57805160ff19168380011785556150a8565b828001600101855582156150a8579182015b828111156150a757825182559160200191906001019061508c565b5b5090506150b59190615101565b5090565b50805460018160011615610100020316600290046000825580601f106150df57506150fe565b601f0160209004906000526020600020908101906150fd9190615101565b5b50565b61512391905b8082111561511f576000816000905550600101615107565b5090565b9056fe4552433732313a207472616e7366657220746f206e6f6e20455243373231526563656976657220696d706c656d656e7465724552433732313a207472616e7366657220746f20746865207a65726f20616464726573734552433732313a206f70657261746f7220717565727920666f72206e6f6e6578697374656e7420746f6b656e4552433732313a20617070726f76652063616c6c6572206973206e6f74206f776e6572206e6f7220617070726f76656420666f7220616c6c4552433732313a2062616c616e636520717565727920666f7220746865207a65726f20616464726573734552433732313a206f776e657220717565727920666f72206e6f6e6578697374656e7420746f6b656e4552433732313a20617070726f76656420717565727920666f72206e6f6e6578697374656e7420746f6b656e4552433732314d657461646174613a2055524920736574206f66206e6f6e6578697374656e7420746f6b656e4552433732313a207472616e73666572206f6620746f6b656e2074686174206973206e6f74206f776e4552433732314d657461646174613a2055524920717565727920666f72206e6f6e6578697374656e7420746f6b656e4552433732313a20617070726f76616c20746f2063757272656e74206f776e65724552433732313a207472616e736665722063616c6c6572206973206e6f74206f776e6572206e6f7220617070726f7665644552433732313a206275726e206f6620746f6b656e2074686174206973206e6f74206f776ea264697066735822122079773ce263927e78aeccb473944871ec6198b345b1b044ca88effa37ed8a665f64736f6c63430006020033",
  "source": "pragma solidity ^0.6.2;\r\n\r\n/**\r\n * @title Carbon's Prime Contract\r\n * @notice The core ERC721 contract that holds all Slates. \r\n *         A Prime is two-party contract. A Slate is an NFT with the properties of the contract.\r\n * @author Carbon\r\n */\r\n\r\n\r\nimport \"./tokens/SafeMath.sol\";\r\nimport \"./Slate.sol\";\r\n\r\n\r\nabstract contract ERC20 {\r\n    function balanceOf(address _owner) virtual external returns(uint256);\r\n    function transferFrom(address sender, address recipient, uint256 amount) public virtual returns (bool);\r\n    function transfer(address recipient, uint256 amount) public virtual returns (bool);\r\n}\r\n\r\n\r\nabstract contract IPrime {\r\n    /**\r\n    * @dev Emitted when a Minter deposits collateral.\r\n    * @param _user Address of user.\r\n    * @param _collateralQty Quantity of the deposited asset.\r\n    * @param _collateral Address of the deposited asset.\r\n    * @param _paymentQty Quantity of the deposited asset.\r\n    * @param _payment Address of the deposited asset.\r\n    * @param _tokenId Nonce of minted Slate -> ID.\r\n    * @param _timestamp Block.timestamp of deposit.\r\n    **/\r\n    event SlateMinted(\r\n        address indexed _user,\r\n        uint256 _collateralQty,\r\n        address  _collateral,\r\n        uint256 _paymentQty,\r\n        address  _payment,\r\n        uint256 indexed _tokenId, \r\n        uint256 _timestamp\r\n    );\r\n\r\n    /**\r\n    * @dev Emitted when a Burner purchases collateral.\r\n    * @param _user Address of user.\r\n    * @param _collateralQty Quantity of the deposited asset.\r\n    * @param _collateral Address of the deposited asset.\r\n    * @param _paymentQty Quantity of the deposited asset.\r\n    * @param _payment Address of the deposited asset.\r\n    * @param _tokenId Nonce of minted Slate -> ID.\r\n    * @param _timestamp Block.timestamp of deposit.\r\n    **/\r\n    event SlateExercised(\r\n        address indexed _user,\r\n        uint256 _collateralQty,\r\n        address  _collateral,\r\n        uint256 _paymentQty,\r\n        address  _payment,\r\n        uint256 indexed _tokenId, \r\n        uint256 _timestamp\r\n    );\r\n\r\n    /**\r\n    * @dev Emitted when collateral is withdrawable by Minter.\r\n    * @param _user Address of user.\r\n    * @param _collateralQty Quantity of the deposited asset.\r\n    * @param _collateral Address of the deposited asset.\r\n    * @param _tokenId Nonce of minted Slate -> ID.\r\n    * @param _timestamp Block.timestamp of deposit.\r\n    **/\r\n    event SlateClosed(\r\n        address indexed _user,\r\n        uint256 _collateralQty,\r\n        address  indexed _collateral,\r\n        uint256 indexed _tokenId, \r\n        uint256 _timestamp\r\n    );\r\n\r\n    /**\r\n    * @dev Emitted when collateral is withdrawn from Prime.\r\n    * @param _user Address of user.\r\n    * @param _collateralQty Quantity of the deposited asset.\r\n    * @param _collateral Address of the deposited asset.\r\n    * @param _timestamp Block.timestamp of deposit.\r\n    **/\r\n    event Withdrawal(\r\n        address indexed _user,\r\n        uint256 _collateralQty,\r\n        address indexed _collateral,\r\n        uint256 _timestamp\r\n    );\r\n\r\n    event Debug(\r\n        uint256 _return,\r\n        bool _success\r\n    );\r\n\r\n\r\n    function createSlate(uint256 _xis, address _yak, uint256 _zed, address _wax, uint256 _pow, address _gem) public virtual returns (bool);\r\n    function exercise(uint256 _tokenId) public virtual returns (bool);\r\n    function withdraw(uint256 _amount, address _addr) public virtual returns (bool);\r\n    function close(uint256 _collateralId, uint256 _burnId) public virtual returns (bool);\r\n}\r\n\r\n\r\ncontract Prime is IPrime, Slate {\r\n    using SafeMath for uint256;\r\n\r\n    /** \r\n     * @dev A Slate has the properties of a Prime.\r\n     * @param ace `msg.sender` of the createSlate function.\r\n     * @param xis Quantity of collateral asset token.\r\n     * @param yak Address of collateral asset token.\r\n     * @param zed Purchase price of collateral, denominated in quantity of token z.\r\n     * @param wax Address of purchase price asset token.\r\n     * @param pow UNIX timestamp of valid time period.\r\n     * @param gem Address of payment receiver of token z.\r\n     */\r\n    struct Slates {\r\n        address ace;\r\n        uint256 xis;\r\n        address yak;\r\n        uint256 zed;\r\n        address wax;\r\n        uint256 pow;\r\n        address gem;\r\n    }\r\n\r\n    string constant URI = '';\r\n    uint256 constant INCREMENT = 1;\r\n    uint256 public nonce;\r\n\r\n    // Map NFT IDs to Slates\r\n    mapping(uint256 => Slates) public _slates;\r\n\r\n    // Maps Slates to Collateral Assets and Quantity\r\n    mapping(uint256 => mapping(uint256 => uint256)) public _collateral;\r\n\r\n    // Maps a user's withdrawable\r\n    mapping(address => mapping(address => uint256)) private _bank; // Users -> asset -> withdrawable balance.\r\n\r\n\r\n    constructor (\r\n        string memory name, \r\n        string memory symbol\r\n    ) \r\n        public \r\n        Slate(name, symbol) \r\n    {\r\n        _name = name;\r\n        _symbol = symbol;\r\n        _controller = msg.sender;\r\n\r\n        // register the supported interfaces to conform to ERC721 via ERC165\r\n        _registerInterface(_INTERFACE_ID_ERC721_METADATA);\r\n    }\r\n\r\n    /** \r\n     * @dev `msg.sender` Deposits asset x, mints new Slate.\r\n     * @param _xis Amount of collateral to deposit.\r\n     * @param _yak Address of collateral asset.\r\n     * @param _zed Amount of payment asset.\r\n     * @param _wax Payment asset address.\r\n     * @param _pow Expiry timestamp.\r\n     * @param _gem Receiver address.\r\n     * @return bool Success.\r\n     */\r\n    function createSlate(\r\n        uint256 _xis,\r\n        address _yak,\r\n        uint256 _zed,\r\n        address _wax,\r\n        uint256 _pow,\r\n        address _gem\r\n    ) \r\n        public \r\n        override \r\n        returns (bool) \r\n    {\r\n\r\n        // CHECKS\r\n        ERC20 yak = ERC20(_yak);\r\n        require(\r\n            yak.balanceOf(msg.sender) >= _xis, \r\n            'Cannot send amount > bal'\r\n        );\r\n\r\n        // EFFECTS\r\n        _incrementNonce();\r\n        _slates[nonce] = Slates(\r\n            msg.sender, \r\n            _xis,\r\n            _yak, \r\n            _zed, \r\n            _wax, \r\n            _pow, \r\n            _gem\r\n        );\r\n\r\n        _bank[msg.sender][_yak] = _xis; // Depositor can withdraw collateral\r\n\r\n        // INTERACTIONS\r\n        emit SlateMinted(\r\n            msg.sender, \r\n            _xis,\r\n            _yak,\r\n            _zed,\r\n            _wax,\r\n            nonce, \r\n            block.timestamp\r\n        );\r\n\r\n        mintSlate(\r\n            msg.sender, \r\n            nonce, \r\n            URI\r\n        );\r\n\r\n        return yak.transferFrom(msg.sender, address(this), _xis);\r\n    }\r\n\r\n    /** \r\n     * @dev `msg.sender` Exercises right to purchase collateral.\r\n     * @param _tokenId ID of Slate.\r\n     * @return bool Success.\r\n     */\r\n    function exercise(\r\n        uint256 _tokenId\r\n    ) \r\n        public \r\n        override \r\n        returns (bool) \r\n    {\r\n        // CHECKS\r\n        uint256 bal = balanceOf(msg.sender);\r\n        require(\r\n            bal >= 1, \r\n            'Cannot send amount > bal'\r\n        );\r\n\r\n        address own = ownerOf(_tokenId);\r\n        require(\r\n            own == msg.sender, \r\n            'Owner is not sender'\r\n        );\r\n\r\n        // Get Slate\r\n        Slates memory _slate = _slates[_tokenId];\r\n        ERC20 _yak = ERC20(_slate.yak);\r\n        ERC20 _wax = ERC20(_slate.wax);\r\n\r\n        require(\r\n            _wax.balanceOf(msg.sender) >= _slate.zed, \r\n            'Bal cannot be < payment amount'\r\n        );\r\n        \r\n        require(\r\n            _slate.pow >= block.timestamp, \r\n            'Expired Slate'\r\n        );\r\n\r\n        // EFFECTS\r\n        require(\r\n            _wax.transferFrom(msg.sender, address(this), _slate.zed), \r\n            'Payment not transferred'\r\n        );\r\n\r\n        // Depositor cannot withdraw collateral x.\r\n        _bank[_slate.ace][_slate.yak] = 0;\r\n        // Payment receiver can withdraw payment z.\r\n        _bank[_slate.gem][_slate.wax] = _slate.zed;\r\n        // Payer can withdraw collateral x.\r\n        _bank[msg.sender][_slate.yak] = _slate.xis;\r\n\r\n        // INTERACTIONS\r\n        emit SlateExercised(\r\n            msg.sender,\r\n            _slate.xis,\r\n            _slate.yak,\r\n            _slate.zed,\r\n            _slate.wax,\r\n            _tokenId, \r\n            block.timestamp\r\n        );\r\n        return burn(msg.sender, _tokenId);\r\n    }\r\n\r\n    /** \r\n     * @dev `msg.sender` Closes Slate and \r\n     * can withdraw collateral as Slate minter.\r\n     * Msg.sender can burn any Slate NFT \r\n     * that has matching properties when compared\r\n     * to their minted Slate NFT. This way, \r\n     * they can sell their Minted Slate, and if\r\n     * they need to close the position, \r\n     * they can buy another Slate rather than track down \r\n     * the exact one they sold/traded away. \r\n     * @param _collateralId Slate NFT ID with Minter's collateral.\r\n     * @param _burnId Slate NFT ID that Minter owns,\r\n     *  and intends to burn to withdraw collateral.\r\n     * @return bool Success.\r\n     */\r\n    function close(\r\n        uint256 _collateralId,\r\n        uint256 _burnId\r\n    ) \r\n        public \r\n        override \r\n        returns (bool) \r\n    {\r\n        // CHECKS\r\n        require(\r\n            balanceOf(msg.sender) >= 1, \r\n            'Cannot send Slate amount > bal'\r\n        );\r\n\r\n        require(\r\n            ownerOf(_burnId) == msg.sender, \r\n            'Owner of Slate is not sender'\r\n        );\r\n\r\n        // Get Minter of Collateral Slate\r\n        Slates memory _collateralSlate = _slates[_collateralId];\r\n\r\n        // Get Burn Slate\r\n        Slates memory _burnSlate = _slates[_burnId];\r\n        ERC20 _yakBurn = ERC20(_burnSlate.yak);\r\n\r\n        // Msg.sender burns a Slate that they did not mint.\r\n        // Slate properties need to match, else the tx reverts.\r\n        if(_collateralSlate.ace != _burnSlate.ace) {\r\n            bool burn = _slateCompare(_collateralId, _burnId);\r\n\r\n            require(\r\n                burn,\r\n                'Slate props do not match'\r\n            );\r\n        }\r\n\r\n        require(\r\n            _bank[msg.sender][_burnSlate.yak] > 0, \r\n            'User has no collateral to claim'\r\n        );\r\n\r\n        require(\r\n            _burnSlate.pow >= block.timestamp, \r\n            'Expired Slate'\r\n        );\r\n\r\n        // EFFECTS\r\n        _bank[msg.sender][_burnSlate.yak] = 0;\r\n\r\n        // INTERACTIONS\r\n        emit SlateClosed(\r\n            msg.sender, \r\n            _burnSlate.xis,\r\n            _burnSlate.yak,\r\n            _burnId, \r\n            block.timestamp\r\n        );\r\n\r\n        burn(msg.sender, _burnId);\r\n\r\n        return _yakBurn.transfer(msg.sender, _burnSlate.xis);\r\n    }\r\n\r\n    /** \r\n     * @dev `msg.sender` Withdraw assets from contract.\r\n     * @param _amount Quantity to withdraw.\r\n     * @param _addr Address of asset.\r\n     * @return success\r\n     */\r\n    function withdraw(\r\n        uint256 _amount, \r\n        address _addr\r\n    ) \r\n        public \r\n        override \r\n        returns (bool) \r\n    {\r\n        // CHECKS\r\n        uint256 bank = _bank[msg.sender][_addr];\r\n        require(\r\n            bank >= _amount, \r\n            'Cannot withdraw amount > bal'\r\n        );\r\n\r\n        // INTERACTIONS \r\n        emit Withdrawal(\r\n            msg.sender, \r\n            _amount,\r\n            _addr,\r\n            block.timestamp\r\n        );\r\n\r\n        ERC20 erc20 = ERC20(_addr);\r\n        return erc20.transfer(msg.sender, _amount);\r\n    }\r\n\r\n    /** \r\n     * @dev Utility to update tokenId Nonce.\r\n     * @return uint256 nonce.\r\n     */\r\n    function _incrementNonce() internal returns (uint256) {\r\n        nonce = nonce.add(INCREMENT);\r\n        return nonce;\r\n    }\r\n\r\n    /** \r\n     * @dev Utility to compare hashes of Slate properties.\r\n     * @return burn Whether Slates match.\r\n     */\r\n    function _slateCompare(\r\n        uint256 _collateralId,\r\n        uint256 _burnId\r\n    ) \r\n        internal \r\n        view \r\n        returns\r\n        (bool burn)\r\n    {\r\n        Slates memory _collateralSlate = _slates[_collateralId];\r\n        Slates memory _burnSlate = _slates[_burnId];\r\n\r\n        bytes32 hashCollateral = keccak256(\r\n            abi.encodePacked(\r\n                _collateralSlate.xis,\r\n                _collateralSlate.yak,\r\n                _collateralSlate.zed,\r\n                _collateralSlate.wax,\r\n                _collateralSlate.pow\r\n            )\r\n        );\r\n\r\n        bytes32 hashBurn = keccak256(\r\n            abi.encodePacked(\r\n                _burnSlate.xis,\r\n                _burnSlate.yak,\r\n                _burnSlate.zed,\r\n                _burnSlate.wax,\r\n                _burnSlate.pow\r\n            )\r\n        );\r\n\r\n        if(hashCollateral == hashBurn) {\r\n            return true;\r\n        } else {\r\n            revert();\r\n        }\r\n    }\r\n\r\n    /** \r\n     * @dev Public view function to get Slate properties.\r\n     */\r\n    function getSlate(uint256 _tokenId) public view returns (\r\n            address ace,\r\n            uint256 xis,\r\n            address yak,\r\n            uint256 zed,\r\n            address wax,\r\n            uint256 pow,\r\n            address gem\r\n        ) {\r\n            Slates memory _slate = _slates[_tokenId];\r\n            return (\r\n                _slate.ace,\r\n                _slate.xis,\r\n                _slate.yak,\r\n                _slate.zed,\r\n                _slate.wax,\r\n                _slate.pow,\r\n                _slate.gem\r\n            );\r\n    }\r\n}",
  "sourcePath": "C:\\Users\\alexa\\OneDrive\\Documents\\Master\\Blockchain\\Projects\\carbon\\contracts\\Prime.sol",
  "compiler": {
    "name": "solc",
    "version": "0.6.2+commit.bacdbe57.Emscripten.clang"
  },
  "schemaVersion": "3.0.23",
  "updatedAt": "2020-03-05T19:14:14.479Z",
  "networkType": "ethereum",
  "devdoc": {
    "methods": {
      "approve(address,uint256)": {
        "details": "Approves another address to transfer the given token ID The zero address indicates there is no approved address. There can only be one approved address per token at a given time. Can only be called by the token owner or an approved operator.",
        "params": {
          "to": "address to be approved for the given token ID",
          "tokenId": "uint256 ID of the token to be approved"
        }
      },
      "balanceOf(address)": {
        "details": "Gets the balance of the specified address.",
        "params": {
          "owner": "address to query the balance of"
        },
        "returns": {
          "_0": "uint256 representing the amount owned by the passed address"
        }
      },
      "baseURI()": {
        "details": "Returns the base URI set via {_setBaseURI}. This will be automatically added as a preffix in {tokenURI} to each token's URI, when they are non-empty.     * _Available since v2.5.0._"
      },
      "close(uint256,uint256)": {
        "details": "`msg.sender` Closes Slate and  can withdraw collateral as Slate minter. Msg.sender can burn any Slate NFT  that has matching properties when compared to their minted Slate NFT. This way,  they can sell their Minted Slate, and if they need to close the position,  they can buy another Slate rather than track down  the exact one they sold/traded away. ",
        "params": {
          "_burnId": "Slate NFT ID that Minter owns, and intends to burn to withdraw collateral.",
          "_collateralId": "Slate NFT ID with Minter's collateral."
        },
        "returns": {
          "_0": "bool Success."
        }
      },
      "createSlate(uint256,address,uint256,address,uint256,address)": {
        "details": "`msg.sender` Deposits asset x, mints new Slate.",
        "params": {
          "_gem": "Receiver address.",
          "_pow": "Expiry timestamp.",
          "_wax": "Payment asset address.",
          "_xis": "Amount of collateral to deposit.",
          "_yak": "Address of collateral asset.",
          "_zed": "Amount of payment asset."
        },
        "returns": {
          "_0": "bool Success."
        }
      },
      "exercise(uint256)": {
        "details": "`msg.sender` Exercises right to purchase collateral.",
        "params": {
          "_tokenId": "ID of Slate."
        },
        "returns": {
          "_0": "bool Success."
        }
      },
      "getApproved(uint256)": {
        "details": "Gets the approved address for a token ID, or zero if no address set Reverts if the token ID does not exist.",
        "params": {
          "tokenId": "uint256 ID of the token to query the approval of"
        },
        "returns": {
          "_0": "address currently approved for the given token ID"
        }
      },
      "getSlate(uint256)": {
        "details": "Public view function to get Slate properties."
      },
      "isApprovedForAll(address,address)": {
        "details": "Tells whether an operator is approved by a given owner.",
        "params": {
          "operator": "operator address which you want to query the approval of",
          "owner": "owner address which you want to query the approval of"
        },
        "returns": {
          "_0": "bool whether the given operator is approved by the given owner"
        }
      },
      "name()": {
        "details": "Gets the token name.",
        "returns": {
          "_0": "string representing the token name"
        }
      },
      "ownerOf(uint256)": {
        "details": "Gets the owner of the specified token ID.",
        "params": {
          "tokenId": "uint256 ID of the token to query the owner of"
        },
        "returns": {
          "_0": "address currently marked as the owner of the given token ID"
        }
      },
      "safeTransferFrom(address,address,uint256)": {
        "details": "Safely transfers the ownership of a given token ID to another address If the target address is a contract, it must implement {IERC721Receiver-onERC721Received}, which is called upon a safe transfer, and return the magic value `bytes4(keccak256(\"onERC721Received(address,address,uint256,bytes)\"))`; otherwise, the transfer is reverted. Requires the msg.sender to be the owner, approved, or operator",
        "params": {
          "from": "current owner of the token",
          "to": "address to receive the ownership of the given token ID",
          "tokenId": "uint256 ID of the token to be transferred"
        }
      },
      "safeTransferFrom(address,address,uint256,bytes)": {
        "details": "Safely transfers the ownership of a given token ID to another address If the target address is a contract, it must implement {IERC721Receiver-onERC721Received}, which is called upon a safe transfer, and return the magic value `bytes4(keccak256(\"onERC721Received(address,address,uint256,bytes)\"))`; otherwise, the transfer is reverted. Requires the _msgSender() to be the owner, approved, or operator",
        "params": {
          "_data": "bytes data to send along with a safe transfer check",
          "from": "current owner of the token",
          "to": "address to receive the ownership of the given token ID",
          "tokenId": "uint256 ID of the token to be transferred"
        }
      },
      "setApprovalForAll(address,bool)": {
        "details": "Sets or unsets the approval of a given operator An operator is allowed to transfer all tokens of the sender on their behalf.",
        "params": {
          "approved": "representing the status of the approval to be set",
          "operator": "operator address to set the approval"
        }
      },
      "supportsInterface(bytes4)": {
        "details": "See {IERC165-supportsInterface}.      * Time complexity O(1), guaranteed to always use less than 30 000 gas."
      },
      "symbol()": {
        "details": "Gets the token symbol.",
        "returns": {
          "_0": "string representing the token symbol"
        }
      },
      "tokenURI(uint256)": {
        "details": "Returns the URI for a given token ID. May return an empty string.      * If the token's URI is non-empty and a base URI was set (via {_setBaseURI}), it will be added to the token ID's URI as a prefix.      * Reverts if the token ID does not exist."
      },
      "transferFrom(address,address,uint256)": {
        "details": "Transfers the ownership of a given token ID to another address. Usage of this method is discouraged, use {safeTransferFrom} whenever possible. Requires the msg.sender to be the owner, approved, or operator.",
        "params": {
          "from": "current owner of the token",
          "to": "address to receive the ownership of the given token ID",
          "tokenId": "uint256 ID of the token to be transferred"
        }
      },
      "withdraw(uint256,address)": {
        "details": "`msg.sender` Withdraw assets from contract.",
        "params": {
          "_addr": "Address of asset.",
          "_amount": "Quantity to withdraw."
        },
        "returns": {
          "_0": "success"
        }
      }
    }
  },
  "userdoc": {
    "methods": {}
  }
}