{
  "_format": "hh-sol-artifact-1",
  "contractName": "Redeem",
  "sourceName": "contracts/option/primitives/Redeem.sol",
  "abi": [
    {
      "inputs": [],
      "stateMutability": "nonpayable",
      "type": "constructor"
    },
    {
      "anonymous": false,
      "inputs": [
        {
          "indexed": true,
          "internalType": "address",
          "name": "owner",
          "type": "address"
        },
        {
          "indexed": true,
          "internalType": "address",
          "name": "spender",
          "type": "address"
        },
        {
          "indexed": false,
          "internalType": "uint256",
          "name": "value",
          "type": "uint256"
        }
      ],
      "name": "Approval",
      "type": "event"
    },
    {
      "anonymous": false,
      "inputs": [
        {
          "indexed": true,
          "internalType": "address",
          "name": "from",
          "type": "address"
        },
        {
          "indexed": true,
          "internalType": "address",
          "name": "to",
          "type": "address"
        },
        {
          "indexed": false,
          "internalType": "uint256",
          "name": "value",
          "type": "uint256"
        }
      ],
      "name": "Transfer",
      "type": "event"
    },
    {
      "inputs": [
        {
          "internalType": "address",
          "name": "owner",
          "type": "address"
        },
        {
          "internalType": "address",
          "name": "spender",
          "type": "address"
        }
      ],
      "name": "allowance",
      "outputs": [
        {
          "internalType": "uint256",
          "name": "",
          "type": "uint256"
        }
      ],
      "stateMutability": "view",
      "type": "function"
    },
    {
      "inputs": [
        {
          "internalType": "address",
          "name": "spender",
          "type": "address"
        },
        {
          "internalType": "uint256",
          "name": "amount",
          "type": "uint256"
        }
      ],
      "name": "approve",
      "outputs": [
        {
          "internalType": "bool",
          "name": "",
          "type": "bool"
        }
      ],
      "stateMutability": "nonpayable",
      "type": "function"
    },
    {
      "inputs": [
        {
          "internalType": "address",
          "name": "account",
          "type": "address"
        }
      ],
      "name": "balanceOf",
      "outputs": [
        {
          "internalType": "uint256",
          "name": "",
          "type": "uint256"
        }
      ],
      "stateMutability": "view",
      "type": "function"
    },
    {
      "inputs": [
        {
          "internalType": "address",
          "name": "to",
          "type": "address"
        },
        {
          "internalType": "uint256",
          "name": "amount",
          "type": "uint256"
        }
      ],
      "name": "burn",
      "outputs": [],
      "stateMutability": "nonpayable",
      "type": "function"
    },
    {
      "inputs": [],
      "name": "decimals",
      "outputs": [
        {
          "internalType": "uint8",
          "name": "",
          "type": "uint8"
        }
      ],
      "stateMutability": "view",
      "type": "function"
    },
    {
      "inputs": [
        {
          "internalType": "address",
          "name": "spender",
          "type": "address"
        },
        {
          "internalType": "uint256",
          "name": "subtractedValue",
          "type": "uint256"
        }
      ],
      "name": "decreaseAllowance",
      "outputs": [
        {
          "internalType": "bool",
          "name": "",
          "type": "bool"
        }
      ],
      "stateMutability": "nonpayable",
      "type": "function"
    },
    {
      "inputs": [],
      "name": "factory",
      "outputs": [
        {
          "internalType": "address",
          "name": "",
          "type": "address"
        }
      ],
      "stateMutability": "view",
      "type": "function"
    },
    {
      "inputs": [
        {
          "internalType": "address",
          "name": "spender",
          "type": "address"
        },
        {
          "internalType": "uint256",
          "name": "addedValue",
          "type": "uint256"
        }
      ],
      "name": "increaseAllowance",
      "outputs": [
        {
          "internalType": "bool",
          "name": "",
          "type": "bool"
        }
      ],
      "stateMutability": "nonpayable",
      "type": "function"
    },
    {
      "inputs": [
        {
          "internalType": "address",
          "name": "factory_",
          "type": "address"
        },
        {
          "internalType": "address",
          "name": "optionToken_",
          "type": "address"
        }
      ],
      "name": "initialize",
      "outputs": [],
      "stateMutability": "nonpayable",
      "type": "function"
    },
    {
      "inputs": [
        {
          "internalType": "address",
          "name": "to",
          "type": "address"
        },
        {
          "internalType": "uint256",
          "name": "amount",
          "type": "uint256"
        }
      ],
      "name": "mint",
      "outputs": [],
      "stateMutability": "nonpayable",
      "type": "function"
    },
    {
      "inputs": [],
      "name": "name",
      "outputs": [
        {
          "internalType": "string",
          "name": "",
          "type": "string"
        }
      ],
      "stateMutability": "view",
      "type": "function"
    },
    {
      "inputs": [],
      "name": "optionToken",
      "outputs": [
        {
          "internalType": "address",
          "name": "",
          "type": "address"
        }
      ],
      "stateMutability": "view",
      "type": "function"
    },
    {
      "inputs": [],
      "name": "symbol",
      "outputs": [
        {
          "internalType": "string",
          "name": "",
          "type": "string"
        }
      ],
      "stateMutability": "view",
      "type": "function"
    },
    {
      "inputs": [],
      "name": "totalSupply",
      "outputs": [
        {
          "internalType": "uint256",
          "name": "",
          "type": "uint256"
        }
      ],
      "stateMutability": "view",
      "type": "function"
    },
    {
      "inputs": [
        {
          "internalType": "address",
          "name": "recipient",
          "type": "address"
        },
        {
          "internalType": "uint256",
          "name": "amount",
          "type": "uint256"
        }
      ],
      "name": "transfer",
      "outputs": [
        {
          "internalType": "bool",
          "name": "",
          "type": "bool"
        }
      ],
      "stateMutability": "nonpayable",
      "type": "function"
    },
    {
      "inputs": [
        {
          "internalType": "address",
          "name": "sender",
          "type": "address"
        },
        {
          "internalType": "address",
          "name": "recipient",
          "type": "address"
        },
        {
          "internalType": "uint256",
          "name": "amount",
          "type": "uint256"
        }
      ],
      "name": "transferFrom",
      "outputs": [
        {
          "internalType": "bool",
          "name": "",
          "type": "bool"
        }
      ],
      "stateMutability": "nonpayable",
      "type": "function"
    }
  ],
  "bytecode": "0x608060405234801561001057600080fd5b50610e4c806100206000396000f3fe608060405234801561001057600080fd5b50600436106101005760003560e01c8063485cc95511610097578063a457c2d711610066578063a457c2d714610336578063a9059cbb14610362578063c45a01551461038e578063dd62ed3e1461039657610100565b8063485cc955146102ae57806370a08231146102dc57806395d89b41146103025780639dc29fac1461030a57610100565b80632bab754b116100d35780632bab754b14610212578063313ce56714610236578063395093511461025457806340c10f191461028057610100565b806306fdde0314610105578063095ea7b31461018257806318160ddd146101c257806323b872dd146101dc575b600080fd5b61010d6103c4565b6040805160208082528351818301528351919283929083019185019080838360005b8381101561014757818101518382015260200161012f565b50505050905090810190601f1680156101745780820380516001836020036101000a031916815260200191505b509250505060405180910390f35b6101ae6004803603604081101561019857600080fd5b506001600160a01b0381351690602001356103f3565b604080519115158252519081900360200190f35b6101ca610410565b60408051918252519081900360200190f35b6101ae600480360360608110156101f257600080fd5b506001600160a01b03813581169160208101359091169060400135610416565b61021a6104a3565b604080516001600160a01b039092168252519081900360200190f35b61023e6104b2565b6040805160ff9092168252519081900360200190f35b6101ae6004803603604081101561026a57600080fd5b506001600160a01b0381351690602001356104b7565b6102ac6004803603604081101561029657600080fd5b506001600160a01b03813516906020013561050b565b005b6102ac600480360360408110156102c457600080fd5b506001600160a01b0381358116916020013516610568565b6101ca600480360360208110156102f257600080fd5b50356001600160a01b03166105e9565b61010d610604565b6102ac6004803603604081101561032057600080fd5b506001600160a01b038135169060200135610623565b6101ae6004803603604081101561034c57600080fd5b506001600160a01b03813516906020013561067c565b6101ae6004803603604081101561037857600080fd5b506001600160a01b0381351690602001356106ea565b61021a6106fe565b6101ca600480360360408110156103ac57600080fd5b506001600160a01b038135811691602001351661070d565b604051806040016040528060138152602001725072696d69746976652056312052656465656d60681b81525081565b6000610407610400610738565b848461073c565b50600192915050565b60025490565b6000610423848484610828565b6104998461042f610738565b61049485604051806060016040528060288152602001610d60602891396001600160a01b038a1660009081526001602052604081209061046d610738565b6001600160a01b03168152602081019190915260400160002054919063ffffffff61098f16565b61073c565b5060019392505050565b6004546001600160a01b031681565b601281565b60006104076104c4610738565b8461049485600160006104d5610738565b6001600160a01b03908116825260208083019390935260409182016000908120918c16815292529020549063ffffffff610a2616565b6004546001600160a01b0316331461055a576040805162461bcd60e51b815260206004820152600d60248201526c11549497d393d517d590531251609a1b604482015290519081900360640190fd5b6105648282610a87565b5050565b6003546001600160a01b0316156105bb576040805162461bcd60e51b815260206004820152601260248201527111549497d254d7d25392551250531256915160721b604482015290519081900360640190fd5b600380546001600160a01b039384166001600160a01b03199182161790915560048054929093169116179055565b6001600160a01b031660009081526020819052604090205490565b6040518060400160405280600381526020016252444d60e81b81525081565b6004546001600160a01b03163314610672576040805162461bcd60e51b815260206004820152600d60248201526c11549497d393d517d590531251609a1b604482015290519081900360640190fd5b6105648282610b83565b6000610407610689610738565b8461049485604051806060016040528060258152602001610df260259139600160006106b3610738565b6001600160a01b03908116825260208083019390935260409182016000908120918d1681529252902054919063ffffffff61098f16565b60006104076106f7610738565b8484610828565b6003546001600160a01b031681565b6001600160a01b03918216600090815260016020908152604080832093909416825291909152205490565b3390565b6001600160a01b0383166107815760405162461bcd60e51b8152600401808060200182810382526024815260200180610dce6024913960400191505060405180910390fd5b6001600160a01b0382166107c65760405162461bcd60e51b8152600401808060200182810382526022815260200180610d186022913960400191505060405180910390fd5b6001600160a01b03808416600081815260016020908152604080832094871680845294825291829020859055815185815291517f8c5be1e5ebec7d5bd14f71427d1e84f3dd0314c0f7b2291e5b200ac8c7c3b9259281900390910190a3505050565b6001600160a01b03831661086d5760405162461bcd60e51b8152600401808060200182810382526025815260200180610da96025913960400191505060405180910390fd5b6001600160a01b0382166108b25760405162461bcd60e51b8152600401808060200182810382526023815260200180610cd36023913960400191505060405180910390fd5b6108bd838383610c8b565b61090081604051806060016040528060268152602001610d3a602691396001600160a01b038616600090815260208190526040902054919063ffffffff61098f16565b6001600160a01b038085166000908152602081905260408082209390935590841681522054610935908263ffffffff610a2616565b6001600160a01b038084166000818152602081815260409182902094909455805185815290519193928716927fddf252ad1be2c89b69c2b068fc378daa952ba7f163c4a11628f55a4df523b3ef92918290030190a3505050565b60008184841115610a1e5760405162461bcd60e51b81526004018080602001828103825283818151815260200191508051906020019080838360005b838110156109e35781810151838201526020016109cb565b50505050905090810190601f168015610a105780820380516001836020036101000a031916815260200191505b509250505060405180910390fd5b505050900390565b600082820183811015610a80576040805162461bcd60e51b815260206004820152601b60248201527f536166654d6174683a206164646974696f6e206f766572666c6f770000000000604482015290519081900360640190fd5b9392505050565b6001600160a01b038216610ae2576040805162461bcd60e51b815260206004820152601f60248201527f45524332303a206d696e7420746f20746865207a65726f206164647265737300604482015290519081900360640190fd5b610aee60008383610c8b565b600254610b01908263ffffffff610a2616565b6002556001600160a01b038216600090815260208190526040902054610b2d908263ffffffff610a2616565b6001600160a01b0383166000818152602081815260408083209490945583518581529351929391927fddf252ad1be2c89b69c2b068fc378daa952ba7f163c4a11628f55a4df523b3ef9281900390910190a35050565b6001600160a01b038216610bc85760405162461bcd60e51b8152600401808060200182810382526021815260200180610d886021913960400191505060405180910390fd5b610bd482600083610c8b565b610c1781604051806060016040528060228152602001610cf6602291396001600160a01b038516600090815260208190526040902054919063ffffffff61098f16565b6001600160a01b038316600090815260208190526040902055600254610c43908263ffffffff610c9016565b6002556040805182815290516000916001600160a01b038516917fddf252ad1be2c89b69c2b068fc378daa952ba7f163c4a11628f55a4df523b3ef9181900360200190a35050565b505050565b6000610a8083836040518060400160405280601e81526020017f536166654d6174683a207375627472616374696f6e206f766572666c6f77000081525061098f56fe45524332303a207472616e7366657220746f20746865207a65726f206164647265737345524332303a206275726e20616d6f756e7420657863656564732062616c616e636545524332303a20617070726f766520746f20746865207a65726f206164647265737345524332303a207472616e7366657220616d6f756e7420657863656564732062616c616e636545524332303a207472616e7366657220616d6f756e74206578636565647320616c6c6f77616e636545524332303a206275726e2066726f6d20746865207a65726f206164647265737345524332303a207472616e736665722066726f6d20746865207a65726f206164647265737345524332303a20617070726f76652066726f6d20746865207a65726f206164647265737345524332303a2064656372656173656420616c6c6f77616e63652062656c6f77207a65726fa264697066735822122073d113d6abc22f89a1c3951c46742febe1e74cba4b6c2a600a65f3abf1bfd2dc64736f6c63430006020033",
  "linkReferences": {},
  "deployedLinkReferences": {}
}