{
  "abi": [
    {
      "inputs": [
        {
          "internalType": "address",
          "name": "registry",
          "type": "address"
        }
      ],
      "stateMutability": "nonpayable",
      "type": "constructor"
    },
    {
      "anonymous": false,
      "inputs": [
        {
          "indexed": true,
          "internalType": "address",
          "name": "previousOwner",
          "type": "address"
        },
        {
          "indexed": true,
          "internalType": "address",
          "name": "newOwner",
          "type": "address"
        }
      ],
      "name": "OwnershipTransferred",
      "type": "event"
    },
    {
      "inputs": [
        {
          "internalType": "address",
          "name": "tokenU",
          "type": "address"
        },
        {
          "internalType": "address",
          "name": "tokenS",
          "type": "address"
        },
        {
          "internalType": "uint256",
          "name": "base",
          "type": "uint256"
        },
        {
          "internalType": "uint256",
          "name": "price",
          "type": "uint256"
        },
        {
          "internalType": "uint256",
          "name": "expiry",
          "type": "uint256"
        }
      ],
      "name": "deploy",
      "outputs": [
        {
          "internalType": "address",
          "name": "prime",
          "type": "address"
        }
      ],
      "stateMutability": "nonpayable",
      "type": "function"
    },
    {
      "inputs": [
        {
          "internalType": "address",
          "name": "prime",
          "type": "address"
        },
        {
          "internalType": "address",
          "name": "redeem",
          "type": "address"
        }
      ],
      "name": "initialize",
      "outputs": [],
      "stateMutability": "nonpayable",
      "type": "function"
    },
    {
      "inputs": [
        {
          "internalType": "address",
          "name": "prime",
          "type": "address"
        }
      ],
      "name": "kill",
      "outputs": [],
      "stateMutability": "nonpayable",
      "type": "function"
    },
    {
      "inputs": [],
      "name": "owner",
      "outputs": [
        {
          "internalType": "address",
          "name": "",
          "type": "address"
        }
      ],
      "stateMutability": "view",
      "type": "function"
    },
    {
      "inputs": [],
      "name": "renounceOwnership",
      "outputs": [],
      "stateMutability": "nonpayable",
      "type": "function"
    },
    {
      "inputs": [
        {
          "internalType": "address",
          "name": "newOwner",
          "type": "address"
        }
      ],
      "name": "transferOwnership",
      "outputs": [],
      "stateMutability": "nonpayable",
      "type": "function"
    }
  ],
  "address": "0xFB69D1eeb470672fa16518C89ba3b5F5742DDfB4",
  "args": [
    "0x2C13457af65AD64949aBa22a32A7Add208e4AC63"
  ],
  "bytecode": "0x608060405234801561001057600080fd5b50604051615d9e380380615d9e8339818101604052602081101561003357600080fd5b8101908080519060200190929190505050600061005461010760201b60201c565b9050806000806101000a81548173ffffffffffffffffffffffffffffffffffffffff021916908373ffffffffffffffffffffffffffffffffffffffff1602179055508073ffffffffffffffffffffffffffffffffffffffff16600073ffffffffffffffffffffffffffffffffffffffff167f8be0079c531659141344cd1fd0a4f28419497f9722a3daafe3b4186f6b6457e060405160405180910390a3506101018161010f60201b60201c565b50610322565b600033905090565b61011d61010760201b60201c565b73ffffffffffffffffffffffffffffffffffffffff166000809054906101000a900473ffffffffffffffffffffffffffffffffffffffff1673ffffffffffffffffffffffffffffffffffffffff16146101de576040517f08c379a00000000000000000000000000000000000000000000000000000000081526004018080602001828103825260208152602001807f4f776e61626c653a2063616c6c6572206973206e6f7420746865206f776e657281525060200191505060405180910390fd5b600073ffffffffffffffffffffffffffffffffffffffff168173ffffffffffffffffffffffffffffffffffffffff161415610264576040517f08c379a0000000000000000000000000000000000000000000000000000000008152600401808060200182810382526026815260200180615d786026913960400191505060405180910390fd5b8073ffffffffffffffffffffffffffffffffffffffff166000809054906101000a900473ffffffffffffffffffffffffffffffffffffffff1673ffffffffffffffffffffffffffffffffffffffff167f8be0079c531659141344cd1fd0a4f28419497f9722a3daafe3b4186f6b6457e060405160405180910390a3806000806101000a81548173ffffffffffffffffffffffffffffffffffffffff021916908373ffffffffffffffffffffffffffffffffffffffff16021790555050565b615a47806103316000396000f3fe608060405234801561001057600080fd5b50600436106100625760003560e01c80630952278e14610067578063485cc95514610129578063715018a61461018d5780638da5cb5b14610197578063cbf0b0c0146101e1578063f2fde38b14610225575b600080fd5b6100e7600480360360a081101561007d57600080fd5b81019080803573ffffffffffffffffffffffffffffffffffffffff169060200190929190803573ffffffffffffffffffffffffffffffffffffffff169060200190929190803590602001909291908035906020019092919080359060200190929190505050610269565b604051808273ffffffffffffffffffffffffffffffffffffffff1673ffffffffffffffffffffffffffffffffffffffff16815260200191505060405180910390f35b61018b6004803603604081101561013f57600080fd5b81019080803573ffffffffffffffffffffffffffffffffffffffff169060200190929190803573ffffffffffffffffffffffffffffffffffffffff1690602001909291905050506103eb565b005b61019561054f565b005b61019f6106d7565b604051808273ffffffffffffffffffffffffffffffffffffffff1673ffffffffffffffffffffffffffffffffffffffff16815260200191505060405180910390f35b610223600480360360208110156101f757600080fd5b81019080803573ffffffffffffffffffffffffffffffffffffffff169060200190929190505050610700565b005b6102676004803603602081101561023b57600080fd5b81019080803573ffffffffffffffffffffffffffffffffffffffff16906020019092919050505061082c565b005b6000610273610a39565b73ffffffffffffffffffffffffffffffffffffffff166000809054906101000a900473ffffffffffffffffffffffffffffffffffffffff1673ffffffffffffffffffffffffffffffffffffffff1614610334576040517f08c379a00000000000000000000000000000000000000000000000000000000081526004018080602001828103825260208152602001807f4f776e61626c653a2063616c6c6572206973206e6f7420746865206f776e657281525060200191505060405180910390fd5b858585858560405161034590610a41565b808673ffffffffffffffffffffffffffffffffffffffff1673ffffffffffffffffffffffffffffffffffffffff1681526020018573ffffffffffffffffffffffffffffffffffffffff1673ffffffffffffffffffffffffffffffffffffffff16815260200184815260200183815260200182815260200195505050505050604051809103906000f0801580156103df573d6000803e3d6000fd5b50905095945050505050565b6103f3610a39565b73ffffffffffffffffffffffffffffffffffffffff166000809054906101000a900473ffffffffffffffffffffffffffffffffffffffff1673ffffffffffffffffffffffffffffffffffffffff16146104b4576040517f08c379a00000000000000000000000000000000000000000000000000000000081526004018080602001828103825260208152602001807f4f776e61626c653a2063616c6c6572206973206e6f7420746865206f776e657281525060200191505060405180910390fd5b8173ffffffffffffffffffffffffffffffffffffffff1663bc2841b5826040518263ffffffff1660e01b8152600401808273ffffffffffffffffffffffffffffffffffffffff1673ffffffffffffffffffffffffffffffffffffffff168152602001915050600060405180830381600087803b15801561053357600080fd5b505af1158015610547573d6000803e3d6000fd5b505050505050565b610557610a39565b73ffffffffffffffffffffffffffffffffffffffff166000809054906101000a900473ffffffffffffffffffffffffffffffffffffffff1673ffffffffffffffffffffffffffffffffffffffff1614610618576040517f08c379a00000000000000000000000000000000000000000000000000000000081526004018080602001828103825260208152602001807f4f776e61626c653a2063616c6c6572206973206e6f7420746865206f776e657281525060200191505060405180910390fd5b600073ffffffffffffffffffffffffffffffffffffffff166000809054906101000a900473ffffffffffffffffffffffffffffffffffffffff1673ffffffffffffffffffffffffffffffffffffffff167f8be0079c531659141344cd1fd0a4f28419497f9722a3daafe3b4186f6b6457e060405160405180910390a360008060006101000a81548173ffffffffffffffffffffffffffffffffffffffff021916908373ffffffffffffffffffffffffffffffffffffffff160217905550565b60008060009054906101000a900473ffffffffffffffffffffffffffffffffffffffff16905090565b610708610a39565b73ffffffffffffffffffffffffffffffffffffffff166000809054906101000a900473ffffffffffffffffffffffffffffffffffffffff1673ffffffffffffffffffffffffffffffffffffffff16146107c9576040517f08c379a00000000000000000000000000000000000000000000000000000000081526004018080602001828103825260208152602001807f4f776e61626c653a2063616c6c6572206973206e6f7420746865206f776e657281525060200191505060405180910390fd5b8073ffffffffffffffffffffffffffffffffffffffff166341c0e1b56040518163ffffffff1660e01b8152600401600060405180830381600087803b15801561081157600080fd5b505af1158015610825573d6000803e3d6000fd5b5050505050565b610834610a39565b73ffffffffffffffffffffffffffffffffffffffff166000809054906101000a900473ffffffffffffffffffffffffffffffffffffffff1673ffffffffffffffffffffffffffffffffffffffff16146108f5576040517f08c379a00000000000000000000000000000000000000000000000000000000081526004018080602001828103825260208152602001807f4f776e61626c653a2063616c6c6572206973206e6f7420746865206f776e657281525060200191505060405180910390fd5b600073ffffffffffffffffffffffffffffffffffffffff168173ffffffffffffffffffffffffffffffffffffffff16141561097b576040517f08c379a00000000000000000000000000000000000000000000000000000000081526004018080602001828103825260268152602001806159ec6026913960400191505060405180910390fd5b8073ffffffffffffffffffffffffffffffffffffffff166000809054906101000a900473ffffffffffffffffffffffffffffffffffffffff1673ffffffffffffffffffffffffffffffffffffffff167f8be0079c531659141344cd1fd0a4f28419497f9722a3daafe3b4186f6b6457e060405160405180910390a3806000806101000a81548173ffffffffffffffffffffffffffffffffffffffff021916908373ffffffffffffffffffffffffffffffffffffffff16021790555050565b600033905090565b614f9d80610a4f8339019056fe60806040523480156200001157600080fd5b5060405162004f9d38038062004f9d833981810160405260a08110156200003757600080fd5b8101908080519060200190929190805190602001909291908051906020019092919080519060200190929190805190602001909291905050506040518060400160405280601b81526020017f5072696d69746976652056312056616e696c6c61204f7074696f6e00000000008152506040518060400160405280600581526020017f5052494d450000000000000000000000000000000000000000000000000000008152508160039080519060200190620000f4929190620002b2565b5080600490805190602001906200010d929190620002b2565b506012600560006101000a81548160ff021916908360ff16021790555050506001600560016101000a81548160ff0219169083151502179055506000600560026101000a81548160ff02191690831515021790555033600e60006101000a81548173ffffffffffffffffffffffffffffffffffffffff021916908373ffffffffffffffffffffffffffffffffffffffff1602179055506040518060a001604052808673ffffffffffffffffffffffffffffffffffffffff1681526020018573ffffffffffffffffffffffffffffffffffffffff16815260200184815260200183815260200182815250600660008201518160000160006101000a81548173ffffffffffffffffffffffffffffffffffffffff021916908373ffffffffffffffffffffffffffffffffffffffff16021790555060208201518160010160006101000a81548173ffffffffffffffffffffffffffffffffffffffff021916908373ffffffffffffffffffffffffffffffffffffffff160217905550604082015181600201556060820151816003015560808201518160040155905050505050505062000361565b828054600181600116156101000203166002900490600052602060002090601f016020900481019282601f10620002f557805160ff191683800117855562000326565b8280016001018555821562000326579182015b828111156200032557825182559160200191906001019062000308565b5b50905062000335919062000339565b5090565b6200035e91905b808211156200035a57600081600090555060010162000340565b5090565b90565b614c2c80620003716000396000f3fe608060405234801561001057600080fd5b50600436106102065760003560e01c806395d89b411161011a578063c45a0155116100ad578063dd62ed3e1161007c578063dd62ed3e14610b18578063e184c9be14610b90578063ef57128e14610bae578063f1e34fbb14610bcc578063f82390d014610bea57610206565b8063c45a015514610985578063c57981b5146109cf578063c74073a1146109ed578063c7ee005e14610a5357610206565b8063a457c2d7116100e9578063a457c2d7146107c5578063a9059cbb1461082b578063aa6ca80814610891578063bc2841b51461094157610206565b806395d89b41146106f55780639cc5d5cc14610778578063a035b1fe1461079d578063a2e62045146107bb57610206565b8063395093511161019d5780635c975abb1161016c5780635c975abb1461057a57806360f880351461059c5780636a627842146105e657806370a082311461064557806395a2251f1461069d57610206565b806339509351146104a257806341c0e1b5146105085780634a244e54146105125780635001f3b51461055c57610206565b8063159090bd116101d9578063159090bd146103d057806318160ddd146103da57806323b872dd146103f8578063313ce5671461047e57610206565b8063010035af1461020b57806306fdde031461029d5780630727d5d214610320578063095ea7b31461036a575b600080fd5b610213610ca8565b604051808673ffffffffffffffffffffffffffffffffffffffff1673ffffffffffffffffffffffffffffffffffffffff1681526020018573ffffffffffffffffffffffffffffffffffffffff1673ffffffffffffffffffffffffffffffffffffffff1681526020018481526020018381526020018281526020019550505050505060405180910390f35b6102a5610d0c565b6040518080602001828103825283818151815260200191508051906020019080838360005b838110156102e55780820151818401526020810190506102ca565b50505050905090810190601f1680156103125780820380516001836020036101000a031916815260200191505b509250505060405180910390f35b610328610dae565b604051808273ffffffffffffffffffffffffffffffffffffffff1673ffffffffffffffffffffffffffffffffffffffff16815260200191505060405180910390f35b6103b66004803603604081101561038057600080fd5b81019080803573ffffffffffffffffffffffffffffffffffffffff16906020019092919080359060200190929190505050610ddb565b604051808215151515815260200191505060405180910390f35b6103d8610df9565b005b6103e26114d9565b6040518082815260200191505060405180910390f35b6104646004803603606081101561040e57600080fd5b81019080803573ffffffffffffffffffffffffffffffffffffffff169060200190929190803573ffffffffffffffffffffffffffffffffffffffff169060200190929190803590602001909291905050506114e3565b604051808215151515815260200191505060405180910390f35b6104866115bc565b604051808260ff1660ff16815260200191505060405180910390f35b6104ee600480360360408110156104b857600080fd5b81019080803573ffffffffffffffffffffffffffffffffffffffff169060200190929190803590602001909291905050506115d3565b604051808215151515815260200191505060405180910390f35b610510611686565b005b61051a61176d565b604051808273ffffffffffffffffffffffffffffffffffffffff1673ffffffffffffffffffffffffffffffffffffffff16815260200191505060405180910390f35b61056461179a565b6040518082815260200191505060405180910390f35b6105826117a7565b604051808215151515815260200191505060405180910390f35b6105a46117be565b604051808273ffffffffffffffffffffffffffffffffffffffff1673ffffffffffffffffffffffffffffffffffffffff16815260200191505060405180910390f35b610628600480360360208110156105fc57600080fd5b81019080803573ffffffffffffffffffffffffffffffffffffffff1690602001909291905050506117e4565b604051808381526020018281526020019250505060405180910390f35b6106876004803603602081101561065b57600080fd5b81019080803573ffffffffffffffffffffffffffffffffffffffff169060200190929190505050611c7b565b6040518082815260200191505060405180910390f35b6106df600480360360208110156106b357600080fd5b81019080803573ffffffffffffffffffffffffffffffffffffffff169060200190929190505050611cc3565b6040518082815260200191505060405180910390f35b6106fd6123df565b6040518080602001828103825283818151815260200191508051906020019080838360005b8381101561073d578082015181840152602081019050610722565b50505050905090810190601f16801561076a5780820380516001836020036101000a031916815260200191505b509250505060405180910390f35b610780612481565b604051808381526020018281526020019250505060405180910390f35b6107a5612492565b6040518082815260200191505060405180910390f35b6107c361249f565b005b610811600480360360408110156107db57600080fd5b81019080803573ffffffffffffffffffffffffffffffffffffffff1690602001909291908035906020019092919050505061271b565b604051808215151515815260200191505060405180910390f35b6108776004803603604081101561084157600080fd5b81019080803573ffffffffffffffffffffffffffffffffffffffff169060200190929190803590602001909291905050506127e8565b604051808215151515815260200191505060405180910390f35b610899612806565b604051808473ffffffffffffffffffffffffffffffffffffffff1673ffffffffffffffffffffffffffffffffffffffff1681526020018373ffffffffffffffffffffffffffffffffffffffff1673ffffffffffffffffffffffffffffffffffffffff1681526020018273ffffffffffffffffffffffffffffffffffffffff1673ffffffffffffffffffffffffffffffffffffffff168152602001935050505060405180910390f35b6109836004803603602081101561095757600080fd5b81019080803573ffffffffffffffffffffffffffffffffffffffff169060200190929190505050612885565b005b61098d61298c565b604051808273ffffffffffffffffffffffffffffffffffffffff1673ffffffffffffffffffffffffffffffffffffffff16815260200191505060405180910390f35b6109d76129b2565b6040518082815260200191505060405180910390f35b610a2f60048036036020811015610a0357600080fd5b81019080803573ffffffffffffffffffffffffffffffffffffffff1690602001909291905050506129b8565b60405180848152602001838152602001828152602001935050505060405180910390f35b610a5b61315e565b604051808773ffffffffffffffffffffffffffffffffffffffff1673ffffffffffffffffffffffffffffffffffffffff1681526020018673ffffffffffffffffffffffffffffffffffffffff1673ffffffffffffffffffffffffffffffffffffffff1681526020018573ffffffffffffffffffffffffffffffffffffffff1673ffffffffffffffffffffffffffffffffffffffff168152602001848152602001838152602001828152602001965050505050505060405180910390f35b610b7a60048036036040811015610b2e57600080fd5b81019080803573ffffffffffffffffffffffffffffffffffffffff169060200190929190803573ffffffffffffffffffffffffffffffffffffffff169060200190929190505050613299565b6040518082815260200191505060405180910390f35b610b98613320565b6040518082815260200191505060405180910390f35b610bb661332d565b6040518082815260200191505060405180910390f35b610bd4613333565b6040518082815260200191505060405180910390f35b610c8b60048036036060811015610c0057600080fd5b81019080803573ffffffffffffffffffffffffffffffffffffffff1690602001909291908035906020019092919080359060200190640100000000811115610c4757600080fd5b820183602082011115610c5957600080fd5b80359060200191846001830284011164010000000083111715610c7b57600080fd5b9091929391929390505050613339565b604051808381526020018281526020019250505060405180910390f35b60068060000160009054906101000a900473ffffffffffffffffffffffffffffffffffffffff16908060010160009054906101000a900473ffffffffffffffffffffffffffffffffffffffff16908060020154908060030154908060040154905085565b606060038054600181600116156101000203166002900480601f016020809104026020016040519081016040528092919081815260200182805460018160011615610100020316600290048015610da45780601f10610d7957610100808354040283529160200191610da4565b820191906000526020600020905b815481529060010190602001808311610d8757829003601f168201915b5050505050905090565b6000600660010160009054906101000a900473ffffffffffffffffffffffffffffffffffffffff16905090565b6000610def610de8613c5a565b8484613c62565b6001905092915050565b600560019054906101000a900460ff16610e7b576040517f08c379a000000000000000000000000000000000000000000000000000000000815260040180806020018281038252601f8152602001807f5265656e7472616e637947756172643a207265656e7472616e742063616c6c0081525060200191505060405180910390fd5b6000600560016101000a81548160ff0219169083151502179055506000806000610ea3612806565b9250925092508273ffffffffffffffffffffffffffffffffffffffff1663a9059cbb33610f92600b548773ffffffffffffffffffffffffffffffffffffffff166370a08231306040518263ffffffff1660e01b8152600401808273ffffffffffffffffffffffffffffffffffffffff1673ffffffffffffffffffffffffffffffffffffffff16815260200191505060206040518083038186803b158015610f4957600080fd5b505afa158015610f5d573d6000803e3d6000fd5b505050506040513d6020811015610f7357600080fd5b8101908080519060200190929190505050613e5990919063ffffffff16565b6040518363ffffffff1660e01b8152600401808373ffffffffffffffffffffffffffffffffffffffff1673ffffffffffffffffffffffffffffffffffffffff16815260200182815260200192505050602060405180830381600087803b158015610ffb57600080fd5b505af115801561100f573d6000803e3d6000fd5b505050506040513d602081101561102557600080fd5b8101908080519060200190929190505050508173ffffffffffffffffffffffffffffffffffffffff1663a9059cbb33611120600c548673ffffffffffffffffffffffffffffffffffffffff166370a08231306040518263ffffffff1660e01b8152600401808273ffffffffffffffffffffffffffffffffffffffff1673ffffffffffffffffffffffffffffffffffffffff16815260200191505060206040518083038186803b1580156110d757600080fd5b505afa1580156110eb573d6000803e3d6000fd5b505050506040513d602081101561110157600080fd5b8101908080519060200190929190505050613e5990919063ffffffff16565b6040518363ffffffff1660e01b8152600401808373ffffffffffffffffffffffffffffffffffffffff1673ffffffffffffffffffffffffffffffffffffffff16815260200182815260200192505050602060405180830381600087803b15801561118957600080fd5b505af115801561119d573d6000803e3d6000fd5b505050506040513d60208110156111b357600080fd5b8101908080519060200190929190505050508073ffffffffffffffffffffffffffffffffffffffff1663a9059cbb338373ffffffffffffffffffffffffffffffffffffffff166370a08231306040518263ffffffff1660e01b8152600401808273ffffffffffffffffffffffffffffffffffffffff1673ffffffffffffffffffffffffffffffffffffffff16815260200191505060206040518083038186803b15801561125f57600080fd5b505afa158015611273573d6000803e3d6000fd5b505050506040513d602081101561128957600080fd5b81019080805190602001909291905050506040518363ffffffff1660e01b8152600401808373ffffffffffffffffffffffffffffffffffffffff1673ffffffffffffffffffffffffffffffffffffffff16815260200182815260200192505050602060405180830381600087803b15801561130357600080fd5b505af1158015611317573d6000803e3d6000fd5b505050506040513d602081101561132d57600080fd5b8101908080519060200190929190505050503073ffffffffffffffffffffffffffffffffffffffff1663a9059cbb333073ffffffffffffffffffffffffffffffffffffffff166370a08231306040518263ffffffff1660e01b8152600401808273ffffffffffffffffffffffffffffffffffffffff1673ffffffffffffffffffffffffffffffffffffffff16815260200191505060206040518083038186803b1580156113d957600080fd5b505afa1580156113ed573d6000803e3d6000fd5b505050506040513d602081101561140357600080fd5b81019080805190602001909291905050506040518363ffffffff1660e01b8152600401808373ffffffffffffffffffffffffffffffffffffffff1673ffffffffffffffffffffffffffffffffffffffff16815260200182815260200192505050602060405180830381600087803b15801561147d57600080fd5b505af1158015611491573d6000803e3d6000fd5b505050506040513d60208110156114a757600080fd5b8101908080519060200190929190505050505050506001600560016101000a81548160ff021916908315150217905550565b6000600254905090565b60006114f0848484613ea3565b6115b1846114fc613c5a565b6115ac85604051806060016040528060288152602001614b4060289139600160008b73ffffffffffffffffffffffffffffffffffffffff1673ffffffffffffffffffffffffffffffffffffffff1681526020019081526020016000206000611562613c5a565b73ffffffffffffffffffffffffffffffffffffffff1673ffffffffffffffffffffffffffffffffffffffff168152602001908152602001600020546141649092919063ffffffff16565b613c62565b600190509392505050565b6000600560009054906101000a900460ff16905090565b600061167c6115e0613c5a565b8461167785600160006115f1613c5a565b73ffffffffffffffffffffffffffffffffffffffff1673ffffffffffffffffffffffffffffffffffffffff16815260200190815260200160002060008973ffffffffffffffffffffffffffffffffffffffff1673ffffffffffffffffffffffffffffffffffffffff1681526020019081526020016000205461422490919063ffffffff16565b613c62565b6001905092915050565b600e60009054906101000a900473ffffffffffffffffffffffffffffffffffffffff1673ffffffffffffffffffffffffffffffffffffffff163373ffffffffffffffffffffffffffffffffffffffff1614611749576040517f08c379a000000000000000000000000000000000000000000000000000000000815260040180806020018281038252600d8152602001807f4552525f4e4f545f4f574e45520000000000000000000000000000000000000081525060200191505060405180910390fd5b6117516117a7565b6117625761175d6142ac565b61176b565b61176a6143b6565b5b565b6000600660000160009054906101000a900473ffffffffffffffffffffffffffffffffffffffff16905090565b6000600660020154905090565b6000600560029054906101000a900460ff16905090565b600d60009054906101000a900473ffffffffffffffffffffffffffffffffffffffff1681565b600080600560019054906101000a900460ff16611869576040517f08c379a000000000000000000000000000000000000000000000000000000000815260040180806020018281038252601f8152602001807f5265656e7472616e637947756172643a207265656e7472616e742063616c6c0081525060200191505060405180910390fd5b6000600560016101000a81548160ff0219169083151502179055504260066004015410156118ff576040517f08c379a000000000000000000000000000000000000000000000000000000000815260040180806020018281038252600b8152602001807f4552525f4558504952454400000000000000000000000000000000000000000081525060200191505060405180910390fd5b600560029054906101000a900460ff1615611982576040517f08c379a00000000000000000000000000000000000000000000000000000000081526004018080602001828103825260108152602001807f5061757361626c653a207061757365640000000000000000000000000000000081525060200191505060405180910390fd5b6000600660000160009054906101000a900473ffffffffffffffffffffffffffffffffffffffff1673ffffffffffffffffffffffffffffffffffffffff166370a08231306040518263ffffffff1660e01b8152600401808273ffffffffffffffffffffffffffffffffffffffff1673ffffffffffffffffffffffffffffffffffffffff16815260200191505060206040518083038186803b158015611a2657600080fd5b505afa158015611a3a573d6000803e3d6000fd5b505050506040513d6020811015611a5057600080fd5b810190808051906020019092919050505090506000600660020154905060006006600301549050611a8c600b5484613e5990919063ffffffff16565b9450611ab382611aa583886144bf90919063ffffffff16565b61454590919063ffffffff16565b935060008411611b2b576040517f08c379a00000000000000000000000000000000000000000000000000000000081526004018080602001828103825260088152602001807f4552525f5a45524f00000000000000000000000000000000000000000000000081525060200191505060405180910390fd5b600d60009054906101000a900473ffffffffffffffffffffffffffffffffffffffff1673ffffffffffffffffffffffffffffffffffffffff166340c10f1987866040518363ffffffff1660e01b8152600401808373ffffffffffffffffffffffffffffffffffffffff1673ffffffffffffffffffffffffffffffffffffffff16815260200182815260200192505050600060405180830381600087803b158015611bd457600080fd5b505af1158015611be8573d6000803e3d6000fd5b50505050611bf6868661458f565b611c0283600c54614756565b8573ffffffffffffffffffffffffffffffffffffffff167f4c209b5fc8ad50758f13e2e1088ba56a560dff690a1c6fef26394f4c03821c4f8686604051808381526020018281526020019250505060405180910390a25050506001600560016101000a81548160ff021916908315150217905550915091565b60008060008373ffffffffffffffffffffffffffffffffffffffff1673ffffffffffffffffffffffffffffffffffffffff168152602001908152602001600020549050919050565b6000600560019054906101000a900460ff16611d47576040517f08c379a000000000000000000000000000000000000000000000000000000000815260040180806020018281038252601f8152602001807f5265656e7472616e637947756172643a207265656e7472616e742063616c6c0081525060200191505060405180910390fd5b6000600560016101000a81548160ff0219169083151502179055506000600660010160009054906101000a900473ffffffffffffffffffffffffffffffffffffffff1690506000600d60009054906101000a900473ffffffffffffffffffffffffffffffffffffffff16905060008273ffffffffffffffffffffffffffffffffffffffff166370a08231306040518263ffffffff1660e01b8152600401808273ffffffffffffffffffffffffffffffffffffffff1673ffffffffffffffffffffffffffffffffffffffff16815260200191505060206040518083038186803b158015611e3257600080fd5b505afa158015611e46573d6000803e3d6000fd5b505050506040513d6020811015611e5c57600080fd5b8101908080519060200190929190505050905060008273ffffffffffffffffffffffffffffffffffffffff166370a08231306040518263ffffffff1660e01b8152600401808273ffffffffffffffffffffffffffffffffffffffff1673ffffffffffffffffffffffffffffffffffffffff16815260200191505060206040518083038186803b158015611eee57600080fd5b505afa158015611f02573d6000803e3d6000fd5b505050506040513d6020811015611f1857600080fd5b8101908080519060200190929190505050905080945060008511611fa4576040517f08c379a00000000000000000000000000000000000000000000000000000000081526004018080602001828103825260088152602001807f4552525f5a45524f00000000000000000000000000000000000000000000000081525060200191505060405180910390fd5b8482101561201a576040517f08c379a000000000000000000000000000000000000000000000000000000000815260040180806020018281038252600e8152602001807f4552525f42414c5f535452494b4500000000000000000000000000000000000081525060200191505060405180910390fd5b8273ffffffffffffffffffffffffffffffffffffffff16639dc29fac30876040518363ffffffff1660e01b8152600401808373ffffffffffffffffffffffffffffffffffffffff1673ffffffffffffffffffffffffffffffffffffffff16815260200182815260200192505050600060405180830381600087803b1580156120a157600080fd5b505af11580156120b5573d6000803e3d6000fd5b505050508373ffffffffffffffffffffffffffffffffffffffff1663a9059cbb87876040518363ffffffff1660e01b8152600401808373ffffffffffffffffffffffffffffffffffffffff1673ffffffffffffffffffffffffffffffffffffffff16815260200182815260200192505050602060405180830381600087803b15801561214057600080fd5b505af1158015612154573d6000803e3d6000fd5b505050506040513d602081101561216a57600080fd5b81019080805190602001909291905050506121ed576040517f08c379a00000000000000000000000000000000000000000000000000000000081526004018080602001828103825260158152602001807f4552525f5452414e534645525f4f55545f4641494c000000000000000000000081525060200191505060405180910390fd5b8373ffffffffffffffffffffffffffffffffffffffff166370a08231306040518263ffffffff1660e01b8152600401808273ffffffffffffffffffffffffffffffffffffffff1673ffffffffffffffffffffffffffffffffffffffff16815260200191505060206040518083038186803b15801561226a57600080fd5b505afa15801561227e573d6000803e3d6000fd5b505050506040513d602081101561229457600080fd5b810190808051906020019092919050505091508273ffffffffffffffffffffffffffffffffffffffff166370a08231306040518263ffffffff1660e01b8152600401808273ffffffffffffffffffffffffffffffffffffffff1673ffffffffffffffffffffffffffffffffffffffff16815260200191505060206040518083038186803b15801561232457600080fd5b505afa158015612338573d6000803e3d6000fd5b505050506040513d602081101561234e57600080fd5b8101908080519060200190929190505050905061236d600b5483614756565b8573ffffffffffffffffffffffffffffffffffffffff167f222838db2794d11532d940e8dec38ae307ed0b63cd97c233322e221f998767a6866040518082815260200191505060405180910390a2505050506001600560016101000a81548160ff021916908315150217905550919050565b606060048054600181600116156101000203166002900480601f0160208091040260200160405190810160405280929190818152602001828054600181600116156101000203166002900480156124775780601f1061244c57610100808354040283529160200191612477565b820191906000526020600020905b81548152906001019060200180831161245a57829003601f168201915b5050505050905090565b600080600b549150600c5490509091565b6000600660030154905090565b600560019054906101000a900460ff16612521576040517f08c379a000000000000000000000000000000000000000000000000000000000815260040180806020018281038252601f8152602001807f5265656e7472616e637947756172643a207265656e7472616e742063616c6c0081525060200191505060405180910390fd5b6000600560016101000a81548160ff0219169083151502179055506126fe600660000160009054906101000a900473ffffffffffffffffffffffffffffffffffffffff1673ffffffffffffffffffffffffffffffffffffffff166370a08231306040518263ffffffff1660e01b8152600401808273ffffffffffffffffffffffffffffffffffffffff1673ffffffffffffffffffffffffffffffffffffffff16815260200191505060206040518083038186803b1580156125e157600080fd5b505afa1580156125f5573d6000803e3d6000fd5b505050506040513d602081101561260b57600080fd5b8101908080519060200190929190505050600660010160009054906101000a900473ffffffffffffffffffffffffffffffffffffffff1673ffffffffffffffffffffffffffffffffffffffff166370a08231306040518263ffffffff1660e01b8152600401808273ffffffffffffffffffffffffffffffffffffffff1673ffffffffffffffffffffffffffffffffffffffff16815260200191505060206040518083038186803b1580156126be57600080fd5b505afa1580156126d2573d6000803e3d6000fd5b505050506040513d60208110156126e857600080fd5b8101908080519060200190929190505050614756565b6001600560016101000a81548160ff021916908315150217905550565b60006127de612728613c5a565b846127d985604051806060016040528060258152602001614bd26025913960016000612752613c5a565b73ffffffffffffffffffffffffffffffffffffffff1673ffffffffffffffffffffffffffffffffffffffff16815260200190815260200160002060008a73ffffffffffffffffffffffffffffffffffffffff1673ffffffffffffffffffffffffffffffffffffffff168152602001908152602001600020546141649092919063ffffffff16565b613c62565b6001905092915050565b60006127fc6127f5613c5a565b8484613ea3565b6001905092915050565b6000806000600660000160009054906101000a900473ffffffffffffffffffffffffffffffffffffffff169250600660010160009054906101000a900473ffffffffffffffffffffffffffffffffffffffff169150600d60009054906101000a900473ffffffffffffffffffffffffffffffffffffffff169050909192565b600e60009054906101000a900473ffffffffffffffffffffffffffffffffffffffff1673ffffffffffffffffffffffffffffffffffffffff163373ffffffffffffffffffffffffffffffffffffffff1614612948576040517f08c379a000000000000000000000000000000000000000000000000000000000815260040180806020018281038252600d8152602001807f4552525f4e4f545f4f574e45520000000000000000000000000000000000000081525060200191505060405180910390fd5b80600d60006101000a81548173ffffffffffffffffffffffffffffffffffffffff021916908373ffffffffffffffffffffffffffffffffffffffff16021790555050565b600e60009054906101000a900473ffffffffffffffffffffffffffffffffffffffff1681565b6103e881565b6000806000600560019054906101000a900460ff16612a3f576040517f08c379a000000000000000000000000000000000000000000000000000000000815260040180806020018281038252601f8152602001807f5265656e7472616e637947756172643a207265656e7472616e742063616c6c0081525060200191505060405180910390fd5b6000600560016101000a81548160ff0219169083151502179055506000600660000160009054906101000a900473ffffffffffffffffffffffffffffffffffffffff1690506000600d60009054906101000a900473ffffffffffffffffffffffffffffffffffffffff16905060008273ffffffffffffffffffffffffffffffffffffffff166370a08231306040518263ffffffff1660e01b8152600401808273ffffffffffffffffffffffffffffffffffffffff1673ffffffffffffffffffffffffffffffffffffffff16815260200191505060206040518083038186803b158015612b2a57600080fd5b505afa158015612b3e573d6000803e3d6000fd5b505050506040513d6020811015612b5457600080fd5b8101908080519060200190929190505050905060008273ffffffffffffffffffffffffffffffffffffffff166370a08231306040518263ffffffff1660e01b8152600401808273ffffffffffffffffffffffffffffffffffffffff1673ffffffffffffffffffffffffffffffffffffffff16815260200191505060206040518083038186803b158015612be657600080fd5b505afa158015612bfa573d6000803e3d6000fd5b505050506040513d6020811015612c1057600080fd5b810190808051906020019092919050505090506000612c2e30611c7b565b9050819750612c62600660030154612c546006600201548b6144bf90919063ffffffff16565b61454590919063ffffffff16565b95504260066004015411612c765785612c78565b805b9650600088118015612c8a5750600087115b612cfc576040517f08c379a00000000000000000000000000000000000000000000000000000000081526004018080602001828103825260088152602001807f4552525f5a45524f00000000000000000000000000000000000000000000000081525060200191505060405180910390fd5b858710158015612d0c5750858310155b612d7e576040517f08c379a00000000000000000000000000000000000000000000000000000000081526004018080602001828103825260128152602001807f4552525f42414c5f554e4445524c59494e47000000000000000000000000000081525060200191505060405180910390fd5b426006600401541115612d9657612d9530886147a7565b5b8373ffffffffffffffffffffffffffffffffffffffff16639dc29fac308a6040518363ffffffff1660e01b8152600401808373ffffffffffffffffffffffffffffffffffffffff1673ffffffffffffffffffffffffffffffffffffffff16815260200182815260200192505050600060405180830381600087803b158015612e1d57600080fd5b505af1158015612e31573d6000803e3d6000fd5b505050508473ffffffffffffffffffffffffffffffffffffffff1663a9059cbb8a886040518363ffffffff1660e01b8152600401808373ffffffffffffffffffffffffffffffffffffffff1673ffffffffffffffffffffffffffffffffffffffff16815260200182815260200192505050602060405180830381600087803b158015612ebc57600080fd5b505af1158015612ed0573d6000803e3d6000fd5b505050506040513d6020811015612ee657600080fd5b8101908080519060200190929190505050612f69576040517f08c379a00000000000000000000000000000000000000000000000000000000081526004018080602001828103825260158152602001807f4552525f5452414e534645525f4f55545f4641494c000000000000000000000081525060200191505060405180910390fd5b8473ffffffffffffffffffffffffffffffffffffffff166370a08231306040518263ffffffff1660e01b8152600401808273ffffffffffffffffffffffffffffffffffffffff1673ffffffffffffffffffffffffffffffffffffffff16815260200191505060206040518083038186803b158015612fe657600080fd5b505afa158015612ffa573d6000803e3d6000fd5b505050506040513d602081101561301057600080fd5b810190808051906020019092919050505092508373ffffffffffffffffffffffffffffffffffffffff166370a08231306040518263ffffffff1660e01b8152600401808273ffffffffffffffffffffffffffffffffffffffff1673ffffffffffffffffffffffffffffffffffffffff16815260200191505060206040518083038186803b1580156130a057600080fd5b505afa1580156130b4573d6000803e3d6000fd5b505050506040513d60208110156130ca57600080fd5b810190808051906020019092919050505091506130e983600c54614756565b8873ffffffffffffffffffffffffffffffffffffffff167f684222b0069d4a2e5e0d986611cc5182d543904c4e4264bf770d4e51faefc822876040518082815260200191505060405180910390a250505050506001600560016101000a81548160ff0219169083151502179055509193909250565b60008060008060008061316f614a36565b60066040518060a00160405290816000820160009054906101000a900473ffffffffffffffffffffffffffffffffffffffff1673ffffffffffffffffffffffffffffffffffffffff1673ffffffffffffffffffffffffffffffffffffffff1681526020016001820160009054906101000a900473ffffffffffffffffffffffffffffffffffffffff1673ffffffffffffffffffffffffffffffffffffffff1673ffffffffffffffffffffffffffffffffffffffff168152602001600282015481526020016003820154815260200160048201548152505090508060000151965080602001519550600d60009054906101000a900473ffffffffffffffffffffffffffffffffffffffff16945080604001519350806060015192508060800151915050909192939495565b6000600160008473ffffffffffffffffffffffffffffffffffffffff1673ffffffffffffffffffffffffffffffffffffffff16815260200190815260200160002060008373ffffffffffffffffffffffffffffffffffffffff1673ffffffffffffffffffffffffffffffffffffffff16815260200190815260200160002054905092915050565b6000600660040154905090565b600c5481565b600b5481565b600080600560019054906101000a900460ff166133be576040517f08c379a000000000000000000000000000000000000000000000000000000000815260040180806020018281038252601f8152602001807f5265656e7472616e637947756172643a207265656e7472616e742063616c6c0081525060200191505060405180910390fd5b6000600560016101000a81548160ff021916908315150217905550426006600401541015613454576040517f08c379a000000000000000000000000000000000000000000000000000000000815260040180806020018281038252600b8152602001807f4552525f4558504952454400000000000000000000000000000000000000000081525060200191505060405180910390fd5b600560029054906101000a900460ff16156134d7576040517f08c379a00000000000000000000000000000000000000000000000000000000081526004018080602001828103825260108152602001807f5061757361626c653a207061757365640000000000000000000000000000000081525060200191505060405180910390fd5b6000600660000160009054906101000a900473ffffffffffffffffffffffffffffffffffffffff16905060008061350c612481565b9150915060008811613586576040517f08c379a00000000000000000000000000000000000000000000000000000000081526004018080602001828103825260088152602001807f4552525f5a45524f00000000000000000000000000000000000000000000000081525060200191505060405180910390fd5b878373ffffffffffffffffffffffffffffffffffffffff166370a08231306040518263ffffffff1660e01b8152600401808273ffffffffffffffffffffffffffffffffffffffff1673ffffffffffffffffffffffffffffffffffffffff16815260200191505060206040518083038186803b15801561360457600080fd5b505afa158015613618573d6000803e3d6000fd5b505050506040513d602081101561362e57600080fd5b810190808051906020019092919050505010156136b3576040517f08c379a00000000000000000000000000000000000000000000000000000000081526004018080602001828103825260128152602001807f4552525f42414c5f554e4445524c59494e47000000000000000000000000000081525060200191505060405180910390fd5b8273ffffffffffffffffffffffffffffffffffffffff1663a9059cbb8a8a6040518363ffffffff1660e01b8152600401808373ffffffffffffffffffffffffffffffffffffffff1673ffffffffffffffffffffffffffffffffffffffff16815260200182815260200192505050602060405180830381600087803b15801561373a57600080fd5b505af115801561374e573d6000803e3d6000fd5b505050506040513d602081101561376457600080fd5b8101908080519060200190929190505050506000878790501115613856578873ffffffffffffffffffffffffffffffffffffffff16636511d2758a8a8a8a6040518563ffffffff1660e01b8152600401808573ffffffffffffffffffffffffffffffffffffffff1673ffffffffffffffffffffffffffffffffffffffff168152602001848152602001806020018281038252848482818152602001925080828437600081840152601f19601f82011690508083019250505095505050505050600060405180830381600087803b15801561383d57600080fd5b505af1158015613851573d6000803e3d6000fd5b505050505b6000600660010160009054906101000a900473ffffffffffffffffffffffffffffffffffffffff1673ffffffffffffffffffffffffffffffffffffffff166370a08231306040518263ffffffff1660e01b8152600401808273ffffffffffffffffffffffffffffffffffffffff1673ffffffffffffffffffffffffffffffffffffffff16815260200191505060206040518083038186803b1580156138fa57600080fd5b505afa15801561390e573d6000803e3d6000fd5b505050506040513d602081101561392457600080fd5b8101908080519060200190929190505050905060008473ffffffffffffffffffffffffffffffffffffffff166370a08231306040518263ffffffff1660e01b8152600401808273ffffffffffffffffffffffffffffffffffffffff1673ffffffffffffffffffffffffffffffffffffffff16815260200191505060206040518083038186803b1580156139b657600080fd5b505afa1580156139ca573d6000803e3d6000fd5b505050506040513d60208110156139e057600080fd5b81019080805190602001909291905050509050613a068383613e5990919063ffffffff16565b96506000613a2f613a208c87613e5990919063ffffffff16565b83613e5990919063ffffffff16565b90506000881180613a405750600081115b613ab2576040517f08c379a00000000000000000000000000000000000000000000000000000000081526004018080602001828103825260088152602001807f4552525f5a45524f00000000000000000000000000000000000000000000000081525060200191505060405180910390fd5b6000613ac96103e88d61454590919063ffffffff16565b905060008c8311613aec57613ae7838e613e5990919063ffffffff16565b613aef565b60005b90506000613b34600660020154613b26600660030154613b18878761422490919063ffffffff16565b6144bf90919063ffffffff16565b61454590919063ffffffff16565b9050613b3f30611c7b565b9950808b10158015613b515750818a10155b613bc3576040517f08c379a000000000000000000000000000000000000000000000000000000000815260040180806020018281038252600d8152602001807f4552525f42414c5f494e5055540000000000000000000000000000000000000081525060200191505060405180910390fd5b613bcd308b6147a7565b613bd78587614756565b8e73ffffffffffffffffffffffffffffffffffffffff167f7fb8af33a94ca7bd709d59757a015eb48270f350724a5409fd77b579d0b7247d8f8d604051808381526020018281526020019250505060405180910390a25050505050505050506001600560016101000a81548160ff02191690831515021790555094509492505050565b600033905090565b600073ffffffffffffffffffffffffffffffffffffffff168373ffffffffffffffffffffffffffffffffffffffff161415613ce8576040517f08c379a0000000000000000000000000000000000000000000000000000000008152600401808060200182810382526024815260200180614bae6024913960400191505060405180910390fd5b600073ffffffffffffffffffffffffffffffffffffffff168273ffffffffffffffffffffffffffffffffffffffff161415613d6e576040517f08c379a0000000000000000000000000000000000000000000000000000000008152600401808060200182810382526022815260200180614ad76022913960400191505060405180910390fd5b80600160008573ffffffffffffffffffffffffffffffffffffffff1673ffffffffffffffffffffffffffffffffffffffff16815260200190815260200160002060008473ffffffffffffffffffffffffffffffffffffffff1673ffffffffffffffffffffffffffffffffffffffff168152602001908152602001600020819055508173ffffffffffffffffffffffffffffffffffffffff168373ffffffffffffffffffffffffffffffffffffffff167f8c5be1e5ebec7d5bd14f71427d1e84f3dd0314c0f7b2291e5b200ac8c7c3b925836040518082815260200191505060405180910390a3505050565b6000613e9b83836040518060400160405280601e81526020017f536166654d6174683a207375627472616374696f6e206f766572666c6f770000815250614164565b905092915050565b600073ffffffffffffffffffffffffffffffffffffffff168373ffffffffffffffffffffffffffffffffffffffff161415613f29576040517f08c379a0000000000000000000000000000000000000000000000000000000008152600401808060200182810382526025815260200180614b896025913960400191505060405180910390fd5b600073ffffffffffffffffffffffffffffffffffffffff168273ffffffffffffffffffffffffffffffffffffffff161415613faf576040517f08c379a0000000000000000000000000000000000000000000000000000000008152600401808060200182810382526023815260200180614a926023913960400191505060405180910390fd5b613fba83838361496b565b61402581604051806060016040528060268152602001614af9602691396000808773ffffffffffffffffffffffffffffffffffffffff1673ffffffffffffffffffffffffffffffffffffffff168152602001908152602001600020546141649092919063ffffffff16565b6000808573ffffffffffffffffffffffffffffffffffffffff1673ffffffffffffffffffffffffffffffffffffffff168152602001908152602001600020819055506140b8816000808573ffffffffffffffffffffffffffffffffffffffff1673ffffffffffffffffffffffffffffffffffffffff1681526020019081526020016000205461422490919063ffffffff16565b6000808473ffffffffffffffffffffffffffffffffffffffff1673ffffffffffffffffffffffffffffffffffffffff168152602001908152602001600020819055508173ffffffffffffffffffffffffffffffffffffffff168373ffffffffffffffffffffffffffffffffffffffff167fddf252ad1be2c89b69c2b068fc378daa952ba7f163c4a11628f55a4df523b3ef836040518082815260200191505060405180910390a3505050565b6000838311158290614211576040517f08c379a00000000000000000000000000000000000000000000000000000000081526004018080602001828103825283818151815260200191508051906020019080838360005b838110156141d65780820151818401526020810190506141bb565b50505050905090810190601f1680156142035780820380516001836020036101000a031916815260200191505b509250505060405180910390fd5b5060008385039050809150509392505050565b6000808284019050838110156142a2576040517f08c379a000000000000000000000000000000000000000000000000000000000815260040180806020018281038252601b8152602001807f536166654d6174683a206164646974696f6e206f766572666c6f77000000000081525060200191505060405180910390fd5b8091505092915050565b600560029054906101000a900460ff161561432f576040517f08c379a00000000000000000000000000000000000000000000000000000000081526004018080602001828103825260108152602001807f5061757361626c653a207061757365640000000000000000000000000000000081525060200191505060405180910390fd5b6001600560026101000a81548160ff0219169083151502179055507f62e78cea01bee320cd4e420270b5ea74000d11b0c9f74754ebdbfc544b05a258614373613c5a565b604051808273ffffffffffffffffffffffffffffffffffffffff1673ffffffffffffffffffffffffffffffffffffffff16815260200191505060405180910390a1565b600560029054906101000a900460ff16614438576040517f08c379a00000000000000000000000000000000000000000000000000000000081526004018080602001828103825260148152602001807f5061757361626c653a206e6f742070617573656400000000000000000000000081525060200191505060405180910390fd5b6000600560026101000a81548160ff0219169083151502179055507f5db9ee0a495bf2e6ff9c91a7834c1ba4fdd244a5e8aa4e537bd38aeae4b073aa61447c613c5a565b604051808273ffffffffffffffffffffffffffffffffffffffff1673ffffffffffffffffffffffffffffffffffffffff16815260200191505060405180910390a1565b6000808314156144d2576000905061453f565b60008284029050828482816144e357fe5b041461453a576040517f08c379a0000000000000000000000000000000000000000000000000000000008152600401808060200182810382526021815260200180614b1f6021913960400191505060405180910390fd5b809150505b92915050565b600061458783836040518060400160405280601a81526020017f536166654d6174683a206469766973696f6e206279207a65726f000000000000815250614970565b905092915050565b600073ffffffffffffffffffffffffffffffffffffffff168273ffffffffffffffffffffffffffffffffffffffff161415614632576040517f08c379a000000000000000000000000000000000000000000000000000000000815260040180806020018281038252601f8152602001807f45524332303a206d696e7420746f20746865207a65726f20616464726573730081525060200191505060405180910390fd5b61463e6000838361496b565b6146538160025461422490919063ffffffff16565b6002819055506146aa816000808573ffffffffffffffffffffffffffffffffffffffff1673ffffffffffffffffffffffffffffffffffffffff1681526020019081526020016000205461422490919063ffffffff16565b6000808473ffffffffffffffffffffffffffffffffffffffff1673ffffffffffffffffffffffffffffffffffffffff168152602001908152602001600020819055508173ffffffffffffffffffffffffffffffffffffffff16600073ffffffffffffffffffffffffffffffffffffffff167fddf252ad1be2c89b69c2b068fc378daa952ba7f163c4a11628f55a4df523b3ef836040518082815260200191505060405180910390a35050565b81600b8190555080600c819055507fe10598fa0628b6878df33dddd270fc68abc6bc5b8b864e07ac2d9313cf31043e8282604051808381526020018281526020019250505060405180910390a15050565b600073ffffffffffffffffffffffffffffffffffffffff168273ffffffffffffffffffffffffffffffffffffffff16141561482d576040517f08c379a0000000000000000000000000000000000000000000000000000000008152600401808060200182810382526021815260200180614b686021913960400191505060405180910390fd5b6148398260008361496b565b6148a481604051806060016040528060228152602001614ab5602291396000808673ffffffffffffffffffffffffffffffffffffffff1673ffffffffffffffffffffffffffffffffffffffff168152602001908152602001600020546141649092919063ffffffff16565b6000808473ffffffffffffffffffffffffffffffffffffffff1673ffffffffffffffffffffffffffffffffffffffff168152602001908152602001600020819055506148fb81600254613e5990919063ffffffff16565b600281905550600073ffffffffffffffffffffffffffffffffffffffff168273ffffffffffffffffffffffffffffffffffffffff167fddf252ad1be2c89b69c2b068fc378daa952ba7f163c4a11628f55a4df523b3ef836040518082815260200191505060405180910390a35050565b505050565b60008083118290614a1c576040517f08c379a00000000000000000000000000000000000000000000000000000000081526004018080602001828103825283818151815260200191508051906020019080838360005b838110156149e15780820151818401526020810190506149c6565b50505050905090810190601f168015614a0e5780820380516001836020036101000a031916815260200191505b509250505060405180910390fd5b506000838581614a2857fe5b049050809150509392505050565b6040518060a00160405280600073ffffffffffffffffffffffffffffffffffffffff168152602001600073ffffffffffffffffffffffffffffffffffffffff168152602001600081526020016000815260200160008152509056fe45524332303a207472616e7366657220746f20746865207a65726f206164647265737345524332303a206275726e20616d6f756e7420657863656564732062616c616e636545524332303a20617070726f766520746f20746865207a65726f206164647265737345524332303a207472616e7366657220616d6f756e7420657863656564732062616c616e6365536166654d6174683a206d756c7469706c69636174696f6e206f766572666c6f7745524332303a207472616e7366657220616d6f756e74206578636565647320616c6c6f77616e636545524332303a206275726e2066726f6d20746865207a65726f206164647265737345524332303a207472616e736665722066726f6d20746865207a65726f206164647265737345524332303a20617070726f76652066726f6d20746865207a65726f206164647265737345524332303a2064656372656173656420616c6c6f77616e63652062656c6f77207a65726fa2646970667358221220915635fb0a0ec83ba953ea06fe034e7bda07ee4462f06620d770160ab604b9ef64736f6c634300060200334f776e61626c653a206e6577206f776e657220697320746865207a65726f2061646472657373a2646970667358221220e4e938767045c530b8ce90b6766ee8f425492503d99b4469025b316d9f7b414064736f6c634300060200334f776e61626c653a206e6577206f776e657220697320746865207a65726f2061646472657373"
}