{
  "abi": [
    {
      "inputs": [
        {
          "internalType": "address",
          "name": "router_",
          "type": "address"
        },
        {
          "internalType": "address",
          "name": "factory_",
          "type": "address"
        },
        {
          "internalType": "address",
          "name": "trader_",
          "type": "address"
        }
      ],
      "stateMutability": "nonpayable",
      "type": "constructor"
    },
    {
      "anonymous": false,
      "inputs": [
        {
          "indexed": true,
          "internalType": "address",
          "name": "from",
          "type": "address"
        },
        {
          "indexed": false,
          "internalType": "uint256",
          "name": "quantity",
          "type": "uint256"
        },
        {
          "indexed": false,
          "internalType": "uint256",
          "name": "payout",
          "type": "uint256"
        }
      ],
      "name": "FlashClosed",
      "type": "event"
    },
    {
      "anonymous": false,
      "inputs": [
        {
          "indexed": true,
          "internalType": "address",
          "name": "from",
          "type": "address"
        },
        {
          "indexed": false,
          "internalType": "uint256",
          "name": "quantity",
          "type": "uint256"
        },
        {
          "indexed": false,
          "internalType": "uint256",
          "name": "premium",
          "type": "uint256"
        }
      ],
      "name": "FlashOpened",
      "type": "event"
    },
    {
      "anonymous": false,
      "inputs": [
        {
          "indexed": true,
          "internalType": "address",
          "name": "from",
          "type": "address"
        }
      ],
      "name": "Initialized",
      "type": "event"
    },
    {
      "inputs": [
        {
          "internalType": "address",
          "name": "optionAddress",
          "type": "address"
        },
        {
          "internalType": "address",
          "name": "otherTokenAddress",
          "type": "address"
        },
        {
          "internalType": "uint256",
          "name": "quantityOptions",
          "type": "uint256"
        },
        {
          "internalType": "uint256",
          "name": "quantityOtherTokens",
          "type": "uint256"
        },
        {
          "internalType": "uint256",
          "name": "minShortTokens",
          "type": "uint256"
        },
        {
          "internalType": "uint256",
          "name": "minOtherTokens",
          "type": "uint256"
        },
        {
          "internalType": "address",
          "name": "to",
          "type": "address"
        },
        {
          "internalType": "uint256",
          "name": "deadline",
          "type": "uint256"
        }
      ],
      "name": "addShortLiquidityWithUnderlying",
      "outputs": [
        {
          "internalType": "bool",
          "name": "",
          "type": "bool"
        }
      ],
      "stateMutability": "nonpayable",
      "type": "function"
    },
    {
      "inputs": [
        {
          "internalType": "contract IOption",
          "name": "optionToken",
          "type": "address"
        },
        {
          "internalType": "uint256",
          "name": "amountRedeems",
          "type": "uint256"
        },
        {
          "internalType": "uint256",
          "name": "minPayout",
          "type": "uint256"
        }
      ],
      "name": "closeFlashLong",
      "outputs": [
        {
          "internalType": "bool",
          "name": "",
          "type": "bool"
        }
      ],
      "stateMutability": "nonpayable",
      "type": "function"
    },
    {
      "inputs": [
        {
          "internalType": "address",
          "name": "optionAddress",
          "type": "address"
        },
        {
          "internalType": "address",
          "name": "otherToken",
          "type": "address"
        }
      ],
      "name": "deployUniswapMarket",
      "outputs": [
        {
          "internalType": "address",
          "name": "",
          "type": "address"
        }
      ],
      "stateMutability": "nonpayable",
      "type": "function"
    },
    {
      "inputs": [],
      "name": "factory",
      "outputs": [
        {
          "internalType": "contract IUniswapV2Factory",
          "name": "",
          "type": "address"
        }
      ],
      "stateMutability": "view",
      "type": "function"
    },
    {
      "inputs": [
        {
          "internalType": "address",
          "name": "pairAddress",
          "type": "address"
        },
        {
          "internalType": "address",
          "name": "optionAddress",
          "type": "address"
        },
        {
          "internalType": "uint256",
          "name": "flashLoanQuantity",
          "type": "uint256"
        },
        {
          "internalType": "uint256",
          "name": "minPayout",
          "type": "uint256"
        },
        {
          "internalType": "address[]",
          "name": "path",
          "type": "address[]"
        },
        {
          "internalType": "address",
          "name": "to",
          "type": "address"
        }
      ],
      "name": "flashCloseLongOptionsThenSwap",
      "outputs": [
        {
          "internalType": "bool",
          "name": "",
          "type": "bool"
        }
      ],
      "stateMutability": "nonpayable",
      "type": "function"
    },
    {
      "inputs": [
        {
          "internalType": "address",
          "name": "pairAddress",
          "type": "address"
        },
        {
          "internalType": "address",
          "name": "optionAddress",
          "type": "address"
        },
        {
          "internalType": "uint256",
          "name": "flashLoanQuantity",
          "type": "uint256"
        },
        {
          "internalType": "uint256",
          "name": "maxPremium",
          "type": "uint256"
        },
        {
          "internalType": "address[]",
          "name": "path",
          "type": "address[]"
        },
        {
          "internalType": "address",
          "name": "to",
          "type": "address"
        }
      ],
      "name": "flashMintShortOptionsThenSwap",
      "outputs": [
        {
          "internalType": "bool",
          "name": "",
          "type": "bool"
        }
      ],
      "stateMutability": "nonpayable",
      "type": "function"
    },
    {
      "inputs": [],
      "name": "getName",
      "outputs": [
        {
          "internalType": "string",
          "name": "",
          "type": "string"
        }
      ],
      "stateMutability": "pure",
      "type": "function"
    },
    {
      "inputs": [
        {
          "internalType": "address",
          "name": "token0",
          "type": "address"
        },
        {
          "internalType": "address",
          "name": "token1",
          "type": "address"
        }
      ],
      "name": "getUniswapMarketForTokens",
      "outputs": [
        {
          "internalType": "address",
          "name": "",
          "type": "address"
        }
      ],
      "stateMutability": "view",
      "type": "function"
    },
    {
      "inputs": [],
      "name": "getVersion",
      "outputs": [
        {
          "internalType": "uint8",
          "name": "",
          "type": "uint8"
        }
      ],
      "stateMutability": "pure",
      "type": "function"
    },
    {
      "inputs": [
        {
          "internalType": "contract IOption",
          "name": "optionToken",
          "type": "address"
        },
        {
          "internalType": "uint256",
          "name": "amountIn",
          "type": "uint256"
        },
        {
          "internalType": "uint256",
          "name": "amountOutMin",
          "type": "uint256"
        },
        {
          "internalType": "address[]",
          "name": "path",
          "type": "address[]"
        },
        {
          "internalType": "address",
          "name": "to",
          "type": "address"
        },
        {
          "internalType": "uint256",
          "name": "deadline",
          "type": "uint256"
        }
      ],
      "name": "mintShortOptionsThenSwapToTokens",
      "outputs": [
        {
          "internalType": "bool",
          "name": "",
          "type": "bool"
        }
      ],
      "stateMutability": "nonpayable",
      "type": "function"
    },
    {
      "inputs": [
        {
          "internalType": "contract IOption",
          "name": "optionToken",
          "type": "address"
        },
        {
          "internalType": "uint256",
          "name": "amountOptions",
          "type": "uint256"
        },
        {
          "internalType": "uint256",
          "name": "maxPremium",
          "type": "uint256"
        }
      ],
      "name": "openFlashLong",
      "outputs": [
        {
          "internalType": "bool",
          "name": "",
          "type": "bool"
        }
      ],
      "stateMutability": "nonpayable",
      "type": "function"
    },
    {
      "inputs": [
        {
          "internalType": "address",
          "name": "optionAddress",
          "type": "address"
        },
        {
          "internalType": "address",
          "name": "otherTokenAddress",
          "type": "address"
        },
        {
          "internalType": "uint256",
          "name": "liquidity",
          "type": "uint256"
        },
        {
          "internalType": "uint256",
          "name": "amountAMin",
          "type": "uint256"
        },
        {
          "internalType": "uint256",
          "name": "amountBMin",
          "type": "uint256"
        },
        {
          "internalType": "address",
          "name": "to",
          "type": "address"
        },
        {
          "internalType": "uint256",
          "name": "deadline",
          "type": "uint256"
        }
      ],
      "name": "removeShortLiquidityThenCloseOptions",
      "outputs": [
        {
          "internalType": "uint256",
          "name": "",
          "type": "uint256"
        },
        {
          "internalType": "uint256",
          "name": "",
          "type": "uint256"
        }
      ],
      "stateMutability": "nonpayable",
      "type": "function"
    },
    {
      "inputs": [],
      "name": "router",
      "outputs": [
        {
          "internalType": "contract IUniswapV2Router02",
          "name": "",
          "type": "address"
        }
      ],
      "stateMutability": "view",
      "type": "function"
    },
    {
      "inputs": [],
      "name": "trader",
      "outputs": [
        {
          "internalType": "contract ITrader",
          "name": "",
          "type": "address"
        }
      ],
      "stateMutability": "view",
      "type": "function"
    },
    {
      "inputs": [
        {
          "internalType": "address",
          "name": "sender",
          "type": "address"
        },
        {
          "internalType": "uint256",
          "name": "amount0",
          "type": "uint256"
        },
        {
          "internalType": "uint256",
          "name": "amount1",
          "type": "uint256"
        },
        {
          "internalType": "bytes",
          "name": "data",
          "type": "bytes"
        }
      ],
      "name": "uniswapV2Call",
      "outputs": [],
      "stateMutability": "nonpayable",
      "type": "function"
    }
  ],
  "address": "0xb44ad0f611F49e395b8ADd2b5d7f1ba79FC61c0F",
  "args": [
    "0x7a250d5630B4cF539739dF2C5dAcb4c659F2488D",
    "0x5C69bEe701ef814a2B6a3EDD4B1652CB9cc5aA6f",
    "0x615a04282a457b2Dd73Fa297A22114ABE3E812cF"
  ],
  "solcInputHash": "0x1f35a9eaba3d7a9a50b95e6eabbefb1fe5f53e7065afd4488e7d5054a5de11ae",
  "bytecode": "0x60806040523480156200001157600080fd5b50604051620058e1380380620058e1833981810160405260608110156200003757600080fd5b8101908080519060200190929190805190602001909291908051906020019092919050505060016000806101000a81548160ff021916908315150217905550600073ffffffffffffffffffffffffffffffffffffffff16600260009054906101000a900473ffffffffffffffffffffffffffffffffffffffff1673ffffffffffffffffffffffffffffffffffffffff16146200013b576040517f08c379a000000000000000000000000000000000000000000000000000000000815260040180806020018281038252600f8152602001807f4552525f494e495449414c495a4544000000000000000000000000000000000081525060200191505060405180910390fd5b600073ffffffffffffffffffffffffffffffffffffffff16600160009054906101000a900473ffffffffffffffffffffffffffffffffffffffff1673ffffffffffffffffffffffffffffffffffffffff161462000200576040517f08c379a000000000000000000000000000000000000000000000000000000000815260040180806020018281038252600f8152602001807f4552525f494e495449414c495a4544000000000000000000000000000000000081525060200191505060405180910390fd5b600073ffffffffffffffffffffffffffffffffffffffff16600060019054906101000a900473ffffffffffffffffffffffffffffffffffffffff1673ffffffffffffffffffffffffffffffffffffffff1614620002c5576040517f08c379a000000000000000000000000000000000000000000000000000000000815260040180806020018281038252600f8152602001807f4552525f494e495449414c495a4544000000000000000000000000000000000081525060200191505060405180910390fd5b82600260006101000a81548173ffffffffffffffffffffffffffffffffffffffff021916908373ffffffffffffffffffffffffffffffffffffffff16021790555081600160006101000a81548173ffffffffffffffffffffffffffffffffffffffff021916908373ffffffffffffffffffffffffffffffffffffffff16021790555080600060016101000a81548173ffffffffffffffffffffffffffffffffffffffff021916908373ffffffffffffffffffffffffffffffffffffffff1602179055503373ffffffffffffffffffffffffffffffffffffffff167f908408e307fc569b417f6cbec5d5a06f44a0a505ac0479b47d421a4b2fd6a1e660405160405180910390a250505061550380620003de6000396000f3fe608060405234801561001057600080fd5b50600436106100f55760003560e01c80639245d58311610097578063cd04552411610066578063cd04552414610834578063d580c622146108a4578063f887ea4014610973578063fd52c6bb146109bd576100f5565b80639245d5831461054757806395f0ae76146105b7578063b17d0570146106a6578063c45a0155146107ea576100f5565b806317d7de7c116100d357806317d7de7c1461021557806360060ccd1461029857806369bd26cd146103dc57806369d12e1414610480576100f5565b80630d8e6e2c146100fa57806310d1e85c1461011e5780631758078b146101cb575b600080fd5b610102610a61565b604051808260ff1660ff16815260200191505060405180910390f35b6101c96004803603608081101561013457600080fd5b81019080803573ffffffffffffffffffffffffffffffffffffffff16906020019092919080359060200190929190803590602001909291908035906020019064010000000081111561018557600080fd5b82018360208201111561019757600080fd5b803590602001918460018302840111640100000000831117156101b957600080fd5b9091929391929390505050610a6a565b005b6101d3610de7565b604051808273ffffffffffffffffffffffffffffffffffffffff1673ffffffffffffffffffffffffffffffffffffffff16815260200191505060405180910390f35b61021d610e0d565b6040518080602001828103825283818151815260200191508051906020019080838360005b8381101561025d578082015181840152602081019050610242565b50505050905090810190601f16801561028a5780820380516001836020036101000a031916815260200191505b509250505060405180910390f35b6103c2600480360360c08110156102ae57600080fd5b81019080803573ffffffffffffffffffffffffffffffffffffffff169060200190929190803573ffffffffffffffffffffffffffffffffffffffff16906020019092919080359060200190929190803590602001909291908035906020019064010000000081111561031f57600080fd5b82018360208201111561033157600080fd5b8035906020019184602083028401116401000000008311171561035357600080fd5b919080806020026020016040519081016040528093929190818152602001838360200280828437600081840152601f19601f820116905080830192505050505050509192919290803573ffffffffffffffffffffffffffffffffffffffff169060200190929190505050610e4a565b604051808215151515815260200191505060405180910390f35b61043e600480360360408110156103f257600080fd5b81019080803573ffffffffffffffffffffffffffffffffffffffff169060200190929190803573ffffffffffffffffffffffffffffffffffffffff169060200190929190505050610ee6565b604051808273ffffffffffffffffffffffffffffffffffffffff1673ffffffffffffffffffffffffffffffffffffffff16815260200191505060405180910390f35b61052a600480360360e081101561049657600080fd5b81019080803573ffffffffffffffffffffffffffffffffffffffff169060200190929190803573ffffffffffffffffffffffffffffffffffffffff169060200190929190803590602001909291908035906020019092919080359060200190929190803573ffffffffffffffffffffffffffffffffffffffff16906020019092919080359060200190929190505050611005565b604051808381526020018281526020019250505060405180910390f35b61059d6004803603606081101561055d57600080fd5b81019080803573ffffffffffffffffffffffffffffffffffffffff1690602001909291908035906020019092919080359060200190929190505050611150565b604051808215151515815260200191505060405180910390f35b61068c600480360360c08110156105cd57600080fd5b81019080803573ffffffffffffffffffffffffffffffffffffffff16906020019092919080359060200190929190803590602001909291908035906020019064010000000081111561061e57600080fd5b82018360208201111561063057600080fd5b8035906020019184602083028401116401000000008311171561065257600080fd5b9091929391929390803573ffffffffffffffffffffffffffffffffffffffff1690602001909291908035906020019092919050505061123e565b604051808215151515815260200191505060405180910390f35b6107d0600480360360c08110156106bc57600080fd5b81019080803573ffffffffffffffffffffffffffffffffffffffff169060200190929190803573ffffffffffffffffffffffffffffffffffffffff16906020019092919080359060200190929190803590602001909291908035906020019064010000000081111561072d57600080fd5b82018360208201111561073f57600080fd5b8035906020019184602083028401116401000000008311171561076157600080fd5b919080806020026020016040519081016040528093929190818152602001838360200280828437600081840152601f19601f820116905080830192505050505050509192919290803573ffffffffffffffffffffffffffffffffffffffff16906020019092919050505061137a565b604051808215151515815260200191505060405180910390f35b6107f2611d93565b604051808273ffffffffffffffffffffffffffffffffffffffff1673ffffffffffffffffffffffffffffffffffffffff16815260200191505060405180910390f35b61088a6004803603606081101561084a57600080fd5b81019080803573ffffffffffffffffffffffffffffffffffffffff1690602001909291908035906020019092919080359060200190929190505050611db9565b604051808215151515815260200191505060405180910390f35b61095960048036036101008110156108bb57600080fd5b81019080803573ffffffffffffffffffffffffffffffffffffffff169060200190929190803573ffffffffffffffffffffffffffffffffffffffff16906020019092919080359060200190929190803590602001909291908035906020019092919080359060200190929190803573ffffffffffffffffffffffffffffffffffffffff16906020019092919080359060200190929190505050612582565b604051808215151515815260200191505060405180910390f35b61097b612680565b604051808273ffffffffffffffffffffffffffffffffffffffff1673ffffffffffffffffffffffffffffffffffffffff16815260200191505060405180910390f35b610a1f600480360360408110156109d357600080fd5b81019080803573ffffffffffffffffffffffffffffffffffffffff169060200190929190803573ffffffffffffffffffffffffffffffffffffffff1690602001909291905050506126a6565b604051808273ffffffffffffffffffffffffffffffffffffffff1673ffffffffffffffffffffffffffffffffffffffff16815260200191505060405180910390f35b60006002905090565b60003373ffffffffffffffffffffffffffffffffffffffff16630dfe16816040518163ffffffff1660e01b815260040160206040518083038186803b158015610ab257600080fd5b505afa158015610ac6573d6000803e3d6000fd5b505050506040513d6020811015610adc57600080fd5b8101908080519060200190929190505050905060003373ffffffffffffffffffffffffffffffffffffffff1663d21220a76040518163ffffffff1660e01b815260040160206040518083038186803b158015610b3757600080fd5b505afa158015610b4b573d6000803e3d6000fd5b505050506040513d6020811015610b6157600080fd5b81019080805190602001909291905050509050600160009054906101000a900473ffffffffffffffffffffffffffffffffffffffff1673ffffffffffffffffffffffffffffffffffffffff1663e6a4390583836040518363ffffffff1660e01b8152600401808373ffffffffffffffffffffffffffffffffffffffff1673ffffffffffffffffffffffffffffffffffffffff1681526020018273ffffffffffffffffffffffffffffffffffffffff1673ffffffffffffffffffffffffffffffffffffffff1681526020019250505060206040518083038186803b158015610c4757600080fd5b505afa158015610c5b573d6000803e3d6000fd5b505050506040513d6020811015610c7157600080fd5b810190808051906020019092919050505073ffffffffffffffffffffffffffffffffffffffff163373ffffffffffffffffffffffffffffffffffffffff1614610cb657fe5b600060603073ffffffffffffffffffffffffffffffffffffffff1686866040518083838082843780830192505050925050506000604051808303816000865af19150503d8060008114610d25576040519150601f19603f3d011682016040523d82523d6000602084013e610d2a565b606091505b5091509150818015610d6a5750600081511480610d695750808060200190516020811015610d5757600080fd5b81019080805190602001909291905050505b5b610ddc576040517f08c379a00000000000000000000000000000000000000000000000000000000081526004018080602001828103825260178152602001807f4552525f554e495357415056325f43414c4c5f4641494c00000000000000000081525060200191505060405180910390fd5b505050505050505050565b600060019054906101000a900473ffffffffffffffffffffffffffffffffffffffff1681565b60606040518060400160405280601d81526020017f5072696d69746976655631556e6973776170436f6e6e6563746f723032000000815250905090565b600080610e7e600260009054906101000a900473ffffffffffffffffffffffffffffffffffffffff16898989898989612866565b90503373ffffffffffffffffffffffffffffffffffffffff167f3725145ca6a6d192a761e3b6dbcf42cdc13147dd45a65fd1b29737ac584b557e600080604051808381526020018281526020019250505060405180910390a260019150509695505050505050565b600080600160009054906101000a900473ffffffffffffffffffffffffffffffffffffffff1673ffffffffffffffffffffffffffffffffffffffff1663c9c6539685856040518363ffffffff1660e01b8152600401808373ffffffffffffffffffffffffffffffffffffffff1673ffffffffffffffffffffffffffffffffffffffff1681526020018273ffffffffffffffffffffffffffffffffffffffff1673ffffffffffffffffffffffffffffffffffffffff16815260200192505050602060405180830381600087803b158015610fbe57600080fd5b505af1158015610fd2573d6000803e3d6000fd5b505050506040513d6020811015610fe857600080fd5b810190808051906020019092919050505090508091505092915050565b6000806000809054906101000a900460ff16611089576040517f08c379a000000000000000000000000000000000000000000000000000000000815260040180806020018281038252601f8152602001807f5265656e7472616e637947756172643a207265656e7472616e742063616c6c0081525060200191505060405180910390fd5b60008060006101000a81548160ff02191690831515021790555060008061111e600160009054906101000a900473ffffffffffffffffffffffffffffffffffffffff16600260009054906101000a900473ffffffffffffffffffffffffffffffffffffffff16600060019054906101000a900473ffffffffffffffffffffffffffffffffffffffff168e8e8e8e8e8e8e61313e565b91509150818193509350505060016000806101000a81548160ff02191690831515021790555097509795505050505050565b60008060009054906101000a900460ff166111d3576040517f08c379a000000000000000000000000000000000000000000000000000000000815260040180806020018281038252601f8152602001807f5265656e7472616e637947756172643a207265656e7472616e742063616c6c0081525060200191505060405180910390fd5b60008060006101000a81548160ff02191690831515021790555061121b600160009054906101000a900473ffffffffffffffffffffffffffffffffffffffff168585856139bf565b905060016000806101000a81548160ff0219169083151502179055509392505050565b60008060009054906101000a900460ff166112c1576040517f08c379a000000000000000000000000000000000000000000000000000000000815260040180806020018281038252601f8152602001807f5265656e7472616e637947756172643a207265656e7472616e742063616c6c0081525060200191505060405180910390fd5b60008060006101000a81548160ff021916908315150217905550600061134f600260009054906101000a900473ffffffffffffffffffffffffffffffffffffffff168a8a8a8a8a80806020026020016040519081016040528093929190818152602001838360200280828437600081840152601f19601f8201169050808301925050505050505089896140b1565b90508091505060016000806101000a81548160ff021916908315150217905550979650505050505050565b60003073ffffffffffffffffffffffffffffffffffffffff163373ffffffffffffffffffffffffffffffffffffffff161461141d576040517f08c379a000000000000000000000000000000000000000000000000000000000815260040180806020018281038252600c8152602001807f4552525f4e4f545f53454c46000000000000000000000000000000000000000081525060200191505060405180910390fd5b60008511611493576040517f08c379a00000000000000000000000000000000000000000000000000000000081526004018080602001828103825260088152602001807f4552525f5a45524f00000000000000000000000000000000000000000000000081525060200191505060405180910390fd5b60008673ffffffffffffffffffffffffffffffffffffffff1663440f5fd26040518163ffffffff1660e01b815260040160206040518083038186803b1580156114db57600080fd5b505afa1580156114ef573d6000803e3d6000fd5b505050506040513d602081101561150557600080fd5b810190808051906020019092919050505090508073ffffffffffffffffffffffffffffffffffffffff168460018151811061153c57fe5b602002602001015173ffffffffffffffffffffffffffffffffffffffff16146115cd576040517f08c379a000000000000000000000000000000000000000000000000000000000815260040180806020018281038252601b8152602001807f4552525f454e445f504154485f4e4f545f554e4445524c59494e47000000000081525060200191505060405180910390fd5b6115f887878373ffffffffffffffffffffffffffffffffffffffff1661420e9092919063ffffffff16565b6000808873ffffffffffffffffffffffffffffffffffffffff1663fa9ad7c4306040518263ffffffff1660e01b8152600401808273ffffffffffffffffffffffffffffffffffffffff1673ffffffffffffffffffffffffffffffffffffffff1681526020019150506040805180830381600087803b15801561167957600080fd5b505af115801561168d573d6000803e3d6000fd5b505050506040513d60408110156116a357600080fd5b8101908080519060200190929190805190602001909291905050509150915060008390506060600260009054906101000a900473ffffffffffffffffffffffffffffffffffffffff1673ffffffffffffffffffffffffffffffffffffffff16631f00ca748b8a6040518363ffffffff1660e01b81526004018083815260200180602001828103825283818151815260200191508051906020019060200280838360005b83811015611761578082015181840152602081019050611746565b50505050905001935050505060006040518083038186803b15801561178557600080fd5b505afa158015611799573d6000803e3d6000fd5b505050506040513d6000823e3d601f19601f8201168201806040525060208110156117c357600080fd5b81019080805160405193929190846401000000008211156117e357600080fd5b838201915060208201858111156117f957600080fd5b825186602082028301116401000000008211171561181657600080fd5b8083526020830192505050908051906020019060200280838360005b8381101561184d578082015181840152602081019050611832565b50505050905001604052505050905060008060008360008151811061186e57fe5b60200260200101519050600086821161188857600061189c565b61189b87836142c690919063ffffffff16565b5b90508187116118ac5760006118c0565b6118bf82886142c690919063ffffffff16565b5b92506000811115611acf5760608c90506060600260009054906101000a900473ffffffffffffffffffffffffffffffffffffffff1673ffffffffffffffffffffffffffffffffffffffff1663d06ca61f84846040518363ffffffff1660e01b81526004018083815260200180602001828103825283818151815260200191508051906020019060200280838360005b8381101561196a57808201518184015260208101905061194f565b50505050905001935050505060006040518083038186803b15801561198e57600080fd5b505afa1580156119a2573d6000803e3d6000fd5b505050506040513d6000823e3d601f19601f8201168201806040525060208110156119cc57600080fd5b81019080805160405193929190846401000000008211156119ec57600080fd5b83820191506020820185811115611a0257600080fd5b8251866020820283011164010000000082111715611a1f57600080fd5b8083526020830192505050908051906020019060200280838360005b83811015611a56578082015181840152602081019050611a3b565b505050509050016040525050509050611aca620186a0611abc83600181518110611a7c57fe5b6020026020010151611aae6201870586600181518110611a9857fe5b602002602001015161431090919063ffffffff16565b61439690919063ffffffff16565b61441e90919063ffffffff16565b955050505b6000831115611aee57611aeb83886142c690919063ffffffff16565b96505b5050611b9b8e868f73ffffffffffffffffffffffffffffffffffffffff16632f310bad6040518163ffffffff1660e01b815260040160206040518083038186803b158015611b3b57600080fd5b505afa158015611b4f573d6000803e3d6000fd5b505050506040513d6020811015611b6557600080fd5b810190808051906020019092919050505073ffffffffffffffffffffffffffffffffffffffff1661420e9092919063ffffffff16565b6000821115611c48578a821015611c1a576040517f08c379a00000000000000000000000000000000000000000000000000000000081526004018080602001828103825260148152602001807f4552525f5052454d49554d5f4f5645525f4d415800000000000000000000000081525060200191505060405180910390fd5b611c47898f848773ffffffffffffffffffffffffffffffffffffffff16614468909392919063ffffffff16565b5b6000811115611cfd57611cfc89828f73ffffffffffffffffffffffffffffffffffffffff16632f310bad6040518163ffffffff1660e01b815260040160206040518083038186803b158015611c9c57600080fd5b505afa158015611cb0573d6000803e3d6000fd5b505050506040513d6020811015611cc657600080fd5b810190808051906020019092919050505073ffffffffffffffffffffffffffffffffffffffff1661420e9092919063ffffffff16565b5b3373ffffffffffffffffffffffffffffffffffffffff167ff17aa7749e04732ce7bde5ee88376144e6c5669bd4d8c80358119eada62a1d008784604051808381526020018281526020019250505060405180910390a250505050611d8285838b73ffffffffffffffffffffffffffffffffffffffff1661420e9092919063ffffffff16565b600193505050509695505050505050565b600160009054906101000a900473ffffffffffffffffffffffffffffffffffffffff1681565b60008060009054906101000a900460ff16611e3c576040517f08c379a000000000000000000000000000000000000000000000000000000000815260040180806020018281038252601f8152602001807f5265656e7472616e637947756172643a207265656e7472616e742063616c6c0081525060200191505060405180910390fd5b60008060006101000a81548160ff02191690831515021790555060008473ffffffffffffffffffffffffffffffffffffffff16632f310bad6040518163ffffffff1660e01b815260040160206040518083038186803b158015611e9e57600080fd5b505afa158015611eb2573d6000803e3d6000fd5b505050506040513d6020811015611ec857600080fd5b8101908080519060200190929190505050905060008573ffffffffffffffffffffffffffffffffffffffff1663440f5fd26040518163ffffffff1660e01b815260040160206040518083038186803b158015611f2357600080fd5b505afa158015611f37573d6000803e3d6000fd5b505050506040513d6020811015611f4d57600080fd5b810190808051906020019092919050505090506000600160009054906101000a900473ffffffffffffffffffffffffffffffffffffffff1673ffffffffffffffffffffffffffffffffffffffff1663e6a4390584846040518363ffffffff1660e01b8152600401808373ffffffffffffffffffffffffffffffffffffffff1673ffffffffffffffffffffffffffffffffffffffff1681526020018273ffffffffffffffffffffffffffffffffffffffff1673ffffffffffffffffffffffffffffffffffffffff1681526020019250505060206040518083038186803b15801561203557600080fd5b505afa158015612049573d6000803e3d6000fd5b505050506040513d602081101561205f57600080fd5b81019080805190602001909291905050509050606060026040519080825280602002602001820160405280156120a45781602001602082028038833980820191505090505b50905083816000815181106120b557fe5b602002602001019073ffffffffffffffffffffffffffffffffffffffff16908173ffffffffffffffffffffffffffffffffffffffff168152505082816001815181106120fd57fe5b602002602001019073ffffffffffffffffffffffffffffffffffffffff16908173ffffffffffffffffffffffffffffffffffffffff16815250506000829050600060405180608001604052806050815260200161545460509139805190602001209050606081858c8c8c8833604051602401808773ffffffffffffffffffffffffffffffffffffffff1673ffffffffffffffffffffffffffffffffffffffff1681526020018673ffffffffffffffffffffffffffffffffffffffff1673ffffffffffffffffffffffffffffffffffffffff168152602001858152602001848152602001806020018373ffffffffffffffffffffffffffffffffffffffff1673ffffffffffffffffffffffffffffffffffffffff168152602001828103825284818151815260200191508051906020019060200280838360005b83811015612251578082015181840152602081019050612236565b50505050905001975050505050505050604051602081830303815290604052907bffffffffffffffffffffffffffffffffffffffffffffffffffffffff19166020820180517bffffffffffffffffffffffffffffffffffffffffffffffffffffffff8381831617835250505050905060008673ffffffffffffffffffffffffffffffffffffffff168473ffffffffffffffffffffffffffffffffffffffff16630dfe16816040518163ffffffff1660e01b815260040160206040518083038186803b15801561231f57600080fd5b505afa158015612333573d6000803e3d6000fd5b505050506040513d602081101561234957600080fd5b810190808051906020019092919050505073ffffffffffffffffffffffffffffffffffffffff161461237c57600061237e565b8a5b905060008773ffffffffffffffffffffffffffffffffffffffff168573ffffffffffffffffffffffffffffffffffffffff16630dfe16816040518163ffffffff1660e01b815260040160206040518083038186803b1580156123df57600080fd5b505afa1580156123f3573d6000803e3d6000fd5b505050506040513d602081101561240957600080fd5b810190808051906020019092919050505073ffffffffffffffffffffffffffffffffffffffff161461243b578b61243e565b60005b90508473ffffffffffffffffffffffffffffffffffffffff1663022c0d9f838330876040518563ffffffff1660e01b8152600401808581526020018481526020018373ffffffffffffffffffffffffffffffffffffffff1673ffffffffffffffffffffffffffffffffffffffff16815260200180602001828103825283818151815260200191508051906020019080838360005b838110156124ed5780820151818401526020810190506124d2565b50505050905090810190601f16801561251a5780820380516001836020036101000a031916815260200191505b5095505050505050600060405180830381600087803b15801561253c57600080fd5b505af1158015612550573d6000803e3d6000fd5b505050506001995050505050505050505060016000806101000a81548160ff0219169083151502179055509392505050565b60008060009054906101000a900460ff16612605576040517f08c379a000000000000000000000000000000000000000000000000000000000815260040180806020018281038252601f8152602001807f5265656e7472616e637947756172643a207265656e7472616e742063616c6c0081525060200191505060405180910390fd5b60008060006101000a81548160ff0219169083151502179055506000612654600260009054906101000a900473ffffffffffffffffffffffffffffffffffffffff168b8b8b8b8b8b8b8b614555565b90508091505060016000806101000a81548160ff02191690831515021790555098975050505050505050565b600260009054906101000a900473ffffffffffffffffffffffffffffffffffffffff1681565b600080600160009054906101000a900473ffffffffffffffffffffffffffffffffffffffff1673ffffffffffffffffffffffffffffffffffffffff1663e6a4390585856040518363ffffffff1660e01b8152600401808373ffffffffffffffffffffffffffffffffffffffff1673ffffffffffffffffffffffffffffffffffffffff1681526020018273ffffffffffffffffffffffffffffffffffffffff1673ffffffffffffffffffffffffffffffffffffffff1681526020019250505060206040518083038186803b15801561277c57600080fd5b505afa158015612790573d6000803e3d6000fd5b505050506040513d60208110156127a657600080fd5b81019080805190602001909291905050509050600073ffffffffffffffffffffffffffffffffffffffff168173ffffffffffffffffffffffffffffffffffffffff16141561285c576040517f08c379a00000000000000000000000000000000000000000000000000000000081526004018080602001828103825260178152602001807f4552525f504149525f444f45535f4e4f545f455849535400000000000000000081525060200191505060405180910390fd5b8091505092915050565b60003073ffffffffffffffffffffffffffffffffffffffff163373ffffffffffffffffffffffffffffffffffffffff1614612909576040517f08c379a000000000000000000000000000000000000000000000000000000000815260040180806020018281038252600c8152602001807f4552525f4e4f545f53454c46000000000000000000000000000000000000000081525060200191505060405180910390fd5b6000851161297f576040517f08c379a00000000000000000000000000000000000000000000000000000000081526004018080602001828103825260088152602001807f4552525f5a45524f00000000000000000000000000000000000000000000000081525060200191505060405180910390fd5b60008673ffffffffffffffffffffffffffffffffffffffff1663440f5fd26040518163ffffffff1660e01b815260040160206040518083038186803b1580156129c757600080fd5b505afa1580156129db573d6000803e3d6000fd5b505050506040513d60208110156129f157600080fd5b8101908080519060200190929190505050905060008773ffffffffffffffffffffffffffffffffffffffff16632f310bad6040518163ffffffff1660e01b815260040160206040518083038186803b158015612a4c57600080fd5b505afa158015612a60573d6000803e3d6000fd5b505050506040513d6020811015612a7657600080fd5b810190808051906020019092919050505090508073ffffffffffffffffffffffffffffffffffffffff1685600181518110612aad57fe5b602002602001015173ffffffffffffffffffffffffffffffffffffffff1614612b3e576040517f08c379a00000000000000000000000000000000000000000000000000000000081526004018080602001828103825260178152602001807f4552525f454e445f504154485f4e4f545f52454445454d00000000000000000081525060200191505060405180910390fd5b612b6988888373ffffffffffffffffffffffffffffffffffffffff1661420e9092919063ffffffff16565b6000612c8f8973ffffffffffffffffffffffffffffffffffffffff1662fe19fa6040518163ffffffff1660e01b815260040160206040518083038186803b158015612bb357600080fd5b505afa158015612bc7573d6000803e3d6000fd5b505050506040513d6020811015612bdd57600080fd5b8101908080519060200190929190505050612c818b73ffffffffffffffffffffffffffffffffffffffff1663b592a1386040518163ffffffff1660e01b815260040160206040518083038186803b158015612c3757600080fd5b505afa158015612c4b573d6000803e3d6000fd5b505050506040513d6020811015612c6157600080fd5b81019080805190602001909291905050508b61431090919063ffffffff16565b61441e90919063ffffffff16565b9050612cbe858a838c73ffffffffffffffffffffffffffffffffffffffff16614468909392919063ffffffff16565b60008973ffffffffffffffffffffffffffffffffffffffff166383499805306040518263ffffffff1660e01b8152600401808273ffffffffffffffffffffffffffffffffffffffff1673ffffffffffffffffffffffffffffffffffffffff168152602001915050606060405180830381600087803b158015612d3f57600080fd5b505af1158015612d53573d6000803e3d6000fd5b505050506040513d6060811015612d6957600080fd5b810190808051906020019092919080519060200190929190805190602001909291905050509250505060008b9050600085905060608e73ffffffffffffffffffffffffffffffffffffffff16631f00ca748d8c6040518363ffffffff1660e01b81526004018083815260200180602001828103825283818151815260200191508051906020019060200280838360005b83811015612e14578082015181840152602081019050612df9565b50505050905001935050505060006040518083038186803b158015612e3857600080fd5b505afa158015612e4c573d6000803e3d6000fd5b505050506040513d6000823e3d601f19601f820116820180604052506020811015612e7657600080fd5b8101908080516040519392919084640100000000821115612e9657600080fd5b83820191506020820185811115612eac57600080fd5b8251866020820283011164010000000082111715612ec957600080fd5b8083526020830192505050908051906020019060200280838360005b83811015612f00578082015181840152602081019050612ee5565b505050509050016040525050509050600080600083600081518110612f2157fe5b60200260200101519050808711612f39576000612f4d565b612f4c81886142c690919063ffffffff16565b5b91506000878211612f5f576000612f73565b612f7288836142c690919063ffffffff16565b5b90506000811115612f82578093505b6000831115612fa157612f9e83896142c690919063ffffffff16565b97505b5050612fce85878673ffffffffffffffffffffffffffffffffffffffff1661420e9092919063ffffffff16565b600082111561307b57808d111561304d576040517f08c379a00000000000000000000000000000000000000000000000000000000081526004018080602001828103825260138152602001807f4552525f4e454741544956455f5041594f55540000000000000000000000000081525060200191505060405180910390fd5b61307a8b86848773ffffffffffffffffffffffffffffffffffffffff16614468909392919063ffffffff16565b5b6000811115613126578c8110156130fa576040517f08c379a00000000000000000000000000000000000000000000000000000000081526004018080602001828103825260158152602001807f4552525f5052454d49554d5f554e4445525f4d494e000000000000000000000081525060200191505060405180910390fd5b6131258b828673ffffffffffffffffffffffffffffffffffffffff1661420e9092919063ffffffff16565b5b50505050506001945050505050979650505050505050565b60008060008973ffffffffffffffffffffffffffffffffffffffff16632f310bad6040518163ffffffff1660e01b815260040160206040518083038186803b15801561318957600080fd5b505afa15801561319d573d6000803e3d6000fd5b505050506040513d60208110156131b357600080fd5b8101908080519060200190929190505050905060008d73ffffffffffffffffffffffffffffffffffffffff1663e6a43905838c6040518363ffffffff1660e01b8152600401808373ffffffffffffffffffffffffffffffffffffffff1673ffffffffffffffffffffffffffffffffffffffff1681526020018273ffffffffffffffffffffffffffffffffffffffff1673ffffffffffffffffffffffffffffffffffffffff1681526020019250505060206040518083038186803b15801561327957600080fd5b505afa15801561328d573d6000803e3d6000fd5b505050506040513d60208110156132a357600080fd5b810190808051906020019092919050505090506132e333308b8473ffffffffffffffffffffffffffffffffffffffff16614468909392919063ffffffff16565b8073ffffffffffffffffffffffffffffffffffffffff1663095ea7b38e7fffffffffffffffffffffffffffffffffffffffffffffffffffffffffffffffff6040518363ffffffff1660e01b8152600401808373ffffffffffffffffffffffffffffffffffffffff1673ffffffffffffffffffffffffffffffffffffffff16815260200182815260200192505050602060405180830381600087803b15801561338a57600080fd5b505af115801561339e573d6000803e3d6000fd5b505050506040513d60208110156133b457600080fd5b810190808051906020019092919050505050506000808d73ffffffffffffffffffffffffffffffffffffffff1663baa2abde848d8d8d8d308d6040518863ffffffff1660e01b8152600401808873ffffffffffffffffffffffffffffffffffffffff1673ffffffffffffffffffffffffffffffffffffffff1681526020018773ffffffffffffffffffffffffffffffffffffffff1673ffffffffffffffffffffffffffffffffffffffff1681526020018681526020018581526020018481526020018373ffffffffffffffffffffffffffffffffffffffff1673ffffffffffffffffffffffffffffffffffffffff1681526020018281526020019750505050505050506040805180830381600087803b1580156134d057600080fd5b505af11580156134e4573d6000803e3d6000fd5b505050506040513d60408110156134fa57600080fd5b8101908080519060200190929190805190602001909291905050509150915060008c90508073ffffffffffffffffffffffffffffffffffffffff1663095ea7b38f7fffffffffffffffffffffffffffffffffffffffffffffffffffffffffffffffff6040518363ffffffff1660e01b8152600401808373ffffffffffffffffffffffffffffffffffffffff1673ffffffffffffffffffffffffffffffffffffffff16815260200182815260200192505050602060405180830381600087803b1580156135c557600080fd5b505af11580156135d9573d6000803e3d6000fd5b505050506040513d60208110156135ef57600080fd5b8101908080519060200190929190505050508373ffffffffffffffffffffffffffffffffffffffff1663095ea7b38f7fffffffffffffffffffffffffffffffffffffffffffffffffffffffffffffffff6040518363ffffffff1660e01b8152600401808373ffffffffffffffffffffffffffffffffffffffff1673ffffffffffffffffffffffffffffffffffffffff16815260200182815260200192505050602060405180830381600087803b1580156136a857600080fd5b505af11580156136bc573d6000803e3d6000fd5b505050506040513d60208110156136d257600080fd5b810190808051906020019092919050505050600061383e670de0b6b3a76400006138308473ffffffffffffffffffffffffffffffffffffffff1662fe19fa6040518163ffffffff1660e01b815260040160206040518083038186803b15801561373a57600080fd5b505afa15801561374e573d6000803e3d6000fd5b505050506040513d602081101561376457600080fd5b8101908080519060200190929190505050613822670de0b6b3a76400006138148873ffffffffffffffffffffffffffffffffffffffff1663b592a1386040518163ffffffff1660e01b815260040160206040518083038186803b1580156137ca57600080fd5b505afa1580156137de573d6000803e3d6000fd5b505050506040513d60208110156137f457600080fd5b81019080805190602001909291905050508b61431090919063ffffffff16565b61431090919063ffffffff16565b61441e90919063ffffffff16565b61441e90919063ffffffff16565b905061386d3330838573ffffffffffffffffffffffffffffffffffffffff16614468909392919063ffffffff16565b8e73ffffffffffffffffffffffffffffffffffffffff1663b8a6bb3b83838c6040518463ffffffff1660e01b8152600401808473ffffffffffffffffffffffffffffffffffffffff1673ffffffffffffffffffffffffffffffffffffffff1681526020018381526020018273ffffffffffffffffffffffffffffffffffffffff1673ffffffffffffffffffffffffffffffffffffffff1681526020019350505050606060405180830381600087803b15801561392857600080fd5b505af115801561393c573d6000803e3d6000fd5b505050506040513d606081101561395257600080fd5b8101908080519060200190929190805190602001909291908051906020019092919050505050505050506139a787828d73ffffffffffffffffffffffffffffffffffffffff1661420e9092919063ffffffff16565b8181945094505050509a509a98505050505050505050565b6000808473ffffffffffffffffffffffffffffffffffffffff16632f310bad6040518163ffffffff1660e01b815260040160206040518083038186803b158015613a0857600080fd5b505afa158015613a1c573d6000803e3d6000fd5b505050506040513d6020811015613a3257600080fd5b8101908080519060200190929190505050905060008573ffffffffffffffffffffffffffffffffffffffff1663440f5fd26040518163ffffffff1660e01b815260040160206040518083038186803b158015613a8d57600080fd5b505afa158015613aa1573d6000803e3d6000fd5b505050506040513d6020811015613ab757600080fd5b8101908080519060200190929190505050905060008773ffffffffffffffffffffffffffffffffffffffff1663e6a4390584846040518363ffffffff1660e01b8152600401808373ffffffffffffffffffffffffffffffffffffffff1673ffffffffffffffffffffffffffffffffffffffff1681526020018273ffffffffffffffffffffffffffffffffffffffff1673ffffffffffffffffffffffffffffffffffffffff1681526020019250505060206040518083038186803b158015613b7d57600080fd5b505afa158015613b91573d6000803e3d6000fd5b505050506040513d6020811015613ba757600080fd5b8101908080519060200190929190505050905060606002604051908082528060200260200182016040528015613bec5781602001602082028038833980820191505090505b5090508281600081518110613bfd57fe5b602002602001019073ffffffffffffffffffffffffffffffffffffffff16908173ffffffffffffffffffffffffffffffffffffffff16815250508381600181518110613c4557fe5b602002602001019073ffffffffffffffffffffffffffffffffffffffff16908173ffffffffffffffffffffffffffffffffffffffff1681525050600082905060006040518060800160405280605081526020016153e360509139805190602001209050606081858c8c8c8833604051602401808773ffffffffffffffffffffffffffffffffffffffff1673ffffffffffffffffffffffffffffffffffffffff1681526020018673ffffffffffffffffffffffffffffffffffffffff1673ffffffffffffffffffffffffffffffffffffffff168152602001858152602001848152602001806020018373ffffffffffffffffffffffffffffffffffffffff1673ffffffffffffffffffffffffffffffffffffffff168152602001828103825284818151815260200191508051906020019060200280838360005b83811015613d99578082015181840152602081019050613d7e565b50505050905001975050505050505050604051602081830303815290604052907bffffffffffffffffffffffffffffffffffffffffffffffffffffffff19166020820180517bffffffffffffffffffffffffffffffffffffffffffffffffffffffff8381831617835250505050905060008773ffffffffffffffffffffffffffffffffffffffff168473ffffffffffffffffffffffffffffffffffffffff16630dfe16816040518163ffffffff1660e01b815260040160206040518083038186803b158015613e6757600080fd5b505afa158015613e7b573d6000803e3d6000fd5b505050506040513d6020811015613e9157600080fd5b810190808051906020019092919050505073ffffffffffffffffffffffffffffffffffffffff1614613ec4576000613ec6565b8a5b905060008873ffffffffffffffffffffffffffffffffffffffff168573ffffffffffffffffffffffffffffffffffffffff16630dfe16816040518163ffffffff1660e01b815260040160206040518083038186803b158015613f2757600080fd5b505afa158015613f3b573d6000803e3d6000fd5b505050506040513d6020811015613f5157600080fd5b810190808051906020019092919050505073ffffffffffffffffffffffffffffffffffffffff1614613f83578b613f86565b60005b90508473ffffffffffffffffffffffffffffffffffffffff1663022c0d9f838330876040518563ffffffff1660e01b8152600401808581526020018481526020018373ffffffffffffffffffffffffffffffffffffffff1673ffffffffffffffffffffffffffffffffffffffff16815260200180602001828103825283818151815260200191508051906020019080838360005b8381101561403557808201518184015260208101905061401a565b50505050905090810190601f1680156140625780820380516001836020036101000a031916815260200191505b5095505050505050600060405180830381600087803b15801561408457600080fd5b505af1158015614098573d6000803e3d6000fd5b5050505060019950505050505050505050949350505050565b60008060006140c1898930614a63565b9150915060008973ffffffffffffffffffffffffffffffffffffffff16632f310bad6040518163ffffffff1660e01b815260040160206040518083038186803b15801561410d57600080fd5b505afa158015614121573d6000803e3d6000fd5b505050506040513d602081101561413757600080fd5b81019080805190602001909291905050509050600061415b8c83858c8c8c8c614c63565b915050806141d1576040517f08c379a000000000000000000000000000000000000000000000000000000000815260040180806020018281038252600f8152602001807f4552525f535741505f4641494c4544000000000000000000000000000000000081525060200191505060405180910390fd5b6141fc87858d73ffffffffffffffffffffffffffffffffffffffff1661420e9092919063ffffffff16565b80945050505050979650505050505050565b6142c18363a9059cbb60e01b8484604051602401808373ffffffffffffffffffffffffffffffffffffffff1673ffffffffffffffffffffffffffffffffffffffff16815260200182815260200192505050604051602081830303815290604052907bffffffffffffffffffffffffffffffffffffffffffffffffffffffff19166020820180517bffffffffffffffffffffffffffffffffffffffffffffffffffffffff8381831617835250505050614fc6565b505050565b600061430883836040518060400160405280601e81526020017f536166654d6174683a207375627472616374696f6e206f766572666c6f770000815250615211565b905092915050565b6000808314156143235760009050614390565b600082840290508284828161433457fe5b041461438b576040517f08c379a00000000000000000000000000000000000000000000000000000000081526004018080602001828103825260218152602001806154336021913960400191505060405180910390fd5b809150505b92915050565b600080828401905083811015614414576040517f08c379a000000000000000000000000000000000000000000000000000000000815260040180806020018281038252601b8152602001807f536166654d6174683a206164646974696f6e206f766572666c6f77000000000081525060200191505060405180910390fd5b8091505092915050565b600061446083836040518060400160405280601a81526020017f536166654d6174683a206469766973696f6e206279207a65726f0000000000008152506152d1565b905092915050565b61454f846323b872dd60e01b858585604051602401808473ffffffffffffffffffffffffffffffffffffffff1673ffffffffffffffffffffffffffffffffffffffff1681526020018373ffffffffffffffffffffffffffffffffffffffff1673ffffffffffffffffffffffffffffffffffffffff1681526020018281526020019350505050604051602081830303815290604052907bffffffffffffffffffffffffffffffffffffffffffffffffffffffff19166020820180517bffffffffffffffffffffffffffffffffffffffffffffffffffffffff8381831617835250505050614fc6565b50505050565b60006145843330888b73ffffffffffffffffffffffffffffffffffffffff16614468909392919063ffffffff16565b6000806145928b8a30614a63565b9150915060008b73ffffffffffffffffffffffffffffffffffffffff16632f310bad6040518163ffffffff1660e01b815260040160206040518083038186803b1580156145de57600080fd5b505afa1580156145f2573d6000803e3d6000fd5b505050506040513d602081101561460857600080fd5b810190808051906020019092919050505090508073ffffffffffffffffffffffffffffffffffffffff1663095ea7b38e7fffffffffffffffffffffffffffffffffffffffffffffffffffffffffffffffff6040518363ffffffff1660e01b8152600401808373ffffffffffffffffffffffffffffffffffffffff1673ffffffffffffffffffffffffffffffffffffffff16815260200182815260200192505050602060405180830381600087803b1580156146c257600080fd5b505af11580156146d6573d6000803e3d6000fd5b505050506040513d60208110156146ec57600080fd5b8101908080519060200190929190505050508a73ffffffffffffffffffffffffffffffffffffffff1663095ea7b38e7fffffffffffffffffffffffffffffffffffffffffffffffffffffffffffffffff6040518363ffffffff1660e01b8152600401808373ffffffffffffffffffffffffffffffffffffffff1673ffffffffffffffffffffffffffffffffffffffff16815260200182815260200192505050602060405180830381600087803b1580156147a557600080fd5b505af11580156147b9573d6000803e3d6000fd5b505050506040513d60208110156147cf57600080fd5b8101908080519060200190929190505050508c73ffffffffffffffffffffffffffffffffffffffff1663e8e33700828d858d8d8d8d8d6040518963ffffffff1660e01b8152600401808973ffffffffffffffffffffffffffffffffffffffff1673ffffffffffffffffffffffffffffffffffffffff1681526020018873ffffffffffffffffffffffffffffffffffffffff1673ffffffffffffffffffffffffffffffffffffffff1681526020018781526020018681526020018581526020018481526020018373ffffffffffffffffffffffffffffffffffffffff1673ffffffffffffffffffffffffffffffffffffffff16815260200182815260200198505050505050505050606060405180830381600087803b1580156148f057600080fd5b505af1158015614904573d6000803e3d6000fd5b505050506040513d606081101561491a57600080fd5b8101908080519060200190929190805190602001909291908051906020019092919050505050505061496d33848e73ffffffffffffffffffffffffffffffffffffffff1661420e9092919063ffffffff16565b614a4f338c73ffffffffffffffffffffffffffffffffffffffff166370a08231306040518263ffffffff1660e01b8152600401808273ffffffffffffffffffffffffffffffffffffffff1673ffffffffffffffffffffffffffffffffffffffff16815260200191505060206040518083038186803b1580156149ee57600080fd5b505afa158015614a02573d6000803e3d6000fd5b505050506040513d6020811015614a1857600080fd5b81019080805190602001909291905050508d73ffffffffffffffffffffffffffffffffffffffff1661420e9092919063ffffffff16565b600193505050509998505050505050505050565b60008060008411614adc576040517f08c379a00000000000000000000000000000000000000000000000000000000081526004018080602001828103825260088152602001807f4552525f5a45524f00000000000000000000000000000000000000000000000081525060200191505060405180910390fd5b614b893386868873ffffffffffffffffffffffffffffffffffffffff1663440f5fd26040518163ffffffff1660e01b815260040160206040518083038186803b158015614b2857600080fd5b505afa158015614b3c573d6000803e3d6000fd5b505050506040513d6020811015614b5257600080fd5b810190808051906020019092919050505073ffffffffffffffffffffffffffffffffffffffff16614468909392919063ffffffff16565b6000808673ffffffffffffffffffffffffffffffffffffffff1663fa9ad7c4866040518263ffffffff1660e01b8152600401808273ffffffffffffffffffffffffffffffffffffffff1673ffffffffffffffffffffffffffffffffffffffff1681526020019150506040805180830381600087803b158015614c0a57600080fd5b505af1158015614c1e573d6000803e3d6000fd5b505050506040513d6040811015614c3457600080fd5b810190808051906020019092919080519060200190929190505050915091508181935093505050935093915050565b606060008773ffffffffffffffffffffffffffffffffffffffff1685600081518110614c8b57fe5b602002602001015173ffffffffffffffffffffffffffffffffffffffff1614614d1c576040517f08c379a00000000000000000000000000000000000000000000000000000000081526004018080602001828103825260158152602001807f4552525f504154485f4f5054494f4e5f5354415254000000000000000000000081525060200191505060405180910390fd5b8773ffffffffffffffffffffffffffffffffffffffff1663095ea7b38a7fffffffffffffffffffffffffffffffffffffffffffffffffffffffffffffffff6040518363ffffffff1660e01b8152600401808373ffffffffffffffffffffffffffffffffffffffff1673ffffffffffffffffffffffffffffffffffffffff16815260200182815260200192505050602060405180830381600087803b158015614dc357600080fd5b505af1158015614dd7573d6000803e3d6000fd5b505050506040513d6020811015614ded57600080fd5b8101908080519060200190929190505050508873ffffffffffffffffffffffffffffffffffffffff166338ed173988888888886040518663ffffffff1660e01b815260040180868152602001858152602001806020018473ffffffffffffffffffffffffffffffffffffffff1673ffffffffffffffffffffffffffffffffffffffff168152602001838152602001828103825285818151815260200191508051906020019060200280838360005b83811015614eb6578082015181840152602081019050614e9b565b505050509050019650505050505050600060405180830381600087803b158015614edf57600080fd5b505af1158015614ef3573d6000803e3d6000fd5b505050506040513d6000823e3d601f19601f820116820180604052506020811015614f1d57600080fd5b8101908080516040519392919084640100000000821115614f3d57600080fd5b83820191506020820185811115614f5357600080fd5b8251866020820283011164010000000082111715614f7057600080fd5b8083526020830192505050908051906020019060200280838360005b83811015614fa7578082015181840152602081019050614f8c565b5050505090500160405250505091506001905097509795505050505050565b614fe58273ffffffffffffffffffffffffffffffffffffffff16615397565b615057576040517f08c379a000000000000000000000000000000000000000000000000000000000815260040180806020018281038252601f8152602001807f5361666545524332303a2063616c6c20746f206e6f6e2d636f6e74726163740081525060200191505060405180910390fd5b600060608373ffffffffffffffffffffffffffffffffffffffff16836040518082805190602001908083835b602083106150a65780518252602082019150602081019050602083039250615083565b6001836020036101000a0380198251168184511680821785525050505050509050019150506000604051808303816000865af19150503d8060008114615108576040519150601f19603f3d011682016040523d82523d6000602084013e61510d565b606091505b509150915081615185576040517f08c379a00000000000000000000000000000000000000000000000000000000081526004018080602001828103825260208152602001807f5361666545524332303a206c6f772d6c6576656c2063616c6c206661696c656481525060200191505060405180910390fd5b60008151111561520b578080602001905160208110156151a457600080fd5b810190808051906020019092919050505061520a576040517f08c379a000000000000000000000000000000000000000000000000000000000815260040180806020018281038252602a8152602001806154a4602a913960400191505060405180910390fd5b5b50505050565b60008383111582906152be576040517f08c379a00000000000000000000000000000000000000000000000000000000081526004018080602001828103825283818151815260200191508051906020019080838360005b83811015615283578082015181840152602081019050615268565b50505050905090810190601f1680156152b05780820380516001836020036101000a031916815260200191505b509250505060405180910390fd5b5060008385039050809150509392505050565b6000808311829061537d576040517f08c379a00000000000000000000000000000000000000000000000000000000081526004018080602001828103825283818151815260200191508051906020019080838360005b83811015615342578082015181840152602081019050615327565b50505050905090810190601f16801561536f5780820380516001836020036101000a031916815260200191505b509250505060405180910390fd5b50600083858161538957fe5b049050809150509392505050565b60008060007fc5d2460186f7233c927e7db2dcc703c0e500b653ca82273b7bfad8045d85a47060001b9050833f91508082141580156153d957506000801b8214155b9250505091905056fe666c617368436c6f73654c6f6e674f7074696f6e735468656e5377617028616464726573732c616464726573732c75696e743235362c75696e743235362c616464726573735b5d2c6164647265737329536166654d6174683a206d756c7469706c69636174696f6e206f766572666c6f77666c6173684d696e7453686f72744f7074696f6e735468656e5377617028616464726573732c616464726573732c75696e743235362c75696e743235362c616464726573735b5d2c61646472657373295361666545524332303a204552433230206f7065726174696f6e20646964206e6f742073756363656564a26469706673582212203325a31135bbc3fa3a3bb9e102d717fe9677681112926cf07c539fecc8a79f3264736f6c63430006020033",
  "devdoc": {
    "methods": {
      "addShortLiquidityWithUnderlying(address,address,uint256,uint256,uint256,uint256,address,uint256)": {
        "details": "Adds redeemToken liquidity to a redeem<>token pair by minting shortOptionTokens with underlyingTokens.",
        "params": {
          "deadline": "The timestamp to expire a pending transaction. \r",
          "minOtherTokens": "The minimum quantity of otherTokens expected to provide liquidity with.",
          "minShortTokens": "The minimum quantity of shortOptionTokens expected to provide liquidity with.",
          "optionAddress": "The address of the optionToken to get the redeemToken to mint then provide liquidity for.",
          "otherTokenAddress": "IMPORTANT: Should be the underlyingToken of option. Address of other reserve asset.",
          "quantityOptions": "The quantity of underlyingTokens to use to mint option + redeem tokens.",
          "quantityOtherTokens": "The quantity of otherTokens to add with shortOptionTokens to the Uniswap V2 Pair.",
          "to": "The address that receives UNI-V2 shares."
        }
      },
      "deployUniswapMarket(address,address)": {
        "details": "Creates a UniswapV2Pair by calling `createPair` on the UniswapV2Factory."
      },
      "flashMintShortOptionsThenSwap(address,address,uint256,uint256,address[],address)": {
        "details": "Receives underlyingTokens from a UniswapV2Pair.swap() call from a pair with reserve0 = shortOptionTokens and reserve1 = underlyingTokens. Uses underlyingTokens to mint long (option) + short (redeem) tokens. Sends longOptionTokens to msg.sender, and pays back the UniswapV2Pair the shortOptionTokens, AND any remainder quantity of underlyingTokens (paid by msg.sender).",
        "params": {
          "flashLoanQuantity": "The quantity of options to mint using borrowed underlyingTokens.",
          "maxPremium": "The maximum quantity of underlyingTokens to pay for the optionTokens.",
          "optionAddress": "The address of the Option contract.",
          "path": "The token addresses to trade through using their Uniswap V2 pools. Assumes path[0] = shortOptionToken.",
          "to": "The address to send the shortOptionToken proceeds and longOptionTokens to."
        },
        "returns": {
          "_0": "success bool Whether the transaction was successful or not. \r"
        }
      },
      "getName()": {
        "details": "Gets the name of the contract."
      },
      "getUniswapMarketForTokens(address,address)": {
        "details": "Gets a UniswapV2Pair address for two tokens by calling the UniswapV2Factory."
      },
      "getVersion()": {
        "details": "Gets the version of the contract."
      },
      "mintShortOptionsThenSwapToTokens(address,uint256,uint256,address[],address,uint256)": {
        "details": "Mints long + short option tokens, then swaps the shortOptionTokens (redeem) for tokens.",
        "params": {
          "amountIn": "The quantity of options to mint.",
          "amountOutMin": "The minimum quantity of tokens to receive in exchange for the shortOptionTokens.",
          "deadline": "The timestamp for a trade to fail at if not successful.",
          "optionToken": "The address of the Option contract.",
          "path": "The token addresses to trade through using their Uniswap V2 pools. Assumes path[0] = shortOptionToken.",
          "to": "The address to send the shortOptionToken proceeds and longOptionTokens to."
        },
        "returns": {
          "_0": "bool Whether the transaction was successful or not. \r"
        }
      },
      "openFlashLong(address,uint256,uint256)": {
        "details": "Opens a longOptionToken position by minting long + short tokens, then selling the short tokens.",
        "params": {
          "amountOptions": "The quantity of longOptionTokens to purchase.",
          "maxPremium": "The maximum quantity of underlyingTokens to pay for the optionTokens. \r",
          "optionToken": "The option address."
        }
      },
      "removeShortLiquidityThenCloseOptions(address,address,uint256,uint256,uint256,address,uint256)": {
        "details": "Combines Uniswap V2 Router \"removeLiquidity\" function with Primitive \"closeOptions\" function.",
        "params": {
          "amountAMin": "The minimum quantity of shortOptionTokens to receive from removing liquidity.",
          "amountBMin": "The minimum quantity of quoteTokens to receive from removing liquidity.",
          "deadline": "The timestamp to expire a pending transaction. \r",
          "liquidity": "The quantity of liquidity tokens to pull from msg.sender and burn.",
          "optionAddress": "The address of the option that will be closed from burned UNI-V2 liquidity shares.",
          "otherTokenAddress": "The address of the other token in the option pair.",
          "to": "The address that receives quoteTokens from burned UNI-V2, and underlyingTokens from closed options."
        }
      },
      "uniswapV2Call(address,uint256,uint256,bytes)": {
        "details": "The callback function triggered in a UniswapV2Pair.swap() call when the `data` parameter has data.",
        "params": {
          "amount0": "The quantity of token0 received to the `to` address in the swap() call.",
          "amount1": "The quantity of token1 received to the `to` address in the swap() call.",
          "data": "The payload passed in the `data` parameter of the swap() call. \r",
          "sender": "The original msg.sender of the UniswapV2Pair.swap() call."
        }
      }
    }
  },
  "userdoc": {
    "methods": {
      "addShortLiquidityWithUnderlying(address,address,uint256,uint256,uint256,uint256,address,uint256)": {
        "notice": "Pulls underlying tokens from msg.sender and pushes UNI-V2 liquidity tokens to the \"to\" address. underlyingToken -> redeemToken -> UNI-V2."
      },
      "flashMintShortOptionsThenSwap(address,address,uint256,uint256,address[],address)": {
        "notice": "If the first address in the path is not the shortOptionToken address, the tx will fail."
      },
      "mintShortOptionsThenSwapToTokens(address,uint256,uint256,address[],address,uint256)": {
        "notice": "If the first address in the path is not the shortOptionToken address, the tx will fail. underlyingToken -> shortOptionToken -> quoteToken. IMPORTANT: redeemTokens = shortOptionTokens"
      },
      "openFlashLong(address,uint256,uint256)": {
        "notice": "IMPORTANT: amountOutMin parameter is the price to swap shortOptionTokens to underlyingTokens. IMPORTANT: If the ratio between shortOptionTokens and underlyingTokens is 1:1, then only the swap fee (0.30%) has to be paid."
      },
      "removeShortLiquidityThenCloseOptions(address,address,uint256,uint256,uint256,address,uint256)": {
        "notice": "Pulls UNI-V2 liquidity shares with shortOption<>quote token, and optionTokens from msg.sender. Then closes the longOptionTokens and withdraws underlyingTokens to the \"to\" address. Sends quoteTokens from the burned UNI-V2 liquidity shares to the \"to\" address. UNI-V2 -> optionToken -> underlyingToken."
      }
    }
  },
  "storageLayout": {
    "storage": [
      {
        "astId": 1351,
        "contract": "contracts/connectors/Uniswap/UniswapConnector03.sol:UniswapConnector03",
        "label": "_notEntered",
        "offset": 0,
        "slot": "0",
        "type": "t_bool"
      },
      {
        "astId": 2254,
        "contract": "contracts/connectors/Uniswap/UniswapConnector03.sol:UniswapConnector03",
        "label": "trader",
        "offset": 1,
        "slot": "0",
        "type": "t_contract(ITrader)7202"
      },
      {
        "astId": 2257,
        "contract": "contracts/connectors/Uniswap/UniswapConnector03.sol:UniswapConnector03",
        "label": "factory",
        "offset": 0,
        "slot": "1",
        "type": "t_contract(IUniswapV2Factory)1454"
      },
      {
        "astId": 2260,
        "contract": "contracts/connectors/Uniswap/UniswapConnector03.sol:UniswapConnector03",
        "label": "router",
        "offset": 0,
        "slot": "2",
        "type": "t_contract(IUniswapV2Router02)2092"
      }
    ],
    "types": {
      "t_bool": {
        "encoding": "inplace",
        "label": "bool",
        "numberOfBytes": "1"
      },
      "t_contract(ITrader)7202": {
        "encoding": "inplace",
        "label": "contract ITrader",
        "numberOfBytes": "20"
      },
      "t_contract(IUniswapV2Factory)1454": {
        "encoding": "inplace",
        "label": "contract IUniswapV2Factory",
        "numberOfBytes": "20"
      },
      "t_contract(IUniswapV2Router02)2092": {
        "encoding": "inplace",
        "label": "contract IUniswapV2Router02",
        "numberOfBytes": "20"
      }
    }
  },
  "gasEstimates": {
    "creation": {
      "codeDepositCost": "4352600",
      "executionCost": "infinite",
      "totalCost": "infinite"
    },
    "external": {
      "addShortLiquidityWithUnderlying(address,address,uint256,uint256,uint256,uint256,address,uint256)": "infinite",
      "closeFlashLong(address,uint256,uint256)": "infinite",
      "deployUniswapMarket(address,address)": "infinite",
      "factory()": "1142",
      "flashCloseLongOptionsThenSwap(address,address,uint256,uint256,address[],address)": "infinite",
      "flashMintShortOptionsThenSwap(address,address,uint256,uint256,address[],address)": "infinite",
      "getName()": "infinite",
      "getUniswapMarketForTokens(address,address)": "infinite",
      "getVersion()": "249",
      "mintShortOptionsThenSwapToTokens(address,uint256,uint256,address[],address,uint256)": "infinite",
      "openFlashLong(address,uint256,uint256)": "infinite",
      "removeShortLiquidityThenCloseOptions(address,address,uint256,uint256,uint256,address,uint256)": "infinite",
      "router()": "1119",
      "trader()": "1171",
      "uniswapV2Call(address,uint256,uint256,bytes)": "infinite"
    }
  }
}