{
  "abi": [
    {
      "inputs": [
        {
          "internalType": "address",
          "name": "router_",
          "type": "address"
        },
        {
          "internalType": "address",
          "name": "factory_",
          "type": "address"
        },
        {
          "internalType": "address",
          "name": "trader_",
          "type": "address"
        }
      ],
      "stateMutability": "nonpayable",
      "type": "constructor"
    },
    {
      "anonymous": false,
      "inputs": [
        {
          "indexed": true,
          "internalType": "address",
          "name": "from",
          "type": "address"
        },
        {
          "indexed": false,
          "internalType": "uint256",
          "name": "quantity",
          "type": "uint256"
        },
        {
          "indexed": false,
          "internalType": "uint256",
          "name": "premium",
          "type": "uint256"
        }
      ],
      "name": "FlashOpened",
      "type": "event"
    },
    {
      "anonymous": false,
      "inputs": [
        {
          "indexed": true,
          "internalType": "address",
          "name": "from",
          "type": "address"
        }
      ],
      "name": "Initialized",
      "type": "event"
    },
    {
      "inputs": [
        {
          "internalType": "address",
          "name": "optionAddress",
          "type": "address"
        },
        {
          "internalType": "address",
          "name": "otherTokenAddress",
          "type": "address"
        },
        {
          "internalType": "uint256",
          "name": "quantityOptions",
          "type": "uint256"
        },
        {
          "internalType": "uint256",
          "name": "quantityOtherTokens",
          "type": "uint256"
        },
        {
          "internalType": "uint256",
          "name": "minOptionTokens",
          "type": "uint256"
        },
        {
          "internalType": "uint256",
          "name": "minOtherTokens",
          "type": "uint256"
        },
        {
          "internalType": "address",
          "name": "to",
          "type": "address"
        },
        {
          "internalType": "uint256",
          "name": "deadline",
          "type": "uint256"
        }
      ],
      "name": "addLongLiquidityWithUnderlying",
      "outputs": [
        {
          "internalType": "bool",
          "name": "",
          "type": "bool"
        }
      ],
      "stateMutability": "nonpayable",
      "type": "function"
    },
    {
      "inputs": [
        {
          "internalType": "address",
          "name": "optionAddress",
          "type": "address"
        },
        {
          "internalType": "address",
          "name": "otherTokenAddress",
          "type": "address"
        },
        {
          "internalType": "uint256",
          "name": "quantityOptions",
          "type": "uint256"
        },
        {
          "internalType": "uint256",
          "name": "quantityOtherTokens",
          "type": "uint256"
        },
        {
          "internalType": "uint256",
          "name": "minShortTokens",
          "type": "uint256"
        },
        {
          "internalType": "uint256",
          "name": "minOtherTokens",
          "type": "uint256"
        },
        {
          "internalType": "address",
          "name": "to",
          "type": "address"
        },
        {
          "internalType": "uint256",
          "name": "deadline",
          "type": "uint256"
        }
      ],
      "name": "addShortLiquidityWithUnderlying",
      "outputs": [
        {
          "internalType": "bool",
          "name": "",
          "type": "bool"
        }
      ],
      "stateMutability": "nonpayable",
      "type": "function"
    },
    {
      "inputs": [
        {
          "internalType": "address",
          "name": "optionAddress",
          "type": "address"
        },
        {
          "internalType": "address",
          "name": "otherToken",
          "type": "address"
        }
      ],
      "name": "deployUniswapMarket",
      "outputs": [
        {
          "internalType": "address",
          "name": "",
          "type": "address"
        }
      ],
      "stateMutability": "nonpayable",
      "type": "function"
    },
    {
      "inputs": [],
      "name": "factory",
      "outputs": [
        {
          "internalType": "contract IUniswapV2Factory",
          "name": "",
          "type": "address"
        }
      ],
      "stateMutability": "view",
      "type": "function"
    },
    {
      "inputs": [
        {
          "internalType": "address",
          "name": "pairAddress",
          "type": "address"
        },
        {
          "internalType": "address",
          "name": "optionAddress",
          "type": "address"
        },
        {
          "internalType": "uint256",
          "name": "flashLoanQuantity",
          "type": "uint256"
        },
        {
          "internalType": "uint256",
          "name": "amountOutMin",
          "type": "uint256"
        },
        {
          "internalType": "address[]",
          "name": "path",
          "type": "address[]"
        },
        {
          "internalType": "address",
          "name": "to",
          "type": "address"
        }
      ],
      "name": "flashMintShortOptionsThenSwap",
      "outputs": [
        {
          "internalType": "bool",
          "name": "",
          "type": "bool"
        }
      ],
      "stateMutability": "nonpayable",
      "type": "function"
    },
    {
      "inputs": [],
      "name": "getName",
      "outputs": [
        {
          "internalType": "string",
          "name": "",
          "type": "string"
        }
      ],
      "stateMutability": "pure",
      "type": "function"
    },
    {
      "inputs": [
        {
          "internalType": "address",
          "name": "token0",
          "type": "address"
        },
        {
          "internalType": "address",
          "name": "token1",
          "type": "address"
        }
      ],
      "name": "getUniswapMarketForTokens",
      "outputs": [
        {
          "internalType": "address",
          "name": "",
          "type": "address"
        }
      ],
      "stateMutability": "view",
      "type": "function"
    },
    {
      "inputs": [],
      "name": "getVersion",
      "outputs": [
        {
          "internalType": "uint8",
          "name": "",
          "type": "uint8"
        }
      ],
      "stateMutability": "pure",
      "type": "function"
    },
    {
      "inputs": [
        {
          "internalType": "contract IOption",
          "name": "optionToken",
          "type": "address"
        },
        {
          "internalType": "uint256",
          "name": "amountIn",
          "type": "uint256"
        },
        {
          "internalType": "uint256",
          "name": "amountOutMin",
          "type": "uint256"
        },
        {
          "internalType": "address[]",
          "name": "path",
          "type": "address[]"
        },
        {
          "internalType": "address",
          "name": "to",
          "type": "address"
        },
        {
          "internalType": "uint256",
          "name": "deadline",
          "type": "uint256"
        }
      ],
      "name": "mintLongOptionsThenSwapToTokens",
      "outputs": [
        {
          "internalType": "bool",
          "name": "",
          "type": "bool"
        }
      ],
      "stateMutability": "nonpayable",
      "type": "function"
    },
    {
      "inputs": [
        {
          "internalType": "contract IOption",
          "name": "optionToken",
          "type": "address"
        },
        {
          "internalType": "uint256",
          "name": "amountIn",
          "type": "uint256"
        },
        {
          "internalType": "uint256",
          "name": "amountOutMin",
          "type": "uint256"
        },
        {
          "internalType": "address[]",
          "name": "path",
          "type": "address[]"
        },
        {
          "internalType": "address",
          "name": "to",
          "type": "address"
        },
        {
          "internalType": "uint256",
          "name": "deadline",
          "type": "uint256"
        }
      ],
      "name": "mintShortOptionsThenSwapToTokens",
      "outputs": [
        {
          "internalType": "bool",
          "name": "",
          "type": "bool"
        }
      ],
      "stateMutability": "nonpayable",
      "type": "function"
    },
    {
      "inputs": [
        {
          "internalType": "contract IOption",
          "name": "optionToken",
          "type": "address"
        },
        {
          "internalType": "uint256",
          "name": "amountOptions",
          "type": "uint256"
        },
        {
          "internalType": "uint256",
          "name": "amountOutMin",
          "type": "uint256"
        }
      ],
      "name": "openFlashLong",
      "outputs": [
        {
          "internalType": "bool",
          "name": "",
          "type": "bool"
        }
      ],
      "stateMutability": "nonpayable",
      "type": "function"
    },
    {
      "inputs": [
        {
          "internalType": "address",
          "name": "optionAddress",
          "type": "address"
        },
        {
          "internalType": "address",
          "name": "otherTokenAddress",
          "type": "address"
        },
        {
          "internalType": "uint256",
          "name": "liquidity",
          "type": "uint256"
        },
        {
          "internalType": "uint256",
          "name": "amountAMin",
          "type": "uint256"
        },
        {
          "internalType": "uint256",
          "name": "amountBMin",
          "type": "uint256"
        },
        {
          "internalType": "address",
          "name": "to",
          "type": "address"
        },
        {
          "internalType": "uint256",
          "name": "deadline",
          "type": "uint256"
        }
      ],
      "name": "removeLongLiquidityThenCloseOptions",
      "outputs": [
        {
          "internalType": "uint256",
          "name": "",
          "type": "uint256"
        },
        {
          "internalType": "uint256",
          "name": "",
          "type": "uint256"
        }
      ],
      "stateMutability": "nonpayable",
      "type": "function"
    },
    {
      "inputs": [
        {
          "internalType": "address",
          "name": "optionAddress",
          "type": "address"
        },
        {
          "internalType": "address",
          "name": "otherTokenAddress",
          "type": "address"
        },
        {
          "internalType": "uint256",
          "name": "liquidity",
          "type": "uint256"
        },
        {
          "internalType": "uint256",
          "name": "amountAMin",
          "type": "uint256"
        },
        {
          "internalType": "uint256",
          "name": "amountBMin",
          "type": "uint256"
        },
        {
          "internalType": "address",
          "name": "to",
          "type": "address"
        },
        {
          "internalType": "uint256",
          "name": "deadline",
          "type": "uint256"
        }
      ],
      "name": "removeShortLiquidityThenCloseOptions",
      "outputs": [
        {
          "internalType": "uint256",
          "name": "",
          "type": "uint256"
        },
        {
          "internalType": "uint256",
          "name": "",
          "type": "uint256"
        }
      ],
      "stateMutability": "nonpayable",
      "type": "function"
    },
    {
      "inputs": [],
      "name": "router",
      "outputs": [
        {
          "internalType": "contract IUniswapV2Router02",
          "name": "",
          "type": "address"
        }
      ],
      "stateMutability": "view",
      "type": "function"
    },
    {
      "inputs": [],
      "name": "trader",
      "outputs": [
        {
          "internalType": "contract ITrader",
          "name": "",
          "type": "address"
        }
      ],
      "stateMutability": "view",
      "type": "function"
    },
    {
      "inputs": [
        {
          "internalType": "address",
          "name": "sender",
          "type": "address"
        },
        {
          "internalType": "uint256",
          "name": "amount0",
          "type": "uint256"
        },
        {
          "internalType": "uint256",
          "name": "amount1",
          "type": "uint256"
        },
        {
          "internalType": "bytes",
          "name": "data",
          "type": "bytes"
        }
      ],
      "name": "uniswapV2Call",
      "outputs": [],
      "stateMutability": "nonpayable",
      "type": "function"
    }
  ],
  "address": "0x1a3C7deA8a021ed6108B44Ff9B9C327f92c7F15c",
  "args": [
    "0x7a250d5630B4cF539739dF2C5dAcb4c659F2488D",
    "0x5C69bEe701ef814a2B6a3EDD4B1652CB9cc5aA6f",
    "0x615a04282a457b2Dd73Fa297A22114ABE3E812cF"
  ],
  "solcInputHash": "0x9715524a9374d7e5e9f8cded26273a49b6abb5328c564027de7b23216e9f05ed",
  "bytecode": "0x60806040523480156200001157600080fd5b506040516200578238038062005782833981810160405260608110156200003757600080fd5b8101908080519060200190929190805190602001909291908051906020019092919050505060016000806101000a81548160ff021916908315150217905550600073ffffffffffffffffffffffffffffffffffffffff16600260009054906101000a900473ffffffffffffffffffffffffffffffffffffffff1673ffffffffffffffffffffffffffffffffffffffff16146200013b576040517f08c379a000000000000000000000000000000000000000000000000000000000815260040180806020018281038252600f8152602001807f4552525f494e495449414c495a4544000000000000000000000000000000000081525060200191505060405180910390fd5b600073ffffffffffffffffffffffffffffffffffffffff16600160009054906101000a900473ffffffffffffffffffffffffffffffffffffffff1673ffffffffffffffffffffffffffffffffffffffff161462000200576040517f08c379a000000000000000000000000000000000000000000000000000000000815260040180806020018281038252600f8152602001807f4552525f494e495449414c495a4544000000000000000000000000000000000081525060200191505060405180910390fd5b600073ffffffffffffffffffffffffffffffffffffffff16600060019054906101000a900473ffffffffffffffffffffffffffffffffffffffff1673ffffffffffffffffffffffffffffffffffffffff1614620002c5576040517f08c379a000000000000000000000000000000000000000000000000000000000815260040180806020018281038252600f8152602001807f4552525f494e495449414c495a4544000000000000000000000000000000000081525060200191505060405180910390fd5b82600260006101000a81548173ffffffffffffffffffffffffffffffffffffffff021916908373ffffffffffffffffffffffffffffffffffffffff16021790555081600160006101000a81548173ffffffffffffffffffffffffffffffffffffffff021916908373ffffffffffffffffffffffffffffffffffffffff16021790555080600060016101000a81548173ffffffffffffffffffffffffffffffffffffffff021916908373ffffffffffffffffffffffffffffffffffffffff1602179055503373ffffffffffffffffffffffffffffffffffffffff167f908408e307fc569b417f6cbec5d5a06f44a0a505ac0479b47d421a4b2fd6a1e660405160405180910390a25050506153a480620003de6000396000f3fe608060405234801561001057600080fd5b50600436106101005760003560e01c8063b17d057011610097578063d580c62211610066578063d580c62214610891578063d9b3612514610960578063f887ea4014610a4f578063fd52c6bb14610a9957610100565b8063b17d0570146105cc578063c45a015514610710578063cc84fde71461075a578063cd0455241461082157610100565b806317d7de7c116100d357806317d7de7c146102ef57806369bd26cd1461037257806369d12e141461041657806395f0ae76146104dd57610100565b806301c6a450146101055780630d8e6e2c146101d457806310d1e85c146101f85780631758078b146102a5575b600080fd5b6101ba600480360361010081101561011c57600080fd5b81019080803573ffffffffffffffffffffffffffffffffffffffff169060200190929190803573ffffffffffffffffffffffffffffffffffffffff16906020019092919080359060200190929190803590602001909291908035906020019092919080359060200190929190803573ffffffffffffffffffffffffffffffffffffffff16906020019092919080359060200190929190505050610b3d565b604051808215151515815260200191505060405180910390f35b6101dc610c3b565b604051808260ff1660ff16815260200191505060405180910390f35b6102a36004803603608081101561020e57600080fd5b81019080803573ffffffffffffffffffffffffffffffffffffffff16906020019092919080359060200190929190803590602001909291908035906020019064010000000081111561025f57600080fd5b82018360208201111561027157600080fd5b8035906020019184600183028401116401000000008311171561029357600080fd5b9091929391929390505050610c44565b005b6102ad610fc1565b604051808273ffffffffffffffffffffffffffffffffffffffff1673ffffffffffffffffffffffffffffffffffffffff16815260200191505060405180910390f35b6102f7610fe7565b6040518080602001828103825283818151815260200191508051906020019080838360005b8381101561033757808201518184015260208101905061031c565b50505050905090810190601f1680156103645780820380516001836020036101000a031916815260200191505b509250505060405180910390f35b6103d46004803603604081101561038857600080fd5b81019080803573ffffffffffffffffffffffffffffffffffffffff169060200190929190803573ffffffffffffffffffffffffffffffffffffffff169060200190929190505050611024565b604051808273ffffffffffffffffffffffffffffffffffffffff1673ffffffffffffffffffffffffffffffffffffffff16815260200191505060405180910390f35b6104c0600480360360e081101561042c57600080fd5b81019080803573ffffffffffffffffffffffffffffffffffffffff169060200190929190803573ffffffffffffffffffffffffffffffffffffffff169060200190929190803590602001909291908035906020019092919080359060200190929190803573ffffffffffffffffffffffffffffffffffffffff16906020019092919080359060200190929190505050611143565b604051808381526020018281526020019250505060405180910390f35b6105b2600480360360c08110156104f357600080fd5b81019080803573ffffffffffffffffffffffffffffffffffffffff16906020019092919080359060200190929190803590602001909291908035906020019064010000000081111561054457600080fd5b82018360208201111561055657600080fd5b8035906020019184602083028401116401000000008311171561057857600080fd5b9091929391929390803573ffffffffffffffffffffffffffffffffffffffff1690602001909291908035906020019092919050505061128e565b604051808215151515815260200191505060405180910390f35b6106f6600480360360c08110156105e257600080fd5b81019080803573ffffffffffffffffffffffffffffffffffffffff169060200190929190803573ffffffffffffffffffffffffffffffffffffffff16906020019092919080359060200190929190803590602001909291908035906020019064010000000081111561065357600080fd5b82018360208201111561066557600080fd5b8035906020019184602083028401116401000000008311171561068757600080fd5b919080806020026020016040519081016040528093929190818152602001838360200280828437600081840152601f19601f820116905080830192505050505050509192919290803573ffffffffffffffffffffffffffffffffffffffff1690602001909291905050506113ca565b604051808215151515815260200191505060405180910390f35b610718611b12565b604051808273ffffffffffffffffffffffffffffffffffffffff1673ffffffffffffffffffffffffffffffffffffffff16815260200191505060405180910390f35b610804600480360360e081101561077057600080fd5b81019080803573ffffffffffffffffffffffffffffffffffffffff169060200190929190803573ffffffffffffffffffffffffffffffffffffffff169060200190929190803590602001909291908035906020019092919080359060200190929190803573ffffffffffffffffffffffffffffffffffffffff16906020019092919080359060200190929190505050611b38565b604051808381526020018281526020019250505060405180910390f35b6108776004803603606081101561083757600080fd5b81019080803573ffffffffffffffffffffffffffffffffffffffff1690602001909291908035906020019092919080359060200190929190505050611c83565b604051808215151515815260200191505060405180910390f35b61094660048036036101008110156108a857600080fd5b81019080803573ffffffffffffffffffffffffffffffffffffffff169060200190929190803573ffffffffffffffffffffffffffffffffffffffff16906020019092919080359060200190929190803590602001909291908035906020019092919080359060200190929190803573ffffffffffffffffffffffffffffffffffffffff1690602001909291908035906020019092919050505061244c565b604051808215151515815260200191505060405180910390f35b610a35600480360360c081101561097657600080fd5b81019080803573ffffffffffffffffffffffffffffffffffffffff1690602001909291908035906020019092919080359060200190929190803590602001906401000000008111156109c757600080fd5b8201836020820111156109d957600080fd5b803590602001918460208302840111640100000000831117156109fb57600080fd5b9091929391929390803573ffffffffffffffffffffffffffffffffffffffff1690602001909291908035906020019092919050505061254a565b604051808215151515815260200191505060405180910390f35b610a57612686565b604051808273ffffffffffffffffffffffffffffffffffffffff1673ffffffffffffffffffffffffffffffffffffffff16815260200191505060405180910390f35b610afb60048036036040811015610aaf57600080fd5b81019080803573ffffffffffffffffffffffffffffffffffffffff169060200190929190803573ffffffffffffffffffffffffffffffffffffffff1690602001909291905050506126ac565b604051808273ffffffffffffffffffffffffffffffffffffffff1673ffffffffffffffffffffffffffffffffffffffff16815260200191505060405180910390f35b60008060009054906101000a900460ff16610bc0576040517f08c379a000000000000000000000000000000000000000000000000000000000815260040180806020018281038252601f8152602001807f5265656e7472616e637947756172643a207265656e7472616e742063616c6c0081525060200191505060405180910390fd5b60008060006101000a81548160ff0219169083151502179055506000610c0f600260009054906101000a900473ffffffffffffffffffffffffffffffffffffffff168b8b8b8b8b8b8b8b61286c565b90508091505060016000806101000a81548160ff02191690831515021790555098975050505050505050565b60006002905090565b60003373ffffffffffffffffffffffffffffffffffffffff16630dfe16816040518163ffffffff1660e01b815260040160206040518083038186803b158015610c8c57600080fd5b505afa158015610ca0573d6000803e3d6000fd5b505050506040513d6020811015610cb657600080fd5b8101908080519060200190929190505050905060003373ffffffffffffffffffffffffffffffffffffffff1663d21220a76040518163ffffffff1660e01b815260040160206040518083038186803b158015610d1157600080fd5b505afa158015610d25573d6000803e3d6000fd5b505050506040513d6020811015610d3b57600080fd5b81019080805190602001909291905050509050600160009054906101000a900473ffffffffffffffffffffffffffffffffffffffff1673ffffffffffffffffffffffffffffffffffffffff1663e6a4390583836040518363ffffffff1660e01b8152600401808373ffffffffffffffffffffffffffffffffffffffff1673ffffffffffffffffffffffffffffffffffffffff1681526020018273ffffffffffffffffffffffffffffffffffffffff1673ffffffffffffffffffffffffffffffffffffffff1681526020019250505060206040518083038186803b158015610e2157600080fd5b505afa158015610e35573d6000803e3d6000fd5b505050506040513d6020811015610e4b57600080fd5b810190808051906020019092919050505073ffffffffffffffffffffffffffffffffffffffff163373ffffffffffffffffffffffffffffffffffffffff1614610e9057fe5b600060603073ffffffffffffffffffffffffffffffffffffffff1686866040518083838082843780830192505050925050506000604051808303816000865af19150503d8060008114610eff576040519150601f19603f3d011682016040523d82523d6000602084013e610f04565b606091505b5091509150818015610f445750600081511480610f435750808060200190516020811015610f3157600080fd5b81019080805190602001909291905050505b5b610fb6576040517f08c379a00000000000000000000000000000000000000000000000000000000081526004018080602001828103825260178152602001807f4552525f554e495357415056325f43414c4c5f4641494c00000000000000000081525060200191505060405180910390fd5b505050505050505050565b600060019054906101000a900473ffffffffffffffffffffffffffffffffffffffff1681565b60606040518060400160405280601d81526020017f5072696d69746976655631556e6973776170436f6e6e6563746f723032000000815250905090565b600080600160009054906101000a900473ffffffffffffffffffffffffffffffffffffffff1673ffffffffffffffffffffffffffffffffffffffff1663c9c6539685856040518363ffffffff1660e01b8152600401808373ffffffffffffffffffffffffffffffffffffffff1673ffffffffffffffffffffffffffffffffffffffff1681526020018273ffffffffffffffffffffffffffffffffffffffff1673ffffffffffffffffffffffffffffffffffffffff16815260200192505050602060405180830381600087803b1580156110fc57600080fd5b505af1158015611110573d6000803e3d6000fd5b505050506040513d602081101561112657600080fd5b810190808051906020019092919050505090508091505092915050565b6000806000809054906101000a900460ff166111c7576040517f08c379a000000000000000000000000000000000000000000000000000000000815260040180806020018281038252601f8152602001807f5265656e7472616e637947756172643a207265656e7472616e742063616c6c0081525060200191505060405180910390fd5b60008060006101000a81548160ff02191690831515021790555060008061125c600160009054906101000a900473ffffffffffffffffffffffffffffffffffffffff16600260009054906101000a900473ffffffffffffffffffffffffffffffffffffffff16600060019054906101000a900473ffffffffffffffffffffffffffffffffffffffff168e8e8e8e8e8e8e612d7d565b91509150818193509350505060016000806101000a81548160ff02191690831515021790555097509795505050505050565b60008060009054906101000a900460ff16611311576040517f08c379a000000000000000000000000000000000000000000000000000000000815260040180806020018281038252601f8152602001807f5265656e7472616e637947756172643a207265656e7472616e742063616c6c0081525060200191505060405180910390fd5b60008060006101000a81548160ff021916908315150217905550600061139f600260009054906101000a900473ffffffffffffffffffffffffffffffffffffffff168a8a8a8a8a80806020026020016040519081016040528093929190818152602001838360200280828437600081840152601f19601f8201169050808301925050505050505089896135fe565b90508091505060016000806101000a81548160ff021916908315150217905550979650505050505050565b60003073ffffffffffffffffffffffffffffffffffffffff163373ffffffffffffffffffffffffffffffffffffffff161461146d576040517f08c379a000000000000000000000000000000000000000000000000000000000815260040180806020018281038252600c8152602001807f4552525f4e4f545f53454c46000000000000000000000000000000000000000081525060200191505060405180910390fd5b600085116114e3576040517f08c379a00000000000000000000000000000000000000000000000000000000081526004018080602001828103825260088152602001807f4552525f5a45524f00000000000000000000000000000000000000000000000081525060200191505060405180910390fd5b60008673ffffffffffffffffffffffffffffffffffffffff1663440f5fd26040518163ffffffff1660e01b815260040160206040518083038186803b15801561152b57600080fd5b505afa15801561153f573d6000803e3d6000fd5b505050506040513d602081101561155557600080fd5b810190808051906020019092919050505090508073ffffffffffffffffffffffffffffffffffffffff168460018151811061158c57fe5b602002602001015173ffffffffffffffffffffffffffffffffffffffff161461161d576040517f08c379a000000000000000000000000000000000000000000000000000000000815260040180806020018281038252601b8152602001807f4552525f454e445f504154485f4e4f545f554e4445524c59494e47000000000081525060200191505060405180910390fd5b61164887878373ffffffffffffffffffffffffffffffffffffffff1661375b9092919063ffffffff16565b6000808873ffffffffffffffffffffffffffffffffffffffff1663fa9ad7c4306040518263ffffffff1660e01b8152600401808273ffffffffffffffffffffffffffffffffffffffff1673ffffffffffffffffffffffffffffffffffffffff1681526020019150506040805180830381600087803b1580156116c957600080fd5b505af11580156116dd573d6000803e3d6000fd5b505050506040513d60408110156116f357600080fd5b8101908080519060200190929190805190602001909291905050509150915060008390506060600260009054906101000a900473ffffffffffffffffffffffffffffffffffffffff1673ffffffffffffffffffffffffffffffffffffffff1663d06ca61f848a6040518363ffffffff1660e01b81526004018083815260200180602001828103825283818151815260200191508051906020019060200280838360005b838110156117b1578082015181840152602081019050611796565b50505050905001935050505060006040518083038186803b1580156117d557600080fd5b505afa1580156117e9573d6000803e3d6000fd5b505050506040513d6000823e3d601f19601f82011682018060405250602081101561181357600080fd5b810190808051604051939291908464010000000082111561183357600080fd5b8382019150602082018581111561184957600080fd5b825186602082028301116401000000008211171561186657600080fd5b8083526020830192505050908051906020019060200280838360005b8381101561189d578082015181840152602081019050611882565b5050505090500160405250505090506000808b90506000836001815181106118c157fe5b602002602001015190508b811015611941576040517f08c379a00000000000000000000000000000000000000000000000000000000081526004018080602001828103825260128152602001807f4552525f414d4f554e545f544f4f5f4c4f57000000000000000000000000000081525060200191505060405180910390fd5b6119a1816119936103e861198561196260038861381390919063ffffffff16565b6119776103e88961381390919063ffffffff16565b61389990919063ffffffff16565b61392190919063ffffffff16565b61396b90919063ffffffff16565b92505050611a508d858e73ffffffffffffffffffffffffffffffffffffffff16632f310bad6040518163ffffffff1660e01b815260040160206040518083038186803b1580156119f057600080fd5b505afa158015611a04573d6000803e3d6000fd5b505050506040513d6020811015611a1a57600080fd5b810190808051906020019092919050505073ffffffffffffffffffffffffffffffffffffffff1661375b9092919063ffffffff16565b611a7d888e838673ffffffffffffffffffffffffffffffffffffffff166139b5909392919063ffffffff16565b3373ffffffffffffffffffffffffffffffffffffffff167ff17aa7749e04732ce7bde5ee88376144e6c5669bd4d8c80358119eada62a1d008683604051808381526020018281526020019250505060405180910390a2505050611b0185838b73ffffffffffffffffffffffffffffffffffffffff1661375b9092919063ffffffff16565b600193505050509695505050505050565b600160009054906101000a900473ffffffffffffffffffffffffffffffffffffffff1681565b6000806000809054906101000a900460ff16611bbc576040517f08c379a000000000000000000000000000000000000000000000000000000000815260040180806020018281038252601f8152602001807f5265656e7472616e637947756172643a207265656e7472616e742063616c6c0081525060200191505060405180910390fd5b60008060006101000a81548160ff021916908315150217905550600080611c51600160009054906101000a900473ffffffffffffffffffffffffffffffffffffffff16600260009054906101000a900473ffffffffffffffffffffffffffffffffffffffff16600060019054906101000a900473ffffffffffffffffffffffffffffffffffffffff168e8e8e8e8e8e8e613aa2565b91509150818193509350505060016000806101000a81548160ff02191690831515021790555097509795505050505050565b60008060009054906101000a900460ff16611d06576040517f08c379a000000000000000000000000000000000000000000000000000000000815260040180806020018281038252601f8152602001807f5265656e7472616e637947756172643a207265656e7472616e742063616c6c0081525060200191505060405180910390fd5b60008060006101000a81548160ff02191690831515021790555060008473ffffffffffffffffffffffffffffffffffffffff16632f310bad6040518163ffffffff1660e01b815260040160206040518083038186803b158015611d6857600080fd5b505afa158015611d7c573d6000803e3d6000fd5b505050506040513d6020811015611d9257600080fd5b8101908080519060200190929190505050905060008573ffffffffffffffffffffffffffffffffffffffff1663440f5fd26040518163ffffffff1660e01b815260040160206040518083038186803b158015611ded57600080fd5b505afa158015611e01573d6000803e3d6000fd5b505050506040513d6020811015611e1757600080fd5b810190808051906020019092919050505090506000600160009054906101000a900473ffffffffffffffffffffffffffffffffffffffff1673ffffffffffffffffffffffffffffffffffffffff1663e6a4390584846040518363ffffffff1660e01b8152600401808373ffffffffffffffffffffffffffffffffffffffff1673ffffffffffffffffffffffffffffffffffffffff1681526020018273ffffffffffffffffffffffffffffffffffffffff1673ffffffffffffffffffffffffffffffffffffffff1681526020019250505060206040518083038186803b158015611eff57600080fd5b505afa158015611f13573d6000803e3d6000fd5b505050506040513d6020811015611f2957600080fd5b8101908080519060200190929190505050905060606002604051908082528060200260200182016040528015611f6e5781602001602082028038833980820191505090505b5090508381600081518110611f7f57fe5b602002602001019073ffffffffffffffffffffffffffffffffffffffff16908173ffffffffffffffffffffffffffffffffffffffff16815250508281600181518110611fc757fe5b602002602001019073ffffffffffffffffffffffffffffffffffffffff16908173ffffffffffffffffffffffffffffffffffffffff1681525050600082905060006040518060800160405280605081526020016152f560509139805190602001209050606081858c8c8c8833604051602401808773ffffffffffffffffffffffffffffffffffffffff1673ffffffffffffffffffffffffffffffffffffffff1681526020018673ffffffffffffffffffffffffffffffffffffffff1673ffffffffffffffffffffffffffffffffffffffff168152602001858152602001848152602001806020018373ffffffffffffffffffffffffffffffffffffffff1673ffffffffffffffffffffffffffffffffffffffff168152602001828103825284818151815260200191508051906020019060200280838360005b8381101561211b578082015181840152602081019050612100565b50505050905001975050505050505050604051602081830303815290604052907bffffffffffffffffffffffffffffffffffffffffffffffffffffffff19166020820180517bffffffffffffffffffffffffffffffffffffffffffffffffffffffff8381831617835250505050905060008673ffffffffffffffffffffffffffffffffffffffff168473ffffffffffffffffffffffffffffffffffffffff16630dfe16816040518163ffffffff1660e01b815260040160206040518083038186803b1580156121e957600080fd5b505afa1580156121fd573d6000803e3d6000fd5b505050506040513d602081101561221357600080fd5b810190808051906020019092919050505073ffffffffffffffffffffffffffffffffffffffff1614612246576000612248565b8a5b905060008773ffffffffffffffffffffffffffffffffffffffff168573ffffffffffffffffffffffffffffffffffffffff16630dfe16816040518163ffffffff1660e01b815260040160206040518083038186803b1580156122a957600080fd5b505afa1580156122bd573d6000803e3d6000fd5b505050506040513d60208110156122d357600080fd5b810190808051906020019092919050505073ffffffffffffffffffffffffffffffffffffffff1614612305578b612308565b60005b90508473ffffffffffffffffffffffffffffffffffffffff1663022c0d9f838330876040518563ffffffff1660e01b8152600401808581526020018481526020018373ffffffffffffffffffffffffffffffffffffffff1673ffffffffffffffffffffffffffffffffffffffff16815260200180602001828103825283818151815260200191508051906020019080838360005b838110156123b757808201518184015260208101905061239c565b50505050905090810190601f1680156123e45780820380516001836020036101000a031916815260200191505b5095505050505050600060405180830381600087803b15801561240657600080fd5b505af115801561241a573d6000803e3d6000fd5b505050506001995050505050505050505060016000806101000a81548160ff0219169083151502179055509392505050565b60008060009054906101000a900460ff166124cf576040517f08c379a000000000000000000000000000000000000000000000000000000000815260040180806020018281038252601f8152602001807f5265656e7472616e637947756172643a207265656e7472616e742063616c6c0081525060200191505060405180910390fd5b60008060006101000a81548160ff021916908315150217905550600061251e600260009054906101000a900473ffffffffffffffffffffffffffffffffffffffff168b8b8b8b8b8b8b8b6142ef565b90508091505060016000806101000a81548160ff02191690831515021790555098975050505050505050565b60008060009054906101000a900460ff166125cd576040517f08c379a000000000000000000000000000000000000000000000000000000000815260040180806020018281038252601f8152602001807f5265656e7472616e637947756172643a207265656e7472616e742063616c6c0081525060200191505060405180910390fd5b60008060006101000a81548160ff021916908315150217905550600061265b600260009054906101000a900473ffffffffffffffffffffffffffffffffffffffff168a8a8a8a8a80806020026020016040519081016040528093929190818152602001838360200280828437600081840152601f19601f8201169050808301925050505050505089896147fd565b90508091505060016000806101000a81548160ff021916908315150217905550979650505050505050565b600260009054906101000a900473ffffffffffffffffffffffffffffffffffffffff1681565b600080600160009054906101000a900473ffffffffffffffffffffffffffffffffffffffff1673ffffffffffffffffffffffffffffffffffffffff1663e6a4390585856040518363ffffffff1660e01b8152600401808373ffffffffffffffffffffffffffffffffffffffff1673ffffffffffffffffffffffffffffffffffffffff1681526020018273ffffffffffffffffffffffffffffffffffffffff1673ffffffffffffffffffffffffffffffffffffffff1681526020019250505060206040518083038186803b15801561278257600080fd5b505afa158015612796573d6000803e3d6000fd5b505050506040513d60208110156127ac57600080fd5b81019080805190602001909291905050509050600073ffffffffffffffffffffffffffffffffffffffff168173ffffffffffffffffffffffffffffffffffffffff161415612862576040517f08c379a00000000000000000000000000000000000000000000000000000000081526004018080602001828103825260178152602001807f4552525f504149525f444f45535f4e4f545f455849535400000000000000000081525060200191505060405180910390fd5b8091505092915050565b600061289b3330888b73ffffffffffffffffffffffffffffffffffffffff166139b5909392919063ffffffff16565b6000806128a98b8a30614954565b915091508882146128b657fe5b8a73ffffffffffffffffffffffffffffffffffffffff1663095ea7b38d7fffffffffffffffffffffffffffffffffffffffffffffffffffffffffffffffff6040518363ffffffff1660e01b8152600401808373ffffffffffffffffffffffffffffffffffffffff1673ffffffffffffffffffffffffffffffffffffffff16815260200182815260200192505050602060405180830381600087803b15801561295d57600080fd5b505af1158015612971573d6000803e3d6000fd5b505050506040513d602081101561298757600080fd5b8101908080519060200190929190505050508973ffffffffffffffffffffffffffffffffffffffff1663095ea7b38d7fffffffffffffffffffffffffffffffffffffffffffffffffffffffffffffffff6040518363ffffffff1660e01b8152600401808373ffffffffffffffffffffffffffffffffffffffff1673ffffffffffffffffffffffffffffffffffffffff16815260200182815260200192505050602060405180830381600087803b158015612a4057600080fd5b505af1158015612a54573d6000803e3d6000fd5b505050506040513d6020811015612a6a57600080fd5b8101908080519060200190929190505050508b73ffffffffffffffffffffffffffffffffffffffff1663e8e337008c8c8c8c8c8c8c8c6040518963ffffffff1660e01b8152600401808973ffffffffffffffffffffffffffffffffffffffff1673ffffffffffffffffffffffffffffffffffffffff1681526020018873ffffffffffffffffffffffffffffffffffffffff1673ffffffffffffffffffffffffffffffffffffffff1681526020018781526020018681526020018581526020018481526020018373ffffffffffffffffffffffffffffffffffffffff1673ffffffffffffffffffffffffffffffffffffffff16815260200182815260200198505050505050505050606060405180830381600087803b158015612b8b57600080fd5b505af1158015612b9f573d6000803e3d6000fd5b505050506040513d6060811015612bb557600080fd5b81019080805190602001909291908051906020019092919080519060200190929190505050505050612c8833828d73ffffffffffffffffffffffffffffffffffffffff16632f310bad6040518163ffffffff1660e01b815260040160206040518083038186803b158015612c2857600080fd5b505afa158015612c3c573d6000803e3d6000fd5b505050506040513d6020811015612c5257600080fd5b810190808051906020019092919050505073ffffffffffffffffffffffffffffffffffffffff1661375b9092919063ffffffff16565b612d6a338b73ffffffffffffffffffffffffffffffffffffffff166370a08231306040518263ffffffff1660e01b8152600401808273ffffffffffffffffffffffffffffffffffffffff1673ffffffffffffffffffffffffffffffffffffffff16815260200191505060206040518083038186803b158015612d0957600080fd5b505afa158015612d1d573d6000803e3d6000fd5b505050506040513d6020811015612d3357600080fd5b81019080805190602001909291905050508c73ffffffffffffffffffffffffffffffffffffffff1661375b9092919063ffffffff16565b6001925050509998505050505050505050565b60008060008973ffffffffffffffffffffffffffffffffffffffff16632f310bad6040518163ffffffff1660e01b815260040160206040518083038186803b158015612dc857600080fd5b505afa158015612ddc573d6000803e3d6000fd5b505050506040513d6020811015612df257600080fd5b8101908080519060200190929190505050905060008d73ffffffffffffffffffffffffffffffffffffffff1663e6a43905838c6040518363ffffffff1660e01b8152600401808373ffffffffffffffffffffffffffffffffffffffff1673ffffffffffffffffffffffffffffffffffffffff1681526020018273ffffffffffffffffffffffffffffffffffffffff1673ffffffffffffffffffffffffffffffffffffffff1681526020019250505060206040518083038186803b158015612eb857600080fd5b505afa158015612ecc573d6000803e3d6000fd5b505050506040513d6020811015612ee257600080fd5b81019080805190602001909291905050509050612f2233308b8473ffffffffffffffffffffffffffffffffffffffff166139b5909392919063ffffffff16565b8073ffffffffffffffffffffffffffffffffffffffff1663095ea7b38e7fffffffffffffffffffffffffffffffffffffffffffffffffffffffffffffffff6040518363ffffffff1660e01b8152600401808373ffffffffffffffffffffffffffffffffffffffff1673ffffffffffffffffffffffffffffffffffffffff16815260200182815260200192505050602060405180830381600087803b158015612fc957600080fd5b505af1158015612fdd573d6000803e3d6000fd5b505050506040513d6020811015612ff357600080fd5b810190808051906020019092919050505050506000808d73ffffffffffffffffffffffffffffffffffffffff1663baa2abde848d8d8d8d308d6040518863ffffffff1660e01b8152600401808873ffffffffffffffffffffffffffffffffffffffff1673ffffffffffffffffffffffffffffffffffffffff1681526020018773ffffffffffffffffffffffffffffffffffffffff1673ffffffffffffffffffffffffffffffffffffffff1681526020018681526020018581526020018481526020018373ffffffffffffffffffffffffffffffffffffffff1673ffffffffffffffffffffffffffffffffffffffff1681526020018281526020019750505050505050506040805180830381600087803b15801561310f57600080fd5b505af1158015613123573d6000803e3d6000fd5b505050506040513d604081101561313957600080fd5b8101908080519060200190929190805190602001909291905050509150915060008c90508073ffffffffffffffffffffffffffffffffffffffff1663095ea7b38f7fffffffffffffffffffffffffffffffffffffffffffffffffffffffffffffffff6040518363ffffffff1660e01b8152600401808373ffffffffffffffffffffffffffffffffffffffff1673ffffffffffffffffffffffffffffffffffffffff16815260200182815260200192505050602060405180830381600087803b15801561320457600080fd5b505af1158015613218573d6000803e3d6000fd5b505050506040513d602081101561322e57600080fd5b8101908080519060200190929190505050508373ffffffffffffffffffffffffffffffffffffffff1663095ea7b38f7fffffffffffffffffffffffffffffffffffffffffffffffffffffffffffffffff6040518363ffffffff1660e01b8152600401808373ffffffffffffffffffffffffffffffffffffffff1673ffffffffffffffffffffffffffffffffffffffff16815260200182815260200192505050602060405180830381600087803b1580156132e757600080fd5b505af11580156132fb573d6000803e3d6000fd5b505050506040513d602081101561331157600080fd5b810190808051906020019092919050505050600061347d670de0b6b3a764000061346f8473ffffffffffffffffffffffffffffffffffffffff1662fe19fa6040518163ffffffff1660e01b815260040160206040518083038186803b15801561337957600080fd5b505afa15801561338d573d6000803e3d6000fd5b505050506040513d60208110156133a357600080fd5b8101908080519060200190929190505050613461670de0b6b3a76400006134538873ffffffffffffffffffffffffffffffffffffffff1663b592a1386040518163ffffffff1660e01b815260040160206040518083038186803b15801561340957600080fd5b505afa15801561341d573d6000803e3d6000fd5b505050506040513d602081101561343357600080fd5b81019080805190602001909291905050508b61381390919063ffffffff16565b61381390919063ffffffff16565b61392190919063ffffffff16565b61392190919063ffffffff16565b90506134ac3330838573ffffffffffffffffffffffffffffffffffffffff166139b5909392919063ffffffff16565b8e73ffffffffffffffffffffffffffffffffffffffff1663b8a6bb3b83838c6040518463ffffffff1660e01b8152600401808473ffffffffffffffffffffffffffffffffffffffff1673ffffffffffffffffffffffffffffffffffffffff1681526020018381526020018273ffffffffffffffffffffffffffffffffffffffff1673ffffffffffffffffffffffffffffffffffffffff1681526020019350505050606060405180830381600087803b15801561356757600080fd5b505af115801561357b573d6000803e3d6000fd5b505050506040513d606081101561359157600080fd5b8101908080519060200190929190805190602001909291908051906020019092919050505050505050506135e687828d73ffffffffffffffffffffffffffffffffffffffff1661375b9092919063ffffffff16565b8181945094505050509a509a98505050505050505050565b600080600061360e898930614954565b9150915060008973ffffffffffffffffffffffffffffffffffffffff16632f310bad6040518163ffffffff1660e01b815260040160206040518083038186803b15801561365a57600080fd5b505afa15801561366e573d6000803e3d6000fd5b505050506040513d602081101561368457600080fd5b8101908080519060200190929190505050905060006136a88c83858c8c8c8c614b54565b9150508061371e576040517f08c379a000000000000000000000000000000000000000000000000000000000815260040180806020018281038252600f8152602001807f4552525f535741505f4641494c4544000000000000000000000000000000000081525060200191505060405180910390fd5b61374987858d73ffffffffffffffffffffffffffffffffffffffff1661375b9092919063ffffffff16565b80945050505050979650505050505050565b61380e8363a9059cbb60e01b8484604051602401808373ffffffffffffffffffffffffffffffffffffffff1673ffffffffffffffffffffffffffffffffffffffff16815260200182815260200192505050604051602081830303815290604052907bffffffffffffffffffffffffffffffffffffffffffffffffffffffff19166020820180517bffffffffffffffffffffffffffffffffffffffffffffffffffffffff8381831617835250505050614eb7565b505050565b6000808314156138265760009050613893565b600082840290508284828161383757fe5b041461388e576040517f08c379a00000000000000000000000000000000000000000000000000000000081526004018080602001828103825260218152602001806152d46021913960400191505060405180910390fd5b809150505b92915050565b600080828401905083811015613917576040517f08c379a000000000000000000000000000000000000000000000000000000000815260040180806020018281038252601b8152602001807f536166654d6174683a206164646974696f6e206f766572666c6f77000000000081525060200191505060405180910390fd5b8091505092915050565b600061396383836040518060400160405280601a81526020017f536166654d6174683a206469766973696f6e206279207a65726f000000000000815250615102565b905092915050565b60006139ad83836040518060400160405280601e81526020017f536166654d6174683a207375627472616374696f6e206f766572666c6f7700008152506151c8565b905092915050565b613a9c846323b872dd60e01b858585604051602401808473ffffffffffffffffffffffffffffffffffffffff1673ffffffffffffffffffffffffffffffffffffffff1681526020018373ffffffffffffffffffffffffffffffffffffffff1673ffffffffffffffffffffffffffffffffffffffff1681526020018281526020019350505050604051602081830303815290604052907bffffffffffffffffffffffffffffffffffffffffffffffffffffffff19166020820180517bffffffffffffffffffffffffffffffffffffffffffffffffffffffff8381831617835250505050614eb7565b50505050565b600080600089905060008d73ffffffffffffffffffffffffffffffffffffffff1663e6a439058c8c6040518363ffffffff1660e01b8152600401808373ffffffffffffffffffffffffffffffffffffffff1673ffffffffffffffffffffffffffffffffffffffff1681526020018273ffffffffffffffffffffffffffffffffffffffff1673ffffffffffffffffffffffffffffffffffffffff1681526020019250505060206040518083038186803b158015613b5d57600080fd5b505afa158015613b71573d6000803e3d6000fd5b505050506040513d6020811015613b8757600080fd5b81019080805190602001909291905050509050613bc733308b8473ffffffffffffffffffffffffffffffffffffffff166139b5909392919063ffffffff16565b8073ffffffffffffffffffffffffffffffffffffffff1663095ea7b38e7fffffffffffffffffffffffffffffffffffffffffffffffffffffffffffffffff6040518363ffffffff1660e01b8152600401808373ffffffffffffffffffffffffffffffffffffffff1673ffffffffffffffffffffffffffffffffffffffff16815260200182815260200192505050602060405180830381600087803b158015613c6e57600080fd5b505af1158015613c82573d6000803e3d6000fd5b505050506040513d6020811015613c9857600080fd5b810190808051906020019092919050505050506000808d73ffffffffffffffffffffffffffffffffffffffff1663baa2abde8d8d8d8d8d308d6040518863ffffffff1660e01b8152600401808873ffffffffffffffffffffffffffffffffffffffff1673ffffffffffffffffffffffffffffffffffffffff1681526020018773ffffffffffffffffffffffffffffffffffffffff1673ffffffffffffffffffffffffffffffffffffffff1681526020018681526020018581526020018481526020018373ffffffffffffffffffffffffffffffffffffffff1673ffffffffffffffffffffffffffffffffffffffff1681526020018281526020019750505050505050506040805180830381600087803b158015613db457600080fd5b505af1158015613dc8573d6000803e3d6000fd5b505050506040513d6040811015613dde57600080fd5b8101908080519060200190929190805190602001909291905050509150915060008373ffffffffffffffffffffffffffffffffffffffff16632f310bad6040518163ffffffff1660e01b815260040160206040518083038186803b158015613e4557600080fd5b505afa158015613e59573d6000803e3d6000fd5b505050506040513d6020811015613e6f57600080fd5b810190808051906020019092919050505090508c73ffffffffffffffffffffffffffffffffffffffff1663095ea7b38f7fffffffffffffffffffffffffffffffffffffffffffffffffffffffffffffffff6040518363ffffffff1660e01b8152600401808373ffffffffffffffffffffffffffffffffffffffff1673ffffffffffffffffffffffffffffffffffffffff16815260200182815260200192505050602060405180830381600087803b158015613f2957600080fd5b505af1158015613f3d573d6000803e3d6000fd5b505050506040513d6020811015613f5357600080fd5b8101908080519060200190929190505050508073ffffffffffffffffffffffffffffffffffffffff1663095ea7b38f7fffffffffffffffffffffffffffffffffffffffffffffffffffffffffffffffff6040518363ffffffff1660e01b8152600401808373ffffffffffffffffffffffffffffffffffffffff1673ffffffffffffffffffffffffffffffffffffffff16815260200182815260200192505050602060405180830381600087803b15801561400c57600080fd5b505af1158015614020573d6000803e3d6000fd5b505050506040513d602081101561403657600080fd5b810190808051906020019092919050505050600061416e8573ffffffffffffffffffffffffffffffffffffffff1663b592a1386040518163ffffffff1660e01b815260040160206040518083038186803b15801561409357600080fd5b505afa1580156140a7573d6000803e3d6000fd5b505050506040513d60208110156140bd57600080fd5b81019080805190602001909291905050506141608773ffffffffffffffffffffffffffffffffffffffff1662fe19fa6040518163ffffffff1660e01b815260040160206040518083038186803b15801561411657600080fd5b505afa15801561412a573d6000803e3d6000fd5b505050506040513d602081101561414057600080fd5b81019080805190602001909291905050508761381390919063ffffffff16565b61392190919063ffffffff16565b905061419d3330838573ffffffffffffffffffffffffffffffffffffffff166139b5909392919063ffffffff16565b50508c73ffffffffffffffffffffffffffffffffffffffff1663b8a6bb3b84848a6040518463ffffffff1660e01b8152600401808473ffffffffffffffffffffffffffffffffffffffff1673ffffffffffffffffffffffffffffffffffffffff1681526020018381526020018273ffffffffffffffffffffffffffffffffffffffff1673ffffffffffffffffffffffffffffffffffffffff1681526020019350505050606060405180830381600087803b15801561425a57600080fd5b505af115801561426e573d6000803e3d6000fd5b505050506040513d606081101561428457600080fd5b810190808051906020019092919080519060200190929190805190602001909291905050505050506142d787828d73ffffffffffffffffffffffffffffffffffffffff1661375b9092919063ffffffff16565b8181945094505050509a509a98505050505050505050565b600061431e3330888b73ffffffffffffffffffffffffffffffffffffffff166139b5909392919063ffffffff16565b60008061432c8b8a30614954565b9150915060008b73ffffffffffffffffffffffffffffffffffffffff16632f310bad6040518163ffffffff1660e01b815260040160206040518083038186803b15801561437857600080fd5b505afa15801561438c573d6000803e3d6000fd5b505050506040513d60208110156143a257600080fd5b810190808051906020019092919050505090508073ffffffffffffffffffffffffffffffffffffffff1663095ea7b38e7fffffffffffffffffffffffffffffffffffffffffffffffffffffffffffffffff6040518363ffffffff1660e01b8152600401808373ffffffffffffffffffffffffffffffffffffffff1673ffffffffffffffffffffffffffffffffffffffff16815260200182815260200192505050602060405180830381600087803b15801561445c57600080fd5b505af1158015614470573d6000803e3d6000fd5b505050506040513d602081101561448657600080fd5b8101908080519060200190929190505050508a73ffffffffffffffffffffffffffffffffffffffff1663095ea7b38e7fffffffffffffffffffffffffffffffffffffffffffffffffffffffffffffffff6040518363ffffffff1660e01b8152600401808373ffffffffffffffffffffffffffffffffffffffff1673ffffffffffffffffffffffffffffffffffffffff16815260200182815260200192505050602060405180830381600087803b15801561453f57600080fd5b505af1158015614553573d6000803e3d6000fd5b505050506040513d602081101561456957600080fd5b8101908080519060200190929190505050508c73ffffffffffffffffffffffffffffffffffffffff1663e8e33700828d858d8d8d8d8d6040518963ffffffff1660e01b8152600401808973ffffffffffffffffffffffffffffffffffffffff1673ffffffffffffffffffffffffffffffffffffffff1681526020018873ffffffffffffffffffffffffffffffffffffffff1673ffffffffffffffffffffffffffffffffffffffff1681526020018781526020018681526020018581526020018481526020018373ffffffffffffffffffffffffffffffffffffffff1673ffffffffffffffffffffffffffffffffffffffff16815260200182815260200198505050505050505050606060405180830381600087803b15801561468a57600080fd5b505af115801561469e573d6000803e3d6000fd5b505050506040513d60608110156146b457600080fd5b8101908080519060200190929190805190602001909291908051906020019092919050505050505061470733848e73ffffffffffffffffffffffffffffffffffffffff1661375b9092919063ffffffff16565b6147e9338c73ffffffffffffffffffffffffffffffffffffffff166370a08231306040518263ffffffff1660e01b8152600401808273ffffffffffffffffffffffffffffffffffffffff1673ffffffffffffffffffffffffffffffffffffffff16815260200191505060206040518083038186803b15801561478857600080fd5b505afa15801561479c573d6000803e3d6000fd5b505050506040513d60208110156147b257600080fd5b81019080805190602001909291905050508d73ffffffffffffffffffffffffffffffffffffffff1661375b9092919063ffffffff16565b600193505050509998505050505050505050565b600080600061480d898930614954565b9150915060006148228b8b858b8b8b8b614b54565b91505080614898576040517f08c379a000000000000000000000000000000000000000000000000000000000815260040180806020018281038252600f8152602001807f4552525f535741505f4641494c4544000000000000000000000000000000000081525060200191505060405180910390fd5b61494386838c73ffffffffffffffffffffffffffffffffffffffff16632f310bad6040518163ffffffff1660e01b815260040160206040518083038186803b1580156148e357600080fd5b505afa1580156148f7573d6000803e3d6000fd5b505050506040513d602081101561490d57600080fd5b810190808051906020019092919050505073ffffffffffffffffffffffffffffffffffffffff1661375b9092919063ffffffff16565b809350505050979650505050505050565b600080600084116149cd576040517f08c379a00000000000000000000000000000000000000000000000000000000081526004018080602001828103825260088152602001807f4552525f5a45524f00000000000000000000000000000000000000000000000081525060200191505060405180910390fd5b614a7a3386868873ffffffffffffffffffffffffffffffffffffffff1663440f5fd26040518163ffffffff1660e01b815260040160206040518083038186803b158015614a1957600080fd5b505afa158015614a2d573d6000803e3d6000fd5b505050506040513d6020811015614a4357600080fd5b810190808051906020019092919050505073ffffffffffffffffffffffffffffffffffffffff166139b5909392919063ffffffff16565b6000808673ffffffffffffffffffffffffffffffffffffffff1663fa9ad7c4866040518263ffffffff1660e01b8152600401808273ffffffffffffffffffffffffffffffffffffffff1673ffffffffffffffffffffffffffffffffffffffff1681526020019150506040805180830381600087803b158015614afb57600080fd5b505af1158015614b0f573d6000803e3d6000fd5b505050506040513d6040811015614b2557600080fd5b810190808051906020019092919080519060200190929190505050915091508181935093505050935093915050565b606060008773ffffffffffffffffffffffffffffffffffffffff1685600081518110614b7c57fe5b602002602001015173ffffffffffffffffffffffffffffffffffffffff1614614c0d576040517f08c379a00000000000000000000000000000000000000000000000000000000081526004018080602001828103825260158152602001807f4552525f504154485f4f5054494f4e5f5354415254000000000000000000000081525060200191505060405180910390fd5b8773ffffffffffffffffffffffffffffffffffffffff1663095ea7b38a7fffffffffffffffffffffffffffffffffffffffffffffffffffffffffffffffff6040518363ffffffff1660e01b8152600401808373ffffffffffffffffffffffffffffffffffffffff1673ffffffffffffffffffffffffffffffffffffffff16815260200182815260200192505050602060405180830381600087803b158015614cb457600080fd5b505af1158015614cc8573d6000803e3d6000fd5b505050506040513d6020811015614cde57600080fd5b8101908080519060200190929190505050508873ffffffffffffffffffffffffffffffffffffffff166338ed173988888888886040518663ffffffff1660e01b815260040180868152602001858152602001806020018473ffffffffffffffffffffffffffffffffffffffff1673ffffffffffffffffffffffffffffffffffffffff168152602001838152602001828103825285818151815260200191508051906020019060200280838360005b83811015614da7578082015181840152602081019050614d8c565b505050509050019650505050505050600060405180830381600087803b158015614dd057600080fd5b505af1158015614de4573d6000803e3d6000fd5b505050506040513d6000823e3d601f19601f820116820180604052506020811015614e0e57600080fd5b8101908080516040519392919084640100000000821115614e2e57600080fd5b83820191506020820185811115614e4457600080fd5b8251866020820283011164010000000082111715614e6157600080fd5b8083526020830192505050908051906020019060200280838360005b83811015614e98578082015181840152602081019050614e7d565b5050505090500160405250505091506001905097509795505050505050565b614ed68273ffffffffffffffffffffffffffffffffffffffff16615288565b614f48576040517f08c379a000000000000000000000000000000000000000000000000000000000815260040180806020018281038252601f8152602001807f5361666545524332303a2063616c6c20746f206e6f6e2d636f6e74726163740081525060200191505060405180910390fd5b600060608373ffffffffffffffffffffffffffffffffffffffff16836040518082805190602001908083835b60208310614f975780518252602082019150602081019050602083039250614f74565b6001836020036101000a0380198251168184511680821785525050505050509050019150506000604051808303816000865af19150503d8060008114614ff9576040519150601f19603f3d011682016040523d82523d6000602084013e614ffe565b606091505b509150915081615076576040517f08c379a00000000000000000000000000000000000000000000000000000000081526004018080602001828103825260208152602001807f5361666545524332303a206c6f772d6c6576656c2063616c6c206661696c656481525060200191505060405180910390fd5b6000815111156150fc5780806020019051602081101561509557600080fd5b81019080805190602001909291905050506150fb576040517f08c379a000000000000000000000000000000000000000000000000000000000815260040180806020018281038252602a815260200180615345602a913960400191505060405180910390fd5b5b50505050565b600080831182906151ae576040517f08c379a00000000000000000000000000000000000000000000000000000000081526004018080602001828103825283818151815260200191508051906020019080838360005b83811015615173578082015181840152602081019050615158565b50505050905090810190601f1680156151a05780820380516001836020036101000a031916815260200191505b509250505060405180910390fd5b5060008385816151ba57fe5b049050809150509392505050565b6000838311158290615275576040517f08c379a00000000000000000000000000000000000000000000000000000000081526004018080602001828103825283818151815260200191508051906020019080838360005b8381101561523a57808201518184015260208101905061521f565b50505050905090810190601f1680156152675780820380516001836020036101000a031916815260200191505b509250505060405180910390fd5b5060008385039050809150509392505050565b60008060007fc5d2460186f7233c927e7db2dcc703c0e500b653ca82273b7bfad8045d85a47060001b9050833f91508082141580156152ca57506000801b8214155b9250505091905056fe536166654d6174683a206d756c7469706c69636174696f6e206f766572666c6f77666c6173684d696e7453686f72744f7074696f6e735468656e5377617028616464726573732c616464726573732c75696e743235362c75696e743235362c616464726573735b5d2c61646472657373295361666545524332303a204552433230206f7065726174696f6e20646964206e6f742073756363656564a264697066735822122057f6bfb14ec05d3671a394b702766668979feed2624d7d4960beb26cc2706fb064736f6c63430006020033",
  "devdoc": {
    "methods": {
      "addLongLiquidityWithUnderlying(address,address,uint256,uint256,uint256,uint256,address,uint256)": {
        "details": "Adds liquidity to an option<>token pair by minting longOptionTokens with underlyingTokens.",
        "params": {
          "deadline": "The timestamp to expire a pending transaction. \r",
          "minOptionTokens": "The minimum quantity of longOptionTokens expected to provide liquidity with.",
          "minOtherTokens": "The minimum quantity of otherTokens expected to provide liquidity with.",
          "optionAddress": "The address of the optionToken to mint then provide liquidity for.",
          "otherTokenAddress": "The address of the otherToken in the pair with the optionToken.",
          "quantityOptions": "The quantity of underlyingTokens to use to mint longOptionTokens.",
          "quantityOtherTokens": "The quantity of otherTokens to add with longOptionTokens to the Uniswap V2 Pair.",
          "to": "The address that receives UNI-V2 shares."
        }
      },
      "addShortLiquidityWithUnderlying(address,address,uint256,uint256,uint256,uint256,address,uint256)": {
        "details": "Adds redeemToken liquidity to a redeem<>token pair by minting shortOptionTokens with underlyingTokens.",
        "params": {
          "deadline": "The timestamp to expire a pending transaction. \r",
          "minOtherTokens": "The minimum quantity of otherTokens expected to provide liquidity with.",
          "minShortTokens": "The minimum quantity of shortOptionTokens expected to provide liquidity with.",
          "optionAddress": "The address of the optionToken to get the redeemToken to mint then provide liquidity for.",
          "otherTokenAddress": "IMPORTANT: Should be the underlyingToken of option. Address of other reserve asset.",
          "quantityOptions": "The quantity of underlyingTokens to use to mint option + redeem tokens.",
          "quantityOtherTokens": "The quantity of otherTokens to add with shortOptionTokens to the Uniswap V2 Pair.",
          "to": "The address that receives UNI-V2 shares."
        }
      },
      "deployUniswapMarket(address,address)": {
        "details": "Creates a UniswapV2Pair by calling `createPair` on the UniswapV2Factory."
      },
      "flashMintShortOptionsThenSwap(address,address,uint256,uint256,address[],address)": {
        "details": "Receives underlyingTokens from a UniswapV2Pair.swap() call from a pair with reserve0 = shortOptionTokens and reserve1 = underlyingTokens. Uses underlyingTokens to mint long (option) + short (redeem) tokens. Sends longOptionTokens to msg.sender, and pays back the UniswapV2Pair the shortOptionTokens, AND any remainder quantity of underlyingTokens (paid by msg.sender).",
        "params": {
          "amountOutMin": "The minimum quantity of underlyingTokens to receive in exchange for the shortOptionTokens.",
          "flashLoanQuantity": "The quantity of options to mint using borrowed underlyingTokens.",
          "optionAddress": "The address of the Option contract.",
          "path": "The token addresses to trade through using their Uniswap V2 pools. Assumes path[0] = shortOptionToken.",
          "to": "The address to send the shortOptionToken proceeds and longOptionTokens to."
        },
        "returns": {
          "_0": "success bool Whether the transaction was successful or not. \r"
        }
      },
      "getName()": {
        "details": "Gets the name of the contract."
      },
      "getUniswapMarketForTokens(address,address)": {
        "details": "Gets a UniswapV2Pair address for two tokens by calling the UniswapV2Factory."
      },
      "getVersion()": {
        "details": "Gets the version of the contract."
      },
      "mintLongOptionsThenSwapToTokens(address,uint256,uint256,address[],address,uint256)": {
        "details": "Mints long + short option tokens, then swaps the longOptionTokens (option) for tokens. Combines Primitive \"mintOptions\" function with Uniswap V2 Router \"swapExactTokensForTokens\" function.",
        "params": {
          "amountIn": "The quantity of longOptionTokens to mint and then sell.",
          "amountOutMin": "The minimum quantity of tokens to receive in exchange for the longOptionTokens.",
          "deadline": "The timestamp for a trade to fail at if not successful.",
          "optionToken": "The address of the Oracle-less Primitive option.",
          "path": "The token addresses to trade through using their Uniswap V2 pools. Assumes path[0] = option.",
          "to": "The address to send the optionToken proceeds and redeem tokens to."
        },
        "returns": {
          "_0": "bool Whether the transaction was successful or not. \r"
        }
      },
      "mintShortOptionsThenSwapToTokens(address,uint256,uint256,address[],address,uint256)": {
        "details": "Mints long + short option tokens, then swaps the shortOptionTokens (redeem) for tokens.",
        "params": {
          "amountIn": "The quantity of options to mint.",
          "amountOutMin": "The minimum quantity of tokens to receive in exchange for the shortOptionTokens.",
          "deadline": "The timestamp for a trade to fail at if not successful.",
          "optionToken": "The address of the Option contract.",
          "path": "The token addresses to trade through using their Uniswap V2 pools. Assumes path[0] = shortOptionToken.",
          "to": "The address to send the shortOptionToken proceeds and longOptionTokens to."
        },
        "returns": {
          "_0": "bool Whether the transaction was successful or not. \r"
        }
      },
      "openFlashLong(address,uint256,uint256)": {
        "details": "Opens a longOptionToken position by minting long + short tokens, then selling the short tokens.",
        "params": {
          "amountOptions": "The quantity of longOptionTokens to purchase.",
          "amountOutMin": "The minimum quantity of underlyingTokens to receive in exchange for the shortOptionTokens. \r",
          "optionToken": "The option address."
        }
      },
      "removeLongLiquidityThenCloseOptions(address,address,uint256,uint256,uint256,address,uint256)": {
        "details": "Combines Uniswap V2 Router \"removeLiquidity\" function with Primitive \"closeOptions\" function.",
        "params": {
          "amountAMin": "The minimum quantity of longOptionTokens to receive from removing liquidity.",
          "amountBMin": "The minimum quantity of otherTokens to receive from removing liquidity.",
          "deadline": "The timestamp to expire a pending transaction. \r",
          "liquidity": "The quantity of liquidity tokens to pull from msg.sender and burn.",
          "optionAddress": "The address of the option that will be closed from burned UNI-V2 liquidity shares.",
          "otherTokenAddress": "The address of the other token in the pair with the options.",
          "to": "The address that receives otherTokens from burned UNI-V2, and underlyingTokens from closed options."
        }
      },
      "removeShortLiquidityThenCloseOptions(address,address,uint256,uint256,uint256,address,uint256)": {
        "details": "Combines Uniswap V2 Router \"removeLiquidity\" function with Primitive \"closeOptions\" function.",
        "params": {
          "amountAMin": "The minimum quantity of shortOptionTokens to receive from removing liquidity.",
          "amountBMin": "The minimum quantity of quoteTokens to receive from removing liquidity.",
          "deadline": "The timestamp to expire a pending transaction. \r",
          "liquidity": "The quantity of liquidity tokens to pull from msg.sender and burn.",
          "optionAddress": "The address of the option that will be closed from burned UNI-V2 liquidity shares.",
          "otherTokenAddress": "The address of the other token in the option pair.",
          "to": "The address that receives quoteTokens from burned UNI-V2, and underlyingTokens from closed options."
        }
      },
      "uniswapV2Call(address,uint256,uint256,bytes)": {
        "details": "The callback function triggered in a UniswapV2Pair.swap() call when the `data` parameter has data.",
        "params": {
          "amount0": "The quantity of token0 received to the `to` address in the swap() call.",
          "amount1": "The quantity of token1 received to the `to` address in the swap() call.",
          "data": "The payload passed in the `data` parameter of the swap() call. \r",
          "sender": "The original msg.sender of the UniswapV2Pair.swap() call."
        }
      }
    }
  },
  "userdoc": {
    "methods": {
      "addLongLiquidityWithUnderlying(address,address,uint256,uint256,uint256,uint256,address,uint256)": {
        "notice": "Pulls underlying tokens from msg.sender and pushes UNI-V2 liquidity tokens to the \"to\" address. underlyingToken -> optionToken -> UNI-V2."
      },
      "addShortLiquidityWithUnderlying(address,address,uint256,uint256,uint256,uint256,address,uint256)": {
        "notice": "Pulls underlying tokens from msg.sender and pushes UNI-V2 liquidity tokens to the \"to\" address. underlyingToken -> redeemToken -> UNI-V2."
      },
      "flashMintShortOptionsThenSwap(address,address,uint256,uint256,address[],address)": {
        "notice": "If the first address in the path is not the shortOptionToken address, the tx will fail."
      },
      "mintLongOptionsThenSwapToTokens(address,uint256,uint256,address[],address,uint256)": {
        "notice": "If the first address in the path is not the optionToken address, the tx will fail. underlyingToken -> optionToken -> quoteToken."
      },
      "mintShortOptionsThenSwapToTokens(address,uint256,uint256,address[],address,uint256)": {
        "notice": "If the first address in the path is not the shortOptionToken address, the tx will fail. underlyingToken -> shortOptionToken -> quoteToken. IMPORTANT: redeemTokens = shortOptionTokens"
      },
      "openFlashLong(address,uint256,uint256)": {
        "notice": "IMPORTANT: amountOutMin parameter is the price to swap shortOptionTokens to underlyingTokens. IMPORTANT: If the ratio between shortOptionTokens and underlyingTokens is 1:1, then only the swap fee (0.30%) has to be paid."
      },
      "removeLongLiquidityThenCloseOptions(address,address,uint256,uint256,uint256,address,uint256)": {
        "notice": "Pulls UNI-V2 liquidity shares with option<>other token, and redeemTokens from msg.sender. Then closes the longOptionTokens and withdraws underlyingTokens to the \"to\" address. Sends otherTokens from the burned UNI-V2 liquidity shares to the \"to\" address. UNI-V2 -> optionToken -> underlyingToken."
      },
      "removeShortLiquidityThenCloseOptions(address,address,uint256,uint256,uint256,address,uint256)": {
        "notice": "Pulls UNI-V2 liquidity shares with shortOption<>quote token, and optionTokens from msg.sender. Then closes the longOptionTokens and withdraws underlyingTokens to the \"to\" address. Sends quoteTokens from the burned UNI-V2 liquidity shares to the \"to\" address. UNI-V2 -> optionToken -> underlyingToken."
      }
    }
  },
  "storageLayout": {
    "storage": [
      {
        "astId": 1351,
        "contract": "contracts/connectors/Uniswap/UniswapConnector02.sol:UniswapConnector02",
        "label": "_notEntered",
        "offset": 0,
        "slot": "0",
        "type": "t_bool"
      },
      {
        "astId": 2314,
        "contract": "contracts/connectors/Uniswap/UniswapConnector02.sol:UniswapConnector02",
        "label": "trader",
        "offset": 1,
        "slot": "0",
        "type": "t_contract(ITrader)6872"
      },
      {
        "astId": 2317,
        "contract": "contracts/connectors/Uniswap/UniswapConnector02.sol:UniswapConnector02",
        "label": "factory",
        "offset": 0,
        "slot": "1",
        "type": "t_contract(IUniswapV2Factory)1454"
      },
      {
        "astId": 2320,
        "contract": "contracts/connectors/Uniswap/UniswapConnector02.sol:UniswapConnector02",
        "label": "router",
        "offset": 0,
        "slot": "2",
        "type": "t_contract(IUniswapV2Router02)2092"
      }
    ],
    "types": {
      "t_bool": {
        "encoding": "inplace",
        "label": "bool",
        "numberOfBytes": "1"
      },
      "t_contract(ITrader)6872": {
        "encoding": "inplace",
        "label": "contract ITrader",
        "numberOfBytes": "20"
      },
      "t_contract(IUniswapV2Factory)1454": {
        "encoding": "inplace",
        "label": "contract IUniswapV2Factory",
        "numberOfBytes": "20"
      },
      "t_contract(IUniswapV2Router02)2092": {
        "encoding": "inplace",
        "label": "contract IUniswapV2Router02",
        "numberOfBytes": "20"
      }
    }
  },
  "gasEstimates": {
    "creation": {
      "codeDepositCost": "4282400",
      "executionCost": "infinite",
      "totalCost": "infinite"
    },
    "external": {
      "addLongLiquidityWithUnderlying(address,address,uint256,uint256,uint256,uint256,address,uint256)": "infinite",
      "addShortLiquidityWithUnderlying(address,address,uint256,uint256,uint256,uint256,address,uint256)": "infinite",
      "deployUniswapMarket(address,address)": "infinite",
      "factory()": "1098",
      "flashMintShortOptionsThenSwap(address,address,uint256,uint256,address[],address)": "infinite",
      "getName()": "infinite",
      "getUniswapMarketForTokens(address,address)": "infinite",
      "getVersion()": "271",
      "mintLongOptionsThenSwapToTokens(address,uint256,uint256,address[],address,uint256)": "infinite",
      "mintShortOptionsThenSwapToTokens(address,uint256,uint256,address[],address,uint256)": "infinite",
      "openFlashLong(address,uint256,uint256)": "infinite",
      "removeLongLiquidityThenCloseOptions(address,address,uint256,uint256,uint256,address,uint256)": "infinite",
      "removeShortLiquidityThenCloseOptions(address,address,uint256,uint256,uint256,address,uint256)": "infinite",
      "router()": "1119",
      "trader()": "1193",
      "uniswapV2Call(address,uint256,uint256,bytes)": "infinite"
    }
  }
}