{
  "abi": [
    {
      "inputs": [
        {
          "internalType": "address payable",
          "name": "_weth",
          "type": "address"
        }
      ],
      "stateMutability": "nonpayable",
      "type": "constructor"
    },
    {
      "anonymous": false,
      "inputs": [
        {
          "indexed": true,
          "internalType": "address",
          "name": "from",
          "type": "address"
        },
        {
          "indexed": true,
          "internalType": "address",
          "name": "option",
          "type": "address"
        },
        {
          "indexed": false,
          "internalType": "uint256",
          "name": "inOptions",
          "type": "uint256"
        }
      ],
      "name": "EthTraderClose",
      "type": "event"
    },
    {
      "anonymous": false,
      "inputs": [
        {
          "indexed": true,
          "internalType": "address",
          "name": "from",
          "type": "address"
        },
        {
          "indexed": true,
          "internalType": "address",
          "name": "option",
          "type": "address"
        },
        {
          "indexed": false,
          "internalType": "uint256",
          "name": "outUnderlyings",
          "type": "uint256"
        },
        {
          "indexed": false,
          "internalType": "uint256",
          "name": "inStrikes",
          "type": "uint256"
        }
      ],
      "name": "EthTraderExercise",
      "type": "event"
    },
    {
      "anonymous": false,
      "inputs": [
        {
          "indexed": true,
          "internalType": "address",
          "name": "from",
          "type": "address"
        },
        {
          "indexed": true,
          "internalType": "address",
          "name": "option",
          "type": "address"
        },
        {
          "indexed": false,
          "internalType": "uint256",
          "name": "outputOptions",
          "type": "uint256"
        },
        {
          "indexed": false,
          "internalType": "uint256",
          "name": "outputRedeems",
          "type": "uint256"
        }
      ],
      "name": "EthTraderMint",
      "type": "event"
    },
    {
      "anonymous": false,
      "inputs": [
        {
          "indexed": true,
          "internalType": "address",
          "name": "from",
          "type": "address"
        },
        {
          "indexed": true,
          "internalType": "address",
          "name": "option",
          "type": "address"
        },
        {
          "indexed": false,
          "internalType": "uint256",
          "name": "inRedeems",
          "type": "uint256"
        }
      ],
      "name": "EthTraderRedeem",
      "type": "event"
    },
    {
      "anonymous": false,
      "inputs": [
        {
          "indexed": true,
          "internalType": "address",
          "name": "from",
          "type": "address"
        },
        {
          "indexed": true,
          "internalType": "address",
          "name": "option",
          "type": "address"
        },
        {
          "indexed": false,
          "internalType": "uint256",
          "name": "inOptions",
          "type": "uint256"
        }
      ],
      "name": "EthTraderUnwind",
      "type": "event"
    },
    {
      "inputs": [
        {
          "internalType": "contract IOption",
          "name": "optionToken",
          "type": "address"
        },
        {
          "internalType": "uint256",
          "name": "closeQuantity",
          "type": "uint256"
        },
        {
          "internalType": "address",
          "name": "receiver",
          "type": "address"
        }
      ],
      "name": "safeCloseForETH",
      "outputs": [
        {
          "internalType": "uint256",
          "name": "",
          "type": "uint256"
        },
        {
          "internalType": "uint256",
          "name": "",
          "type": "uint256"
        },
        {
          "internalType": "uint256",
          "name": "",
          "type": "uint256"
        }
      ],
      "stateMutability": "nonpayable",
      "type": "function"
    },
    {
      "inputs": [
        {
          "internalType": "contract IOption",
          "name": "optionToken",
          "type": "address"
        },
        {
          "internalType": "uint256",
          "name": "exerciseQuantity",
          "type": "uint256"
        },
        {
          "internalType": "address",
          "name": "receiver",
          "type": "address"
        }
      ],
      "name": "safeExerciseForETH",
      "outputs": [
        {
          "internalType": "uint256",
          "name": "",
          "type": "uint256"
        },
        {
          "internalType": "uint256",
          "name": "",
          "type": "uint256"
        }
      ],
      "stateMutability": "nonpayable",
      "type": "function"
    },
    {
      "inputs": [
        {
          "internalType": "contract IOption",
          "name": "optionToken",
          "type": "address"
        },
        {
          "internalType": "address",
          "name": "receiver",
          "type": "address"
        }
      ],
      "name": "safeExerciseWithETH",
      "outputs": [
        {
          "internalType": "uint256",
          "name": "",
          "type": "uint256"
        },
        {
          "internalType": "uint256",
          "name": "",
          "type": "uint256"
        }
      ],
      "stateMutability": "payable",
      "type": "function"
    },
    {
      "inputs": [
        {
          "internalType": "contract IOption",
          "name": "optionToken",
          "type": "address"
        },
        {
          "internalType": "address",
          "name": "receiver",
          "type": "address"
        }
      ],
      "name": "safeMintWithETH",
      "outputs": [
        {
          "internalType": "uint256",
          "name": "",
          "type": "uint256"
        },
        {
          "internalType": "uint256",
          "name": "",
          "type": "uint256"
        }
      ],
      "stateMutability": "payable",
      "type": "function"
    },
    {
      "inputs": [
        {
          "internalType": "contract IOption",
          "name": "optionToken",
          "type": "address"
        },
        {
          "internalType": "uint256",
          "name": "redeemQuantity",
          "type": "uint256"
        },
        {
          "internalType": "address",
          "name": "receiver",
          "type": "address"
        }
      ],
      "name": "safeRedeemForETH",
      "outputs": [
        {
          "internalType": "uint256",
          "name": "",
          "type": "uint256"
        }
      ],
      "stateMutability": "nonpayable",
      "type": "function"
    },
    {
      "inputs": [
        {
          "internalType": "contract IOption",
          "name": "optionToken",
          "type": "address"
        },
        {
          "internalType": "uint256",
          "name": "unwindQuantity",
          "type": "uint256"
        },
        {
          "internalType": "address",
          "name": "receiver",
          "type": "address"
        }
      ],
      "name": "safeUnwindForETH",
      "outputs": [
        {
          "internalType": "uint256",
          "name": "",
          "type": "uint256"
        },
        {
          "internalType": "uint256",
          "name": "",
          "type": "uint256"
        },
        {
          "internalType": "uint256",
          "name": "",
          "type": "uint256"
        }
      ],
      "stateMutability": "nonpayable",
      "type": "function"
    },
    {
      "inputs": [],
      "name": "weth",
      "outputs": [
        {
          "internalType": "contract IWETH",
          "name": "",
          "type": "address"
        }
      ],
      "stateMutability": "view",
      "type": "function"
    },
    {
      "stateMutability": "payable",
      "type": "receive"
    }
  ],
  "address": "0x8B5B7a6055E54a36fF574bbE40cf2eA68d5554b3",
  "args": [
    "0xc4905364b78a742ccce7B890A89514061E47068D"
  ],
  "solcInputHash": "0xac9d2388231fb408fbe36037b39e0157ea3d98e377d3695b6f1f8b15f132f46c",
  "bytecode": "0x608060405234801561001057600080fd5b5060405161388d38038061388d8339818101604052602081101561003357600080fd5b810190808051906020019092919050505060016000806101000a81548160ff02191690831515021790555080600060016101000a81548173ffffffffffffffffffffffffffffffffffffffff021916908373ffffffffffffffffffffffffffffffffffffffff160217905550506137de806100af6000396000f3fe6080604052600436106100745760003560e01c80636db8ce241161004e5780636db8ce241461026857806380e42f8e146102fe5780638549780b1461037d578063c9c9163e146103fc576100d2565b80633fc8cef3146100d757806350e2f0ba1461012e5780636ba17e7a146101cb576100d2565b366100d257600060019054906101000a900473ffffffffffffffffffffffffffffffffffffffff1673ffffffffffffffffffffffffffffffffffffffff163373ffffffffffffffffffffffffffffffffffffffff16146100d057fe5b005b600080fd5b3480156100e357600080fd5b506100ec61048b565b604051808273ffffffffffffffffffffffffffffffffffffffff1673ffffffffffffffffffffffffffffffffffffffff16815260200191505060405180910390f35b34801561013a57600080fd5b506101a76004803603606081101561015157600080fd5b81019080803573ffffffffffffffffffffffffffffffffffffffff16906020019092919080359060200190929190803573ffffffffffffffffffffffffffffffffffffffff1690602001909291905050506104b1565b60405180848152602001838152602001828152602001935050505060405180910390f35b3480156101d757600080fd5b50610244600480360360608110156101ee57600080fd5b81019080803573ffffffffffffffffffffffffffffffffffffffff16906020019092919080359060200190929190803573ffffffffffffffffffffffffffffffffffffffff169060200190929190505050610d69565b60405180848152602001838152602001828152602001935050505060405180910390f35b34801561027457600080fd5b506102e16004803603606081101561028b57600080fd5b81019080803573ffffffffffffffffffffffffffffffffffffffff16906020019092919080359060200190929190803573ffffffffffffffffffffffffffffffffffffffff1690602001909291905050506115bc565b604051808381526020018281526020019250505060405180910390f35b6103606004803603604081101561031457600080fd5b81019080803573ffffffffffffffffffffffffffffffffffffffff169060200190929190803573ffffffffffffffffffffffffffffffffffffffff169060200190929190505050611e94565b604051808381526020018281526020019250505060405180910390f35b6103df6004803603604081101561039357600080fd5b81019080803573ffffffffffffffffffffffffffffffffffffffff169060200190929190803573ffffffffffffffffffffffffffffffffffffffff169060200190929190505050612613565b604051808381526020018281526020019250505060405180910390f35b34801561040857600080fd5b506104756004803603606081101561041f57600080fd5b81019080803573ffffffffffffffffffffffffffffffffffffffff16906020019092919080359060200190929190803573ffffffffffffffffffffffffffffffffffffffff1690602001909291905050506129db565b6040518082815260200191505060405180910390f35b600060019054906101000a900473ffffffffffffffffffffffffffffffffffffffff1681565b60008060008060009054906101000a900460ff16610537576040517f08c379a000000000000000000000000000000000000000000000000000000000815260040180806020018281038252601f8152602001807f5265656e7472616e637947756172643a207265656e7472616e742063616c6c0081525060200191505060405180910390fd5b60008060006101000a81548160ff02191690831515021790555084600081116105c8576040517f08c379a00000000000000000000000000000000000000000000000000000000081526004018080602001828103825260088152602001807f4552525f5a45524f00000000000000000000000000000000000000000000000081525060200191505060405180910390fd5b60008773ffffffffffffffffffffffffffffffffffffffff1663440f5fd26040518163ffffffff1660e01b815260040160206040518083038186803b15801561061057600080fd5b505afa158015610624573d6000803e3d6000fd5b505050506040513d602081101561063a57600080fd5b810190808051906020019092919050505090508073ffffffffffffffffffffffffffffffffffffffff16600060019054906101000a900473ffffffffffffffffffffffffffffffffffffffff1673ffffffffffffffffffffffffffffffffffffffff1614610710576040517f08c379a000000000000000000000000000000000000000000000000000000000815260040180806020018281038252600c8152602001807f4552525f4e4f545f57455448000000000000000000000000000000000000000081525060200191505060405180910390fd5b868873ffffffffffffffffffffffffffffffffffffffff166370a08231336040518263ffffffff1660e01b8152600401808273ffffffffffffffffffffffffffffffffffffffff1673ffffffffffffffffffffffffffffffffffffffff16815260200191505060206040518083038186803b15801561078e57600080fd5b505afa1580156107a2573d6000803e3d6000fd5b505050506040513d60208110156107b857600080fd5b8101908080519060200190929190505050101561083d576040517f08c379a000000000000000000000000000000000000000000000000000000000815260040180806020018281038252600f8152602001807f4552525f42414c5f4f5054494f4e53000000000000000000000000000000000081525060200191505060405180910390fd5b60006109638973ffffffffffffffffffffffffffffffffffffffff1663b592a1386040518163ffffffff1660e01b815260040160206040518083038186803b15801561088857600080fd5b505afa15801561089c573d6000803e3d6000fd5b505050506040513d60208110156108b257600080fd5b81019080805190602001909291905050506109558b73ffffffffffffffffffffffffffffffffffffffff1662fe19fa6040518163ffffffff1660e01b815260040160206040518083038186803b15801561090b57600080fd5b505afa15801561091f573d6000803e3d6000fd5b505050506040513d602081101561093557600080fd5b81019080805190602001909291905050508b612f6b90919063ffffffff16565b612ff190919063ffffffff16565b9050808973ffffffffffffffffffffffffffffffffffffffff16632f310bad6040518163ffffffff1660e01b815260040160206040518083038186803b1580156109ac57600080fd5b505afa1580156109c0573d6000803e3d6000fd5b505050506040513d60208110156109d657600080fd5b810190808051906020019092919050505073ffffffffffffffffffffffffffffffffffffffff166370a08231336040518263ffffffff1660e01b8152600401808273ffffffffffffffffffffffffffffffffffffffff1673ffffffffffffffffffffffffffffffffffffffff16815260200191505060206040518083038186803b158015610a6357600080fd5b505afa158015610a77573d6000803e3d6000fd5b505050506040513d6020811015610a8d57600080fd5b81019080805190602001909291905050501015610b12576040517f08c379a000000000000000000000000000000000000000000000000000000000815260040180806020018281038252600e8152602001807f4552525f42414c5f52454445454d00000000000000000000000000000000000081525060200191505060405180910390fd5b610bbf338a838c73ffffffffffffffffffffffffffffffffffffffff16632f310bad6040518163ffffffff1660e01b815260040160206040518083038186803b158015610b5e57600080fd5b505afa158015610b72573d6000803e3d6000fd5b505050506040513d6020811015610b8857600080fd5b810190808051906020019092919050505073ffffffffffffffffffffffffffffffffffffffff1661303b909392919063ffffffff16565b610bec338a8a8c73ffffffffffffffffffffffffffffffffffffffff1661303b909392919063ffffffff16565b6000808a73ffffffffffffffffffffffffffffffffffffffff166383499805306040518263ffffffff1660e01b8152600401808273ffffffffffffffffffffffffffffffffffffffff1673ffffffffffffffffffffffffffffffffffffffff168152602001915050606060405180830381600087803b158015610c6e57600080fd5b505af1158015610c82573d6000803e3d6000fd5b505050506040513d6060811015610c9857600080fd5b81019080805190602001909291908051906020019092919080519060200190929190505050809350819450829550505050610cd3898b613128565b8a73ffffffffffffffffffffffffffffffffffffffff163373ffffffffffffffffffffffffffffffffffffffff167fabfb4df7c88d988b205cbc629712e5517b647ad5d6b85a524d08d3ae69d6c4d5846040518082815260200191505060405180910390a3828282975097509750505050505060016000806101000a81548160ff02191690831515021790555093509350939050565b60008060008060009054906101000a900460ff16610def576040517f08c379a000000000000000000000000000000000000000000000000000000000815260040180806020018281038252601f8152602001807f5265656e7472616e637947756172643a207265656e7472616e742063616c6c0081525060200191505060405180910390fd5b60008060006101000a81548160ff0219169083151502179055508460008111610e80576040517f08c379a00000000000000000000000000000000000000000000000000000000081526004018080602001828103825260088152602001807f4552525f5a45524f00000000000000000000000000000000000000000000000081525060200191505060405180910390fd5b60008773ffffffffffffffffffffffffffffffffffffffff1663440f5fd26040518163ffffffff1660e01b815260040160206040518083038186803b158015610ec857600080fd5b505afa158015610edc573d6000803e3d6000fd5b505050506040513d6020811015610ef257600080fd5b810190808051906020019092919050505090508073ffffffffffffffffffffffffffffffffffffffff16600060019054906101000a900473ffffffffffffffffffffffffffffffffffffffff1673ffffffffffffffffffffffffffffffffffffffff1614610fc8576040517f08c379a000000000000000000000000000000000000000000000000000000000815260040180806020018281038252600c8152602001807f4552525f4e4f545f57455448000000000000000000000000000000000000000081525060200191505060405180910390fd5b428873ffffffffffffffffffffffffffffffffffffffff166325cb5bc06040518163ffffffff1660e01b815260040160206040518083038186803b15801561100f57600080fd5b505afa158015611023573d6000803e3d6000fd5b505050506040513d602081101561103957600080fd5b8101908080519060200190929190505050106110bd576040517f08c379a000000000000000000000000000000000000000000000000000000000815260040180806020018281038252600f8152602001807f4552525f4e4f545f45585049524544000000000000000000000000000000000081525060200191505060405180910390fd5b60006111e38973ffffffffffffffffffffffffffffffffffffffff1663b592a1386040518163ffffffff1660e01b815260040160206040518083038186803b15801561110857600080fd5b505afa15801561111c573d6000803e3d6000fd5b505050506040513d602081101561113257600080fd5b81019080805190602001909291905050506111d58b73ffffffffffffffffffffffffffffffffffffffff1662fe19fa6040518163ffffffff1660e01b815260040160206040518083038186803b15801561118b57600080fd5b505afa15801561119f573d6000803e3d6000fd5b505050506040513d60208110156111b557600080fd5b81019080805190602001909291905050508b612f6b90919063ffffffff16565b612ff190919063ffffffff16565b9050808973ffffffffffffffffffffffffffffffffffffffff16632f310bad6040518163ffffffff1660e01b815260040160206040518083038186803b15801561122c57600080fd5b505afa158015611240573d6000803e3d6000fd5b505050506040513d602081101561125657600080fd5b810190808051906020019092919050505073ffffffffffffffffffffffffffffffffffffffff166370a08231336040518263ffffffff1660e01b8152600401808273ffffffffffffffffffffffffffffffffffffffff1673ffffffffffffffffffffffffffffffffffffffff16815260200191505060206040518083038186803b1580156112e357600080fd5b505afa1580156112f7573d6000803e3d6000fd5b505050506040513d602081101561130d57600080fd5b81019080805190602001909291905050501015611392576040517f08c379a000000000000000000000000000000000000000000000000000000000815260040180806020018281038252600e8152602001807f4552525f42414c5f52454445454d00000000000000000000000000000000000081525060200191505060405180910390fd5b61143f338a838c73ffffffffffffffffffffffffffffffffffffffff16632f310bad6040518163ffffffff1660e01b815260040160206040518083038186803b1580156113de57600080fd5b505afa1580156113f2573d6000803e3d6000fd5b505050506040513d602081101561140857600080fd5b810190808051906020019092919050505073ffffffffffffffffffffffffffffffffffffffff1661303b909392919063ffffffff16565b6000808a73ffffffffffffffffffffffffffffffffffffffff166383499805306040518263ffffffff1660e01b8152600401808273ffffffffffffffffffffffffffffffffffffffff1673ffffffffffffffffffffffffffffffffffffffff168152602001915050606060405180830381600087803b1580156114c157600080fd5b505af11580156114d5573d6000803e3d6000fd5b505050506040513d60608110156114eb57600080fd5b81019080805190602001909291908051906020019092919080519060200190929190505050809350819450829550505050611526898b613128565b8a73ffffffffffffffffffffffffffffffffffffffff163373ffffffffffffffffffffffffffffffffffffffff167ff42b12bc6ce2f9477c86f93160ca758ea263c9476f27678c23a62bcde9f62706846040518082815260200191505060405180910390a3828282975097509750505050505060016000806101000a81548160ff02191690831515021790555093509350939050565b6000806000809054906101000a900460ff16611640576040517f08c379a000000000000000000000000000000000000000000000000000000000815260040180806020018281038252601f8152602001807f5265656e7472616e637947756172643a207265656e7472616e742063616c6c0081525060200191505060405180910390fd5b60008060006101000a81548160ff02191690831515021790555083600081116116d1576040517f08c379a00000000000000000000000000000000000000000000000000000000081526004018080602001828103825260088152602001807f4552525f5a45524f00000000000000000000000000000000000000000000000081525060200191505060405180910390fd5b60008673ffffffffffffffffffffffffffffffffffffffff1663440f5fd26040518163ffffffff1660e01b815260040160206040518083038186803b15801561171957600080fd5b505afa15801561172d573d6000803e3d6000fd5b505050506040513d602081101561174357600080fd5b8101908080519060200190929190505050905060008773ffffffffffffffffffffffffffffffffffffffff1663a1a407616040518163ffffffff1660e01b815260040160206040518083038186803b15801561179e57600080fd5b505afa1580156117b2573d6000803e3d6000fd5b505050506040513d60208110156117c857600080fd5b81019080805190602001909291905050509050600060019054906101000a900473ffffffffffffffffffffffffffffffffffffffff1673ffffffffffffffffffffffffffffffffffffffff168273ffffffffffffffffffffffffffffffffffffffff161461189e576040517f08c379a000000000000000000000000000000000000000000000000000000000815260040180806020018281038252600c8152602001807f4552525f4e4f545f57455448000000000000000000000000000000000000000081525060200191505060405180910390fd5b868873ffffffffffffffffffffffffffffffffffffffff166370a08231336040518263ffffffff1660e01b8152600401808273ffffffffffffffffffffffffffffffffffffffff1673ffffffffffffffffffffffffffffffffffffffff16815260200191505060206040518083038186803b15801561191c57600080fd5b505afa158015611930573d6000803e3d6000fd5b505050506040513d602081101561194657600080fd5b810190808051906020019092919050505010156119cb576040517f08c379a000000000000000000000000000000000000000000000000000000000815260040180806020018281038252600f8152602001807f4552525f42414c5f4f5054494f4e53000000000000000000000000000000000081525060200191505060405180910390fd5b6000611af18973ffffffffffffffffffffffffffffffffffffffff1663b592a1386040518163ffffffff1660e01b815260040160206040518083038186803b158015611a1657600080fd5b505afa158015611a2a573d6000803e3d6000fd5b505050506040513d6020811015611a4057600080fd5b8101908080519060200190929190505050611ae38b73ffffffffffffffffffffffffffffffffffffffff1662fe19fa6040518163ffffffff1660e01b815260040160206040518083038186803b158015611a9957600080fd5b505afa158015611aad573d6000803e3d6000fd5b505050506040513d6020811015611ac357600080fd5b81019080805190602001909291905050508b612f6b90919063ffffffff16565b612ff190919063ffffffff16565b9050808273ffffffffffffffffffffffffffffffffffffffff166370a08231336040518263ffffffff1660e01b8152600401808273ffffffffffffffffffffffffffffffffffffffff1673ffffffffffffffffffffffffffffffffffffffff16815260200191505060206040518083038186803b158015611b7157600080fd5b505afa158015611b85573d6000803e3d6000fd5b505050506040513d6020811015611b9b57600080fd5b81019080805190602001909291905050501015611c20576040517f08c379a000000000000000000000000000000000000000000000000000000000815260040180806020018281038252600e8152602001807f4552525f42414c5f535452494b4500000000000000000000000000000000000081525060200191505060405180910390fd5b611c4d338a838573ffffffffffffffffffffffffffffffffffffffff1661303b909392919063ffffffff16565b611c7a338a8a8c73ffffffffffffffffffffffffffffffffffffffff1661303b909392919063ffffffff16565b60008973ffffffffffffffffffffffffffffffffffffffff1663787eae30308b60006040519080825280601f01601f191660200182016040528015611cce5781602001600182028038833980820191505090505b506040518463ffffffff1660e01b8152600401808473ffffffffffffffffffffffffffffffffffffffff1673ffffffffffffffffffffffffffffffffffffffff16815260200183815260200180602001828103825283818151815260200191508051906020019080838360005b83811015611d56578082015181840152602081019050611d3b565b50505050905090810190601f168015611d835780820380516001836020036101000a031916815260200191505b509450505050506040805180830381600087803b158015611da357600080fd5b505af1158015611db7573d6000803e3d6000fd5b505050506040513d6040811015611dcd57600080fd5b8101908080519060200190929190805190602001909291905050508092508193505050611dfa888a613128565b8973ffffffffffffffffffffffffffffffffffffffff163373ffffffffffffffffffffffffffffffffffffffff167f3189e9f239c952a1c3a172a3897ac53e3e251718ae277e746cd5db22e60aa7998b85604051808381526020018281526020019250505060405180910390a3818196509650505050505060016000806101000a81548160ff021916908315150217905550935093915050565b6000806000809054906101000a900460ff16611f18576040517f08c379a000000000000000000000000000000000000000000000000000000000815260040180806020018281038252601f8152602001807f5265656e7472616e637947756172643a207265656e7472616e742063616c6c0081525060200191505060405180910390fd5b60008060006101000a81548160ff0219169083151502179055503460008111611fa9576040517f08c379a00000000000000000000000000000000000000000000000000000000081526004018080602001828103825260088152602001807f4552525f5a45524f00000000000000000000000000000000000000000000000081525060200191505060405180910390fd5b60008573ffffffffffffffffffffffffffffffffffffffff1663440f5fd26040518163ffffffff1660e01b815260040160206040518083038186803b158015611ff157600080fd5b505afa158015612005573d6000803e3d6000fd5b505050506040513d602081101561201b57600080fd5b8101908080519060200190929190505050905060008673ffffffffffffffffffffffffffffffffffffffff1663a1a407616040518163ffffffff1660e01b815260040160206040518083038186803b15801561207657600080fd5b505afa15801561208a573d6000803e3d6000fd5b505050506040513d60208110156120a057600080fd5b81019080805190602001909291905050509050600060019054906101000a900473ffffffffffffffffffffffffffffffffffffffff1673ffffffffffffffffffffffffffffffffffffffff168173ffffffffffffffffffffffffffffffffffffffff1614612176576040517f08c379a000000000000000000000000000000000000000000000000000000000815260040180806020018281038252600c8152602001807f4552525f4e4f545f57455448000000000000000000000000000000000000000081525060200191505060405180910390fd5b600034905060006122a18973ffffffffffffffffffffffffffffffffffffffff1662fe19fa6040518163ffffffff1660e01b815260040160206040518083038186803b1580156121c557600080fd5b505afa1580156121d9573d6000803e3d6000fd5b505050506040513d60208110156121ef57600080fd5b81019080805190602001909291905050506122938b73ffffffffffffffffffffffffffffffffffffffff1663b592a1386040518163ffffffff1660e01b815260040160206040518083038186803b15801561224957600080fd5b505afa15801561225d573d6000803e3d6000fd5b505050506040513d602081101561227357600080fd5b810190808051906020019092919050505085612f6b90919063ffffffff16565b612ff190919063ffffffff16565b9050808973ffffffffffffffffffffffffffffffffffffffff166370a08231336040518263ffffffff1660e01b8152600401808273ffffffffffffffffffffffffffffffffffffffff1673ffffffffffffffffffffffffffffffffffffffff16815260200191505060206040518083038186803b15801561232157600080fd5b505afa158015612335573d6000803e3d6000fd5b505050506040513d602081101561234b57600080fd5b810190808051906020019092919050505010156123d0576040517f08c379a000000000000000000000000000000000000000000000000000000000815260040180806020018281038252600f8152602001807f4552525f42414c5f4f5054494f4e53000000000000000000000000000000000081525060200191505060405180910390fd5b6123d989613296565b612406338a838c73ffffffffffffffffffffffffffffffffffffffff1661303b909392919063ffffffff16565b8873ffffffffffffffffffffffffffffffffffffffff1663787eae30898360006040519080825280601f01601f1916602001820160405280156124585781602001600182028038833980820191505090505b506040518463ffffffff1660e01b8152600401808473ffffffffffffffffffffffffffffffffffffffff1673ffffffffffffffffffffffffffffffffffffffff16815260200183815260200180602001828103825283818151815260200191508051906020019080838360005b838110156124e05780820151818401526020810190506124c5565b50505050905090810190601f16801561250d5780820380516001836020036101000a031916815260200191505b509450505050506040805180830381600087803b15801561252d57600080fd5b505af1158015612541573d6000803e3d6000fd5b505050506040513d604081101561255757600080fd5b81019080805190602001909291908051906020019092919050505080925081935050508873ffffffffffffffffffffffffffffffffffffffff163373ffffffffffffffffffffffffffffffffffffffff167f3189e9f239c952a1c3a172a3897ac53e3e251718ae277e746cd5db22e60aa7998385604051808381526020018281526020019250505060405180910390a3818196509650505050505060016000806101000a81548160ff0219169083151502179055509250929050565b6000806000809054906101000a900460ff16612697576040517f08c379a000000000000000000000000000000000000000000000000000000000815260040180806020018281038252601f8152602001807f5265656e7472616e637947756172643a207265656e7472616e742063616c6c0081525060200191505060405180910390fd5b60008060006101000a81548160ff0219169083151502179055503460008111612728576040517f08c379a00000000000000000000000000000000000000000000000000000000081526004018080602001828103825260088152602001807f4552525f5a45524f00000000000000000000000000000000000000000000000081525060200191505060405180910390fd5b60008573ffffffffffffffffffffffffffffffffffffffff1663440f5fd26040518163ffffffff1660e01b815260040160206040518083038186803b15801561277057600080fd5b505afa158015612784573d6000803e3d6000fd5b505050506040513d602081101561279a57600080fd5b810190808051906020019092919050505090508073ffffffffffffffffffffffffffffffffffffffff16600060019054906101000a900473ffffffffffffffffffffffffffffffffffffffff1673ffffffffffffffffffffffffffffffffffffffff1614612870576040517f08c379a000000000000000000000000000000000000000000000000000000000815260040180806020018281038252600c8152602001807f4552525f4e4f545f57455448000000000000000000000000000000000000000081525060200191505060405180910390fd5b61287986613296565b6000808773ffffffffffffffffffffffffffffffffffffffff1663fa9ad7c4886040518263ffffffff1660e01b8152600401808273ffffffffffffffffffffffffffffffffffffffff1673ffffffffffffffffffffffffffffffffffffffff1681526020019150506040805180830381600087803b1580156128fa57600080fd5b505af115801561290e573d6000803e3d6000fd5b505050506040513d604081101561292457600080fd5b810190808051906020019092919080519060200190929190505050915091508773ffffffffffffffffffffffffffffffffffffffff163373ffffffffffffffffffffffffffffffffffffffff167fb81b27fd6d5e3aa8c9641fcf7f868a5400cb46d029d458ab7c2d49c0e81003ff8484604051808381526020018281526020019250505060405180910390a38181955095505050505060016000806101000a81548160ff0219169083151502179055509250929050565b60008060009054906101000a900460ff16612a5e576040517f08c379a000000000000000000000000000000000000000000000000000000000815260040180806020018281038252601f8152602001807f5265656e7472616e637947756172643a207265656e7472616e742063616c6c0081525060200191505060405180910390fd5b60008060006101000a81548160ff0219169083151502179055508260008111612aef576040517f08c379a00000000000000000000000000000000000000000000000000000000081526004018080602001828103825260088152602001807f4552525f5a45524f00000000000000000000000000000000000000000000000081525060200191505060405180910390fd5b60008573ffffffffffffffffffffffffffffffffffffffff1663a1a407616040518163ffffffff1660e01b815260040160206040518083038186803b158015612b3757600080fd5b505afa158015612b4b573d6000803e3d6000fd5b505050506040513d6020811015612b6157600080fd5b81019080805190602001909291905050509050600060019054906101000a900473ffffffffffffffffffffffffffffffffffffffff1673ffffffffffffffffffffffffffffffffffffffff168173ffffffffffffffffffffffffffffffffffffffff1614612c37576040517f08c379a000000000000000000000000000000000000000000000000000000000815260040180806020018281038252600c8152602001807f4552525f4e4f545f57455448000000000000000000000000000000000000000081525060200191505060405180910390fd5b60008673ffffffffffffffffffffffffffffffffffffffff16632f310bad6040518163ffffffff1660e01b815260040160206040518083038186803b158015612c7f57600080fd5b505afa158015612c93573d6000803e3d6000fd5b505050506040513d6020811015612ca957600080fd5b81019080805190602001909291905050509050858173ffffffffffffffffffffffffffffffffffffffff166370a08231336040518263ffffffff1660e01b8152600401808273ffffffffffffffffffffffffffffffffffffffff1673ffffffffffffffffffffffffffffffffffffffff16815260200191505060206040518083038186803b158015612d3a57600080fd5b505afa158015612d4e573d6000803e3d6000fd5b505050506040513d6020811015612d6457600080fd5b81019080805190602001909291905050501015612de9576040517f08c379a000000000000000000000000000000000000000000000000000000000815260040180806020018281038252600e8152602001807f4552525f42414c5f52454445454d00000000000000000000000000000000000081525060200191505060405180910390fd5b612e163388888473ffffffffffffffffffffffffffffffffffffffff1661303b909392919063ffffffff16565b60008773ffffffffffffffffffffffffffffffffffffffff16635e86929d306040518263ffffffff1660e01b8152600401808273ffffffffffffffffffffffffffffffffffffffff1673ffffffffffffffffffffffffffffffffffffffff168152602001915050602060405180830381600087803b158015612e9757600080fd5b505af1158015612eab573d6000803e3d6000fd5b505050506040513d6020811015612ec157600080fd5b81019080805190602001909291905050509050612ede8688613128565b8773ffffffffffffffffffffffffffffffffffffffff163373ffffffffffffffffffffffffffffffffffffffff167fd6ab5246bbdff765abab586ddb9f135a7a0199749e59cc429ef0c4cccfea2366836040518082815260200191505060405180910390a38094505050505060016000806101000a81548160ff0219169083151502179055509392505050565b600080831415612f7e5760009050612feb565b6000828402905082848281612f8f57fe5b0414612fe6576040517f08c379a000000000000000000000000000000000000000000000000000000000815260040180806020018281038252602181526020018061375e6021913960400191505060405180910390fd5b809150505b92915050565b600061303383836040518060400160405280601a81526020017f536166654d6174683a206469766973696f6e206279207a65726f000000000000815250613401565b905092915050565b613122846323b872dd60e01b858585604051602401808473ffffffffffffffffffffffffffffffffffffffff1673ffffffffffffffffffffffffffffffffffffffff1681526020018373ffffffffffffffffffffffffffffffffffffffff1673ffffffffffffffffffffffffffffffffffffffff1681526020018281526020019350505050604051602081830303815290604052907bffffffffffffffffffffffffffffffffffffffffffffffffffffffff19166020820180517bffffffffffffffffffffffffffffffffffffffffffffffffffffffff83818316178352505050506134c7565b50505050565b600060019054906101000a900473ffffffffffffffffffffffffffffffffffffffff1673ffffffffffffffffffffffffffffffffffffffff16632e1a7d4d826040518263ffffffff1660e01b815260040180828152602001915050600060405180830381600087803b15801561319d57600080fd5b505af11580156131b1573d6000803e3d6000fd5b5050505060008273ffffffffffffffffffffffffffffffffffffffff168260405180600001905060006040518083038185875af1925050503d8060008114613215576040519150601f19603f3d011682016040523d82523d6000602084013e61321a565b606091505b5050905080613291576040517f08c379a00000000000000000000000000000000000000000000000000000000081526004018080602001828103825260118152602001807f4552525f53454e44494e475f455448455200000000000000000000000000000081525060200191505060405180910390fd5b505050565b600060019054906101000a900473ffffffffffffffffffffffffffffffffffffffff1673ffffffffffffffffffffffffffffffffffffffff1663d0e30db0346040518263ffffffff1660e01b81526004016000604051808303818588803b15801561330057600080fd5b505af1158015613314573d6000803e3d6000fd5b5050505050600060019054906101000a900473ffffffffffffffffffffffffffffffffffffffff1673ffffffffffffffffffffffffffffffffffffffff1663a9059cbb82346040518363ffffffff1660e01b8152600401808373ffffffffffffffffffffffffffffffffffffffff1673ffffffffffffffffffffffffffffffffffffffff16815260200182815260200192505050602060405180830381600087803b1580156133c257600080fd5b505af11580156133d6573d6000803e3d6000fd5b505050506040513d60208110156133ec57600080fd5b81019080805190602001909291905050505050565b600080831182906134ad576040517f08c379a00000000000000000000000000000000000000000000000000000000081526004018080602001828103825283818151815260200191508051906020019080838360005b83811015613472578082015181840152602081019050613457565b50505050905090810190601f16801561349f5780820380516001836020036101000a031916815260200191505b509250505060405180910390fd5b5060008385816134b957fe5b049050809150509392505050565b6134e68273ffffffffffffffffffffffffffffffffffffffff16613712565b613558576040517f08c379a000000000000000000000000000000000000000000000000000000000815260040180806020018281038252601f8152602001807f5361666545524332303a2063616c6c20746f206e6f6e2d636f6e74726163740081525060200191505060405180910390fd5b600060608373ffffffffffffffffffffffffffffffffffffffff16836040518082805190602001908083835b602083106135a75780518252602082019150602081019050602083039250613584565b6001836020036101000a0380198251168184511680821785525050505050509050019150506000604051808303816000865af19150503d8060008114613609576040519150601f19603f3d011682016040523d82523d6000602084013e61360e565b606091505b509150915081613686576040517f08c379a00000000000000000000000000000000000000000000000000000000081526004018080602001828103825260208152602001807f5361666545524332303a206c6f772d6c6576656c2063616c6c206661696c656481525060200191505060405180910390fd5b60008151111561370c578080602001905160208110156136a557600080fd5b810190808051906020019092919050505061370b576040517f08c379a000000000000000000000000000000000000000000000000000000000815260040180806020018281038252602a81526020018061377f602a913960400191505060405180910390fd5b5b50505050565b60008060007fc5d2460186f7233c927e7db2dcc703c0e500b653ca82273b7bfad8045d85a47060001b9050833f915080821415801561375457506000801b8214155b9250505091905056fe536166654d6174683a206d756c7469706c69636174696f6e206f766572666c6f775361666545524332303a204552433230206f7065726174696f6e20646964206e6f742073756363656564a2646970667358221220db41dd500b82f9792e873804abe25dcc5040e57b26517eec67ef04abf3dbbc0964736f6c63430006020033",
  "devdoc": {
    "methods": {
      "constructor": {
        "details": "Since the EthTrader contract is responsible for converting between ethers and WETH, the contract is initialized with the address for WETH."
      },
      "safeCloseForETH(address,uint256,address)": {
        "details": "Burn optionTokens and redeemTokens to withdraw underlyingTokens (ethers).",
        "params": {
          "closeQuantity": "Quantity of optionTokens to burn and an input to calculate how many redeems to burn.",
          "optionToken": "The address of the option contract.",
          "receiver": "The underlyingTokens (ethers) are sent to the receiver address."
        }
      },
      "safeExerciseForETH(address,uint256,address)": {
        "details": "Swaps strikeTokens to underlyingTokens, WETH, which is converted to ethers before withdrawn. Uses the strike ratio as the exchange rate. Strike ratio = base / quote.",
        "params": {
          "exerciseQuantity": "Quantity of optionTokens to exercise.",
          "optionToken": "The address of the option contract.",
          "receiver": "The underlyingTokens (ethers) are sent to the receiver address."
        }
      },
      "safeExerciseWithETH(address,address)": {
        "details": "Swaps msg.value of strikeTokens (ethers) to underlyingTokens. Uses the strike ratio as the exchange rate. Strike ratio = base / quote. Msg.value (quote units) * base / quote = base units (underlyingTokens) to withdraw.",
        "params": {
          "optionToken": "The address of the option contract.",
          "receiver": "The underlyingTokens are sent to the receiver address."
        }
      },
      "safeMintWithETH(address,address)": {
        "details": "Mints msg.value quantity of options and \"quote\" (option parameter) quantity of redeem tokens.",
        "params": {
          "optionToken": "The address of the option token to mint.",
          "receiver": "The address which receives the minted option and redeem tokens."
        }
      },
      "safeRedeemForETH(address,uint256,address)": {
        "details": "Burns redeem tokens to withdraw strike tokens (ethers) at a 1:1 ratio.",
        "params": {
          "optionToken": "The address of the option contract.",
          "receiver": "The strikeTokens (ethers) are sent to the receiver address.",
          "redeemQuantity": "The quantity of redeemTokens to burn."
        }
      },
      "safeUnwindForETH(address,uint256,address)": {
        "details": "Burn redeemTokens to withdraw underlyingTokens (ethers) from expired options. This function is for options with WETH as the underlying asset. The underlyingTokens are WETH, which are converted to ethers prior to being sent to receiver.",
        "params": {
          "optionToken": "The address of the option contract.",
          "receiver": "The underlyingTokens (ethers) are sent to the receiver address.",
          "unwindQuantity": "Quantity of underlyingTokens (ethers) to withdraw."
        }
      }
    }
  },
  "userdoc": {
    "methods": {
      "safeCloseForETH(address,uint256,address)": {
        "notice": "This function is for options with WETH as the underlying asset. WETH underlyingTokens are converted to ethers before being sent to receiver. The redeemTokens to burn is equal to the optionTokens * strike ratio. inputOptions = inputRedeems / strike ratio = outUnderlyings"
      },
      "safeExerciseForETH(address,uint256,address)": {
        "notice": "This function is for options with WETH as the underlying asset. Burns option tokens, pulls strikeTokens, and pushes out ethers."
      },
      "safeExerciseWithETH(address,address)": {
        "notice": "This function is for options with WETH as the strike asset. Burns option tokens, accepts ethers, and pushes out underlyingTokens."
      },
      "safeMintWithETH(address,address)": {
        "notice": "This function is for options that have WETH as the underlying asset."
      },
      "safeRedeemForETH(address,uint256,address)": {
        "notice": "This function is for options that have WETH as the strike asset. Converts WETH to ethers, and withdraws ethers to the receiver address."
      }
    }
  },
  "storageLayout": {
    "storage": [
      {
        "astId": 9429,
        "contract": "contracts/connectors/EthTrader.sol:EthTrader",
        "label": "_notEntered",
        "offset": 0,
        "slot": "0",
        "type": "t_bool"
      },
      {
        "astId": 9486,
        "contract": "contracts/connectors/EthTrader.sol:EthTrader",
        "label": "weth",
        "offset": 1,
        "slot": "0",
        "type": "t_contract(IWETH)10448"
      }
    ],
    "types": {
      "t_bool": {
        "encoding": "inplace",
        "label": "bool",
        "numberOfBytes": "1"
      },
      "t_contract(IWETH)10448": {
        "encoding": "inplace",
        "label": "contract IWETH",
        "numberOfBytes": "20"
      }
    }
  },
  "gasEstimates": {
    "creation": {
      "codeDepositCost": "2860400",
      "executionCost": "infinite",
      "totalCost": "infinite"
    },
    "external": {
      "safeCloseForETH(address,uint256,address)": "infinite",
      "safeExerciseForETH(address,uint256,address)": "infinite",
      "safeExerciseWithETH(address,address)": "infinite",
      "safeMintWithETH(address,address)": "infinite",
      "safeRedeemForETH(address,uint256,address)": "infinite",
      "safeUnwindForETH(address,uint256,address)": "infinite",
      "weth()": "1104"
    },
    "internal": {
      "depositEthSendWeth(address)": "infinite",
      "withdrawEthAndSend(address,uint256)": "infinite"
    }
  }
}