{
  "abi": [
    {
      "inputs": [
        {
          "internalType": "address",
          "name": "registry",
          "type": "address"
        }
      ],
      "stateMutability": "nonpayable",
      "type": "constructor"
    },
    {
      "anonymous": false,
      "inputs": [
        {
          "indexed": true,
          "internalType": "address",
          "name": "previousOwner",
          "type": "address"
        },
        {
          "indexed": true,
          "internalType": "address",
          "name": "newOwner",
          "type": "address"
        }
      ],
      "name": "OwnershipTransferred",
      "type": "event"
    },
    {
      "inputs": [
        {
          "internalType": "bytes",
          "name": "consData",
          "type": "bytes"
        }
      ],
      "name": "cloneConstructor",
      "outputs": [],
      "stateMutability": "nonpayable",
      "type": "function"
    },
    {
      "inputs": [
        {
          "internalType": "address",
          "name": "underlyingToken",
          "type": "address"
        },
        {
          "internalType": "address",
          "name": "strikeToken",
          "type": "address"
        },
        {
          "internalType": "uint256",
          "name": "base",
          "type": "uint256"
        },
        {
          "internalType": "uint256",
          "name": "quote",
          "type": "uint256"
        },
        {
          "internalType": "uint256",
          "name": "expiry",
          "type": "uint256"
        }
      ],
      "name": "deploy",
      "outputs": [
        {
          "internalType": "address",
          "name": "",
          "type": "address"
        }
      ],
      "stateMutability": "nonpayable",
      "type": "function"
    },
    {
      "inputs": [],
      "name": "deployOptionTemplate",
      "outputs": [],
      "stateMutability": "nonpayable",
      "type": "function"
    },
    {
      "inputs": [
        {
          "internalType": "address",
          "name": "underlyingToken",
          "type": "address"
        },
        {
          "internalType": "address",
          "name": "strikeToken",
          "type": "address"
        },
        {
          "internalType": "uint256",
          "name": "base",
          "type": "uint256"
        },
        {
          "internalType": "uint256",
          "name": "quote",
          "type": "uint256"
        },
        {
          "internalType": "uint256",
          "name": "expiry",
          "type": "uint256"
        }
      ],
      "name": "getOptionAddress",
      "outputs": [
        {
          "internalType": "address",
          "name": "",
          "type": "address"
        }
      ],
      "stateMutability": "view",
      "type": "function"
    },
    {
      "inputs": [
        {
          "internalType": "address",
          "name": "optionAddress",
          "type": "address"
        },
        {
          "internalType": "address",
          "name": "redeemAddress",
          "type": "address"
        }
      ],
      "name": "initRedeemToken",
      "outputs": [],
      "stateMutability": "nonpayable",
      "type": "function"
    },
    {
      "inputs": [],
      "name": "optionTemplate",
      "outputs": [
        {
          "internalType": "address",
          "name": "",
          "type": "address"
        }
      ],
      "stateMutability": "view",
      "type": "function"
    },
    {
      "inputs": [],
      "name": "owner",
      "outputs": [
        {
          "internalType": "address",
          "name": "",
          "type": "address"
        }
      ],
      "stateMutability": "view",
      "type": "function"
    },
    {
      "inputs": [],
      "name": "renounceOwnership",
      "outputs": [],
      "stateMutability": "nonpayable",
      "type": "function"
    },
    {
      "inputs": [
        {
          "internalType": "address",
          "name": "newOwner",
          "type": "address"
        }
      ],
      "name": "transferOwnership",
      "outputs": [],
      "stateMutability": "nonpayable",
      "type": "function"
    }
  ],
  "address": "0xf4e77E5Da47AC3125140c470c71cBca77B5c638c",
  "args": [
    "0x0078371BDeDE8aAc7DeBfFf451B74c5EDB385Af7"
  ],
  "solcInputHash": "0xf12b901ed4a864b3cf5d7aa32382fcd65f131b3ab0077611cdc7ec9e4c04e954",
  "bytecode": "0x608060405234801561001057600080fd5b50604051620016e1380380620016e18339818101604052602081101561003557600080fd5b8101908080519060200190929190505050600061005661010960201b60201c565b9050806000806101000a81548173ffffffffffffffffffffffffffffffffffffffff021916908373ffffffffffffffffffffffffffffffffffffffff1602179055508073ffffffffffffffffffffffffffffffffffffffff16600073ffffffffffffffffffffffffffffffffffffffff167f8be0079c531659141344cd1fd0a4f28419497f9722a3daafe3b4186f6b6457e060405160405180910390a3506101038161011160201b60201c565b50610325565b600033905090565b61011f61010960201b60201c565b73ffffffffffffffffffffffffffffffffffffffff166000809054906101000a900473ffffffffffffffffffffffffffffffffffffffff1673ffffffffffffffffffffffffffffffffffffffff16146101e0576040517f08c379a00000000000000000000000000000000000000000000000000000000081526004018080602001828103825260208152602001807f4f776e61626c653a2063616c6c6572206973206e6f7420746865206f776e657281525060200191505060405180910390fd5b600073ffffffffffffffffffffffffffffffffffffffff168173ffffffffffffffffffffffffffffffffffffffff161415610267576040517f08c379a0000000000000000000000000000000000000000000000000000000008152600401808060200182810382526026815260200180620016bb6026913960400191505060405180910390fd5b8073ffffffffffffffffffffffffffffffffffffffff166000809054906101000a900473ffffffffffffffffffffffffffffffffffffffff1673ffffffffffffffffffffffffffffffffffffffff167f8be0079c531659141344cd1fd0a4f28419497f9722a3daafe3b4186f6b6457e060405160405180910390a3806000806101000a81548173ffffffffffffffffffffffffffffffffffffffff021916908373ffffffffffffffffffffffffffffffffffffffff16021790555050565b61138680620003356000396000f3fe608060405234801561001057600080fd5b50600436106100935760003560e01c80638da5cb5b116100665780638da5cb5b146102835780638dd7cc90146102cd578063b000e9ec14610317578063b570eed8146103d9578063f2fde38b146103e357610093565b80630952278e1461009857806335638b6b1461015a57806352e831dd146101be578063715018a614610279575b600080fd5b610118600480360360a08110156100ae57600080fd5b81019080803573ffffffffffffffffffffffffffffffffffffffff169060200190929190803573ffffffffffffffffffffffffffffffffffffffff169060200190929190803590602001909291908035906020019092919080359060200190929190505050610427565b604051808273ffffffffffffffffffffffffffffffffffffffff1673ffffffffffffffffffffffffffffffffffffffff16815260200191505060405180910390f35b6101bc6004803603604081101561017057600080fd5b81019080803573ffffffffffffffffffffffffffffffffffffffff169060200190929190803573ffffffffffffffffffffffffffffffffffffffff169060200190929190505050610793565b005b610277600480360360208110156101d457600080fd5b81019080803590602001906401000000008111156101f157600080fd5b82018360208201111561020357600080fd5b8035906020019184600183028401116401000000008311171561022557600080fd5b91908080601f016020809104026020016040519081016040528093929190818152602001838380828437600081840152601f19601f8201169050808301925050505050505091929192905050506108f7565b005b6102816108fa565b005b61028b610a82565b604051808273ffffffffffffffffffffffffffffffffffffffff1673ffffffffffffffffffffffffffffffffffffffff16815260200191505060405180910390f35b6102d5610aab565b604051808273ffffffffffffffffffffffffffffffffffffffff1673ffffffffffffffffffffffffffffffffffffffff16815260200191505060405180910390f35b610397600480360360a081101561032d57600080fd5b81019080803573ffffffffffffffffffffffffffffffffffffffff169060200190929190803573ffffffffffffffffffffffffffffffffffffffff169060200190929190803590602001909291908035906020019092919080359060200190929190505050610ad1565b604051808273ffffffffffffffffffffffffffffffffffffffff1673ffffffffffffffffffffffffffffffffffffffff16815260200191505060405180910390f35b6103e1610bc8565b005b610425600480360360208110156103f957600080fd5b81019080803573ffffffffffffffffffffffffffffffffffffffff169060200190929190505050610c89565b005b6000610431610e96565b73ffffffffffffffffffffffffffffffffffffffff166000809054906101000a900473ffffffffffffffffffffffffffffffffffffffff1673ffffffffffffffffffffffffffffffffffffffff16146104f2576040517f08c379a00000000000000000000000000000000000000000000000000000000081526004018080602001828103825260208152602001807f4f776e61626c653a2063616c6c6572206973206e6f7420746865206f776e657281525060200191505060405180910390fd5b600073ffffffffffffffffffffffffffffffffffffffff16600160009054906101000a900473ffffffffffffffffffffffffffffffffffffffff1673ffffffffffffffffffffffffffffffffffffffff1614156105b7576040517f08c379a00000000000000000000000000000000000000000000000000000000081526004018080602001828103825260188152602001807f4552525f4e4f5f4445504c4f5945445f54454d504c415445000000000000000081525060200191505060405180910390fd5b60006105c1610e9e565b8787878787604051602001808781526020018673ffffffffffffffffffffffffffffffffffffffff1673ffffffffffffffffffffffffffffffffffffffff1660601b81526014018573ffffffffffffffffffffffffffffffffffffffff1673ffffffffffffffffffffffffffffffffffffffff1660601b8152601401848152602001838152602001828152602001965050505050505060405160208183030381529060405280519060200120905060006106a0600160009054906101000a900473ffffffffffffffffffffffffffffffffffffffff168360001c610ec9565b90508073ffffffffffffffffffffffffffffffffffffffff1663d13f90b489898989896040518663ffffffff1660e01b8152600401808673ffffffffffffffffffffffffffffffffffffffff1673ffffffffffffffffffffffffffffffffffffffff1681526020018573ffffffffffffffffffffffffffffffffffffffff1673ffffffffffffffffffffffffffffffffffffffff16815260200184815260200183815260200182815260200195505050505050600060405180830381600087803b15801561076d57600080fd5b505af1158015610781573d6000803e3d6000fd5b50505050809250505095945050505050565b61079b610e96565b73ffffffffffffffffffffffffffffffffffffffff166000809054906101000a900473ffffffffffffffffffffffffffffffffffffffff1673ffffffffffffffffffffffffffffffffffffffff161461085c576040517f08c379a00000000000000000000000000000000000000000000000000000000081526004018080602001828103825260208152602001807f4f776e61626c653a2063616c6c6572206973206e6f7420746865206f776e657281525060200191505060405180910390fd5b8173ffffffffffffffffffffffffffffffffffffffff1663b43bb135826040518263ffffffff1660e01b8152600401808273ffffffffffffffffffffffffffffffffffffffff1673ffffffffffffffffffffffffffffffffffffffff168152602001915050600060405180830381600087803b1580156108db57600080fd5b505af11580156108ef573d6000803e3d6000fd5b505050505050565b50565b610902610e96565b73ffffffffffffffffffffffffffffffffffffffff166000809054906101000a900473ffffffffffffffffffffffffffffffffffffffff1673ffffffffffffffffffffffffffffffffffffffff16146109c3576040517f08c379a00000000000000000000000000000000000000000000000000000000081526004018080602001828103825260208152602001807f4f776e61626c653a2063616c6c6572206973206e6f7420746865206f776e657281525060200191505060405180910390fd5b600073ffffffffffffffffffffffffffffffffffffffff166000809054906101000a900473ffffffffffffffffffffffffffffffffffffffff1673ffffffffffffffffffffffffffffffffffffffff167f8be0079c531659141344cd1fd0a4f28419497f9722a3daafe3b4186f6b6457e060405160405180910390a360008060006101000a81548173ffffffffffffffffffffffffffffffffffffffff021916908373ffffffffffffffffffffffffffffffffffffffff160217905550565b60008060009054906101000a900473ffffffffffffffffffffffffffffffffffffffff16905090565b600160009054906101000a900473ffffffffffffffffffffffffffffffffffffffff1681565b600080610adc610e9e565b8787878787604051602001808781526020018673ffffffffffffffffffffffffffffffffffffffff1673ffffffffffffffffffffffffffffffffffffffff1660601b81526014018573ffffffffffffffffffffffffffffffffffffffff1673ffffffffffffffffffffffffffffffffffffffff1660601b815260140184815260200183815260200182815260200196505050505050506040516020818303038152906040528051906020012090506000610bb8600160009054906101000a900473ffffffffffffffffffffffffffffffffffffffff1683610f9b565b9050809250505095945050505050565b73__$e66ec45a77c89e1b8bb13f01de0ae8794c$__634b5e54886040518163ffffffff1660e01b815260040160206040518083038186803b158015610c0c57600080fd5b505af4158015610c20573d6000803e3d6000fd5b505050506040513d6020811015610c3657600080fd5b8101908080519060200190929190505050600160006101000a81548173ffffffffffffffffffffffffffffffffffffffff021916908373ffffffffffffffffffffffffffffffffffffffff160217905550565b610c91610e96565b73ffffffffffffffffffffffffffffffffffffffff166000809054906101000a900473ffffffffffffffffffffffffffffffffffffffff1673ffffffffffffffffffffffffffffffffffffffff1614610d52576040517f08c379a00000000000000000000000000000000000000000000000000000000081526004018080602001828103825260208152602001807f4f776e61626c653a2063616c6c6572206973206e6f7420746865206f776e657281525060200191505060405180910390fd5b600073ffffffffffffffffffffffffffffffffffffffff168173ffffffffffffffffffffffffffffffffffffffff161415610dd8576040517f08c379a000000000000000000000000000000000000000000000000000000000815260040180806020018281038252602681526020018061132b6026913960400191505060405180910390fd5b8073ffffffffffffffffffffffffffffffffffffffff166000809054906101000a900473ffffffffffffffffffffffffffffffffffffffff1673ffffffffffffffffffffffffffffffffffffffff167f8be0079c531659141344cd1fd0a4f28419497f9722a3daafe3b4186f6b6457e060405160405180910390a3806000806101000a81548173ffffffffffffffffffffffffffffffffffffffff021916908373ffffffffffffffffffffffffffffffffffffffff16021790555050565b600033905090565b60007f56f3a99c8e36689645460020839ea1340cbbb2e507b7effe3f180a89db85dd8760001b905090565b60006060610ed684610fbe565b905060008360001b90508151602083018282826000f594505050600073ffffffffffffffffffffffffffffffffffffffff168373ffffffffffffffffffffffffffffffffffffffff161415610f93576040517f08c379a00000000000000000000000000000000000000000000000000000000081526004018080602001828103825260108152602001807f4552525f435245415445325f4641494c0000000000000000000000000000000081525060200191505060405180910390fd5b505092915050565b6000610fb682610faa85610fbe565b80519060200120610fd1565b905092915050565b6060610fca3083610fe6565b9050919050565b6000610fde838330611261565b905092915050565b60608060006040519080825280601f01601f19166020018201604052801561101d5781602001600182028038833980820191505090505b506040516024018080602001828103825283818151815260200191508051906020019080838360005b83811015611061578082015181840152602081019050611046565b50505050905090810190601f16801561108e5780820380516001836020036101000a031916815260200191505b50925050506040516020818303038152906040527f52e831dd000000000000000000000000000000000000000000000000000000007bffffffffffffffffffffffffffffffffffffffffffffffffffffffff19166020820180517bffffffffffffffffffffffffffffffffffffffffffffffffffffffff8381831617835250505050905080516063016040519080825280601f01601f1916602001820160405280156111495781602001600182028038833980820191505090505b5091507f3d3d606380380380913d393d73bebebebebebebebebebebebebebebebebebebe60208301526c010000000000000000000000008402602d8301527f5af4602a57600080fd5b602d8060366000396000f3363d3d373d3d3d363d73be60418301526c01000000000000000000000000830260608301527f5af43d82803e903d91602b57fd5bf30000000000000000000000000000000000607483015260008090505b81518110156112595781818151811061120357fe5b602001015160f81c60f81b83606383018151811061121d57fe5b60200101907effffffffffffffffffffffffffffffffffffffffffffffffffffffffffffff1916908160001a90535080806001019150506111ee565b505092915050565b60008060ff60f81b83868660405160200180857effffffffffffffffffffffffffffffffffffffffffffffffffffffffffffff19167effffffffffffffffffffffffffffffffffffffffffffffffffffffffffffff191681526001018473ffffffffffffffffffffffffffffffffffffffff1673ffffffffffffffffffffffffffffffffffffffff1660601b81526014018381526020018281526020019450505050506040516020818303038152906040528051906020012090508060001c915050939250505056fe4f776e61626c653a206e6577206f776e657220697320746865207a65726f2061646472657373a264697066735822122062efa9d4ef495e89e8bbd42f57c69dbd94b7e014417f4a1bae32216ba1fc851364736f6c634300060200334f776e61626c653a206e6577206f776e657220697320746865207a65726f2061646472657373",
  "libraries": {
    "OptionTemplateLib": "0x7c2C195CD6D34B8F845992d380aADB2730bB9C6F"
  },
  "devdoc": {
    "methods": {
      "deploy(address,address,uint256,uint256,uint256)": {
        "details": "Deploys a create2 clone of the option template contract.",
        "params": {
          "base": "The quantity of underlying tokens per unit of quote amount of strike tokens.",
          "expiry": "The unix timestamp for option expiry.",
          "quote": "The quantity of strike tokens per unit of base amount of underlying tokens.",
          "strikeToken": "The address of the strike ERC-20 token.",
          "underlyingToken": "The address of the underlying ERC-20 token."
        }
      },
      "deployOptionTemplate()": {
        "details": "Deploys the bytecode for the Option contract."
      },
      "getOptionAddress(address,address,uint256,uint256,uint256)": {
        "details": "Calculates the option token's address using the five option parameters.",
        "returns": {
          "_0": "The address of the option with the parameter arguments."
        }
      },
      "initRedeemToken(address,address)": {
        "details": "Only the factory can call the initRedeemToken function to set the redeem token address. This function is only callable by the Registry contract (the owner)."
      },
      "owner()": {
        "details": "Returns the address of the current owner."
      },
      "renounceOwnership()": {
        "details": "Leaves the contract without owner. It will not be possible to call `onlyOwner` functions anymore. Can only be called by the current owner.     * NOTE: Renouncing ownership will leave the contract without an owner, thereby removing any functionality that is only available to the owner."
      },
      "transferOwnership(address)": {
        "details": "Transfers ownership of the contract to a new account (`newOwner`). Can only be called by the current owner."
      }
    }
  },
  "userdoc": {
    "methods": {}
  },
  "storageLayout": {
    "storage": [
      {
        "astId": 29,
        "contract": "contracts/option/applications/factories/OptionFactory.sol:OptionFactory",
        "label": "_owner",
        "offset": 0,
        "slot": "0",
        "type": "t_address"
      },
      {
        "astId": 2302,
        "contract": "contracts/option/applications/factories/OptionFactory.sol:OptionFactory",
        "label": "optionTemplate",
        "offset": 0,
        "slot": "1",
        "type": "t_address"
      }
    ],
    "types": {
      "t_address": {
        "encoding": "inplace",
        "label": "address",
        "numberOfBytes": "20"
      }
    }
  },
  "gasEstimates": {
    "creation": {
      "codeDepositCost": "999600",
      "executionCost": "infinite",
      "totalCost": "infinite"
    },
    "external": {
      "cloneConstructor(bytes)": "infinite",
      "deploy(address,address,uint256,uint256,uint256)": "infinite",
      "deployOptionTemplate()": "infinite",
      "getOptionAddress(address,address,uint256,uint256,uint256)": "infinite",
      "initRedeemToken(address,address)": "infinite",
      "optionTemplate()": "1075",
      "owner()": "1061",
      "renounceOwnership()": "24364",
      "transferOwnership(address)": "infinite"
    }
  }
}