{
  "abi": [
    {
      "inputs": [],
      "stateMutability": "nonpayable",
      "type": "constructor"
    },
    {
      "anonymous": false,
      "inputs": [
        {
          "indexed": true,
          "internalType": "address",
          "name": "from",
          "type": "address"
        },
        {
          "indexed": true,
          "internalType": "address",
          "name": "optionAddress",
          "type": "address"
        },
        {
          "indexed": true,
          "internalType": "address",
          "name": "redeemAddress",
          "type": "address"
        }
      ],
      "name": "DeployedOptionClone",
      "type": "event"
    },
    {
      "anonymous": false,
      "inputs": [
        {
          "indexed": true,
          "internalType": "address",
          "name": "previousOwner",
          "type": "address"
        },
        {
          "indexed": true,
          "internalType": "address",
          "name": "newOwner",
          "type": "address"
        }
      ],
      "name": "OwnershipTransferred",
      "type": "event"
    },
    {
      "anonymous": false,
      "inputs": [
        {
          "indexed": false,
          "internalType": "address",
          "name": "account",
          "type": "address"
        }
      ],
      "name": "Paused",
      "type": "event"
    },
    {
      "anonymous": false,
      "inputs": [
        {
          "indexed": false,
          "internalType": "address",
          "name": "account",
          "type": "address"
        }
      ],
      "name": "Unpaused",
      "type": "event"
    },
    {
      "anonymous": false,
      "inputs": [
        {
          "indexed": false,
          "internalType": "uint256",
          "name": "expiry",
          "type": "uint256"
        }
      ],
      "name": "UnverifiedExpiry",
      "type": "event"
    },
    {
      "anonymous": false,
      "inputs": [
        {
          "indexed": true,
          "internalType": "address",
          "name": "token",
          "type": "address"
        }
      ],
      "name": "UnverifiedToken",
      "type": "event"
    },
    {
      "anonymous": false,
      "inputs": [
        {
          "indexed": true,
          "internalType": "address",
          "name": "optionFactory_",
          "type": "address"
        }
      ],
      "name": "UpdatedOptionFactory",
      "type": "event"
    },
    {
      "anonymous": false,
      "inputs": [
        {
          "indexed": true,
          "internalType": "address",
          "name": "redeemFactory_",
          "type": "address"
        }
      ],
      "name": "UpdatedRedeemFactory",
      "type": "event"
    },
    {
      "anonymous": false,
      "inputs": [
        {
          "indexed": false,
          "internalType": "uint256",
          "name": "expiry",
          "type": "uint256"
        }
      ],
      "name": "VerifiedExpiry",
      "type": "event"
    },
    {
      "anonymous": false,
      "inputs": [
        {
          "indexed": true,
          "internalType": "address",
          "name": "token",
          "type": "address"
        }
      ],
      "name": "VerifiedToken",
      "type": "event"
    },
    {
      "inputs": [
        {
          "internalType": "uint256",
          "name": "",
          "type": "uint256"
        }
      ],
      "name": "allOptionClones",
      "outputs": [
        {
          "internalType": "address",
          "name": "",
          "type": "address"
        }
      ],
      "stateMutability": "view",
      "type": "function"
    },
    {
      "inputs": [
        {
          "internalType": "address",
          "name": "underlyingToken",
          "type": "address"
        },
        {
          "internalType": "address",
          "name": "strikeToken",
          "type": "address"
        },
        {
          "internalType": "uint256",
          "name": "base",
          "type": "uint256"
        },
        {
          "internalType": "uint256",
          "name": "quote",
          "type": "uint256"
        },
        {
          "internalType": "uint256",
          "name": "expiry",
          "type": "uint256"
        }
      ],
      "name": "calculateOptionAddress",
      "outputs": [
        {
          "internalType": "address",
          "name": "",
          "type": "address"
        }
      ],
      "stateMutability": "view",
      "type": "function"
    },
    {
      "inputs": [
        {
          "internalType": "address",
          "name": "underlyingToken",
          "type": "address"
        },
        {
          "internalType": "address",
          "name": "strikeToken",
          "type": "address"
        },
        {
          "internalType": "uint256",
          "name": "base",
          "type": "uint256"
        },
        {
          "internalType": "uint256",
          "name": "quote",
          "type": "uint256"
        },
        {
          "internalType": "uint256",
          "name": "expiry",
          "type": "uint256"
        }
      ],
      "name": "deployOption",
      "outputs": [
        {
          "internalType": "address",
          "name": "",
          "type": "address"
        }
      ],
      "stateMutability": "nonpayable",
      "type": "function"
    },
    {
      "inputs": [],
      "name": "getAllOptionClonesLength",
      "outputs": [
        {
          "internalType": "uint256",
          "name": "",
          "type": "uint256"
        }
      ],
      "stateMutability": "view",
      "type": "function"
    },
    {
      "inputs": [
        {
          "internalType": "address",
          "name": "underlyingToken",
          "type": "address"
        },
        {
          "internalType": "address",
          "name": "strikeToken",
          "type": "address"
        },
        {
          "internalType": "uint256",
          "name": "base",
          "type": "uint256"
        },
        {
          "internalType": "uint256",
          "name": "quote",
          "type": "uint256"
        },
        {
          "internalType": "uint256",
          "name": "expiry",
          "type": "uint256"
        }
      ],
      "name": "getOptionAddress",
      "outputs": [
        {
          "internalType": "address",
          "name": "",
          "type": "address"
        }
      ],
      "stateMutability": "view",
      "type": "function"
    },
    {
      "inputs": [
        {
          "internalType": "uint256",
          "name": "expiry",
          "type": "uint256"
        }
      ],
      "name": "isVerifiedExpiry",
      "outputs": [
        {
          "internalType": "bool",
          "name": "",
          "type": "bool"
        }
      ],
      "stateMutability": "view",
      "type": "function"
    },
    {
      "inputs": [
        {
          "internalType": "address",
          "name": "optionAddress",
          "type": "address"
        }
      ],
      "name": "isVerifiedOption",
      "outputs": [
        {
          "internalType": "bool",
          "name": "",
          "type": "bool"
        }
      ],
      "stateMutability": "view",
      "type": "function"
    },
    {
      "inputs": [
        {
          "internalType": "address",
          "name": "tokenAddress",
          "type": "address"
        }
      ],
      "name": "isVerifiedToken",
      "outputs": [
        {
          "internalType": "bool",
          "name": "",
          "type": "bool"
        }
      ],
      "stateMutability": "view",
      "type": "function"
    },
    {
      "inputs": [],
      "name": "optionFactory",
      "outputs": [
        {
          "internalType": "address",
          "name": "",
          "type": "address"
        }
      ],
      "stateMutability": "view",
      "type": "function"
    },
    {
      "inputs": [],
      "name": "owner",
      "outputs": [
        {
          "internalType": "address",
          "name": "",
          "type": "address"
        }
      ],
      "stateMutability": "view",
      "type": "function"
    },
    {
      "inputs": [],
      "name": "pauseDeployments",
      "outputs": [],
      "stateMutability": "nonpayable",
      "type": "function"
    },
    {
      "inputs": [],
      "name": "paused",
      "outputs": [
        {
          "internalType": "bool",
          "name": "",
          "type": "bool"
        }
      ],
      "stateMutability": "view",
      "type": "function"
    },
    {
      "inputs": [],
      "name": "redeemFactory",
      "outputs": [
        {
          "internalType": "address",
          "name": "",
          "type": "address"
        }
      ],
      "stateMutability": "view",
      "type": "function"
    },
    {
      "inputs": [],
      "name": "renounceOwnership",
      "outputs": [],
      "stateMutability": "nonpayable",
      "type": "function"
    },
    {
      "inputs": [
        {
          "internalType": "address",
          "name": "optionFactory_",
          "type": "address"
        }
      ],
      "name": "setOptionFactory",
      "outputs": [],
      "stateMutability": "nonpayable",
      "type": "function"
    },
    {
      "inputs": [
        {
          "internalType": "address",
          "name": "redeemFactory_",
          "type": "address"
        }
      ],
      "name": "setRedeemFactory",
      "outputs": [],
      "stateMutability": "nonpayable",
      "type": "function"
    },
    {
      "inputs": [
        {
          "internalType": "address",
          "name": "newOwner",
          "type": "address"
        }
      ],
      "name": "transferOwnership",
      "outputs": [],
      "stateMutability": "nonpayable",
      "type": "function"
    },
    {
      "inputs": [],
      "name": "unpauseDeployments",
      "outputs": [],
      "stateMutability": "nonpayable",
      "type": "function"
    },
    {
      "inputs": [
        {
          "internalType": "uint256",
          "name": "expiry",
          "type": "uint256"
        }
      ],
      "name": "unverifyExpiry",
      "outputs": [],
      "stateMutability": "nonpayable",
      "type": "function"
    },
    {
      "inputs": [
        {
          "internalType": "address",
          "name": "tokenAddress",
          "type": "address"
        }
      ],
      "name": "unverifyToken",
      "outputs": [],
      "stateMutability": "nonpayable",
      "type": "function"
    },
    {
      "inputs": [
        {
          "internalType": "uint256",
          "name": "expiry",
          "type": "uint256"
        }
      ],
      "name": "verifyExpiry",
      "outputs": [],
      "stateMutability": "nonpayable",
      "type": "function"
    },
    {
      "inputs": [
        {
          "internalType": "address",
          "name": "tokenAddress",
          "type": "address"
        }
      ],
      "name": "verifyToken",
      "outputs": [],
      "stateMutability": "nonpayable",
      "type": "function"
    }
  ],
  "address": "0x0078371BDeDE8aAc7DeBfFf451B74c5EDB385Af7",
  "args": [],
  "solcInputHash": "0x38a2aef6671f9f6dea671cc9533fec9de83e5793e7f0811d6baeae7a9bed1ab6",
  "bytecode": "0x60806040523480156200001157600080fd5b506000620000276001600160e01b036200008e16565b600080546001600160a01b0319166001600160a01b038316908117825560405192935091600080516020620015ee833981519152908290a3506000805461ffff60a01b1916600160a81b17905562000088336001600160e01b036200009216565b62000199565b3390565b620000a56001600160e01b036200008e16565b6000546001600160a01b0390811691161462000108576040805162461bcd60e51b815260206004820181905260248201527f4f776e61626c653a2063616c6c6572206973206e6f7420746865206f776e6572604482015290519081900360640190fd5b6001600160a01b0381166200014f5760405162461bcd60e51b8152600401808060200182810382526026815260200180620015c86026913960400191505060405180910390fd5b600080546040516001600160a01b0380851693921691600080516020620015ee83398151915291a3600080546001600160a01b0319166001600160a01b0392909216919091179055565b61141f80620001a96000396000f3fe608060405234801561001057600080fd5b50600436106101425760003560e01c80638da5cb5b116100b8578063b000e9ec1161007c578063b000e9ec14610339578063b3461c871461037b578063c7a988ac14610383578063e4ec108c1461039d578063f2fde38b146103c3578063fce4ae3a146103e957610142565b80638da5cb5b1461029b5780639180928f146102a357806392160076146102e5578063978897341461030b578063aaf15bb51461031357610142565b80635c975abb1161010a5780635c975abb1461022c5780636189a4d31461023457806366f1976d14610251578063715018a6146102595780637f53abde146102615780638229d8511461027e57610142565b80631027b219146101475780632e53926d1461018157806339c00f41146101df5780633d11c796146101fe5780634130276b14610206575b600080fd5b61016d6004803603602081101561015d57600080fd5b50356001600160a01b031661040f565b604080519115158252519081900360200190f35b6101c3600480360360a081101561019757600080fd5b506001600160a01b0381358116916020810135909116906040810135906060810135906080013561042d565b604080516001600160a01b039092168252519081900360200190f35b6101fc600480360360208110156101f557600080fd5b50356104d2565b005b6101fc610578565b6101fc6004803603602081101561021c57600080fd5b50356001600160a01b03166105da565b61016d6106cc565b6101c36004803603602081101561024a57600080fd5b50356106dc565b6101fc610703565b6101fc610763565b6101fc6004803603602081101561027757600080fd5b5035610805565b61016d6004803603602081101561029457600080fd5b50356108fb565b6101c3610910565b6101c3600480360360a08110156102b957600080fd5b506001600160a01b0381358116916020810135909116906040810135906060810135906080013561091f565b6101fc600480360360208110156102fb57600080fd5b50356001600160a01b0316610d8d565b6101c3610e2f565b6101fc6004803603602081101561032957600080fd5b50356001600160a01b0316610e3e565b6101c3600480360360a081101561034f57600080fd5b506001600160a01b03813581169160208101359091169060408101359060608101359060800135610ee0565b6101c3610f1e565b61038b610f2d565b60408051918252519081900360200190f35b6101fc600480360360208110156103b357600080fd5b50356001600160a01b0316610f33565b6101fc600480360360208110156103d957600080fd5b50356001600160a01b0316610fd4565b61016d600480360360208110156103ff57600080fd5b50356001600160a01b03166110cc565b6001600160a01b031660009081526003602052604090205460ff1690565b60015460408051632e53926d60e01b81526001600160a01b0388811660048301528781166024830152604482018790526064820186905260848201859052915160009384931691632e53926d9160a4808301926020929190829003018186803b15801561049957600080fd5b505afa1580156104ad573d6000803e3d6000fd5b505050506040513d60208110156104c357600080fd5b50519150505b95945050505050565b6104da611265565b6000546001600160a01b0390811691161461052a576040805162461bcd60e51b815260206004820181905260248201526000805160206113ca833981519152604482015290519081900360640190fd5b600081815260046020908152604091829020805460ff19169055815183815291517f928f06bc62edcabae2855ccfad4a2f103f1516665607048ed17a208d755713f99281900390910190a150565b610580611265565b6000546001600160a01b039081169116146105d0576040805162461bcd60e51b815260206004820181905260248201526000805160206113ca833981519152604482015290519081900360640190fd5b6105d8611269565b565b6105e2611265565b6000546001600160a01b03908116911614610632576040805162461bcd60e51b815260206004820181905260248201526000805160206113ca833981519152604482015290519081900360640190fd5b6001600160a01b038116610680576040805162461bcd60e51b815260206004820152601060248201526f4552525f5a45524f5f4144445245535360801b604482015290519081900360640190fd5b6001600160a01b038116600081815260036020526040808220805460ff19166001179055517fb48a62163a7d747c16a177c1eb529841e700a0bb4a1e787d7d293eaaf7716d4d9190a250565b600054600160a01b900460ff1690565b600581815481106106e957fe5b6000918252602090912001546001600160a01b0316905081565b61070b611265565b6000546001600160a01b0390811691161461075b576040805162461bcd60e51b815260206004820181905260248201526000805160206113ca833981519152604482015290519081900360640190fd5b6105d8611311565b61076b611265565b6000546001600160a01b039081169116146107bb576040805162461bcd60e51b815260206004820181905260248201526000805160206113ca833981519152604482015290519081900360640190fd5b600080546040516001600160a01b03909116907f8be0079c531659141344cd1fd0a4f28419497f9722a3daafe3b4186f6b6457e0908390a3600080546001600160a01b0319169055565b61080d611265565b6000546001600160a01b0390811691161461085d576040805162461bcd60e51b815260206004820181905260248201526000805160206113ca833981519152604482015290519081900360640190fd5b428110156108aa576040805162461bcd60e51b815260206004820152601560248201527404552525f455850495245445f54494d455354414d5605c1b604482015290519081900360640190fd5b600081815260046020908152604091829020805460ff19166001179055815183815291517f01a8c23c3824519cd8b455f3e637b99e97249d2e06ab99d93f43d60d163fb5bf9281900390910190a150565b60009081526004602052604090205460ff1690565b6000546001600160a01b031690565b60008054600160a81b900460ff1661097e576040805162461bcd60e51b815260206004820152601f60248201527f5265656e7472616e637947756172643a207265656e7472616e742063616c6c00604482015290519081900360640190fd5b6000805460ff60a81b191690819055600160a01b900460ff16156109dc576040805162461bcd60e51b815260206004820152601060248201526f14185d5cd8589b194e881c185d5cd95960821b604482015290519081900360640190fd5b60008411610a21576040805162461bcd60e51b815260206004820152600d60248201526c4552525f424153455f5a45524f60981b604482015290519081900360640190fd5b60008311610a67576040805162461bcd60e51b815260206004820152600e60248201526d4552525f51554f54455f5a45524f60901b604482015290519081900360640190fd5b42821015610aa9576040805162461bcd60e51b815260206004820152600a6024820152694552525f45585049525960b01b604482015290519081900360640190fd5b846001600160a01b0316866001600160a01b03161415610b02576040805162461bcd60e51b815260206004820152600f60248201526e4552525f53414d455f41535345545360881b604482015290519081900360640190fd5b6001600160a01b03861615801590610b2257506001600160a01b03851615155b610b66576040805162461bcd60e51b815260206004820152601060248201526f4552525f5a45524f5f4144445245535360801b604482015290519081900360640190fd5b6001546040805163d604a1ef60e01b81526001600160a01b03898116600483015288811660248301526044820188905260648201879052608482018690529151600093929092169163d604a1ef9160a48082019260209290919082900301818787803b158015610bd557600080fd5b505af1158015610be9573d6000803e3d6000fd5b505050506040513d6020811015610bff57600080fd5b505160025460408051637f46b1cb60e11b81526001600160a01b0380851660048301529151939450600093919092169163fe8d639691602480830192602092919082900301818787803b158015610c5557600080fd5b505af1158015610c69573d6000803e3d6000fd5b505050506040513d6020811015610c7f57600080fd5b5051600580546001808201835560009283527f036b6384b5eca791c62761152d0c79bb0604c104a5fb6f4eb0703f3154bb3db090910180546001600160a01b0319166001600160a01b038781169182179092559154604080516335638b6b60e01b8152600481019490945282861660248501525194955016926335638b6b9260448084019391929182900301818387803b158015610d1c57600080fd5b505af1158015610d30573d6000803e3d6000fd5b50506040516001600160a01b0380851693508516915033907fdb19f143ae8e015bc96c062e81a1c69f2e1568dfba82c18947239515a0b8725b90600090a45090506000805460ff60a81b1916600160a81b17905595945050505050565b610d95611265565b6000546001600160a01b03908116911614610de5576040805162461bcd60e51b815260206004820181905260248201526000805160206113ca833981519152604482015290519081900360640190fd5b600280546001600160a01b0319166001600160a01b0383169081179091556040517f4f32895401ed84629e6727059ffe5f8d2f637bc6c325630ba6054007ceb95c2c90600090a250565b6002546001600160a01b031681565b610e46611265565b6000546001600160a01b03908116911614610e96576040805162461bcd60e51b815260206004820181905260248201526000805160206113ca833981519152604482015290519081900360640190fd5b600180546001600160a01b0319166001600160a01b0383169081179091556040517feec46c83ee301290575f8c7bb5428480c127f0c54263c00f30465050f4495a8e90600090a250565b600080610ef0878787878761042d565b90506000610efd8261139f565b905063ffffffff811615610f13575090506104c9565b6000925050506104c9565b6001546001600160a01b031681565b60055490565b610f3b611265565b6000546001600160a01b03908116911614610f8b576040805162461bcd60e51b815260206004820181905260248201526000805160206113ca833981519152604482015290519081900360640190fd5b6001600160a01b038116600081815260036020526040808220805460ff19169055517fe9769d9a414671453740fdb9cc92922655391134bd1beec930a2203bd45a67c09190a250565b610fdc611265565b6000546001600160a01b0390811691161461102c576040805162461bcd60e51b815260206004820181905260248201526000805160206113ca833981519152604482015290519081900360640190fd5b6001600160a01b0381166110715760405162461bcd60e51b81526004018080602001828103825260268152602001806113a46026913960400191505060405180910390fd5b600080546040516001600160a01b03808516939216917f8be0079c531659141344cd1fd0a4f28419497f9722a3daafe3b4186f6b6457e091a3600080546001600160a01b0319166001600160a01b0392909216919091179055565b6000808290506000816001600160a01b031663440f5fd26040518163ffffffff1660e01b815260040160206040518083038186803b15801561110d57600080fd5b505afa158015611121573d6000803e3d6000fd5b505050506040513d602081101561113757600080fd5b50516040805163a1a4076160e01b815290519192506000916001600160a01b0385169163a1a40761916004808301926020929190829003018186803b15801561117f57600080fd5b505afa158015611193573d6000803e3d6000fd5b505050506040513d60208110156111a957600080fd5b50516040805162972d6f60e61b815290519192506000916001600160a01b038616916325cb5bc0916004808301926020929190829003018186803b1580156111f057600080fd5b505afa158015611204573d6000803e3d6000fd5b505050506040513d602081101561121a57600080fd5b5051905060006112298461040f565b905060006112368461040f565b90506000611243846108fb565b905082801561124f5750815b80156112585750805b9998505050505050505050565b3390565b600054600160a01b900460ff166112be576040805162461bcd60e51b815260206004820152601460248201527314185d5cd8589b194e881b9bdd081c185d5cd95960621b604482015290519081900360640190fd5b6000805460ff60a01b191690557f5db9ee0a495bf2e6ff9c91a7834c1ba4fdd244a5e8aa4e537bd38aeae4b073aa6112f4611265565b604080516001600160a01b039092168252519081900360200190a1565b600054600160a01b900460ff1615611363576040805162461bcd60e51b815260206004820152601060248201526f14185d5cd8589b194e881c185d5cd95960821b604482015290519081900360640190fd5b6000805460ff60a01b1916600160a01b1790557f62e78cea01bee320cd4e420270b5ea74000d11b0c9f74754ebdbfc544b05a2586112f4611265565b3b9056fe4f776e61626c653a206e6577206f776e657220697320746865207a65726f20616464726573734f776e61626c653a2063616c6c6572206973206e6f7420746865206f776e6572a2646970667358221220fdf941504f346ed79029f68f89e94dc23231c347bc49861b7efdfcae0882684464736f6c634300060200334f776e61626c653a206e6577206f776e657220697320746865207a65726f20616464726573738be0079c531659141344cd1fd0a4f28419497f9722a3daafe3b4186f6b6457e0",
  "devdoc": {
    "methods": {
      "calculateOptionAddress(address,address,uint256,uint256,uint256)": {
        "details": "Calculates the option address deployed with create2 using the parameter arguments.",
        "params": {
          "base": "The quantity of underlying tokens per unit of quote amount of strike tokens.",
          "expiry": "The unix timestamp of the option's expiration date.",
          "quote": "The quantity of strike tokens per unit of base amount of underlying tokens.",
          "strikeToken": "The address of the ERC-20 strike token.",
          "underlyingToken": "The address of the ERC-20 underlying token."
        },
        "returns": {
          "_0": "The address of the option with the parameter arguments."
        }
      },
      "deployOption(address,address,uint256,uint256,uint256)": {
        "details": "Deploys an option contract clone with create2.",
        "params": {
          "base": "The quantity of underlying tokens per unit of quote amount of strike tokens.",
          "expiry": "The unix timestamp of the option's expiration date.",
          "quote": "The quantity of strike tokens per unit of base amount of underlying tokens.",
          "strikeToken": "The address of the ERC-20 strike token.",
          "underlyingToken": "The address of the ERC-20 underlying token."
        },
        "returns": {
          "_0": "The address of the deployed option clone."
        }
      },
      "getAllOptionClonesLength()": {
        "details": "Returns the length of the allOptionClones address array."
      },
      "getOptionAddress(address,address,uint256,uint256,uint256)": {
        "details": "Gets the option address and returns address zero if not yet deployed.",
        "params": {
          "base": "The quantity of underlying tokens per unit of quote amount of strike tokens.",
          "expiry": "The unix timestamp of the option's expiration date.",
          "quote": "The quantity of strike tokens per unit of base amount of underlying tokens.",
          "strikeToken": "The address of the ERC-20 strike token.",
          "underlyingToken": "The address of the ERC-20 underlying token."
        },
        "returns": {
          "_0": "The address of the option with the parameter arguments."
        }
      },
      "isVerifiedExpiry(uint256)": {
        "details": "Checks the verifiedExpiries private mapping and returns verification status of token.",
        "returns": {
          "_0": "bool Verified or not verified."
        }
      },
      "isVerifiedOption(address)": {
        "details": "Checks an option address to see if it has verified assets and expiry time.",
        "params": {
          "optionAddress": "The address of the option token."
        },
        "returns": {
          "_0": "bool If the option has verified underlying and strike tokens, and expiry time."
        }
      },
      "isVerifiedToken(address)": {
        "details": "Checks the verifiedTokens private mapping and returns verification status of token.",
        "returns": {
          "_0": "bool Verified or not verified."
        }
      },
      "owner()": {
        "details": "Returns the address of the current owner."
      },
      "pauseDeployments()": {
        "details": "Pauses the deployOption function."
      },
      "paused()": {
        "details": "Returns true if the contract is paused, and false otherwise."
      },
      "renounceOwnership()": {
        "details": "Leaves the contract without owner. It will not be possible to call `onlyOwner` functions anymore. Can only be called by the current owner.     * NOTE: Renouncing ownership will leave the contract without an owner, thereby removing any functionality that is only available to the owner."
      },
      "setOptionFactory(address)": {
        "details": "Sets the option factory contract to use for deploying clones.",
        "params": {
          "optionFactory_": "The address of the option factory."
        }
      },
      "setRedeemFactory(address)": {
        "details": "Sets the redeem factory contract to use for deploying clones.",
        "params": {
          "redeemFactory_": "The address of the redeem factory."
        }
      },
      "transferOwnership(address)": {
        "details": "Transfers ownership of the contract to a new account (`newOwner`). Can only be called by the current owner."
      },
      "unpauseDeployments()": {
        "details": "Unpauses the deployOption function."
      },
      "unverifyExpiry(uint256)": {
        "details": "Sets an expiry timestamp's verification status to false."
      },
      "unverifyToken(address)": {
        "details": "Sets a verified token's verification status to false."
      },
      "verifyExpiry(uint256)": {
        "details": "Sets an expiry timestamp's verification status to true."
      },
      "verifyToken(address)": {
        "details": "Sets an ERC-20 token verification status to true."
      }
    }
  },
  "userdoc": {
    "methods": {
      "getOptionAddress(address,address,uint256,uint256,uint256)": {
        "notice": "Will calculate the option address using the parameter arguments.        Checks the code size of the address to see if the contract has been deployed yet.        If contract has not been deployed, returns address zero."
      },
      "unverifyExpiry(uint256)": {
        "notice": "A mapping of standardized, \"verified\", timestamps for the options."
      },
      "verifyExpiry(uint256)": {
        "notice": "A mapping of standardized, \"verified\", timestamps for the options."
      },
      "verifyToken(address)": {
        "notice": "A \"verified\" token is a standard ERC-20 token that we have tested with the option contract.        An example of an \"unverified\" token is a non-standard ERC-20 token which has not been tested."
      }
    }
  },
  "storageLayout": {
    "storage": [
      {
        "astId": 33,
        "contract": "contracts/option/applications/Registry.sol:Registry",
        "label": "_owner",
        "offset": 0,
        "slot": "0",
        "type": "t_address"
      },
      {
        "astId": 1281,
        "contract": "contracts/option/applications/Registry.sol:Registry",
        "label": "_paused",
        "offset": 20,
        "slot": "0",
        "type": "t_bool"
      },
      {
        "astId": 1351,
        "contract": "contracts/option/applications/Registry.sol:Registry",
        "label": "_notEntered",
        "offset": 21,
        "slot": "0",
        "type": "t_bool"
      },
      {
        "astId": 4467,
        "contract": "contracts/option/applications/Registry.sol:Registry",
        "label": "optionFactory",
        "offset": 0,
        "slot": "1",
        "type": "t_address"
      },
      {
        "astId": 4470,
        "contract": "contracts/option/applications/Registry.sol:Registry",
        "label": "redeemFactory",
        "offset": 0,
        "slot": "2",
        "type": "t_address"
      },
      {
        "astId": 4474,
        "contract": "contracts/option/applications/Registry.sol:Registry",
        "label": "verifiedTokens",
        "offset": 0,
        "slot": "3",
        "type": "t_mapping(t_address,t_bool)"
      },
      {
        "astId": 4478,
        "contract": "contracts/option/applications/Registry.sol:Registry",
        "label": "verifiedExpiries",
        "offset": 0,
        "slot": "4",
        "type": "t_mapping(t_uint256,t_bool)"
      },
      {
        "astId": 4481,
        "contract": "contracts/option/applications/Registry.sol:Registry",
        "label": "allOptionClones",
        "offset": 0,
        "slot": "5",
        "type": "t_array(t_address)dyn_storage"
      }
    ],
    "types": {
      "t_address": {
        "encoding": "inplace",
        "label": "address",
        "numberOfBytes": "20"
      },
      "t_array(t_address)dyn_storage": {
        "base": "t_address",
        "encoding": "dynamic_array",
        "label": "address[]",
        "numberOfBytes": "32"
      },
      "t_bool": {
        "encoding": "inplace",
        "label": "bool",
        "numberOfBytes": "1"
      },
      "t_mapping(t_address,t_bool)": {
        "encoding": "mapping",
        "key": "t_address",
        "label": "mapping(address => bool)",
        "numberOfBytes": "32",
        "value": "t_bool"
      },
      "t_mapping(t_uint256,t_bool)": {
        "encoding": "mapping",
        "key": "t_uint256",
        "label": "mapping(uint256 => bool)",
        "numberOfBytes": "32",
        "value": "t_bool"
      },
      "t_uint256": {
        "encoding": "inplace",
        "label": "uint256",
        "numberOfBytes": "32"
      }
    }
  },
  "gasEstimates": {
    "creation": {
      "codeDepositCost": "1030200",
      "executionCost": "infinite",
      "totalCost": "infinite"
    },
    "external": {
      "allOptionClones(uint256)": "2015",
      "calculateOptionAddress(address,address,uint256,uint256,uint256)": "infinite",
      "deployOption(address,address,uint256,uint256,uint256)": "infinite",
      "getAllOptionClonesLength()": "1064",
      "getOptionAddress(address,address,uint256,uint256,uint256)": "infinite",
      "isVerifiedExpiry(uint256)": "1251",
      "isVerifiedOption(address)": "infinite",
      "isVerifiedToken(address)": "1178",
      "optionFactory()": "1081",
      "owner()": "1060",
      "pauseDeployments()": "infinite",
      "paused()": "1050",
      "redeemFactory()": "1126",
      "renounceOwnership()": "infinite",
      "setOptionFactory(address)": "infinite",
      "setRedeemFactory(address)": "infinite",
      "transferOwnership(address)": "infinite",
      "unpauseDeployments()": "infinite",
      "unverifyExpiry(uint256)": "infinite",
      "unverifyToken(address)": "infinite",
      "verifyExpiry(uint256)": "infinite",
      "verifyToken(address)": "infinite"
    },
    "internal": {
      "checkCodeSize(address)": "712"
    }
  }
}