{
  "abi": [
    {
      "inputs": [],
      "stateMutability": "nonpayable",
      "type": "constructor"
    },
    {
      "anonymous": false,
      "inputs": [
        {
          "indexed": true,
          "internalType": "address",
          "name": "from",
          "type": "address"
        },
        {
          "indexed": true,
          "internalType": "address",
          "name": "quoteToken",
          "type": "address"
        }
      ],
      "name": "Initialized",
      "type": "event"
    },
    {
      "anonymous": false,
      "inputs": [
        {
          "indexed": true,
          "internalType": "address",
          "name": "previousOwner",
          "type": "address"
        },
        {
          "indexed": true,
          "internalType": "address",
          "name": "newOwner",
          "type": "address"
        }
      ],
      "name": "OwnershipTransferred",
      "type": "event"
    },
    {
      "anonymous": false,
      "inputs": [
        {
          "indexed": true,
          "internalType": "address",
          "name": "from",
          "type": "address"
        },
        {
          "indexed": true,
          "internalType": "address",
          "name": "optionMarketFrom",
          "type": "address"
        },
        {
          "indexed": true,
          "internalType": "address",
          "name": "optionMarketTo",
          "type": "address"
        },
        {
          "indexed": false,
          "internalType": "uint256",
          "name": "liquidity",
          "type": "uint256"
        }
      ],
      "name": "RolledOptionLiquidity",
      "type": "event"
    },
    {
      "anonymous": false,
      "inputs": [
        {
          "indexed": true,
          "internalType": "address",
          "name": "from",
          "type": "address"
        },
        {
          "indexed": true,
          "internalType": "address",
          "name": "optionFrom",
          "type": "address"
        },
        {
          "indexed": true,
          "internalType": "address",
          "name": "optionTo",
          "type": "address"
        },
        {
          "indexed": false,
          "internalType": "uint256",
          "name": "quantity",
          "type": "uint256"
        }
      ],
      "name": "RolledOptions",
      "type": "event"
    },
    {
      "anonymous": false,
      "inputs": [
        {
          "indexed": true,
          "internalType": "address",
          "name": "from",
          "type": "address"
        },
        {
          "indexed": true,
          "internalType": "address",
          "name": "newFactory",
          "type": "address"
        }
      ],
      "name": "UpdatedFactory",
      "type": "event"
    },
    {
      "anonymous": false,
      "inputs": [
        {
          "indexed": true,
          "internalType": "address",
          "name": "from",
          "type": "address"
        },
        {
          "indexed": true,
          "internalType": "address",
          "name": "newQuote",
          "type": "address"
        }
      ],
      "name": "UpdatedQuoteToken",
      "type": "event"
    },
    {
      "anonymous": false,
      "inputs": [
        {
          "indexed": true,
          "internalType": "address",
          "name": "from",
          "type": "address"
        },
        {
          "indexed": true,
          "internalType": "address",
          "name": "newRegistry",
          "type": "address"
        }
      ],
      "name": "UpdatedRegistry",
      "type": "event"
    },
    {
      "anonymous": false,
      "inputs": [
        {
          "indexed": true,
          "internalType": "address",
          "name": "from",
          "type": "address"
        },
        {
          "indexed": true,
          "internalType": "address",
          "name": "newRouter",
          "type": "address"
        }
      ],
      "name": "UpdatedRouter",
      "type": "event"
    },
    {
      "anonymous": false,
      "inputs": [
        {
          "indexed": true,
          "internalType": "address",
          "name": "from",
          "type": "address"
        },
        {
          "indexed": true,
          "internalType": "address",
          "name": "newTrader",
          "type": "address"
        }
      ],
      "name": "UpdatedTrader",
      "type": "event"
    },
    {
      "inputs": [
        {
          "internalType": "address",
          "name": "optionAddress",
          "type": "address"
        },
        {
          "internalType": "uint256",
          "name": "quantityOptions",
          "type": "uint256"
        },
        {
          "internalType": "uint256",
          "name": "quantityQuoteTokens",
          "type": "uint256"
        },
        {
          "internalType": "uint256",
          "name": "minQuantityOptions",
          "type": "uint256"
        },
        {
          "internalType": "uint256",
          "name": "minQuantityQuoteTokens",
          "type": "uint256"
        },
        {
          "internalType": "address",
          "name": "to",
          "type": "address"
        },
        {
          "internalType": "uint256",
          "name": "deadline",
          "type": "uint256"
        }
      ],
      "name": "addLiquidityWithUnderlying",
      "outputs": [
        {
          "internalType": "bool",
          "name": "",
          "type": "bool"
        }
      ],
      "stateMutability": "nonpayable",
      "type": "function"
    },
    {
      "inputs": [
        {
          "internalType": "address",
          "name": "optionAddress",
          "type": "address"
        }
      ],
      "name": "deployUniswapMarket",
      "outputs": [
        {
          "internalType": "address",
          "name": "",
          "type": "address"
        }
      ],
      "stateMutability": "nonpayable",
      "type": "function"
    },
    {
      "inputs": [],
      "name": "factory",
      "outputs": [
        {
          "internalType": "contract IUniswapV2Factory",
          "name": "",
          "type": "address"
        }
      ],
      "stateMutability": "view",
      "type": "function"
    },
    {
      "inputs": [],
      "name": "getMaxDeadline",
      "outputs": [
        {
          "internalType": "uint256",
          "name": "",
          "type": "uint256"
        }
      ],
      "stateMutability": "view",
      "type": "function"
    },
    {
      "inputs": [
        {
          "internalType": "address",
          "name": "optionAddress",
          "type": "address"
        }
      ],
      "name": "getUniswapMarketForOption",
      "outputs": [
        {
          "internalType": "address",
          "name": "",
          "type": "address"
        }
      ],
      "stateMutability": "view",
      "type": "function"
    },
    {
      "inputs": [
        {
          "internalType": "address",
          "name": "underlyingToken",
          "type": "address"
        },
        {
          "internalType": "address",
          "name": "strikeToken",
          "type": "address"
        },
        {
          "internalType": "uint256",
          "name": "base",
          "type": "uint256"
        },
        {
          "internalType": "uint256",
          "name": "quote",
          "type": "uint256"
        },
        {
          "internalType": "uint256",
          "name": "expiry",
          "type": "uint256"
        }
      ],
      "name": "getUniswapMarketForSeries",
      "outputs": [
        {
          "internalType": "address",
          "name": "",
          "type": "address"
        }
      ],
      "stateMutability": "view",
      "type": "function"
    },
    {
      "inputs": [
        {
          "internalType": "address",
          "name": "router_",
          "type": "address"
        },
        {
          "internalType": "address",
          "name": "factory_",
          "type": "address"
        },
        {
          "internalType": "address",
          "name": "trader_",
          "type": "address"
        },
        {
          "internalType": "address",
          "name": "registry_",
          "type": "address"
        },
        {
          "internalType": "address",
          "name": "quoteToken_",
          "type": "address"
        }
      ],
      "name": "initialize",
      "outputs": [],
      "stateMutability": "nonpayable",
      "type": "function"
    },
    {
      "inputs": [
        {
          "internalType": "contract IOption",
          "name": "optionToken",
          "type": "address"
        },
        {
          "internalType": "uint256",
          "name": "amountIn",
          "type": "uint256"
        },
        {
          "internalType": "uint256",
          "name": "amountOutMin",
          "type": "uint256"
        },
        {
          "internalType": "address[]",
          "name": "path",
          "type": "address[]"
        },
        {
          "internalType": "address",
          "name": "to",
          "type": "address"
        },
        {
          "internalType": "uint256",
          "name": "deadline",
          "type": "uint256"
        }
      ],
      "name": "mintOptionsThenSwapToTokens",
      "outputs": [
        {
          "internalType": "bool",
          "name": "",
          "type": "bool"
        }
      ],
      "stateMutability": "nonpayable",
      "type": "function"
    },
    {
      "inputs": [],
      "name": "owner",
      "outputs": [
        {
          "internalType": "address",
          "name": "",
          "type": "address"
        }
      ],
      "stateMutability": "view",
      "type": "function"
    },
    {
      "inputs": [],
      "name": "quoteToken",
      "outputs": [
        {
          "internalType": "address",
          "name": "",
          "type": "address"
        }
      ],
      "stateMutability": "view",
      "type": "function"
    },
    {
      "inputs": [],
      "name": "registry",
      "outputs": [
        {
          "internalType": "contract IRegistry",
          "name": "",
          "type": "address"
        }
      ],
      "stateMutability": "view",
      "type": "function"
    },
    {
      "inputs": [
        {
          "internalType": "address",
          "name": "optionAddress",
          "type": "address"
        },
        {
          "internalType": "uint256",
          "name": "liquidity",
          "type": "uint256"
        },
        {
          "internalType": "uint256",
          "name": "amountAMin",
          "type": "uint256"
        },
        {
          "internalType": "uint256",
          "name": "amountBMin",
          "type": "uint256"
        },
        {
          "internalType": "address",
          "name": "to",
          "type": "address"
        },
        {
          "internalType": "uint256",
          "name": "deadline",
          "type": "uint256"
        }
      ],
      "name": "removeLiquidityThenCloseOptions",
      "outputs": [
        {
          "internalType": "uint256",
          "name": "",
          "type": "uint256"
        },
        {
          "internalType": "uint256",
          "name": "",
          "type": "uint256"
        }
      ],
      "stateMutability": "nonpayable",
      "type": "function"
    },
    {
      "inputs": [],
      "name": "renounceOwnership",
      "outputs": [],
      "stateMutability": "nonpayable",
      "type": "function"
    },
    {
      "inputs": [
        {
          "internalType": "address",
          "name": "rollFromOption",
          "type": "address"
        },
        {
          "internalType": "address",
          "name": "rollToOption",
          "type": "address"
        },
        {
          "internalType": "uint256",
          "name": "rollQuantity",
          "type": "uint256"
        },
        {
          "internalType": "address",
          "name": "receiver",
          "type": "address"
        }
      ],
      "name": "rollOption",
      "outputs": [
        {
          "internalType": "bool",
          "name": "",
          "type": "bool"
        }
      ],
      "stateMutability": "nonpayable",
      "type": "function"
    },
    {
      "inputs": [
        {
          "internalType": "address",
          "name": "rollFromOption",
          "type": "address"
        },
        {
          "internalType": "address",
          "name": "rollToOption",
          "type": "address"
        },
        {
          "internalType": "uint256",
          "name": "liquidity",
          "type": "uint256"
        },
        {
          "internalType": "uint256",
          "name": "amountAMin",
          "type": "uint256"
        },
        {
          "internalType": "uint256",
          "name": "amountBMin",
          "type": "uint256"
        },
        {
          "internalType": "address",
          "name": "to",
          "type": "address"
        },
        {
          "internalType": "uint256",
          "name": "deadline",
          "type": "uint256"
        }
      ],
      "name": "rollOptionLiquidity",
      "outputs": [
        {
          "internalType": "bool",
          "name": "",
          "type": "bool"
        }
      ],
      "stateMutability": "nonpayable",
      "type": "function"
    },
    {
      "inputs": [],
      "name": "router",
      "outputs": [
        {
          "internalType": "contract IUniswapV2Router02",
          "name": "",
          "type": "address"
        }
      ],
      "stateMutability": "view",
      "type": "function"
    },
    {
      "inputs": [
        {
          "internalType": "address",
          "name": "factory_",
          "type": "address"
        }
      ],
      "name": "setFactory",
      "outputs": [],
      "stateMutability": "nonpayable",
      "type": "function"
    },
    {
      "inputs": [
        {
          "internalType": "address",
          "name": "quoteToken_",
          "type": "address"
        }
      ],
      "name": "setQuoteToken",
      "outputs": [],
      "stateMutability": "nonpayable",
      "type": "function"
    },
    {
      "inputs": [
        {
          "internalType": "address",
          "name": "registry_",
          "type": "address"
        }
      ],
      "name": "setRegistry",
      "outputs": [],
      "stateMutability": "nonpayable",
      "type": "function"
    },
    {
      "inputs": [
        {
          "internalType": "address",
          "name": "router_",
          "type": "address"
        }
      ],
      "name": "setRouter",
      "outputs": [],
      "stateMutability": "nonpayable",
      "type": "function"
    },
    {
      "inputs": [
        {
          "internalType": "address",
          "name": "trader_",
          "type": "address"
        }
      ],
      "name": "setTrader",
      "outputs": [],
      "stateMutability": "nonpayable",
      "type": "function"
    },
    {
      "inputs": [],
      "name": "trader",
      "outputs": [
        {
          "internalType": "contract ITrader",
          "name": "",
          "type": "address"
        }
      ],
      "stateMutability": "view",
      "type": "function"
    },
    {
      "inputs": [
        {
          "internalType": "address",
          "name": "newOwner",
          "type": "address"
        }
      ],
      "name": "transferOwnership",
      "outputs": [],
      "stateMutability": "nonpayable",
      "type": "function"
    }
  ],
  "address": "0xEcc0a6dbC0bb4D51E4F84A315a9e5B0438cAD4f0",
  "args": [],
  "solcInputHash": "0x6790736ad89befcaa7be92ed1ac7f7481d75836c60f47e71202b55e2673ecb84",
  "bytecode": "0x60806040523480156200001157600080fd5b50600062000024620000e360201b60201c565b9050806000806101000a81548173ffffffffffffffffffffffffffffffffffffffff021916908373ffffffffffffffffffffffffffffffffffffffff1602179055508073ffffffffffffffffffffffffffffffffffffffff16600073ffffffffffffffffffffffffffffffffffffffff167f8be0079c531659141344cd1fd0a4f28419497f9722a3daafe3b4186f6b6457e060405160405180910390a3506001600060146101000a81548160ff021916908315150217905550620000eb565b600033905090565b61489680620000fb6000396000f3fe608060405234801561001057600080fd5b506004361061014d5760003560e01c80637b103999116100c3578063acc794381161007c578063acc79438146108a1578063c0d7865514610948578063c45a01551461098c578063f2fde38b146109d6578063f441e35014610a1a578063f887ea4014610ac05761014d565b80637b103999146106135780638ac323291461065d5780638d2a1cf1146107215780638da5cb5b146107cf578063a6bc18f914610819578063a91ee0dc1461085d5761014d565b806351b8498f1161011557806351b8498f146103dd5780635bb478081461049f5780636af255d7146104e35780636bd64c3a146105675780636d4542bd14610585578063715018a6146106095761014d565b80631459457a146101525780631758078b146102165780631cfb886d14610260578063217a4b70146102a45780632ea4fbb4146102ee575b600080fd5b610214600480360360a081101561016857600080fd5b81019080803573ffffffffffffffffffffffffffffffffffffffff169060200190929190803573ffffffffffffffffffffffffffffffffffffffff169060200190929190803573ffffffffffffffffffffffffffffffffffffffff169060200190929190803573ffffffffffffffffffffffffffffffffffffffff169060200190929190803573ffffffffffffffffffffffffffffffffffffffff169060200190929190505050610b0a565b005b61021e61114d565b604051808273ffffffffffffffffffffffffffffffffffffffff1673ffffffffffffffffffffffffffffffffffffffff16815260200191505060405180910390f35b6102a26004803603602081101561027657600080fd5b81019080803573ffffffffffffffffffffffffffffffffffffffff169060200190929190505050611173565b005b6102ac6112da565b604051808273ffffffffffffffffffffffffffffffffffffffff1673ffffffffffffffffffffffffffffffffffffffff16815260200191505060405180910390f35b6103c3600480360360c081101561030457600080fd5b81019080803573ffffffffffffffffffffffffffffffffffffffff16906020019092919080359060200190929190803590602001909291908035906020019064010000000081111561035557600080fd5b82018360208201111561036757600080fd5b8035906020019184602083028401116401000000008311171561038957600080fd5b9091929391929390803573ffffffffffffffffffffffffffffffffffffffff16906020019092919080359060200190929190505050611300565b604051808215151515815260200191505060405180910390f35b61045d600480360360a08110156103f357600080fd5b81019080803573ffffffffffffffffffffffffffffffffffffffff169060200190929190803573ffffffffffffffffffffffffffffffffffffffff169060200190929190803590602001909291908035906020019092919080359060200190929190505050611497565b604051808273ffffffffffffffffffffffffffffffffffffffff1673ffffffffffffffffffffffffffffffffffffffff16815260200191505060405180910390f35b6104e1600480360360208110156104b557600080fd5b81019080803573ffffffffffffffffffffffffffffffffffffffff16906020019092919050505061167a565b005b610525600480360360208110156104f957600080fd5b81019080803573ffffffffffffffffffffffffffffffffffffffff1690602001909291905050506117e1565b604051808273ffffffffffffffffffffffffffffffffffffffff1673ffffffffffffffffffffffffffffffffffffffff16815260200191505060405180910390f35b61056f611921565b6040518082815260200191505060405180910390f35b6105c76004803603602081101561059b57600080fd5b81019080803573ffffffffffffffffffffffffffffffffffffffff169060200190929190505050611932565b604051808273ffffffffffffffffffffffffffffffffffffffff1673ffffffffffffffffffffffffffffffffffffffff16815260200191505060405180910390f35b610611611b13565b005b61061b611c9b565b604051808273ffffffffffffffffffffffffffffffffffffffff1673ffffffffffffffffffffffffffffffffffffffff16815260200191505060405180910390f35b610707600480360360e081101561067357600080fd5b81019080803573ffffffffffffffffffffffffffffffffffffffff169060200190929190803573ffffffffffffffffffffffffffffffffffffffff169060200190929190803590602001909291908035906020019092919080359060200190929190803573ffffffffffffffffffffffffffffffffffffffff16906020019092919080359060200190929190505050611cc1565b604051808215151515815260200191505060405180910390f35b6107b5600480360360e081101561073757600080fd5b81019080803573ffffffffffffffffffffffffffffffffffffffff16906020019092919080359060200190929190803590602001909291908035906020019092919080359060200190929190803573ffffffffffffffffffffffffffffffffffffffff16906020019092919080359060200190929190505050611deb565b604051808215151515815260200191505060405180910390f35b6107d7612337565b604051808273ffffffffffffffffffffffffffffffffffffffff1673ffffffffffffffffffffffffffffffffffffffff16815260200191505060405180910390f35b61085b6004803603602081101561082f57600080fd5b81019080803573ffffffffffffffffffffffffffffffffffffffff169060200190929190505050612360565b005b61089f6004803603602081101561087357600080fd5b81019080803573ffffffffffffffffffffffffffffffffffffffff1690602001909291905050506124c7565b005b61092b600480360360c08110156108b757600080fd5b81019080803573ffffffffffffffffffffffffffffffffffffffff169060200190929190803590602001909291908035906020019092919080359060200190929190803573ffffffffffffffffffffffffffffffffffffffff1690602001909291908035906020019092919050505061262e565b604051808381526020018281526020019250505060405180910390f35b61098a6004803603602081101561095e57600080fd5b81019080803573ffffffffffffffffffffffffffffffffffffffff169060200190929190505050612f59565b005b6109946130c0565b604051808273ffffffffffffffffffffffffffffffffffffffff1673ffffffffffffffffffffffffffffffffffffffff16815260200191505060405180910390f35b610a18600480360360208110156109ec57600080fd5b81019080803573ffffffffffffffffffffffffffffffffffffffff1690602001909291905050506130e6565b005b610aa660048036036080811015610a3057600080fd5b81019080803573ffffffffffffffffffffffffffffffffffffffff169060200190929190803573ffffffffffffffffffffffffffffffffffffffff16906020019092919080359060200190929190803573ffffffffffffffffffffffffffffffffffffffff1690602001909291905050506132f3565b604051808215151515815260200191505060405180910390f35b610ac861361e565b604051808273ffffffffffffffffffffffffffffffffffffffff1673ffffffffffffffffffffffffffffffffffffffff16815260200191505060405180910390f35b610b12613644565b73ffffffffffffffffffffffffffffffffffffffff166000809054906101000a900473ffffffffffffffffffffffffffffffffffffffff1673ffffffffffffffffffffffffffffffffffffffff1614610bd3576040517f08c379a00000000000000000000000000000000000000000000000000000000081526004018080602001828103825260208152602001807f4f776e61626c653a2063616c6c6572206973206e6f7420746865206f776e657281525060200191505060405180910390fd5b600073ffffffffffffffffffffffffffffffffffffffff16600160009054906101000a900473ffffffffffffffffffffffffffffffffffffffff1673ffffffffffffffffffffffffffffffffffffffff1614610c97576040517f08c379a000000000000000000000000000000000000000000000000000000000815260040180806020018281038252600f8152602001807f4552525f494e495449414c495a4544000000000000000000000000000000000081525060200191505060405180910390fd5b600073ffffffffffffffffffffffffffffffffffffffff16600260009054906101000a900473ffffffffffffffffffffffffffffffffffffffff1673ffffffffffffffffffffffffffffffffffffffff1614610d5b576040517f08c379a000000000000000000000000000000000000000000000000000000000815260040180806020018281038252600f8152602001807f4552525f494e495449414c495a4544000000000000000000000000000000000081525060200191505060405180910390fd5b600073ffffffffffffffffffffffffffffffffffffffff16600360009054906101000a900473ffffffffffffffffffffffffffffffffffffffff1673ffffffffffffffffffffffffffffffffffffffff1614610e1f576040517f08c379a000000000000000000000000000000000000000000000000000000000815260040180806020018281038252600f8152602001807f4552525f494e495449414c495a4544000000000000000000000000000000000081525060200191505060405180910390fd5b600073ffffffffffffffffffffffffffffffffffffffff16600460009054906101000a900473ffffffffffffffffffffffffffffffffffffffff1673ffffffffffffffffffffffffffffffffffffffff1614610ee3576040517f08c379a000000000000000000000000000000000000000000000000000000000815260040180806020018281038252600f8152602001807f4552525f494e495449414c495a4544000000000000000000000000000000000081525060200191505060405180910390fd5b600073ffffffffffffffffffffffffffffffffffffffff16600560009054906101000a900473ffffffffffffffffffffffffffffffffffffffff1673ffffffffffffffffffffffffffffffffffffffff1614610fa7576040517f08c379a000000000000000000000000000000000000000000000000000000000815260040180806020018281038252600f8152602001807f4552525f494e495449414c495a4544000000000000000000000000000000000081525060200191505060405180910390fd5b84600160006101000a81548173ffffffffffffffffffffffffffffffffffffffff021916908373ffffffffffffffffffffffffffffffffffffffff16021790555083600260006101000a81548173ffffffffffffffffffffffffffffffffffffffff021916908373ffffffffffffffffffffffffffffffffffffffff16021790555082600360006101000a81548173ffffffffffffffffffffffffffffffffffffffff021916908373ffffffffffffffffffffffffffffffffffffffff16021790555081600460006101000a81548173ffffffffffffffffffffffffffffffffffffffff021916908373ffffffffffffffffffffffffffffffffffffffff16021790555080600560006101000a81548173ffffffffffffffffffffffffffffffffffffffff021916908373ffffffffffffffffffffffffffffffffffffffff1602179055508073ffffffffffffffffffffffffffffffffffffffff163373ffffffffffffffffffffffffffffffffffffffff167f3cd5ec01b1ae7cfec6ca1863e2cd6aa25d6d1702825803ff2b7cc95010fffdc260405160405180910390a35050505050565b600360009054906101000a900473ffffffffffffffffffffffffffffffffffffffff1681565b61117b613644565b73ffffffffffffffffffffffffffffffffffffffff166000809054906101000a900473ffffffffffffffffffffffffffffffffffffffff1673ffffffffffffffffffffffffffffffffffffffff161461123c576040517f08c379a00000000000000000000000000000000000000000000000000000000081526004018080602001828103825260208152602001807f4f776e61626c653a2063616c6c6572206973206e6f7420746865206f776e657281525060200191505060405180910390fd5b80600560006101000a81548173ffffffffffffffffffffffffffffffffffffffff021916908373ffffffffffffffffffffffffffffffffffffffff1602179055508073ffffffffffffffffffffffffffffffffffffffff163373ffffffffffffffffffffffffffffffffffffffff167f3f7a60b945c1aed32875c6b9264e816ef33c2612c363413700437ceb940465f660405160405180910390a350565b600560009054906101000a900473ffffffffffffffffffffffffffffffffffffffff1681565b60008060006113108a8a3061364c565b9150915060006113658b848b8b8b80806020026020016040519081016040528093929190818152602001838360200280828437600081840152601f19601f820116905080830192505050505050508a8a61384c565b915050806113db576040517f08c379a000000000000000000000000000000000000000000000000000000000815260040180806020018281038252600f8152602001807f4552525f535741505f4641494c4544000000000000000000000000000000000081525060200191505060405180910390fd5b61148686838d73ffffffffffffffffffffffffffffffffffffffff16632f310bad6040518163ffffffff1660e01b815260040160206040518083038186803b15801561142657600080fd5b505afa15801561143a573d6000803e3d6000fd5b505050506040513d602081101561145057600080fd5b810190808051906020019092919050505073ffffffffffffffffffffffffffffffffffffffff16613bd69092919063ffffffff16565b809350505050979650505050505050565b600080600460009054906101000a900473ffffffffffffffffffffffffffffffffffffffff1673ffffffffffffffffffffffffffffffffffffffff1663b000e9ec88888888886040518663ffffffff1660e01b8152600401808673ffffffffffffffffffffffffffffffffffffffff1673ffffffffffffffffffffffffffffffffffffffff1681526020018573ffffffffffffffffffffffffffffffffffffffff1673ffffffffffffffffffffffffffffffffffffffff1681526020018481526020018381526020018281526020019550505050505060206040518083038186803b15801561158557600080fd5b505afa158015611599573d6000803e3d6000fd5b505050506040513d60208110156115af57600080fd5b81019080805190602001909291905050509050600073ffffffffffffffffffffffffffffffffffffffff168173ffffffffffffffffffffffffffffffffffffffff161415611665576040517f08c379a00000000000000000000000000000000000000000000000000000000081526004018080602001828103825260198152602001807f4552525f4f5054494f4e5f444f45535f4e4f545f45584953540000000000000081525060200191505060405180910390fd5b61166e81611932565b91505095945050505050565b611682613644565b73ffffffffffffffffffffffffffffffffffffffff166000809054906101000a900473ffffffffffffffffffffffffffffffffffffffff1673ffffffffffffffffffffffffffffffffffffffff1614611743576040517f08c379a00000000000000000000000000000000000000000000000000000000081526004018080602001828103825260208152602001807f4f776e61626c653a2063616c6c6572206973206e6f7420746865206f776e657281525060200191505060405180910390fd5b80600260006101000a81548173ffffffffffffffffffffffffffffffffffffffff021916908373ffffffffffffffffffffffffffffffffffffffff1602179055508073ffffffffffffffffffffffffffffffffffffffff163373ffffffffffffffffffffffffffffffffffffffff167f9c0370e46dbf7d0f80abe004a0f8167fe3191a10d95df3b80209e4c8fb60d9a660405160405180910390a350565b600080600260009054906101000a900473ffffffffffffffffffffffffffffffffffffffff1673ffffffffffffffffffffffffffffffffffffffff1663c9c6539684600560009054906101000a900473ffffffffffffffffffffffffffffffffffffffff166040518363ffffffff1660e01b8152600401808373ffffffffffffffffffffffffffffffffffffffff1673ffffffffffffffffffffffffffffffffffffffff1681526020018273ffffffffffffffffffffffffffffffffffffffff1673ffffffffffffffffffffffffffffffffffffffff16815260200192505050602060405180830381600087803b1580156118db57600080fd5b505af11580156118ef573d6000803e3d6000fd5b505050506040513d602081101561190557600080fd5b8101908080519060200190929190505050905080915050919050565b600080610384420190508091505090565b600080600260009054906101000a900473ffffffffffffffffffffffffffffffffffffffff1673ffffffffffffffffffffffffffffffffffffffff1663e6a4390584600560009054906101000a900473ffffffffffffffffffffffffffffffffffffffff166040518363ffffffff1660e01b8152600401808373ffffffffffffffffffffffffffffffffffffffff1673ffffffffffffffffffffffffffffffffffffffff1681526020018273ffffffffffffffffffffffffffffffffffffffff1673ffffffffffffffffffffffffffffffffffffffff1681526020019250505060206040518083038186803b158015611a2a57600080fd5b505afa158015611a3e573d6000803e3d6000fd5b505050506040513d6020811015611a5457600080fd5b81019080805190602001909291905050509050600073ffffffffffffffffffffffffffffffffffffffff168173ffffffffffffffffffffffffffffffffffffffff161415611b0a576040517f08c379a00000000000000000000000000000000000000000000000000000000081526004018080602001828103825260178152602001807f4552525f504149525f444f45535f4e4f545f455849535400000000000000000081525060200191505060405180910390fd5b80915050919050565b611b1b613644565b73ffffffffffffffffffffffffffffffffffffffff166000809054906101000a900473ffffffffffffffffffffffffffffffffffffffff1673ffffffffffffffffffffffffffffffffffffffff1614611bdc576040517f08c379a00000000000000000000000000000000000000000000000000000000081526004018080602001828103825260208152602001807f4f776e61626c653a2063616c6c6572206973206e6f7420746865206f776e657281525060200191505060405180910390fd5b600073ffffffffffffffffffffffffffffffffffffffff166000809054906101000a900473ffffffffffffffffffffffffffffffffffffffff1673ffffffffffffffffffffffffffffffffffffffff167f8be0079c531659141344cd1fd0a4f28419497f9722a3daafe3b4186f6b6457e060405160405180910390a360008060006101000a81548173ffffffffffffffffffffffffffffffffffffffff021916908373ffffffffffffffffffffffffffffffffffffffff160217905550565b600460009054906101000a900473ffffffffffffffffffffffffffffffffffffffff1681565b6000806000611cd48a898989898961262e565b915091506000611ce98a84848b8b8b8b611deb565b905080611d5e576040517f08c379a00000000000000000000000000000000000000000000000000000000081526004018080602001828103825260168152602001807f4552525f4144445f4c49515549444954595f4641494c0000000000000000000081525060200191505060405180910390fd5b8973ffffffffffffffffffffffffffffffffffffffff168b73ffffffffffffffffffffffffffffffffffffffff163373ffffffffffffffffffffffffffffffffffffffff167f79d79896c25e306b5784cadedcce16307107306aef13c53aeccb242eb86306248c6040518082815260200191505060405180910390a4809350505050979650505050505050565b60008060149054906101000a900460ff16611e6e576040517f08c379a000000000000000000000000000000000000000000000000000000000815260040180806020018281038252601f8152602001807f5265656e7472616e637947756172643a207265656e7472616e742063616c6c0081525060200191505060405180910390fd5b60008060146101000a81548160ff0219169083151502179055506000600160009054906101000a900473ffffffffffffffffffffffffffffffffffffffff1690506000600560009054906101000a900473ffffffffffffffffffffffffffffffffffffffff169050611f0333308a8473ffffffffffffffffffffffffffffffffffffffff16613c8e909392919063ffffffff16565b600080611f118c8c3061364c565b915091508b73ffffffffffffffffffffffffffffffffffffffff1663095ea7b3857fffffffffffffffffffffffffffffffffffffffffffffffffffffffffffffffff6040518363ffffffff1660e01b8152600401808373ffffffffffffffffffffffffffffffffffffffff1673ffffffffffffffffffffffffffffffffffffffff16815260200182815260200192505050602060405180830381600087803b158015611fbc57600080fd5b505af1158015611fd0573d6000803e3d6000fd5b505050506040513d6020811015611fe657600080fd5b8101908080519060200190929190505050508273ffffffffffffffffffffffffffffffffffffffff1663095ea7b3857fffffffffffffffffffffffffffffffffffffffffffffffffffffffffffffffff6040518363ffffffff1660e01b8152600401808373ffffffffffffffffffffffffffffffffffffffff1673ffffffffffffffffffffffffffffffffffffffff16815260200182815260200192505050602060405180830381600087803b15801561209f57600080fd5b505af11580156120b3573d6000803e3d6000fd5b505050506040513d60208110156120c957600080fd5b8101908080519060200190929190505050508373ffffffffffffffffffffffffffffffffffffffff1663e8e337008d600560009054906101000a900473ffffffffffffffffffffffffffffffffffffffff16858e8e8e8e8e6040518963ffffffff1660e01b8152600401808973ffffffffffffffffffffffffffffffffffffffff1673ffffffffffffffffffffffffffffffffffffffff1681526020018873ffffffffffffffffffffffffffffffffffffffff1673ffffffffffffffffffffffffffffffffffffffff1681526020018781526020018681526020018581526020018481526020018373ffffffffffffffffffffffffffffffffffffffff1673ffffffffffffffffffffffffffffffffffffffff16815260200182815260200198505050505050505050606060405180830381600087803b15801561220c57600080fd5b505af1158015612220573d6000803e3d6000fd5b505050506040513d606081101561223657600080fd5b8101908080519060200190929190805190602001909291908051906020019092919050505050505061230933828e73ffffffffffffffffffffffffffffffffffffffff16632f310bad6040518163ffffffff1660e01b815260040160206040518083038186803b1580156122a957600080fd5b505afa1580156122bd573d6000803e3d6000fd5b505050506040513d60208110156122d357600080fd5b810190808051906020019092919050505073ffffffffffffffffffffffffffffffffffffffff16613bd69092919063ffffffff16565b60019450505050506001600060146101000a81548160ff021916908315150217905550979650505050505050565b60008060009054906101000a900473ffffffffffffffffffffffffffffffffffffffff16905090565b612368613644565b73ffffffffffffffffffffffffffffffffffffffff166000809054906101000a900473ffffffffffffffffffffffffffffffffffffffff1673ffffffffffffffffffffffffffffffffffffffff1614612429576040517f08c379a00000000000000000000000000000000000000000000000000000000081526004018080602001828103825260208152602001807f4f776e61626c653a2063616c6c6572206973206e6f7420746865206f776e657281525060200191505060405180910390fd5b80600360006101000a81548173ffffffffffffffffffffffffffffffffffffffff021916908373ffffffffffffffffffffffffffffffffffffffff1602179055508073ffffffffffffffffffffffffffffffffffffffff163373ffffffffffffffffffffffffffffffffffffffff167f5f684f1de37d9513f098c2f015a75f0cadebf7c963234fb4ea02c61b7045534060405160405180910390a350565b6124cf613644565b73ffffffffffffffffffffffffffffffffffffffff166000809054906101000a900473ffffffffffffffffffffffffffffffffffffffff1673ffffffffffffffffffffffffffffffffffffffff1614612590576040517f08c379a00000000000000000000000000000000000000000000000000000000081526004018080602001828103825260208152602001807f4f776e61626c653a2063616c6c6572206973206e6f7420746865206f776e657281525060200191505060405180910390fd5b80600460006101000a81548173ffffffffffffffffffffffffffffffffffffffff021916908373ffffffffffffffffffffffffffffffffffffffff1602179055508073ffffffffffffffffffffffffffffffffffffffff163373ffffffffffffffffffffffffffffffffffffffff167f2fb227ead03d472af81e416891baee9a12e1175e2216d04e5392814d1eeef64460405160405180910390a350565b600080600060149054906101000a900460ff166126b3576040517f08c379a000000000000000000000000000000000000000000000000000000000815260040180806020018281038252601f8152602001807f5265656e7472616e637947756172643a207265656e7472616e742063616c6c0081525060200191505060405180910390fd5b60008060146101000a81548160ff0219169083151502179055506000600560009054906101000a900473ffffffffffffffffffffffffffffffffffffffff169050600089905060006127048b611932565b905061273333308c8473ffffffffffffffffffffffffffffffffffffffff16613c8e909392919063ffffffff16565b8073ffffffffffffffffffffffffffffffffffffffff1663095ea7b3600160009054906101000a900473ffffffffffffffffffffffffffffffffffffffff167fffffffffffffffffffffffffffffffffffffffffffffffffffffffffffffffff6040518363ffffffff1660e01b8152600401808373ffffffffffffffffffffffffffffffffffffffff1673ffffffffffffffffffffffffffffffffffffffff16815260200182815260200192505050602060405180830381600087803b1580156127fc57600080fd5b505af1158015612810573d6000803e3d6000fd5b505050506040513d602081101561282657600080fd5b81019080805190602001909291905050505050600080600160009054906101000a900473ffffffffffffffffffffffffffffffffffffffff1673ffffffffffffffffffffffffffffffffffffffff1663baa2abde8d868e8e8e308e6040518863ffffffff1660e01b8152600401808873ffffffffffffffffffffffffffffffffffffffff1673ffffffffffffffffffffffffffffffffffffffff1681526020018773ffffffffffffffffffffffffffffffffffffffff1673ffffffffffffffffffffffffffffffffffffffff1681526020018681526020018581526020018481526020018373ffffffffffffffffffffffffffffffffffffffff1673ffffffffffffffffffffffffffffffffffffffff1681526020018281526020019750505050505050506040805180830381600087803b15801561296457600080fd5b505af1158015612978573d6000803e3d6000fd5b505050506040513d604081101561298e57600080fd5b810190808051906020019092919080519060200190929190505050915091506000600360009054906101000a900473ffffffffffffffffffffffffffffffffffffffff1690508c73ffffffffffffffffffffffffffffffffffffffff1663095ea7b3827fffffffffffffffffffffffffffffffffffffffffffffffffffffffffffffffff6040518363ffffffff1660e01b8152600401808373ffffffffffffffffffffffffffffffffffffffff1673ffffffffffffffffffffffffffffffffffffffff16815260200182815260200192505050602060405180830381600087803b158015612a7b57600080fd5b505af1158015612a8f573d6000803e3d6000fd5b505050506040513d6020811015612aa557600080fd5b8101908080519060200190929190505050508373ffffffffffffffffffffffffffffffffffffffff16632f310bad6040518163ffffffff1660e01b815260040160206040518083038186803b158015612afd57600080fd5b505afa158015612b11573d6000803e3d6000fd5b505050506040513d6020811015612b2757600080fd5b810190808051906020019092919050505073ffffffffffffffffffffffffffffffffffffffff1663095ea7b3827fffffffffffffffffffffffffffffffffffffffffffffffffffffffffffffffff6040518363ffffffff1660e01b8152600401808373ffffffffffffffffffffffffffffffffffffffff1673ffffffffffffffffffffffffffffffffffffffff16815260200182815260200192505050602060405180830381600087803b158015612bde57600080fd5b505af1158015612bf2573d6000803e3d6000fd5b505050506040513d6020811015612c0857600080fd5b8101908080519060200190929190505050506000612d408573ffffffffffffffffffffffffffffffffffffffff1663b592a1386040518163ffffffff1660e01b815260040160206040518083038186803b158015612c6557600080fd5b505afa158015612c79573d6000803e3d6000fd5b505050506040513d6020811015612c8f57600080fd5b8101908080519060200190929190505050612d328773ffffffffffffffffffffffffffffffffffffffff1662fe19fa6040518163ffffffff1660e01b815260040160206040518083038186803b158015612ce857600080fd5b505afa158015612cfc573d6000803e3d6000fd5b505050506040513d6020811015612d1257600080fd5b810190808051906020019092919050505087613d7b90919063ffffffff16565b613e0190919063ffffffff16565b9050612def3330838873ffffffffffffffffffffffffffffffffffffffff16632f310bad6040518163ffffffff1660e01b815260040160206040518083038186803b158015612d8e57600080fd5b505afa158015612da2573d6000803e3d6000fd5b505050506040513d6020811015612db857600080fd5b810190808051906020019092919050505073ffffffffffffffffffffffffffffffffffffffff16613c8e909392919063ffffffff16565b508073ffffffffffffffffffffffffffffffffffffffff1663b8a6bb3b85858c6040518463ffffffff1660e01b8152600401808473ffffffffffffffffffffffffffffffffffffffff1673ffffffffffffffffffffffffffffffffffffffff1681526020018381526020018273ffffffffffffffffffffffffffffffffffffffff1673ffffffffffffffffffffffffffffffffffffffff1681526020019350505050606060405180830381600087803b158015612eab57600080fd5b505af1158015612ebf573d6000803e3d6000fd5b505050506040513d6060811015612ed557600080fd5b81019080805190602001909291908051906020019092919080519060200190929190505050505050612f2889838773ffffffffffffffffffffffffffffffffffffffff16613bd69092919063ffffffff16565b82829650965050505050506001600060146101000a81548160ff021916908315150217905550965096945050505050565b612f61613644565b73ffffffffffffffffffffffffffffffffffffffff166000809054906101000a900473ffffffffffffffffffffffffffffffffffffffff1673ffffffffffffffffffffffffffffffffffffffff1614613022576040517f08c379a00000000000000000000000000000000000000000000000000000000081526004018080602001828103825260208152602001807f4f776e61626c653a2063616c6c6572206973206e6f7420746865206f776e657281525060200191505060405180910390fd5b80600160006101000a81548173ffffffffffffffffffffffffffffffffffffffff021916908373ffffffffffffffffffffffffffffffffffffffff1602179055508073ffffffffffffffffffffffffffffffffffffffff163373ffffffffffffffffffffffffffffffffffffffff167fd1122c000cb7ee1f98b2a8c3d20b186b29f5719b23d1d791f331795286b9676160405160405180910390a350565b600260009054906101000a900473ffffffffffffffffffffffffffffffffffffffff1681565b6130ee613644565b73ffffffffffffffffffffffffffffffffffffffff166000809054906101000a900473ffffffffffffffffffffffffffffffffffffffff1673ffffffffffffffffffffffffffffffffffffffff16146131af576040517f08c379a00000000000000000000000000000000000000000000000000000000081526004018080602001828103825260208152602001807f4f776e61626c653a2063616c6c6572206973206e6f7420746865206f776e657281525060200191505060405180910390fd5b600073ffffffffffffffffffffffffffffffffffffffff168173ffffffffffffffffffffffffffffffffffffffff161415613235576040517f08c379a00000000000000000000000000000000000000000000000000000000081526004018080602001828103825260268152602001806147f06026913960400191505060405180910390fd5b8073ffffffffffffffffffffffffffffffffffffffff166000809054906101000a900473ffffffffffffffffffffffffffffffffffffffff1673ffffffffffffffffffffffffffffffffffffffff167f8be0079c531659141344cd1fd0a4f28419497f9722a3daafe3b4186f6b6457e060405160405180910390a3806000806101000a81548173ffffffffffffffffffffffffffffffffffffffff021916908373ffffffffffffffffffffffffffffffffffffffff16021790555050565b600080613301868530613e4b565b925050506000600360009054906101000a900473ffffffffffffffffffffffffffffffffffffffff1690508673ffffffffffffffffffffffffffffffffffffffff1663440f5fd26040518163ffffffff1660e01b815260040160206040518083038186803b15801561337257600080fd5b505afa158015613386573d6000803e3d6000fd5b505050506040513d602081101561339c57600080fd5b810190808051906020019092919050505073ffffffffffffffffffffffffffffffffffffffff1663095ea7b3827fffffffffffffffffffffffffffffffffffffffffffffffffffffffffffffffff6040518363ffffffff1660e01b8152600401808373ffffffffffffffffffffffffffffffffffffffff1673ffffffffffffffffffffffffffffffffffffffff16815260200182815260200192505050602060405180830381600087803b15801561345357600080fd5b505af1158015613467573d6000803e3d6000fd5b505050506040513d602081101561347d57600080fd5b81019080805190602001909291905050505060008173ffffffffffffffffffffffffffffffffffffffff166320e469d68885886040518463ffffffff1660e01b8152600401808473ffffffffffffffffffffffffffffffffffffffff1673ffffffffffffffffffffffffffffffffffffffff1681526020018381526020018273ffffffffffffffffffffffffffffffffffffffff1673ffffffffffffffffffffffffffffffffffffffff16815260200193505050506040805180830381600087803b15801561354b57600080fd5b505af115801561355f573d6000803e3d6000fd5b505050506040513d604081101561357557600080fd5b8101908080519060200190929190805190602001909291905050505090508673ffffffffffffffffffffffffffffffffffffffff168873ffffffffffffffffffffffffffffffffffffffff163373ffffffffffffffffffffffffffffffffffffffff167ff3ba593321fc56277d51dad4f0bef1650d7ec2e08229bebf53d499c96ec044f0846040518082815260200191505060405180910390a460019350505050949350505050565b600160009054906101000a900473ffffffffffffffffffffffffffffffffffffffff1681565b600033905090565b600080600084116136c5576040517f08c379a00000000000000000000000000000000000000000000000000000000081526004018080602001828103825260088152602001807f4552525f5a45524f00000000000000000000000000000000000000000000000081525060200191505060405180910390fd5b6137723386868873ffffffffffffffffffffffffffffffffffffffff1663440f5fd26040518163ffffffff1660e01b815260040160206040518083038186803b15801561371157600080fd5b505afa158015613725573d6000803e3d6000fd5b505050506040513d602081101561373b57600080fd5b810190808051906020019092919050505073ffffffffffffffffffffffffffffffffffffffff16613c8e909392919063ffffffff16565b6000808673ffffffffffffffffffffffffffffffffffffffff1663fa9ad7c4866040518263ffffffff1660e01b8152600401808273ffffffffffffffffffffffffffffffffffffffff1673ffffffffffffffffffffffffffffffffffffffff1681526020019150506040805180830381600087803b1580156137f357600080fd5b505af1158015613807573d6000803e3d6000fd5b505050506040513d604081101561381d57600080fd5b810190808051906020019092919080519060200190929190505050915091508181935093505050935093915050565b606060008773ffffffffffffffffffffffffffffffffffffffff168560008151811061387457fe5b602002602001015173ffffffffffffffffffffffffffffffffffffffff1614613905576040517f08c379a00000000000000000000000000000000000000000000000000000000081526004018080602001828103825260158152602001807f4552525f504154485f4f5054494f4e5f5354415254000000000000000000000081525060200191505060405180910390fd5b6000600160009054906101000a900473ffffffffffffffffffffffffffffffffffffffff1690508873ffffffffffffffffffffffffffffffffffffffff1663095ea7b3827fffffffffffffffffffffffffffffffffffffffffffffffffffffffffffffffff6040518363ffffffff1660e01b8152600401808373ffffffffffffffffffffffffffffffffffffffff1673ffffffffffffffffffffffffffffffffffffffff16815260200182815260200192505050602060405180830381600087803b1580156139d357600080fd5b505af11580156139e7573d6000803e3d6000fd5b505050506040513d60208110156139fd57600080fd5b8101908080519060200190929190505050508073ffffffffffffffffffffffffffffffffffffffff166338ed173989898989896040518663ffffffff1660e01b815260040180868152602001858152602001806020018473ffffffffffffffffffffffffffffffffffffffff1673ffffffffffffffffffffffffffffffffffffffff168152602001838152602001828103825285818151815260200191508051906020019060200280838360005b83811015613ac6578082015181840152602081019050613aab565b505050509050019650505050505050600060405180830381600087803b158015613aef57600080fd5b505af1158015613b03573d6000803e3d6000fd5b505050506040513d6000823e3d601f19601f820116820180604052506020811015613b2d57600080fd5b8101908080516040519392919084640100000000821115613b4d57600080fd5b83820191506020820185811115613b6357600080fd5b8251866020820283011164010000000082111715613b8057600080fd5b8083526020830192505050908051906020019060200280838360005b83811015613bb7578082015181840152602081019050613b9c565b5050505090500160405250505092506001915050965096945050505050565b613c898363a9059cbb60e01b8484604051602401808373ffffffffffffffffffffffffffffffffffffffff1673ffffffffffffffffffffffffffffffffffffffff16815260200182815260200192505050604051602081830303815290604052907bffffffffffffffffffffffffffffffffffffffffffffffffffffffff19166020820180517bffffffffffffffffffffffffffffffffffffffffffffffffffffffff8381831617835250505050614493565b505050565b613d75846323b872dd60e01b858585604051602401808473ffffffffffffffffffffffffffffffffffffffff1673ffffffffffffffffffffffffffffffffffffffff1681526020018373ffffffffffffffffffffffffffffffffffffffff1673ffffffffffffffffffffffffffffffffffffffff1681526020018281526020019350505050604051602081830303815290604052907bffffffffffffffffffffffffffffffffffffffffffffffffffffffff19166020820180517bffffffffffffffffffffffffffffffffffffffffffffffffffffffff8381831617835250505050614493565b50505050565b600080831415613d8e5760009050613dfb565b6000828402905082848281613d9f57fe5b0414613df6576040517f08c379a00000000000000000000000000000000000000000000000000000000081526004018080602001828103825260218152602001806148166021913960400191505060405180910390fd5b809150505b92915050565b6000613e4383836040518060400160405280601a81526020017f536166654d6174683a206469766973696f6e206279207a65726f0000000000008152506146de565b905092915050565b6000806000808511613ec5576040517f08c379a00000000000000000000000000000000000000000000000000000000081526004018080602001828103825260088152602001807f4552525f5a45524f00000000000000000000000000000000000000000000000081525060200191505060405180910390fd5b848673ffffffffffffffffffffffffffffffffffffffff166370a08231336040518263ffffffff1660e01b8152600401808273ffffffffffffffffffffffffffffffffffffffff1673ffffffffffffffffffffffffffffffffffffffff16815260200191505060206040518083038186803b158015613f4357600080fd5b505afa158015613f57573d6000803e3d6000fd5b505050506040513d6020811015613f6d57600080fd5b81019080805190602001909291905050501015613ff2576040517f08c379a000000000000000000000000000000000000000000000000000000000815260040180806020018281038252600f8152602001807f4552525f42414c5f4f5054494f4e53000000000000000000000000000000000081525060200191505060405180910390fd5b60006141188773ffffffffffffffffffffffffffffffffffffffff1663b592a1386040518163ffffffff1660e01b815260040160206040518083038186803b15801561403d57600080fd5b505afa158015614051573d6000803e3d6000fd5b505050506040513d602081101561406757600080fd5b810190808051906020019092919050505061410a8973ffffffffffffffffffffffffffffffffffffffff1662fe19fa6040518163ffffffff1660e01b815260040160206040518083038186803b1580156140c057600080fd5b505afa1580156140d4573d6000803e3d6000fd5b505050506040513d60208110156140ea57600080fd5b810190808051906020019092919050505089613d7b90919063ffffffff16565b613e0190919063ffffffff16565b9050808773ffffffffffffffffffffffffffffffffffffffff16632f310bad6040518163ffffffff1660e01b815260040160206040518083038186803b15801561416157600080fd5b505afa158015614175573d6000803e3d6000fd5b505050506040513d602081101561418b57600080fd5b810190808051906020019092919050505073ffffffffffffffffffffffffffffffffffffffff166370a08231336040518263ffffffff1660e01b8152600401808273ffffffffffffffffffffffffffffffffffffffff1673ffffffffffffffffffffffffffffffffffffffff16815260200191505060206040518083038186803b15801561421857600080fd5b505afa15801561422c573d6000803e3d6000fd5b505050506040513d602081101561424257600080fd5b810190808051906020019092919050505010156142c7576040517f08c379a000000000000000000000000000000000000000000000000000000000815260040180806020018281038252600e8152602001807f4552525f42414c5f52454445454d00000000000000000000000000000000000081525060200191505060405180910390fd5b6143743388838a73ffffffffffffffffffffffffffffffffffffffff16632f310bad6040518163ffffffff1660e01b815260040160206040518083038186803b15801561431357600080fd5b505afa158015614327573d6000803e3d6000fd5b505050506040513d602081101561433d57600080fd5b810190808051906020019092919050505073ffffffffffffffffffffffffffffffffffffffff16613c8e909392919063ffffffff16565b6143a13388888a73ffffffffffffffffffffffffffffffffffffffff16613c8e909392919063ffffffff16565b6000808873ffffffffffffffffffffffffffffffffffffffff166383499805886040518263ffffffff1660e01b8152600401808273ffffffffffffffffffffffffffffffffffffffff1673ffffffffffffffffffffffffffffffffffffffff168152602001915050606060405180830381600087803b15801561442357600080fd5b505af1158015614437573d6000803e3d6000fd5b505050506040513d606081101561444d57600080fd5b8101908080519060200190929190805190602001909291908051906020019092919050505080935081945082955050505082828295509550955050505093509350939050565b6144b28273ffffffffffffffffffffffffffffffffffffffff166147a4565b614524576040517f08c379a000000000000000000000000000000000000000000000000000000000815260040180806020018281038252601f8152602001807f5361666545524332303a2063616c6c20746f206e6f6e2d636f6e74726163740081525060200191505060405180910390fd5b600060608373ffffffffffffffffffffffffffffffffffffffff16836040518082805190602001908083835b602083106145735780518252602082019150602081019050602083039250614550565b6001836020036101000a0380198251168184511680821785525050505050509050019150506000604051808303816000865af19150503d80600081146145d5576040519150601f19603f3d011682016040523d82523d6000602084013e6145da565b606091505b509150915081614652576040517f08c379a00000000000000000000000000000000000000000000000000000000081526004018080602001828103825260208152602001807f5361666545524332303a206c6f772d6c6576656c2063616c6c206661696c656481525060200191505060405180910390fd5b6000815111156146d85780806020019051602081101561467157600080fd5b81019080805190602001909291905050506146d7576040517f08c379a000000000000000000000000000000000000000000000000000000000815260040180806020018281038252602a815260200180614837602a913960400191505060405180910390fd5b5b50505050565b6000808311829061478a576040517f08c379a00000000000000000000000000000000000000000000000000000000081526004018080602001828103825283818151815260200191508051906020019080838360005b8381101561474f578082015181840152602081019050614734565b50505050905090810190601f16801561477c5780820380516001836020036101000a031916815260200191505b509250505060405180910390fd5b50600083858161479657fe5b049050809150509392505050565b60008060007fc5d2460186f7233c927e7db2dcc703c0e500b653ca82273b7bfad8045d85a47060001b9050833f91508082141580156147e657506000801b8214155b9250505091905056fe4f776e61626c653a206e6577206f776e657220697320746865207a65726f2061646472657373536166654d6174683a206d756c7469706c69636174696f6e206f766572666c6f775361666545524332303a204552433230206f7065726174696f6e20646964206e6f742073756363656564a26469706673582212206a02d8925e0d15fbbdc88e403bfbf23469009b1d75d38009b0fb6b108535ae4f64736f6c63430006020033",
  "devdoc": {
    "methods": {
      "addLiquidityWithUnderlying(address,uint256,uint256,uint256,uint256,address,uint256)": {
        "details": "Adds liquidity to an option<>quote token pair by minting optionTokens with underlyingTokens.",
        "params": {
          "deadline": "The timestamp to expire a pending transaction.",
          "minQuantityOptions": "The minimum quantity of optionTokens expected to provide liquidity with.",
          "minQuantityQuoteTokens": "The minimum quantity of quoteTokens expected to provide liquidity with.",
          "optionAddress": "The address of the optionToken to mint then provide liquidity for.",
          "quantityOptions": "The quantity of underlyingTokens to use to mint optionTokens.",
          "quantityQuoteTokens": "The quantity of quoteTokens to add with optionTokens to the Uniswap V2 Pair.",
          "to": "The address that receives UNI-V2 shares."
        }
      },
      "deployUniswapMarket(address)": {
        "details": "Creats a Uniswap pair for option<>quote tokens.",
        "params": {
          "optionAddress": "The address of the option to deploy a Uniswap V2 Pair for with the quoteToken."
        }
      },
      "getMaxDeadline()": {
        "details": "The maxmium deadline available for each trade."
      },
      "getUniswapMarketForOption(address)": {
        "details": "Gets a Uniswap Pair address for an option token and quote token.",
        "params": {
          "optionAddress": "The address of the option to get a Uniswap V2 Pair address for (with quoteToken)."
        }
      },
      "getUniswapMarketForSeries(address,address,uint256,uint256,uint256)": {
        "details": "Gets a Uniswap Pair address for the corresponding option parameters."
      },
      "mintOptionsThenSwapToTokens(address,uint256,uint256,address[],address,uint256)": {
        "details": "Mints options using underlyingTokens provided by user, then swaps on Uniswap V2. Combines Primitive \"mintOptions\" function with Uniswap V2 Router \"swapExactTokensForTokens\" function.",
        "params": {
          "amountIn": "The quantity of options to mint and then sell.",
          "amountOutMin": "The minimum quantity of tokens to receive in exchange for the optionTokens.",
          "deadline": "The timestamp for a trade to fail at if not successful.",
          "optionToken": "The address of the Oracle-less Primitive option.",
          "path": "The token addresses to trade through using their Uniswap V2 pools. Assumes path[0] = option.",
          "to": "The address to send the optionToken proceeds and redeem tokens to."
        },
        "returns": {
          "_0": "bool Whether the transaction was successful or not."
        }
      },
      "owner()": {
        "details": "Returns the address of the current owner."
      },
      "removeLiquidityThenCloseOptions(address,uint256,uint256,uint256,address,uint256)": {
        "details": "Combines Uniswap V2 Router \"removeLiquidity\" function with Primitive \"closeOptions\" function.",
        "params": {
          "amountAMin": "The minimum quantity of optionTokens to receive from removing liquidity.",
          "amountBMin": "The minimum quantity of quoteTokens to receive from removing liquidity.",
          "deadline": "The timestamp to expire a pending transaction.",
          "liquidity": "The quantity of liquidity tokens to pull from msg.sender and burn.",
          "optionAddress": "The address of the option that will be closed from burned UNI-V2 liquidity shares.",
          "to": "The address that receives quoteTokens from burned UNI-V2, and underlyingTokens from closed options."
        }
      },
      "renounceOwnership()": {
        "details": "Leaves the contract without owner. It will not be possible to call `onlyOwner` functions anymore. Can only be called by the current owner.     * NOTE: Renouncing ownership will leave the contract without an owner, thereby removing any functionality that is only available to the owner."
      },
      "rollOption(address,address,uint256,address)": {
        "details": "Closes an option position and opens a new one using the freed underlyingTokens.",
        "params": {
          "receiver": "The address that receives newly minted option and redeem tokens.",
          "rollFromOption": "The optionToken to close.",
          "rollQuantity": "The quantity of underlyingTokens to receive from closed options then use to mint new options.",
          "rollToOption": "The optionToken to mint."
        }
      },
      "rollOptionLiquidity(address,address,uint256,uint256,uint256,address,uint256)": {
        "details": "Combines \"removeLiquidityThenCloseOptions\" function with \"addLiquidityWithUnderlying\" fuction.",
        "params": {
          "amountAMin": "The minimum quantity of optionTokens to receive from removing liquidity.",
          "amountBMin": "The minimum quantity of quoteTokens to receive from removing liquidity.",
          "deadline": "The timestamp to expire a pending transaction.",
          "liquidity": "The quantity of UNI-V2 shares to roll from the first Uniswap pool.",
          "rollFromOption": "The optionToken address to close a UNI-V2 position.",
          "rollToOption": "The optionToken address to open a UNI-V2 position.",
          "to": "The address that receives the UNI-V2 shares that have been rolled."
        }
      },
      "setFactory(address)": {
        "details": "Sets the Uniswap V2 Factory address to use."
      },
      "setQuoteToken(address)": {
        "details": "Sets the designated stablecoin to use (paired token in Uniswap pools)."
      },
      "setRegistry(address)": {
        "details": "Sets the Primitive V1 Registry address to use."
      },
      "setRouter(address)": {
        "details": "Sets the Uniswap V2 Router address to use."
      },
      "setTrader(address)": {
        "details": "Sets the Primitive V1 Trader address to use."
      },
      "transferOwnership(address)": {
        "details": "Transfers ownership of the contract to a new account (`newOwner`). Can only be called by the current owner."
      }
    }
  },
  "userdoc": {
    "methods": {
      "addLiquidityWithUnderlying(address,uint256,uint256,uint256,uint256,address,uint256)": {
        "notice": "Pulls underlying tokens from msg.sender and pushes UNI-V2 liquidity tokens to the \"to\" address. underlyingToken -> optionToken -> UNI-V2."
      },
      "mintOptionsThenSwapToTokens(address,uint256,uint256,address[],address,uint256)": {
        "notice": "If the first address in the path is not the optionToken address, the tx will fail. underlyingToken -> optionToken -> quoteToken."
      },
      "removeLiquidityThenCloseOptions(address,uint256,uint256,uint256,address,uint256)": {
        "notice": "Pulls UNI-V2 liquidity shares with option<>quote token and redeemToken from msg.sender. Then closes the optionTokens and withdraws underlyingTokens to the \"to\" address. Sends quoteTokens from the burned UNI-V2 liquidity shares to the \"to\" address. UNI-V2 -> optionToken -> underlyingToken."
      },
      "rollOption(address,address,uint256,address)": {
        "notice": "Pulls option and redeem tokens from msg.sender, then sends minted option + redeems to receiver. rollFromOption -> underlyingToken -> rollToOption."
      },
      "rollOptionLiquidity(address,address,uint256,uint256,uint256,address,uint256)": {
        "notice": "Rolls UNI-V2 liquidity in an option<>quote pair to a different option<>quote pair. UNI-V2 -> rollFromOption -> underlyingToken -> rollToOption -> UNI-V2."
      }
    }
  },
  "storageLayout": {
    "storage": [
      {
        "astId": 33,
        "contract": "contracts/connectors/Uniswap/UniswapConnector.sol:UniswapConnector",
        "label": "_owner",
        "offset": 0,
        "slot": "0",
        "type": "t_address"
      },
      {
        "astId": 1351,
        "contract": "contracts/connectors/Uniswap/UniswapConnector.sol:UniswapConnector",
        "label": "_notEntered",
        "offset": 20,
        "slot": "0",
        "type": "t_bool"
      },
      {
        "astId": 1877,
        "contract": "contracts/connectors/Uniswap/UniswapConnector.sol:UniswapConnector",
        "label": "router",
        "offset": 0,
        "slot": "1",
        "type": "t_contract(IUniswapV2Router02)1836"
      },
      {
        "astId": 1879,
        "contract": "contracts/connectors/Uniswap/UniswapConnector.sol:UniswapConnector",
        "label": "factory",
        "offset": 0,
        "slot": "2",
        "type": "t_contract(IUniswapV2Factory)1440"
      },
      {
        "astId": 1881,
        "contract": "contracts/connectors/Uniswap/UniswapConnector.sol:UniswapConnector",
        "label": "trader",
        "offset": 0,
        "slot": "3",
        "type": "t_contract(ITrader)5317"
      },
      {
        "astId": 1883,
        "contract": "contracts/connectors/Uniswap/UniswapConnector.sol:UniswapConnector",
        "label": "registry",
        "offset": 0,
        "slot": "4",
        "type": "t_contract(IRegistry)5245"
      },
      {
        "astId": 1885,
        "contract": "contracts/connectors/Uniswap/UniswapConnector.sol:UniswapConnector",
        "label": "quoteToken",
        "offset": 0,
        "slot": "5",
        "type": "t_address"
      }
    ],
    "types": {
      "t_address": {
        "encoding": "inplace",
        "label": "address",
        "numberOfBytes": "20"
      },
      "t_bool": {
        "encoding": "inplace",
        "label": "bool",
        "numberOfBytes": "1"
      },
      "t_contract(IRegistry)5245": {
        "encoding": "inplace",
        "label": "contract IRegistry",
        "numberOfBytes": "20"
      },
      "t_contract(ITrader)5317": {
        "encoding": "inplace",
        "label": "contract ITrader",
        "numberOfBytes": "20"
      },
      "t_contract(IUniswapV2Factory)1440": {
        "encoding": "inplace",
        "label": "contract IUniswapV2Factory",
        "numberOfBytes": "20"
      },
      "t_contract(IUniswapV2Router02)1836": {
        "encoding": "inplace",
        "label": "contract IUniswapV2Router02",
        "numberOfBytes": "20"
      }
    }
  },
  "gasEstimates": {
    "creation": {
      "codeDepositCost": "3716400",
      "executionCost": "infinite",
      "totalCost": "infinite"
    },
    "external": {
      "addLiquidityWithUnderlying(address,uint256,uint256,uint256,uint256,address,uint256)": "infinite",
      "deployUniswapMarket(address)": "infinite",
      "factory()": "1119",
      "getMaxDeadline()": "320",
      "getUniswapMarketForOption(address)": "infinite",
      "getUniswapMarketForSeries(address,address,uint256,uint256,uint256)": "infinite",
      "initialize(address,address,address,address,address)": "111537",
      "mintOptionsThenSwapToTokens(address,uint256,uint256,address[],address,uint256)": "infinite",
      "owner()": "1150",
      "quoteToken()": "1143",
      "registry()": "1076",
      "removeLiquidityThenCloseOptions(address,uint256,uint256,uint256,address,uint256)": "infinite",
      "renounceOwnership()": "24430",
      "rollOption(address,address,uint256,address)": "infinite",
      "rollOptionLiquidity(address,address,uint256,uint256,uint256,address,uint256)": "infinite",
      "router()": "1185",
      "setFactory(address)": "23595",
      "setQuoteToken(address)": "23618",
      "setRegistry(address)": "23683",
      "setRouter(address)": "23594",
      "setTrader(address)": "23661",
      "trader()": "1099",
      "transferOwnership(address)": "infinite"
    },
    "internal": {
      "_swapExactOptionsForTokens(address,uint256,uint256,address[] memory,address,uint256)": "infinite"
    }
  }
}