{
  "abi": [
    {
      "inputs": [],
      "stateMutability": "nonpayable",
      "type": "constructor"
    },
    {
      "anonymous": false,
      "inputs": [
        {
          "indexed": true,
          "internalType": "address",
          "name": "from",
          "type": "address"
        },
        {
          "indexed": true,
          "internalType": "address",
          "name": "quoteToken",
          "type": "address"
        }
      ],
      "name": "Initialized",
      "type": "event"
    },
    {
      "anonymous": false,
      "inputs": [
        {
          "indexed": true,
          "internalType": "address",
          "name": "previousOwner",
          "type": "address"
        },
        {
          "indexed": true,
          "internalType": "address",
          "name": "newOwner",
          "type": "address"
        }
      ],
      "name": "OwnershipTransferred",
      "type": "event"
    },
    {
      "anonymous": false,
      "inputs": [
        {
          "indexed": true,
          "internalType": "address",
          "name": "from",
          "type": "address"
        },
        {
          "indexed": true,
          "internalType": "address",
          "name": "optionMarketFrom",
          "type": "address"
        },
        {
          "indexed": true,
          "internalType": "address",
          "name": "optionMarketTo",
          "type": "address"
        },
        {
          "indexed": false,
          "internalType": "uint256",
          "name": "liquidity",
          "type": "uint256"
        }
      ],
      "name": "RolledOptionLiquidity",
      "type": "event"
    },
    {
      "anonymous": false,
      "inputs": [
        {
          "indexed": true,
          "internalType": "address",
          "name": "from",
          "type": "address"
        },
        {
          "indexed": true,
          "internalType": "address",
          "name": "optionFrom",
          "type": "address"
        },
        {
          "indexed": true,
          "internalType": "address",
          "name": "optionTo",
          "type": "address"
        },
        {
          "indexed": false,
          "internalType": "uint256",
          "name": "quantity",
          "type": "uint256"
        }
      ],
      "name": "RolledOptions",
      "type": "event"
    },
    {
      "anonymous": false,
      "inputs": [
        {
          "indexed": true,
          "internalType": "address",
          "name": "from",
          "type": "address"
        },
        {
          "indexed": true,
          "internalType": "address",
          "name": "newFactory",
          "type": "address"
        }
      ],
      "name": "UpdatedFactory",
      "type": "event"
    },
    {
      "anonymous": false,
      "inputs": [
        {
          "indexed": true,
          "internalType": "address",
          "name": "from",
          "type": "address"
        },
        {
          "indexed": true,
          "internalType": "address",
          "name": "newQuote",
          "type": "address"
        }
      ],
      "name": "UpdatedQuoteToken",
      "type": "event"
    },
    {
      "anonymous": false,
      "inputs": [
        {
          "indexed": true,
          "internalType": "address",
          "name": "from",
          "type": "address"
        },
        {
          "indexed": true,
          "internalType": "address",
          "name": "newRegistry",
          "type": "address"
        }
      ],
      "name": "UpdatedRegistry",
      "type": "event"
    },
    {
      "anonymous": false,
      "inputs": [
        {
          "indexed": true,
          "internalType": "address",
          "name": "from",
          "type": "address"
        },
        {
          "indexed": true,
          "internalType": "address",
          "name": "newRouter",
          "type": "address"
        }
      ],
      "name": "UpdatedRouter",
      "type": "event"
    },
    {
      "anonymous": false,
      "inputs": [
        {
          "indexed": true,
          "internalType": "address",
          "name": "from",
          "type": "address"
        },
        {
          "indexed": true,
          "internalType": "address",
          "name": "newTrader",
          "type": "address"
        }
      ],
      "name": "UpdatedTrader",
      "type": "event"
    },
    {
      "inputs": [
        {
          "internalType": "address",
          "name": "optionAddress",
          "type": "address"
        },
        {
          "internalType": "uint256",
          "name": "quantityOptions",
          "type": "uint256"
        },
        {
          "internalType": "uint256",
          "name": "quantityQuoteTokens",
          "type": "uint256"
        },
        {
          "internalType": "uint256",
          "name": "minQuantityOptions",
          "type": "uint256"
        },
        {
          "internalType": "uint256",
          "name": "minQuantityQuoteTokens",
          "type": "uint256"
        },
        {
          "internalType": "address",
          "name": "to",
          "type": "address"
        },
        {
          "internalType": "uint256",
          "name": "deadline",
          "type": "uint256"
        }
      ],
      "name": "addLiquidityWithUnderlying",
      "outputs": [
        {
          "internalType": "bool",
          "name": "",
          "type": "bool"
        }
      ],
      "stateMutability": "nonpayable",
      "type": "function"
    },
    {
      "inputs": [
        {
          "internalType": "address",
          "name": "optionAddress",
          "type": "address"
        }
      ],
      "name": "deployUniswapMarket",
      "outputs": [
        {
          "internalType": "address",
          "name": "",
          "type": "address"
        }
      ],
      "stateMutability": "nonpayable",
      "type": "function"
    },
    {
      "inputs": [],
      "name": "factory",
      "outputs": [
        {
          "internalType": "contract IUniswapV2Factory",
          "name": "",
          "type": "address"
        }
      ],
      "stateMutability": "view",
      "type": "function"
    },
    {
      "inputs": [],
      "name": "getMaxDeadline",
      "outputs": [
        {
          "internalType": "uint256",
          "name": "",
          "type": "uint256"
        }
      ],
      "stateMutability": "view",
      "type": "function"
    },
    {
      "inputs": [
        {
          "internalType": "address",
          "name": "optionAddress",
          "type": "address"
        }
      ],
      "name": "getUniswapMarketForOption",
      "outputs": [
        {
          "internalType": "address",
          "name": "",
          "type": "address"
        }
      ],
      "stateMutability": "view",
      "type": "function"
    },
    {
      "inputs": [
        {
          "internalType": "address",
          "name": "underlyingToken",
          "type": "address"
        },
        {
          "internalType": "address",
          "name": "strikeToken",
          "type": "address"
        },
        {
          "internalType": "uint256",
          "name": "base",
          "type": "uint256"
        },
        {
          "internalType": "uint256",
          "name": "quote",
          "type": "uint256"
        },
        {
          "internalType": "uint256",
          "name": "expiry",
          "type": "uint256"
        }
      ],
      "name": "getUniswapMarketForSeries",
      "outputs": [
        {
          "internalType": "address",
          "name": "",
          "type": "address"
        }
      ],
      "stateMutability": "view",
      "type": "function"
    },
    {
      "inputs": [
        {
          "internalType": "address",
          "name": "router_",
          "type": "address"
        },
        {
          "internalType": "address",
          "name": "factory_",
          "type": "address"
        },
        {
          "internalType": "address",
          "name": "trader_",
          "type": "address"
        },
        {
          "internalType": "address",
          "name": "registry_",
          "type": "address"
        },
        {
          "internalType": "address",
          "name": "quoteToken_",
          "type": "address"
        }
      ],
      "name": "initialize",
      "outputs": [],
      "stateMutability": "nonpayable",
      "type": "function"
    },
    {
      "inputs": [
        {
          "internalType": "contract IOption",
          "name": "optionToken",
          "type": "address"
        },
        {
          "internalType": "uint256",
          "name": "amountIn",
          "type": "uint256"
        },
        {
          "internalType": "uint256",
          "name": "amountOutMin",
          "type": "uint256"
        },
        {
          "internalType": "address[]",
          "name": "path",
          "type": "address[]"
        },
        {
          "internalType": "address",
          "name": "to",
          "type": "address"
        },
        {
          "internalType": "uint256",
          "name": "deadline",
          "type": "uint256"
        }
      ],
      "name": "mintOptionsThenSwapToTokens",
      "outputs": [
        {
          "internalType": "bool",
          "name": "",
          "type": "bool"
        }
      ],
      "stateMutability": "nonpayable",
      "type": "function"
    },
    {
      "inputs": [],
      "name": "owner",
      "outputs": [
        {
          "internalType": "address",
          "name": "",
          "type": "address"
        }
      ],
      "stateMutability": "view",
      "type": "function"
    },
    {
      "inputs": [],
      "name": "quoteToken",
      "outputs": [
        {
          "internalType": "address",
          "name": "",
          "type": "address"
        }
      ],
      "stateMutability": "view",
      "type": "function"
    },
    {
      "inputs": [],
      "name": "registry",
      "outputs": [
        {
          "internalType": "contract IRegistry",
          "name": "",
          "type": "address"
        }
      ],
      "stateMutability": "view",
      "type": "function"
    },
    {
      "inputs": [
        {
          "internalType": "address",
          "name": "optionAddress",
          "type": "address"
        },
        {
          "internalType": "uint256",
          "name": "liquidity",
          "type": "uint256"
        },
        {
          "internalType": "uint256",
          "name": "amountAMin",
          "type": "uint256"
        },
        {
          "internalType": "uint256",
          "name": "amountBMin",
          "type": "uint256"
        },
        {
          "internalType": "address",
          "name": "to",
          "type": "address"
        },
        {
          "internalType": "uint256",
          "name": "deadline",
          "type": "uint256"
        }
      ],
      "name": "removeLiquidityThenCloseOptions",
      "outputs": [
        {
          "internalType": "uint256",
          "name": "",
          "type": "uint256"
        },
        {
          "internalType": "uint256",
          "name": "",
          "type": "uint256"
        }
      ],
      "stateMutability": "nonpayable",
      "type": "function"
    },
    {
      "inputs": [],
      "name": "renounceOwnership",
      "outputs": [],
      "stateMutability": "nonpayable",
      "type": "function"
    },
    {
      "inputs": [
        {
          "internalType": "address",
          "name": "rollFromOption",
          "type": "address"
        },
        {
          "internalType": "address",
          "name": "rollToOption",
          "type": "address"
        },
        {
          "internalType": "uint256",
          "name": "rollQuantity",
          "type": "uint256"
        },
        {
          "internalType": "address",
          "name": "receiver",
          "type": "address"
        }
      ],
      "name": "rollOption",
      "outputs": [
        {
          "internalType": "bool",
          "name": "",
          "type": "bool"
        }
      ],
      "stateMutability": "nonpayable",
      "type": "function"
    },
    {
      "inputs": [
        {
          "internalType": "address",
          "name": "rollFromOption",
          "type": "address"
        },
        {
          "internalType": "address",
          "name": "rollToOption",
          "type": "address"
        },
        {
          "internalType": "uint256",
          "name": "liquidity",
          "type": "uint256"
        },
        {
          "internalType": "uint256",
          "name": "amountAMin",
          "type": "uint256"
        },
        {
          "internalType": "uint256",
          "name": "amountBMin",
          "type": "uint256"
        },
        {
          "internalType": "address",
          "name": "to",
          "type": "address"
        },
        {
          "internalType": "uint256",
          "name": "deadline",
          "type": "uint256"
        }
      ],
      "name": "rollOptionLiquidity",
      "outputs": [
        {
          "internalType": "bool",
          "name": "",
          "type": "bool"
        }
      ],
      "stateMutability": "nonpayable",
      "type": "function"
    },
    {
      "inputs": [],
      "name": "router",
      "outputs": [
        {
          "internalType": "contract IUniswapV2Router02",
          "name": "",
          "type": "address"
        }
      ],
      "stateMutability": "view",
      "type": "function"
    },
    {
      "inputs": [
        {
          "internalType": "address",
          "name": "factory_",
          "type": "address"
        }
      ],
      "name": "setFactory",
      "outputs": [],
      "stateMutability": "nonpayable",
      "type": "function"
    },
    {
      "inputs": [
        {
          "internalType": "address",
          "name": "quoteToken_",
          "type": "address"
        }
      ],
      "name": "setQuoteToken",
      "outputs": [],
      "stateMutability": "nonpayable",
      "type": "function"
    },
    {
      "inputs": [
        {
          "internalType": "address",
          "name": "registry_",
          "type": "address"
        }
      ],
      "name": "setRegistry",
      "outputs": [],
      "stateMutability": "nonpayable",
      "type": "function"
    },
    {
      "inputs": [
        {
          "internalType": "address",
          "name": "router_",
          "type": "address"
        }
      ],
      "name": "setRouter",
      "outputs": [],
      "stateMutability": "nonpayable",
      "type": "function"
    },
    {
      "inputs": [
        {
          "internalType": "address",
          "name": "trader_",
          "type": "address"
        }
      ],
      "name": "setTrader",
      "outputs": [],
      "stateMutability": "nonpayable",
      "type": "function"
    },
    {
      "inputs": [],
      "name": "trader",
      "outputs": [
        {
          "internalType": "contract ITrader",
          "name": "",
          "type": "address"
        }
      ],
      "stateMutability": "view",
      "type": "function"
    },
    {
      "inputs": [
        {
          "internalType": "address",
          "name": "newOwner",
          "type": "address"
        }
      ],
      "name": "transferOwnership",
      "outputs": [],
      "stateMutability": "nonpayable",
      "type": "function"
    }
  ],
  "address": "0xEcc0a6dbC0bb4D51E4F84A315a9e5B0438cAD4f0",
  "args": [],
  "solcInputHash": "0x38a2aef6671f9f6dea671cc9533fec9de83e5793e7f0811d6baeae7a9bed1ab6",
  "bytecode": "0x608060405234801561001057600080fd5b5060006100246001600160e01b0361008616565b600080546001600160a01b0319166001600160a01b0383169081178255604051929350917f8be0079c531659141344cd1fd0a4f28419497f9722a3daafe3b4186f6b6457e0908290a3506000805460ff60a01b1916600160a01b17905561008a565b3390565b612873806100996000396000f3fe608060405234801561001057600080fd5b506004361061014d5760003560e01c80637b103999116100c3578063acc794381161007c578063acc794381461046d578063c0d78655146104cc578063c45a0155146104f2578063f2fde38b146104fa578063f441e35014610520578063f887ea401461055c5761014d565b80637b103999146103735780638ac323291461037b5780638d2a1cf1146103cb5780638da5cb5b14610419578063a6bc18f914610421578063a91ee0dc146104475761014d565b806351b8498f1161011557806351b8498f1461029d5780635bb47808146102df5780636af255d7146103055780636bd64c3a1461032b5780636d4542bd14610345578063715018a61461036b5761014d565b80631459457a146101525780631758078b1461019c5780631cfb886d146101c0578063217a4b70146101e65780632ea4fbb4146101ee575b600080fd5b61019a600480360360a081101561016857600080fd5b506001600160a01b03813581169160208101358216916040820135811691606081013582169160809091013516610564565b005b6101a46107d3565b604080516001600160a01b039092168252519081900360200190f35b61019a600480360360208110156101d657600080fd5b50356001600160a01b03166107e2565b6101a4610886565b610289600480360360c081101561020457600080fd5b6001600160a01b03823516916020810135916040820135919081019060808101606082013564010000000081111561023b57600080fd5b82018360208201111561024d57600080fd5b8035906020019184602083028401116401000000008311171561026f57600080fd5b91935091506001600160a01b038135169060200135610895565b604080519115158252519081900360200190f35b6101a4600480360360a08110156102b357600080fd5b506001600160a01b038135811691602081013590911690604081013590606081013590608001356109c3565b61019a600480360360208110156102f557600080fd5b50356001600160a01b0316610acf565b6101a46004803603602081101561031b57600080fd5b50356001600160a01b0316610b73565b610333610c01565b60408051918252519081900360200190f35b6101a46004803603602081101561035b57600080fd5b50356001600160a01b0316610c09565b61019a610cf2565b6101a4610d94565b610289600480360360e081101561039157600080fd5b506001600160a01b038135811691602081013582169160408201359160608101359160808201359160a08101359091169060c00135610da3565b610289600480360360e08110156103e157600080fd5b506001600160a01b03813581169160208101359160408201359160608101359160808201359160a08101359091169060c00135610e7b565b6101a4611164565b61019a6004803603602081101561043757600080fd5b50356001600160a01b0316611173565b61019a6004803603602081101561045d57600080fd5b50356001600160a01b0316611217565b6104b3600480360360c081101561048357600080fd5b506001600160a01b0381358116916020810135916040820135916060810135916080820135169060a001356112bb565b6040805192835260208301919091528051918290030190f35b61019a600480360360208110156104e257600080fd5b50356001600160a01b031661187f565b6101a4611923565b61019a6004803603602081101561051057600080fd5b50356001600160a01b0316611932565b6102896004803603608081101561053657600080fd5b506001600160a01b03813581169160208101358216916040820135916060013516611a2a565b6101a4611c16565b61056c611c25565b6000546001600160a01b039081169116146105bc576040805162461bcd60e51b815260206004820181905260248201526000805160206127f4833981519152604482015290519081900360640190fd5b6001546001600160a01b03161561060c576040805162461bcd60e51b815260206004820152600f60248201526e11549497d253925512505312569151608a1b604482015290519081900360640190fd5b6002546001600160a01b03161561065c576040805162461bcd60e51b815260206004820152600f60248201526e11549497d253925512505312569151608a1b604482015290519081900360640190fd5b6003546001600160a01b0316156106ac576040805162461bcd60e51b815260206004820152600f60248201526e11549497d253925512505312569151608a1b604482015290519081900360640190fd5b6004546001600160a01b0316156106fc576040805162461bcd60e51b815260206004820152600f60248201526e11549497d253925512505312569151608a1b604482015290519081900360640190fd5b6005546001600160a01b03161561074c576040805162461bcd60e51b815260206004820152600f60248201526e11549497d253925512505312569151608a1b604482015290519081900360640190fd5b600180546001600160a01b038088166001600160a01b03199283161790925560028054878416908316179055600380548684169083161790556004805485841690831617905560058054928416929091168217905560405133907f3cd5ec01b1ae7cfec6ca1863e2cd6aa25d6d1702825803ff2b7cc95010fffdc290600090a35050505050565b6003546001600160a01b031681565b6107ea611c25565b6000546001600160a01b0390811691161461083a576040805162461bcd60e51b815260206004820181905260248201526000805160206127f4833981519152604482015290519081900360640190fd5b600580546001600160a01b0319166001600160a01b03831690811790915560405133907f3f7a60b945c1aed32875c6b9264e816ef33c2612c363413700437ceb940465f690600090a350565b6005546001600160a01b031681565b60008060006108a58a8a30611c29565b9150915060006108ee8b848b8b8b808060200260200160405190810160405280939291908181526020018383602002808284376000920191909152508d92508c9150611d379050565b91505080610935576040805162461bcd60e51b815260206004820152600f60248201526e11549497d4d5d05417d19052531151608a1b604482015290519081900360640190fd5b6109b586838d6001600160a01b0316632f310bad6040518163ffffffff1660e01b815260040160206040518083038186803b15801561097357600080fd5b505afa158015610987573d6000803e3d6000fd5b505050506040513d602081101561099d57600080fd5b50516001600160a01b0316919063ffffffff611fbb16565b9a9950505050505050505050565b6004805460408051632c003a7b60e21b81526001600160a01b0389811694820194909452878416602482015260448101879052606481018690526084810185905290516000938493169163b000e9ec9160a4808301926020929190829003018186803b158015610a3257600080fd5b505afa158015610a46573d6000803e3d6000fd5b505050506040513d6020811015610a5c57600080fd5b505190506001600160a01b038116610abb576040805162461bcd60e51b815260206004820152601960248201527f4552525f4f5054494f4e5f444f45535f4e4f545f455849535400000000000000604482015290519081900360640190fd5b610ac481610c09565b979650505050505050565b610ad7611c25565b6000546001600160a01b03908116911614610b27576040805162461bcd60e51b815260206004820181905260248201526000805160206127f4833981519152604482015290519081900360640190fd5b600280546001600160a01b0319166001600160a01b03831690811790915560405133907f9c0370e46dbf7d0f80abe004a0f8167fe3191a10d95df3b80209e4c8fb60d9a690600090a350565b600254600554604080516364e329cb60e11b81526001600160a01b038581166004830152928316602482015290516000938493169163c9c6539691604480830192602092919082900301818787803b158015610bce57600080fd5b505af1158015610be2573d6000803e3d6000fd5b505050506040513d6020811015610bf857600080fd5b50519392505050565b610384420190565b6002546005546040805163e6a4390560e01b81526001600160a01b038581166004830152928316602482015290516000938493169163e6a43905916044808301926020929190829003018186803b158015610c6357600080fd5b505afa158015610c77573d6000803e3d6000fd5b505050506040513d6020811015610c8d57600080fd5b505190506001600160a01b038116610cec576040805162461bcd60e51b815260206004820152601760248201527f4552525f504149525f444f45535f4e4f545f4558495354000000000000000000604482015290519081900360640190fd5b92915050565b610cfa611c25565b6000546001600160a01b03908116911614610d4a576040805162461bcd60e51b815260206004820181905260248201526000805160206127f4833981519152604482015290519081900360640190fd5b600080546040516001600160a01b03909116907f8be0079c531659141344cd1fd0a4f28419497f9722a3daafe3b4186f6b6457e0908390a3600080546001600160a01b0319169055565b6004546001600160a01b031681565b6000806000610db68a89898989896112bb565b915091506000610dcb8a84848b8b8b8b610e7b565b905080610e18576040805162461bcd60e51b815260206004820152601660248201527511549497d0511117d3125455525112551657d190525360521b604482015290519081900360640190fd5b896001600160a01b03168b6001600160a01b0316336001600160a01b03167f79d79896c25e306b5784cadedcce16307107306aef13c53aeccb242eb86306248c6040518082815260200191505060405180910390a49a9950505050505050505050565b60008054600160a01b900460ff16610eda576040805162461bcd60e51b815260206004820152601f60248201527f5265656e7472616e637947756172643a207265656e7472616e742063616c6c00604482015290519081900360640190fd5b6000805460ff60a01b191690556001546005546001600160a01b039182169116610f0c8133308b63ffffffff61201216565b600080610f1a8c8c30611c29565b915091508b6001600160a01b031663095ea7b3856000196040518363ffffffff1660e01b815260040180836001600160a01b03166001600160a01b0316815260200182815260200192505050602060405180830381600087803b158015610f8057600080fd5b505af1158015610f94573d6000803e3d6000fd5b505050506040513d6020811015610faa57600080fd5b50506040805163095ea7b360e01b81526001600160a01b038681166004830152600019602483015291519185169163095ea7b3916044808201926020929091908290030181600087803b15801561100057600080fd5b505af1158015611014573d6000803e3d6000fd5b505050506040513d602081101561102a57600080fd5b50506005546040805162e8e33760e81b81526001600160a01b038f81166004830152928316602482015260448101859052606481018d9052608481018c905260a481018b905289831660c482015260e4810189905290519186169163e8e3370091610104808201926060929091908290030181600087803b1580156110ae57600080fd5b505af11580156110c2573d6000803e3d6000fd5b505050506040513d60608110156110d857600080fd5b8101908080519060200190929190805190602001909291908051906020019092919050505050505061113e33828e6001600160a01b0316632f310bad6040518163ffffffff1660e01b815260040160206040518083038186803b15801561097357600080fd5b60019450505050506000805460ff60a01b1916600160a01b179055979650505050505050565b6000546001600160a01b031690565b61117b611c25565b6000546001600160a01b039081169116146111cb576040805162461bcd60e51b815260206004820181905260248201526000805160206127f4833981519152604482015290519081900360640190fd5b600380546001600160a01b0319166001600160a01b03831690811790915560405133907f5f684f1de37d9513f098c2f015a75f0cadebf7c963234fb4ea02c61b7045534090600090a350565b61121f611c25565b6000546001600160a01b0390811691161461126f576040805162461bcd60e51b815260206004820181905260248201526000805160206127f4833981519152604482015290519081900360640190fd5b600480546001600160a01b0319166001600160a01b03831690811790915560405133907f2fb227ead03d472af81e416891baee9a12e1175e2216d04e5392814d1eeef64490600090a350565b600080548190600160a01b900460ff1661131c576040805162461bcd60e51b815260206004820152601f60248201527f5265656e7472616e637947756172643a207265656e7472616e742063616c6c00604482015290519081900360640190fd5b6000805460ff60a01b191681556005546001600160a01b031690899061134182610c09565b905061135e6001600160a01b03821633308d63ffffffff61201216565b6001546040805163095ea7b360e01b81526001600160a01b039283166004820152600019602482015290519183169163095ea7b3916044808201926020929091908290030181600087803b1580156113b557600080fd5b505af11580156113c9573d6000803e3d6000fd5b505050506040513d60208110156113df57600080fd5b505060015460408051635d5155ef60e11b81526001600160a01b038e811660048301528681166024830152604482018e9052606482018d9052608482018c90523060a483015260c482018a90528251600095508594919091169263baa2abde9260e4808201939182900301818787803b15801561145b57600080fd5b505af115801561146f573d6000803e3d6000fd5b505050506040513d604081101561148557600080fd5b810190808051906020019092919080519060200190929190505050915091506000600360009054906101000a90046001600160a01b031690508c6001600160a01b031663095ea7b3826000196040518363ffffffff1660e01b815260040180836001600160a01b03166001600160a01b0316815260200182815260200192505050602060405180830381600087803b15801561152057600080fd5b505af1158015611534573d6000803e3d6000fd5b505050506040513d602081101561154a57600080fd5b505060408051632f310bad60e01b815290516001600160a01b03861691632f310bad916004808301926020929190829003018186803b15801561158c57600080fd5b505afa1580156115a0573d6000803e3d6000fd5b505050506040513d60208110156115b657600080fd5b50516040805163095ea7b360e01b81526001600160a01b03848116600483015260001960248301529151919092169163095ea7b39160448083019260209291908290030181600087803b15801561160c57600080fd5b505af1158015611620573d6000803e3d6000fd5b505050506040513d602081101561163657600080fd5b5050604080516316b2542760e31b81529051600091611733916001600160a01b0388169163b592a138916004808301926020929190829003018186803b15801561167f57600080fd5b505afa158015611693573d6000803e3d6000fd5b505050506040513d60208110156116a957600080fd5b505160408051627f0cfd60e11b81529051611727916001600160a01b038a169162fe19fa91600480820192602092909190829003018186803b1580156116ee57600080fd5b505afa158015611702573d6000803e3d6000fd5b505050506040513d602081101561171857600080fd5b5051879063ffffffff61207216565b9063ffffffff6120d216565b90506117b7333083886001600160a01b0316632f310bad6040518163ffffffff1660e01b815260040160206040518083038186803b15801561177457600080fd5b505afa158015611788573d6000803e3d6000fd5b505050506040513d602081101561179e57600080fd5b50516001600160a01b031692919063ffffffff61201216565b506040805163b8a6bb3b60e01b81526001600160a01b038681166004830152602482018690528b8116604483015291519183169163b8a6bb3b916064808201926060929091908290030181600087803b15801561181357600080fd5b505af1158015611827573d6000803e3d6000fd5b505050506040513d606081101561183d57600080fd5b5061185a90506001600160a01b0386168a8463ffffffff611fbb16565b506000805460ff60a01b1916600160a01b179055909b909a5098505050505050505050565b611887611c25565b6000546001600160a01b039081169116146118d7576040805162461bcd60e51b815260206004820181905260248201526000805160206127f4833981519152604482015290519081900360640190fd5b600180546001600160a01b0319166001600160a01b03831690811790915560405133907fd1122c000cb7ee1f98b2a8c3d20b186b29f5719b23d1d791f331795286b9676190600090a350565b6002546001600160a01b031681565b61193a611c25565b6000546001600160a01b0390811691161461198a576040805162461bcd60e51b815260206004820181905260248201526000805160206127f4833981519152604482015290519081900360640190fd5b6001600160a01b0381166119cf5760405162461bcd60e51b81526004018080602001828103825260268152602001806127ad6026913960400191505060405180910390fd5b600080546040516001600160a01b03808516939216917f8be0079c531659141344cd1fd0a4f28419497f9722a3daafe3b4186f6b6457e091a3600080546001600160a01b0319166001600160a01b0392909216919091179055565b600080611a38868530612114565b925050506000600360009054906101000a90046001600160a01b03169050866001600160a01b031663440f5fd26040518163ffffffff1660e01b815260040160206040518083038186803b158015611a8f57600080fd5b505afa158015611aa3573d6000803e3d6000fd5b505050506040513d6020811015611ab957600080fd5b50516040805163095ea7b360e01b81526001600160a01b03848116600483015260001960248301529151919092169163095ea7b39160448083019260209291908290030181600087803b158015611b0f57600080fd5b505af1158015611b23573d6000803e3d6000fd5b505050506040513d6020811015611b3957600080fd5b50506040805163107234eb60e11b81526001600160a01b0388811660048301526024820185905286811660448301528251600093918516926320e469d692606480830193919282900301818787803b158015611b9457600080fd5b505af1158015611ba8573d6000803e3d6000fd5b505050506040513d6040811015611bbe57600080fd5b50516040805182815290519192506001600160a01b03808a1692908b169133917ff3ba593321fc56277d51dad4f0bef1650d7ec2e08229bebf53d499c96ec044f09181900360200190a4506001979650505050505050565b6001546001600160a01b031681565b3390565b60008060008411611c6c576040805162461bcd60e51b81526020600482015260086024820152674552525f5a45524f60c01b604482015290519081900360640190fd5b611cab338686886001600160a01b031663440f5fd26040518163ffffffff1660e01b815260040160206040518083038186803b15801561177457600080fd5b60408051633ea6b5f160e21b81526001600160a01b03858116600483015282516000938493928a169263fa9ad7c4926024808301939282900301818787803b158015611cf657600080fd5b505af1158015611d0a573d6000803e3d6000fd5b505050506040513d6040811015611d2057600080fd5b508051602090910151909890975095505050505050565b60606000876001600160a01b031685600081518110611d5257fe5b60200260200101516001600160a01b031614611dad576040805162461bcd60e51b815260206004820152601560248201527411549497d410551217d3d4151253d397d4d5105495605a1b604482015290519081900360640190fd5b6001546040805163095ea7b360e01b81526001600160a01b03928316600482018190526000196024830152915191928b169163095ea7b3916044808201926020929091908290030181600087803b158015611e0757600080fd5b505af1158015611e1b573d6000803e3d6000fd5b505050506040513d6020811015611e3157600080fd5b50506040516338ed173960e01b815260048101898152602482018990526001600160a01b0387811660648401526084830187905260a060448401908152895160a48501528951918516936338ed1739938d938d938d938d938d9390929160c401906020878101910280838360005b83811015611eb7578181015183820152602001611e9f565b505050509050019650505050505050600060405180830381600087803b158015611ee057600080fd5b505af1158015611ef4573d6000803e3d6000fd5b505050506040513d6000823e601f3d908101601f191682016040526020811015611f1d57600080fd5b8101908080516040519392919084640100000000821115611f3d57600080fd5b908301906020820185811115611f5257600080fd5b8251866020820283011164010000000082111715611f6f57600080fd5b82525081516020918201928201910280838360005b83811015611f9c578181015183820152602001611f84565b5050505090500160405250505092506001915050965096945050505050565b604080516001600160a01b038416602482015260448082018490528251808303909101815260649091019091526020810180516001600160e01b031663a9059cbb60e01b17905261200d908490612516565b505050565b604080516001600160a01b0380861660248301528416604482015260648082018490528251808303909101815260849091019091526020810180516001600160e01b03166323b872dd60e01b17905261206c908590612516565b50505050565b60008261208157506000610cec565b8282028284828161208e57fe5b04146120cb5760405162461bcd60e51b81526004018080602001828103825260218152602001806127d36021913960400191505060405180910390fd5b9392505050565b60006120cb83836040518060400160405280601a81526020017f536166654d6174683a206469766973696f6e206279207a65726f0000000000008152506126ce565b6000806000808511612158576040805162461bcd60e51b81526020600482015260086024820152674552525f5a45524f60c01b604482015290519081900360640190fd5b604080516370a0823160e01b8152336004820152905186916001600160a01b038916916370a0823191602480820192602092909190829003018186803b1580156121a157600080fd5b505afa1580156121b5573d6000803e3d6000fd5b505050506040513d60208110156121cb57600080fd5b50511015612212576040805162461bcd60e51b815260206004820152600f60248201526e4552525f42414c5f4f5054494f4e5360881b604482015290519081900360640190fd5b60006122f8876001600160a01b031663b592a1386040518163ffffffff1660e01b815260040160206040518083038186803b15801561225057600080fd5b505afa158015612264573d6000803e3d6000fd5b505050506040513d602081101561227a57600080fd5b505160408051627f0cfd60e11b81529051611727916001600160a01b038c169162fe19fa91600480820192602092909190829003018186803b1580156122bf57600080fd5b505afa1580156122d3573d6000803e3d6000fd5b505050506040513d60208110156122e957600080fd5b5051899063ffffffff61207216565b905080876001600160a01b0316632f310bad6040518163ffffffff1660e01b815260040160206040518083038186803b15801561233457600080fd5b505afa158015612348573d6000803e3d6000fd5b505050506040513d602081101561235e57600080fd5b5051604080516370a0823160e01b815233600482015290516001600160a01b03909216916370a0823191602480820192602092909190829003018186803b1580156123a857600080fd5b505afa1580156123bc573d6000803e3d6000fd5b505050506040513d60208110156123d257600080fd5b50511015612418576040805162461bcd60e51b815260206004820152600e60248201526d4552525f42414c5f52454445454d60901b604482015290519081900360640190fd5b6124573388838a6001600160a01b0316632f310bad6040518163ffffffff1660e01b815260040160206040518083038186803b15801561177457600080fd5b6124726001600160a01b03881633898963ffffffff61201216565b600080886001600160a01b03166383499805886040518263ffffffff1660e01b815260040180826001600160a01b03166001600160a01b03168152602001915050606060405180830381600087803b1580156124cd57600080fd5b505af11580156124e1573d6000803e3d6000fd5b505050506040513d60608110156124f757600080fd5b5080516020820151604090920151909b919a5098509650505050505050565b612528826001600160a01b0316612770565b612579576040805162461bcd60e51b815260206004820152601f60248201527f5361666545524332303a2063616c6c20746f206e6f6e2d636f6e747261637400604482015290519081900360640190fd5b60006060836001600160a01b0316836040518082805190602001908083835b602083106125b75780518252601f199092019160209182019101612598565b6001836020036101000a0380198251168184511680821785525050505050509050019150506000604051808303816000865af19150503d8060008114612619576040519150601f19603f3d011682016040523d82523d6000602084013e61261e565b606091505b509150915081612675576040805162461bcd60e51b815260206004820181905260248201527f5361666545524332303a206c6f772d6c6576656c2063616c6c206661696c6564604482015290519081900360640190fd5b80511561206c5780806020019051602081101561269157600080fd5b505161206c5760405162461bcd60e51b815260040180806020018281038252602a815260200180612814602a913960400191505060405180910390fd5b6000818361275a5760405162461bcd60e51b81526004018080602001828103825283818151815260200191508051906020019080838360005b8381101561271f578181015183820152602001612707565b50505050905090810190601f16801561274c5780820380516001836020036101000a031916815260200191505b509250505060405180910390fd5b50600083858161276657fe5b0495945050505050565b6000813f7fc5d2460186f7233c927e7db2dcc703c0e500b653ca82273b7bfad8045d85a4708181148015906127a457508115155b94935050505056fe4f776e61626c653a206e6577206f776e657220697320746865207a65726f2061646472657373536166654d6174683a206d756c7469706c69636174696f6e206f766572666c6f774f776e61626c653a2063616c6c6572206973206e6f7420746865206f776e65725361666545524332303a204552433230206f7065726174696f6e20646964206e6f742073756363656564a26469706673582212208cc677c780a5cf85f65d82ad3922cf942fd3a9267d776d44a80e099a1e72358264736f6c63430006020033",
  "devdoc": {
    "methods": {
      "addLiquidityWithUnderlying(address,uint256,uint256,uint256,uint256,address,uint256)": {
        "details": "Adds liquidity to an option<>quote token pair by minting optionTokens with underlyingTokens.",
        "params": {
          "deadline": "The timestamp to expire a pending transaction.",
          "minQuantityOptions": "The minimum quantity of optionTokens expected to provide liquidity with.",
          "minQuantityQuoteTokens": "The minimum quantity of quoteTokens expected to provide liquidity with.",
          "optionAddress": "The address of the optionToken to mint then provide liquidity for.",
          "quantityOptions": "The quantity of underlyingTokens to use to mint optionTokens.",
          "quantityQuoteTokens": "The quantity of quoteTokens to add with optionTokens to the Uniswap V2 Pair.",
          "to": "The address that receives UNI-V2 shares."
        }
      },
      "deployUniswapMarket(address)": {
        "details": "Creats a Uniswap pair for option<>quote tokens.",
        "params": {
          "optionAddress": "The address of the option to deploy a Uniswap V2 Pair for with the quoteToken."
        }
      },
      "getMaxDeadline()": {
        "details": "The maxmium deadline available for each trade."
      },
      "getUniswapMarketForOption(address)": {
        "details": "Gets a Uniswap Pair address for an option token and quote token.",
        "params": {
          "optionAddress": "The address of the option to get a Uniswap V2 Pair address for (with quoteToken)."
        }
      },
      "getUniswapMarketForSeries(address,address,uint256,uint256,uint256)": {
        "details": "Gets a Uniswap Pair address for the corresponding option parameters."
      },
      "mintOptionsThenSwapToTokens(address,uint256,uint256,address[],address,uint256)": {
        "details": "Mints options using underlyingTokens provided by user, then swaps on Uniswap V2. Combines Primitive \"mintOptions\" function with Uniswap V2 Router \"swapExactTokensForTokens\" function.",
        "params": {
          "amountIn": "The quantity of options to mint and then sell.",
          "amountOutMin": "The minimum quantity of tokens to receive in exchange for the optionTokens.",
          "deadline": "The timestamp for a trade to fail at if not successful.",
          "optionToken": "The address of the Oracle-less Primitive option.",
          "path": "The token addresses to trade through using their Uniswap V2 pools. Assumes path[0] = option.",
          "to": "The address to send the optionToken proceeds and redeem tokens to."
        },
        "returns": {
          "_0": "bool Whether the transaction was successful or not."
        }
      },
      "owner()": {
        "details": "Returns the address of the current owner."
      },
      "removeLiquidityThenCloseOptions(address,uint256,uint256,uint256,address,uint256)": {
        "details": "Combines Uniswap V2 Router \"removeLiquidity\" function with Primitive \"closeOptions\" function.",
        "params": {
          "amountAMin": "The minimum quantity of optionTokens to receive from removing liquidity.",
          "amountBMin": "The minimum quantity of quoteTokens to receive from removing liquidity.",
          "deadline": "The timestamp to expire a pending transaction.",
          "liquidity": "The quantity of liquidity tokens to pull from msg.sender and burn.",
          "optionAddress": "The address of the option that will be closed from burned UNI-V2 liquidity shares.",
          "to": "The address that receives quoteTokens from burned UNI-V2, and underlyingTokens from closed options."
        }
      },
      "renounceOwnership()": {
        "details": "Leaves the contract without owner. It will not be possible to call `onlyOwner` functions anymore. Can only be called by the current owner.     * NOTE: Renouncing ownership will leave the contract without an owner, thereby removing any functionality that is only available to the owner."
      },
      "rollOption(address,address,uint256,address)": {
        "details": "Closes an option position and opens a new one using the freed underlyingTokens.",
        "params": {
          "receiver": "The address that receives newly minted option and redeem tokens.",
          "rollFromOption": "The optionToken to close.",
          "rollQuantity": "The quantity of underlyingTokens to receive from closed options then use to mint new options.",
          "rollToOption": "The optionToken to mint."
        }
      },
      "rollOptionLiquidity(address,address,uint256,uint256,uint256,address,uint256)": {
        "details": "Combines \"removeLiquidityThenCloseOptions\" function with \"addLiquidityWithUnderlying\" fuction.",
        "params": {
          "amountAMin": "The minimum quantity of optionTokens to receive from removing liquidity.",
          "amountBMin": "The minimum quantity of quoteTokens to receive from removing liquidity.",
          "deadline": "The timestamp to expire a pending transaction.",
          "liquidity": "The quantity of UNI-V2 shares to roll from the first Uniswap pool.",
          "rollFromOption": "The optionToken address to close a UNI-V2 position.",
          "rollToOption": "The optionToken address to open a UNI-V2 position.",
          "to": "The address that receives the UNI-V2 shares that have been rolled."
        }
      },
      "setFactory(address)": {
        "details": "Sets the Uniswap V2 Factory address to use."
      },
      "setQuoteToken(address)": {
        "details": "Sets the designated stablecoin to use (paired token in Uniswap pools)."
      },
      "setRegistry(address)": {
        "details": "Sets the Primitive V1 Registry address to use."
      },
      "setRouter(address)": {
        "details": "Sets the Uniswap V2 Router address to use."
      },
      "setTrader(address)": {
        "details": "Sets the Primitive V1 Trader address to use."
      },
      "transferOwnership(address)": {
        "details": "Transfers ownership of the contract to a new account (`newOwner`). Can only be called by the current owner."
      }
    }
  },
  "userdoc": {
    "methods": {
      "addLiquidityWithUnderlying(address,uint256,uint256,uint256,uint256,address,uint256)": {
        "notice": "Pulls underlying tokens from msg.sender and pushes UNI-V2 liquidity tokens to the \"to\" address. underlyingToken -> optionToken -> UNI-V2."
      },
      "mintOptionsThenSwapToTokens(address,uint256,uint256,address[],address,uint256)": {
        "notice": "If the first address in the path is not the optionToken address, the tx will fail. underlyingToken -> optionToken -> quoteToken."
      },
      "removeLiquidityThenCloseOptions(address,uint256,uint256,uint256,address,uint256)": {
        "notice": "Pulls UNI-V2 liquidity shares with option<>quote token and redeemToken from msg.sender. Then closes the optionTokens and withdraws underlyingTokens to the \"to\" address. Sends quoteTokens from the burned UNI-V2 liquidity shares to the \"to\" address. UNI-V2 -> optionToken -> underlyingToken."
      },
      "rollOption(address,address,uint256,address)": {
        "notice": "Pulls option and redeem tokens from msg.sender, then sends minted option + redeems to receiver. rollFromOption -> underlyingToken -> rollToOption."
      },
      "rollOptionLiquidity(address,address,uint256,uint256,uint256,address,uint256)": {
        "notice": "Rolls UNI-V2 liquidity in an option<>quote pair to a different option<>quote pair. UNI-V2 -> rollFromOption -> underlyingToken -> rollToOption -> UNI-V2."
      }
    }
  },
  "storageLayout": {
    "storage": [
      {
        "astId": 33,
        "contract": "contracts/connectors/Uniswap/UniswapConnector.sol:UniswapConnector",
        "label": "_owner",
        "offset": 0,
        "slot": "0",
        "type": "t_address"
      },
      {
        "astId": 1351,
        "contract": "contracts/connectors/Uniswap/UniswapConnector.sol:UniswapConnector",
        "label": "_notEntered",
        "offset": 20,
        "slot": "0",
        "type": "t_bool"
      },
      {
        "astId": 1877,
        "contract": "contracts/connectors/Uniswap/UniswapConnector.sol:UniswapConnector",
        "label": "router",
        "offset": 0,
        "slot": "1",
        "type": "t_contract(IUniswapV2Router02)1836"
      },
      {
        "astId": 1879,
        "contract": "contracts/connectors/Uniswap/UniswapConnector.sol:UniswapConnector",
        "label": "factory",
        "offset": 0,
        "slot": "2",
        "type": "t_contract(IUniswapV2Factory)1440"
      },
      {
        "astId": 1881,
        "contract": "contracts/connectors/Uniswap/UniswapConnector.sol:UniswapConnector",
        "label": "trader",
        "offset": 0,
        "slot": "3",
        "type": "t_contract(ITrader)5950"
      },
      {
        "astId": 1883,
        "contract": "contracts/connectors/Uniswap/UniswapConnector.sol:UniswapConnector",
        "label": "registry",
        "offset": 0,
        "slot": "4",
        "type": "t_contract(IRegistry)5878"
      },
      {
        "astId": 1885,
        "contract": "contracts/connectors/Uniswap/UniswapConnector.sol:UniswapConnector",
        "label": "quoteToken",
        "offset": 0,
        "slot": "5",
        "type": "t_address"
      }
    ],
    "types": {
      "t_address": {
        "encoding": "inplace",
        "label": "address",
        "numberOfBytes": "20"
      },
      "t_bool": {
        "encoding": "inplace",
        "label": "bool",
        "numberOfBytes": "1"
      },
      "t_contract(IRegistry)5878": {
        "encoding": "inplace",
        "label": "contract IRegistry",
        "numberOfBytes": "20"
      },
      "t_contract(ITrader)5950": {
        "encoding": "inplace",
        "label": "contract ITrader",
        "numberOfBytes": "20"
      },
      "t_contract(IUniswapV2Factory)1440": {
        "encoding": "inplace",
        "label": "contract IUniswapV2Factory",
        "numberOfBytes": "20"
      },
      "t_contract(IUniswapV2Router02)1836": {
        "encoding": "inplace",
        "label": "contract IUniswapV2Router02",
        "numberOfBytes": "20"
      }
    }
  },
  "gasEstimates": {
    "creation": {
      "codeDepositCost": "2071000",
      "executionCost": "infinite",
      "totalCost": "infinite"
    },
    "external": {
      "addLiquidityWithUnderlying(address,uint256,uint256,uint256,uint256,address,uint256)": "infinite",
      "deployUniswapMarket(address)": "infinite",
      "factory()": "1103",
      "getMaxDeadline()": "292",
      "getUniswapMarketForOption(address)": "infinite",
      "getUniswapMarketForSeries(address,address,uint256,uint256,uint256)": "infinite",
      "initialize(address,address,address,address,address)": "infinite",
      "mintOptionsThenSwapToTokens(address,uint256,uint256,address[],address,uint256)": "infinite",
      "owner()": "1126",
      "quoteToken()": "1127",
      "registry()": "1060",
      "removeLiquidityThenCloseOptions(address,uint256,uint256,uint256,address,uint256)": "infinite",
      "renounceOwnership()": "infinite",
      "rollOption(address,address,uint256,address)": "infinite",
      "rollOptionLiquidity(address,address,uint256,uint256,uint256,address,uint256)": "infinite",
      "router()": "1169",
      "setFactory(address)": "infinite",
      "setQuoteToken(address)": "infinite",
      "setRegistry(address)": "infinite",
      "setRouter(address)": "infinite",
      "setTrader(address)": "infinite",
      "trader()": "1083",
      "transferOwnership(address)": "infinite"
    },
    "internal": {
      "_swapExactOptionsForTokens(address,uint256,uint256,address[] memory,address,uint256)": "infinite"
    }
  }
}