{
  "abi": [
    {
      "inputs": [
        {
          "internalType": "address",
          "name": "router_",
          "type": "address"
        },
        {
          "internalType": "address",
          "name": "factory_",
          "type": "address"
        },
        {
          "internalType": "address",
          "name": "trader_",
          "type": "address"
        }
      ],
      "stateMutability": "nonpayable",
      "type": "constructor"
    },
    {
      "anonymous": false,
      "inputs": [
        {
          "indexed": true,
          "internalType": "address",
          "name": "from",
          "type": "address"
        },
        {
          "indexed": false,
          "internalType": "uint256",
          "name": "quantity",
          "type": "uint256"
        },
        {
          "indexed": false,
          "internalType": "uint256",
          "name": "payout",
          "type": "uint256"
        }
      ],
      "name": "FlashClosed",
      "type": "event"
    },
    {
      "anonymous": false,
      "inputs": [
        {
          "indexed": true,
          "internalType": "address",
          "name": "from",
          "type": "address"
        },
        {
          "indexed": false,
          "internalType": "uint256",
          "name": "quantity",
          "type": "uint256"
        },
        {
          "indexed": false,
          "internalType": "uint256",
          "name": "premium",
          "type": "uint256"
        }
      ],
      "name": "FlashOpened",
      "type": "event"
    },
    {
      "anonymous": false,
      "inputs": [
        {
          "indexed": true,
          "internalType": "address",
          "name": "from",
          "type": "address"
        }
      ],
      "name": "Initialized",
      "type": "event"
    },
    {
      "inputs": [
        {
          "internalType": "address",
          "name": "optionAddress",
          "type": "address"
        },
        {
          "internalType": "address",
          "name": "otherTokenAddress",
          "type": "address"
        },
        {
          "internalType": "uint256",
          "name": "quantityOptions",
          "type": "uint256"
        },
        {
          "internalType": "uint256",
          "name": "quantityOtherTokens",
          "type": "uint256"
        },
        {
          "internalType": "uint256",
          "name": "minShortTokens",
          "type": "uint256"
        },
        {
          "internalType": "uint256",
          "name": "minOtherTokens",
          "type": "uint256"
        },
        {
          "internalType": "address",
          "name": "to",
          "type": "address"
        },
        {
          "internalType": "uint256",
          "name": "deadline",
          "type": "uint256"
        }
      ],
      "name": "addShortLiquidityWithUnderlying",
      "outputs": [
        {
          "internalType": "bool",
          "name": "",
          "type": "bool"
        }
      ],
      "stateMutability": "nonpayable",
      "type": "function"
    },
    {
      "inputs": [
        {
          "internalType": "contract IOption",
          "name": "optionToken",
          "type": "address"
        },
        {
          "internalType": "uint256",
          "name": "amountRedeems",
          "type": "uint256"
        },
        {
          "internalType": "uint256",
          "name": "minPayout",
          "type": "uint256"
        }
      ],
      "name": "closeFlashLong",
      "outputs": [
        {
          "internalType": "bool",
          "name": "",
          "type": "bool"
        }
      ],
      "stateMutability": "nonpayable",
      "type": "function"
    },
    {
      "inputs": [
        {
          "internalType": "address",
          "name": "optionAddress",
          "type": "address"
        },
        {
          "internalType": "address",
          "name": "otherToken",
          "type": "address"
        }
      ],
      "name": "deployUniswapMarket",
      "outputs": [
        {
          "internalType": "address",
          "name": "",
          "type": "address"
        }
      ],
      "stateMutability": "nonpayable",
      "type": "function"
    },
    {
      "inputs": [],
      "name": "factory",
      "outputs": [
        {
          "internalType": "contract IUniswapV2Factory",
          "name": "",
          "type": "address"
        }
      ],
      "stateMutability": "view",
      "type": "function"
    },
    {
      "inputs": [
        {
          "internalType": "address",
          "name": "pairAddress",
          "type": "address"
        },
        {
          "internalType": "address",
          "name": "optionAddress",
          "type": "address"
        },
        {
          "internalType": "uint256",
          "name": "flashLoanQuantity",
          "type": "uint256"
        },
        {
          "internalType": "uint256",
          "name": "minPayout",
          "type": "uint256"
        },
        {
          "internalType": "address[]",
          "name": "path",
          "type": "address[]"
        },
        {
          "internalType": "address",
          "name": "to",
          "type": "address"
        }
      ],
      "name": "flashCloseLongOptionsThenSwap",
      "outputs": [
        {
          "internalType": "uint256",
          "name": "",
          "type": "uint256"
        },
        {
          "internalType": "uint256",
          "name": "",
          "type": "uint256"
        }
      ],
      "stateMutability": "nonpayable",
      "type": "function"
    },
    {
      "inputs": [
        {
          "internalType": "address",
          "name": "pairAddress",
          "type": "address"
        },
        {
          "internalType": "address",
          "name": "optionAddress",
          "type": "address"
        },
        {
          "internalType": "uint256",
          "name": "flashLoanQuantity",
          "type": "uint256"
        },
        {
          "internalType": "uint256",
          "name": "maxPremium",
          "type": "uint256"
        },
        {
          "internalType": "address[]",
          "name": "path",
          "type": "address[]"
        },
        {
          "internalType": "address",
          "name": "to",
          "type": "address"
        }
      ],
      "name": "flashMintShortOptionsThenSwap",
      "outputs": [
        {
          "internalType": "bool",
          "name": "",
          "type": "bool"
        }
      ],
      "stateMutability": "nonpayable",
      "type": "function"
    },
    {
      "inputs": [],
      "name": "getName",
      "outputs": [
        {
          "internalType": "string",
          "name": "",
          "type": "string"
        }
      ],
      "stateMutability": "pure",
      "type": "function"
    },
    {
      "inputs": [
        {
          "internalType": "address",
          "name": "token0",
          "type": "address"
        },
        {
          "internalType": "address",
          "name": "token1",
          "type": "address"
        }
      ],
      "name": "getUniswapMarketForTokens",
      "outputs": [
        {
          "internalType": "address",
          "name": "",
          "type": "address"
        }
      ],
      "stateMutability": "view",
      "type": "function"
    },
    {
      "inputs": [],
      "name": "getVersion",
      "outputs": [
        {
          "internalType": "uint8",
          "name": "",
          "type": "uint8"
        }
      ],
      "stateMutability": "pure",
      "type": "function"
    },
    {
      "inputs": [
        {
          "internalType": "contract IOption",
          "name": "optionToken",
          "type": "address"
        },
        {
          "internalType": "uint256",
          "name": "amountIn",
          "type": "uint256"
        },
        {
          "internalType": "uint256",
          "name": "amountOutMin",
          "type": "uint256"
        },
        {
          "internalType": "address[]",
          "name": "path",
          "type": "address[]"
        },
        {
          "internalType": "address",
          "name": "to",
          "type": "address"
        },
        {
          "internalType": "uint256",
          "name": "deadline",
          "type": "uint256"
        }
      ],
      "name": "mintShortOptionsThenSwapToTokens",
      "outputs": [
        {
          "internalType": "bool",
          "name": "",
          "type": "bool"
        }
      ],
      "stateMutability": "nonpayable",
      "type": "function"
    },
    {
      "inputs": [
        {
          "internalType": "contract IOption",
          "name": "optionToken",
          "type": "address"
        },
        {
          "internalType": "uint256",
          "name": "amountOptions",
          "type": "uint256"
        },
        {
          "internalType": "uint256",
          "name": "maxPremium",
          "type": "uint256"
        }
      ],
      "name": "openFlashLong",
      "outputs": [
        {
          "internalType": "bool",
          "name": "",
          "type": "bool"
        }
      ],
      "stateMutability": "nonpayable",
      "type": "function"
    },
    {
      "inputs": [
        {
          "internalType": "address",
          "name": "optionAddress",
          "type": "address"
        },
        {
          "internalType": "address",
          "name": "otherTokenAddress",
          "type": "address"
        },
        {
          "internalType": "uint256",
          "name": "liquidity",
          "type": "uint256"
        },
        {
          "internalType": "uint256",
          "name": "amountAMin",
          "type": "uint256"
        },
        {
          "internalType": "uint256",
          "name": "amountBMin",
          "type": "uint256"
        },
        {
          "internalType": "address",
          "name": "to",
          "type": "address"
        },
        {
          "internalType": "uint256",
          "name": "deadline",
          "type": "uint256"
        }
      ],
      "name": "removeShortLiquidityThenCloseOptions",
      "outputs": [
        {
          "internalType": "uint256",
          "name": "",
          "type": "uint256"
        },
        {
          "internalType": "uint256",
          "name": "",
          "type": "uint256"
        }
      ],
      "stateMutability": "nonpayable",
      "type": "function"
    },
    {
      "inputs": [],
      "name": "router",
      "outputs": [
        {
          "internalType": "contract IUniswapV2Router02",
          "name": "",
          "type": "address"
        }
      ],
      "stateMutability": "view",
      "type": "function"
    },
    {
      "inputs": [],
      "name": "trader",
      "outputs": [
        {
          "internalType": "contract ITrader",
          "name": "",
          "type": "address"
        }
      ],
      "stateMutability": "view",
      "type": "function"
    },
    {
      "inputs": [
        {
          "internalType": "address",
          "name": "sender",
          "type": "address"
        },
        {
          "internalType": "uint256",
          "name": "amount0",
          "type": "uint256"
        },
        {
          "internalType": "uint256",
          "name": "amount1",
          "type": "uint256"
        },
        {
          "internalType": "bytes",
          "name": "data",
          "type": "bytes"
        }
      ],
      "name": "uniswapV2Call",
      "outputs": [],
      "stateMutability": "nonpayable",
      "type": "function"
    }
  ],
  "address": "0xEcc0a6dbC0bb4D51E4F84A315a9e5B0438cAD4f0",
  "args": [
    "0x7a250d5630B4cF539739dF2C5dAcb4c659F2488D",
    "0x5C69bEe701ef814a2B6a3EDD4B1652CB9cc5aA6f",
    "0xD6C850aeBFDC46D7F4c207e445cC0d6B0919BDBe"
  ],
  "solcInputHash": "0x32553cda67d0e6f448b6fbbd9e73db72191d5233747832ef9715670958da4ed6",
  "bytecode": "0x60806040523480156200001157600080fd5b50604051620058d9380380620058d9833981810160405260608110156200003757600080fd5b8101908080519060200190929190805190602001909291908051906020019092919050505060016000806101000a81548160ff021916908315150217905550600073ffffffffffffffffffffffffffffffffffffffff16600260009054906101000a900473ffffffffffffffffffffffffffffffffffffffff1673ffffffffffffffffffffffffffffffffffffffff16146200013b576040517f08c379a000000000000000000000000000000000000000000000000000000000815260040180806020018281038252600f8152602001807f4552525f494e495449414c495a4544000000000000000000000000000000000081525060200191505060405180910390fd5b600073ffffffffffffffffffffffffffffffffffffffff16600160009054906101000a900473ffffffffffffffffffffffffffffffffffffffff1673ffffffffffffffffffffffffffffffffffffffff161462000200576040517f08c379a000000000000000000000000000000000000000000000000000000000815260040180806020018281038252600f8152602001807f4552525f494e495449414c495a4544000000000000000000000000000000000081525060200191505060405180910390fd5b600073ffffffffffffffffffffffffffffffffffffffff16600060019054906101000a900473ffffffffffffffffffffffffffffffffffffffff1673ffffffffffffffffffffffffffffffffffffffff1614620002c5576040517f08c379a000000000000000000000000000000000000000000000000000000000815260040180806020018281038252600f8152602001807f4552525f494e495449414c495a4544000000000000000000000000000000000081525060200191505060405180910390fd5b82600260006101000a81548173ffffffffffffffffffffffffffffffffffffffff021916908373ffffffffffffffffffffffffffffffffffffffff16021790555081600160006101000a81548173ffffffffffffffffffffffffffffffffffffffff021916908373ffffffffffffffffffffffffffffffffffffffff16021790555080600060016101000a81548173ffffffffffffffffffffffffffffffffffffffff021916908373ffffffffffffffffffffffffffffffffffffffff1602179055503373ffffffffffffffffffffffffffffffffffffffff167f908408e307fc569b417f6cbec5d5a06f44a0a505ac0479b47d421a4b2fd6a1e660405160405180910390a25050506154fb80620003de6000396000f3fe608060405234801561001057600080fd5b50600436106100f55760003560e01c80639245d58311610097578063cd04552411610066578063cd04552414610837578063d580c622146108a7578063f887ea4014610976578063fd52c6bb146109c0576100f5565b80639245d5831461054a57806395f0ae76146105ba578063b17d0570146106a9578063c45a0155146107ed576100f5565b806317d7de7c116100d357806317d7de7c1461021557806360060ccd1461029857806369bd26cd146103df57806369d12e1414610483576100f5565b80630d8e6e2c146100fa57806310d1e85c1461011e5780631758078b146101cb575b600080fd5b610102610a64565b604051808260ff1660ff16815260200191505060405180910390f35b6101c96004803603608081101561013457600080fd5b81019080803573ffffffffffffffffffffffffffffffffffffffff16906020019092919080359060200190929190803590602001909291908035906020019064010000000081111561018557600080fd5b82018360208201111561019757600080fd5b803590602001918460018302840111640100000000831117156101b957600080fd5b9091929391929390505050610a6d565b005b6101d3610dea565b604051808273ffffffffffffffffffffffffffffffffffffffff1673ffffffffffffffffffffffffffffffffffffffff16815260200191505060405180910390f35b61021d610e10565b6040518080602001828103825283818151815260200191508051906020019080838360005b8381101561025d578082015181840152602081019050610242565b50505050905090810190601f16801561028a5780820380516001836020036101000a031916815260200191505b509250505060405180910390f35b6103c2600480360360c08110156102ae57600080fd5b81019080803573ffffffffffffffffffffffffffffffffffffffff169060200190929190803573ffffffffffffffffffffffffffffffffffffffff16906020019092919080359060200190929190803590602001909291908035906020019064010000000081111561031f57600080fd5b82018360208201111561033157600080fd5b8035906020019184602083028401116401000000008311171561035357600080fd5b919080806020026020016040519081016040528093929190818152602001838360200280828437600081840152601f19601f820116905080830192505050505050509192919290803573ffffffffffffffffffffffffffffffffffffffff169060200190929190505050610e4d565b604051808381526020018281526020019250505060405180910390f35b610441600480360360408110156103f557600080fd5b81019080803573ffffffffffffffffffffffffffffffffffffffff169060200190929190803573ffffffffffffffffffffffffffffffffffffffff169060200190929190505050610ef1565b604051808273ffffffffffffffffffffffffffffffffffffffff1673ffffffffffffffffffffffffffffffffffffffff16815260200191505060405180910390f35b61052d600480360360e081101561049957600080fd5b81019080803573ffffffffffffffffffffffffffffffffffffffff169060200190929190803573ffffffffffffffffffffffffffffffffffffffff169060200190929190803590602001909291908035906020019092919080359060200190929190803573ffffffffffffffffffffffffffffffffffffffff16906020019092919080359060200190929190505050611010565b604051808381526020018281526020019250505060405180910390f35b6105a06004803603606081101561056057600080fd5b81019080803573ffffffffffffffffffffffffffffffffffffffff169060200190929190803590602001909291908035906020019092919050505061115b565b604051808215151515815260200191505060405180910390f35b61068f600480360360c08110156105d057600080fd5b81019080803573ffffffffffffffffffffffffffffffffffffffff16906020019092919080359060200190929190803590602001909291908035906020019064010000000081111561062157600080fd5b82018360208201111561063357600080fd5b8035906020019184602083028401116401000000008311171561065557600080fd5b9091929391929390803573ffffffffffffffffffffffffffffffffffffffff16906020019092919080359060200190929190505050611924565b604051808215151515815260200191505060405180910390f35b6107d3600480360360c08110156106bf57600080fd5b81019080803573ffffffffffffffffffffffffffffffffffffffff169060200190929190803573ffffffffffffffffffffffffffffffffffffffff16906020019092919080359060200190929190803590602001909291908035906020019064010000000081111561073057600080fd5b82018360208201111561074257600080fd5b8035906020019184602083028401116401000000008311171561076457600080fd5b919080806020026020016040519081016040528093929190818152602001838360200280828437600081840152601f19601f820116905080830192505050505050509192919290803573ffffffffffffffffffffffffffffffffffffffff169060200190929190505050611a60565b604051808215151515815260200191505060405180910390f35b6107f5612479565b604051808273ffffffffffffffffffffffffffffffffffffffff1673ffffffffffffffffffffffffffffffffffffffff16815260200191505060405180910390f35b61088d6004803603606081101561084d57600080fd5b81019080803573ffffffffffffffffffffffffffffffffffffffff169060200190929190803590602001909291908035906020019092919050505061249f565b604051808215151515815260200191505060405180910390f35b61095c60048036036101008110156108be57600080fd5b81019080803573ffffffffffffffffffffffffffffffffffffffff169060200190929190803573ffffffffffffffffffffffffffffffffffffffff16906020019092919080359060200190929190803590602001909291908035906020019092919080359060200190929190803573ffffffffffffffffffffffffffffffffffffffff16906020019092919080359060200190929190505050612c68565b604051808215151515815260200191505060405180910390f35b61097e612d66565b604051808273ffffffffffffffffffffffffffffffffffffffff1673ffffffffffffffffffffffffffffffffffffffff16815260200191505060405180910390f35b610a22600480360360408110156109d657600080fd5b81019080803573ffffffffffffffffffffffffffffffffffffffff169060200190929190803573ffffffffffffffffffffffffffffffffffffffff169060200190929190505050612d8c565b604051808273ffffffffffffffffffffffffffffffffffffffff1673ffffffffffffffffffffffffffffffffffffffff16815260200191505060405180910390f35b60006002905090565b60003373ffffffffffffffffffffffffffffffffffffffff16630dfe16816040518163ffffffff1660e01b815260040160206040518083038186803b158015610ab557600080fd5b505afa158015610ac9573d6000803e3d6000fd5b505050506040513d6020811015610adf57600080fd5b8101908080519060200190929190505050905060003373ffffffffffffffffffffffffffffffffffffffff1663d21220a76040518163ffffffff1660e01b815260040160206040518083038186803b158015610b3a57600080fd5b505afa158015610b4e573d6000803e3d6000fd5b505050506040513d6020811015610b6457600080fd5b81019080805190602001909291905050509050600160009054906101000a900473ffffffffffffffffffffffffffffffffffffffff1673ffffffffffffffffffffffffffffffffffffffff1663e6a4390583836040518363ffffffff1660e01b8152600401808373ffffffffffffffffffffffffffffffffffffffff1673ffffffffffffffffffffffffffffffffffffffff1681526020018273ffffffffffffffffffffffffffffffffffffffff1673ffffffffffffffffffffffffffffffffffffffff1681526020019250505060206040518083038186803b158015610c4a57600080fd5b505afa158015610c5e573d6000803e3d6000fd5b505050506040513d6020811015610c7457600080fd5b810190808051906020019092919050505073ffffffffffffffffffffffffffffffffffffffff163373ffffffffffffffffffffffffffffffffffffffff1614610cb957fe5b600060603073ffffffffffffffffffffffffffffffffffffffff1686866040518083838082843780830192505050925050506000604051808303816000865af19150503d8060008114610d28576040519150601f19603f3d011682016040523d82523d6000602084013e610d2d565b606091505b5091509150818015610d6d5750600081511480610d6c5750808060200190516020811015610d5a57600080fd5b81019080805190602001909291905050505b5b610ddf576040517f08c379a00000000000000000000000000000000000000000000000000000000081526004018080602001828103825260178152602001807f4552525f554e495357415056325f43414c4c5f4641494c00000000000000000081525060200191505060405180910390fd5b505050505050505050565b600060019054906101000a900473ffffffffffffffffffffffffffffffffffffffff1681565b60606040518060400160405280601d81526020017f5072696d69746976655631556e6973776170436f6e6e6563746f723032000000815250905090565b600080600080610e84600260009054906101000a900473ffffffffffffffffffffffffffffffffffffffff168b8b8b8b8b8b612f4c565b915091503373ffffffffffffffffffffffffffffffffffffffff167f3725145ca6a6d192a761e3b6dbcf42cdc13147dd45a65fd1b29737ac584b557e8383604051808381526020018281526020019250505060405180910390a28181935093505050965096945050505050565b600080600160009054906101000a900473ffffffffffffffffffffffffffffffffffffffff1673ffffffffffffffffffffffffffffffffffffffff1663c9c6539685856040518363ffffffff1660e01b8152600401808373ffffffffffffffffffffffffffffffffffffffff1673ffffffffffffffffffffffffffffffffffffffff1681526020018273ffffffffffffffffffffffffffffffffffffffff1673ffffffffffffffffffffffffffffffffffffffff16815260200192505050602060405180830381600087803b158015610fc957600080fd5b505af1158015610fdd573d6000803e3d6000fd5b505050506040513d6020811015610ff357600080fd5b810190808051906020019092919050505090508091505092915050565b6000806000809054906101000a900460ff16611094576040517f08c379a000000000000000000000000000000000000000000000000000000000815260040180806020018281038252601f8152602001807f5265656e7472616e637947756172643a207265656e7472616e742063616c6c0081525060200191505060405180910390fd5b60008060006101000a81548160ff021916908315150217905550600080611129600160009054906101000a900473ffffffffffffffffffffffffffffffffffffffff16600260009054906101000a900473ffffffffffffffffffffffffffffffffffffffff16600060019054906101000a900473ffffffffffffffffffffffffffffffffffffffff168e8e8e8e8e8e8e613828565b91509150818193509350505060016000806101000a81548160ff02191690831515021790555097509795505050505050565b60008060009054906101000a900460ff166111de576040517f08c379a000000000000000000000000000000000000000000000000000000000815260040180806020018281038252601f8152602001807f5265656e7472616e637947756172643a207265656e7472616e742063616c6c0081525060200191505060405180910390fd5b60008060006101000a81548160ff02191690831515021790555060008473ffffffffffffffffffffffffffffffffffffffff16632f310bad6040518163ffffffff1660e01b815260040160206040518083038186803b15801561124057600080fd5b505afa158015611254573d6000803e3d6000fd5b505050506040513d602081101561126a57600080fd5b8101908080519060200190929190505050905060008573ffffffffffffffffffffffffffffffffffffffff1663440f5fd26040518163ffffffff1660e01b815260040160206040518083038186803b1580156112c557600080fd5b505afa1580156112d9573d6000803e3d6000fd5b505050506040513d60208110156112ef57600080fd5b810190808051906020019092919050505090506000600160009054906101000a900473ffffffffffffffffffffffffffffffffffffffff1673ffffffffffffffffffffffffffffffffffffffff1663e6a4390584846040518363ffffffff1660e01b8152600401808373ffffffffffffffffffffffffffffffffffffffff1673ffffffffffffffffffffffffffffffffffffffff1681526020018273ffffffffffffffffffffffffffffffffffffffff1673ffffffffffffffffffffffffffffffffffffffff1681526020019250505060206040518083038186803b1580156113d757600080fd5b505afa1580156113eb573d6000803e3d6000fd5b505050506040513d602081101561140157600080fd5b81019080805190602001909291905050509050606060026040519080825280602002602001820160405280156114465781602001602082028038833980820191505090505b509050828160008151811061145757fe5b602002602001019073ffffffffffffffffffffffffffffffffffffffff16908173ffffffffffffffffffffffffffffffffffffffff1681525050838160018151811061149f57fe5b602002602001019073ffffffffffffffffffffffffffffffffffffffff16908173ffffffffffffffffffffffffffffffffffffffff1681525050600082905060006040518060800160405280605081526020016153db60509139805190602001209050606081858c8c8c8833604051602401808773ffffffffffffffffffffffffffffffffffffffff1673ffffffffffffffffffffffffffffffffffffffff1681526020018673ffffffffffffffffffffffffffffffffffffffff1673ffffffffffffffffffffffffffffffffffffffff168152602001858152602001848152602001806020018373ffffffffffffffffffffffffffffffffffffffff1673ffffffffffffffffffffffffffffffffffffffff168152602001828103825284818151815260200191508051906020019060200280838360005b838110156115f35780820151818401526020810190506115d8565b50505050905001975050505050505050604051602081830303815290604052907bffffffffffffffffffffffffffffffffffffffffffffffffffffffff19166020820180517bffffffffffffffffffffffffffffffffffffffffffffffffffffffff8381831617835250505050905060008773ffffffffffffffffffffffffffffffffffffffff168473ffffffffffffffffffffffffffffffffffffffff16630dfe16816040518163ffffffff1660e01b815260040160206040518083038186803b1580156116c157600080fd5b505afa1580156116d5573d6000803e3d6000fd5b505050506040513d60208110156116eb57600080fd5b810190808051906020019092919050505073ffffffffffffffffffffffffffffffffffffffff161461171e576000611720565b8a5b905060008873ffffffffffffffffffffffffffffffffffffffff168573ffffffffffffffffffffffffffffffffffffffff16630dfe16816040518163ffffffff1660e01b815260040160206040518083038186803b15801561178157600080fd5b505afa158015611795573d6000803e3d6000fd5b505050506040513d60208110156117ab57600080fd5b810190808051906020019092919050505073ffffffffffffffffffffffffffffffffffffffff16146117dd578b6117e0565b60005b90508473ffffffffffffffffffffffffffffffffffffffff1663022c0d9f838330876040518563ffffffff1660e01b8152600401808581526020018481526020018373ffffffffffffffffffffffffffffffffffffffff1673ffffffffffffffffffffffffffffffffffffffff16815260200180602001828103825283818151815260200191508051906020019080838360005b8381101561188f578082015181840152602081019050611874565b50505050905090810190601f1680156118bc5780820380516001836020036101000a031916815260200191505b5095505050505050600060405180830381600087803b1580156118de57600080fd5b505af11580156118f2573d6000803e3d6000fd5b505050506001995050505050505050505060016000806101000a81548160ff0219169083151502179055509392505050565b60008060009054906101000a900460ff166119a7576040517f08c379a000000000000000000000000000000000000000000000000000000000815260040180806020018281038252601f8152602001807f5265656e7472616e637947756172643a207265656e7472616e742063616c6c0081525060200191505060405180910390fd5b60008060006101000a81548160ff0219169083151502179055506000611a35600260009054906101000a900473ffffffffffffffffffffffffffffffffffffffff168a8a8a8a8a80806020026020016040519081016040528093929190818152602001838360200280828437600081840152601f19601f8201169050808301925050505050505089896140a9565b90508091505060016000806101000a81548160ff021916908315150217905550979650505050505050565b60003073ffffffffffffffffffffffffffffffffffffffff163373ffffffffffffffffffffffffffffffffffffffff1614611b03576040517f08c379a000000000000000000000000000000000000000000000000000000000815260040180806020018281038252600c8152602001807f4552525f4e4f545f53454c46000000000000000000000000000000000000000081525060200191505060405180910390fd5b60008511611b79576040517f08c379a00000000000000000000000000000000000000000000000000000000081526004018080602001828103825260088152602001807f4552525f5a45524f00000000000000000000000000000000000000000000000081525060200191505060405180910390fd5b60008673ffffffffffffffffffffffffffffffffffffffff1663440f5fd26040518163ffffffff1660e01b815260040160206040518083038186803b158015611bc157600080fd5b505afa158015611bd5573d6000803e3d6000fd5b505050506040513d6020811015611beb57600080fd5b810190808051906020019092919050505090508073ffffffffffffffffffffffffffffffffffffffff1684600181518110611c2257fe5b602002602001015173ffffffffffffffffffffffffffffffffffffffff1614611cb3576040517f08c379a000000000000000000000000000000000000000000000000000000000815260040180806020018281038252601b8152602001807f4552525f454e445f504154485f4e4f545f554e4445524c59494e47000000000081525060200191505060405180910390fd5b611cde87878373ffffffffffffffffffffffffffffffffffffffff166142069092919063ffffffff16565b6000808873ffffffffffffffffffffffffffffffffffffffff1663fa9ad7c4306040518263ffffffff1660e01b8152600401808273ffffffffffffffffffffffffffffffffffffffff1673ffffffffffffffffffffffffffffffffffffffff1681526020019150506040805180830381600087803b158015611d5f57600080fd5b505af1158015611d73573d6000803e3d6000fd5b505050506040513d6040811015611d8957600080fd5b8101908080519060200190929190805190602001909291905050509150915060008390506060600260009054906101000a900473ffffffffffffffffffffffffffffffffffffffff1673ffffffffffffffffffffffffffffffffffffffff16631f00ca748b8a6040518363ffffffff1660e01b81526004018083815260200180602001828103825283818151815260200191508051906020019060200280838360005b83811015611e47578082015181840152602081019050611e2c565b50505050905001935050505060006040518083038186803b158015611e6b57600080fd5b505afa158015611e7f573d6000803e3d6000fd5b505050506040513d6000823e3d601f19601f820116820180604052506020811015611ea957600080fd5b8101908080516040519392919084640100000000821115611ec957600080fd5b83820191506020820185811115611edf57600080fd5b8251866020820283011164010000000082111715611efc57600080fd5b8083526020830192505050908051906020019060200280838360005b83811015611f33578082015181840152602081019050611f18565b505050509050016040525050509050600080600083600081518110611f5457fe5b602002602001015190506000868211611f6e576000611f82565b611f8187836142be90919063ffffffff16565b5b9050818711611f92576000611fa6565b611fa582886142be90919063ffffffff16565b5b925060008111156121b55760608c90506060600260009054906101000a900473ffffffffffffffffffffffffffffffffffffffff1673ffffffffffffffffffffffffffffffffffffffff1663d06ca61f84846040518363ffffffff1660e01b81526004018083815260200180602001828103825283818151815260200191508051906020019060200280838360005b83811015612050578082015181840152602081019050612035565b50505050905001935050505060006040518083038186803b15801561207457600080fd5b505afa158015612088573d6000803e3d6000fd5b505050506040513d6000823e3d601f19601f8201168201806040525060208110156120b257600080fd5b81019080805160405193929190846401000000008211156120d257600080fd5b838201915060208201858111156120e857600080fd5b825186602082028301116401000000008211171561210557600080fd5b8083526020830192505050908051906020019060200280838360005b8381101561213c578082015181840152602081019050612121565b5050505090500160405250505090506121b0620186a06121a28360018151811061216257fe5b6020026020010151612194620187058660018151811061217e57fe5b602002602001015161430890919063ffffffff16565b61438e90919063ffffffff16565b61441690919063ffffffff16565b955050505b60008311156121d4576121d183886142be90919063ffffffff16565b96505b50506122818e868f73ffffffffffffffffffffffffffffffffffffffff16632f310bad6040518163ffffffff1660e01b815260040160206040518083038186803b15801561222157600080fd5b505afa158015612235573d6000803e3d6000fd5b505050506040513d602081101561224b57600080fd5b810190808051906020019092919050505073ffffffffffffffffffffffffffffffffffffffff166142069092919063ffffffff16565b600082111561232e578a821015612300576040517f08c379a00000000000000000000000000000000000000000000000000000000081526004018080602001828103825260148152602001807f4552525f5052454d49554d5f4f5645525f4d415800000000000000000000000081525060200191505060405180910390fd5b61232d898f848773ffffffffffffffffffffffffffffffffffffffff16614460909392919063ffffffff16565b5b60008111156123e3576123e289828f73ffffffffffffffffffffffffffffffffffffffff16632f310bad6040518163ffffffff1660e01b815260040160206040518083038186803b15801561238257600080fd5b505afa158015612396573d6000803e3d6000fd5b505050506040513d60208110156123ac57600080fd5b810190808051906020019092919050505073ffffffffffffffffffffffffffffffffffffffff166142069092919063ffffffff16565b5b3373ffffffffffffffffffffffffffffffffffffffff167ff17aa7749e04732ce7bde5ee88376144e6c5669bd4d8c80358119eada62a1d008784604051808381526020018281526020019250505060405180910390a25050505061246885838b73ffffffffffffffffffffffffffffffffffffffff166142069092919063ffffffff16565b600193505050509695505050505050565b600160009054906101000a900473ffffffffffffffffffffffffffffffffffffffff1681565b60008060009054906101000a900460ff16612522576040517f08c379a000000000000000000000000000000000000000000000000000000000815260040180806020018281038252601f8152602001807f5265656e7472616e637947756172643a207265656e7472616e742063616c6c0081525060200191505060405180910390fd5b60008060006101000a81548160ff02191690831515021790555060008473ffffffffffffffffffffffffffffffffffffffff16632f310bad6040518163ffffffff1660e01b815260040160206040518083038186803b15801561258457600080fd5b505afa158015612598573d6000803e3d6000fd5b505050506040513d60208110156125ae57600080fd5b8101908080519060200190929190505050905060008573ffffffffffffffffffffffffffffffffffffffff1663440f5fd26040518163ffffffff1660e01b815260040160206040518083038186803b15801561260957600080fd5b505afa15801561261d573d6000803e3d6000fd5b505050506040513d602081101561263357600080fd5b810190808051906020019092919050505090506000600160009054906101000a900473ffffffffffffffffffffffffffffffffffffffff1673ffffffffffffffffffffffffffffffffffffffff1663e6a4390584846040518363ffffffff1660e01b8152600401808373ffffffffffffffffffffffffffffffffffffffff1673ffffffffffffffffffffffffffffffffffffffff1681526020018273ffffffffffffffffffffffffffffffffffffffff1673ffffffffffffffffffffffffffffffffffffffff1681526020019250505060206040518083038186803b15801561271b57600080fd5b505afa15801561272f573d6000803e3d6000fd5b505050506040513d602081101561274557600080fd5b810190808051906020019092919050505090506060600260405190808252806020026020018201604052801561278a5781602001602082028038833980820191505090505b509050838160008151811061279b57fe5b602002602001019073ffffffffffffffffffffffffffffffffffffffff16908173ffffffffffffffffffffffffffffffffffffffff168152505082816001815181106127e357fe5b602002602001019073ffffffffffffffffffffffffffffffffffffffff16908173ffffffffffffffffffffffffffffffffffffffff16815250506000829050600060405180608001604052806050815260200161544c60509139805190602001209050606081858c8c8c8833604051602401808773ffffffffffffffffffffffffffffffffffffffff1673ffffffffffffffffffffffffffffffffffffffff1681526020018673ffffffffffffffffffffffffffffffffffffffff1673ffffffffffffffffffffffffffffffffffffffff168152602001858152602001848152602001806020018373ffffffffffffffffffffffffffffffffffffffff1673ffffffffffffffffffffffffffffffffffffffff168152602001828103825284818151815260200191508051906020019060200280838360005b8381101561293757808201518184015260208101905061291c565b50505050905001975050505050505050604051602081830303815290604052907bffffffffffffffffffffffffffffffffffffffffffffffffffffffff19166020820180517bffffffffffffffffffffffffffffffffffffffffffffffffffffffff8381831617835250505050905060008673ffffffffffffffffffffffffffffffffffffffff168473ffffffffffffffffffffffffffffffffffffffff16630dfe16816040518163ffffffff1660e01b815260040160206040518083038186803b158015612a0557600080fd5b505afa158015612a19573d6000803e3d6000fd5b505050506040513d6020811015612a2f57600080fd5b810190808051906020019092919050505073ffffffffffffffffffffffffffffffffffffffff1614612a62576000612a64565b8a5b905060008773ffffffffffffffffffffffffffffffffffffffff168573ffffffffffffffffffffffffffffffffffffffff16630dfe16816040518163ffffffff1660e01b815260040160206040518083038186803b158015612ac557600080fd5b505afa158015612ad9573d6000803e3d6000fd5b505050506040513d6020811015612aef57600080fd5b810190808051906020019092919050505073ffffffffffffffffffffffffffffffffffffffff1614612b21578b612b24565b60005b90508473ffffffffffffffffffffffffffffffffffffffff1663022c0d9f838330876040518563ffffffff1660e01b8152600401808581526020018481526020018373ffffffffffffffffffffffffffffffffffffffff1673ffffffffffffffffffffffffffffffffffffffff16815260200180602001828103825283818151815260200191508051906020019080838360005b83811015612bd3578082015181840152602081019050612bb8565b50505050905090810190601f168015612c005780820380516001836020036101000a031916815260200191505b5095505050505050600060405180830381600087803b158015612c2257600080fd5b505af1158015612c36573d6000803e3d6000fd5b505050506001995050505050505050505060016000806101000a81548160ff0219169083151502179055509392505050565b60008060009054906101000a900460ff16612ceb576040517f08c379a000000000000000000000000000000000000000000000000000000000815260040180806020018281038252601f8152602001807f5265656e7472616e637947756172643a207265656e7472616e742063616c6c0081525060200191505060405180910390fd5b60008060006101000a81548160ff0219169083151502179055506000612d3a600260009054906101000a900473ffffffffffffffffffffffffffffffffffffffff168b8b8b8b8b8b8b8b61454d565b90508091505060016000806101000a81548160ff02191690831515021790555098975050505050505050565b600260009054906101000a900473ffffffffffffffffffffffffffffffffffffffff1681565b600080600160009054906101000a900473ffffffffffffffffffffffffffffffffffffffff1673ffffffffffffffffffffffffffffffffffffffff1663e6a4390585856040518363ffffffff1660e01b8152600401808373ffffffffffffffffffffffffffffffffffffffff1673ffffffffffffffffffffffffffffffffffffffff1681526020018273ffffffffffffffffffffffffffffffffffffffff1673ffffffffffffffffffffffffffffffffffffffff1681526020019250505060206040518083038186803b158015612e6257600080fd5b505afa158015612e76573d6000803e3d6000fd5b505050506040513d6020811015612e8c57600080fd5b81019080805190602001909291905050509050600073ffffffffffffffffffffffffffffffffffffffff168173ffffffffffffffffffffffffffffffffffffffff161415612f42576040517f08c379a00000000000000000000000000000000000000000000000000000000081526004018080602001828103825260178152602001807f4552525f504149525f444f45535f4e4f545f455849535400000000000000000081525060200191505060405180910390fd5b8091505092915050565b6000803073ffffffffffffffffffffffffffffffffffffffff163373ffffffffffffffffffffffffffffffffffffffff1614612ff0576040517f08c379a000000000000000000000000000000000000000000000000000000000815260040180806020018281038252600c8152602001807f4552525f4e4f545f53454c46000000000000000000000000000000000000000081525060200191505060405180910390fd5b60008611613066576040517f08c379a00000000000000000000000000000000000000000000000000000000081526004018080602001828103825260088152602001807f4552525f5a45524f00000000000000000000000000000000000000000000000081525060200191505060405180910390fd5b60008773ffffffffffffffffffffffffffffffffffffffff1663440f5fd26040518163ffffffff1660e01b815260040160206040518083038186803b1580156130ae57600080fd5b505afa1580156130c2573d6000803e3d6000fd5b505050506040513d60208110156130d857600080fd5b8101908080519060200190929190505050905060008873ffffffffffffffffffffffffffffffffffffffff16632f310bad6040518163ffffffff1660e01b815260040160206040518083038186803b15801561313357600080fd5b505afa158015613147573d6000803e3d6000fd5b505050506040513d602081101561315d57600080fd5b810190808051906020019092919050505090508073ffffffffffffffffffffffffffffffffffffffff168660018151811061319457fe5b602002602001015173ffffffffffffffffffffffffffffffffffffffff1614613225576040517f08c379a00000000000000000000000000000000000000000000000000000000081526004018080602001828103825260178152602001807f4552525f454e445f504154485f4e4f545f52454445454d00000000000000000081525060200191505060405180910390fd5b61325089898373ffffffffffffffffffffffffffffffffffffffff166142069092919063ffffffff16565b60006133768a73ffffffffffffffffffffffffffffffffffffffff1662fe19fa6040518163ffffffff1660e01b815260040160206040518083038186803b15801561329a57600080fd5b505afa1580156132ae573d6000803e3d6000fd5b505050506040513d60208110156132c457600080fd5b81019080805190602001909291905050506133688c73ffffffffffffffffffffffffffffffffffffffff1663b592a1386040518163ffffffff1660e01b815260040160206040518083038186803b15801561331e57600080fd5b505afa158015613332573d6000803e3d6000fd5b505050506040513d602081101561334857600080fd5b81019080805190602001909291905050508c61430890919063ffffffff16565b61441690919063ffffffff16565b90506133a5868b838d73ffffffffffffffffffffffffffffffffffffffff16614460909392919063ffffffff16565b60008a73ffffffffffffffffffffffffffffffffffffffff166383499805306040518263ffffffff1660e01b8152600401808273ffffffffffffffffffffffffffffffffffffffff1673ffffffffffffffffffffffffffffffffffffffff168152602001915050606060405180830381600087803b15801561342657600080fd5b505af115801561343a573d6000803e3d6000fd5b505050506040513d606081101561345057600080fd5b810190808051906020019092919080519060200190929190805190602001909291905050509250505060008c9050600085905060608f73ffffffffffffffffffffffffffffffffffffffff16631f00ca748e8d6040518363ffffffff1660e01b81526004018083815260200180602001828103825283818151815260200191508051906020019060200280838360005b838110156134fb5780820151818401526020810190506134e0565b50505050905001935050505060006040518083038186803b15801561351f57600080fd5b505afa158015613533573d6000803e3d6000fd5b505050506040513d6000823e3d601f19601f82011682018060405250602081101561355d57600080fd5b810190808051604051939291908464010000000082111561357d57600080fd5b8382019150602082018581111561359357600080fd5b82518660208202830111640100000000821117156135b057600080fd5b8083526020830192505050908051906020019060200280838360005b838110156135e75780820151818401526020810190506135cc565b50505050905001604052505050905060008060008360008151811061360857fe5b60200260200101519050808711613620576000613634565b61363381886142be90919063ffffffff16565b5b9150600087821161364657600061365a565b61365988836142be90919063ffffffff16565b5b90506000811115613669578093505b60008311156136885761368583896142be90919063ffffffff16565b97505b50506136b585878673ffffffffffffffffffffffffffffffffffffffff166142069092919063ffffffff16565b600082111561376257808e1115613734576040517f08c379a00000000000000000000000000000000000000000000000000000000081526004018080602001828103825260138152602001807f4552525f4e454741544956455f5041594f55540000000000000000000000000081525060200191505060405180910390fd5b6137618c86848773ffffffffffffffffffffffffffffffffffffffff16614460909392919063ffffffff16565b5b600081111561380d578d8110156137e1576040517f08c379a00000000000000000000000000000000000000000000000000000000081526004018080602001828103825260158152602001807f4552525f5052454d49554d5f554e4445525f4d494e000000000000000000000081525060200191505060405180910390fd5b61380c8c828673ffffffffffffffffffffffffffffffffffffffff166142069092919063ffffffff16565b5b85819a509a5050505050505050505097509795505050505050565b60008060008973ffffffffffffffffffffffffffffffffffffffff16632f310bad6040518163ffffffff1660e01b815260040160206040518083038186803b15801561387357600080fd5b505afa158015613887573d6000803e3d6000fd5b505050506040513d602081101561389d57600080fd5b8101908080519060200190929190505050905060008d73ffffffffffffffffffffffffffffffffffffffff1663e6a43905838c6040518363ffffffff1660e01b8152600401808373ffffffffffffffffffffffffffffffffffffffff1673ffffffffffffffffffffffffffffffffffffffff1681526020018273ffffffffffffffffffffffffffffffffffffffff1673ffffffffffffffffffffffffffffffffffffffff1681526020019250505060206040518083038186803b15801561396357600080fd5b505afa158015613977573d6000803e3d6000fd5b505050506040513d602081101561398d57600080fd5b810190808051906020019092919050505090506139cd33308b8473ffffffffffffffffffffffffffffffffffffffff16614460909392919063ffffffff16565b8073ffffffffffffffffffffffffffffffffffffffff1663095ea7b38e7fffffffffffffffffffffffffffffffffffffffffffffffffffffffffffffffff6040518363ffffffff1660e01b8152600401808373ffffffffffffffffffffffffffffffffffffffff1673ffffffffffffffffffffffffffffffffffffffff16815260200182815260200192505050602060405180830381600087803b158015613a7457600080fd5b505af1158015613a88573d6000803e3d6000fd5b505050506040513d6020811015613a9e57600080fd5b810190808051906020019092919050505050506000808d73ffffffffffffffffffffffffffffffffffffffff1663baa2abde848d8d8d8d308d6040518863ffffffff1660e01b8152600401808873ffffffffffffffffffffffffffffffffffffffff1673ffffffffffffffffffffffffffffffffffffffff1681526020018773ffffffffffffffffffffffffffffffffffffffff1673ffffffffffffffffffffffffffffffffffffffff1681526020018681526020018581526020018481526020018373ffffffffffffffffffffffffffffffffffffffff1673ffffffffffffffffffffffffffffffffffffffff1681526020018281526020019750505050505050506040805180830381600087803b158015613bba57600080fd5b505af1158015613bce573d6000803e3d6000fd5b505050506040513d6040811015613be457600080fd5b8101908080519060200190929190805190602001909291905050509150915060008c90508073ffffffffffffffffffffffffffffffffffffffff1663095ea7b38f7fffffffffffffffffffffffffffffffffffffffffffffffffffffffffffffffff6040518363ffffffff1660e01b8152600401808373ffffffffffffffffffffffffffffffffffffffff1673ffffffffffffffffffffffffffffffffffffffff16815260200182815260200192505050602060405180830381600087803b158015613caf57600080fd5b505af1158015613cc3573d6000803e3d6000fd5b505050506040513d6020811015613cd957600080fd5b8101908080519060200190929190505050508373ffffffffffffffffffffffffffffffffffffffff1663095ea7b38f7fffffffffffffffffffffffffffffffffffffffffffffffffffffffffffffffff6040518363ffffffff1660e01b8152600401808373ffffffffffffffffffffffffffffffffffffffff1673ffffffffffffffffffffffffffffffffffffffff16815260200182815260200192505050602060405180830381600087803b158015613d9257600080fd5b505af1158015613da6573d6000803e3d6000fd5b505050506040513d6020811015613dbc57600080fd5b8101908080519060200190929190505050506000613f28670de0b6b3a7640000613f1a8473ffffffffffffffffffffffffffffffffffffffff1662fe19fa6040518163ffffffff1660e01b815260040160206040518083038186803b158015613e2457600080fd5b505afa158015613e38573d6000803e3d6000fd5b505050506040513d6020811015613e4e57600080fd5b8101908080519060200190929190505050613f0c670de0b6b3a7640000613efe8873ffffffffffffffffffffffffffffffffffffffff1663b592a1386040518163ffffffff1660e01b815260040160206040518083038186803b158015613eb457600080fd5b505afa158015613ec8573d6000803e3d6000fd5b505050506040513d6020811015613ede57600080fd5b81019080805190602001909291905050508b61430890919063ffffffff16565b61430890919063ffffffff16565b61441690919063ffffffff16565b61441690919063ffffffff16565b9050613f573330838573ffffffffffffffffffffffffffffffffffffffff16614460909392919063ffffffff16565b8e73ffffffffffffffffffffffffffffffffffffffff1663b8a6bb3b83838c6040518463ffffffff1660e01b8152600401808473ffffffffffffffffffffffffffffffffffffffff1673ffffffffffffffffffffffffffffffffffffffff1681526020018381526020018273ffffffffffffffffffffffffffffffffffffffff1673ffffffffffffffffffffffffffffffffffffffff1681526020019350505050606060405180830381600087803b15801561401257600080fd5b505af1158015614026573d6000803e3d6000fd5b505050506040513d606081101561403c57600080fd5b81019080805190602001909291908051906020019092919080519060200190929190505050505050505061409187828d73ffffffffffffffffffffffffffffffffffffffff166142069092919063ffffffff16565b8181945094505050509a509a98505050505050505050565b60008060006140b9898930614a5b565b9150915060008973ffffffffffffffffffffffffffffffffffffffff16632f310bad6040518163ffffffff1660e01b815260040160206040518083038186803b15801561410557600080fd5b505afa158015614119573d6000803e3d6000fd5b505050506040513d602081101561412f57600080fd5b8101908080519060200190929190505050905060006141538c83858c8c8c8c614c5b565b915050806141c9576040517f08c379a000000000000000000000000000000000000000000000000000000000815260040180806020018281038252600f8152602001807f4552525f535741505f4641494c4544000000000000000000000000000000000081525060200191505060405180910390fd5b6141f487858d73ffffffffffffffffffffffffffffffffffffffff166142069092919063ffffffff16565b80945050505050979650505050505050565b6142b98363a9059cbb60e01b8484604051602401808373ffffffffffffffffffffffffffffffffffffffff1673ffffffffffffffffffffffffffffffffffffffff16815260200182815260200192505050604051602081830303815290604052907bffffffffffffffffffffffffffffffffffffffffffffffffffffffff19166020820180517bffffffffffffffffffffffffffffffffffffffffffffffffffffffff8381831617835250505050614fbe565b505050565b600061430083836040518060400160405280601e81526020017f536166654d6174683a207375627472616374696f6e206f766572666c6f770000815250615209565b905092915050565b60008083141561431b5760009050614388565b600082840290508284828161432c57fe5b0414614383576040517f08c379a000000000000000000000000000000000000000000000000000000000815260040180806020018281038252602181526020018061542b6021913960400191505060405180910390fd5b809150505b92915050565b60008082840190508381101561440c576040517f08c379a000000000000000000000000000000000000000000000000000000000815260040180806020018281038252601b8152602001807f536166654d6174683a206164646974696f6e206f766572666c6f77000000000081525060200191505060405180910390fd5b8091505092915050565b600061445883836040518060400160405280601a81526020017f536166654d6174683a206469766973696f6e206279207a65726f0000000000008152506152c9565b905092915050565b614547846323b872dd60e01b858585604051602401808473ffffffffffffffffffffffffffffffffffffffff1673ffffffffffffffffffffffffffffffffffffffff1681526020018373ffffffffffffffffffffffffffffffffffffffff1673ffffffffffffffffffffffffffffffffffffffff1681526020018281526020019350505050604051602081830303815290604052907bffffffffffffffffffffffffffffffffffffffffffffffffffffffff19166020820180517bffffffffffffffffffffffffffffffffffffffffffffffffffffffff8381831617835250505050614fbe565b50505050565b600061457c3330888b73ffffffffffffffffffffffffffffffffffffffff16614460909392919063ffffffff16565b60008061458a8b8a30614a5b565b9150915060008b73ffffffffffffffffffffffffffffffffffffffff16632f310bad6040518163ffffffff1660e01b815260040160206040518083038186803b1580156145d657600080fd5b505afa1580156145ea573d6000803e3d6000fd5b505050506040513d602081101561460057600080fd5b810190808051906020019092919050505090508073ffffffffffffffffffffffffffffffffffffffff1663095ea7b38e7fffffffffffffffffffffffffffffffffffffffffffffffffffffffffffffffff6040518363ffffffff1660e01b8152600401808373ffffffffffffffffffffffffffffffffffffffff1673ffffffffffffffffffffffffffffffffffffffff16815260200182815260200192505050602060405180830381600087803b1580156146ba57600080fd5b505af11580156146ce573d6000803e3d6000fd5b505050506040513d60208110156146e457600080fd5b8101908080519060200190929190505050508a73ffffffffffffffffffffffffffffffffffffffff1663095ea7b38e7fffffffffffffffffffffffffffffffffffffffffffffffffffffffffffffffff6040518363ffffffff1660e01b8152600401808373ffffffffffffffffffffffffffffffffffffffff1673ffffffffffffffffffffffffffffffffffffffff16815260200182815260200192505050602060405180830381600087803b15801561479d57600080fd5b505af11580156147b1573d6000803e3d6000fd5b505050506040513d60208110156147c757600080fd5b8101908080519060200190929190505050508c73ffffffffffffffffffffffffffffffffffffffff1663e8e33700828d858d8d8d8d8d6040518963ffffffff1660e01b8152600401808973ffffffffffffffffffffffffffffffffffffffff1673ffffffffffffffffffffffffffffffffffffffff1681526020018873ffffffffffffffffffffffffffffffffffffffff1673ffffffffffffffffffffffffffffffffffffffff1681526020018781526020018681526020018581526020018481526020018373ffffffffffffffffffffffffffffffffffffffff1673ffffffffffffffffffffffffffffffffffffffff16815260200182815260200198505050505050505050606060405180830381600087803b1580156148e857600080fd5b505af11580156148fc573d6000803e3d6000fd5b505050506040513d606081101561491257600080fd5b8101908080519060200190929190805190602001909291908051906020019092919050505050505061496533848e73ffffffffffffffffffffffffffffffffffffffff166142069092919063ffffffff16565b614a47338c73ffffffffffffffffffffffffffffffffffffffff166370a08231306040518263ffffffff1660e01b8152600401808273ffffffffffffffffffffffffffffffffffffffff1673ffffffffffffffffffffffffffffffffffffffff16815260200191505060206040518083038186803b1580156149e657600080fd5b505afa1580156149fa573d6000803e3d6000fd5b505050506040513d6020811015614a1057600080fd5b81019080805190602001909291905050508d73ffffffffffffffffffffffffffffffffffffffff166142069092919063ffffffff16565b600193505050509998505050505050505050565b60008060008411614ad4576040517f08c379a00000000000000000000000000000000000000000000000000000000081526004018080602001828103825260088152602001807f4552525f5a45524f00000000000000000000000000000000000000000000000081525060200191505060405180910390fd5b614b813386868873ffffffffffffffffffffffffffffffffffffffff1663440f5fd26040518163ffffffff1660e01b815260040160206040518083038186803b158015614b2057600080fd5b505afa158015614b34573d6000803e3d6000fd5b505050506040513d6020811015614b4a57600080fd5b810190808051906020019092919050505073ffffffffffffffffffffffffffffffffffffffff16614460909392919063ffffffff16565b6000808673ffffffffffffffffffffffffffffffffffffffff1663fa9ad7c4866040518263ffffffff1660e01b8152600401808273ffffffffffffffffffffffffffffffffffffffff1673ffffffffffffffffffffffffffffffffffffffff1681526020019150506040805180830381600087803b158015614c0257600080fd5b505af1158015614c16573d6000803e3d6000fd5b505050506040513d6040811015614c2c57600080fd5b810190808051906020019092919080519060200190929190505050915091508181935093505050935093915050565b606060008773ffffffffffffffffffffffffffffffffffffffff1685600081518110614c8357fe5b602002602001015173ffffffffffffffffffffffffffffffffffffffff1614614d14576040517f08c379a00000000000000000000000000000000000000000000000000000000081526004018080602001828103825260158152602001807f4552525f504154485f4f5054494f4e5f5354415254000000000000000000000081525060200191505060405180910390fd5b8773ffffffffffffffffffffffffffffffffffffffff1663095ea7b38a7fffffffffffffffffffffffffffffffffffffffffffffffffffffffffffffffff6040518363ffffffff1660e01b8152600401808373ffffffffffffffffffffffffffffffffffffffff1673ffffffffffffffffffffffffffffffffffffffff16815260200182815260200192505050602060405180830381600087803b158015614dbb57600080fd5b505af1158015614dcf573d6000803e3d6000fd5b505050506040513d6020811015614de557600080fd5b8101908080519060200190929190505050508873ffffffffffffffffffffffffffffffffffffffff166338ed173988888888886040518663ffffffff1660e01b815260040180868152602001858152602001806020018473ffffffffffffffffffffffffffffffffffffffff1673ffffffffffffffffffffffffffffffffffffffff168152602001838152602001828103825285818151815260200191508051906020019060200280838360005b83811015614eae578082015181840152602081019050614e93565b505050509050019650505050505050600060405180830381600087803b158015614ed757600080fd5b505af1158015614eeb573d6000803e3d6000fd5b505050506040513d6000823e3d601f19601f820116820180604052506020811015614f1557600080fd5b8101908080516040519392919084640100000000821115614f3557600080fd5b83820191506020820185811115614f4b57600080fd5b8251866020820283011164010000000082111715614f6857600080fd5b8083526020830192505050908051906020019060200280838360005b83811015614f9f578082015181840152602081019050614f84565b5050505090500160405250505091506001905097509795505050505050565b614fdd8273ffffffffffffffffffffffffffffffffffffffff1661538f565b61504f576040517f08c379a000000000000000000000000000000000000000000000000000000000815260040180806020018281038252601f8152602001807f5361666545524332303a2063616c6c20746f206e6f6e2d636f6e74726163740081525060200191505060405180910390fd5b600060608373ffffffffffffffffffffffffffffffffffffffff16836040518082805190602001908083835b6020831061509e578051825260208201915060208101905060208303925061507b565b6001836020036101000a0380198251168184511680821785525050505050509050019150506000604051808303816000865af19150503d8060008114615100576040519150601f19603f3d011682016040523d82523d6000602084013e615105565b606091505b50915091508161517d576040517f08c379a00000000000000000000000000000000000000000000000000000000081526004018080602001828103825260208152602001807f5361666545524332303a206c6f772d6c6576656c2063616c6c206661696c656481525060200191505060405180910390fd5b6000815111156152035780806020019051602081101561519c57600080fd5b8101908080519060200190929190505050615202576040517f08c379a000000000000000000000000000000000000000000000000000000000815260040180806020018281038252602a81526020018061549c602a913960400191505060405180910390fd5b5b50505050565b60008383111582906152b6576040517f08c379a00000000000000000000000000000000000000000000000000000000081526004018080602001828103825283818151815260200191508051906020019080838360005b8381101561527b578082015181840152602081019050615260565b50505050905090810190601f1680156152a85780820380516001836020036101000a031916815260200191505b509250505060405180910390fd5b5060008385039050809150509392505050565b60008083118290615375576040517f08c379a00000000000000000000000000000000000000000000000000000000081526004018080602001828103825283818151815260200191508051906020019080838360005b8381101561533a57808201518184015260208101905061531f565b50505050905090810190601f1680156153675780820380516001836020036101000a031916815260200191505b509250505060405180910390fd5b50600083858161538157fe5b049050809150509392505050565b60008060007fc5d2460186f7233c927e7db2dcc703c0e500b653ca82273b7bfad8045d85a47060001b9050833f91508082141580156153d157506000801b8214155b9250505091905056fe666c617368436c6f73654c6f6e674f7074696f6e735468656e5377617028616464726573732c616464726573732c75696e743235362c75696e743235362c616464726573735b5d2c6164647265737329536166654d6174683a206d756c7469706c69636174696f6e206f766572666c6f77666c6173684d696e7453686f72744f7074696f6e735468656e5377617028616464726573732c616464726573732c75696e743235362c75696e743235362c616464726573735b5d2c61646472657373295361666545524332303a204552433230206f7065726174696f6e20646964206e6f742073756363656564a264697066735822122016a20c962f43d6482a302c59c04637fb9ae67a643447a2543b858330047161d364736f6c63430006020033",
  "devdoc": {
    "methods": {
      "addShortLiquidityWithUnderlying(address,address,uint256,uint256,uint256,uint256,address,uint256)": {
        "details": "Adds redeemToken liquidity to a redeem<>token pair by minting shortOptionTokens with underlyingTokens.",
        "params": {
          "deadline": "The timestamp to expire a pending transaction. \r",
          "minOtherTokens": "The minimum quantity of otherTokens expected to provide liquidity with.",
          "minShortTokens": "The minimum quantity of shortOptionTokens expected to provide liquidity with.",
          "optionAddress": "The address of the optionToken to get the redeemToken to mint then provide liquidity for.",
          "otherTokenAddress": "IMPORTANT: Should be the underlyingToken of option. Address of other reserve asset.",
          "quantityOptions": "The quantity of underlyingTokens to use to mint option + redeem tokens.",
          "quantityOtherTokens": "The quantity of otherTokens to add with shortOptionTokens to the Uniswap V2 Pair.",
          "to": "The address that receives UNI-V2 shares."
        }
      },
      "closeFlashLong(address,uint256,uint256)": {
        "details": "Closes a longOptionToken position by flash swapping in redeemTokens, closing the option, and paying back in underlyingTokens.",
        "params": {
          "amountRedeems": "The quantity of redeemTokens to borrow to close the options.",
          "minPayout": "The minimum payout of underlyingTokens sent out to the user. \r",
          "optionToken": "The address of the longOptionTokens to close."
        }
      },
      "deployUniswapMarket(address,address)": {
        "details": "Creates a UniswapV2Pair by calling `createPair` on the UniswapV2Factory."
      },
      "flashCloseLongOptionsThenSwap(address,address,uint256,uint256,address[],address)": {
        "details": "Sends shortOptionTokens to msg.sender, and pays back the UniswapV2Pair in underlyingTokens.",
        "params": {
          "flashLoanQuantity": "The quantity of shortOptionTokens borrowed to use to close longOptionTokens.",
          "minPayout": "The minimum payout of underlyingTokens sent to the `to` address.",
          "optionAddress": "The address of the longOptionTokes to close.",
          "pairAddress": "The address of the redeemToken<>underlyingToken UniswapV2Pair contract.",
          "path": "underlyingTokens -> shortOptionTokens, because we are paying the input of underlyingTokens.",
          "to": "The address which is sent the underlyingToken payout, or liable to pay for a negative payout."
        }
      },
      "flashMintShortOptionsThenSwap(address,address,uint256,uint256,address[],address)": {
        "details": "Receives underlyingTokens from a UniswapV2Pair.swap() call from a pair with reserve0 = shortOptionTokens and reserve1 = underlyingTokens. Uses underlyingTokens to mint long (option) + short (redeem) tokens. Sends longOptionTokens to msg.sender, and pays back the UniswapV2Pair the shortOptionTokens, AND any remainder quantity of underlyingTokens (paid by msg.sender).",
        "params": {
          "flashLoanQuantity": "The quantity of options to mint using borrowed underlyingTokens.",
          "maxPremium": "The maximum quantity of underlyingTokens to pay for the optionTokens.",
          "optionAddress": "The address of the Option contract.",
          "path": "The token addresses to trade through using their Uniswap V2 pools. Assumes path[0] = shortOptionToken.",
          "to": "The address to send the shortOptionToken proceeds and longOptionTokens to."
        },
        "returns": {
          "_0": "success bool Whether the transaction was successful or not. \r"
        }
      },
      "getName()": {
        "details": "Gets the name of the contract."
      },
      "getUniswapMarketForTokens(address,address)": {
        "details": "Gets a UniswapV2Pair address for two tokens by calling the UniswapV2Factory."
      },
      "getVersion()": {
        "details": "Gets the version of the contract."
      },
      "mintShortOptionsThenSwapToTokens(address,uint256,uint256,address[],address,uint256)": {
        "details": "Mints long + short option tokens, then swaps the shortOptionTokens (redeem) for tokens.",
        "params": {
          "amountIn": "The quantity of options to mint.",
          "amountOutMin": "The minimum quantity of tokens to receive in exchange for the shortOptionTokens.",
          "deadline": "The timestamp for a trade to fail at if not successful.",
          "optionToken": "The address of the Option contract.",
          "path": "The token addresses to trade through using their Uniswap V2 pools. Assumes path[0] = shortOptionToken.",
          "to": "The address to send the shortOptionToken proceeds and longOptionTokens to."
        },
        "returns": {
          "_0": "bool Whether the transaction was successful or not. \r"
        }
      },
      "openFlashLong(address,uint256,uint256)": {
        "details": "Opens a longOptionToken position by minting long + short tokens, then selling the short tokens.",
        "params": {
          "amountOptions": "The quantity of longOptionTokens to purchase.",
          "maxPremium": "The maximum quantity of underlyingTokens to pay for the optionTokens. \r",
          "optionToken": "The option address."
        }
      },
      "removeShortLiquidityThenCloseOptions(address,address,uint256,uint256,uint256,address,uint256)": {
        "details": "Combines Uniswap V2 Router \"removeLiquidity\" function with Primitive \"closeOptions\" function.",
        "params": {
          "amountAMin": "The minimum quantity of shortOptionTokens to receive from removing liquidity.",
          "amountBMin": "The minimum quantity of quoteTokens to receive from removing liquidity.",
          "deadline": "The timestamp to expire a pending transaction. \r",
          "liquidity": "The quantity of liquidity tokens to pull from msg.sender and burn.",
          "optionAddress": "The address of the option that will be closed from burned UNI-V2 liquidity shares.",
          "otherTokenAddress": "The address of the other token in the option pair.",
          "to": "The address that receives quoteTokens from burned UNI-V2, and underlyingTokens from closed options."
        }
      },
      "uniswapV2Call(address,uint256,uint256,bytes)": {
        "details": "The callback function triggered in a UniswapV2Pair.swap() call when the `data` parameter has data.",
        "params": {
          "amount0": "The quantity of token0 received to the `to` address in the swap() call.",
          "amount1": "The quantity of token1 received to the `to` address in the swap() call.",
          "data": "The payload passed in the `data` parameter of the swap() call. \r",
          "sender": "The original msg.sender of the UniswapV2Pair.swap() call."
        }
      }
    }
  },
  "userdoc": {
    "methods": {
      "addShortLiquidityWithUnderlying(address,address,uint256,uint256,uint256,uint256,address,uint256)": {
        "notice": "Pulls underlying tokens from msg.sender and pushes UNI-V2 liquidity tokens to the \"to\" address. underlyingToken -> redeemToken -> UNI-V2."
      },
      "closeFlashLong(address,uint256,uint256)": {
        "notice": "IMPORTANT: If minPayout is 0, this function will cost the caller to close the option, for no gain."
      },
      "flashCloseLongOptionsThenSwap(address,address,uint256,uint256,address[],address)": {
        "notice": "IMPORTANT: If minPayout is 0, the `to` address is liable for negative payouts *if* that occurs."
      },
      "flashMintShortOptionsThenSwap(address,address,uint256,uint256,address[],address)": {
        "notice": "If the first address in the path is not the shortOptionToken address, the tx will fail."
      },
      "mintShortOptionsThenSwapToTokens(address,uint256,uint256,address[],address,uint256)": {
        "notice": "If the first address in the path is not the shortOptionToken address, the tx will fail. underlyingToken -> shortOptionToken -> quoteToken. IMPORTANT: redeemTokens = shortOptionTokens"
      },
      "openFlashLong(address,uint256,uint256)": {
        "notice": "IMPORTANT: amountOutMin parameter is the price to swap shortOptionTokens to underlyingTokens. IMPORTANT: If the ratio between shortOptionTokens and underlyingTokens is 1:1, then only the swap fee (0.30%) has to be paid."
      },
      "removeShortLiquidityThenCloseOptions(address,address,uint256,uint256,uint256,address,uint256)": {
        "notice": "Pulls UNI-V2 liquidity shares with shortOption<>quote token, and optionTokens from msg.sender. Then closes the longOptionTokens and withdraws underlyingTokens to the \"to\" address. Sends quoteTokens from the burned UNI-V2 liquidity shares to the \"to\" address. UNI-V2 -> optionToken -> underlyingToken."
      }
    }
  },
  "storageLayout": {
    "storage": [
      {
        "astId": 1351,
        "contract": "contracts/connectors/Uniswap/UniswapConnector03.sol:UniswapConnector03",
        "label": "_notEntered",
        "offset": 0,
        "slot": "0",
        "type": "t_bool"
      },
      {
        "astId": 2274,
        "contract": "contracts/connectors/Uniswap/UniswapConnector03.sol:UniswapConnector03",
        "label": "trader",
        "offset": 1,
        "slot": "0",
        "type": "t_contract(ITrader)7211"
      },
      {
        "astId": 2277,
        "contract": "contracts/connectors/Uniswap/UniswapConnector03.sol:UniswapConnector03",
        "label": "factory",
        "offset": 0,
        "slot": "1",
        "type": "t_contract(IUniswapV2Factory)1454"
      },
      {
        "astId": 2280,
        "contract": "contracts/connectors/Uniswap/UniswapConnector03.sol:UniswapConnector03",
        "label": "router",
        "offset": 0,
        "slot": "2",
        "type": "t_contract(IUniswapV2Router02)2092"
      }
    ],
    "types": {
      "t_bool": {
        "encoding": "inplace",
        "label": "bool",
        "numberOfBytes": "1"
      },
      "t_contract(ITrader)7211": {
        "encoding": "inplace",
        "label": "contract ITrader",
        "numberOfBytes": "20"
      },
      "t_contract(IUniswapV2Factory)1454": {
        "encoding": "inplace",
        "label": "contract IUniswapV2Factory",
        "numberOfBytes": "20"
      },
      "t_contract(IUniswapV2Router02)2092": {
        "encoding": "inplace",
        "label": "contract IUniswapV2Router02",
        "numberOfBytes": "20"
      }
    }
  },
  "gasEstimates": {
    "creation": {
      "codeDepositCost": "4351000",
      "executionCost": "infinite",
      "totalCost": "infinite"
    },
    "external": {
      "addShortLiquidityWithUnderlying(address,address,uint256,uint256,uint256,uint256,address,uint256)": "infinite",
      "closeFlashLong(address,uint256,uint256)": "infinite",
      "deployUniswapMarket(address,address)": "infinite",
      "factory()": "1142",
      "flashCloseLongOptionsThenSwap(address,address,uint256,uint256,address[],address)": "infinite",
      "flashMintShortOptionsThenSwap(address,address,uint256,uint256,address[],address)": "infinite",
      "getName()": "infinite",
      "getUniswapMarketForTokens(address,address)": "infinite",
      "getVersion()": "249",
      "mintShortOptionsThenSwapToTokens(address,uint256,uint256,address[],address,uint256)": "infinite",
      "openFlashLong(address,uint256,uint256)": "infinite",
      "removeShortLiquidityThenCloseOptions(address,address,uint256,uint256,uint256,address,uint256)": "infinite",
      "router()": "1119",
      "trader()": "1171",
      "uniswapV2Call(address,uint256,uint256,bytes)": "infinite"
    }
  }
}