{
  "abi": [
    {
      "inputs": [
        {
          "internalType": "address payable",
          "name": "_weth",
          "type": "address"
        }
      ],
      "stateMutability": "nonpayable",
      "type": "constructor"
    },
    {
      "anonymous": false,
      "inputs": [
        {
          "indexed": true,
          "internalType": "address",
          "name": "from",
          "type": "address"
        },
        {
          "indexed": true,
          "internalType": "address",
          "name": "option",
          "type": "address"
        },
        {
          "indexed": false,
          "internalType": "uint256",
          "name": "inOptions",
          "type": "uint256"
        }
      ],
      "name": "WethConnectorClose",
      "type": "event"
    },
    {
      "anonymous": false,
      "inputs": [
        {
          "indexed": true,
          "internalType": "address",
          "name": "from",
          "type": "address"
        },
        {
          "indexed": true,
          "internalType": "address",
          "name": "option",
          "type": "address"
        },
        {
          "indexed": false,
          "internalType": "uint256",
          "name": "outUnderlyings",
          "type": "uint256"
        },
        {
          "indexed": false,
          "internalType": "uint256",
          "name": "inStrikes",
          "type": "uint256"
        }
      ],
      "name": "WethConnectorExercise",
      "type": "event"
    },
    {
      "anonymous": false,
      "inputs": [
        {
          "indexed": true,
          "internalType": "address",
          "name": "from",
          "type": "address"
        },
        {
          "indexed": true,
          "internalType": "address",
          "name": "option",
          "type": "address"
        },
        {
          "indexed": false,
          "internalType": "uint256",
          "name": "outputOptions",
          "type": "uint256"
        },
        {
          "indexed": false,
          "internalType": "uint256",
          "name": "outputRedeems",
          "type": "uint256"
        }
      ],
      "name": "WethConnectorMint",
      "type": "event"
    },
    {
      "anonymous": false,
      "inputs": [
        {
          "indexed": true,
          "internalType": "address",
          "name": "from",
          "type": "address"
        },
        {
          "indexed": true,
          "internalType": "address",
          "name": "option",
          "type": "address"
        },
        {
          "indexed": false,
          "internalType": "uint256",
          "name": "inRedeems",
          "type": "uint256"
        }
      ],
      "name": "WethConnectorRedeem",
      "type": "event"
    },
    {
      "anonymous": false,
      "inputs": [
        {
          "indexed": true,
          "internalType": "address",
          "name": "from",
          "type": "address"
        },
        {
          "indexed": true,
          "internalType": "address",
          "name": "option",
          "type": "address"
        },
        {
          "indexed": false,
          "internalType": "uint256",
          "name": "inOptions",
          "type": "uint256"
        }
      ],
      "name": "WethConnectorUnwind",
      "type": "event"
    },
    {
      "inputs": [],
      "name": "getName",
      "outputs": [
        {
          "internalType": "string",
          "name": "",
          "type": "string"
        }
      ],
      "stateMutability": "pure",
      "type": "function"
    },
    {
      "inputs": [],
      "name": "getVersion",
      "outputs": [
        {
          "internalType": "uint8",
          "name": "",
          "type": "uint8"
        }
      ],
      "stateMutability": "pure",
      "type": "function"
    },
    {
      "inputs": [
        {
          "internalType": "contract IOption",
          "name": "optionToken",
          "type": "address"
        },
        {
          "internalType": "uint256",
          "name": "closeQuantity",
          "type": "uint256"
        },
        {
          "internalType": "address",
          "name": "receiver",
          "type": "address"
        }
      ],
      "name": "safeCloseForETH",
      "outputs": [
        {
          "internalType": "uint256",
          "name": "",
          "type": "uint256"
        },
        {
          "internalType": "uint256",
          "name": "",
          "type": "uint256"
        },
        {
          "internalType": "uint256",
          "name": "",
          "type": "uint256"
        }
      ],
      "stateMutability": "nonpayable",
      "type": "function"
    },
    {
      "inputs": [
        {
          "internalType": "contract IOption",
          "name": "optionToken",
          "type": "address"
        },
        {
          "internalType": "uint256",
          "name": "exerciseQuantity",
          "type": "uint256"
        },
        {
          "internalType": "address",
          "name": "receiver",
          "type": "address"
        }
      ],
      "name": "safeExerciseForETH",
      "outputs": [
        {
          "internalType": "uint256",
          "name": "",
          "type": "uint256"
        },
        {
          "internalType": "uint256",
          "name": "",
          "type": "uint256"
        }
      ],
      "stateMutability": "nonpayable",
      "type": "function"
    },
    {
      "inputs": [
        {
          "internalType": "contract IOption",
          "name": "optionToken",
          "type": "address"
        },
        {
          "internalType": "address",
          "name": "receiver",
          "type": "address"
        }
      ],
      "name": "safeExerciseWithETH",
      "outputs": [
        {
          "internalType": "uint256",
          "name": "",
          "type": "uint256"
        },
        {
          "internalType": "uint256",
          "name": "",
          "type": "uint256"
        }
      ],
      "stateMutability": "payable",
      "type": "function"
    },
    {
      "inputs": [
        {
          "internalType": "contract IOption",
          "name": "optionToken",
          "type": "address"
        },
        {
          "internalType": "address",
          "name": "receiver",
          "type": "address"
        }
      ],
      "name": "safeMintWithETH",
      "outputs": [
        {
          "internalType": "uint256",
          "name": "",
          "type": "uint256"
        },
        {
          "internalType": "uint256",
          "name": "",
          "type": "uint256"
        }
      ],
      "stateMutability": "payable",
      "type": "function"
    },
    {
      "inputs": [
        {
          "internalType": "contract IOption",
          "name": "optionToken",
          "type": "address"
        },
        {
          "internalType": "uint256",
          "name": "redeemQuantity",
          "type": "uint256"
        },
        {
          "internalType": "address",
          "name": "receiver",
          "type": "address"
        }
      ],
      "name": "safeRedeemForETH",
      "outputs": [
        {
          "internalType": "uint256",
          "name": "",
          "type": "uint256"
        }
      ],
      "stateMutability": "nonpayable",
      "type": "function"
    },
    {
      "inputs": [
        {
          "internalType": "contract IOption",
          "name": "optionToken",
          "type": "address"
        },
        {
          "internalType": "uint256",
          "name": "unwindQuantity",
          "type": "uint256"
        },
        {
          "internalType": "address",
          "name": "receiver",
          "type": "address"
        }
      ],
      "name": "safeUnwindForETH",
      "outputs": [
        {
          "internalType": "uint256",
          "name": "",
          "type": "uint256"
        },
        {
          "internalType": "uint256",
          "name": "",
          "type": "uint256"
        },
        {
          "internalType": "uint256",
          "name": "",
          "type": "uint256"
        }
      ],
      "stateMutability": "nonpayable",
      "type": "function"
    },
    {
      "inputs": [],
      "name": "weth",
      "outputs": [
        {
          "internalType": "contract IWETH",
          "name": "",
          "type": "address"
        }
      ],
      "stateMutability": "view",
      "type": "function"
    },
    {
      "stateMutability": "payable",
      "type": "receive"
    }
  ],
  "address": "0x8B5B7a6055E54a36fF574bbE40cf2eA68d5554b3",
  "args": [
    "0x500D1d6A4c7D8Ae28240b47c8FCde034D827fD5e"
  ],
  "solcInputHash": "0xbc9939ca20ca4ee4bf6c33d16c07e9cecb0e0dfc518366b59600532a1bb04360",
  "bytecode": "0x608060405234801561001057600080fd5b50604051613c89380380613c898339818101604052602081101561003357600080fd5b810190808051906020019092919050505060016000806101000a81548160ff02191690831515021790555080600060016101000a81548173ffffffffffffffffffffffffffffffffffffffff021916908373ffffffffffffffffffffffffffffffffffffffff16021790555050613bda806100af6000396000f3fe60806040526004361061008a5760003560e01c80636ba17e7a116100595780636ba17e7a146102a25780636db8ce241461033f57806380e42f8e146103d55780638549780b14610454578063c9c9163e146104d3576100e8565b80630d8e6e2c146100ed57806317d7de7c1461011e5780633fc8cef3146101ae57806350e2f0ba14610205576100e8565b366100e857600060019054906101000a900473ffffffffffffffffffffffffffffffffffffffff1673ffffffffffffffffffffffffffffffffffffffff163373ffffffffffffffffffffffffffffffffffffffff16146100e657fe5b005b600080fd5b3480156100f957600080fd5b50610102610562565b604051808260ff1660ff16815260200191505060405180910390f35b34801561012a57600080fd5b5061013361056b565b6040518080602001828103825283818151815260200191508051906020019080838360005b83811015610173578082015181840152602081019050610158565b50505050905090810190601f1680156101a05780820380516001836020036101000a031916815260200191505b509250505060405180910390f35b3480156101ba57600080fd5b506101c36105a8565b604051808273ffffffffffffffffffffffffffffffffffffffff1673ffffffffffffffffffffffffffffffffffffffff16815260200191505060405180910390f35b34801561021157600080fd5b5061027e6004803603606081101561022857600080fd5b81019080803573ffffffffffffffffffffffffffffffffffffffff16906020019092919080359060200190929190803573ffffffffffffffffffffffffffffffffffffffff1690602001909291905050506105ce565b60405180848152602001838152602001828152602001935050505060405180910390f35b3480156102ae57600080fd5b5061031b600480360360608110156102c557600080fd5b81019080803573ffffffffffffffffffffffffffffffffffffffff16906020019092919080359060200190929190803573ffffffffffffffffffffffffffffffffffffffff1690602001909291905050506107b3565b60405180848152602001838152602001828152602001935050505060405180910390f35b34801561034b57600080fd5b506103b86004803603606081101561036257600080fd5b81019080803573ffffffffffffffffffffffffffffffffffffffff16906020019092919080359060200190929190803573ffffffffffffffffffffffffffffffffffffffff169060200190929190505050610998565b604051808381526020018281526020019250505060405180910390f35b610437600480360360408110156103eb57600080fd5b81019080803573ffffffffffffffffffffffffffffffffffffffff169060200190929190803573ffffffffffffffffffffffffffffffffffffffff169060200190929190505050610b7a565b604051808381526020018281526020019250505060405180910390f35b6104b66004803603604081101561046a57600080fd5b81019080803573ffffffffffffffffffffffffffffffffffffffff169060200190929190803573ffffffffffffffffffffffffffffffffffffffff169060200190929190505050610d5a565b604051808381526020018281526020019250505060405180910390f35b3480156104df57600080fd5b5061054c600480360360608110156104f657600080fd5b81019080803573ffffffffffffffffffffffffffffffffffffffff16906020019092919080359060200190929190803573ffffffffffffffffffffffffffffffffffffffff169060200190929190505050610f3a565b6040518082815260200191505060405180910390f35b60006001905090565b60606040518060400160405280601a81526020017f5072696d6974697665563157657468436f6e6e6563746f723031000000000000815250905090565b600060019054906101000a900473ffffffffffffffffffffffffffffffffffffffff1681565b60008060008060009054906101000a900460ff16610654576040517f08c379a000000000000000000000000000000000000000000000000000000000815260040180806020018281038252601f8152602001807f5265656e7472616e637947756172643a207265656e7472616e742063616c6c0081525060200191505060405180910390fd5b60008060006101000a81548160ff02191690831515021790555084600081116106e5576040517f08c379a00000000000000000000000000000000000000000000000000000000081526004018080602001828103825260088152602001807f4552525f5a45524f00000000000000000000000000000000000000000000000081525060200191505060405180910390fd5b6000806000610718600060019054906101000a900473ffffffffffffffffffffffffffffffffffffffff168b8b8b61110b565b9250925092508973ffffffffffffffffffffffffffffffffffffffff163373ffffffffffffffffffffffffffffffffffffffff167fc2978904886e008311e365b3205f995713757c94ed5280ae009e4aef94f16496846040518082815260200191505060405180910390a38282829650965096505050505060016000806101000a81548160ff02191690831515021790555093509350939050565b60008060008060009054906101000a900460ff16610839576040517f08c379a000000000000000000000000000000000000000000000000000000000815260040180806020018281038252601f8152602001807f5265656e7472616e637947756172643a207265656e7472616e742063616c6c0081525060200191505060405180910390fd5b60008060006101000a81548160ff02191690831515021790555084600081116108ca576040517f08c379a00000000000000000000000000000000000000000000000000000000081526004018080602001828103825260088152602001807f4552525f5a45524f00000000000000000000000000000000000000000000000081525060200191505060405180910390fd5b60008060006108fd600060019054906101000a900473ffffffffffffffffffffffffffffffffffffffff168b8b8b611889565b9250925092508973ffffffffffffffffffffffffffffffffffffffff163373ffffffffffffffffffffffffffffffffffffffff167f1a00f9a182cd4b3a17f7d615d9844efbfd01db2c8cc67af671013bcc8449ebe9846040518082815260200191505060405180910390a38282829650965096505050505060016000806101000a81548160ff02191690831515021790555093509350939050565b6000806000809054906101000a900460ff16610a1c576040517f08c379a000000000000000000000000000000000000000000000000000000000815260040180806020018281038252601f8152602001807f5265656e7472616e637947756172643a207265656e7472616e742063616c6c0081525060200191505060405180910390fd5b60008060006101000a81548160ff0219169083151502179055508360008111610aad576040517f08c379a00000000000000000000000000000000000000000000000000000000081526004018080602001828103825260088152602001807f4552525f5a45524f00000000000000000000000000000000000000000000000081525060200191505060405180910390fd5b600080610ade600060019054906101000a900473ffffffffffffffffffffffffffffffffffffffff16898989611fa2565b915091508773ffffffffffffffffffffffffffffffffffffffff163373ffffffffffffffffffffffffffffffffffffffff167f8116e544573ccde45984e7f3d841fa5423c10bf9b307b3d8fc2bff17e75c5f3c8985604051808381526020018281526020019250505060405180910390a381819450945050505060016000806101000a81548160ff021916908315150217905550935093915050565b6000806000809054906101000a900460ff16610bfe576040517f08c379a000000000000000000000000000000000000000000000000000000000815260040180806020018281038252601f8152602001807f5265656e7472616e637947756172643a207265656e7472616e742063616c6c0081525060200191505060405180910390fd5b60008060006101000a81548160ff0219169083151502179055503460008111610c8f576040517f08c379a00000000000000000000000000000000000000000000000000000000081526004018080602001828103825260088152602001807f4552525f5a45524f00000000000000000000000000000000000000000000000081525060200191505060405180910390fd5b600080610cbf600060019054906101000a900473ffffffffffffffffffffffffffffffffffffffff168888612738565b915091508673ffffffffffffffffffffffffffffffffffffffff163373ffffffffffffffffffffffffffffffffffffffff167f8116e544573ccde45984e7f3d841fa5423c10bf9b307b3d8fc2bff17e75c5f3c8385604051808381526020018281526020019250505060405180910390a381819450945050505060016000806101000a81548160ff0219169083151502179055509250929050565b6000806000809054906101000a900460ff16610dde576040517f08c379a000000000000000000000000000000000000000000000000000000000815260040180806020018281038252601f8152602001807f5265656e7472616e637947756172643a207265656e7472616e742063616c6c0081525060200191505060405180910390fd5b60008060006101000a81548160ff0219169083151502179055503460008111610e6f576040517f08c379a00000000000000000000000000000000000000000000000000000000081526004018080602001828103825260088152602001807f4552525f5a45524f00000000000000000000000000000000000000000000000081525060200191505060405180910390fd5b600080610e9f600060019054906101000a900473ffffffffffffffffffffffffffffffffffffffff168888612cef565b915091508673ffffffffffffffffffffffffffffffffffffffff163373ffffffffffffffffffffffffffffffffffffffff167f1e752b80e2c0de1d3c2ac440e30be61d90fa63d0946c9f913545d28941a1ce3a8484604051808381526020018281526020019250505060405180910390a381819450945050505060016000806101000a81548160ff0219169083151502179055509250929050565b60008060009054906101000a900460ff16610fbd576040517f08c379a000000000000000000000000000000000000000000000000000000000815260040180806020018281038252601f8152602001807f5265656e7472616e637947756172643a207265656e7472616e742063616c6c0081525060200191505060405180910390fd5b60008060006101000a81548160ff021916908315150217905550826000811161104e576040517f08c379a00000000000000000000000000000000000000000000000000000000081526004018080602001828103825260088152602001807f4552525f5a45524f00000000000000000000000000000000000000000000000081525060200191505060405180910390fd5b600061107e600060019054906101000a900473ffffffffffffffffffffffffffffffffffffffff16878787612f75565b90508573ffffffffffffffffffffffffffffffffffffffff163373ffffffffffffffffffffffffffffffffffffffff167fee58565c86b9cdb0f760bea68a01784c06f947b47c38d1314832cc9a7b279499836040518082815260200191505060405180910390a3809250505060016000806101000a81548160ff0219169083151502179055509392505050565b60008060008460008111611187576040517f08c379a00000000000000000000000000000000000000000000000000000000081526004018080602001828103825260088152602001807f4552525f5a45524f00000000000000000000000000000000000000000000000081525060200191505060405180910390fd5b60008773ffffffffffffffffffffffffffffffffffffffff1663440f5fd26040518163ffffffff1660e01b815260040160206040518083038186803b1580156111cf57600080fd5b505afa1580156111e3573d6000803e3d6000fd5b505050506040513d60208110156111f957600080fd5b810190808051906020019092919050505090508073ffffffffffffffffffffffffffffffffffffffff168973ffffffffffffffffffffffffffffffffffffffff16146112ad576040517f08c379a000000000000000000000000000000000000000000000000000000000815260040180806020018281038252600c8152602001807f4552525f4e4f545f57455448000000000000000000000000000000000000000081525060200191505060405180910390fd5b868873ffffffffffffffffffffffffffffffffffffffff166370a08231336040518263ffffffff1660e01b8152600401808273ffffffffffffffffffffffffffffffffffffffff1673ffffffffffffffffffffffffffffffffffffffff16815260200191505060206040518083038186803b15801561132b57600080fd5b505afa15801561133f573d6000803e3d6000fd5b505050506040513d602081101561135557600080fd5b810190808051906020019092919050505010156113da576040517f08c379a000000000000000000000000000000000000000000000000000000000815260040180806020018281038252600f8152602001807f4552525f42414c5f4f5054494f4e53000000000000000000000000000000000081525060200191505060405180910390fd5b60006115008973ffffffffffffffffffffffffffffffffffffffff1663b592a1386040518163ffffffff1660e01b815260040160206040518083038186803b15801561142557600080fd5b505afa158015611439573d6000803e3d6000fd5b505050506040513d602081101561144f57600080fd5b81019080805190602001909291905050506114f28b73ffffffffffffffffffffffffffffffffffffffff1662fe19fa6040518163ffffffff1660e01b815260040160206040518083038186803b1580156114a857600080fd5b505afa1580156114bc573d6000803e3d6000fd5b505050506040513d60208110156114d257600080fd5b81019080805190602001909291905050508b6133cb90919063ffffffff16565b61345190919063ffffffff16565b9050808973ffffffffffffffffffffffffffffffffffffffff16632f310bad6040518163ffffffff1660e01b815260040160206040518083038186803b15801561154957600080fd5b505afa15801561155d573d6000803e3d6000fd5b505050506040513d602081101561157357600080fd5b810190808051906020019092919050505073ffffffffffffffffffffffffffffffffffffffff166370a08231336040518263ffffffff1660e01b8152600401808273ffffffffffffffffffffffffffffffffffffffff1673ffffffffffffffffffffffffffffffffffffffff16815260200191505060206040518083038186803b15801561160057600080fd5b505afa158015611614573d6000803e3d6000fd5b505050506040513d602081101561162a57600080fd5b810190808051906020019092919050505010156116af576040517f08c379a000000000000000000000000000000000000000000000000000000000815260040180806020018281038252600e8152602001807f4552525f42414c5f52454445454d00000000000000000000000000000000000081525060200191505060405180910390fd5b61175c338a838c73ffffffffffffffffffffffffffffffffffffffff16632f310bad6040518163ffffffff1660e01b815260040160206040518083038186803b1580156116fb57600080fd5b505afa15801561170f573d6000803e3d6000fd5b505050506040513d602081101561172557600080fd5b810190808051906020019092919050505073ffffffffffffffffffffffffffffffffffffffff1661349b909392919063ffffffff16565b611789338a8a8c73ffffffffffffffffffffffffffffffffffffffff1661349b909392919063ffffffff16565b6000808a73ffffffffffffffffffffffffffffffffffffffff166383499805306040518263ffffffff1660e01b8152600401808273ffffffffffffffffffffffffffffffffffffffff1673ffffffffffffffffffffffffffffffffffffffff168152602001915050606060405180830381600087803b15801561180b57600080fd5b505af115801561181f573d6000803e3d6000fd5b505050506040513d606081101561183557600080fd5b810190808051906020019092919080519060200190929190805190602001909291905050508093508194508295505050506118718c8a8c613588565b82828297509750975050505050509450945094915050565b60008060008460008111611905576040517f08c379a00000000000000000000000000000000000000000000000000000000081526004018080602001828103825260088152602001807f4552525f5a45524f00000000000000000000000000000000000000000000000081525060200191505060405180910390fd5b60008773ffffffffffffffffffffffffffffffffffffffff1663440f5fd26040518163ffffffff1660e01b815260040160206040518083038186803b15801561194d57600080fd5b505afa158015611961573d6000803e3d6000fd5b505050506040513d602081101561197757600080fd5b810190808051906020019092919050505090508073ffffffffffffffffffffffffffffffffffffffff168973ffffffffffffffffffffffffffffffffffffffff1614611a2b576040517f08c379a000000000000000000000000000000000000000000000000000000000815260040180806020018281038252600c8152602001807f4552525f4e4f545f57455448000000000000000000000000000000000000000081525060200191505060405180910390fd5b428873ffffffffffffffffffffffffffffffffffffffff166325cb5bc06040518163ffffffff1660e01b815260040160206040518083038186803b158015611a7257600080fd5b505afa158015611a86573d6000803e3d6000fd5b505050506040513d6020811015611a9c57600080fd5b810190808051906020019092919050505010611b20576040517f08c379a000000000000000000000000000000000000000000000000000000000815260040180806020018281038252600f8152602001807f4552525f4e4f545f45585049524544000000000000000000000000000000000081525060200191505060405180910390fd5b6000611c468973ffffffffffffffffffffffffffffffffffffffff1663b592a1386040518163ffffffff1660e01b815260040160206040518083038186803b158015611b6b57600080fd5b505afa158015611b7f573d6000803e3d6000fd5b505050506040513d6020811015611b9557600080fd5b8101908080519060200190929190505050611c388b73ffffffffffffffffffffffffffffffffffffffff1662fe19fa6040518163ffffffff1660e01b815260040160206040518083038186803b158015611bee57600080fd5b505afa158015611c02573d6000803e3d6000fd5b505050506040513d6020811015611c1857600080fd5b81019080805190602001909291905050508b6133cb90919063ffffffff16565b61345190919063ffffffff16565b9050808973ffffffffffffffffffffffffffffffffffffffff16632f310bad6040518163ffffffff1660e01b815260040160206040518083038186803b158015611c8f57600080fd5b505afa158015611ca3573d6000803e3d6000fd5b505050506040513d6020811015611cb957600080fd5b810190808051906020019092919050505073ffffffffffffffffffffffffffffffffffffffff166370a08231336040518263ffffffff1660e01b8152600401808273ffffffffffffffffffffffffffffffffffffffff1673ffffffffffffffffffffffffffffffffffffffff16815260200191505060206040518083038186803b158015611d4657600080fd5b505afa158015611d5a573d6000803e3d6000fd5b505050506040513d6020811015611d7057600080fd5b81019080805190602001909291905050501015611df5576040517f08c379a000000000000000000000000000000000000000000000000000000000815260040180806020018281038252600e8152602001807f4552525f42414c5f52454445454d00000000000000000000000000000000000081525060200191505060405180910390fd5b611ea2338a838c73ffffffffffffffffffffffffffffffffffffffff16632f310bad6040518163ffffffff1660e01b815260040160206040518083038186803b158015611e4157600080fd5b505afa158015611e55573d6000803e3d6000fd5b505050506040513d6020811015611e6b57600080fd5b810190808051906020019092919050505073ffffffffffffffffffffffffffffffffffffffff1661349b909392919063ffffffff16565b6000808a73ffffffffffffffffffffffffffffffffffffffff166383499805306040518263ffffffff1660e01b8152600401808273ffffffffffffffffffffffffffffffffffffffff1673ffffffffffffffffffffffffffffffffffffffff168152602001915050606060405180830381600087803b158015611f2457600080fd5b505af1158015611f38573d6000803e3d6000fd5b505050506040513d6060811015611f4e57600080fd5b81019080805190602001909291908051906020019092919080519060200190929190505050809350819450829550505050611f8a8c8a8c613588565b82828297509750975050505050509450945094915050565b600080836000811161201c576040517f08c379a00000000000000000000000000000000000000000000000000000000081526004018080602001828103825260088152602001807f4552525f5a45524f00000000000000000000000000000000000000000000000081525060200191505060405180910390fd5b60008673ffffffffffffffffffffffffffffffffffffffff1663440f5fd26040518163ffffffff1660e01b815260040160206040518083038186803b15801561206457600080fd5b505afa158015612078573d6000803e3d6000fd5b505050506040513d602081101561208e57600080fd5b8101908080519060200190929190505050905060008773ffffffffffffffffffffffffffffffffffffffff1663a1a407616040518163ffffffff1660e01b815260040160206040518083038186803b1580156120e957600080fd5b505afa1580156120fd573d6000803e3d6000fd5b505050506040513d602081101561211357600080fd5b810190808051906020019092919050505090508873ffffffffffffffffffffffffffffffffffffffff168273ffffffffffffffffffffffffffffffffffffffff16146121c7576040517f08c379a000000000000000000000000000000000000000000000000000000000815260040180806020018281038252600c8152602001807f4552525f4e4f545f57455448000000000000000000000000000000000000000081525060200191505060405180910390fd5b868873ffffffffffffffffffffffffffffffffffffffff166370a08231336040518263ffffffff1660e01b8152600401808273ffffffffffffffffffffffffffffffffffffffff1673ffffffffffffffffffffffffffffffffffffffff16815260200191505060206040518083038186803b15801561224557600080fd5b505afa158015612259573d6000803e3d6000fd5b505050506040513d602081101561226f57600080fd5b810190808051906020019092919050505010156122f4576040517f08c379a000000000000000000000000000000000000000000000000000000000815260040180806020018281038252600f8152602001807f4552525f42414c5f4f5054494f4e53000000000000000000000000000000000081525060200191505060405180910390fd5b600061241a8973ffffffffffffffffffffffffffffffffffffffff1663b592a1386040518163ffffffff1660e01b815260040160206040518083038186803b15801561233f57600080fd5b505afa158015612353573d6000803e3d6000fd5b505050506040513d602081101561236957600080fd5b810190808051906020019092919050505061240c8b73ffffffffffffffffffffffffffffffffffffffff1662fe19fa6040518163ffffffff1660e01b815260040160206040518083038186803b1580156123c257600080fd5b505afa1580156123d6573d6000803e3d6000fd5b505050506040513d60208110156123ec57600080fd5b81019080805190602001909291905050508b6133cb90919063ffffffff16565b61345190919063ffffffff16565b9050808273ffffffffffffffffffffffffffffffffffffffff166370a08231336040518263ffffffff1660e01b8152600401808273ffffffffffffffffffffffffffffffffffffffff1673ffffffffffffffffffffffffffffffffffffffff16815260200191505060206040518083038186803b15801561249a57600080fd5b505afa1580156124ae573d6000803e3d6000fd5b505050506040513d60208110156124c457600080fd5b81019080805190602001909291905050501015612549576040517f08c379a000000000000000000000000000000000000000000000000000000000815260040180806020018281038252600e8152602001807f4552525f42414c5f535452494b4500000000000000000000000000000000000081525060200191505060405180910390fd5b612576338a838573ffffffffffffffffffffffffffffffffffffffff1661349b909392919063ffffffff16565b6125a3338a8a8c73ffffffffffffffffffffffffffffffffffffffff1661349b909392919063ffffffff16565b60008973ffffffffffffffffffffffffffffffffffffffff1663787eae30308b60006040519080825280601f01601f1916602001820160405280156125f75781602001600182028038833980820191505090505b506040518463ffffffff1660e01b8152600401808473ffffffffffffffffffffffffffffffffffffffff1673ffffffffffffffffffffffffffffffffffffffff16815260200183815260200180602001828103825283818151815260200191508051906020019080838360005b8381101561267f578082015181840152602081019050612664565b50505050905090810190601f1680156126ac5780820380516001836020036101000a031916815260200191505b509450505050506040805180830381600087803b1580156126cc57600080fd5b505af11580156126e0573d6000803e3d6000fd5b505050506040513d60408110156126f657600080fd5b81019080805190602001909291908051906020019092919050505080925081935050506127248b898b613588565b818196509650505050505094509492505050565b60008034600081116127b2576040517f08c379a00000000000000000000000000000000000000000000000000000000081526004018080602001828103825260088152602001807f4552525f5a45524f00000000000000000000000000000000000000000000000081525060200191505060405180910390fd5b60008573ffffffffffffffffffffffffffffffffffffffff1663a1a407616040518163ffffffff1660e01b815260040160206040518083038186803b1580156127fa57600080fd5b505afa15801561280e573d6000803e3d6000fd5b505050506040513d602081101561282457600080fd5b810190808051906020019092919050505090508673ffffffffffffffffffffffffffffffffffffffff168173ffffffffffffffffffffffffffffffffffffffff16146128d8576040517f08c379a000000000000000000000000000000000000000000000000000000000815260040180806020018281038252600c8152602001807f4552525f4e4f545f57455448000000000000000000000000000000000000000081525060200191505060405180910390fd5b60003490506000612a038873ffffffffffffffffffffffffffffffffffffffff1662fe19fa6040518163ffffffff1660e01b815260040160206040518083038186803b15801561292757600080fd5b505afa15801561293b573d6000803e3d6000fd5b505050506040513d602081101561295157600080fd5b81019080805190602001909291905050506129f58a73ffffffffffffffffffffffffffffffffffffffff1663b592a1386040518163ffffffff1660e01b815260040160206040518083038186803b1580156129ab57600080fd5b505afa1580156129bf573d6000803e3d6000fd5b505050506040513d60208110156129d557600080fd5b8101908080519060200190929190505050856133cb90919063ffffffff16565b61345190919063ffffffff16565b9050808873ffffffffffffffffffffffffffffffffffffffff166370a08231336040518263ffffffff1660e01b8152600401808273ffffffffffffffffffffffffffffffffffffffff1673ffffffffffffffffffffffffffffffffffffffff16815260200191505060206040518083038186803b158015612a8357600080fd5b505afa158015612a97573d6000803e3d6000fd5b505050506040513d6020811015612aad57600080fd5b81019080805190602001909291905050501015612b32576040517f08c379a000000000000000000000000000000000000000000000000000000000815260040180806020018281038252600f8152602001807f4552525f42414c5f4f5054494f4e53000000000000000000000000000000000081525060200191505060405180910390fd5b612b3c89896136d5565b612b693389838b73ffffffffffffffffffffffffffffffffffffffff1661349b909392919063ffffffff16565b8773ffffffffffffffffffffffffffffffffffffffff1663787eae30888360006040519080825280601f01601f191660200182016040528015612bbb5781602001600182028038833980820191505090505b506040518463ffffffff1660e01b8152600401808473ffffffffffffffffffffffffffffffffffffffff1673ffffffffffffffffffffffffffffffffffffffff16815260200183815260200180602001828103825283818151815260200191508051906020019080838360005b83811015612c43578082015181840152602081019050612c28565b50505050905090810190601f168015612c705780820380516001836020036101000a031916815260200191505b509450505050506040805180830381600087803b158015612c9057600080fd5b505af1158015612ca4573d6000803e3d6000fd5b505050506040513d6040811015612cba57600080fd5b810190808051906020019092919080519060200190929190505050809250819350505081819550955050505050935093915050565b6000803460008111612d69576040517f08c379a00000000000000000000000000000000000000000000000000000000081526004018080602001828103825260088152602001807f4552525f5a45524f00000000000000000000000000000000000000000000000081525060200191505060405180910390fd5b60008573ffffffffffffffffffffffffffffffffffffffff1663440f5fd26040518163ffffffff1660e01b815260040160206040518083038186803b158015612db157600080fd5b505afa158015612dc5573d6000803e3d6000fd5b505050506040513d6020811015612ddb57600080fd5b810190808051906020019092919050505090508073ffffffffffffffffffffffffffffffffffffffff168773ffffffffffffffffffffffffffffffffffffffff1614612e8f576040517f08c379a000000000000000000000000000000000000000000000000000000000815260040180806020018281038252600c8152602001807f4552525f4e4f545f57455448000000000000000000000000000000000000000081525060200191505060405180910390fd5b612e9987876136d5565b6000808773ffffffffffffffffffffffffffffffffffffffff1663fa9ad7c4886040518263ffffffff1660e01b8152600401808273ffffffffffffffffffffffffffffffffffffffff1673ffffffffffffffffffffffffffffffffffffffff1681526020019150506040805180830381600087803b158015612f1a57600080fd5b505af1158015612f2e573d6000803e3d6000fd5b505050506040513d6040811015612f4457600080fd5b8101908080519060200190929190805190602001909291905050509150915081819550955050505050935093915050565b60008260008111612fee576040517f08c379a00000000000000000000000000000000000000000000000000000000081526004018080602001828103825260088152602001807f4552525f5a45524f00000000000000000000000000000000000000000000000081525060200191505060405180910390fd5b60008573ffffffffffffffffffffffffffffffffffffffff1663a1a407616040518163ffffffff1660e01b815260040160206040518083038186803b15801561303657600080fd5b505afa15801561304a573d6000803e3d6000fd5b505050506040513d602081101561306057600080fd5b810190808051906020019092919050505090508673ffffffffffffffffffffffffffffffffffffffff168173ffffffffffffffffffffffffffffffffffffffff1614613114576040517f08c379a000000000000000000000000000000000000000000000000000000000815260040180806020018281038252600c8152602001807f4552525f4e4f545f57455448000000000000000000000000000000000000000081525060200191505060405180910390fd5b60008673ffffffffffffffffffffffffffffffffffffffff16632f310bad6040518163ffffffff1660e01b815260040160206040518083038186803b15801561315c57600080fd5b505afa158015613170573d6000803e3d6000fd5b505050506040513d602081101561318657600080fd5b81019080805190602001909291905050509050858173ffffffffffffffffffffffffffffffffffffffff166370a08231336040518263ffffffff1660e01b8152600401808273ffffffffffffffffffffffffffffffffffffffff1673ffffffffffffffffffffffffffffffffffffffff16815260200191505060206040518083038186803b15801561321757600080fd5b505afa15801561322b573d6000803e3d6000fd5b505050506040513d602081101561324157600080fd5b810190808051906020019092919050505010156132c6576040517f08c379a000000000000000000000000000000000000000000000000000000000815260040180806020018281038252600e8152602001807f4552525f42414c5f52454445454d00000000000000000000000000000000000081525060200191505060405180910390fd5b6132f33388888473ffffffffffffffffffffffffffffffffffffffff1661349b909392919063ffffffff16565b60008773ffffffffffffffffffffffffffffffffffffffff16635e86929d306040518263ffffffff1660e01b8152600401808273ffffffffffffffffffffffffffffffffffffffff1673ffffffffffffffffffffffffffffffffffffffff168152602001915050602060405180830381600087803b15801561337457600080fd5b505af1158015613388573d6000803e3d6000fd5b505050506040513d602081101561339e57600080fd5b810190808051906020019092919050505090506133bc898789613588565b80945050505050949350505050565b6000808314156133de576000905061344b565b60008284029050828482816133ef57fe5b0414613446576040517f08c379a0000000000000000000000000000000000000000000000000000000008152600401808060200182810382526021815260200180613b5a6021913960400191505060405180910390fd5b809150505b92915050565b600061349383836040518060400160405280601a81526020017f536166654d6174683a206469766973696f6e206279207a65726f0000000000008152506137fd565b905092915050565b613582846323b872dd60e01b858585604051602401808473ffffffffffffffffffffffffffffffffffffffff1673ffffffffffffffffffffffffffffffffffffffff1681526020018373ffffffffffffffffffffffffffffffffffffffff1673ffffffffffffffffffffffffffffffffffffffff1681526020018281526020019350505050604051602081830303815290604052907bffffffffffffffffffffffffffffffffffffffffffffffffffffffff19166020820180517bffffffffffffffffffffffffffffffffffffffffffffffffffffffff83818316178352505050506138c3565b50505050565b8273ffffffffffffffffffffffffffffffffffffffff16632e1a7d4d826040518263ffffffff1660e01b815260040180828152602001915050600060405180830381600087803b1580156135db57600080fd5b505af11580156135ef573d6000803e3d6000fd5b5050505060008273ffffffffffffffffffffffffffffffffffffffff168260405180600001905060006040518083038185875af1925050503d8060008114613653576040519150601f19603f3d011682016040523d82523d6000602084013e613658565b606091505b50509050806136cf576040517f08c379a00000000000000000000000000000000000000000000000000000000081526004018080602001828103825260118152602001807f4552525f53454e44494e475f455448455200000000000000000000000000000081525060200191505060405180910390fd5b50505050565b8173ffffffffffffffffffffffffffffffffffffffff1663d0e30db0346040518263ffffffff1660e01b81526004016000604051808303818588803b15801561371d57600080fd5b505af1158015613731573d6000803e3d6000fd5b50505050508173ffffffffffffffffffffffffffffffffffffffff1663a9059cbb82346040518363ffffffff1660e01b8152600401808373ffffffffffffffffffffffffffffffffffffffff1673ffffffffffffffffffffffffffffffffffffffff16815260200182815260200192505050602060405180830381600087803b1580156137bd57600080fd5b505af11580156137d1573d6000803e3d6000fd5b505050506040513d60208110156137e757600080fd5b8101908080519060200190929190505050505050565b600080831182906138a9576040517f08c379a00000000000000000000000000000000000000000000000000000000081526004018080602001828103825283818151815260200191508051906020019080838360005b8381101561386e578082015181840152602081019050613853565b50505050905090810190601f16801561389b5780820380516001836020036101000a031916815260200191505b509250505060405180910390fd5b5060008385816138b557fe5b049050809150509392505050565b6138e28273ffffffffffffffffffffffffffffffffffffffff16613b0e565b613954576040517f08c379a000000000000000000000000000000000000000000000000000000000815260040180806020018281038252601f8152602001807f5361666545524332303a2063616c6c20746f206e6f6e2d636f6e74726163740081525060200191505060405180910390fd5b600060608373ffffffffffffffffffffffffffffffffffffffff16836040518082805190602001908083835b602083106139a35780518252602082019150602081019050602083039250613980565b6001836020036101000a0380198251168184511680821785525050505050509050019150506000604051808303816000865af19150503d8060008114613a05576040519150601f19603f3d011682016040523d82523d6000602084013e613a0a565b606091505b509150915081613a82576040517f08c379a00000000000000000000000000000000000000000000000000000000081526004018080602001828103825260208152602001807f5361666545524332303a206c6f772d6c6576656c2063616c6c206661696c656481525060200191505060405180910390fd5b600081511115613b0857808060200190516020811015613aa157600080fd5b8101908080519060200190929190505050613b07576040517f08c379a000000000000000000000000000000000000000000000000000000000815260040180806020018281038252602a815260200180613b7b602a913960400191505060405180910390fd5b5b50505050565b60008060007fc5d2460186f7233c927e7db2dcc703c0e500b653ca82273b7bfad8045d85a47060001b9050833f9150808214158015613b5057506000801b8214155b9250505091905056fe536166654d6174683a206d756c7469706c69636174696f6e206f766572666c6f775361666545524332303a204552433230206f7065726174696f6e20646964206e6f742073756363656564a2646970667358221220009854dfdae5b6ac72c66f966ed76aebbb8d090af514b1f61b96058c67d9246764736f6c63430006020033",
  "devdoc": {
    "methods": {
      "constructor": {
        "details": "Since the WethConnector contract is responsible for converting between ethers and WETH, the contract is initialized with the address for WETH. \r"
      },
      "getName()": {
        "details": "Gets the name of the contract."
      },
      "getVersion()": {
        "details": "Gets the version of the contract."
      },
      "safeCloseForETH(address,uint256,address)": {
        "details": "Burn optionTokens and redeemTokens to withdraw underlyingTokens (ethers).",
        "params": {
          "closeQuantity": "Quantity of optionTokens to burn and an input to calculate how many redeems to burn.",
          "optionToken": "The address of the option contract.",
          "receiver": "The underlyingTokens (ethers) are sent to the receiver address. \r"
        }
      },
      "safeExerciseForETH(address,uint256,address)": {
        "details": "Swaps strikeTokens to underlyingTokens, WETH, which is converted to ethers before withdrawn. Uses the strike ratio as the exchange rate. Strike ratio = base / quote.",
        "params": {
          "exerciseQuantity": "Quantity of optionTokens to exercise.",
          "optionToken": "The address of the option contract.",
          "receiver": "The underlyingTokens (ethers) are sent to the receiver address. \r"
        }
      },
      "safeExerciseWithETH(address,address)": {
        "details": "Swaps msg.value of strikeTokens (ethers) to underlyingTokens. Uses the strike ratio as the exchange rate. Strike ratio = base / quote. Msg.value (quote units) * base / quote = base units (underlyingTokens) to withdraw.",
        "params": {
          "optionToken": "The address of the option contract.",
          "receiver": "The underlyingTokens are sent to the receiver address. \r"
        }
      },
      "safeMintWithETH(address,address)": {
        "details": "Mints msg.value quantity of options and \"quote\" (option parameter) quantity of redeem tokens.",
        "params": {
          "optionToken": "The address of the option token to mint.",
          "receiver": "The address which receives the minted option and redeem tokens. \r"
        }
      },
      "safeRedeemForETH(address,uint256,address)": {
        "details": "Burns redeem tokens to withdraw strike tokens (ethers) at a 1:1 ratio.",
        "params": {
          "optionToken": "The address of the option contract.",
          "receiver": "The strikeTokens (ethers) are sent to the receiver address. \r",
          "redeemQuantity": "The quantity of redeemTokens to burn."
        }
      },
      "safeUnwindForETH(address,uint256,address)": {
        "details": "Burn redeemTokens to withdraw underlyingTokens (ethers) from expired options. This function is for options with WETH as the underlying asset. The underlyingTokens are WETH, which are converted to ethers prior to being sent to receiver.",
        "params": {
          "optionToken": "The address of the option contract.",
          "receiver": "The underlyingTokens (ethers) are sent to the receiver address. \r",
          "unwindQuantity": "Quantity of underlyingTokens (ethers) to withdraw."
        }
      }
    }
  },
  "userdoc": {
    "methods": {
      "safeCloseForETH(address,uint256,address)": {
        "notice": "This function is for options with WETH as the underlying asset. WETH underlyingTokens are converted to ethers before being sent to receiver. The redeemTokens to burn is equal to the optionTokens * strike ratio. inputOptions = inputRedeems / strike ratio = outUnderlyings"
      },
      "safeExerciseForETH(address,uint256,address)": {
        "notice": "This function is for options with WETH as the underlying asset. Burns option tokens, pulls strikeTokens, and pushes out ethers."
      },
      "safeExerciseWithETH(address,address)": {
        "notice": "This function is for options with WETH as the strike asset. Burns option tokens, accepts ethers, and pushes out underlyingTokens."
      },
      "safeMintWithETH(address,address)": {
        "notice": "This function is for options that have WETH as the underlying asset."
      },
      "safeRedeemForETH(address,uint256,address)": {
        "notice": "This function is for options that have WETH as the strike asset. Converts WETH to ethers, and withdraws ethers to the receiver address."
      }
    }
  },
  "storageLayout": {
    "storage": [
      {
        "astId": 1351,
        "contract": "contracts/connectors/WETH/WethConnector01.sol:WethConnector01",
        "label": "_notEntered",
        "offset": 0,
        "slot": "0",
        "type": "t_bool"
      },
      {
        "astId": 4702,
        "contract": "contracts/connectors/WETH/WethConnector01.sol:WethConnector01",
        "label": "weth",
        "offset": 1,
        "slot": "0",
        "type": "t_contract(IWETH)4576"
      }
    ],
    "types": {
      "t_bool": {
        "encoding": "inplace",
        "label": "bool",
        "numberOfBytes": "1"
      },
      "t_contract(IWETH)4576": {
        "encoding": "inplace",
        "label": "contract IWETH",
        "numberOfBytes": "20"
      }
    }
  },
  "gasEstimates": {
    "creation": {
      "codeDepositCost": "3064400",
      "executionCost": "infinite",
      "totalCost": "infinite"
    },
    "external": {
      "getName()": "infinite",
      "getVersion()": "226",
      "safeCloseForETH(address,uint256,address)": "infinite",
      "safeExerciseForETH(address,uint256,address)": "infinite",
      "safeExerciseWithETH(address,address)": "infinite",
      "safeMintWithETH(address,address)": "infinite",
      "safeRedeemForETH(address,uint256,address)": "infinite",
      "safeUnwindForETH(address,uint256,address)": "infinite",
      "weth()": "1148"
    }
  }
}