{
  "contractName": "Call",
  "abi": [
    {
      "inputs": [],
      "name": "controller",
      "outputs": [
        {
          "internalType": "address",
          "name": "",
          "type": "address"
        }
      ],
      "stateMutability": "view",
      "type": "function",
      "constant": true
    },
    {
      "inputs": [],
      "name": "oNonce",
      "outputs": [
        {
          "internalType": "uint256",
          "name": "",
          "type": "uint256"
        }
      ],
      "stateMutability": "view",
      "type": "function",
      "constant": true
    },
    {
      "inputs": [],
      "name": "ocall",
      "outputs": [
        {
          "internalType": "contract OCall",
          "name": "",
          "type": "address"
        }
      ],
      "stateMutability": "view",
      "type": "function",
      "constant": true
    },
    {
      "inputs": [],
      "name": "underlying",
      "outputs": [
        {
          "internalType": "contract ERC20",
          "name": "",
          "type": "address"
        }
      ],
      "stateMutability": "view",
      "type": "function",
      "constant": true
    },
    {
      "inputs": [
        {
          "internalType": "address",
          "name": "_ocall",
          "type": "address"
        }
      ],
      "name": "initialize",
      "outputs": [
        {
          "internalType": "bool",
          "name": "",
          "type": "bool"
        }
      ],
      "stateMutability": "nonpayable",
      "type": "function"
    },
    {
      "inputs": [
        {
          "internalType": "uint256",
          "name": "_amount",
          "type": "uint256"
        },
        {
          "internalType": "address",
          "name": "_underlying",
          "type": "address"
        }
      ],
      "name": "deposit",
      "outputs": [
        {
          "internalType": "bool",
          "name": "success",
          "type": "bool"
        }
      ],
      "stateMutability": "nonpayable",
      "type": "function"
    }
  ],
  "bytecode": "0x608060405234801561001057600080fd5b50610689806100206000396000f3fe608060405234801561001057600080fd5b50600436106100625760003560e01c806328880194146100675780636e553f65146100b15780636f307dc314610117578063ae44148b14610161578063c4d66de81461017f578063f77c4791146101db575b600080fd5b61006f610225565b604051808273ffffffffffffffffffffffffffffffffffffffff1673ffffffffffffffffffffffffffffffffffffffff16815260200191505060405180910390f35b6100fd600480360360408110156100c757600080fd5b8101908080359060200190929190803573ffffffffffffffffffffffffffffffffffffffff16906020019092919050505061024b565b604051808215151515815260200191505060405180910390f35b61011f6104ed565b604051808273ffffffffffffffffffffffffffffffffffffffff1673ffffffffffffffffffffffffffffffffffffffff16815260200191505060405180910390f35b610169610512565b6040518082815260200191505060405180910390f35b6101c16004803603602081101561019557600080fd5b81019080803573ffffffffffffffffffffffffffffffffffffffff169060200190929190505050610518565b604051808215151515815260200191505060405180910390f35b6101e36105a5565b604051808273ffffffffffffffffffffffffffffffffffffffff1673ffffffffffffffffffffffffffffffffffffffff16815260200191505060405180910390f35b600160009054906101000a900473ffffffffffffffffffffffffffffffffffffffff1681565b6000816000806101000a81548173ffffffffffffffffffffffffffffffffffffffff021916908373ffffffffffffffffffffffffffffffffffffffff16021790555060008060009054906101000a900473ffffffffffffffffffffffffffffffffffffffff1673ffffffffffffffffffffffffffffffffffffffff166370a08231336040518263ffffffff1660e01b8152600401808273ffffffffffffffffffffffffffffffffffffffff1673ffffffffffffffffffffffffffffffffffffffff168152602001915050602060405180830381600087803b15801561032f57600080fd5b505af1158015610343573d6000803e3d6000fd5b505050506040513d602081101561035957600080fd5b81019080805190602001909291905050509050838110156103e2576040517f08c379a00000000000000000000000000000000000000000000000000000000081526004018080602001828103825260188152602001807f43616e6e6f742073656e6420616d6f756e74203e2062616c000000000000000081525060200191505060405180910390fd5b6103f860016003546105cb90919063ffffffff16565b600381905550600160009054906101000a900473ffffffffffffffffffffffffffffffffffffffff1673ffffffffffffffffffffffffffffffffffffffff166340c10f19336003546040518363ffffffff1660e01b8152600401808373ffffffffffffffffffffffffffffffffffffffff1673ffffffffffffffffffffffffffffffffffffffff16815260200182815260200192505050602060405180830381600087803b1580156104a957600080fd5b505af11580156104bd573d6000803e3d6000fd5b505050506040513d60208110156104d357600080fd5b810190808051906020019092919050505091505092915050565b6000809054906101000a900473ffffffffffffffffffffffffffffffffffffffff1681565b60035481565b600081600160006101000a81548173ffffffffffffffffffffffffffffffffffffffff021916908373ffffffffffffffffffffffffffffffffffffffff16021790555030600260006101000a81548173ffffffffffffffffffffffffffffffffffffffff021916908373ffffffffffffffffffffffffffffffffffffffff16021790555060019050919050565b600260009054906101000a900473ffffffffffffffffffffffffffffffffffffffff1681565b600080828401905083811015610649576040517f08c379a000000000000000000000000000000000000000000000000000000000815260040180806020018281038252601b8152602001807f536166654d6174683a206164646974696f6e206f766572666c6f77000000000081525060200191505060405180910390fd5b809150509291505056fea2646970667358221220d03f2c9c70f78d0c65f4c877117a263ed3d7b583b2ac0bace3c8e1fe9b23124164736f6c63430006020033",
  "source": "pragma solidity ^0.6.2;\r\n\r\n/*\r\nTitle: Carbon.finance - Interchangeable finance. Call option derivative.\r\nDescription: Deposit underlying asset (collateral) to mint corresponding ERC-20 token. Sell token.\r\n             Token holders can burn the token to either 1. trade, or 2. withdraw, the underlying asset,\r\n             depending on which party deposited the collateral.\r\n             Underlying asset is priced in strike asset.\r\nArchitecture: User mints a Contract Object called OCall, basically a certificate that a deposit was made.\r\nAuthors: Alexander\r\n.*/\r\n\r\nimport \"./tokens/SafeMath.sol\";\r\n\r\n\r\nabstract contract ERC20 {\r\n    /**\r\n     * @dev Returns the amount of tokens owned by `account`.\r\n     */\r\n    function balanceOf(address _owner) virtual external returns(uint256);\r\n}\r\n\r\n\r\nabstract contract OCall {\r\n\r\n    function mint(address to, uint256 tokenId) public virtual returns (bool);\r\n}\r\n\r\n\r\n/**\r\n * @title ERC721 token receiver interface\r\n * @dev Interface for any contract that wants to support safeTransfers\r\n * from ERC721 asset contracts.\r\n */\r\nabstract contract IERC721Receiver {\r\n    /**\r\n     * @notice Handle the receipt of an NFT\r\n     * @dev The ERC721 smart contract calls this function on the recipient\r\n     * after a {IERC721-safeTransferFrom}. This function MUST return the function selector,\r\n     * otherwise the caller will revert the transaction. The selector to be\r\n     * returned can be obtained as `this.onERC721Received.selector`. This\r\n     * function MAY throw to revert and reject the transfer.\r\n     * Note: the ERC721 contract address is always the message sender.\r\n     * @param operator The address which called `safeTransferFrom` function\r\n     * @param from The address which previously owned the token\r\n     * @param tokenId The NFT identifier which is being transferred\r\n     * @param data Additional data with no specified format\r\n     * @return bytes4 `bytes4(keccak256(\"onERC721Received(address,address,uint256,bytes)\"))`\r\n     */\r\n    function onERC721Received(address operator, address from, uint256 tokenId, bytes memory data)\r\n    public virtual returns (bytes4);\r\n}\r\n\r\n\r\nabstract contract ICall {\r\n    function initialize(address _ocall) public virtual returns (bool);\r\n    function deposit(uint256 _amount, address _underlying) public virtual returns (bool success);\r\n}\r\n\r\n\r\ncontract Call is ICall {\r\n    using SafeMath for uint256;\r\n\r\n    ERC20 public underlying;\r\n    OCall public ocall;\r\n    address public controller;\r\n    uint256 public oNonce;\r\n\r\n    function initialize(address _ocall) public override returns (bool) {\r\n        ocall = OCall(_ocall);\r\n        controller = address(this);\r\n        return true;\r\n    }\r\n\r\n    /** \r\n     * @dev `msg.sender` Underwrites an asset (underlying) which can be bought with (strike) asset.\r\n     * @param _amount Amount of collateral to deposit.\r\n     * @param _underlying Address of token.\r\n     * @return success Whether or not deposit was successful.\r\n     */\r\n    function deposit(uint256 _amount, address _underlying) public override returns (bool success) {\r\n        // CHECKS\r\n        underlying = ERC20(_underlying);\r\n        uint256 bal = underlying.balanceOf(msg.sender);\r\n        require(bal >= _amount, 'Cannot send amount > bal');\r\n\r\n        // EFFECTS\r\n        oNonce = oNonce.add(1);\r\n\r\n        // INTERACTIONS\r\n        return ocall.mint(msg.sender, oNonce);\r\n    }\r\n}",
  "sourcePath": "C:\\Users\\alexa\\OneDrive\\Documents\\Master\\Blockchain\\Projects\\carbon\\contracts\\Call.sol",
  "compiler": {
    "name": "solc",
    "version": "0.6.2+commit.bacdbe57.Emscripten.clang"
  },
  "schemaVersion": "3.0.23",
  "updatedAt": "2020-02-26T20:19:03.422Z",
  "networkType": "ethereum",
  "devdoc": {
    "methods": {
      "deposit(uint256,address)": {
        "details": "`msg.sender` Underwrites an asset (underlying) which can be bought with (strike) asset.",
        "params": {
          "_amount": "Amount of collateral to deposit.",
          "_underlying": "Address of token."
        },
        "returns": {
          "success": "Whether or not deposit was successful."
        }
      }
    }
  },
  "userdoc": {
    "methods": {}
  }
}