{
  "contractName": "ControllerPool",
  "abi": [
    {
      "inputs": [
        {
          "internalType": "address",
          "name": "controller",
          "type": "address"
        },
        {
          "internalType": "address payable",
          "name": "_weth",
          "type": "address"
        }
      ],
      "stateMutability": "nonpayable",
      "type": "constructor"
    },
    {
      "anonymous": false,
      "inputs": [
        {
          "indexed": true,
          "internalType": "address",
          "name": "previousOwner",
          "type": "address"
        },
        {
          "indexed": true,
          "internalType": "address",
          "name": "newOwner",
          "type": "address"
        }
      ],
      "name": "OwnershipTransferred",
      "type": "event"
    },
    {
      "inputs": [
        {
          "internalType": "address",
          "name": "",
          "type": "address"
        },
        {
          "internalType": "address",
          "name": "",
          "type": "address"
        }
      ],
      "name": "makerFor",
      "outputs": [
        {
          "internalType": "address payable",
          "name": "",
          "type": "address"
        }
      ],
      "stateMutability": "view",
      "type": "function"
    },
    {
      "inputs": [],
      "name": "owner",
      "outputs": [
        {
          "internalType": "address",
          "name": "",
          "type": "address"
        }
      ],
      "stateMutability": "view",
      "type": "function"
    },
    {
      "inputs": [],
      "name": "renounceOwnership",
      "outputs": [],
      "stateMutability": "nonpayable",
      "type": "function"
    },
    {
      "inputs": [
        {
          "internalType": "address",
          "name": "newOwner",
          "type": "address"
        }
      ],
      "name": "transferOwnership",
      "outputs": [],
      "stateMutability": "nonpayable",
      "type": "function"
    },
    {
      "inputs": [],
      "name": "weth",
      "outputs": [
        {
          "internalType": "address payable",
          "name": "",
          "type": "address"
        }
      ],
      "stateMutability": "view",
      "type": "function"
    },
    {
      "inputs": [
        {
          "internalType": "address",
          "name": "oracle",
          "type": "address"
        },
        {
          "internalType": "string",
          "name": "name",
          "type": "string"
        },
        {
          "internalType": "string",
          "name": "symbol",
          "type": "string"
        },
        {
          "internalType": "address",
          "name": "tokenU",
          "type": "address"
        },
        {
          "internalType": "address",
          "name": "tokenS",
          "type": "address"
        }
      ],
      "name": "addPool",
      "outputs": [
        {
          "internalType": "address payable",
          "name": "",
          "type": "address"
        }
      ],
      "stateMutability": "nonpayable",
      "type": "function"
    },
    {
      "inputs": [
        {
          "internalType": "address payable",
          "name": "maker",
          "type": "address"
        },
        {
          "internalType": "address",
          "name": "tokenP",
          "type": "address"
        }
      ],
      "name": "addMarket",
      "outputs": [
        {
          "internalType": "address",
          "name": "",
          "type": "address"
        }
      ],
      "stateMutability": "nonpayable",
      "type": "function"
    }
  ],
  "bytecode": "0x608060405234801561001057600080fd5b50604051620061d4380380620061d48339818101604052604081101561003557600080fd5b810190808051906020019092919080519060200190929190505050600061006061015560201b60201c565b9050806000806101000a81548173ffffffffffffffffffffffffffffffffffffffff021916908373ffffffffffffffffffffffffffffffffffffffff1602179055508073ffffffffffffffffffffffffffffffffffffffff16600073ffffffffffffffffffffffffffffffffffffffff167f8be0079c531659141344cd1fd0a4f28419497f9722a3daafe3b4186f6b6457e060405160405180910390a35061010d8261015d60201b60201c565b80600160006101000a81548173ffffffffffffffffffffffffffffffffffffffff021916908373ffffffffffffffffffffffffffffffffffffffff1602179055505050610371565b600033905090565b61016b61015560201b60201c565b73ffffffffffffffffffffffffffffffffffffffff166000809054906101000a900473ffffffffffffffffffffffffffffffffffffffff1673ffffffffffffffffffffffffffffffffffffffff161461022c576040517f08c379a00000000000000000000000000000000000000000000000000000000081526004018080602001828103825260208152602001807f4f776e61626c653a2063616c6c6572206973206e6f7420746865206f776e657281525060200191505060405180910390fd5b600073ffffffffffffffffffffffffffffffffffffffff168173ffffffffffffffffffffffffffffffffffffffff1614156102b3576040517f08c379a0000000000000000000000000000000000000000000000000000000008152600401808060200182810382526026815260200180620061ae6026913960400191505060405180910390fd5b8073ffffffffffffffffffffffffffffffffffffffff166000809054906101000a900473ffffffffffffffffffffffffffffffffffffffff1673ffffffffffffffffffffffffffffffffffffffff167f8be0079c531659141344cd1fd0a4f28419497f9722a3daafe3b4186f6b6457e060405160405180910390a3806000806101000a81548173ffffffffffffffffffffffffffffffffffffffff021916908373ffffffffffffffffffffffffffffffffffffffff16021790555050565b615e2d80620003816000396000f3fe60806040523480156200001157600080fd5b5060043610620000885760003560e01c80638da5cb5b11620000635780638da5cb5b14620002e0578063b0e9c996146200032c578063de1f443014620003d3578063f2fde38b146200047a5762000088565b80633fc8cef3146200008d57806350d3f4b114620000d9578063715018a614620002d4575b600080fd5b62000097620004c1565b604051808273ffffffffffffffffffffffffffffffffffffffff1673ffffffffffffffffffffffffffffffffffffffff16815260200191505060405180910390f35b62000292600480360360a0811015620000f157600080fd5b81019080803573ffffffffffffffffffffffffffffffffffffffff169060200190929190803590602001906401000000008111156200012f57600080fd5b8201836020820111156200014257600080fd5b803590602001918460018302840111640100000000831117156200016557600080fd5b91908080601f016020809104026020016040519081016040528093929190818152602001838380828437600081840152601f19601f82011690508083019250505050505050919291929080359060200190640100000000811115620001c957600080fd5b820183602082011115620001dc57600080fd5b80359060200191846001830284011164010000000083111715620001ff57600080fd5b91908080601f016020809104026020016040519081016040528093929190818152602001838380828437600081840152601f19601f820116905080830192505050505050509192919290803573ffffffffffffffffffffffffffffffffffffffff169060200190929190803573ffffffffffffffffffffffffffffffffffffffff169060200190929190505050620004e7565b604051808273ffffffffffffffffffffffffffffffffffffffff1673ffffffffffffffffffffffffffffffffffffffff16815260200191505060405180910390f35b620002de6200081a565b005b620002ea620009a5565b604051808273ffffffffffffffffffffffffffffffffffffffff1673ffffffffffffffffffffffffffffffffffffffff16815260200191505060405180910390f35b62000391600480360360408110156200034457600080fd5b81019080803573ffffffffffffffffffffffffffffffffffffffff169060200190929190803573ffffffffffffffffffffffffffffffffffffffff169060200190929190505050620009ce565b604051808273ffffffffffffffffffffffffffffffffffffffff1673ffffffffffffffffffffffffffffffffffffffff16815260200191505060405180910390f35b6200043860048036036040811015620003eb57600080fd5b81019080803573ffffffffffffffffffffffffffffffffffffffff169060200190929190803573ffffffffffffffffffffffffffffffffffffffff16906020019092919050505062000a10565b604051808273ffffffffffffffffffffffffffffffffffffffff1673ffffffffffffffffffffffffffffffffffffffff16815260200191505060405180910390f35b620004bf600480360360208110156200049257600080fd5b81019080803573ffffffffffffffffffffffffffffffffffffffff16906020019092919050505062000ba5565b005b600160009054906101000a900473ffffffffffffffffffffffffffffffffffffffff1681565b6000620004f362000db7565b73ffffffffffffffffffffffffffffffffffffffff166000809054906101000a900473ffffffffffffffffffffffffffffffffffffffff1673ffffffffffffffffffffffffffffffffffffffff1614620005b5576040517f08c379a00000000000000000000000000000000000000000000000000000000081526004018080602001828103825260208152602001807f4f776e61626c653a2063616c6c6572206973206e6f7420746865206f776e657281525060200191505060405180910390fd5b6000600160009054906101000a900473ffffffffffffffffffffffffffffffffffffffff16878787604051620005eb9062000dbf565b808573ffffffffffffffffffffffffffffffffffffffff1673ffffffffffffffffffffffffffffffffffffffff1681526020018473ffffffffffffffffffffffffffffffffffffffff1673ffffffffffffffffffffffffffffffffffffffff1681526020018060200180602001838103835285818151815260200191508051906020019080838360005b838110156200069257808201518184015260208101905062000675565b50505050905090810190601f168015620006c05780820380516001836020036101000a031916815260200191505b50838103825284818151815260200191508051906020019080838360005b83811015620006fb578082015181840152602081019050620006de565b50505050905090810190601f168015620007295780820380516001836020036101000a031916815260200191505b509650505050505050604051809103906000f0801580156200074f573d6000803e3d6000fd5b50905080600260008673ffffffffffffffffffffffffffffffffffffffff1673ffffffffffffffffffffffffffffffffffffffff16815260200190815260200160002060008573ffffffffffffffffffffffffffffffffffffffff1673ffffffffffffffffffffffffffffffffffffffff16815260200190815260200160002060006101000a81548173ffffffffffffffffffffffffffffffffffffffff021916908373ffffffffffffffffffffffffffffffffffffffff1602179055508091505095945050505050565b6200082462000db7565b73ffffffffffffffffffffffffffffffffffffffff166000809054906101000a900473ffffffffffffffffffffffffffffffffffffffff1673ffffffffffffffffffffffffffffffffffffffff1614620008e6576040517f08c379a00000000000000000000000000000000000000000000000000000000081526004018080602001828103825260208152602001807f4f776e61626c653a2063616c6c6572206973206e6f7420746865206f776e657281525060200191505060405180910390fd5b600073ffffffffffffffffffffffffffffffffffffffff166000809054906101000a900473ffffffffffffffffffffffffffffffffffffffff1673ffffffffffffffffffffffffffffffffffffffff167f8be0079c531659141344cd1fd0a4f28419497f9722a3daafe3b4186f6b6457e060405160405180910390a360008060006101000a81548173ffffffffffffffffffffffffffffffffffffffff021916908373ffffffffffffffffffffffffffffffffffffffff160217905550565b60008060009054906101000a900473ffffffffffffffffffffffffffffffffffffffff16905090565b60026020528160005260406000206020528060005260406000206000915091509054906101000a900473ffffffffffffffffffffffffffffffffffffffff1681565b600062000a1c62000db7565b73ffffffffffffffffffffffffffffffffffffffff166000809054906101000a900473ffffffffffffffffffffffffffffffffffffffff1673ffffffffffffffffffffffffffffffffffffffff161462000ade576040517f08c379a00000000000000000000000000000000000000000000000000000000081526004018080602001828103825260208152602001807f4f776e61626c653a2063616c6c6572206973206e6f7420746865206f776e657281525060200191505060405180910390fd5b8273ffffffffffffffffffffffffffffffffffffffff166393e30633836040518263ffffffff1660e01b8152600401808273ffffffffffffffffffffffffffffffffffffffff1673ffffffffffffffffffffffffffffffffffffffff168152602001915050602060405180830381600087803b15801562000b5e57600080fd5b505af115801562000b73573d6000803e3d6000fd5b505050506040513d602081101562000b8a57600080fd5b81019080805190602001909291905050505081905092915050565b62000baf62000db7565b73ffffffffffffffffffffffffffffffffffffffff166000809054906101000a900473ffffffffffffffffffffffffffffffffffffffff1673ffffffffffffffffffffffffffffffffffffffff161462000c71576040517f08c379a00000000000000000000000000000000000000000000000000000000081526004018080602001828103825260208152602001807f4f776e61626c653a2063616c6c6572206973206e6f7420746865206f776e657281525060200191505060405180910390fd5b600073ffffffffffffffffffffffffffffffffffffffff168173ffffffffffffffffffffffffffffffffffffffff16141562000cf9576040517f08c379a000000000000000000000000000000000000000000000000000000000815260040180806020018281038252602681526020018062005dd26026913960400191505060405180910390fd5b8073ffffffffffffffffffffffffffffffffffffffff166000809054906101000a900473ffffffffffffffffffffffffffffffffffffffff1673ffffffffffffffffffffffffffffffffffffffff167f8be0079c531659141344cd1fd0a4f28419497f9722a3daafe3b4186f6b6457e060405160405180910390a3806000806101000a81548173ffffffffffffffffffffffffffffffffffffffff021916908373ffffffffffffffffffffffffffffffffffffffff16021790555050565b600033905090565b6150048062000dce8339019056fe6080604052735d3a536e4d6dbd6114cc1ead35777bab948e3643600660016101000a81548173ffffffffffffffffffffffffffffffffffffffff021916908373ffffffffffffffffffffffffffffffffffffffff1602179055503480156200006657600080fd5b506040516200500438038062005004833981810160405260808110156200008c57600080fd5b81019080805190602001909291908051906020019092919080516040519392919084640100000000821115620000c157600080fd5b83820191506020820185811115620000d857600080fd5b8251866001820283011164010000000082111715620000f657600080fd5b8083526020830192505050908051906020019080838360005b838110156200012c5780820151818401526020810190506200010f565b50505050905090810190601f1680156200015a5780820380516001836020036101000a031916815260200191505b50604052602001805160405193929190846401000000008211156200017e57600080fd5b838201915060208201858111156200019557600080fd5b8251866001820283011164010000000082111715620001b357600080fd5b8083526020830192505050908051906020019080838360005b83811015620001e9578082015181840152602081019050620001cc565b50505050905090810190601f168015620002175780820380516001836020036101000a031916815260200191505b506040525050508181600062000232620003e960201b60201c565b9050806000806101000a81548173ffffffffffffffffffffffffffffffffffffffff021916908373ffffffffffffffffffffffffffffffffffffffff1602179055508073ffffffffffffffffffffffffffffffffffffffff16600073ffffffffffffffffffffffffffffffffffffffff167f8be0079c531659141344cd1fd0a4f28419497f9722a3daafe3b4186f6b6457e060405160405180910390a35060008060146101000a81548160ff0219169083151502179055506001600060156101000a81548160ff02191690831515021790555081600490805190602001906200031d929190620003f1565b50806005908051906020019062000336929190620003f1565b506012600660006101000a81548160ff021916908360ff160217905550505083600960006101000a81548173ffffffffffffffffffffffffffffffffffffffff021916908373ffffffffffffffffffffffffffffffffffffffff16021790555082600860006101000a81548173ffffffffffffffffffffffffffffffffffffffff021916908373ffffffffffffffffffffffffffffffffffffffff160217905550606460078190555050505050620004a0565b600033905090565b828054600181600116156101000203166002900490600052602060002090601f016020900481019282601f106200043457805160ff191683800117855562000465565b8280016001018555821562000465579182015b828111156200046457825182559160200191906001019062000447565b5b50905062000474919062000478565b5090565b6200049d91905b80821115620004995760008160009055506001016200047f565b5090565b90565b614b5480620004b06000396000f3fe6080604052600436106101e65760003560e01c80636e553f651161010257806393e3063311610095578063bf9d839311610064578063bf9d839314610c7a578063cce9923014610cf5578063dd62ed3e14610d20578063f2fde38b14610da557610244565b806393e3063314610a7357806395d89b4114610b04578063a457c2d714610b94578063a9059cbb14610c0757610244565b80637dc0d1d0116100d15780637dc0d1d0146109305780637deb6025146109875780638456cb59146109ed5780638da5cb5b14610a1c57610244565b80636e553f65146107b557806370a082311461081b578063715018a614610880578063749a60dd1461089757610244565b8063395093511161017a5780635c975abb116101495780635c975abb146106b557806361a52a36146106e4578063677342ce1461070f57806367e65cf31461075e57610244565b806339509351146105915780633da18341146106045780633f4ba83a1461062f5780633fc8cef31461065e57610244565b806318160ddd116101b657806318160ddd1461042957806323b872dd14610454578063287807cd146104e7578063313ce5671461056057610244565b8062f714ce1461024957806306fdde03146102bc578063095ea7b31461034c578063156f1d74146103bf57610244565b3661024457600960009054906101000a900473ffffffffffffffffffffffffffffffffffffffff1673ffffffffffffffffffffffffffffffffffffffff163373ffffffffffffffffffffffffffffffffffffffff161461024257fe5b005b600080fd5b34801561025557600080fd5b506102a26004803603604081101561026c57600080fd5b8101908080359060200190929190803573ffffffffffffffffffffffffffffffffffffffff169060200190929190505050610df6565b604051808215151515815260200191505060405180910390f35b3480156102c857600080fd5b506102d1611824565b6040518080602001828103825283818151815260200191508051906020019080838360005b838110156103115780820151818401526020810190506102f6565b50505050905090810190601f16801561033e5780820380516001836020036101000a031916815260200191505b509250505060405180910390f35b34801561035857600080fd5b506103a56004803603604081101561036f57600080fd5b81019080803573ffffffffffffffffffffffffffffffffffffffff169060200190929190803590602001909291905050506118c6565b604051808215151515815260200191505060405180910390f35b3480156103cb57600080fd5b5061040c600480360360608110156103e257600080fd5b810190808035906020019092919080359060200190929190803590602001909291905050506118e4565b604051808381526020018281526020019250505060405180910390f35b34801561043557600080fd5b5061043e611b79565b6040518082815260200191505060405180910390f35b34801561046057600080fd5b506104cd6004803603606081101561047757600080fd5b81019080803573ffffffffffffffffffffffffffffffffffffffff169060200190929190803573ffffffffffffffffffffffffffffffffffffffff16906020019092919080359060200190929190505050611b83565b604051808215151515815260200191505060405180910390f35b3480156104f357600080fd5b5061054a6004803603606081101561050a57600080fd5b81019080803573ffffffffffffffffffffffffffffffffffffffff1690602001909291908035906020019092919080359060200190929190505050611c5c565b6040518082815260200191505060405180910390f35b34801561056c57600080fd5b50610575611d77565b604051808260ff1660ff16815260200191505060405180910390f35b34801561059d57600080fd5b506105ea600480360360408110156105b457600080fd5b81019080803573ffffffffffffffffffffffffffffffffffffffff16906020019092919080359060200190929190505050611d8e565b604051808215151515815260200191505060405180910390f35b34801561061057600080fd5b50610619611e41565b6040518082815260200191505060405180910390f35b34801561063b57600080fd5b50610644611e4d565b604051808215151515815260200191505060405180910390f35b34801561066a57600080fd5b50610673611f27565b604051808273ffffffffffffffffffffffffffffffffffffffff1673ffffffffffffffffffffffffffffffffffffffff16815260200191505060405180910390f35b3480156106c157600080fd5b506106ca611f4d565b604051808215151515815260200191505060405180910390f35b3480156106f057600080fd5b506106f9611f63565b6040518082815260200191505060405180910390f35b34801561071b57600080fd5b506107486004803603602081101561073257600080fd5b8101908080359060200190929190505050611f6a565b6040518082815260200191505060405180910390f35b34801561076a57600080fd5b50610773611fcc565b604051808273ffffffffffffffffffffffffffffffffffffffff1673ffffffffffffffffffffffffffffffffffffffff16815260200191505060405180910390f35b610801600480360360408110156107cb57600080fd5b8101908080359060200190929190803573ffffffffffffffffffffffffffffffffffffffff169060200190929190505050611ff2565b604051808215151515815260200191505060405180910390f35b34801561082757600080fd5b5061086a6004803603602081101561083e57600080fd5b81019080803573ffffffffffffffffffffffffffffffffffffffff1690602001909291905050506127cd565b6040518082815260200191505060405180910390f35b34801561088c57600080fd5b50610895612816565b005b3480156108a357600080fd5b5061091a600480360360808110156108ba57600080fd5b81019080803573ffffffffffffffffffffffffffffffffffffffff169060200190929190803573ffffffffffffffffffffffffffffffffffffffff169060200190929190803590602001909291908035906020019092919050505061299e565b6040518082815260200191505060405180910390f35b34801561093c57600080fd5b50610945612abf565b604051808273ffffffffffffffffffffffffffffffffffffffff1673ffffffffffffffffffffffffffffffffffffffff16815260200191505060405180910390f35b6109d36004803603604081101561099d57600080fd5b8101908080359060200190929190803573ffffffffffffffffffffffffffffffffffffffff169060200190929190505050612ae5565b604051808215151515815260200191505060405180910390f35b3480156109f957600080fd5b50610a026133b5565b604051808215151515815260200191505060405180910390f35b348015610a2857600080fd5b50610a3161348f565b604051808273ffffffffffffffffffffffffffffffffffffffff1673ffffffffffffffffffffffffffffffffffffffff16815260200191505060405180910390f35b348015610a7f57600080fd5b50610ac260048036036020811015610a9657600080fd5b81019080803573ffffffffffffffffffffffffffffffffffffffff1690602001909291905050506134b8565b604051808273ffffffffffffffffffffffffffffffffffffffff1673ffffffffffffffffffffffffffffffffffffffff16815260200191505060405180910390f35b348015610b1057600080fd5b50610b196136c0565b6040518080602001828103825283818151815260200191508051906020019080838360005b83811015610b59578082015181840152602081019050610b3e565b50505050905090810190601f168015610b865780820380516001836020036101000a031916815260200191505b509250505060405180910390f35b348015610ba057600080fd5b50610bed60048036036040811015610bb757600080fd5b81019080803573ffffffffffffffffffffffffffffffffffffffff16906020019092919080359060200190929190505050613762565b604051808215151515815260200191505060405180910390f35b348015610c1357600080fd5b50610c6060048036036040811015610c2a57600080fd5b81019080803573ffffffffffffffffffffffffffffffffffffffff1690602001909291908035906020019092919050505061382f565b604051808215151515815260200191505060405180910390f35b348015610c8657600080fd5b50610cb360048036036020811015610c9d57600080fd5b810190808035906020019092919050505061384d565b604051808273ffffffffffffffffffffffffffffffffffffffff1673ffffffffffffffffffffffffffffffffffffffff16815260200191505060405180910390f35b348015610d0157600080fd5b50610d0a613880565b6040518082815260200191505060405180910390f35b348015610d2c57600080fd5b50610d8f60048036036040811015610d4357600080fd5b81019080803573ffffffffffffffffffffffffffffffffffffffff169060200190929190803573ffffffffffffffffffffffffffffffffffffffff169060200190929190505050613886565b6040518082815260200191505060405180910390f35b348015610db157600080fd5b50610df460048036036020811015610dc857600080fd5b81019080803573ffffffffffffffffffffffffffffffffffffffff16906020019092919050505061390d565b005b60008060159054906101000a900460ff16610e79576040517f08c379a000000000000000000000000000000000000000000000000000000000815260040180806020018281038252601f8152602001807f5265656e7472616e637947756172643a207265656e7472616e742063616c6c0081525060200191505060405180910390fd5b60008060156101000a81548160ff021916908315150217905550818073ffffffffffffffffffffffffffffffffffffffff16600a60008373ffffffffffffffffffffffffffffffffffffffff16636ed71ede6040518163ffffffff1660e01b815260040160206040518083038186803b158015610ef557600080fd5b505afa158015610f09573d6000803e3d6000fd5b505050506040513d6020811015610f1f57600080fd5b8101908080519060200190929190505050815260200190815260200160002060009054906101000a900473ffffffffffffffffffffffffffffffffffffffff1673ffffffffffffffffffffffffffffffffffffffff1614610fe8576040517f08c379a00000000000000000000000000000000000000000000000000000000081526004018080602001828103825260098152602001807f4552525f5052494d45000000000000000000000000000000000000000000000081525060200191505060405180910390fd5b83610ff2336127cd565b101580156110005750600084115b611072576040517f08c379a000000000000000000000000000000000000000000000000000000000815260040180806020018281038252600c8152602001807f4552525f42414c5f50554c50000000000000000000000000000000000000000081525060200191505060405180910390fd5b600061107c611b79565b90506110883386613b1a565b60008473ffffffffffffffffffffffffffffffffffffffff16634a244e546040518163ffffffff1660e01b815260040160206040518083038186803b1580156110d057600080fd5b505afa1580156110e4573d6000803e3d6000fd5b505050506040513d60208110156110fa57600080fd5b8101908080519060200190929190505050905060008573ffffffffffffffffffffffffffffffffffffffff166360f880356040518163ffffffff1660e01b815260040160206040518083038186803b15801561115557600080fd5b505afa158015611169573d6000803e3d6000fd5b505050506040513d602081101561117f57600080fd5b810190808051906020019092919050505090506000611270846112628573ffffffffffffffffffffffffffffffffffffffff166370a08231306040518263ffffffff1660e01b8152600401808273ffffffffffffffffffffffffffffffffffffffff1673ffffffffffffffffffffffffffffffffffffffff16815260200191505060206040518083038186803b15801561121857600080fd5b505afa15801561122c573d6000803e3d6000fd5b505050506040513d602081101561124257600080fd5b81019080805190602001909291905050508b613ce090919063ffffffff16565b613d6690919063ffffffff16565b90506000611350856113428573ffffffffffffffffffffffffffffffffffffffff166370a08231306040518263ffffffff1660e01b8152600401808273ffffffffffffffffffffffffffffffffffffffff1673ffffffffffffffffffffffffffffffffffffffff16815260200191505060206040518083038186803b1580156112f857600080fd5b505afa15801561130c573d6000803e3d6000fd5b505050506040513d602081101561132257600080fd5b81019080805190602001909291905050508c613ce090919063ffffffff16565b613d6690919063ffffffff16565b905060008873ffffffffffffffffffffffffffffffffffffffff16634e11482f6040518163ffffffff1660e01b815260040160206040518083038186803b15801561139a57600080fd5b505afa1580156113ae573d6000803e3d6000fd5b505050506040513d60208110156113c457600080fd5b810190808051906020019092919050505090508181101561144d576040517f08c379a000000000000000000000000000000000000000000000000000000000815260040180806020018281038252600e8152602001807f4552525f42414c5f535452494b4500000000000000000000000000000000000081525060200191505060405180910390fd5b60008473ffffffffffffffffffffffffffffffffffffffff1663a9059cbb8b856040518363ffffffff1660e01b8152600401808373ffffffffffffffffffffffffffffffffffffffff1673ffffffffffffffffffffffffffffffffffffffff16815260200182815260200192505050602060405180830381600087803b1580156114d657600080fd5b505af11580156114ea573d6000803e3d6000fd5b505050506040513d602081101561150057600080fd5b8101908080519060200190929190505050905060008a73ffffffffffffffffffffffffffffffffffffffff166395a2251f336040518263ffffffff1660e01b8152600401808273ffffffffffffffffffffffffffffffffffffffff1673ffffffffffffffffffffffffffffffffffffffff168152602001915050602060405180830381600087803b15801561159457600080fd5b505af11580156115a8573d6000803e3d6000fd5b505050506040513d60208110156115be57600080fd5b8101908080519060200190929190505050905083811480156115dd5750815b6115e357fe5b3373ffffffffffffffffffffffffffffffffffffffff167ff279e6a1f5e320cca91135676d9cb6e44ca8a08c0b88342bcdb1144f6511b5688686604051808381526020018281526020019250505060405180910390a2600960009054906101000a900473ffffffffffffffffffffffffffffffffffffffff1673ffffffffffffffffffffffffffffffffffffffff168773ffffffffffffffffffffffffffffffffffffffff16141561173557600960009054906101000a900473ffffffffffffffffffffffffffffffffffffffff1673ffffffffffffffffffffffffffffffffffffffff16632e1a7d4d866040518263ffffffff1660e01b815260040180828152602001915050600060405180830381600087803b15801561170457600080fd5b505af1158015611718573d6000803e3d6000fd5b505050506117263386613db0565b99505050505050505050611802565b8673ffffffffffffffffffffffffffffffffffffffff1663a9059cbb33876040518363ffffffff1660e01b8152600401808373ffffffffffffffffffffffffffffffffffffffff1673ffffffffffffffffffffffffffffffffffffffff16815260200182815260200192505050602060405180830381600087803b1580156117bc57600080fd5b505af11580156117d0573d6000803e3d6000fd5b505050506040513d60208110156117e657600080fd5b8101908080519060200190929190505050995050505050505050505b506001600060156101000a81548160ff02191690831515021790555092915050565b606060048054600181600116156101000203166002900480601f0160208091040260200160405190810160405280929190818152602001828054600181600116156101000203166002900480156118bc5780601f10611891576101008083540402835291602001916118bc565b820191906000526020600020905b81548152906001019060200180831161189f57829003601f168201915b5050505050905090565b60006118da6118d3613e97565b8484613e9f565b6001905092915050565b6000806000600860009054906101000a900473ffffffffffffffffffffffffffffffffffffffff1673ffffffffffffffffffffffffffffffffffffffff1663fc57d4df600660019054906101000a900473ffffffffffffffffffffffffffffffffffffffff166040518263ffffffff1660e01b8152600401808273ffffffffffffffffffffffffffffffffffffffff1673ffffffffffffffffffffffffffffffffffffffff16815260200191505060206040518083038186803b1580156119aa57600080fd5b505afa1580156119be573d6000803e3d6000fd5b505050506040513d60208110156119d457600080fd5b810190808051906020019092919050505090506000611a1687611a08670de0b6b3a764000089613ce090919063ffffffff16565b613d6690919063ffffffff16565b90506000611a3f82611a31858b613ce090919063ffffffff16565b613d6690919063ffffffff16565b9050600088821015611a52576000611a66565b611a65898361409690919063ffffffff16565b5b9050611a7b428861409690919063ffffffff16565b94506000611aac85611a9e670de0b6b3a764000087613ce090919063ffffffff16565b613d6690919063ffffffff16565b90506000611b2862015180611b1a670de0b6b3a7640000611b0c611acf8c611f6a565b611afe600754611af0670de0b6b3a76400008b613ce090919063ffffffff16565b613ce090919063ffffffff16565b613ce090919063ffffffff16565b613d6690919063ffffffff16565b613d6690919063ffffffff16565b9050611b69670de0b6b3a7640000611b5b88611b4d87866140e090919063ffffffff16565b613ce090919063ffffffff16565b613d6690919063ffffffff16565b9750505050505050935093915050565b6000600354905090565b6000611b90848484614168565b611c5184611b9c613e97565b611c4c85604051806060016040528060288152602001614a6860289139600260008b73ffffffffffffffffffffffffffffffffffffffff1673ffffffffffffffffffffffffffffffffffffffff1681526020019081526020016000206000611c02613e97565b73ffffffffffffffffffffffffffffffffffffffff1673ffffffffffffffffffffffffffffffffffffffff1681526020019081526020016000205461442d9092919063ffffffff16565b613e9f565b600190509392505050565b6000611d6e670de0b6b3a7640000611d6085611d52670de0b6b3a7640000611d44888b73ffffffffffffffffffffffffffffffffffffffff166370a08231306040518263ffffffff1660e01b8152600401808273ffffffffffffffffffffffffffffffffffffffff1673ffffffffffffffffffffffffffffffffffffffff16815260200191505060206040518083038186803b158015611cfb57600080fd5b505afa158015611d0f573d6000803e3d6000fd5b505050506040513d6020811015611d2557600080fd5b8101908080519060200190929190505050613ce090919063ffffffff16565b613ce090919063ffffffff16565b613d6690919063ffffffff16565b613d6690919063ffffffff16565b90509392505050565b6000600660009054906101000a900460ff16905090565b6000611e37611d9b613e97565b84611e328560026000611dac613e97565b73ffffffffffffffffffffffffffffffffffffffff1673ffffffffffffffffffffffffffffffffffffffff16815260200190815260200160002060008973ffffffffffffffffffffffffffffffffffffffff1673ffffffffffffffffffffffffffffffffffffffff168152602001908152602001600020546140e090919063ffffffff16565b613e9f565b6001905092915050565b670de0b6b3a764000081565b6000611e57613e97565b73ffffffffffffffffffffffffffffffffffffffff166000809054906101000a900473ffffffffffffffffffffffffffffffffffffffff1673ffffffffffffffffffffffffffffffffffffffff1614611f18576040517f08c379a00000000000000000000000000000000000000000000000000000000081526004018080602001828103825260208152602001807f4f776e61626c653a2063616c6c6572206973206e6f7420746865206f776e657281525060200191505060405180910390fd5b611f206144ed565b6001905090565b600960009054906101000a900473ffffffffffffffffffffffffffffffffffffffff1681565b60008060149054906101000a900460ff16905090565b6201518081565b60006003821115611fb957600060026001840181611f8457fe5b0490508291505b81811015611fb357809150600281828581611fa257fe5b040181611fab57fe5b049050611f8b565b50611fc7565b60008214611fc657600190505b5b919050565b600660019054906101000a900473ffffffffffffffffffffffffffffffffffffffff1681565b60008060149054906101000a900460ff1615612076576040517f08c379a00000000000000000000000000000000000000000000000000000000081526004018080602001828103825260108152602001807f5061757361626c653a207061757365640000000000000000000000000000000081525060200191505060405180910390fd5b600060159054906101000a900460ff166120f8576040517f08c379a000000000000000000000000000000000000000000000000000000000815260040180806020018281038252601f8152602001807f5265656e7472616e637947756172643a207265656e7472616e742063616c6c0081525060200191505060405180910390fd5b60008060156101000a81548160ff02191690831515021790555060008273ffffffffffffffffffffffffffffffffffffffff16634a244e546040518163ffffffff1660e01b815260040160206040518083038186803b15801561215a57600080fd5b505afa15801561216e573d6000803e3d6000fd5b505050506040513d602081101561218457600080fd5b81019080805190602001909291905050509050600960009054906101000a900473ffffffffffffffffffffffffffffffffffffffff1673ffffffffffffffffffffffffffffffffffffffff168173ffffffffffffffffffffffffffffffffffffffff1614156122735783341480156121fc5750600084115b61226e576040517f08c379a000000000000000000000000000000000000000000000000000000000815260040180806020018281038252600b8152602001807f4552525f42414c5f45544800000000000000000000000000000000000000000081525060200191505060405180910390fd5b6123ad565b838173ffffffffffffffffffffffffffffffffffffffff166370a08231336040518263ffffffff1660e01b8152600401808273ffffffffffffffffffffffffffffffffffffffff1673ffffffffffffffffffffffffffffffffffffffff16815260200191505060206040518083038186803b1580156122f157600080fd5b505afa158015612305573d6000803e3d6000fd5b505050506040513d602081101561231b57600080fd5b81019080805190602001909291905050501015801561233a5750600084115b6123ac576040517f08c379a00000000000000000000000000000000000000000000000000000000081526004018080602001828103825260128152602001807f4552525f42414c5f554e4445524c59494e47000000000000000000000000000081525060200191505060405180910390fd5b5b6000808273ffffffffffffffffffffffffffffffffffffffff166370a08231306040518263ffffffff1660e01b8152600401808273ffffffffffffffffffffffffffffffffffffffff1673ffffffffffffffffffffffffffffffffffffffff16815260200191505060206040518083038186803b15801561242d57600080fd5b505afa158015612441573d6000803e3d6000fd5b505050506040513d602081101561245757600080fd5b810190808051906020019092919050505090506000612474611b79565b9050600061248b8284613ce090919063ffffffff16565b141561249957869250612569565b816124ad8289613ce090919063ffffffff16565b101561254057816124c78289613ce090919063ffffffff16565b101561253b576040517f08c379a00000000000000000000000000000000000000000000000000000000081526004018080602001828103825260088152602001807f4552525f5a45524f00000000000000000000000000000000000000000000000081525060200191505060405180910390fd5b612568565b61256582612557838a613ce090919063ffffffff16565b613d6690919063ffffffff16565b92505b5b61257333846145f5565b3373ffffffffffffffffffffffffffffffffffffffff167f90890809c654f11d6e72a28fa60149770a0d11ec6c92319d6ceb2bb0a4ea1a158885604051808381526020018281526020019250505060405180910390a2600960009054906101000a900473ffffffffffffffffffffffffffffffffffffffff1673ffffffffffffffffffffffffffffffffffffffff168473ffffffffffffffffffffffffffffffffffffffff1614156126af57600960009054906101000a900473ffffffffffffffffffffffffffffffffffffffff1673ffffffffffffffffffffffffffffffffffffffff1663d0e30db0346040518263ffffffff1660e01b81526004016000604051808303818588803b15801561268957600080fd5b505af115801561269d573d6000803e3d6000fd5b505050505060019450505050506127ac565b8373ffffffffffffffffffffffffffffffffffffffff166323b872dd33308a6040518463ffffffff1660e01b8152600401808473ffffffffffffffffffffffffffffffffffffffff1673ffffffffffffffffffffffffffffffffffffffff1681526020018373ffffffffffffffffffffffffffffffffffffffff1673ffffffffffffffffffffffffffffffffffffffff1681526020018281526020019350505050602060405180830381600087803b15801561276a57600080fd5b505af115801561277e573d6000803e3d6000fd5b505050506040513d602081101561279457600080fd5b81019080805190602001909291905050509450505050505b6001600060156101000a81548160ff02191690831515021790555092915050565b6000600160008373ffffffffffffffffffffffffffffffffffffffff1673ffffffffffffffffffffffffffffffffffffffff168152602001908152602001600020549050919050565b61281e613e97565b73ffffffffffffffffffffffffffffffffffffffff166000809054906101000a900473ffffffffffffffffffffffffffffffffffffffff1673ffffffffffffffffffffffffffffffffffffffff16146128df576040517f08c379a00000000000000000000000000000000000000000000000000000000081526004018080602001828103825260208152602001807f4f776e61626c653a2063616c6c6572206973206e6f7420746865206f776e657281525060200191505060405180910390fd5b600073ffffffffffffffffffffffffffffffffffffffff166000809054906101000a900473ffffffffffffffffffffffffffffffffffffffff1673ffffffffffffffffffffffffffffffffffffffff167f8be0079c531659141344cd1fd0a4f28419497f9722a3daafe3b4186f6b6457e060405160405180910390a360008060006101000a81548173ffffffffffffffffffffffffffffffffffffffff021916908373ffffffffffffffffffffffffffffffffffffffff160217905550565b6000806129ac858585611c5c565b905060008673ffffffffffffffffffffffffffffffffffffffff166370a08231306040518263ffffffff1660e01b8152600401808273ffffffffffffffffffffffffffffffffffffffff1673ffffffffffffffffffffffffffffffffffffffff16815260200191505060206040518083038186803b158015612a2d57600080fd5b505afa158015612a41573d6000803e3d6000fd5b505050506040513d6020811015612a5757600080fd5b8101908080519060200190929190505050905060008211612a79576064612ab3565b612ab2612a8f83836140e090919063ffffffff16565b612aa46103e885613ce090919063ffffffff16565b613d6690919063ffffffff16565b5b92505050949350505050565b600860009054906101000a900473ffffffffffffffffffffffffffffffffffffffff1681565b60008060159054906101000a900460ff16612b68576040517f08c379a000000000000000000000000000000000000000000000000000000000815260040180806020018281038252601f8152602001807f5265656e7472616e637947756172643a207265656e7472616e742063616c6c0081525060200191505060405180910390fd5b60008060156101000a81548160ff021916908315150217905550818073ffffffffffffffffffffffffffffffffffffffff16600a60008373ffffffffffffffffffffffffffffffffffffffff16636ed71ede6040518163ffffffff1660e01b815260040160206040518083038186803b158015612be457600080fd5b505afa158015612bf8573d6000803e3d6000fd5b505050506040513d6020811015612c0e57600080fd5b8101908080519060200190929190505050815260200190815260200160002060009054906101000a900473ffffffffffffffffffffffffffffffffffffffff1673ffffffffffffffffffffffffffffffffffffffff1614612cd7576040517f08c379a00000000000000000000000000000000000000000000000000000000081526004018080602001828103825260098152602001807f4552525f5052494d45000000000000000000000000000000000000000000000081525060200191505060405180910390fd5b6000806000806000808873ffffffffffffffffffffffffffffffffffffffff1663c7ee005e6040518163ffffffff1660e01b815260040160c06040518083038186803b158015612d2657600080fd5b505afa158015612d3a573d6000803e3d6000fd5b505050506040513d60c0811015612d5057600080fd5b81019080805190602001909291908051906020019092919080519060200190929190805190602001909291908051906020019092919080519060200190929190505050955095509550955095509550612dab8685858561299e565b6007819055506000612dbe8484846118e4565b509050612dee670de0b6b3a7640000612de0838e613ce090919063ffffffff16565b613d6690919063ffffffff16565b9050600960009054906101000a900473ffffffffffffffffffffffffffffffffffffffff1673ffffffffffffffffffffffffffffffffffffffff168673ffffffffffffffffffffffffffffffffffffffff161415612f6d57803410158015612e565750600081115b612ec8576040517f08c379a000000000000000000000000000000000000000000000000000000000815260040180806020018281038252600b8152602001807f4552525f42414c5f45544800000000000000000000000000000000000000000081525060200191505060405180910390fd5b600960009054906101000a900473ffffffffffffffffffffffffffffffffffffffff1673ffffffffffffffffffffffffffffffffffffffff1663d0e30db0826040518263ffffffff1660e01b81526004016000604051808303818588803b158015612f3257600080fd5b505af1158015612f46573d6000803e3d6000fd5b5050505050612f6733612f62833461409690919063ffffffff16565b613db0565b506130a7565b8a8673ffffffffffffffffffffffffffffffffffffffff166370a08231336040518263ffffffff1660e01b8152600401808273ffffffffffffffffffffffffffffffffffffffff1673ffffffffffffffffffffffffffffffffffffffff16815260200191505060206040518083038186803b158015612feb57600080fd5b505afa158015612fff573d6000803e3d6000fd5b505050506040513d602081101561301557600080fd5b810190808051906020019092919050505010158015613034575060008b115b6130a6576040517f08c379a000000000000000000000000000000000000000000000000000000000815260040180806020018281038252600e8152602001807f4552525f42414c5f535452494b4500000000000000000000000000000000000081525060200191505060405180910390fd5b5b60006130ce846130c0878f613ce090919063ffffffff16565b613d6690919063ffffffff16565b905060008873ffffffffffffffffffffffffffffffffffffffff1663a9059cbb8d846040518363ffffffff1660e01b8152600401808373ffffffffffffffffffffffffffffffffffffffff1673ffffffffffffffffffffffffffffffffffffffff16815260200182815260200192505050602060405180830381600087803b15801561315957600080fd5b505af115801561316d573d6000803e3d6000fd5b505050506040513d602081101561318357600080fd5b8101908080519060200190929190505050905060008c73ffffffffffffffffffffffffffffffffffffffff16636a627842306040518263ffffffff1660e01b8152600401808273ffffffffffffffffffffffffffffffffffffffff1673ffffffffffffffffffffffffffffffffffffffff1681526020019150506040805180830381600087803b15801561321657600080fd5b505af115801561322a573d6000803e3d6000fd5b505050506040513d604081101561324057600080fd5b8101908080519060200190929190805190602001909291905050505090503373ffffffffffffffffffffffffffffffffffffffff167fbeae048c6d270d9469f86cf6e8fedda3c60ad770f16c24c9fc131c8e9a09101d8f858760405180848152602001838152602001828152602001935050505060405180910390a281801561338757508c73ffffffffffffffffffffffffffffffffffffffff1663a9059cbb33836040518363ffffffff1660e01b8152600401808373ffffffffffffffffffffffffffffffffffffffff1673ffffffffffffffffffffffffffffffffffffffff16815260200182815260200192505050602060405180830381600087803b15801561334b57600080fd5b505af115801561335f573d6000803e3d6000fd5b505050506040513d602081101561337557600080fd5b81019080805190602001909291905050505b9b5050505050505050505050506001600060156101000a81548160ff02191690831515021790555092915050565b60006133bf613e97565b73ffffffffffffffffffffffffffffffffffffffff166000809054906101000a900473ffffffffffffffffffffffffffffffffffffffff1673ffffffffffffffffffffffffffffffffffffffff1614613480576040517f08c379a00000000000000000000000000000000000000000000000000000000081526004018080602001828103825260208152602001807f4f776e61626c653a2063616c6c6572206973206e6f7420746865206f776e657281525060200191505060405180910390fd5b6134886147be565b6001905090565b60008060009054906101000a900473ffffffffffffffffffffffffffffffffffffffff16905090565b60006134c2613e97565b73ffffffffffffffffffffffffffffffffffffffff166000809054906101000a900473ffffffffffffffffffffffffffffffffffffffff1673ffffffffffffffffffffffffffffffffffffffff1614613583576040517f08c379a00000000000000000000000000000000000000000000000000000000081526004018080602001828103825260208152602001807f4f776e61626c653a2063616c6c6572206973206e6f7420746865206f776e657281525060200191505060405180910390fd5b81600a60008473ffffffffffffffffffffffffffffffffffffffff16636ed71ede6040518163ffffffff1660e01b815260040160206040518083038186803b1580156135ce57600080fd5b505afa1580156135e2573d6000803e3d6000fd5b505050506040513d60208110156135f857600080fd5b8101908080519060200190929190505050815260200190815260200160002060006101000a81548173ffffffffffffffffffffffffffffffffffffffff021916908373ffffffffffffffffffffffffffffffffffffffff1602179055507f10a6f3b321a2a208b61ef604cd6ef66d5d79ee16620737c0ca6cfc0649fcc94f82604051808273ffffffffffffffffffffffffffffffffffffffff1673ffffffffffffffffffffffffffffffffffffffff16815260200191505060405180910390a1819050919050565b606060058054600181600116156101000203166002900480601f0160208091040260200160405190810160405280929190818152602001828054600181600116156101000203166002900480156137585780601f1061372d57610100808354040283529160200191613758565b820191906000526020600020905b81548152906001019060200180831161373b57829003601f168201915b5050505050905090565b600061382561376f613e97565b8461382085604051806060016040528060258152602001614afa6025913960026000613799613e97565b73ffffffffffffffffffffffffffffffffffffffff1673ffffffffffffffffffffffffffffffffffffffff16815260200190815260200160002060008a73ffffffffffffffffffffffffffffffffffffffff1673ffffffffffffffffffffffffffffffffffffffff1681526020019081526020016000205461442d9092919063ffffffff16565b613e9f565b6001905092915050565b600061384361383c613e97565b8484614168565b6001905092915050565b600a6020528060005260406000206000915054906101000a900473ffffffffffffffffffffffffffffffffffffffff1681565b60075481565b6000600260008473ffffffffffffffffffffffffffffffffffffffff1673ffffffffffffffffffffffffffffffffffffffff16815260200190815260200160002060008373ffffffffffffffffffffffffffffffffffffffff1673ffffffffffffffffffffffffffffffffffffffff16815260200190815260200160002054905092915050565b613915613e97565b73ffffffffffffffffffffffffffffffffffffffff166000809054906101000a900473ffffffffffffffffffffffffffffffffffffffff1673ffffffffffffffffffffffffffffffffffffffff16146139d6576040517f08c379a00000000000000000000000000000000000000000000000000000000081526004018080602001828103825260208152602001807f4f776e61626c653a2063616c6c6572206973206e6f7420746865206f776e657281525060200191505060405180910390fd5b600073ffffffffffffffffffffffffffffffffffffffff168173ffffffffffffffffffffffffffffffffffffffff161415613a5c576040517f08c379a00000000000000000000000000000000000000000000000000000000081526004018080602001828103825260268152602001806149d96026913960400191505060405180910390fd5b8073ffffffffffffffffffffffffffffffffffffffff166000809054906101000a900473ffffffffffffffffffffffffffffffffffffffff1673ffffffffffffffffffffffffffffffffffffffff167f8be0079c531659141344cd1fd0a4f28419497f9722a3daafe3b4186f6b6457e060405160405180910390a3806000806101000a81548173ffffffffffffffffffffffffffffffffffffffff021916908373ffffffffffffffffffffffffffffffffffffffff16021790555050565b600073ffffffffffffffffffffffffffffffffffffffff168273ffffffffffffffffffffffffffffffffffffffff161415613ba0576040517f08c379a0000000000000000000000000000000000000000000000000000000008152600401808060200182810382526021815260200180614a906021913960400191505060405180910390fd5b613bac826000836148c8565b613c18816040518060600160405280602281526020016149b760229139600160008673ffffffffffffffffffffffffffffffffffffffff1673ffffffffffffffffffffffffffffffffffffffff1681526020019081526020016000205461442d9092919063ffffffff16565b600160008473ffffffffffffffffffffffffffffffffffffffff1673ffffffffffffffffffffffffffffffffffffffff16815260200190815260200160002081905550613c708160035461409690919063ffffffff16565b600381905550600073ffffffffffffffffffffffffffffffffffffffff168273ffffffffffffffffffffffffffffffffffffffff167fddf252ad1be2c89b69c2b068fc378daa952ba7f163c4a11628f55a4df523b3ef836040518082815260200191505060405180910390a35050565b600080831415613cf35760009050613d60565b6000828402905082848281613d0457fe5b0414613d5b576040517f08c379a0000000000000000000000000000000000000000000000000000000008152600401808060200182810382526021815260200180614a476021913960400191505060405180910390fd5b809150505b92915050565b6000613da883836040518060400160405280601a81526020017f536166654d6174683a206469766973696f6e206279207a65726f0000000000008152506148cd565b905092915050565b6000808373ffffffffffffffffffffffffffffffffffffffff168360405180600001905060006040518083038185875af1925050503d8060008114613e11576040519150601f19603f3d011682016040523d82523d6000602084013e613e16565b606091505b5050905080613e8d576040517f08c379a000000000000000000000000000000000000000000000000000000000815260040180806020018281038252600e8152602001807f4552525f53454e445f455448455200000000000000000000000000000000000081525060200191505060405180910390fd5b8091505092915050565b600033905090565b600073ffffffffffffffffffffffffffffffffffffffff168373ffffffffffffffffffffffffffffffffffffffff161415613f25576040517f08c379a0000000000000000000000000000000000000000000000000000000008152600401808060200182810382526024815260200180614ad66024913960400191505060405180910390fd5b600073ffffffffffffffffffffffffffffffffffffffff168273ffffffffffffffffffffffffffffffffffffffff161415613fab576040517f08c379a00000000000000000000000000000000000000000000000000000000081526004018080602001828103825260228152602001806149ff6022913960400191505060405180910390fd5b80600260008573ffffffffffffffffffffffffffffffffffffffff1673ffffffffffffffffffffffffffffffffffffffff16815260200190815260200160002060008473ffffffffffffffffffffffffffffffffffffffff1673ffffffffffffffffffffffffffffffffffffffff168152602001908152602001600020819055508173ffffffffffffffffffffffffffffffffffffffff168373ffffffffffffffffffffffffffffffffffffffff167f8c5be1e5ebec7d5bd14f71427d1e84f3dd0314c0f7b2291e5b200ac8c7c3b925836040518082815260200191505060405180910390a3505050565b60006140d883836040518060400160405280601e81526020017f536166654d6174683a207375627472616374696f6e206f766572666c6f77000081525061442d565b905092915050565b60008082840190508381101561415e576040517f08c379a000000000000000000000000000000000000000000000000000000000815260040180806020018281038252601b8152602001807f536166654d6174683a206164646974696f6e206f766572666c6f77000000000081525060200191505060405180910390fd5b8091505092915050565b600073ffffffffffffffffffffffffffffffffffffffff168373ffffffffffffffffffffffffffffffffffffffff1614156141ee576040517f08c379a0000000000000000000000000000000000000000000000000000000008152600401808060200182810382526025815260200180614ab16025913960400191505060405180910390fd5b600073ffffffffffffffffffffffffffffffffffffffff168273ffffffffffffffffffffffffffffffffffffffff161415614274576040517f08c379a00000000000000000000000000000000000000000000000000000000081526004018080602001828103825260238152602001806149946023913960400191505060405180910390fd5b61427f8383836148c8565b6142eb81604051806060016040528060268152602001614a2160269139600160008773ffffffffffffffffffffffffffffffffffffffff1673ffffffffffffffffffffffffffffffffffffffff1681526020019081526020016000205461442d9092919063ffffffff16565b600160008573ffffffffffffffffffffffffffffffffffffffff1673ffffffffffffffffffffffffffffffffffffffff1681526020019081526020016000208190555061438081600160008573ffffffffffffffffffffffffffffffffffffffff1673ffffffffffffffffffffffffffffffffffffffff168152602001908152602001600020546140e090919063ffffffff16565b600160008473ffffffffffffffffffffffffffffffffffffffff1673ffffffffffffffffffffffffffffffffffffffff168152602001908152602001600020819055508173ffffffffffffffffffffffffffffffffffffffff168373ffffffffffffffffffffffffffffffffffffffff167fddf252ad1be2c89b69c2b068fc378daa952ba7f163c4a11628f55a4df523b3ef836040518082815260200191505060405180910390a3505050565b60008383111582906144da576040517f08c379a00000000000000000000000000000000000000000000000000000000081526004018080602001828103825283818151815260200191508051906020019080838360005b8381101561449f578082015181840152602081019050614484565b50505050905090810190601f1680156144cc5780820380516001836020036101000a031916815260200191505b509250505060405180910390fd5b5060008385039050809150509392505050565b600060149054906101000a900460ff1661456f576040517f08c379a00000000000000000000000000000000000000000000000000000000081526004018080602001828103825260148152602001807f5061757361626c653a206e6f742070617573656400000000000000000000000081525060200191505060405180910390fd5b60008060146101000a81548160ff0219169083151502179055507f5db9ee0a495bf2e6ff9c91a7834c1ba4fdd244a5e8aa4e537bd38aeae4b073aa6145b2613e97565b604051808273ffffffffffffffffffffffffffffffffffffffff1673ffffffffffffffffffffffffffffffffffffffff16815260200191505060405180910390a1565b600073ffffffffffffffffffffffffffffffffffffffff168273ffffffffffffffffffffffffffffffffffffffff161415614698576040517f08c379a000000000000000000000000000000000000000000000000000000000815260040180806020018281038252601f8152602001807f45524332303a206d696e7420746f20746865207a65726f20616464726573730081525060200191505060405180910390fd5b6146a4600083836148c8565b6146b9816003546140e090919063ffffffff16565b60038190555061471181600160008573ffffffffffffffffffffffffffffffffffffffff1673ffffffffffffffffffffffffffffffffffffffff168152602001908152602001600020546140e090919063ffffffff16565b600160008473ffffffffffffffffffffffffffffffffffffffff1673ffffffffffffffffffffffffffffffffffffffff168152602001908152602001600020819055508173ffffffffffffffffffffffffffffffffffffffff16600073ffffffffffffffffffffffffffffffffffffffff167fddf252ad1be2c89b69c2b068fc378daa952ba7f163c4a11628f55a4df523b3ef836040518082815260200191505060405180910390a35050565b600060149054906101000a900460ff1615614841576040517f08c379a00000000000000000000000000000000000000000000000000000000081526004018080602001828103825260108152602001807f5061757361626c653a207061757365640000000000000000000000000000000081525060200191505060405180910390fd5b6001600060146101000a81548160ff0219169083151502179055507f62e78cea01bee320cd4e420270b5ea74000d11b0c9f74754ebdbfc544b05a258614885613e97565b604051808273ffffffffffffffffffffffffffffffffffffffff1673ffffffffffffffffffffffffffffffffffffffff16815260200191505060405180910390a1565b505050565b60008083118290614979576040517f08c379a00000000000000000000000000000000000000000000000000000000081526004018080602001828103825283818151815260200191508051906020019080838360005b8381101561493e578082015181840152602081019050614923565b50505050905090810190601f16801561496b5780820380516001836020036101000a031916815260200191505b509250505060405180910390fd5b50600083858161498557fe5b04905080915050939250505056fe45524332303a207472616e7366657220746f20746865207a65726f206164647265737345524332303a206275726e20616d6f756e7420657863656564732062616c616e63654f776e61626c653a206e6577206f776e657220697320746865207a65726f206164647265737345524332303a20617070726f766520746f20746865207a65726f206164647265737345524332303a207472616e7366657220616d6f756e7420657863656564732062616c616e6365536166654d6174683a206d756c7469706c69636174696f6e206f766572666c6f7745524332303a207472616e7366657220616d6f756e74206578636565647320616c6c6f77616e636545524332303a206275726e2066726f6d20746865207a65726f206164647265737345524332303a207472616e736665722066726f6d20746865207a65726f206164647265737345524332303a20617070726f76652066726f6d20746865207a65726f206164647265737345524332303a2064656372656173656420616c6c6f77616e63652062656c6f77207a65726fa264697066735822122090e86876c0c440ba256eaa46f8b483b8c68380391ba73210afe5681f14ef952864736f6c634300060200334f776e61626c653a206e6577206f776e657220697320746865207a65726f2061646472657373a2646970667358221220b34893137f71a9b33b0150db893402b5ba63a67aa2af80d59efd98a87021b80c64736f6c634300060200334f776e61626c653a206e6577206f776e657220697320746865207a65726f2061646472657373",
  "source": "pragma solidity ^0.6.2;\r\n\r\n/**\r\n * @title Primitive's Pool Factory\r\n * @author Primitive\r\n */\r\n\r\nimport \"../PrimePool.sol\";\r\n\r\ncontract ControllerPool is Ownable {\r\n\r\n    address payable public weth;\r\n    mapping(address => mapping(address => address payable)) public makerFor;\r\n\r\n    constructor(address controller, address payable _weth) public {\r\n        transferOwnership(controller);\r\n        weth = _weth;\r\n    }\r\n\r\n    function addPool(\r\n        address oracle,\r\n        string memory name,\r\n        string memory symbol,\r\n        address tokenU,\r\n        address tokenS\r\n    ) public onlyOwner returns (address payable) {\r\n        PrimePool primePool = new PrimePool(\r\n            weth,\r\n            oracle,\r\n            name,\r\n            symbol\r\n        );\r\n        makerFor[tokenU][tokenS] = address(primePool);\r\n        return address(primePool);\r\n    }\r\n\r\n    function addMarket(address payable maker, address tokenP) public onlyOwner returns (address) {\r\n        PrimePool(maker).addMarket(tokenP);\r\n        return tokenP;\r\n    }\r\n}",
  "sourcePath": "C:\\Users\\alexa\\OneDrive\\Documents\\Master\\Blockchain\\Projects\\carbon\\contracts\\controller\\ControllerPool.sol",
  "compiler": {
    "name": "solc",
    "version": "0.6.2+commit.bacdbe57.Emscripten.clang"
  },
  "schemaVersion": "3.0.23",
  "updatedAt": "2020-04-30T21:06:37.217Z",
  "devdoc": {
    "methods": {
      "owner()": {
        "details": "Returns the address of the current owner."
      },
      "renounceOwnership()": {
        "details": "Leaves the contract without owner. It will not be possible to call `onlyOwner` functions anymore. Can only be called by the current owner.     * NOTE: Renouncing ownership will leave the contract without an owner, thereby removing any functionality that is only available to the owner."
      },
      "transferOwnership(address)": {
        "details": "Transfers ownership of the contract to a new account (`newOwner`). Can only be called by the current owner."
      }
    }
  },
  "userdoc": {
    "methods": {}
  }
}