{
  "contractName": "ControllerPool",
  "abi": [
    {
      "inputs": [
        {
          "internalType": "address",
          "name": "controller",
          "type": "address"
        }
      ],
      "stateMutability": "nonpayable",
      "type": "constructor"
    },
    {
      "anonymous": false,
      "inputs": [
        {
          "indexed": true,
          "internalType": "address",
          "name": "previousOwner",
          "type": "address"
        },
        {
          "indexed": true,
          "internalType": "address",
          "name": "newOwner",
          "type": "address"
        }
      ],
      "name": "OwnershipTransferred",
      "type": "event"
    },
    {
      "inputs": [],
      "name": "_maker",
      "outputs": [
        {
          "internalType": "contract PrimePool",
          "name": "",
          "type": "address"
        }
      ],
      "stateMutability": "view",
      "type": "function"
    },
    {
      "inputs": [],
      "name": "isOwner",
      "outputs": [
        {
          "internalType": "bool",
          "name": "",
          "type": "bool"
        }
      ],
      "stateMutability": "view",
      "type": "function"
    },
    {
      "inputs": [],
      "name": "owner",
      "outputs": [
        {
          "internalType": "address",
          "name": "",
          "type": "address"
        }
      ],
      "stateMutability": "view",
      "type": "function"
    },
    {
      "inputs": [],
      "name": "renounceOwnership",
      "outputs": [],
      "stateMutability": "nonpayable",
      "type": "function"
    },
    {
      "inputs": [
        {
          "internalType": "address",
          "name": "newOwner",
          "type": "address"
        }
      ],
      "name": "transferOwnership",
      "outputs": [],
      "stateMutability": "nonpayable",
      "type": "function"
    },
    {
      "inputs": [
        {
          "internalType": "address",
          "name": "compoundEther",
          "type": "address"
        }
      ],
      "name": "addPool",
      "outputs": [
        {
          "internalType": "address",
          "name": "",
          "type": "address"
        }
      ],
      "stateMutability": "nonpayable",
      "type": "function"
    },
    {
      "inputs": [
        {
          "internalType": "address payable",
          "name": "primeOption",
          "type": "address"
        }
      ],
      "name": "addMarket",
      "outputs": [
        {
          "internalType": "address",
          "name": "",
          "type": "address"
        }
      ],
      "stateMutability": "nonpayable",
      "type": "function"
    }
  ],
  "bytecode": "0x608060405234801561001057600080fd5b506040516146093803806146098339818101604052602081101561003357600080fd5b8101908080519060200190929190505050600061005461010760201b60201c565b9050806000806101000a81548173ffffffffffffffffffffffffffffffffffffffff021916908373ffffffffffffffffffffffffffffffffffffffff1602179055508073ffffffffffffffffffffffffffffffffffffffff16600073ffffffffffffffffffffffffffffffffffffffff167f8be0079c531659141344cd1fd0a4f28419497f9722a3daafe3b4186f6b6457e060405160405180910390a3506101018161010f60201b60201c565b50610349565b600033905090565b61011d6101a160201b60201c565b61018f576040517f08c379a00000000000000000000000000000000000000000000000000000000081526004018080602001828103825260208152602001807f4f776e61626c653a2063616c6c6572206973206e6f7420746865206f776e657281525060200191505060405180910390fd5b61019e8161020560201b60201c565b50565b60008060009054906101000a900473ffffffffffffffffffffffffffffffffffffffff1673ffffffffffffffffffffffffffffffffffffffff166101e961010760201b60201c565b73ffffffffffffffffffffffffffffffffffffffff1614905090565b600073ffffffffffffffffffffffffffffffffffffffff168173ffffffffffffffffffffffffffffffffffffffff16141561028b576040517f08c379a00000000000000000000000000000000000000000000000000000000081526004018080602001828103825260268152602001806145e36026913960400191505060405180910390fd5b8073ffffffffffffffffffffffffffffffffffffffff166000809054906101000a900473ffffffffffffffffffffffffffffffffffffffff1673ffffffffffffffffffffffffffffffffffffffff167f8be0079c531659141344cd1fd0a4f28419497f9722a3daafe3b4186f6b6457e060405160405180910390a3806000806101000a81548173ffffffffffffffffffffffffffffffffffffffff021916908373ffffffffffffffffffffffffffffffffffffffff16021790555050565b61428b806103586000396000f3fe608060405234801561001057600080fd5b506004361061007d5760003560e01c806393e306331161005b57806393e30633146100f8578063d914cd4b1461017c578063f2fde38b14610200578063fc2e9e7b146102445761007d565b8063715018a6146100825780638da5cb5b1461008c5780638f32d59b146100d6575b600080fd5b61008a61028e565b005b6100946103c7565b604051808273ffffffffffffffffffffffffffffffffffffffff1673ffffffffffffffffffffffffffffffffffffffff16815260200191505060405180910390f35b6100de6103f0565b604051808215151515815260200191505060405180910390f35b61013a6004803603602081101561010e57600080fd5b81019080803573ffffffffffffffffffffffffffffffffffffffff16906020019092919050505061044e565b604051808273ffffffffffffffffffffffffffffffffffffffff1673ffffffffffffffffffffffffffffffffffffffff16815260200191505060405180910390f35b6101be6004803603602081101561019257600080fd5b81019080803573ffffffffffffffffffffffffffffffffffffffff1690602001909291905050506105af565b604051808273ffffffffffffffffffffffffffffffffffffffff1673ffffffffffffffffffffffffffffffffffffffff16815260200191505060405180910390f35b6102426004803603602081101561021657600080fd5b81019080803573ffffffffffffffffffffffffffffffffffffffff1690602001909291905050506106d9565b005b61024c61075f565b604051808273ffffffffffffffffffffffffffffffffffffffff1673ffffffffffffffffffffffffffffffffffffffff16815260200191505060405180910390f35b6102966103f0565b610308576040517f08c379a00000000000000000000000000000000000000000000000000000000081526004018080602001828103825260208152602001807f4f776e61626c653a2063616c6c6572206973206e6f7420746865206f776e657281525060200191505060405180910390fd5b600073ffffffffffffffffffffffffffffffffffffffff166000809054906101000a900473ffffffffffffffffffffffffffffffffffffffff1673ffffffffffffffffffffffffffffffffffffffff167f8be0079c531659141344cd1fd0a4f28419497f9722a3daafe3b4186f6b6457e060405160405180910390a360008060006101000a81548173ffffffffffffffffffffffffffffffffffffffff021916908373ffffffffffffffffffffffffffffffffffffffff160217905550565b60008060009054906101000a900473ffffffffffffffffffffffffffffffffffffffff16905090565b60008060009054906101000a900473ffffffffffffffffffffffffffffffffffffffff1673ffffffffffffffffffffffffffffffffffffffff16610432610785565b73ffffffffffffffffffffffffffffffffffffffff1614905090565b60006104586103f0565b6104ca576040517f08c379a00000000000000000000000000000000000000000000000000000000081526004018080602001828103825260208152602001807f4f776e61626c653a2063616c6c6572206973206e6f7420746865206f776e657281525060200191505060405180910390fd5b600160009054906101000a900473ffffffffffffffffffffffffffffffffffffffff1673ffffffffffffffffffffffffffffffffffffffff166393e30633836040518263ffffffff1660e01b8152600401808273ffffffffffffffffffffffffffffffffffffffff1673ffffffffffffffffffffffffffffffffffffffff168152602001915050602060405180830381600087803b15801561056b57600080fd5b505af115801561057f573d6000803e3d6000fd5b505050506040513d602081101561059557600080fd5b810190808051906020019092919050505050819050919050565b60006105b96103f0565b61062b576040517f08c379a00000000000000000000000000000000000000000000000000000000081526004018080602001828103825260208152602001807f4f776e61626c653a2063616c6c6572206973206e6f7420746865206f776e657281525060200191505060405180910390fd5b60008260405161063a906108d1565b808273ffffffffffffffffffffffffffffffffffffffff1673ffffffffffffffffffffffffffffffffffffffff168152602001915050604051809103906000f08015801561068c573d6000803e3d6000fd5b50905080600160006101000a81548173ffffffffffffffffffffffffffffffffffffffff021916908373ffffffffffffffffffffffffffffffffffffffff16021790555080915050919050565b6106e16103f0565b610753576040517f08c379a00000000000000000000000000000000000000000000000000000000081526004018080602001828103825260208152602001807f4f776e61626c653a2063616c6c6572206973206e6f7420746865206f776e657281525060200191505060405180910390fd5b61075c8161078d565b50565b600160009054906101000a900473ffffffffffffffffffffffffffffffffffffffff1681565b600033905090565b600073ffffffffffffffffffffffffffffffffffffffff168173ffffffffffffffffffffffffffffffffffffffff161415610813576040517f08c379a00000000000000000000000000000000000000000000000000000000081526004018080602001828103825260268152602001806142306026913960400191505060405180910390fd5b8073ffffffffffffffffffffffffffffffffffffffff166000809054906101000a900473ffffffffffffffffffffffffffffffffffffffff1673ffffffffffffffffffffffffffffffffffffffff167f8be0079c531659141344cd1fd0a4f28419497f9722a3daafe3b4186f6b6457e060405160405180910390a3806000806101000a81548173ffffffffffffffffffffffffffffffffffffffff021916908373ffffffffffffffffffffffffffffffffffffffff16021790555050565b613951806108df8339019056fe60806040523480156200001157600080fd5b506040516200395138038062003951833981810160405260208110156200003757600080fd5b81019080805190602001909291905050506040518060400160405280601981526020017f4d61726b6574204d616b6572205072696d6974697665204c50000000000000008152506040518060400160405280600581526020017f6d50554c5000000000000000000000000000000000000000000000000000000081525060126000620000c86200023360201b60201c565b9050806000806101000a81548173ffffffffffffffffffffffffffffffffffffffff021916908373ffffffffffffffffffffffffffffffffffffffff1602179055508073ffffffffffffffffffffffffffffffffffffffff16600073ffffffffffffffffffffffffffffffffffffffff167f8be0079c531659141344cd1fd0a4f28419497f9722a3daafe3b4186f6b6457e060405160405180910390a35060008060146101000a81548160ff0219169083151502179055506001600060156101000a81548160ff0219169083151502179055508260049080519060200190620001b39291906200023b565b508160059080519060200190620001cc9291906200023b565b5080600660006101000a81548160ff021916908360ff16021790555050505080600760006101000a81548173ffffffffffffffffffffffffffffffffffffffff021916908373ffffffffffffffffffffffffffffffffffffffff16021790555050620002ea565b600033905090565b828054600181600116156101000203166002900490600052602060002090601f016020900481019282601f106200027e57805160ff1916838001178555620002af565b82800160010185558215620002af579182015b82811115620002ae57825182559160200191906001019062000291565b5b509050620002be9190620002c2565b5090565b620002e791905b80821115620002e3576000816000905550600101620002c9565b5090565b90565b61365780620002fa6000396000f3fe6080604052600436106101fd5760003560e01c80638f32d59b1161010d578063abd70aa2116100a0578063dc90235c1161006f578063dc90235c14610b75578063dd62ed3e14610ba0578063e07acf1714610c25578063ece04be014610c7c578063f2fde38b14610ca757610204565b8063abd70aa214610a78578063b6b55f2514610aa3578063ccd7692114610ae9578063db006a7514610b2f57610204565b80639c54297c116100dc5780639c54297c1461090c578063a126d6011461094c578063a457c2d714610992578063a9059cbb14610a0557610204565b80638f32d59b1461076557806391b9cd821461079457806393e30633146107eb57806395d89b411461087c57610204565b80633950935111610190578063715018a61161015f578063715018a6146105fa5780637b3b67f11461061157806387431a281461068c57806389332f7f146106e35780638da5cb5b1461070e57610204565b806339509351146104c85780634ba394681461053b5780635c975abb1461056657806370a082311461059557610204565b806323b872dd116101cc57806323b872dd146103625780632e1a7d4d146103f5578063313ce567146104485780633945251f1461047957610204565b80630207bb5c1461020957806306fdde0314610234578063095ea7b3146102c457806318160ddd1461033757610204565b3661020457005b600080fd5b34801561021557600080fd5b5061021e610cf8565b6040518082815260200191505060405180910390f35b34801561024057600080fd5b50610249610cfe565b6040518080602001828103825283818151815260200191508051906020019080838360005b8381101561028957808201518184015260208101905061026e565b50505050905090810190601f1680156102b65780820380516001836020036101000a031916815260200191505b509250505060405180910390f35b3480156102d057600080fd5b5061031d600480360360408110156102e757600080fd5b81019080803573ffffffffffffffffffffffffffffffffffffffff16906020019092919080359060200190929190505050610da0565b604051808215151515815260200191505060405180910390f35b34801561034357600080fd5b5061034c610dbe565b6040518082815260200191505060405180910390f35b34801561036e57600080fd5b506103db6004803603606081101561038557600080fd5b81019080803573ffffffffffffffffffffffffffffffffffffffff169060200190929190803573ffffffffffffffffffffffffffffffffffffffff16906020019092919080359060200190929190505050610dc8565b604051808215151515815260200191505060405180910390f35b34801561040157600080fd5b5061042e6004803603602081101561041857600080fd5b8101908080359060200190929190505050610ea1565b604051808215151515815260200191505060405180910390f35b34801561045457600080fd5b5061045d6110cd565b604051808260ff1660ff16815260200191505060405180910390f35b34801561048557600080fd5b506104b26004803603602081101561049c57600080fd5b81019080803590602001909291905050506110e4565b6040518082815260200191505060405180910390f35b3480156104d457600080fd5b50610521600480360360408110156104eb57600080fd5b81019080803573ffffffffffffffffffffffffffffffffffffffff16906020019092919080359060200190929190505050611151565b604051808215151515815260200191505060405180910390f35b34801561054757600080fd5b50610550611204565b6040518082815260200191505060405180910390f35b34801561057257600080fd5b5061057b61125e565b604051808215151515815260200191505060405180910390f35b3480156105a157600080fd5b506105e4600480360360208110156105b857600080fd5b81019080803573ffffffffffffffffffffffffffffffffffffffff169060200190929190505050611274565b6040518082815260200191505060405180910390f35b34801561060657600080fd5b5061060f6112bd565b005b34801561061d57600080fd5b5061064a6004803603602081101561063457600080fd5b81019080803590602001909291905050506113f6565b604051808273ffffffffffffffffffffffffffffffffffffffff1673ffffffffffffffffffffffffffffffffffffffff16815260200191505060405180910390f35b34801561069857600080fd5b506106a1611432565b604051808273ffffffffffffffffffffffffffffffffffffffff1673ffffffffffffffffffffffffffffffffffffffff16815260200191505060405180910390f35b3480156106ef57600080fd5b506106f8611458565b6040518082815260200191505060405180910390f35b34801561071a57600080fd5b5061072361149b565b604051808273ffffffffffffffffffffffffffffffffffffffff1673ffffffffffffffffffffffffffffffffffffffff16815260200191505060405180910390f35b34801561077157600080fd5b5061077a6114c4565b604051808215151515815260200191505060405180910390f35b3480156107a057600080fd5b506107a9611522565b604051808273ffffffffffffffffffffffffffffffffffffffff1673ffffffffffffffffffffffffffffffffffffffff16815260200191505060405180910390f35b3480156107f757600080fd5b5061083a6004803603602081101561080e57600080fd5b81019080803573ffffffffffffffffffffffffffffffffffffffff169060200190929190505050611548565b604051808273ffffffffffffffffffffffffffffffffffffffff1673ffffffffffffffffffffffffffffffffffffffff16815260200191505060405180910390f35b34801561088857600080fd5b5061089161162f565b6040518080602001828103825283818151815260200191508051906020019080838360005b838110156108d15780820151818401526020810190506108b6565b50505050905090810190601f1680156108fe5780820380516001836020036101000a031916815260200191505b509250505060405180910390f35b34801561091857600080fd5b506109216116d1565b6040518085815260200184815260200183815260200182815260200194505050505060405180910390f35b6109786004803603602081101561096257600080fd5b81019080803590602001909291905050506117dd565b604051808215151515815260200191505060405180910390f35b34801561099e57600080fd5b506109eb600480360360408110156109b557600080fd5b81019080803573ffffffffffffffffffffffffffffffffffffffff169060200190929190803590602001909291905050506119ba565b604051808215151515815260200191505060405180910390f35b348015610a1157600080fd5b50610a5e60048036036040811015610a2857600080fd5b81019080803573ffffffffffffffffffffffffffffffffffffffff16906020019092919080359060200190929190505050611a87565b604051808215151515815260200191505060405180910390f35b348015610a8457600080fd5b50610a8d611aa5565b6040518082815260200191505060405180910390f35b610acf60048036036020811015610ab957600080fd5b8101908080359060200190929190505050611b88565b604051808215151515815260200191505060405180910390f35b610b1560048036036020811015610aff57600080fd5b8101908080359060200190929190505050611e30565b604051808215151515815260200191505060405180910390f35b610b5b60048036036020811015610b4557600080fd5b8101908080359060200190929190505050611ff7565b604051808215151515815260200191505060405180910390f35b348015610b8157600080fd5b50610b8a612329565b6040518082815260200191505060405180910390f35b348015610bac57600080fd5b50610c0f60048036036040811015610bc357600080fd5b81019080803573ffffffffffffffffffffffffffffffffffffffff169060200190929190803573ffffffffffffffffffffffffffffffffffffffff16906020019092919050505061232e565b6040518082815260200191505060405180910390f35b348015610c3157600080fd5b50610c3a6123b5565b604051808273ffffffffffffffffffffffffffffffffffffffff1673ffffffffffffffffffffffffffffffffffffffff16815260200191505060405180910390f35b348015610c8857600080fd5b50610c916123db565b6040518082815260200191505060405180910390f35b348015610cb357600080fd5b50610cf660048036036020811015610cca57600080fd5b81019080803573ffffffffffffffffffffffffffffffffffffffff1690602001909291905050506124a6565b005b600a5481565b606060048054600181600116156101000203166002900480601f016020809104026020016040519081016040528092919081815260200182805460018160011615610100020316600290048015610d965780601f10610d6b57610100808354040283529160200191610d96565b820191906000526020600020905b815481529060010190602001808311610d7957829003601f168201915b5050505050905090565b6000610db4610dad61252c565b8484612534565b6001905092915050565b6000600354905090565b6000610dd584848461272b565b610e9684610de161252c565b610e918560405180606001604052806028815260200161356b60289139600260008b73ffffffffffffffffffffffffffffffffffffffff1673ffffffffffffffffffffffffffffffffffffffff1681526020019081526020016000206000610e4761252c565b73ffffffffffffffffffffffffffffffffffffffff1673ffffffffffffffffffffffffffffffffffffffff168152602001908152602001600020546129f09092919063ffffffff16565b612534565b600190509392505050565b60008060159054906101000a900460ff16610f24576040517f08c379a000000000000000000000000000000000000000000000000000000000815260040180806020018281038252601f8152602001807f5265656e7472616e637947756172643a207265656e7472616e742063616c6c0081525060200191505060405180910390fd5b60008060156101000a81548160ff02191690831515021790555081610f4833611274565b1015610fbc576040517f08c379a00000000000000000000000000000000000000000000000000000000081526004018080602001828103825260188152602001807f57697468647261773a2042616c203c207769746864726177000000000000000081525060200191505060405180910390fd5b81610fc56123db565b1015611039576040517f08c379a00000000000000000000000000000000000000000000000000000000081526004018080602001828103825260188152602001807f57697468647261773a206d6178206275726e203c20616d74000000000000000081525060200191505060405180910390fd5b6110433383612ab0565b3373ffffffffffffffffffffffffffffffffffffffff167f9da6493a92039daf47d1f2d7a782299c5994c6323eb1e972f69c432089ec52bf611084846110e4565b84604051808381526020018281526020019250505060405180910390a26110ab8233612c76565b90506001600060156101000a81548160ff021916908315150217905550919050565b6000600660009054906101000a900460ff16905090565b6000806111086110f2611aa5565b6110fa610dbe565b612e8890919063ffffffff16565b14156111165781905061114c565b611149611121610dbe565b61113b61112c611aa5565b85612e8890919063ffffffff16565b612f0e90919063ffffffff16565b90505b919050565b60006111fa61115e61252c565b846111f5856002600061116f61252c565b73ffffffffffffffffffffffffffffffffffffffff1673ffffffffffffffffffffffffffffffffffffffff16815260200190815260200160002060008973ffffffffffffffffffffffffffffffffffffffff1673ffffffffffffffffffffffffffffffffffffffff16815260200190815260200160002054612f5890919063ffffffff16565b612534565b6001905092915050565b600080611228611212611aa5565b61121a610dbe565b612e8890919063ffffffff16565b1415611237576001905061125b565b611258611242611aa5565b61124a610dbe565b612f0e90919063ffffffff16565b90505b90565b60008060149054906101000a900460ff16905090565b6000600160008373ffffffffffffffffffffffffffffffffffffffff1673ffffffffffffffffffffffffffffffffffffffff168152602001908152602001600020549050919050565b6112c56114c4565b611337576040517f08c379a00000000000000000000000000000000000000000000000000000000081526004018080602001828103825260208152602001807f4f776e61626c653a2063616c6c6572206973206e6f7420746865206f776e657281525060200191505060405180910390fd5b600073ffffffffffffffffffffffffffffffffffffffff166000809054906101000a900473ffffffffffffffffffffffffffffffffffffffff1673ffffffffffffffffffffffffffffffffffffffff167f8be0079c531659141344cd1fd0a4f28419497f9722a3daafe3b4186f6b6457e060405160405180910390a360008060006101000a81548173ffffffffffffffffffffffffffffffffffffffff021916908373ffffffffffffffffffffffffffffffffffffffff160217905550565b6009818154811061140357fe5b906000526020600020016000915054906101000a900473ffffffffffffffffffffffffffffffffffffffff1681565b600760009054906101000a900473ffffffffffffffffffffffffffffffffffffffff1681565b600080611463611aa5565b905080600a541115611479576000915050611498565b6000611490600a5483612fe090919063ffffffff16565b905080925050505b90565b60008060009054906101000a900473ffffffffffffffffffffffffffffffffffffffff16905090565b60008060009054906101000a900473ffffffffffffffffffffffffffffffffffffffff1673ffffffffffffffffffffffffffffffffffffffff1661150661252c565b73ffffffffffffffffffffffffffffffffffffffff1614905090565b600660019054906101000a900473ffffffffffffffffffffffffffffffffffffffff1681565b60006115526114c4565b6115c4576040517f08c379a00000000000000000000000000000000000000000000000000000000081526004018080602001828103825260208152602001807f4f776e61626c653a2063616c6c6572206973206e6f7420746865206f776e657281525060200191505060405180910390fd5b6009829080600181540180825580915050600190039060005260206000200160009091909190916101000a81548173ffffffffffffffffffffffffffffffffffffffff021916908373ffffffffffffffffffffffffffffffffffffffff160217905550819050919050565b606060058054600181600116156101000203166002900480601f0160208091040260200160405190810160405280929190818152602001828054600181600116156101000203166002900480156116c75780601f1061169c576101008083540402835291602001916116c7565b820191906000526020600020905b8154815290600101906020018083116116aa57829003601f168201915b5050505050905090565b600080600080600760009054906101000a900473ffffffffffffffffffffffffffffffffffffffff1673ffffffffffffffffffffffffffffffffffffffff1663c37f68e2336040518263ffffffff1660e01b8152600401808273ffffffffffffffffffffffffffffffffffffffff1673ffffffffffffffffffffffffffffffffffffffff16815260200191505060806040518083038186803b15801561177657600080fd5b505afa15801561178a573d6000803e3d6000fd5b505050506040513d60808110156117a057600080fd5b8101908080519060200190929190805190602001909291908051906020019092919080519060200190929190505050935093509350935090919293565b6000806117e933611274565b905082811015611861576040517f08c379a00000000000000000000000000000000000000000000000000000000081526004018080602001828103825260148152602001807f436c6f73653a204574682042616c203c20616d7400000000000000000000000081525060200191505060405180910390fd5b600061186b611aa5565b9050600061189682611888600a5488612e8890919063ffffffff16565b612f0e90919063ffffffff16565b90508034101561190e576040517f08c379a00000000000000000000000000000000000000000000000000000000081526004018080602001828103825260138152602001807f436c6f73653a2056616c7565203c20646562740000000000000000000000000081525060200191505060405180910390fd5b60006119238234612fe090919063ffffffff16565b905061192f3387612ab0565b600061194c6119478389612f5890919063ffffffff16565b6110e4565b90503373ffffffffffffffffffffffffffffffffffffffff167f116fde7943d3685c886edf89b49ebe78ebec359c3db46c8972274ae4e270193f8289604051808381526020018281526020019250505060405180910390a26119ae8133612c76565b95505050505050919050565b6000611a7d6119c761252c565b84611a78856040518060600160405280602581526020016135fd60259139600260006119f161252c565b73ffffffffffffffffffffffffffffffffffffffff1673ffffffffffffffffffffffffffffffffffffffff16815260200190815260200160002060008a73ffffffffffffffffffffffffffffffffffffffff1673ffffffffffffffffffffffffffffffffffffffff168152602001908152602001600020546129f09092919063ffffffff16565b612534565b6001905092915050565b6000611a9b611a9461252c565b848461272b565b6001905092915050565b6000600760009054906101000a900473ffffffffffffffffffffffffffffffffffffffff1673ffffffffffffffffffffffffffffffffffffffff16633af9e669306040518263ffffffff1660e01b8152600401808273ffffffffffffffffffffffffffffffffffffffff1673ffffffffffffffffffffffffffffffffffffffff168152602001915050602060405180830381600087803b158015611b4857600080fd5b505af1158015611b5c573d6000803e3d6000fd5b505050506040513d6020811015611b7257600080fd5b8101908080519060200190929190505050905090565b60008060149054906101000a900460ff1615611c0c576040517f08c379a00000000000000000000000000000000000000000000000000000000081526004018080602001828103825260108152602001807f5061757361626c653a207061757365640000000000000000000000000000000081525060200191505060405180910390fd5b813414611c81576040517f08c379a00000000000000000000000000000000000000000000000000000000081526004018080602001828103825260168152602001807f4465706f7369743a2056616c203c206465706f7369740000000000000000000081525060200191505060405180910390fd5b6000611c8b610dbe565b90506000611c97611aa5565b9050600080611caf8484612e8890919063ffffffff16565b1415611cbd57849050611ce5565b611ce282611cd48588612e8890919063ffffffff16565b612f0e90919063ffffffff16565b90505b3373ffffffffffffffffffffffffffffffffffffffff167feaa18152488ce5959073c9c79c88ca90b3d96c00de1f118cfaad664c3dab06b98683604051808381526020018281526020019250505060405180910390a2611d45338261302a565b60006009600081548110611d5557fe5b9060005260206000200160009054906101000a900473ffffffffffffffffffffffffffffffffffffffff169050600081905060008173ffffffffffffffffffffffffffffffffffffffff16637473764b898a6040518363ffffffff1660e01b8152600401808281526020019150506020604051808303818588803b158015611ddc57600080fd5b505af1158015611df0573d6000803e3d6000fd5b50505050506040513d6020811015611e0757600080fd5b81019080805190602001909291905050509050611e23816131f3565b9650505050505050919050565b60008060149054906101000a900460ff1615611eb4576040517f08c379a00000000000000000000000000000000000000000000000000000000081526004018080602001828103825260108152602001807f5061757361626c653a207061757365640000000000000000000000000000000081525060200191505060405180910390fd5b81611ebd611458565b1015611f31576040517f08c379a00000000000000000000000000000000000000000000000000000000081526004018080602001828103825260158152602001807f4d696e743a20617661696c61626c65203c20616d74000000000000000000000081525060200191505060405180910390fd5b6000600860009054906101000a900473ffffffffffffffffffffffffffffffffffffffff1673ffffffffffffffffffffffffffffffffffffffff16637473764b84856040518363ffffffff1660e01b8152600401808281526020019150506020604051808303818588803b158015611fa857600080fd5b505af1158015611fbc573d6000803e3d6000fd5b50505050506040513d6020811015611fd357600080fd5b81019080805190602001909291905050509050611fef816131f3565b915050919050565b60008060149054906101000a900460ff161561207b576040517f08c379a00000000000000000000000000000000000000000000000000000000081526004018080602001828103825260108152602001807f5061757361626c653a207061757365640000000000000000000000000000000081525060200191505060405180910390fd5b8161208533611274565b10156120f9576040517f08c379a00000000000000000000000000000000000000000000000000000000081526004018080602001828103825260148152602001807f537761703a206574686572203c20636f6c6c617400000000000000000000000081525060200191505060405180910390fd5b6000600860009054906101000a900473ffffffffffffffffffffffffffffffffffffffff1673ffffffffffffffffffffffffffffffffffffffff16632e1a7d4d846040518263ffffffff1660e01b815260040180828152602001915050602060405180830381600087803b15801561217057600080fd5b505af1158015612184573d6000803e3d6000fd5b505050506040513d602081101561219a57600080fd5b810190808051906020019092919050505090506000600860009054906101000a900473ffffffffffffffffffffffffffffffffffffffff1673ffffffffffffffffffffffffffffffffffffffff1663bdf7d3456040518163ffffffff1660e01b815260040160206040518083038186803b15801561221757600080fd5b505afa15801561222b573d6000803e3d6000fd5b505050506040513d602081101561224157600080fd5b8101908080519060200190929190505050905061225e3385612ab0565b8073ffffffffffffffffffffffffffffffffffffffff1663a9059cbb33846040518363ffffffff1660e01b8152600401808373ffffffffffffffffffffffffffffffffffffffff1673ffffffffffffffffffffffffffffffffffffffff16815260200182815260200192505050602060405180830381600087803b1580156122e557600080fd5b505af11580156122f9573d6000803e3d6000fd5b505050506040513d602081101561230f57600080fd5b810190808051906020019092919050505092505050919050565b600581565b6000600260008473ffffffffffffffffffffffffffffffffffffffff1673ffffffffffffffffffffffffffffffffffffffff16815260200190815260200160002060008373ffffffffffffffffffffffffffffffffffffffff1673ffffffffffffffffffffffffffffffffffffffff16815260200190815260200160002054905092915050565b600860009054906101000a900473ffffffffffffffffffffffffffffffffffffffff1681565b6000806124186123e9611aa5565b61240a6123f4610dbe565b6123fc611458565b612e8890919063ffffffff16565b612f0e90919063ffffffff16565b9050612422611458565b61242b826110e4565b111561249f576040517f08c379a00000000000000000000000000000000000000000000000000000000081526004018080602001828103825260158152602001807f5769746864726177203e206e657420617373657473000000000000000000000081525060200191505060405180910390fd5b8091505090565b6124ae6114c4565b612520576040517f08c379a00000000000000000000000000000000000000000000000000000000081526004018080602001828103825260208152602001807f4f776e61626c653a2063616c6c6572206973206e6f7420746865206f776e657281525060200191505060405180910390fd5b61252981613287565b50565b600033905090565b600073ffffffffffffffffffffffffffffffffffffffff168373ffffffffffffffffffffffffffffffffffffffff1614156125ba576040517f08c379a00000000000000000000000000000000000000000000000000000000081526004018080602001828103825260248152602001806135d96024913960400191505060405180910390fd5b600073ffffffffffffffffffffffffffffffffffffffff168273ffffffffffffffffffffffffffffffffffffffff161415612640576040517f08c379a00000000000000000000000000000000000000000000000000000000081526004018080602001828103825260228152602001806135026022913960400191505060405180910390fd5b80600260008573ffffffffffffffffffffffffffffffffffffffff1673ffffffffffffffffffffffffffffffffffffffff16815260200190815260200160002060008473ffffffffffffffffffffffffffffffffffffffff1673ffffffffffffffffffffffffffffffffffffffff168152602001908152602001600020819055508173ffffffffffffffffffffffffffffffffffffffff168373ffffffffffffffffffffffffffffffffffffffff167f8c5be1e5ebec7d5bd14f71427d1e84f3dd0314c0f7b2291e5b200ac8c7c3b925836040518082815260200191505060405180910390a3505050565b600073ffffffffffffffffffffffffffffffffffffffff168373ffffffffffffffffffffffffffffffffffffffff1614156127b1576040517f08c379a00000000000000000000000000000000000000000000000000000000081526004018080602001828103825260258152602001806135b46025913960400191505060405180910390fd5b600073ffffffffffffffffffffffffffffffffffffffff168273ffffffffffffffffffffffffffffffffffffffff161415612837576040517f08c379a00000000000000000000000000000000000000000000000000000000081526004018080602001828103825260238152602001806134976023913960400191505060405180910390fd5b6128428383836133cb565b6128ae8160405180606001604052806026815260200161352460269139600160008773ffffffffffffffffffffffffffffffffffffffff1673ffffffffffffffffffffffffffffffffffffffff168152602001908152602001600020546129f09092919063ffffffff16565b600160008573ffffffffffffffffffffffffffffffffffffffff1673ffffffffffffffffffffffffffffffffffffffff1681526020019081526020016000208190555061294381600160008573ffffffffffffffffffffffffffffffffffffffff1673ffffffffffffffffffffffffffffffffffffffff16815260200190815260200160002054612f5890919063ffffffff16565b600160008473ffffffffffffffffffffffffffffffffffffffff1673ffffffffffffffffffffffffffffffffffffffff168152602001908152602001600020819055508173ffffffffffffffffffffffffffffffffffffffff168373ffffffffffffffffffffffffffffffffffffffff167fddf252ad1be2c89b69c2b068fc378daa952ba7f163c4a11628f55a4df523b3ef836040518082815260200191505060405180910390a3505050565b6000838311158290612a9d576040517f08c379a00000000000000000000000000000000000000000000000000000000081526004018080602001828103825283818151815260200191508051906020019080838360005b83811015612a62578082015181840152602081019050612a47565b50505050905090810190601f168015612a8f5780820380516001836020036101000a031916815260200191505b509250505060405180910390fd5b5060008385039050809150509392505050565b600073ffffffffffffffffffffffffffffffffffffffff168273ffffffffffffffffffffffffffffffffffffffff161415612b36576040517f08c379a00000000000000000000000000000000000000000000000000000000081526004018080602001828103825260218152602001806135936021913960400191505060405180910390fd5b612b42826000836133cb565b612bae816040518060600160405280602281526020016134ba60229139600160008673ffffffffffffffffffffffffffffffffffffffff1673ffffffffffffffffffffffffffffffffffffffff168152602001908152602001600020546129f09092919063ffffffff16565b600160008473ffffffffffffffffffffffffffffffffffffffff1673ffffffffffffffffffffffffffffffffffffffff16815260200190815260200160002081905550612c0681600354612fe090919063ffffffff16565b600381905550600073ffffffffffffffffffffffffffffffffffffffff168273ffffffffffffffffffffffffffffffffffffffff167fddf252ad1be2c89b69c2b068fc378daa952ba7f163c4a11628f55a4df523b3ef836040518082815260200191505060405180910390a35050565b600080600760009054906101000a900473ffffffffffffffffffffffffffffffffffffffff1673ffffffffffffffffffffffffffffffffffffffff1663852a12e3856040518263ffffffff1660e01b815260040180828152602001915050602060405180830381600087803b158015612cee57600080fd5b505af1158015612d02573d6000803e3d6000fd5b505050506040513d6020811015612d1857600080fd5b8101908080519060200190929190505050905060008114612da1576040517f08c379a000000000000000000000000000000000000000000000000000000000815260040180806020018281038252600b8152602001807f72656465656d20213d203000000000000000000000000000000000000000000081525060200191505060405180910390fd5b60008373ffffffffffffffffffffffffffffffffffffffff168560405180600001905060006040518083038185875af1925050503d8060008114612e01576040519150601f19603f3d011682016040523d82523d6000602084013e612e06565b606091505b5050905080612e7d576040517f08c379a000000000000000000000000000000000000000000000000000000000815260040180806020018281038252600e8152602001807f5472616e73666572206661696c2e00000000000000000000000000000000000081525060200191505060405180910390fd5b809250505092915050565b600080831415612e9b5760009050612f08565b6000828402905082848281612eac57fe5b0414612f03576040517f08c379a000000000000000000000000000000000000000000000000000000000815260040180806020018281038252602181526020018061354a6021913960400191505060405180910390fd5b809150505b92915050565b6000612f5083836040518060400160405280601a81526020017f536166654d6174683a206469766973696f6e206279207a65726f0000000000008152506133d0565b905092915050565b600080828401905083811015612fd6576040517f08c379a000000000000000000000000000000000000000000000000000000000815260040180806020018281038252601b8152602001807f536166654d6174683a206164646974696f6e206f766572666c6f77000000000081525060200191505060405180910390fd5b8091505092915050565b600061302283836040518060400160405280601e81526020017f536166654d6174683a207375627472616374696f6e206f766572666c6f7700008152506129f0565b905092915050565b600073ffffffffffffffffffffffffffffffffffffffff168273ffffffffffffffffffffffffffffffffffffffff1614156130cd576040517f08c379a000000000000000000000000000000000000000000000000000000000815260040180806020018281038252601f8152602001807f45524332303a206d696e7420746f20746865207a65726f20616464726573730081525060200191505060405180910390fd5b6130d9600083836133cb565b6130ee81600354612f5890919063ffffffff16565b60038190555061314681600160008573ffffffffffffffffffffffffffffffffffffffff1673ffffffffffffffffffffffffffffffffffffffff16815260200190815260200160002054612f5890919063ffffffff16565b600160008473ffffffffffffffffffffffffffffffffffffffff1673ffffffffffffffffffffffffffffffffffffffff168152602001908152602001600020819055508173ffffffffffffffffffffffffffffffffffffffff16600073ffffffffffffffffffffffffffffffffffffffff167fddf252ad1be2c89b69c2b068fc378daa952ba7f163c4a11628f55a4df523b3ef836040518082815260200191505060405180910390a35050565b6000600760009054906101000a900473ffffffffffffffffffffffffffffffffffffffff1673ffffffffffffffffffffffffffffffffffffffff16631249c58b836203d090906040518363ffffffff1660e01b81526004016000604051808303818589803b15801561326457600080fd5b5088f1158015613278573d6000803e3d6000fd5b50505050505060019050919050565b600073ffffffffffffffffffffffffffffffffffffffff168173ffffffffffffffffffffffffffffffffffffffff16141561330d576040517f08c379a00000000000000000000000000000000000000000000000000000000081526004018080602001828103825260268152602001806134dc6026913960400191505060405180910390fd5b8073ffffffffffffffffffffffffffffffffffffffff166000809054906101000a900473ffffffffffffffffffffffffffffffffffffffff1673ffffffffffffffffffffffffffffffffffffffff167f8be0079c531659141344cd1fd0a4f28419497f9722a3daafe3b4186f6b6457e060405160405180910390a3806000806101000a81548173ffffffffffffffffffffffffffffffffffffffff021916908373ffffffffffffffffffffffffffffffffffffffff16021790555050565b505050565b6000808311829061347c576040517f08c379a00000000000000000000000000000000000000000000000000000000081526004018080602001828103825283818151815260200191508051906020019080838360005b83811015613441578082015181840152602081019050613426565b50505050905090810190601f16801561346e5780820380516001836020036101000a031916815260200191505b509250505060405180910390fd5b50600083858161348857fe5b04905080915050939250505056fe45524332303a207472616e7366657220746f20746865207a65726f206164647265737345524332303a206275726e20616d6f756e7420657863656564732062616c616e63654f776e61626c653a206e6577206f776e657220697320746865207a65726f206164647265737345524332303a20617070726f766520746f20746865207a65726f206164647265737345524332303a207472616e7366657220616d6f756e7420657863656564732062616c616e6365536166654d6174683a206d756c7469706c69636174696f6e206f766572666c6f7745524332303a207472616e7366657220616d6f756e74206578636565647320616c6c6f77616e636545524332303a206275726e2066726f6d20746865207a65726f206164647265737345524332303a207472616e736665722066726f6d20746865207a65726f206164647265737345524332303a20617070726f76652066726f6d20746865207a65726f206164647265737345524332303a2064656372656173656420616c6c6f77616e63652062656c6f77207a65726fa2646970667358221220e13ba82b3ecd9ec688e5ad51d7e881852016dc2f6f49d0a5bd834ede0dd998d464736f6c634300060200334f776e61626c653a206e6577206f776e657220697320746865207a65726f2061646472657373a2646970667358221220132874c74b9023a21c99052e44ffd33aa42a8f72da34a8427b4b012f49689ee564736f6c634300060200334f776e61626c653a206e6577206f776e657220697320746865207a65726f2061646472657373",
  "source": "pragma solidity ^0.6.2;\r\n\r\n/**\r\n * @title Primitive's Market Maker Creator Contract\r\n * @author Primitive\r\n */\r\n\r\nimport '../PrimePool.sol';\r\nimport '@openzeppelin/contracts/ownership/Ownable.sol';\r\n\r\ncontract ControllerPool is Ownable {\r\n\r\n    PrimePool public _maker;\r\n\r\n    constructor(address controller) public {\r\n        transferOwnership(controller);\r\n    }\r\n\r\n    function addPool(address compoundEther) public onlyOwner returns (address) {\r\n        PrimePool primePool = new PrimePool(compoundEther);\r\n        _maker = primePool;\r\n        return address(primePool);\r\n    }\r\n\r\n    function addMarket(address payable primeOption) public onlyOwner returns (address) {\r\n        _maker.addMarket(primeOption);\r\n        return primeOption;\r\n    }\r\n}",
  "sourcePath": "C:\\Users\\alexa\\OneDrive\\Documents\\Master\\Blockchain\\Projects\\carbon\\contracts\\controller\\ControllerPool.sol",
  "compiler": {
    "name": "solc",
    "version": "0.6.2+commit.bacdbe57.Emscripten.clang"
  },
  "schemaVersion": "3.0.23",
  "updatedAt": "2020-04-14T21:29:07.258Z",
  "devdoc": {
    "methods": {
      "isOwner()": {
        "details": "Returns true if the caller is the current owner."
      },
      "owner()": {
        "details": "Returns the address of the current owner."
      },
      "renounceOwnership()": {
        "details": "Leaves the contract without owner. It will not be possible to call `onlyOwner` functions anymore. Can only be called by the current owner.     * NOTE: Renouncing ownership will leave the contract without an owner, thereby removing any functionality that is only available to the owner."
      },
      "transferOwnership(address)": {
        "details": "Transfers ownership of the contract to a new account (`newOwner`). Can only be called by the current owner."
      }
    }
  },
  "userdoc": {
    "methods": {}
  }
}