{
  "contractName": "ControllerMarket",
  "abi": [
    {
      "inputs": [],
      "stateMutability": "nonpayable",
      "type": "constructor"
    },
    {
      "anonymous": false,
      "inputs": [
        {
          "indexed": true,
          "internalType": "address",
          "name": "previousOwner",
          "type": "address"
        },
        {
          "indexed": true,
          "internalType": "address",
          "name": "newOwner",
          "type": "address"
        }
      ],
      "name": "OwnershipTransferred",
      "type": "event"
    },
    {
      "inputs": [],
      "name": "_controllers",
      "outputs": [
        {
          "internalType": "address",
          "name": "controller",
          "type": "address"
        },
        {
          "internalType": "address",
          "name": "exchange",
          "type": "address"
        },
        {
          "internalType": "address",
          "name": "option",
          "type": "address"
        },
        {
          "internalType": "address",
          "name": "pool",
          "type": "address"
        },
        {
          "internalType": "address",
          "name": "redeem",
          "type": "address"
        }
      ],
      "stateMutability": "view",
      "type": "function"
    },
    {
      "inputs": [],
      "name": "_crRedeem",
      "outputs": [
        {
          "internalType": "address",
          "name": "",
          "type": "address"
        }
      ],
      "stateMutability": "view",
      "type": "function"
    },
    {
      "inputs": [],
      "name": "_isInitialized",
      "outputs": [
        {
          "internalType": "bool",
          "name": "controllers",
          "type": "bool"
        },
        {
          "internalType": "bool",
          "name": "maker",
          "type": "bool"
        },
        {
          "internalType": "bool",
          "name": "redeem",
          "type": "bool"
        }
      ],
      "stateMutability": "view",
      "type": "function"
    },
    {
      "inputs": [],
      "name": "_maker",
      "outputs": [
        {
          "internalType": "address",
          "name": "",
          "type": "address"
        }
      ],
      "stateMutability": "view",
      "type": "function"
    },
    {
      "inputs": [
        {
          "internalType": "uint256",
          "name": "",
          "type": "uint256"
        }
      ],
      "name": "_markets",
      "outputs": [
        {
          "internalType": "address",
          "name": "controller",
          "type": "address"
        },
        {
          "internalType": "uint256",
          "name": "tokenId",
          "type": "uint256"
        },
        {
          "internalType": "address",
          "name": "option",
          "type": "address"
        },
        {
          "internalType": "address",
          "name": "exchange",
          "type": "address"
        },
        {
          "internalType": "address",
          "name": "maker",
          "type": "address"
        }
      ],
      "stateMutability": "view",
      "type": "function"
    },
    {
      "inputs": [],
      "name": "_prRedeem",
      "outputs": [
        {
          "internalType": "address",
          "name": "",
          "type": "address"
        }
      ],
      "stateMutability": "view",
      "type": "function"
    },
    {
      "inputs": [],
      "name": "isOwner",
      "outputs": [
        {
          "internalType": "bool",
          "name": "",
          "type": "bool"
        }
      ],
      "stateMutability": "view",
      "type": "function"
    },
    {
      "inputs": [],
      "name": "owner",
      "outputs": [
        {
          "internalType": "address",
          "name": "",
          "type": "address"
        }
      ],
      "stateMutability": "view",
      "type": "function"
    },
    {
      "inputs": [],
      "name": "renounceOwnership",
      "outputs": [],
      "stateMutability": "nonpayable",
      "type": "function"
    },
    {
      "inputs": [
        {
          "internalType": "address",
          "name": "newOwner",
          "type": "address"
        }
      ],
      "name": "transferOwnership",
      "outputs": [],
      "stateMutability": "nonpayable",
      "type": "function"
    },
    {
      "inputs": [
        {
          "internalType": "contract IControllerExchange",
          "name": "exchange",
          "type": "address"
        },
        {
          "internalType": "contract IControllerOption",
          "name": "option",
          "type": "address"
        },
        {
          "internalType": "contract IControllerPool",
          "name": "pool",
          "type": "address"
        },
        {
          "internalType": "contract IControllerRedeem",
          "name": "redeem",
          "type": "address"
        }
      ],
      "name": "initControllers",
      "outputs": [
        {
          "internalType": "bool",
          "name": "",
          "type": "bool"
        }
      ],
      "stateMutability": "nonpayable",
      "type": "function"
    },
    {
      "inputs": [
        {
          "internalType": "address",
          "name": "compoundContract",
          "type": "address"
        }
      ],
      "name": "initMakerPool",
      "outputs": [
        {
          "internalType": "address",
          "name": "",
          "type": "address"
        }
      ],
      "stateMutability": "nonpayable",
      "type": "function"
    },
    {
      "inputs": [],
      "name": "initPrimeRedeem",
      "outputs": [
        {
          "internalType": "address",
          "name": "",
          "type": "address"
        },
        {
          "internalType": "address",
          "name": "",
          "type": "address"
        }
      ],
      "stateMutability": "nonpayable",
      "type": "function"
    },
    {
      "inputs": [
        {
          "internalType": "uint256",
          "name": "qEth",
          "type": "uint256"
        },
        {
          "internalType": "uint256",
          "name": "qToken",
          "type": "uint256"
        },
        {
          "internalType": "contract IERC20",
          "name": "aToken",
          "type": "address"
        },
        {
          "internalType": "uint256",
          "name": "tExpiry",
          "type": "uint256"
        },
        {
          "internalType": "bool",
          "name": "isCall",
          "type": "bool"
        },
        {
          "internalType": "string",
          "name": "name",
          "type": "string"
        }
      ],
      "name": "createMarket",
      "outputs": [
        {
          "internalType": "bool",
          "name": "",
          "type": "bool"
        }
      ],
      "stateMutability": "nonpayable",
      "type": "function"
    },
    {
      "inputs": [
        {
          "internalType": "uint256",
          "name": "tokenId",
          "type": "uint256"
        }
      ],
      "name": "getOption",
      "outputs": [
        {
          "internalType": "address",
          "name": "",
          "type": "address"
        }
      ],
      "stateMutability": "view",
      "type": "function"
    },
    {
      "inputs": [
        {
          "internalType": "uint256",
          "name": "tokenId",
          "type": "uint256"
        }
      ],
      "name": "getExchange",
      "outputs": [
        {
          "internalType": "address",
          "name": "",
          "type": "address"
        }
      ],
      "stateMutability": "view",
      "type": "function"
    },
    {
      "inputs": [
        {
          "internalType": "uint256",
          "name": "tokenId",
          "type": "uint256"
        }
      ],
      "name": "getMaker",
      "outputs": [
        {
          "internalType": "address",
          "name": "",
          "type": "address"
        }
      ],
      "stateMutability": "view",
      "type": "function"
    }
  ],
  "bytecode": "0x608060405234801561001057600080fd5b5060006100216100c460201b60201c565b9050806000806101000a81548173ffffffffffffffffffffffffffffffffffffffff021916908373ffffffffffffffffffffffffffffffffffffffff1602179055508073ffffffffffffffffffffffffffffffffffffffff16600073ffffffffffffffffffffffffffffffffffffffff167f8be0079c531659141344cd1fd0a4f28419497f9722a3daafe3b4186f6b6457e060405160405180910390a3506100cc565b600033905090565b611f10806100db6000396000f3fe608060405234801561001057600080fd5b506004361061010a5760003560e01c80638da5cb5b116100a2578063b893e86e11610071578063b893e86e1461063d578063c074612614610675578063d07a7a281461078b578063f2fde38b14610899578063fc2e9e7b146108dd5761010a565b80638da5cb5b1461046a5780638f32d59b146104b4578063a7a64cb3146104d6578063b2080e40146105f35761010a565b80631ce5e9a6116100de5780631ce5e9a61461033a57806356861532146103a8578063715018a61461041657806388d420fd146104205761010a565b80628ae2521461010f578063033c6224146101cb5780630b9d5847146102485780630e5919b8146102b6575b600080fd5b6101b16004803603608081101561012557600080fd5b81019080803573ffffffffffffffffffffffffffffffffffffffff169060200190929190803573ffffffffffffffffffffffffffffffffffffffff169060200190929190803573ffffffffffffffffffffffffffffffffffffffff169060200190929190803573ffffffffffffffffffffffffffffffffffffffff169060200190929190505050610927565b604051808215151515815260200191505060405180910390f35b6101d3610c4f565b604051808373ffffffffffffffffffffffffffffffffffffffff1673ffffffffffffffffffffffffffffffffffffffff1681526020018273ffffffffffffffffffffffffffffffffffffffff1673ffffffffffffffffffffffffffffffffffffffff1681526020019250505060405180910390f35b6102746004803603602081101561025e57600080fd5b8101908080359060200190929190505050611000565b604051808273ffffffffffffffffffffffffffffffffffffffff1673ffffffffffffffffffffffffffffffffffffffff16815260200191505060405180910390f35b6102f8600480360360208110156102cc57600080fd5b81019080803573ffffffffffffffffffffffffffffffffffffffff169060200190929190505050611040565b604051808273ffffffffffffffffffffffffffffffffffffffff1673ffffffffffffffffffffffffffffffffffffffff16815260200191505060405180910390f35b6103666004803603602081101561035057600080fd5b8101908080359060200190929190505050611175565b604051808273ffffffffffffffffffffffffffffffffffffffff1673ffffffffffffffffffffffffffffffffffffffff16815260200191505060405180910390f35b6103d4600480360360208110156103be57600080fd5b81019080803590602001909291905050506111b5565b604051808273ffffffffffffffffffffffffffffffffffffffff1673ffffffffffffffffffffffffffffffffffffffff16815260200191505060405180910390f35b61041e6111f5565b005b61042861132e565b604051808273ffffffffffffffffffffffffffffffffffffffff1673ffffffffffffffffffffffffffffffffffffffff16815260200191505060405180910390f35b610472611354565b604051808273ffffffffffffffffffffffffffffffffffffffff1673ffffffffffffffffffffffffffffffffffffffff16815260200191505060405180910390f35b6104bc61137d565b604051808215151515815260200191505060405180910390f35b6105d9600480360360c08110156104ec57600080fd5b810190808035906020019092919080359060200190929190803573ffffffffffffffffffffffffffffffffffffffff169060200190929190803590602001909291908035151590602001909291908035906020019064010000000081111561055357600080fd5b82018360208201111561056557600080fd5b8035906020019184600183028401116401000000008311171561058757600080fd5b91908080601f016020809104026020016040519081016040528093929190818152602001838380828437600081840152601f19601f8201169050808301925050505050505091929192905050506113db565b604051808215151515815260200191505060405180910390f35b6105fb6116e9565b604051808273ffffffffffffffffffffffffffffffffffffffff1673ffffffffffffffffffffffffffffffffffffffff16815260200191505060405180910390f35b61064561170f565b60405180841515151581526020018315151515815260200182151515158152602001935050505060405180910390f35b61067d61174e565b604051808673ffffffffffffffffffffffffffffffffffffffff1673ffffffffffffffffffffffffffffffffffffffff1681526020018573ffffffffffffffffffffffffffffffffffffffff1673ffffffffffffffffffffffffffffffffffffffff1681526020018473ffffffffffffffffffffffffffffffffffffffff1673ffffffffffffffffffffffffffffffffffffffff1681526020018373ffffffffffffffffffffffffffffffffffffffff1673ffffffffffffffffffffffffffffffffffffffff1681526020018273ffffffffffffffffffffffffffffffffffffffff1673ffffffffffffffffffffffffffffffffffffffff1681526020019550505050505060405180910390f35b6107b7600480360360208110156107a157600080fd5b8101908080359060200190929190505050611812565b604051808673ffffffffffffffffffffffffffffffffffffffff1673ffffffffffffffffffffffffffffffffffffffff1681526020018581526020018473ffffffffffffffffffffffffffffffffffffffff1673ffffffffffffffffffffffffffffffffffffffff1681526020018373ffffffffffffffffffffffffffffffffffffffff1673ffffffffffffffffffffffffffffffffffffffff1681526020018273ffffffffffffffffffffffffffffffffffffffff1673ffffffffffffffffffffffffffffffffffffffff1681526020019550505050505060405180910390f35b6108db600480360360208110156108af57600080fd5b81019080803573ffffffffffffffffffffffffffffffffffffffff1690602001909291905050506118c8565b005b6108e561194e565b604051808273ffffffffffffffffffffffffffffffffffffffff1673ffffffffffffffffffffffffffffffffffffffff16815260200191505060405180910390f35b600061093161137d565b6109a3576040517f08c379a00000000000000000000000000000000000000000000000000000000081526004018080602001828103825260208152602001807f4f776e61626c653a2063616c6c6572206973206e6f7420746865206f776e657281525060200191505060405180910390fd5b600160000160009054906101000a900460ff1615610a29576040517f08c379a000000000000000000000000000000000000000000000000000000000815260040180806020018281038252600f8152602001807f4552525f494e495449414c495a4544000000000000000000000000000000000081525060200191505060405180910390fd5b6040518060a001604052803073ffffffffffffffffffffffffffffffffffffffff1681526020018673ffffffffffffffffffffffffffffffffffffffff1681526020018573ffffffffffffffffffffffffffffffffffffffff1681526020018473ffffffffffffffffffffffffffffffffffffffff1681526020018373ffffffffffffffffffffffffffffffffffffffff16815250600260008201518160000160006101000a81548173ffffffffffffffffffffffffffffffffffffffff021916908373ffffffffffffffffffffffffffffffffffffffff16021790555060208201518160010160006101000a81548173ffffffffffffffffffffffffffffffffffffffff021916908373ffffffffffffffffffffffffffffffffffffffff16021790555060408201518160020160006101000a81548173ffffffffffffffffffffffffffffffffffffffff021916908373ffffffffffffffffffffffffffffffffffffffff16021790555060608201518160030160006101000a81548173ffffffffffffffffffffffffffffffffffffffff021916908373ffffffffffffffffffffffffffffffffffffffff16021790555060808201518160040160006101000a81548173ffffffffffffffffffffffffffffffffffffffff021916908373ffffffffffffffffffffffffffffffffffffffff16021790555090505060018060000160006101000a81548160ff02191690831515021790555060019050949350505050565b600080610c5a61137d565b610ccc576040517f08c379a00000000000000000000000000000000000000000000000000000000081526004018080602001828103825260208152602001807f4f776e61626c653a2063616c6c6572206973206e6f7420746865206f776e657281525060200191505060405180910390fd5b600160000160029054906101000a900460ff1615610d52576040517f08c379a000000000000000000000000000000000000000000000000000000000815260040180806020018281038252600f8152602001807f4552525f494e495449414c495a4544000000000000000000000000000000000081525060200191505060405180910390fd5b6000600260040160009054906101000a900473ffffffffffffffffffffffffffffffffffffffff16905060008173ffffffffffffffffffffffffffffffffffffffff16638567adc760016040518263ffffffff1660e01b81526004018080602001806020018415151515815260200183810383526023815260200180611e9660239139604001838103825260068152602001807f637250756c7000000000000000000000000000000000000000000000000000008152506020019350505050602060405180830381600087803b158015610e2b57600080fd5b505af1158015610e3f573d6000803e3d6000fd5b505050506040513d6020811015610e5557600080fd5b8101908080519060200190929190505050905060008273ffffffffffffffffffffffffffffffffffffffff16638567adc760006040518263ffffffff1660e01b81526004018080602001806020018415151515815260200183810383526022815260200180611eb960229139604001838103825260068152602001807f707250756c7000000000000000000000000000000000000000000000000000008152506020019350505050602060405180830381600087803b158015610f1757600080fd5b505af1158015610f2b573d6000803e3d6000fd5b505050506040513d6020811015610f4157600080fd5b8101908080519060200190929190505050905081600960006101000a81548173ffffffffffffffffffffffffffffffffffffffff021916908373ffffffffffffffffffffffffffffffffffffffff16021790555080600a60006101000a81548173ffffffffffffffffffffffffffffffffffffffff021916908373ffffffffffffffffffffffffffffffffffffffff16021790555060018060000160026101000a81548160ff0219169083151502179055508181945094505050509091565b60006007600083815260200190815260200160002060030160009054906101000a900473ffffffffffffffffffffffffffffffffffffffff169050919050565b600061104a61137d565b6110bc576040517f08c379a00000000000000000000000000000000000000000000000000000000081526004018080602001828103825260208152602001807f4f776e61626c653a2063616c6c6572206973206e6f7420746865206f776e657281525060200191505060405180910390fd5b600160000160019054906101000a900460ff1615611142576040517f08c379a000000000000000000000000000000000000000000000000000000000815260040180806020018281038252600f8152602001807f4552525f494e495449414c495a4544000000000000000000000000000000000081525060200191505060405180910390fd5b600061114d83611974565b905060018060000160016101000a81548160ff02191690831515021790555080915050919050565b60006007600083815260200190815260200160002060020160009054906101000a900473ffffffffffffffffffffffffffffffffffffffff169050919050565b60006007600083815260200190815260200160002060040160009054906101000a900473ffffffffffffffffffffffffffffffffffffffff169050919050565b6111fd61137d565b61126f576040517f08c379a00000000000000000000000000000000000000000000000000000000081526004018080602001828103825260208152602001807f4f776e61626c653a2063616c6c6572206973206e6f7420746865206f776e657281525060200191505060405180910390fd5b600073ffffffffffffffffffffffffffffffffffffffff166000809054906101000a900473ffffffffffffffffffffffffffffffffffffffff1673ffffffffffffffffffffffffffffffffffffffff167f8be0079c531659141344cd1fd0a4f28419497f9722a3daafe3b4186f6b6457e060405160405180910390a360008060006101000a81548173ffffffffffffffffffffffffffffffffffffffff021916908373ffffffffffffffffffffffffffffffffffffffff160217905550565b600a60009054906101000a900473ffffffffffffffffffffffffffffffffffffffff1681565b60008060009054906101000a900473ffffffffffffffffffffffffffffffffffffffff16905090565b60008060009054906101000a900473ffffffffffffffffffffffffffffffffffffffff1673ffffffffffffffffffffffffffffffffffffffff166113bf611aa8565b73ffffffffffffffffffffffffffffffffffffffff1614905090565b60006113e561137d565b611457576040517f08c379a00000000000000000000000000000000000000000000000000000000081526004018080602001828103825260208152602001807f4f776e61626c653a2063616c6c6572206973206e6f7420746865206f776e657281525060200191505060405180910390fd5b6000611467888888888888611ab0565b905060008173ffffffffffffffffffffffffffffffffffffffff1663c8c17d816040518163ffffffff1660e01b815260040160206040518083038186803b1580156114b157600080fd5b505afa1580156114c5573d6000803e3d6000fd5b505050506040513d60208110156114db57600080fd5b8101908080519060200190929190505050905060006114f983611c38565b90506040518060a001604052803073ffffffffffffffffffffffffffffffffffffffff1681526020018381526020018473ffffffffffffffffffffffffffffffffffffffff1681526020018273ffffffffffffffffffffffffffffffffffffffff168152602001600860009054906101000a900473ffffffffffffffffffffffffffffffffffffffff1673ffffffffffffffffffffffffffffffffffffffff168152506007600084815260200190815260200160002060008201518160000160006101000a81548173ffffffffffffffffffffffffffffffffffffffff021916908373ffffffffffffffffffffffffffffffffffffffff1602179055506020820151816001015560408201518160020160006101000a81548173ffffffffffffffffffffffffffffffffffffffff021916908373ffffffffffffffffffffffffffffffffffffffff16021790555060608201518160030160006101000a81548173ffffffffffffffffffffffffffffffffffffffff021916908373ffffffffffffffffffffffffffffffffffffffff16021790555060808201518160040160006101000a81548173ffffffffffffffffffffffffffffffffffffffff021916908373ffffffffffffffffffffffffffffffffffffffff160217905550905050600193505050509695505050505050565b600960009054906101000a900473ffffffffffffffffffffffffffffffffffffffff1681565b60018060000160009054906101000a900460ff16908060000160019054906101000a900460ff16908060000160029054906101000a900460ff16905083565b60028060000160009054906101000a900473ffffffffffffffffffffffffffffffffffffffff16908060010160009054906101000a900473ffffffffffffffffffffffffffffffffffffffff16908060020160009054906101000a900473ffffffffffffffffffffffffffffffffffffffff16908060030160009054906101000a900473ffffffffffffffffffffffffffffffffffffffff16908060040160009054906101000a900473ffffffffffffffffffffffffffffffffffffffff16905085565b60076020528060005260406000206000915090508060000160009054906101000a900473ffffffffffffffffffffffffffffffffffffffff16908060010154908060020160009054906101000a900473ffffffffffffffffffffffffffffffffffffffff16908060030160009054906101000a900473ffffffffffffffffffffffffffffffffffffffff16908060040160009054906101000a900473ffffffffffffffffffffffffffffffffffffffff16905085565b6118d061137d565b611942576040517f08c379a00000000000000000000000000000000000000000000000000000000081526004018080602001828103825260208152602001807f4f776e61626c653a2063616c6c6572206973206e6f7420746865206f776e657281525060200191505060405180910390fd5b61194b81611d2b565b50565b600860009054906101000a900473ffffffffffffffffffffffffffffffffffffffff1681565b600080600260030160009054906101000a900473ffffffffffffffffffffffffffffffffffffffff16905060008173ffffffffffffffffffffffffffffffffffffffff1663d914cd4b856040518263ffffffff1660e01b8152600401808273ffffffffffffffffffffffffffffffffffffffff1673ffffffffffffffffffffffffffffffffffffffff168152602001915050602060405180830381600087803b158015611a2057600080fd5b505af1158015611a34573d6000803e3d6000fd5b505050506040513d6020811015611a4a57600080fd5b8101908080519060200190929190505050905080600860006101000a81548173ffffffffffffffffffffffffffffffffffffffff021916908373ffffffffffffffffffffffffffffffffffffffff1602179055508092505050919050565b600033905090565b6000806002800160009054906101000a900473ffffffffffffffffffffffffffffffffffffffff16905060008173ffffffffffffffffffffffffffffffffffffffff1663a999fd708a8a8a8a8a8a6040518763ffffffff1660e01b8152600401808781526020018681526020018573ffffffffffffffffffffffffffffffffffffffff1673ffffffffffffffffffffffffffffffffffffffff1681526020018481526020018315151515815260200180602001828103825283818151815260200191508051906020019080838360005b83811015611b9b578082015181840152602081019050611b80565b50505050905090810190601f168015611bc85780820380516001836020036101000a031916815260200191505b50975050505050505050602060405180830381600087803b158015611bec57600080fd5b505af1158015611c00573d6000803e3d6000fd5b505050506040513d6020811015611c1657600080fd5b8101908080519060200190929190505050905080925050509695505050505050565b600080600260010160009054906101000a900473ffffffffffffffffffffffffffffffffffffffff16905060008173ffffffffffffffffffffffffffffffffffffffff1663aa10ce22856040518263ffffffff1660e01b8152600401808273ffffffffffffffffffffffffffffffffffffffff1673ffffffffffffffffffffffffffffffffffffffff168152602001915050602060405180830381600087803b158015611ce457600080fd5b505af1158015611cf8573d6000803e3d6000fd5b505050506040513d6020811015611d0e57600080fd5b810190808051906020019092919050505090508092505050919050565b600073ffffffffffffffffffffffffffffffffffffffff168173ffffffffffffffffffffffffffffffffffffffff161415611db1576040517f08c379a0000000000000000000000000000000000000000000000000000000008152600401808060200182810382526026815260200180611e706026913960400191505060405180910390fd5b8073ffffffffffffffffffffffffffffffffffffffff166000809054906101000a900473ffffffffffffffffffffffffffffffffffffffff1673ffffffffffffffffffffffffffffffffffffffff167f8be0079c531659141344cd1fd0a4f28419497f9722a3daafe3b4186f6b6457e060405160405180910390a3806000806101000a81548173ffffffffffffffffffffffffffffffffffffffff021916908373ffffffffffffffffffffffffffffffffffffffff1602179055505056fe4f776e61626c653a206e6577206f776e657220697320746865207a65726f206164647265737343616c6c2052656465656d205072696d697469766520556e6465726c79696e67204c505075742052656465656d205072696d697469766520556e6465726c79696e67204c50a2646970667358221220f86c3c524fd2d68b64402b79fae1f9f214eeeeed2442be23cb90d1ff282ad10c64736f6c63430006020033",
  "source": "pragma solidity ^0.6.2;\r\n\r\n/**\r\n * @title Primitive's Exchange Pool Creator Contract\r\n * @author Primitive\r\n */\r\n\r\nimport './ControllerInterface.sol';\r\nimport { IPrimeOption } from '../PrimeInterface.sol';\r\nimport '@openzeppelin/contracts/ownership/Ownable.sol';\r\n\r\ncontract ControllerMarket is Ownable {\r\n\r\n    struct Initialization {\r\n        bool controllers;\r\n        bool maker;\r\n        bool redeem;\r\n    }\r\n\r\n    struct Market {\r\n        address controller;\r\n        uint256 tokenId;\r\n        address option;\r\n        address exchange;\r\n        address maker;\r\n    }\r\n\r\n    struct Controllers {\r\n        address controller;\r\n        address exchange;\r\n        address option;\r\n        address pool;\r\n        address redeem;\r\n    }\r\n\r\n    Initialization public _isInitialized;\r\n    Controllers public _controllers;\r\n    mapping(uint256 => Market) public _markets;\r\n    address public _maker;\r\n    address public _crRedeem;\r\n    address public _prRedeem;\r\n\r\n    constructor() public {\r\n\r\n    }\r\n\r\n    function initControllers(\r\n        IControllerExchange exchange,\r\n        IControllerOption option,\r\n        IControllerPool pool,\r\n        IControllerRedeem redeem\r\n    ) public onlyOwner returns (bool) {\r\n        require(!_isInitialized.controllers, \"ERR_INITIALIZED\");\r\n        _controllers = Controllers(\r\n            address(this),\r\n            address(exchange),\r\n            address(option),\r\n            address(pool),\r\n            address(redeem)\r\n        );\r\n        _isInitialized.controllers = true;\r\n        return true;\r\n    }\r\n\r\n    function initMakerPool(address compoundContract) public onlyOwner returns (address) {\r\n        require(!_isInitialized.maker, \"ERR_INITIALIZED\");\r\n        address maker = _addMarketMaker(compoundContract);\r\n        _isInitialized.maker = true;\r\n        return maker;\r\n    }\r\n\r\n    function initPrimeRedeem() public onlyOwner returns (address, address) {\r\n        require(!_isInitialized.redeem, \"ERR_INITIALIZED\");\r\n        IControllerRedeem redeem = IControllerRedeem(_controllers.redeem);\r\n        address crRedeem = redeem.addRedeem(\"Call Redeem Primitive Underlying LP\", \"crPulp\", true);\r\n        address prRedeem = redeem.addRedeem(\"Put Redeem Primitive Underlying LP\", \"prPulp\", false);\r\n        _crRedeem = crRedeem;\r\n        _prRedeem = prRedeem;\r\n        _isInitialized.redeem = true;\r\n        return (crRedeem, prRedeem);\r\n    }\r\n    \r\n\r\n    function createMarket(\r\n        uint256 qEth,\r\n        uint256 qToken,\r\n        IERC20 aToken,\r\n        uint256 tExpiry,\r\n        bool isCall,\r\n        string memory name\r\n    ) public onlyOwner returns (bool) {\r\n        address option = _addEthOption(\r\n            qEth,\r\n            qToken,\r\n            aToken,\r\n            tExpiry,\r\n            isCall,\r\n            name\r\n        );\r\n        uint256 tokenId = IPrimeOption(option)._parentToken();\r\n        address exchange = _addExchange(option);\r\n        _markets[tokenId] = Market(\r\n            address(this),\r\n            tokenId,\r\n            option,\r\n            exchange,\r\n            _maker\r\n        );\r\n        return true;\r\n    }\r\n\r\n    function _addTokenOption(\r\n        uint256 qUnderlying,\r\n        IERC20 aUnderlying,\r\n        uint256 qStrike,\r\n        IERC20 aStrike,\r\n        uint256 tExpiry,\r\n        string memory name\r\n    ) internal returns (address) {\r\n        IControllerOption option = IControllerOption(_controllers.option);\r\n        address primeOption = option.addTokenOption(\r\n            qUnderlying,\r\n            aUnderlying,\r\n            qStrike,\r\n            aStrike,\r\n            tExpiry,\r\n            name\r\n        );\r\n        return primeOption;\r\n    }\r\n\r\n    function _addEthOption(\r\n        uint256 qEth,\r\n        uint256 qToken,\r\n        IERC20 aToken,\r\n        uint256 tExpiry,\r\n        bool isCall,\r\n        string memory name\r\n    ) internal returns (address) {\r\n        IControllerOption option = IControllerOption(_controllers.option);\r\n        address primeOption = option.addEthOption(\r\n            qEth,\r\n            qToken,\r\n            aToken,\r\n            tExpiry,\r\n            isCall,\r\n            name\r\n        );\r\n        return primeOption;\r\n    }\r\n\r\n    function _addExchange(\r\n        address primeOption\r\n    ) internal returns (address) {\r\n        IControllerExchange exchange = IControllerExchange(_controllers.exchange);\r\n        address exchangeAddress = exchange.addExchange(primeOption);\r\n        return exchangeAddress;\r\n    }\r\n\r\n    function _addMarketMaker(\r\n        address compoundEther\r\n    ) internal returns (address) {\r\n        IControllerPool pool = IControllerPool(_controllers.pool);\r\n        address poolAddress = pool.addPool(compoundEther);\r\n        _maker = poolAddress;\r\n        return poolAddress;\r\n    }\r\n\r\n    function getOption(uint256 tokenId) public view returns (address) {\r\n        return _markets[tokenId].option;\r\n    }\r\n\r\n    function getExchange(uint256 tokenId) public view returns (address) {\r\n        return _markets[tokenId].exchange;\r\n    }\r\n\r\n    function getMaker(uint256 tokenId) public view returns (address) {\r\n        return _markets[tokenId].maker;\r\n    }\r\n}",
  "sourcePath": "C:\\Users\\alexa\\OneDrive\\Documents\\Master\\Blockchain\\Projects\\carbon\\contracts\\controller\\ControllerMarket.sol",
  "compiler": {
    "name": "solc",
    "version": "0.6.2+commit.bacdbe57.Emscripten.clang"
  },
  "schemaVersion": "3.0.23",
  "updatedAt": "2020-04-14T18:43:26.755Z",
  "devdoc": {
    "methods": {
      "isOwner()": {
        "details": "Returns true if the caller is the current owner."
      },
      "owner()": {
        "details": "Returns the address of the current owner."
      },
      "renounceOwnership()": {
        "details": "Leaves the contract without owner. It will not be possible to call `onlyOwner` functions anymore. Can only be called by the current owner.     * NOTE: Renouncing ownership will leave the contract without an owner, thereby removing any functionality that is only available to the owner."
      },
      "transferOwnership(address)": {
        "details": "Transfers ownership of the contract to a new account (`newOwner`). Can only be called by the current owner."
      }
    }
  },
  "userdoc": {
    "methods": {}
  }
}