{
  "contractName": "ControllerOption",
  "abi": [
    {
      "inputs": [
        {
          "internalType": "address",
          "name": "_controller",
          "type": "address"
        }
      ],
      "stateMutability": "nonpayable",
      "type": "constructor"
    },
    {
      "anonymous": false,
      "inputs": [
        {
          "indexed": true,
          "internalType": "address",
          "name": "previousOwner",
          "type": "address"
        },
        {
          "indexed": true,
          "internalType": "address",
          "name": "newOwner",
          "type": "address"
        }
      ],
      "name": "OwnershipTransferred",
      "type": "event"
    },
    {
      "inputs": [],
      "name": "owner",
      "outputs": [
        {
          "internalType": "address",
          "name": "",
          "type": "address"
        }
      ],
      "stateMutability": "view",
      "type": "function"
    },
    {
      "inputs": [],
      "name": "renounceOwnership",
      "outputs": [],
      "stateMutability": "nonpayable",
      "type": "function"
    },
    {
      "inputs": [
        {
          "internalType": "address",
          "name": "newOwner",
          "type": "address"
        }
      ],
      "name": "transferOwnership",
      "outputs": [],
      "stateMutability": "nonpayable",
      "type": "function"
    },
    {
      "inputs": [
        {
          "internalType": "uint256",
          "name": "_marketNonce",
          "type": "uint256"
        },
        {
          "internalType": "string",
          "name": "name",
          "type": "string"
        },
        {
          "internalType": "string",
          "name": "symbol",
          "type": "string"
        },
        {
          "internalType": "address",
          "name": "tokenU",
          "type": "address"
        },
        {
          "internalType": "address",
          "name": "tokenS",
          "type": "address"
        },
        {
          "internalType": "uint256",
          "name": "base",
          "type": "uint256"
        },
        {
          "internalType": "uint256",
          "name": "price",
          "type": "uint256"
        },
        {
          "internalType": "uint256",
          "name": "expiry",
          "type": "uint256"
        }
      ],
      "name": "addOption",
      "outputs": [
        {
          "internalType": "address",
          "name": "",
          "type": "address"
        }
      ],
      "stateMutability": "nonpayable",
      "type": "function"
    },
    {
      "inputs": [
        {
          "internalType": "address",
          "name": "tokenR",
          "type": "address"
        },
        {
          "internalType": "address",
          "name": "tokenP",
          "type": "address"
        }
      ],
      "name": "setRedeem",
      "outputs": [
        {
          "internalType": "bool",
          "name": "",
          "type": "bool"
        }
      ],
      "stateMutability": "nonpayable",
      "type": "function"
    }
  ],
  "bytecode": "0x608060405234801561001057600080fd5b506040516162b93803806162b98339818101604052602081101561003357600080fd5b8101908080519060200190929190505050600061005461010760201b60201c565b9050806000806101000a81548173ffffffffffffffffffffffffffffffffffffffff021916908373ffffffffffffffffffffffffffffffffffffffff1602179055508073ffffffffffffffffffffffffffffffffffffffff16600073ffffffffffffffffffffffffffffffffffffffff167f8be0079c531659141344cd1fd0a4f28419497f9722a3daafe3b4186f6b6457e060405160405180910390a3506101018161010f60201b60201c565b50610322565b600033905090565b61011d61010760201b60201c565b73ffffffffffffffffffffffffffffffffffffffff166000809054906101000a900473ffffffffffffffffffffffffffffffffffffffff1673ffffffffffffffffffffffffffffffffffffffff16146101de576040517f08c379a00000000000000000000000000000000000000000000000000000000081526004018080602001828103825260208152602001807f4f776e61626c653a2063616c6c6572206973206e6f7420746865206f776e657281525060200191505060405180910390fd5b600073ffffffffffffffffffffffffffffffffffffffff168173ffffffffffffffffffffffffffffffffffffffff161415610264576040517f08c379a00000000000000000000000000000000000000000000000000000000081526004018080602001828103825260268152602001806162936026913960400191505060405180910390fd5b8073ffffffffffffffffffffffffffffffffffffffff166000809054906101000a900473ffffffffffffffffffffffffffffffffffffffff1673ffffffffffffffffffffffffffffffffffffffff167f8be0079c531659141344cd1fd0a4f28419497f9722a3daafe3b4186f6b6457e060405160405180910390a3806000806101000a81548173ffffffffffffffffffffffffffffffffffffffff021916908373ffffffffffffffffffffffffffffffffffffffff16021790555050565b615f62806103316000396000f3fe60806040523480156200001157600080fd5b50600436106200005e5760003560e01c806339db82061462000063578063715018a614620000e257806381750ed114620000ee5780638da5cb5b146200026e578063f2fde38b14620002ba575b600080fd5b620000c8600480360360408110156200007b57600080fd5b81019080803573ffffffffffffffffffffffffffffffffffffffff169060200190929190803573ffffffffffffffffffffffffffffffffffffffff16906020019092919050505062000301565b604051808215151515815260200191505060405180910390f35b620000ec6200049a565b005b6200022c60048036036101008110156200010757600080fd5b8101908080359060200190929190803590602001906401000000008111156200012f57600080fd5b8201836020820111156200014257600080fd5b803590602001918460018302840111640100000000831117156200016557600080fd5b9091929391929390803590602001906401000000008111156200018757600080fd5b8201836020820111156200019a57600080fd5b80359060200191846001830284011164010000000083111715620001bd57600080fd5b9091929391929390803573ffffffffffffffffffffffffffffffffffffffff169060200190929190803573ffffffffffffffffffffffffffffffffffffffff16906020019092919080359060200190929190803590602001909291908035906020019092919050505062000625565b604051808273ffffffffffffffffffffffffffffffffffffffff1673ffffffffffffffffffffffffffffffffffffffff16815260200191505060405180910390f35b6200027862000828565b604051808273ffffffffffffffffffffffffffffffffffffffff1673ffffffffffffffffffffffffffffffffffffffff16815260200191505060405180910390f35b620002ff60048036036020811015620002d257600080fd5b81019080803573ffffffffffffffffffffffffffffffffffffffff16906020019092919050505062000851565b005b60006200030d62000a63565b73ffffffffffffffffffffffffffffffffffffffff166000809054906101000a900473ffffffffffffffffffffffffffffffffffffffff1673ffffffffffffffffffffffffffffffffffffffff1614620003cf576040517f08c379a00000000000000000000000000000000000000000000000000000000081526004018080602001828103825260208152602001807f4f776e61626c653a2063616c6c6572206973206e6f7420746865206f776e657281525060200191505060405180910390fd5b60008290508073ffffffffffffffffffffffffffffffffffffffff1663bc2841b5856040518263ffffffff1660e01b8152600401808273ffffffffffffffffffffffffffffffffffffffff1673ffffffffffffffffffffffffffffffffffffffff168152602001915050602060405180830381600087803b1580156200045457600080fd5b505af115801562000469573d6000803e3d6000fd5b505050506040513d60208110156200048057600080fd5b810190808051906020019092919050505091505092915050565b620004a462000a63565b73ffffffffffffffffffffffffffffffffffffffff166000809054906101000a900473ffffffffffffffffffffffffffffffffffffffff1673ffffffffffffffffffffffffffffffffffffffff161462000566576040517f08c379a00000000000000000000000000000000000000000000000000000000081526004018080602001828103825260208152602001807f4f776e61626c653a2063616c6c6572206973206e6f7420746865206f776e657281525060200191505060405180910390fd5b600073ffffffffffffffffffffffffffffffffffffffff166000809054906101000a900473ffffffffffffffffffffffffffffffffffffffff1673ffffffffffffffffffffffffffffffffffffffff167f8be0079c531659141344cd1fd0a4f28419497f9722a3daafe3b4186f6b6457e060405160405180910390a360008060006101000a81548173ffffffffffffffffffffffffffffffffffffffff021916908373ffffffffffffffffffffffffffffffffffffffff160217905550565b60006200063162000a63565b73ffffffffffffffffffffffffffffffffffffffff166000809054906101000a900473ffffffffffffffffffffffffffffffffffffffff1673ffffffffffffffffffffffffffffffffffffffff1614620006f3576040517f08c379a00000000000000000000000000000000000000000000000000000000081526004018080602001828103825260208152602001807f4f776e61626c653a2063616c6c6572206973206e6f7420746865206f776e657281525060200191505060405180910390fd5b60008a8a8a8a8f8b8b8b8b8b6040516200070d9062000a6b565b8080602001806020018981526020018873ffffffffffffffffffffffffffffffffffffffff1673ffffffffffffffffffffffffffffffffffffffff1681526020018773ffffffffffffffffffffffffffffffffffffffff1673ffffffffffffffffffffffffffffffffffffffff16815260200186815260200185815260200184815260200183810383528d8d82818152602001925080828437600081840152601f19601f82011690508083019250505083810382528b8b82818152602001925080828437600081840152601f19601f8201169050808301925050509c50505050505050505050505050604051809103906000f08015801562000813573d6000803e3d6000fd5b509050809150509a9950505050505050505050565b60008060009054906101000a900473ffffffffffffffffffffffffffffffffffffffff16905090565b6200085b62000a63565b73ffffffffffffffffffffffffffffffffffffffff166000809054906101000a900473ffffffffffffffffffffffffffffffffffffffff1673ffffffffffffffffffffffffffffffffffffffff16146200091d576040517f08c379a00000000000000000000000000000000000000000000000000000000081526004018080602001828103825260208152602001807f4f776e61626c653a2063616c6c6572206973206e6f7420746865206f776e657281525060200191505060405180910390fd5b600073ffffffffffffffffffffffffffffffffffffffff168173ffffffffffffffffffffffffffffffffffffffff161415620009a5576040517f08c379a000000000000000000000000000000000000000000000000000000000815260040180806020018281038252602681526020018062005f076026913960400191505060405180910390fd5b8073ffffffffffffffffffffffffffffffffffffffff166000809054906101000a900473ffffffffffffffffffffffffffffffffffffffff1673ffffffffffffffffffffffffffffffffffffffff167f8be0079c531659141344cd1fd0a4f28419497f9722a3daafe3b4186f6b6457e060405160405180910390a3806000806101000a81548173ffffffffffffffffffffffffffffffffffffffff021916908373ffffffffffffffffffffffffffffffffffffffff16021790555050565b600033905090565b61548d8062000a7a8339019056fe60806040523480156200001157600080fd5b506040516200548d3803806200548d83398181016040526101008110156200003857600080fd5b81019080805160405193929190846401000000008211156200005957600080fd5b838201915060208201858111156200007057600080fd5b82518660018202830111640100000000821117156200008e57600080fd5b8083526020830192505050908051906020019080838360005b83811015620000c4578082015181840152602081019050620000a7565b50505050905090810190601f168015620000f25780820380516001836020036101000a031916815260200191505b50604052602001805160405193929190846401000000008211156200011657600080fd5b838201915060208201858111156200012d57600080fd5b82518660018202830111640100000000821117156200014b57600080fd5b8083526020830192505050908051906020019080838360005b838110156200018157808201518184015260208101905062000164565b50505050905090810190601f168015620001af5780820380516001836020036101000a031916815260200191505b50604052602001805190602001909291908051906020019092919080519060200190929190805190602001909291908051906020019092919080519060200190929190505050878781600390805190602001906200020f929190620004b3565b50806004908051906020019062000228929190620004b3565b506012600560006101000a81548160ff021916908360ff16021790555050506001600560016101000a81548160ff0219169083151502179055506000600560026101000a81548160ff0219169083151502179055503073ffffffffffffffffffffffffffffffffffffffff168573ffffffffffffffffffffffffffffffffffffffff1614158015620002e657503073ffffffffffffffffffffffffffffffffffffffff168473ffffffffffffffffffffffffffffffffffffffff1614155b62000359576040517f08c379a00000000000000000000000000000000000000000000000000000000081526004018080602001828103825260088152602001807f4552525f53454c4600000000000000000000000000000000000000000000000081525060200191505060405180910390fd5b85600a8190555033600660006101000a81548173ffffffffffffffffffffffffffffffffffffffff021916908373ffffffffffffffffffffffffffffffffffffffff1602179055506040518060a001604052808673ffffffffffffffffffffffffffffffffffffffff1681526020018573ffffffffffffffffffffffffffffffffffffffff16815260200184815260200183815260200182815250600b60008201518160000160006101000a81548173ffffffffffffffffffffffffffffffffffffffff021916908373ffffffffffffffffffffffffffffffffffffffff16021790555060208201518160010160006101000a81548173ffffffffffffffffffffffffffffffffffffffff021916908373ffffffffffffffffffffffffffffffffffffffff160217905550604082015181600201556060820151816003015560808201518160040155905050505050505050505062000562565b828054600181600116156101000203166002900490600052602060002090601f016020900481019282601f10620004f657805160ff191683800117855562000527565b8280016001018555821562000527579182015b828111156200052657825182559160200191906001019062000509565b5b5090506200053691906200053a565b5090565b6200055f91905b808211156200055b57600081600090555060010162000541565b5090565b90565b614f1b80620005726000396000f3fe608060405234801561001057600080fd5b506004361061021c5760003560e01c80636ed71ede11610125578063aa6ca808116100ad578063c7ee005e1161007c578063c7ee005e14610b2a578063dd62ed3e14610bef578063e184c9be14610c67578063ef57128e14610c85578063f1e34fbb14610ca35761021c565b8063aa6ca8081461096e578063bc2841b514610a1e578063c45a015514610a7a578063c74073a114610ac45761021c565b80639cc5d5cc116100f45780639cc5d5cc1461084e578063a035b1fe1461087a578063a2e6204514610898578063a457c2d7146108a2578063a9059cbb146109085761021c565b80636ed71ede146106fd57806370a082311461071b57806395a2251f1461077357806395d89b41146107cb5761021c565b8063313ce567116101a85780634e11482f116101775780634e11482f146105f65780635001f3b5146106145780635c975abb1461063257806360f88035146106545780636a6278421461069e5761021c565b8063313ce56714610518578063395093511461053c57806341c0e1b5146105a25780634a244e54146105ac5761021c565b8063095ea7b3116101ef578063095ea7b3146103e65780630f53ad571461044c578063159090bd1461046a57806318160ddd1461047457806323b872dd146104925761021c565b8063010035af1461022157806303438dd0146102b357806306fdde03146103195780630727d5d21461039c575b600080fd5b610229610cc1565b604051808673ffffffffffffffffffffffffffffffffffffffff1673ffffffffffffffffffffffffffffffffffffffff1681526020018573ffffffffffffffffffffffffffffffffffffffff1673ffffffffffffffffffffffffffffffffffffffff1681526020018481526020018381526020018281526020019550505050505060405180910390f35b6102f5600480360360208110156102c957600080fd5b81019080803573ffffffffffffffffffffffffffffffffffffffff169060200190929190505050610d25565b60405180848152602001838152602001828152602001935050505060405180910390f35b610321611529565b6040518080602001828103825283818151815260200191508051906020019080838360005b83811015610361578082015181840152602081019050610346565b50505050905090810190601f16801561038e5780820380516001836020036101000a031916815260200191505b509250505060405180910390f35b6103a46115cb565b604051808273ffffffffffffffffffffffffffffffffffffffff1673ffffffffffffffffffffffffffffffffffffffff16815260200191505060405180910390f35b610432600480360360408110156103fc57600080fd5b81019080803573ffffffffffffffffffffffffffffffffffffffff169060200190929190803590602001909291905050506115f8565b604051808215151515815260200191505060405180910390f35b610454611616565b6040518082815260200191505060405180910390f35b61047261161c565b005b61047c611d10565b6040518082815260200191505060405180910390f35b6104fe600480360360608110156104a857600080fd5b81019080803573ffffffffffffffffffffffffffffffffffffffff169060200190929190803573ffffffffffffffffffffffffffffffffffffffff16906020019092919080359060200190929190505050611d1a565b604051808215151515815260200191505060405180910390f35b610520611df3565b604051808260ff1660ff16815260200191505060405180910390f35b6105886004803603604081101561055257600080fd5b81019080803573ffffffffffffffffffffffffffffffffffffffff16906020019092919080359060200190929190505050611e0a565b604051808215151515815260200191505060405180910390f35b6105aa611ebd565b005b6105b4611fa5565b604051808273ffffffffffffffffffffffffffffffffffffffff1673ffffffffffffffffffffffffffffffffffffffff16815260200191505060405180910390f35b6105fe611fd2565b6040518082815260200191505060405180910390f35b61061c6120cf565b6040518082815260200191505060405180910390f35b61063a6120dc565b604051808215151515815260200191505060405180910390f35b61065c6120f3565b604051808273ffffffffffffffffffffffffffffffffffffffff1673ffffffffffffffffffffffffffffffffffffffff16815260200191505060405180910390f35b6106e0600480360360208110156106b457600080fd5b81019080803573ffffffffffffffffffffffffffffffffffffffff169060200190929190505050612119565b604051808381526020018281526020019250505060405180910390f35b610705612653565b6040518082815260200191505060405180910390f35b61075d6004803603602081101561073157600080fd5b81019080803573ffffffffffffffffffffffffffffffffffffffff169060200190929190505050612659565b6040518082815260200191505060405180910390f35b6107b56004803603602081101561078957600080fd5b81019080803573ffffffffffffffffffffffffffffffffffffffff1690602001909291905050506126a1565b6040518082815260200191505060405180910390f35b6107d3612d51565b6040518080602001828103825283818151815260200191508051906020019080838360005b838110156108135780820151818401526020810190506107f8565b50505050905090810190601f1680156108405780820380516001836020036101000a031916815260200191505b509250505060405180910390f35b610856612df3565b60405180848152602001838152602001828152602001935050505060405180910390f35b610882612e0c565b6040518082815260200191505060405180910390f35b6108a0612e19565b005b6108ee600480360360408110156108b857600080fd5b81019080803573ffffffffffffffffffffffffffffffffffffffff1690602001909291908035906020019092919050505061316f565b604051808215151515815260200191505060405180910390f35b6109546004803603604081101561091e57600080fd5b81019080803573ffffffffffffffffffffffffffffffffffffffff1690602001909291908035906020019092919050505061323c565b604051808215151515815260200191505060405180910390f35b61097661325a565b604051808473ffffffffffffffffffffffffffffffffffffffff1673ffffffffffffffffffffffffffffffffffffffff1681526020018373ffffffffffffffffffffffffffffffffffffffff1673ffffffffffffffffffffffffffffffffffffffff1681526020018273ffffffffffffffffffffffffffffffffffffffff1673ffffffffffffffffffffffffffffffffffffffff168152602001935050505060405180910390f35b610a6060048036036020811015610a3457600080fd5b81019080803573ffffffffffffffffffffffffffffffffffffffff1690602001909291905050506132d9565b604051808215151515815260200191505060405180910390f35b610a826133e8565b604051808273ffffffffffffffffffffffffffffffffffffffff1673ffffffffffffffffffffffffffffffffffffffff16815260200191505060405180910390f35b610b0660048036036020811015610ada57600080fd5b81019080803573ffffffffffffffffffffffffffffffffffffffff16906020019092919050505061340e565b60405180848152602001838152602001828152602001935050505060405180910390f35b610b32613bf4565b604051808773ffffffffffffffffffffffffffffffffffffffff1673ffffffffffffffffffffffffffffffffffffffff1681526020018673ffffffffffffffffffffffffffffffffffffffff1673ffffffffffffffffffffffffffffffffffffffff1681526020018573ffffffffffffffffffffffffffffffffffffffff1673ffffffffffffffffffffffffffffffffffffffff168152602001848152602001838152602001828152602001965050505050505060405180910390f35b610c5160048036036040811015610c0557600080fd5b81019080803573ffffffffffffffffffffffffffffffffffffffff169060200190929190803573ffffffffffffffffffffffffffffffffffffffff169060200190929190505050613d2f565b6040518082815260200191505060405180910390f35b610c6f613db6565b6040518082815260200191505060405180910390f35b610c8d613dc3565b6040518082815260200191505060405180910390f35b610cab613dc9565b6040518082815260200191505060405180910390f35b600b8060000160009054906101000a900473ffffffffffffffffffffffffffffffffffffffff16908060010160009054906101000a900473ffffffffffffffffffffffffffffffffffffffff16908060020154908060030154908060040154905085565b6000806000600560019054906101000a900460ff16610dac576040517f08c379a000000000000000000000000000000000000000000000000000000000815260040180806020018281038252601f8152602001807f5265656e7472616e637947756172643a207265656e7472616e742063616c6c0081525060200191505060405180910390fd5b6000600560016101000a81548160ff02191690831515021790555042600b600401541015610e42576040517f08c379a000000000000000000000000000000000000000000000000000000000815260040180806020018281038252600b8152602001807f4552525f4558504952454400000000000000000000000000000000000000000081525060200191505060405180910390fd5b600560029054906101000a900460ff1615610ec5576040517f08c379a00000000000000000000000000000000000000000000000000000000081526004018080602001828103825260108152602001807f5061757361626c653a207061757365640000000000000000000000000000000081525060200191505060405180910390fd5b6000600b60000160009054906101000a900473ffffffffffffffffffffffffffffffffffffffff1690506000600b60010160009054906101000a900473ffffffffffffffffffffffffffffffffffffffff16905060008173ffffffffffffffffffffffffffffffffffffffff166370a08231306040518263ffffffff1660e01b8152600401808273ffffffffffffffffffffffffffffffffffffffff1673ffffffffffffffffffffffffffffffffffffffff16815260200191505060206040518083038186803b158015610f9857600080fd5b505afa158015610fac573d6000803e3d6000fd5b505050506040513d6020811015610fc257600080fd5b8101908080519060200190929190505050905060008373ffffffffffffffffffffffffffffffffffffffff166370a08231306040518263ffffffff1660e01b8152600401808273ffffffffffffffffffffffffffffffffffffffff1673ffffffffffffffffffffffffffffffffffffffff16815260200191505060206040518083038186803b15801561105457600080fd5b505afa158015611068573d6000803e3d6000fd5b505050506040513d602081101561107e57600080fd5b81019080805190602001909291905050509050600061109c30612659565b90506110b360085484613dcf90919063ffffffff16565b97508096506110e7600b600301546110d9600b600201548b613e1990919063ffffffff16565b613e9f90919063ffffffff16565b95506000881180156110f95750600087115b61116b576040517f08c379a00000000000000000000000000000000000000000000000000000000081526004018080602001828103825260088152602001807f4552525f5a45524f00000000000000000000000000000000000000000000000081525060200191505060405180910390fd5b85871015801561117b5750858210155b6111ed576040517f08c379a00000000000000000000000000000000000000000000000000000000081526004018080602001828103825260128152602001807f4552525f42414c5f554e4445524c59494e47000000000000000000000000000081525060200191505060405180910390fd5b6111f73088613ee9565b8473ffffffffffffffffffffffffffffffffffffffff1663a9059cbb8a886040518363ffffffff1660e01b8152600401808373ffffffffffffffffffffffffffffffffffffffff1673ffffffffffffffffffffffffffffffffffffffff16815260200182815260200192505050602060405180830381600087803b15801561127e57600080fd5b505af1158015611292573d6000803e3d6000fd5b505050506040513d60208110156112a857600080fd5b810190808051906020019092919050505061132b576040517f08c379a00000000000000000000000000000000000000000000000000000000081526004018080602001828103825260158152602001807f4552525f5452414e534645525f4f55545f4641494c000000000000000000000081525060200191505060405180910390fd5b8373ffffffffffffffffffffffffffffffffffffffff166370a08231306040518263ffffffff1660e01b8152600401808273ffffffffffffffffffffffffffffffffffffffff1673ffffffffffffffffffffffffffffffffffffffff16815260200191505060206040518083038186803b1580156113a857600080fd5b505afa1580156113bc573d6000803e3d6000fd5b505050506040513d60208110156113d257600080fd5b810190808051906020019092919050505092508473ffffffffffffffffffffffffffffffffffffffff166370a08231306040518263ffffffff1660e01b8152600401808273ffffffffffffffffffffffffffffffffffffffff1673ffffffffffffffffffffffffffffffffffffffff16815260200191505060206040518083038186803b15801561146257600080fd5b505afa158015611476573d6000803e3d6000fd5b505050506040513d602081101561148c57600080fd5b810190808051906020019092919050505091506114ac82846009546140ad565b8873ffffffffffffffffffffffffffffffffffffffff167f77f92a1b6a1a11de8ca49515ad4c1fad45632dd3442167d74b90b304a3c7a758878a604051808381526020018281526020019250505060405180910390a250505050506001600560016101000a81548160ff0219169083151502179055509193909250565b606060038054600181600116156101000203166002900480601f0160208091040260200160405190810160405280929190818152602001828054600181600116156101000203166002900480156115c15780601f10611596576101008083540402835291602001916115c1565b820191906000526020600020905b8154815290600101906020018083116115a457829003601f168201915b5050505050905090565b6000600b60010160009054906101000a900473ffffffffffffffffffffffffffffffffffffffff16905090565b600061160c61160561410e565b8484614116565b6001905092915050565b60095481565b600560019054906101000a900460ff1661169e576040517f08c379a000000000000000000000000000000000000000000000000000000000815260040180806020018281038252601f8152602001807f5265656e7472616e637947756172643a207265656e7472616e742063616c6c0081525060200191505060405180910390fd5b6000600560016101000a81548160ff02191690831515021790555060008060006116c661325a565b9250925092508273ffffffffffffffffffffffffffffffffffffffff1663a9059cbb336117b56007548773ffffffffffffffffffffffffffffffffffffffff166370a08231306040518263ffffffff1660e01b8152600401808273ffffffffffffffffffffffffffffffffffffffff1673ffffffffffffffffffffffffffffffffffffffff16815260200191505060206040518083038186803b15801561176c57600080fd5b505afa158015611780573d6000803e3d6000fd5b505050506040513d602081101561179657600080fd5b8101908080519060200190929190505050613dcf90919063ffffffff16565b6040518363ffffffff1660e01b8152600401808373ffffffffffffffffffffffffffffffffffffffff1673ffffffffffffffffffffffffffffffffffffffff16815260200182815260200192505050602060405180830381600087803b15801561181e57600080fd5b505af1158015611832573d6000803e3d6000fd5b505050506040513d602081101561184857600080fd5b8101908080519060200190929190505050508173ffffffffffffffffffffffffffffffffffffffff1663a9059cbb336119436008548673ffffffffffffffffffffffffffffffffffffffff166370a08231306040518263ffffffff1660e01b8152600401808273ffffffffffffffffffffffffffffffffffffffff1673ffffffffffffffffffffffffffffffffffffffff16815260200191505060206040518083038186803b1580156118fa57600080fd5b505afa15801561190e573d6000803e3d6000fd5b505050506040513d602081101561192457600080fd5b8101908080519060200190929190505050613dcf90919063ffffffff16565b6040518363ffffffff1660e01b8152600401808373ffffffffffffffffffffffffffffffffffffffff1673ffffffffffffffffffffffffffffffffffffffff16815260200182815260200192505050602060405180830381600087803b1580156119ac57600080fd5b505af11580156119c0573d6000803e3d6000fd5b505050506040513d60208110156119d657600080fd5b8101908080519060200190929190505050508073ffffffffffffffffffffffffffffffffffffffff1663a9059cbb33611ad16009548573ffffffffffffffffffffffffffffffffffffffff166370a08231306040518263ffffffff1660e01b8152600401808273ffffffffffffffffffffffffffffffffffffffff1673ffffffffffffffffffffffffffffffffffffffff16815260200191505060206040518083038186803b158015611a8857600080fd5b505afa158015611a9c573d6000803e3d6000fd5b505050506040513d6020811015611ab257600080fd5b8101908080519060200190929190505050613dcf90919063ffffffff16565b6040518363ffffffff1660e01b8152600401808373ffffffffffffffffffffffffffffffffffffffff1673ffffffffffffffffffffffffffffffffffffffff16815260200182815260200192505050602060405180830381600087803b158015611b3a57600080fd5b505af1158015611b4e573d6000803e3d6000fd5b505050506040513d6020811015611b6457600080fd5b8101908080519060200190929190505050503073ffffffffffffffffffffffffffffffffffffffff1663a9059cbb333073ffffffffffffffffffffffffffffffffffffffff166370a08231306040518263ffffffff1660e01b8152600401808273ffffffffffffffffffffffffffffffffffffffff1673ffffffffffffffffffffffffffffffffffffffff16815260200191505060206040518083038186803b158015611c1057600080fd5b505afa158015611c24573d6000803e3d6000fd5b505050506040513d6020811015611c3a57600080fd5b81019080805190602001909291905050506040518363ffffffff1660e01b8152600401808373ffffffffffffffffffffffffffffffffffffffff1673ffffffffffffffffffffffffffffffffffffffff16815260200182815260200192505050602060405180830381600087803b158015611cb457600080fd5b505af1158015611cc8573d6000803e3d6000fd5b505050506040513d6020811015611cde57600080fd5b8101908080519060200190929190505050505050506001600560016101000a81548160ff021916908315150217905550565b6000600254905090565b6000611d2784848461430d565b611de884611d3361410e565b611de385604051806060016040528060288152602001614e2f60289139600160008b73ffffffffffffffffffffffffffffffffffffffff1673ffffffffffffffffffffffffffffffffffffffff1681526020019081526020016000206000611d9961410e565b73ffffffffffffffffffffffffffffffffffffffff1673ffffffffffffffffffffffffffffffffffffffff168152602001908152602001600020546145ce9092919063ffffffff16565b614116565b600190509392505050565b6000600560009054906101000a900460ff16905090565b6000611eb3611e1761410e565b84611eae8560016000611e2861410e565b73ffffffffffffffffffffffffffffffffffffffff1673ffffffffffffffffffffffffffffffffffffffff16815260200190815260200160002060008973ffffffffffffffffffffffffffffffffffffffff1673ffffffffffffffffffffffffffffffffffffffff1681526020019081526020016000205461468e90919063ffffffff16565b614116565b6001905092915050565b600660009054906101000a900473ffffffffffffffffffffffffffffffffffffffff1673ffffffffffffffffffffffffffffffffffffffff163373ffffffffffffffffffffffffffffffffffffffff1614611f80576040517f08c379a000000000000000000000000000000000000000000000000000000000815260040180806020018281038252600d8152602001807f4552525f4e4f545f4f574e45520000000000000000000000000000000000000081525060200191505060405180910390fd5b611f886120dc565b15611f9a57611f95614716565b611fa3565b611fa261481f565b5b565b6000600b60000160009054906101000a900473ffffffffffffffffffffffffffffffffffffffff16905090565b600080600560039054906101000a900473ffffffffffffffffffffffffffffffffffffffff1673ffffffffffffffffffffffffffffffffffffffff166370a08231336040518263ffffffff1660e01b8152600401808273ffffffffffffffffffffffffffffffffffffffff1673ffffffffffffffffffffffffffffffffffffffff16815260200191505060206040518083038186803b15801561207457600080fd5b505afa158015612088573d6000803e3d6000fd5b505050506040513d602081101561209e57600080fd5b8101908080519060200190929190505050905080600854116120c5576008549150816120ca565b809150815b505090565b6000600b60020154905090565b6000600560029054906101000a900460ff16905090565b600560039054906101000a900473ffffffffffffffffffffffffffffffffffffffff1681565b600080600560019054906101000a900460ff1661219e576040517f08c379a000000000000000000000000000000000000000000000000000000000815260040180806020018281038252601f8152602001807f5265656e7472616e637947756172643a207265656e7472616e742063616c6c0081525060200191505060405180910390fd5b6000600560016101000a81548160ff02191690831515021790555042600b600401541015612234576040517f08c379a000000000000000000000000000000000000000000000000000000000815260040180806020018281038252600b8152602001807f4552525f4558504952454400000000000000000000000000000000000000000081525060200191505060405180910390fd5b600560029054906101000a900460ff16156122b7576040517f08c379a00000000000000000000000000000000000000000000000000000000081526004018080602001828103825260108152602001807f5061757361626c653a207061757365640000000000000000000000000000000081525060200191505060405180910390fd5b6000600b60000160009054906101000a900473ffffffffffffffffffffffffffffffffffffffff1673ffffffffffffffffffffffffffffffffffffffff166370a08231306040518263ffffffff1660e01b8152600401808273ffffffffffffffffffffffffffffffffffffffff1673ffffffffffffffffffffffffffffffffffffffff16815260200191505060206040518083038186803b15801561235b57600080fd5b505afa15801561236f573d6000803e3d6000fd5b505050506040513d602081101561238557600080fd5b810190808051906020019092919050505090506123ad60075482613dcf90919063ffffffff16565b925060006123c9600b6003015485613e1990919063ffffffff16565b1161243c576040517f08c379a00000000000000000000000000000000000000000000000000000000081526004018080602001828103825260088152602001807f4552525f5a45524f00000000000000000000000000000000000000000000000081525060200191505060405180910390fd5b61246b600b6002015461245d600b6003015486613e1990919063ffffffff16565b613e9f90919063ffffffff16565b9150600560039054906101000a900473ffffffffffffffffffffffffffffffffffffffff1673ffffffffffffffffffffffffffffffffffffffff166340c10f1985846040518363ffffffff1660e01b8152600401808373ffffffffffffffffffffffffffffffffffffffff1673ffffffffffffffffffffffffffffffffffffffff16815260200182815260200192505050602060405180830381600087803b15801561251657600080fd5b505af115801561252a573d6000803e3d6000fd5b505050506040513d602081101561254057600080fd5b81019080805190602001909291905050506125c3576040517f08c379a000000000000000000000000000000000000000000000000000000000815260040180806020018281038252600d8152602001807f4552525f4255524e5f4641494c0000000000000000000000000000000000000081525060200191505060405180910390fd5b6125cd8484614929565b6125dc816008546009546140ad565b8373ffffffffffffffffffffffffffffffffffffffff167f4c209b5fc8ad50758f13e2e1088ba56a560dff690a1c6fef26394f4c03821c4f8484604051808381526020018281526020019250505060405180910390a2506001600560016101000a81548160ff021916908315150217905550915091565b600a5481565b60008060008373ffffffffffffffffffffffffffffffffffffffff1673ffffffffffffffffffffffffffffffffffffffff168152602001908152602001600020549050919050565b6000600560019054906101000a900460ff16612725576040517f08c379a000000000000000000000000000000000000000000000000000000000815260040180806020018281038252601f8152602001807f5265656e7472616e637947756172643a207265656e7472616e742063616c6c0081525060200191505060405180910390fd5b6000600560016101000a81548160ff0219169083151502179055506000600b60010160009054906101000a900473ffffffffffffffffffffffffffffffffffffffff1690506000600560039054906101000a900473ffffffffffffffffffffffffffffffffffffffff16905060008273ffffffffffffffffffffffffffffffffffffffff166370a08231306040518263ffffffff1660e01b8152600401808273ffffffffffffffffffffffffffffffffffffffff1673ffffffffffffffffffffffffffffffffffffffff16815260200191505060206040518083038186803b15801561281057600080fd5b505afa158015612824573d6000803e3d6000fd5b505050506040513d602081101561283a57600080fd5b8101908080519060200190929190505050905060008273ffffffffffffffffffffffffffffffffffffffff166370a08231306040518263ffffffff1660e01b8152600401808273ffffffffffffffffffffffffffffffffffffffff1673ffffffffffffffffffffffffffffffffffffffff16815260200191505060206040518083038186803b1580156128cc57600080fd5b505afa1580156128e0573d6000803e3d6000fd5b505050506040513d60208110156128f657600080fd5b8101908080519060200190929190505050905061291e60095482613dcf90919063ffffffff16565b945061296082866040518060400160405280600e81526020017f4552525f42414c5f535452494b45000000000000000000000000000000000000815250614af0565b8273ffffffffffffffffffffffffffffffffffffffff16639dc29fac30876040518363ffffffff1660e01b8152600401808373ffffffffffffffffffffffffffffffffffffffff1673ffffffffffffffffffffffffffffffffffffffff16815260200182815260200192505050602060405180830381600087803b1580156129e757600080fd5b505af11580156129fb573d6000803e3d6000fd5b505050506040513d6020811015612a1157600080fd5b81019080805190602001909291905050508015612aec57508373ffffffffffffffffffffffffffffffffffffffff1663a9059cbb87876040518363ffffffff1660e01b8152600401808373ffffffffffffffffffffffffffffffffffffffff1673ffffffffffffffffffffffffffffffffffffffff16815260200182815260200192505050602060405180830381600087803b158015612ab057600080fd5b505af1158015612ac4573d6000803e3d6000fd5b505050506040513d6020811015612ada57600080fd5b81019080805190602001909291905050505b612b5e576040517f08c379a00000000000000000000000000000000000000000000000000000000081526004018080602001828103825260158152602001807f4552525f5452414e534645525f4f55545f4641494c000000000000000000000081525060200191505060405180910390fd5b8373ffffffffffffffffffffffffffffffffffffffff166370a08231306040518263ffffffff1660e01b8152600401808273ffffffffffffffffffffffffffffffffffffffff1673ffffffffffffffffffffffffffffffffffffffff16815260200191505060206040518083038186803b158015612bdb57600080fd5b505afa158015612bef573d6000803e3d6000fd5b505050506040513d6020811015612c0557600080fd5b810190808051906020019092919050505091508273ffffffffffffffffffffffffffffffffffffffff166370a08231306040518263ffffffff1660e01b8152600401808273ffffffffffffffffffffffffffffffffffffffff1673ffffffffffffffffffffffffffffffffffffffff16815260200191505060206040518083038186803b158015612c9557600080fd5b505afa158015612ca9573d6000803e3d6000fd5b505050506040513d6020811015612cbf57600080fd5b81019080805190602001909291905050509050612cdf60075483836140ad565b8573ffffffffffffffffffffffffffffffffffffffff167f222838db2794d11532d940e8dec38ae307ed0b63cd97c233322e221f998767a6866040518082815260200191505060405180910390a2505050506001600560016101000a81548160ff021916908315150217905550919050565b606060048054600181600116156101000203166002900480601f016020809104026020016040519081016040528092919081815260200182805460018160011615610100020316600290048015612de95780601f10612dbe57610100808354040283529160200191612de9565b820191906000526020600020905b815481529060010190602001808311612dcc57829003601f168201915b5050505050905090565b6000806000600754925060085491506009549050909192565b6000600b60030154905090565b600560019054906101000a900460ff16612e9b576040517f08c379a000000000000000000000000000000000000000000000000000000000815260040180806020018281038252601f8152602001807f5265656e7472616e637947756172643a207265656e7472616e742063616c6c0081525060200191505060405180910390fd5b6000600560016101000a81548160ff021916908315150217905550613152600b60000160009054906101000a900473ffffffffffffffffffffffffffffffffffffffff1673ffffffffffffffffffffffffffffffffffffffff166370a08231306040518263ffffffff1660e01b8152600401808273ffffffffffffffffffffffffffffffffffffffff1673ffffffffffffffffffffffffffffffffffffffff16815260200191505060206040518083038186803b158015612f5b57600080fd5b505afa158015612f6f573d6000803e3d6000fd5b505050506040513d6020811015612f8557600080fd5b8101908080519060200190929190505050600b60010160009054906101000a900473ffffffffffffffffffffffffffffffffffffffff1673ffffffffffffffffffffffffffffffffffffffff166370a08231306040518263ffffffff1660e01b8152600401808273ffffffffffffffffffffffffffffffffffffffff1673ffffffffffffffffffffffffffffffffffffffff16815260200191505060206040518083038186803b15801561303857600080fd5b505afa15801561304c573d6000803e3d6000fd5b505050506040513d602081101561306257600080fd5b8101908080519060200190929190505050600560039054906101000a900473ffffffffffffffffffffffffffffffffffffffff1673ffffffffffffffffffffffffffffffffffffffff166370a08231306040518263ffffffff1660e01b8152600401808273ffffffffffffffffffffffffffffffffffffffff1673ffffffffffffffffffffffffffffffffffffffff16815260200191505060206040518083038186803b15801561311257600080fd5b505afa158015613126573d6000803e3d6000fd5b505050506040513d602081101561313c57600080fd5b81019080805190602001909291905050506140ad565b6001600560016101000a81548160ff021916908315150217905550565b600061323261317c61410e565b8461322d85604051806060016040528060258152602001614ec160259139600160006131a661410e565b73ffffffffffffffffffffffffffffffffffffffff1673ffffffffffffffffffffffffffffffffffffffff16815260200190815260200160002060008a73ffffffffffffffffffffffffffffffffffffffff1673ffffffffffffffffffffffffffffffffffffffff168152602001908152602001600020546145ce9092919063ffffffff16565b614116565b6001905092915050565b600061325061324961410e565b848461430d565b6001905092915050565b6000806000600b60000160009054906101000a900473ffffffffffffffffffffffffffffffffffffffff169250600b60010160009054906101000a900473ffffffffffffffffffffffffffffffffffffffff169150600560039054906101000a900473ffffffffffffffffffffffffffffffffffffffff169050909192565b6000600660009054906101000a900473ffffffffffffffffffffffffffffffffffffffff1673ffffffffffffffffffffffffffffffffffffffff163373ffffffffffffffffffffffffffffffffffffffff161461339e576040517f08c379a000000000000000000000000000000000000000000000000000000000815260040180806020018281038252600d8152602001807f4552525f4e4f545f4f574e45520000000000000000000000000000000000000081525060200191505060405180910390fd5b81600560036101000a81548173ffffffffffffffffffffffffffffffffffffffff021916908373ffffffffffffffffffffffffffffffffffffffff16021790555060019050919050565b600660009054906101000a900473ffffffffffffffffffffffffffffffffffffffff1681565b6000806000600560019054906101000a900460ff16613495576040517f08c379a000000000000000000000000000000000000000000000000000000000815260040180806020018281038252601f8152602001807f5265656e7472616e637947756172643a207265656e7472616e742063616c6c0081525060200191505060405180910390fd5b6000600560016101000a81548160ff0219169083151502179055506000600b60000160009054906101000a900473ffffffffffffffffffffffffffffffffffffffff1690506000600560039054906101000a900473ffffffffffffffffffffffffffffffffffffffff16905060008273ffffffffffffffffffffffffffffffffffffffff166370a08231306040518263ffffffff1660e01b8152600401808273ffffffffffffffffffffffffffffffffffffffff1673ffffffffffffffffffffffffffffffffffffffff16815260200191505060206040518083038186803b15801561358057600080fd5b505afa158015613594573d6000803e3d6000fd5b505050506040513d60208110156135aa57600080fd5b8101908080519060200190929190505050905060008273ffffffffffffffffffffffffffffffffffffffff166370a08231306040518263ffffffff1660e01b8152600401808273ffffffffffffffffffffffffffffffffffffffff1673ffffffffffffffffffffffffffffffffffffffff16815260200191505060206040518083038186803b15801561363c57600080fd5b505afa158015613650573d6000803e3d6000fd5b505050506040513d602081101561366657600080fd5b81019080805190602001909291905050509050600061368430612659565b905061369b60095483613dcf90919063ffffffff16565b97506136cc600b600301546136be600b600201548b613e1990919063ffffffff16565b613e9f90919063ffffffff16565b955042600b60040154116136e057856136e2565b805b96506000881180156136f45750600087115b613766576040517f08c379a00000000000000000000000000000000000000000000000000000000081526004018080602001828103825260088152602001807f4552525f5a45524f00000000000000000000000000000000000000000000000081525060200191505060405180910390fd5b8587101580156137765750858310155b6137e8576040517f08c379a00000000000000000000000000000000000000000000000000000000081526004018080602001828103825260128152602001807f4552525f42414c5f554e4445524c59494e47000000000000000000000000000081525060200191505060405180910390fd5b42600b600401541115613800576137ff3088613ee9565b5b8373ffffffffffffffffffffffffffffffffffffffff16639dc29fac308a6040518363ffffffff1660e01b8152600401808373ffffffffffffffffffffffffffffffffffffffff1673ffffffffffffffffffffffffffffffffffffffff16815260200182815260200192505050602060405180830381600087803b15801561388757600080fd5b505af115801561389b573d6000803e3d6000fd5b505050506040513d60208110156138b157600080fd5b8101908080519060200190929190505050801561398c57508473ffffffffffffffffffffffffffffffffffffffff1663a9059cbb8a886040518363ffffffff1660e01b8152600401808373ffffffffffffffffffffffffffffffffffffffff1673ffffffffffffffffffffffffffffffffffffffff16815260200182815260200192505050602060405180830381600087803b15801561395057600080fd5b505af1158015613964573d6000803e3d6000fd5b505050506040513d602081101561397a57600080fd5b81019080805190602001909291905050505b6139fe576040517f08c379a00000000000000000000000000000000000000000000000000000000081526004018080602001828103825260158152602001807f4552525f5452414e534645525f4f55545f4641494c000000000000000000000081525060200191505060405180910390fd5b8473ffffffffffffffffffffffffffffffffffffffff166370a08231306040518263ffffffff1660e01b8152600401808273ffffffffffffffffffffffffffffffffffffffff1673ffffffffffffffffffffffffffffffffffffffff16815260200191505060206040518083038186803b158015613a7b57600080fd5b505afa158015613a8f573d6000803e3d6000fd5b505050506040513d6020811015613aa557600080fd5b810190808051906020019092919050505092508373ffffffffffffffffffffffffffffffffffffffff166370a08231306040518263ffffffff1660e01b8152600401808273ffffffffffffffffffffffffffffffffffffffff1673ffffffffffffffffffffffffffffffffffffffff16815260200191505060206040518083038186803b158015613b3557600080fd5b505afa158015613b49573d6000803e3d6000fd5b505050506040513d6020811015613b5f57600080fd5b81019080805190602001909291905050509150613b7f83600854846140ad565b8873ffffffffffffffffffffffffffffffffffffffff167f684222b0069d4a2e5e0d986611cc5182d543904c4e4264bf770d4e51faefc822876040518082815260200191505060405180910390a250505050506001600560016101000a81548160ff0219169083151502179055509193909250565b600080600080600080613c05614d25565b600b6040518060a00160405290816000820160009054906101000a900473ffffffffffffffffffffffffffffffffffffffff1673ffffffffffffffffffffffffffffffffffffffff1673ffffffffffffffffffffffffffffffffffffffff1681526020016001820160009054906101000a900473ffffffffffffffffffffffffffffffffffffffff1673ffffffffffffffffffffffffffffffffffffffff1673ffffffffffffffffffffffffffffffffffffffff168152602001600282015481526020016003820154815260200160048201548152505090508060000151965080602001519550600560039054906101000a900473ffffffffffffffffffffffffffffffffffffffff16945080604001519350806060015192508060800151915050909192939495565b6000600160008473ffffffffffffffffffffffffffffffffffffffff1673ffffffffffffffffffffffffffffffffffffffff16815260200190815260200160002060008373ffffffffffffffffffffffffffffffffffffffff1673ffffffffffffffffffffffffffffffffffffffff16815260200190815260200160002054905092915050565b6000600b60040154905090565b60085481565b60075481565b6000613e1183836040518060400160405280601e81526020017f536166654d6174683a207375627472616374696f6e206f766572666c6f7700008152506145ce565b905092915050565b600080831415613e2c5760009050613e99565b6000828402905082848281613e3d57fe5b0414613e94576040517f08c379a0000000000000000000000000000000000000000000000000000000008152600401808060200182810382526021815260200180614e0e6021913960400191505060405180910390fd5b809150505b92915050565b6000613ee183836040518060400160405280601a81526020017f536166654d6174683a206469766973696f6e206279207a65726f000000000000815250614c5a565b905092915050565b600073ffffffffffffffffffffffffffffffffffffffff168273ffffffffffffffffffffffffffffffffffffffff161415613f6f576040517f08c379a0000000000000000000000000000000000000000000000000000000008152600401808060200182810382526021815260200180614e576021913960400191505060405180910390fd5b613f7b82600083614d20565b613fe681604051806060016040528060228152602001614da4602291396000808673ffffffffffffffffffffffffffffffffffffffff1673ffffffffffffffffffffffffffffffffffffffff168152602001908152602001600020546145ce9092919063ffffffff16565b6000808473ffffffffffffffffffffffffffffffffffffffff1673ffffffffffffffffffffffffffffffffffffffff1681526020019081526020016000208190555061403d81600254613dcf90919063ffffffff16565b600281905550600073ffffffffffffffffffffffffffffffffffffffff168273ffffffffffffffffffffffffffffffffffffffff167fddf252ad1be2c89b69c2b068fc378daa952ba7f163c4a11628f55a4df523b3ef836040518082815260200191505060405180910390a35050565b8260078190555081600881905550806009819055507f83646b5da018143f952d3aaf3adca46d3cb6dd8782f9a91609d9ad731f8bdd1e83838360405180848152602001838152602001828152602001935050505060405180910390a1505050565b600033905090565b600073ffffffffffffffffffffffffffffffffffffffff168373ffffffffffffffffffffffffffffffffffffffff16141561419c576040517f08c379a0000000000000000000000000000000000000000000000000000000008152600401808060200182810382526024815260200180614e9d6024913960400191505060405180910390fd5b600073ffffffffffffffffffffffffffffffffffffffff168273ffffffffffffffffffffffffffffffffffffffff161415614222576040517f08c379a0000000000000000000000000000000000000000000000000000000008152600401808060200182810382526022815260200180614dc66022913960400191505060405180910390fd5b80600160008573ffffffffffffffffffffffffffffffffffffffff1673ffffffffffffffffffffffffffffffffffffffff16815260200190815260200160002060008473ffffffffffffffffffffffffffffffffffffffff1673ffffffffffffffffffffffffffffffffffffffff168152602001908152602001600020819055508173ffffffffffffffffffffffffffffffffffffffff168373ffffffffffffffffffffffffffffffffffffffff167f8c5be1e5ebec7d5bd14f71427d1e84f3dd0314c0f7b2291e5b200ac8c7c3b925836040518082815260200191505060405180910390a3505050565b600073ffffffffffffffffffffffffffffffffffffffff168373ffffffffffffffffffffffffffffffffffffffff161415614393576040517f08c379a0000000000000000000000000000000000000000000000000000000008152600401808060200182810382526025815260200180614e786025913960400191505060405180910390fd5b600073ffffffffffffffffffffffffffffffffffffffff168273ffffffffffffffffffffffffffffffffffffffff161415614419576040517f08c379a0000000000000000000000000000000000000000000000000000000008152600401808060200182810382526023815260200180614d816023913960400191505060405180910390fd5b614424838383614d20565b61448f81604051806060016040528060268152602001614de8602691396000808773ffffffffffffffffffffffffffffffffffffffff1673ffffffffffffffffffffffffffffffffffffffff168152602001908152602001600020546145ce9092919063ffffffff16565b6000808573ffffffffffffffffffffffffffffffffffffffff1673ffffffffffffffffffffffffffffffffffffffff16815260200190815260200160002081905550614522816000808573ffffffffffffffffffffffffffffffffffffffff1673ffffffffffffffffffffffffffffffffffffffff1681526020019081526020016000205461468e90919063ffffffff16565b6000808473ffffffffffffffffffffffffffffffffffffffff1673ffffffffffffffffffffffffffffffffffffffff168152602001908152602001600020819055508173ffffffffffffffffffffffffffffffffffffffff168373ffffffffffffffffffffffffffffffffffffffff167fddf252ad1be2c89b69c2b068fc378daa952ba7f163c4a11628f55a4df523b3ef836040518082815260200191505060405180910390a3505050565b600083831115829061467b576040517f08c379a00000000000000000000000000000000000000000000000000000000081526004018080602001828103825283818151815260200191508051906020019080838360005b83811015614640578082015181840152602081019050614625565b50505050905090810190601f16801561466d5780820380516001836020036101000a031916815260200191505b509250505060405180910390fd5b5060008385039050809150509392505050565b60008082840190508381101561470c576040517f08c379a000000000000000000000000000000000000000000000000000000000815260040180806020018281038252601b8152602001807f536166654d6174683a206164646974696f6e206f766572666c6f77000000000081525060200191505060405180910390fd5b8091505092915050565b600560029054906101000a900460ff16614798576040517f08c379a00000000000000000000000000000000000000000000000000000000081526004018080602001828103825260148152602001807f5061757361626c653a206e6f742070617573656400000000000000000000000081525060200191505060405180910390fd5b6000600560026101000a81548160ff0219169083151502179055507f5db9ee0a495bf2e6ff9c91a7834c1ba4fdd244a5e8aa4e537bd38aeae4b073aa6147dc61410e565b604051808273ffffffffffffffffffffffffffffffffffffffff1673ffffffffffffffffffffffffffffffffffffffff16815260200191505060405180910390a1565b600560029054906101000a900460ff16156148a2576040517f08c379a00000000000000000000000000000000000000000000000000000000081526004018080602001828103825260108152602001807f5061757361626c653a207061757365640000000000000000000000000000000081525060200191505060405180910390fd5b6001600560026101000a81548160ff0219169083151502179055507f62e78cea01bee320cd4e420270b5ea74000d11b0c9f74754ebdbfc544b05a2586148e661410e565b604051808273ffffffffffffffffffffffffffffffffffffffff1673ffffffffffffffffffffffffffffffffffffffff16815260200191505060405180910390a1565b600073ffffffffffffffffffffffffffffffffffffffff168273ffffffffffffffffffffffffffffffffffffffff1614156149cc576040517f08c379a000000000000000000000000000000000000000000000000000000000815260040180806020018281038252601f8152602001807f45524332303a206d696e7420746f20746865207a65726f20616464726573730081525060200191505060405180910390fd5b6149d860008383614d20565b6149ed8160025461468e90919063ffffffff16565b600281905550614a44816000808573ffffffffffffffffffffffffffffffffffffffff1673ffffffffffffffffffffffffffffffffffffffff1681526020019081526020016000205461468e90919063ffffffff16565b6000808473ffffffffffffffffffffffffffffffffffffffff1673ffffffffffffffffffffffffffffffffffffffff168152602001908152602001600020819055508173ffffffffffffffffffffffffffffffffffffffff16600073ffffffffffffffffffffffffffffffffffffffff167fddf252ad1be2c89b69c2b068fc378daa952ba7f163c4a11628f55a4df523b3ef836040518082815260200191505060405180910390a35050565b60008214614ba957818310158190614ba3576040517f08c379a00000000000000000000000000000000000000000000000000000000081526004018080602001828103825283818151815260200191508051906020019080838360005b83811015614b68578082015181840152602081019050614b4d565b50505050905090810190601f168015614b955780820380516001836020036101000a031916815260200191505b509250505060405180910390fd5b50614c55565b8183118190614c53576040517f08c379a00000000000000000000000000000000000000000000000000000000081526004018080602001828103825283818151815260200191508051906020019080838360005b83811015614c18578082015181840152602081019050614bfd565b50505050905090810190601f168015614c455780820380516001836020036101000a031916815260200191505b509250505060405180910390fd5b505b505050565b60008083118290614d06576040517f08c379a00000000000000000000000000000000000000000000000000000000081526004018080602001828103825283818151815260200191508051906020019080838360005b83811015614ccb578082015181840152602081019050614cb0565b50505050905090810190601f168015614cf85780820380516001836020036101000a031916815260200191505b509250505060405180910390fd5b506000838581614d1257fe5b049050809150509392505050565b505050565b6040518060a00160405280600073ffffffffffffffffffffffffffffffffffffffff168152602001600073ffffffffffffffffffffffffffffffffffffffff168152602001600081526020016000815260200160008152509056fe45524332303a207472616e7366657220746f20746865207a65726f206164647265737345524332303a206275726e20616d6f756e7420657863656564732062616c616e636545524332303a20617070726f766520746f20746865207a65726f206164647265737345524332303a207472616e7366657220616d6f756e7420657863656564732062616c616e6365536166654d6174683a206d756c7469706c69636174696f6e206f766572666c6f7745524332303a207472616e7366657220616d6f756e74206578636565647320616c6c6f77616e636545524332303a206275726e2066726f6d20746865207a65726f206164647265737345524332303a207472616e736665722066726f6d20746865207a65726f206164647265737345524332303a20617070726f76652066726f6d20746865207a65726f206164647265737345524332303a2064656372656173656420616c6c6f77616e63652062656c6f77207a65726fa26469706673582212205141d3548e70575313c576460dccc7a48c03ee8dfaffe9ab788626fce624e31e64736f6c634300060200334f776e61626c653a206e6577206f776e657220697320746865207a65726f2061646472657373a264697066735822122048d35e5f824e89efeda06d68b9b89747337e815f44c80eda2e11df1dfafa558d64736f6c634300060200334f776e61626c653a206e6577206f776e657220697320746865207a65726f2061646472657373",
  "source": "pragma solidity ^0.6.2;\r\n\r\n/**\r\n * @title Primitive's Market Creator Contract\r\n * @author Primitive\r\n */\r\n\r\nimport \"../PrimeOption.sol\";\r\nimport \"@openzeppelin/contracts/access/Ownable.sol\";\r\n\r\ncontract ControllerOption is Ownable {\r\n    using SafeMath for uint256;\r\n\r\n    /* uint256 public _marketNonce; */\r\n\r\n    constructor(\r\n        address _controller\r\n    ) public {\r\n        transferOwnership(_controller);\r\n    }\r\n\r\n    function addOption(\r\n        uint256 _marketNonce,\r\n        string calldata name,\r\n        string calldata symbol,\r\n        address tokenU,\r\n        address tokenS,\r\n        uint256 base,\r\n        uint256 price,\r\n        uint256 expiry\r\n    )\r\n        external\r\n        onlyOwner\r\n        returns (address)\r\n    {\r\n        /* _marketNonce = _marketNonce.add(1); */\r\n        PrimeOption tokenP = new PrimeOption(\r\n            name,\r\n            symbol,\r\n            _marketNonce,\r\n            tokenU,\r\n            tokenS,\r\n            base,\r\n            price,\r\n            expiry\r\n        );\r\n        return (address(tokenP));\r\n    }\r\n\r\n    function setRedeem(address tokenR, address tokenP) public onlyOwner returns (bool) {\r\n        PrimeOption option = PrimeOption(tokenP);\r\n        return option.initTokenR(tokenR);\r\n    }\r\n}\r\n\r\n",
  "sourcePath": "C:\\Users\\alexa\\OneDrive\\Documents\\Master\\Blockchain\\Projects\\carbon\\contracts\\controller\\ControllerOption.sol",
  "compiler": {
    "name": "solc",
    "version": "0.6.2+commit.bacdbe57.Emscripten.clang"
  },
  "schemaVersion": "3.0.23",
  "updatedAt": "2020-05-01T00:51:30.175Z",
  "devdoc": {
    "methods": {
      "owner()": {
        "details": "Returns the address of the current owner."
      },
      "renounceOwnership()": {
        "details": "Leaves the contract without owner. It will not be possible to call `onlyOwner` functions anymore. Can only be called by the current owner.     * NOTE: Renouncing ownership will leave the contract without an owner, thereby removing any functionality that is only available to the owner."
      },
      "transferOwnership(address)": {
        "details": "Transfers ownership of the contract to a new account (`newOwner`). Can only be called by the current owner."
      }
    }
  },
  "userdoc": {
    "methods": {}
  }
}