{
  "contractName": "ControllerOption",
  "abi": [
    {
      "inputs": [
        {
          "internalType": "address",
          "name": "controller",
          "type": "address"
        },
        {
          "internalType": "address",
          "name": "primeAddress",
          "type": "address"
        }
      ],
      "stateMutability": "nonpayable",
      "type": "constructor"
    },
    {
      "anonymous": false,
      "inputs": [
        {
          "indexed": true,
          "internalType": "address",
          "name": "previousOwner",
          "type": "address"
        },
        {
          "indexed": true,
          "internalType": "address",
          "name": "newOwner",
          "type": "address"
        }
      ],
      "name": "OwnershipTransferred",
      "type": "event"
    },
    {
      "inputs": [],
      "name": "_nonce",
      "outputs": [
        {
          "internalType": "uint256",
          "name": "",
          "type": "uint256"
        }
      ],
      "stateMutability": "view",
      "type": "function",
      "constant": true
    },
    {
      "inputs": [],
      "name": "_prime",
      "outputs": [
        {
          "internalType": "contract IPrime",
          "name": "",
          "type": "address"
        }
      ],
      "stateMutability": "view",
      "type": "function",
      "constant": true
    },
    {
      "inputs": [
        {
          "internalType": "uint256",
          "name": "",
          "type": "uint256"
        }
      ],
      "name": "_primeMarkets",
      "outputs": [
        {
          "internalType": "address",
          "name": "",
          "type": "address"
        }
      ],
      "stateMutability": "view",
      "type": "function",
      "constant": true
    },
    {
      "inputs": [],
      "name": "isOwner",
      "outputs": [
        {
          "internalType": "bool",
          "name": "",
          "type": "bool"
        }
      ],
      "stateMutability": "view",
      "type": "function",
      "constant": true
    },
    {
      "inputs": [],
      "name": "market",
      "outputs": [
        {
          "internalType": "contract IControllerMarket",
          "name": "",
          "type": "address"
        }
      ],
      "stateMutability": "view",
      "type": "function",
      "constant": true
    },
    {
      "inputs": [
        {
          "internalType": "address",
          "name": "",
          "type": "address"
        },
        {
          "internalType": "address",
          "name": "",
          "type": "address"
        },
        {
          "internalType": "uint256",
          "name": "",
          "type": "uint256"
        },
        {
          "internalType": "bytes",
          "name": "",
          "type": "bytes"
        }
      ],
      "name": "onERC721Received",
      "outputs": [
        {
          "internalType": "bytes4",
          "name": "",
          "type": "bytes4"
        }
      ],
      "stateMutability": "nonpayable",
      "type": "function"
    },
    {
      "inputs": [],
      "name": "owner",
      "outputs": [
        {
          "internalType": "address",
          "name": "",
          "type": "address"
        }
      ],
      "stateMutability": "view",
      "type": "function",
      "constant": true
    },
    {
      "inputs": [],
      "name": "renounceOwnership",
      "outputs": [],
      "stateMutability": "nonpayable",
      "type": "function"
    },
    {
      "inputs": [
        {
          "internalType": "address",
          "name": "newOwner",
          "type": "address"
        }
      ],
      "name": "transferOwnership",
      "outputs": [],
      "stateMutability": "nonpayable",
      "type": "function"
    },
    {
      "inputs": [
        {
          "internalType": "uint256",
          "name": "qEth",
          "type": "uint256"
        },
        {
          "internalType": "uint256",
          "name": "qToken",
          "type": "uint256"
        },
        {
          "internalType": "contract IERC20",
          "name": "aToken",
          "type": "address"
        },
        {
          "internalType": "uint256",
          "name": "tExpiry",
          "type": "uint256"
        },
        {
          "internalType": "bool",
          "name": "isCall",
          "type": "bool"
        },
        {
          "internalType": "string",
          "name": "name",
          "type": "string"
        }
      ],
      "name": "addEthOption",
      "outputs": [
        {
          "internalType": "address payable",
          "name": "",
          "type": "address"
        }
      ],
      "stateMutability": "payable",
      "type": "function",
      "payable": true
    },
    {
      "inputs": [
        {
          "internalType": "address",
          "name": "exchange",
          "type": "address"
        },
        {
          "internalType": "address payable",
          "name": "primeOption",
          "type": "address"
        }
      ],
      "name": "setExchange",
      "outputs": [
        {
          "internalType": "bool",
          "name": "",
          "type": "bool"
        }
      ],
      "stateMutability": "nonpayable",
      "type": "function"
    }
  ],
  "bytecode": "0x60806040523480156200001157600080fd5b506040516200616238038062006162833981810160405260408110156200003757600080fd5b8101908080519060200190929190805190602001909291905050506000620000646200019d60201b60201c565b9050806000806101000a81548173ffffffffffffffffffffffffffffffffffffffff021916908373ffffffffffffffffffffffffffffffffffffffff1602179055508073ffffffffffffffffffffffffffffffffffffffff16600073ffffffffffffffffffffffffffffffffffffffff167f8be0079c531659141344cd1fd0a4f28419497f9722a3daafe3b4186f6b6457e060405160405180910390a3506200011382620001a560201b60201c565b80600360006101000a81548173ffffffffffffffffffffffffffffffffffffffff021916908373ffffffffffffffffffffffffffffffffffffffff16021790555081600460006101000a81548173ffffffffffffffffffffffffffffffffffffffff021916908373ffffffffffffffffffffffffffffffffffffffff1602179055505050620003e8565b600033905090565b620001b56200023c60201b60201c565b62000228576040517f08c379a00000000000000000000000000000000000000000000000000000000081526004018080602001828103825260208152602001807f4f776e61626c653a2063616c6c6572206973206e6f7420746865206f776e657281525060200191505060405180910390fd5b6200023981620002a260201b60201c565b50565b60008060009054906101000a900473ffffffffffffffffffffffffffffffffffffffff1673ffffffffffffffffffffffffffffffffffffffff16620002866200019d60201b60201c565b73ffffffffffffffffffffffffffffffffffffffff1614905090565b600073ffffffffffffffffffffffffffffffffffffffff168173ffffffffffffffffffffffffffffffffffffffff1614156200032a576040517f08c379a00000000000000000000000000000000000000000000000000000000081526004018080602001828103825260268152602001806200613c6026913960400191505060405180910390fd5b8073ffffffffffffffffffffffffffffffffffffffff166000809054906101000a900473ffffffffffffffffffffffffffffffffffffffff1673ffffffffffffffffffffffffffffffffffffffff167f8be0079c531659141344cd1fd0a4f28419497f9722a3daafe3b4186f6b6457e060405160405180910390a3806000806101000a81548173ffffffffffffffffffffffffffffffffffffffff021916908373ffffffffffffffffffffffffffffffffffffffff16021790555050565b615d4480620003f86000396000f3fe608060405260043610620000aa5760003560e01c80638da5cb5b116200006d5780638da5cb5b146200033b5780638f32d59b1462000395578063a999fd7014620003c7578063bb60160e1462000512578063e07acf17146200059f578063f2fde38b14620005f957620000aa565b8063150b7a0214620000af5780632e4563dd146200021a5780635d1222aa1462000299578063715018a614620002c757806380f5560514620002e1575b600080fd5b348015620000bc57600080fd5b50620001c660048036036080811015620000d557600080fd5b81019080803573ffffffffffffffffffffffffffffffffffffffff169060200190929190803573ffffffffffffffffffffffffffffffffffffffff16906020019092919080359060200190929190803590602001906401000000008111156200013d57600080fd5b8201836020820111156200015057600080fd5b803590602001918460018302840111640100000000831117156200017357600080fd5b91908080601f016020809104026020016040519081016040528093929190818152602001838380828437600081840152601f19601f8201169050808301925050505050505091929192905050506200064e565b60405180827bffffffffffffffffffffffffffffffffffffffffffffffffffffffff19167bffffffffffffffffffffffffffffffffffffffffffffffffffffffff1916815260200191505060405180910390f35b3480156200022757600080fd5b5062000257600480360360208110156200024057600080fd5b810190808035906020019092919050505062000662565b604051808273ffffffffffffffffffffffffffffffffffffffff1673ffffffffffffffffffffffffffffffffffffffff16815260200191505060405180910390f35b348015620002a657600080fd5b50620002b162000695565b6040518082815260200191505060405180910390f35b348015620002d457600080fd5b50620002df6200069b565b005b348015620002ee57600080fd5b50620002f9620007d7565b604051808273ffffffffffffffffffffffffffffffffffffffff1673ffffffffffffffffffffffffffffffffffffffff16815260200191505060405180910390f35b3480156200034857600080fd5b5062000353620007fd565b604051808273ffffffffffffffffffffffffffffffffffffffff1673ffffffffffffffffffffffffffffffffffffffff16815260200191505060405180910390f35b348015620003a257600080fd5b50620003ad62000826565b604051808215151515815260200191505060405180910390f35b620004d0600480360360c0811015620003df57600080fd5b810190808035906020019092919080359060200190929190803573ffffffffffffffffffffffffffffffffffffffff16906020019092919080359060200190929190803515159060200190929190803590602001906401000000008111156200044757600080fd5b8201836020820111156200045a57600080fd5b803590602001918460018302840111640100000000831117156200047d57600080fd5b91908080601f016020809104026020016040519081016040528093929190818152602001838380828437600081840152601f19601f82011690508083019250505050505050919291929050505062000886565b604051808273ffffffffffffffffffffffffffffffffffffffff1673ffffffffffffffffffffffffffffffffffffffff16815260200191505060405180910390f35b3480156200051f57600080fd5b5062000585600480360360408110156200053857600080fd5b81019080803573ffffffffffffffffffffffffffffffffffffffff169060200190929190803573ffffffffffffffffffffffffffffffffffffffff16906020019092919050505062000e96565b604051808215151515815260200191505060405180910390f35b348015620005ac57600080fd5b50620005b762000fe0565b604051808273ffffffffffffffffffffffffffffffffffffffff1673ffffffffffffffffffffffffffffffffffffffff16815260200191505060405180910390f35b3480156200060657600080fd5b506200064c600480360360208110156200061f57600080fd5b81019080803573ffffffffffffffffffffffffffffffffffffffff16906020019092919050505062001006565b005b600063150b7a0260e01b9050949350505050565b60016020528060005260406000206000915054906101000a900473ffffffffffffffffffffffffffffffffffffffff1681565b60025481565b620006a562000826565b62000718576040517f08c379a00000000000000000000000000000000000000000000000000000000081526004018080602001828103825260208152602001807f4f776e61626c653a2063616c6c6572206973206e6f7420746865206f776e657281525060200191505060405180910390fd5b600073ffffffffffffffffffffffffffffffffffffffff166000809054906101000a900473ffffffffffffffffffffffffffffffffffffffff1673ffffffffffffffffffffffffffffffffffffffff167f8be0079c531659141344cd1fd0a4f28419497f9722a3daafe3b4186f6b6457e060405160405180910390a360008060006101000a81548173ffffffffffffffffffffffffffffffffffffffff021916908373ffffffffffffffffffffffffffffffffffffffff160217905550565b600460009054906101000a900473ffffffffffffffffffffffffffffffffffffffff1681565b60008060009054906101000a900473ffffffffffffffffffffffffffffffffffffffff16905090565b60008060009054906101000a900473ffffffffffffffffffffffffffffffffffffffff1673ffffffffffffffffffffffffffffffffffffffff166200086a62001091565b73ffffffffffffffffffffffffffffffffffffffff1614905090565b60006200089262000826565b62000905576040517f08c379a00000000000000000000000000000000000000000000000000000000081526004018080602001828103825260208152602001807f4f776e61626c653a2063616c6c6572206973206e6f7420746865206f776e657281525060200191505060405180910390fd5b6000620009128362001099565b9050600080851562000b2d57600360009054906101000a900473ffffffffffffffffffffffffffffffffffffffff1673ffffffffffffffffffffffffffffffffffffffff1663a22ddfd78b858c8c8c306040518763ffffffff1660e01b8152600401808781526020018673ffffffffffffffffffffffffffffffffffffffff1673ffffffffffffffffffffffffffffffffffffffff1681526020018581526020018473ffffffffffffffffffffffffffffffffffffffff1673ffffffffffffffffffffffffffffffffffffffff1681526020018381526020018273ffffffffffffffffffffffffffffffffffffffff1673ffffffffffffffffffffffffffffffffffffffff1681526020019650505050505050602060405180830381600087803b15801562000a4057600080fd5b505af115801562000a55573d6000803e3d6000fd5b505050506040513d602081101562000a6c57600080fd5b81019080805190602001909291905050509150600460009054906101000a900473ffffffffffffffffffffffffffffffffffffffff1673ffffffffffffffffffffffffffffffffffffffff1663b2080e406040518163ffffffff1660e01b815260040160206040518083038186803b15801562000ae857600080fd5b505afa15801562000afd573d6000803e3d6000fd5b505050506040513d602081101562000b1457600080fd5b8101908080519060200190929190505050905062000d37565b600360009054906101000a900473ffffffffffffffffffffffffffffffffffffffff1673ffffffffffffffffffffffffffffffffffffffff1663a22ddfd78a8a8d878c306040518763ffffffff1660e01b8152600401808781526020018673ffffffffffffffffffffffffffffffffffffffff1673ffffffffffffffffffffffffffffffffffffffff1681526020018581526020018473ffffffffffffffffffffffffffffffffffffffff1673ffffffffffffffffffffffffffffffffffffffff1681526020018381526020018273ffffffffffffffffffffffffffffffffffffffff1673ffffffffffffffffffffffffffffffffffffffff1681526020019650505050505050602060405180830381600087803b15801562000c4f57600080fd5b505af115801562000c64573d6000803e3d6000fd5b505050506040513d602081101562000c7b57600080fd5b81019080805190602001909291905050509150600460009054906101000a900473ffffffffffffffffffffffffffffffffffffffff1673ffffffffffffffffffffffffffffffffffffffff166388d420fd6040518163ffffffff1660e01b815260040160206040518083038186803b15801562000cf757600080fd5b505afa15801562000d0c573d6000803e3d6000fd5b505050506040513d602081101562000d2357600080fd5b810190808051906020019092919050505090505b8273ffffffffffffffffffffffffffffffffffffffff1663fdab706c836040518263ffffffff1660e01b815260040180828152602001915050602060405180830381600087803b15801562000d8b57600080fd5b505af115801562000da0573d6000803e3d6000fd5b505050506040513d602081101562000db757600080fd5b8101908080519060200190929190505050508273ffffffffffffffffffffffffffffffffffffffff16629b81a8826040518263ffffffff1660e01b8152600401808273ffffffffffffffffffffffffffffffffffffffff1673ffffffffffffffffffffffffffffffffffffffff168152602001915050602060405180830381600087803b15801562000e4857600080fd5b505af115801562000e5d573d6000803e3d6000fd5b505050506040513d602081101562000e7457600080fd5b8101908080519060200190929190505050508293505050509695505050505050565b600062000ea262000826565b62000f15576040517f08c379a00000000000000000000000000000000000000000000000000000000081526004018080602001828103825260208152602001807f4f776e61626c653a2063616c6c6572206973206e6f7420746865206f776e657281525060200191505060405180910390fd5b60008290508073ffffffffffffffffffffffffffffffffffffffff16634437152a856040518263ffffffff1660e01b8152600401808273ffffffffffffffffffffffffffffffffffffffff1673ffffffffffffffffffffffffffffffffffffffff168152602001915050602060405180830381600087803b15801562000f9a57600080fd5b505af115801562000faf573d6000803e3d6000fd5b505050506040513d602081101562000fc657600080fd5b810190808051906020019092919050505091505092915050565b600360009054906101000a900473ffffffffffffffffffffffffffffffffffffffff1681565b6200101062000826565b62001083576040517f08c379a00000000000000000000000000000000000000000000000000000000081526004018080602001828103825260208152602001807f4f776e61626c653a2063616c6c6572206973206e6f7420746865206f776e657281525060200191505060405180910390fd5b6200108e816200120f565b50565b600033905090565b6000620010b360016002546200135590919063ffffffff16565b600281905550600082600360009054906101000a900473ffffffffffffffffffffffffffffffffffffffff16604051620010ed90620013de565b80806020018373ffffffffffffffffffffffffffffffffffffffff1673ffffffffffffffffffffffffffffffffffffffff168152602001828103825284818151815260200191508051906020019080838360005b838110156200115e57808201518184015260208101905062001141565b50505050905090810190601f1680156200118c5780820380516001836020036101000a031916815260200191505b509350505050604051809103906000f080158015620011af573d6000803e3d6000fd5b5090508060016000600254815260200190815260200160002060006101000a81548173ffffffffffffffffffffffffffffffffffffffff021916908373ffffffffffffffffffffffffffffffffffffffff16021790555080915050919050565b600073ffffffffffffffffffffffffffffffffffffffff168173ffffffffffffffffffffffffffffffffffffffff16141562001297576040517f08c379a000000000000000000000000000000000000000000000000000000000815260040180806020018281038252602681526020018062005ce96026913960400191505060405180910390fd5b8073ffffffffffffffffffffffffffffffffffffffff166000809054906101000a900473ffffffffffffffffffffffffffffffffffffffff1673ffffffffffffffffffffffffffffffffffffffff167f8be0079c531659141344cd1fd0a4f28419497f9722a3daafe3b4186f6b6457e060405160405180910390a3806000806101000a81548173ffffffffffffffffffffffffffffffffffffffff021916908373ffffffffffffffffffffffffffffffffffffffff16021790555050565b600080828401905083811015620013d4576040517f08c379a000000000000000000000000000000000000000000000000000000000815260040180806020018281038252601b8152602001807f536166654d6174683a206164646974696f6e206f766572666c6f77000000000081525060200191505060405180910390fd5b8091505092915050565b6148fc80620013ed8339019056fe60806040523480156200001157600080fd5b50604051620048fc380380620048fc833981810160405260408110156200003757600080fd5b81019080805160405193929190846401000000008211156200005857600080fd5b838201915060208201858111156200006f57600080fd5b82518660018202830111640100000000821117156200008d57600080fd5b8083526020830192505050908051906020019080838360005b83811015620000c3578082015181840152602081019050620000a6565b50505050905090810190601f168015620000f15780820380516001836020036101000a031916815260200191505b5060405260200180519060200190929190505050816040518060400160405280600581526020017f6f50554c50000000000000000000000000000000000000000000000000000000815250601282600090805190602001906200015692919062000233565b5081600190805190602001906200016f92919062000233565b5080600260006101000a81548160ff021916908360ff1602179055505050506001600660006101000a81548160ff02191690831515021790555080600e60006101000a81548173ffffffffffffffffffffffffffffffffffffffff021916908373ffffffffffffffffffffffffffffffffffffffff16021790555033600860006101000a81548173ffffffffffffffffffffffffffffffffffffffff021916908373ffffffffffffffffffffffffffffffffffffffff1602179055505050620002e2565b828054600181600116156101000203166002900490600052602060002090601f016020900481019282601f106200027657805160ff1916838001178555620002a7565b82800160010185558215620002a7579182015b82811115620002a657825182559160200191906001019062000289565b5b509050620002b69190620002ba565b5090565b620002df91905b80821115620002db576000816000905550600101620002c1565b5090565b90565b61460a80620002f26000396000f3fe6080604052600436106101c55760003560e01c80634b265d26116100f7578063a457c2d711610095578063c8c17d8111610064578063c8c17d8114610b01578063dd62ed3e14610b2c578063e07acf1714610bb1578063fdab706c14610c08576101cc565b8063a457c2d71461097e578063a9059cbb146109f1578063b6b55f2514610a64578063bebd537414610aaa576101cc565b80637473764b116100d15780637473764b1461082a57806386a6859d1461086c57806394b918de1461089b57806395d89b41146108ee576101cc565b80634b265d261461071f57806370a082311461076e57806373cd10e8146107d3576101cc565b806325490a5d1161016457806330be24a11161013e57806330be24a1146105e3578063313ce5671461061257806339509351146106435780634437152a146106b6576101cc565b806325490a5d146104ed5780632e1a7d4d146105395780632ebc7b651461058c576101cc565b8063095ea7b3116101a0578063095ea7b3146103695780630aebeb4e146103dc57806318160ddd1461042f57806323b872dd1461045a576101cc565b80629b81a8146101d1578063010035af1461023a57806306fdde03146102d9576101cc565b366101cc57005b600080fd5b3480156101dd57600080fd5b50610220600480360360208110156101f457600080fd5b81019080803573ffffffffffffffffffffffffffffffffffffffff169060200190929190505050610c57565b604051808215151515815260200191505060405180910390f35b34801561024657600080fd5b5061024f610d66565b604051808681526020018573ffffffffffffffffffffffffffffffffffffffff1673ffffffffffffffffffffffffffffffffffffffff1681526020018481526020018373ffffffffffffffffffffffffffffffffffffffff1673ffffffffffffffffffffffffffffffffffffffff1681526020018281526020019550505050505060405180910390f35b3480156102e557600080fd5b506102ee610dca565b6040518080602001828103825283818151815260200191508051906020019080838360005b8381101561032e578082015181840152602081019050610313565b50505050905090810190601f16801561035b5780820380516001836020036101000a031916815260200191505b509250505060405180910390f35b34801561037557600080fd5b506103c26004803603604081101561038c57600080fd5b81019080803573ffffffffffffffffffffffffffffffffffffffff16906020019092919080359060200190929190505050610e6c565b604051808215151515815260200191505060405180910390f35b3480156103e857600080fd5b50610415600480360360208110156103ff57600080fd5b8101908080359060200190929190505050610e8a565b604051808215151515815260200191505060405180910390f35b34801561043b57600080fd5b50610444611260565b6040518082815260200191505060405180910390f35b34801561046657600080fd5b506104d36004803603606081101561047d57600080fd5b81019080803573ffffffffffffffffffffffffffffffffffffffff169060200190929190803573ffffffffffffffffffffffffffffffffffffffff1690602001909291908035906020019092919050505061126a565b604051808215151515815260200191505060405180910390f35b6105236004803603604081101561050357600080fd5b810190808035906020019092919080359060200190929190505050611343565b6040518082815260200191505060405180910390f35b34801561054557600080fd5b506105726004803603602081101561055c57600080fd5b81019080803590602001909291905050506115c3565b604051808215151515815260200191505060405180910390f35b34801561059857600080fd5b506105a161168e565b604051808273ffffffffffffffffffffffffffffffffffffffff1673ffffffffffffffffffffffffffffffffffffffff16815260200191505060405180910390f35b3480156105ef57600080fd5b506105f86116b4565b604051808215151515815260200191505060405180910390f35b34801561061e57600080fd5b5061062761170f565b604051808260ff1660ff16815260200191505060405180910390f35b34801561064f57600080fd5b5061069c6004803603604081101561066657600080fd5b81019080803573ffffffffffffffffffffffffffffffffffffffff16906020019092919080359060200190929190505050611726565b604051808215151515815260200191505060405180910390f35b3480156106c257600080fd5b50610705600480360360208110156106d957600080fd5b81019080803573ffffffffffffffffffffffffffffffffffffffff1690602001909291905050506117d9565b604051808215151515815260200191505060405180910390f35b34801561072b57600080fd5b506107586004803603602081101561074257600080fd5b8101908080359060200190929190505050611913565b6040518082815260200191505060405180910390f35b34801561077a57600080fd5b506107bd6004803603602081101561079157600080fd5b81019080803573ffffffffffffffffffffffffffffffffffffffff169060200190929190505050611b1e565b6040518082815260200191505060405180910390f35b3480156107df57600080fd5b506107e8611b67565b604051808273ffffffffffffffffffffffffffffffffffffffff1673ffffffffffffffffffffffffffffffffffffffff16815260200191505060405180910390f35b6108566004803603602081101561084057600080fd5b8101908080359060200190929190505050611b8d565b6040518082815260200191505060405180910390f35b34801561087857600080fd5b50610881611e0d565b604051808215151515815260200191505060405180910390f35b3480156108a757600080fd5b506108d4600480360360208110156108be57600080fd5b8101908080359060200190929190505050611e68565b604051808215151515815260200191505060405180910390f35b3480156108fa57600080fd5b50610903611f32565b6040518080602001828103825283818151815260200191508051906020019080838360005b83811015610943578082015181840152602081019050610928565b50505050905090810190601f1680156109705780820380516001836020036101000a031916815260200191505b509250505060405180910390f35b34801561098a57600080fd5b506109d7600480360360408110156109a157600080fd5b81019080803573ffffffffffffffffffffffffffffffffffffffff16906020019092919080359060200190929190505050611fd4565b604051808215151515815260200191505060405180910390f35b3480156109fd57600080fd5b50610a4a60048036036040811015610a1457600080fd5b81019080803573ffffffffffffffffffffffffffffffffffffffff169060200190929190803590602001909291905050506120a1565b604051808215151515815260200191505060405180910390f35b610a9060048036036020811015610a7a57600080fd5b81019080803590602001909291905050506120bf565b604051808215151515815260200191505060405180910390f35b348015610ab657600080fd5b50610abf61218b565b604051808273ffffffffffffffffffffffffffffffffffffffff1673ffffffffffffffffffffffffffffffffffffffff16815260200191505060405180910390f35b348015610b0d57600080fd5b50610b166121b1565b6040518082815260200191505060405180910390f35b348015610b3857600080fd5b50610b9b60048036036040811015610b4f57600080fd5b81019080803573ffffffffffffffffffffffffffffffffffffffff169060200190929190803573ffffffffffffffffffffffffffffffffffffffff1690602001909291905050506121b7565b6040518082815260200191505060405180910390f35b348015610bbd57600080fd5b50610bc661223e565b604051808273ffffffffffffffffffffffffffffffffffffffff1673ffffffffffffffffffffffffffffffffffffffff16815260200191505060405180910390f35b348015610c1457600080fd5b50610c4160048036036020811015610c2b57600080fd5b8101908080359060200190929190505050612264565b6040518082815260200191505060405180910390f35b6000600860009054906101000a900473ffffffffffffffffffffffffffffffffffffffff1673ffffffffffffffffffffffffffffffffffffffff163373ffffffffffffffffffffffffffffffffffffffff1614610d1c576040517f08c379a000000000000000000000000000000000000000000000000000000000815260040180806020018281038252600d8152602001807f4552525f4e4f545f4f574e45520000000000000000000000000000000000000081525060200191505060405180910390fd5b81600f60006101000a81548173ffffffffffffffffffffffffffffffffffffffff021916908373ffffffffffffffffffffffffffffffffffffffff16021790555060019050919050565b60098060000154908060010160009054906101000a900473ffffffffffffffffffffffffffffffffffffffff16908060020154908060030160009054906101000a900473ffffffffffffffffffffffffffffffffffffffff16908060040154905085565b606060008054600181600116156101000203166002900480601f016020809104026020016040519081016040528092919081815260200182805460018160011615610100020316600290048015610e625780601f10610e3757610100808354040283529160200191610e62565b820191906000526020600020905b815481529060010190602001808311610e4557829003601f168201915b5050505050905090565b6000610e80610e79612565565b848461256d565b6001905092915050565b600080600f60009054906101000a900473ffffffffffffffffffffffffffffffffffffffff1673ffffffffffffffffffffffffffffffffffffffff166370a08231336040518263ffffffff1660e01b8152600401808273ffffffffffffffffffffffffffffffffffffffff1673ffffffffffffffffffffffffffffffffffffffff16815260200191505060206040518083038186803b158015610f2c57600080fd5b505afa158015610f40573d6000803e3d6000fd5b505050506040513d6020811015610f5657600080fd5b810190808051906020019092919050505090506000610f9a600960000154610f8c6009600201548761276490919063ffffffff16565b6127ea90919063ffffffff16565b9050610fdc82826040518060400160405280600d81526020017f4552525f42414c5f5250554c5000000000000000000000000000000000000000815250612834565b50611025610fe933611b1e565b856040518060400160405280600d81526020017f4552525f42414c5f4f50554c5000000000000000000000000000000000000000815250612834565b50600f60009054906101000a900473ffffffffffffffffffffffffffffffffffffffff1673ffffffffffffffffffffffffffffffffffffffff16639dc29fac33836040518363ffffffff1660e01b8152600401808373ffffffffffffffffffffffffffffffffffffffff1673ffffffffffffffffffffffffffffffffffffffff16815260200182815260200192505050602060405180830381600087803b1580156110cf57600080fd5b505af11580156110e3573d6000803e3d6000fd5b505050506040513d60208110156110f957600080fd5b81019080805190602001909291905050505061111533856129ad565b61111d611e0d565b156111355761112c3385612b73565b9250505061125b565b6000600960010160009054906101000a900473ffffffffffffffffffffffffffffffffffffffff1690508073ffffffffffffffffffffffffffffffffffffffff166323b872dd3033886040518463ffffffff1660e01b8152600401808473ffffffffffffffffffffffffffffffffffffffff1673ffffffffffffffffffffffffffffffffffffffff1681526020018373ffffffffffffffffffffffffffffffffffffffff1673ffffffffffffffffffffffffffffffffffffffff1681526020018281526020019350505050602060405180830381600087803b15801561121a57600080fd5b505af115801561122e573d6000803e3d6000fd5b505050506040513d602081101561124457600080fd5b810190808051906020019092919050505093505050505b919050565b6000600554905090565b6000611277848484612c5a565b61133884611283612565565b6113338560405180606001604052806028815260200161451e60289139600460008b73ffffffffffffffffffffffffffffffffffffffff1673ffffffffffffffffffffffffffffffffffffffff16815260200190815260200160002060006112e9612565565b73ffffffffffffffffffffffffffffffffffffffff1673ffffffffffffffffffffffffffffffffffffffff16815260200190815260200160002054612f1f9092919063ffffffff16565b61256d565b600190509392505050565b6000600660009054906101000a900460ff166113c7576040517f08c379a000000000000000000000000000000000000000000000000000000000815260040180806020018281038252601f8152602001807f5265656e7472616e637947756172643a207265656e7472616e742063616c6c0081525060200191505060405180910390fd5b6000600660006101000a81548160ff02191690831515021790555060006113ef843033612fdf565b905080611464576040517f08c379a000000000000000000000000000000000000000000000000000000000815260040180806020018281038252600b8152602001807f4552525f4445504f53495400000000000000000000000000000000000000000081525060200191505060405180910390fd5b600061146f85611913565b90506114b181856040518060400160405280600d81526020017f4552525f41534b5f505249434500000000000000000000000000000000000000815250612834565b50601060009054906101000a900473ffffffffffffffffffffffffffffffffffffffff1673ffffffffffffffffffffffffffffffffffffffff1663d93968e18683336040518463ffffffff1660e01b8152600401808481526020018381526020018273ffffffffffffffffffffffffffffffffffffffff1673ffffffffffffffffffffffffffffffffffffffff1681526020019350505050602060405180830381600087803b15801561156357600080fd5b505af1158015611577573d6000803e3d6000fd5b505050506040513d602081101561158d57600080fd5b8101908080519060200190929190505050925050506001600660006101000a81548160ff02191690831515021790555092915050565b6000600660009054906101000a900460ff16611647576040517f08c379a000000000000000000000000000000000000000000000000000000000815260040180806020018281038252601f8152602001807f5265656e7472616e637947756172643a207265656e7472616e742063616c6c0081525060200191505060405180910390fd5b6000600660006101000a81548160ff02191690831515021790555061166c82336133d0565b90506001600660006101000a81548160ff021916908315150217905550919050565b600f60009054906101000a900473ffffffffffffffffffffffffffffffffffffffff1681565b60003073ffffffffffffffffffffffffffffffffffffffff16600960030160009054906101000a900473ffffffffffffffffffffffffffffffffffffffff1673ffffffffffffffffffffffffffffffffffffffff1614905090565b6000600260009054906101000a900460ff16905090565b60006117cf611733612565565b846117ca8560046000611744612565565b73ffffffffffffffffffffffffffffffffffffffff1673ffffffffffffffffffffffffffffffffffffffff16815260200190815260200160002060008973ffffffffffffffffffffffffffffffffffffffff1673ffffffffffffffffffffffffffffffffffffffff16815260200190815260200160002054613b2190919063ffffffff16565b61256d565b6001905092915050565b6000600860009054906101000a900473ffffffffffffffffffffffffffffffffffffffff1673ffffffffffffffffffffffffffffffffffffffff163373ffffffffffffffffffffffffffffffffffffffff161461189e576040517f08c379a000000000000000000000000000000000000000000000000000000000815260040180806020018281038252600d8152602001807f4552525f4e4f545f4f574e45520000000000000000000000000000000000000081525060200191505060405180910390fd5b81601060006101000a81548173ffffffffffffffffffffffffffffffffffffffff021916908373ffffffffffffffffffffffffffffffffffffffff16021790555061190a30837f7ffffffffffffffffffffffffffffffffffffffffffffffff21f494c589c000061256d565b60019050919050565b6000601060009054906101000a900473ffffffffffffffffffffffffffffffffffffffff1673ffffffffffffffffffffffffffffffffffffffff166389f2a87183601060009054906101000a900473ffffffffffffffffffffffffffffffffffffffff1673ffffffffffffffffffffffffffffffffffffffff16634bad95106040518163ffffffff1660e01b815260040160206040518083038186803b1580156119bc57600080fd5b505afa1580156119d0573d6000803e3d6000fd5b505050506040513d60208110156119e657600080fd5b8101908080519060200190929190505050601060009054906101000a900473ffffffffffffffffffffffffffffffffffffffff1673ffffffffffffffffffffffffffffffffffffffff1663e52cbc4d6040518163ffffffff1660e01b815260040160206040518083038186803b158015611a5f57600080fd5b505afa158015611a73573d6000803e3d6000fd5b505050506040513d6020811015611a8957600080fd5b81019080805190602001909291905050506040518463ffffffff1660e01b815260040180848152602001838152602001828152602001935050505060206040518083038186803b158015611adc57600080fd5b505afa158015611af0573d6000803e3d6000fd5b505050506040513d6020811015611b0657600080fd5b81019080805190602001909291905050509050919050565b6000600360008373ffffffffffffffffffffffffffffffffffffffff1673ffffffffffffffffffffffffffffffffffffffff168152602001908152602001600020549050919050565b600860009054906101000a900473ffffffffffffffffffffffffffffffffffffffff1681565b6000600660009054906101000a900460ff16611c11576040517f08c379a000000000000000000000000000000000000000000000000000000000815260040180806020018281038252601f8152602001807f5265656e7472616e637947756172643a207265656e7472616e742063616c6c0081525060200191505060405180910390fd5b6000600660006101000a81548160ff0219169083151502179055506000611c39833033612fdf565b905080611cae576040517f08c379a000000000000000000000000000000000000000000000000000000000815260040180806020018281038252600b8152602001807f4552525f4445504f53495400000000000000000000000000000000000000000081525060200191505060405180910390fd5b6000611cb984611913565b9050611cfc8160006040518060400160405280600d81526020017f4552525f41534b5f505249434500000000000000000000000000000000000000815250612834565b50601060009054906101000a900473ffffffffffffffffffffffffffffffffffffffff1673ffffffffffffffffffffffffffffffffffffffff1663d93968e18583336040518463ffffffff1660e01b8152600401808481526020018381526020018273ffffffffffffffffffffffffffffffffffffffff1673ffffffffffffffffffffffffffffffffffffffff1681526020019350505050602060405180830381600087803b158015611dae57600080fd5b505af1158015611dc2573d6000803e3d6000fd5b505050506040513d6020811015611dd857600080fd5b8101908080519060200190929190505050925050506001600660006101000a81548160ff021916908315150217905550919050565b60003073ffffffffffffffffffffffffffffffffffffffff16600960010160009054906101000a900473ffffffffffffffffffffffffffffffffffffffff1673ffffffffffffffffffffffffffffffffffffffff1614905090565b6000600660009054906101000a900460ff16611eec576040517f08c379a000000000000000000000000000000000000000000000000000000000815260040180806020018281038252601f8152602001807f5265656e7472616e637947756172643a207265656e7472616e742063616c6c0081525060200191505060405180910390fd5b6000600660006101000a81548160ff021916908315150217905550611f1082613ba9565b90506001600660006101000a81548160ff021916908315150217905550919050565b606060018054600181600116156101000203166002900480601f016020809104026020016040519081016040528092919081815260200182805460018160011615610100020316600290048015611fca5780601f10611f9f57610100808354040283529160200191611fca565b820191906000526020600020905b815481529060010190602001808311611fad57829003601f168201915b5050505050905090565b6000612097611fe1612565565b84612092856040518060600160405280602581526020016145b0602591396004600061200b612565565b73ffffffffffffffffffffffffffffffffffffffff1673ffffffffffffffffffffffffffffffffffffffff16815260200190815260200160002060008a73ffffffffffffffffffffffffffffffffffffffff1673ffffffffffffffffffffffffffffffffffffffff16815260200190815260200160002054612f1f9092919063ffffffff16565b61256d565b6001905092915050565b60006120b56120ae612565565b8484612c5a565b6001905092915050565b6000600660009054906101000a900460ff16612143576040517f08c379a000000000000000000000000000000000000000000000000000000000815260040180806020018281038252601f8152602001807f5265656e7472616e637947756172643a207265656e7472616e742063616c6c0081525060200191505060405180910390fd5b6000600660006101000a81548160ff021916908315150217905550612169823333612fdf565b90506001600660006101000a81548160ff021916908315150217905550919050565b601060009054906101000a900473ffffffffffffffffffffffffffffffffffffffff1681565b60075481565b6000600460008473ffffffffffffffffffffffffffffffffffffffff1673ffffffffffffffffffffffffffffffffffffffff16815260200190815260200160002060008373ffffffffffffffffffffffffffffffffffffffff1673ffffffffffffffffffffffffffffffffffffffff16815260200190815260200160002054905092915050565b600e60009054906101000a900473ffffffffffffffffffffffffffffffffffffffff1681565b6000600860009054906101000a900473ffffffffffffffffffffffffffffffffffffffff1673ffffffffffffffffffffffffffffffffffffffff163373ffffffffffffffffffffffffffffffffffffffff1614612329576040517f08c379a000000000000000000000000000000000000000000000000000000000815260040180806020018281038252600d8152602001807f4552525f4e4f545f4f574e45520000000000000000000000000000000000000081525060200191505060405180910390fd5b816007819055506000806000806000806000806000600e60009054906101000a900473ffffffffffffffffffffffffffffffffffffffff1673ffffffffffffffffffffffffffffffffffffffff1663dc38daf88c6040518263ffffffff1660e01b8152600401808281526020019150506101206040518083038186803b1580156123b257600080fd5b505afa1580156123c6573d6000803e3d6000fd5b505050506040513d6101208110156123dd57600080fd5b810190808051906020019092919080519060200190929190805190602001909291908051906020019092919080519060200190929190805190602001909291908051906020019092919080519060200190929190805190602001909291905050509850985098509850985098509850985098506040518060a001604052808981526020018873ffffffffffffffffffffffffffffffffffffffff1681526020018781526020018673ffffffffffffffffffffffffffffffffffffffff1681526020018581525060096000820151816000015560208201518160010160006101000a81548173ffffffffffffffffffffffffffffffffffffffff021916908373ffffffffffffffffffffffffffffffffffffffff1602179055506040820151816002015560608201518160030160006101000a81548173ffffffffffffffffffffffffffffffffffffffff021916908373ffffffffffffffffffffffffffffffffffffffff160217905550608082015181600401559050508a9950505050505050505050919050565b600033905090565b600073ffffffffffffffffffffffffffffffffffffffff168373ffffffffffffffffffffffffffffffffffffffff1614156125f3576040517f08c379a000000000000000000000000000000000000000000000000000000000815260040180806020018281038252602481526020018061458c6024913960400191505060405180910390fd5b600073ffffffffffffffffffffffffffffffffffffffff168273ffffffffffffffffffffffffffffffffffffffff161415612679576040517f08c379a00000000000000000000000000000000000000000000000000000000081526004018080602001828103825260228152602001806144b56022913960400191505060405180910390fd5b80600460008573ffffffffffffffffffffffffffffffffffffffff1673ffffffffffffffffffffffffffffffffffffffff16815260200190815260200160002060008473ffffffffffffffffffffffffffffffffffffffff1673ffffffffffffffffffffffffffffffffffffffff168152602001908152602001600020819055508173ffffffffffffffffffffffffffffffffffffffff168373ffffffffffffffffffffffffffffffffffffffff167f8c5be1e5ebec7d5bd14f71427d1e84f3dd0314c0f7b2291e5b200ac8c7c3b925836040518082815260200191505060405180910390a3505050565b60008083141561277757600090506127e4565b600082840290508284828161278857fe5b04146127df576040517f08c379a00000000000000000000000000000000000000000000000000000000081526004018080602001828103825260218152602001806144fd6021913960400191505060405180910390fd5b809150505b92915050565b600061282c83836040518060400160405280601a81526020017f536166654d6174683a206469766973696f6e206279207a65726f000000000000815250614014565b905092915050565b6000808314156128f35782841182906128e8576040517f08c379a00000000000000000000000000000000000000000000000000000000081526004018080602001828103825283818151815260200191508051906020019080838360005b838110156128ad578082015181840152602081019050612892565b50505050905090810190601f1680156128da5780820380516001836020036101000a031916815260200191505b509250505060405180910390fd5b5082841190506129a6565b82841015829061299e576040517f08c379a00000000000000000000000000000000000000000000000000000000081526004018080602001828103825283818151815260200191508051906020019080838360005b83811015612963578082015181840152602081019050612948565b50505050905090810190601f1680156129905780820380516001836020036101000a031916815260200191505b509250505060405180910390fd5b508284101590505b9392505050565b600073ffffffffffffffffffffffffffffffffffffffff168273ffffffffffffffffffffffffffffffffffffffff161415612a33576040517f08c379a00000000000000000000000000000000000000000000000000000000081526004018080602001828103825260218152602001806145466021913960400191505060405180910390fd5b612a3f826000836140da565b612aab8160405180606001604052806022815260200161449360229139600360008673ffffffffffffffffffffffffffffffffffffffff1673ffffffffffffffffffffffffffffffffffffffff16815260200190815260200160002054612f1f9092919063ffffffff16565b600360008473ffffffffffffffffffffffffffffffffffffffff1673ffffffffffffffffffffffffffffffffffffffff16815260200190815260200160002081905550612b03816005546140df90919063ffffffff16565b600581905550600073ffffffffffffffffffffffffffffffffffffffff168273ffffffffffffffffffffffffffffffffffffffff167fddf252ad1be2c89b69c2b068fc378daa952ba7f163c4a11628f55a4df523b3ef836040518082815260200191505060405180910390a35050565b6000808373ffffffffffffffffffffffffffffffffffffffff168360405180600001905060006040518083038185875af1925050503d8060008114612bd4576040519150601f19603f3d011682016040523d82523d6000602084013e612bd9565b606091505b5050905080612c50576040517f08c379a000000000000000000000000000000000000000000000000000000000815260040180806020018281038252600f8152602001807f53656e64206574686572206661696c000000000000000000000000000000000081525060200191505060405180910390fd5b8091505092915050565b600073ffffffffffffffffffffffffffffffffffffffff168373ffffffffffffffffffffffffffffffffffffffff161415612ce0576040517f08c379a00000000000000000000000000000000000000000000000000000000081526004018080602001828103825260258152602001806145676025913960400191505060405180910390fd5b600073ffffffffffffffffffffffffffffffffffffffff168273ffffffffffffffffffffffffffffffffffffffff161415612d66576040517f08c379a00000000000000000000000000000000000000000000000000000000081526004018080602001828103825260238152602001806144706023913960400191505060405180910390fd5b612d718383836140da565b612ddd816040518060600160405280602681526020016144d760269139600360008773ffffffffffffffffffffffffffffffffffffffff1673ffffffffffffffffffffffffffffffffffffffff16815260200190815260200160002054612f1f9092919063ffffffff16565b600360008573ffffffffffffffffffffffffffffffffffffffff1673ffffffffffffffffffffffffffffffffffffffff16815260200190815260200160002081905550612e7281600360008573ffffffffffffffffffffffffffffffffffffffff1673ffffffffffffffffffffffffffffffffffffffff16815260200190815260200160002054613b2190919063ffffffff16565b600360008473ffffffffffffffffffffffffffffffffffffffff1673ffffffffffffffffffffffffffffffffffffffff168152602001908152602001600020819055508173ffffffffffffffffffffffffffffffffffffffff168373ffffffffffffffffffffffffffffffffffffffff167fddf252ad1be2c89b69c2b068fc378daa952ba7f163c4a11628f55a4df523b3ef836040518082815260200191505060405180910390a3505050565b6000838311158290612fcc576040517f08c379a00000000000000000000000000000000000000000000000000000000081526004018080602001828103825283818151815260200191508051906020019080838360005b83811015612f91578082015181840152602081019050612f76565b50505050905090810190601f168015612fbe5780820380516001836020036101000a031916815260200191505b509250505060405180910390fd5b5060008385039050809150509392505050565b6000612fe9611e0d565b1561310657600034118015612ffd57508334145b61306f576040517f08c379a00000000000000000000000000000000000000000000000000000000081526004018080602001828103825260088152602001807f4552525f5a45524f00000000000000000000000000000000000000000000000081525060200191505060405180910390fd5b6000613088856009600201546009600001548787614129565b9050806130fd576040517f08c379a00000000000000000000000000000000000000000000000000000000081526004018080602001828103825260108152602001807f4552525f4d494e545f4f5054494f4e530000000000000000000000000000000081525060200191505060405180910390fd5b809150506133c9565b6000600960010160009054906101000a900473ffffffffffffffffffffffffffffffffffffffff1690506132278173ffffffffffffffffffffffffffffffffffffffff166370a08231856040518263ffffffff1660e01b8152600401808273ffffffffffffffffffffffffffffffffffffffff1673ffffffffffffffffffffffffffffffffffffffff16815260200191505060206040518083038186803b1580156131b057600080fd5b505afa1580156131c4573d6000803e3d6000fd5b505050506040513d60208110156131da57600080fd5b8101908080519060200190929190505050866040518060400160405280601281526020017f4552525f42414c5f554e4445524c59494e470000000000000000000000000000815250612834565b506000613241866009600001546009600201548888614129565b905060008273ffffffffffffffffffffffffffffffffffffffff166323b872dd86308a6040518463ffffffff1660e01b8152600401808473ffffffffffffffffffffffffffffffffffffffff1673ffffffffffffffffffffffffffffffffffffffff1681526020018373ffffffffffffffffffffffffffffffffffffffff1673ffffffffffffffffffffffffffffffffffffffff1681526020018281526020019350505050602060405180830381600087803b15801561330057600080fd5b505af1158015613314573d6000803e3d6000fd5b505050506040513d602081101561332a57600080fd5b810190808051906020019092919050505090508180156133475750805b6133b9576040517f08c379a00000000000000000000000000000000000000000000000000000000081526004018080602001828103825260108152602001807f4552525f4d494e545f4f5054494f4e530000000000000000000000000000000081525060200191505060405180910390fd5b8180156133c35750805b93505050505b9392505050565b600080600f60009054906101000a900473ffffffffffffffffffffffffffffffffffffffff1673ffffffffffffffffffffffffffffffffffffffff166370a08231846040518263ffffffff1660e01b8152600401808273ffffffffffffffffffffffffffffffffffffffff1673ffffffffffffffffffffffffffffffffffffffff16815260200191505060206040518083038186803b15801561347257600080fd5b505afa158015613486573d6000803e3d6000fd5b505050506040513d602081101561349c57600080fd5b8101908080519060200190929190505050905060008490506134bc6116b4565b1561372f57600f60009054906101000a900473ffffffffffffffffffffffffffffffffffffffff1673ffffffffffffffffffffffffffffffffffffffff1663aede97576040518163ffffffff1660e01b815260040160206040518083038186803b15801561352957600080fd5b505afa15801561353d573d6000803e3d6000fd5b505050506040513d602081101561355357600080fd5b81019080805190602001909291905050501561359e5761359b670de0b6b3a764000061358d6009600001548861276490919063ffffffff16565b6127ea90919063ffffffff16565b90505b6135de82826040518060400160405280600d81526020017f4552525f42414c5f5250554c5000000000000000000000000000000000000000815250612834565b506136363073ffffffffffffffffffffffffffffffffffffffff1631866040518060400160405280600e81526020017f4552525f42414c5f535452494b45000000000000000000000000000000000000815250612834565b50600f60009054906101000a900473ffffffffffffffffffffffffffffffffffffffff1673ffffffffffffffffffffffffffffffffffffffff16639dc29fac85836040518363ffffffff1660e01b8152600401808373ffffffffffffffffffffffffffffffffffffffff1673ffffffffffffffffffffffffffffffffffffffff16815260200182815260200192505050602060405180830381600087803b1580156136e057600080fd5b505af11580156136f4573d6000803e3d6000fd5b505050506040513d602081101561370a57600080fd5b8101908080519060200190929190505050506137268486612b73565b92505050613b1b565b600f60009054906101000a900473ffffffffffffffffffffffffffffffffffffffff1673ffffffffffffffffffffffffffffffffffffffff1663aede97576040518163ffffffff1660e01b815260040160206040518083038186803b15801561379757600080fd5b505afa1580156137ab573d6000803e3d6000fd5b505050506040513d60208110156137c157600080fd5b810190808051906020019092919050505061380b576138086009600201546137fa670de0b6b3a76400008861276490919063ffffffff16565b6127ea90919063ffffffff16565b90505b6000600960030160009054906101000a900473ffffffffffffffffffffffffffffffffffffffff16905061387583836040518060400160405280600d81526020017f4552525f42414c5f5250554c5000000000000000000000000000000000000000815250612834565b5061396d8173ffffffffffffffffffffffffffffffffffffffff166370a08231306040518263ffffffff1660e01b8152600401808273ffffffffffffffffffffffffffffffffffffffff1673ffffffffffffffffffffffffffffffffffffffff16815260200191505060206040518083038186803b1580156138f657600080fd5b505afa15801561390a573d6000803e3d6000fd5b505050506040513d602081101561392057600080fd5b8101908080519060200190929190505050876040518060400160405280600e81526020017f4552525f42414c5f535452494b45000000000000000000000000000000000000815250612834565b50600f60009054906101000a900473ffffffffffffffffffffffffffffffffffffffff1673ffffffffffffffffffffffffffffffffffffffff16639dc29fac86846040518363ffffffff1660e01b8152600401808373ffffffffffffffffffffffffffffffffffffffff1673ffffffffffffffffffffffffffffffffffffffff16815260200182815260200192505050602060405180830381600087803b158015613a1757600080fd5b505af1158015613a2b573d6000803e3d6000fd5b505050506040513d6020811015613a4157600080fd5b8101908080519060200190929190505050508073ffffffffffffffffffffffffffffffffffffffff1663a9059cbb86886040518363ffffffff1660e01b8152600401808373ffffffffffffffffffffffffffffffffffffffff1673ffffffffffffffffffffffffffffffffffffffff16815260200182815260200192505050602060405180830381600087803b158015613ada57600080fd5b505af1158015613aee573d6000803e3d6000fd5b505050506040513d6020811015613b0457600080fd5b810190808051906020019092919050505093505050505b92915050565b600080828401905083811015613b9f576040517f08c379a000000000000000000000000000000000000000000000000000000000815260040180806020018281038252601b8152602001807f536166654d6174683a206164646974696f6e206f766572666c6f77000000000081525060200191505060405180910390fd5b8091505092915050565b600081613bb533611b1e565b1015613c29576040517f08c379a000000000000000000000000000000000000000000000000000000000815260040180806020018281038252600d8152602001807f4552525f42414c5f4f50554c500000000000000000000000000000000000000081525060200191505060405180910390fd5b6000613c5a600960000154613c4c6009600201548661276490919063ffffffff16565b6127ea90919063ffffffff16565b9050613c646116b4565b15613ddd57613ca934826040518060400160405280601281526020017f4552525f42414c5f554e4445524c59494e470000000000000000000000000000815250612834565b50613cb433846129ad565b6000600960010160009054906101000a900473ffffffffffffffffffffffffffffffffffffffff1690508073ffffffffffffffffffffffffffffffffffffffff166323b872dd3033856040518463ffffffff1660e01b8152600401808473ffffffffffffffffffffffffffffffffffffffff1673ffffffffffffffffffffffffffffffffffffffff1681526020018373ffffffffffffffffffffffffffffffffffffffff1673ffffffffffffffffffffffffffffffffffffffff1681526020018281526020019350505050602060405180830381600087803b158015613d9957600080fd5b505af1158015613dad573d6000803e3d6000fd5b505050506040513d6020811015613dc357600080fd5b81019080805190602001909291905050509250505061400f565b6000600960030160009054906101000a900473ffffffffffffffffffffffffffffffffffffffff169050613efe8173ffffffffffffffffffffffffffffffffffffffff166370a08231336040518263ffffffff1660e01b8152600401808273ffffffffffffffffffffffffffffffffffffffff1673ffffffffffffffffffffffffffffffffffffffff16815260200191505060206040518083038186803b158015613e8757600080fd5b505afa158015613e9b573d6000803e3d6000fd5b505050506040513d6020811015613eb157600080fd5b8101908080519060200190929190505050836040518060400160405280600e81526020017f4552525f42414c5f535452494b45000000000000000000000000000000000000815250612834565b50613f0933856129ad565b8073ffffffffffffffffffffffffffffffffffffffff166323b872dd3330856040518463ffffffff1660e01b8152600401808473ffffffffffffffffffffffffffffffffffffffff1673ffffffffffffffffffffffffffffffffffffffff1681526020018373ffffffffffffffffffffffffffffffffffffffff1673ffffffffffffffffffffffffffffffffffffffff1681526020018281526020019350505050602060405180830381600087803b158015613fc457600080fd5b505af1158015613fd8573d6000803e3d6000fd5b505050506040513d6020811015613fee57600080fd5b81019080805190602001909291905050505061400a3385612b73565b925050505b919050565b600080831182906140c0576040517f08c379a00000000000000000000000000000000000000000000000000000000081526004018080602001828103825283818151815260200191508051906020019080838360005b8381101561408557808201518184015260208101905061406a565b50505050905090810190601f1680156140b25780820380516001836020036101000a031916815260200191505b509250505060405180910390fd5b5060008385816140cc57fe5b049050809150509392505050565b505050565b600061412183836040518060400160405280601e81526020017f536166654d6174683a207375627472616374696f6e206f766572666c6f770000815250612f1f565b905092915050565b60008061415185614143888a61276490919063ffffffff16565b6127ea90919063ffffffff16565b9050600f60009054906101000a900473ffffffffffffffffffffffffffffffffffffffff1673ffffffffffffffffffffffffffffffffffffffff166340c10f1984836040518363ffffffff1660e01b8152600401808373ffffffffffffffffffffffffffffffffffffffff1673ffffffffffffffffffffffffffffffffffffffff16815260200182815260200192505050602060405180830381600087803b1580156141fc57600080fd5b505af1158015614210573d6000803e3d6000fd5b505050506040513d602081101561422657600080fd5b81019080805190602001909291905050505061424284886142a6565b3373ffffffffffffffffffffffffffffffffffffffff167f90890809c654f11d6e72a28fa60149770a0d11ec6c92319d6ceb2bb0a4ea1a158883604051808381526020018281526020019250505060405180910390a2600191505095945050505050565b600073ffffffffffffffffffffffffffffffffffffffff168273ffffffffffffffffffffffffffffffffffffffff161415614349576040517f08c379a000000000000000000000000000000000000000000000000000000000815260040180806020018281038252601f8152602001807f45524332303a206d696e7420746f20746865207a65726f20616464726573730081525060200191505060405180910390fd5b614355600083836140da565b61436a81600554613b2190919063ffffffff16565b6005819055506143c281600360008573ffffffffffffffffffffffffffffffffffffffff1673ffffffffffffffffffffffffffffffffffffffff16815260200190815260200160002054613b2190919063ffffffff16565b600360008473ffffffffffffffffffffffffffffffffffffffff1673ffffffffffffffffffffffffffffffffffffffff168152602001908152602001600020819055508173ffffffffffffffffffffffffffffffffffffffff16600073ffffffffffffffffffffffffffffffffffffffff167fddf252ad1be2c89b69c2b068fc378daa952ba7f163c4a11628f55a4df523b3ef836040518082815260200191505060405180910390a3505056fe45524332303a207472616e7366657220746f20746865207a65726f206164647265737345524332303a206275726e20616d6f756e7420657863656564732062616c616e636545524332303a20617070726f766520746f20746865207a65726f206164647265737345524332303a207472616e7366657220616d6f756e7420657863656564732062616c616e6365536166654d6174683a206d756c7469706c69636174696f6e206f766572666c6f7745524332303a207472616e7366657220616d6f756e74206578636565647320616c6c6f77616e636545524332303a206275726e2066726f6d20746865207a65726f206164647265737345524332303a207472616e736665722066726f6d20746865207a65726f206164647265737345524332303a20617070726f76652066726f6d20746865207a65726f206164647265737345524332303a2064656372656173656420616c6c6f77616e63652062656c6f77207a65726fa264697066735822122099f1083edbf662660777a8b3dd1d8971e8f1ac80a1f82185e162018cae1806f064736f6c634300060200334f776e61626c653a206e6577206f776e657220697320746865207a65726f2061646472657373a2646970667358221220990e08382aa1eec74df0b484f701c1be0b403f49fc2665fd36fe4dfd44ce019c64736f6c634300060200334f776e61626c653a206e6577206f776e657220697320746865207a65726f2061646472657373",
  "source": "pragma solidity ^0.6.2;\r\n\r\n/**\r\n * @title Primitive's Market Creator Contract\r\n * @author Primitive\r\n */\r\n\r\nimport '../PrimeOption.sol';\r\nimport { IControllerMarket } from './ControllerInterface.sol';\r\nimport '@openzeppelin/contracts/ownership/Ownable.sol';\r\nimport '@openzeppelin/contracts/token/ERC721/ERC721Holder.sol';\r\n\r\ncontract ControllerOption is Ownable, ERC721Holder {\r\n    using SafeMath for uint256;\r\n\r\n    mapping(uint256 => address) public _primeMarkets;\r\n    uint256 public _nonce;\r\n    IPrime public _prime;\r\n    IControllerMarket public market;\r\n\r\n    constructor(\r\n        address controller,\r\n        address primeAddress\r\n    ) public {\r\n        transferOwnership(controller);\r\n        _prime = IPrime(primeAddress);\r\n        market = IControllerMarket(controller);\r\n    }\r\n\r\n    /**\r\n     * @dev Creates a New Eth Option Market including oPulp, cPulp or pPulp, ePulp\r\n     * @param qEth quantity of ether as underlying or strike asset\r\n     * @param qToken quantity of ERC-20 token as underlying or strike asset\r\n     * @param aToken ERC-20 contract of the token\r\n     * @param tExpiry expiration date of the option\r\n     * @param isCall bool to clarify if the option is a call or a put\r\n     * @param name Full option name in the format Underlying Asset + Expiry + Strike Price + Strike Asset\r\n     * @return _nonce the nonce of the market\r\n     */\r\n    function addEthOption(\r\n        uint256 qEth,\r\n        uint256 qToken,\r\n        IERC20 aToken,\r\n        uint256 tExpiry,\r\n        bool isCall,\r\n        string memory name\r\n    ) \r\n        public\r\n        payable\r\n        onlyOwner\r\n        returns (address payable)\r\n    {\r\n        PrimeOption primeOption = deployPrimeOption(name);\r\n        uint256 tokenId;\r\n        address redeem;\r\n\r\n        // if its a call the underlying q will be 1 and the address will be the erc-20 oPulp\r\n        // else its a put, the underlying q+a is the strike q+a and \r\n        // the strike q is 1 ether and strike address is erc-20 oPulp\r\n        // e.g. 1 ETH / 150 DAI Call vs. 150 DAI / 1 ETH Put\r\n        if(isCall) {\r\n            tokenId = _prime.createPrime(\r\n                qEth,\r\n                address(primeOption),\r\n                qToken,\r\n                address(aToken),\r\n                tExpiry,\r\n                address(this)\r\n            );\r\n            redeem = market._crRedeem();\r\n        } else {\r\n            tokenId = _prime.createPrime(\r\n                qToken,\r\n                address(aToken),\r\n                qEth,\r\n                address(primeOption),\r\n                tExpiry,\r\n                address(this)\r\n            );\r\n            redeem = market._prRedeem();\r\n        }\r\n        \r\n        primeOption.setParentToken(tokenId);\r\n        primeOption.setRPulp(redeem);\r\n        return address(primeOption);\r\n    }\r\n\r\n    /**\r\n     * @dev Creates a New Eth Option Market including oPulp, cPulp or pPulp, ePulp\r\n     * @param name Full option name in the format Underlying Asset + Expiry + Strike Price + Strike Asset\r\n     * @return _nonce the nonce of the market\r\n     */\r\n    /* function addTokenOption(\r\n        uint256 qUnderlying,\r\n        IERC20 aUnderlying,\r\n        uint256 qStrike,\r\n        IERC20 aStrike,\r\n        uint256 tExpiry,\r\n        string memory name\r\n    ) \r\n        public\r\n        onlyOwner\r\n        returns (address)\r\n    {\r\n        PrimeOption primeOption = deployPrimeOption(name);\r\n\r\n        uint256 tokenId = _prime.createPrime(\r\n            qUnderlying,\r\n            address(aUnderlying),\r\n            qStrike,\r\n            address(aStrike),\r\n            tExpiry,\r\n            address(this)\r\n        );\r\n        \r\n        primeOption.setParentToken(tokenId);\r\n        return address(primeOption);\r\n    } */\r\n\r\n\r\n    function deployPrimeOption(string memory name) internal returns (PrimeOption) {\r\n        _nonce = _nonce.add(1);\r\n        PrimeOption primeOption = new PrimeOption(\r\n            name,\r\n            address(_prime)\r\n        );\r\n        _primeMarkets[_nonce] = address(primeOption);\r\n        return primeOption;\r\n    }\r\n\r\n    function setExchange(address exchange, address payable primeOption) public onlyOwner returns (bool) {\r\n        PrimeOption option = PrimeOption(primeOption);\r\n        return option.setPool(exchange);\r\n    }\r\n}\r\n\r\n",
  "sourcePath": "C:\\Users\\alexa\\OneDrive\\Documents\\Master\\Blockchain\\Projects\\carbon\\contracts\\controller\\ControllerOption.sol",
  "compiler": {
    "name": "solc",
    "version": "0.6.2+commit.bacdbe57.Emscripten.clang"
  },
  "schemaVersion": "3.0.23",
  "updatedAt": "2020-04-14T21:59:31.450Z",
  "networkType": "ethereum",
  "devdoc": {
    "methods": {
      "addEthOption(uint256,uint256,address,uint256,bool,string)": {
        "details": "Creates a New Eth Option Market including oPulp, cPulp or pPulp, ePulp",
        "params": {
          "aToken": "ERC-20 contract of the token",
          "isCall": "bool to clarify if the option is a call or a put",
          "name": "Full option name in the format Underlying Asset + Expiry + Strike Price + Strike Asset",
          "qEth": "quantity of ether as underlying or strike asset",
          "qToken": "quantity of ERC-20 token as underlying or strike asset",
          "tExpiry": "expiration date of the option"
        },
        "returns": {
          "_0": "_nonce the nonce of the market"
        }
      },
      "isOwner()": {
        "details": "Returns true if the caller is the current owner."
      },
      "owner()": {
        "details": "Returns the address of the current owner."
      },
      "renounceOwnership()": {
        "details": "Leaves the contract without owner. It will not be possible to call `onlyOwner` functions anymore. Can only be called by the current owner.     * NOTE: Renouncing ownership will leave the contract without an owner, thereby removing any functionality that is only available to the owner."
      },
      "transferOwnership(address)": {
        "details": "Transfers ownership of the contract to a new account (`newOwner`). Can only be called by the current owner."
      }
    }
  },
  "userdoc": {
    "methods": {}
  }
}