{
  "contractName": "ERC721Metadata",
  "abi": [
    {
      "inputs": [
        {
          "internalType": "string",
          "name": "name",
          "type": "string"
        },
        {
          "internalType": "string",
          "name": "symbol",
          "type": "string"
        }
      ],
      "stateMutability": "nonpayable",
      "type": "constructor"
    },
    {
      "anonymous": false,
      "inputs": [
        {
          "indexed": true,
          "internalType": "address",
          "name": "owner",
          "type": "address"
        },
        {
          "indexed": true,
          "internalType": "address",
          "name": "approved",
          "type": "address"
        },
        {
          "indexed": true,
          "internalType": "uint256",
          "name": "tokenId",
          "type": "uint256"
        }
      ],
      "name": "Approval",
      "type": "event"
    },
    {
      "anonymous": false,
      "inputs": [
        {
          "indexed": true,
          "internalType": "address",
          "name": "owner",
          "type": "address"
        },
        {
          "indexed": true,
          "internalType": "address",
          "name": "operator",
          "type": "address"
        },
        {
          "indexed": false,
          "internalType": "bool",
          "name": "approved",
          "type": "bool"
        }
      ],
      "name": "ApprovalForAll",
      "type": "event"
    },
    {
      "anonymous": false,
      "inputs": [
        {
          "indexed": true,
          "internalType": "address",
          "name": "from",
          "type": "address"
        },
        {
          "indexed": true,
          "internalType": "address",
          "name": "to",
          "type": "address"
        },
        {
          "indexed": true,
          "internalType": "uint256",
          "name": "tokenId",
          "type": "uint256"
        }
      ],
      "name": "Transfer",
      "type": "event"
    },
    {
      "inputs": [
        {
          "internalType": "address",
          "name": "to",
          "type": "address"
        },
        {
          "internalType": "uint256",
          "name": "tokenId",
          "type": "uint256"
        }
      ],
      "name": "approve",
      "outputs": [],
      "stateMutability": "nonpayable",
      "type": "function"
    },
    {
      "inputs": [
        {
          "internalType": "address",
          "name": "owner",
          "type": "address"
        }
      ],
      "name": "balanceOf",
      "outputs": [
        {
          "internalType": "uint256",
          "name": "",
          "type": "uint256"
        }
      ],
      "stateMutability": "view",
      "type": "function"
    },
    {
      "inputs": [
        {
          "internalType": "uint256",
          "name": "tokenId",
          "type": "uint256"
        }
      ],
      "name": "getApproved",
      "outputs": [
        {
          "internalType": "address",
          "name": "",
          "type": "address"
        }
      ],
      "stateMutability": "view",
      "type": "function"
    },
    {
      "inputs": [
        {
          "internalType": "address",
          "name": "owner",
          "type": "address"
        },
        {
          "internalType": "address",
          "name": "operator",
          "type": "address"
        }
      ],
      "name": "isApprovedForAll",
      "outputs": [
        {
          "internalType": "bool",
          "name": "",
          "type": "bool"
        }
      ],
      "stateMutability": "view",
      "type": "function"
    },
    {
      "inputs": [
        {
          "internalType": "uint256",
          "name": "tokenId",
          "type": "uint256"
        }
      ],
      "name": "ownerOf",
      "outputs": [
        {
          "internalType": "address",
          "name": "",
          "type": "address"
        }
      ],
      "stateMutability": "view",
      "type": "function"
    },
    {
      "inputs": [
        {
          "internalType": "address",
          "name": "from",
          "type": "address"
        },
        {
          "internalType": "address",
          "name": "to",
          "type": "address"
        },
        {
          "internalType": "uint256",
          "name": "tokenId",
          "type": "uint256"
        }
      ],
      "name": "safeTransferFrom",
      "outputs": [],
      "stateMutability": "nonpayable",
      "type": "function"
    },
    {
      "inputs": [
        {
          "internalType": "address",
          "name": "from",
          "type": "address"
        },
        {
          "internalType": "address",
          "name": "to",
          "type": "address"
        },
        {
          "internalType": "uint256",
          "name": "tokenId",
          "type": "uint256"
        },
        {
          "internalType": "bytes",
          "name": "_data",
          "type": "bytes"
        }
      ],
      "name": "safeTransferFrom",
      "outputs": [],
      "stateMutability": "nonpayable",
      "type": "function"
    },
    {
      "inputs": [
        {
          "internalType": "address",
          "name": "operator",
          "type": "address"
        },
        {
          "internalType": "bool",
          "name": "approved",
          "type": "bool"
        }
      ],
      "name": "setApprovalForAll",
      "outputs": [],
      "stateMutability": "nonpayable",
      "type": "function"
    },
    {
      "inputs": [
        {
          "internalType": "bytes4",
          "name": "interfaceId",
          "type": "bytes4"
        }
      ],
      "name": "supportsInterface",
      "outputs": [
        {
          "internalType": "bool",
          "name": "",
          "type": "bool"
        }
      ],
      "stateMutability": "view",
      "type": "function"
    },
    {
      "inputs": [
        {
          "internalType": "address",
          "name": "from",
          "type": "address"
        },
        {
          "internalType": "address",
          "name": "to",
          "type": "address"
        },
        {
          "internalType": "uint256",
          "name": "tokenId",
          "type": "uint256"
        }
      ],
      "name": "transferFrom",
      "outputs": [],
      "stateMutability": "nonpayable",
      "type": "function"
    },
    {
      "inputs": [],
      "name": "name",
      "outputs": [
        {
          "internalType": "string",
          "name": "",
          "type": "string"
        }
      ],
      "stateMutability": "view",
      "type": "function"
    },
    {
      "inputs": [],
      "name": "symbol",
      "outputs": [
        {
          "internalType": "string",
          "name": "",
          "type": "string"
        }
      ],
      "stateMutability": "view",
      "type": "function"
    },
    {
      "inputs": [
        {
          "internalType": "uint256",
          "name": "tokenId",
          "type": "uint256"
        }
      ],
      "name": "tokenURI",
      "outputs": [
        {
          "internalType": "string",
          "name": "",
          "type": "string"
        }
      ],
      "stateMutability": "view",
      "type": "function"
    },
    {
      "inputs": [],
      "name": "baseURI",
      "outputs": [
        {
          "internalType": "string",
          "name": "",
          "type": "string"
        }
      ],
      "stateMutability": "view",
      "type": "function"
    }
  ],
  "bytecode": "0x60806040523480156200001157600080fd5b50604051620023b7380380620023b7833981810160405260408110156200003757600080fd5b81019080805160405193929190846401000000008211156200005857600080fd5b838201915060208201858111156200006f57600080fd5b82518660018202830111640100000000821117156200008d57600080fd5b8083526020830192505050908051906020019080838360005b83811015620000c3578082015181840152602081019050620000a6565b50505050905090810190601f168015620000f15780820380516001836020036101000a031916815260200191505b50604052602001805160405193929190846401000000008211156200011557600080fd5b838201915060208201858111156200012c57600080fd5b82518660018202830111640100000000821117156200014a57600080fd5b8083526020830192505050908051906020019080838360005b838110156200018057808201518184015260208101905062000163565b50505050905090810190601f168015620001ae5780820380516001836020036101000a031916815260200191505b50604052505050620001cd6301ffc9a760e01b6200023760201b60201c565b620001e56380ac58cd60e01b6200023760201b60201c565b8160059080519060200190620001fd92919062000340565b5080600690805190602001906200021692919062000340565b506200022f635b5e139f60e01b6200023760201b60201c565b5050620003ef565b63ffffffff60e01b817bffffffffffffffffffffffffffffffffffffffffffffffffffffffff19161415620002d4576040517f08c379a000000000000000000000000000000000000000000000000000000000815260040180806020018281038252601c8152602001807f4552433136353a20696e76616c696420696e746572666163652069640000000081525060200191505060405180910390fd5b6001600080837bffffffffffffffffffffffffffffffffffffffffffffffffffffffff19167bffffffffffffffffffffffffffffffffffffffffffffffffffffffff1916815260200190815260200160002060006101000a81548160ff02191690831515021790555050565b828054600181600116156101000203166002900490600052602060002090601f016020900481019282601f106200038357805160ff1916838001178555620003b4565b82800160010185558215620003b4579182015b82811115620003b357825182559160200191906001019062000396565b5b509050620003c39190620003c7565b5090565b620003ec91905b80821115620003e8576000816000905550600101620003ce565b5090565b90565b611fb880620003ff6000396000f3fe608060405234801561001057600080fd5b50600436106100ea5760003560e01c80636c0360eb1161008c578063a22cb46511610066578063a22cb4651461053b578063b88d4fde1461058b578063c87b56dd14610690578063e985e9c514610737576100ea565b80636c0360eb146103dd57806370a082311461046057806395d89b41146104b8576100ea565b8063095ea7b3116100c8578063095ea7b31461024557806323b872dd1461029357806342842e0e146103015780636352211e1461036f576100ea565b806301ffc9a7146100ef57806306fdde0314610154578063081812fc146101d7575b600080fd5b61013a6004803603602081101561010557600080fd5b8101908080357bffffffffffffffffffffffffffffffffffffffffffffffffffffffff191690602001909291905050506107b3565b604051808215151515815260200191505060405180910390f35b61015c61081a565b6040518080602001828103825283818151815260200191508051906020019080838360005b8381101561019c578082015181840152602081019050610181565b50505050905090810190601f1680156101c95780820380516001836020036101000a031916815260200191505b509250505060405180910390f35b610203600480360360208110156101ed57600080fd5b81019080803590602001909291905050506108bc565b604051808273ffffffffffffffffffffffffffffffffffffffff1673ffffffffffffffffffffffffffffffffffffffff16815260200191505060405180910390f35b6102916004803603604081101561025b57600080fd5b81019080803573ffffffffffffffffffffffffffffffffffffffff16906020019092919080359060200190929190505050610957565b005b6102ff600480360360608110156102a957600080fd5b81019080803573ffffffffffffffffffffffffffffffffffffffff169060200190929190803573ffffffffffffffffffffffffffffffffffffffff16906020019092919080359060200190929190505050610a9b565b005b61036d6004803603606081101561031757600080fd5b81019080803573ffffffffffffffffffffffffffffffffffffffff169060200190929190803573ffffffffffffffffffffffffffffffffffffffff16906020019092919080359060200190929190505050610b11565b005b61039b6004803603602081101561038557600080fd5b8101908080359060200190929190505050610b31565b604051808273ffffffffffffffffffffffffffffffffffffffff1673ffffffffffffffffffffffffffffffffffffffff16815260200191505060405180910390f35b6103e5610bf9565b6040518080602001828103825283818151815260200191508051906020019080838360005b8381101561042557808201518184015260208101905061040a565b50505050905090810190601f1680156104525780820380516001836020036101000a031916815260200191505b509250505060405180910390f35b6104a26004803603602081101561047657600080fd5b81019080803573ffffffffffffffffffffffffffffffffffffffff169060200190929190505050610c9b565b6040518082815260200191505060405180910390f35b6104c0610d70565b6040518080602001828103825283818151815260200191508051906020019080838360005b838110156105005780820151818401526020810190506104e5565b50505050905090810190601f16801561052d5780820380516001836020036101000a031916815260200191505b509250505060405180910390f35b6105896004803603604081101561055157600080fd5b81019080803573ffffffffffffffffffffffffffffffffffffffff169060200190929190803515159060200190929190505050610e12565b005b61068e600480360360808110156105a157600080fd5b81019080803573ffffffffffffffffffffffffffffffffffffffff169060200190929190803573ffffffffffffffffffffffffffffffffffffffff169060200190929190803590602001909291908035906020019064010000000081111561060857600080fd5b82018360208201111561061a57600080fd5b8035906020019184600183028401116401000000008311171561063c57600080fd5b91908080601f016020809104026020016040519081016040528093929190818152602001838380828437600081840152601f19601f820116905080830192505050505050509192919290505050610fca565b005b6106bc600480360360208110156106a657600080fd5b8101908080359060200190929190505050611042565b6040518080602001828103825283818151815260200191508051906020019080838360005b838110156106fc5780820151818401526020810190506106e1565b50505050905090810190601f1680156107295780820380516001836020036101000a031916815260200191505b509250505060405180910390f35b6107996004803603604081101561074d57600080fd5b81019080803573ffffffffffffffffffffffffffffffffffffffff169060200190929190803573ffffffffffffffffffffffffffffffffffffffff169060200190929190505050611244565b604051808215151515815260200191505060405180910390f35b6000806000837bffffffffffffffffffffffffffffffffffffffffffffffffffffffff19167bffffffffffffffffffffffffffffffffffffffffffffffffffffffff1916815260200190815260200160002060009054906101000a900460ff169050919050565b606060058054600181600116156101000203166002900480601f0160208091040260200160405190810160405280929190818152602001828054600181600116156101000203166002900480156108b25780601f10610887576101008083540402835291602001916108b2565b820191906000526020600020905b81548152906001019060200180831161089557829003601f168201915b5050505050905090565b60006108c7826112d8565b61091c576040517f08c379a000000000000000000000000000000000000000000000000000000000815260040180806020018281038252602c815260200180611ead602c913960400191505060405180910390fd5b6002600083815260200190815260200160002060009054906101000a900473ffffffffffffffffffffffffffffffffffffffff169050919050565b600061096282610b31565b90508073ffffffffffffffffffffffffffffffffffffffff168373ffffffffffffffffffffffffffffffffffffffff1614156109e9576040517f08c379a0000000000000000000000000000000000000000000000000000000008152600401808060200182810382526021815260200180611f316021913960400191505060405180910390fd5b8073ffffffffffffffffffffffffffffffffffffffff16610a0861134a565b73ffffffffffffffffffffffffffffffffffffffff161480610a375750610a3681610a3161134a565b611244565b5b610a8c576040517f08c379a0000000000000000000000000000000000000000000000000000000008152600401808060200182810382526038815260200180611e226038913960400191505060405180910390fd5b610a968383611352565b505050565b610aac610aa661134a565b8261140b565b610b01576040517f08c379a0000000000000000000000000000000000000000000000000000000008152600401808060200182810382526031815260200180611f526031913960400191505060405180910390fd5b610b0c8383836114ff565b505050565b610b2c83838360405180602001604052806000815250610fca565b505050565b6000806001600084815260200190815260200160002060009054906101000a900473ffffffffffffffffffffffffffffffffffffffff169050600073ffffffffffffffffffffffffffffffffffffffff168173ffffffffffffffffffffffffffffffffffffffff161415610bf0576040517f08c379a0000000000000000000000000000000000000000000000000000000008152600401808060200182810382526029815260200180611e846029913960400191505060405180910390fd5b80915050919050565b606060088054600181600116156101000203166002900480601f016020809104026020016040519081016040528092919081815260200182805460018160011615610100020316600290048015610c915780601f10610c6657610100808354040283529160200191610c91565b820191906000526020600020905b815481529060010190602001808311610c7457829003601f168201915b5050505050905090565b60008073ffffffffffffffffffffffffffffffffffffffff168273ffffffffffffffffffffffffffffffffffffffff161415610d22576040517f08c379a000000000000000000000000000000000000000000000000000000000815260040180806020018281038252602a815260200180611e5a602a913960400191505060405180910390fd5b610d69600360008473ffffffffffffffffffffffffffffffffffffffff1673ffffffffffffffffffffffffffffffffffffffff168152602001908152602001600020611767565b9050919050565b606060068054600181600116156101000203166002900480601f016020809104026020016040519081016040528092919081815260200182805460018160011615610100020316600290048015610e085780601f10610ddd57610100808354040283529160200191610e08565b820191906000526020600020905b815481529060010190602001808311610deb57829003601f168201915b5050505050905090565b610e1a61134a565b73ffffffffffffffffffffffffffffffffffffffff168273ffffffffffffffffffffffffffffffffffffffff161415610ebb576040517f08c379a00000000000000000000000000000000000000000000000000000000081526004018080602001828103825260198152602001807f4552433732313a20617070726f766520746f2063616c6c65720000000000000081525060200191505060405180910390fd5b8060046000610ec861134a565b73ffffffffffffffffffffffffffffffffffffffff1673ffffffffffffffffffffffffffffffffffffffff16815260200190815260200160002060008473ffffffffffffffffffffffffffffffffffffffff1673ffffffffffffffffffffffffffffffffffffffff16815260200190815260200160002060006101000a81548160ff0219169083151502179055508173ffffffffffffffffffffffffffffffffffffffff16610f7561134a565b73ffffffffffffffffffffffffffffffffffffffff167f17307eab39ab6107e8899845ad3d59bd9653f200f220920489ca2b5937696c3183604051808215151515815260200191505060405180910390a35050565b610fdb610fd561134a565b8361140b565b611030576040517f08c379a0000000000000000000000000000000000000000000000000000000008152600401808060200182810382526031815260200180611f526031913960400191505060405180910390fd5b61103c84848484611775565b50505050565b606061104d826112d8565b6110a2576040517f08c379a000000000000000000000000000000000000000000000000000000000815260040180806020018281038252602f815260200180611f02602f913960400191505060405180910390fd5b6060600760008481526020019081526020016000208054600181600116156101000203166002900480601f01602080910402602001604051908101604052809291908181526020018280546001816001161561010002031660029004801561114b5780601f106111205761010080835404028352916020019161114b565b820191906000526020600020905b81548152906001019060200180831161112e57829003601f168201915b50505050509050600081511415611174576040518060200160405280600081525091505061123f565b60088160405160200180838054600181600116156101000203166002900480156111d55780601f106111b35761010080835404028352918201916111d5565b820191906000526020600020905b8154815290600101906020018083116111c1575b505082805190602001908083835b6020831061120657805182526020820191506020810190506020830392506111e3565b6001836020036101000a038019825116818451168082178552505050505050905001925050506040516020818303038152906040529150505b919050565b6000600460008473ffffffffffffffffffffffffffffffffffffffff1673ffffffffffffffffffffffffffffffffffffffff16815260200190815260200160002060008373ffffffffffffffffffffffffffffffffffffffff1673ffffffffffffffffffffffffffffffffffffffff16815260200190815260200160002060009054906101000a900460ff16905092915050565b6000806001600084815260200190815260200160002060009054906101000a900473ffffffffffffffffffffffffffffffffffffffff169050600073ffffffffffffffffffffffffffffffffffffffff168173ffffffffffffffffffffffffffffffffffffffff161415915050919050565b600033905090565b816002600083815260200190815260200160002060006101000a81548173ffffffffffffffffffffffffffffffffffffffff021916908373ffffffffffffffffffffffffffffffffffffffff160217905550808273ffffffffffffffffffffffffffffffffffffffff166113c583610b31565b73ffffffffffffffffffffffffffffffffffffffff167f8c5be1e5ebec7d5bd14f71427d1e84f3dd0314c0f7b2291e5b200ac8c7c3b92560405160405180910390a45050565b6000611416826112d8565b61146b576040517f08c379a000000000000000000000000000000000000000000000000000000000815260040180806020018281038252602c815260200180611df6602c913960400191505060405180910390fd5b600061147683610b31565b90508073ffffffffffffffffffffffffffffffffffffffff168473ffffffffffffffffffffffffffffffffffffffff1614806114e557508373ffffffffffffffffffffffffffffffffffffffff166114cd846108bc565b73ffffffffffffffffffffffffffffffffffffffff16145b806114f657506114f58185611244565b5b91505092915050565b8273ffffffffffffffffffffffffffffffffffffffff1661151f82610b31565b73ffffffffffffffffffffffffffffffffffffffff161461158b576040517f08c379a0000000000000000000000000000000000000000000000000000000008152600401808060200182810382526029815260200180611ed96029913960400191505060405180910390fd5b600073ffffffffffffffffffffffffffffffffffffffff168273ffffffffffffffffffffffffffffffffffffffff161415611611576040517f08c379a0000000000000000000000000000000000000000000000000000000008152600401808060200182810382526024815260200180611dd26024913960400191505060405180910390fd5b61161c8383836117e7565b611627600082611352565b61166e600360008573ffffffffffffffffffffffffffffffffffffffff1673ffffffffffffffffffffffffffffffffffffffff16815260200190815260200160002061187c565b6116b5600360008473ffffffffffffffffffffffffffffffffffffffff1673ffffffffffffffffffffffffffffffffffffffff16815260200190815260200160002061189f565b816001600083815260200190815260200160002060006101000a81548173ffffffffffffffffffffffffffffffffffffffff021916908373ffffffffffffffffffffffffffffffffffffffff160217905550808273ffffffffffffffffffffffffffffffffffffffff168473ffffffffffffffffffffffffffffffffffffffff167fddf252ad1be2c89b69c2b068fc378daa952ba7f163c4a11628f55a4df523b3ef60405160405180910390a4505050565b600081600001549050919050565b6117808484846114ff565b61178c848484846118b5565b6117e1576040517f08c379a0000000000000000000000000000000000000000000000000000000008152600401808060200182810382526032815260200180611da06032913960400191505060405180910390fd5b50505050565b6117f2838383611bd8565b600073ffffffffffffffffffffffffffffffffffffffff168273ffffffffffffffffffffffffffffffffffffffff1614156118775760006007600083815260200190815260200160002080546001816001161561010002031660029004905014611876576007600082815260200190815260200160002060006118759190611d32565b5b5b505050565b61189460018260000154611bdd90919063ffffffff16565b816000018190555050565b6001816000016000828254019250508190555050565b60006118d68473ffffffffffffffffffffffffffffffffffffffff16611c27565b6118e35760019050611bd0565b600060608573ffffffffffffffffffffffffffffffffffffffff1663150b7a0260e01b61190e61134a565b898888604051602401808573ffffffffffffffffffffffffffffffffffffffff1673ffffffffffffffffffffffffffffffffffffffff1681526020018473ffffffffffffffffffffffffffffffffffffffff1673ffffffffffffffffffffffffffffffffffffffff16815260200183815260200180602001828103825283818151815260200191508051906020019080838360005b838110156119be5780820151818401526020810190506119a3565b50505050905090810190601f1680156119eb5780820380516001836020036101000a031916815260200191505b5095505050505050604051602081830303815290604052907bffffffffffffffffffffffffffffffffffffffffffffffffffffffff19166020820180517bffffffffffffffffffffffffffffffffffffffffffffffffffffffff83818316178352505050506040518082805190602001908083835b60208310611a835780518252602082019150602081019050602083039250611a60565b6001836020036101000a0380198251168184511680821785525050505050509050019150506000604051808303816000865af19150503d8060008114611ae5576040519150601f19603f3d011682016040523d82523d6000602084013e611aea565b606091505b509150915081611b5857600081511115611b075780518082602001fd5b6040517f08c379a0000000000000000000000000000000000000000000000000000000008152600401808060200182810382526032815260200180611da06032913960400191505060405180910390fd5b6000818060200190516020811015611b6f57600080fd5b8101908080519060200190929190505050905063150b7a0260e01b7bffffffffffffffffffffffffffffffffffffffffffffffffffffffff1916817bffffffffffffffffffffffffffffffffffffffffffffffffffffffff19161493505050505b949350505050565b505050565b6000611c1f83836040518060400160405280601e81526020017f536166654d6174683a207375627472616374696f6e206f766572666c6f770000815250611c72565b905092915050565b60008060007fc5d2460186f7233c927e7db2dcc703c0e500b653ca82273b7bfad8045d85a47060001b9050833f9150808214158015611c6957506000801b8214155b92505050919050565b6000838311158290611d1f576040517f08c379a00000000000000000000000000000000000000000000000000000000081526004018080602001828103825283818151815260200191508051906020019080838360005b83811015611ce4578082015181840152602081019050611cc9565b50505050905090810190601f168015611d115780820380516001836020036101000a031916815260200191505b509250505060405180910390fd5b5060008385039050809150509392505050565b50805460018160011615610100020316600290046000825580601f10611d585750611d77565b601f016020900490600052602060002090810190611d769190611d7a565b5b50565b611d9c91905b80821115611d98576000816000905550600101611d80565b5090565b9056fe4552433732313a207472616e7366657220746f206e6f6e20455243373231526563656976657220696d706c656d656e7465724552433732313a207472616e7366657220746f20746865207a65726f20616464726573734552433732313a206f70657261746f7220717565727920666f72206e6f6e6578697374656e7420746f6b656e4552433732313a20617070726f76652063616c6c6572206973206e6f74206f776e6572206e6f7220617070726f76656420666f7220616c6c4552433732313a2062616c616e636520717565727920666f7220746865207a65726f20616464726573734552433732313a206f776e657220717565727920666f72206e6f6e6578697374656e7420746f6b656e4552433732313a20617070726f76656420717565727920666f72206e6f6e6578697374656e7420746f6b656e4552433732313a207472616e73666572206f6620746f6b656e2074686174206973206e6f74206f776e4552433732314d657461646174613a2055524920717565727920666f72206e6f6e6578697374656e7420746f6b656e4552433732313a20617070726f76616c20746f2063757272656e74206f776e65724552433732313a207472616e736665722063616c6c6572206973206e6f74206f776e6572206e6f7220617070726f766564a26469706673582212206378fbd2e7f210577ecd75150edaef6bde20eeb217525651f77940e5220e6f0264736f6c63430006020033",
  "source": "pragma solidity ^0.6.2;\r\n\r\n/**\r\n * @title   Primitive's Prime Contract\r\n * @notice  The core ERC721 contract that holds all Instruments.Primes.\r\n *          A Prime is a ERC-721 token that wraps ERC-20 assets\r\n *          with functions to interact with them.\r\n * @author  Primitive\r\n */\r\n\r\n\r\n/** \r\n *  @title Primitive's Instruments\r\n * @author Primitive Finance\r\n */\r\nlibrary Instruments {\r\n     /** \r\n     * @dev A Prime has these properties.\r\n     * @param writer `msg.sender` of the createPrime function.\r\n     * @param qUnderlying Quantity of underlying asset token.\r\n     * @param aUnderlying Address of underlying asset token.\r\n     * @param qStrike Purchase price of underlying, denominated in quantity of token z.\r\n     * @param aStrike Address of purchase price asset token.\r\n     * @param tExpiry UNIX timestamp of valid time period.\r\n     * @param receiver Address of strike receiver of token z.\r\n     * @param series Keccak256 hash of (aUnderlying ^ aStrike ^ tExpiry)\r\n     * @param symbol Keccak256 hash of all params excluding series\r\n     */\r\n    struct Primes {\r\n        address writer;\r\n        uint256 qUnderlying;\r\n        address aUnderlying;\r\n        uint256 qStrike;\r\n        address aStrike;\r\n        uint256 tExpiry;\r\n        address receiver;\r\n        bytes4 series;\r\n        bytes4 symbol;\r\n    }\r\n}\r\n\r\n/**\r\n * @dev Wrappers over Solidity's arithmetic operations with added overflow\r\n * checks.\r\n *\r\n * Arithmetic operations in Solidity wrap on overflow. This can easily result\r\n * in bugs, because programmers usually assume that an overflow raises an\r\n * error, which is the standard behavior in high level programming languages.\r\n * `SafeMath` restores this intuition by reverting the transaction when an\r\n * operation overflows.\r\n *\r\n * Using this library instead of the unchecked operations eliminates an entire\r\n * class of bugs, so it's recommended to use it always.\r\n */\r\nlibrary SafeMath {\r\n    /**\r\n     * @dev Returns the addition of two unsigned integers, reverting on\r\n     * overflow.\r\n     *\r\n     * Counterpart to Solidity's `+` operator.\r\n     *\r\n     * Requirements:\r\n     * - Addition cannot overflow.\r\n     */\r\n    function add(uint256 a, uint256 b) internal pure returns (uint256) {\r\n        uint256 c = a + b;\r\n        require(c >= a, \"SafeMath: addition overflow\");\r\n\r\n        return c;\r\n    }\r\n\r\n    /**\r\n     * @dev Returns the subtraction of two unsigned integers, reverting on\r\n     * overflow (when the result is negative).\r\n     *\r\n     * Counterpart to Solidity's `-` operator.\r\n     *\r\n     * Requirements:\r\n     * - Subtraction cannot overflow.\r\n     */\r\n    function sub(uint256 a, uint256 b) internal pure returns (uint256) {\r\n        return sub(a, b, \"SafeMath: subtraction overflow\");\r\n    }\r\n\r\n    /**\r\n     * @dev Returns the subtraction of two unsigned integers, reverting with custom message on\r\n     * overflow (when the result is negative).\r\n     *\r\n     * Counterpart to Solidity's `-` operator.\r\n     *\r\n     * Requirements:\r\n     * - Subtraction cannot overflow.\r\n     */\r\n    function sub(uint256 a, uint256 b, string memory errorMessage) internal pure returns (uint256) {\r\n        require(b <= a, errorMessage);\r\n        uint256 c = a - b;\r\n\r\n        return c;\r\n    }\r\n\r\n    /**\r\n     * @dev Returns the multiplication of two unsigned integers, reverting on\r\n     * overflow.\r\n     *\r\n     * Counterpart to Solidity's `*` operator.\r\n     *\r\n     * Requirements:\r\n     * - Multiplication cannot overflow.\r\n     */\r\n    function mul(uint256 a, uint256 b) internal pure returns (uint256) {\r\n        // Gas optimization: this is cheaper than requiring 'a' not being zero, but the\r\n        // benefit is lost if 'b' is also tested.\r\n        // See: https://github.com/OpenZeppelin/openzeppelin-contracts/pull/522\r\n        if (a == 0) {\r\n            return 0;\r\n        }\r\n\r\n        uint256 c = a * b;\r\n        require(c / a == b, \"SafeMath: multiplication overflow\");\r\n\r\n        return c;\r\n    }\r\n\r\n    /**\r\n     * @dev Returns the integer division of two unsigned integers. Reverts on\r\n     * division by zero. The result is rounded towards zero.\r\n     *\r\n     * Counterpart to Solidity's `/` operator. Note: this function uses a\r\n     * `revert` opcode (which leaves remaining gas untouched) while Solidity\r\n     * uses an invalid opcode to revert (consuming all remaining gas).\r\n     *\r\n     * Requirements:\r\n     * - The divisor cannot be zero.\r\n     */\r\n    function div(uint256 a, uint256 b) internal pure returns (uint256) {\r\n        return div(a, b, \"SafeMath: division by zero\");\r\n    }\r\n\r\n    /**\r\n     * @dev Returns the integer division of two unsigned integers. Reverts with custom message on\r\n     * division by zero. The result is rounded towards zero.\r\n     *\r\n     * Counterpart to Solidity's `/` operator. Note: this function uses a\r\n     * `revert` opcode (which leaves remaining gas untouched) while Solidity\r\n     * uses an invalid opcode to revert (consuming all remaining gas).\r\n     *\r\n     * Requirements:\r\n     * - The divisor cannot be zero.\r\n     */\r\n    function div(uint256 a, uint256 b, string memory errorMessage) internal pure returns (uint256) {\r\n        // Solidity only automatically asserts when dividing by 0\r\n        require(b > 0, errorMessage);\r\n        uint256 c = a / b;\r\n        // assert(a == b * c + a % b); // There is no case in which this doesn't hold\r\n\r\n        return c;\r\n    }\r\n\r\n    /**\r\n     * @dev Returns the remainder of dividing two unsigned integers. (unsigned integer modulo),\r\n     * Reverts when dividing by zero.\r\n     *\r\n     * Counterpart to Solidity's `%` operator. This function uses a `revert`\r\n     * opcode (which leaves remaining gas untouched) while Solidity uses an\r\n     * invalid opcode to revert (consuming all remaining gas).\r\n     *\r\n     * Requirements:\r\n     * - The divisor cannot be zero.\r\n     */\r\n    function mod(uint256 a, uint256 b) internal pure returns (uint256) {\r\n        return mod(a, b, \"SafeMath: modulo by zero\");\r\n    }\r\n\r\n    /**\r\n     * @dev Returns the remainder of dividing two unsigned integers. (unsigned integer modulo),\r\n     * Reverts with custom message when dividing by zero.\r\n     *\r\n     * Counterpart to Solidity's `%` operator. This function uses a `revert`\r\n     * opcode (which leaves remaining gas untouched) while Solidity uses an\r\n     * invalid opcode to revert (consuming all remaining gas).\r\n     *\r\n     * Requirements:\r\n     * - The divisor cannot be zero.\r\n     */\r\n    function mod(uint256 a, uint256 b, string memory errorMessage) internal pure returns (uint256) {\r\n        require(b != 0, errorMessage);\r\n        return a % b;\r\n    }\r\n}\r\n\r\n/**\r\n * @dev Collection of functions related to the address type\r\n */\r\nlibrary Address {\r\n    /**\r\n     * @dev Returns true if `account` is a contract.\r\n     *\r\n     * [IMPORTANT]\r\n     * ====\r\n     * It is unsafe to assume that an address for which this function returns\r\n     * false is an externally-owned account (EOA) and not a contract.\r\n     *\r\n     * Among others, `isContract` will return false for the following\r\n     * types of addresses:\r\n     *\r\n     *  - an externally-owned account\r\n     *  - a contract in construction\r\n     *  - an address where a contract will be created\r\n     *  - an address where a contract lived, but was destroyed\r\n     * ====\r\n     */\r\n    function isContract(address account) internal view returns (bool) {\r\n        // According to EIP-1052, 0x0 is the value returned for not-yet created accounts\r\n        // and 0xc5d2460186f7233c927e7db2dcc703c0e500b653ca82273b7bfad8045d85a470 is returned\r\n        // for accounts without code, i.e. `keccak256('')`\r\n        bytes32 codehash;\r\n        bytes32 accountHash = 0xc5d2460186f7233c927e7db2dcc703c0e500b653ca82273b7bfad8045d85a470;\r\n        // solhint-disable-next-line no-inline-assembly\r\n        assembly { codehash := extcodehash(account) }\r\n        return (codehash != accountHash && codehash != 0x0);\r\n    }\r\n\r\n    /**\r\n     * @dev Replacement for Solidity's `transfer`: sends `amount` wei to\r\n     * `recipient`, forwarding all available gas and reverting on errors.\r\n     *\r\n     * https://eips.ethereum.org/EIPS/eip-1884[EIP1884] increases the gas cost\r\n     * of certain opcodes, possibly making contracts go over the 2300 gas limit\r\n     * imposed by `transfer`, making them unable to receive funds via\r\n     * `transfer`. {sendValue} removes this limitation.\r\n     *\r\n     * https://diligence.consensys.net/posts/2019/09/stop-using-soliditys-transfer-now/[Learn more].\r\n     *\r\n     * IMPORTANT: because control is transferred to `recipient`, care must be\r\n     * taken to not create reentrancy vulnerabilities. Consider using\r\n     * {ReentrancyGuard} or the\r\n     * https://solidity.readthedocs.io/en/v0.5.11/security-considerations.html#use-the-checks-effects-interactions-pattern[checks-effects-interactions pattern].\r\n     */\r\n    function sendValue(address payable recipient, uint256 amount) internal {\r\n        require(address(this).balance >= amount, \"Address: insufficient balance\");\r\n\r\n        // solhint-disable-next-line avoid-low-level-calls, avoid-call-value\r\n        (bool success, ) = recipient.call.value(amount)(\"\");\r\n        require(success, \"Address: unable to send value, recipient may have reverted\");\r\n    }\r\n}\r\n\r\n/**\r\n * @title Counters\r\n * @author Matt Condon (@shrugs)\r\n * @dev Provides counters that can only be incremented or decremented by one. This can be used e.g. to track the number\r\n * of elements in a mapping, issuing ERC721 ids, or counting request ids.\r\n *\r\n * Include with `using Counters for Counters.Counter;`\r\n * Since it is not possible to overflow a 256 bit integer with increments of one, `increment` can skip the {SafeMath}\r\n * overflow check, thereby saving gas. This does assume however correct usage, in that the underlying `_value` is never\r\n * directly accessed.\r\n */\r\nlibrary Counters {\r\n    using SafeMath for uint256;\r\n\r\n    struct Counter {\r\n        // This variable should never be directly accessed by users of the library: interactions must be restricted to\r\n        // the library's function. As of Solidity v0.5.2, this cannot be enforced, though there is a proposal to add\r\n        // this feature: see https://github.com/ethereum/solidity/issues/4637\r\n        uint256 _value; // default: 0\r\n    }\r\n\r\n    function current(Counter storage counter) internal view returns (uint256) {\r\n        return counter._value;\r\n    }\r\n\r\n    function increment(Counter storage counter) internal {\r\n        // The {SafeMath} overflow check can be skipped here, see the comment at the top\r\n        counter._value += 1;\r\n    }\r\n\r\n    function decrement(Counter storage counter) internal {\r\n        counter._value = counter._value.sub(1);\r\n    }\r\n}\r\n\r\n/**\r\n * @dev Contract module that helps prevent reentrant calls to a function.\r\n *\r\n * Inheriting from `ReentrancyGuard` will make the {nonReentrant} modifier\r\n * available, which can be applied to functions to make sure there are no nested\r\n * (reentrant) calls to them.\r\n *\r\n * Note that because there is a single `nonReentrant` guard, functions marked as\r\n * `nonReentrant` may not call one another. This can be worked around by making\r\n * those functions `private`, and then adding `external` `nonReentrant` entry\r\n * points to them.\r\n *\r\n * TIP: If you would like to learn more about reentrancy and alternative ways\r\n * to protect against it, check out our blog post\r\n * https://blog.openzeppelin.com/reentrancy-after-istanbul/[Reentrancy After Istanbul].\r\n */\r\ncontract ReentrancyGuard {\r\n    bool private _notEntered;\r\n\r\n    constructor () internal {\r\n        // Storing an initial non-zero value makes deployment a bit more\r\n        // expensive, but in exchange the refund on every call to nonReentrant\r\n        // will be lower in amount. Since refunds are capped to a percetange of\r\n        // the total transaction's gas, it is best to keep them low in cases\r\n        // like this one, to increase the likelihood of the full refund coming\r\n        // into effect.\r\n        _notEntered = true;\r\n    }\r\n\r\n    /**\r\n     * @dev Prevents a contract from calling itself, directly or indirectly.\r\n     * Calling a `nonReentrant` function from another `nonReentrant`\r\n     * function is not supported. It is possible to prevent this from happening\r\n     * by making the `nonReentrant` function external, and make it call a\r\n     * `private` function that does the actual work.\r\n     */\r\n    modifier nonReentrant() {\r\n        // On the first call to nonReentrant, _notEntered will be true\r\n        require(_notEntered, \"ReentrancyGuard: reentrant call\");\r\n\r\n        // Any calls to nonReentrant after this point will fail\r\n        _notEntered = false;\r\n\r\n        _;\r\n\r\n        // By storing the original value once again, a refund is triggered (see\r\n        // https://eips.ethereum.org/EIPS/eip-2200)\r\n        _notEntered = true;\r\n    }\r\n}\r\n\r\n/*\r\n * @dev Provides information about the current execution context, including the\r\n * sender of the transaction and its data. While these are generally available\r\n * via msg.sender and msg.data, they should not be accessed in such a direct\r\n * manner, since when dealing with GSN meta-transactions the account sending and\r\n * paying for execution may not be the actual sender (as far as an application\r\n * is concerned).\r\n *\r\n * This contract is only required for intermediate, library-like contracts.\r\n */\r\ncontract Context {\r\n    // Empty internal constructor, to prevent people from mistakenly deploying\r\n    // an instance of this contract, which should be used via inheritance.\r\n    constructor () internal { }\r\n\r\n    function _msgSender() internal view virtual returns (address payable) {\r\n        return msg.sender;\r\n    }\r\n\r\n    function _msgData() internal view virtual returns (bytes memory) {\r\n        this; // silence state mutability warning without generating bytecode - see https://github.com/ethereum/solidity/issues/2691\r\n        return msg.data;\r\n    }\r\n}\r\n\r\n/**\r\n * @dev Interface of the ERC165 standard, as defined in the\r\n * https://eips.ethereum.org/EIPS/eip-165[EIP].\r\n *\r\n * Implementers can declare support of contract interfaces, which can then be\r\n * queried by others ({ERC165Checker}).\r\n *\r\n * For an implementation, see {ERC165}.\r\n */\r\ninterface IERC165 {\r\n    /**\r\n     * @dev Returns true if this contract implements the interface defined by\r\n     * `interfaceId`. See the corresponding\r\n     * https://eips.ethereum.org/EIPS/eip-165#how-interfaces-are-identified[EIP section]\r\n     * to learn more about how these ids are created.\r\n     *\r\n     * This function call must use less than 30 000 gas.\r\n     */\r\n    function supportsInterface(bytes4 interfaceId) external view returns (bool);\r\n}\r\n\r\n/**\r\n * @dev Implementation of the {IERC165} interface.\r\n *\r\n * Contracts may inherit from this and call {_registerInterface} to declare\r\n * their support of an interface.\r\n */\r\ncontract ERC165 is IERC165 {\r\n    /*\r\n     * bytes4(keccak256('supportsInterface(bytes4)')) == 0x01ffc9a7\r\n     */\r\n    bytes4 private constant _INTERFACE_ID_ERC165 = 0x01ffc9a7;\r\n\r\n    /**\r\n     * @dev Mapping of interface ids to whether or not it's supported.\r\n     */\r\n    mapping(bytes4 => bool) private _supportedInterfaces;\r\n\r\n    constructor () internal {\r\n        // Derived contracts need only register support for their own interfaces,\r\n        // we register support for ERC165 itself here\r\n        _registerInterface(_INTERFACE_ID_ERC165);\r\n    }\r\n\r\n    /**\r\n     * @dev See {IERC165-supportsInterface}.\r\n     *\r\n     * Time complexity O(1), guaranteed to always use less than 30 000 gas.\r\n     */\r\n    function supportsInterface(bytes4 interfaceId) external view override returns (bool) {\r\n        return _supportedInterfaces[interfaceId];\r\n    }\r\n\r\n    /**\r\n     * @dev Registers the contract as an implementer of the interface defined by\r\n     * `interfaceId`. Support of the actual ERC165 interface is automatic and\r\n     * registering its interface id is not required.\r\n     *\r\n     * See {IERC165-supportsInterface}.\r\n     *\r\n     * Requirements:\r\n     *\r\n     * - `interfaceId` cannot be the ERC165 invalid interface (`0xffffffff`).\r\n     */\r\n    function _registerInterface(bytes4 interfaceId) internal virtual {\r\n        require(interfaceId != 0xffffffff, \"ERC165: invalid interface id\");\r\n        _supportedInterfaces[interfaceId] = true;\r\n    }\r\n}\r\n\r\n/**\r\n * @dev Required interface of an ERC721 compliant contract.\r\n */\r\ninterface IERC721 is IERC165 {\r\n    event Transfer(address indexed from, address indexed to, uint256 indexed tokenId);\r\n    event Approval(address indexed owner, address indexed approved, uint256 indexed tokenId);\r\n    event ApprovalForAll(address indexed owner, address indexed operator, bool approved);\r\n\r\n    /**\r\n     * @dev Returns the number of NFTs in `owner`'s account.\r\n     */\r\n    function balanceOf(address owner) external view returns (uint256 balance);\r\n\r\n    /**\r\n     * @dev Returns the owner of the NFT specified by `tokenId`.\r\n     */\r\n    function ownerOf(uint256 tokenId) external view returns (address owner);\r\n\r\n    /**\r\n     * @dev Transfers a specific NFT (`tokenId`) from one account (`from`) to\r\n     * another (`to`).\r\n     *\r\n     *\r\n     *\r\n     * Requirements:\r\n     * - `from`, `to` cannot be zero.\r\n     * - `tokenId` must be owned by `from`.\r\n     * - If the caller is not `from`, it must be have been allowed to move this\r\n     * NFT by either {approve} or {setApprovalForAll}.\r\n     */\r\n    function safeTransferFrom(address from, address to, uint256 tokenId) external;\r\n    /**\r\n     * @dev Transfers a specific NFT (`tokenId`) from one account (`from`) to\r\n     * another (`to`).\r\n     *\r\n     * Requirements:\r\n     * - If the caller is not `from`, it must be approved to move this NFT by\r\n     * either {approve} or {setApprovalForAll}.\r\n     */\r\n    function transferFrom(address from, address to, uint256 tokenId) external;\r\n    function approve(address to, uint256 tokenId) external;\r\n    function getApproved(uint256 tokenId) external view returns (address operator);\r\n\r\n    function setApprovalForAll(address operator, bool _approved) external;\r\n    function isApprovedForAll(address owner, address operator) external view returns (bool);\r\n\r\n\r\n    function safeTransferFrom(address from, address to, uint256 tokenId, bytes calldata data) external;\r\n}\r\n\r\n/**\r\n * @title ERC721 token receiver interface\r\n * @dev Interface for any contract that wants to support safeTransfers\r\n * from ERC721 asset contracts.\r\n */\r\nabstract contract IERC721Receiver {\r\n    /**\r\n     * @notice Handle the receipt of an NFT\r\n     * @dev The ERC721 smart contract calls this function on the recipient\r\n     * after a {IERC721-safeTransferFrom}. This function MUST return the function selector,\r\n     * otherwise the caller will revert the transaction. The selector to be\r\n     * returned can be obtained as `this.onERC721Received.selector`. This\r\n     * function MAY throw to revert and reject the transfer.\r\n     * Note: the ERC721 contract address is always the message sender.\r\n     * @param operator The address which called `safeTransferFrom` function\r\n     * @param from The address which previously owned the token\r\n     * @param tokenId The NFT identifier which is being transferred\r\n     * @param data Additional data with no specified format\r\n     * @return bytes4 `bytes4(keccak256(\"onERC721Received(address,address,uint256,bytes)\"))`\r\n     */\r\n    function onERC721Received(address operator, address from, uint256 tokenId, bytes memory data)\r\n    public virtual returns (bytes4);\r\n}\r\n\r\n/**\r\n * @title ERC721 Non-Fungible Token Standard basic implementation\r\n * @dev see https://eips.ethereum.org/EIPS/eip-721\r\n */\r\ncontract ERC721 is Context, ERC165, IERC721 {\r\n    using SafeMath for uint256;\r\n    using Address for address;\r\n    using Counters for Counters.Counter;\r\n\r\n    // Equals to `bytes4(keccak256(\"onERC721Received(address,address,uint256,bytes)\"))`\r\n    // which can be also obtained as `IERC721Receiver(0).onERC721Received.selector`\r\n    bytes4 private constant _ERC721_RECEIVED = 0x150b7a02;\r\n\r\n    // Mapping from token ID to owner\r\n    mapping (uint256 => address) private _tokenOwner;\r\n\r\n    // Mapping from token ID to approved address\r\n    mapping (uint256 => address) private _tokenApprovals;\r\n\r\n    // Mapping from owner to number of owned token\r\n    mapping (address => Counters.Counter) private _ownedTokensCount;\r\n\r\n    // Mapping from owner to operator approvals\r\n    mapping (address => mapping (address => bool)) private _operatorApprovals;\r\n\r\n    /*\r\n     *     bytes4(keccak256('balanceOf(address)')) == 0x70a08231\r\n     *     bytes4(keccak256('ownerOf(uint256)')) == 0x6352211e\r\n     *     bytes4(keccak256('approve(address,uint256)')) == 0x095ea7b3\r\n     *     bytes4(keccak256('getApproved(uint256)')) == 0x081812fc\r\n     *     bytes4(keccak256('setApprovalForAll(address,bool)')) == 0xa22cb465\r\n     *     bytes4(keccak256('isApprovedForAll(address,address)')) == 0xe985e9c5\r\n     *     bytes4(keccak256('transferFrom(address,address,uint256)')) == 0x23b872dd\r\n     *     bytes4(keccak256('safeTransferFrom(address,address,uint256)')) == 0x42842e0e\r\n     *     bytes4(keccak256('safeTransferFrom(address,address,uint256,bytes)')) == 0xb88d4fde\r\n     *\r\n     *     => 0x70a08231 ^ 0x6352211e ^ 0x095ea7b3 ^ 0x081812fc ^\r\n     *        0xa22cb465 ^ 0xe985e9c ^ 0x23b872dd ^ 0x42842e0e ^ 0xb88d4fde == 0x80ac58cd\r\n     */\r\n    bytes4 private constant _INTERFACE_ID_ERC721 = 0x80ac58cd;\r\n\r\n    constructor () public {\r\n        // register the supported interfaces to conform to ERC721 via ERC165\r\n        _registerInterface(_INTERFACE_ID_ERC721);\r\n    }\r\n\r\n    /**\r\n     * @dev Gets the balance of the specified address.\r\n     * @param owner address to query the balance of\r\n     * @return uint256 representing the amount owned by the passed address\r\n     */\r\n    function balanceOf(address owner) public view override returns (uint256) {\r\n        require(owner != address(0), \"ERC721: balance query for the zero address\");\r\n\r\n        return _ownedTokensCount[owner].current();\r\n    }\r\n\r\n    /**\r\n     * @dev Gets the owner of the specified token ID.\r\n     * @param tokenId uint256 ID of the token to query the owner of\r\n     * @return address currently marked as the owner of the given token ID\r\n     */\r\n    function ownerOf(uint256 tokenId) public view override returns (address) {\r\n        address owner = _tokenOwner[tokenId];\r\n        require(owner != address(0), \"ERC721: owner query for nonexistent token\");\r\n\r\n        return owner;\r\n    }\r\n\r\n    /**\r\n     * @dev Approves another address to transfer the given token ID\r\n     * The zero address indicates there is no approved address.\r\n     * There can only be one approved address per token at a given time.\r\n     * Can only be called by the token owner or an approved operator.\r\n     * @param to address to be approved for the given token ID\r\n     * @param tokenId uint256 ID of the token to be approved\r\n     */\r\n    function approve(address to, uint256 tokenId) public virtual override {\r\n        address owner = ownerOf(tokenId);\r\n        require(to != owner, \"ERC721: approval to current owner\");\r\n\r\n        require(_msgSender() == owner || isApprovedForAll(owner, _msgSender()),\r\n            \"ERC721: approve caller is not owner nor approved for all\"\r\n        );\r\n\r\n        _approve(to, tokenId);\r\n    }\r\n\r\n    /**\r\n     * @dev Gets the approved address for a token ID, or zero if no address set\r\n     * Reverts if the token ID does not exist.\r\n     * @param tokenId uint256 ID of the token to query the approval of\r\n     * @return address currently approved for the given token ID\r\n     */\r\n    function getApproved(uint256 tokenId) public view override returns (address) {\r\n        require(_exists(tokenId), \"ERC721: approved query for nonexistent token\");\r\n\r\n        return _tokenApprovals[tokenId];\r\n    }\r\n\r\n    /**\r\n     * @dev Sets or unsets the approval of a given operator\r\n     * An operator is allowed to transfer all tokens of the sender on their behalf.\r\n     * @param operator operator address to set the approval\r\n     * @param approved representing the status of the approval to be set\r\n     */\r\n    function setApprovalForAll(address operator, bool approved) public virtual override {\r\n        require(operator != _msgSender(), \"ERC721: approve to caller\");\r\n\r\n        _operatorApprovals[_msgSender()][operator] = approved;\r\n        emit ApprovalForAll(_msgSender(), operator, approved);\r\n    }\r\n\r\n    /**\r\n     * @dev Tells whether an operator is approved by a given owner.\r\n     * @param owner owner address which you want to query the approval of\r\n     * @param operator operator address which you want to query the approval of\r\n     * @return bool whether the given operator is approved by the given owner\r\n     */\r\n    function isApprovedForAll(address owner, address operator) public view override returns (bool) {\r\n        return _operatorApprovals[owner][operator];\r\n    }\r\n\r\n    /**\r\n     * @dev Transfers the ownership of a given token ID to another address.\r\n     * Usage of this method is discouraged, use {safeTransferFrom} whenever possible.\r\n     * Requires the msg.sender to be the owner, approved, or operator.\r\n     * @param from current owner of the token\r\n     * @param to address to receive the ownership of the given token ID\r\n     * @param tokenId uint256 ID of the token to be transferred\r\n     */\r\n    function transferFrom(address from, address to, uint256 tokenId) public virtual override {\r\n        //solhint-disable-next-line max-line-length\r\n        require(_isApprovedOrOwner(_msgSender(), tokenId), \"ERC721: transfer caller is not owner nor approved\");\r\n\r\n        _transferFrom(from, to, tokenId);\r\n    }\r\n\r\n    /**\r\n     * @dev Safely transfers the ownership of a given token ID to another address\r\n     * If the target address is a contract, it must implement {IERC721Receiver-onERC721Received},\r\n     * which is called upon a safe transfer, and return the magic value\r\n     * `bytes4(keccak256(\"onERC721Received(address,address,uint256,bytes)\"))`; otherwise,\r\n     * the transfer is reverted.\r\n     * Requires the msg.sender to be the owner, approved, or operator\r\n     * @param from current owner of the token\r\n     * @param to address to receive the ownership of the given token ID\r\n     * @param tokenId uint256 ID of the token to be transferred\r\n     */\r\n    function safeTransferFrom(address from, address to, uint256 tokenId) public virtual override {\r\n        safeTransferFrom(from, to, tokenId, \"\");\r\n    }\r\n\r\n    /**\r\n     * @dev Safely transfers the ownership of a given token ID to another address\r\n     * If the target address is a contract, it must implement {IERC721Receiver-onERC721Received},\r\n     * which is called upon a safe transfer, and return the magic value\r\n     * `bytes4(keccak256(\"onERC721Received(address,address,uint256,bytes)\"))`; otherwise,\r\n     * the transfer is reverted.\r\n     * Requires the _msgSender() to be the owner, approved, or operator\r\n     * @param from current owner of the token\r\n     * @param to address to receive the ownership of the given token ID\r\n     * @param tokenId uint256 ID of the token to be transferred\r\n     * @param _data bytes data to send along with a safe transfer check\r\n     */\r\n    function safeTransferFrom(address from, address to, uint256 tokenId, bytes memory _data) public virtual override {\r\n        require(_isApprovedOrOwner(_msgSender(), tokenId), \"ERC721: transfer caller is not owner nor approved\");\r\n        _safeTransferFrom(from, to, tokenId, _data);\r\n    }\r\n\r\n    /**\r\n     * @dev Safely transfers the ownership of a given token ID to another address\r\n     * If the target address is a contract, it must implement `onERC721Received`,\r\n     * which is called upon a safe transfer, and return the magic value\r\n     * `bytes4(keccak256(\"onERC721Received(address,address,uint256,bytes)\"))`; otherwise,\r\n     * the transfer is reverted.\r\n     * Requires the msg.sender to be the owner, approved, or operator\r\n     * @param from current owner of the token\r\n     * @param to address to receive the ownership of the given token ID\r\n     * @param tokenId uint256 ID of the token to be transferred\r\n     * @param _data bytes data to send along with a safe transfer check\r\n     */\r\n    function _safeTransferFrom(address from, address to, uint256 tokenId, bytes memory _data) internal virtual {\r\n        _transferFrom(from, to, tokenId);\r\n        require(_checkOnERC721Received(from, to, tokenId, _data), \"ERC721: transfer to non ERC721Receiver implementer\");\r\n    }\r\n\r\n    /**\r\n     * @dev Returns whether the specified token exists.\r\n     * @param tokenId uint256 ID of the token to query the existence of\r\n     * @return bool whether the token exists\r\n     */\r\n    function _exists(uint256 tokenId) internal view returns (bool) {\r\n        address owner = _tokenOwner[tokenId];\r\n        return owner != address(0);\r\n    }\r\n\r\n    /**\r\n     * @dev Returns whether the given spender can transfer a given token ID.\r\n     * @param spender address of the spender to query\r\n     * @param tokenId uint256 ID of the token to be transferred\r\n     * @return bool whether the msg.sender is approved for the given token ID,\r\n     * is an operator of the owner, or is the owner of the token\r\n     */\r\n    function _isApprovedOrOwner(address spender, uint256 tokenId) internal view returns (bool) {\r\n        require(_exists(tokenId), \"ERC721: operator query for nonexistent token\");\r\n        address owner = ownerOf(tokenId);\r\n        return (spender == owner || getApproved(tokenId) == spender || isApprovedForAll(owner, spender));\r\n    }\r\n\r\n    /**\r\n     * @dev Internal function to safely mint a new token.\r\n     * Reverts if the given token ID already exists.\r\n     * If the target address is a contract, it must implement `onERC721Received`,\r\n     * which is called upon a safe transfer, and return the magic value\r\n     * `bytes4(keccak256(\"onERC721Received(address,address,uint256,bytes)\"))`; otherwise,\r\n     * the transfer is reverted.\r\n     * @param to The address that will own the minted token\r\n     * @param tokenId uint256 ID of the token to be minted\r\n     */\r\n    function _safeMint(address to, uint256 tokenId) internal virtual {\r\n        _safeMint(to, tokenId, \"\");\r\n    }\r\n\r\n    /**\r\n     * @dev Internal function to safely mint a new token.\r\n     * Reverts if the given token ID already exists.\r\n     * If the target address is a contract, it must implement `onERC721Received`,\r\n     * which is called upon a safe transfer, and return the magic value\r\n     * `bytes4(keccak256(\"onERC721Received(address,address,uint256,bytes)\"))`; otherwise,\r\n     * the transfer is reverted.\r\n     * @param to The address that will own the minted token\r\n     * @param tokenId uint256 ID of the token to be minted\r\n     * @param _data bytes data to send along with a safe transfer check\r\n     */\r\n    function _safeMint(address to, uint256 tokenId, bytes memory _data) internal virtual {\r\n        _mint(to, tokenId);\r\n        require(_checkOnERC721Received(address(0), to, tokenId, _data), \"ERC721: transfer to non ERC721Receiver implementer\");\r\n    }\r\n\r\n    /**\r\n     * @dev Internal function to mint a new token.\r\n     * Reverts if the given token ID already exists.\r\n     * @param to The address that will own the minted token\r\n     * @param tokenId uint256 ID of the token to be minted\r\n     */\r\n    function _mint(address to, uint256 tokenId) internal virtual {\r\n        require(to != address(0), \"ERC721: mint to the zero address\");\r\n        require(!_exists(tokenId), \"ERC721: token already minted\");\r\n\r\n        _beforeTokenTransfer(address(0), to, tokenId);\r\n\r\n        _tokenOwner[tokenId] = to;\r\n        _ownedTokensCount[to].increment();\r\n\r\n        emit Transfer(address(0), to, tokenId);\r\n    }\r\n\r\n    /**\r\n     * @dev Internal function to burn a specific token.\r\n     * Reverts if the token does not exist.\r\n     * @param tokenId uint256 ID of the token being burned\r\n     */\r\n    function _burn(uint256 tokenId) internal virtual {\r\n        address owner = ownerOf(tokenId);\r\n\r\n        _beforeTokenTransfer(owner, address(0), tokenId);\r\n\r\n        // Clear approvals\r\n        _approve(address(0), tokenId);\r\n\r\n        _ownedTokensCount[owner].decrement();\r\n        _tokenOwner[tokenId] = address(0);\r\n\r\n        emit Transfer(owner, address(0), tokenId);\r\n    }\r\n\r\n    /**\r\n     * @dev Internal function to transfer ownership of a given token ID to another address.\r\n     * As opposed to {transferFrom}, this imposes no restrictions on msg.sender.\r\n     * @param from current owner of the token\r\n     * @param to address to receive the ownership of the given token ID\r\n     * @param tokenId uint256 ID of the token to be transferred\r\n     */\r\n    function _transferFrom(address from, address to, uint256 tokenId) internal virtual {\r\n        require(ownerOf(tokenId) == from, \"ERC721: transfer of token that is not own\");\r\n        require(to != address(0), \"ERC721: transfer to the zero address\");\r\n\r\n        _beforeTokenTransfer(from, to, tokenId);\r\n\r\n        // Clear approvals\r\n        _approve(address(0), tokenId);\r\n\r\n        _ownedTokensCount[from].decrement();\r\n        _ownedTokensCount[to].increment();\r\n\r\n        _tokenOwner[tokenId] = to;\r\n\r\n        emit Transfer(from, to, tokenId);\r\n    }\r\n\r\n    /**\r\n     * @dev Internal function to invoke {IERC721Receiver-onERC721Received} on a target address.\r\n     * The call is not executed if the target address is not a contract.\r\n     *\r\n     * @param from address representing the previous owner of the given token ID\r\n     * @param to target address that will receive the tokens\r\n     * @param tokenId uint256 ID of the token to be transferred\r\n     * @param _data bytes optional data to send along with the call\r\n     * @return bool whether the call correctly returned the expected magic value\r\n     */\r\n    function _checkOnERC721Received(address from, address to, uint256 tokenId, bytes memory _data)\r\n        private returns (bool)\r\n    {\r\n        if (!to.isContract()) {\r\n            return true;\r\n        }\r\n        // solhint-disable-next-line avoid-low-level-calls\r\n        (bool success, bytes memory returndata) = to.call(abi.encodeWithSelector(\r\n            IERC721Receiver(to).onERC721Received.selector,\r\n            _msgSender(),\r\n            from,\r\n            tokenId,\r\n            _data\r\n        ));\r\n        if (!success) {\r\n            if (returndata.length > 0) {\r\n                // solhint-disable-next-line no-inline-assembly\r\n                assembly {\r\n                    let returndata_size := mload(returndata)\r\n                    revert(add(32, returndata), returndata_size)\r\n                }\r\n            } else {\r\n                revert(\"ERC721: transfer to non ERC721Receiver implementer\");\r\n            }\r\n        } else {\r\n            bytes4 retval = abi.decode(returndata, (bytes4));\r\n            return (retval == _ERC721_RECEIVED);\r\n        }\r\n    }\r\n\r\n    function _approve(address to, uint256 tokenId) private {\r\n        _tokenApprovals[tokenId] = to;\r\n        emit Approval(ownerOf(tokenId), to, tokenId);\r\n    }\r\n\r\n    /**\r\n     * @dev Hook that is called before any token transfer. This includes minting\r\n     * and burning.\r\n     *\r\n     * Calling conditions:\r\n     *\r\n     * - when `from` and `to` are both non-zero, `from`'s `tokenId` will be\r\n     * transferred to `to`.\r\n     * - when `from` is zero, `tokenId` will be minted for `to`.\r\n     * - when `to` is zero, `from`'s `tokenId` will be burned.\r\n     * - `from` and `to` are never both zero.\r\n     *\r\n     * To learn more about hooks, head to xref:ROOT:using-hooks.adoc[Using Hooks].\r\n     */\r\n    function _beforeTokenTransfer(address from, address to, uint256 tokenId) internal virtual { }\r\n}\r\n\r\n/**\r\n * @title ERC-721 Non-Fungible Token Standard, optional metadata extension\r\n * @dev See https://eips.ethereum.org/EIPS/eip-721\r\n */\r\ninterface IERC721Metadata is IERC721 {\r\n    function name() external view returns (string memory);\r\n    function symbol() external view returns (string memory);\r\n    function tokenURI(uint256 tokenId) external view returns (string memory);\r\n}\r\n\r\ncontract ERC721Metadata is Context, ERC165, ERC721, IERC721Metadata {\r\n    // Token name\r\n    string private _name;\r\n\r\n    // Token symbol\r\n    string private _symbol;\r\n\r\n    // Optional mapping for token URIs\r\n    mapping(uint256 => string) private _tokenURIs;\r\n\r\n    // Base URI\r\n    string private _baseURI;\r\n\r\n    /*\r\n     *     bytes4(keccak256('name()')) == 0x06fdde03\r\n     *     bytes4(keccak256('symbol()')) == 0x95d89b41\r\n     *     bytes4(keccak256('tokenURI(uint256)')) == 0xc87b56dd\r\n     *\r\n     *     => 0x06fdde03 ^ 0x95d89b41 ^ 0xc87b56dd == 0x5b5e139f\r\n     */\r\n    bytes4 private constant _INTERFACE_ID_ERC721_METADATA = 0x5b5e139f;\r\n\r\n    /**\r\n     * @dev Constructor function\r\n     */\r\n    constructor (string memory name, string memory symbol) public {\r\n        _name = name;\r\n        _symbol = symbol;\r\n\r\n        // register the supported interfaces to conform to ERC721 via ERC165\r\n        _registerInterface(_INTERFACE_ID_ERC721_METADATA);\r\n    }\r\n\r\n    /**\r\n     * @dev Gets the token name.\r\n     * @return string representing the token name\r\n     */\r\n    function name() external view override returns (string memory) {\r\n        return _name;\r\n    }\r\n\r\n    /**\r\n     * @dev Gets the token symbol.\r\n     * @return string representing the token symbol\r\n     */\r\n    function symbol() external view override returns (string memory) {\r\n        return _symbol;\r\n    }\r\n\r\n    /**\r\n     * @dev Returns the URI for a given token ID. May return an empty string.\r\n     *\r\n     * If the token's URI is non-empty and a base URI was set (via\r\n     * {_setBaseURI}), it will be added to the token ID's URI as a prefix.\r\n     *\r\n     * Reverts if the token ID does not exist.\r\n     */\r\n    function tokenURI(uint256 tokenId) external view override returns (string memory) {\r\n        require(_exists(tokenId), \"ERC721Metadata: URI query for nonexistent token\");\r\n\r\n        string memory _tokenURI = _tokenURIs[tokenId];\r\n\r\n        // Even if there is a base URI, it is only appended to non-empty token-specific URIs\r\n        if (bytes(_tokenURI).length == 0) {\r\n            return \"\";\r\n        } else {\r\n            // abi.encodePacked is being used to concatenate strings\r\n            return string(abi.encodePacked(_baseURI, _tokenURI));\r\n        }\r\n    }\r\n\r\n    /**\r\n     * @dev Internal function to set the token URI for a given token.\r\n     *\r\n     * Reverts if the token ID does not exist.\r\n     *\r\n     * TIP: if all token IDs share a prefix (e.g. if your URIs look like\r\n     * `http://api.myproject.com/token/<id>`), use {_setBaseURI} to store\r\n     * it and save gas.\r\n     */\r\n    function _setTokenURI(uint256 tokenId, string memory _tokenURI) internal virtual {\r\n        require(_exists(tokenId), \"ERC721Metadata: URI set of nonexistent token\");\r\n        _tokenURIs[tokenId] = _tokenURI;\r\n    }\r\n\r\n    /**\r\n     * @dev Internal function to set the base URI for all token IDs. It is\r\n     * automatically added as a prefix to the value returned in {tokenURI}.\r\n     */\r\n    function _setBaseURI(string memory baseURI) internal virtual {\r\n        _baseURI = baseURI;\r\n    }\r\n\r\n    /**\r\n    * @dev Returns the base URI set via {_setBaseURI}. This will be\r\n    * automatically added as a preffix in {tokenURI} to each token's URI, when\r\n    * they are non-empty.\r\n    */\r\n    function baseURI() external view returns (string memory) {\r\n        return _baseURI;\r\n    }\r\n\r\n\r\n    function _beforeTokenTransfer(address from, address to, uint256 tokenId) internal virtual override {\r\n        super._beforeTokenTransfer(from, to, tokenId);\r\n\r\n        if (to == address(0)) { // When burning tokens\r\n            // Clear metadata (if any)\r\n            if (bytes(_tokenURIs[tokenId]).length != 0) {\r\n                delete _tokenURIs[tokenId];\r\n            }\r\n        }\r\n    }\r\n}\r\n\r\nabstract contract ERC20 {\r\n    function balanceOf(address _controller) virtual external returns(uint256);\r\n    function transferFrom(address sender, address recipient, uint256 amount) public virtual returns (bool);\r\n    function transfer(address recipient, uint256 amount) public virtual returns (bool);\r\n}\r\n\r\nabstract contract IPool {\r\n    function exercise(uint256 _long, uint256 _short, address _strike) external payable virtual returns (bool);\r\n}\r\n\r\nabstract contract IPrime {\r\n    \r\n    event PrimeMinted(\r\n        address indexed caller,\r\n        bytes4 indexed symbol,\r\n        uint256 indexed tokenId\r\n    );\r\n\r\n    event PrimeExercised(\r\n        address indexed caller,\r\n        bytes4 indexed symbol,\r\n        uint256 indexed tokenId\r\n    );\r\n\r\n    event PrimeClosed(\r\n        address indexed caller,\r\n        bytes4 indexed symbol,\r\n        uint256 indexed tokenId\r\n    );\r\n\r\n    event Withdrawal(\r\n        address indexed caller,\r\n        uint256 amount,\r\n        address indexed asset\r\n    );\r\n\r\n    function createPrime(\r\n        uint256 qUnderlying,\r\n        address aUnderlying,\r\n        uint256 qStrike,\r\n        address aStrike,\r\n        uint256 tExpiry,\r\n        address receiver\r\n    ) external payable virtual returns (uint256);\r\n    function exercise(uint256 tokenId) external payable virtual returns (bool);\r\n    function close(uint256 tokenToClose, uint256 tokenToBurn) external virtual returns (bool);\r\n    function withdraw(uint256 amount, address asset) public virtual returns (bool);\r\n}\r\n\r\ncontract Prime is IPrime, ERC721Metadata, ReentrancyGuard {\r\n    using SafeMath for uint256;\r\n\r\n    uint256 public _nonce;\r\n    address public _controller;\r\n    address public _instrumentController;\r\n    address public _poolAddress;\r\n    IPool public _pool;\r\n\r\n    /* Maps a user's withdrawable asset balance */\r\n    mapping(address => mapping(address => uint256)) public _assets;\r\n    mapping(address => mapping(address => uint256)) public _liabilities;\r\n\r\n    /* Map NFT IDs to Prime Struct */\r\n    mapping(uint256 => Instruments.Primes) public _primes;\r\n\r\n    constructor () public\r\n        ERC721Metadata(\r\n            \"Prime Derivative\",\r\n            \"PRIME\"\r\n        ) {\r\n            _controller = msg.sender;\r\n        }\r\n    \r\n    receive() external payable {}\r\n\r\n    /* SET*/\r\n    function setPoolAddress(address poolAddress) external {\r\n        require(msg.sender == _controller, 'not owner');\r\n        _poolAddress = poolAddress;\r\n        _pool = IPool(poolAddress);\r\n    }\r\n\r\n    /* SET*/\r\n    function setInstrumentController(address instrumentController) external {\r\n        require(msg.sender == _controller, 'not owner');\r\n        _instrumentController = instrumentController;\r\n    }\r\n\r\n    /* PRIME FUNCTIONS */\r\n\r\n    /** \r\n     * @dev `msg.sender` Deposits asset x, mints new Slate.\r\n     * @param qUnderlying Amount of underlying to deposit.\r\n     * @param aUnderlying Address of underlying asset.\r\n     * @param qStrike Amount of strike asset.\r\n     * @param aStrike Strike asset address.\r\n     * @param tExpiry Expiry timestamp.\r\n     * @param receiver Receiver address.\r\n     * @return _nonce nonce of token minted\r\n     */\r\n    function createPrime(\r\n        uint256 qUnderlying,\r\n        address aUnderlying,\r\n        uint256 qStrike,\r\n        address aStrike,\r\n        uint256 tExpiry,\r\n        address receiver\r\n    ) \r\n        external\r\n        payable\r\n        override\r\n        returns (uint256) \r\n    {\r\n        /* CHECKS */\r\n        require(tExpiry >= block.timestamp, 'Create: expired timestamp');\r\n        /* If this is an Ether Call Prime */\r\n        if(\r\n            /* aUnderlying == _poolAddress &&\r\n            msg.sender != _poolAddress || */\r\n            msg.sender == _instrumentController\r\n        ) {\r\n            isGreaterThanOrEqual(msg.value, qUnderlying);\r\n        }\r\n\r\n        /* EFFECTS */\r\n\r\n        /* Update underlying liability of Prime minter */\r\n        _liabilities[msg.sender][aUnderlying] = _liabilities[msg.sender][aUnderlying].add(qUnderlying);\r\n\r\n        /* INTERACTIONS */\r\n\r\n        /* Create Prime and Mint to msg.sender */\r\n        _nonce = _nonce.add(1);\r\n\r\n        bytes4 series = bytes4(\r\n            keccak256(abi.encodePacked(aUnderlying))) \r\n            ^ bytes4(keccak256(abi.encodePacked(aStrike))) \r\n            ^ bytes4(keccak256(abi.encodePacked(tExpiry))\r\n        );\r\n\r\n        bytes4 symbol = (\r\n            series \r\n            ^ bytes4(keccak256(abi.encodePacked(qUnderlying))) \r\n            ^ bytes4(keccak256(abi.encodePacked(qStrike)))\r\n        );\r\n\r\n        _primes[_nonce] = Instruments.Primes(\r\n            msg.sender, \r\n            qUnderlying,\r\n            aUnderlying, \r\n            qStrike, \r\n            aStrike, \r\n            tExpiry, \r\n            receiver,\r\n            series,\r\n            symbol\r\n        );\r\n\r\n        /* INTERACTIONS */\r\n        emit PrimeMinted(\r\n            msg.sender, \r\n            symbol,\r\n            _nonce\r\n        );\r\n\r\n        _safeMint(\r\n            msg.sender, \r\n            _nonce\r\n        );\r\n\r\n        /* If its an ERC-20 Prime, withdraw token from minter */\r\n        if(\r\n            /* aUnderlying != _poolAddress &&\r\n            msg.sender != _poolAddress && */\r\n            msg.sender != _instrumentController\r\n        ) {\r\n            ERC20 _aUnderlying = ERC20(aUnderlying);\r\n            isGreaterThanOrEqual(_aUnderlying.balanceOf(msg.sender), qUnderlying);\r\n            _aUnderlying.transferFrom(msg.sender, address(this), qUnderlying);\r\n            return _nonce;\r\n        }\r\n\r\n        return _nonce;\r\n    }\r\n\r\n    /** \r\n     * @dev Swaps strike asset for underlying\r\n     * @param tokenId ID of Prime.\r\n     * @return bool Success.\r\n     */\r\n    function exercise(\r\n        uint256 tokenId\r\n    ) \r\n        external \r\n        payable\r\n        override\r\n        nonReentrant\r\n        returns (bool) \r\n    {\r\n        /* CHECKS */\r\n        isTokenExpired(tokenId);\r\n        isOwner(tokenId, msg.sender);\r\n\r\n        /* Get Prime */\r\n        Instruments.Primes memory prime = _primes[tokenId];\r\n\r\n        /* If aStrike is a pool, its an Ether Put Prime, else its an ERC-20 Prime */\r\n        ERC20 aStrike = ERC20(prime.aStrike);\r\n\r\n        /* Require strike assets to be transferred into Prime contract */\r\n        if(prime.aStrike == _poolAddress) {\r\n            /* Strike asset is ether, so it should be transferred in as msg.value */\r\n            isGreaterThanOrEqual(msg.value, prime.qStrike);\r\n        } else {\r\n            /* Strike asset is a token, user should have a balance >= strike amount */\r\n            isGreaterThanOrEqual(aStrike.balanceOf(msg.sender), prime.qStrike);\r\n        }\r\n\r\n        /* EFFECTS */\r\n\r\n        /* UPDATE underlying BALANCE SHEET */\r\n\r\n        /* Original Minter has their underlying balance debited. */\r\n        _liabilities[prime.writer][prime.aUnderlying] = _liabilities[prime.writer][prime.aUnderlying].sub(prime.qUnderlying);\r\n        \r\n        /* Exercisor has their underlying balance credited. */\r\n        _assets[msg.sender][prime.aUnderlying] = _assets[msg.sender][prime.aUnderlying].add(prime.qUnderlying);\r\n        \r\n        /* UPDATE STRIKE BALANCE SHEET */\r\n\r\n        /* strike receiver has their strike balance credited. */\r\n        _assets[prime.receiver][prime.aStrike] = _assets[prime.receiver][prime.aStrike].add(prime.qStrike);\r\n        \r\n        \r\n        /* INTERACTIONS */\r\n\r\n        emit PrimeExercised(\r\n            msg.sender,\r\n            prime.symbol,\r\n            tokenId\r\n        );\r\n        \r\n        _burn(tokenId);\r\n\r\n        /* DEBIT THE EXERCISOR'S STRIKE */\r\n\r\n        /* If strike receiver is pool, pull strike asset from Prime */\r\n        if(prime.receiver == _poolAddress) {\r\n            /* Transfer the strike asset into the Prime Contract */\r\n            aStrike.transferFrom(msg.sender, address(this), prime.qStrike);\r\n            /* Calls the Pool to (1) Send underlying ether to Prime and (2) withdraw strike assets from Prime */\r\n            return _pool.exercise(prime.qUnderlying, prime.qStrike, prime.aStrike);\r\n        }\r\n\r\n        /* If strike asset is a token, transfer from user to Prime contract */\r\n        if(prime.aStrike != _poolAddress) {\r\n            return aStrike.transferFrom(msg.sender, address(this), prime.qStrike);\r\n        }\r\n\r\n        /* Strike asset is ether, it was already transferred in as msg.value */\r\n        return true;\r\n    }\r\n\r\n    /** \r\n     * @dev `msg.sender` Closes Prime and \r\n     * can withdraw underlying as Prime minter.\r\n     * Msg.sender can burn any Prime NFT \r\n     * that has matching properties when compared\r\n     * to their minted Prime NFT. This way, \r\n     * they can sell their Minted Prime, and if\r\n     * they need to close the position, \r\n     * they can buy another Prime rather than track down \r\n     * the exact one they sold/traded away. \r\n     * @param tokenToClose Prime NFT ID with Minter's underlying.\r\n     * @param tokenToBurn Prime NFT ID that Minter owns,\r\n     *  and intends to burn to withdraw underlying.\r\n     * @return bool Success.\r\n     */\r\n    function close(\r\n        uint256 tokenToClose,\r\n        uint256 tokenToBurn\r\n    ) \r\n        external \r\n        override\r\n        nonReentrant\r\n        returns (bool) \r\n    {\r\n        /* CHECKS */\r\n        isOwner(tokenToBurn, msg.sender);\r\n        arePrimesInSameSeries(tokenToClose, tokenToBurn);\r\n        isTokenExpired(tokenToBurn);\r\n\r\n        /* Get Prime that will get Burned */\r\n        Instruments.Primes memory burnPrime = _primes[tokenToBurn];\r\n        ERC20 aUnderlyingBurn = ERC20(burnPrime.aUnderlying);\r\n        isGreaterThanOrEqual(_assets[msg.sender][burnPrime.aUnderlying], 0);\r\n\r\n        /* EFFECTS */\r\n\r\n        /* Minter's underlying is debited. */\r\n        _liabilities[msg.sender][burnPrime.aUnderlying] = _liabilities[msg.sender][burnPrime.aUnderlying].sub(burnPrime.qUnderlying);\r\n\r\n        /* INTERACTIONS */\r\n        emit PrimeClosed(\r\n            msg.sender, \r\n            burnPrime.symbol,\r\n            tokenToBurn\r\n        );\r\n\r\n        _burn(tokenToBurn);\r\n\r\n        /* If the underlying asset is Ether, send ether to the user. */\r\n        if(burnPrime.aUnderlying == _poolAddress) {\r\n            return sendEther(burnPrime.qUnderlying, msg.sender);\r\n        }\r\n\r\n        /* Else, the underlying is an ERC-20 token. Send it to the user. */\r\n        return aUnderlyingBurn.transfer(msg.sender, burnPrime.qUnderlying);\r\n    }\r\n\r\n    /** \r\n     * @dev Users pull their assets from the Prime contract\r\n     * @param amount Quantity to withdraw.\r\n     * @param asset Address of asset.\r\n     * @return success\r\n     */\r\n    function withdraw(\r\n        uint256 amount, \r\n        address asset\r\n    ) \r\n        public \r\n        override\r\n        returns (bool) \r\n    {\r\n        /* CHECKS */\r\n        /* Checks User's ledger balance */\r\n        uint256 assetBal = _assets[msg.sender][asset];\r\n        isGreaterThanOrEqual(assetBal, amount);\r\n\r\n        /* EFFECTS */\r\n\r\n        /* User's account is debited */\r\n        _assets[msg.sender][asset] = assetBal.sub(amount);\r\n\r\n        /* INTERACTIONS  */\r\n        emit Withdrawal(\r\n            msg.sender, \r\n            amount,\r\n            asset\r\n        );\r\n\r\n        /* If asset is Ether (pool address), withdraw ether */\r\n        if(asset == _poolAddress) {\r\n            return sendEther(amount, msg.sender);\r\n        }\r\n\r\n        /* Else, asset is a token, transfer it to user. */\r\n        ERC20 erc20 = ERC20(asset);\r\n        return erc20.transfer(msg.sender, amount);\r\n    }\r\n\r\n    /* CAPITAL MANAGEMENT FUNCTION */\r\n\r\n    function sendEther(uint256 amount, address payable to) internal returns (bool) {\r\n        (bool success, ) = to.call.value(amount)(\"\");\r\n        require(success, \"Transfer failed.\");\r\n        return success;\r\n    }\r\n\r\n\r\n    /* VIEW FUNCTIONS */\r\n\r\n\r\n    /** \r\n     * @dev Public view function to get Prime properties.\r\n     */\r\n    function getPrime(uint256 tokenId) external view returns (\r\n            address writer,\r\n            uint256 qUnderlying,\r\n            address aUnderlying,\r\n            uint256 qStrike,\r\n            address aStrike,\r\n            uint256 tExpiry,\r\n            address receiver,\r\n            bytes4 series,\r\n            bytes4 symbol\r\n        ) {\r\n            Instruments.Primes memory _prime = _primes[tokenId];\r\n            return (\r\n                _prime.writer,\r\n                _prime.qUnderlying,\r\n                _prime.aUnderlying,\r\n                _prime.qStrike,\r\n                _prime.aStrike,\r\n                _prime.tExpiry,\r\n                _prime.receiver,\r\n                _prime.series,\r\n                _prime.symbol\r\n            );\r\n    }\r\n\r\n    function getSeries(uint256 tokenId) public view returns (\r\n            bytes4 series\r\n        ) {\r\n            Instruments.Primes memory _prime = _primes[tokenId];\r\n            return (\r\n                _prime.series\r\n            );\r\n    }\r\n\r\n    function getSymbol(uint256 tokenId) public view returns (\r\n            bytes4 symbol\r\n        ) {\r\n            Instruments.Primes memory _prime = _primes[tokenId];\r\n            return (\r\n                _prime.symbol\r\n            );\r\n    }\r\n\r\n    /** \r\n     * @dev Public view function to get the Bank's balance of a User\r\n     */\r\n    function getAssetBalance(address user, address asset) public view returns (uint256) {\r\n            return _assets[user][asset];\r\n    }\r\n\r\n    function isTokenExpired(uint256 tokenId) public view returns(bool) {\r\n        require( _primes[tokenId].tExpiry >= block.timestamp, 'expired');\r\n        return true;\r\n    }\r\n\r\n    function isOwner(uint256 tokenId, address user) public view returns(bool) {\r\n        require(ownerOf(tokenId) == user, '!own');\r\n        return true;\r\n    }\r\n\r\n    function isGreaterThanOrEqual(uint256 a, uint256 b) public pure returns(bool) {\r\n        require(a >= b, 'a < b');\r\n        return true;\r\n    }\r\n\r\n\r\n    /* UTILITY FUNCTIONS */\r\n\r\n\r\n    /** \r\n     * @dev Utility to compare hashes of Prime properties using symbol attribute\r\n     * @param tokenId1 id of token 1\r\n     * @param tokenId2 id of token 2\r\n     * @return bool of whether Instruments.Primes match.\r\n    */\r\n    function arePrimesInSameSeries(\r\n        uint256 tokenId1,\r\n        uint256 tokenId2\r\n    ) \r\n        public \r\n        view \r\n        returns\r\n        (bool)\r\n    {\r\n        bytes4 hash1 = getSymbol(tokenId1);\r\n        bytes4 hash2 = getSymbol(tokenId2);\r\n\r\n        require(hash1 == hash2, 'Props !=');\r\n        return hash1 == hash2;\r\n    }\r\n}",
  "sourcePath": "C:\\Users\\alexa\\OneDrive\\Documents\\Master\\Blockchain\\Projects\\carbon\\contracts\\ERC721\\Prime.sol",
  "compiler": {
    "name": "solc",
    "version": "0.6.2+commit.bacdbe57.Emscripten.clang"
  },
  "schemaVersion": "3.0.23",
  "updatedAt": "2020-04-14T03:36:06.767Z",
  "devdoc": {
    "methods": {
      "approve(address,uint256)": {
        "details": "Approves another address to transfer the given token ID The zero address indicates there is no approved address. There can only be one approved address per token at a given time. Can only be called by the token owner or an approved operator.",
        "params": {
          "to": "address to be approved for the given token ID",
          "tokenId": "uint256 ID of the token to be approved"
        }
      },
      "balanceOf(address)": {
        "details": "Gets the balance of the specified address.",
        "params": {
          "owner": "address to query the balance of"
        },
        "returns": {
          "_0": "uint256 representing the amount owned by the passed address"
        }
      },
      "baseURI()": {
        "details": "Returns the base URI set via {_setBaseURI}. This will be automatically added as a preffix in {tokenURI} to each token's URI, when they are non-empty."
      },
      "constructor": {
        "details": "Constructor function"
      },
      "getApproved(uint256)": {
        "details": "Gets the approved address for a token ID, or zero if no address set Reverts if the token ID does not exist.",
        "params": {
          "tokenId": "uint256 ID of the token to query the approval of"
        },
        "returns": {
          "_0": "address currently approved for the given token ID"
        }
      },
      "isApprovedForAll(address,address)": {
        "details": "Tells whether an operator is approved by a given owner.",
        "params": {
          "operator": "operator address which you want to query the approval of",
          "owner": "owner address which you want to query the approval of"
        },
        "returns": {
          "_0": "bool whether the given operator is approved by the given owner"
        }
      },
      "name()": {
        "details": "Gets the token name.",
        "returns": {
          "_0": "string representing the token name"
        }
      },
      "ownerOf(uint256)": {
        "details": "Gets the owner of the specified token ID.",
        "params": {
          "tokenId": "uint256 ID of the token to query the owner of"
        },
        "returns": {
          "_0": "address currently marked as the owner of the given token ID"
        }
      },
      "safeTransferFrom(address,address,uint256)": {
        "details": "Safely transfers the ownership of a given token ID to another address If the target address is a contract, it must implement {IERC721Receiver-onERC721Received}, which is called upon a safe transfer, and return the magic value `bytes4(keccak256(\"onERC721Received(address,address,uint256,bytes)\"))`; otherwise, the transfer is reverted. Requires the msg.sender to be the owner, approved, or operator",
        "params": {
          "from": "current owner of the token",
          "to": "address to receive the ownership of the given token ID",
          "tokenId": "uint256 ID of the token to be transferred"
        }
      },
      "safeTransferFrom(address,address,uint256,bytes)": {
        "details": "Safely transfers the ownership of a given token ID to another address If the target address is a contract, it must implement {IERC721Receiver-onERC721Received}, which is called upon a safe transfer, and return the magic value `bytes4(keccak256(\"onERC721Received(address,address,uint256,bytes)\"))`; otherwise, the transfer is reverted. Requires the _msgSender() to be the owner, approved, or operator",
        "params": {
          "_data": "bytes data to send along with a safe transfer check",
          "from": "current owner of the token",
          "to": "address to receive the ownership of the given token ID",
          "tokenId": "uint256 ID of the token to be transferred"
        }
      },
      "setApprovalForAll(address,bool)": {
        "details": "Sets or unsets the approval of a given operator An operator is allowed to transfer all tokens of the sender on their behalf.",
        "params": {
          "approved": "representing the status of the approval to be set",
          "operator": "operator address to set the approval"
        }
      },
      "supportsInterface(bytes4)": {
        "details": "See {IERC165-supportsInterface}.      * Time complexity O(1), guaranteed to always use less than 30 000 gas."
      },
      "symbol()": {
        "details": "Gets the token symbol.",
        "returns": {
          "_0": "string representing the token symbol"
        }
      },
      "tokenURI(uint256)": {
        "details": "Returns the URI for a given token ID. May return an empty string.      * If the token's URI is non-empty and a base URI was set (via {_setBaseURI}), it will be added to the token ID's URI as a prefix.      * Reverts if the token ID does not exist."
      },
      "transferFrom(address,address,uint256)": {
        "details": "Transfers the ownership of a given token ID to another address. Usage of this method is discouraged, use {safeTransferFrom} whenever possible. Requires the msg.sender to be the owner, approved, or operator.",
        "params": {
          "from": "current owner of the token",
          "to": "address to receive the ownership of the given token ID",
          "tokenId": "uint256 ID of the token to be transferred"
        }
      }
    }
  },
  "userdoc": {
    "methods": {}
  }
}