{
  "contractName": "ExchangeERC20",
  "abi": [
    {
      "inputs": [
        {
          "internalType": "address",
          "name": "prime",
          "type": "address"
        }
      ],
      "stateMutability": "nonpayable",
      "type": "constructor"
    },
    {
      "anonymous": false,
      "inputs": [
        {
          "indexed": true,
          "internalType": "address",
          "name": "owner",
          "type": "address"
        },
        {
          "indexed": true,
          "internalType": "address",
          "name": "spender",
          "type": "address"
        },
        {
          "indexed": false,
          "internalType": "uint256",
          "name": "value",
          "type": "uint256"
        }
      ],
      "name": "Approval",
      "type": "event"
    },
    {
      "anonymous": false,
      "inputs": [
        {
          "indexed": true,
          "internalType": "address",
          "name": "from",
          "type": "address"
        },
        {
          "indexed": true,
          "internalType": "address",
          "name": "to",
          "type": "address"
        },
        {
          "indexed": false,
          "internalType": "uint256",
          "name": "value",
          "type": "uint256"
        }
      ],
      "name": "Transfer",
      "type": "event"
    },
    {
      "inputs": [],
      "name": "_controller",
      "outputs": [
        {
          "internalType": "address",
          "name": "",
          "type": "address"
        }
      ],
      "stateMutability": "view",
      "type": "function"
    },
    {
      "inputs": [],
      "name": "_prime",
      "outputs": [
        {
          "internalType": "contract IPrimeERC20",
          "name": "",
          "type": "address"
        }
      ],
      "stateMutability": "view",
      "type": "function"
    },
    {
      "inputs": [],
      "name": "_y",
      "outputs": [
        {
          "internalType": "uint256",
          "name": "",
          "type": "uint256"
        }
      ],
      "stateMutability": "view",
      "type": "function"
    },
    {
      "inputs": [
        {
          "internalType": "address",
          "name": "owner",
          "type": "address"
        },
        {
          "internalType": "address",
          "name": "spender",
          "type": "address"
        }
      ],
      "name": "allowance",
      "outputs": [
        {
          "internalType": "uint256",
          "name": "",
          "type": "uint256"
        }
      ],
      "stateMutability": "view",
      "type": "function"
    },
    {
      "inputs": [
        {
          "internalType": "address",
          "name": "spender",
          "type": "address"
        },
        {
          "internalType": "uint256",
          "name": "amount",
          "type": "uint256"
        }
      ],
      "name": "approve",
      "outputs": [
        {
          "internalType": "bool",
          "name": "",
          "type": "bool"
        }
      ],
      "stateMutability": "nonpayable",
      "type": "function"
    },
    {
      "inputs": [
        {
          "internalType": "address",
          "name": "account",
          "type": "address"
        }
      ],
      "name": "balanceOf",
      "outputs": [
        {
          "internalType": "uint256",
          "name": "",
          "type": "uint256"
        }
      ],
      "stateMutability": "view",
      "type": "function"
    },
    {
      "inputs": [],
      "name": "decimals",
      "outputs": [
        {
          "internalType": "uint8",
          "name": "",
          "type": "uint8"
        }
      ],
      "stateMutability": "view",
      "type": "function"
    },
    {
      "inputs": [
        {
          "internalType": "address",
          "name": "spender",
          "type": "address"
        },
        {
          "internalType": "uint256",
          "name": "subtractedValue",
          "type": "uint256"
        }
      ],
      "name": "decreaseAllowance",
      "outputs": [
        {
          "internalType": "bool",
          "name": "",
          "type": "bool"
        }
      ],
      "stateMutability": "nonpayable",
      "type": "function"
    },
    {
      "inputs": [
        {
          "internalType": "address",
          "name": "spender",
          "type": "address"
        },
        {
          "internalType": "uint256",
          "name": "addedValue",
          "type": "uint256"
        }
      ],
      "name": "increaseAllowance",
      "outputs": [
        {
          "internalType": "bool",
          "name": "",
          "type": "bool"
        }
      ],
      "stateMutability": "nonpayable",
      "type": "function"
    },
    {
      "inputs": [],
      "name": "name",
      "outputs": [
        {
          "internalType": "string",
          "name": "",
          "type": "string"
        }
      ],
      "stateMutability": "view",
      "type": "function"
    },
    {
      "inputs": [],
      "name": "symbol",
      "outputs": [
        {
          "internalType": "string",
          "name": "",
          "type": "string"
        }
      ],
      "stateMutability": "view",
      "type": "function"
    },
    {
      "inputs": [],
      "name": "totalSupply",
      "outputs": [
        {
          "internalType": "uint256",
          "name": "",
          "type": "uint256"
        }
      ],
      "stateMutability": "view",
      "type": "function"
    },
    {
      "inputs": [
        {
          "internalType": "address",
          "name": "recipient",
          "type": "address"
        },
        {
          "internalType": "uint256",
          "name": "amount",
          "type": "uint256"
        }
      ],
      "name": "transfer",
      "outputs": [
        {
          "internalType": "bool",
          "name": "",
          "type": "bool"
        }
      ],
      "stateMutability": "nonpayable",
      "type": "function"
    },
    {
      "inputs": [
        {
          "internalType": "address",
          "name": "sender",
          "type": "address"
        },
        {
          "internalType": "address",
          "name": "recipient",
          "type": "address"
        },
        {
          "internalType": "uint256",
          "name": "amount",
          "type": "uint256"
        }
      ],
      "name": "transferFrom",
      "outputs": [
        {
          "internalType": "bool",
          "name": "",
          "type": "bool"
        }
      ],
      "stateMutability": "nonpayable",
      "type": "function"
    },
    {
      "stateMutability": "payable",
      "type": "receive"
    },
    {
      "inputs": [
        {
          "internalType": "uint256",
          "name": "minQLiquidity",
          "type": "uint256"
        },
        {
          "internalType": "uint256",
          "name": "maxQTokens",
          "type": "uint256"
        }
      ],
      "name": "addLiquidity",
      "outputs": [
        {
          "internalType": "uint256",
          "name": "",
          "type": "uint256"
        }
      ],
      "stateMutability": "payable",
      "type": "function"
    },
    {
      "inputs": [
        {
          "internalType": "uint256",
          "name": "qLiquidity",
          "type": "uint256"
        },
        {
          "internalType": "uint256",
          "name": "minQEth",
          "type": "uint256"
        },
        {
          "internalType": "uint256",
          "name": "minQTokens",
          "type": "uint256"
        }
      ],
      "name": "removeLiquidity",
      "outputs": [
        {
          "internalType": "uint256",
          "name": "",
          "type": "uint256"
        },
        {
          "internalType": "uint256",
          "name": "",
          "type": "uint256"
        }
      ],
      "stateMutability": "nonpayable",
      "type": "function"
    },
    {
      "inputs": [
        {
          "internalType": "uint256",
          "name": "qTokens",
          "type": "uint256"
        },
        {
          "internalType": "uint256",
          "name": "minQEth",
          "type": "uint256"
        },
        {
          "internalType": "address payable",
          "name": "receiver",
          "type": "address"
        }
      ],
      "name": "swapTokensToEth",
      "outputs": [
        {
          "internalType": "uint256",
          "name": "",
          "type": "uint256"
        }
      ],
      "stateMutability": "nonpayable",
      "type": "function"
    },
    {
      "inputs": [
        {
          "internalType": "uint256",
          "name": "qTokens",
          "type": "uint256"
        },
        {
          "internalType": "uint256",
          "name": "minQEth",
          "type": "uint256"
        },
        {
          "internalType": "address",
          "name": "buyer",
          "type": "address"
        },
        {
          "internalType": "address payable",
          "name": "receiver",
          "type": "address"
        }
      ],
      "name": "tokensToEth",
      "outputs": [
        {
          "internalType": "uint256",
          "name": "",
          "type": "uint256"
        }
      ],
      "stateMutability": "nonpayable",
      "type": "function"
    },
    {
      "inputs": [
        {
          "internalType": "uint256",
          "name": "qTokens",
          "type": "uint256"
        }
      ],
      "name": "swapEthToTokens",
      "outputs": [
        {
          "internalType": "uint256",
          "name": "",
          "type": "uint256"
        }
      ],
      "stateMutability": "payable",
      "type": "function"
    },
    {
      "inputs": [
        {
          "internalType": "uint256",
          "name": "qInput",
          "type": "uint256"
        },
        {
          "internalType": "uint256",
          "name": "rInput",
          "type": "uint256"
        },
        {
          "internalType": "uint256",
          "name": "rOutput",
          "type": "uint256"
        }
      ],
      "name": "getInputPrice",
      "outputs": [
        {
          "internalType": "uint256",
          "name": "",
          "type": "uint256"
        }
      ],
      "stateMutability": "view",
      "type": "function"
    },
    {
      "inputs": [
        {
          "internalType": "uint256",
          "name": "qOutput",
          "type": "uint256"
        },
        {
          "internalType": "uint256",
          "name": "rInput",
          "type": "uint256"
        },
        {
          "internalType": "uint256",
          "name": "rOutput",
          "type": "uint256"
        }
      ],
      "name": "getOutputPrice",
      "outputs": [
        {
          "internalType": "uint256",
          "name": "",
          "type": "uint256"
        }
      ],
      "stateMutability": "view",
      "type": "function"
    },
    {
      "inputs": [],
      "name": "tokenReserves",
      "outputs": [
        {
          "internalType": "uint256",
          "name": "",
          "type": "uint256"
        }
      ],
      "stateMutability": "view",
      "type": "function"
    }
  ],
  "bytecode": "0x60806040523480156200001157600080fd5b5060405162002c1538038062002c15833981810160405260208110156200003757600080fd5b81019080805190602001909291905050506040518060400160405280600581526020017f6550554c500000000000000000000000000000000000000000000000000000008152506040518060400160405280601c81526020017f45786368616e6765205072696d6974697665204c5020546f6b656e730000000081525060128260009080519060200190620000ce9291906200018f565b508160019080519060200190620000e79291906200018f565b5080600260006101000a81548160ff021916908360ff16021790555050505033600660006101000a81548173ffffffffffffffffffffffffffffffffffffffff021916908373ffffffffffffffffffffffffffffffffffffffff16021790555080600760006101000a81548173ffffffffffffffffffffffffffffffffffffffff021916908373ffffffffffffffffffffffffffffffffffffffff160217905550506200023e565b828054600181600116156101000203166002900490600052602060002090601f016020900481019282601f10620001d257805160ff191683800117855562000203565b8280016001018555821562000203579182015b8281111562000202578251825591602001919060010190620001e5565b5b50905062000212919062000216565b5090565b6200023b91905b80821115620002375760008160009055506001016200021d565b5090565b90565b6129c7806200024e6000396000f3fe6080604052600436106101395760003560e01c806389f2a871116100ab578063d93968e11161006f578063d93968e11461078d578063dd3f952614610806578063dd62ed3e1461085d578063e07acf17146108e2578063e790e3eb14610939578063fd11c2231461097b57610140565b806389f2a8711461056857806395d89b41146105cb5780639cd441da1461065b578063a457c2d7146106a7578063a9059cbb1461071a57610140565b8063313ce567116100fd578063313ce5671461033157806339509351146103625780634bad9510146103d55780635b8219fa1461040057806370a0823114610499578063857620e1146104fe57610140565b806306fdde0314610145578063095ea7b3146101d557806318160ddd1461024857806323b872dd1461027357806328726bda1461030657610140565b3661014057005b600080fd5b34801561015157600080fd5b5061015a6109de565b6040518080602001828103825283818151815260200191508051906020019080838360005b8381101561019a57808201518184015260208101905061017f565b50505050905090810190601f1680156101c75780820380516001836020036101000a031916815260200191505b509250505060405180910390f35b3480156101e157600080fd5b5061022e600480360360408110156101f857600080fd5b81019080803573ffffffffffffffffffffffffffffffffffffffff16906020019092919080359060200190929190505050610a80565b604051808215151515815260200191505060405180910390f35b34801561025457600080fd5b5061025d610a9e565b6040518082815260200191505060405180910390f35b34801561027f57600080fd5b506102ec6004803603606081101561029657600080fd5b81019080803573ffffffffffffffffffffffffffffffffffffffff169060200190929190803573ffffffffffffffffffffffffffffffffffffffff16906020019092919080359060200190929190505050610aa8565b604051808215151515815260200191505060405180910390f35b34801561031257600080fd5b5061031b610b81565b6040518082815260200191505060405180910390f35b34801561033d57600080fd5b50610346610b87565b604051808260ff1660ff16815260200191505060405180910390f35b34801561036e57600080fd5b506103bb6004803603604081101561038557600080fd5b81019080803573ffffffffffffffffffffffffffffffffffffffff16906020019092919080359060200190929190505050610b9e565b604051808215151515815260200191505060405180910390f35b3480156103e157600080fd5b506103ea610c51565b6040518082815260200191505060405180910390f35b34801561040c57600080fd5b506104836004803603608081101561042357600080fd5b810190808035906020019092919080359060200190929190803573ffffffffffffffffffffffffffffffffffffffff169060200190929190803573ffffffffffffffffffffffffffffffffffffffff169060200190929190505050610d32565b6040518082815260200191505060405180910390f35b3480156104a557600080fd5b506104e8600480360360208110156104bc57600080fd5b81019080803573ffffffffffffffffffffffffffffffffffffffff169060200190929190505050610f0c565b6040518082815260200191505060405180910390f35b34801561050a57600080fd5b5061054b6004803603606081101561052157600080fd5b81019080803590602001909291908035906020019092919080359060200190929190505050610f55565b604051808381526020018281526020019250505060405180910390f35b34801561057457600080fd5b506105b56004803603606081101561058b57600080fd5b8101908080359060200190929190803590602001909291908035906020019092919050505061125f565b6040518082815260200191505060405180910390f35b3480156105d757600080fd5b506105e06112da565b6040518080602001828103825283818151815260200191508051906020019080838360005b83811015610620578082015181840152602081019050610605565b50505050905090810190601f16801561064d5780820380516001836020036101000a031916815260200191505b509250505060405180910390f35b6106916004803603604081101561067157600080fd5b81019080803590602001909291908035906020019092919050505061137c565b6040518082815260200191505060405180910390f35b3480156106b357600080fd5b50610700600480360360408110156106ca57600080fd5b81019080803573ffffffffffffffffffffffffffffffffffffffff169060200190929190803590602001909291905050506116ac565b604051808215151515815260200191505060405180910390f35b34801561072657600080fd5b506107736004803603604081101561073d57600080fd5b81019080803573ffffffffffffffffffffffffffffffffffffffff16906020019092919080359060200190929190505050611779565b604051808215151515815260200191505060405180910390f35b34801561079957600080fd5b506107f0600480360360608110156107b057600080fd5b810190808035906020019092919080359060200190929190803573ffffffffffffffffffffffffffffffffffffffff169060200190929190505050611797565b6040518082815260200191505060405180910390f35b34801561081257600080fd5b5061081b6118fd565b604051808273ffffffffffffffffffffffffffffffffffffffff1673ffffffffffffffffffffffffffffffffffffffff16815260200191505060405180910390f35b34801561086957600080fd5b506108cc6004803603604081101561088057600080fd5b81019080803573ffffffffffffffffffffffffffffffffffffffff169060200190929190803573ffffffffffffffffffffffffffffffffffffffff169060200190929190505050611923565b6040518082815260200191505060405180910390f35b3480156108ee57600080fd5b506108f76119aa565b604051808273ffffffffffffffffffffffffffffffffffffffff1673ffffffffffffffffffffffffffffffffffffffff16815260200191505060405180910390f35b6109656004803603602081101561094f57600080fd5b81019080803590602001909291905050506119d0565b6040518082815260200191505060405180910390f35b34801561098757600080fd5b506109c86004803603606081101561099e57600080fd5b81019080803590602001909291908035906020019092919080359060200190929190505050611b37565b6040518082815260200191505060405180910390f35b606060008054600181600116156101000203166002900480601f016020809104026020016040519081016040528092919081815260200182805460018160011615610100020316600290048015610a765780601f10610a4b57610100808354040283529160200191610a76565b820191906000526020600020905b815481529060010190602001808311610a5957829003601f168201915b5050505050905090565b6000610a94610a8d611bc5565b8484611bcd565b6001905092915050565b6000600554905090565b6000610ab5848484611dc4565b610b7684610ac1611bc5565b610b71856040518060600160405280602881526020016128db60289139600460008b73ffffffffffffffffffffffffffffffffffffffff1673ffffffffffffffffffffffffffffffffffffffff1681526020019081526020016000206000610b27611bc5565b73ffffffffffffffffffffffffffffffffffffffff1673ffffffffffffffffffffffffffffffffffffffff168152602001908152602001600020546120899092919063ffffffff16565b611bcd565b600190509392505050565b60085481565b6000600260009054906101000a900460ff16905090565b6000610c47610bab611bc5565b84610c428560046000610bbc611bc5565b73ffffffffffffffffffffffffffffffffffffffff1673ffffffffffffffffffffffffffffffffffffffff16815260200190815260200160002060008973ffffffffffffffffffffffffffffffffffffffff1673ffffffffffffffffffffffffffffffffffffffff1681526020019081526020016000205461214990919063ffffffff16565b611bcd565b6001905092915050565b6000600760009054906101000a900473ffffffffffffffffffffffffffffffffffffffff1673ffffffffffffffffffffffffffffffffffffffff166370a08231306040518263ffffffff1660e01b8152600401808273ffffffffffffffffffffffffffffffffffffffff1673ffffffffffffffffffffffffffffffffffffffff16815260200191505060206040518083038186803b158015610cf257600080fd5b505afa158015610d06573d6000803e3d6000fd5b505050506040513d6020811015610d1c57600080fd5b8101908080519060200190929190505050905090565b600080610d3d610c51565b90506000610d6387833073ffffffffffffffffffffffffffffffffffffffff163161125f565b905085811015610ddb576040517f08c379a000000000000000000000000000000000000000000000000000000000815260040180806020018281038252600b8152602001807f4552525f42414c5f45544800000000000000000000000000000000000000000081525060200191505060405180910390fd5b600760009054906101000a900473ffffffffffffffffffffffffffffffffffffffff1673ffffffffffffffffffffffffffffffffffffffff166323b872dd86308a6040518463ffffffff1660e01b8152600401808473ffffffffffffffffffffffffffffffffffffffff1673ffffffffffffffffffffffffffffffffffffffff1681526020018373ffffffffffffffffffffffffffffffffffffffff1673ffffffffffffffffffffffffffffffffffffffff1681526020018281526020019350505050602060405180830381600087803b158015610eb857600080fd5b505af1158015610ecc573d6000803e3d6000fd5b505050506040513d6020811015610ee257600080fd5b810190808051906020019092919050505050610efe84826121d1565b508092505050949350505050565b6000600360008373ffffffffffffffffffffffffffffffffffffffff1673ffffffffffffffffffffffffffffffffffffffff168152602001908152602001600020549050919050565b600080600085118015610f685750600084115b8015610f745750600083115b610fe6576040517f08c379a00000000000000000000000000000000000000000000000000000000081526004018080602001828103825260088152602001807f4552525f5a45524f00000000000000000000000000000000000000000000000081525060200191505060405180910390fd5b6000610ff0610a9e565b90506000610ffc610c51565b9050600061103c8361102e3073ffffffffffffffffffffffffffffffffffffffff16318b6122b890919063ffffffff16565b61233e90919063ffffffff16565b9050600061106584611057858c6122b890919063ffffffff16565b61233e90919063ffffffff16565b9050878210156110dd576040517f08c379a000000000000000000000000000000000000000000000000000000000815260040180806020018281038252600b8152602001807f4552525f42414c5f45544800000000000000000000000000000000000000000081525060200191505060405180910390fd5b86811015611153576040517f08c379a000000000000000000000000000000000000000000000000000000000815260040180806020018281038252600e8152602001807f4552525f42414c5f544f4b454e5300000000000000000000000000000000000081525060200191505060405180910390fd5b61115d338a612388565b600760009054906101000a900473ffffffffffffffffffffffffffffffffffffffff1673ffffffffffffffffffffffffffffffffffffffff1663a9059cbb33836040518363ffffffff1660e01b8152600401808373ffffffffffffffffffffffffffffffffffffffff1673ffffffffffffffffffffffffffffffffffffffff16815260200182815260200192505050602060405180830381600087803b15801561120657600080fd5b505af115801561121a573d6000803e3d6000fd5b505050506040513d602081101561123057600080fd5b81019080805190602001909291905050505061124c33836121d1565b5088829550955050505050935093915050565b6000806112898361127b6103e8886122b890919063ffffffff16565b6122b890919063ffffffff16565b905060006112b4866112a66103e8886122b890919063ffffffff16565b61214990919063ffffffff16565b905060006112cb828461233e90919063ffffffff16565b90508093505050509392505050565b606060018054600181600116156101000203166002900480601f0160208091040260200160405190810160405280929190818152602001828054600181600116156101000203166002900480156113725780601f1061134757610100808354040283529160200191611372565b820191906000526020600020905b81548152906001019060200180831161135557829003601f168201915b5050505050905090565b600080611387610a9e565b905060008111156115615760006113be343073ffffffffffffffffffffffffffffffffffffffff163161254e90919063ffffffff16565b905060006113ca610c51565b9050600061140660016113f8856113ea86346122b890919063ffffffff16565b61233e90919063ffffffff16565b61254e90919063ffffffff16565b9050600061142f8461142187346122b890919063ffffffff16565b61233e90919063ffffffff16565b905061143b3382612598565b600760009054906101000a900473ffffffffffffffffffffffffffffffffffffffff1673ffffffffffffffffffffffffffffffffffffffff166323b872dd3330856040518463ffffffff1660e01b8152600401808473ffffffffffffffffffffffffffffffffffffffff1673ffffffffffffffffffffffffffffffffffffffff1681526020018373ffffffffffffffffffffffffffffffffffffffff1673ffffffffffffffffffffffffffffffffffffffff1681526020018281526020019350505050602060405180830381600087803b15801561151857600080fd5b505af115801561152c573d6000803e3d6000fd5b505050506040513d602081101561154257600080fd5b81019080805190602001909291905050505080955050505050506116a6565b60003073ffffffffffffffffffffffffffffffffffffffff163190506115873382612598565b600760009054906101000a900473ffffffffffffffffffffffffffffffffffffffff1673ffffffffffffffffffffffffffffffffffffffff166323b872dd3330876040518463ffffffff1660e01b8152600401808473ffffffffffffffffffffffffffffffffffffffff1673ffffffffffffffffffffffffffffffffffffffff1681526020018373ffffffffffffffffffffffffffffffffffffffff1673ffffffffffffffffffffffffffffffffffffffff1681526020018281526020019350505050602060405180830381600087803b15801561166457600080fd5b505af1158015611678573d6000803e3d6000fd5b505050506040513d602081101561168e57600080fd5b81019080805190602001909291905050505080925050505b92915050565b600061176f6116b9611bc5565b8461176a8560405180606001604052806025815260200161296d60259139600460006116e3611bc5565b73ffffffffffffffffffffffffffffffffffffffff1673ffffffffffffffffffffffffffffffffffffffff16815260200190815260200160002060008a73ffffffffffffffffffffffffffffffffffffffff1673ffffffffffffffffffffffffffffffffffffffff168152602001908152602001600020546120899092919063ffffffff16565b611bcd565b6001905092915050565b600061178d611786611bc5565b8484611dc4565b6001905092915050565b600083600760009054906101000a900473ffffffffffffffffffffffffffffffffffffffff1673ffffffffffffffffffffffffffffffffffffffff166370a08231336040518263ffffffff1660e01b8152600401808273ffffffffffffffffffffffffffffffffffffffff1673ffffffffffffffffffffffffffffffffffffffff16815260200191505060206040518083038186803b15801561183957600080fd5b505afa15801561184d573d6000803e3d6000fd5b505050506040513d602081101561186357600080fd5b810190808051906020019092919050505010156118e8576040517f08c379a000000000000000000000000000000000000000000000000000000000815260040180806020018281038252600f8152602001807f4552525f42414c5f4f5054494f4e53000000000000000000000000000000000081525060200191505060405180910390fd5b6118f484843385610d32565b90509392505050565b600660009054906101000a900473ffffffffffffffffffffffffffffffffffffffff1681565b6000600460008473ffffffffffffffffffffffffffffffffffffffff1673ffffffffffffffffffffffffffffffffffffffff16815260200190815260200160002060008373ffffffffffffffffffffffffffffffffffffffff1673ffffffffffffffffffffffffffffffffffffffff16815260200190815260200160002054905092915050565b600760009054906101000a900473ffffffffffffffffffffffffffffffffffffffff1681565b60008034905060006119e0610c51565b90506000611a1885611a12853073ffffffffffffffffffffffffffffffffffffffff163161254e90919063ffffffff16565b84611b37565b90506000611a2f828561254e90919063ffffffff16565b90506000811115611a4657611a4433826121d1565b505b600760009054906101000a900473ffffffffffffffffffffffffffffffffffffffff1673ffffffffffffffffffffffffffffffffffffffff1663a9059cbb33886040518363ffffffff1660e01b8152600401808373ffffffffffffffffffffffffffffffffffffffff1673ffffffffffffffffffffffffffffffffffffffff16815260200182815260200192505050602060405180830381600087803b158015611aef57600080fd5b505af1158015611b03573d6000803e3d6000fd5b505050506040513d6020811015611b1957600080fd5b81019080805190602001909291905050505081945050505050919050565b600080611b6184611b536103e8886122b890919063ffffffff16565b6122b890919063ffffffff16565b90506000611b8c6103e8611b7e888761254e90919063ffffffff16565b6122b890919063ffffffff16565b90506000611bb66001611ba8848661233e90919063ffffffff16565b61214990919063ffffffff16565b90508093505050509392505050565b600033905090565b600073ffffffffffffffffffffffffffffffffffffffff168373ffffffffffffffffffffffffffffffffffffffff161415611c53576040517f08c379a00000000000000000000000000000000000000000000000000000000081526004018080602001828103825260248152602001806129496024913960400191505060405180910390fd5b600073ffffffffffffffffffffffffffffffffffffffff168273ffffffffffffffffffffffffffffffffffffffff161415611cd9576040517f08c379a00000000000000000000000000000000000000000000000000000000081526004018080602001828103825260228152602001806128726022913960400191505060405180910390fd5b80600460008573ffffffffffffffffffffffffffffffffffffffff1673ffffffffffffffffffffffffffffffffffffffff16815260200190815260200160002060008473ffffffffffffffffffffffffffffffffffffffff1673ffffffffffffffffffffffffffffffffffffffff168152602001908152602001600020819055508173ffffffffffffffffffffffffffffffffffffffff168373ffffffffffffffffffffffffffffffffffffffff167f8c5be1e5ebec7d5bd14f71427d1e84f3dd0314c0f7b2291e5b200ac8c7c3b925836040518082815260200191505060405180910390a3505050565b600073ffffffffffffffffffffffffffffffffffffffff168373ffffffffffffffffffffffffffffffffffffffff161415611e4a576040517f08c379a00000000000000000000000000000000000000000000000000000000081526004018080602001828103825260258152602001806129246025913960400191505060405180910390fd5b600073ffffffffffffffffffffffffffffffffffffffff168273ffffffffffffffffffffffffffffffffffffffff161415611ed0576040517f08c379a000000000000000000000000000000000000000000000000000000000815260040180806020018281038252602381526020018061282d6023913960400191505060405180910390fd5b611edb838383612761565b611f478160405180606001604052806026815260200161289460269139600360008773ffffffffffffffffffffffffffffffffffffffff1673ffffffffffffffffffffffffffffffffffffffff168152602001908152602001600020546120899092919063ffffffff16565b600360008573ffffffffffffffffffffffffffffffffffffffff1673ffffffffffffffffffffffffffffffffffffffff16815260200190815260200160002081905550611fdc81600360008573ffffffffffffffffffffffffffffffffffffffff1673ffffffffffffffffffffffffffffffffffffffff1681526020019081526020016000205461214990919063ffffffff16565b600360008473ffffffffffffffffffffffffffffffffffffffff1673ffffffffffffffffffffffffffffffffffffffff168152602001908152602001600020819055508173ffffffffffffffffffffffffffffffffffffffff168373ffffffffffffffffffffffffffffffffffffffff167fddf252ad1be2c89b69c2b068fc378daa952ba7f163c4a11628f55a4df523b3ef836040518082815260200191505060405180910390a3505050565b6000838311158290612136576040517f08c379a00000000000000000000000000000000000000000000000000000000081526004018080602001828103825283818151815260200191508051906020019080838360005b838110156120fb5780820151818401526020810190506120e0565b50505050905090810190601f1680156121285780820380516001836020036101000a031916815260200191505b509250505060405180910390fd5b5060008385039050809150509392505050565b6000808284019050838110156121c7576040517f08c379a000000000000000000000000000000000000000000000000000000000815260040180806020018281038252601b8152602001807f536166654d6174683a206164646974696f6e206f766572666c6f77000000000081525060200191505060405180910390fd5b8091505092915050565b6000808373ffffffffffffffffffffffffffffffffffffffff168360405180600001905060006040518083038185875af1925050503d8060008114612232576040519150601f19603f3d011682016040523d82523d6000602084013e612237565b606091505b50509050806122ae576040517f08c379a000000000000000000000000000000000000000000000000000000000815260040180806020018281038252600f8152602001807f53656e64206574686572206661696c000000000000000000000000000000000081525060200191505060405180910390fd5b8091505092915050565b6000808314156122cb5760009050612338565b60008284029050828482816122dc57fe5b0414612333576040517f08c379a00000000000000000000000000000000000000000000000000000000081526004018080602001828103825260218152602001806128ba6021913960400191505060405180910390fd5b809150505b92915050565b600061238083836040518060400160405280601a81526020017f536166654d6174683a206469766973696f6e206279207a65726f000000000000815250612766565b905092915050565b600073ffffffffffffffffffffffffffffffffffffffff168273ffffffffffffffffffffffffffffffffffffffff16141561240e576040517f08c379a00000000000000000000000000000000000000000000000000000000081526004018080602001828103825260218152602001806129036021913960400191505060405180910390fd5b61241a82600083612761565b6124868160405180606001604052806022815260200161285060229139600360008673ffffffffffffffffffffffffffffffffffffffff1673ffffffffffffffffffffffffffffffffffffffff168152602001908152602001600020546120899092919063ffffffff16565b600360008473ffffffffffffffffffffffffffffffffffffffff1673ffffffffffffffffffffffffffffffffffffffff168152602001908152602001600020819055506124de8160055461254e90919063ffffffff16565b600581905550600073ffffffffffffffffffffffffffffffffffffffff168273ffffffffffffffffffffffffffffffffffffffff167fddf252ad1be2c89b69c2b068fc378daa952ba7f163c4a11628f55a4df523b3ef836040518082815260200191505060405180910390a35050565b600061259083836040518060400160405280601e81526020017f536166654d6174683a207375627472616374696f6e206f766572666c6f770000815250612089565b905092915050565b600073ffffffffffffffffffffffffffffffffffffffff168273ffffffffffffffffffffffffffffffffffffffff16141561263b576040517f08c379a000000000000000000000000000000000000000000000000000000000815260040180806020018281038252601f8152602001807f45524332303a206d696e7420746f20746865207a65726f20616464726573730081525060200191505060405180910390fd5b61264760008383612761565b61265c8160055461214990919063ffffffff16565b6005819055506126b481600360008573ffffffffffffffffffffffffffffffffffffffff1673ffffffffffffffffffffffffffffffffffffffff1681526020019081526020016000205461214990919063ffffffff16565b600360008473ffffffffffffffffffffffffffffffffffffffff1673ffffffffffffffffffffffffffffffffffffffff168152602001908152602001600020819055508173ffffffffffffffffffffffffffffffffffffffff16600073ffffffffffffffffffffffffffffffffffffffff167fddf252ad1be2c89b69c2b068fc378daa952ba7f163c4a11628f55a4df523b3ef836040518082815260200191505060405180910390a35050565b505050565b60008083118290612812576040517f08c379a00000000000000000000000000000000000000000000000000000000081526004018080602001828103825283818151815260200191508051906020019080838360005b838110156127d75780820151818401526020810190506127bc565b50505050905090810190601f1680156128045780820380516001836020036101000a031916815260200191505b509250505060405180910390fd5b50600083858161281e57fe5b04905080915050939250505056fe45524332303a207472616e7366657220746f20746865207a65726f206164647265737345524332303a206275726e20616d6f756e7420657863656564732062616c616e636545524332303a20617070726f766520746f20746865207a65726f206164647265737345524332303a207472616e7366657220616d6f756e7420657863656564732062616c616e6365536166654d6174683a206d756c7469706c69636174696f6e206f766572666c6f7745524332303a207472616e7366657220616d6f756e74206578636565647320616c6c6f77616e636545524332303a206275726e2066726f6d20746865207a65726f206164647265737345524332303a207472616e736665722066726f6d20746865207a65726f206164647265737345524332303a20617070726f76652066726f6d20746865207a65726f206164647265737345524332303a2064656372656173656420616c6c6f77616e63652062656c6f77207a65726fa2646970667358221220158e48867ce37c2a690e55a11f1291f6428002c624d7ca38436b3f28640ae63e64736f6c63430006020033",
  "source": "pragma solidity ^0.6.2;\r\n\r\n/**\r\n * @title Primitive's Exchange Pool for ERC-20 Prime Options\r\n * @author Primitive\r\n */\r\n\r\nimport '@openzeppelin/contracts/math/SafeMath.sol';\r\nimport '@openzeppelin/contracts/token/ERC20/ERC20.sol';\r\nimport '@openzeppelin/contracts/token/ERC20/ERC20Detailed.sol';\r\nimport './InterfaceERC20.sol';\r\n\r\ncontract ExchangeERC20 is ERC20Detailed('ePULP', 'Exchange Primitive LP Tokens', 18), ERC20 {\r\n    using SafeMath for uint256;\r\n\r\n    address public _controller;\r\n    IPrimeERC20 public _prime;\r\n    uint256 public _y;\r\n\r\n    constructor (address prime) public {\r\n        _controller = msg.sender;\r\n        _prime = IPrimeERC20(prime);\r\n    }\r\n\r\n    receive() external payable {}\r\n\r\n    /**\r\n     * @dev adds option tokens and ether to reserves and sends user ePULP\r\n     */\r\n    function addLiquidity(\r\n        uint256 minQLiquidity,\r\n        uint256 maxQTokens\r\n    ) public payable returns(uint256) {\r\n        uint256 totalSupply = totalSupply();\r\n        if (totalSupply > 0) {\r\n            uint256 rEth = address(this).balance.sub(msg.value);\r\n            uint256 rToken = tokenReserves();\r\n            uint256 qToken = msg.value.mul(rToken).div(rEth).sub(1);\r\n            uint256 newLiquidity = msg.value.mul(totalSupply).div(rEth);\r\n            _mint(msg.sender, newLiquidity);\r\n            _prime.transferFrom(msg.sender, address(this), qToken);\r\n            return newLiquidity;\r\n        } else {\r\n            uint256 initialQLiquidity = address(this).balance;\r\n            _mint(msg.sender, initialQLiquidity);\r\n            _prime.transferFrom(msg.sender, address(this), maxQTokens);\r\n            return initialQLiquidity;\r\n        }\r\n    }\r\n\r\n    /**\r\n     * @dev removes option tokens and ether from reserves, burns ePulp, and sends to user\r\n     */\r\n    function removeLiquidity(\r\n        uint256 qLiquidity,\r\n        uint256 minQEth,\r\n        uint256 minQTokens\r\n    ) public returns (uint256, uint256) {\r\n        require(qLiquidity > 0 &&  minQEth > 0 && minQTokens > 0, 'ERR_ZERO');\r\n\r\n        uint256 totalSupply = totalSupply();\r\n        uint256 tokenReserves = tokenReserves();\r\n        uint256 qEth = qLiquidity.mul(address(this).balance).div(totalSupply);\r\n        uint256 qTokens = qLiquidity.mul(tokenReserves).div(totalSupply);\r\n        require(qEth >= minQEth, 'ERR_BAL_ETH');\r\n        require(qTokens >= minQTokens, 'ERR_BAL_TOKENS');\r\n        _burn(msg.sender, qLiquidity);\r\n        _prime.transfer(msg.sender, qTokens);\r\n        sendEther(msg.sender, qEth);\r\n        return (qLiquidity, qEth);\r\n    }\r\n\r\n    /**\r\n     * @dev sells option tokens for eth\r\n     */\r\n    function swapTokensToEth(\r\n        uint256 qTokens,\r\n        uint256 minQEth,\r\n        address payable receiver\r\n    ) public returns (uint) {\r\n        require(_prime.balanceOf(msg.sender) >= qTokens, 'ERR_BAL_OPTIONS');\r\n        return tokensToEth(qTokens, minQEth, msg.sender, receiver);\r\n    }\r\n\r\n    /**\r\n     * @dev sells option tokens for eth\r\n     */\r\n    function tokensToEth(\r\n        uint256 qTokens,\r\n        uint256 minQEth,\r\n        address buyer,\r\n        address payable receiver\r\n    ) public returns (uint) {\r\n        uint256 rInput = tokenReserves();\r\n        uint256 ethOutput = getInputPrice(qTokens, rInput, address(this).balance);\r\n        require(ethOutput >= minQEth, 'ERR_BAL_ETH');\r\n        _prime.transferFrom(buyer, address(this), qTokens);\r\n        sendEther(receiver, ethOutput);\r\n        return ethOutput;\r\n    }\r\n\r\n    /**\r\n     * @dev sells eth for option tokens\r\n     */\r\n    function swapEthToTokens(\r\n        uint256 qTokens\r\n    ) public payable returns (uint256) {\r\n        uint256 maxQEth = msg.value;\r\n        uint256 tokenReserves = tokenReserves();\r\n        uint256 ethOutput = getOutputPrice(qTokens, address(this).balance.sub(maxQEth), tokenReserves);\r\n        uint256 ethRemainder = maxQEth.sub(ethOutput);\r\n        if(ethRemainder > 0) {\r\n            sendEther(msg.sender, ethRemainder);\r\n        }\r\n\r\n        _prime.transfer(msg.sender, qTokens);\r\n        return ethOutput;\r\n    }\r\n\r\n    /**\r\n     @dev function to send ether with the most security\r\n     */\r\n    function sendEther(address payable user, uint256 amount) internal returns (bool) {\r\n        (bool success, ) = user.call.value(amount)(\"\");\r\n        require(success, \"Send ether fail\");\r\n        return success;\r\n    }\r\n\r\n    /**\r\n     * @dev gets the input price (amount of tokens bought)\r\n     */\r\n    function getInputPrice(\r\n        uint256 qInput,\r\n        uint256 rInput,\r\n        uint256 rOutput\r\n    ) public view returns (uint256) {\r\n        uint256 k = qInput.mul(1000).mul(rOutput);\r\n        uint256 x = rInput.mul(1000).add(qInput);\r\n        uint256 y = k.div(x);\r\n        return y;\r\n    }\r\n\r\n    /**\r\n     * @dev gets the output price (amount of eth sold)\r\n     */\r\n    function getOutputPrice(\r\n        uint256 qOutput,\r\n        uint256 rInput,\r\n        uint256 rOutput\r\n    ) public view returns (uint256) {\r\n        uint256 k = qOutput.mul(1000).mul(rInput);\r\n        uint256 y = (rOutput.sub(qOutput)).mul(1000);\r\n        uint256 x = k.div(y).add(1);\r\n        return x;\r\n    }\r\n\r\n    function tokenReserves() public view returns (uint256) {\r\n        return _prime.balanceOf(address(this));\r\n    }   \r\n}",
  "sourcePath": "C:\\Users\\alexa\\OneDrive\\Documents\\Master\\Blockchain\\Projects\\carbon\\contracts\\ERC20\\ExchangeERC20.sol",
  "compiler": {
    "name": "solc",
    "version": "0.6.2+commit.bacdbe57.Emscripten.clang"
  },
  "schemaVersion": "3.0.23",
  "updatedAt": "2020-04-12T23:24:18.834Z",
  "devdoc": {
    "methods": {
      "addLiquidity(uint256,uint256)": {
        "details": "adds option tokens and ether to reserves and sends user ePULP"
      },
      "allowance(address,address)": {
        "details": "See {IERC20-allowance}."
      },
      "approve(address,uint256)": {
        "details": "See {IERC20-approve}.     * Requirements:     * - `spender` cannot be the zero address."
      },
      "balanceOf(address)": {
        "details": "See {IERC20-balanceOf}."
      },
      "decimals()": {
        "details": "Returns the number of decimals used to get its user representation. For example, if `decimals` equals `2`, a balance of `505` tokens should be displayed to a user as `5,05` (`505 / 10 ** 2`).     * Tokens usually opt for a value of 18, imitating the relationship between Ether and Wei.     * NOTE: This information is only used for _display_ purposes: it in no way affects any of the arithmetic of the contract, including {IERC20-balanceOf} and {IERC20-transfer}."
      },
      "decreaseAllowance(address,uint256)": {
        "details": "Atomically decreases the allowance granted to `spender` by the caller.     * This is an alternative to {approve} that can be used as a mitigation for problems described in {IERC20-approve}.     * Emits an {Approval} event indicating the updated allowance.     * Requirements:     * - `spender` cannot be the zero address. - `spender` must have allowance for the caller of at least `subtractedValue`."
      },
      "getInputPrice(uint256,uint256,uint256)": {
        "details": "gets the input price (amount of tokens bought)"
      },
      "getOutputPrice(uint256,uint256,uint256)": {
        "details": "gets the output price (amount of eth sold)"
      },
      "increaseAllowance(address,uint256)": {
        "details": "Atomically increases the allowance granted to `spender` by the caller.     * This is an alternative to {approve} that can be used as a mitigation for problems described in {IERC20-approve}.     * Emits an {Approval} event indicating the updated allowance.     * Requirements:     * - `spender` cannot be the zero address."
      },
      "name()": {
        "details": "Returns the name of the token."
      },
      "removeLiquidity(uint256,uint256,uint256)": {
        "details": "removes option tokens and ether from reserves, burns ePulp, and sends to user"
      },
      "swapEthToTokens(uint256)": {
        "details": "sells eth for option tokens"
      },
      "swapTokensToEth(uint256,uint256,address)": {
        "details": "sells option tokens for eth"
      },
      "symbol()": {
        "details": "Returns the symbol of the token, usually a shorter version of the name."
      },
      "tokensToEth(uint256,uint256,address,address)": {
        "details": "sells option tokens for eth"
      },
      "totalSupply()": {
        "details": "See {IERC20-totalSupply}."
      },
      "transfer(address,uint256)": {
        "details": "See {IERC20-transfer}.     * Requirements:     * - `recipient` cannot be the zero address. - the caller must have a balance of at least `amount`."
      },
      "transferFrom(address,address,uint256)": {
        "details": "See {IERC20-transferFrom}.     * Emits an {Approval} event indicating the updated allowance. This is not required by the EIP. See the note at the beginning of {ERC20};     * Requirements: - `sender` and `recipient` cannot be the zero address. - `sender` must have a balance of at least `amount`. - the caller must have allowance for `sender`'s tokens of at least `amount`."
      }
    }
  },
  "userdoc": {
    "methods": {}
  }
}