{
  "contractName": "Exchange",
  "abi": [
    {
      "inputs": [
        {
          "internalType": "address",
          "name": "primeAddress",
          "type": "address"
        }
      ],
      "stateMutability": "nonpayable",
      "type": "constructor"
    },
    {
      "anonymous": false,
      "inputs": [
        {
          "indexed": true,
          "internalType": "address",
          "name": "buyer",
          "type": "address"
        },
        {
          "indexed": false,
          "internalType": "uint256",
          "name": "bidPrice",
          "type": "uint256"
        },
        {
          "indexed": true,
          "internalType": "uint256",
          "name": "tokenId",
          "type": "uint256"
        },
        {
          "indexed": false,
          "internalType": "bool",
          "name": "filled",
          "type": "bool"
        }
      ],
      "name": "BuyOrder",
      "type": "event"
    },
    {
      "anonymous": false,
      "inputs": [
        {
          "indexed": true,
          "internalType": "address",
          "name": "buyer",
          "type": "address"
        },
        {
          "indexed": false,
          "internalType": "uint256",
          "name": "bidPrice",
          "type": "uint256"
        },
        {
          "indexed": false,
          "internalType": "uint256",
          "name": "nonce",
          "type": "uint256"
        }
      ],
      "name": "BuyOrderUnfilled",
      "type": "event"
    },
    {
      "anonymous": false,
      "inputs": [
        {
          "indexed": true,
          "internalType": "address",
          "name": "user",
          "type": "address"
        },
        {
          "indexed": true,
          "internalType": "uint256",
          "name": "tokenId",
          "type": "uint256"
        },
        {
          "indexed": false,
          "internalType": "bool",
          "name": "buyOrder",
          "type": "bool"
        }
      ],
      "name": "CloseOrder",
      "type": "event"
    },
    {
      "anonymous": false,
      "inputs": [
        {
          "indexed": true,
          "internalType": "address",
          "name": "user",
          "type": "address"
        },
        {
          "indexed": true,
          "internalType": "bytes4",
          "name": "series",
          "type": "bytes4"
        },
        {
          "indexed": false,
          "internalType": "uint256",
          "name": "buyOrderNonce",
          "type": "uint256"
        }
      ],
      "name": "CloseUnfilledBuyOrder",
      "type": "event"
    },
    {
      "anonymous": false,
      "inputs": [
        {
          "indexed": true,
          "internalType": "address",
          "name": "seller",
          "type": "address"
        },
        {
          "indexed": true,
          "internalType": "address",
          "name": "buyer",
          "type": "address"
        },
        {
          "indexed": false,
          "internalType": "uint256",
          "name": "filledPrice",
          "type": "uint256"
        },
        {
          "indexed": true,
          "internalType": "uint256",
          "name": "tokenId",
          "type": "uint256"
        }
      ],
      "name": "FillOrder",
      "type": "event"
    },
    {
      "anonymous": false,
      "inputs": [
        {
          "indexed": true,
          "internalType": "address",
          "name": "buyer",
          "type": "address"
        },
        {
          "indexed": false,
          "internalType": "uint256",
          "name": "bidPrice",
          "type": "uint256"
        },
        {
          "indexed": false,
          "internalType": "uint256",
          "name": "amount",
          "type": "uint256"
        }
      ],
      "name": "FillOrderFromPool",
      "type": "event"
    },
    {
      "anonymous": false,
      "inputs": [
        {
          "indexed": true,
          "internalType": "address",
          "name": "seller",
          "type": "address"
        },
        {
          "indexed": true,
          "internalType": "uint256",
          "name": "tokenId",
          "type": "uint256"
        }
      ],
      "name": "FillUnfilledBuyOrder",
      "type": "event"
    },
    {
      "anonymous": false,
      "inputs": [
        {
          "indexed": true,
          "internalType": "address",
          "name": "previousOwner",
          "type": "address"
        },
        {
          "indexed": true,
          "internalType": "address",
          "name": "newOwner",
          "type": "address"
        }
      ],
      "name": "OwnershipTransferred",
      "type": "event"
    },
    {
      "anonymous": false,
      "inputs": [
        {
          "indexed": false,
          "internalType": "address",
          "name": "account",
          "type": "address"
        }
      ],
      "name": "Paused",
      "type": "event"
    },
    {
      "anonymous": false,
      "inputs": [
        {
          "indexed": true,
          "internalType": "address",
          "name": "seller",
          "type": "address"
        },
        {
          "indexed": false,
          "internalType": "uint256",
          "name": "askPrice",
          "type": "uint256"
        },
        {
          "indexed": true,
          "internalType": "uint256",
          "name": "tokenId",
          "type": "uint256"
        },
        {
          "indexed": false,
          "internalType": "bool",
          "name": "filled",
          "type": "bool"
        }
      ],
      "name": "SellOrder",
      "type": "event"
    },
    {
      "anonymous": false,
      "inputs": [
        {
          "indexed": false,
          "internalType": "address",
          "name": "account",
          "type": "address"
        }
      ],
      "name": "Unpaused",
      "type": "event"
    },
    {
      "inputs": [
        {
          "internalType": "uint256",
          "name": "",
          "type": "uint256"
        }
      ],
      "name": "_buyOrders",
      "outputs": [
        {
          "internalType": "address payable",
          "name": "buyer",
          "type": "address"
        },
        {
          "internalType": "uint256",
          "name": "bidPrice",
          "type": "uint256"
        },
        {
          "internalType": "uint256",
          "name": "tokenId",
          "type": "uint256"
        }
      ],
      "stateMutability": "view",
      "type": "function"
    },
    {
      "inputs": [
        {
          "internalType": "bytes4",
          "name": "",
          "type": "bytes4"
        },
        {
          "internalType": "uint256",
          "name": "",
          "type": "uint256"
        }
      ],
      "name": "_buyOrdersUnfilled",
      "outputs": [
        {
          "internalType": "address payable",
          "name": "buyer",
          "type": "address"
        },
        {
          "internalType": "uint256",
          "name": "bidPrice",
          "type": "uint256"
        },
        {
          "internalType": "bytes4",
          "name": "series",
          "type": "bytes4"
        },
        {
          "internalType": "uint256",
          "name": "qUnderlying",
          "type": "uint256"
        },
        {
          "internalType": "address",
          "name": "aUnderlying",
          "type": "address"
        },
        {
          "internalType": "uint256",
          "name": "qStrike",
          "type": "uint256"
        },
        {
          "internalType": "address",
          "name": "aStrike",
          "type": "address"
        },
        {
          "internalType": "uint256",
          "name": "tExpiry",
          "type": "uint256"
        }
      ],
      "stateMutability": "view",
      "type": "function"
    },
    {
      "inputs": [
        {
          "internalType": "address",
          "name": "",
          "type": "address"
        }
      ],
      "name": "_etherBalance",
      "outputs": [
        {
          "internalType": "uint256",
          "name": "",
          "type": "uint256"
        }
      ],
      "stateMutability": "view",
      "type": "function"
    },
    {
      "inputs": [],
      "name": "_feePool",
      "outputs": [
        {
          "internalType": "uint256",
          "name": "",
          "type": "uint256"
        }
      ],
      "stateMutability": "view",
      "type": "function"
    },
    {
      "inputs": [],
      "name": "_pool",
      "outputs": [
        {
          "internalType": "contract IPool",
          "name": "",
          "type": "address"
        }
      ],
      "stateMutability": "view",
      "type": "function"
    },
    {
      "inputs": [],
      "name": "_poolAddress",
      "outputs": [
        {
          "internalType": "address",
          "name": "",
          "type": "address"
        }
      ],
      "stateMutability": "view",
      "type": "function"
    },
    {
      "inputs": [],
      "name": "_prime",
      "outputs": [
        {
          "internalType": "contract IPrime",
          "name": "",
          "type": "address"
        }
      ],
      "stateMutability": "view",
      "type": "function"
    },
    {
      "inputs": [
        {
          "internalType": "uint256",
          "name": "",
          "type": "uint256"
        }
      ],
      "name": "_sellOrders",
      "outputs": [
        {
          "internalType": "address payable",
          "name": "seller",
          "type": "address"
        },
        {
          "internalType": "uint256",
          "name": "askPrice",
          "type": "uint256"
        },
        {
          "internalType": "uint256",
          "name": "tokenId",
          "type": "uint256"
        }
      ],
      "stateMutability": "view",
      "type": "function"
    },
    {
      "inputs": [
        {
          "internalType": "bytes4",
          "name": "",
          "type": "bytes4"
        }
      ],
      "name": "_unfilledNonce",
      "outputs": [
        {
          "internalType": "uint256",
          "name": "",
          "type": "uint256"
        }
      ],
      "stateMutability": "view",
      "type": "function"
    },
    {
      "inputs": [
        {
          "internalType": "address",
          "name": "",
          "type": "address"
        },
        {
          "internalType": "address",
          "name": "",
          "type": "address"
        },
        {
          "internalType": "uint256",
          "name": "",
          "type": "uint256"
        },
        {
          "internalType": "bytes",
          "name": "",
          "type": "bytes"
        }
      ],
      "name": "onERC721Received",
      "outputs": [
        {
          "internalType": "bytes4",
          "name": "",
          "type": "bytes4"
        }
      ],
      "stateMutability": "nonpayable",
      "type": "function"
    },
    {
      "inputs": [],
      "name": "owner",
      "outputs": [
        {
          "internalType": "address",
          "name": "",
          "type": "address"
        }
      ],
      "stateMutability": "view",
      "type": "function"
    },
    {
      "inputs": [],
      "name": "paused",
      "outputs": [
        {
          "internalType": "bool",
          "name": "",
          "type": "bool"
        }
      ],
      "stateMutability": "view",
      "type": "function"
    },
    {
      "inputs": [],
      "name": "renounceOwnership",
      "outputs": [],
      "stateMutability": "nonpayable",
      "type": "function"
    },
    {
      "inputs": [
        {
          "internalType": "address",
          "name": "newOwner",
          "type": "address"
        }
      ],
      "name": "transferOwnership",
      "outputs": [],
      "stateMutability": "nonpayable",
      "type": "function"
    },
    {
      "stateMutability": "payable",
      "type": "receive"
    },
    {
      "inputs": [
        {
          "internalType": "address",
          "name": "poolAddress",
          "type": "address"
        }
      ],
      "name": "setPoolAddress",
      "outputs": [],
      "stateMutability": "nonpayable",
      "type": "function"
    },
    {
      "inputs": [],
      "name": "killSwitch",
      "outputs": [],
      "stateMutability": "nonpayable",
      "type": "function"
    },
    {
      "inputs": [],
      "name": "unpause",
      "outputs": [],
      "stateMutability": "nonpayable",
      "type": "function"
    },
    {
      "inputs": [],
      "name": "getPrimeAddress",
      "outputs": [
        {
          "internalType": "address",
          "name": "",
          "type": "address"
        }
      ],
      "stateMutability": "view",
      "type": "function"
    },
    {
      "inputs": [
        {
          "internalType": "uint256",
          "name": "amount",
          "type": "uint256"
        }
      ],
      "name": "withdrawEther",
      "outputs": [],
      "stateMutability": "nonpayable",
      "type": "function"
    },
    {
      "inputs": [
        {
          "internalType": "uint256",
          "name": "tokenId",
          "type": "uint256"
        },
        {
          "internalType": "uint256",
          "name": "askPrice",
          "type": "uint256"
        }
      ],
      "name": "sellOrder",
      "outputs": [
        {
          "internalType": "bool",
          "name": "",
          "type": "bool"
        }
      ],
      "stateMutability": "nonpayable",
      "type": "function"
    },
    {
      "inputs": [
        {
          "internalType": "uint256",
          "name": "tokenId",
          "type": "uint256"
        },
        {
          "internalType": "uint256",
          "name": "bidPrice",
          "type": "uint256"
        }
      ],
      "name": "buyOrder",
      "outputs": [
        {
          "internalType": "bool",
          "name": "",
          "type": "bool"
        }
      ],
      "stateMutability": "payable",
      "type": "function"
    },
    {
      "inputs": [
        {
          "internalType": "uint256",
          "name": "bidPrice",
          "type": "uint256"
        },
        {
          "internalType": "uint256",
          "name": "qUnderlying",
          "type": "uint256"
        },
        {
          "internalType": "address",
          "name": "aUnderlying",
          "type": "address"
        },
        {
          "internalType": "uint256",
          "name": "qStrike",
          "type": "uint256"
        },
        {
          "internalType": "address",
          "name": "aStrike",
          "type": "address"
        },
        {
          "internalType": "uint256",
          "name": "tExpiry",
          "type": "uint256"
        }
      ],
      "name": "buyOrderUnfilled",
      "outputs": [
        {
          "internalType": "bool",
          "name": "",
          "type": "bool"
        }
      ],
      "stateMutability": "payable",
      "type": "function"
    },
    {
      "inputs": [
        {
          "internalType": "uint256",
          "name": "tokenId",
          "type": "uint256"
        },
        {
          "internalType": "uint256",
          "name": "askPrice",
          "type": "uint256"
        }
      ],
      "name": "checkUnfilledBuyOrders",
      "outputs": [
        {
          "internalType": "uint256",
          "name": "",
          "type": "uint256"
        }
      ],
      "stateMutability": "view",
      "type": "function"
    },
    {
      "inputs": [
        {
          "internalType": "uint256",
          "name": "tokenId",
          "type": "uint256"
        }
      ],
      "name": "closeSellOrder",
      "outputs": [
        {
          "internalType": "bool",
          "name": "",
          "type": "bool"
        }
      ],
      "stateMutability": "nonpayable",
      "type": "function"
    },
    {
      "inputs": [
        {
          "internalType": "uint256",
          "name": "tokenId",
          "type": "uint256"
        }
      ],
      "name": "closeBuyOrder",
      "outputs": [
        {
          "internalType": "bool",
          "name": "",
          "type": "bool"
        }
      ],
      "stateMutability": "nonpayable",
      "type": "function"
    },
    {
      "inputs": [
        {
          "internalType": "bytes4",
          "name": "series",
          "type": "bytes4"
        },
        {
          "internalType": "uint256",
          "name": "_buyOrderNonce",
          "type": "uint256"
        }
      ],
      "name": "closeUnfilledBuyOrder",
      "outputs": [
        {
          "internalType": "bool",
          "name": "",
          "type": "bool"
        }
      ],
      "stateMutability": "nonpayable",
      "type": "function"
    },
    {
      "inputs": [
        {
          "internalType": "address payable",
          "name": "user",
          "type": "address"
        }
      ],
      "name": "getFeesGenerated",
      "outputs": [
        {
          "internalType": "uint256",
          "name": "",
          "type": "uint256"
        }
      ],
      "stateMutability": "view",
      "type": "function"
    },
    {
      "inputs": [
        {
          "internalType": "uint256",
          "name": "_tokenId",
          "type": "uint256"
        }
      ],
      "name": "getBuyOrder",
      "outputs": [
        {
          "internalType": "address payable",
          "name": "buyer",
          "type": "address"
        },
        {
          "internalType": "uint256",
          "name": "bidPrice",
          "type": "uint256"
        },
        {
          "internalType": "uint256",
          "name": "tokenId",
          "type": "uint256"
        }
      ],
      "stateMutability": "view",
      "type": "function"
    },
    {
      "inputs": [
        {
          "internalType": "uint256",
          "name": "_tokenId",
          "type": "uint256"
        }
      ],
      "name": "getSellOrder",
      "outputs": [
        {
          "internalType": "address payable",
          "name": "seller",
          "type": "address"
        },
        {
          "internalType": "uint256",
          "name": "askPrice",
          "type": "uint256"
        },
        {
          "internalType": "uint256",
          "name": "tokenId",
          "type": "uint256"
        }
      ],
      "stateMutability": "view",
      "type": "function"
    },
    {
      "inputs": [
        {
          "internalType": "uint256",
          "name": "tokenId",
          "type": "uint256"
        }
      ],
      "name": "isListed",
      "outputs": [
        {
          "internalType": "bool",
          "name": "",
          "type": "bool"
        }
      ],
      "stateMutability": "view",
      "type": "function"
    }
  ],
  "bytecode": "0x60806040523480156200001157600080fd5b5060405162005eea38038062005eea833981810160405260208110156200003757600080fd5b810190808051906020019092919050505060016000806101000a81548160ff0219169083151502179055506000620000746200051860201b60201c565b905080600060016101000a81548173ffffffffffffffffffffffffffffffffffffffff021916908373ffffffffffffffffffffffffffffffffffffffff1602179055508073ffffffffffffffffffffffffffffffffffffffff16600073ffffffffffffffffffffffffffffffffffffffff167f8be0079c531659141344cd1fd0a4f28419497f9722a3daafe3b4186f6b6457e060405160405180910390a35060008060156101000a81548160ff02191690831515021790555080600160006101000a81548173ffffffffffffffffffffffffffffffffffffffff021916908373ffffffffffffffffffffffffffffffffffffffff16021790555080600460006101000a81548173ffffffffffffffffffffffffffffffffffffffff021916908373ffffffffffffffffffffffffffffffffffffffff16021790555060006005819055506040518060600160405280600073ffffffffffffffffffffffffffffffffffffffff1681526020016000815260200160008152506007600080815260200190815260200160002060008201518160000160006101000a81548173ffffffffffffffffffffffffffffffffffffffff021916908373ffffffffffffffffffffffffffffffffffffffff16021790555060208201518160010155604082015181600201559050506040518060600160405280600073ffffffffffffffffffffffffffffffffffffffff1681526020016000815260200160008152506006600080815260200190815260200160002060008201518160000160006101000a81548173ffffffffffffffffffffffffffffffffffffffff021916908373ffffffffffffffffffffffffffffffffffffffff1602179055506020820151816001015560408201518160020155905050604051806101000160405280600073ffffffffffffffffffffffffffffffffffffffff16815260200160008152602001600060e01b7bffffffffffffffffffffffffffffffffffffffffffffffffffffffff1916815260200160008152602001600073ffffffffffffffffffffffffffffffffffffffff16815260200160008152602001600073ffffffffffffffffffffffffffffffffffffffff1681526020016000815250600860008060e01b7bffffffffffffffffffffffffffffffffffffffffffffffffffffffff19168152602001908152602001600020600080815260200190815260200160002060008201518160000160006101000a81548173ffffffffffffffffffffffffffffffffffffffff021916908373ffffffffffffffffffffffffffffffffffffffff1602179055506020820151816001015560408201518160020160006101000a81548163ffffffff021916908360e01c02179055506060820151816003015560808201518160040160006101000a81548173ffffffffffffffffffffffffffffffffffffffff021916908373ffffffffffffffffffffffffffffffffffffffff16021790555060a0820151816005015560c08201518160060160006101000a81548173ffffffffffffffffffffffffffffffffffffffff021916908373ffffffffffffffffffffffffffffffffffffffff16021790555060e082015181600701559050505062000520565b600033905090565b6159ba80620005306000396000f3fe6080604052600436106101d15760003560e01c80638beb9928116100f7578063bcabc25811610095578063e9e15b4f11610064578063e9e15b4f14610d0e578063efaecbe714610d5f578063f2fde38b14610db2578063fcce488314610e03576101d8565b8063bcabc25814610b9e578063c47bf1e014610bf5578063cd61a95a14610c5a578063e07acf1714610cb7576101d8565b8063aec967e7116100d1578063aec967e71461087d578063b02e6826146109e8578063b1af1bda14610a71578063b6e24bc714610afa576101d8565b80638beb9928146107b65780638da5cb5b1461080f578063ada1469814610866576101d8565b80633f4ba83a1161016f578063636fc28b1161013e578063636fc28b14610651578063647fd08e146106a8578063715018a614610731578063715b476814610748576101d8565b80633f4ba83a1461056457806359108b551461057b5780635c975abb146105f7578063614bfe2e14610626576101d8565b80632d4160bc116101ab5780632d4160bc146103e4578063323e64a214610449578063390ce0d3146104a05780633bed33ce14610529576101d8565b80630a553040146101dd578063142ee8d814610230578063150b7a0214610280576101d8565b366101d857005b600080fd5b3480156101e957600080fd5b506102166004803603602081101561020057600080fd5b8101908080359060200190929190505050610e56565b604051808215151515815260200191505060405180910390f35b6102666004803603604081101561024657600080fd5b81019080803590602001909291908035906020019092919050505061121a565b604051808215151515815260200191505060405180910390f35b34801561028c57600080fd5b50610390600480360360808110156102a357600080fd5b81019080803573ffffffffffffffffffffffffffffffffffffffff169060200190929190803573ffffffffffffffffffffffffffffffffffffffff169060200190929190803590602001909291908035906020019064010000000081111561030a57600080fd5b82018360208201111561031c57600080fd5b8035906020019184600183028401116401000000008311171561033e57600080fd5b91908080601f016020809104026020016040519081016040528093929190818152602001838380828437600081840152601f19601f8201169050808301925050505050505091929192905050506117bb565b60405180827bffffffffffffffffffffffffffffffffffffffffffffffffffffffff19167bffffffffffffffffffffffffffffffffffffffffffffffffffffffff1916815260200191505060405180910390f35b3480156103f057600080fd5b506104336004803603602081101561040757600080fd5b81019080803573ffffffffffffffffffffffffffffffffffffffff1690602001909291905050506117cf565b6040518082815260200191505060405180910390f35b34801561045557600080fd5b5061045e611818565b604051808273ffffffffffffffffffffffffffffffffffffffff1673ffffffffffffffffffffffffffffffffffffffff16815260200191505060405180910390f35b3480156104ac57600080fd5b506104d9600480360360208110156104c357600080fd5b8101908080359060200190929190505050611842565b604051808473ffffffffffffffffffffffffffffffffffffffff1673ffffffffffffffffffffffffffffffffffffffff168152602001838152602001828152602001935050505060405180910390f35b34801561053557600080fd5b506105626004803603602081101561054c57600080fd5b81019080803590602001909291905050506118f6565b005b34801561057057600080fd5b50610579611b40565b005b34801561058757600080fd5b506105dd6004803603604081101561059e57600080fd5b8101908080357bffffffffffffffffffffffffffffffffffffffffffffffffffffffff1916906020019092919080359060200190929190505050611c14565b604051808215151515815260200191505060405180910390f35b34801561060357600080fd5b5061060c612045565b604051808215151515815260200191505060405180910390f35b34801561063257600080fd5b5061063b61205b565b6040518082815260200191505060405180910390f35b34801561065d57600080fd5b50610666612061565b604051808273ffffffffffffffffffffffffffffffffffffffff1673ffffffffffffffffffffffffffffffffffffffff16815260200191505060405180910390f35b3480156106b457600080fd5b506106e1600480360360208110156106cb57600080fd5b8101908080359060200190929190505050612087565b604051808473ffffffffffffffffffffffffffffffffffffffff1673ffffffffffffffffffffffffffffffffffffffff168152602001838152602001828152602001935050505060405180910390f35b34801561073d57600080fd5b506107466120d1565b005b34801561075457600080fd5b506107a06004803603602081101561076b57600080fd5b8101908080357bffffffffffffffffffffffffffffffffffffffffffffffffffffffff1916906020019092919050505061225b565b6040518082815260200191505060405180910390f35b3480156107c257600080fd5b506107f9600480360360408110156107d957600080fd5b810190808035906020019092919080359060200190929190505050612273565b6040518082815260200191505060405180910390f35b34801561081b57600080fd5b506108246127ae565b604051808273ffffffffffffffffffffffffffffffffffffffff1673ffffffffffffffffffffffffffffffffffffffff16815260200191505060405180910390f35b34801561087257600080fd5b5061087b6127d7565b005b34801561088957600080fd5b506108df600480360360408110156108a057600080fd5b8101908080357bffffffffffffffffffffffffffffffffffffffffffffffffffffffff19169060200190929190803590602001909291905050506128ab565b604051808973ffffffffffffffffffffffffffffffffffffffff1673ffffffffffffffffffffffffffffffffffffffff168152602001888152602001877bffffffffffffffffffffffffffffffffffffffffffffffffffffffff19167bffffffffffffffffffffffffffffffffffffffffffffffffffffffff191681526020018681526020018573ffffffffffffffffffffffffffffffffffffffff1673ffffffffffffffffffffffffffffffffffffffff1681526020018481526020018373ffffffffffffffffffffffffffffffffffffffff1673ffffffffffffffffffffffffffffffffffffffff1681526020018281526020019850505050505050505060405180910390f35b3480156109f457600080fd5b50610a2160048036036020811015610a0b57600080fd5b810190808035906020019092919050505061296d565b604051808473ffffffffffffffffffffffffffffffffffffffff1673ffffffffffffffffffffffffffffffffffffffff168152602001838152602001828152602001935050505060405180910390f35b348015610a7d57600080fd5b50610aaa60048036036020811015610a9457600080fd5b81019080803590602001909291905050506129b7565b604051808473ffffffffffffffffffffffffffffffffffffffff1673ffffffffffffffffffffffffffffffffffffffff168152602001838152602001828152602001935050505060405180910390f35b610b84600480360360c0811015610b1057600080fd5b810190808035906020019092919080359060200190929190803573ffffffffffffffffffffffffffffffffffffffff16906020019092919080359060200190929190803573ffffffffffffffffffffffffffffffffffffffff16906020019092919080359060200190929190505050612a6b565b604051808215151515815260200191505060405180910390f35b348015610baa57600080fd5b50610bb36136e9565b604051808273ffffffffffffffffffffffffffffffffffffffff1673ffffffffffffffffffffffffffffffffffffffff16815260200191505060405180910390f35b348015610c0157600080fd5b50610c4460048036036020811015610c1857600080fd5b81019080803573ffffffffffffffffffffffffffffffffffffffff16906020019092919050505061370f565b6040518082815260200191505060405180910390f35b348015610c6657600080fd5b50610c9d60048036036040811015610c7d57600080fd5b810190808035906020019092919080359060200190929190505050613727565b604051808215151515815260200191505060405180910390f35b348015610cc357600080fd5b50610ccc613f6f565b604051808273ffffffffffffffffffffffffffffffffffffffff1673ffffffffffffffffffffffffffffffffffffffff16815260200191505060405180910390f35b348015610d1a57600080fd5b50610d5d60048036036020811015610d3157600080fd5b81019080803573ffffffffffffffffffffffffffffffffffffffff169060200190929190505050613f95565b005b348015610d6b57600080fd5b50610d9860048036036020811015610d8257600080fd5b81019080803590602001909291905050506140e4565b604051808215151515815260200191505060405180910390f35b348015610dbe57600080fd5b50610e0160048036036020811015610dd557600080fd5b81019080803573ffffffffffffffffffffffffffffffffffffffff16906020019092919050505061440a565b005b348015610e0f57600080fd5b50610e3c60048036036020811015610e2657600080fd5b81019080803590602001909291905050506144e0565b604051808215151515815260200191505060405180910390f35b60008060009054906101000a900460ff16610ed9576040517f08c379a000000000000000000000000000000000000000000000000000000000815260040180806020018281038252601f8152602001807f5265656e7472616e637947756172643a207265656e7472616e742063616c6c0081525060200191505060405180910390fd5b60008060006101000a81548160ff021916908315150217905550610efb615829565b600660008481526020019081526020016000206040518060600160405290816000820160009054906101000a900473ffffffffffffffffffffffffffffffffffffffff1673ffffffffffffffffffffffffffffffffffffffff1673ffffffffffffffffffffffffffffffffffffffff16815260200160018201548152602001600282015481525050905060008311610ffb576040517f08c379a000000000000000000000000000000000000000000000000000000000815260040180806020018281038252600d8152602001807f496e76616c696420546f6b656e0000000000000000000000000000000000000081525060200191505060405180910390fd5b806000015173ffffffffffffffffffffffffffffffffffffffff163373ffffffffffffffffffffffffffffffffffffffff16146110a0576040517f08c379a00000000000000000000000000000000000000000000000000000000081526004018080602001828103825260148152602001807f4d73672e73656e64657220213d2073656c6c657200000000000000000000000081525060200191505060405180910390fd5b6110a9836145b1565b600460009054906101000a900473ffffffffffffffffffffffffffffffffffffffff1673ffffffffffffffffffffffffffffffffffffffff166342842e0e308360000151866040518463ffffffff1660e01b8152600401808473ffffffffffffffffffffffffffffffffffffffff1673ffffffffffffffffffffffffffffffffffffffff1681526020018373ffffffffffffffffffffffffffffffffffffffff1673ffffffffffffffffffffffffffffffffffffffff1681526020018281526020019350505050600060405180830381600087803b15801561118a57600080fd5b505af115801561119e573d6000803e3d6000fd5b50505050823373ffffffffffffffffffffffffffffffffffffffff167f1ca96d5875625dda27dd28020a4261caf15b1fdc17367dc711606490812845ea6000604051808215151515815260200191505060405180910390a3600191505060016000806101000a81548160ff021916908315150217905550919050565b60008060009054906101000a900460ff1661129d576040517f08c379a000000000000000000000000000000000000000000000000000000000815260040180806020018281038252601f8152602001807f5265656e7472616e637947756172643a207265656e7472616e742063616c6c0081525060200191505060405180910390fd5b60008060006101000a81548160ff021916908315150217905550600060159054906101000a900460ff161561133a576040517f08c379a00000000000000000000000000000000000000000000000000000000081526004018080602001828103825260108152602001807f5061757361626c653a207061757365640000000000000000000000000000000081525060200191505060405180910390fd5b600083116113b0576040517f08c379a000000000000000000000000000000000000000000000000000000000815260040180806020018281038252600d8152602001807f496e76616c696420546f6b656e0000000000000000000000000000000000000081525060200191505060405180910390fd5b60008211611426576040517f08c379a00000000000000000000000000000000000000000000000000000000081526004018080602001828103825260078152602001807f426964203c20300000000000000000000000000000000000000000000000000081525060200191505060405180910390fd5b600061143d61014d8461465890919063ffffffff16565b9050600061145482856146a290919063ffffffff16565b9050803410156114cc576040517f08c379a000000000000000000000000000000000000000000000000000000000815260040180806020018281038252600a8152602001807f56616c203c20636f73740000000000000000000000000000000000000000000081525060200191505060405180910390fd5b803411156115c45760003373ffffffffffffffffffffffffffffffffffffffff16611500833461472a90919063ffffffff16565b60405180600001905060006040518083038185875af1925050503d8060008114611546576040519150601f19603f3d011682016040523d82523d6000602084013e61154b565b606091505b50509050806115c2576040517f08c379a000000000000000000000000000000000000000000000000000000000815260040180806020018281038252600e8152602001807f5472616e73666572206661696c2e00000000000000000000000000000000000081525060200191505060405180910390fd5b505b6115cc615829565b600660008781526020019081526020016000206040518060600160405290816000820160009054906101000a900473ffffffffffffffffffffffffffffffffffffffff1673ffffffffffffffffffffffffffffffffffffffff1673ffffffffffffffffffffffffffffffffffffffff16815260200160018201548152602001600282015481525050905061165f866144e0565b801561166f575080602001518510155b156116955761168b600187878460200151338660000151614774565b935050505061179b565b60405180606001604052803373ffffffffffffffffffffffffffffffffffffffff168152602001868152602001878152506007600088815260200190815260200160002060008201518160000160006101000a81548173ffffffffffffffffffffffffffffffffffffffff021916908373ffffffffffffffffffffffffffffffffffffffff1602179055506020820151816001015560408201518160020155905050853373ffffffffffffffffffffffffffffffffffffffff167fde9d8b888f0d2795244dfcb9f98957e107ed8e1014b2762473613be297b2858587600060405180838152602001821515151581526020019250505060405180910390a3600193505050505b60016000806101000a81548160ff02191690831515021790555092915050565b600063150b7a0260e01b9050949350505050565b6000600a60008373ffffffffffffffffffffffffffffffffffffffff1673ffffffffffffffffffffffffffffffffffffffff168152602001908152602001600020549050919050565b6000600160009054906101000a900473ffffffffffffffffffffffffffffffffffffffff16905090565b600080600061184f615829565b600660008681526020019081526020016000206040518060600160405290816000820160009054906101000a900473ffffffffffffffffffffffffffffffffffffffff1673ffffffffffffffffffffffffffffffffffffffff1673ffffffffffffffffffffffffffffffffffffffff168152602001600182015481526020016002820154815250509050806000015181602001518260400151935093509350509193909250565b6000809054906101000a900460ff16611977576040517f08c379a000000000000000000000000000000000000000000000000000000000815260040180806020018281038252601f8152602001807f5265656e7472616e637947756172643a207265656e7472616e742063616c6c0081525060200191505060405180910390fd5b60008060006101000a81548160ff02191690831515021790555080600a60003373ffffffffffffffffffffffffffffffffffffffff1673ffffffffffffffffffffffffffffffffffffffff168152602001908152602001600020541015611a46576040517f08c379a000000000000000000000000000000000000000000000000000000000815260040180806020018281038252600c8152602001807f42616c203c20616d6f756e74000000000000000000000000000000000000000081525060200191505060405180910390fd5b60003373ffffffffffffffffffffffffffffffffffffffff168260405180600001905060006040518083038185875af1925050503d8060008114611aa6576040519150601f19603f3d011682016040523d82523d6000602084013e611aab565b606091505b5050905080611b22576040517f08c379a00000000000000000000000000000000000000000000000000000000081526004018080602001828103825260108152602001807f5472616e73666572206661696c65642e0000000000000000000000000000000081525060200191505060405180910390fd5b5060016000806101000a81548160ff02191690831515021790555050565b611b48614c15565b73ffffffffffffffffffffffffffffffffffffffff16600060019054906101000a900473ffffffffffffffffffffffffffffffffffffffff1673ffffffffffffffffffffffffffffffffffffffff1614611c0a576040517f08c379a00000000000000000000000000000000000000000000000000000000081526004018080602001828103825260208152602001807f4f776e61626c653a2063616c6c6572206973206e6f7420746865206f776e657281525060200191505060405180910390fd5b611c12614c1d565b565b60008060009054906101000a900460ff16611c97576040517f08c379a000000000000000000000000000000000000000000000000000000000815260040180806020018281038252601f8152602001807f5265656e7472616e637947756172643a207265656e7472616e742063616c6c0081525060200191505060405180910390fd5b60008060006101000a81548160ff021916908315150217905550611cb9615860565b60086000857bffffffffffffffffffffffffffffffffffffffffffffffffffffffff19167bffffffffffffffffffffffffffffffffffffffffffffffffffffffff191681526020019081526020016000206000848152602001908152602001600020604051806101000160405290816000820160009054906101000a900473ffffffffffffffffffffffffffffffffffffffff1673ffffffffffffffffffffffffffffffffffffffff1673ffffffffffffffffffffffffffffffffffffffff168152602001600182015481526020016002820160009054906101000a900460e01b7bffffffffffffffffffffffffffffffffffffffffffffffffffffffff19167bffffffffffffffffffffffffffffffffffffffffffffffffffffffff19168152602001600382015481526020016004820160009054906101000a900473ffffffffffffffffffffffffffffffffffffffff1673ffffffffffffffffffffffffffffffffffffffff1673ffffffffffffffffffffffffffffffffffffffff168152602001600582015481526020016006820160009054906101000a900473ffffffffffffffffffffffffffffffffffffffff1673ffffffffffffffffffffffffffffffffffffffff1673ffffffffffffffffffffffffffffffffffffffff1681526020016007820154815250509050806000015173ffffffffffffffffffffffffffffffffffffffff163373ffffffffffffffffffffffffffffffffffffffff1614611f4d576040517f08c379a00000000000000000000000000000000000000000000000000000000081526004018080602001828103825260138152602001807f4d73672e73656e64657220213d2062757965720000000000000000000000000081525060200191505060405180910390fd5b611f578484614d25565b611fb18160200151600a6000846000015173ffffffffffffffffffffffffffffffffffffffff1673ffffffffffffffffffffffffffffffffffffffff168152602001908152602001600020546146a290919063ffffffff16565b50837bffffffffffffffffffffffffffffffffffffffffffffffffffffffff19163373ffffffffffffffffffffffffffffffffffffffff167fed18f20d3eeeed1cec070fc3faf63881b67853d7965002f641ce38d72bace050856040518082815260200191505060405180910390a3600191505060016000806101000a81548160ff02191690831515021790555092915050565b60008060159054906101000a900460ff16905090565b60055481565b600360009054906101000a900473ffffffffffffffffffffffffffffffffffffffff1681565b60066020528060005260406000206000915090508060000160009054906101000a900473ffffffffffffffffffffffffffffffffffffffff16908060010154908060020154905083565b6120d9614c15565b73ffffffffffffffffffffffffffffffffffffffff16600060019054906101000a900473ffffffffffffffffffffffffffffffffffffffff1673ffffffffffffffffffffffffffffffffffffffff161461219b576040517f08c379a00000000000000000000000000000000000000000000000000000000081526004018080602001828103825260208152602001807f4f776e61626c653a2063616c6c6572206973206e6f7420746865206f776e657281525060200191505060405180910390fd5b600073ffffffffffffffffffffffffffffffffffffffff16600060019054906101000a900473ffffffffffffffffffffffffffffffffffffffff1673ffffffffffffffffffffffffffffffffffffffff167f8be0079c531659141344cd1fd0a4f28419497f9722a3daafe3b4186f6b6457e060405160405180910390a360008060016101000a81548173ffffffffffffffffffffffffffffffffffffffff021916908373ffffffffffffffffffffffffffffffffffffffff160217905550565b60096020528060005260406000206000915090505481565b6000806000806000806000806000600460009054906101000a900473ffffffffffffffffffffffffffffffffffffffff1673ffffffffffffffffffffffffffffffffffffffff1663dc38daf88c6040518263ffffffff1660e01b8152600401808281526020019150506101206040518083038186803b1580156122f557600080fd5b505afa158015612309573d6000803e3d6000fd5b505050506040513d61012081101561232057600080fd5b8101908080519060200190929190805190602001909291908051906020019092919080519060200190929190805190602001909291908051906020019092919080519060200190929190805190602001909291908051906020019092919050505050809850819950829a50839b50849c50859d50869e50879f50505050505050505060008787878787604051602001808681526020018573ffffffffffffffffffffffffffffffffffffffff1673ffffffffffffffffffffffffffffffffffffffff1660601b81526014018481526020018373ffffffffffffffffffffffffffffffffffffffff1673ffffffffffffffffffffffffffffffffffffffff1660601b8152601401828152602001955050505050506040516020818303038152906040528051906020012090506000600190505b60096000847bffffffffffffffffffffffffffffffffffffffffffffffffffffffff19167bffffffffffffffffffffffffffffffffffffffffffffffffffffffff19168152602001908152602001600020548111612799576124b2615860565b60086000857bffffffffffffffffffffffffffffffffffffffffffffffffffffffff19167bffffffffffffffffffffffffffffffffffffffffffffffffffffffff191681526020019081526020016000206000838152602001908152602001600020604051806101000160405290816000820160009054906101000a900473ffffffffffffffffffffffffffffffffffffffff1673ffffffffffffffffffffffffffffffffffffffff1673ffffffffffffffffffffffffffffffffffffffff168152602001600182015481526020016002820160009054906101000a900460e01b7bffffffffffffffffffffffffffffffffffffffffffffffffffffffff19167bffffffffffffffffffffffffffffffffffffffffffffffffffffffff19168152602001600382015481526020016004820160009054906101000a900473ffffffffffffffffffffffffffffffffffffffff1673ffffffffffffffffffffffffffffffffffffffff1673ffffffffffffffffffffffffffffffffffffffff168152602001600582015481526020016006820160009054906101000a900473ffffffffffffffffffffffffffffffffffffffff1673ffffffffffffffffffffffffffffffffffffffff1673ffffffffffffffffffffffffffffffffffffffff16815260200160078201548152505090506000816060015182608001518360a001518460c001518560e00151604051602001808681526020018573ffffffffffffffffffffffffffffffffffffffff1673ffffffffffffffffffffffffffffffffffffffff1660601b81526014018481526020018373ffffffffffffffffffffffffffffffffffffffff1673ffffffffffffffffffffffffffffffffffffffff1660601b815260140182815260200195505050505050604051602081830303815290604052805190602001209050808414801561277157508d826020015110155b1561278a57829c505050505050505050505050506127a8565b50508080600101915050612452565b50600099505050505050505050505b92915050565b60008060019054906101000a900473ffffffffffffffffffffffffffffffffffffffff16905090565b6127df614c15565b73ffffffffffffffffffffffffffffffffffffffff16600060019054906101000a900473ffffffffffffffffffffffffffffffffffffffff1673ffffffffffffffffffffffffffffffffffffffff16146128a1576040517f08c379a00000000000000000000000000000000000000000000000000000000081526004018080602001828103825260208152602001807f4f776e61626c653a2063616c6c6572206973206e6f7420746865206f776e657281525060200191505060405180910390fd5b6128a9614f62565b565b6008602052816000526040600020602052806000526040600020600091509150508060000160009054906101000a900473ffffffffffffffffffffffffffffffffffffffff16908060010154908060020160009054906101000a900460e01b908060030154908060040160009054906101000a900473ffffffffffffffffffffffffffffffffffffffff16908060050154908060060160009054906101000a900473ffffffffffffffffffffffffffffffffffffffff16908060070154905088565b60076020528060005260406000206000915090508060000160009054906101000a900473ffffffffffffffffffffffffffffffffffffffff16908060010154908060020154905083565b60008060006129c4615906565b600760008681526020019081526020016000206040518060600160405290816000820160009054906101000a900473ffffffffffffffffffffffffffffffffffffffff1673ffffffffffffffffffffffffffffffffffffffff1673ffffffffffffffffffffffffffffffffffffffff168152602001600182015481526020016002820154815250509050806000015181602001518260400151935093509350509193909250565b60008060009054906101000a900460ff16612aee576040517f08c379a000000000000000000000000000000000000000000000000000000000815260040180806020018281038252601f8152602001807f5265656e7472616e637947756172643a207265656e7472616e742063616c6c0081525060200191505060405180910390fd5b60008060006101000a81548160ff021916908315150217905550600060159054906101000a900460ff1615612b8b576040517f08c379a00000000000000000000000000000000000000000000000000000000081526004018080602001828103825260108152602001807f5061757361626c653a207061757365640000000000000000000000000000000081525060200191505060405180910390fd5b60008711612c01576040517f08c379a00000000000000000000000000000000000000000000000000000000081526004018080602001828103825260078152602001807f426964203c20300000000000000000000000000000000000000000000000000081525060200191505060405180910390fd5b85600360009054906101000a900473ffffffffffffffffffffffffffffffffffffffff1673ffffffffffffffffffffffffffffffffffffffff166389332f7f6040518163ffffffff1660e01b8152600401602060405180830381600087803b158015612c6c57600080fd5b505af1158015612c80573d6000803e3d6000fd5b505050506040513d6020811015612c9657600080fd5b8101908080519060200190929190505050106130b3576000612cd56064612cc760148a61506c90919063ffffffff16565b61465890919063ffffffff16565b905080881015612d4d576040517f08c379a000000000000000000000000000000000000000000000000000000000815260040180806020018281038252600d8152602001807f426964203c207072656d69756d0000000000000000000000000000000000000081525060200191505060405180910390fd5b6000612d776103e8612d6960038561506c90919063ffffffff16565b61465890919063ffffffff16565b90506000612d8e82846146a290919063ffffffff16565b9050612de282600b60003373ffffffffffffffffffffffffffffffffffffffff1673ffffffffffffffffffffffffffffffffffffffff168152602001908152602001600020546146a290919063ffffffff16565b600b60003373ffffffffffffffffffffffffffffffffffffffff1673ffffffffffffffffffffffffffffffffffffffff16815260200190815260200160002081905550600360009054906101000a900473ffffffffffffffffffffffffffffffffffffffff1673ffffffffffffffffffffffffffffffffffffffff16637f55560e848b8a8a8a336040518763ffffffff1660e01b8152600401808681526020018581526020018473ffffffffffffffffffffffffffffffffffffffff1673ffffffffffffffffffffffffffffffffffffffff1681526020018381526020018273ffffffffffffffffffffffffffffffffffffffff1673ffffffffffffffffffffffffffffffffffffffff168152602001955050505050506020604051808303818588803b158015612f1257600080fd5b505af1158015612f26573d6000803e3d6000fd5b50505050506040513d6020811015612f3d57600080fd5b8101908080519060200190929190505050503373ffffffffffffffffffffffffffffffffffffffff167f2bde01e3e172c68fa385b90f60894a40bd1ebb719f604478f3d178dd00ee5b268b8b604051808381526020018281526020019250505060405180910390a2803411156130a75760003373ffffffffffffffffffffffffffffffffffffffff16612fd9833461472a90919063ffffffff16565b60405180600001905060006040518083038185875af1925050503d806000811461301f576040519150601f19603f3d011682016040523d82523d6000602084013e613024565b606091505b505090508061309b576040517f08c379a000000000000000000000000000000000000000000000000000000000815260040180806020018281038252600e8152602001807f5472616e73666572206661696c2e00000000000000000000000000000000000081525060200191505060405180910390fd5b809450505050506136c5565b600193505050506136c5565b60006130ca61014d8961465890919063ffffffff16565b905060006130e1828a6146a290919063ffffffff16565b905080341015613159576040517f08c379a000000000000000000000000000000000000000000000000000000000815260040180806020018281038252600a8152602001807f56616c203c20636f73740000000000000000000000000000000000000000000081525060200191505060405180910390fd5b600084604051602001808281526020019150506040516020818303038152906040528051906020012086604051602001808273ffffffffffffffffffffffffffffffffffffffff1673ffffffffffffffffffffffffffffffffffffffff1660601b81526014019150506040516020818303038152906040528051906020012089604051602001808273ffffffffffffffffffffffffffffffffffffffff1673ffffffffffffffffffffffffffffffffffffffff1660601b815260140191505060405160208183030381529060405280519060200120181890506000613299600160096000857bffffffffffffffffffffffffffffffffffffffffffffffffffffffff19167bffffffffffffffffffffffffffffffffffffffffffffffffffffffff19168152602001908152602001600020546146a290919063ffffffff16565b90508060096000847bffffffffffffffffffffffffffffffffffffffffffffffffffffffff19167bffffffffffffffffffffffffffffffffffffffffffffffffffffffff19168152602001908152602001600020819055506040518061010001604052803373ffffffffffffffffffffffffffffffffffffffff1681526020018c8152602001837bffffffffffffffffffffffffffffffffffffffffffffffffffffffff191681526020018b81526020018a73ffffffffffffffffffffffffffffffffffffffff1681526020018981526020018873ffffffffffffffffffffffffffffffffffffffff1681526020018781525060086000847bffffffffffffffffffffffffffffffffffffffffffffffffffffffff19167bffffffffffffffffffffffffffffffffffffffffffffffffffffffff19168152602001908152602001600020600083815260200190815260200160002060008201518160000160006101000a81548173ffffffffffffffffffffffffffffffffffffffff021916908373ffffffffffffffffffffffffffffffffffffffff1602179055506020820151816001015560408201518160020160006101000a81548163ffffffff021916908360e01c02179055506060820151816003015560808201518160040160006101000a81548173ffffffffffffffffffffffffffffffffffffffff021916908373ffffffffffffffffffffffffffffffffffffffff16021790555060a0820151816005015560c08201518160060160006101000a81548173ffffffffffffffffffffffffffffffffffffffff021916908373ffffffffffffffffffffffffffffffffffffffff16021790555060e082015181600701559050503373ffffffffffffffffffffffffffffffffffffffff167fd2d7ace432bb8c05ed9428315fadbca40c8210a9bc53367e4df31921fceee29e8c60096000867bffffffffffffffffffffffffffffffffffffffffffffffffffffffff19167bffffffffffffffffffffffffffffffffffffffffffffffffffffffff1916815260200190815260200160002054604051808381526020018281526020019250505060405180910390a2823411156136bc5760003373ffffffffffffffffffffffffffffffffffffffff166135ed853461472a90919063ffffffff16565b60405180600001905060006040518083038185875af1925050503d8060008114613633576040519150601f19603f3d011682016040523d82523d6000602084013e613638565b606091505b50509050806136af576040517f08c379a000000000000000000000000000000000000000000000000000000000815260040180806020018281038252600e8152602001807f5472616e73666572206661696c2e00000000000000000000000000000000000081525060200191505060405180910390fd5b80955050505050506136c5565b60019450505050505b60016000806101000a81548160ff0219169083151502179055509695505050505050565b600260009054906101000a900473ffffffffffffffffffffffffffffffffffffffff1681565b600a6020528060005260406000206000915090505481565b60008060159054906101000a900460ff16156137ab576040517f08c379a00000000000000000000000000000000000000000000000000000000081526004018080602001828103825260108152602001807f5061757361626c653a207061757365640000000000000000000000000000000081525060200191505060405180910390fd5b60008311613821576040517f08c379a000000000000000000000000000000000000000000000000000000000815260040180806020018281038252600d8152602001807f496e76616c696420546f6b656e0000000000000000000000000000000000000081525060200191505060405180910390fd5b60008211613897576040517f08c379a00000000000000000000000000000000000000000000000000000000081526004018080602001828103825260078152602001807f41736b203c20300000000000000000000000000000000000000000000000000081525060200191505060405180910390fd5b600460009054906101000a900473ffffffffffffffffffffffffffffffffffffffff1673ffffffffffffffffffffffffffffffffffffffff16631d8e2f43846040518263ffffffff1660e01b81526004018082815260200191505060206040518083038186803b15801561390a57600080fd5b505afa15801561391e573d6000803e3d6000fd5b505050506040513d602081101561393457600080fd5b81019080805190602001909291905050505061394f836144e0565b156139c2576040517f08c379a00000000000000000000000000000000000000000000000000000000081526004018080602001828103825260148152602001807f546f6b656e206c697374656420616c726561647900000000000000000000000081525060200191505060405180910390fd5b60006139ce8484612273565b90506000811115613ca3576000600460009054906101000a900473ffffffffffffffffffffffffffffffffffffffff1673ffffffffffffffffffffffffffffffffffffffff16631160da15866040518263ffffffff1660e01b81526004018082815260200191505060206040518083038186803b158015613a4e57600080fd5b505afa158015613a62573d6000803e3d6000fd5b505050506040513d6020811015613a7857600080fd5b81019080805190602001909291905050509050613a93615860565b60086000837bffffffffffffffffffffffffffffffffffffffffffffffffffffffff19167bffffffffffffffffffffffffffffffffffffffffffffffffffffffff191681526020019081526020016000206000848152602001908152602001600020604051806101000160405290816000820160009054906101000a900473ffffffffffffffffffffffffffffffffffffffff1673ffffffffffffffffffffffffffffffffffffffff1673ffffffffffffffffffffffffffffffffffffffff168152602001600182015481526020016002820160009054906101000a900460e01b7bffffffffffffffffffffffffffffffffffffffffffffffffffffffff19167bffffffffffffffffffffffffffffffffffffffffffffffffffffffff19168152602001600382015481526020016004820160009054906101000a900473ffffffffffffffffffffffffffffffffffffffff1673ffffffffffffffffffffffffffffffffffffffff1673ffffffffffffffffffffffffffffffffffffffff168152602001600582015481526020016006820160009054906101000a900473ffffffffffffffffffffffffffffffffffffffff1673ffffffffffffffffffffffffffffffffffffffff1673ffffffffffffffffffffffffffffffffffffffff1681526020016007820154815250509050613c998682602001518784600001513388886150f2565b9350505050613f69565b6000811415613f6757613cb4615906565b600760008681526020019081526020016000206040518060600160405290816000820160009054906101000a900473ffffffffffffffffffffffffffffffffffffffff1673ffffffffffffffffffffffffffffffffffffffff1673ffffffffffffffffffffffffffffffffffffffff16815260200160018201548152602001600282015481525050905083816020015110613d6957613d60600086836020015187856000015133614774565b92505050613f69565b60405180606001604052803373ffffffffffffffffffffffffffffffffffffffff168152602001858152602001868152506006600087815260200190815260200160002060008201518160000160006101000a81548173ffffffffffffffffffffffffffffffffffffffff021916908373ffffffffffffffffffffffffffffffffffffffff1602179055506020820151816001015560408201518160020155905050600460009054906101000a900473ffffffffffffffffffffffffffffffffffffffff1673ffffffffffffffffffffffffffffffffffffffff166342842e0e3330886040518463ffffffff1660e01b8152600401808473ffffffffffffffffffffffffffffffffffffffff1673ffffffffffffffffffffffffffffffffffffffff1681526020018373ffffffffffffffffffffffffffffffffffffffff1673ffffffffffffffffffffffffffffffffffffffff1681526020018281526020019350505050600060405180830381600087803b158015613ee857600080fd5b505af1158015613efc573d6000803e3d6000fd5b50505050843373ffffffffffffffffffffffffffffffffffffffff167ffc606b54ed37a7bb79f8a5ce668180eae183f82dd0b0dcf5f0af54153f26f5e686600060405180838152602001821515151581526020019250505060405180910390a3600192505050613f69565b505b92915050565b600460009054906101000a900473ffffffffffffffffffffffffffffffffffffffff1681565b613f9d614c15565b73ffffffffffffffffffffffffffffffffffffffff16600060019054906101000a900473ffffffffffffffffffffffffffffffffffffffff1673ffffffffffffffffffffffffffffffffffffffff161461405f576040517f08c379a00000000000000000000000000000000000000000000000000000000081526004018080602001828103825260208152602001807f4f776e61626c653a2063616c6c6572206973206e6f7420746865206f776e657281525060200191505060405180910390fd5b80600260006101000a81548173ffffffffffffffffffffffffffffffffffffffff021916908373ffffffffffffffffffffffffffffffffffffffff16021790555080600360006101000a81548173ffffffffffffffffffffffffffffffffffffffff021916908373ffffffffffffffffffffffffffffffffffffffff16021790555050565b60008060009054906101000a900460ff16614167576040517f08c379a000000000000000000000000000000000000000000000000000000000815260040180806020018281038252601f8152602001807f5265656e7472616e637947756172643a207265656e7472616e742063616c6c0081525060200191505060405180910390fd5b60008060006101000a81548160ff021916908315150217905550614189615906565b600760008481526020019081526020016000206040518060600160405290816000820160009054906101000a900473ffffffffffffffffffffffffffffffffffffffff1673ffffffffffffffffffffffffffffffffffffffff1673ffffffffffffffffffffffffffffffffffffffff16815260200160018201548152602001600282015481525050905060008311614289576040517f08c379a000000000000000000000000000000000000000000000000000000000815260040180806020018281038252600d8152602001807f496e76616c696420546f6b656e0000000000000000000000000000000000000081525060200191505060405180910390fd5b806000015173ffffffffffffffffffffffffffffffffffffffff163373ffffffffffffffffffffffffffffffffffffffff161461432e576040517f08c379a00000000000000000000000000000000000000000000000000000000081526004018080602001828103825260138152602001807f4d73672e73656e64657220213d2062757965720000000000000000000000000081525060200191505060405180910390fd5b614337836154b6565b6143918160200151600a6000846000015173ffffffffffffffffffffffffffffffffffffffff1673ffffffffffffffffffffffffffffffffffffffff168152602001908152602001600020546146a290919063ffffffff16565b50823373ffffffffffffffffffffffffffffffffffffffff167f1ca96d5875625dda27dd28020a4261caf15b1fdc17367dc711606490812845ea6001604051808215151515815260200191505060405180910390a3600191505060016000806101000a81548160ff021916908315150217905550919050565b614412614c15565b73ffffffffffffffffffffffffffffffffffffffff16600060019054906101000a900473ffffffffffffffffffffffffffffffffffffffff1673ffffffffffffffffffffffffffffffffffffffff16146144d4576040517f08c379a00000000000000000000000000000000000000000000000000000000081526004018080602001828103825260208152602001807f4f776e61626c653a2063616c6c6572206973206e6f7420746865206f776e657281525060200191505060405180910390fd5b6144dd8161555d565b50565b60006144ea615829565b600660008481526020019081526020016000206040518060600160405290816000820160009054906101000a900473ffffffffffffffffffffffffffffffffffffffff1673ffffffffffffffffffffffffffffffffffffffff1673ffffffffffffffffffffffffffffffffffffffff168152602001600182015481526020016002820154815250509050600073ffffffffffffffffffffffffffffffffffffffff16816000015173ffffffffffffffffffffffffffffffffffffffff161415915050919050565b60066000808152602001908152602001600020600660008381526020019081526020016000206000820160009054906101000a900473ffffffffffffffffffffffffffffffffffffffff168160000160006101000a81548173ffffffffffffffffffffffffffffffffffffffff021916908373ffffffffffffffffffffffffffffffffffffffff160217905550600182015481600101556002820154816002015590505050565b600061469a83836040518060400160405280601a81526020017f536166654d6174683a206469766973696f6e206279207a65726f0000000000008152506156a3565b905092915050565b600080828401905083811015614720576040517f08c379a000000000000000000000000000000000000000000000000000000000815260040180806020018281038252601b8152602001807f536166654d6174683a206164646974696f6e206f766572666c6f77000000000081525060200191505060405180910390fd5b8091505092915050565b600061476c83836040518060400160405280601e81526020017f536166654d6174683a207375627472616374696f6e206f766572666c6f770000815250615769565b905092915050565b600086156147e657858373ffffffffffffffffffffffffffffffffffffffff167fde9d8b888f0d2795244dfcb9f98957e107ed8e1014b2762473613be297b2858587600160405180838152602001821515151581526020019250505060405180910390a36147e1866145b1565b61484c565b858273ffffffffffffffffffffffffffffffffffffffff167ffc606b54ed37a7bb79f8a5ce668180eae183f82dd0b0dcf5f0af54153f26f5e686600160405180838152602001821515151581526020019250505060405180910390a361484b866154b6565b5b61489e84600a60008573ffffffffffffffffffffffffffffffffffffffff1673ffffffffffffffffffffffffffffffffffffffff168152602001908152602001600020546146a290919063ffffffff16565b600a60008473ffffffffffffffffffffffffffffffffffffffff1673ffffffffffffffffffffffffffffffffffffffff1681526020019081526020016000208190555060006148f861014d8761465890919063ffffffff16565b905061494c81600b60008673ffffffffffffffffffffffffffffffffffffffff1673ffffffffffffffffffffffffffffffffffffffff168152602001908152602001600020546146a290919063ffffffff16565b600b60008573ffffffffffffffffffffffffffffffffffffffff1673ffffffffffffffffffffffffffffffffffffffff168152602001908152602001600020819055506149a4816005546146a290919063ffffffff16565b6005819055508715614aaa57600460009054906101000a900473ffffffffffffffffffffffffffffffffffffffff1673ffffffffffffffffffffffffffffffffffffffff166342842e0e30868a6040518463ffffffff1660e01b8152600401808473ffffffffffffffffffffffffffffffffffffffff1673ffffffffffffffffffffffffffffffffffffffff1681526020018373ffffffffffffffffffffffffffffffffffffffff1673ffffffffffffffffffffffffffffffffffffffff1681526020018281526020019350505050600060405180830381600087803b158015614a8d57600080fd5b505af1158015614aa1573d6000803e3d6000fd5b50505050614ba0565b600460009054906101000a900473ffffffffffffffffffffffffffffffffffffffff1673ffffffffffffffffffffffffffffffffffffffff166342842e0e84868a6040518463ffffffff1660e01b8152600401808473ffffffffffffffffffffffffffffffffffffffff1673ffffffffffffffffffffffffffffffffffffffff1681526020018373ffffffffffffffffffffffffffffffffffffffff1673ffffffffffffffffffffffffffffffffffffffff1681526020018281526020019350505050600060405180830381600087803b158015614b8757600080fd5b505af1158015614b9b573d6000803e3d6000fd5b505050505b868473ffffffffffffffffffffffffffffffffffffffff168473ffffffffffffffffffffffffffffffffffffffff167f9b2a24ddc2ec8723850257da7c71559ce2c0db09c79c037d7117f6b5b71544d1886040518082815260200191505060405180910390a460019150509695505050505050565b600033905090565b600060159054906101000a900460ff16614c9f576040517f08c379a00000000000000000000000000000000000000000000000000000000081526004018080602001828103825260148152602001807f5061757361626c653a206e6f742070617573656400000000000000000000000081525060200191505060405180910390fd5b60008060156101000a81548160ff0219169083151502179055507f5db9ee0a495bf2e6ff9c91a7834c1ba4fdd244a5e8aa4e537bd38aeae4b073aa614ce2614c15565b604051808273ffffffffffffffffffffffffffffffffffffffff1673ffffffffffffffffffffffffffffffffffffffff16815260200191505060405180910390a1565b600860008060e01b7bffffffffffffffffffffffffffffffffffffffffffffffffffffffff19168152602001908152602001600020600080815260200190815260200160002060086000847bffffffffffffffffffffffffffffffffffffffffffffffffffffffff19167bffffffffffffffffffffffffffffffffffffffffffffffffffffffff1916815260200190815260200160002060008381526020019081526020016000206000820160009054906101000a900473ffffffffffffffffffffffffffffffffffffffff168160000160006101000a81548173ffffffffffffffffffffffffffffffffffffffff021916908373ffffffffffffffffffffffffffffffffffffffff160217905550600182015481600101556002820160009054906101000a900460e01b8160020160006101000a81548163ffffffff021916908360e01c0217905550600382015481600301556004820160009054906101000a900473ffffffffffffffffffffffffffffffffffffffff168160040160006101000a81548173ffffffffffffffffffffffffffffffffffffffff021916908373ffffffffffffffffffffffffffffffffffffffff160217905550600582015481600501556006820160009054906101000a900473ffffffffffffffffffffffffffffffffffffffff168160060160006101000a81548173ffffffffffffffffffffffffffffffffffffffff021916908373ffffffffffffffffffffffffffffffffffffffff160217905550600782015481600701559050505050565b600060159054906101000a900460ff1615614fe5576040517f08c379a00000000000000000000000000000000000000000000000000000000081526004018080602001828103825260108152602001807f5061757361626c653a207061757365640000000000000000000000000000000081525060200191505060405180910390fd5b6001600060156101000a81548160ff0219169083151502179055507f62e78cea01bee320cd4e420270b5ea74000d11b0c9f74754ebdbfc544b05a258615029614c15565b604051808273ffffffffffffffffffffffffffffffffffffffff1673ffffffffffffffffffffffffffffffffffffffff16815260200191505060405180910390a1565b60008083141561507f57600090506150ec565b600082840290508284828161509057fe5b04146150e7576040517f08c379a00000000000000000000000000000000000000000000000000000000081526004018080602001828103825260218152602001806159646021913960400191505060405180910390fd5b809150505b92915050565b60008060009054906101000a900460ff16615175576040517f08c379a000000000000000000000000000000000000000000000000000000000815260040180806020018281038252601f8152602001807f5265656e7472616e637947756172643a207265656e7472616e742063616c6c0081525060200191505060405180910390fd5b60008060006101000a81548160ff0219169083151502179055506151998284614d25565b6151eb86600a60008773ffffffffffffffffffffffffffffffffffffffff1673ffffffffffffffffffffffffffffffffffffffff168152602001908152602001600020546146a290919063ffffffff16565b600a60008673ffffffffffffffffffffffffffffffffffffffff1673ffffffffffffffffffffffffffffffffffffffff16815260200190815260200160002081905550600061524561014d8961465890919063ffffffff16565b905061529981600b60008873ffffffffffffffffffffffffffffffffffffffff1673ffffffffffffffffffffffffffffffffffffffff168152602001908152602001600020546146a290919063ffffffff16565b600b60008773ffffffffffffffffffffffffffffffffffffffff1673ffffffffffffffffffffffffffffffffffffffff168152602001908152602001600020819055506152f1816005546146a290919063ffffffff16565b600581905550600460009054906101000a900473ffffffffffffffffffffffffffffffffffffffff1673ffffffffffffffffffffffffffffffffffffffff166342842e0e86888c6040518463ffffffff1660e01b8152600401808473ffffffffffffffffffffffffffffffffffffffff1673ffffffffffffffffffffffffffffffffffffffff1681526020018373ffffffffffffffffffffffffffffffffffffffff1673ffffffffffffffffffffffffffffffffffffffff1681526020018281526020019350505050600060405180830381600087803b1580156153d457600080fd5b505af11580156153e8573d6000803e3d6000fd5b50505050888573ffffffffffffffffffffffffffffffffffffffff167ffc606b54ed37a7bb79f8a5ce668180eae183f82dd0b0dcf5f0af54153f26f5e689600160405180838152602001821515151581526020019250505060405180910390a3888573ffffffffffffffffffffffffffffffffffffffff167fd4ffed65b5601eb7426e0e5095212d066dbb0bf32455030924454fbab51c76bf60405160405180910390a3600191505060016000806101000a81548160ff021916908315150217905550979650505050505050565b60076000808152602001908152602001600020600760008381526020019081526020016000206000820160009054906101000a900473ffffffffffffffffffffffffffffffffffffffff168160000160006101000a81548173ffffffffffffffffffffffffffffffffffffffff021916908373ffffffffffffffffffffffffffffffffffffffff160217905550600182015481600101556002820154816002015590505050565b600073ffffffffffffffffffffffffffffffffffffffff168173ffffffffffffffffffffffffffffffffffffffff1614156155e3576040517f08c379a000000000000000000000000000000000000000000000000000000000815260040180806020018281038252602681526020018061593e6026913960400191505060405180910390fd5b8073ffffffffffffffffffffffffffffffffffffffff16600060019054906101000a900473ffffffffffffffffffffffffffffffffffffffff1673ffffffffffffffffffffffffffffffffffffffff167f8be0079c531659141344cd1fd0a4f28419497f9722a3daafe3b4186f6b6457e060405160405180910390a380600060016101000a81548173ffffffffffffffffffffffffffffffffffffffff021916908373ffffffffffffffffffffffffffffffffffffffff16021790555050565b6000808311829061574f576040517f08c379a00000000000000000000000000000000000000000000000000000000081526004018080602001828103825283818151815260200191508051906020019080838360005b838110156157145780820151818401526020810190506156f9565b50505050905090810190601f1680156157415780820380516001836020036101000a031916815260200191505b509250505060405180910390fd5b50600083858161575b57fe5b049050809150509392505050565b6000838311158290615816576040517f08c379a00000000000000000000000000000000000000000000000000000000081526004018080602001828103825283818151815260200191508051906020019080838360005b838110156157db5780820151818401526020810190506157c0565b50505050905090810190601f1680156158085780820380516001836020036101000a031916815260200191505b509250505060405180910390fd5b5060008385039050809150509392505050565b6040518060600160405280600073ffffffffffffffffffffffffffffffffffffffff16815260200160008152602001600081525090565b604051806101000160405280600073ffffffffffffffffffffffffffffffffffffffff1681526020016000815260200160007bffffffffffffffffffffffffffffffffffffffffffffffffffffffff1916815260200160008152602001600073ffffffffffffffffffffffffffffffffffffffff16815260200160008152602001600073ffffffffffffffffffffffffffffffffffffffff168152602001600081525090565b6040518060600160405280600073ffffffffffffffffffffffffffffffffffffffff1681526020016000815260200160008152509056fe4f776e61626c653a206e6577206f776e657220697320746865207a65726f2061646472657373536166654d6174683a206d756c7469706c69636174696f6e206f766572666c6f77a2646970667358221220b5382020994cd8cfcae63a176631e0b753870f0686ccb3eaa990c9e20bbc8eb564736f6c63430006050033",
  "source": "pragma solidity ^0.6.2;\r\n\r\n/**\r\n * @title   Primitive's Exchange Contract\r\n * @notice  A Decentralized Exchange to manage the buying and selling\r\n            of Prime Option tokens.\r\n * @author  Primitive\r\n*/\r\n\r\n/*\r\n * @dev Provides information about the current execution context, including the\r\n * sender of the transaction and its data. While these are generally available\r\n * via msg.sender and msg.data, they should not be accessed in such a direct\r\n * manner, since when dealing with GSN meta-transactions the account sending and\r\n * paying for execution may not be the actual sender (as far as an application\r\n * is concerned).\r\n *\r\n * This contract is only required for intermediate, library-like contracts.\r\n */\r\ncontract Context {\r\n    // Empty internal constructor, to prevent people from mistakenly deploying\r\n    // an instance of this contract, which should be used via inheritance.\r\n    constructor () internal { }\r\n\r\n    function _msgSender() internal view virtual returns (address payable) {\r\n        return msg.sender;\r\n    }\r\n\r\n    function _msgData() internal view virtual returns (bytes memory) {\r\n        this; // silence state mutability warning without generating bytecode - see https://github.com/ethereum/solidity/issues/2691\r\n        return msg.data;\r\n    }\r\n}\r\n\r\n/**\r\n * @dev Contract module which provides a basic access control mechanism, where\r\n * there is an account (an owner) that can be granted exclusive access to\r\n * specific functions.\r\n *\r\n * By default, the owner account will be the one that deploys the contract. This\r\n * can later be changed with {transferOwnership}.\r\n *\r\n * This module is used through inheritance. It will make available the modifier\r\n * `onlyOwner`, which can be applied to your functions to restrict their use to\r\n * the owner.\r\n */\r\ncontract Ownable is Context {\r\n    address private _owner;\r\n\r\n    event OwnershipTransferred(address indexed previousOwner, address indexed newOwner);\r\n\r\n    /**\r\n     * @dev Initializes the contract setting the deployer as the initial owner.\r\n     */\r\n    constructor () internal {\r\n        address msgSender = _msgSender();\r\n        _owner = msgSender;\r\n        emit OwnershipTransferred(address(0), msgSender);\r\n    }\r\n\r\n    /**\r\n     * @dev Returns the address of the current owner.\r\n     */\r\n    function owner() public view returns (address) {\r\n        return _owner;\r\n    }\r\n\r\n    /**\r\n     * @dev Throws if called by any account other than the owner.\r\n     */\r\n    modifier onlyOwner() {\r\n        require(_owner == _msgSender(), \"Ownable: caller is not the owner\");\r\n        _;\r\n    }\r\n\r\n    /**\r\n     * @dev Leaves the contract without owner. It will not be possible to call\r\n     * `onlyOwner` functions anymore. Can only be called by the current owner.\r\n     *\r\n     * NOTE: Renouncing ownership will leave the contract without an owner,\r\n     * thereby removing any functionality that is only available to the owner.\r\n     */\r\n    function renounceOwnership() public virtual onlyOwner {\r\n        emit OwnershipTransferred(_owner, address(0));\r\n        _owner = address(0);\r\n    }\r\n\r\n    /**\r\n     * @dev Transfers ownership of the contract to a new account (`newOwner`).\r\n     * Can only be called by the current owner.\r\n     */\r\n    function transferOwnership(address newOwner) public virtual onlyOwner {\r\n        _transferOwnership(newOwner);\r\n    }\r\n\r\n    /**\r\n     * @dev Transfers ownership of the contract to a new account (`newOwner`).\r\n     */\r\n    function _transferOwnership(address newOwner) internal virtual {\r\n        require(newOwner != address(0), \"Ownable: new owner is the zero address\");\r\n        emit OwnershipTransferred(_owner, newOwner);\r\n        _owner = newOwner;\r\n    }\r\n}\r\n\r\n/**\r\n * @dev Wrappers over Solidity's arithmetic operations with added overflow\r\n * checks.\r\n *\r\n * Arithmetic operations in Solidity wrap on overflow. This can easily result\r\n * in bugs, because programmers usually assume that an overflow raises an\r\n * error, which is the standard behavior in high level programming languages.\r\n * `SafeMath` restores this intuition by reverting the transaction when an\r\n * operation overflows.\r\n *\r\n * Using this library instead of the unchecked operations eliminates an entire\r\n * class of bugs, so it's recommended to use it always.\r\n */\r\nlibrary SafeMath {\r\n    /**\r\n     * @dev Returns the addition of two unsigned integers, reverting on\r\n     * overflow.\r\n     *\r\n     * Counterpart to Solidity's `+` operator.\r\n     *\r\n     * Requirements:\r\n     * - Addition cannot overflow.\r\n     */\r\n    function add(uint256 a, uint256 b) internal pure returns (uint256) {\r\n        uint256 c = a + b;\r\n        require(c >= a, \"SafeMath: addition overflow\");\r\n\r\n        return c;\r\n    }\r\n\r\n    /**\r\n     * @dev Returns the subtraction of two unsigned integers, reverting on\r\n     * overflow (when the result is negative).\r\n     *\r\n     * Counterpart to Solidity's `-` operator.\r\n     *\r\n     * Requirements:\r\n     * - Subtraction cannot overflow.\r\n     */\r\n    function sub(uint256 a, uint256 b) internal pure returns (uint256) {\r\n        return sub(a, b, \"SafeMath: subtraction overflow\");\r\n    }\r\n\r\n    /**\r\n     * @dev Returns the subtraction of two unsigned integers, reverting with custom message on\r\n     * overflow (when the result is negative).\r\n     *\r\n     * Counterpart to Solidity's `-` operator.\r\n     *\r\n     * Requirements:\r\n     * - Subtraction cannot overflow.\r\n     */\r\n    function sub(uint256 a, uint256 b, string memory errorMessage) internal pure returns (uint256) {\r\n        require(b <= a, errorMessage);\r\n        uint256 c = a - b;\r\n\r\n        return c;\r\n    }\r\n\r\n    /**\r\n     * @dev Returns the multiplication of two unsigned integers, reverting on\r\n     * overflow.\r\n     *\r\n     * Counterpart to Solidity's `*` operator.\r\n     *\r\n     * Requirements:\r\n     * - Multiplication cannot overflow.\r\n     */\r\n    function mul(uint256 a, uint256 b) internal pure returns (uint256) {\r\n        // Gas optimization: this is cheaper than requiring 'a' not being zero, but the\r\n        // benefit is lost if 'b' is also tested.\r\n        // See: https://github.com/OpenZeppelin/openzeppelin-contracts/pull/522\r\n        if (a == 0) {\r\n            return 0;\r\n        }\r\n\r\n        uint256 c = a * b;\r\n        require(c / a == b, \"SafeMath: multiplication overflow\");\r\n\r\n        return c;\r\n    }\r\n\r\n    /**\r\n     * @dev Returns the integer division of two unsigned integers. Reverts on\r\n     * division by zero. The result is rounded towards zero.\r\n     *\r\n     * Counterpart to Solidity's `/` operator. Note: this function uses a\r\n     * `revert` opcode (which leaves remaining gas untouched) while Solidity\r\n     * uses an invalid opcode to revert (consuming all remaining gas).\r\n     *\r\n     * Requirements:\r\n     * - The divisor cannot be zero.\r\n     */\r\n    function div(uint256 a, uint256 b) internal pure returns (uint256) {\r\n        return div(a, b, \"SafeMath: division by zero\");\r\n    }\r\n\r\n    /**\r\n     * @dev Returns the integer division of two unsigned integers. Reverts with custom message on\r\n     * division by zero. The result is rounded towards zero.\r\n     *\r\n     * Counterpart to Solidity's `/` operator. Note: this function uses a\r\n     * `revert` opcode (which leaves remaining gas untouched) while Solidity\r\n     * uses an invalid opcode to revert (consuming all remaining gas).\r\n     *\r\n     * Requirements:\r\n     * - The divisor cannot be zero.\r\n     */\r\n    function div(uint256 a, uint256 b, string memory errorMessage) internal pure returns (uint256) {\r\n        // Solidity only automatically asserts when dividing by 0\r\n        require(b > 0, errorMessage);\r\n        uint256 c = a / b;\r\n        // assert(a == b * c + a % b); // There is no case in which this doesn't hold\r\n\r\n        return c;\r\n    }\r\n\r\n    /**\r\n     * @dev Returns the remainder of dividing two unsigned integers. (unsigned integer modulo),\r\n     * Reverts when dividing by zero.\r\n     *\r\n     * Counterpart to Solidity's `%` operator. This function uses a `revert`\r\n     * opcode (which leaves remaining gas untouched) while Solidity uses an\r\n     * invalid opcode to revert (consuming all remaining gas).\r\n     *\r\n     * Requirements:\r\n     * - The divisor cannot be zero.\r\n     */\r\n    function mod(uint256 a, uint256 b) internal pure returns (uint256) {\r\n        return mod(a, b, \"SafeMath: modulo by zero\");\r\n    }\r\n\r\n    /**\r\n     * @dev Returns the remainder of dividing two unsigned integers. (unsigned integer modulo),\r\n     * Reverts with custom message when dividing by zero.\r\n     *\r\n     * Counterpart to Solidity's `%` operator. This function uses a `revert`\r\n     * opcode (which leaves remaining gas untouched) while Solidity uses an\r\n     * invalid opcode to revert (consuming all remaining gas).\r\n     *\r\n     * Requirements:\r\n     * - The divisor cannot be zero.\r\n     */\r\n    function mod(uint256 a, uint256 b, string memory errorMessage) internal pure returns (uint256) {\r\n        require(b != 0, errorMessage);\r\n        return a % b;\r\n    }\r\n}\r\n\r\n/**\r\n * @title ERC721 token receiver interface\r\n * @dev Interface for any contract that wants to support safeTransfers\r\n * from ERC721 asset contracts.\r\n */\r\nabstract contract IERC721Receiver {\r\n    /**\r\n     * @notice Handle the receipt of an NFT\r\n     * @dev The ERC721 smart contract calls this function on the recipient\r\n     * after a {IERC721-safeTransferFrom}. This function MUST return the function selector,\r\n     * otherwise the caller will revert the transaction. The selector to be\r\n     * returned can be obtained as `this.onERC721Received.selector`. This\r\n     * function MAY throw to revert and reject the transfer.\r\n     * Note: the ERC721 contract address is always the message sender.\r\n     * @param operator The address which called `safeTransferFrom` function\r\n     * @param from The address which previously owned the token\r\n     * @param tokenId The NFT identifier which is being transferred\r\n     * @param data Additional data with no specified format\r\n     * @return bytes4 `bytes4(keccak256(\"onERC721Received(address,address,uint256,bytes)\"))`\r\n     */\r\n    function onERC721Received(address operator, address from, uint256 tokenId, bytes memory data)\r\n    public virtual returns (bytes4);\r\n}\r\n\r\ncontract ERC721Holder is IERC721Receiver {\r\n    function onERC721Received(address, address, uint256, bytes memory) public virtual override returns (bytes4) {\r\n        return this.onERC721Received.selector;\r\n    }\r\n}\r\n\r\n/**\r\n * @dev Contract module that helps prevent reentrant calls to a function.\r\n *\r\n * Inheriting from `ReentrancyGuard` will make the {nonReentrant} modifier\r\n * available, which can be applied to functions to make sure there are no nested\r\n * (reentrant) calls to them.\r\n *\r\n * Note that because there is a single `nonReentrant` guard, functions marked as\r\n * `nonReentrant` may not call one another. This can be worked around by making\r\n * those functions `private`, and then adding `external` `nonReentrant` entry\r\n * points to them.\r\n *\r\n * TIP: If you would like to learn more about reentrancy and alternative ways\r\n * to protect against it, check out our blog post\r\n * https://blog.openzeppelin.com/reentrancy-after-istanbul/[Reentrancy After Istanbul].\r\n */\r\ncontract ReentrancyGuard {\r\n    bool private _notEntered;\r\n\r\n    constructor () internal {\r\n        // Storing an initial non-zero value makes deployment a bit more\r\n        // expensive, but in exchange the refund on every call to nonReentrant\r\n        // will be lower in amount. Since refunds are capped to a percetange of\r\n        // the total transaction's gas, it is best to keep them low in cases\r\n        // like this one, to increase the likelihood of the full refund coming\r\n        // into effect.\r\n        _notEntered = true;\r\n    }\r\n\r\n    /**\r\n     * @dev Prevents a contract from calling itself, directly or indirectly.\r\n     * Calling a `nonReentrant` function from another `nonReentrant`\r\n     * function is not supported. It is possible to prevent this from happening\r\n     * by making the `nonReentrant` function external, and make it call a\r\n     * `private` function that does the actual work.\r\n     */\r\n    modifier nonReentrant() {\r\n        // On the first call to nonReentrant, _notEntered will be true\r\n        require(_notEntered, \"ReentrancyGuard: reentrant call\");\r\n\r\n        // Any calls to nonReentrant after this point will fail\r\n        _notEntered = false;\r\n\r\n        _;\r\n\r\n        // By storing the original value once again, a refund is triggered (see\r\n        // https://eips.ethereum.org/EIPS/eip-2200)\r\n        _notEntered = true;\r\n    }\r\n}\r\n\r\n/**\r\n * @dev Contract module which allows children to implement an emergency stop\r\n * mechanism that can be triggered by an authorized account.\r\n *\r\n * This module is used through inheritance. It will make available the\r\n * modifiers `whenNotPaused` and `whenPaused`, which can be applied to\r\n * the functions of your contract. Note that they will not be pausable by\r\n * simply including this module, only once the modifiers are put in place.\r\n */\r\ncontract Pausable is Context {\r\n    /**\r\n     * @dev Emitted when the pause is triggered by a pauser (`account`).\r\n     */\r\n    event Paused(address account);\r\n\r\n    /**\r\n     * @dev Emitted when the pause is lifted by a pauser (`account`).\r\n     */\r\n    event Unpaused(address account);\r\n\r\n    bool private _paused;\r\n\r\n    /**\r\n     * @dev Initializes the contract in unpaused state. Assigns the Pauser role\r\n     * to the deployer.\r\n     */\r\n    constructor () internal {\r\n        _paused = false;\r\n    }\r\n\r\n    /**\r\n     * @dev Returns true if the contract is paused, and false otherwise.\r\n     */\r\n    function paused() public view returns (bool) {\r\n        return _paused;\r\n    }\r\n\r\n    /**\r\n     * @dev Modifier to make a function callable only when the contract is not paused.\r\n     */\r\n    modifier whenNotPaused() {\r\n        require(!_paused, \"Pausable: paused\");\r\n        _;\r\n    }\r\n\r\n    /**\r\n     * @dev Modifier to make a function callable only when the contract is paused.\r\n     */\r\n    modifier whenPaused() {\r\n        require(_paused, \"Pausable: not paused\");\r\n        _;\r\n    }\r\n\r\n    /**\r\n     * @dev Called by a pauser to pause, triggers stopped state.\r\n     */\r\n    function _pause() internal virtual whenNotPaused {\r\n        _paused = true;\r\n        emit Paused(_msgSender());\r\n    }\r\n\r\n    /**\r\n     * @dev Called by a pauser to unpause, returns to normal state.\r\n     */\r\n    function _unpause() internal virtual whenPaused {\r\n        _paused = false;\r\n        emit Unpaused(_msgSender());\r\n    }\r\n}\r\n\r\nimport '../Instruments.sol';\r\n\r\nabstract contract IPool {\r\n    function withdrawExercisedEth(address payable _receiver, uint256 amount) external virtual returns (bool);\r\n    function clearLiability(uint256 liability, address strike, uint256 short) external virtual returns (bool);\r\n    function exercise(uint256 qUnderlying, uint256 qStrike, address aStrike) external payable virtual returns (bool);\r\n    function mintPrimeFromPool(\r\n        uint256 qUnderlying,\r\n        uint256 qStrike,\r\n        address aStrike,\r\n        uint256 tExpiry,\r\n        address primeReceiver\r\n    ) external payable virtual returns (bool);\r\n    function getAvailableAssets() public virtual returns (uint256);\r\n}\r\n\r\nabstract contract IPrime {\r\n    function safeTransferFrom(address from, address to, uint256 tokenId) public virtual;\r\n    function createPrime(\r\n        uint256 qUnderlying,\r\n        address aUnderlying,\r\n        uint256 qStrike,\r\n        address aStrike,\r\n        uint256 tExpiry,\r\n        address receiver\r\n    ) external virtual returns (uint256 tokenId);\r\n    function exercise(uint256 tokenId) external payable virtual returns (bool);\r\n    function close(uint256 tokenToClose, uint256 tokenToBurn) external virtual returns (bool);\r\n    function withdraw(uint256 amount, address asset) public virtual returns (bool);\r\n    function getPrime(uint256 tokenId) external view virtual returns(\r\n            address writer,\r\n            uint256 qUnderlying,\r\n            address aUnderlying,\r\n            uint256 qStrike,\r\n            address aStrike,\r\n            uint256 tExpiry,\r\n            address receiver,\r\n            bytes4 series,\r\n            bytes4 symbol\r\n        );\r\n    function getSeries(uint256 tokenId) external view virtual returns (bytes4 series);\r\n    function isTokenExpired(uint256 tokenId) public view virtual returns(bool);\r\n}\r\n\r\ncontract Exchange is ERC721Holder, ReentrancyGuard, Ownable, Pausable {\r\n    using SafeMath for uint256;\r\n\r\n    address private _primeAddress;\r\n    address public _poolAddress;\r\n    IPool public _pool;\r\n    IPrime public _prime;\r\n\r\n    uint256 public _feePool;\r\n    uint256 constant _feeDenomination = 333; /* 0.30% = 0.003 = 1 / 333 */\r\n    uint256 constant _poolPremiumDenomination = 5; /* 20% = 0.2 = 1 / 5 - FIX */\r\n    \r\n    event SellOrder(address indexed seller, uint256 askPrice, uint256 indexed tokenId, bool filled);\r\n    event BuyOrder(address indexed buyer, uint256 bidPrice, uint256 indexed tokenId, bool filled);\r\n    event BuyOrderUnfilled(address indexed buyer, uint256 bidPrice, uint256 nonce);\r\n\r\n    event FillUnfilledBuyOrder(address indexed seller, uint256 indexed tokenId);\r\n    event FillOrder(address indexed seller, address indexed buyer, uint256 filledPrice, uint256 indexed tokenId);\r\n    event FillOrderFromPool(address indexed buyer, uint256 bidPrice, uint256 amount);\r\n\r\n    event CloseOrder(address indexed user, uint256 indexed tokenId, bool buyOrder);\r\n    event CloseUnfilledBuyOrder(address indexed user, bytes4 indexed series, uint256 buyOrderNonce);\r\n\r\n    struct SellOrders {\r\n        address payable seller;\r\n        uint256 askPrice;\r\n        uint256 tokenId;\r\n    }\r\n\r\n    struct BuyOrders {\r\n        address payable buyer;\r\n        uint256 bidPrice;\r\n        uint256 tokenId;\r\n    }\r\n\r\n    struct BuyOrdersUnfilled {\r\n        address payable buyer;\r\n        uint256 bidPrice;\r\n        bytes4 series;\r\n        uint256 qUnderlying;\r\n        address aUnderlying;\r\n        uint256 qStrike;\r\n        address aStrike;\r\n        uint256 tExpiry;\r\n    }\r\n\r\n    /* MAPS TOKENIDS WITH SELL ORDER DETAILS */\r\n    mapping(uint256 => SellOrders) public _sellOrders;\r\n\r\n    /* MAPS TOKENIDS WITH BUY ORDER DETAILS */\r\n    mapping(uint256 => BuyOrders) public _buyOrders;\r\n\r\n     /* MAPS HASH OF PROPERTIES TO AN ORDER NONCE THAT RETURNS THE UNFILLED ORDER DETAILS */\r\n    mapping(bytes4 => mapping(uint256 => BuyOrdersUnfilled)) public _buyOrdersUnfilled;\r\n\r\n    /* MAX HEIGHT OF UNFILLED ORDERS */\r\n    mapping(bytes4 => uint256) public _unfilledNonce;\r\n\r\n    /* MAPS USERS TO ETHER BALANCES IN EXCHANGE */\r\n    mapping(address => uint256) public _etherBalance;\r\n\r\n    /* Maps a user to added pool funds */\r\n    mapping(address => uint256) private _feePoolContribution;\r\n\r\n    /* INTIALIZES TOKEN 0 -> ALL ORDERS ARE RESET TO THIS DEFAULT VALUE WHEN FILLED/CLOSED */\r\n    constructor(address primeAddress) public {\r\n        _primeAddress = primeAddress;\r\n        _prime = IPrime(primeAddress);\r\n        _feePool = 0;\r\n\r\n        _buyOrders[0] = BuyOrders(\r\n            address(0),\r\n            0,\r\n            0\r\n        );\r\n        _sellOrders[0] = SellOrders(\r\n            address(0),\r\n            0,\r\n            0\r\n        );\r\n\r\n        _buyOrdersUnfilled[0][0] = BuyOrdersUnfilled(\r\n            address(0),\r\n            0,\r\n            0,\r\n            0,\r\n            address(0),\r\n            0,\r\n            address(0),\r\n            0\r\n        );\r\n    }\r\n\r\n    receive() external payable {}\r\n\r\n    /* SET POOL ADDRESS */\r\n    function setPoolAddress(address poolAddress) external onlyOwner {\r\n        _poolAddress = poolAddress;\r\n        _pool = IPool(poolAddress);\r\n    }\r\n\r\n    /* KILL SWITCH */\r\n    function killSwitch() external onlyOwner {\r\n        _pause();\r\n    }\r\n\r\n    /* REVIVE */\r\n    function unpause() external onlyOwner {\r\n        _unpause();\r\n    }\r\n\r\n    /* Prime Address */\r\n    function getPrimeAddress() public view returns (address) {\r\n        return _primeAddress;\r\n    }\r\n\r\n    /**\r\n     * @dev users withdraw ether rather than have it directly sent to them\r\n     * @param amount value of ether to withdraw\r\n     */\r\n    function withdrawEther(uint256 amount) external nonReentrant {\r\n        require(_etherBalance[msg.sender] >= amount, 'Bal < amount');\r\n        (bool success, ) = msg.sender.call.value(amount)(\"\");\r\n        require(success, \"Transfer failed.\");\r\n    }\r\n\r\n\r\n    /* CORE MUTATIVE FUNCTIONS */\r\n\r\n\r\n    /** \r\n     * @dev List a valid Prime for sale\r\n     * @param tokenId the Prime's nonce when minted\r\n     * @param askPrice value in wei desired as payment\r\n     * @return bool Whether or not the tx succeeded\r\n     */\r\n    function sellOrder(\r\n        uint256 tokenId, \r\n        uint256 askPrice\r\n    ) \r\n        external\r\n        whenNotPaused\r\n        returns (bool) \r\n    {\r\n\r\n        /* CHECKS */\r\n        require(tokenId > 0, 'Invalid Token');\r\n        require(askPrice > 0, 'Ask < 0');\r\n        _prime.isTokenExpired(tokenId);\r\n        require(!isListed(tokenId), 'Token listed already');\r\n\r\n        /* EFFECTS */\r\n\r\n        /* Gets a buy order request ID if tokenId has matching properties and can fill order*/\r\n        uint256 buyOrderNonce = checkUnfilledBuyOrders(tokenId, askPrice);\r\n\r\n        /* INTERACTIONS */\r\n\r\n        /* \r\n            If a buy order request matches a token's properties, and the bid price\r\n            fulfills the order, fill it \r\n        */\r\n        if(buyOrderNonce > 0) {\r\n            /* Unique hash of the Prime's key properties: Asset addresses & expiration date */\r\n            bytes4 series = _prime.getSeries(tokenId);\r\n            /* Buy order request of hash 'series' at order request nonce */\r\n            BuyOrdersUnfilled memory unfilledBuyOrder = _buyOrdersUnfilled[series][buyOrderNonce];\r\n            return fillUnfilledBuyOrder(\r\n                tokenId, \r\n                unfilledBuyOrder.bidPrice, \r\n                askPrice,\r\n                unfilledBuyOrder.buyer,\r\n                msg.sender, \r\n                buyOrderNonce,\r\n                series\r\n            );\r\n        }\r\n        \r\n        /* \r\n         * If a buy order for the tokenId is available, fill it,\r\n         * else, list it for sale and transfer it from user to the dex\r\n        */\r\n        if(buyOrderNonce == 0) {\r\n\r\n            BuyOrders memory buyOrderObject = _buyOrders[tokenId];\r\n\r\n            if(buyOrderObject.bidPrice >= askPrice) {\r\n                return fillOrder(\r\n                    false,\r\n                    tokenId,\r\n                    buyOrderObject.bidPrice,\r\n                    askPrice,\r\n                    buyOrderObject.buyer,\r\n                    msg.sender\r\n                );\r\n            } else {\r\n                /* Add sell order to state */\r\n                _sellOrders[tokenId] = SellOrders(\r\n                    msg.sender,\r\n                    askPrice,\r\n                    tokenId\r\n                );\r\n\r\n                _prime.safeTransferFrom(msg.sender, address(this), tokenId);\r\n                emit SellOrder(msg.sender, askPrice, tokenId, false);\r\n                return true;\r\n            }\r\n        }\r\n    }\r\n\r\n    /**\r\n     * @dev offer a bid for a specific token\r\n     * @param tokenId nonce of token when minted\r\n     * @param bidPrice value offered to purchase Prime\r\n     * @return bool whether the tx succeeds\r\n     */\r\n    function buyOrder(\r\n        uint256 tokenId, \r\n        uint256 bidPrice\r\n    ) \r\n        public \r\n        payable\r\n        nonReentrant\r\n        whenNotPaused\r\n        returns (bool) \r\n    {\r\n        /* CHECKS */\r\n        require(tokenId > 0, 'Invalid Token');\r\n        require(bidPrice > 0, 'Bid < 0');\r\n\r\n        uint256 fee = bidPrice.div(_feeDenomination);\r\n        uint256 totalCost = bidPrice.add(fee);\r\n        require(msg.value >= totalCost, 'Val < cost');\r\n        /* Transfer remaining bid to Buyer */\r\n        if(msg.value > totalCost) {\r\n            (bool success, ) = msg.sender.call.value(msg.value.sub(totalCost))(\"\");\r\n            require(success, 'Transfer fail.');\r\n        }\r\n\r\n        /* EFFECTS */\r\n\r\n        SellOrders memory sellOrderObject = _sellOrders[tokenId];\r\n\r\n        /* INTERACTIONS */\r\n\r\n        /* \r\n         * If the token is listed for sale, fill it\r\n         * Else, submit an offer to buy a specific token\r\n        */\r\n        if(isListed(tokenId) && bidPrice >= sellOrderObject.askPrice ) {\r\n            return fillOrder(\r\n                true,\r\n                tokenId,\r\n                bidPrice,\r\n                sellOrderObject.askPrice,\r\n                msg.sender,\r\n                sellOrderObject.seller\r\n            );\r\n        } else {\r\n            _buyOrders[tokenId] = BuyOrders(\r\n                msg.sender,\r\n                bidPrice,\r\n                tokenId\r\n            );\r\n            emit BuyOrder(msg.sender, bidPrice, tokenId, false);\r\n            return true;\r\n        }\r\n    }\r\n\r\n    /**\r\n     * @dev fill an order \r\n     * @param isBuyOrder whether this order is a buy order\r\n     * @param tokenId nonce of Prime when minted\r\n     * @param bidPrice value offered to buy Prime\r\n     * @param askPrice value required to buy Prime\r\n     * @param buyer address of buying party\r\n     * @param seller address of selling party (can be DEX or user)\r\n     * @return bool whether the tx succeeds\r\n     */\r\n    function fillOrder(\r\n        bool isBuyOrder,\r\n        uint256 tokenId, \r\n        uint256 bidPrice, \r\n        uint256 askPrice,\r\n        address payable buyer, \r\n        address payable seller\r\n    ) \r\n        private \r\n        returns (bool) \r\n    {\r\n        \r\n        /* CHECKS */\r\n\r\n        /* EFFECTS */\r\n\r\n        /* Clears order from state */\r\n        if(isBuyOrder) {\r\n            emit BuyOrder(buyer, bidPrice, tokenId, true);\r\n            clearSellOrder(tokenId);\r\n        } else {\r\n            emit SellOrder(seller, askPrice, tokenId, true);\r\n            clearBuyOrder(tokenId);\r\n        }\r\n\r\n        /* Update ether balance state of buyer, seller, and reward pool */\r\n        _etherBalance[seller] = _etherBalance[seller].add(askPrice);\r\n        uint256 fee = bidPrice.div(_feeDenomination);\r\n        _feePoolContribution[seller] = _feePoolContribution[seller].add(fee);\r\n        _feePool = _feePool.add(fee);\r\n\r\n        /* INTERACTIONS */\r\n\r\n        /* \r\n         * IF ITS BUY ORDER - PRIME IS OWNED BY EXCHANGE\r\n         * IF ITS SELL ORDER - PRIME IS OWNED BY SELLER\r\n         */\r\n        if(isBuyOrder) {\r\n            _prime.safeTransferFrom(address(this), buyer, tokenId);\r\n        } else {\r\n            _prime.safeTransferFrom(seller, buyer, tokenId);\r\n        }\r\n\r\n        emit FillOrder(seller, buyer, askPrice, tokenId);\r\n        return true;\r\n    }\r\n\r\n\r\n    /**\r\n     * @dev request to buy a Prime with params\r\n     * @param bidPrice value offered to buy Prime\r\n     * @param qUnderlying amount of collateral (underlying) asset\r\n     * @param aUnderlying address of collateral ERC-20 token\r\n     * @param qStrike amount of payment (strike) asset\r\n     * @param aStrike address of strike ERC-20 token\r\n     * @param tExpiry timestamp of expiration\r\n     * @return bool whether the tx suceeds\r\n     */\r\n    function buyOrderUnfilled(\r\n        uint256 bidPrice,\r\n        uint256 qUnderlying,\r\n        address aUnderlying,\r\n        uint256 qStrike,\r\n        address aStrike,\r\n        uint256 tExpiry\r\n    )\r\n        external\r\n        payable\r\n        nonReentrant\r\n        whenNotPaused\r\n        returns (bool)\r\n    {\r\n        /* CHECKS */\r\n        require(bidPrice > 0, 'Bid < 0');\r\n\r\n        /* EFFECTS */\r\n\r\n        /* If the pool can fill the order, mint the Prime from pool */\r\n        if(_pool.getAvailableAssets() >= qUnderlying) {\r\n            /* FIX with variable premium from Pool - 20% of collateral */\r\n            uint256 premiumToPay = qUnderlying.mul(20).div(10**2);\r\n            require(bidPrice >= premiumToPay, 'Bid < premium');\r\n            \r\n            /* Calculate the payment */\r\n            uint256 feeOnPayment = premiumToPay.mul(3).div(1000);\r\n            uint256 amountNotReturned = premiumToPay.add(feeOnPayment);\r\n\r\n            /* Update fee pool state */\r\n            _feePoolContribution[msg.sender] = _feePoolContribution[msg.sender].add(feeOnPayment);\r\n\r\n            /* Mint Prime */\r\n            _pool.mintPrimeFromPool.value(premiumToPay)(\r\n                qUnderlying,\r\n                qStrike,\r\n                aStrike,\r\n                tExpiry,\r\n                msg.sender\r\n            );\r\n\r\n            emit FillOrderFromPool(msg.sender, bidPrice, qUnderlying);\r\n\r\n            /* Transfer remaining bid to Buyer */\r\n            if(msg.value > amountNotReturned) {\r\n                (bool success,) = msg.sender.call.value(msg.value.sub(amountNotReturned))(\"\");\r\n                require(success, 'Transfer fail.');\r\n                return success;\r\n            }\r\n            return true;\r\n        }\r\n\r\n        /* Fee */\r\n        uint256 fee = bidPrice.div(_feeDenomination);\r\n        uint256 totalCost = bidPrice.add(fee);\r\n        require(msg.value >= totalCost, 'Val < cost');\r\n        \r\n        /* Get chain data and log the nonce of the order */\r\n        bytes4 series = bytes4(\r\n            keccak256(abi.encodePacked(aUnderlying))) \r\n            ^ bytes4(keccak256(abi.encodePacked(aStrike))) \r\n            ^ bytes4(keccak256(abi.encodePacked(tExpiry))\r\n        );\r\n        uint256 nonce = (_unfilledNonce[series]).add(1);\r\n        _unfilledNonce[series] = nonce;\r\n\r\n        /* Update Buy Order State */\r\n        _buyOrdersUnfilled[series][nonce] = BuyOrdersUnfilled(\r\n            msg.sender,\r\n            bidPrice,\r\n            series,\r\n            qUnderlying,\r\n            aUnderlying,\r\n            qStrike,\r\n            aStrike,\r\n            tExpiry\r\n        );\r\n\r\n        emit BuyOrderUnfilled(msg.sender, bidPrice, _unfilledNonce[series]);\r\n\r\n        /* Return any remaining bid to Buyer */\r\n        if(msg.value > totalCost) {\r\n            (bool success, ) = msg.sender.call.value(msg.value.sub(totalCost))(\"\");\r\n            require(success, 'Transfer fail.');\r\n            return success;\r\n        }\r\n        return true;\r\n    }\r\n\r\n    /**\r\n     * @dev compares tokenID properties with requested buy order\r\n     * @param tokenId nonce of Prime when minted\r\n     * @return uint256 unfilled buy order nonce, returns 0 if none found\r\n     */\r\n    function checkUnfilledBuyOrders(\r\n        uint256 tokenId,\r\n        uint256 askPrice\r\n    ) \r\n        public \r\n        view \r\n        returns (uint256) \r\n    {\r\n        address writer;\r\n        uint256 qUnderlying;\r\n        address aUnderlying;\r\n        uint256 qStrike;\r\n        address aStrike;\r\n        uint256 tExpiry;\r\n        address receiver;\r\n        bytes4 series;\r\n        (writer, qUnderlying, aUnderlying, qStrike, aStrike, tExpiry, receiver, series, ) = _prime.getPrime(tokenId);\r\n        \r\n        bytes32 primeHash = keccak256(\r\n            abi.encodePacked(\r\n                    qUnderlying,\r\n                    aUnderlying,\r\n                    qStrike,\r\n                    aStrike,\r\n                    tExpiry\r\n                )\r\n            );\r\n         \r\n        for(uint i = 1; i <= _unfilledNonce[series]; i++) {\r\n            BuyOrdersUnfilled memory unfilledBuyOrder = _buyOrdersUnfilled[series][i];\r\n            bytes32 buyHash = keccak256(\r\n                abi.encodePacked(\r\n                    unfilledBuyOrder.qUnderlying,\r\n                    unfilledBuyOrder.aUnderlying,\r\n                    unfilledBuyOrder.qStrike,\r\n                    unfilledBuyOrder.aStrike,\r\n                    unfilledBuyOrder.tExpiry\r\n                )\r\n            );\r\n\r\n            if(primeHash == buyHash && unfilledBuyOrder.bidPrice >= askPrice) {\r\n                return i;\r\n            }\r\n        }\r\n\r\n        return 0;\r\n    }\r\n\r\n    /**\r\n     * @dev fills a sell order using an unfilled buy order\r\n     * @param tokenId nonce of Prime when minted\r\n     * @param bidPrice value of offer\r\n     * @param askPrice value in wei that the seller requires\r\n     * @param buyer address of buyer\r\n     * @param seller address of seller\r\n     * @param _buyOrderNonce nonce when buy order request was submitted\r\n     * @param series hash of asset 1 address + asset 2 address + expiration\r\n     * @return bool whether or not the tx succeeded\r\n     */\r\n    function fillUnfilledBuyOrder(\r\n        uint256 tokenId,\r\n        uint256 bidPrice,\r\n        uint256 askPrice,\r\n        address payable buyer,\r\n        address payable seller,\r\n        uint256 _buyOrderNonce,\r\n        bytes4 series\r\n    ) \r\n        private\r\n        nonReentrant\r\n        returns (bool) \r\n    {\r\n        /* CHECKS */\r\n\r\n        /* EFFECTS */\r\n\r\n        /* Clears the buy order request from state */\r\n        clearUnfilledBuyOrder(series, _buyOrderNonce);\r\n\r\n        /* Updates state of the user's ether balance in the dex */\r\n        _etherBalance[seller] = _etherBalance[seller].add(askPrice);\r\n        uint256 fee = bidPrice.div(_feeDenomination);\r\n        _feePoolContribution[seller] = _feePoolContribution[seller].add(fee);\r\n        _feePool = _feePool.add(fee);\r\n\r\n        /* INTERACTIONS */\r\n\r\n        /* Transfers the Prime to the buyer */\r\n        _prime.safeTransferFrom(seller, buyer, tokenId);\r\n        emit SellOrder(seller, askPrice, tokenId, true);\r\n        emit FillUnfilledBuyOrder(seller, tokenId);\r\n        return true;\r\n    }\r\n   \r\n    /**\r\n     * @dev changes state of order to 0\r\n     * @param tokenId nonce of Prime when minted\r\n     */\r\n    function clearSellOrder(uint256 tokenId) internal {\r\n        _sellOrders[tokenId] = _sellOrders[0];\r\n    }\r\n\r\n    /**\r\n     * @dev changes state of order to 0\r\n     * @param tokenId nonce of Prime when minted\r\n     */\r\n    function clearBuyOrder(uint256 tokenId) internal {\r\n        /* CLEARS BUY ORDER */\r\n        _buyOrders[tokenId] = _buyOrders[0];\r\n    }\r\n\r\n    /**\r\n     * @dev changes state of order to 0\r\n     * @param series hash of asset 1 address + asset 2 address + expiration\r\n     * @param _buyOrderNonce nonce of buy order request\r\n     */\r\n    function clearUnfilledBuyOrder(bytes4 series, uint256 _buyOrderNonce) internal {\r\n        _buyOrdersUnfilled[series][_buyOrderNonce] = _buyOrdersUnfilled[0][0];\r\n    }\r\n\r\n    /**\r\n     * @dev clears a sell order from state and returns funds/assets\r\n     * @param tokenId nonce of Prime when minted\r\n     * @return bool whether the tx succeeds\r\n     */\r\n    function closeSellOrder(uint256 tokenId) external nonReentrant returns (bool) {\r\n        SellOrders memory sellOrderObject = _sellOrders[tokenId];\r\n\r\n        /* CHECKS */\r\n        require(tokenId > 0, 'Invalid Token');\r\n        require(msg.sender == sellOrderObject.seller, 'Msg.sender != seller');\r\n\r\n        /* EFFECTS */\r\n        clearSellOrder(tokenId);\r\n\r\n        /* INTERACTIONS */\r\n        _prime.safeTransferFrom(address(this), sellOrderObject.seller, tokenId);\r\n        emit CloseOrder(msg.sender, tokenId, false);\r\n        return true;\r\n    }\r\n\r\n    /**\r\n     * @dev clears a buy order from state and returns funds/assets\r\n     * @param tokenId nonce of Prime when minted\r\n     * @return bool whether the tx succeeds\r\n     */\r\n    function closeBuyOrder(uint256 tokenId) external nonReentrant returns (bool) {\r\n        BuyOrders memory buyOrderObject = _buyOrders[tokenId];\r\n\r\n        /* CHECKS */\r\n        require(tokenId > 0, 'Invalid Token');\r\n        require(msg.sender == buyOrderObject.buyer, 'Msg.sender != buyer');\r\n        \r\n        /* EFFECTS */\r\n        \r\n        /* Clear buy order state */\r\n        clearBuyOrder(tokenId);\r\n\r\n        /* Update user's withdrawable ether balance */\r\n        _etherBalance[buyOrderObject.buyer].add(buyOrderObject.bidPrice);\r\n\r\n        /* INTERACTIONS */\r\n\r\n        emit CloseOrder(msg.sender, tokenId, true);\r\n        return true;\r\n    }\r\n\r\n    /**\r\n     * @dev clears an unfilled buy order from state and returns funds/assets\r\n     * @param series keccak256 hash of asset 1 address ^ asset 2 Address ^ expiration\r\n     * @param _buyOrderNonce nonce of when buy order was submitted\r\n     * @return bool whether the tx succeeds\r\n     */\r\n    function closeUnfilledBuyOrder(\r\n        bytes4 series,\r\n        uint256 _buyOrderNonce\r\n    ) \r\n        external \r\n        nonReentrant \r\n        returns (bool) \r\n    {\r\n        /* Buy order request of hash 'chain' at order request nonce */\r\n        BuyOrdersUnfilled memory unfilledBuyOrder = _buyOrdersUnfilled[series][_buyOrderNonce];\r\n\r\n        /* CHECKS */\r\n        require(msg.sender == unfilledBuyOrder.buyer, 'Msg.sender != buyer');\r\n\r\n        /* EFFECTS */\r\n        \r\n        /* Clears the buy order request from state */\r\n        clearUnfilledBuyOrder(series, _buyOrderNonce);\r\n\r\n        /* Update user's withdrawable ether balance */\r\n        _etherBalance[unfilledBuyOrder.buyer].add(unfilledBuyOrder.bidPrice);\r\n\r\n        /* INTERACTIONS */\r\n\r\n        emit CloseUnfilledBuyOrder(msg.sender, series, _buyOrderNonce);\r\n        return true;\r\n    }\r\n\r\n\r\n    /* VIEW FUNCTIONS */\r\n\r\n\r\n    function getFeesGenerated(address payable user) public view returns(uint256) {\r\n        return _etherBalance[user];\r\n    }\r\n\r\n    function getBuyOrder(uint256 _tokenId) \r\n        public \r\n        view \r\n        returns(\r\n            address payable buyer,\r\n            uint256 bidPrice,\r\n            uint256 tokenId\r\n        )\r\n    {\r\n        BuyOrders memory buyOrderObject = _buyOrders[_tokenId];\r\n        return (\r\n            buyOrderObject.buyer,\r\n            buyOrderObject.bidPrice,\r\n            buyOrderObject.tokenId\r\n        );\r\n    }\r\n\r\n    function getSellOrder(uint256 _tokenId) \r\n        public \r\n        view \r\n        returns(\r\n            address payable seller,\r\n            uint256 askPrice,\r\n            uint256 tokenId\r\n        )\r\n    {\r\n        SellOrders memory sellOrderObject = _sellOrders[_tokenId];\r\n        return (\r\n            sellOrderObject.seller,\r\n            sellOrderObject.askPrice,\r\n            sellOrderObject.tokenId\r\n        );\r\n    }\r\n\r\n    function isListed(uint256 tokenId) public view returns(bool) {\r\n        SellOrders memory sellOrderObject = _sellOrders[tokenId];\r\n        return sellOrderObject.seller != address(0);\r\n    }\r\n\r\n}",
  "sourcePath": "C:\\Users\\alexa\\OneDrive\\Documents\\Master\\Blockchain\\Projects\\carbon\\contracts\\ERC721\\Exchange.sol",
  "compiler": {
    "name": "solc",
    "version": "0.6.5+commit.f956cc89.Emscripten.clang"
  },
  "schemaVersion": "3.0.23",
  "updatedAt": "2020-04-14T02:24:18.865Z",
  "devdoc": {
    "methods": {
      "buyOrder(uint256,uint256)": {
        "details": "offer a bid for a specific token",
        "params": {
          "bidPrice": "value offered to purchase Prime",
          "tokenId": "nonce of token when minted"
        },
        "returns": {
          "_0": "bool whether the tx succeeds"
        }
      },
      "buyOrderUnfilled(uint256,uint256,address,uint256,address,uint256)": {
        "details": "request to buy a Prime with params",
        "params": {
          "aStrike": "address of strike ERC-20 token",
          "aUnderlying": "address of collateral ERC-20 token",
          "bidPrice": "value offered to buy Prime",
          "qStrike": "amount of payment (strike) asset",
          "qUnderlying": "amount of collateral (underlying) asset",
          "tExpiry": "timestamp of expiration"
        },
        "returns": {
          "_0": "bool whether the tx suceeds"
        }
      },
      "checkUnfilledBuyOrders(uint256,uint256)": {
        "details": "compares tokenID properties with requested buy order",
        "params": {
          "tokenId": "nonce of Prime when minted"
        },
        "returns": {
          "_0": "uint256 unfilled buy order nonce, returns 0 if none found"
        }
      },
      "closeBuyOrder(uint256)": {
        "details": "clears a buy order from state and returns funds/assets",
        "params": {
          "tokenId": "nonce of Prime when minted"
        },
        "returns": {
          "_0": "bool whether the tx succeeds"
        }
      },
      "closeSellOrder(uint256)": {
        "details": "clears a sell order from state and returns funds/assets",
        "params": {
          "tokenId": "nonce of Prime when minted"
        },
        "returns": {
          "_0": "bool whether the tx succeeds"
        }
      },
      "closeUnfilledBuyOrder(bytes4,uint256)": {
        "details": "clears an unfilled buy order from state and returns funds/assets",
        "params": {
          "_buyOrderNonce": "nonce of when buy order was submitted",
          "series": "keccak256 hash of asset 1 address ^ asset 2 Address ^ expiration"
        },
        "returns": {
          "_0": "bool whether the tx succeeds"
        }
      },
      "owner()": {
        "details": "Returns the address of the current owner."
      },
      "paused()": {
        "details": "Returns true if the contract is paused, and false otherwise."
      },
      "renounceOwnership()": {
        "details": "Leaves the contract without owner. It will not be possible to call `onlyOwner` functions anymore. Can only be called by the current owner.      * NOTE: Renouncing ownership will leave the contract without an owner, thereby removing any functionality that is only available to the owner."
      },
      "sellOrder(uint256,uint256)": {
        "details": "List a valid Prime for sale",
        "params": {
          "askPrice": "value in wei desired as payment",
          "tokenId": "the Prime's nonce when minted"
        },
        "returns": {
          "_0": "bool Whether or not the tx succeeded"
        }
      },
      "transferOwnership(address)": {
        "details": "Transfers ownership of the contract to a new account (`newOwner`). Can only be called by the current owner."
      },
      "withdrawEther(uint256)": {
        "details": "users withdraw ether rather than have it directly sent to them",
        "params": {
          "amount": "value of ether to withdraw"
        }
      }
    }
  },
  "userdoc": {
    "methods": {}
  }
}