{
  "contractName": "Options",
  "abi": [
    {
      "inputs": [
        {
          "internalType": "address",
          "name": "primeAddress",
          "type": "address"
        }
      ],
      "stateMutability": "nonpayable",
      "type": "constructor"
    },
    {
      "anonymous": false,
      "inputs": [
        {
          "indexed": true,
          "internalType": "address",
          "name": "previousOwner",
          "type": "address"
        },
        {
          "indexed": true,
          "internalType": "address",
          "name": "newOwner",
          "type": "address"
        }
      ],
      "name": "OwnershipTransferred",
      "type": "event"
    },
    {
      "inputs": [],
      "name": "_nonce",
      "outputs": [
        {
          "internalType": "uint256",
          "name": "",
          "type": "uint256"
        }
      ],
      "stateMutability": "view",
      "type": "function"
    },
    {
      "inputs": [],
      "name": "_prime",
      "outputs": [
        {
          "internalType": "contract IPrime",
          "name": "",
          "type": "address"
        }
      ],
      "stateMutability": "view",
      "type": "function"
    },
    {
      "inputs": [],
      "name": "_prime20",
      "outputs": [
        {
          "internalType": "contract PrimeERC20",
          "name": "",
          "type": "address"
        }
      ],
      "stateMutability": "view",
      "type": "function"
    },
    {
      "inputs": [
        {
          "internalType": "uint256",
          "name": "",
          "type": "uint256"
        }
      ],
      "name": "_primeMarkets",
      "outputs": [
        {
          "internalType": "address",
          "name": "",
          "type": "address"
        }
      ],
      "stateMutability": "view",
      "type": "function"
    },
    {
      "inputs": [],
      "name": "isOwner",
      "outputs": [
        {
          "internalType": "bool",
          "name": "",
          "type": "bool"
        }
      ],
      "stateMutability": "view",
      "type": "function"
    },
    {
      "inputs": [
        {
          "internalType": "address",
          "name": "",
          "type": "address"
        },
        {
          "internalType": "address",
          "name": "",
          "type": "address"
        },
        {
          "internalType": "uint256",
          "name": "",
          "type": "uint256"
        },
        {
          "internalType": "bytes",
          "name": "",
          "type": "bytes"
        }
      ],
      "name": "onERC721Received",
      "outputs": [
        {
          "internalType": "bytes4",
          "name": "",
          "type": "bytes4"
        }
      ],
      "stateMutability": "nonpayable",
      "type": "function"
    },
    {
      "inputs": [],
      "name": "owner",
      "outputs": [
        {
          "internalType": "address",
          "name": "",
          "type": "address"
        }
      ],
      "stateMutability": "view",
      "type": "function"
    },
    {
      "inputs": [],
      "name": "renounceOwnership",
      "outputs": [],
      "stateMutability": "nonpayable",
      "type": "function"
    },
    {
      "inputs": [
        {
          "internalType": "address",
          "name": "newOwner",
          "type": "address"
        }
      ],
      "name": "transferOwnership",
      "outputs": [],
      "stateMutability": "nonpayable",
      "type": "function"
    },
    {
      "inputs": [
        {
          "internalType": "address",
          "name": "pulp",
          "type": "address"
        }
      ],
      "name": "setRPulp",
      "outputs": [],
      "stateMutability": "nonpayable",
      "type": "function"
    },
    {
      "inputs": [
        {
          "internalType": "address",
          "name": "ePulp",
          "type": "address"
        }
      ],
      "name": "setPool",
      "outputs": [],
      "stateMutability": "nonpayable",
      "type": "function"
    },
    {
      "inputs": [
        {
          "internalType": "uint256",
          "name": "qEth",
          "type": "uint256"
        },
        {
          "internalType": "uint256",
          "name": "qToken",
          "type": "uint256"
        },
        {
          "internalType": "contract ERC20",
          "name": "aToken",
          "type": "address"
        },
        {
          "internalType": "uint256",
          "name": "tExpiry",
          "type": "uint256"
        },
        {
          "internalType": "bool",
          "name": "isCall",
          "type": "bool"
        },
        {
          "internalType": "string",
          "name": "name",
          "type": "string"
        }
      ],
      "name": "addEthOption",
      "outputs": [
        {
          "internalType": "uint256",
          "name": "",
          "type": "uint256"
        }
      ],
      "stateMutability": "payable",
      "type": "function"
    }
  ],
  "bytecode": "0x608060405234801561001057600080fd5b506040516166a83803806166a88339818101604052602081101561003357600080fd5b8101908080519060200190929190505050600061005461013960201b60201c565b9050806000806101000a81548173ffffffffffffffffffffffffffffffffffffffff021916908373ffffffffffffffffffffffffffffffffffffffff1602179055508073ffffffffffffffffffffffffffffffffffffffff16600073ffffffffffffffffffffffffffffffffffffffff167f8be0079c531659141344cd1fd0a4f28419497f9722a3daafe3b4186f6b6457e060405160405180910390a35080600360006101000a81548173ffffffffffffffffffffffffffffffffffffffff021916908373ffffffffffffffffffffffffffffffffffffffff16021790555050610141565b600033905090565b616558806101506000396000f3fe608060405260043610620000b55760003560e01c8063715018a6116200006d578063715018a614620003d65780638da5cb5b14620003f05780638f32d59b146200044a578063a999fd70146200047c578063e07acf17146200059b578063f2fde38b14620005f557620000b5565b80629b81a814620000ba578063150b7a02146200010f5780632e4563dd146200027a5780633d67189f14620002f95780634437152a14620003535780635d1222aa14620003a8575b600080fd5b348015620000c757600080fd5b506200010d60048036036020811015620000e057600080fd5b81019080803573ffffffffffffffffffffffffffffffffffffffff1690602001909291905050506200064a565b005b3480156200011c57600080fd5b5062000226600480360360808110156200013557600080fd5b81019080803573ffffffffffffffffffffffffffffffffffffffff169060200190929190803573ffffffffffffffffffffffffffffffffffffffff16906020019092919080359060200190929190803590602001906401000000008111156200019d57600080fd5b820183602082011115620001b057600080fd5b80359060200191846001830284011164010000000083111715620001d357600080fd5b91908080601f016020809104026020016040519081016040528093929190818152602001838380828437600081840152601f19601f820116905080830192505050505050509192919290505050620007a9565b60405180827bffffffffffffffffffffffffffffffffffffffffffffffffffffffff19167bffffffffffffffffffffffffffffffffffffffffffffffffffffffff1916815260200191505060405180910390f35b3480156200028757600080fd5b50620002b760048036036020811015620002a057600080fd5b8101908080359060200190929190505050620007bd565b604051808273ffffffffffffffffffffffffffffffffffffffff1673ffffffffffffffffffffffffffffffffffffffff16815260200191505060405180910390f35b3480156200030657600080fd5b5062000311620007f0565b604051808273ffffffffffffffffffffffffffffffffffffffff1673ffffffffffffffffffffffffffffffffffffffff16815260200191505060405180910390f35b3480156200036057600080fd5b50620003a6600480360360208110156200037957600080fd5b81019080803573ffffffffffffffffffffffffffffffffffffffff16906020019092919050505062000816565b005b348015620003b557600080fd5b50620003c062000976565b6040518082815260200191505060405180910390f35b348015620003e357600080fd5b50620003ee6200097c565b005b348015620003fd57600080fd5b506200040862000ab8565b604051808273ffffffffffffffffffffffffffffffffffffffff1673ffffffffffffffffffffffffffffffffffffffff16815260200191505060405180910390f35b3480156200045757600080fd5b506200046262000ae1565b604051808215151515815260200191505060405180910390f35b62000585600480360360c08110156200049457600080fd5b810190808035906020019092919080359060200190929190803573ffffffffffffffffffffffffffffffffffffffff1690602001909291908035906020019092919080351515906020019092919080359060200190640100000000811115620004fc57600080fd5b8201836020820111156200050f57600080fd5b803590602001918460018302840111640100000000831117156200053257600080fd5b91908080601f016020809104026020016040519081016040528093929190818152602001838380828437600081840152601f19601f82011690508083019250505050505050919291929050505062000b41565b6040518082815260200191505060405180910390f35b348015620005a857600080fd5b50620005b3620013c9565b604051808273ffffffffffffffffffffffffffffffffffffffff1673ffffffffffffffffffffffffffffffffffffffff16815260200191505060405180910390f35b3480156200060257600080fd5b5062000648600480360360208110156200061b57600080fd5b81019080803573ffffffffffffffffffffffffffffffffffffffff169060200190929190505050620013ef565b005b6200065462000ae1565b620006c7576040517f08c379a00000000000000000000000000000000000000000000000000000000081526004018080602001828103825260208152602001807f4f776e61626c653a2063616c6c6572206973206e6f7420746865206f776e657281525060200191505060405180910390fd5b600460009054906101000a900473ffffffffffffffffffffffffffffffffffffffff1673ffffffffffffffffffffffffffffffffffffffff16629b81a8826040518263ffffffff1660e01b8152600401808273ffffffffffffffffffffffffffffffffffffffff1673ffffffffffffffffffffffffffffffffffffffff168152602001915050602060405180830381600087803b1580156200076857600080fd5b505af11580156200077d573d6000803e3d6000fd5b505050506040513d60208110156200079457600080fd5b81019080805190602001909291905050505050565b600063150b7a0260e01b9050949350505050565b60016020528060005260406000206000915054906101000a900473ffffffffffffffffffffffffffffffffffffffff1681565b600460009054906101000a900473ffffffffffffffffffffffffffffffffffffffff1681565b6200082062000ae1565b62000893576040517f08c379a00000000000000000000000000000000000000000000000000000000081526004018080602001828103825260208152602001807f4f776e61626c653a2063616c6c6572206973206e6f7420746865206f776e657281525060200191505060405180910390fd5b600460009054906101000a900473ffffffffffffffffffffffffffffffffffffffff1673ffffffffffffffffffffffffffffffffffffffff16634437152a826040518263ffffffff1660e01b8152600401808273ffffffffffffffffffffffffffffffffffffffff1673ffffffffffffffffffffffffffffffffffffffff168152602001915050602060405180830381600087803b1580156200093557600080fd5b505af11580156200094a573d6000803e3d6000fd5b505050506040513d60208110156200096157600080fd5b81019080805190602001909291905050505050565b60025481565b6200098662000ae1565b620009f9576040517f08c379a00000000000000000000000000000000000000000000000000000000081526004018080602001828103825260208152602001807f4f776e61626c653a2063616c6c6572206973206e6f7420746865206f776e657281525060200191505060405180910390fd5b600073ffffffffffffffffffffffffffffffffffffffff166000809054906101000a900473ffffffffffffffffffffffffffffffffffffffff1673ffffffffffffffffffffffffffffffffffffffff167f8be0079c531659141344cd1fd0a4f28419497f9722a3daafe3b4186f6b6457e060405160405180910390a360008060006101000a81548173ffffffffffffffffffffffffffffffffffffffff021916908373ffffffffffffffffffffffffffffffffffffffff160217905550565b60008060009054906101000a900473ffffffffffffffffffffffffffffffffffffffff16905090565b60008060009054906101000a900473ffffffffffffffffffffffffffffffffffffffff1673ffffffffffffffffffffffffffffffffffffffff1662000b256200147a565b73ffffffffffffffffffffffffffffffffffffffff1614905090565b600062000b4d62000ae1565b62000bc0576040517f08c379a00000000000000000000000000000000000000000000000000000000081526004018080602001828103825260208152602001807f4f776e61626c653a2063616c6c6572206973206e6f7420746865206f776e657281525060200191505060405180910390fd5b62000bd860016002546200148290919063ffffffff16565b60028190555060008284600360009054906101000a900473ffffffffffffffffffffffffffffffffffffffff1660405162000c139062001651565b8080602001841515151581526020018373ffffffffffffffffffffffffffffffffffffffff1673ffffffffffffffffffffffffffffffffffffffff168152602001828103825285818151815260200191508051906020019080838360005b8381101562000c8e57808201518184015260208101905062000c71565b50505050905090810190601f16801562000cbc5780820380516001836020036101000a031916815260200191505b50945050505050604051809103906000f08015801562000ce0573d6000803e3d6000fd5b50600460006101000a81548173ffffffffffffffffffffffffffffffffffffffff021916908373ffffffffffffffffffffffffffffffffffffffff160217905550831562000f29578734101562000d9f576040517f08c379a000000000000000000000000000000000000000000000000000000000815260040180806020018281038252600b8152602001807f4552525f42414c5f45544800000000000000000000000000000000000000000081525060200191505060405180910390fd5b600360009054906101000a900473ffffffffffffffffffffffffffffffffffffffff1673ffffffffffffffffffffffffffffffffffffffff1663a22ddfd7898a600460009054906101000a900473ffffffffffffffffffffffffffffffffffffffff168b8b8b306040518863ffffffff1660e01b8152600401808781526020018673ffffffffffffffffffffffffffffffffffffffff1673ffffffffffffffffffffffffffffffffffffffff1681526020018581526020018473ffffffffffffffffffffffffffffffffffffffff1673ffffffffffffffffffffffffffffffffffffffff1681526020018381526020018273ffffffffffffffffffffffffffffffffffffffff1673ffffffffffffffffffffffffffffffffffffffff16815260200196505050505050506020604051808303818588803b15801562000ee357600080fd5b505af115801562000ef8573d6000803e3d6000fd5b50505050506040513d602081101562000f1057600080fd5b810190808051906020019092919050505090506200128f565b8573ffffffffffffffffffffffffffffffffffffffff166323b872dd33308a6040518463ffffffff1660e01b8152600401808473ffffffffffffffffffffffffffffffffffffffff1673ffffffffffffffffffffffffffffffffffffffff1681526020018373ffffffffffffffffffffffffffffffffffffffff1673ffffffffffffffffffffffffffffffffffffffff1681526020018281526020019350505050602060405180830381600087803b15801562000fe557600080fd5b505af115801562000ffa573d6000803e3d6000fd5b505050506040513d60208110156200101157600080fd5b8101908080519060200190929190505050508573ffffffffffffffffffffffffffffffffffffffff1663095ea7b3600360009054906101000a900473ffffffffffffffffffffffffffffffffffffffff16896040518363ffffffff1660e01b8152600401808373ffffffffffffffffffffffffffffffffffffffff1673ffffffffffffffffffffffffffffffffffffffff16815260200182815260200192505050602060405180830381600087803b158015620010cd57600080fd5b505af1158015620010e2573d6000803e3d6000fd5b505050506040513d6020811015620010f957600080fd5b810190808051906020019092919050505050600360009054906101000a900473ffffffffffffffffffffffffffffffffffffffff1673ffffffffffffffffffffffffffffffffffffffff1663a22ddfd788888b600460009054906101000a900473ffffffffffffffffffffffffffffffffffffffff168a306040518763ffffffff1660e01b8152600401808781526020018673ffffffffffffffffffffffffffffffffffffffff1673ffffffffffffffffffffffffffffffffffffffff1681526020018581526020018473ffffffffffffffffffffffffffffffffffffffff1673ffffffffffffffffffffffffffffffffffffffff1681526020018381526020018273ffffffffffffffffffffffffffffffffffffffff1673ffffffffffffffffffffffffffffffffffffffff1681526020019650505050505050602060405180830381600087803b1580156200124f57600080fd5b505af115801562001264573d6000803e3d6000fd5b505050506040513d60208110156200127b57600080fd5b810190808051906020019092919050505090505b600460009054906101000a900473ffffffffffffffffffffffffffffffffffffffff1673ffffffffffffffffffffffffffffffffffffffff1663fdab706c826040518263ffffffff1660e01b815260040180828152602001915050602060405180830381600087803b1580156200130557600080fd5b505af11580156200131a573d6000803e3d6000fd5b505050506040513d60208110156200133157600080fd5b810190808051906020019092919050505050600460009054906101000a900473ffffffffffffffffffffffffffffffffffffffff1660016000600254815260200190815260200160002060006101000a81548173ffffffffffffffffffffffffffffffffffffffff021916908373ffffffffffffffffffffffffffffffffffffffff1602179055506002549150509695505050505050565b600360009054906101000a900473ffffffffffffffffffffffffffffffffffffffff1681565b620013f962000ae1565b6200146c576040517f08c379a00000000000000000000000000000000000000000000000000000000081526004018080602001828103825260208152602001807f4f776e61626c653a2063616c6c6572206973206e6f7420746865206f776e657281525060200191505060405180910390fd5b62001477816200150b565b50565b600033905090565b60008082840190508381101562001501576040517f08c379a000000000000000000000000000000000000000000000000000000000815260040180806020018281038252601b8152602001807f536166654d6174683a206164646974696f6e206f766572666c6f77000000000081525060200191505060405180910390fd5b8091505092915050565b600073ffffffffffffffffffffffffffffffffffffffff168173ffffffffffffffffffffffffffffffffffffffff16141562001593576040517f08c379a0000000000000000000000000000000000000000000000000000000008152600401808060200182810382526026815260200180620064fd6026913960400191505060405180910390fd5b8073ffffffffffffffffffffffffffffffffffffffff166000809054906101000a900473ffffffffffffffffffffffffffffffffffffffff1673ffffffffffffffffffffffffffffffffffffffff167f8be0079c531659141344cd1fd0a4f28419497f9722a3daafe3b4186f6b6457e060405160405180910390a3806000806101000a81548173ffffffffffffffffffffffffffffffffffffffff021916908373ffffffffffffffffffffffffffffffffffffffff16021790555050565b614e9d80620016608339019056fe60806040523480156200001157600080fd5b5060405162004e9d38038062004e9d833981810160405260608110156200003757600080fd5b81019080805160405193929190846401000000008211156200005857600080fd5b838201915060208201858111156200006f57600080fd5b82518660018202830111640100000000821117156200008d57600080fd5b8083526020830192505050908051906020019080838360005b83811015620000c3578082015181840152602081019050620000a6565b50505050905090810190601f168015620000f15780820380516001836020036101000a031916815260200191505b506040526020018051906020019092919080519060200190929190505050826040518060400160405280600581526020017f6f50554c50000000000000000000000000000000000000000000000000000000815250601282600090805190602001906200016092919062000258565b5081600190805190602001906200017992919062000258565b5080600260006101000a81548160ff021916908360ff1602179055505050506001600660006101000a81548160ff02191690831515021790555080600960006101000a81548173ffffffffffffffffffffffffffffffffffffffff021916908373ffffffffffffffffffffffffffffffffffffffff16021790555033600860006101000a81548173ffffffffffffffffffffffffffffffffffffffff021916908373ffffffffffffffffffffffffffffffffffffffff16021790555081600660016101000a81548160ff02191690831515021790555050505062000307565b828054600181600116156101000203166002900490600052602060002090601f016020900481019282601f106200029b57805160ff1916838001178555620002cc565b82800160010185558215620002cc579182015b82811115620002cb578251825591602001919060010190620002ae565b5b509050620002db9190620002df565b5090565b6200030491905b8082111562000300576000816000905550600101620002e6565b5090565b90565b614b8680620003176000396000f3fe6080604052600436106101fc5760003560e01c806363578a841161010d578063a457c2d7116100a0578063bebd53741161006f578063bebd537414610d04578063c8c17d8114610d5b578063dd62ed3e14610d86578063e07acf1714610e0b578063fdab706c14610e6257610203565b8063a457c2d714610bad578063a646098614610c20578063a9059cbb14610c4b578063b6b55f2514610cbe57610203565b806386a6859d116100dc57806386a6859d14610a4457806394b918de14610a7357806395d89b4114610ac65780639e57366514610b5657610203565b806363578a841461091757806370a082311461094657806373cd10e8146109ab5780637473764b14610a0257610203565b806325490a5d1161019057806330be24a11161015f57806330be24a11461078c578063313ce567146107bb57806339509351146107ec5780634437152a1461085f5780634b265d26146108c857610203565b806325490a5d1461063f5780632dc98c041461068b5780632e1a7d4d146106e25780632ebc7b651461073557610203565b80630aebeb4e116101cc5780630aebeb4e1461050357806316c9b8801461055657806318160ddd1461058157806323b872dd146105ac57610203565b80629b81a814610208578063010035af1461027157806306fdde0314610400578063095ea7b31461049057610203565b3661020357005b600080fd5b34801561021457600080fd5b506102576004803603602081101561022b57600080fd5b81019080803573ffffffffffffffffffffffffffffffffffffffff169060200190929190505050610eb1565b604051808215151515815260200191505060405180910390f35b34801561027d57600080fd5b50610286610fc0565b604051808a73ffffffffffffffffffffffffffffffffffffffff1673ffffffffffffffffffffffffffffffffffffffff1681526020018981526020018873ffffffffffffffffffffffffffffffffffffffff1673ffffffffffffffffffffffffffffffffffffffff1681526020018781526020018673ffffffffffffffffffffffffffffffffffffffff1673ffffffffffffffffffffffffffffffffffffffff1681526020018581526020018473ffffffffffffffffffffffffffffffffffffffff1673ffffffffffffffffffffffffffffffffffffffff168152602001837bffffffffffffffffffffffffffffffffffffffffffffffffffffffff19167bffffffffffffffffffffffffffffffffffffffffffffffffffffffff19168152602001827bffffffffffffffffffffffffffffffffffffffffffffffffffffffff19167bffffffffffffffffffffffffffffffffffffffffffffffffffffffff19168152602001995050505050505050505060405180910390f35b34801561040c57600080fd5b50610415611096565b6040518080602001828103825283818151815260200191508051906020019080838360005b8381101561045557808201518184015260208101905061043a565b50505050905090810190601f1680156104825780820380516001836020036101000a031916815260200191505b509250505060405180910390f35b34801561049c57600080fd5b506104e9600480360360408110156104b357600080fd5b81019080803573ffffffffffffffffffffffffffffffffffffffff16906020019092919080359060200190929190505050611138565b604051808215151515815260200191505060405180910390f35b34801561050f57600080fd5b5061053c6004803603602081101561052657600080fd5b8101908080359060200190929190505050611156565b604051808215151515815260200191505060405180910390f35b34801561056257600080fd5b5061056b61151d565b6040518082815260200191505060405180910390f35b34801561058d57600080fd5b50610596611523565b6040518082815260200191505060405180910390f35b3480156105b857600080fd5b50610625600480360360608110156105cf57600080fd5b81019080803573ffffffffffffffffffffffffffffffffffffffff169060200190929190803573ffffffffffffffffffffffffffffffffffffffff1690602001909291908035906020019092919050505061152d565b604051808215151515815260200191505060405180910390f35b6106756004803603604081101561065557600080fd5b810190808035906020019092919080359060200190929190505050611606565b6040518082815260200191505060405180910390f35b34801561069757600080fd5b506106a0611886565b604051808273ffffffffffffffffffffffffffffffffffffffff1673ffffffffffffffffffffffffffffffffffffffff16815260200191505060405180910390f35b3480156106ee57600080fd5b5061071b6004803603602081101561070557600080fd5b81019080803590602001909291905050506118ac565b604051808215151515815260200191505060405180910390f35b34801561074157600080fd5b5061074a611977565b604051808273ffffffffffffffffffffffffffffffffffffffff1673ffffffffffffffffffffffffffffffffffffffff16815260200191505060405180910390f35b34801561079857600080fd5b506107a161199d565b604051808215151515815260200191505060405180910390f35b3480156107c757600080fd5b506107d06119f5565b604051808260ff1660ff16815260200191505060405180910390f35b3480156107f857600080fd5b506108456004803603604081101561080f57600080fd5b81019080803573ffffffffffffffffffffffffffffffffffffffff16906020019092919080359060200190929190505050611a0c565b604051808215151515815260200191505060405180910390f35b34801561086b57600080fd5b506108ae6004803603602081101561088257600080fd5b81019080803573ffffffffffffffffffffffffffffffffffffffff169060200190929190505050611abf565b604051808215151515815260200191505060405180910390f35b3480156108d457600080fd5b50610901600480360360208110156108eb57600080fd5b8101908080359060200190929190505050611bf9565b6040518082815260200191505060405180910390f35b34801561092357600080fd5b5061092c611e04565b604051808215151515815260200191505060405180910390f35b34801561095257600080fd5b506109956004803603602081101561096957600080fd5b81019080803573ffffffffffffffffffffffffffffffffffffffff169060200190929190505050611e17565b6040518082815260200191505060405180910390f35b3480156109b757600080fd5b506109c0611e60565b604051808273ffffffffffffffffffffffffffffffffffffffff1673ffffffffffffffffffffffffffffffffffffffff16815260200191505060405180910390f35b610a2e60048036036020811015610a1857600080fd5b8101908080359060200190929190505050611e86565b6040518082815260200191505060405180910390f35b348015610a5057600080fd5b50610a59612106565b604051808215151515815260200191505060405180910390f35b348015610a7f57600080fd5b50610aac60048036036020811015610a9657600080fd5b810190808035906020019092919050505061215e565b604051808215151515815260200191505060405180910390f35b348015610ad257600080fd5b50610adb612228565b6040518080602001828103825283818151815260200191508051906020019080838360005b83811015610b1b578082015181840152602081019050610b00565b50505050905090810190601f168015610b485780820380516001836020036101000a031916815260200191505b509250505060405180910390f35b348015610b6257600080fd5b50610b6b6122ca565b604051808273ffffffffffffffffffffffffffffffffffffffff1673ffffffffffffffffffffffffffffffffffffffff16815260200191505060405180910390f35b348015610bb957600080fd5b50610c0660048036036040811015610bd057600080fd5b81019080803573ffffffffffffffffffffffffffffffffffffffff169060200190929190803590602001909291905050506122f0565b604051808215151515815260200191505060405180910390f35b348015610c2c57600080fd5b50610c356123bd565b6040518082815260200191505060405180910390f35b348015610c5757600080fd5b50610ca460048036036040811015610c6e57600080fd5b81019080803573ffffffffffffffffffffffffffffffffffffffff169060200190929190803590602001909291905050506123c3565b604051808215151515815260200191505060405180910390f35b610cea60048036036020811015610cd457600080fd5b81019080803590602001909291905050506123e1565b604051808215151515815260200191505060405180910390f35b348015610d1057600080fd5b50610d196124ad565b604051808273ffffffffffffffffffffffffffffffffffffffff1673ffffffffffffffffffffffffffffffffffffffff16815260200191505060405180910390f35b348015610d6757600080fd5b50610d706124d3565b6040518082815260200191505060405180910390f35b348015610d9257600080fd5b50610df560048036036040811015610da957600080fd5b81019080803573ffffffffffffffffffffffffffffffffffffffff169060200190929190803573ffffffffffffffffffffffffffffffffffffffff1690602001909291905050506124d9565b6040518082815260200191505060405180910390f35b348015610e1757600080fd5b50610e20612560565b604051808273ffffffffffffffffffffffffffffffffffffffff1673ffffffffffffffffffffffffffffffffffffffff16815260200191505060405180910390f35b348015610e6e57600080fd5b50610e9b60048036036020811015610e8557600080fd5b8101908080359060200190929190505050612586565b6040518082815260200191505060405180910390f35b6000600860009054906101000a900473ffffffffffffffffffffffffffffffffffffffff1673ffffffffffffffffffffffffffffffffffffffff163373ffffffffffffffffffffffffffffffffffffffff1614610f76576040517f08c379a000000000000000000000000000000000000000000000000000000000815260040180806020018281038252600d8152602001807f4552525f4e4f545f4f574e45520000000000000000000000000000000000000081525060200191505060405180910390fd5b81601360006101000a81548173ffffffffffffffffffffffffffffffffffffffff021916908373ffffffffffffffffffffffffffffffffffffffff16021790555060019050919050565b600a8060000160009054906101000a900473ffffffffffffffffffffffffffffffffffffffff16908060010154908060020160009054906101000a900473ffffffffffffffffffffffffffffffffffffffff16908060030154908060040160009054906101000a900473ffffffffffffffffffffffffffffffffffffffff16908060050154908060060160009054906101000a900473ffffffffffffffffffffffffffffffffffffffff16908060060160149054906101000a900460e01b908060060160189054906101000a900460e01b905089565b606060008054600181600116156101000203166002900480601f01602080910402602001604051908101604052809291908181526020018280546001816001161561010002031660029004801561112e5780601f106111035761010080835404028352916020019161112e565b820191906000526020600020905b81548152906001019060200180831161111157829003601f168201915b5050505050905090565b600061114c611145612a9a565b8484612aa2565b6001905092915050565b600080601360009054906101000a900473ffffffffffffffffffffffffffffffffffffffff1673ffffffffffffffffffffffffffffffffffffffff166370a08231336040518263ffffffff1660e01b8152600401808273ffffffffffffffffffffffffffffffffffffffff1673ffffffffffffffffffffffffffffffffffffffff16815260200191505060206040518083038186803b1580156111f857600080fd5b505afa15801561120c573d6000803e3d6000fd5b505050506040513d602081101561122257600080fd5b81019080805190602001909291905050509050600061126060165461125260155487612c9990919063ffffffff16565b612d1f90919063ffffffff16565b90506112a282826040518060400160405280600d81526020017f4552525f42414c5f5250554c5000000000000000000000000000000000000000815250612d69565b506112eb6112af33611e17565b856040518060400160405280600d81526020017f4552525f42414c5f4f50554c5000000000000000000000000000000000000000815250612d69565b50601360009054906101000a900473ffffffffffffffffffffffffffffffffffffffff1673ffffffffffffffffffffffffffffffffffffffff16639dc29fac33836040518363ffffffff1660e01b8152600401808373ffffffffffffffffffffffffffffffffffffffff1673ffffffffffffffffffffffffffffffffffffffff16815260200182815260200192505050602060405180830381600087803b15801561139557600080fd5b505af11580156113a9573d6000803e3d6000fd5b505050506040513d60208110156113bf57600080fd5b8101908080519060200190929190505050506113db3385612ee2565b6113e3612106565b156113fb576113f233856130a8565b92505050611518565b601160009054906101000a900473ffffffffffffffffffffffffffffffffffffffff1673ffffffffffffffffffffffffffffffffffffffff166323b872dd3033876040518463ffffffff1660e01b8152600401808473ffffffffffffffffffffffffffffffffffffffff1673ffffffffffffffffffffffffffffffffffffffff1681526020018373ffffffffffffffffffffffffffffffffffffffff1673ffffffffffffffffffffffffffffffffffffffff1681526020018281526020019350505050602060405180830381600087803b1580156114d857600080fd5b505af11580156114ec573d6000803e3d6000fd5b505050506040513d602081101561150257600080fd5b8101908080519060200190929190505050925050505b919050565b60155481565b6000600554905090565b600061153a84848461318f565b6115fb84611546612a9a565b6115f685604051806060016040528060288152602001614a9a60289139600460008b73ffffffffffffffffffffffffffffffffffffffff1673ffffffffffffffffffffffffffffffffffffffff16815260200190815260200160002060006115ac612a9a565b73ffffffffffffffffffffffffffffffffffffffff1673ffffffffffffffffffffffffffffffffffffffff168152602001908152602001600020546134549092919063ffffffff16565b612aa2565b600190509392505050565b6000600660009054906101000a900460ff1661168a576040517f08c379a000000000000000000000000000000000000000000000000000000000815260040180806020018281038252601f8152602001807f5265656e7472616e637947756172643a207265656e7472616e742063616c6c0081525060200191505060405180910390fd5b6000600660006101000a81548160ff02191690831515021790555060006116b2843033613514565b905080611727576040517f08c379a000000000000000000000000000000000000000000000000000000000815260040180806020018281038252600b8152602001807f4552525f4445504f53495400000000000000000000000000000000000000000081525060200191505060405180910390fd5b600061173285611bf9565b905061177481856040518060400160405280600d81526020017f4552525f41534b5f505249434500000000000000000000000000000000000000815250612d69565b50601460009054906101000a900473ffffffffffffffffffffffffffffffffffffffff1673ffffffffffffffffffffffffffffffffffffffff1663d93968e18683336040518463ffffffff1660e01b8152600401808481526020018381526020018273ffffffffffffffffffffffffffffffffffffffff1673ffffffffffffffffffffffffffffffffffffffff1681526020019350505050602060405180830381600087803b15801561182657600080fd5b505af115801561183a573d6000803e3d6000fd5b505050506040513d602081101561185057600080fd5b8101908080519060200190929190505050925050506001600660006101000a81548160ff02191690831515021790555092915050565b601260009054906101000a900473ffffffffffffffffffffffffffffffffffffffff1681565b6000600660009054906101000a900460ff16611930576040517f08c379a000000000000000000000000000000000000000000000000000000000815260040180806020018281038252601f8152602001807f5265656e7472616e637947756172643a207265656e7472616e742063616c6c0081525060200191505060405180910390fd5b6000600660006101000a81548160ff0219169083151502179055506119558233613924565b90506001600660006101000a81548160ff021916908315150217905550919050565b601360009054906101000a900473ffffffffffffffffffffffffffffffffffffffff1681565b60003073ffffffffffffffffffffffffffffffffffffffff16601260009054906101000a900473ffffffffffffffffffffffffffffffffffffffff1673ffffffffffffffffffffffffffffffffffffffff1614905090565b6000600260009054906101000a900460ff16905090565b6000611ab5611a19612a9a565b84611ab08560046000611a2a612a9a565b73ffffffffffffffffffffffffffffffffffffffff1673ffffffffffffffffffffffffffffffffffffffff16815260200190815260200160002060008973ffffffffffffffffffffffffffffffffffffffff1673ffffffffffffffffffffffffffffffffffffffff1681526020019081526020016000205461408890919063ffffffff16565b612aa2565b6001905092915050565b6000600860009054906101000a900473ffffffffffffffffffffffffffffffffffffffff1673ffffffffffffffffffffffffffffffffffffffff163373ffffffffffffffffffffffffffffffffffffffff1614611b84576040517f08c379a000000000000000000000000000000000000000000000000000000000815260040180806020018281038252600d8152602001807f4552525f4e4f545f4f574e45520000000000000000000000000000000000000081525060200191505060405180910390fd5b81601460006101000a81548173ffffffffffffffffffffffffffffffffffffffff021916908373ffffffffffffffffffffffffffffffffffffffff160217905550611bf030837ffffffffffffffffffffffffffffffffffffffffffffffffff21f494c589c0000612aa2565b60019050919050565b6000601460009054906101000a900473ffffffffffffffffffffffffffffffffffffffff1673ffffffffffffffffffffffffffffffffffffffff166389f2a87183601460009054906101000a900473ffffffffffffffffffffffffffffffffffffffff1673ffffffffffffffffffffffffffffffffffffffff16634bad95106040518163ffffffff1660e01b815260040160206040518083038186803b158015611ca257600080fd5b505afa158015611cb6573d6000803e3d6000fd5b505050506040513d6020811015611ccc57600080fd5b8101908080519060200190929190505050601460009054906101000a900473ffffffffffffffffffffffffffffffffffffffff1673ffffffffffffffffffffffffffffffffffffffff1663e52cbc4d6040518163ffffffff1660e01b815260040160206040518083038186803b158015611d4557600080fd5b505afa158015611d59573d6000803e3d6000fd5b505050506040513d6020811015611d6f57600080fd5b81019080805190602001909291905050506040518463ffffffff1660e01b815260040180848152602001838152602001828152602001935050505060206040518083038186803b158015611dc257600080fd5b505afa158015611dd6573d6000803e3d6000fd5b505050506040513d6020811015611dec57600080fd5b81019080805190602001909291905050509050919050565b600660019054906101000a900460ff1681565b6000600360008373ffffffffffffffffffffffffffffffffffffffff1673ffffffffffffffffffffffffffffffffffffffff168152602001908152602001600020549050919050565b600860009054906101000a900473ffffffffffffffffffffffffffffffffffffffff1681565b6000600660009054906101000a900460ff16611f0a576040517f08c379a000000000000000000000000000000000000000000000000000000000815260040180806020018281038252601f8152602001807f5265656e7472616e637947756172643a207265656e7472616e742063616c6c0081525060200191505060405180910390fd5b6000600660006101000a81548160ff0219169083151502179055506000611f32833033613514565b905080611fa7576040517f08c379a000000000000000000000000000000000000000000000000000000000815260040180806020018281038252600b8152602001807f4552525f4445504f53495400000000000000000000000000000000000000000081525060200191505060405180910390fd5b6000611fb284611bf9565b9050611ff58160006040518060400160405280600d81526020017f4552525f41534b5f505249434500000000000000000000000000000000000000815250612d69565b50601460009054906101000a900473ffffffffffffffffffffffffffffffffffffffff1673ffffffffffffffffffffffffffffffffffffffff1663d93968e18583336040518463ffffffff1660e01b8152600401808481526020018381526020018273ffffffffffffffffffffffffffffffffffffffff1673ffffffffffffffffffffffffffffffffffffffff1681526020019350505050602060405180830381600087803b1580156120a757600080fd5b505af11580156120bb573d6000803e3d6000fd5b505050506040513d60208110156120d157600080fd5b8101908080519060200190929190505050925050506001600660006101000a81548160ff021916908315150217905550919050565b60003073ffffffffffffffffffffffffffffffffffffffff16601160009054906101000a900473ffffffffffffffffffffffffffffffffffffffff1673ffffffffffffffffffffffffffffffffffffffff1614905090565b6000600660009054906101000a900460ff166121e2576040517f08c379a000000000000000000000000000000000000000000000000000000000815260040180806020018281038252601f8152602001807f5265656e7472616e637947756172643a207265656e7472616e742063616c6c0081525060200191505060405180910390fd5b6000600660006101000a81548160ff02191690831515021790555061220682614110565b90506001600660006101000a81548160ff021916908315150217905550919050565b606060018054600181600116156101000203166002900480601f0160208091040260200160405190810160405280929190818152602001828054600181600116156101000203166002900480156122c05780601f10612295576101008083540402835291602001916122c0565b820191906000526020600020905b8154815290600101906020018083116122a357829003601f168201915b5050505050905090565b601160009054906101000a900473ffffffffffffffffffffffffffffffffffffffff1681565b60006123b36122fd612a9a565b846123ae85604051806060016040528060258152602001614b2c6025913960046000612327612a9a565b73ffffffffffffffffffffffffffffffffffffffff1673ffffffffffffffffffffffffffffffffffffffff16815260200190815260200160002060008a73ffffffffffffffffffffffffffffffffffffffff1673ffffffffffffffffffffffffffffffffffffffff168152602001908152602001600020546134549092919063ffffffff16565b612aa2565b6001905092915050565b60165481565b60006123d76123d0612a9a565b848461318f565b6001905092915050565b6000600660009054906101000a900460ff16612465576040517f08c379a000000000000000000000000000000000000000000000000000000000815260040180806020018281038252601f8152602001807f5265656e7472616e637947756172643a207265656e7472616e742063616c6c0081525060200191505060405180910390fd5b6000600660006101000a81548160ff02191690831515021790555061248b823333613514565b90506001600660006101000a81548160ff021916908315150217905550919050565b601460009054906101000a900473ffffffffffffffffffffffffffffffffffffffff1681565b60075481565b6000600460008473ffffffffffffffffffffffffffffffffffffffff1673ffffffffffffffffffffffffffffffffffffffff16815260200190815260200160002060008373ffffffffffffffffffffffffffffffffffffffff1673ffffffffffffffffffffffffffffffffffffffff16815260200190815260200160002054905092915050565b600960009054906101000a900473ffffffffffffffffffffffffffffffffffffffff1681565b6000600860009054906101000a900473ffffffffffffffffffffffffffffffffffffffff1673ffffffffffffffffffffffffffffffffffffffff163373ffffffffffffffffffffffffffffffffffffffff161461264b576040517f08c379a000000000000000000000000000000000000000000000000000000000815260040180806020018281038252600d8152602001807f4552525f4e4f545f4f574e45520000000000000000000000000000000000000081525060200191505060405180910390fd5b816007819055506000806000806000806000806000600960009054906101000a900473ffffffffffffffffffffffffffffffffffffffff1673ffffffffffffffffffffffffffffffffffffffff1663dc38daf88c6040518263ffffffff1660e01b8152600401808281526020019150506101206040518083038186803b1580156126d457600080fd5b505afa1580156126e8573d6000803e3d6000fd5b505050506040513d6101208110156126ff57600080fd5b810190808051906020019092919080519060200190929190805190602001909291908051906020019092919080519060200190929190805190602001909291908051906020019092919080519060200190929190805190602001909291905050509850985098509850985098509850985098506040518061012001604052808a73ffffffffffffffffffffffffffffffffffffffff1681526020018981526020018873ffffffffffffffffffffffffffffffffffffffff1681526020018781526020018673ffffffffffffffffffffffffffffffffffffffff1681526020018581526020018473ffffffffffffffffffffffffffffffffffffffff168152602001837bffffffffffffffffffffffffffffffffffffffffffffffffffffffff19168152602001827bffffffffffffffffffffffffffffffffffffffffffffffffffffffff1916815250600a60008201518160000160006101000a81548173ffffffffffffffffffffffffffffffffffffffff021916908373ffffffffffffffffffffffffffffffffffffffff1602179055506020820151816001015560408201518160020160006101000a81548173ffffffffffffffffffffffffffffffffffffffff021916908373ffffffffffffffffffffffffffffffffffffffff1602179055506060820151816003015560808201518160040160006101000a81548173ffffffffffffffffffffffffffffffffffffffff021916908373ffffffffffffffffffffffffffffffffffffffff16021790555060a0820151816005015560c08201518160060160006101000a81548173ffffffffffffffffffffffffffffffffffffffff021916908373ffffffffffffffffffffffffffffffffffffffff16021790555060e08201518160060160146101000a81548163ffffffff021916908360e01c02179055506101008201518160060160186101000a81548163ffffffff021916908360e01c02179055509050503073ffffffffffffffffffffffffffffffffffffffff168773ffffffffffffffffffffffffffffffffffffffff16148015612a175750600660019054906101000a900460ff165b612a89576040517f08c379a000000000000000000000000000000000000000000000000000000000815260040180806020018281038252600f8152602001807f4552525f4f5054494f4e5f54595045000000000000000000000000000000000081525060200191505060405180910390fd5b8a9950505050505050505050919050565b600033905090565b600073ffffffffffffffffffffffffffffffffffffffff168373ffffffffffffffffffffffffffffffffffffffff161415612b28576040517f08c379a0000000000000000000000000000000000000000000000000000000008152600401808060200182810382526024815260200180614b086024913960400191505060405180910390fd5b600073ffffffffffffffffffffffffffffffffffffffff168273ffffffffffffffffffffffffffffffffffffffff161415612bae576040517f08c379a0000000000000000000000000000000000000000000000000000000008152600401808060200182810382526022815260200180614a316022913960400191505060405180910390fd5b80600460008573ffffffffffffffffffffffffffffffffffffffff1673ffffffffffffffffffffffffffffffffffffffff16815260200190815260200160002060008473ffffffffffffffffffffffffffffffffffffffff1673ffffffffffffffffffffffffffffffffffffffff168152602001908152602001600020819055508173ffffffffffffffffffffffffffffffffffffffff168373ffffffffffffffffffffffffffffffffffffffff167f8c5be1e5ebec7d5bd14f71427d1e84f3dd0314c0f7b2291e5b200ac8c7c3b925836040518082815260200191505060405180910390a3505050565b600080831415612cac5760009050612d19565b6000828402905082848281612cbd57fe5b0414612d14576040517f08c379a0000000000000000000000000000000000000000000000000000000008152600401808060200182810382526021815260200180614a796021913960400191505060405180910390fd5b809150505b92915050565b6000612d6183836040518060400160405280601a81526020017f536166654d6174683a206469766973696f6e206279207a65726f000000000000815250614585565b905092915050565b600080831415612e28578284118290612e1d576040517f08c379a00000000000000000000000000000000000000000000000000000000081526004018080602001828103825283818151815260200191508051906020019080838360005b83811015612de2578082015181840152602081019050612dc7565b50505050905090810190601f168015612e0f5780820380516001836020036101000a031916815260200191505b509250505060405180910390fd5b508284119050612edb565b828410158290612ed3576040517f08c379a00000000000000000000000000000000000000000000000000000000081526004018080602001828103825283818151815260200191508051906020019080838360005b83811015612e98578082015181840152602081019050612e7d565b50505050905090810190601f168015612ec55780820380516001836020036101000a031916815260200191505b509250505060405180910390fd5b508284101590505b9392505050565b600073ffffffffffffffffffffffffffffffffffffffff168273ffffffffffffffffffffffffffffffffffffffff161415612f68576040517f08c379a0000000000000000000000000000000000000000000000000000000008152600401808060200182810382526021815260200180614ac26021913960400191505060405180910390fd5b612f748260008361464b565b612fe081604051806060016040528060228152602001614a0f60229139600360008673ffffffffffffffffffffffffffffffffffffffff1673ffffffffffffffffffffffffffffffffffffffff168152602001908152602001600020546134549092919063ffffffff16565b600360008473ffffffffffffffffffffffffffffffffffffffff1673ffffffffffffffffffffffffffffffffffffffff168152602001908152602001600020819055506130388160055461465090919063ffffffff16565b600581905550600073ffffffffffffffffffffffffffffffffffffffff168273ffffffffffffffffffffffffffffffffffffffff167fddf252ad1be2c89b69c2b068fc378daa952ba7f163c4a11628f55a4df523b3ef836040518082815260200191505060405180910390a35050565b6000808373ffffffffffffffffffffffffffffffffffffffff168360405180600001905060006040518083038185875af1925050503d8060008114613109576040519150601f19603f3d011682016040523d82523d6000602084013e61310e565b606091505b5050905080613185576040517f08c379a000000000000000000000000000000000000000000000000000000000815260040180806020018281038252600f8152602001807f53656e64206574686572206661696c000000000000000000000000000000000081525060200191505060405180910390fd5b8091505092915050565b600073ffffffffffffffffffffffffffffffffffffffff168373ffffffffffffffffffffffffffffffffffffffff161415613215576040517f08c379a0000000000000000000000000000000000000000000000000000000008152600401808060200182810382526025815260200180614ae36025913960400191505060405180910390fd5b600073ffffffffffffffffffffffffffffffffffffffff168273ffffffffffffffffffffffffffffffffffffffff16141561329b576040517f08c379a00000000000000000000000000000000000000000000000000000000081526004018080602001828103825260238152602001806149ec6023913960400191505060405180910390fd5b6132a683838361464b565b61331281604051806060016040528060268152602001614a5360269139600360008773ffffffffffffffffffffffffffffffffffffffff1673ffffffffffffffffffffffffffffffffffffffff168152602001908152602001600020546134549092919063ffffffff16565b600360008573ffffffffffffffffffffffffffffffffffffffff1673ffffffffffffffffffffffffffffffffffffffff168152602001908152602001600020819055506133a781600360008573ffffffffffffffffffffffffffffffffffffffff1673ffffffffffffffffffffffffffffffffffffffff1681526020019081526020016000205461408890919063ffffffff16565b600360008473ffffffffffffffffffffffffffffffffffffffff1673ffffffffffffffffffffffffffffffffffffffff168152602001908152602001600020819055508173ffffffffffffffffffffffffffffffffffffffff168373ffffffffffffffffffffffffffffffffffffffff167fddf252ad1be2c89b69c2b068fc378daa952ba7f163c4a11628f55a4df523b3ef836040518082815260200191505060405180910390a3505050565b6000838311158290613501576040517f08c379a00000000000000000000000000000000000000000000000000000000081526004018080602001828103825283818151815260200191508051906020019080838360005b838110156134c65780820151818401526020810190506134ab565b50505050905090810190601f1680156134f35780820380516001836020036101000a031916815260200191505b509250505060405180910390fd5b5060008385039050809150509392505050565b600061351e612106565b1561363e5760003411801561353257508334145b6135a4576040517f08c379a00000000000000000000000000000000000000000000000000000000081526004018080602001828103825260088152602001807f4552525f5a45524f00000000000000000000000000000000000000000000000081525060200191505060405180910390fd5b60008060006135ba87601554601654898961469a565b92509250925080613633576040517f08c379a00000000000000000000000000000000000000000000000000000000081526004018080602001828103825260108152602001807f4552525f4d494e545f4f5054494f4e530000000000000000000000000000000081525060200191505060405180910390fd5b80935050505061391d565b613757601160009054906101000a900473ffffffffffffffffffffffffffffffffffffffff1673ffffffffffffffffffffffffffffffffffffffff166370a08231846040518263ffffffff1660e01b8152600401808273ffffffffffffffffffffffffffffffffffffffff1673ffffffffffffffffffffffffffffffffffffffff16815260200191505060206040518083038186803b1580156136e057600080fd5b505afa1580156136f4573d6000803e3d6000fd5b505050506040513d602081101561370a57600080fd5b8101908080519060200190929190505050856040518060400160405280601281526020017f4552525f42414c5f554e4445524c59494e470000000000000000000000000000815250612d69565b50600080600061376e87601654601554898961469a565b9250925092506000601160009054906101000a900473ffffffffffffffffffffffffffffffffffffffff1673ffffffffffffffffffffffffffffffffffffffff166323b872dd87308b6040518463ffffffff1660e01b8152600401808473ffffffffffffffffffffffffffffffffffffffff1673ffffffffffffffffffffffffffffffffffffffff1681526020018373ffffffffffffffffffffffffffffffffffffffff1673ffffffffffffffffffffffffffffffffffffffff1681526020018281526020019350505050602060405180830381600087803b15801561385357600080fd5b505af1158015613867573d6000803e3d6000fd5b505050506040513d602081101561387d57600080fd5b8101908080519060200190929190505050905081801561389a5750805b61390c576040517f08c379a00000000000000000000000000000000000000000000000000000000081526004018080602001828103825260108152602001807f4552525f4d494e545f4f5054494f4e530000000000000000000000000000000081525060200191505060405180910390fd5b8180156139165750805b9450505050505b9392505050565b600080601360009054906101000a900473ffffffffffffffffffffffffffffffffffffffff1673ffffffffffffffffffffffffffffffffffffffff166370a08231846040518263ffffffff1660e01b8152600401808273ffffffffffffffffffffffffffffffffffffffff1673ffffffffffffffffffffffffffffffffffffffff16815260200191505060206040518083038186803b1580156139c657600080fd5b505afa1580156139da573d6000803e3d6000fd5b505050506040513d60208110156139f057600080fd5b810190808051906020019092919050505090506000849050613a1061199d565b15613c8057601360009054906101000a900473ffffffffffffffffffffffffffffffffffffffff1673ffffffffffffffffffffffffffffffffffffffff1663aede97576040518163ffffffff1660e01b815260040160206040518083038186803b158015613a7d57600080fd5b505afa158015613a91573d6000803e3d6000fd5b505050506040513d6020811015613aa757600080fd5b810190808051906020019092919050505015613aef57613aec670de0b6b3a7640000613ade60165488612c9990919063ffffffff16565b612d1f90919063ffffffff16565b90505b613b2f82826040518060400160405280600d81526020017f4552525f42414c5f5250554c5000000000000000000000000000000000000000815250612d69565b50613b873073ffffffffffffffffffffffffffffffffffffffff1631866040518060400160405280600e81526020017f4552525f42414c5f535452494b45000000000000000000000000000000000000815250612d69565b50601360009054906101000a900473ffffffffffffffffffffffffffffffffffffffff1673ffffffffffffffffffffffffffffffffffffffff16639dc29fac85836040518363ffffffff1660e01b8152600401808373ffffffffffffffffffffffffffffffffffffffff1673ffffffffffffffffffffffffffffffffffffffff16815260200182815260200192505050602060405180830381600087803b158015613c3157600080fd5b505af1158015613c45573d6000803e3d6000fd5b505050506040513d6020811015613c5b57600080fd5b810190808051906020019092919050505050613c7784866130a8565b92505050614082565b601360009054906101000a900473ffffffffffffffffffffffffffffffffffffffff1673ffffffffffffffffffffffffffffffffffffffff1663aede97576040518163ffffffff1660e01b815260040160206040518083038186803b158015613ce857600080fd5b505afa158015613cfc573d6000803e3d6000fd5b505050506040513d6020811015613d1257600080fd5b8101908080519060200190929190505050613d5957613d56601554613d48670de0b6b3a764000088612c9990919063ffffffff16565b612d1f90919063ffffffff16565b90505b613d9982826040518060400160405280600d81526020017f4552525f42414c5f5250554c5000000000000000000000000000000000000000815250612d69565b50613eb3601260009054906101000a900473ffffffffffffffffffffffffffffffffffffffff1673ffffffffffffffffffffffffffffffffffffffff166370a08231306040518263ffffffff1660e01b8152600401808273ffffffffffffffffffffffffffffffffffffffff1673ffffffffffffffffffffffffffffffffffffffff16815260200191505060206040518083038186803b158015613e3c57600080fd5b505afa158015613e50573d6000803e3d6000fd5b505050506040513d6020811015613e6657600080fd5b8101908080519060200190929190505050866040518060400160405280600e81526020017f4552525f42414c5f535452494b45000000000000000000000000000000000000815250612d69565b50601360009054906101000a900473ffffffffffffffffffffffffffffffffffffffff1673ffffffffffffffffffffffffffffffffffffffff16639dc29fac85836040518363ffffffff1660e01b8152600401808373ffffffffffffffffffffffffffffffffffffffff1673ffffffffffffffffffffffffffffffffffffffff16815260200182815260200192505050602060405180830381600087803b158015613f5d57600080fd5b505af1158015613f71573d6000803e3d6000fd5b505050506040513d6020811015613f8757600080fd5b810190808051906020019092919050505050601260009054906101000a900473ffffffffffffffffffffffffffffffffffffffff1673ffffffffffffffffffffffffffffffffffffffff1663a9059cbb85876040518363ffffffff1660e01b8152600401808373ffffffffffffffffffffffffffffffffffffffff1673ffffffffffffffffffffffffffffffffffffffff16815260200182815260200192505050602060405180830381600087803b15801561404257600080fd5b505af1158015614056573d6000803e3d6000fd5b505050506040513d602081101561406c57600080fd5b8101908080519060200190929190505050925050505b92915050565b600080828401905083811015614106576040517f08c379a000000000000000000000000000000000000000000000000000000000815260040180806020018281038252601b8152602001807f536166654d6174683a206164646974696f6e206f766572666c6f77000000000081525060200191505060405180910390fd5b8091505092915050565b60008161411c33611e17565b1015614190576040517f08c379a000000000000000000000000000000000000000000000000000000000815260040180806020018281038252600d8152602001807f4552525f42414c5f4f50554c500000000000000000000000000000000000000081525060200191505060405180910390fd5b60006141bb6016546141ad60155486612c9990919063ffffffff16565b612d1f90919063ffffffff16565b90506141c561199d565b156143355761420a34826040518060400160405280601281526020017f4552525f42414c5f554e4445524c59494e470000000000000000000000000000815250612d69565b506142153384612ee2565b601160009054906101000a900473ffffffffffffffffffffffffffffffffffffffff1673ffffffffffffffffffffffffffffffffffffffff166323b872dd3033846040518463ffffffff1660e01b8152600401808473ffffffffffffffffffffffffffffffffffffffff1673ffffffffffffffffffffffffffffffffffffffff1681526020018373ffffffffffffffffffffffffffffffffffffffff1673ffffffffffffffffffffffffffffffffffffffff1681526020018281526020019350505050602060405180830381600087803b1580156142f257600080fd5b505af1158015614306573d6000803e3d6000fd5b505050506040513d602081101561431c57600080fd5b8101908080519060200190929190505050915050614580565b61444e601260009054906101000a900473ffffffffffffffffffffffffffffffffffffffff1673ffffffffffffffffffffffffffffffffffffffff166370a08231336040518263ffffffff1660e01b8152600401808273ffffffffffffffffffffffffffffffffffffffff1673ffffffffffffffffffffffffffffffffffffffff16815260200191505060206040518083038186803b1580156143d757600080fd5b505afa1580156143eb573d6000803e3d6000fd5b505050506040513d602081101561440157600080fd5b8101908080519060200190929190505050826040518060400160405280600e81526020017f4552525f42414c5f535452494b45000000000000000000000000000000000000815250612d69565b506144593384612ee2565b601260009054906101000a900473ffffffffffffffffffffffffffffffffffffffff1673ffffffffffffffffffffffffffffffffffffffff166323b872dd3330846040518463ffffffff1660e01b8152600401808473ffffffffffffffffffffffffffffffffffffffff1673ffffffffffffffffffffffffffffffffffffffff1681526020018373ffffffffffffffffffffffffffffffffffffffff1673ffffffffffffffffffffffffffffffffffffffff1681526020018281526020019350505050602060405180830381600087803b15801561453657600080fd5b505af115801561454a573d6000803e3d6000fd5b505050506040513d602081101561456057600080fd5b81019080805190602001909291905050505061457c33846130a8565b9150505b919050565b60008083118290614631576040517f08c379a00000000000000000000000000000000000000000000000000000000081526004018080602001828103825283818151815260200191508051906020019080838360005b838110156145f65780820151818401526020810190506145db565b50505050905090810190601f1680156146235780820380516001836020036101000a031916815260200191505b509250505060405180910390fd5b50600083858161463d57fe5b049050809150509392505050565b505050565b600061469283836040518060400160405280601e81526020017f536166654d6174683a207375627472616374696f6e206f766572666c6f770000815250613454565b905092915050565b6000806000806146c5876146b78a8c612c9990919063ffffffff16565b612d1f90919063ffffffff16565b9050601360009054906101000a900473ffffffffffffffffffffffffffffffffffffffff1673ffffffffffffffffffffffffffffffffffffffff166340c10f1986836040518363ffffffff1660e01b8152600401808373ffffffffffffffffffffffffffffffffffffffff1673ffffffffffffffffffffffffffffffffffffffff16815260200182815260200192505050602060405180830381600087803b15801561477057600080fd5b505af1158015614784573d6000803e3d6000fd5b505050506040513d602081101561479a57600080fd5b8101908080519060200190929190505050506147b6868a614822565b3373ffffffffffffffffffffffffffffffffffffffff167f90890809c654f11d6e72a28fa60149770a0d11ec6c92319d6ceb2bb0a4ea1a158a83604051808381526020018281526020019250505060405180910390a28881600193509350935050955095509592505050565b600073ffffffffffffffffffffffffffffffffffffffff168273ffffffffffffffffffffffffffffffffffffffff1614156148c5576040517f08c379a000000000000000000000000000000000000000000000000000000000815260040180806020018281038252601f8152602001807f45524332303a206d696e7420746f20746865207a65726f20616464726573730081525060200191505060405180910390fd5b6148d16000838361464b565b6148e68160055461408890919063ffffffff16565b60058190555061493e81600360008573ffffffffffffffffffffffffffffffffffffffff1673ffffffffffffffffffffffffffffffffffffffff1681526020019081526020016000205461408890919063ffffffff16565b600360008473ffffffffffffffffffffffffffffffffffffffff1673ffffffffffffffffffffffffffffffffffffffff168152602001908152602001600020819055508173ffffffffffffffffffffffffffffffffffffffff16600073ffffffffffffffffffffffffffffffffffffffff167fddf252ad1be2c89b69c2b068fc378daa952ba7f163c4a11628f55a4df523b3ef836040518082815260200191505060405180910390a3505056fe45524332303a207472616e7366657220746f20746865207a65726f206164647265737345524332303a206275726e20616d6f756e7420657863656564732062616c616e636545524332303a20617070726f766520746f20746865207a65726f206164647265737345524332303a207472616e7366657220616d6f756e7420657863656564732062616c616e6365536166654d6174683a206d756c7469706c69636174696f6e206f766572666c6f7745524332303a207472616e7366657220616d6f756e74206578636565647320616c6c6f77616e636545524332303a206275726e2066726f6d20746865207a65726f206164647265737345524332303a207472616e736665722066726f6d20746865207a65726f206164647265737345524332303a20617070726f76652066726f6d20746865207a65726f206164647265737345524332303a2064656372656173656420616c6c6f77616e63652062656c6f77207a65726fa2646970667358221220c41db3e49cbd4439bdfc98a198e6d40406af9790d0efc7969d88e2bd0d04168764736f6c634300060500334f776e61626c653a206e6577206f776e657220697320746865207a65726f2061646472657373a2646970667358221220c0ac43070d656411c87597e977f7bbba6fd282695b06a263b6d0136e968a034464736f6c63430006050033",
  "source": "pragma solidity ^0.6.0;\r\n\r\n/**\r\n * @title Primitive's Market Creator Contract\r\n * @author Primitive\r\n */\r\n\r\nimport './ERC20/PrimeERC20.sol';\r\nimport '@openzeppelin/contracts/ownership/Ownable.sol';\r\nimport '@openzeppelin/contracts/token/ERC721/ERC721Holder.sol';\r\n\r\ncontract Options is Ownable, ERC721Holder {\r\n    using SafeMath for uint256;\r\n\r\n    mapping(uint256 => address) public _primeMarkets;\r\n    uint256 public _nonce;\r\n    IPrime public _prime;\r\n    PrimeERC20 public _prime20;\r\n\r\n    constructor(\r\n        address primeAddress\r\n    ) public {\r\n        _prime = IPrime(primeAddress);\r\n    }\r\n\r\n    /**\r\n     * @dev sets the redeem Pulp type for the option, Call Pulp or Put Pulp (cPulp or pPulp)\r\n     */\r\n    function setRPulp(address pulp) public onlyOwner {\r\n        _prime20.setRPulp(pulp);\r\n    }\r\n\r\n    function setPool(address ePulp) public onlyOwner {\r\n        _prime20.setPool(ePulp);\r\n    }\r\n\r\n    /**\r\n     * @dev Creates a New Eth Option Market including oPulp, cPulp or pPulp, ePulp\r\n     * @param qEth quantity of ether as underlying or strike asset\r\n     * @param qToken quantity of ERC-20 token as underlying or strike asset\r\n     * @param aToken ERC-20 contract of the token\r\n     * @param tExpiry expiration date of the option\r\n     * @param isCall bool to clarify if the option is a call or a put\r\n     * @param name Full option name in the format Underlying Asset + Expiry + Strike Price + Strike Asset\r\n     * @return _nonce the nonce of the market\r\n     */\r\n    function addEthOption(\r\n        uint256 qEth,\r\n        uint256 qToken,\r\n        ERC20 aToken,\r\n        uint256 tExpiry,\r\n        bool isCall,\r\n        string memory name\r\n    ) \r\n        public\r\n        payable\r\n        onlyOwner\r\n        returns (uint256)\r\n    {\r\n        _nonce = _nonce.add(1);\r\n        uint256 tokenId;\r\n\r\n        _prime20 = new PrimeERC20(\r\n            name,\r\n            isCall,\r\n            address(_prime)\r\n        );\r\n\r\n        // if its a call the underlying q will be 1 and the address will be the erc-20 oPulp\r\n        // else its a put, the underlying q+a is the strike q+a and \r\n        // the strike q is 1 ether and strike address is erc-20 oPulp\r\n        // e.g. 1 ETH / 150 DAI Call vs. 150 DAI / 1 ETH Put\r\n        if(isCall) {\r\n            require(msg.value >= qEth, 'ERR_BAL_ETH');\r\n            tokenId = _prime.createPrime\r\n                .value(qEth)(\r\n                qEth,\r\n                address(_prime20),\r\n                qToken,\r\n                address(aToken),\r\n                tExpiry,\r\n                address(this)\r\n            );\r\n        } else {\r\n            aToken.transferFrom(msg.sender, address(this), qToken);\r\n            aToken.approve(address(_prime), qToken);\r\n            tokenId = _prime.createPrime(\r\n                qToken,\r\n                address(aToken),\r\n                qEth,\r\n                address(_prime20),\r\n                tExpiry,\r\n                address(this)\r\n            );\r\n        }\r\n        \r\n        _prime20.setParentToken(tokenId);\r\n        _primeMarkets[_nonce] = address(_prime20);\r\n        return _nonce;\r\n    }\r\n}\r\n\r\n",
  "sourcePath": "C:\\Users\\alexa\\OneDrive\\Documents\\Master\\Blockchain\\Projects\\carbon\\contracts\\Options.sol",
  "compiler": {
    "name": "solc",
    "version": "0.6.5+commit.f956cc89.Emscripten.clang"
  },
  "schemaVersion": "3.0.23",
  "updatedAt": "2020-04-14T02:24:19.190Z",
  "devdoc": {
    "methods": {
      "addEthOption(uint256,uint256,address,uint256,bool,string)": {
        "details": "Creates a New Eth Option Market including oPulp, cPulp or pPulp, ePulp",
        "params": {
          "aToken": "ERC-20 contract of the token",
          "isCall": "bool to clarify if the option is a call or a put",
          "name": "Full option name in the format Underlying Asset + Expiry + Strike Price + Strike Asset",
          "qEth": "quantity of ether as underlying or strike asset",
          "qToken": "quantity of ERC-20 token as underlying or strike asset",
          "tExpiry": "expiration date of the option"
        },
        "returns": {
          "_0": "_nonce the nonce of the market"
        }
      },
      "isOwner()": {
        "details": "Returns true if the caller is the current owner."
      },
      "owner()": {
        "details": "Returns the address of the current owner."
      },
      "renounceOwnership()": {
        "details": "Leaves the contract without owner. It will not be possible to call `onlyOwner` functions anymore. Can only be called by the current owner.     * NOTE: Renouncing ownership will leave the contract without an owner, thereby removing any functionality that is only available to the owner."
      },
      "setRPulp(address)": {
        "details": "sets the redeem Pulp type for the option, Call Pulp or Put Pulp (cPulp or pPulp)"
      },
      "transferOwnership(address)": {
        "details": "Transfers ownership of the contract to a new account (`newOwner`). Can only be called by the current owner."
      }
    }
  },
  "userdoc": {
    "methods": {}
  }
}