{
  "contractName": "Pool",
  "abi": [
    {
      "inputs": [
        {
          "internalType": "address",
          "name": "primeAddress",
          "type": "address"
        },
        {
          "internalType": "address",
          "name": "compoundEthAddress",
          "type": "address"
        },
        {
          "internalType": "address",
          "name": "exchangeAddress",
          "type": "address"
        }
      ],
      "stateMutability": "nonpayable",
      "type": "constructor"
    },
    {
      "anonymous": false,
      "inputs": [
        {
          "indexed": true,
          "internalType": "address",
          "name": "owner",
          "type": "address"
        },
        {
          "indexed": true,
          "internalType": "address",
          "name": "spender",
          "type": "address"
        },
        {
          "indexed": false,
          "internalType": "uint256",
          "name": "value",
          "type": "uint256"
        }
      ],
      "name": "Approval",
      "type": "event"
    },
    {
      "anonymous": false,
      "inputs": [
        {
          "indexed": false,
          "internalType": "uint256",
          "name": "amountClosed",
          "type": "uint256"
        },
        {
          "indexed": true,
          "internalType": "address",
          "name": "user",
          "type": "address"
        },
        {
          "indexed": false,
          "internalType": "uint256",
          "name": "burned",
          "type": "uint256"
        }
      ],
      "name": "Close",
      "type": "event"
    },
    {
      "anonymous": false,
      "inputs": [
        {
          "indexed": false,
          "internalType": "uint256",
          "name": "deposit",
          "type": "uint256"
        },
        {
          "indexed": true,
          "internalType": "address",
          "name": "user",
          "type": "address"
        },
        {
          "indexed": false,
          "internalType": "uint256",
          "name": "minted",
          "type": "uint256"
        }
      ],
      "name": "Deposit",
      "type": "event"
    },
    {
      "anonymous": false,
      "inputs": [
        {
          "indexed": false,
          "internalType": "uint256",
          "name": "amount",
          "type": "uint256"
        },
        {
          "indexed": false,
          "internalType": "uint256",
          "name": "qStrike",
          "type": "uint256"
        }
      ],
      "name": "Exercise",
      "type": "event"
    },
    {
      "anonymous": false,
      "inputs": [
        {
          "indexed": true,
          "internalType": "address",
          "name": "previousOwner",
          "type": "address"
        },
        {
          "indexed": true,
          "internalType": "address",
          "name": "newOwner",
          "type": "address"
        }
      ],
      "name": "OwnershipTransferred",
      "type": "event"
    },
    {
      "anonymous": false,
      "inputs": [
        {
          "indexed": false,
          "internalType": "address",
          "name": "account",
          "type": "address"
        }
      ],
      "name": "Paused",
      "type": "event"
    },
    {
      "anonymous": false,
      "inputs": [
        {
          "indexed": false,
          "internalType": "uint256",
          "name": "nonce",
          "type": "uint256"
        },
        {
          "indexed": false,
          "internalType": "uint256",
          "name": "qUnderlying",
          "type": "uint256"
        },
        {
          "indexed": false,
          "internalType": "uint256",
          "name": "qStrike",
          "type": "uint256"
        },
        {
          "indexed": true,
          "internalType": "uint256",
          "name": "tExpiry",
          "type": "uint256"
        }
      ],
      "name": "PoolMint",
      "type": "event"
    },
    {
      "anonymous": false,
      "inputs": [
        {
          "indexed": true,
          "internalType": "address",
          "name": "from",
          "type": "address"
        },
        {
          "indexed": true,
          "internalType": "address",
          "name": "to",
          "type": "address"
        },
        {
          "indexed": false,
          "internalType": "uint256",
          "name": "value",
          "type": "uint256"
        }
      ],
      "name": "Transfer",
      "type": "event"
    },
    {
      "anonymous": false,
      "inputs": [
        {
          "indexed": false,
          "internalType": "address",
          "name": "account",
          "type": "address"
        }
      ],
      "name": "Unpaused",
      "type": "event"
    },
    {
      "anonymous": false,
      "inputs": [
        {
          "indexed": false,
          "internalType": "uint256",
          "name": "withdraw",
          "type": "uint256"
        },
        {
          "indexed": true,
          "internalType": "address",
          "name": "user",
          "type": "address"
        },
        {
          "indexed": false,
          "internalType": "uint256",
          "name": "burned",
          "type": "uint256"
        }
      ],
      "name": "Withdraw",
      "type": "event"
    },
    {
      "inputs": [],
      "name": "_cEther",
      "outputs": [
        {
          "internalType": "contract ICEther",
          "name": "",
          "type": "address"
        }
      ],
      "stateMutability": "view",
      "type": "function"
    },
    {
      "inputs": [],
      "name": "_compoundEthAddress",
      "outputs": [
        {
          "internalType": "address",
          "name": "",
          "type": "address"
        }
      ],
      "stateMutability": "view",
      "type": "function"
    },
    {
      "inputs": [],
      "name": "_exchangeAddress",
      "outputs": [
        {
          "internalType": "address",
          "name": "",
          "type": "address"
        }
      ],
      "stateMutability": "view",
      "type": "function"
    },
    {
      "inputs": [],
      "name": "_liability",
      "outputs": [
        {
          "internalType": "uint256",
          "name": "",
          "type": "uint256"
        }
      ],
      "stateMutability": "view",
      "type": "function"
    },
    {
      "inputs": [],
      "name": "_premiumDenomination",
      "outputs": [
        {
          "internalType": "uint256",
          "name": "",
          "type": "uint256"
        }
      ],
      "stateMutability": "view",
      "type": "function"
    },
    {
      "inputs": [],
      "name": "_prime",
      "outputs": [
        {
          "internalType": "contract IPrime",
          "name": "",
          "type": "address"
        }
      ],
      "stateMutability": "view",
      "type": "function"
    },
    {
      "inputs": [],
      "name": "_primeAddress",
      "outputs": [
        {
          "internalType": "address",
          "name": "",
          "type": "address"
        }
      ],
      "stateMutability": "view",
      "type": "function"
    },
    {
      "inputs": [
        {
          "internalType": "address",
          "name": "owner",
          "type": "address"
        },
        {
          "internalType": "address",
          "name": "spender",
          "type": "address"
        }
      ],
      "name": "allowance",
      "outputs": [
        {
          "internalType": "uint256",
          "name": "",
          "type": "uint256"
        }
      ],
      "stateMutability": "view",
      "type": "function"
    },
    {
      "inputs": [
        {
          "internalType": "address",
          "name": "spender",
          "type": "address"
        },
        {
          "internalType": "uint256",
          "name": "amount",
          "type": "uint256"
        }
      ],
      "name": "approve",
      "outputs": [
        {
          "internalType": "bool",
          "name": "",
          "type": "bool"
        }
      ],
      "stateMutability": "nonpayable",
      "type": "function"
    },
    {
      "inputs": [
        {
          "internalType": "address",
          "name": "account",
          "type": "address"
        }
      ],
      "name": "balanceOf",
      "outputs": [
        {
          "internalType": "uint256",
          "name": "",
          "type": "uint256"
        }
      ],
      "stateMutability": "view",
      "type": "function"
    },
    {
      "inputs": [],
      "name": "decimals",
      "outputs": [
        {
          "internalType": "uint8",
          "name": "",
          "type": "uint8"
        }
      ],
      "stateMutability": "view",
      "type": "function"
    },
    {
      "inputs": [
        {
          "internalType": "address",
          "name": "spender",
          "type": "address"
        },
        {
          "internalType": "uint256",
          "name": "subtractedValue",
          "type": "uint256"
        }
      ],
      "name": "decreaseAllowance",
      "outputs": [
        {
          "internalType": "bool",
          "name": "",
          "type": "bool"
        }
      ],
      "stateMutability": "nonpayable",
      "type": "function"
    },
    {
      "inputs": [
        {
          "internalType": "address",
          "name": "spender",
          "type": "address"
        },
        {
          "internalType": "uint256",
          "name": "addedValue",
          "type": "uint256"
        }
      ],
      "name": "increaseAllowance",
      "outputs": [
        {
          "internalType": "bool",
          "name": "",
          "type": "bool"
        }
      ],
      "stateMutability": "nonpayable",
      "type": "function"
    },
    {
      "inputs": [],
      "name": "name",
      "outputs": [
        {
          "internalType": "string",
          "name": "",
          "type": "string"
        }
      ],
      "stateMutability": "view",
      "type": "function"
    },
    {
      "inputs": [
        {
          "internalType": "address",
          "name": "",
          "type": "address"
        },
        {
          "internalType": "address",
          "name": "",
          "type": "address"
        },
        {
          "internalType": "uint256",
          "name": "",
          "type": "uint256"
        },
        {
          "internalType": "bytes",
          "name": "",
          "type": "bytes"
        }
      ],
      "name": "onERC721Received",
      "outputs": [
        {
          "internalType": "bytes4",
          "name": "",
          "type": "bytes4"
        }
      ],
      "stateMutability": "nonpayable",
      "type": "function"
    },
    {
      "inputs": [],
      "name": "owner",
      "outputs": [
        {
          "internalType": "address",
          "name": "",
          "type": "address"
        }
      ],
      "stateMutability": "view",
      "type": "function"
    },
    {
      "inputs": [],
      "name": "paused",
      "outputs": [
        {
          "internalType": "bool",
          "name": "",
          "type": "bool"
        }
      ],
      "stateMutability": "view",
      "type": "function"
    },
    {
      "inputs": [],
      "name": "renounceOwnership",
      "outputs": [],
      "stateMutability": "nonpayable",
      "type": "function"
    },
    {
      "inputs": [],
      "name": "symbol",
      "outputs": [
        {
          "internalType": "string",
          "name": "",
          "type": "string"
        }
      ],
      "stateMutability": "view",
      "type": "function"
    },
    {
      "inputs": [],
      "name": "totalSupply",
      "outputs": [
        {
          "internalType": "uint256",
          "name": "",
          "type": "uint256"
        }
      ],
      "stateMutability": "view",
      "type": "function"
    },
    {
      "inputs": [
        {
          "internalType": "address",
          "name": "recipient",
          "type": "address"
        },
        {
          "internalType": "uint256",
          "name": "amount",
          "type": "uint256"
        }
      ],
      "name": "transfer",
      "outputs": [
        {
          "internalType": "bool",
          "name": "",
          "type": "bool"
        }
      ],
      "stateMutability": "nonpayable",
      "type": "function"
    },
    {
      "inputs": [
        {
          "internalType": "address",
          "name": "sender",
          "type": "address"
        },
        {
          "internalType": "address",
          "name": "recipient",
          "type": "address"
        },
        {
          "internalType": "uint256",
          "name": "amount",
          "type": "uint256"
        }
      ],
      "name": "transferFrom",
      "outputs": [
        {
          "internalType": "bool",
          "name": "",
          "type": "bool"
        }
      ],
      "stateMutability": "nonpayable",
      "type": "function"
    },
    {
      "inputs": [
        {
          "internalType": "address",
          "name": "newOwner",
          "type": "address"
        }
      ],
      "name": "transferOwnership",
      "outputs": [],
      "stateMutability": "nonpayable",
      "type": "function"
    },
    {
      "stateMutability": "payable",
      "type": "receive"
    },
    {
      "inputs": [
        {
          "internalType": "address",
          "name": "exchangeAddress",
          "type": "address"
        }
      ],
      "name": "setExchangeAddress",
      "outputs": [],
      "stateMutability": "nonpayable",
      "type": "function"
    },
    {
      "inputs": [
        {
          "internalType": "uint256",
          "name": "amount",
          "type": "uint256"
        }
      ],
      "name": "deposit",
      "outputs": [
        {
          "internalType": "bool",
          "name": "",
          "type": "bool"
        }
      ],
      "stateMutability": "payable",
      "type": "function"
    },
    {
      "inputs": [
        {
          "internalType": "uint256",
          "name": "amount",
          "type": "uint256"
        }
      ],
      "name": "withdraw",
      "outputs": [
        {
          "internalType": "bool",
          "name": "",
          "type": "bool"
        }
      ],
      "stateMutability": "nonpayable",
      "type": "function"
    },
    {
      "inputs": [],
      "name": "getPoolBalance",
      "outputs": [
        {
          "internalType": "uint256",
          "name": "",
          "type": "uint256"
        }
      ],
      "stateMutability": "nonpayable",
      "type": "function"
    },
    {
      "inputs": [],
      "name": "getAvailableAssets",
      "outputs": [
        {
          "internalType": "uint256",
          "name": "",
          "type": "uint256"
        }
      ],
      "stateMutability": "nonpayable",
      "type": "function"
    },
    {
      "inputs": [],
      "name": "totalSupplyDivTotalEther",
      "outputs": [
        {
          "internalType": "uint256",
          "name": "",
          "type": "uint256"
        }
      ],
      "stateMutability": "nonpayable",
      "type": "function"
    },
    {
      "inputs": [],
      "name": "getMaxBurnAmount",
      "outputs": [
        {
          "internalType": "uint256",
          "name": "",
          "type": "uint256"
        }
      ],
      "stateMutability": "nonpayable",
      "type": "function"
    },
    {
      "inputs": [
        {
          "internalType": "uint256",
          "name": "amount",
          "type": "uint256"
        }
      ],
      "name": "etherToCEther",
      "outputs": [
        {
          "internalType": "uint256",
          "name": "",
          "type": "uint256"
        }
      ],
      "stateMutability": "nonpayable",
      "type": "function"
    },
    {
      "inputs": [
        {
          "internalType": "uint256",
          "name": "qUnderlying",
          "type": "uint256"
        },
        {
          "internalType": "uint256",
          "name": "qStrike",
          "type": "uint256"
        },
        {
          "internalType": "address",
          "name": "aStrike",
          "type": "address"
        },
        {
          "internalType": "uint256",
          "name": "tExpiry",
          "type": "uint256"
        },
        {
          "internalType": "address payable",
          "name": "primeReceiver",
          "type": "address"
        }
      ],
      "name": "mintPrimeFromPool",
      "outputs": [
        {
          "internalType": "bool",
          "name": "",
          "type": "bool"
        }
      ],
      "stateMutability": "payable",
      "type": "function"
    },
    {
      "inputs": [
        {
          "internalType": "uint256",
          "name": "qUnderlying",
          "type": "uint256"
        },
        {
          "internalType": "uint256",
          "name": "qStrike",
          "type": "uint256"
        },
        {
          "internalType": "address",
          "name": "aStrike",
          "type": "address"
        }
      ],
      "name": "exercise",
      "outputs": [
        {
          "internalType": "bool",
          "name": "",
          "type": "bool"
        }
      ],
      "stateMutability": "payable",
      "type": "function"
    },
    {
      "inputs": [
        {
          "internalType": "uint256",
          "name": "amount",
          "type": "uint256"
        }
      ],
      "name": "closePosition",
      "outputs": [
        {
          "internalType": "bool",
          "name": "",
          "type": "bool"
        }
      ],
      "stateMutability": "payable",
      "type": "function"
    }
  ],
  "bytecode": "0x60806040523480156200001157600080fd5b5060405162003f1238038062003f12833981810160405260608110156200003757600080fd5b8101908080519060200190929190805190602001909291908051906020019092919050505060405180606001604052806027815260200162003eeb602791396040518060400160405280600481526020017f50554c500000000000000000000000000000000000000000000000000000000081525060126000620000c06200033160201b60201c565b9050806000806101000a81548173ffffffffffffffffffffffffffffffffffffffff021916908373ffffffffffffffffffffffffffffffffffffffff1602179055508073ffffffffffffffffffffffffffffffffffffffff16600073ffffffffffffffffffffffffffffffffffffffff167f8be0079c531659141344cd1fd0a4f28419497f9722a3daafe3b4186f6b6457e060405160405180910390a35060008060146101000a81548160ff0219169083151502179055506001600060156101000a81548160ff0219169083151502179055508260049080519060200190620001ab92919062000339565b508160059080519060200190620001c492919062000339565b5080600660006101000a81548160ff021916908360ff16021790555050505082600660016101000a81548173ffffffffffffffffffffffffffffffffffffffff021916908373ffffffffffffffffffffffffffffffffffffffff16021790555080600860006101000a81548173ffffffffffffffffffffffffffffffffffffffff021916908373ffffffffffffffffffffffffffffffffffffffff16021790555082600a60006101000a81548173ffffffffffffffffffffffffffffffffffffffff021916908373ffffffffffffffffffffffffffffffffffffffff16021790555081600960006101000a81548173ffffffffffffffffffffffffffffffffffffffff021916908373ffffffffffffffffffffffffffffffffffffffff16021790555081600760006101000a81548173ffffffffffffffffffffffffffffffffffffffff021916908373ffffffffffffffffffffffffffffffffffffffff160217905550505050620003e8565b600033905090565b828054600181600116156101000203166002900490600052602060002090601f016020900481019282601f106200037c57805160ff1916838001178555620003ad565b82800160010185558215620003ad579182015b82811115620003ac5782518255916020019190600101906200038f565b5b509050620003bc9190620003c0565b5090565b620003e591905b80821115620003e1576000816000905550600101620003c7565b5090565b90565b613af380620003f86000396000f3fe6080604052600436106101fd5760003560e01c806389332f7f1161010d578063b6b55f25116100a0578063dc90235c1161006f578063dc90235c14610cdb578063dd62ed3e14610d06578063e07acf1714610d8b578063ece04be014610de2578063f2fde38b14610e0d57610204565b8063b6b55f2514610b7d578063d082ea8c14610bc3578063d5ec7cc614610c14578063d6379b7214610c6b57610204565b8063a126d601116100dc578063a126d60114610a26578063a457c2d714610a6c578063a9059cbb14610adf578063abd70aa214610b5257610204565b806389332f7f146108bd5780638da5cb5b146108e857806391b9cd821461093f57806395d89b411461099657610204565b80633945251f1161019057806370a082311161015f57806370a08231146106f9578063715018a61461075e57806378c316ee146107755780637f55560e146107cc57806387431a281461086657610204565b80633945251f146105dd578063395093511461062c5780634ba394681461069f5780635c975abb146106ca57610204565b806318160ddd116101cc57806318160ddd1461049b57806323b872dd146104c65780632e1a7d4d14610559578063313ce567146105ac57610204565b80630207bb5c1461020957806306fdde0314610234578063095ea7b3146102c4578063150b7a021461033757610204565b3661020457005b600080fd5b34801561021557600080fd5b5061021e610e5e565b6040518082815260200191505060405180910390f35b34801561024057600080fd5b50610249610e64565b6040518080602001828103825283818151815260200191508051906020019080838360005b8381101561028957808201518184015260208101905061026e565b50505050905090810190601f1680156102b65780820380516001836020036101000a031916815260200191505b509250505060405180910390f35b3480156102d057600080fd5b5061031d600480360360408110156102e757600080fd5b81019080803573ffffffffffffffffffffffffffffffffffffffff16906020019092919080359060200190929190505050610f06565b604051808215151515815260200191505060405180910390f35b34801561034357600080fd5b506104476004803603608081101561035a57600080fd5b81019080803573ffffffffffffffffffffffffffffffffffffffff169060200190929190803573ffffffffffffffffffffffffffffffffffffffff16906020019092919080359060200190929190803590602001906401000000008111156103c157600080fd5b8201836020820111156103d357600080fd5b803590602001918460018302840111640100000000831117156103f557600080fd5b91908080601f016020809104026020016040519081016040528093929190818152602001838380828437600081840152601f19601f820116905080830192505050505050509192919290505050610f24565b60405180827bffffffffffffffffffffffffffffffffffffffffffffffffffffffff19167bffffffffffffffffffffffffffffffffffffffffffffffffffffffff1916815260200191505060405180910390f35b3480156104a757600080fd5b506104b0610f38565b6040518082815260200191505060405180910390f35b3480156104d257600080fd5b5061053f600480360360608110156104e957600080fd5b81019080803573ffffffffffffffffffffffffffffffffffffffff169060200190929190803573ffffffffffffffffffffffffffffffffffffffff16906020019092919080359060200190929190505050610f42565b604051808215151515815260200191505060405180910390f35b34801561056557600080fd5b506105926004803603602081101561057c57600080fd5b810190808035906020019092919050505061101b565b604051808215151515815260200191505060405180910390f35b3480156105b857600080fd5b506105c1611247565b604051808260ff1660ff16815260200191505060405180910390f35b3480156105e957600080fd5b506106166004803603602081101561060057600080fd5b810190808035906020019092919050505061125e565b6040518082815260200191505060405180910390f35b34801561063857600080fd5b506106856004803603604081101561064f57600080fd5b81019080803573ffffffffffffffffffffffffffffffffffffffff169060200190929190803590602001909291905050506112cb565b604051808215151515815260200191505060405180910390f35b3480156106ab57600080fd5b506106b461137e565b6040518082815260200191505060405180910390f35b3480156106d657600080fd5b506106df6113d8565b604051808215151515815260200191505060405180910390f35b34801561070557600080fd5b506107486004803603602081101561071c57600080fd5b81019080803573ffffffffffffffffffffffffffffffffffffffff1690602001909291905050506113ee565b6040518082815260200191505060405180910390f35b34801561076a57600080fd5b50610773611437565b005b34801561078157600080fd5b5061078a6115bf565b604051808273ffffffffffffffffffffffffffffffffffffffff1673ffffffffffffffffffffffffffffffffffffffff16815260200191505060405180910390f35b61084c600480360360a08110156107e257600080fd5b810190808035906020019092919080359060200190929190803573ffffffffffffffffffffffffffffffffffffffff16906020019092919080359060200190929190803573ffffffffffffffffffffffffffffffffffffffff1690602001909291905050506115e5565b604051808215151515815260200191505060405180910390f35b34801561087257600080fd5b5061087b611ab1565b604051808273ffffffffffffffffffffffffffffffffffffffff1673ffffffffffffffffffffffffffffffffffffffff16815260200191505060405180910390f35b3480156108c957600080fd5b506108d2611ad7565b6040518082815260200191505060405180910390f35b3480156108f457600080fd5b506108fd611b1a565b604051808273ffffffffffffffffffffffffffffffffffffffff1673ffffffffffffffffffffffffffffffffffffffff16815260200191505060405180910390f35b34801561094b57600080fd5b50610954611b43565b604051808273ffffffffffffffffffffffffffffffffffffffff1673ffffffffffffffffffffffffffffffffffffffff16815260200191505060405180910390f35b3480156109a257600080fd5b506109ab611b69565b6040518080602001828103825283818151815260200191508051906020019080838360005b838110156109eb5780820151818401526020810190506109d0565b50505050905090810190601f168015610a185780820380516001836020036101000a031916815260200191505b509250505060405180910390f35b610a5260048036036020811015610a3c57600080fd5b8101908080359060200190929190505050611c0b565b604051808215151515815260200191505060405180910390f35b348015610a7857600080fd5b50610ac560048036036040811015610a8f57600080fd5b81019080803573ffffffffffffffffffffffffffffffffffffffff16906020019092919080359060200190929190505050611de8565b604051808215151515815260200191505060405180910390f35b348015610aeb57600080fd5b50610b3860048036036040811015610b0257600080fd5b81019080803573ffffffffffffffffffffffffffffffffffffffff16906020019092919080359060200190929190505050611eb5565b604051808215151515815260200191505060405180910390f35b348015610b5e57600080fd5b50610b67611ed3565b6040518082815260200191505060405180910390f35b610ba960048036036020811015610b9357600080fd5b8101908080359060200190929190505050611fb6565b604051808215151515815260200191505060405180910390f35b348015610bcf57600080fd5b50610c1260048036036020811015610be657600080fd5b81019080803573ffffffffffffffffffffffffffffffffffffffff169060200190929190505050612186565b005b348015610c2057600080fd5b50610c29612293565b604051808273ffffffffffffffffffffffffffffffffffffffff1673ffffffffffffffffffffffffffffffffffffffff16815260200191505060405180910390f35b610cc160048036036060811015610c8157600080fd5b810190808035906020019092919080359060200190929190803573ffffffffffffffffffffffffffffffffffffffff1690602001909291905050506122b9565b604051808215151515815260200191505060405180910390f35b348015610ce757600080fd5b50610cf061268f565b6040518082815260200191505060405180910390f35b348015610d1257600080fd5b50610d7560048036036040811015610d2957600080fd5b81019080803573ffffffffffffffffffffffffffffffffffffffff169060200190929190803573ffffffffffffffffffffffffffffffffffffffff169060200190929190505050612694565b6040518082815260200191505060405180910390f35b348015610d9757600080fd5b50610da061271b565b604051808273ffffffffffffffffffffffffffffffffffffffff1673ffffffffffffffffffffffffffffffffffffffff16815260200191505060405180910390f35b348015610dee57600080fd5b50610df7612741565b6040518082815260200191505060405180910390f35b348015610e1957600080fd5b50610e5c60048036036020811015610e3057600080fd5b81019080803573ffffffffffffffffffffffffffffffffffffffff16906020019092919050505061280c565b005b600b5481565b606060048054600181600116156101000203166002900480601f016020809104026020016040519081016040528092919081815260200182805460018160011615610100020316600290048015610efc5780601f10610ed157610100808354040283529160200191610efc565b820191906000526020600020905b815481529060010190602001808311610edf57829003601f168201915b5050505050905090565b6000610f1a610f136128e1565b84846128e9565b6001905092915050565b600063150b7a0260e01b9050949350505050565b6000600354905090565b6000610f4f848484612ae0565b61101084610f5b6128e1565b61100b85604051806060016040528060288152602001613a0760289139600260008b73ffffffffffffffffffffffffffffffffffffffff1673ffffffffffffffffffffffffffffffffffffffff1681526020019081526020016000206000610fc16128e1565b73ffffffffffffffffffffffffffffffffffffffff1673ffffffffffffffffffffffffffffffffffffffff16815260200190815260200160002054612da59092919063ffffffff16565b6128e9565b600190509392505050565b60008060159054906101000a900460ff1661109e576040517f08c379a000000000000000000000000000000000000000000000000000000000815260040180806020018281038252601f8152602001807f5265656e7472616e637947756172643a207265656e7472616e742063616c6c0081525060200191505060405180910390fd5b60008060156101000a81548160ff021916908315150217905550816110c2336113ee565b1015611136576040517f08c379a00000000000000000000000000000000000000000000000000000000081526004018080602001828103825260188152602001807f57697468647261773a2042616c203c207769746864726177000000000000000081525060200191505060405180910390fd5b8161113f612741565b10156111b3576040517f08c379a00000000000000000000000000000000000000000000000000000000081526004018080602001828103825260188152602001807f57697468647261773a206d6178206275726e203c20616d74000000000000000081525060200191505060405180910390fd5b6111bd3383612e65565b3373ffffffffffffffffffffffffffffffffffffffff167f9da6493a92039daf47d1f2d7a782299c5994c6323eb1e972f69c432089ec52bf6111fe8461125e565b84604051808381526020018281526020019250505060405180910390a2611225823361302b565b90506001600060156101000a81548160ff021916908315150217905550919050565b6000600660009054906101000a900460ff16905090565b60008061128261126c611ed3565b611274610f38565b61323d90919063ffffffff16565b1415611290578190506112c6565b6112c361129b610f38565b6112b56112a6611ed3565b8561323d90919063ffffffff16565b6132c390919063ffffffff16565b90505b919050565b60006113746112d86128e1565b8461136f85600260006112e96128e1565b73ffffffffffffffffffffffffffffffffffffffff1673ffffffffffffffffffffffffffffffffffffffff16815260200190815260200160002060008973ffffffffffffffffffffffffffffffffffffffff1673ffffffffffffffffffffffffffffffffffffffff1681526020019081526020016000205461330d90919063ffffffff16565b6128e9565b6001905092915050565b6000806113a261138c611ed3565b611394610f38565b61323d90919063ffffffff16565b14156113b157600190506113d5565b6113d26113bc611ed3565b6113c4610f38565b6132c390919063ffffffff16565b90505b90565b60008060149054906101000a900460ff16905090565b6000600160008373ffffffffffffffffffffffffffffffffffffffff1673ffffffffffffffffffffffffffffffffffffffff168152602001908152602001600020549050919050565b61143f6128e1565b73ffffffffffffffffffffffffffffffffffffffff166000809054906101000a900473ffffffffffffffffffffffffffffffffffffffff1673ffffffffffffffffffffffffffffffffffffffff1614611500576040517f08c379a00000000000000000000000000000000000000000000000000000000081526004018080602001828103825260208152602001807f4f776e61626c653a2063616c6c6572206973206e6f7420746865206f776e657281525060200191505060405180910390fd5b600073ffffffffffffffffffffffffffffffffffffffff166000809054906101000a900473ffffffffffffffffffffffffffffffffffffffff1673ffffffffffffffffffffffffffffffffffffffff167f8be0079c531659141344cd1fd0a4f28419497f9722a3daafe3b4186f6b6457e060405160405180910390a360008060006101000a81548173ffffffffffffffffffffffffffffffffffffffff021916908373ffffffffffffffffffffffffffffffffffffffff160217905550565b600660019054906101000a900473ffffffffffffffffffffffffffffffffffffffff1681565b60008060149054906101000a900460ff1615611669576040517f08c379a00000000000000000000000000000000000000000000000000000000081526004018080602001828103825260108152602001807f5061757361626c653a207061757365640000000000000000000000000000000081525060200191505060405180910390fd5b61167d6005876132c390919063ffffffff16565b3410156116f2576040517f08c379a00000000000000000000000000000000000000000000000000000000081526004018080602001828103825260138152602001807f4d696e743a2056616c203c207072656d69756d0000000000000000000000000081525060200191505060405180910390fd5b428311611767576040517f08c379a000000000000000000000000000000000000000000000000000000000815260040180806020018281038252600d8152602001807f4d696e743a20657870697265640000000000000000000000000000000000000081525060200191505060405180910390fd5b85611770611ad7565b10156117e4576040517f08c379a00000000000000000000000000000000000000000000000000000000081526004018080602001828103825260158152602001807f4d696e743a20617661696c61626c65203c20616d74000000000000000000000081525060200191505060405180910390fd5b6117f986600b5461330d90919063ffffffff16565b600b819055506000600a60009054906101000a900473ffffffffffffffffffffffffffffffffffffffff1673ffffffffffffffffffffffffffffffffffffffff1663a22ddfd78830898989306040518763ffffffff1660e01b8152600401808781526020018673ffffffffffffffffffffffffffffffffffffffff1673ffffffffffffffffffffffffffffffffffffffff1681526020018581526020018473ffffffffffffffffffffffffffffffffffffffff1673ffffffffffffffffffffffffffffffffffffffff1681526020018381526020018273ffffffffffffffffffffffffffffffffffffffff1673ffffffffffffffffffffffffffffffffffffffff1681526020019650505050505050602060405180830381600087803b15801561192257600080fd5b505af1158015611936573d6000803e3d6000fd5b505050506040513d602081101561194c57600080fd5b81019080805190602001909291905050509050600a60009054906101000a900473ffffffffffffffffffffffffffffffffffffffff1673ffffffffffffffffffffffffffffffffffffffff166342842e0e3085846040518463ffffffff1660e01b8152600401808473ffffffffffffffffffffffffffffffffffffffff1673ffffffffffffffffffffffffffffffffffffffff1681526020018373ffffffffffffffffffffffffffffffffffffffff1673ffffffffffffffffffffffffffffffffffffffff1681526020018281526020019350505050600060405180830381600087803b158015611a3c57600080fd5b505af1158015611a50573d6000803e3d6000fd5b50505050837f53fe59947a142331349de3016f994fec7e38c4177863f55f83faa01a62524b5082898960405180848152602001838152602001828152602001935050505060405180910390a2611aa534613395565b91505095945050505050565b600960009054906101000a900473ffffffffffffffffffffffffffffffffffffffff1681565b600080611ae2611ed3565b905080600b541115611af8576000915050611b17565b6000611b0f600b548361342990919063ffffffff16565b905080925050505b90565b60008060009054906101000a900473ffffffffffffffffffffffffffffffffffffffff16905090565b600860009054906101000a900473ffffffffffffffffffffffffffffffffffffffff1681565b606060058054600181600116156101000203166002900480601f016020809104026020016040519081016040528092919081815260200182805460018160011615610100020316600290048015611c015780601f10611bd657610100808354040283529160200191611c01565b820191906000526020600020905b815481529060010190602001808311611be457829003601f168201915b5050505050905090565b600080611c17336113ee565b905082811015611c8f576040517f08c379a00000000000000000000000000000000000000000000000000000000081526004018080602001828103825260148152602001807f436c6f73653a204574682042616c203c20616d7400000000000000000000000081525060200191505060405180910390fd5b6000611c99611ed3565b90506000611cc482611cb6600b548861323d90919063ffffffff16565b6132c390919063ffffffff16565b905080341015611d3c576040517f08c379a00000000000000000000000000000000000000000000000000000000081526004018080602001828103825260138152602001807f436c6f73653a2056616c7565203c20646562740000000000000000000000000081525060200191505060405180910390fd5b6000611d51823461342990919063ffffffff16565b9050611d5d3387612e65565b6000611d7a611d75838961330d90919063ffffffff16565b61125e565b90503373ffffffffffffffffffffffffffffffffffffffff167f116fde7943d3685c886edf89b49ebe78ebec359c3db46c8972274ae4e270193f8289604051808381526020018281526020019250505060405180910390a2611ddc813361302b565b95505050505050919050565b6000611eab611df56128e1565b84611ea685604051806060016040528060258152602001613a996025913960026000611e1f6128e1565b73ffffffffffffffffffffffffffffffffffffffff1673ffffffffffffffffffffffffffffffffffffffff16815260200190815260200160002060008a73ffffffffffffffffffffffffffffffffffffffff1673ffffffffffffffffffffffffffffffffffffffff16815260200190815260200160002054612da59092919063ffffffff16565b6128e9565b6001905092915050565b6000611ec9611ec26128e1565b8484612ae0565b6001905092915050565b6000600960009054906101000a900473ffffffffffffffffffffffffffffffffffffffff1673ffffffffffffffffffffffffffffffffffffffff16633af9e669306040518263ffffffff1660e01b8152600401808273ffffffffffffffffffffffffffffffffffffffff1673ffffffffffffffffffffffffffffffffffffffff168152602001915050602060405180830381600087803b158015611f7657600080fd5b505af1158015611f8a573d6000803e3d6000fd5b505050506040513d6020811015611fa057600080fd5b8101908080519060200190929190505050905090565b60008060149054906101000a900460ff161561203a576040517f08c379a00000000000000000000000000000000000000000000000000000000081526004018080602001828103825260108152602001807f5061757361626c653a207061757365640000000000000000000000000000000081525060200191505060405180910390fd5b8134146120af576040517f08c379a00000000000000000000000000000000000000000000000000000000081526004018080602001828103825260168152602001807f4465706f7369743a2056616c203c206465706f7369740000000000000000000081525060200191505060405180910390fd5b60006120b9610f38565b905060006120c5611ed3565b90506000806120dd848461323d90919063ffffffff16565b14156120eb57849050612113565b61211082612102858861323d90919063ffffffff16565b6132c390919063ffffffff16565b90505b3373ffffffffffffffffffffffffffffffffffffffff167feaa18152488ce5959073c9c79c88ca90b3d96c00de1f118cfaad664c3dab06b98683604051808381526020018281526020019250505060405180910390a26121733382613473565b61217c85613395565b9350505050919050565b61218e6128e1565b73ffffffffffffffffffffffffffffffffffffffff166000809054906101000a900473ffffffffffffffffffffffffffffffffffffffff1673ffffffffffffffffffffffffffffffffffffffff161461224f576040517f08c379a00000000000000000000000000000000000000000000000000000000081526004018080602001828103825260208152602001807f4f776e61626c653a2063616c6c6572206973206e6f7420746865206f776e657281525060200191505060405180910390fd5b80600860006101000a81548173ffffffffffffffffffffffffffffffffffffffff021916908373ffffffffffffffffffffffffffffffffffffffff16021790555050565b600760009054906101000a900473ffffffffffffffffffffffffffffffffffffffff1681565b60008060149054906101000a900460ff161561233d576040517f08c379a00000000000000000000000000000000000000000000000000000000081526004018080602001828103825260108152602001807f5061757361626c653a207061757365640000000000000000000000000000000081525060200191505060405180910390fd5b600660019054906101000a900473ffffffffffffffffffffffffffffffffffffffff1673ffffffffffffffffffffffffffffffffffffffff163373ffffffffffffffffffffffffffffffffffffffff161461239757600080fd5b836123a0611ed3565b1015612414576040517f08c379a00000000000000000000000000000000000000000000000000000000081526004018080602001828103825260148152602001807f537761703a206574686572203c20636f6c6c617400000000000000000000000081525060200191505060405180910390fd5b61242984600b5461342990919063ffffffff16565b600b819055506000600960009054906101000a900473ffffffffffffffffffffffffffffffffffffffff1673ffffffffffffffffffffffffffffffffffffffff1663852a12e3866040518263ffffffff1660e01b815260040180828152602001915050602060405180830381600087803b1580156124a657600080fd5b505af11580156124ba573d6000803e3d6000fd5b505050506040513d60208110156124d057600080fd5b8101908080519060200190929190505050905060008114612559576040517f08c379a00000000000000000000000000000000000000000000000000000000081526004018080602001828103825260118152602001807f537761703a2072656465656d20213d203000000000000000000000000000000081525060200191505060405180910390fd5b612563853361363c565b507e84fe51c7cb34b132b7b6eb5d5a87a489f8d6d284758d00a0402c1bad9a0def8585604051808381526020018281526020019250505060405180910390a1600a60009054906101000a900473ffffffffffffffffffffffffffffffffffffffff1673ffffffffffffffffffffffffffffffffffffffff1662f714ce85856040518363ffffffff1660e01b8152600401808381526020018273ffffffffffffffffffffffffffffffffffffffff1673ffffffffffffffffffffffffffffffffffffffff16815260200192505050602060405180830381600087803b15801561264a57600080fd5b505af115801561265e573d6000803e3d6000fd5b505050506040513d602081101561267457600080fd5b81019080805190602001909291905050509150509392505050565b600581565b6000600260008473ffffffffffffffffffffffffffffffffffffffff1673ffffffffffffffffffffffffffffffffffffffff16815260200190815260200160002060008373ffffffffffffffffffffffffffffffffffffffff1673ffffffffffffffffffffffffffffffffffffffff16815260200190815260200160002054905092915050565b600a60009054906101000a900473ffffffffffffffffffffffffffffffffffffffff1681565b60008061277e61274f611ed3565b61277061275a610f38565b612762611ad7565b61323d90919063ffffffff16565b6132c390919063ffffffff16565b9050612788611ad7565b6127918261125e565b1115612805576040517f08c379a00000000000000000000000000000000000000000000000000000000081526004018080602001828103825260158152602001807f5769746864726177203e206e657420617373657473000000000000000000000081525060200191505060405180910390fd5b8091505090565b6128146128e1565b73ffffffffffffffffffffffffffffffffffffffff166000809054906101000a900473ffffffffffffffffffffffffffffffffffffffff1673ffffffffffffffffffffffffffffffffffffffff16146128d5576040517f08c379a00000000000000000000000000000000000000000000000000000000081526004018080602001828103825260208152602001807f4f776e61626c653a2063616c6c6572206973206e6f7420746865206f776e657281525060200191505060405180910390fd5b6128de81613723565b50565b600033905090565b600073ffffffffffffffffffffffffffffffffffffffff168373ffffffffffffffffffffffffffffffffffffffff16141561296f576040517f08c379a0000000000000000000000000000000000000000000000000000000008152600401808060200182810382526024815260200180613a756024913960400191505060405180910390fd5b600073ffffffffffffffffffffffffffffffffffffffff168273ffffffffffffffffffffffffffffffffffffffff1614156129f5576040517f08c379a000000000000000000000000000000000000000000000000000000000815260040180806020018281038252602281526020018061399e6022913960400191505060405180910390fd5b80600260008573ffffffffffffffffffffffffffffffffffffffff1673ffffffffffffffffffffffffffffffffffffffff16815260200190815260200160002060008473ffffffffffffffffffffffffffffffffffffffff1673ffffffffffffffffffffffffffffffffffffffff168152602001908152602001600020819055508173ffffffffffffffffffffffffffffffffffffffff168373ffffffffffffffffffffffffffffffffffffffff167f8c5be1e5ebec7d5bd14f71427d1e84f3dd0314c0f7b2291e5b200ac8c7c3b925836040518082815260200191505060405180910390a3505050565b600073ffffffffffffffffffffffffffffffffffffffff168373ffffffffffffffffffffffffffffffffffffffff161415612b66576040517f08c379a0000000000000000000000000000000000000000000000000000000008152600401808060200182810382526025815260200180613a506025913960400191505060405180910390fd5b600073ffffffffffffffffffffffffffffffffffffffff168273ffffffffffffffffffffffffffffffffffffffff161415612bec576040517f08c379a00000000000000000000000000000000000000000000000000000000081526004018080602001828103825260238152602001806139336023913960400191505060405180910390fd5b612bf7838383613867565b612c63816040518060600160405280602681526020016139c060269139600160008773ffffffffffffffffffffffffffffffffffffffff1673ffffffffffffffffffffffffffffffffffffffff16815260200190815260200160002054612da59092919063ffffffff16565b600160008573ffffffffffffffffffffffffffffffffffffffff1673ffffffffffffffffffffffffffffffffffffffff16815260200190815260200160002081905550612cf881600160008573ffffffffffffffffffffffffffffffffffffffff1673ffffffffffffffffffffffffffffffffffffffff1681526020019081526020016000205461330d90919063ffffffff16565b600160008473ffffffffffffffffffffffffffffffffffffffff1673ffffffffffffffffffffffffffffffffffffffff168152602001908152602001600020819055508173ffffffffffffffffffffffffffffffffffffffff168373ffffffffffffffffffffffffffffffffffffffff167fddf252ad1be2c89b69c2b068fc378daa952ba7f163c4a11628f55a4df523b3ef836040518082815260200191505060405180910390a3505050565b6000838311158290612e52576040517f08c379a00000000000000000000000000000000000000000000000000000000081526004018080602001828103825283818151815260200191508051906020019080838360005b83811015612e17578082015181840152602081019050612dfc565b50505050905090810190601f168015612e445780820380516001836020036101000a031916815260200191505b509250505060405180910390fd5b5060008385039050809150509392505050565b600073ffffffffffffffffffffffffffffffffffffffff168273ffffffffffffffffffffffffffffffffffffffff161415612eeb576040517f08c379a0000000000000000000000000000000000000000000000000000000008152600401808060200182810382526021815260200180613a2f6021913960400191505060405180910390fd5b612ef782600083613867565b612f638160405180606001604052806022815260200161395660229139600160008673ffffffffffffffffffffffffffffffffffffffff1673ffffffffffffffffffffffffffffffffffffffff16815260200190815260200160002054612da59092919063ffffffff16565b600160008473ffffffffffffffffffffffffffffffffffffffff1673ffffffffffffffffffffffffffffffffffffffff16815260200190815260200160002081905550612fbb8160035461342990919063ffffffff16565b600381905550600073ffffffffffffffffffffffffffffffffffffffff168273ffffffffffffffffffffffffffffffffffffffff167fddf252ad1be2c89b69c2b068fc378daa952ba7f163c4a11628f55a4df523b3ef836040518082815260200191505060405180910390a35050565b600080600960009054906101000a900473ffffffffffffffffffffffffffffffffffffffff1673ffffffffffffffffffffffffffffffffffffffff1663852a12e3856040518263ffffffff1660e01b815260040180828152602001915050602060405180830381600087803b1580156130a357600080fd5b505af11580156130b7573d6000803e3d6000fd5b505050506040513d60208110156130cd57600080fd5b8101908080519060200190929190505050905060008114613156576040517f08c379a000000000000000000000000000000000000000000000000000000000815260040180806020018281038252600b8152602001807f72656465656d20213d203000000000000000000000000000000000000000000081525060200191505060405180910390fd5b60008373ffffffffffffffffffffffffffffffffffffffff168560405180600001905060006040518083038185875af1925050503d80600081146131b6576040519150601f19603f3d011682016040523d82523d6000602084013e6131bb565b606091505b5050905080613232576040517f08c379a000000000000000000000000000000000000000000000000000000000815260040180806020018281038252600e8152602001807f5472616e73666572206661696c2e00000000000000000000000000000000000081525060200191505060405180910390fd5b809250505092915050565b60008083141561325057600090506132bd565b600082840290508284828161326157fe5b04146132b8576040517f08c379a00000000000000000000000000000000000000000000000000000000081526004018080602001828103825260218152602001806139e66021913960400191505060405180910390fd5b809150505b92915050565b600061330583836040518060400160405280601a81526020017f536166654d6174683a206469766973696f6e206279207a65726f00000000000081525061386c565b905092915050565b60008082840190508381101561338b576040517f08c379a000000000000000000000000000000000000000000000000000000000815260040180806020018281038252601b8152602001807f536166654d6174683a206164646974696f6e206f766572666c6f77000000000081525060200191505060405180910390fd5b8091505092915050565b6000600960009054906101000a900473ffffffffffffffffffffffffffffffffffffffff1673ffffffffffffffffffffffffffffffffffffffff16631249c58b836203d090906040518363ffffffff1660e01b81526004016000604051808303818589803b15801561340657600080fd5b5088f115801561341a573d6000803e3d6000fd5b50505050505060019050919050565b600061346b83836040518060400160405280601e81526020017f536166654d6174683a207375627472616374696f6e206f766572666c6f770000815250612da5565b905092915050565b600073ffffffffffffffffffffffffffffffffffffffff168273ffffffffffffffffffffffffffffffffffffffff161415613516576040517f08c379a000000000000000000000000000000000000000000000000000000000815260040180806020018281038252601f8152602001807f45524332303a206d696e7420746f20746865207a65726f20616464726573730081525060200191505060405180910390fd5b61352260008383613867565b6135378160035461330d90919063ffffffff16565b60038190555061358f81600160008573ffffffffffffffffffffffffffffffffffffffff1673ffffffffffffffffffffffffffffffffffffffff1681526020019081526020016000205461330d90919063ffffffff16565b600160008473ffffffffffffffffffffffffffffffffffffffff1673ffffffffffffffffffffffffffffffffffffffff168152602001908152602001600020819055508173ffffffffffffffffffffffffffffffffffffffff16600073ffffffffffffffffffffffffffffffffffffffff167fddf252ad1be2c89b69c2b068fc378daa952ba7f163c4a11628f55a4df523b3ef836040518082815260200191505060405180910390a35050565b6000808273ffffffffffffffffffffffffffffffffffffffff168460405180600001905060006040518083038185875af1925050503d806000811461369d576040519150601f19603f3d011682016040523d82523d6000602084013e6136a2565b606091505b5050905080613719576040517f08c379a000000000000000000000000000000000000000000000000000000000815260040180806020018281038252600f8152602001807f53656e64206574686572206661696c000000000000000000000000000000000081525060200191505060405180910390fd5b8091505092915050565b600073ffffffffffffffffffffffffffffffffffffffff168173ffffffffffffffffffffffffffffffffffffffff1614156137a9576040517f08c379a00000000000000000000000000000000000000000000000000000000081526004018080602001828103825260268152602001806139786026913960400191505060405180910390fd5b8073ffffffffffffffffffffffffffffffffffffffff166000809054906101000a900473ffffffffffffffffffffffffffffffffffffffff1673ffffffffffffffffffffffffffffffffffffffff167f8be0079c531659141344cd1fd0a4f28419497f9722a3daafe3b4186f6b6457e060405160405180910390a3806000806101000a81548173ffffffffffffffffffffffffffffffffffffffff021916908373ffffffffffffffffffffffffffffffffffffffff16021790555050565b505050565b60008083118290613918576040517f08c379a00000000000000000000000000000000000000000000000000000000081526004018080602001828103825283818151815260200191508051906020019080838360005b838110156138dd5780820151818401526020810190506138c2565b50505050905090810190601f16801561390a5780820380516001836020036101000a031916815260200191505b509250505060405180910390fd5b50600083858161392457fe5b04905080915050939250505056fe45524332303a207472616e7366657220746f20746865207a65726f206164647265737345524332303a206275726e20616d6f756e7420657863656564732062616c616e63654f776e61626c653a206e6577206f776e657220697320746865207a65726f206164647265737345524332303a20617070726f766520746f20746865207a65726f206164647265737345524332303a207472616e7366657220616d6f756e7420657863656564732062616c616e6365536166654d6174683a206d756c7469706c69636174696f6e206f766572666c6f7745524332303a207472616e7366657220616d6f756e74206578636565647320616c6c6f77616e636545524332303a206275726e2066726f6d20746865207a65726f206164647265737345524332303a207472616e736665722066726f6d20746865207a65726f206164647265737345524332303a20617070726f76652066726f6d20746865207a65726f206164647265737345524332303a2064656372656173656420616c6c6f77616e63652062656c6f77207a65726fa2646970667358221220be2e489225106b442048dd7074eaba02f0f90e3d9e1c36298b5df36c4ee3a7bf64736f6c634300060200335072696d697469766520556e6465726c79696e67204c69717569646974792050726f7669646572",
  "source": "pragma solidity ^0.6.2;\r\n\r\n/**\r\n * @title   Primitive's Pool Contract\r\n * @notice  The pool contract.\r\n * @author  Primitive\r\n */\r\n\r\n\r\nimport '../Instruments.sol';\r\n\r\n/**\r\n * @dev Wrappers over Solidity's arithmetic operations with added overflow\r\n * checks.\r\n *\r\n * Arithmetic operations in Solidity wrap on overflow. This can easily result\r\n * in bugs, because programmers usually assume that an overflow raises an\r\n * error, which is the standard behavior in high level programming languages.\r\n * `SafeMath` restores this intuition by reverting the transaction when an\r\n * operation overflows.\r\n *\r\n * Using this library instead of the unchecked operations eliminates an entire\r\n * class of bugs, so it's recommended to use it always.\r\n */\r\nlibrary SafeMath {\r\n    /**\r\n     * @dev Returns the addition of two unsigned integers, reverting on\r\n     * overflow.\r\n     *\r\n     * Counterpart to Solidity's `+` operator.\r\n     *\r\n     * Requirements:\r\n     * - Addition cannot overflow.\r\n     */\r\n    function add(uint256 a, uint256 b) internal pure returns (uint256) {\r\n        uint256 c = a + b;\r\n        require(c >= a, \"SafeMath: addition overflow\");\r\n\r\n        return c;\r\n    }\r\n\r\n    /**\r\n     * @dev Returns the subtraction of two unsigned integers, reverting on\r\n     * overflow (when the result is negative).\r\n     *\r\n     * Counterpart to Solidity's `-` operator.\r\n     *\r\n     * Requirements:\r\n     * - Subtraction cannot overflow.\r\n     */\r\n    function sub(uint256 a, uint256 b) internal pure returns (uint256) {\r\n        return sub(a, b, \"SafeMath: subtraction overflow\");\r\n    }\r\n\r\n    /**\r\n     * @dev Returns the subtraction of two unsigned integers, reverting with custom message on\r\n     * overflow (when the result is negative).\r\n     *\r\n     * Counterpart to Solidity's `-` operator.\r\n     *\r\n     * Requirements:\r\n     * - Subtraction cannot overflow.\r\n     */\r\n    function sub(uint256 a, uint256 b, string memory errorMessage) internal pure returns (uint256) {\r\n        require(b <= a, errorMessage);\r\n        uint256 c = a - b;\r\n\r\n        return c;\r\n    }\r\n\r\n    /**\r\n     * @dev Returns the multiplication of two unsigned integers, reverting on\r\n     * overflow.\r\n     *\r\n     * Counterpart to Solidity's `*` operator.\r\n     *\r\n     * Requirements:\r\n     * - Multiplication cannot overflow.\r\n     */\r\n    function mul(uint256 a, uint256 b) internal pure returns (uint256) {\r\n        // Gas optimization: this is cheaper than requiring 'a' not being zero, but the\r\n        // benefit is lost if 'b' is also tested.\r\n        // See: https://github.com/OpenZeppelin/openzeppelin-contracts/pull/522\r\n        if (a == 0) {\r\n            return 0;\r\n        }\r\n\r\n        uint256 c = a * b;\r\n        require(c / a == b, \"SafeMath: multiplication overflow\");\r\n\r\n        return c;\r\n    }\r\n\r\n    /**\r\n     * @dev Returns the integer division of two unsigned integers. Reverts on\r\n     * division by zero. The result is rounded towards zero.\r\n     *\r\n     * Counterpart to Solidity's `/` operator. Note: this function uses a\r\n     * `revert` opcode (which leaves remaining gas untouched) while Solidity\r\n     * uses an invalid opcode to revert (consuming all remaining gas).\r\n     *\r\n     * Requirements:\r\n     * - The divisor cannot be zero.\r\n     */\r\n    function div(uint256 a, uint256 b) internal pure returns (uint256) {\r\n        return div(a, b, \"SafeMath: division by zero\");\r\n    }\r\n\r\n    /**\r\n     * @dev Returns the integer division of two unsigned integers. Reverts with custom message on\r\n     * division by zero. The result is rounded towards zero.\r\n     *\r\n     * Counterpart to Solidity's `/` operator. Note: this function uses a\r\n     * `revert` opcode (which leaves remaining gas untouched) while Solidity\r\n     * uses an invalid opcode to revert (consuming all remaining gas).\r\n     *\r\n     * Requirements:\r\n     * - The divisor cannot be zero.\r\n     */\r\n    function div(uint256 a, uint256 b, string memory errorMessage) internal pure returns (uint256) {\r\n        // Solidity only automatically asserts when dividing by 0\r\n        require(b > 0, errorMessage);\r\n        uint256 c = a / b;\r\n        // assert(a == b * c + a % b); // There is no case in which this doesn't hold\r\n\r\n        return c;\r\n    }\r\n\r\n    /**\r\n     * @dev Returns the remainder of dividing two unsigned integers. (unsigned integer modulo),\r\n     * Reverts when dividing by zero.\r\n     *\r\n     * Counterpart to Solidity's `%` operator. This function uses a `revert`\r\n     * opcode (which leaves remaining gas untouched) while Solidity uses an\r\n     * invalid opcode to revert (consuming all remaining gas).\r\n     *\r\n     * Requirements:\r\n     * - The divisor cannot be zero.\r\n     */\r\n    function mod(uint256 a, uint256 b) internal pure returns (uint256) {\r\n        return mod(a, b, \"SafeMath: modulo by zero\");\r\n    }\r\n\r\n    /**\r\n     * @dev Returns the remainder of dividing two unsigned integers. (unsigned integer modulo),\r\n     * Reverts with custom message when dividing by zero.\r\n     *\r\n     * Counterpart to Solidity's `%` operator. This function uses a `revert`\r\n     * opcode (which leaves remaining gas untouched) while Solidity uses an\r\n     * invalid opcode to revert (consuming all remaining gas).\r\n     *\r\n     * Requirements:\r\n     * - The divisor cannot be zero.\r\n     */\r\n    function mod(uint256 a, uint256 b, string memory errorMessage) internal pure returns (uint256) {\r\n        require(b != 0, errorMessage);\r\n        return a % b;\r\n    }\r\n}\r\n\r\n/**\r\n * @dev Collection of functions related to the address type\r\n */\r\nlibrary Address {\r\n    /**\r\n     * @dev Returns true if `account` is a contract.\r\n     *\r\n     * [IMPORTANT]\r\n     * ====\r\n     * It is unsafe to assume that an address for which this function returns\r\n     * false is an externally-owned account (EOA) and not a contract.\r\n     *\r\n     * Among others, `isContract` will return false for the following\r\n     * types of addresses:\r\n     *\r\n     *  - an externally-owned account\r\n     *  - a contract in construction\r\n     *  - an address where a contract will be created\r\n     *  - an address where a contract lived, but was destroyed\r\n     * ====\r\n     */\r\n    function isContract(address account) internal view returns (bool) {\r\n        // According to EIP-1052, 0x0 is the value returned for not-yet created accounts\r\n        // and 0xc5d2460186f7233c927e7db2dcc703c0e500b653ca82273b7bfad8045d85a470 is returned\r\n        // for accounts without code, i.e. `keccak256('')`\r\n        bytes32 codehash;\r\n        bytes32 accountHash = 0xc5d2460186f7233c927e7db2dcc703c0e500b653ca82273b7bfad8045d85a470;\r\n        // solhint-disable-next-line no-inline-assembly\r\n        assembly { codehash := extcodehash(account) }\r\n        return (codehash != accountHash && codehash != 0x0);\r\n    }\r\n\r\n    /**\r\n     * @dev Replacement for Solidity's `transfer`: sends `amount` wei to\r\n     * `recipient`, forwarding all available gas and reverting on errors.\r\n     *\r\n     * https://eips.ethereum.org/EIPS/eip-1884[EIP1884] increases the gas cost\r\n     * of certain opcodes, possibly making contracts go over the 2300 gas limit\r\n     * imposed by `transfer`, making them unable to receive funds via\r\n     * `transfer`. {sendValue} removes this limitation.\r\n     *\r\n     * https://diligence.consensys.net/posts/2019/09/stop-using-soliditys-transfer-now/[Learn more].\r\n     *\r\n     * IMPORTANT: because control is transferred to `recipient`, care must be\r\n     * taken to not create reentrancy vulnerabilities. Consider using\r\n     * {ReentrancyGuard} or the\r\n     * https://solidity.readthedocs.io/en/v0.5.11/security-considerations.html#use-the-checks-effects-interactions-pattern[checks-effects-interactions pattern].\r\n     */\r\n    function sendValue(address payable recipient, uint256 amount) internal {\r\n        require(address(this).balance >= amount, \"Address: insufficient balance\");\r\n\r\n        // solhint-disable-next-line avoid-low-level-calls, avoid-call-value\r\n        (bool success, ) = recipient.call.value(amount)(\"\");\r\n        require(success, \"Address: unable to send value, recipient may have reverted\");\r\n    }\r\n}\r\n\r\n/**\r\n * @dev Contract module that helps prevent reentrant calls to a function.\r\n *\r\n * Inheriting from `ReentrancyGuard` will make the {nonReentrant} modifier\r\n * available, which can be applied to functions to make sure there are no nested\r\n * (reentrant) calls to them.\r\n *\r\n * Note that because there is a single `nonReentrant` guard, functions marked as\r\n * `nonReentrant` may not call one another. This can be worked around by making\r\n * those functions `private`, and then adding `external` `nonReentrant` entry\r\n * points to them.\r\n *\r\n * TIP: If you would like to learn more about reentrancy and alternative ways\r\n * to protect against it, check out our blog post\r\n * https://blog.openzeppelin.com/reentrancy-after-istanbul/[Reentrancy After Istanbul].\r\n */\r\ncontract ReentrancyGuard {\r\n    bool private _notEntered;\r\n\r\n    constructor () internal {\r\n        // Storing an initial non-zero value makes deployment a bit more\r\n        // expensive, but in exchange the refund on every call to nonReentrant\r\n        // will be lower in amount. Since refunds are capped to a percetange of\r\n        // the total transaction's gas, it is best to keep them low in cases\r\n        // like this one, to increase the likelihood of the full refund coming\r\n        // into effect.\r\n        _notEntered = true;\r\n    }\r\n\r\n    /**\r\n     * @dev Prevents a contract from calling itself, directly or indirectly.\r\n     * Calling a `nonReentrant` function from another `nonReentrant`\r\n     * function is not supported. It is possible to prevent this from happening\r\n     * by making the `nonReentrant` function external, and make it call a\r\n     * `private` function that does the actual work.\r\n     */\r\n    modifier nonReentrant() {\r\n        // On the first call to nonReentrant, _notEntered will be true\r\n        require(_notEntered, \"ReentrancyGuard: reentrant call\");\r\n\r\n        // Any calls to nonReentrant after this point will fail\r\n        _notEntered = false;\r\n\r\n        _;\r\n\r\n        // By storing the original value once again, a refund is triggered (see\r\n        // https://eips.ethereum.org/EIPS/eip-2200)\r\n        _notEntered = true;\r\n    }\r\n}\r\n\r\n/*\r\n * @dev Provides information about the current execution context, including the\r\n * sender of the transaction and its data. While these are generally available\r\n * via msg.sender and msg.data, they should not be accessed in such a direct\r\n * manner, since when dealing with GSN meta-transactions the account sending and\r\n * paying for execution may not be the actual sender (as far as an application\r\n * is concerned).\r\n *\r\n * This contract is only required for intermediate, library-like contracts.\r\n */\r\ncontract Context {\r\n    // Empty internal constructor, to prevent people from mistakenly deploying\r\n    // an instance of this contract, which should be used via inheritance.\r\n    constructor () internal { }\r\n\r\n    function _msgSender() internal view virtual returns (address payable) {\r\n        return msg.sender;\r\n    }\r\n\r\n    function _msgData() internal view virtual returns (bytes memory) {\r\n        this; // silence state mutability warning without generating bytecode - see https://github.com/ethereum/solidity/issues/2691\r\n        return msg.data;\r\n    }\r\n}\r\n\r\n/**\r\n * @dev Contract module which provides a basic access control mechanism, where\r\n * there is an account (an owner) that can be granted exclusive access to\r\n * specific functions.\r\n *\r\n * By default, the owner account will be the one that deploys the contract. This\r\n * can later be changed with {transferOwnership}.\r\n *\r\n * This module is used through inheritance. It will make available the modifier\r\n * `onlyOwner`, which can be applied to your functions to restrict their use to\r\n * the owner.\r\n */\r\ncontract Ownable is Context {\r\n    address private _owner;\r\n\r\n    event OwnershipTransferred(address indexed previousOwner, address indexed newOwner);\r\n\r\n    /**\r\n     * @dev Initializes the contract setting the deployer as the initial owner.\r\n     */\r\n    constructor () internal {\r\n        address msgSender = _msgSender();\r\n        _owner = msgSender;\r\n        emit OwnershipTransferred(address(0), msgSender);\r\n    }\r\n\r\n    /**\r\n     * @dev Returns the address of the current owner.\r\n     */\r\n    function owner() public view returns (address) {\r\n        return _owner;\r\n    }\r\n\r\n    /**\r\n     * @dev Throws if called by any account other than the owner.\r\n     */\r\n    modifier onlyOwner() {\r\n        require(_owner == _msgSender(), \"Ownable: caller is not the owner\");\r\n        _;\r\n    }\r\n\r\n    /**\r\n     * @dev Leaves the contract without owner. It will not be possible to call\r\n     * `onlyOwner` functions anymore. Can only be called by the current owner.\r\n     *\r\n     * NOTE: Renouncing ownership will leave the contract without an owner,\r\n     * thereby removing any functionality that is only available to the owner.\r\n     */\r\n    function renounceOwnership() public virtual onlyOwner {\r\n        emit OwnershipTransferred(_owner, address(0));\r\n        _owner = address(0);\r\n    }\r\n\r\n    /**\r\n     * @dev Transfers ownership of the contract to a new account (`newOwner`).\r\n     * Can only be called by the current owner.\r\n     */\r\n    function transferOwnership(address newOwner) public virtual onlyOwner {\r\n        _transferOwnership(newOwner);\r\n    }\r\n\r\n    /**\r\n     * @dev Transfers ownership of the contract to a new account (`newOwner`).\r\n     */\r\n    function _transferOwnership(address newOwner) internal virtual {\r\n        require(newOwner != address(0), \"Ownable: new owner is the zero address\");\r\n        emit OwnershipTransferred(_owner, newOwner);\r\n        _owner = newOwner;\r\n    }\r\n}\r\n\r\n/**\r\n * @dev Contract module which allows children to implement an emergency stop\r\n * mechanism that can be triggered by an authorized account.\r\n *\r\n * This module is used through inheritance. It will make available the\r\n * modifiers `whenNotPaused` and `whenPaused`, which can be applied to\r\n * the functions of your contract. Note that they will not be pausable by\r\n * simply including this module, only once the modifiers are put in place.\r\n */\r\ncontract Pausable is Context {\r\n    /**\r\n     * @dev Emitted when the pause is triggered by a pauser (`account`).\r\n     */\r\n    event Paused(address account);\r\n\r\n    /**\r\n     * @dev Emitted when the pause is lifted by a pauser (`account`).\r\n     */\r\n    event Unpaused(address account);\r\n\r\n    bool private _paused;\r\n\r\n    /**\r\n     * @dev Initializes the contract in unpaused state. Assigns the Pauser role\r\n     * to the deployer.\r\n     */\r\n    constructor () internal {\r\n        _paused = false;\r\n    }\r\n\r\n    /**\r\n     * @dev Returns true if the contract is paused, and false otherwise.\r\n     */\r\n    function paused() public view returns (bool) {\r\n        return _paused;\r\n    }\r\n\r\n    /**\r\n     * @dev Modifier to make a function callable only when the contract is not paused.\r\n     */\r\n    modifier whenNotPaused() {\r\n        require(!_paused, \"Pausable: paused\");\r\n        _;\r\n    }\r\n\r\n    /**\r\n     * @dev Modifier to make a function callable only when the contract is paused.\r\n     */\r\n    modifier whenPaused() {\r\n        require(_paused, \"Pausable: not paused\");\r\n        _;\r\n    }\r\n\r\n    /**\r\n     * @dev Called by a pauser to pause, triggers stopped state.\r\n     */\r\n    function _pause() internal virtual whenNotPaused {\r\n        _paused = true;\r\n        emit Paused(_msgSender());\r\n    }\r\n\r\n    /**\r\n     * @dev Called by a pauser to unpause, returns to normal state.\r\n     */\r\n    function _unpause() internal virtual whenPaused {\r\n        _paused = false;\r\n        emit Unpaused(_msgSender());\r\n    }\r\n}\r\n\r\n/**\r\n * @dev Interface of the ERC165 standard, as defined in the\r\n * https://eips.ethereum.org/EIPS/eip-165[EIP].\r\n *\r\n * Implementers can declare support of contract interfaces, which can then be\r\n * queried by others ({ERC165Checker}).\r\n *\r\n * For an implementation, see {ERC165}.\r\n */\r\ninterface IERC165 {\r\n    /**\r\n     * @dev Returns true if this contract implements the interface defined by\r\n     * `interfaceId`. See the corresponding\r\n     * https://eips.ethereum.org/EIPS/eip-165#how-interfaces-are-identified[EIP section]\r\n     * to learn more about how these ids are created.\r\n     *\r\n     * This function call must use less than 30 000 gas.\r\n     */\r\n    function supportsInterface(bytes4 interfaceId) external view returns (bool);\r\n}\r\n\r\n/**\r\n * @dev Implementation of the {IERC165} interface.\r\n *\r\n * Contracts may inherit from this and call {_registerInterface} to declare\r\n * their support of an interface.\r\n */\r\ncontract ERC165 is IERC165 {\r\n    /*\r\n     * bytes4(keccak256('supportsInterface(bytes4)')) == 0x01ffc9a7\r\n     */\r\n    bytes4 private constant _INTERFACE_ID_ERC165 = 0x01ffc9a7;\r\n\r\n    /**\r\n     * @dev Mapping of interface ids to whether or not it's supported.\r\n     */\r\n    mapping(bytes4 => bool) private _supportedInterfaces;\r\n\r\n    constructor () internal {\r\n        // Derived contracts need only register support for their own interfaces,\r\n        // we register support for ERC165 itself here\r\n        _registerInterface(_INTERFACE_ID_ERC165);\r\n    }\r\n\r\n    /**\r\n     * @dev See {IERC165-supportsInterface}.\r\n     *\r\n     * Time complexity O(1), guaranteed to always use less than 30 000 gas.\r\n     */\r\n    function supportsInterface(bytes4 interfaceId) external view override returns (bool) {\r\n        return _supportedInterfaces[interfaceId];\r\n    }\r\n\r\n    /**\r\n     * @dev Registers the contract as an implementer of the interface defined by\r\n     * `interfaceId`. Support of the actual ERC165 interface is automatic and\r\n     * registering its interface id is not required.\r\n     *\r\n     * See {IERC165-supportsInterface}.\r\n     *\r\n     * Requirements:\r\n     *\r\n     * - `interfaceId` cannot be the ERC165 invalid interface (`0xffffffff`).\r\n     */\r\n    function _registerInterface(bytes4 interfaceId) internal virtual {\r\n        require(interfaceId != 0xffffffff, \"ERC165: invalid interface id\");\r\n        _supportedInterfaces[interfaceId] = true;\r\n    }\r\n}\r\n\r\n/**\r\n * @dev Required interface of an ERC721 compliant contract.\r\n */\r\ninterface IERC721 is IERC165 {\r\n    event Transfer(address indexed from, address indexed to, uint256 indexed tokenId);\r\n    event Approval(address indexed owner, address indexed approved, uint256 indexed tokenId);\r\n    event ApprovalForAll(address indexed owner, address indexed operator, bool approved);\r\n\r\n    /**\r\n     * @dev Returns the number of NFTs in `owner`'s account.\r\n     */\r\n    function balanceOf(address owner) external view returns (uint256 balance);\r\n\r\n    /**\r\n     * @dev Returns the owner of the NFT specified by `tokenId`.\r\n     */\r\n    function ownerOf(uint256 tokenId) external view returns (address owner);\r\n\r\n    /**\r\n     * @dev Transfers a specific NFT (`tokenId`) from one account (`from`) to\r\n     * another (`to`).\r\n     *\r\n     *\r\n     *\r\n     * Requirements:\r\n     * - `from`, `to` cannot be zero.\r\n     * - `tokenId` must be owned by `from`.\r\n     * - If the caller is not `from`, it must be have been allowed to move this\r\n     * NFT by either {approve} or {setApprovalForAll}.\r\n     */\r\n    function safeTransferFrom(address from, address to, uint256 tokenId) external;\r\n    /**\r\n     * @dev Transfers a specific NFT (`tokenId`) from one account (`from`) to\r\n     * another (`to`).\r\n     *\r\n     * Requirements:\r\n     * - If the caller is not `from`, it must be approved to move this NFT by\r\n     * either {approve} or {setApprovalForAll}.\r\n     */\r\n    function transferFrom(address from, address to, uint256 tokenId) external;\r\n    function approve(address to, uint256 tokenId) external;\r\n    function getApproved(uint256 tokenId) external view returns (address operator);\r\n\r\n    function setApprovalForAll(address operator, bool _approved) external;\r\n    function isApprovedForAll(address owner, address operator) external view returns (bool);\r\n\r\n\r\n    function safeTransferFrom(address from, address to, uint256 tokenId, bytes calldata data) external;\r\n}\r\n\r\n/**\r\n * @title ERC721 token receiver interface\r\n * @dev Interface for any contract that wants to support safeTransfers\r\n * from ERC721 asset contracts.\r\n */\r\nabstract contract IERC721Receiver {\r\n    /**\r\n     * @notice Handle the receipt of an NFT\r\n     * @dev The ERC721 smart contract calls this function on the recipient\r\n     * after a {IERC721-safeTransferFrom}. This function MUST return the function selector,\r\n     * otherwise the caller will revert the transaction. The selector to be\r\n     * returned can be obtained as `this.onERC721Received.selector`. This\r\n     * function MAY throw to revert and reject the transfer.\r\n     * Note: the ERC721 contract address is always the message sender.\r\n     * @param operator The address which called `safeTransferFrom` function\r\n     * @param from The address which previously owned the token\r\n     * @param tokenId The NFT identifier which is being transferred\r\n     * @param data Additional data with no specified format\r\n     * @return bytes4 `bytes4(keccak256(\"onERC721Received(address,address,uint256,bytes)\"))`\r\n     */\r\n    function onERC721Received(address operator, address from, uint256 tokenId, bytes memory data)\r\n    public virtual returns (bytes4);\r\n}\r\n\r\ncontract ERC721Holder is IERC721Receiver {\r\n    function onERC721Received(address, address, uint256, bytes memory) public virtual override returns (bytes4) {\r\n        return this.onERC721Received.selector;\r\n    }\r\n}\r\n\r\n/**\r\n * @dev Interface of the ERC20 standard as defined in the EIP. Does not include\r\n * the optional functions; to access them see {ERC20Detailed}.\r\n */\r\ninterface IERC20 {\r\n    /**\r\n     * @dev Returns the amount of tokens in existence.\r\n     */\r\n    function totalSupply() external view returns (uint256);\r\n\r\n    /**\r\n     * @dev Returns the amount of tokens owned by `account`.\r\n     */\r\n    function balanceOf(address account) external view returns (uint256);\r\n\r\n    /**\r\n     * @dev Moves `amount` tokens from the caller's account to `recipient`.\r\n     *\r\n     * Returns a boolean value indicating whether the operation succeeded.\r\n     *\r\n     * Emits a {Transfer} event.\r\n     */\r\n    function transfer(address recipient, uint256 amount) external returns (bool);\r\n\r\n    /**\r\n     * @dev Returns the remaining number of tokens that `spender` will be\r\n     * allowed to spend on behalf of `owner` through {transferFrom}. This is\r\n     * zero by default.\r\n     *\r\n     * This value changes when {approve} or {transferFrom} are called.\r\n     */\r\n    function allowance(address owner, address spender) external view returns (uint256);\r\n\r\n    /**\r\n     * @dev Sets `amount` as the allowance of `spender` over the caller's tokens.\r\n     *\r\n     * Returns a boolean value indicating whether the operation succeeded.\r\n     *\r\n     * IMPORTANT: Beware that changing an allowance with this method brings the risk\r\n     * that someone may use both the old and the new allowance by unfortunate\r\n     * transaction ordering. One possible solution to mitigate this race\r\n     * condition is to first reduce the spender's allowance to 0 and set the\r\n     * desired value afterwards:\r\n     * https://github.com/ethereum/EIPs/issues/20#issuecomment-263524729\r\n     *\r\n     * Emits an {Approval} event.\r\n     */\r\n    function approve(address spender, uint256 amount) external returns (bool);\r\n\r\n    /**\r\n     * @dev Moves `amount` tokens from `sender` to `recipient` using the\r\n     * allowance mechanism. `amount` is then deducted from the caller's\r\n     * allowance.\r\n     *\r\n     * Returns a boolean value indicating whether the operation succeeded.\r\n     *\r\n     * Emits a {Transfer} event.\r\n     */\r\n    function transferFrom(address sender, address recipient, uint256 amount) external returns (bool);\r\n\r\n    /**\r\n     * @dev Emitted when `value` tokens are moved from one account (`from`) to\r\n     * another (`to`).\r\n     *\r\n     * Note that `value` may be zero.\r\n     */\r\n    event Transfer(address indexed from, address indexed to, uint256 value);\r\n\r\n    /**\r\n     * @dev Emitted when the allowance of a `spender` for an `owner` is set by\r\n     * a call to {approve}. `value` is the new allowance.\r\n     */\r\n    event Approval(address indexed owner, address indexed spender, uint256 value);\r\n}\r\n\r\n/**\r\n * @dev Implementation of the {IERC20} interface.\r\n *\r\n * This implementation is agnostic to the way tokens are created. This means\r\n * that a supply mechanism has to be added in a derived contract using {_mint}.\r\n * For a generic mechanism see {ERC20Mintable}.\r\n *\r\n * TIP: For a detailed writeup see our guide\r\n * https://forum.zeppelin.solutions/t/how-to-implement-erc20-supply-mechanisms/226[How\r\n * to implement supply mechanisms].\r\n *\r\n * We have followed general OpenZeppelin guidelines: functions revert instead\r\n * of returning `false` on failure. This behavior is nonetheless conventional\r\n * and does not conflict with the expectations of ERC20 applications.\r\n *\r\n * Additionally, an {Approval} event is emitted on calls to {transferFrom}.\r\n * This allows applications to reconstruct the allowance for all accounts just\r\n * by listening to said events. Other implementations of the EIP may not emit\r\n * these events, as it isn't required by the specification.\r\n *\r\n * Finally, the non-standard {decreaseAllowance} and {increaseAllowance}\r\n * functions have been added to mitigate the well-known issues around setting\r\n * allowances. See {IERC20-approve}.\r\n */\r\ncontract ERC20 is Context, IERC20 {\r\n    using SafeMath for uint256;\r\n\r\n    mapping (address => uint256) private _balances;\r\n\r\n    mapping (address => mapping (address => uint256)) private _allowances;\r\n\r\n    uint256 private _totalSupply;\r\n\r\n    /**\r\n     * @dev See {IERC20-totalSupply}.\r\n     */\r\n    function totalSupply() public view override returns (uint256) {\r\n        return _totalSupply;\r\n    }\r\n\r\n    /**\r\n     * @dev See {IERC20-balanceOf}.\r\n     */\r\n    function balanceOf(address account) public view override returns (uint256) {\r\n        return _balances[account];\r\n    }\r\n\r\n    /**\r\n     * @dev See {IERC20-transfer}.\r\n     *\r\n     * Requirements:\r\n     *\r\n     * - `recipient` cannot be the zero address.\r\n     * - the caller must have a balance of at least `amount`.\r\n     */\r\n    function transfer(address recipient, uint256 amount) public virtual override returns (bool) {\r\n        _transfer(_msgSender(), recipient, amount);\r\n        return true;\r\n    }\r\n\r\n    /**\r\n     * @dev See {IERC20-allowance}.\r\n     */\r\n    function allowance(address owner, address spender) public view virtual override returns (uint256) {\r\n        return _allowances[owner][spender];\r\n    }\r\n\r\n    /**\r\n     * @dev See {IERC20-approve}.\r\n     *\r\n     * Requirements:\r\n     *\r\n     * - `spender` cannot be the zero address.\r\n     */\r\n    function approve(address spender, uint256 amount) public virtual override returns (bool) {\r\n        _approve(_msgSender(), spender, amount);\r\n        return true;\r\n    }\r\n\r\n    /**\r\n     * @dev See {IERC20-transferFrom}.\r\n     *\r\n     * Emits an {Approval} event indicating the updated allowance. This is not\r\n     * required by the EIP. See the note at the beginning of {ERC20};\r\n     *\r\n     * Requirements:\r\n     * - `sender` and `recipient` cannot be the zero address.\r\n     * - `sender` must have a balance of at least `amount`.\r\n     * - the caller must have allowance for `sender`'s tokens of at least\r\n     * `amount`.\r\n     */\r\n    function transferFrom(address sender, address recipient, uint256 amount) public virtual override returns (bool) {\r\n        _transfer(sender, recipient, amount);\r\n        _approve(sender, _msgSender(), _allowances[sender][_msgSender()].sub(amount, \"ERC20: transfer amount exceeds allowance\"));\r\n        return true;\r\n    }\r\n\r\n    /**\r\n     * @dev Atomically increases the allowance granted to `spender` by the caller.\r\n     *\r\n     * This is an alternative to {approve} that can be used as a mitigation for\r\n     * problems described in {IERC20-approve}.\r\n     *\r\n     * Emits an {Approval} event indicating the updated allowance.\r\n     *\r\n     * Requirements:\r\n     *\r\n     * - `spender` cannot be the zero address.\r\n     */\r\n    function increaseAllowance(address spender, uint256 addedValue) public virtual returns (bool) {\r\n        _approve(_msgSender(), spender, _allowances[_msgSender()][spender].add(addedValue));\r\n        return true;\r\n    }\r\n\r\n    /**\r\n     * @dev Atomically decreases the allowance granted to `spender` by the caller.\r\n     *\r\n     * This is an alternative to {approve} that can be used as a mitigation for\r\n     * problems described in {IERC20-approve}.\r\n     *\r\n     * Emits an {Approval} event indicating the updated allowance.\r\n     *\r\n     * Requirements:\r\n     *\r\n     * - `spender` cannot be the zero address.\r\n     * - `spender` must have allowance for the caller of at least\r\n     * `subtractedValue`.\r\n     */\r\n    function decreaseAllowance(address spender, uint256 subtractedValue) public virtual returns (bool) {\r\n        _approve(_msgSender(), spender, _allowances[_msgSender()][spender].sub(subtractedValue, \"ERC20: decreased allowance below zero\"));\r\n        return true;\r\n    }\r\n\r\n    /**\r\n     * @dev Moves tokens `amount` from `sender` to `recipient`.\r\n     *\r\n     * This is internal function is equivalent to {transfer}, and can be used to\r\n     * e.g. implement automatic token fees, slashing mechanisms, etc.\r\n     *\r\n     * Emits a {Transfer} event.\r\n     *\r\n     * Requirements:\r\n     *\r\n     * - `sender` cannot be the zero address.\r\n     * - `recipient` cannot be the zero address.\r\n     * - `sender` must have a balance of at least `amount`.\r\n     */\r\n    function _transfer(address sender, address recipient, uint256 amount) internal virtual {\r\n        require(sender != address(0), \"ERC20: transfer from the zero address\");\r\n        require(recipient != address(0), \"ERC20: transfer to the zero address\");\r\n\r\n        _beforeTokenTransfer(sender, recipient, amount);\r\n\r\n        _balances[sender] = _balances[sender].sub(amount, \"ERC20: transfer amount exceeds balance\");\r\n        _balances[recipient] = _balances[recipient].add(amount);\r\n        emit Transfer(sender, recipient, amount);\r\n    }\r\n\r\n    /** @dev Creates `amount` tokens and assigns them to `account`, increasing\r\n     * the total supply.\r\n     *\r\n     * Emits a {Transfer} event with `from` set to the zero address.\r\n     *\r\n     * Requirements\r\n     *\r\n     * - `to` cannot be the zero address.\r\n     */\r\n    function _mint(address account, uint256 amount) internal virtual {\r\n        require(account != address(0), \"ERC20: mint to the zero address\");\r\n\r\n        _beforeTokenTransfer(address(0), account, amount);\r\n\r\n        _totalSupply = _totalSupply.add(amount);\r\n        _balances[account] = _balances[account].add(amount);\r\n        emit Transfer(address(0), account, amount);\r\n    }\r\n\r\n    /**\r\n     * @dev Destroys `amount` tokens from `account`, reducing the\r\n     * total supply.\r\n     *\r\n     * Emits a {Transfer} event with `to` set to the zero address.\r\n     *\r\n     * Requirements\r\n     *\r\n     * - `account` cannot be the zero address.\r\n     * - `account` must have at least `amount` tokens.\r\n     */\r\n    function _burn(address account, uint256 amount) internal virtual {\r\n        require(account != address(0), \"ERC20: burn from the zero address\");\r\n\r\n        _beforeTokenTransfer(account, address(0), amount);\r\n\r\n        _balances[account] = _balances[account].sub(amount, \"ERC20: burn amount exceeds balance\");\r\n        _totalSupply = _totalSupply.sub(amount);\r\n        emit Transfer(account, address(0), amount);\r\n    }\r\n\r\n    /**\r\n     * @dev Sets `amount` as the allowance of `spender` over the `owner`s tokens.\r\n     *\r\n     * This is internal function is equivalent to `approve`, and can be used to\r\n     * e.g. set automatic allowances for certain subsystems, etc.\r\n     *\r\n     * Emits an {Approval} event.\r\n     *\r\n     * Requirements:\r\n     *\r\n     * - `owner` cannot be the zero address.\r\n     * - `spender` cannot be the zero address.\r\n     */\r\n    function _approve(address owner, address spender, uint256 amount) internal virtual {\r\n        require(owner != address(0), \"ERC20: approve from the zero address\");\r\n        require(spender != address(0), \"ERC20: approve to the zero address\");\r\n\r\n        _allowances[owner][spender] = amount;\r\n        emit Approval(owner, spender, amount);\r\n    }\r\n\r\n    /**\r\n     * @dev Hook that is called before any transfer of tokens. This includes\r\n     * minting and burning.\r\n     *\r\n     * Calling conditions:\r\n     *\r\n     * - when `from` and `to` are both non-zero, `amount` of `from`'s tokens\r\n     * will be to transferred to `to`.\r\n     * - when `from` is zero, `amount` tokens will be minted for `to`.\r\n     * - when `to` is zero, `amount` of `from`'s tokens will be burned.\r\n     * - `from` and `to` are never both zero.\r\n     *\r\n     * To learn more about hooks, head to xref:ROOT:using-hooks.adoc[Using Hooks].\r\n     */\r\n    function _beforeTokenTransfer(address from, address to, uint256 amount) internal virtual { }\r\n}\r\n\r\n/**\r\n * @dev Optional functions from the ERC20 standard.\r\n */\r\nabstract contract ERC20Detailed is IERC20 {\r\n    string private _name;\r\n    string private _symbol;\r\n    uint8 private _decimals;\r\n\r\n    /**\r\n     * @dev Sets the values for `name`, `symbol`, and `decimals`. All three of\r\n     * these values are immutable: they can only be set once during\r\n     * construction.\r\n     */\r\n    constructor (string memory name, string memory symbol, uint8 decimals) public {\r\n        _name = name;\r\n        _symbol = symbol;\r\n        _decimals = decimals;\r\n    }\r\n\r\n    /**\r\n     * @dev Returns the name of the token.\r\n     */\r\n    function name() public view returns (string memory) {\r\n        return _name;\r\n    }\r\n\r\n    /**\r\n     * @dev Returns the symbol of the token, usually a shorter version of the\r\n     * name.\r\n     */\r\n    function symbol() public view returns (string memory) {\r\n        return _symbol;\r\n    }\r\n\r\n    /**\r\n     * @dev Returns the number of decimals used to get its user representation.\r\n     * For example, if `decimals` equals `2`, a balance of `505` tokens should\r\n     * be displayed to a user as `5,05` (`505 / 10 ** 2`).\r\n     *\r\n     * Tokens usually opt for a value of 18, imitating the relationship between\r\n     * Ether and Wei.\r\n     *\r\n     * NOTE: This information is only used for _display_ purposes: it in\r\n     * no way affects any of the arithmetic of the contract, including\r\n     * {IERC20-balanceOf} and {IERC20-transfer}.\r\n     */\r\n    function decimals() public view returns (uint8) {\r\n        return _decimals;\r\n    }\r\n}\r\n\r\nabstract contract IPrime {\r\n    function createPrime(\r\n        uint256 qUnderlying,\r\n        address aUnderlying,\r\n        uint256 qStrike,\r\n        address aStrike,\r\n        uint256 tExpiry,\r\n        address receiver\r\n    ) external virtual returns (uint256 _tokenId);\r\n    function exercise(uint256 tokenId) external payable virtual returns (bool);\r\n    function close(uint256 tokenToClose, uint256 tokenToBurn) external virtual returns (bool);\r\n    function withdraw(uint256 amount, address asset) public virtual returns (bool);\r\n    function safeTransferFrom(address from, address to, uint256 tokenId) external virtual;\r\n    function isGreaterThanOrEqual(uint256 a, uint256 b) public pure virtual returns(bool);\r\n}\r\n\r\nabstract contract ICEther {\r\n    function mint() external payable virtual;\r\n    function redeem(uint redeemTokens) external virtual returns (uint);\r\n    function redeemUnderlying(uint redeemAmount) external virtual returns (uint);\r\n    function transfer(address dst, uint amount) external virtual returns (bool);\r\n    function transferFrom(address src, address dst, uint amount) external virtual returns (bool);\r\n    function approve(address spender, uint amount) external virtual returns (bool);\r\n    function allowance(address owner, address spender) external virtual view returns (uint);\r\n    function balanceOf(address owner) external virtual view returns (uint);\r\n    function balanceOfUnderlying(address owner) external virtual returns (uint);\r\n    function getAccountSnapshot(address account) external virtual view returns (uint, uint, uint, uint);\r\n    function borrowRatePerBlock() external virtual view returns (uint);\r\n    function supplyRatePerBlock() external virtual view returns (uint);\r\n    function totalBorrowsCurrent() external virtual returns (uint);\r\n    function borrowBalanceCurrent(address account) external virtual returns (uint);\r\n    function borrowBalanceStored(address account) public virtual view returns (uint);\r\n    function _exchangeRateCurrent() public virtual returns (uint);\r\n    function _exchangeRateStored() public virtual view returns (uint);\r\n    function getCash() external virtual view returns (uint);\r\n    function accrueInterest() public virtual returns (uint);\r\n    function seize(address liquidator, address borrower, uint seizeTokens) external virtual returns (uint);\r\n}\r\n\r\ncontract Pool is Ownable, Pausable, ReentrancyGuard, ERC721Holder, ERC20, ERC20Detailed {\r\n    using SafeMath for uint256;\r\n\r\n    /* Address of Prime ERC-721 */\r\n    address public _primeAddress;\r\n    address public _compoundEthAddress;\r\n    address public _exchangeAddress;\r\n\r\n    ICEther public _cEther;\r\n    IPrime public _prime;\r\n\r\n    /* Ether liability */\r\n    uint256 public _liability;\r\n\r\n    /* For testing */\r\n    uint256 public constant _premiumDenomination = 5; /* 20% = 0.2 = 1 / 5 */\r\n\r\n    event Deposit(uint256 deposit, address indexed user, uint256 minted);\r\n    event Withdraw(uint256 withdraw, address indexed user, uint256 burned);\r\n    event PoolMint(uint256 nonce, uint256 qUnderlying, uint256 qStrike, uint256 indexed tExpiry);\r\n    event Exercise(uint256 amount, uint256 qStrike);\r\n    event Close(uint256 amountClosed, address indexed user, uint256 burned);\r\n\r\n    constructor (\r\n        address primeAddress,\r\n        address compoundEthAddress,\r\n        address exchangeAddress\r\n    ) \r\n        public\r\n        ERC20Detailed(\r\n            \"Primitive Underlying Liquidity Provider\",\r\n            \"PULP\",\r\n            18\r\n        )\r\n    {\r\n        _primeAddress = primeAddress;\r\n        _exchangeAddress = exchangeAddress;\r\n        _prime = IPrime(primeAddress);\r\n        _cEther = ICEther(compoundEthAddress);\r\n        _compoundEthAddress = compoundEthAddress;\r\n    }\r\n\r\n    /* SET */\r\n    function setExchangeAddress(address exchangeAddress) external onlyOwner {\r\n        _exchangeAddress = exchangeAddress;\r\n    }\r\n\r\n    receive() external payable {}\r\n\r\n    /* CAPITAL INPUT / OUTPUT FUNCTIONS*/\r\n\r\n    /**\r\n     * @dev deposits funds to the liquidity pool\r\n     * @param amount amount of ether to deposit\r\n     * @return bool true if liquidity tokens were minted and ether deposit swapped to cETher\r\n     */\r\n    function deposit(\r\n        uint256 amount\r\n    )\r\n        external\r\n        payable\r\n        whenNotPaused\r\n        returns (bool)\r\n    {\r\n        /* CHECKS */\r\n        require(msg.value == amount, 'Deposit: Val < deposit');\r\n\r\n        /* EFFECTS */\r\n        uint256 totalSupply = totalSupply();\r\n        uint256 poolBalance = getPoolBalance();\r\n        uint256 amountToMint;\r\n        \r\n        if(poolBalance.mul(totalSupply) == 0) {\r\n            amountToMint = amount;\r\n        } else {\r\n            amountToMint = amount.mul(totalSupply).div(poolBalance);\r\n        }\r\n\r\n        /* INTERACTIONS */\r\n        emit Deposit(amount, msg.sender, amountToMint);\r\n        _mint(msg.sender, amountToMint);\r\n        return swapEtherToCompoundEther(amount);\r\n    }\r\n\r\n    /**\r\n     * @dev withdraw ether that is not utilized as collateral\r\n     * @notice withdrawing utilized collateral requires the debt to be paid using the close function\r\n     * @param amount amount of ether to withdraw\r\n     * @return bool true if liquidity tokens were burned, cEther was swapped to ether and sent\r\n     */\r\n    function withdraw(\r\n        uint256 amount\r\n    ) \r\n        public \r\n        nonReentrant \r\n        returns (bool)\r\n    {\r\n        /* CHECKS */\r\n        require(balanceOf(msg.sender) >= amount, 'Withdraw: Bal < withdraw');\r\n        require(getMaxBurnAmount() >= amount, 'Withdraw: max burn < amt');\r\n\r\n        /* EFFECTS */\r\n\r\n        /* INTERACTIONS */\r\n        _burn(msg.sender, amount);\r\n        emit Withdraw(etherToCEther(amount), msg.sender, amount);\r\n        return swapCEtherToEtherThenSend(amount, msg.sender);\r\n    }\r\n\r\n    /* GET BALANCE SHEET ITEMS */\r\n\r\n    /**\r\n     * @dev get ether balance of this contract\r\n     * @return uint256 balance of this contract in ether\r\n     */\r\n    function getPoolBalance() public returns(uint256) {\r\n        return _cEther.balanceOfUnderlying(address(this));\r\n    }\r\n    \r\n    /**\r\n     * @dev gets the total assets that are not being utilized as underlying assets in Primes\r\n     * @notice Net Assets = Pool Assets - Pool Liabilities\r\n     * @return pool amount of available assets\r\n     */\r\n    function getAvailableAssets() public returns (uint256) {\r\n        uint256 poolBalance = getPoolBalance();\r\n        if(_liability > poolBalance) {\r\n            return 0;\r\n        }\r\n        uint256 available = poolBalance.sub(_liability);\r\n        return available;\r\n    }\r\n\r\n    /**\r\n     * @dev returns Total Supply / Total Pool Assets\r\n     * @return pool returns 1 / Exchange Rate to use in LP token swaps\r\n     */\r\n    function totalSupplyDivTotalEther() public returns (uint256) {\r\n        if(totalSupply().mul(getPoolBalance()) == 0) {\r\n            return 1;\r\n        }\r\n        return totalSupply().div(getPoolBalance());\r\n    }\r\n\r\n    /**\r\n     * @dev tokens to burn to withdraw non-utilized pool assets\r\n     * @notice Max Burn = Net Assets * Total Supply / Total Pool Assets\r\n     * @return uint256 max amount of tokens that can be burned for ether\r\n     */\r\n    function getMaxBurnAmount() public returns (uint256) {\r\n        /* LP = (ET - L) * ST / ET where ST = Total Supply */\r\n        uint256 maxBurn = getAvailableAssets().mul(totalSupply()).div(getPoolBalance());\r\n        require(etherToCEther(maxBurn) <= getAvailableAssets(), 'Withdraw > net assets');\r\n        return maxBurn;\r\n    }\r\n\r\n    /**\r\n     * @dev returns the amount of ETH returned from swapped amount of Liquidity tokens\r\n     * @notice Ether = Amount * Total Pool Assets / Total Supply\r\n     * @return uint256 amount of cTokens proportional to parameter amount\r\n     */\r\n    function etherToCEther(uint256 amount) public returns (uint256) {\r\n        if(totalSupply().mul(getPoolBalance()) == 0) {\r\n            return amount;\r\n        }\r\n        return amount.mul(getPoolBalance()).div(totalSupply());\r\n    }\r\n\r\n    /* PRIME INTERACTION FUNCTIONS */\r\n\r\n    /**\r\n     * @dev user mints a Prime option from the pool\r\n     * @param qUnderlying amount of ether (in wei)\r\n     * @param qStrike amount of strike asset\r\n     * @param aStrike address of strike\r\n     * @param tExpiry timestamp of series expiration\r\n     * @param primeReceiver Address of Prime reciver\r\n     * @return bool whether or not the Prime is minted\r\n     */\r\n    function mintPrimeFromPool(\r\n        uint256 qUnderlying,\r\n        uint256 qStrike,\r\n        address aStrike,\r\n        uint256 tExpiry,\r\n        address payable primeReceiver\r\n    )\r\n        external\r\n        payable\r\n        whenNotPaused\r\n        returns (bool) \r\n    {\r\n        /* CHECKS */\r\n\r\n        /* Checks to see if the tx pays the premium - 20% constant right now */\r\n        require(msg.value >= qUnderlying.div(_premiumDenomination), 'Mint: Val < premium');\r\n        require(tExpiry > block.timestamp, 'Mint: expired');\r\n        require(getAvailableAssets() >= qUnderlying, 'Mint: available < amt');\r\n\r\n        /* EFFECTS */\r\n\r\n        /* Add the ether liability to the Pool */\r\n        _liability = _liability.add(qUnderlying);\r\n\r\n        /* INTERACTIONS */\r\n        uint256 nonce = _prime.createPrime(\r\n                qUnderlying,\r\n                address(this),\r\n                qStrike,\r\n                aStrike,\r\n                tExpiry,\r\n                address(this)\r\n            );\r\n\r\n        _prime.safeTransferFrom(address(this), primeReceiver, nonce);\r\n        emit PoolMint(nonce, qUnderlying, qStrike, tExpiry);\r\n        return swapEtherToCompoundEther(msg.value);\r\n    }\r\n\r\n    /**\r\n     * @dev Called ONLY from the Prime contract\r\n     * @param qUnderlying amount of collateral\r\n     * @param qStrike amount of strike\r\n     * @param aStrike address of strike\r\n     */\r\n    function exercise(\r\n        uint256 qUnderlying,\r\n        uint256 qStrike,\r\n        address aStrike\r\n    )\r\n        external\r\n        payable\r\n        whenNotPaused\r\n        returns (bool) \r\n    {\r\n        /* CHECKS */\r\n        require(msg.sender == _primeAddress);\r\n        require(getPoolBalance() >= qUnderlying, 'Swap: ether < collat'); \r\n\r\n        /* EFFECTS */\r\n        _liability = _liability.sub(qUnderlying);\r\n        \r\n        /* INTERACTIONS */\r\n        uint256 redeemResult = _cEther.redeemUnderlying(qUnderlying);\r\n        require(redeemResult == 0, 'Swap: redeem != 0');\r\n\r\n        sendEther(qUnderlying, msg.sender);\r\n        emit Exercise(qUnderlying, qStrike);\r\n        return _prime.withdraw(qStrike, aStrike);\r\n    }\r\n\r\n    /**\r\n     * @dev buy debt, withdraw capital\r\n     * @notice user must purchase option and sell to pool, i.e. burn liability (Prime Token)\r\n     * @param amount size of position to close and withdraw in ether\r\n     * @return bool if the transaction suceeds\r\n     */\r\n    function closePosition(uint256 amount) external payable returns (bool) {\r\n        /* CHECKS */\r\n        uint256 userEthBal = balanceOf(msg.sender);\r\n        require(userEthBal >= amount, 'Close: Eth Bal < amt');\r\n\r\n        uint256 poolBalance = getPoolBalance();\r\n        uint256 debt = amount.mul(_liability).div(poolBalance);\r\n        require(msg.value >= debt, 'Close: Value < debt');\r\n\r\n        /* EFFECTS */\r\n        uint256 refundEther = msg.value.sub(debt);\r\n\r\n        /* INTERACTIONS */\r\n        _burn(msg.sender, amount);\r\n        uint256 amountInCEther = etherToCEther(amount.add(refundEther));\r\n        emit Close(amountInCEther, msg.sender, amount);\r\n        return swapCEtherToEtherThenSend(amountInCEther, msg.sender);\r\n    }\r\n\r\n\r\n    /* CAPITAL MANAGEMENT FUNCTIONS */\r\n\r\n    /**\r\n     @dev function to send ether with the most security\r\n     */\r\n    function sendEther(uint256 amount, address payable user) internal returns (bool) {\r\n        (bool success, ) = user.call.value(amount)(\"\");\r\n        require(success, \"Send ether fail\");\r\n        return success;\r\n    }\r\n\r\n    /* COMPOUND INTERFACE FUNCTIONS */\r\n\r\n    /**\r\n     @dev converts ether to interest bearing cEther (Compound Protocol)\r\n     @param amount ether that will be swapped to cEther\r\n     */\r\n    function swapEtherToCompoundEther(uint256 amount) internal returns (bool) {\r\n        _cEther.mint.value(amount).gas(250000)();\r\n        return true;\r\n    }\r\n\r\n    /**\r\n     @dev converts cEther back into Ether\r\n     @param amount ether that will be swapped to cEther\r\n     */\r\n    function swapCEtherToEtherThenSend(uint256 amount, address payable user) internal returns (bool) {\r\n        uint256 redeemResult = _cEther.redeemUnderlying(amount);\r\n        require(redeemResult == 0, 'redeem != 0');\r\n        (bool success, ) = user.call.value(amount)(\"\");\r\n        require(success, 'Transfer fail.');\r\n        return success;\r\n    }\r\n}\r\n\r\n    ",
  "sourcePath": "C:\\Users\\alexa\\OneDrive\\Documents\\Master\\Blockchain\\Projects\\carbon\\contracts\\ERC721\\Pool.sol",
  "compiler": {
    "name": "solc",
    "version": "0.6.2+commit.bacdbe57.Emscripten.clang"
  },
  "schemaVersion": "3.0.23",
  "updatedAt": "2020-04-14T03:36:06.689Z",
  "devdoc": {
    "methods": {
      "allowance(address,address)": {
        "details": "See {IERC20-allowance}."
      },
      "approve(address,uint256)": {
        "details": "See {IERC20-approve}.      * Requirements:      * - `spender` cannot be the zero address."
      },
      "balanceOf(address)": {
        "details": "See {IERC20-balanceOf}."
      },
      "closePosition(uint256)": {
        "details": "buy debt, withdraw capital",
        "params": {
          "amount": "size of position to close and withdraw in ether"
        },
        "returns": {
          "_0": "bool if the transaction suceeds"
        }
      },
      "decimals()": {
        "details": "Returns the number of decimals used to get its user representation. For example, if `decimals` equals `2`, a balance of `505` tokens should be displayed to a user as `5,05` (`505 / 10 ** 2`).      * Tokens usually opt for a value of 18, imitating the relationship between Ether and Wei.      * NOTE: This information is only used for _display_ purposes: it in no way affects any of the arithmetic of the contract, including {IERC20-balanceOf} and {IERC20-transfer}."
      },
      "decreaseAllowance(address,uint256)": {
        "details": "Atomically decreases the allowance granted to `spender` by the caller.      * This is an alternative to {approve} that can be used as a mitigation for problems described in {IERC20-approve}.      * Emits an {Approval} event indicating the updated allowance.      * Requirements:      * - `spender` cannot be the zero address. - `spender` must have allowance for the caller of at least `subtractedValue`."
      },
      "deposit(uint256)": {
        "details": "deposits funds to the liquidity pool",
        "params": {
          "amount": "amount of ether to deposit"
        },
        "returns": {
          "_0": "bool true if liquidity tokens were minted and ether deposit swapped to cETher"
        }
      },
      "etherToCEther(uint256)": {
        "details": "returns the amount of ETH returned from swapped amount of Liquidity tokens",
        "returns": {
          "_0": "uint256 amount of cTokens proportional to parameter amount"
        }
      },
      "exercise(uint256,uint256,address)": {
        "details": "Called ONLY from the Prime contract",
        "params": {
          "aStrike": "address of strike",
          "qStrike": "amount of strike",
          "qUnderlying": "amount of collateral"
        }
      },
      "getAvailableAssets()": {
        "details": "gets the total assets that are not being utilized as underlying assets in Primes",
        "returns": {
          "_0": "pool amount of available assets"
        }
      },
      "getMaxBurnAmount()": {
        "details": "tokens to burn to withdraw non-utilized pool assets",
        "returns": {
          "_0": "uint256 max amount of tokens that can be burned for ether"
        }
      },
      "getPoolBalance()": {
        "details": "get ether balance of this contract",
        "returns": {
          "_0": "uint256 balance of this contract in ether"
        }
      },
      "increaseAllowance(address,uint256)": {
        "details": "Atomically increases the allowance granted to `spender` by the caller.      * This is an alternative to {approve} that can be used as a mitigation for problems described in {IERC20-approve}.      * Emits an {Approval} event indicating the updated allowance.      * Requirements:      * - `spender` cannot be the zero address."
      },
      "mintPrimeFromPool(uint256,uint256,address,uint256,address)": {
        "details": "user mints a Prime option from the pool",
        "params": {
          "aStrike": "address of strike",
          "primeReceiver": "Address of Prime reciver",
          "qStrike": "amount of strike asset",
          "qUnderlying": "amount of ether (in wei)",
          "tExpiry": "timestamp of series expiration"
        },
        "returns": {
          "_0": "bool whether or not the Prime is minted"
        }
      },
      "name()": {
        "details": "Returns the name of the token."
      },
      "owner()": {
        "details": "Returns the address of the current owner."
      },
      "paused()": {
        "details": "Returns true if the contract is paused, and false otherwise."
      },
      "renounceOwnership()": {
        "details": "Leaves the contract without owner. It will not be possible to call `onlyOwner` functions anymore. Can only be called by the current owner.      * NOTE: Renouncing ownership will leave the contract without an owner, thereby removing any functionality that is only available to the owner."
      },
      "symbol()": {
        "details": "Returns the symbol of the token, usually a shorter version of the name."
      },
      "totalSupply()": {
        "details": "See {IERC20-totalSupply}."
      },
      "totalSupplyDivTotalEther()": {
        "details": "returns Total Supply / Total Pool Assets",
        "returns": {
          "_0": "pool returns 1 / Exchange Rate to use in LP token swaps"
        }
      },
      "transfer(address,uint256)": {
        "details": "See {IERC20-transfer}.      * Requirements:      * - `recipient` cannot be the zero address. - the caller must have a balance of at least `amount`."
      },
      "transferFrom(address,address,uint256)": {
        "details": "See {IERC20-transferFrom}.      * Emits an {Approval} event indicating the updated allowance. This is not required by the EIP. See the note at the beginning of {ERC20};      * Requirements: - `sender` and `recipient` cannot be the zero address. - `sender` must have a balance of at least `amount`. - the caller must have allowance for `sender`'s tokens of at least `amount`."
      },
      "transferOwnership(address)": {
        "details": "Transfers ownership of the contract to a new account (`newOwner`). Can only be called by the current owner."
      },
      "withdraw(uint256)": {
        "details": "withdraw ether that is not utilized as collateral",
        "params": {
          "amount": "amount of ether to withdraw"
        },
        "returns": {
          "_0": "bool true if liquidity tokens were burned, cEther was swapped to ether and sent"
        }
      }
    }
  },
  "userdoc": {
    "methods": {
      "closePosition(uint256)": {
        "notice": "user must purchase option and sell to pool, i.e. burn liability (Prime Token)"
      },
      "etherToCEther(uint256)": {
        "notice": "Ether = Amount * Total Pool Assets / Total Supply"
      },
      "getAvailableAssets()": {
        "notice": "Net Assets = Pool Assets - Pool Liabilities"
      },
      "getMaxBurnAmount()": {
        "notice": "Max Burn = Net Assets * Total Supply / Total Pool Assets"
      },
      "withdraw(uint256)": {
        "notice": "withdrawing utilized collateral requires the debt to be paid using the close function"
      }
    }
  }
}