{
  "contractName": "PoolERC20",
  "abi": [
    {
      "inputs": [
        {
          "internalType": "address",
          "name": "primeAddress",
          "type": "address"
        },
        {
          "internalType": "address",
          "name": "compoundEthAddress",
          "type": "address"
        },
        {
          "internalType": "address",
          "name": "exchangeAddress",
          "type": "address"
        }
      ],
      "stateMutability": "nonpayable",
      "type": "constructor"
    },
    {
      "anonymous": false,
      "inputs": [
        {
          "indexed": true,
          "internalType": "address",
          "name": "owner",
          "type": "address"
        },
        {
          "indexed": true,
          "internalType": "address",
          "name": "spender",
          "type": "address"
        },
        {
          "indexed": false,
          "internalType": "uint256",
          "name": "value",
          "type": "uint256"
        }
      ],
      "name": "Approval",
      "type": "event"
    },
    {
      "anonymous": false,
      "inputs": [
        {
          "indexed": false,
          "internalType": "uint256",
          "name": "amountClosed",
          "type": "uint256"
        },
        {
          "indexed": true,
          "internalType": "address",
          "name": "user",
          "type": "address"
        },
        {
          "indexed": false,
          "internalType": "uint256",
          "name": "burned",
          "type": "uint256"
        }
      ],
      "name": "Close",
      "type": "event"
    },
    {
      "anonymous": false,
      "inputs": [
        {
          "indexed": false,
          "internalType": "uint256",
          "name": "deposit",
          "type": "uint256"
        },
        {
          "indexed": true,
          "internalType": "address",
          "name": "user",
          "type": "address"
        },
        {
          "indexed": false,
          "internalType": "uint256",
          "name": "minted",
          "type": "uint256"
        }
      ],
      "name": "Deposit",
      "type": "event"
    },
    {
      "anonymous": false,
      "inputs": [
        {
          "indexed": false,
          "internalType": "uint256",
          "name": "amount",
          "type": "uint256"
        },
        {
          "indexed": false,
          "internalType": "uint256",
          "name": "qStrike",
          "type": "uint256"
        }
      ],
      "name": "Exercise",
      "type": "event"
    },
    {
      "anonymous": false,
      "inputs": [
        {
          "indexed": true,
          "internalType": "address",
          "name": "previousOwner",
          "type": "address"
        },
        {
          "indexed": true,
          "internalType": "address",
          "name": "newOwner",
          "type": "address"
        }
      ],
      "name": "OwnershipTransferred",
      "type": "event"
    },
    {
      "anonymous": false,
      "inputs": [
        {
          "indexed": false,
          "internalType": "address",
          "name": "account",
          "type": "address"
        }
      ],
      "name": "Paused",
      "type": "event"
    },
    {
      "anonymous": false,
      "inputs": [
        {
          "indexed": false,
          "internalType": "uint256",
          "name": "nonce",
          "type": "uint256"
        },
        {
          "indexed": false,
          "internalType": "uint256",
          "name": "qUnderlying",
          "type": "uint256"
        },
        {
          "indexed": false,
          "internalType": "uint256",
          "name": "qStrike",
          "type": "uint256"
        },
        {
          "indexed": true,
          "internalType": "uint256",
          "name": "tExpiry",
          "type": "uint256"
        }
      ],
      "name": "PoolMint",
      "type": "event"
    },
    {
      "anonymous": false,
      "inputs": [
        {
          "indexed": true,
          "internalType": "address",
          "name": "from",
          "type": "address"
        },
        {
          "indexed": true,
          "internalType": "address",
          "name": "to",
          "type": "address"
        },
        {
          "indexed": false,
          "internalType": "uint256",
          "name": "value",
          "type": "uint256"
        }
      ],
      "name": "Transfer",
      "type": "event"
    },
    {
      "anonymous": false,
      "inputs": [
        {
          "indexed": false,
          "internalType": "address",
          "name": "account",
          "type": "address"
        }
      ],
      "name": "Unpaused",
      "type": "event"
    },
    {
      "anonymous": false,
      "inputs": [
        {
          "indexed": false,
          "internalType": "uint256",
          "name": "withdraw",
          "type": "uint256"
        },
        {
          "indexed": true,
          "internalType": "address",
          "name": "user",
          "type": "address"
        },
        {
          "indexed": false,
          "internalType": "uint256",
          "name": "burned",
          "type": "uint256"
        }
      ],
      "name": "Withdraw",
      "type": "event"
    },
    {
      "inputs": [],
      "name": "_cEther",
      "outputs": [
        {
          "internalType": "contract ICEther",
          "name": "",
          "type": "address"
        }
      ],
      "stateMutability": "view",
      "type": "function"
    },
    {
      "inputs": [],
      "name": "_compoundEthAddress",
      "outputs": [
        {
          "internalType": "address",
          "name": "",
          "type": "address"
        }
      ],
      "stateMutability": "view",
      "type": "function"
    },
    {
      "inputs": [],
      "name": "_exchangeAddress",
      "outputs": [
        {
          "internalType": "address",
          "name": "",
          "type": "address"
        }
      ],
      "stateMutability": "view",
      "type": "function"
    },
    {
      "inputs": [],
      "name": "_liability",
      "outputs": [
        {
          "internalType": "uint256",
          "name": "",
          "type": "uint256"
        }
      ],
      "stateMutability": "view",
      "type": "function"
    },
    {
      "inputs": [],
      "name": "_premiumDenomination",
      "outputs": [
        {
          "internalType": "uint256",
          "name": "",
          "type": "uint256"
        }
      ],
      "stateMutability": "view",
      "type": "function"
    },
    {
      "inputs": [],
      "name": "_prime",
      "outputs": [
        {
          "internalType": "contract IPrimeERC20",
          "name": "",
          "type": "address"
        }
      ],
      "stateMutability": "view",
      "type": "function"
    },
    {
      "inputs": [],
      "name": "_primeAddress",
      "outputs": [
        {
          "internalType": "address",
          "name": "",
          "type": "address"
        }
      ],
      "stateMutability": "view",
      "type": "function"
    },
    {
      "inputs": [
        {
          "internalType": "address",
          "name": "owner",
          "type": "address"
        },
        {
          "internalType": "address",
          "name": "spender",
          "type": "address"
        }
      ],
      "name": "allowance",
      "outputs": [
        {
          "internalType": "uint256",
          "name": "",
          "type": "uint256"
        }
      ],
      "stateMutability": "view",
      "type": "function"
    },
    {
      "inputs": [
        {
          "internalType": "address",
          "name": "spender",
          "type": "address"
        },
        {
          "internalType": "uint256",
          "name": "amount",
          "type": "uint256"
        }
      ],
      "name": "approve",
      "outputs": [
        {
          "internalType": "bool",
          "name": "",
          "type": "bool"
        }
      ],
      "stateMutability": "nonpayable",
      "type": "function"
    },
    {
      "inputs": [
        {
          "internalType": "address",
          "name": "account",
          "type": "address"
        }
      ],
      "name": "balanceOf",
      "outputs": [
        {
          "internalType": "uint256",
          "name": "",
          "type": "uint256"
        }
      ],
      "stateMutability": "view",
      "type": "function"
    },
    {
      "inputs": [],
      "name": "decimals",
      "outputs": [
        {
          "internalType": "uint8",
          "name": "",
          "type": "uint8"
        }
      ],
      "stateMutability": "view",
      "type": "function"
    },
    {
      "inputs": [
        {
          "internalType": "address",
          "name": "spender",
          "type": "address"
        },
        {
          "internalType": "uint256",
          "name": "subtractedValue",
          "type": "uint256"
        }
      ],
      "name": "decreaseAllowance",
      "outputs": [
        {
          "internalType": "bool",
          "name": "",
          "type": "bool"
        }
      ],
      "stateMutability": "nonpayable",
      "type": "function"
    },
    {
      "inputs": [
        {
          "internalType": "address",
          "name": "spender",
          "type": "address"
        },
        {
          "internalType": "uint256",
          "name": "addedValue",
          "type": "uint256"
        }
      ],
      "name": "increaseAllowance",
      "outputs": [
        {
          "internalType": "bool",
          "name": "",
          "type": "bool"
        }
      ],
      "stateMutability": "nonpayable",
      "type": "function"
    },
    {
      "inputs": [],
      "name": "isOwner",
      "outputs": [
        {
          "internalType": "bool",
          "name": "",
          "type": "bool"
        }
      ],
      "stateMutability": "view",
      "type": "function"
    },
    {
      "inputs": [],
      "name": "name",
      "outputs": [
        {
          "internalType": "string",
          "name": "",
          "type": "string"
        }
      ],
      "stateMutability": "view",
      "type": "function"
    },
    {
      "inputs": [],
      "name": "owner",
      "outputs": [
        {
          "internalType": "address",
          "name": "",
          "type": "address"
        }
      ],
      "stateMutability": "view",
      "type": "function"
    },
    {
      "inputs": [],
      "name": "paused",
      "outputs": [
        {
          "internalType": "bool",
          "name": "",
          "type": "bool"
        }
      ],
      "stateMutability": "view",
      "type": "function"
    },
    {
      "inputs": [],
      "name": "renounceOwnership",
      "outputs": [],
      "stateMutability": "nonpayable",
      "type": "function"
    },
    {
      "inputs": [],
      "name": "symbol",
      "outputs": [
        {
          "internalType": "string",
          "name": "",
          "type": "string"
        }
      ],
      "stateMutability": "view",
      "type": "function"
    },
    {
      "inputs": [],
      "name": "totalSupply",
      "outputs": [
        {
          "internalType": "uint256",
          "name": "",
          "type": "uint256"
        }
      ],
      "stateMutability": "view",
      "type": "function"
    },
    {
      "inputs": [
        {
          "internalType": "address",
          "name": "recipient",
          "type": "address"
        },
        {
          "internalType": "uint256",
          "name": "amount",
          "type": "uint256"
        }
      ],
      "name": "transfer",
      "outputs": [
        {
          "internalType": "bool",
          "name": "",
          "type": "bool"
        }
      ],
      "stateMutability": "nonpayable",
      "type": "function"
    },
    {
      "inputs": [
        {
          "internalType": "address",
          "name": "sender",
          "type": "address"
        },
        {
          "internalType": "address",
          "name": "recipient",
          "type": "address"
        },
        {
          "internalType": "uint256",
          "name": "amount",
          "type": "uint256"
        }
      ],
      "name": "transferFrom",
      "outputs": [
        {
          "internalType": "bool",
          "name": "",
          "type": "bool"
        }
      ],
      "stateMutability": "nonpayable",
      "type": "function"
    },
    {
      "inputs": [
        {
          "internalType": "address",
          "name": "newOwner",
          "type": "address"
        }
      ],
      "name": "transferOwnership",
      "outputs": [],
      "stateMutability": "nonpayable",
      "type": "function"
    },
    {
      "stateMutability": "payable",
      "type": "receive"
    },
    {
      "inputs": [
        {
          "internalType": "address",
          "name": "exchangeAddress",
          "type": "address"
        }
      ],
      "name": "setExchangeAddress",
      "outputs": [],
      "stateMutability": "nonpayable",
      "type": "function"
    },
    {
      "inputs": [
        {
          "internalType": "uint256",
          "name": "amount",
          "type": "uint256"
        }
      ],
      "name": "deposit",
      "outputs": [
        {
          "internalType": "bool",
          "name": "",
          "type": "bool"
        }
      ],
      "stateMutability": "payable",
      "type": "function"
    },
    {
      "inputs": [
        {
          "internalType": "uint256",
          "name": "amount",
          "type": "uint256"
        }
      ],
      "name": "withdraw",
      "outputs": [
        {
          "internalType": "bool",
          "name": "",
          "type": "bool"
        }
      ],
      "stateMutability": "nonpayable",
      "type": "function"
    },
    {
      "inputs": [],
      "name": "getPoolBalance",
      "outputs": [
        {
          "internalType": "uint256",
          "name": "",
          "type": "uint256"
        }
      ],
      "stateMutability": "nonpayable",
      "type": "function"
    },
    {
      "inputs": [],
      "name": "getAvailableAssets",
      "outputs": [
        {
          "internalType": "uint256",
          "name": "",
          "type": "uint256"
        }
      ],
      "stateMutability": "nonpayable",
      "type": "function"
    },
    {
      "inputs": [],
      "name": "totalSupplyDivTotalEther",
      "outputs": [
        {
          "internalType": "uint256",
          "name": "",
          "type": "uint256"
        }
      ],
      "stateMutability": "nonpayable",
      "type": "function"
    },
    {
      "inputs": [],
      "name": "getMaxBurnAmount",
      "outputs": [
        {
          "internalType": "uint256",
          "name": "",
          "type": "uint256"
        }
      ],
      "stateMutability": "nonpayable",
      "type": "function"
    },
    {
      "inputs": [
        {
          "internalType": "uint256",
          "name": "amount",
          "type": "uint256"
        }
      ],
      "name": "etherToCEther",
      "outputs": [
        {
          "internalType": "uint256",
          "name": "",
          "type": "uint256"
        }
      ],
      "stateMutability": "nonpayable",
      "type": "function"
    },
    {
      "inputs": [
        {
          "internalType": "uint256",
          "name": "qUnderlying",
          "type": "uint256"
        }
      ],
      "name": "mintPrimeAndSell",
      "outputs": [
        {
          "internalType": "bool",
          "name": "",
          "type": "bool"
        }
      ],
      "stateMutability": "payable",
      "type": "function"
    },
    {
      "inputs": [
        {
          "internalType": "uint256",
          "name": "qUnderlying",
          "type": "uint256"
        }
      ],
      "name": "redeem",
      "outputs": [
        {
          "internalType": "bool",
          "name": "",
          "type": "bool"
        }
      ],
      "stateMutability": "payable",
      "type": "function"
    },
    {
      "inputs": [
        {
          "internalType": "uint256",
          "name": "amount",
          "type": "uint256"
        }
      ],
      "name": "closePosition",
      "outputs": [
        {
          "internalType": "bool",
          "name": "",
          "type": "bool"
        }
      ],
      "stateMutability": "payable",
      "type": "function"
    },
    {
      "inputs": [],
      "name": "getSnapshot",
      "outputs": [
        {
          "internalType": "uint256",
          "name": "",
          "type": "uint256"
        },
        {
          "internalType": "uint256",
          "name": "",
          "type": "uint256"
        },
        {
          "internalType": "uint256",
          "name": "",
          "type": "uint256"
        },
        {
          "internalType": "uint256",
          "name": "",
          "type": "uint256"
        }
      ],
      "stateMutability": "view",
      "type": "function"
    }
  ],
  "bytecode": "0x60806040523480156200001157600080fd5b5060405162003a8f38038062003a8f833981810160405260608110156200003757600080fd5b810190808051906020019092919080519060200190929190805190602001909291905050506040518060400160405280601981526020017f4d61726b6574204d616b6572205072696d6974697665204c50000000000000008152506040518060400160405280600581526020017f6d50554c5000000000000000000000000000000000000000000000000000000081525060126000620000dc6200030c60201b60201c565b9050806000806101000a81548173ffffffffffffffffffffffffffffffffffffffff021916908373ffffffffffffffffffffffffffffffffffffffff1602179055508073ffffffffffffffffffffffffffffffffffffffff16600073ffffffffffffffffffffffffffffffffffffffff167f8be0079c531659141344cd1fd0a4f28419497f9722a3daafe3b4186f6b6457e060405160405180910390a35060008060146101000a81548160ff0219169083151502179055506001600060156101000a81548160ff0219169083151502179055508260049080519060200190620001c792919062000314565b508160059080519060200190620001e092919062000314565b5080600660006101000a81548160ff021916908360ff16021790555050505080600860006101000a81548173ffffffffffffffffffffffffffffffffffffffff021916908373ffffffffffffffffffffffffffffffffffffffff16021790555082600a60006101000a81548173ffffffffffffffffffffffffffffffffffffffff021916908373ffffffffffffffffffffffffffffffffffffffff16021790555081600960006101000a81548173ffffffffffffffffffffffffffffffffffffffff021916908373ffffffffffffffffffffffffffffffffffffffff16021790555081600760006101000a81548173ffffffffffffffffffffffffffffffffffffffff021916908373ffffffffffffffffffffffffffffffffffffffff160217905550505050620003c3565b600033905090565b828054600181600116156101000203166002900490600052602060002090601f016020900481019282601f106200035757805160ff191683800117855562000388565b8280016001018555821562000388579182015b82811115620003875782518255916020019190600101906200036a565b5b5090506200039791906200039b565b5090565b620003c091905b80821115620003bc576000816000905550600101620003a2565b5090565b90565b6136bc80620003d36000396000f3fe6080604052600436106102085760003560e01c80638f32d59b11610118578063ccd76921116100a0578063dc90235c1161006f578063dc90235c14610b73578063dd62ed3e14610b9e578063e07acf1714610c23578063ece04be014610c7a578063f2fde38b14610ca55761020f565b8063ccd7692114610a3f578063d082ea8c14610a85578063d5ec7cc614610ad6578063db006a7514610b2d5761020f565b8063a126d601116100e7578063a126d601146108a2578063a457c2d7146108e8578063a9059cbb1461095b578063abd70aa2146109ce578063b6b55f25146109f95761020f565b80638f32d59b1461074c57806391b9cd821461077b57806395d89b41146107d25780639c54297c146108625761020f565b8063395093511161019b578063715018a61161016a578063715018a61461060557806378c316ee1461061c57806387431a281461067357806389332f7f146106ca5780638da5cb5b146106f55761020f565b806339509351146104d35780634ba39468146105465780635c975abb1461057157806370a08231146105a05761020f565b806323b872dd116101d757806323b872dd1461036d5780632e1a7d4d14610400578063313ce567146104535780633945251f146104845761020f565b80630207bb5c1461021457806306fdde031461023f578063095ea7b3146102cf57806318160ddd146103425761020f565b3661020f57005b600080fd5b34801561022057600080fd5b50610229610cf6565b6040518082815260200191505060405180910390f35b34801561024b57600080fd5b50610254610cfc565b6040518080602001828103825283818151815260200191508051906020019080838360005b83811015610294578082015181840152602081019050610279565b50505050905090810190601f1680156102c15780820380516001836020036101000a031916815260200191505b509250505060405180910390f35b3480156102db57600080fd5b50610328600480360360408110156102f257600080fd5b81019080803573ffffffffffffffffffffffffffffffffffffffff16906020019092919080359060200190929190505050610d9e565b604051808215151515815260200191505060405180910390f35b34801561034e57600080fd5b50610357610dbc565b6040518082815260200191505060405180910390f35b34801561037957600080fd5b506103e66004803603606081101561039057600080fd5b81019080803573ffffffffffffffffffffffffffffffffffffffff169060200190929190803573ffffffffffffffffffffffffffffffffffffffff16906020019092919080359060200190929190505050610dc6565b604051808215151515815260200191505060405180910390f35b34801561040c57600080fd5b506104396004803603602081101561042357600080fd5b8101908080359060200190929190505050610e9f565b604051808215151515815260200191505060405180910390f35b34801561045f57600080fd5b506104686110cb565b604051808260ff1660ff16815260200191505060405180910390f35b34801561049057600080fd5b506104bd600480360360208110156104a757600080fd5b81019080803590602001909291905050506110e2565b6040518082815260200191505060405180910390f35b3480156104df57600080fd5b5061052c600480360360408110156104f657600080fd5b81019080803573ffffffffffffffffffffffffffffffffffffffff1690602001909291908035906020019092919050505061114f565b604051808215151515815260200191505060405180910390f35b34801561055257600080fd5b5061055b611202565b6040518082815260200191505060405180910390f35b34801561057d57600080fd5b5061058661125c565b604051808215151515815260200191505060405180910390f35b3480156105ac57600080fd5b506105ef600480360360208110156105c357600080fd5b81019080803573ffffffffffffffffffffffffffffffffffffffff169060200190929190505050611272565b6040518082815260200191505060405180910390f35b34801561061157600080fd5b5061061a6112bb565b005b34801561062857600080fd5b506106316113f4565b604051808273ffffffffffffffffffffffffffffffffffffffff1673ffffffffffffffffffffffffffffffffffffffff16815260200191505060405180910390f35b34801561067f57600080fd5b5061068861141a565b604051808273ffffffffffffffffffffffffffffffffffffffff1673ffffffffffffffffffffffffffffffffffffffff16815260200191505060405180910390f35b3480156106d657600080fd5b506106df611440565b6040518082815260200191505060405180910390f35b34801561070157600080fd5b5061070a611483565b604051808273ffffffffffffffffffffffffffffffffffffffff1673ffffffffffffffffffffffffffffffffffffffff16815260200191505060405180910390f35b34801561075857600080fd5b506107616114ac565b604051808215151515815260200191505060405180910390f35b34801561078757600080fd5b5061079061150a565b604051808273ffffffffffffffffffffffffffffffffffffffff1673ffffffffffffffffffffffffffffffffffffffff16815260200191505060405180910390f35b3480156107de57600080fd5b506107e7611530565b6040518080602001828103825283818151815260200191508051906020019080838360005b8381101561082757808201518184015260208101905061080c565b50505050905090810190601f1680156108545780820380516001836020036101000a031916815260200191505b509250505060405180910390f35b34801561086e57600080fd5b506108776115d2565b6040518085815260200184815260200183815260200182815260200194505050505060405180910390f35b6108ce600480360360208110156108b857600080fd5b81019080803590602001909291905050506116de565b604051808215151515815260200191505060405180910390f35b3480156108f457600080fd5b506109416004803603604081101561090b57600080fd5b81019080803573ffffffffffffffffffffffffffffffffffffffff169060200190929190803590602001909291905050506118bb565b604051808215151515815260200191505060405180910390f35b34801561096757600080fd5b506109b46004803603604081101561097e57600080fd5b81019080803573ffffffffffffffffffffffffffffffffffffffff16906020019092919080359060200190929190505050611988565b604051808215151515815260200191505060405180910390f35b3480156109da57600080fd5b506109e36119a6565b6040518082815260200191505060405180910390f35b610a2560048036036020811015610a0f57600080fd5b8101908080359060200190929190505050611a89565b604051808215151515815260200191505060405180910390f35b610a6b60048036036020811015610a5557600080fd5b8101908080359060200190929190505050611d0f565b604051808215151515815260200191505060405180910390f35b348015610a9157600080fd5b50610ad460048036036020811015610aa857600080fd5b81019080803573ffffffffffffffffffffffffffffffffffffffff169060200190929190505050611ed6565b005b348015610ae257600080fd5b50610aeb611f94565b604051808273ffffffffffffffffffffffffffffffffffffffff1673ffffffffffffffffffffffffffffffffffffffff16815260200191505060405180910390f35b610b5960048036036020811015610b4357600080fd5b8101908080359060200190929190505050611fba565b604051808215151515815260200191505060405180910390f35b348015610b7f57600080fd5b50610b8861238e565b6040518082815260200191505060405180910390f35b348015610baa57600080fd5b50610c0d60048036036040811015610bc157600080fd5b81019080803573ffffffffffffffffffffffffffffffffffffffff169060200190929190803573ffffffffffffffffffffffffffffffffffffffff169060200190929190505050612393565b6040518082815260200191505060405180910390f35b348015610c2f57600080fd5b50610c3861241a565b604051808273ffffffffffffffffffffffffffffffffffffffff1673ffffffffffffffffffffffffffffffffffffffff16815260200191505060405180910390f35b348015610c8657600080fd5b50610c8f612440565b6040518082815260200191505060405180910390f35b348015610cb157600080fd5b50610cf460048036036020811015610cc857600080fd5b81019080803573ffffffffffffffffffffffffffffffffffffffff16906020019092919050505061250b565b005b600b5481565b606060048054600181600116156101000203166002900480601f016020809104026020016040519081016040528092919081815260200182805460018160011615610100020316600290048015610d945780601f10610d6957610100808354040283529160200191610d94565b820191906000526020600020905b815481529060010190602001808311610d7757829003601f168201915b5050505050905090565b6000610db2610dab612591565b8484612599565b6001905092915050565b6000600354905090565b6000610dd3848484612790565b610e9484610ddf612591565b610e8f856040518060600160405280602881526020016135d060289139600260008b73ffffffffffffffffffffffffffffffffffffffff1673ffffffffffffffffffffffffffffffffffffffff1681526020019081526020016000206000610e45612591565b73ffffffffffffffffffffffffffffffffffffffff1673ffffffffffffffffffffffffffffffffffffffff16815260200190815260200160002054612a559092919063ffffffff16565b612599565b600190509392505050565b60008060159054906101000a900460ff16610f22576040517f08c379a000000000000000000000000000000000000000000000000000000000815260040180806020018281038252601f8152602001807f5265656e7472616e637947756172643a207265656e7472616e742063616c6c0081525060200191505060405180910390fd5b60008060156101000a81548160ff02191690831515021790555081610f4633611272565b1015610fba576040517f08c379a00000000000000000000000000000000000000000000000000000000081526004018080602001828103825260188152602001807f57697468647261773a2042616c203c207769746864726177000000000000000081525060200191505060405180910390fd5b81610fc3612440565b1015611037576040517f08c379a00000000000000000000000000000000000000000000000000000000081526004018080602001828103825260188152602001807f57697468647261773a206d6178206275726e203c20616d74000000000000000081525060200191505060405180910390fd5b6110413383612b15565b3373ffffffffffffffffffffffffffffffffffffffff167f9da6493a92039daf47d1f2d7a782299c5994c6323eb1e972f69c432089ec52bf611082846110e2565b84604051808381526020018281526020019250505060405180910390a26110a98233612cdb565b90506001600060156101000a81548160ff021916908315150217905550919050565b6000600660009054906101000a900460ff16905090565b6000806111066110f06119a6565b6110f8610dbc565b612eed90919063ffffffff16565b14156111145781905061114a565b61114761111f610dbc565b61113961112a6119a6565b85612eed90919063ffffffff16565b612f7390919063ffffffff16565b90505b919050565b60006111f861115c612591565b846111f3856002600061116d612591565b73ffffffffffffffffffffffffffffffffffffffff1673ffffffffffffffffffffffffffffffffffffffff16815260200190815260200160002060008973ffffffffffffffffffffffffffffffffffffffff1673ffffffffffffffffffffffffffffffffffffffff16815260200190815260200160002054612fbd90919063ffffffff16565b612599565b6001905092915050565b6000806112266112106119a6565b611218610dbc565b612eed90919063ffffffff16565b14156112355760019050611259565b6112566112406119a6565b611248610dbc565b612f7390919063ffffffff16565b90505b90565b60008060149054906101000a900460ff16905090565b6000600160008373ffffffffffffffffffffffffffffffffffffffff1673ffffffffffffffffffffffffffffffffffffffff168152602001908152602001600020549050919050565b6112c36114ac565b611335576040517f08c379a00000000000000000000000000000000000000000000000000000000081526004018080602001828103825260208152602001807f4f776e61626c653a2063616c6c6572206973206e6f7420746865206f776e657281525060200191505060405180910390fd5b600073ffffffffffffffffffffffffffffffffffffffff166000809054906101000a900473ffffffffffffffffffffffffffffffffffffffff1673ffffffffffffffffffffffffffffffffffffffff167f8be0079c531659141344cd1fd0a4f28419497f9722a3daafe3b4186f6b6457e060405160405180910390a360008060006101000a81548173ffffffffffffffffffffffffffffffffffffffff021916908373ffffffffffffffffffffffffffffffffffffffff160217905550565b600660019054906101000a900473ffffffffffffffffffffffffffffffffffffffff1681565b600960009054906101000a900473ffffffffffffffffffffffffffffffffffffffff1681565b60008061144b6119a6565b905080600b541115611461576000915050611480565b6000611478600b548361304590919063ffffffff16565b905080925050505b90565b60008060009054906101000a900473ffffffffffffffffffffffffffffffffffffffff16905090565b60008060009054906101000a900473ffffffffffffffffffffffffffffffffffffffff1673ffffffffffffffffffffffffffffffffffffffff166114ee612591565b73ffffffffffffffffffffffffffffffffffffffff1614905090565b600860009054906101000a900473ffffffffffffffffffffffffffffffffffffffff1681565b606060058054600181600116156101000203166002900480601f0160208091040260200160405190810160405280929190818152602001828054600181600116156101000203166002900480156115c85780601f1061159d576101008083540402835291602001916115c8565b820191906000526020600020905b8154815290600101906020018083116115ab57829003601f168201915b5050505050905090565b600080600080600960009054906101000a900473ffffffffffffffffffffffffffffffffffffffff1673ffffffffffffffffffffffffffffffffffffffff1663c37f68e2336040518263ffffffff1660e01b8152600401808273ffffffffffffffffffffffffffffffffffffffff1673ffffffffffffffffffffffffffffffffffffffff16815260200191505060806040518083038186803b15801561167757600080fd5b505afa15801561168b573d6000803e3d6000fd5b505050506040513d60808110156116a157600080fd5b8101908080519060200190929190805190602001909291908051906020019092919080519060200190929190505050935093509350935090919293565b6000806116ea33611272565b905082811015611762576040517f08c379a00000000000000000000000000000000000000000000000000000000081526004018080602001828103825260148152602001807f436c6f73653a204574682042616c203c20616d7400000000000000000000000081525060200191505060405180910390fd5b600061176c6119a6565b9050600061179782611789600b5488612eed90919063ffffffff16565b612f7390919063ffffffff16565b90508034101561180f576040517f08c379a00000000000000000000000000000000000000000000000000000000081526004018080602001828103825260138152602001807f436c6f73653a2056616c7565203c20646562740000000000000000000000000081525060200191505060405180910390fd5b6000611824823461304590919063ffffffff16565b90506118303387612b15565b600061184d6118488389612fbd90919063ffffffff16565b6110e2565b90503373ffffffffffffffffffffffffffffffffffffffff167f116fde7943d3685c886edf89b49ebe78ebec359c3db46c8972274ae4e270193f8289604051808381526020018281526020019250505060405180910390a26118af8133612cdb565b95505050505050919050565b600061197e6118c8612591565b846119798560405180606001604052806025815260200161366260259139600260006118f2612591565b73ffffffffffffffffffffffffffffffffffffffff1673ffffffffffffffffffffffffffffffffffffffff16815260200190815260200160002060008a73ffffffffffffffffffffffffffffffffffffffff1673ffffffffffffffffffffffffffffffffffffffff16815260200190815260200160002054612a559092919063ffffffff16565b612599565b6001905092915050565b600061199c611995612591565b8484612790565b6001905092915050565b6000600960009054906101000a900473ffffffffffffffffffffffffffffffffffffffff1673ffffffffffffffffffffffffffffffffffffffff16633af9e669306040518263ffffffff1660e01b8152600401808273ffffffffffffffffffffffffffffffffffffffff1673ffffffffffffffffffffffffffffffffffffffff168152602001915050602060405180830381600087803b158015611a4957600080fd5b505af1158015611a5d573d6000803e3d6000fd5b505050506040513d6020811015611a7357600080fd5b8101908080519060200190929190505050905090565b60008060149054906101000a900460ff1615611b0d576040517f08c379a00000000000000000000000000000000000000000000000000000000081526004018080602001828103825260108152602001807f5061757361626c653a207061757365640000000000000000000000000000000081525060200191505060405180910390fd5b813414611b82576040517f08c379a00000000000000000000000000000000000000000000000000000000081526004018080602001828103825260168152602001807f4465706f7369743a2056616c203c206465706f7369740000000000000000000081525060200191505060405180910390fd5b6000611b8c610dbc565b90506000611b986119a6565b9050600080611bb08484612eed90919063ffffffff16565b1415611bbe57849050611be6565b611be382611bd58588612eed90919063ffffffff16565b612f7390919063ffffffff16565b90505b3373ffffffffffffffffffffffffffffffffffffffff167feaa18152488ce5959073c9c79c88ca90b3d96c00de1f118cfaad664c3dab06b98683604051808381526020018281526020019250505060405180910390a2611c46338261308f565b6000600a60009054906101000a900473ffffffffffffffffffffffffffffffffffffffff1673ffffffffffffffffffffffffffffffffffffffff16637473764b87886040518363ffffffff1660e01b8152600401808281526020019150506020604051808303818588803b158015611cbd57600080fd5b505af1158015611cd1573d6000803e3d6000fd5b50505050506040513d6020811015611ce857600080fd5b81019080805190602001909291905050509050611d0481613258565b945050505050919050565b60008060149054906101000a900460ff1615611d93576040517f08c379a00000000000000000000000000000000000000000000000000000000081526004018080602001828103825260108152602001807f5061757361626c653a207061757365640000000000000000000000000000000081525060200191505060405180910390fd5b81611d9c611440565b1015611e10576040517f08c379a00000000000000000000000000000000000000000000000000000000081526004018080602001828103825260158152602001807f4d696e743a20617661696c61626c65203c20616d74000000000000000000000081525060200191505060405180910390fd5b6000600a60009054906101000a900473ffffffffffffffffffffffffffffffffffffffff1673ffffffffffffffffffffffffffffffffffffffff16637473764b84856040518363ffffffff1660e01b8152600401808281526020019150506020604051808303818588803b158015611e8757600080fd5b505af1158015611e9b573d6000803e3d6000fd5b50505050506040513d6020811015611eb257600080fd5b81019080805190602001909291905050509050611ece81613258565b915050919050565b611ede6114ac565b611f50576040517f08c379a00000000000000000000000000000000000000000000000000000000081526004018080602001828103825260208152602001807f4f776e61626c653a2063616c6c6572206973206e6f7420746865206f776e657281525060200191505060405180910390fd5b80600860006101000a81548173ffffffffffffffffffffffffffffffffffffffff021916908373ffffffffffffffffffffffffffffffffffffffff16021790555050565b600760009054906101000a900473ffffffffffffffffffffffffffffffffffffffff1681565b60008060149054906101000a900460ff161561203e576040517f08c379a00000000000000000000000000000000000000000000000000000000081526004018080602001828103825260108152602001807f5061757361626c653a207061757365640000000000000000000000000000000081525060200191505060405180910390fd5b8161204833611272565b10156120bc576040517f08c379a00000000000000000000000000000000000000000000000000000000081526004018080602001828103825260148152602001807f537761703a206574686572203c20636f6c6c617400000000000000000000000081525060200191505060405180910390fd5b6000600a60009054906101000a900473ffffffffffffffffffffffffffffffffffffffff1673ffffffffffffffffffffffffffffffffffffffff16632e1a7d4d846040518263ffffffff1660e01b815260040180828152602001915050602060405180830381600087803b15801561213357600080fd5b505af1158015612147573d6000803e3d6000fd5b505050506040513d602081101561215d57600080fd5b810190808051906020019092919050505090506000600a60009054906101000a900473ffffffffffffffffffffffffffffffffffffffff1673ffffffffffffffffffffffffffffffffffffffff1663bdf7d3456040518163ffffffff1660e01b815260040160206040518083038186803b1580156121da57600080fd5b505afa1580156121ee573d6000803e3d6000fd5b505050506040513d602081101561220457600080fd5b810190808051906020019092919050505090506122213385612b15565b600a60009054906101000a900473ffffffffffffffffffffffffffffffffffffffff1673ffffffffffffffffffffffffffffffffffffffff16632dc98c046040518163ffffffff1660e01b815260040160206040518083038186803b15801561228957600080fd5b505afa15801561229d573d6000803e3d6000fd5b505050506040513d60208110156122b357600080fd5b810190808051906020019092919050505073ffffffffffffffffffffffffffffffffffffffff1663a9059cbb33846040518363ffffffff1660e01b8152600401808373ffffffffffffffffffffffffffffffffffffffff1673ffffffffffffffffffffffffffffffffffffffff16815260200182815260200192505050602060405180830381600087803b15801561234a57600080fd5b505af115801561235e573d6000803e3d6000fd5b505050506040513d602081101561237457600080fd5b810190808051906020019092919050505092505050919050565b600581565b6000600260008473ffffffffffffffffffffffffffffffffffffffff1673ffffffffffffffffffffffffffffffffffffffff16815260200190815260200160002060008373ffffffffffffffffffffffffffffffffffffffff1673ffffffffffffffffffffffffffffffffffffffff16815260200190815260200160002054905092915050565b600a60009054906101000a900473ffffffffffffffffffffffffffffffffffffffff1681565b60008061247d61244e6119a6565b61246f612459610dbc565b612461611440565b612eed90919063ffffffff16565b612f7390919063ffffffff16565b9050612487611440565b612490826110e2565b1115612504576040517f08c379a00000000000000000000000000000000000000000000000000000000081526004018080602001828103825260158152602001807f5769746864726177203e206e657420617373657473000000000000000000000081525060200191505060405180910390fd5b8091505090565b6125136114ac565b612585576040517f08c379a00000000000000000000000000000000000000000000000000000000081526004018080602001828103825260208152602001807f4f776e61626c653a2063616c6c6572206973206e6f7420746865206f776e657281525060200191505060405180910390fd5b61258e816132ec565b50565b600033905090565b600073ffffffffffffffffffffffffffffffffffffffff168373ffffffffffffffffffffffffffffffffffffffff16141561261f576040517f08c379a000000000000000000000000000000000000000000000000000000000815260040180806020018281038252602481526020018061363e6024913960400191505060405180910390fd5b600073ffffffffffffffffffffffffffffffffffffffff168273ffffffffffffffffffffffffffffffffffffffff1614156126a5576040517f08c379a00000000000000000000000000000000000000000000000000000000081526004018080602001828103825260228152602001806135676022913960400191505060405180910390fd5b80600260008573ffffffffffffffffffffffffffffffffffffffff1673ffffffffffffffffffffffffffffffffffffffff16815260200190815260200160002060008473ffffffffffffffffffffffffffffffffffffffff1673ffffffffffffffffffffffffffffffffffffffff168152602001908152602001600020819055508173ffffffffffffffffffffffffffffffffffffffff168373ffffffffffffffffffffffffffffffffffffffff167f8c5be1e5ebec7d5bd14f71427d1e84f3dd0314c0f7b2291e5b200ac8c7c3b925836040518082815260200191505060405180910390a3505050565b600073ffffffffffffffffffffffffffffffffffffffff168373ffffffffffffffffffffffffffffffffffffffff161415612816576040517f08c379a00000000000000000000000000000000000000000000000000000000081526004018080602001828103825260258152602001806136196025913960400191505060405180910390fd5b600073ffffffffffffffffffffffffffffffffffffffff168273ffffffffffffffffffffffffffffffffffffffff16141561289c576040517f08c379a00000000000000000000000000000000000000000000000000000000081526004018080602001828103825260238152602001806134fc6023913960400191505060405180910390fd5b6128a7838383613430565b6129138160405180606001604052806026815260200161358960269139600160008773ffffffffffffffffffffffffffffffffffffffff1673ffffffffffffffffffffffffffffffffffffffff16815260200190815260200160002054612a559092919063ffffffff16565b600160008573ffffffffffffffffffffffffffffffffffffffff1673ffffffffffffffffffffffffffffffffffffffff168152602001908152602001600020819055506129a881600160008573ffffffffffffffffffffffffffffffffffffffff1673ffffffffffffffffffffffffffffffffffffffff16815260200190815260200160002054612fbd90919063ffffffff16565b600160008473ffffffffffffffffffffffffffffffffffffffff1673ffffffffffffffffffffffffffffffffffffffff168152602001908152602001600020819055508173ffffffffffffffffffffffffffffffffffffffff168373ffffffffffffffffffffffffffffffffffffffff167fddf252ad1be2c89b69c2b068fc378daa952ba7f163c4a11628f55a4df523b3ef836040518082815260200191505060405180910390a3505050565b6000838311158290612b02576040517f08c379a00000000000000000000000000000000000000000000000000000000081526004018080602001828103825283818151815260200191508051906020019080838360005b83811015612ac7578082015181840152602081019050612aac565b50505050905090810190601f168015612af45780820380516001836020036101000a031916815260200191505b509250505060405180910390fd5b5060008385039050809150509392505050565b600073ffffffffffffffffffffffffffffffffffffffff168273ffffffffffffffffffffffffffffffffffffffff161415612b9b576040517f08c379a00000000000000000000000000000000000000000000000000000000081526004018080602001828103825260218152602001806135f86021913960400191505060405180910390fd5b612ba782600083613430565b612c138160405180606001604052806022815260200161351f60229139600160008673ffffffffffffffffffffffffffffffffffffffff1673ffffffffffffffffffffffffffffffffffffffff16815260200190815260200160002054612a559092919063ffffffff16565b600160008473ffffffffffffffffffffffffffffffffffffffff1673ffffffffffffffffffffffffffffffffffffffff16815260200190815260200160002081905550612c6b8160035461304590919063ffffffff16565b600381905550600073ffffffffffffffffffffffffffffffffffffffff168273ffffffffffffffffffffffffffffffffffffffff167fddf252ad1be2c89b69c2b068fc378daa952ba7f163c4a11628f55a4df523b3ef836040518082815260200191505060405180910390a35050565b600080600960009054906101000a900473ffffffffffffffffffffffffffffffffffffffff1673ffffffffffffffffffffffffffffffffffffffff1663852a12e3856040518263ffffffff1660e01b815260040180828152602001915050602060405180830381600087803b158015612d5357600080fd5b505af1158015612d67573d6000803e3d6000fd5b505050506040513d6020811015612d7d57600080fd5b8101908080519060200190929190505050905060008114612e06576040517f08c379a000000000000000000000000000000000000000000000000000000000815260040180806020018281038252600b8152602001807f72656465656d20213d203000000000000000000000000000000000000000000081525060200191505060405180910390fd5b60008373ffffffffffffffffffffffffffffffffffffffff168560405180600001905060006040518083038185875af1925050503d8060008114612e66576040519150601f19603f3d011682016040523d82523d6000602084013e612e6b565b606091505b5050905080612ee2576040517f08c379a000000000000000000000000000000000000000000000000000000000815260040180806020018281038252600e8152602001807f5472616e73666572206661696c2e00000000000000000000000000000000000081525060200191505060405180910390fd5b809250505092915050565b600080831415612f005760009050612f6d565b6000828402905082848281612f1157fe5b0414612f68576040517f08c379a00000000000000000000000000000000000000000000000000000000081526004018080602001828103825260218152602001806135af6021913960400191505060405180910390fd5b809150505b92915050565b6000612fb583836040518060400160405280601a81526020017f536166654d6174683a206469766973696f6e206279207a65726f000000000000815250613435565b905092915050565b60008082840190508381101561303b576040517f08c379a000000000000000000000000000000000000000000000000000000000815260040180806020018281038252601b8152602001807f536166654d6174683a206164646974696f6e206f766572666c6f77000000000081525060200191505060405180910390fd5b8091505092915050565b600061308783836040518060400160405280601e81526020017f536166654d6174683a207375627472616374696f6e206f766572666c6f770000815250612a55565b905092915050565b600073ffffffffffffffffffffffffffffffffffffffff168273ffffffffffffffffffffffffffffffffffffffff161415613132576040517f08c379a000000000000000000000000000000000000000000000000000000000815260040180806020018281038252601f8152602001807f45524332303a206d696e7420746f20746865207a65726f20616464726573730081525060200191505060405180910390fd5b61313e60008383613430565b61315381600354612fbd90919063ffffffff16565b6003819055506131ab81600160008573ffffffffffffffffffffffffffffffffffffffff1673ffffffffffffffffffffffffffffffffffffffff16815260200190815260200160002054612fbd90919063ffffffff16565b600160008473ffffffffffffffffffffffffffffffffffffffff1673ffffffffffffffffffffffffffffffffffffffff168152602001908152602001600020819055508173ffffffffffffffffffffffffffffffffffffffff16600073ffffffffffffffffffffffffffffffffffffffff167fddf252ad1be2c89b69c2b068fc378daa952ba7f163c4a11628f55a4df523b3ef836040518082815260200191505060405180910390a35050565b6000600960009054906101000a900473ffffffffffffffffffffffffffffffffffffffff1673ffffffffffffffffffffffffffffffffffffffff16631249c58b836203d090906040518363ffffffff1660e01b81526004016000604051808303818589803b1580156132c957600080fd5b5088f11580156132dd573d6000803e3d6000fd5b50505050505060019050919050565b600073ffffffffffffffffffffffffffffffffffffffff168173ffffffffffffffffffffffffffffffffffffffff161415613372576040517f08c379a00000000000000000000000000000000000000000000000000000000081526004018080602001828103825260268152602001806135416026913960400191505060405180910390fd5b8073ffffffffffffffffffffffffffffffffffffffff166000809054906101000a900473ffffffffffffffffffffffffffffffffffffffff1673ffffffffffffffffffffffffffffffffffffffff167f8be0079c531659141344cd1fd0a4f28419497f9722a3daafe3b4186f6b6457e060405160405180910390a3806000806101000a81548173ffffffffffffffffffffffffffffffffffffffff021916908373ffffffffffffffffffffffffffffffffffffffff16021790555050565b505050565b600080831182906134e1576040517f08c379a00000000000000000000000000000000000000000000000000000000081526004018080602001828103825283818151815260200191508051906020019080838360005b838110156134a657808201518184015260208101905061348b565b50505050905090810190601f1680156134d35780820380516001836020036101000a031916815260200191505b509250505060405180910390fd5b5060008385816134ed57fe5b04905080915050939250505056fe45524332303a207472616e7366657220746f20746865207a65726f206164647265737345524332303a206275726e20616d6f756e7420657863656564732062616c616e63654f776e61626c653a206e6577206f776e657220697320746865207a65726f206164647265737345524332303a20617070726f766520746f20746865207a65726f206164647265737345524332303a207472616e7366657220616d6f756e7420657863656564732062616c616e6365536166654d6174683a206d756c7469706c69636174696f6e206f766572666c6f7745524332303a207472616e7366657220616d6f756e74206578636565647320616c6c6f77616e636545524332303a206275726e2066726f6d20746865207a65726f206164647265737345524332303a207472616e736665722066726f6d20746865207a65726f206164647265737345524332303a20617070726f76652066726f6d20746865207a65726f206164647265737345524332303a2064656372656173656420616c6c6f77616e63652062656c6f77207a65726fa26469706673582212204f1c410ad6ca13778d6db346a4cdbd3b17b0ea0ee88013c0b7dba4e6b79fe22664736f6c63430006050033",
  "source": "pragma solidity ^0.6.2;\r\n\r\n/**\r\n * @title   Primitive's Market Maker Pool Contract\r\n * @author  Primitive\r\n */\r\n\r\n\r\nimport '../Instruments.sol';\r\nimport './InterfaceERC20.sol';\r\nimport '@openzeppelin/contracts/math/SafeMath.sol';\r\nimport '@openzeppelin/contracts/ownership/Ownable.sol';\r\nimport '@openzeppelin/contracts/utils/ReentrancyGuard.sol';\r\nimport '@openzeppelin/contracts/lifecycle/Pausable.sol';\r\nimport '@openzeppelin/contracts/token/ERC20/ERC20.sol';\r\nimport '@openzeppelin/contracts/token/ERC20/ERC20Detailed.sol';\r\n\r\nabstract contract ICEther {\r\n    function mint() external payable virtual;\r\n    function redeem(uint redeemTokens) external virtual returns (uint);\r\n    function redeemUnderlying(uint redeemAmount) external virtual returns (uint);\r\n    function transfer(address dst, uint amount) external virtual returns (bool);\r\n    function transferFrom(address src, address dst, uint amount) external virtual returns (bool);\r\n    function approve(address spender, uint amount) external virtual returns (bool);\r\n    function allowance(address owner, address spender) external virtual view returns (uint);\r\n    function balanceOf(address owner) external virtual view returns (uint);\r\n    function balanceOfUnderlying(address owner) external virtual returns (uint);\r\n    function getAccountSnapshot(address account) external virtual view returns (uint, uint, uint, uint);\r\n    function borrowRatePerBlock() external virtual view returns (uint);\r\n    function supplyRatePerBlock() external virtual view returns (uint);\r\n    function totalBorrowsCurrent() external virtual returns (uint);\r\n    function borrowBalanceCurrent(address account) external virtual returns (uint);\r\n    function borrowBalanceStored(address account) public virtual view returns (uint);\r\n    function _exchangeRateCurrent() public virtual returns (uint);\r\n    function _exchangeRateStored() public virtual view returns (uint);\r\n    function getCash() external virtual view returns (uint);\r\n    function accrueInterest() public virtual returns (uint);\r\n    function seize(address liquidator, address borrower, uint seizeTokens) external virtual returns (uint);\r\n}\r\n\r\ncontract PoolERC20 is Ownable, Pausable, ReentrancyGuard, ERC20, ERC20Detailed {\r\n    using SafeMath for uint256;\r\n\r\n    /* Address of Prime ERC-721 */\r\n    address public _primeAddress;\r\n    address public _compoundEthAddress;\r\n    address public _exchangeAddress;\r\n\r\n    ICEther public _cEther;\r\n    IPrimeERC20 public _prime;\r\n\r\n    /* Ether liability */\r\n    uint256 public _liability;\r\n\r\n    /* For testing */\r\n    uint256 public constant _premiumDenomination = 5; /* 20% = 0.2 = 1 / 5 */\r\n\r\n    event Deposit(uint256 deposit, address indexed user, uint256 minted);\r\n    event Withdraw(uint256 withdraw, address indexed user, uint256 burned);\r\n    event PoolMint(uint256 nonce, uint256 qUnderlying, uint256 qStrike, uint256 indexed tExpiry);\r\n    event Exercise(uint256 amount, uint256 qStrike);\r\n    event Close(uint256 amountClosed, address indexed user, uint256 burned);\r\n\r\n    constructor (\r\n        address primeAddress,\r\n        address compoundEthAddress,\r\n        address exchangeAddress\r\n    ) \r\n        public\r\n        ERC20Detailed(\r\n            \"Market Maker Primitive LP\",\r\n            \"mPULP\",\r\n            18\r\n        )\r\n    {\r\n        _exchangeAddress = exchangeAddress;\r\n        _prime = IPrimeERC20(primeAddress);\r\n        _cEther = ICEther(compoundEthAddress);\r\n        _compoundEthAddress = compoundEthAddress;\r\n    }\r\n\r\n    /* SET */\r\n    function setExchangeAddress(address exchangeAddress) external onlyOwner {\r\n        _exchangeAddress = exchangeAddress;\r\n    }\r\n\r\n    receive() external payable {}\r\n\r\n    /* CAPITAL INPUT / OUTPUT FUNCTIONS*/\r\n\r\n    /**\r\n     * @dev deposits funds to the liquidity pool\r\n     * @param amount amount of ether to deposit\r\n     * @return bool true if liquidity tokens were minted and ether deposit swapped to cETher\r\n     */\r\n    function deposit(\r\n        uint256 amount\r\n    )\r\n        external\r\n        payable\r\n        whenNotPaused\r\n        returns (bool)\r\n    {\r\n        /* CHECKS */\r\n        require(msg.value == amount, 'Deposit: Val < deposit');\r\n\r\n        /* EFFECTS */\r\n        uint256 totalSupply = totalSupply();\r\n        uint256 poolBalance = getPoolBalance();\r\n        uint256 amountToMint;\r\n        \r\n        if(poolBalance.mul(totalSupply) == 0) {\r\n            amountToMint = amount;\r\n        } else {\r\n            amountToMint = amount.mul(totalSupply).div(poolBalance);\r\n        }\r\n\r\n        /* INTERACTIONS */\r\n        emit Deposit(amount, msg.sender, amountToMint);\r\n        _mint(msg.sender, amountToMint);\r\n\r\n        // NEW DEPOSIT\r\n        uint256 ethReturn = _prime.depositAndMarketSell.value(amount)(amount);\r\n        return swapEtherToCompoundEther(ethReturn);\r\n    }\r\n\r\n    /**\r\n     * @dev withdraw ether that is not utilized as collateral\r\n     * @notice withdrawing utilized collateral requires the debt to be paid using the close function\r\n     * @param amount amount of ether to withdraw\r\n     * @return bool true if liquidity tokens were burned, cEther was swapped to ether and sent\r\n     */\r\n    function withdraw(\r\n        uint256 amount\r\n    ) \r\n        public \r\n        nonReentrant \r\n        returns (bool)\r\n    {\r\n        /* CHECKS */\r\n        require(balanceOf(msg.sender) >= amount, 'Withdraw: Bal < withdraw');\r\n        require(getMaxBurnAmount() >= amount, 'Withdraw: max burn < amt');\r\n\r\n        /* EFFECTS */\r\n\r\n        /* INTERACTIONS */\r\n        _burn(msg.sender, amount);\r\n        emit Withdraw(etherToCEther(amount), msg.sender, amount);\r\n        return swapCEtherToEtherThenSend(amount, msg.sender);\r\n    }\r\n\r\n    /* GET BALANCE SHEET ITEMS */\r\n\r\n    /**\r\n     * @dev get ether balance of this contract\r\n     * @return uint256 balance of this contract in ether\r\n     */\r\n    function getPoolBalance() public returns(uint256) {\r\n        return _cEther.balanceOfUnderlying(address(this));\r\n    }\r\n    \r\n    /**\r\n     * @dev gets the total assets that are not being utilized as underlying assets in Primes\r\n     * @notice Net Assets = Pool Assets - Pool Liabilities\r\n     * @return pool amount of available assets\r\n     */\r\n    function getAvailableAssets() public returns (uint256) {\r\n        uint256 poolBalance = getPoolBalance();\r\n        if(_liability > poolBalance) {\r\n            return 0;\r\n        }\r\n        uint256 available = poolBalance.sub(_liability);\r\n        return available;\r\n    }\r\n\r\n    /**\r\n     * @dev returns Total Supply / Total Pool Assets\r\n     * @return pool returns 1 / Exchange Rate to use in LP token swaps\r\n     */\r\n    function totalSupplyDivTotalEther() public returns (uint256) {\r\n        if(totalSupply().mul(getPoolBalance()) == 0) {\r\n            return 1;\r\n        }\r\n        return totalSupply().div(getPoolBalance());\r\n    }\r\n\r\n    /**\r\n     * @dev tokens to burn to withdraw non-utilized pool assets\r\n     * @notice Max Burn = Net Assets * Total Supply / Total Pool Assets\r\n     * @return uint256 max amount of tokens that can be burned for ether\r\n     */\r\n    function getMaxBurnAmount() public returns (uint256) {\r\n        /* LP = (ET - L) * ST / ET where ST = Total Supply */\r\n        uint256 maxBurn = getAvailableAssets().mul(totalSupply()).div(getPoolBalance());\r\n        require(etherToCEther(maxBurn) <= getAvailableAssets(), 'Withdraw > net assets');\r\n        return maxBurn;\r\n    }\r\n\r\n    /**\r\n     * @dev returns the amount of ETH returned from swapped amount of Liquidity tokens\r\n     * @notice Ether = Amount * Total Pool Assets / Total Supply\r\n     * @return uint256 amount of cTokens proportional to parameter amount\r\n     */\r\n    function etherToCEther(uint256 amount) public returns (uint256) {\r\n        if(totalSupply().mul(getPoolBalance()) == 0) {\r\n            return amount;\r\n        }\r\n        return amount.mul(getPoolBalance()).div(totalSupply());\r\n    }\r\n\r\n    /* PRIME INTERACTION FUNCTIONS */\r\n\r\n    /**\r\n     * @dev user mints a Prime option from the pool\r\n     * @param qUnderlying amount of ether (in wei)\r\n     * @return bool whether or not the Prime is minted\r\n     */\r\n    function mintPrimeAndSell(\r\n        uint256 qUnderlying\r\n    )\r\n        external\r\n        payable\r\n        whenNotPaused\r\n        returns (bool) \r\n    {\r\n        require(getAvailableAssets() >= qUnderlying, 'Mint: available < amt');\r\n        uint256 ethReturn = _prime.depositAndMarketSell.value(qUnderlying)(qUnderlying);\r\n        return swapEtherToCompoundEther(ethReturn);\r\n    }\r\n\r\n    /**\r\n     * @dev Called ONLY from the Prime contract\r\n     * @param qUnderlying amount of collateral\r\n     */\r\n    function redeem(\r\n        uint256 qUnderlying\r\n    )\r\n        external\r\n        payable\r\n        whenNotPaused\r\n        returns (bool) \r\n    {\r\n        /* CHECKS */\r\n        require(balanceOf(msg.sender) >= qUnderlying, 'Swap: ether < collat'); \r\n        uint256 qStrike = _prime.withdraw(qUnderlying);\r\n        ERC20 _strike = ERC20(_prime._strikeAddress());\r\n        _burn(msg.sender, qUnderlying);\r\n        return _prime._strike().transfer(msg.sender, qStrike);\r\n    }\r\n\r\n    /**\r\n     * @dev buy debt, withdraw capital\r\n     * @notice user must purchase option and sell to pool, i.e. burn liability (Prime Token)\r\n     * @param amount size of position to close and withdraw in ether\r\n     * @return bool if the transaction suceeds\r\n     */\r\n    function closePosition(uint256 amount) external payable returns (bool) {\r\n        /* CHECKS */\r\n        uint256 userEthBal = balanceOf(msg.sender);\r\n        require(userEthBal >= amount, 'Close: Eth Bal < amt');\r\n\r\n        uint256 poolBalance = getPoolBalance();\r\n        uint256 debt = amount.mul(_liability).div(poolBalance);\r\n        require(msg.value >= debt, 'Close: Value < debt');\r\n\r\n        /* EFFECTS */\r\n        uint256 refundEther = msg.value.sub(debt);\r\n\r\n        /* INTERACTIONS */\r\n        _burn(msg.sender, amount);\r\n        uint256 amountInCEther = etherToCEther(amount.add(refundEther));\r\n        emit Close(amountInCEther, msg.sender, amount);\r\n        return swapCEtherToEtherThenSend(amountInCEther, msg.sender);\r\n    }\r\n\r\n\r\n    /* CAPITAL MANAGEMENT FUNCTIONS */\r\n\r\n    /**\r\n     @dev function to send ether with the most security\r\n     */\r\n    function sendEther(uint256 amount, address payable user) internal returns (bool) {\r\n        (bool success, ) = user.call.value(amount)(\"\");\r\n        require(success, \"Send ether fail\");\r\n        return success;\r\n    }\r\n\r\n    /* COMPOUND INTERFACE FUNCTIONS */\r\n\r\n    /**\r\n     @dev converts ether to interest bearing cEther (Compound Protocol)\r\n     @param amount ether that will be swapped to cEther\r\n     */\r\n    function swapEtherToCompoundEther(uint256 amount) internal returns (bool) {\r\n        _cEther.mint.value(amount).gas(250000)();\r\n        return true;\r\n    }\r\n\r\n    /**\r\n     @dev converts cEther back into Ether\r\n     @param amount ether that will be swapped to cEther\r\n     */\r\n    function swapCEtherToEtherThenSend(uint256 amount, address payable user) internal returns (bool) {\r\n        uint256 redeemResult = _cEther.redeemUnderlying(amount);\r\n        require(redeemResult == 0, 'redeem != 0');\r\n        (bool success, ) = user.call.value(amount)(\"\");\r\n        require(success, 'Transfer fail.');\r\n        return success;\r\n    }\r\n\r\n    function getSnapshot() public view returns (uint, uint, uint, uint) {\r\n        return _cEther.getAccountSnapshot(msg.sender);\r\n    }\r\n}\r\n\r\n    ",
  "sourcePath": "C:\\Users\\alexa\\OneDrive\\Documents\\Master\\Blockchain\\Projects\\carbon\\contracts\\ERC20\\PoolERC20.sol",
  "compiler": {
    "name": "solc",
    "version": "0.6.5+commit.f956cc89.Emscripten.clang"
  },
  "schemaVersion": "3.0.23",
  "updatedAt": "2020-04-14T02:24:18.830Z",
  "devdoc": {
    "methods": {
      "allowance(address,address)": {
        "details": "See {IERC20-allowance}."
      },
      "approve(address,uint256)": {
        "details": "See {IERC20-approve}.     * Requirements:     * - `spender` cannot be the zero address."
      },
      "balanceOf(address)": {
        "details": "See {IERC20-balanceOf}."
      },
      "closePosition(uint256)": {
        "details": "buy debt, withdraw capital",
        "params": {
          "amount": "size of position to close and withdraw in ether"
        },
        "returns": {
          "_0": "bool if the transaction suceeds"
        }
      },
      "decimals()": {
        "details": "Returns the number of decimals used to get its user representation. For example, if `decimals` equals `2`, a balance of `505` tokens should be displayed to a user as `5,05` (`505 / 10 ** 2`).     * Tokens usually opt for a value of 18, imitating the relationship between Ether and Wei.     * NOTE: This information is only used for _display_ purposes: it in no way affects any of the arithmetic of the contract, including {IERC20-balanceOf} and {IERC20-transfer}."
      },
      "decreaseAllowance(address,uint256)": {
        "details": "Atomically decreases the allowance granted to `spender` by the caller.     * This is an alternative to {approve} that can be used as a mitigation for problems described in {IERC20-approve}.     * Emits an {Approval} event indicating the updated allowance.     * Requirements:     * - `spender` cannot be the zero address. - `spender` must have allowance for the caller of at least `subtractedValue`."
      },
      "deposit(uint256)": {
        "details": "deposits funds to the liquidity pool",
        "params": {
          "amount": "amount of ether to deposit"
        },
        "returns": {
          "_0": "bool true if liquidity tokens were minted and ether deposit swapped to cETher"
        }
      },
      "etherToCEther(uint256)": {
        "details": "returns the amount of ETH returned from swapped amount of Liquidity tokens",
        "returns": {
          "_0": "uint256 amount of cTokens proportional to parameter amount"
        }
      },
      "getAvailableAssets()": {
        "details": "gets the total assets that are not being utilized as underlying assets in Primes",
        "returns": {
          "_0": "pool amount of available assets"
        }
      },
      "getMaxBurnAmount()": {
        "details": "tokens to burn to withdraw non-utilized pool assets",
        "returns": {
          "_0": "uint256 max amount of tokens that can be burned for ether"
        }
      },
      "getPoolBalance()": {
        "details": "get ether balance of this contract",
        "returns": {
          "_0": "uint256 balance of this contract in ether"
        }
      },
      "increaseAllowance(address,uint256)": {
        "details": "Atomically increases the allowance granted to `spender` by the caller.     * This is an alternative to {approve} that can be used as a mitigation for problems described in {IERC20-approve}.     * Emits an {Approval} event indicating the updated allowance.     * Requirements:     * - `spender` cannot be the zero address."
      },
      "isOwner()": {
        "details": "Returns true if the caller is the current owner."
      },
      "mintPrimeAndSell(uint256)": {
        "details": "user mints a Prime option from the pool",
        "params": {
          "qUnderlying": "amount of ether (in wei)"
        },
        "returns": {
          "_0": "bool whether or not the Prime is minted"
        }
      },
      "name()": {
        "details": "Returns the name of the token."
      },
      "owner()": {
        "details": "Returns the address of the current owner."
      },
      "paused()": {
        "details": "Returns true if the contract is paused, and false otherwise."
      },
      "redeem(uint256)": {
        "details": "Called ONLY from the Prime contract",
        "params": {
          "qUnderlying": "amount of collateral"
        }
      },
      "renounceOwnership()": {
        "details": "Leaves the contract without owner. It will not be possible to call `onlyOwner` functions anymore. Can only be called by the current owner.     * NOTE: Renouncing ownership will leave the contract without an owner, thereby removing any functionality that is only available to the owner."
      },
      "symbol()": {
        "details": "Returns the symbol of the token, usually a shorter version of the name."
      },
      "totalSupply()": {
        "details": "See {IERC20-totalSupply}."
      },
      "totalSupplyDivTotalEther()": {
        "details": "returns Total Supply / Total Pool Assets",
        "returns": {
          "_0": "pool returns 1 / Exchange Rate to use in LP token swaps"
        }
      },
      "transfer(address,uint256)": {
        "details": "See {IERC20-transfer}.     * Requirements:     * - `recipient` cannot be the zero address. - the caller must have a balance of at least `amount`."
      },
      "transferFrom(address,address,uint256)": {
        "details": "See {IERC20-transferFrom}.     * Emits an {Approval} event indicating the updated allowance. This is not required by the EIP. See the note at the beginning of {ERC20};     * Requirements: - `sender` and `recipient` cannot be the zero address. - `sender` must have a balance of at least `amount`. - the caller must have allowance for `sender`'s tokens of at least `amount`."
      },
      "transferOwnership(address)": {
        "details": "Transfers ownership of the contract to a new account (`newOwner`). Can only be called by the current owner."
      },
      "withdraw(uint256)": {
        "details": "withdraw ether that is not utilized as collateral",
        "params": {
          "amount": "amount of ether to withdraw"
        },
        "returns": {
          "_0": "bool true if liquidity tokens were burned, cEther was swapped to ether and sent"
        }
      }
    }
  },
  "userdoc": {
    "methods": {
      "closePosition(uint256)": {
        "notice": "user must purchase option and sell to pool, i.e. burn liability (Prime Token)"
      },
      "etherToCEther(uint256)": {
        "notice": "Ether = Amount * Total Pool Assets / Total Supply"
      },
      "getAvailableAssets()": {
        "notice": "Net Assets = Pool Assets - Pool Liabilities"
      },
      "getMaxBurnAmount()": {
        "notice": "Max Burn = Net Assets * Total Supply / Total Pool Assets"
      },
      "withdraw(uint256)": {
        "notice": "withdrawing utilized collateral requires the debt to be paid using the close function"
      }
    }
  }
}