{
  "contractName": "PrimeExchange",
  "abi": [
    {
      "inputs": [
        {
          "internalType": "address",
          "name": "primeOption",
          "type": "address"
        }
      ],
      "stateMutability": "nonpayable",
      "type": "constructor"
    },
    {
      "anonymous": false,
      "inputs": [
        {
          "indexed": true,
          "internalType": "address",
          "name": "owner",
          "type": "address"
        },
        {
          "indexed": true,
          "internalType": "address",
          "name": "spender",
          "type": "address"
        },
        {
          "indexed": false,
          "internalType": "uint256",
          "name": "value",
          "type": "uint256"
        }
      ],
      "name": "Approval",
      "type": "event"
    },
    {
      "anonymous": false,
      "inputs": [
        {
          "indexed": true,
          "internalType": "address",
          "name": "from",
          "type": "address"
        },
        {
          "indexed": true,
          "internalType": "address",
          "name": "to",
          "type": "address"
        },
        {
          "indexed": false,
          "internalType": "uint256",
          "name": "value",
          "type": "uint256"
        }
      ],
      "name": "Transfer",
      "type": "event"
    },
    {
      "inputs": [],
      "name": "_prime",
      "outputs": [
        {
          "internalType": "contract IPrimeOption",
          "name": "",
          "type": "address"
        }
      ],
      "stateMutability": "view",
      "type": "function"
    },
    {
      "inputs": [
        {
          "internalType": "address",
          "name": "owner",
          "type": "address"
        },
        {
          "internalType": "address",
          "name": "spender",
          "type": "address"
        }
      ],
      "name": "allowance",
      "outputs": [
        {
          "internalType": "uint256",
          "name": "",
          "type": "uint256"
        }
      ],
      "stateMutability": "view",
      "type": "function"
    },
    {
      "inputs": [
        {
          "internalType": "address",
          "name": "spender",
          "type": "address"
        },
        {
          "internalType": "uint256",
          "name": "amount",
          "type": "uint256"
        }
      ],
      "name": "approve",
      "outputs": [
        {
          "internalType": "bool",
          "name": "",
          "type": "bool"
        }
      ],
      "stateMutability": "nonpayable",
      "type": "function"
    },
    {
      "inputs": [
        {
          "internalType": "address",
          "name": "account",
          "type": "address"
        }
      ],
      "name": "balanceOf",
      "outputs": [
        {
          "internalType": "uint256",
          "name": "",
          "type": "uint256"
        }
      ],
      "stateMutability": "view",
      "type": "function"
    },
    {
      "inputs": [],
      "name": "decimals",
      "outputs": [
        {
          "internalType": "uint8",
          "name": "",
          "type": "uint8"
        }
      ],
      "stateMutability": "view",
      "type": "function"
    },
    {
      "inputs": [
        {
          "internalType": "address",
          "name": "spender",
          "type": "address"
        },
        {
          "internalType": "uint256",
          "name": "subtractedValue",
          "type": "uint256"
        }
      ],
      "name": "decreaseAllowance",
      "outputs": [
        {
          "internalType": "bool",
          "name": "",
          "type": "bool"
        }
      ],
      "stateMutability": "nonpayable",
      "type": "function"
    },
    {
      "inputs": [
        {
          "internalType": "address",
          "name": "spender",
          "type": "address"
        },
        {
          "internalType": "uint256",
          "name": "addedValue",
          "type": "uint256"
        }
      ],
      "name": "increaseAllowance",
      "outputs": [
        {
          "internalType": "bool",
          "name": "",
          "type": "bool"
        }
      ],
      "stateMutability": "nonpayable",
      "type": "function"
    },
    {
      "inputs": [],
      "name": "name",
      "outputs": [
        {
          "internalType": "string",
          "name": "",
          "type": "string"
        }
      ],
      "stateMutability": "view",
      "type": "function"
    },
    {
      "inputs": [],
      "name": "symbol",
      "outputs": [
        {
          "internalType": "string",
          "name": "",
          "type": "string"
        }
      ],
      "stateMutability": "view",
      "type": "function"
    },
    {
      "inputs": [],
      "name": "totalSupply",
      "outputs": [
        {
          "internalType": "uint256",
          "name": "",
          "type": "uint256"
        }
      ],
      "stateMutability": "view",
      "type": "function"
    },
    {
      "inputs": [
        {
          "internalType": "address",
          "name": "recipient",
          "type": "address"
        },
        {
          "internalType": "uint256",
          "name": "amount",
          "type": "uint256"
        }
      ],
      "name": "transfer",
      "outputs": [
        {
          "internalType": "bool",
          "name": "",
          "type": "bool"
        }
      ],
      "stateMutability": "nonpayable",
      "type": "function"
    },
    {
      "inputs": [
        {
          "internalType": "address",
          "name": "sender",
          "type": "address"
        },
        {
          "internalType": "address",
          "name": "recipient",
          "type": "address"
        },
        {
          "internalType": "uint256",
          "name": "amount",
          "type": "uint256"
        }
      ],
      "name": "transferFrom",
      "outputs": [
        {
          "internalType": "bool",
          "name": "",
          "type": "bool"
        }
      ],
      "stateMutability": "nonpayable",
      "type": "function"
    },
    {
      "stateMutability": "payable",
      "type": "receive"
    },
    {
      "inputs": [
        {
          "internalType": "uint256",
          "name": "minQLiquidity",
          "type": "uint256"
        },
        {
          "internalType": "uint256",
          "name": "maxQTokens",
          "type": "uint256"
        }
      ],
      "name": "addLiquidity",
      "outputs": [
        {
          "internalType": "uint256",
          "name": "",
          "type": "uint256"
        }
      ],
      "stateMutability": "payable",
      "type": "function"
    },
    {
      "inputs": [
        {
          "internalType": "uint256",
          "name": "qLiquidity",
          "type": "uint256"
        },
        {
          "internalType": "uint256",
          "name": "minQEth",
          "type": "uint256"
        },
        {
          "internalType": "uint256",
          "name": "minQTokens",
          "type": "uint256"
        }
      ],
      "name": "removeLiquidity",
      "outputs": [
        {
          "internalType": "uint256",
          "name": "",
          "type": "uint256"
        },
        {
          "internalType": "uint256",
          "name": "",
          "type": "uint256"
        }
      ],
      "stateMutability": "nonpayable",
      "type": "function"
    },
    {
      "inputs": [
        {
          "internalType": "uint256",
          "name": "qTokens",
          "type": "uint256"
        },
        {
          "internalType": "uint256",
          "name": "minQEth",
          "type": "uint256"
        },
        {
          "internalType": "address payable",
          "name": "receiver",
          "type": "address"
        }
      ],
      "name": "swapTokensToEth",
      "outputs": [
        {
          "internalType": "uint256",
          "name": "",
          "type": "uint256"
        }
      ],
      "stateMutability": "nonpayable",
      "type": "function"
    },
    {
      "inputs": [
        {
          "internalType": "uint256",
          "name": "qTokens",
          "type": "uint256"
        },
        {
          "internalType": "uint256",
          "name": "minQEth",
          "type": "uint256"
        },
        {
          "internalType": "address",
          "name": "buyer",
          "type": "address"
        },
        {
          "internalType": "address payable",
          "name": "receiver",
          "type": "address"
        }
      ],
      "name": "tokensToEth",
      "outputs": [
        {
          "internalType": "uint256",
          "name": "",
          "type": "uint256"
        }
      ],
      "stateMutability": "nonpayable",
      "type": "function"
    },
    {
      "inputs": [
        {
          "internalType": "uint256",
          "name": "qTokens",
          "type": "uint256"
        }
      ],
      "name": "swapEthToTokens",
      "outputs": [
        {
          "internalType": "uint256",
          "name": "",
          "type": "uint256"
        }
      ],
      "stateMutability": "payable",
      "type": "function"
    },
    {
      "inputs": [
        {
          "internalType": "uint256",
          "name": "qInput",
          "type": "uint256"
        },
        {
          "internalType": "uint256",
          "name": "rInput",
          "type": "uint256"
        },
        {
          "internalType": "uint256",
          "name": "rOutput",
          "type": "uint256"
        }
      ],
      "name": "getInputPrice",
      "outputs": [
        {
          "internalType": "uint256",
          "name": "",
          "type": "uint256"
        }
      ],
      "stateMutability": "pure",
      "type": "function"
    },
    {
      "inputs": [
        {
          "internalType": "uint256",
          "name": "qOutput",
          "type": "uint256"
        },
        {
          "internalType": "uint256",
          "name": "rInput",
          "type": "uint256"
        },
        {
          "internalType": "uint256",
          "name": "rOutput",
          "type": "uint256"
        }
      ],
      "name": "getOutputPrice",
      "outputs": [
        {
          "internalType": "uint256",
          "name": "",
          "type": "uint256"
        }
      ],
      "stateMutability": "pure",
      "type": "function"
    },
    {
      "inputs": [],
      "name": "tokenReserves",
      "outputs": [
        {
          "internalType": "uint256",
          "name": "",
          "type": "uint256"
        }
      ],
      "stateMutability": "view",
      "type": "function"
    },
    {
      "inputs": [],
      "name": "etherReserves",
      "outputs": [
        {
          "internalType": "uint256",
          "name": "",
          "type": "uint256"
        }
      ],
      "stateMutability": "view",
      "type": "function"
    }
  ],
  "bytecode": "0x60806040523480156200001157600080fd5b5060405162002b5d38038062002b5d833981810160405260208110156200003757600080fd5b81019080805190602001909291905050506040518060400160405280601581526020017f45786368616e6765205072696d6974697665204c5000000000000000000000008152506040518060400160405280600581526020017f6550554c5000000000000000000000000000000000000000000000000000000081525060128260009080519060200190620000ce9291906200014e565b508160019080519060200190620000e79291906200014e565b5080600260006101000a81548160ff021916908360ff16021790555050505080600660006101000a81548173ffffffffffffffffffffffffffffffffffffffff021916908373ffffffffffffffffffffffffffffffffffffffff16021790555050620001fd565b828054600181600116156101000203166002900490600052602060002090601f016020900481019282601f106200019157805160ff1916838001178555620001c2565b82800160010185558215620001c2579182015b82811115620001c1578251825591602001919060010190620001a4565b5b509050620001d19190620001d5565b5090565b620001fa91905b80821115620001f6576000816000905550600101620001dc565b5090565b90565b612950806200020d6000396000f3fe60806040526004361061012e5760003560e01c806389f2a871116100ab578063d93968e11161006f578063d93968e114610757578063dd62ed3e146107d0578063e07acf1714610855578063e52cbc4d146108ac578063e790e3eb146108d7578063fd11c2231461091957610135565b806389f2a8711461053257806395d89b41146105955780639cd441da14610625578063a457c2d714610671578063a9059cbb146106e457610135565b806339509351116100f2578063395093511461032c5780634bad95101461039f5780635b8219fa146103ca57806370a0823114610463578063857620e1146104c857610135565b806306fdde031461013a578063095ea7b3146101ca57806318160ddd1461023d57806323b872dd14610268578063313ce567146102fb57610135565b3661013557005b600080fd5b34801561014657600080fd5b5061014f61097c565b6040518080602001828103825283818151815260200191508051906020019080838360005b8381101561018f578082015181840152602081019050610174565b50505050905090810190601f1680156101bc5780820380516001836020036101000a031916815260200191505b509250505060405180910390f35b3480156101d657600080fd5b50610223600480360360408110156101ed57600080fd5b81019080803573ffffffffffffffffffffffffffffffffffffffff16906020019092919080359060200190929190505050610a1e565b604051808215151515815260200191505060405180910390f35b34801561024957600080fd5b50610252610a3c565b6040518082815260200191505060405180910390f35b34801561027457600080fd5b506102e16004803603606081101561028b57600080fd5b81019080803573ffffffffffffffffffffffffffffffffffffffff169060200190929190803573ffffffffffffffffffffffffffffffffffffffff16906020019092919080359060200190929190505050610a46565b604051808215151515815260200191505060405180910390f35b34801561030757600080fd5b50610310610b1f565b604051808260ff1660ff16815260200191505060405180910390f35b34801561033857600080fd5b506103856004803603604081101561034f57600080fd5b81019080803573ffffffffffffffffffffffffffffffffffffffff16906020019092919080359060200190929190505050610b36565b604051808215151515815260200191505060405180910390f35b3480156103ab57600080fd5b506103b4610be9565b6040518082815260200191505060405180910390f35b3480156103d657600080fd5b5061044d600480360360808110156103ed57600080fd5b810190808035906020019092919080359060200190929190803573ffffffffffffffffffffffffffffffffffffffff169060200190929190803573ffffffffffffffffffffffffffffffffffffffff169060200190929190505050610cca565b6040518082815260200191505060405180910390f35b34801561046f57600080fd5b506104b26004803603602081101561048657600080fd5b81019080803573ffffffffffffffffffffffffffffffffffffffff169060200190929190505050610e9a565b6040518082815260200191505060405180910390f35b3480156104d457600080fd5b50610515600480360360608110156104eb57600080fd5b81019080803590602001909291908035906020019092919080359060200190929190505050610ee3565b604051808381526020018281526020019250505060405180910390f35b34801561053e57600080fd5b5061057f6004803603606081101561055557600080fd5b810190808035906020019092919080359060200190929190803590602001909291905050506111e3565b6040518082815260200191505060405180910390f35b3480156105a157600080fd5b506105aa61125e565b6040518080602001828103825283818151815260200191508051906020019080838360005b838110156105ea5780820151818401526020810190506105cf565b50505050905090810190601f1680156106175780820380516001836020036101000a031916815260200191505b509250505060405180910390f35b61065b6004803603604081101561063b57600080fd5b810190808035906020019092919080359060200190929190505050611300565b6040518082815260200191505060405180910390f35b34801561067d57600080fd5b506106ca6004803603604081101561069457600080fd5b81019080803573ffffffffffffffffffffffffffffffffffffffff16906020019092919080359060200190929190505050611646565b604051808215151515815260200191505060405180910390f35b3480156106f057600080fd5b5061073d6004803603604081101561070757600080fd5b81019080803573ffffffffffffffffffffffffffffffffffffffff16906020019092919080359060200190929190505050611713565b604051808215151515815260200191505060405180910390f35b34801561076357600080fd5b506107ba6004803603606081101561077a57600080fd5b810190808035906020019092919080359060200190929190803573ffffffffffffffffffffffffffffffffffffffff169060200190929190505050611731565b6040518082815260200191505060405180910390f35b3480156107dc57600080fd5b5061083f600480360360408110156107f357600080fd5b81019080803573ffffffffffffffffffffffffffffffffffffffff169060200190929190803573ffffffffffffffffffffffffffffffffffffffff169060200190929190505050611897565b6040518082815260200191505060405180910390f35b34801561086157600080fd5b5061086a61191e565b604051808273ffffffffffffffffffffffffffffffffffffffff1673ffffffffffffffffffffffffffffffffffffffff16815260200191505060405180910390f35b3480156108b857600080fd5b506108c1611944565b6040518082815260200191505060405180910390f35b610903600480360360208110156108ed57600080fd5b8101908080359060200190929190505050611963565b6040518082815260200191505060405180910390f35b34801561092557600080fd5b506109666004803603606081101561093c57600080fd5b81019080803590602001909291908035906020019092919080359060200190929190505050611ac0565b6040518082815260200191505060405180910390f35b606060008054600181600116156101000203166002900480601f016020809104026020016040519081016040528092919081815260200182805460018160011615610100020316600290048015610a145780601f106109e957610100808354040283529160200191610a14565b820191906000526020600020905b8154815290600101906020018083116109f757829003601f168201915b5050505050905090565b6000610a32610a2b611b4e565b8484611b56565b6001905092915050565b6000600554905090565b6000610a53848484611d4d565b610b1484610a5f611b4e565b610b0f8560405180606001604052806028815260200161286460289139600460008b73ffffffffffffffffffffffffffffffffffffffff1673ffffffffffffffffffffffffffffffffffffffff1681526020019081526020016000206000610ac5611b4e565b73ffffffffffffffffffffffffffffffffffffffff1673ffffffffffffffffffffffffffffffffffffffff168152602001908152602001600020546120129092919063ffffffff16565b611b56565b600190509392505050565b6000600260009054906101000a900460ff16905090565b6000610bdf610b43611b4e565b84610bda8560046000610b54611b4e565b73ffffffffffffffffffffffffffffffffffffffff1673ffffffffffffffffffffffffffffffffffffffff16815260200190815260200160002060008973ffffffffffffffffffffffffffffffffffffffff1673ffffffffffffffffffffffffffffffffffffffff168152602001908152602001600020546120d290919063ffffffff16565b611b56565b6001905092915050565b6000600660009054906101000a900473ffffffffffffffffffffffffffffffffffffffff1673ffffffffffffffffffffffffffffffffffffffff166370a08231306040518263ffffffff1660e01b8152600401808273ffffffffffffffffffffffffffffffffffffffff1673ffffffffffffffffffffffffffffffffffffffff16815260200191505060206040518083038186803b158015610c8a57600080fd5b505afa158015610c9e573d6000803e3d6000fd5b505050506040513d6020811015610cb457600080fd5b8101908080519060200190929190505050905090565b600080610cd5610be9565b90506000610ce1611944565b90506000610cf08884846111e3565b905086811015610d68576040517f08c379a000000000000000000000000000000000000000000000000000000000815260040180806020018281038252600b8152602001807f4552525f42414c5f45544800000000000000000000000000000000000000000081525060200191505060405180910390fd5b600660009054906101000a900473ffffffffffffffffffffffffffffffffffffffff1673ffffffffffffffffffffffffffffffffffffffff166323b872dd87308b6040518463ffffffff1660e01b8152600401808473ffffffffffffffffffffffffffffffffffffffff1673ffffffffffffffffffffffffffffffffffffffff1681526020018373ffffffffffffffffffffffffffffffffffffffff1673ffffffffffffffffffffffffffffffffffffffff1681526020018281526020019350505050602060405180830381600087803b158015610e4557600080fd5b505af1158015610e59573d6000803e3d6000fd5b505050506040513d6020811015610e6f57600080fd5b810190808051906020019092919050505050610e8b858261215a565b50809350505050949350505050565b6000600360008373ffffffffffffffffffffffffffffffffffffffff1673ffffffffffffffffffffffffffffffffffffffff168152602001908152602001600020549050919050565b600080600085118015610ef65750600084115b8015610f025750600083115b610f74576040517f08c379a00000000000000000000000000000000000000000000000000000000081526004018080602001828103825260088152602001807f4552525f5a45524f00000000000000000000000000000000000000000000000081525060200191505060405180910390fd5b6000610f7e611944565b90506000610f8a610a3c565b90506000610f96610be9565b90506000610fbf83610fb1868c61224190919063ffffffff16565b6122c790919063ffffffff16565b90506000610fe884610fda858d61224190919063ffffffff16565b6122c790919063ffffffff16565b905088821015611060576040517f08c379a000000000000000000000000000000000000000000000000000000000815260040180806020018281038252600b8152602001807f4552525f42414c5f45544800000000000000000000000000000000000000000081525060200191505060405180910390fd5b878110156110d6576040517f08c379a000000000000000000000000000000000000000000000000000000000815260040180806020018281038252600e8152602001807f4552525f42414c5f544f4b454e5300000000000000000000000000000000000081525060200191505060405180910390fd5b6110e0338b612311565b600660009054906101000a900473ffffffffffffffffffffffffffffffffffffffff1673ffffffffffffffffffffffffffffffffffffffff1663a9059cbb33836040518363ffffffff1660e01b8152600401808373ffffffffffffffffffffffffffffffffffffffff1673ffffffffffffffffffffffffffffffffffffffff16815260200182815260200192505050602060405180830381600087803b15801561118957600080fd5b505af115801561119d573d6000803e3d6000fd5b505050506040513d60208110156111b357600080fd5b8101908080519060200190929190505050506111cf338361215a565b508982965096505050505050935093915050565b60008061120d836111ff6103e88861224190919063ffffffff16565b61224190919063ffffffff16565b905060006112388661122a6103e88861224190919063ffffffff16565b6120d290919063ffffffff16565b9050600061124f82846122c790919063ffffffff16565b90508093505050509392505050565b606060018054600181600116156101000203166002900480601f0160208091040260200160405190810160405280929190818152602001828054600181600116156101000203166002900480156112f65780601f106112cb576101008083540402835291602001916112f6565b820191906000526020600020905b8154815290600101906020018083116112d957829003601f168201915b5050505050905090565b60008061130b610a3c565b90506000611317611944565b90506000851180156113295750600084115b61132f57fe5b600082111561150757600061134d34836124d790919063ffffffff16565b90506000611359610be9565b90506000611395600161138785611379863461224190919063ffffffff16565b6122c790919063ffffffff16565b6124d790919063ffffffff16565b905060006113be846113b0883461224190919063ffffffff16565b6122c790919063ffffffff16565b90508881101580156113d05750818810155b6113d657fe5b6113e03382612521565b600660009054906101000a900473ffffffffffffffffffffffffffffffffffffffff1673ffffffffffffffffffffffffffffffffffffffff166323b872dd3330856040518463ffffffff1660e01b8152600401808473ffffffffffffffffffffffffffffffffffffffff1673ffffffffffffffffffffffffffffffffffffffff1681526020018373ffffffffffffffffffffffffffffffffffffffff1673ffffffffffffffffffffffffffffffffffffffff1681526020018281526020019350505050602060405180830381600087803b1580156114bd57600080fd5b505af11580156114d1573d6000803e3d6000fd5b505050506040513d60208110156114e757600080fd5b810190808051906020019092919050505050809650505050505050611640565b6000811161151157fe5b60008190506115203382612521565b600660009054906101000a900473ffffffffffffffffffffffffffffffffffffffff1673ffffffffffffffffffffffffffffffffffffffff166323b872dd3330886040518463ffffffff1660e01b8152600401808473ffffffffffffffffffffffffffffffffffffffff1673ffffffffffffffffffffffffffffffffffffffff1681526020018373ffffffffffffffffffffffffffffffffffffffff1673ffffffffffffffffffffffffffffffffffffffff1681526020018281526020019350505050602060405180830381600087803b1580156115fd57600080fd5b505af1158015611611573d6000803e3d6000fd5b505050506040513d602081101561162757600080fd5b8101908080519060200190929190505050508093505050505b92915050565b6000611709611653611b4e565b84611704856040518060600160405280602581526020016128f6602591396004600061167d611b4e565b73ffffffffffffffffffffffffffffffffffffffff1673ffffffffffffffffffffffffffffffffffffffff16815260200190815260200160002060008a73ffffffffffffffffffffffffffffffffffffffff1673ffffffffffffffffffffffffffffffffffffffff168152602001908152602001600020546120129092919063ffffffff16565b611b56565b6001905092915050565b6000611727611720611b4e565b8484611d4d565b6001905092915050565b600083600660009054906101000a900473ffffffffffffffffffffffffffffffffffffffff1673ffffffffffffffffffffffffffffffffffffffff166370a08231336040518263ffffffff1660e01b8152600401808273ffffffffffffffffffffffffffffffffffffffff1673ffffffffffffffffffffffffffffffffffffffff16815260200191505060206040518083038186803b1580156117d357600080fd5b505afa1580156117e7573d6000803e3d6000fd5b505050506040513d60208110156117fd57600080fd5b81019080805190602001909291905050501015611882576040517f08c379a000000000000000000000000000000000000000000000000000000000815260040180806020018281038252600f8152602001807f4552525f42414c5f4f5054494f4e53000000000000000000000000000000000081525060200191505060405180910390fd5b61188e84843385610cca565b90509392505050565b6000600460008473ffffffffffffffffffffffffffffffffffffffff1673ffffffffffffffffffffffffffffffffffffffff16815260200190815260200160002060008373ffffffffffffffffffffffffffffffffffffffff1673ffffffffffffffffffffffffffffffffffffffff16815260200190815260200160002054905092915050565b600660009054906101000a900473ffffffffffffffffffffffffffffffffffffffff1681565b60003073ffffffffffffffffffffffffffffffffffffffff1631905090565b6000803490506000611973610be9565b9050600061197f611944565b905060006119a08661199a86856124d790919063ffffffff16565b85611ac0565b905060006119b782866124d790919063ffffffff16565b905060008111156119ce576119cc338261215a565b505b600660009054906101000a900473ffffffffffffffffffffffffffffffffffffffff1673ffffffffffffffffffffffffffffffffffffffff1663a9059cbb33896040518363ffffffff1660e01b8152600401808373ffffffffffffffffffffffffffffffffffffffff1673ffffffffffffffffffffffffffffffffffffffff16815260200182815260200192505050602060405180830381600087803b158015611a7757600080fd5b505af1158015611a8b573d6000803e3d6000fd5b505050506040513d6020811015611aa157600080fd5b8101908080519060200190929190505050508195505050505050919050565b600080611aea84611adc6103e88861224190919063ffffffff16565b61224190919063ffffffff16565b90506000611b156103e8611b0788876124d790919063ffffffff16565b61224190919063ffffffff16565b90506000611b3f6001611b3184866122c790919063ffffffff16565b6120d290919063ffffffff16565b90508093505050509392505050565b600033905090565b600073ffffffffffffffffffffffffffffffffffffffff168373ffffffffffffffffffffffffffffffffffffffff161415611bdc576040517f08c379a00000000000000000000000000000000000000000000000000000000081526004018080602001828103825260248152602001806128d26024913960400191505060405180910390fd5b600073ffffffffffffffffffffffffffffffffffffffff168273ffffffffffffffffffffffffffffffffffffffff161415611c62576040517f08c379a00000000000000000000000000000000000000000000000000000000081526004018080602001828103825260228152602001806127fb6022913960400191505060405180910390fd5b80600460008573ffffffffffffffffffffffffffffffffffffffff1673ffffffffffffffffffffffffffffffffffffffff16815260200190815260200160002060008473ffffffffffffffffffffffffffffffffffffffff1673ffffffffffffffffffffffffffffffffffffffff168152602001908152602001600020819055508173ffffffffffffffffffffffffffffffffffffffff168373ffffffffffffffffffffffffffffffffffffffff167f8c5be1e5ebec7d5bd14f71427d1e84f3dd0314c0f7b2291e5b200ac8c7c3b925836040518082815260200191505060405180910390a3505050565b600073ffffffffffffffffffffffffffffffffffffffff168373ffffffffffffffffffffffffffffffffffffffff161415611dd3576040517f08c379a00000000000000000000000000000000000000000000000000000000081526004018080602001828103825260258152602001806128ad6025913960400191505060405180910390fd5b600073ffffffffffffffffffffffffffffffffffffffff168273ffffffffffffffffffffffffffffffffffffffff161415611e59576040517f08c379a00000000000000000000000000000000000000000000000000000000081526004018080602001828103825260238152602001806127b66023913960400191505060405180910390fd5b611e648383836126ea565b611ed08160405180606001604052806026815260200161281d60269139600360008773ffffffffffffffffffffffffffffffffffffffff1673ffffffffffffffffffffffffffffffffffffffff168152602001908152602001600020546120129092919063ffffffff16565b600360008573ffffffffffffffffffffffffffffffffffffffff1673ffffffffffffffffffffffffffffffffffffffff16815260200190815260200160002081905550611f6581600360008573ffffffffffffffffffffffffffffffffffffffff1673ffffffffffffffffffffffffffffffffffffffff168152602001908152602001600020546120d290919063ffffffff16565b600360008473ffffffffffffffffffffffffffffffffffffffff1673ffffffffffffffffffffffffffffffffffffffff168152602001908152602001600020819055508173ffffffffffffffffffffffffffffffffffffffff168373ffffffffffffffffffffffffffffffffffffffff167fddf252ad1be2c89b69c2b068fc378daa952ba7f163c4a11628f55a4df523b3ef836040518082815260200191505060405180910390a3505050565b60008383111582906120bf576040517f08c379a00000000000000000000000000000000000000000000000000000000081526004018080602001828103825283818151815260200191508051906020019080838360005b83811015612084578082015181840152602081019050612069565b50505050905090810190601f1680156120b15780820380516001836020036101000a031916815260200191505b509250505060405180910390fd5b5060008385039050809150509392505050565b600080828401905083811015612150576040517f08c379a000000000000000000000000000000000000000000000000000000000815260040180806020018281038252601b8152602001807f536166654d6174683a206164646974696f6e206f766572666c6f77000000000081525060200191505060405180910390fd5b8091505092915050565b6000808373ffffffffffffffffffffffffffffffffffffffff168360405180600001905060006040518083038185875af1925050503d80600081146121bb576040519150601f19603f3d011682016040523d82523d6000602084013e6121c0565b606091505b5050905080612237576040517f08c379a000000000000000000000000000000000000000000000000000000000815260040180806020018281038252600f8152602001807f53656e64206574686572206661696c000000000000000000000000000000000081525060200191505060405180910390fd5b8091505092915050565b60008083141561225457600090506122c1565b600082840290508284828161226557fe5b04146122bc576040517f08c379a00000000000000000000000000000000000000000000000000000000081526004018080602001828103825260218152602001806128436021913960400191505060405180910390fd5b809150505b92915050565b600061230983836040518060400160405280601a81526020017f536166654d6174683a206469766973696f6e206279207a65726f0000000000008152506126ef565b905092915050565b600073ffffffffffffffffffffffffffffffffffffffff168273ffffffffffffffffffffffffffffffffffffffff161415612397576040517f08c379a000000000000000000000000000000000000000000000000000000000815260040180806020018281038252602181526020018061288c6021913960400191505060405180910390fd5b6123a3826000836126ea565b61240f816040518060600160405280602281526020016127d960229139600360008673ffffffffffffffffffffffffffffffffffffffff1673ffffffffffffffffffffffffffffffffffffffff168152602001908152602001600020546120129092919063ffffffff16565b600360008473ffffffffffffffffffffffffffffffffffffffff1673ffffffffffffffffffffffffffffffffffffffff16815260200190815260200160002081905550612467816005546124d790919063ffffffff16565b600581905550600073ffffffffffffffffffffffffffffffffffffffff168273ffffffffffffffffffffffffffffffffffffffff167fddf252ad1be2c89b69c2b068fc378daa952ba7f163c4a11628f55a4df523b3ef836040518082815260200191505060405180910390a35050565b600061251983836040518060400160405280601e81526020017f536166654d6174683a207375627472616374696f6e206f766572666c6f770000815250612012565b905092915050565b600073ffffffffffffffffffffffffffffffffffffffff168273ffffffffffffffffffffffffffffffffffffffff1614156125c4576040517f08c379a000000000000000000000000000000000000000000000000000000000815260040180806020018281038252601f8152602001807f45524332303a206d696e7420746f20746865207a65726f20616464726573730081525060200191505060405180910390fd5b6125d0600083836126ea565b6125e5816005546120d290919063ffffffff16565b60058190555061263d81600360008573ffffffffffffffffffffffffffffffffffffffff1673ffffffffffffffffffffffffffffffffffffffff168152602001908152602001600020546120d290919063ffffffff16565b600360008473ffffffffffffffffffffffffffffffffffffffff1673ffffffffffffffffffffffffffffffffffffffff168152602001908152602001600020819055508173ffffffffffffffffffffffffffffffffffffffff16600073ffffffffffffffffffffffffffffffffffffffff167fddf252ad1be2c89b69c2b068fc378daa952ba7f163c4a11628f55a4df523b3ef836040518082815260200191505060405180910390a35050565b505050565b6000808311829061279b576040517f08c379a00000000000000000000000000000000000000000000000000000000081526004018080602001828103825283818151815260200191508051906020019080838360005b83811015612760578082015181840152602081019050612745565b50505050905090810190601f16801561278d5780820380516001836020036101000a031916815260200191505b509250505060405180910390fd5b5060008385816127a757fe5b04905080915050939250505056fe45524332303a207472616e7366657220746f20746865207a65726f206164647265737345524332303a206275726e20616d6f756e7420657863656564732062616c616e636545524332303a20617070726f766520746f20746865207a65726f206164647265737345524332303a207472616e7366657220616d6f756e7420657863656564732062616c616e6365536166654d6174683a206d756c7469706c69636174696f6e206f766572666c6f7745524332303a207472616e7366657220616d6f756e74206578636565647320616c6c6f77616e636545524332303a206275726e2066726f6d20746865207a65726f206164647265737345524332303a207472616e736665722066726f6d20746865207a65726f206164647265737345524332303a20617070726f76652066726f6d20746865207a65726f206164647265737345524332303a2064656372656173656420616c6c6f77616e63652062656c6f77207a65726fa26469706673582212207f108d073797fb32a1531dd0dfc031f87ba8f576844b61a0f712994b7d2c886a64736f6c63430006020033",
  "source": "pragma solidity ^0.6.2;\r\n\r\n/**\r\n * @title Primitive's Exchange Pool for ERC-20 Prime Options\r\n * @author Primitive\r\n */\r\n\r\nimport '@openzeppelin/contracts/math/SafeMath.sol';\r\nimport '@openzeppelin/contracts/token/ERC20/ERC20.sol';\r\nimport '@openzeppelin/contracts/token/ERC20/ERC20Detailed.sol';\r\nimport './PrimeInterface.sol';\r\n\r\ncontract PrimeExchange is ERC20Detailed('Exchange Primitive LP', 'ePULP',  18), ERC20 {\r\n    using SafeMath for uint256;\r\n\r\n    IPrimeOption public _prime;\r\n\r\n    constructor (address primeOption) public {\r\n        _prime = IPrimeOption(primeOption);\r\n    }\r\n\r\n    receive() external payable {}\r\n\r\n    /**\r\n     * @dev adds option tokens and ether to reserves and sends user ePULP\r\n     */\r\n    function addLiquidity(\r\n        uint256 minQLiquidity,\r\n        uint256 maxQTokens\r\n    ) public payable returns(uint256) {\r\n        uint256 totalSupply = totalSupply();\r\n        uint256 etherReserves = etherReserves();\r\n        assert(minQLiquidity > 0 && maxQTokens > 0);\r\n        if (totalSupply > 0) {\r\n            uint256 rEth = etherReserves.sub(msg.value);\r\n            uint256 rToken = tokenReserves();\r\n            uint256 qToken = msg.value.mul(rToken).div(rEth).sub(1);\r\n            uint256 newLiquidity = msg.value.mul(totalSupply).div(rEth);\r\n            assert(newLiquidity >= minQLiquidity && maxQTokens >= qToken);\r\n            _mint(msg.sender, newLiquidity);\r\n            _prime.transferFrom(msg.sender, address(this), qToken);\r\n            return newLiquidity;\r\n        } else {\r\n            assert(etherReserves > 0);\r\n            uint256 initialQLiquidity = etherReserves;\r\n            _mint(msg.sender, initialQLiquidity);\r\n            _prime.transferFrom(msg.sender, address(this), maxQTokens);\r\n            return initialQLiquidity;\r\n        }\r\n    }\r\n\r\n    /**\r\n     * @dev removes option tokens and ether from reserves, burns ePulp, and sends to user\r\n     */\r\n    function removeLiquidity(\r\n        uint256 qLiquidity,\r\n        uint256 minQEth,\r\n        uint256 minQTokens\r\n    ) public returns (uint256, uint256) {\r\n        require(qLiquidity > 0 &&  minQEth > 0 && minQTokens > 0, 'ERR_ZERO');\r\n\r\n        uint256 etherReserves = etherReserves();\r\n        uint256 totalSupply = totalSupply();\r\n        uint256 tokenReserves = tokenReserves();\r\n        uint256 qEth = qLiquidity.mul(etherReserves).div(totalSupply);\r\n        uint256 qTokens = qLiquidity.mul(tokenReserves).div(totalSupply);\r\n        require(qEth >= minQEth, 'ERR_BAL_ETH');\r\n        require(qTokens >= minQTokens, 'ERR_BAL_TOKENS');\r\n        _burn(msg.sender, qLiquidity);\r\n        _prime.transfer(msg.sender, qTokens);\r\n        sendEther(msg.sender, qEth);\r\n        return (qLiquidity, qEth);\r\n    }\r\n\r\n    /**\r\n     * @dev sells option tokens for eth\r\n     */\r\n    function swapTokensToEth(\r\n        uint256 qTokens,\r\n        uint256 minQEth,\r\n        address payable receiver\r\n    ) public returns (uint) {\r\n        require(_prime.balanceOf(msg.sender) >= qTokens, 'ERR_BAL_OPTIONS');\r\n        return tokensToEth(qTokens, minQEth, msg.sender, receiver);\r\n    }\r\n\r\n    /**\r\n     * @dev sells option tokens for eth\r\n     */\r\n    function tokensToEth(\r\n        uint256 qTokens,\r\n        uint256 minQEth,\r\n        address buyer,\r\n        address payable receiver\r\n    ) public returns (uint) {\r\n        uint256 rInput = tokenReserves();\r\n        uint256 etherReserves = etherReserves();\r\n        uint256 ethOutput = getInputPrice(qTokens, rInput, etherReserves);\r\n        require(ethOutput >= minQEth, 'ERR_BAL_ETH');\r\n        _prime.transferFrom(buyer, address(this), qTokens);\r\n        sendEther(receiver, ethOutput);\r\n        return ethOutput;\r\n    }\r\n\r\n    /**\r\n     * @dev sells eth for option tokens\r\n     */\r\n    function swapEthToTokens(\r\n        uint256 qTokens\r\n    ) public payable returns (uint256) {\r\n        uint256 maxQEth = msg.value;\r\n        uint256 tokenReserves = tokenReserves();\r\n        uint256 etherReserves = etherReserves();\r\n        uint256 ethOutput = getOutputPrice(qTokens, etherReserves.sub(maxQEth), tokenReserves);\r\n        uint256 ethRemainder = maxQEth.sub(ethOutput);\r\n        if(ethRemainder > 0) {\r\n            sendEther(msg.sender, ethRemainder);\r\n        }\r\n\r\n        _prime.transfer(msg.sender, qTokens);\r\n        return ethOutput;\r\n    }\r\n\r\n    /**\r\n     @dev function to send ether with the most security\r\n     */\r\n    function sendEther(address payable user, uint256 amount) internal returns (bool) {\r\n        (bool success, ) = user.call.value(amount)(\"\");\r\n        require(success, \"Send ether fail\");\r\n        return success;\r\n    }\r\n\r\n    /**\r\n     * @dev gets the input price (amount of tokens bought)\r\n     */\r\n    function getInputPrice(\r\n        uint256 qInput,\r\n        uint256 rInput,\r\n        uint256 rOutput\r\n    ) public pure returns (uint256) {\r\n        uint256 k = qInput.mul(1000).mul(rOutput);\r\n        uint256 x = rInput.mul(1000).add(qInput);\r\n        uint256 y = k.div(x);\r\n        return y;\r\n    }\r\n\r\n    /**\r\n     * @dev gets the output price (amount of eth sold)\r\n     */\r\n    function getOutputPrice(\r\n        uint256 qOutput,\r\n        uint256 rInput,\r\n        uint256 rOutput\r\n    ) public pure returns (uint256) {\r\n        uint256 k = qOutput.mul(1000).mul(rInput);\r\n        uint256 y = (rOutput.sub(qOutput)).mul(1000);\r\n        uint256 x = k.div(y).add(1);\r\n        return x;\r\n    }\r\n\r\n    function tokenReserves() public view returns (uint256) {\r\n        return _prime.balanceOf(address(this));\r\n    }\r\n\r\n    function etherReserves() public view returns (uint256) {\r\n        return address(this).balance;\r\n    }\r\n}",
  "sourcePath": "C:\\Users\\alexa\\OneDrive\\Documents\\Master\\Blockchain\\Projects\\carbon\\contracts\\PrimeExchange.sol",
  "compiler": {
    "name": "solc",
    "version": "0.6.2+commit.bacdbe57.Emscripten.clang"
  },
  "schemaVersion": "3.0.23",
  "updatedAt": "2020-04-14T22:57:28.022Z",
  "devdoc": {
    "methods": {
      "addLiquidity(uint256,uint256)": {
        "details": "adds option tokens and ether to reserves and sends user ePULP"
      },
      "allowance(address,address)": {
        "details": "See {IERC20-allowance}."
      },
      "approve(address,uint256)": {
        "details": "See {IERC20-approve}.     * Requirements:     * - `spender` cannot be the zero address."
      },
      "balanceOf(address)": {
        "details": "See {IERC20-balanceOf}."
      },
      "decimals()": {
        "details": "Returns the number of decimals used to get its user representation. For example, if `decimals` equals `2`, a balance of `505` tokens should be displayed to a user as `5,05` (`505 / 10 ** 2`).     * Tokens usually opt for a value of 18, imitating the relationship between Ether and Wei.     * NOTE: This information is only used for _display_ purposes: it in no way affects any of the arithmetic of the contract, including {IERC20-balanceOf} and {IERC20-transfer}."
      },
      "decreaseAllowance(address,uint256)": {
        "details": "Atomically decreases the allowance granted to `spender` by the caller.     * This is an alternative to {approve} that can be used as a mitigation for problems described in {IERC20-approve}.     * Emits an {Approval} event indicating the updated allowance.     * Requirements:     * - `spender` cannot be the zero address. - `spender` must have allowance for the caller of at least `subtractedValue`."
      },
      "getInputPrice(uint256,uint256,uint256)": {
        "details": "gets the input price (amount of tokens bought)"
      },
      "getOutputPrice(uint256,uint256,uint256)": {
        "details": "gets the output price (amount of eth sold)"
      },
      "increaseAllowance(address,uint256)": {
        "details": "Atomically increases the allowance granted to `spender` by the caller.     * This is an alternative to {approve} that can be used as a mitigation for problems described in {IERC20-approve}.     * Emits an {Approval} event indicating the updated allowance.     * Requirements:     * - `spender` cannot be the zero address."
      },
      "name()": {
        "details": "Returns the name of the token."
      },
      "removeLiquidity(uint256,uint256,uint256)": {
        "details": "removes option tokens and ether from reserves, burns ePulp, and sends to user"
      },
      "swapEthToTokens(uint256)": {
        "details": "sells eth for option tokens"
      },
      "swapTokensToEth(uint256,uint256,address)": {
        "details": "sells option tokens for eth"
      },
      "symbol()": {
        "details": "Returns the symbol of the token, usually a shorter version of the name."
      },
      "tokensToEth(uint256,uint256,address,address)": {
        "details": "sells option tokens for eth"
      },
      "totalSupply()": {
        "details": "See {IERC20-totalSupply}."
      },
      "transfer(address,uint256)": {
        "details": "See {IERC20-transfer}.     * Requirements:     * - `recipient` cannot be the zero address. - the caller must have a balance of at least `amount`."
      },
      "transferFrom(address,address,uint256)": {
        "details": "See {IERC20-transferFrom}.     * Emits an {Approval} event indicating the updated allowance. This is not required by the EIP. See the note at the beginning of {ERC20};     * Requirements: - `sender` and `recipient` cannot be the zero address. - `sender` must have a balance of at least `amount`. - the caller must have allowance for `sender`'s tokens of at least `amount`."
      }
    }
  },
  "userdoc": {
    "methods": {}
  }
}