{
  "contractName": "PrimeERC20",
  "abi": [
    {
      "inputs": [
        {
          "internalType": "address",
          "name": "prime",
          "type": "address"
        }
      ],
      "stateMutability": "nonpayable",
      "type": "constructor"
    },
    {
      "anonymous": false,
      "inputs": [
        {
          "indexed": true,
          "internalType": "address",
          "name": "owner",
          "type": "address"
        },
        {
          "indexed": true,
          "internalType": "address",
          "name": "spender",
          "type": "address"
        },
        {
          "indexed": false,
          "internalType": "uint256",
          "name": "value",
          "type": "uint256"
        }
      ],
      "name": "Approval",
      "type": "event"
    },
    {
      "anonymous": false,
      "inputs": [
        {
          "indexed": true,
          "internalType": "address",
          "name": "from",
          "type": "address"
        },
        {
          "indexed": true,
          "internalType": "address",
          "name": "to",
          "type": "address"
        },
        {
          "indexed": false,
          "internalType": "uint256",
          "name": "value",
          "type": "uint256"
        }
      ],
      "name": "Transfer",
      "type": "event"
    },
    {
      "inputs": [],
      "name": "_controller",
      "outputs": [
        {
          "internalType": "address",
          "name": "",
          "type": "address"
        }
      ],
      "stateMutability": "view",
      "type": "function"
    },
    {
      "inputs": [],
      "name": "_ePool",
      "outputs": [
        {
          "internalType": "contract IEPool",
          "name": "",
          "type": "address"
        }
      ],
      "stateMutability": "view",
      "type": "function"
    },
    {
      "inputs": [],
      "name": "_ePoolAddress",
      "outputs": [
        {
          "internalType": "address",
          "name": "",
          "type": "address"
        }
      ],
      "stateMutability": "view",
      "type": "function"
    },
    {
      "inputs": [],
      "name": "_parentToken",
      "outputs": [
        {
          "internalType": "uint256",
          "name": "",
          "type": "uint256"
        }
      ],
      "stateMutability": "view",
      "type": "function"
    },
    {
      "inputs": [],
      "name": "_prime",
      "outputs": [
        {
          "internalType": "contract IPrime",
          "name": "",
          "type": "address"
        }
      ],
      "stateMutability": "view",
      "type": "function"
    },
    {
      "inputs": [],
      "name": "_primeAddress",
      "outputs": [
        {
          "internalType": "address",
          "name": "",
          "type": "address"
        }
      ],
      "stateMutability": "view",
      "type": "function"
    },
    {
      "inputs": [],
      "name": "_properties",
      "outputs": [
        {
          "internalType": "address",
          "name": "writer",
          "type": "address"
        },
        {
          "internalType": "uint256",
          "name": "qUnderlying",
          "type": "uint256"
        },
        {
          "internalType": "address",
          "name": "aUnderlying",
          "type": "address"
        },
        {
          "internalType": "uint256",
          "name": "qStrike",
          "type": "uint256"
        },
        {
          "internalType": "address",
          "name": "aStrike",
          "type": "address"
        },
        {
          "internalType": "uint256",
          "name": "tExpiry",
          "type": "uint256"
        },
        {
          "internalType": "address",
          "name": "receiver",
          "type": "address"
        },
        {
          "internalType": "bytes4",
          "name": "series",
          "type": "bytes4"
        },
        {
          "internalType": "bytes4",
          "name": "symbol",
          "type": "bytes4"
        }
      ],
      "stateMutability": "view",
      "type": "function"
    },
    {
      "inputs": [],
      "name": "_rPulp",
      "outputs": [
        {
          "internalType": "contract IRPulp",
          "name": "",
          "type": "address"
        }
      ],
      "stateMutability": "view",
      "type": "function"
    },
    {
      "inputs": [],
      "name": "_ratio",
      "outputs": [
        {
          "internalType": "uint256",
          "name": "",
          "type": "uint256"
        }
      ],
      "stateMutability": "view",
      "type": "function"
    },
    {
      "inputs": [],
      "name": "_strike",
      "outputs": [
        {
          "internalType": "contract ERC20",
          "name": "",
          "type": "address"
        }
      ],
      "stateMutability": "view",
      "type": "function"
    },
    {
      "inputs": [],
      "name": "_strikeAddress",
      "outputs": [
        {
          "internalType": "address",
          "name": "",
          "type": "address"
        }
      ],
      "stateMutability": "view",
      "type": "function"
    },
    {
      "inputs": [],
      "name": "_test",
      "outputs": [
        {
          "internalType": "uint256",
          "name": "",
          "type": "uint256"
        }
      ],
      "stateMutability": "view",
      "type": "function"
    },
    {
      "inputs": [],
      "name": "_test2",
      "outputs": [
        {
          "internalType": "uint256",
          "name": "",
          "type": "uint256"
        }
      ],
      "stateMutability": "view",
      "type": "function"
    },
    {
      "inputs": [],
      "name": "_underlying",
      "outputs": [
        {
          "internalType": "contract ERC20",
          "name": "",
          "type": "address"
        }
      ],
      "stateMutability": "view",
      "type": "function"
    },
    {
      "inputs": [
        {
          "internalType": "address",
          "name": "owner",
          "type": "address"
        },
        {
          "internalType": "address",
          "name": "spender",
          "type": "address"
        }
      ],
      "name": "allowance",
      "outputs": [
        {
          "internalType": "uint256",
          "name": "",
          "type": "uint256"
        }
      ],
      "stateMutability": "view",
      "type": "function"
    },
    {
      "inputs": [
        {
          "internalType": "address",
          "name": "spender",
          "type": "address"
        },
        {
          "internalType": "uint256",
          "name": "amount",
          "type": "uint256"
        }
      ],
      "name": "approve",
      "outputs": [
        {
          "internalType": "bool",
          "name": "",
          "type": "bool"
        }
      ],
      "stateMutability": "nonpayable",
      "type": "function"
    },
    {
      "inputs": [
        {
          "internalType": "address",
          "name": "account",
          "type": "address"
        }
      ],
      "name": "balanceOf",
      "outputs": [
        {
          "internalType": "uint256",
          "name": "",
          "type": "uint256"
        }
      ],
      "stateMutability": "view",
      "type": "function"
    },
    {
      "inputs": [],
      "name": "decimals",
      "outputs": [
        {
          "internalType": "uint8",
          "name": "",
          "type": "uint8"
        }
      ],
      "stateMutability": "view",
      "type": "function"
    },
    {
      "inputs": [
        {
          "internalType": "address",
          "name": "spender",
          "type": "address"
        },
        {
          "internalType": "uint256",
          "name": "subtractedValue",
          "type": "uint256"
        }
      ],
      "name": "decreaseAllowance",
      "outputs": [
        {
          "internalType": "bool",
          "name": "",
          "type": "bool"
        }
      ],
      "stateMutability": "nonpayable",
      "type": "function"
    },
    {
      "inputs": [
        {
          "internalType": "address",
          "name": "spender",
          "type": "address"
        },
        {
          "internalType": "uint256",
          "name": "addedValue",
          "type": "uint256"
        }
      ],
      "name": "increaseAllowance",
      "outputs": [
        {
          "internalType": "bool",
          "name": "",
          "type": "bool"
        }
      ],
      "stateMutability": "nonpayable",
      "type": "function"
    },
    {
      "inputs": [],
      "name": "name",
      "outputs": [
        {
          "internalType": "string",
          "name": "",
          "type": "string"
        }
      ],
      "stateMutability": "view",
      "type": "function"
    },
    {
      "inputs": [],
      "name": "symbol",
      "outputs": [
        {
          "internalType": "string",
          "name": "",
          "type": "string"
        }
      ],
      "stateMutability": "view",
      "type": "function"
    },
    {
      "inputs": [],
      "name": "totalSupply",
      "outputs": [
        {
          "internalType": "uint256",
          "name": "",
          "type": "uint256"
        }
      ],
      "stateMutability": "view",
      "type": "function"
    },
    {
      "inputs": [
        {
          "internalType": "address",
          "name": "recipient",
          "type": "address"
        },
        {
          "internalType": "uint256",
          "name": "amount",
          "type": "uint256"
        }
      ],
      "name": "transfer",
      "outputs": [
        {
          "internalType": "bool",
          "name": "",
          "type": "bool"
        }
      ],
      "stateMutability": "nonpayable",
      "type": "function"
    },
    {
      "inputs": [
        {
          "internalType": "address",
          "name": "sender",
          "type": "address"
        },
        {
          "internalType": "address",
          "name": "recipient",
          "type": "address"
        },
        {
          "internalType": "uint256",
          "name": "amount",
          "type": "uint256"
        }
      ],
      "name": "transferFrom",
      "outputs": [
        {
          "internalType": "bool",
          "name": "",
          "type": "bool"
        }
      ],
      "stateMutability": "nonpayable",
      "type": "function"
    },
    {
      "stateMutability": "payable",
      "type": "receive"
    },
    {
      "inputs": [
        {
          "internalType": "uint256",
          "name": "tokenId",
          "type": "uint256"
        }
      ],
      "name": "setParentToken",
      "outputs": [
        {
          "internalType": "uint256",
          "name": "",
          "type": "uint256"
        }
      ],
      "stateMutability": "nonpayable",
      "type": "function"
    },
    {
      "inputs": [
        {
          "internalType": "address",
          "name": "rPulp",
          "type": "address"
        }
      ],
      "name": "setPulp",
      "outputs": [
        {
          "internalType": "bool",
          "name": "",
          "type": "bool"
        }
      ],
      "stateMutability": "nonpayable",
      "type": "function"
    },
    {
      "inputs": [
        {
          "internalType": "address",
          "name": "ePool",
          "type": "address"
        }
      ],
      "name": "setPool",
      "outputs": [
        {
          "internalType": "bool",
          "name": "",
          "type": "bool"
        }
      ],
      "stateMutability": "nonpayable",
      "type": "function"
    },
    {
      "inputs": [],
      "name": "deposit",
      "outputs": [
        {
          "internalType": "bool",
          "name": "",
          "type": "bool"
        }
      ],
      "stateMutability": "payable",
      "type": "function"
    },
    {
      "inputs": [],
      "name": "depositAndSell",
      "outputs": [
        {
          "internalType": "uint256",
          "name": "",
          "type": "uint256"
        }
      ],
      "stateMutability": "payable",
      "type": "function"
    },
    {
      "inputs": [
        {
          "internalType": "uint256",
          "name": "qUnderlying",
          "type": "uint256"
        }
      ],
      "name": "swap",
      "outputs": [
        {
          "internalType": "bool",
          "name": "",
          "type": "bool"
        }
      ],
      "stateMutability": "nonpayable",
      "type": "function"
    },
    {
      "inputs": [
        {
          "internalType": "uint256",
          "name": "qUnderlying",
          "type": "uint256"
        }
      ],
      "name": "withdraw",
      "outputs": [
        {
          "internalType": "uint256",
          "name": "",
          "type": "uint256"
        }
      ],
      "stateMutability": "nonpayable",
      "type": "function"
    },
    {
      "inputs": [
        {
          "internalType": "uint256",
          "name": "qUnderlying",
          "type": "uint256"
        }
      ],
      "name": "close",
      "outputs": [
        {
          "internalType": "bool",
          "name": "",
          "type": "bool"
        }
      ],
      "stateMutability": "nonpayable",
      "type": "function"
    }
  ],
  "bytecode": "0x60806040523480156200001157600080fd5b50604051620039a4380380620039a4833981810160405260208110156200003757600080fd5b81019080805190602001909291905050506040518060400160405280601281526020017f5072696d65204f7074696f6e20546f6b656e00000000000000000000000000008152506040518060400160405280600581526020017f5072696d6500000000000000000000000000000000000000000000000000000081525060128260009080519060200190620000ce929190620001d0565b508160019080519060200190620000e7929190620001d0565b5080600260006101000a81548160ff021916908360ff16021790555050505080600760006101000a81548173ffffffffffffffffffffffffffffffffffffffff021916908373ffffffffffffffffffffffffffffffffffffffff16021790555080600860006101000a81548173ffffffffffffffffffffffffffffffffffffffff021916908373ffffffffffffffffffffffffffffffffffffffff16021790555033601060006101000a81548173ffffffffffffffffffffffffffffffffffffffff021916908373ffffffffffffffffffffffffffffffffffffffff160217905550506200027f565b828054600181600116156101000203166002900490600052602060002090601f016020900481019282601f106200021357805160ff191683800117855562000244565b8280016001018555821562000244579182015b828111156200024357825182559160200191906001019062000226565b5b50905062000253919062000257565b5090565b6200027c91905b80821115620002785760008160009055506001016200025e565b5090565b90565b613715806200028f6000396000f3fe6080604052600436106101f25760003560e01c806378c316ee1161010d578063c8c17d81116100a0578063d76224f21161006f578063d76224f214610c78578063dd3f952614610ce1578063dd62ed3e14610d38578063e07acf1714610dbd578063fdab706c14610e14576101f9565b8063c8c17d8114610a71578063c8e9837314610a9c578063d0e30db014610ac7578063d36f14e714610ae9576101f9565b8063a457c2d7116100dc578063a457c2d714610909578063a6246d091461097c578063a9059cbb146109a7578063bdf7d34514610a1a576101f9565b806378c316ee1461077857806394b918de146107cf57806395d89b41146108225780639e573665146108b2576101f9565b80632e1a7d4d116101855780634330301f116101545780634330301f146106285780634437152a146106535780636e38ea7a146106bc57806370a0823114610713576101f9565b80632e1a7d4d146104de5780632ebc7b651461052d578063313ce5671461058457806339509351146105b5576101f9565b8063177e01fe116101c1578063177e01fe146103ab57806318160ddd146103c957806323b872dd146103f45780632dc98c0414610487576101f9565b806306fdde03146101fe578063095ea7b31461028e5780630aebeb4e14610301578063162e160814610354576101f9565b366101f957005b600080fd5b34801561020a57600080fd5b50610213610e63565b6040518080602001828103825283818151815260200191508051906020019080838360005b83811015610253578082015181840152602081019050610238565b50505050905090810190601f1680156102805780820380516001836020036101000a031916815260200191505b509250505060405180910390f35b34801561029a57600080fd5b506102e7600480360360408110156102b157600080fd5b81019080803573ffffffffffffffffffffffffffffffffffffffff16906020019092919080359060200190929190505050610f05565b604051808215151515815260200191505060405180910390f35b34801561030d57600080fd5b5061033a6004803603602081101561032457600080fd5b8101908080359060200190929190505050610f23565b604051808215151515815260200191505060405180910390f35b34801561036057600080fd5b5061036961122b565b604051808273ffffffffffffffffffffffffffffffffffffffff1673ffffffffffffffffffffffffffffffffffffffff16815260200191505060405180910390f35b6103b3611251565b6040518082815260200191505060405180910390f35b3480156103d557600080fd5b506103de611674565b6040518082815260200191505060405180910390f35b34801561040057600080fd5b5061046d6004803603606081101561041757600080fd5b81019080803573ffffffffffffffffffffffffffffffffffffffff169060200190929190803573ffffffffffffffffffffffffffffffffffffffff1690602001909291908035906020019092919050505061167e565b604051808215151515815260200191505060405180910390f35b34801561049357600080fd5b5061049c611757565b604051808273ffffffffffffffffffffffffffffffffffffffff1673ffffffffffffffffffffffffffffffffffffffff16815260200191505060405180910390f35b3480156104ea57600080fd5b506105176004803603602081101561050157600080fd5b810190808035906020019092919050505061177d565b6040518082815260200191505060405180910390f35b34801561053957600080fd5b50610542611c28565b604051808273ffffffffffffffffffffffffffffffffffffffff1673ffffffffffffffffffffffffffffffffffffffff16815260200191505060405180910390f35b34801561059057600080fd5b50610599611c4e565b604051808260ff1660ff16815260200191505060405180910390f35b3480156105c157600080fd5b5061060e600480360360408110156105d857600080fd5b81019080803573ffffffffffffffffffffffffffffffffffffffff16906020019092919080359060200190929190505050611c65565b604051808215151515815260200191505060405180910390f35b34801561063457600080fd5b5061063d611d18565b6040518082815260200191505060405180910390f35b34801561065f57600080fd5b506106a26004803603602081101561067657600080fd5b81019080803573ffffffffffffffffffffffffffffffffffffffff169060200190929190505050611d1e565b604051808215151515815260200191505060405180910390f35b3480156106c857600080fd5b506106d1611dc0565b604051808273ffffffffffffffffffffffffffffffffffffffff1673ffffffffffffffffffffffffffffffffffffffff16815260200191505060405180910390f35b34801561071f57600080fd5b506107626004803603602081101561073657600080fd5b81019080803573ffffffffffffffffffffffffffffffffffffffff169060200190929190505050611de6565b6040518082815260200191505060405180910390f35b34801561078457600080fd5b5061078d611e2f565b604051808273ffffffffffffffffffffffffffffffffffffffff1673ffffffffffffffffffffffffffffffffffffffff16815260200191505060405180910390f35b3480156107db57600080fd5b50610808600480360360208110156107f257600080fd5b8101908080359060200190929190505050611e55565b604051808215151515815260200191505060405180910390f35b34801561082e57600080fd5b5061083761218c565b6040518080602001828103825283818151815260200191508051906020019080838360005b8381101561087757808201518184015260208101905061085c565b50505050905090810190601f1680156108a45780820380516001836020036101000a031916815260200191505b509250505060405180910390f35b3480156108be57600080fd5b506108c761222e565b604051808273ffffffffffffffffffffffffffffffffffffffff1673ffffffffffffffffffffffffffffffffffffffff16815260200191505060405180910390f35b34801561091557600080fd5b506109626004803603604081101561092c57600080fd5b81019080803573ffffffffffffffffffffffffffffffffffffffff16906020019092919080359060200190929190505050612254565b604051808215151515815260200191505060405180910390f35b34801561098857600080fd5b50610991612321565b6040518082815260200191505060405180910390f35b3480156109b357600080fd5b50610a00600480360360408110156109ca57600080fd5b81019080803573ffffffffffffffffffffffffffffffffffffffff16906020019092919080359060200190929190505050612327565b604051808215151515815260200191505060405180910390f35b348015610a2657600080fd5b50610a2f612345565b604051808273ffffffffffffffffffffffffffffffffffffffff1673ffffffffffffffffffffffffffffffffffffffff16815260200191505060405180910390f35b348015610a7d57600080fd5b50610a8661236b565b6040518082815260200191505060405180910390f35b348015610aa857600080fd5b50610ab1612371565b6040518082815260200191505060405180910390f35b610acf612377565b604051808215151515815260200191505060405180910390f35b348015610af557600080fd5b50610afe612512565b604051808a73ffffffffffffffffffffffffffffffffffffffff1673ffffffffffffffffffffffffffffffffffffffff1681526020018981526020018873ffffffffffffffffffffffffffffffffffffffff1673ffffffffffffffffffffffffffffffffffffffff1681526020018781526020018673ffffffffffffffffffffffffffffffffffffffff1673ffffffffffffffffffffffffffffffffffffffff1681526020018581526020018473ffffffffffffffffffffffffffffffffffffffff1673ffffffffffffffffffffffffffffffffffffffff168152602001837bffffffffffffffffffffffffffffffffffffffffffffffffffffffff19167bffffffffffffffffffffffffffffffffffffffffffffffffffffffff19168152602001827bffffffffffffffffffffffffffffffffffffffffffffffffffffffff19167bffffffffffffffffffffffffffffffffffffffffffffffffffffffff19168152602001995050505050505050505060405180910390f35b348015610c8457600080fd5b50610cc760048036036020811015610c9b57600080fd5b81019080803573ffffffffffffffffffffffffffffffffffffffff1690602001909291905050506125e8565b604051808215151515815260200191505060405180910390f35b348015610ced57600080fd5b50610cf6612634565b604051808273ffffffffffffffffffffffffffffffffffffffff1673ffffffffffffffffffffffffffffffffffffffff16815260200191505060405180910390f35b348015610d4457600080fd5b50610da760048036036040811015610d5b57600080fd5b81019080803573ffffffffffffffffffffffffffffffffffffffff169060200190929190803573ffffffffffffffffffffffffffffffffffffffff16906020019092919050505061265a565b6040518082815260200191505060405180910390f35b348015610dc957600080fd5b50610dd26126e1565b604051808273ffffffffffffffffffffffffffffffffffffffff1673ffffffffffffffffffffffffffffffffffffffff16815260200191505060405180910390f35b348015610e2057600080fd5b50610e4d60048036036020811015610e3757600080fd5b8101908080359060200190929190505050612707565b6040518082815260200191505060405180910390f35b606060008054600181600116156101000203166002900480601f016020809104026020016040519081016040528092919081815260200182805460018160011615610100020316600290048015610efb5780601f10610ed057610100808354040283529160200191610efb565b820191906000526020600020905b815481529060010190602001808311610ede57829003601f168201915b5050505050905090565b6000610f19610f1261290b565b8484612913565b6001905092915050565b600080601360009054906101000a900473ffffffffffffffffffffffffffffffffffffffff1673ffffffffffffffffffffffffffffffffffffffff166370a08231336040518263ffffffff1660e01b8152600401808273ffffffffffffffffffffffffffffffffffffffff1673ffffffffffffffffffffffffffffffffffffffff16815260200191505060206040518083038186803b158015610fc557600080fd5b505afa158015610fd9573d6000803e3d6000fd5b505050506040513d6020811015610fef57600080fd5b810190808051906020019092919050505090506000611033670de0b6b3a764000061102560175487612b0a90919063ffffffff16565b612b9090919063ffffffff16565b9050808210156110ab576040517f08c379a000000000000000000000000000000000000000000000000000000000815260040180806020018281038252600c8152602001807f4552525f42414c5f50554c50000000000000000000000000000000000000000081525060200191505060405180910390fd5b836110b533611de6565b1015611129576040517f08c379a00000000000000000000000000000000000000000000000000000000081526004018080602001828103825260098152602001807f4552525f42414c5f50000000000000000000000000000000000000000000000081525060200191505060405180910390fd5b601360009054906101000a900473ffffffffffffffffffffffffffffffffffffffff1673ffffffffffffffffffffffffffffffffffffffff16639dc29fac33836040518363ffffffff1660e01b8152600401808373ffffffffffffffffffffffffffffffffffffffff1673ffffffffffffffffffffffffffffffffffffffff16815260200182815260200192505050602060405180830381600087803b1580156111d257600080fd5b505af11580156111e6573d6000803e3d6000fd5b505050506040513d60208110156111fc57600080fd5b8101908080519060200190929190505050506112183385612bda565b6112223385612da0565b92505050919050565b601460009054906101000a900473ffffffffffffffffffffffffffffffffffffffff1681565b60008034116112c8576040517f08c379a000000000000000000000000000000000000000000000000000000000815260040180806020018281038252600e8152602001807f4552525f5a45524f5f56414c554500000000000000000000000000000000000081525060200191505060405180910390fd5b601360009054906101000a900473ffffffffffffffffffffffffffffffffffffffff1673ffffffffffffffffffffffffffffffffffffffff166340c10f1933611336670de0b6b3a764000061132860175434612b0a90919063ffffffff16565b612b9090919063ffffffff16565b6040518363ffffffff1660e01b8152600401808373ffffffffffffffffffffffffffffffffffffffff1673ffffffffffffffffffffffffffffffffffffffff16815260200182815260200192505050602060405180830381600087803b15801561139f57600080fd5b505af11580156113b3573d6000803e3d6000fd5b505050506040513d60208110156113c957600080fd5b8101908080519060200190929190505050506113e53034612e8f565b6000601460009054906101000a900473ffffffffffffffffffffffffffffffffffffffff1673ffffffffffffffffffffffffffffffffffffffff166389f2a87134601460009054906101000a900473ffffffffffffffffffffffffffffffffffffffff1673ffffffffffffffffffffffffffffffffffffffff16634bad95106040518163ffffffff1660e01b815260040160206040518083038186803b15801561148e57600080fd5b505afa1580156114a2573d6000803e3d6000fd5b505050506040513d60208110156114b857600080fd5b8101908080519060200190929190505050601560009054906101000a900473ffffffffffffffffffffffffffffffffffffffff1673ffffffffffffffffffffffffffffffffffffffff16316040518463ffffffff1660e01b815260040180848152602001838152602001828152602001935050505060206040518083038186803b15801561154557600080fd5b505afa158015611559573d6000803e3d6000fd5b505050506040513d602081101561156f57600080fd5b81019080805190602001909291905050509050601460009054906101000a900473ffffffffffffffffffffffffffffffffffffffff1673ffffffffffffffffffffffffffffffffffffffff1663d93968e13483336040518463ffffffff1660e01b8152600401808481526020018381526020018273ffffffffffffffffffffffffffffffffffffffff1673ffffffffffffffffffffffffffffffffffffffff1681526020019350505050602060405180830381600087803b15801561163357600080fd5b505af1158015611647573d6000803e3d6000fd5b505050506040513d602081101561165d57600080fd5b810190808051906020019092919050505091505090565b6000600554905090565b600061168b848484613058565b61174c8461169761290b565b6117478560405180606001604052806028815260200161362960289139600460008b73ffffffffffffffffffffffffffffffffffffffff1673ffffffffffffffffffffffffffffffffffffffff16815260200190815260200160002060006116fd61290b565b73ffffffffffffffffffffffffffffffffffffffff1673ffffffffffffffffffffffffffffffffffffffff1681526020019081526020016000205461331d9092919063ffffffff16565b612913565b600190509392505050565b601260009054906101000a900473ffffffffffffffffffffffffffffffffffffffff1681565b600080601360009054906101000a900473ffffffffffffffffffffffffffffffffffffffff1673ffffffffffffffffffffffffffffffffffffffff166370a08231336040518263ffffffff1660e01b8152600401808273ffffffffffffffffffffffffffffffffffffffff1673ffffffffffffffffffffffffffffffffffffffff16815260200191505060206040518083038186803b15801561181f57600080fd5b505afa158015611833573d6000803e3d6000fd5b505050506040513d602081101561184957600080fd5b81019080805190602001909291905050509050600061188d670de0b6b3a764000061187f60175487612b0a90919063ffffffff16565b612b9090919063ffffffff16565b905080821015611905576040517f08c379a000000000000000000000000000000000000000000000000000000000815260040180806020018281038252600c8152602001807f4552525f42414c5f50554c50000000000000000000000000000000000000000081525060200191505060405180910390fd5b80601260009054906101000a900473ffffffffffffffffffffffffffffffffffffffff1673ffffffffffffffffffffffffffffffffffffffff166370a08231306040518263ffffffff1660e01b8152600401808273ffffffffffffffffffffffffffffffffffffffff1673ffffffffffffffffffffffffffffffffffffffff16815260200191505060206040518083038186803b1580156119a557600080fd5b505afa1580156119b9573d6000803e3d6000fd5b505050506040513d60208110156119cf57600080fd5b81019080805190602001909291905050501015611a54576040517f08c379a00000000000000000000000000000000000000000000000000000000081526004018080602001828103825260098152602001807f4552525f42414c5f53000000000000000000000000000000000000000000000081525060200191505060405180910390fd5b601360009054906101000a900473ffffffffffffffffffffffffffffffffffffffff1673ffffffffffffffffffffffffffffffffffffffff16639dc29fac33836040518363ffffffff1660e01b8152600401808373ffffffffffffffffffffffffffffffffffffffff1673ffffffffffffffffffffffffffffffffffffffff16815260200182815260200192505050602060405180830381600087803b158015611afd57600080fd5b505af1158015611b11573d6000803e3d6000fd5b505050506040513d6020811015611b2757600080fd5b810190808051906020019092919050505050601260009054906101000a900473ffffffffffffffffffffffffffffffffffffffff1673ffffffffffffffffffffffffffffffffffffffff1663a9059cbb33836040518363ffffffff1660e01b8152600401808373ffffffffffffffffffffffffffffffffffffffff1673ffffffffffffffffffffffffffffffffffffffff16815260200182815260200192505050602060405180830381600087803b158015611be257600080fd5b505af1158015611bf6573d6000803e3d6000fd5b505050506040513d6020811015611c0c57600080fd5b8101908080519060200190929190505050508092505050919050565b601360009054906101000a900473ffffffffffffffffffffffffffffffffffffffff1681565b6000600260009054906101000a900460ff16905090565b6000611d0e611c7261290b565b84611d098560046000611c8361290b565b73ffffffffffffffffffffffffffffffffffffffff1673ffffffffffffffffffffffffffffffffffffffff16815260200190815260200160002060008973ffffffffffffffffffffffffffffffffffffffff1673ffffffffffffffffffffffffffffffffffffffff168152602001908152602001600020546133dd90919063ffffffff16565b612913565b6001905092915050565b60175481565b600081601460006101000a81548173ffffffffffffffffffffffffffffffffffffffff021916908373ffffffffffffffffffffffffffffffffffffffff16021790555081601560006101000a81548173ffffffffffffffffffffffffffffffffffffffff021916908373ffffffffffffffffffffffffffffffffffffffff160217905550611db7308369d3c21bcecceda1000000612913565b60019050919050565b601560009054906101000a900473ffffffffffffffffffffffffffffffffffffffff1681565b6000600360008373ffffffffffffffffffffffffffffffffffffffff1673ffffffffffffffffffffffffffffffffffffffff168152602001908152602001600020549050919050565b600760009054906101000a900473ffffffffffffffffffffffffffffffffffffffff1681565b600081611e6133611de6565b1015611ed5576040517f08c379a00000000000000000000000000000000000000000000000000000000081526004018080602001828103825260098152602001807f4552525f42414c5f50000000000000000000000000000000000000000000000081525060200191505060405180910390fd5b6000611f06670de0b6b3a7640000611ef860175486612b0a90919063ffffffff16565b612b9090919063ffffffff16565b905080601260009054906101000a900473ffffffffffffffffffffffffffffffffffffffff1673ffffffffffffffffffffffffffffffffffffffff166370a08231336040518263ffffffff1660e01b8152600401808273ffffffffffffffffffffffffffffffffffffffff1673ffffffffffffffffffffffffffffffffffffffff16815260200191505060206040518083038186803b158015611fa857600080fd5b505afa158015611fbc573d6000803e3d6000fd5b505050506040513d6020811015611fd257600080fd5b81019080805190602001909291905050501015612057576040517f08c379a00000000000000000000000000000000000000000000000000000000081526004018080602001828103825260098152602001807f4552525f42414c5f53000000000000000000000000000000000000000000000081525060200191505060405180910390fd5b6120613384612bda565b601260009054906101000a900473ffffffffffffffffffffffffffffffffffffffff1673ffffffffffffffffffffffffffffffffffffffff166323b872dd3330846040518463ffffffff1660e01b8152600401808473ffffffffffffffffffffffffffffffffffffffff1673ffffffffffffffffffffffffffffffffffffffff1681526020018373ffffffffffffffffffffffffffffffffffffffff1673ffffffffffffffffffffffffffffffffffffffff1681526020018281526020019350505050602060405180830381600087803b15801561213e57600080fd5b505af1158015612152573d6000803e3d6000fd5b505050506040513d602081101561216857600080fd5b8101908080519060200190929190505050506121843384612da0565b915050919050565b606060018054600181600116156101000203166002900480601f0160208091040260200160405190810160405280929190818152602001828054600181600116156101000203166002900480156122245780601f106121f957610100808354040283529160200191612224565b820191906000526020600020905b81548152906001019060200180831161220757829003601f168201915b5050505050905090565b601160009054906101000a900473ffffffffffffffffffffffffffffffffffffffff1681565b600061231761226161290b565b84612312856040518060600160405280602581526020016136bb602591396004600061228b61290b565b73ffffffffffffffffffffffffffffffffffffffff1673ffffffffffffffffffffffffffffffffffffffff16815260200190815260200160002060008a73ffffffffffffffffffffffffffffffffffffffff1673ffffffffffffffffffffffffffffffffffffffff1681526020019081526020016000205461331d9092919063ffffffff16565b612913565b6001905092915050565b60185481565b600061233b61233461290b565b8484613058565b6001905092915050565b601660009054906101000a900473ffffffffffffffffffffffffffffffffffffffff1681565b60065481565b60195481565b60008034116123ee576040517f08c379a000000000000000000000000000000000000000000000000000000000815260040180806020018281038252600e8152602001807f4552525f5a45524f5f56414c554500000000000000000000000000000000000081525060200191505060405180910390fd5b601360009054906101000a900473ffffffffffffffffffffffffffffffffffffffff1673ffffffffffffffffffffffffffffffffffffffff166340c10f193361245c670de0b6b3a764000061244e60175434612b0a90919063ffffffff16565b612b9090919063ffffffff16565b6040518363ffffffff1660e01b8152600401808373ffffffffffffffffffffffffffffffffffffffff1673ffffffffffffffffffffffffffffffffffffffff16815260200182815260200192505050602060405180830381600087803b1580156124c557600080fd5b505af11580156124d9573d6000803e3d6000fd5b505050506040513d60208110156124ef57600080fd5b81019080805190602001909291905050505061250b3334612e8f565b6001905090565b60098060000160009054906101000a900473ffffffffffffffffffffffffffffffffffffffff16908060010154908060020160009054906101000a900473ffffffffffffffffffffffffffffffffffffffff16908060030154908060040160009054906101000a900473ffffffffffffffffffffffffffffffffffffffff16908060050154908060060160009054906101000a900473ffffffffffffffffffffffffffffffffffffffff16908060060160149054906101000a900460e01b908060060160189054906101000a900460e01b905089565b600081601360006101000a81548173ffffffffffffffffffffffffffffffffffffffff021916908373ffffffffffffffffffffffffffffffffffffffff16021790555060019050919050565b601060009054906101000a900473ffffffffffffffffffffffffffffffffffffffff1681565b6000600460008473ffffffffffffffffffffffffffffffffffffffff1673ffffffffffffffffffffffffffffffffffffffff16815260200190815260200160002060008373ffffffffffffffffffffffffffffffffffffffff1673ffffffffffffffffffffffffffffffffffffffff16815260200190815260200160002054905092915050565b600860009054906101000a900473ffffffffffffffffffffffffffffffffffffffff1681565b6000816006819055506000806000806000806000806000600860009054906101000a900473ffffffffffffffffffffffffffffffffffffffff1673ffffffffffffffffffffffffffffffffffffffff1663dc38daf88c6040518263ffffffff1660e01b8152600401808281526020019150506101206040518083038186803b15801561279257600080fd5b505afa1580156127a6573d6000803e3d6000fd5b505050506040513d6101208110156127bd57600080fd5b8101908080519060200190929190805190602001909291908051906020019092919080519060200190929190805190602001909291908051906020019092919080519060200190929190805190602001909291908051906020019092919050505098509850985098509850985098509850985086601160006101000a81548173ffffffffffffffffffffffffffffffffffffffff021916908373ffffffffffffffffffffffffffffffffffffffff16021790555084601260006101000a81548173ffffffffffffffffffffffffffffffffffffffff021916908373ffffffffffffffffffffffffffffffffffffffff16021790555084601660006101000a81548173ffffffffffffffffffffffffffffffffffffffff021916908373ffffffffffffffffffffffffffffffffffffffff160217905550856017819055508a9950505050505050505050919050565b600033905090565b600073ffffffffffffffffffffffffffffffffffffffff168373ffffffffffffffffffffffffffffffffffffffff161415612999576040517f08c379a00000000000000000000000000000000000000000000000000000000081526004018080602001828103825260248152602001806136976024913960400191505060405180910390fd5b600073ffffffffffffffffffffffffffffffffffffffff168273ffffffffffffffffffffffffffffffffffffffff161415612a1f576040517f08c379a00000000000000000000000000000000000000000000000000000000081526004018080602001828103825260228152602001806135c06022913960400191505060405180910390fd5b80600460008573ffffffffffffffffffffffffffffffffffffffff1673ffffffffffffffffffffffffffffffffffffffff16815260200190815260200160002060008473ffffffffffffffffffffffffffffffffffffffff1673ffffffffffffffffffffffffffffffffffffffff168152602001908152602001600020819055508173ffffffffffffffffffffffffffffffffffffffff168373ffffffffffffffffffffffffffffffffffffffff167f8c5be1e5ebec7d5bd14f71427d1e84f3dd0314c0f7b2291e5b200ac8c7c3b925836040518082815260200191505060405180910390a3505050565b600080831415612b1d5760009050612b8a565b6000828402905082848281612b2e57fe5b0414612b85576040517f08c379a00000000000000000000000000000000000000000000000000000000081526004018080602001828103825260218152602001806136086021913960400191505060405180910390fd5b809150505b92915050565b6000612bd283836040518060400160405280601a81526020017f536166654d6174683a206469766973696f6e206279207a65726f000000000000815250613465565b905092915050565b600073ffffffffffffffffffffffffffffffffffffffff168273ffffffffffffffffffffffffffffffffffffffff161415612c60576040517f08c379a00000000000000000000000000000000000000000000000000000000081526004018080602001828103825260218152602001806136516021913960400191505060405180910390fd5b612c6c8260008361352b565b612cd88160405180606001604052806022815260200161359e60229139600360008673ffffffffffffffffffffffffffffffffffffffff1673ffffffffffffffffffffffffffffffffffffffff1681526020019081526020016000205461331d9092919063ffffffff16565b600360008473ffffffffffffffffffffffffffffffffffffffff1673ffffffffffffffffffffffffffffffffffffffff16815260200190815260200160002081905550612d308160055461353090919063ffffffff16565b600581905550600073ffffffffffffffffffffffffffffffffffffffff168273ffffffffffffffffffffffffffffffffffffffff167fddf252ad1be2c89b69c2b068fc378daa952ba7f163c4a11628f55a4df523b3ef836040518082815260200191505060405180910390a35050565b60008160188190555060008373ffffffffffffffffffffffffffffffffffffffff168360405180600001905060006040518083038185875af1925050503d8060008114612e09576040519150601f19603f3d011682016040523d82523d6000602084013e612e0e565b606091505b5050905080612e85576040517f08c379a000000000000000000000000000000000000000000000000000000000815260040180806020018281038252600f8152602001807f53656e64206574686572206661696c000000000000000000000000000000000081525060200191505060405180910390fd5b8091505092915050565b600073ffffffffffffffffffffffffffffffffffffffff168273ffffffffffffffffffffffffffffffffffffffff161415612f32576040517f08c379a000000000000000000000000000000000000000000000000000000000815260040180806020018281038252601f8152602001807f45524332303a206d696e7420746f20746865207a65726f20616464726573730081525060200191505060405180910390fd5b612f3e6000838361352b565b612f53816005546133dd90919063ffffffff16565b600581905550612fab81600360008573ffffffffffffffffffffffffffffffffffffffff1673ffffffffffffffffffffffffffffffffffffffff168152602001908152602001600020546133dd90919063ffffffff16565b600360008473ffffffffffffffffffffffffffffffffffffffff1673ffffffffffffffffffffffffffffffffffffffff168152602001908152602001600020819055508173ffffffffffffffffffffffffffffffffffffffff16600073ffffffffffffffffffffffffffffffffffffffff167fddf252ad1be2c89b69c2b068fc378daa952ba7f163c4a11628f55a4df523b3ef836040518082815260200191505060405180910390a35050565b600073ffffffffffffffffffffffffffffffffffffffff168373ffffffffffffffffffffffffffffffffffffffff1614156130de576040517f08c379a00000000000000000000000000000000000000000000000000000000081526004018080602001828103825260258152602001806136726025913960400191505060405180910390fd5b600073ffffffffffffffffffffffffffffffffffffffff168273ffffffffffffffffffffffffffffffffffffffff161415613164576040517f08c379a000000000000000000000000000000000000000000000000000000000815260040180806020018281038252602381526020018061357b6023913960400191505060405180910390fd5b61316f83838361352b565b6131db816040518060600160405280602681526020016135e260269139600360008773ffffffffffffffffffffffffffffffffffffffff1673ffffffffffffffffffffffffffffffffffffffff1681526020019081526020016000205461331d9092919063ffffffff16565b600360008573ffffffffffffffffffffffffffffffffffffffff1673ffffffffffffffffffffffffffffffffffffffff1681526020019081526020016000208190555061327081600360008573ffffffffffffffffffffffffffffffffffffffff1673ffffffffffffffffffffffffffffffffffffffff168152602001908152602001600020546133dd90919063ffffffff16565b600360008473ffffffffffffffffffffffffffffffffffffffff1673ffffffffffffffffffffffffffffffffffffffff168152602001908152602001600020819055508173ffffffffffffffffffffffffffffffffffffffff168373ffffffffffffffffffffffffffffffffffffffff167fddf252ad1be2c89b69c2b068fc378daa952ba7f163c4a11628f55a4df523b3ef836040518082815260200191505060405180910390a3505050565b60008383111582906133ca576040517f08c379a00000000000000000000000000000000000000000000000000000000081526004018080602001828103825283818151815260200191508051906020019080838360005b8381101561338f578082015181840152602081019050613374565b50505050905090810190601f1680156133bc5780820380516001836020036101000a031916815260200191505b509250505060405180910390fd5b5060008385039050809150509392505050565b60008082840190508381101561345b576040517f08c379a000000000000000000000000000000000000000000000000000000000815260040180806020018281038252601b8152602001807f536166654d6174683a206164646974696f6e206f766572666c6f77000000000081525060200191505060405180910390fd5b8091505092915050565b60008083118290613511576040517f08c379a00000000000000000000000000000000000000000000000000000000081526004018080602001828103825283818151815260200191508051906020019080838360005b838110156134d65780820151818401526020810190506134bb565b50505050905090810190601f1680156135035780820380516001836020036101000a031916815260200191505b509250505060405180910390fd5b50600083858161351d57fe5b049050809150509392505050565b505050565b600061357283836040518060400160405280601e81526020017f536166654d6174683a207375627472616374696f6e206f766572666c6f77000081525061331d565b90509291505056fe45524332303a207472616e7366657220746f20746865207a65726f206164647265737345524332303a206275726e20616d6f756e7420657863656564732062616c616e636545524332303a20617070726f766520746f20746865207a65726f206164647265737345524332303a207472616e7366657220616d6f756e7420657863656564732062616c616e6365536166654d6174683a206d756c7469706c69636174696f6e206f766572666c6f7745524332303a207472616e7366657220616d6f756e74206578636565647320616c6c6f77616e636545524332303a206275726e2066726f6d20746865207a65726f206164647265737345524332303a207472616e736665722066726f6d20746865207a65726f206164647265737345524332303a20617070726f76652066726f6d20746865207a65726f206164647265737345524332303a2064656372656173656420616c6c6f77616e63652062656c6f77207a65726fa2646970667358221220354a1b6993703ad01b69dcbe913fe59c45c66d42b466dd43c33a28e35f3f51ab64736f6c63430006020033",
  "source": "pragma solidity ^0.6.2;\r\n\r\n/**\r\n * @title Primitive's ERC-20 Option\r\n * @author Primitive\r\n */\r\n\r\nimport '@openzeppelin/contracts/token/ERC20/ERC20.sol';\r\nimport '@openzeppelin/contracts/token/ERC20/ERC20Detailed.sol';\r\nimport '@openzeppelin/contracts/math/SafeMath.sol';\r\nimport '../Instruments.sol';\r\nimport './InterfaceERC20.sol';\r\n\r\nabstract contract IRPulp {\r\n    function mint(address user, uint256 amount) public payable virtual returns (bool);\r\n    function burn(address user, uint256 amount) public payable virtual returns (bool);\r\n    function balanceOf(address user) public view virtual returns (uint);\r\n}\r\n\r\nabstract contract IEPool {\r\n    function addLiquidity(\r\n        uint256 minQLiquidity,\r\n        uint256 maxQTokens\r\n    ) public payable virtual returns(uint256);\r\n    function removeLiquidity(\r\n        uint256 qLiquidity,\r\n        uint256 minQEth,\r\n        uint256 minQTokens\r\n    ) public virtual returns (uint256, uint256);\r\n    function swapTokensToEth(\r\n        uint256 qTokens,\r\n        uint256 minQEth,\r\n        address payable receiver\r\n    ) public virtual returns (uint);\r\n    function swapEthToTokens(\r\n        uint256 qTokens\r\n    ) public payable virtual returns (uint256);\r\n    function getInputPrice(\r\n        uint256 qInput,\r\n        uint256 rInput,\r\n        uint256 rOutput\r\n    ) public view virtual returns (uint256);\r\n    function getOutputPrice(\r\n        uint256 qOutput,\r\n        uint256 rInput,\r\n        uint256 rOutput\r\n    ) public view virtual returns (uint256);\r\n    function tokenReserves() public view virtual returns (uint256);\r\n\r\n}\r\n\r\ncontract PrimeERC20 is ERC20Detailed(\"Prime Option Token\", \"Prime\", 18), ERC20 {\r\n    using SafeMath for uint256;\r\n\r\n    uint256 public _parentToken;\r\n    address public _primeAddress;\r\n    IPrime public _prime;\r\n    Instruments.Primes public _properties;\r\n    address public _controller;\r\n\r\n    ERC20 public _underlying;\r\n    ERC20 public _strike;\r\n    IRPulp public _rPulp;\r\n    IEPool public _ePool;\r\n    address public _ePoolAddress;\r\n    address public _strikeAddress;\r\n\r\n    uint256 public _ratio;\r\n    uint256 public _test;\r\n    uint256 public _test2;\r\n\r\n    constructor (address prime) public {\r\n        _primeAddress = prime;\r\n        _prime = IPrime(prime);\r\n        _controller = msg.sender;\r\n    }\r\n\r\n    receive() external payable {}\r\n\r\n    function setParentToken(uint256 tokenId) public returns(uint256) {\r\n        /* require(msg.sender == _controller, \"ERR_NOT_OWNER\"); */\r\n        _parentToken = tokenId;\r\n        (\r\n            address writer,\r\n            uint256 qUnderlying,\r\n            address aUnderlying,\r\n            uint256 qStrike,\r\n            address aStrike,\r\n            uint256 tExpiry,\r\n            address receiver,\r\n            bytes4 series,\r\n            bytes4 symbol\r\n        ) = _prime.getPrime(tokenId);\r\n        _underlying = ERC20(aUnderlying);\r\n        _strike = ERC20(aStrike);\r\n        _strikeAddress = aStrike;\r\n        _ratio = qStrike;\r\n        return tokenId;\r\n    }\r\n\r\n    function setPulp(address rPulp) public returns(bool) {\r\n        /* require(msg.sender == _controller, 'ERR_NOT_OWNER'); */ // OWNER IS OPTIONS.sol\r\n        _rPulp = IRPulp(rPulp);\r\n        return true;\r\n    }\r\n\r\n    function setPool(address ePool) public returns(bool) {\r\n        /* require(msg.sender == _controller, 'ERR_NOT_OWNER'); */ // OWNER IS OPTIONS.sol\r\n        _ePool = IEPool(ePool);\r\n        _ePoolAddress = ePool;\r\n        _approve(address(this), ePool, 1000000 ether);\r\n        return true;\r\n    }\r\n\r\n    /**\r\n     * @dev deposits underlying assets to mint prime options\r\n     */\r\n    function deposit() public payable returns (bool) {\r\n        require(msg.value > 0, \"ERR_ZERO_VALUE\");\r\n        // SWITCH TO RPULP\r\n        /* _liabilities[msg.sender] = _liabilities[msg.sender].add(msg.value);\r\n        _liability = _liability.add(msg.value); */\r\n\r\n        // mint rPulp equal to strike amount proportional to deposit\r\n        _rPulp.mint(\r\n            msg.sender,\r\n            msg.value\r\n                .mul(_ratio)\r\n                .div(1 ether)\r\n        );\r\n        \r\n        _mint(msg.sender, msg.value);\r\n        return true;\r\n    }\r\n\r\n    /**\r\n     * @dev deposits underlying assets to mint prime options which are sold to exchange pool\r\n     */\r\n    function depositAndSell() public payable returns (uint) {\r\n        require(msg.value > 0, \"ERR_ZERO_VALUE\");\r\n        _rPulp.mint(\r\n            msg.sender,\r\n            msg.value\r\n                .mul(_ratio)\r\n                .div(1 ether)\r\n        );\r\n        \r\n        _mint(\r\n            address(this), \r\n            msg.value\r\n        );\r\n\r\n        uint256 minPrice = _ePool.getInputPrice(\r\n            msg.value,\r\n            _ePool.tokenReserves(),\r\n            address(_ePoolAddress).balance\r\n        );\r\n        \r\n        return _ePool.swapTokensToEth(msg.value, minPrice, msg.sender);\r\n    }\r\n\r\n    /**\r\n     * @dev swaps strike assets to underlying assets and burns prime options\r\n     */\r\n    function swap(uint256 qUnderlying) public returns(bool) {\r\n        require(balanceOf(msg.sender) >= qUnderlying, \"ERR_BAL_P\");\r\n        uint256 qStrike = qUnderlying.mul(_ratio).div(1 ether);\r\n        require(_strike.balanceOf(msg.sender) >= qStrike, \"ERR_BAL_S\");\r\n\r\n        /* _asset = _asset.add(qStrike); */\r\n\r\n        _burn(msg.sender, qUnderlying);\r\n        _strike.transferFrom(msg.sender, address(this), qStrike);\r\n        return sendEther(msg.sender, qUnderlying);\r\n    }\r\n\r\n    /**\r\n     * @dev withdraws exercised strike assets\r\n     */\r\n    function withdraw(uint256 qUnderlying) public returns(uint) {\r\n        // SWAP TO RPULP\r\n        /* uint256 uL = _liabilities[msg.sender];\r\n        require(uL >= qUnderlying, \"ERR_BAL_L\");\r\n\r\n        uint256 sW = qUnderlying.mul(_asset).div(_liability);\r\n        _liabilities[msg.sender] = uL.sub(qUnderlying);\r\n        _liability = _liability.sub(qUnderlying); */\r\n\r\n        // gets deposit certificate of underlying\r\n        uint256 rPulpBalance = _rPulp.balanceOf(msg.sender);\r\n        uint256 qStrike = qUnderlying.mul(_ratio).div(1 ether);\r\n        // gets strike proportional to underlying and checks if enough is in contract\r\n        require(rPulpBalance >= qStrike, 'ERR_BAL_PULP');\r\n        require(_strike.balanceOf(address(this)) >= qStrike, \"ERR_BAL_S\");\r\n\r\n        // burns deposit certificate\r\n        _rPulp.burn(msg.sender, qStrike);\r\n\r\n        /* _asset = _asset.sub(sW); */\r\n        \r\n        _strike.transfer(msg.sender, qStrike);\r\n        return qStrike;\r\n    }\r\n\r\n    /**\r\n     * @dev burn prime options to withdraw original underlying asset deposits\r\n     */\r\n    function close(uint256 qUnderlying) public returns(bool) {\r\n        // SWAP TO PULP\r\n        /* uint256 uL = _liabilities[msg.sender];\r\n        require(uL >= qUnderlying, \"ERR_BAL_L\");\r\n        require(balanceOf(msg.sender) >= qUnderlying, \"ERR_BAL_P\");\r\n\r\n        _liabilities[msg.sender] = uL.sub(qUnderlying);\r\n        _liability = _liability.sub(qUnderlying); */\r\n\r\n        // gets deposit certificate of underlying\r\n        uint256 rPulpBalance = _rPulp.balanceOf(msg.sender);\r\n        uint256 qStrike = qUnderlying.mul(_ratio).div(1 ether);\r\n        // gets strike proportional to underlying and checks if enough is in contract\r\n        require(rPulpBalance >= qStrike, 'ERR_BAL_PULP');\r\n\r\n        // require prime options\r\n        require(balanceOf(msg.sender) >= qUnderlying, \"ERR_BAL_P\");\r\n\r\n        _rPulp.burn(msg.sender, qStrike);        \r\n        _burn(msg.sender, qUnderlying);\r\n        return sendEther(msg.sender, qUnderlying);\r\n    }\r\n\r\n    /**\r\n     @dev function to send ether with the most security\r\n     */\r\n    function sendEther(address payable user, uint256 amount) internal returns (bool) {\r\n        _test = amount;\r\n        (bool success, ) = user.call.value(amount)(\"\");\r\n        require(success, \"Send ether fail\");\r\n        return success;\r\n    }\r\n\r\n    function append(string memory a, string memory b, string memory c, string memory d, string memory e) internal pure returns (string memory) {\r\n        return string(abi.encodePacked(a, b, c, d, e));\r\n    }\r\n\r\n}",
  "sourcePath": "C:\\Users\\alexa\\OneDrive\\Documents\\Master\\Blockchain\\Projects\\carbon\\contracts\\ERC20\\PrimeERC20.sol",
  "compiler": {
    "name": "solc",
    "version": "0.6.2+commit.bacdbe57.Emscripten.clang"
  },
  "schemaVersion": "3.0.23",
  "updatedAt": "2020-04-12T23:24:18.882Z",
  "devdoc": {
    "methods": {
      "allowance(address,address)": {
        "details": "See {IERC20-allowance}."
      },
      "approve(address,uint256)": {
        "details": "See {IERC20-approve}.     * Requirements:     * - `spender` cannot be the zero address."
      },
      "balanceOf(address)": {
        "details": "See {IERC20-balanceOf}."
      },
      "close(uint256)": {
        "details": "burn prime options to withdraw original underlying asset deposits"
      },
      "decimals()": {
        "details": "Returns the number of decimals used to get its user representation. For example, if `decimals` equals `2`, a balance of `505` tokens should be displayed to a user as `5,05` (`505 / 10 ** 2`).     * Tokens usually opt for a value of 18, imitating the relationship between Ether and Wei.     * NOTE: This information is only used for _display_ purposes: it in no way affects any of the arithmetic of the contract, including {IERC20-balanceOf} and {IERC20-transfer}."
      },
      "decreaseAllowance(address,uint256)": {
        "details": "Atomically decreases the allowance granted to `spender` by the caller.     * This is an alternative to {approve} that can be used as a mitigation for problems described in {IERC20-approve}.     * Emits an {Approval} event indicating the updated allowance.     * Requirements:     * - `spender` cannot be the zero address. - `spender` must have allowance for the caller of at least `subtractedValue`."
      },
      "deposit()": {
        "details": "deposits underlying assets to mint prime options"
      },
      "depositAndSell()": {
        "details": "deposits underlying assets to mint prime options which are sold to exchange pool"
      },
      "increaseAllowance(address,uint256)": {
        "details": "Atomically increases the allowance granted to `spender` by the caller.     * This is an alternative to {approve} that can be used as a mitigation for problems described in {IERC20-approve}.     * Emits an {Approval} event indicating the updated allowance.     * Requirements:     * - `spender` cannot be the zero address."
      },
      "name()": {
        "details": "Returns the name of the token."
      },
      "swap(uint256)": {
        "details": "swaps strike assets to underlying assets and burns prime options"
      },
      "symbol()": {
        "details": "Returns the symbol of the token, usually a shorter version of the name."
      },
      "totalSupply()": {
        "details": "See {IERC20-totalSupply}."
      },
      "transfer(address,uint256)": {
        "details": "See {IERC20-transfer}.     * Requirements:     * - `recipient` cannot be the zero address. - the caller must have a balance of at least `amount`."
      },
      "transferFrom(address,address,uint256)": {
        "details": "See {IERC20-transferFrom}.     * Emits an {Approval} event indicating the updated allowance. This is not required by the EIP. See the note at the beginning of {ERC20};     * Requirements: - `sender` and `recipient` cannot be the zero address. - `sender` must have a balance of at least `amount`. - the caller must have allowance for `sender`'s tokens of at least `amount`."
      },
      "withdraw(uint256)": {
        "details": "withdraws exercised strike assets"
      }
    }
  },
  "userdoc": {
    "methods": {}
  }
}