{
  "contractName": "PrimeTrader",
  "abi": [
    {
      "inputs": [
        {
          "internalType": "address payable",
          "name": "_weth",
          "type": "address"
        }
      ],
      "stateMutability": "nonpayable",
      "type": "constructor"
    },
    {
      "inputs": [],
      "name": "DENOMINATOR",
      "outputs": [
        {
          "internalType": "uint256",
          "name": "",
          "type": "uint256"
        }
      ],
      "stateMutability": "view",
      "type": "function"
    },
    {
      "inputs": [],
      "name": "weth",
      "outputs": [
        {
          "internalType": "address payable",
          "name": "",
          "type": "address"
        }
      ],
      "stateMutability": "view",
      "type": "function"
    },
    {
      "inputs": [
        {
          "internalType": "address",
          "name": "tokenP",
          "type": "address"
        },
        {
          "internalType": "uint256",
          "name": "amount",
          "type": "uint256"
        },
        {
          "internalType": "address",
          "name": "receiver",
          "type": "address"
        }
      ],
      "name": "safeMint",
      "outputs": [
        {
          "internalType": "uint256",
          "name": "inTokenU",
          "type": "uint256"
        },
        {
          "internalType": "uint256",
          "name": "outTokenR",
          "type": "uint256"
        }
      ],
      "stateMutability": "nonpayable",
      "type": "function"
    },
    {
      "inputs": [
        {
          "internalType": "address",
          "name": "tokenP",
          "type": "address"
        },
        {
          "internalType": "uint256",
          "name": "amount",
          "type": "uint256"
        },
        {
          "internalType": "address",
          "name": "receiver",
          "type": "address"
        }
      ],
      "name": "safeSwap",
      "outputs": [
        {
          "internalType": "uint256",
          "name": "inTokenS",
          "type": "uint256"
        },
        {
          "internalType": "uint256",
          "name": "inTokenP",
          "type": "uint256"
        },
        {
          "internalType": "uint256",
          "name": "outTokenU",
          "type": "uint256"
        }
      ],
      "stateMutability": "nonpayable",
      "type": "function"
    },
    {
      "inputs": [
        {
          "internalType": "address",
          "name": "tokenP",
          "type": "address"
        },
        {
          "internalType": "uint256",
          "name": "amount",
          "type": "uint256"
        },
        {
          "internalType": "address",
          "name": "receiver",
          "type": "address"
        }
      ],
      "name": "safeRedeem",
      "outputs": [
        {
          "internalType": "uint256",
          "name": "inTokenR",
          "type": "uint256"
        }
      ],
      "stateMutability": "nonpayable",
      "type": "function"
    },
    {
      "inputs": [
        {
          "internalType": "address",
          "name": "tokenP",
          "type": "address"
        },
        {
          "internalType": "uint256",
          "name": "amount",
          "type": "uint256"
        },
        {
          "internalType": "address",
          "name": "receiver",
          "type": "address"
        }
      ],
      "name": "safeClose",
      "outputs": [
        {
          "internalType": "uint256",
          "name": "inTokenR",
          "type": "uint256"
        },
        {
          "internalType": "uint256",
          "name": "inTokenP",
          "type": "uint256"
        },
        {
          "internalType": "uint256",
          "name": "outTokenU",
          "type": "uint256"
        }
      ],
      "stateMutability": "nonpayable",
      "type": "function"
    }
  ],
  "bytecode": "0x608060405234801561001057600080fd5b50604051611fd6380380611fd68339818101604052602081101561003357600080fd5b810190808051906020019092919050505060016000806101000a81548160ff02191690831515021790555080600060016101000a81548173ffffffffffffffffffffffffffffffffffffffff021916908373ffffffffffffffffffffffffffffffffffffffff16021790555050611f27806100af6000396000f3fe608060405234801561001057600080fd5b50600436106100625760003560e01c806320e469d6146100675780633f60b9bf146100f05780633fc8cef314610180578063918f8674146101ca578063a1d8778f146101e8578063b8a6bb3b1461026a575b600080fd5b6100d36004803603606081101561007d57600080fd5b81019080803573ffffffffffffffffffffffffffffffffffffffff16906020019092919080359060200190929190803573ffffffffffffffffffffffffffffffffffffffff1690602001909291905050506102fa565b604051808381526020018281526020019250505060405180910390f35b61015c6004803603606081101561010657600080fd5b81019080803573ffffffffffffffffffffffffffffffffffffffff16906020019092919080359060200190929190803573ffffffffffffffffffffffffffffffffffffffff16906020019092919050505061076f565b60405180848152602001838152602001828152602001935050505060405180910390f35b610188610e93565b604051808273ffffffffffffffffffffffffffffffffffffffff1673ffffffffffffffffffffffffffffffffffffffff16815260200191505060405180910390f35b6101d2610eb9565b6040518082815260200191505060405180910390f35b610254600480360360608110156101fe57600080fd5b81019080803573ffffffffffffffffffffffffffffffffffffffff16906020019092919080359060200190929190803573ffffffffffffffffffffffffffffffffffffffff169060200190929190505050610ec5565b6040518082815260200191505060405180910390f35b6102d66004803603606081101561028057600080fd5b81019080803573ffffffffffffffffffffffffffffffffffffffff16906020019092919080359060200190929190803573ffffffffffffffffffffffffffffffffffffffff1690602001909291905050506114a6565b60405180848152602001838152602001828152602001935050505060405180910390f35b6000806000809054906101000a900460ff1661037e576040517f08c379a000000000000000000000000000000000000000000000000000000000815260040180806020018281038252601f8152602001807f5265656e7472616e637947756172643a207265656e7472616e742063616c6c0081525060200191505060405180910390fd5b60008060006101000a81548160ff0219169083151502179055506000841161040e576040517f08c379a00000000000000000000000000000000000000000000000000000000081526004018080602001828103825260088152602001807f4552525f5a45524f00000000000000000000000000000000000000000000000081525060200191505060405180910390fd5b60008573ffffffffffffffffffffffffffffffffffffffff16634a244e546040518163ffffffff1660e01b815260040160206040518083038186803b15801561045657600080fd5b505afa15801561046a573d6000803e3d6000fd5b505050506040513d602081101561048057600080fd5b8101908080519060200190929190505050905061058a8173ffffffffffffffffffffffffffffffffffffffff166370a08231336040518263ffffffff1660e01b8152600401808273ffffffffffffffffffffffffffffffffffffffff1673ffffffffffffffffffffffffffffffffffffffff16815260200191505060206040518083038186803b15801561051357600080fd5b505afa158015610527573d6000803e3d6000fd5b505050506040513d602081101561053d57600080fd5b8101908080519060200190929190505050866040518060400160405280601281526020017f4552525f42414c5f554e4445524c59494e470000000000000000000000000000815250611bd0565b8073ffffffffffffffffffffffffffffffffffffffff166323b872dd3388886040518463ffffffff1660e01b8152600401808473ffffffffffffffffffffffffffffffffffffffff1673ffffffffffffffffffffffffffffffffffffffff1681526020018373ffffffffffffffffffffffffffffffffffffffff1673ffffffffffffffffffffffffffffffffffffffff1681526020018281526020019350505050602060405180830381600087803b15801561064557600080fd5b505af1158015610659573d6000803e3d6000fd5b505050506040513d602081101561066f57600080fd5b8101908080519060200190929190505050508573ffffffffffffffffffffffffffffffffffffffff16636a627842856040518263ffffffff1660e01b8152600401808273ffffffffffffffffffffffffffffffffffffffff1673ffffffffffffffffffffffffffffffffffffffff1681526020019150506040805180830381600087803b1580156106ff57600080fd5b505af1158015610713573d6000803e3d6000fd5b505050506040513d604081101561072957600080fd5b81019080805190602001909291908051906020019092919050505080935081945050505060016000806101000a81548160ff021916908315150217905550935093915050565b60008060008060009054906101000a900460ff166107f5576040517f08c379a000000000000000000000000000000000000000000000000000000000815260040180806020018281038252601f8152602001807f5265656e7472616e637947756172643a207265656e7472616e742063616c6c0081525060200191505060405180910390fd5b60008060006101000a81548160ff02191690831515021790555060008511610885576040517f08c379a00000000000000000000000000000000000000000000000000000000081526004018080602001828103825260088152602001807f4552525f5a45524f00000000000000000000000000000000000000000000000081525060200191505060405180910390fd5b60008673ffffffffffffffffffffffffffffffffffffffff16630727d5d26040518163ffffffff1660e01b815260040160206040518083038186803b1580156108cd57600080fd5b505afa1580156108e1573d6000803e3d6000fd5b505050506040513d60208110156108f757600080fd5b81019080805190602001909291905050509050610a018773ffffffffffffffffffffffffffffffffffffffff166370a08231336040518263ffffffff1660e01b8152600401808273ffffffffffffffffffffffffffffffffffffffff1673ffffffffffffffffffffffffffffffffffffffff16815260200191505060206040518083038186803b15801561098a57600080fd5b505afa15801561099e573d6000803e3d6000fd5b505050506040513d60208110156109b457600080fd5b8101908080519060200190929190505050876040518060400160405280600d81526020017f4552525f42414c5f5052494d4500000000000000000000000000000000000000815250611bd0565b610aae670de0b6b3a7640000610aa08973ffffffffffffffffffffffffffffffffffffffff166371ca337d6040518163ffffffff1660e01b815260040160206040518083038186803b158015610a5657600080fd5b505afa158015610a6a573d6000803e3d6000fd5b505050506040513d6020811015610a8057600080fd5b810190808051906020019092919050505089611d3a90919063ffffffff16565b611dc090919063ffffffff16565b9350610ba78173ffffffffffffffffffffffffffffffffffffffff166370a08231336040518263ffffffff1660e01b8152600401808273ffffffffffffffffffffffffffffffffffffffff1673ffffffffffffffffffffffffffffffffffffffff16815260200191505060206040518083038186803b158015610b3057600080fd5b505afa158015610b44573d6000803e3d6000fd5b505050506040513d6020811015610b5a57600080fd5b8101908080519060200190929190505050856040518060400160405280600e81526020017f4552525f42414c5f535452494b45000000000000000000000000000000000000815250611bd0565b8073ffffffffffffffffffffffffffffffffffffffff166323b872dd3389876040518463ffffffff1660e01b8152600401808473ffffffffffffffffffffffffffffffffffffffff1673ffffffffffffffffffffffffffffffffffffffff1681526020018373ffffffffffffffffffffffffffffffffffffffff1673ffffffffffffffffffffffffffffffffffffffff1681526020018281526020019350505050602060405180830381600087803b158015610c6257600080fd5b505af1158015610c76573d6000803e3d6000fd5b505050506040513d6020811015610c8c57600080fd5b8101908080519060200190929190505050508673ffffffffffffffffffffffffffffffffffffffff166323b872dd3389896040518463ffffffff1660e01b8152600401808473ffffffffffffffffffffffffffffffffffffffff1673ffffffffffffffffffffffffffffffffffffffff1681526020018373ffffffffffffffffffffffffffffffffffffffff1673ffffffffffffffffffffffffffffffffffffffff1681526020018281526020019350505050602060405180830381600087803b158015610d5957600080fd5b505af1158015610d6d573d6000803e3d6000fd5b505050506040513d6020811015610d8357600080fd5b8101908080519060200190929190505050508673ffffffffffffffffffffffffffffffffffffffff166303438dd0866040518263ffffffff1660e01b8152600401808273ffffffffffffffffffffffffffffffffffffffff1673ffffffffffffffffffffffffffffffffffffffff168152602001915050606060405180830381600087803b158015610e1457600080fd5b505af1158015610e28573d6000803e3d6000fd5b505050506040513d6060811015610e3e57600080fd5b810190808051906020019092919080519060200190929190805190602001909291905050508094508195508296505050505060016000806101000a81548160ff02191690831515021790555093509350939050565b600060019054906101000a900473ffffffffffffffffffffffffffffffffffffffff1681565b670de0b6b3a764000081565b60008060009054906101000a900460ff16610f48576040517f08c379a000000000000000000000000000000000000000000000000000000000815260040180806020018281038252601f8152602001807f5265656e7472616e637947756172643a207265656e7472616e742063616c6c0081525060200191505060405180910390fd5b60008060006101000a81548160ff02191690831515021790555060008311610fd8576040517f08c379a00000000000000000000000000000000000000000000000000000000081526004018080602001828103825260088152602001807f4552525f5a45524f00000000000000000000000000000000000000000000000081525060200191505060405180910390fd5b60008473ffffffffffffffffffffffffffffffffffffffff16630727d5d26040518163ffffffff1660e01b815260040160206040518083038186803b15801561102057600080fd5b505afa158015611034573d6000803e3d6000fd5b505050506040513d602081101561104a57600080fd5b8101908080519060200190929190505050905060008573ffffffffffffffffffffffffffffffffffffffff166360f880356040518163ffffffff1660e01b815260040160206040518083038186803b1580156110a557600080fd5b505afa1580156110b9573d6000803e3d6000fd5b505050506040513d60208110156110cf57600080fd5b810190808051906020019092919050505090506111d98173ffffffffffffffffffffffffffffffffffffffff166370a08231336040518263ffffffff1660e01b8152600401808273ffffffffffffffffffffffffffffffffffffffff1673ffffffffffffffffffffffffffffffffffffffff16815260200191505060206040518083038186803b15801561116257600080fd5b505afa158015611176573d6000803e3d6000fd5b505050506040513d602081101561118c57600080fd5b8101908080519060200190929190505050866040518060400160405280600e81526020017f4552525f42414c5f52454445454d000000000000000000000000000000000000815250611bd0565b6112d08273ffffffffffffffffffffffffffffffffffffffff166370a08231886040518263ffffffff1660e01b8152600401808273ffffffffffffffffffffffffffffffffffffffff1673ffffffffffffffffffffffffffffffffffffffff16815260200191505060206040518083038186803b15801561125957600080fd5b505afa15801561126d573d6000803e3d6000fd5b505050506040513d602081101561128357600080fd5b8101908080519060200190929190505050866040518060400160405280600e81526020017f4552525f42414c5f535452494b45000000000000000000000000000000000000815250611bd0565b8073ffffffffffffffffffffffffffffffffffffffff166323b872dd3388886040518463ffffffff1660e01b8152600401808473ffffffffffffffffffffffffffffffffffffffff1673ffffffffffffffffffffffffffffffffffffffff1681526020018373ffffffffffffffffffffffffffffffffffffffff1673ffffffffffffffffffffffffffffffffffffffff1681526020018281526020019350505050602060405180830381600087803b15801561138b57600080fd5b505af115801561139f573d6000803e3d6000fd5b505050506040513d60208110156113b557600080fd5b8101908080519060200190929190505050508573ffffffffffffffffffffffffffffffffffffffff166395a2251f856040518263ffffffff1660e01b8152600401808273ffffffffffffffffffffffffffffffffffffffff1673ffffffffffffffffffffffffffffffffffffffff168152602001915050602060405180830381600087803b15801561144657600080fd5b505af115801561145a573d6000803e3d6000fd5b505050506040513d602081101561147057600080fd5b81019080805190602001909291905050509250505060016000806101000a81548160ff0219169083151502179055509392505050565b60008060008060009054906101000a900460ff1661152c576040517f08c379a000000000000000000000000000000000000000000000000000000000815260040180806020018281038252601f8152602001807f5265656e7472616e637947756172643a207265656e7472616e742063616c6c0081525060200191505060405180910390fd5b60008060006101000a81548160ff021916908315150217905550600085116115bc576040517f08c379a00000000000000000000000000000000000000000000000000000000081526004018080602001828103825260088152602001807f4552525f5a45524f00000000000000000000000000000000000000000000000081525060200191505060405180910390fd5b60008673ffffffffffffffffffffffffffffffffffffffff166360f880356040518163ffffffff1660e01b815260040160206040518083038186803b15801561160457600080fd5b505afa158015611618573d6000803e3d6000fd5b505050506040513d602081101561162e57600080fd5b8101908080519060200190929190505050905060008773ffffffffffffffffffffffffffffffffffffffff166371ca337d6040518163ffffffff1660e01b815260040160206040518083038186803b15801561168957600080fd5b505afa15801561169d573d6000803e3d6000fd5b505050506040513d60208110156116b357600080fd5b810190808051906020019092919050505090506116f3670de0b6b3a76400006116e5838a611d3a90919063ffffffff16565b611dc090919063ffffffff16565b94506117ec8273ffffffffffffffffffffffffffffffffffffffff166370a08231336040518263ffffffff1660e01b8152600401808273ffffffffffffffffffffffffffffffffffffffff1673ffffffffffffffffffffffffffffffffffffffff16815260200191505060206040518083038186803b15801561177557600080fd5b505afa158015611789573d6000803e3d6000fd5b505050506040513d602081101561179f57600080fd5b8101908080519060200190929190505050866040518060400160405280600e81526020017f4552525f42414c5f52454445454d000000000000000000000000000000000000815250611bd0565b6118e38873ffffffffffffffffffffffffffffffffffffffff166370a08231336040518263ffffffff1660e01b8152600401808273ffffffffffffffffffffffffffffffffffffffff1673ffffffffffffffffffffffffffffffffffffffff16815260200191505060206040518083038186803b15801561186c57600080fd5b505afa158015611880573d6000803e3d6000fd5b505050506040513d602081101561189657600080fd5b8101908080519060200190929190505050886040518060400160405280600d81526020017f4552525f42414c5f5052494d4500000000000000000000000000000000000000815250611bd0565b8173ffffffffffffffffffffffffffffffffffffffff166323b872dd3330886040518463ffffffff1660e01b8152600401808473ffffffffffffffffffffffffffffffffffffffff1673ffffffffffffffffffffffffffffffffffffffff1681526020018373ffffffffffffffffffffffffffffffffffffffff1673ffffffffffffffffffffffffffffffffffffffff1681526020018281526020019350505050602060405180830381600087803b15801561199e57600080fd5b505af11580156119b2573d6000803e3d6000fd5b505050506040513d60208110156119c857600080fd5b8101908080519060200190929190505050508773ffffffffffffffffffffffffffffffffffffffff166323b872dd33308a6040518463ffffffff1660e01b8152600401808473ffffffffffffffffffffffffffffffffffffffff1673ffffffffffffffffffffffffffffffffffffffff1681526020018373ffffffffffffffffffffffffffffffffffffffff1673ffffffffffffffffffffffffffffffffffffffff1681526020018281526020019350505050602060405180830381600087803b158015611a9557600080fd5b505af1158015611aa9573d6000803e3d6000fd5b505050506040513d6020811015611abf57600080fd5b8101908080519060200190929190505050508773ffffffffffffffffffffffffffffffffffffffff1663c74073a1876040518263ffffffff1660e01b8152600401808273ffffffffffffffffffffffffffffffffffffffff1673ffffffffffffffffffffffffffffffffffffffff168152602001915050606060405180830381600087803b158015611b5057600080fd5b505af1158015611b64573d6000803e3d6000fd5b505050506040513d6060811015611b7a57600080fd5b81019080805190602001909291908051906020019092919080519060200190929190505050809550819650829750505050505060016000806101000a81548160ff02191690831515021790555093509350939050565b60008214611c8957818310158190611c83576040517f08c379a00000000000000000000000000000000000000000000000000000000081526004018080602001828103825283818151815260200191508051906020019080838360005b83811015611c48578082015181840152602081019050611c2d565b50505050905090810190601f168015611c755780820380516001836020036101000a031916815260200191505b509250505060405180910390fd5b50611d35565b8183118190611d33576040517f08c379a00000000000000000000000000000000000000000000000000000000081526004018080602001828103825283818151815260200191508051906020019080838360005b83811015611cf8578082015181840152602081019050611cdd565b50505050905090810190601f168015611d255780820380516001836020036101000a031916815260200191505b509250505060405180910390fd5b505b505050565b600080831415611d4d5760009050611dba565b6000828402905082848281611d5e57fe5b0414611db5576040517f08c379a0000000000000000000000000000000000000000000000000000000008152600401808060200182810382526021815260200180611ed16021913960400191505060405180910390fd5b809150505b92915050565b6000611e0283836040518060400160405280601a81526020017f536166654d6174683a206469766973696f6e206279207a65726f000000000000815250611e0a565b905092915050565b60008083118290611eb6576040517f08c379a00000000000000000000000000000000000000000000000000000000081526004018080602001828103825283818151815260200191508051906020019080838360005b83811015611e7b578082015181840152602081019050611e60565b50505050905090810190601f168015611ea85780820380516001836020036101000a031916815260200191505b509250505060405180910390fd5b506000838581611ec257fe5b04905080915050939250505056fe536166654d6174683a206d756c7469706c69636174696f6e206f766572666c6f77a2646970667358221220dad2460a549b60e5ab13946bf85017bd7f17b47e00fb51ab1c0397f1cbb2074764736f6c63430006020033",
  "source": "pragma solidity ^0.6.2;\r\n\r\n/**\r\n * @title Primitive's Trader Contract\r\n * @notice Safely interacts with the Prime Base ERC-20 Option\r\n * @author Primitive\r\n */\r\n\r\nimport \"./PrimeInterface.sol\";\r\nimport \"@openzeppelin/contracts/math/SafeMath.sol\";\r\nimport \"@openzeppelin/contracts/token/ERC20/ERC20.sol\";\r\nimport \"@openzeppelin/contracts/utils/ReentrancyGuard.sol\";\r\n\r\ncontract PrimeTrader is ReentrancyGuard {\r\n    using SafeMath for uint256;\r\n\r\n    uint256 public constant DENOMINATOR = 1 ether;\r\n\r\n    address payable public weth;\r\n\r\n    constructor (address payable _weth) public {\r\n        weth = _weth;\r\n    }\r\n\r\n    /**\r\n     * @dev Mint Primes by depositing tokenU.\r\n     * @notice Also mints Prime Redeem tokens. Calls msg.sender with transferFrom.\r\n     * @param tokenP The address of the Prime Option to trade with.\r\n     * @param amount Quantity of Prime options to mint and tokenU to deposit.\r\n     * @param receiver The newly minted tokens are sent to the receiver address.\r\n     */\r\n    function safeMint(\r\n        address tokenP,\r\n        uint256 amount,\r\n        address receiver\r\n    )\r\n        external\r\n        nonReentrant\r\n        returns (uint256 inTokenU, uint256 outTokenR)\r\n    {\r\n        require(amount > 0, \"ERR_ZERO\");\r\n        address tokenU = IPrime(tokenP).tokenU();\r\n        verifyBalance(\r\n            IERC20(tokenU).balanceOf(msg.sender),\r\n            amount,\r\n            \"ERR_BAL_UNDERLYING\"\r\n        );\r\n        IERC20(tokenU).transferFrom(msg.sender, tokenP, amount);\r\n        (inTokenU, outTokenR) = IPrime(tokenP).mint(receiver);\r\n    }\r\n\r\n    /**\r\n     * @dev Swaps tokenS to tokenU using ratio as the exchange rate.\r\n     * @notice Burns Prime, contract receives tokenS, user receives tokenU.\r\n     * Calls msg.sender with transferFrom.\r\n     * @param amount Quantity of Primes to use to swap.\r\n     */\r\n    function safeSwap(\r\n        address tokenP,\r\n        uint256 amount,\r\n        address receiver\r\n    )\r\n        external\r\n        nonReentrant\r\n        returns (uint256 inTokenS, uint256 inTokenP, uint256 outTokenU)\r\n    {\r\n        require(amount > 0, \"ERR_ZERO\");\r\n        address tokenS = IPrime(tokenP).tokenS();\r\n        verifyBalance(\r\n            IPrime(tokenP).balanceOf(msg.sender),\r\n            amount,\r\n            \"ERR_BAL_PRIME\"\r\n        );\r\n\r\n        inTokenS = amount.mul(IPrime(tokenP).ratio()).div(DENOMINATOR);\r\n        verifyBalance(\r\n            IERC20(tokenS).balanceOf(msg.sender),\r\n            inTokenS,\r\n            \"ERR_BAL_STRIKE\"\r\n        );\r\n        IERC20(tokenS).transferFrom(msg.sender, tokenP, inTokenS);\r\n        IPrime(tokenP).transferFrom(msg.sender, tokenP, amount);\r\n        (inTokenS, inTokenP, outTokenU) = IPrime(tokenP).swap(receiver);\r\n    }\r\n\r\n    /**\r\n     * @dev Burns Prime Redeem tokens to withdraw available tokenS.\r\n     * @param amount Quantity of Prime Redeem to spend.\r\n     */\r\n    function safeRedeem(\r\n        address tokenP,\r\n        uint256 amount,\r\n        address receiver\r\n    )\r\n        external\r\n        nonReentrant\r\n        returns (uint256 inTokenR)\r\n    {\r\n        require(amount > 0, \"ERR_ZERO\");\r\n        address tokenS = IPrime(tokenP).tokenS();\r\n        address tokenR = IPrime(tokenP).tokenR();\r\n\r\n        verifyBalance(\r\n            IERC20(tokenR).balanceOf(msg.sender),\r\n            amount,\r\n            \"ERR_BAL_REDEEM\"\r\n        );\r\n\r\n        // There can be the case there is no available tokenS to redeem.\r\n        // This is the first verification of a tokenS balance to draw from.\r\n        // There is a second verification in the redeem() function.\r\n        verifyBalance(\r\n            IERC20(tokenS).balanceOf(tokenP),\r\n            amount,\r\n            \"ERR_BAL_STRIKE\"\r\n        );\r\n        IERC20(tokenR).transferFrom(msg.sender, tokenP, amount);\r\n        (inTokenR) = IPrime(tokenP).redeem(receiver);\r\n    }\r\n\r\n    /**\r\n     * @dev Burn Prime and Prime Redeem tokens to withdraw tokenU.\r\n     * @notice Takes paramter for quantity of Primes to burn.\r\n     * The Prime Redeems to burn is equal to the Primes * ratio.\r\n     * @param amount Quantity of Primes to burn.\r\n     */\r\n    function safeClose(\r\n        address tokenP,\r\n        uint256 amount,\r\n        address receiver\r\n    )\r\n        external\r\n        nonReentrant\r\n        returns (uint256 inTokenR, uint256 inTokenP, uint256 outTokenU)\r\n    {\r\n        require(amount > 0, \"ERR_ZERO\");\r\n        address tokenR = IPrime(tokenP).tokenR();\r\n        uint256 ratio = IPrime(tokenP).ratio();\r\n\r\n        inTokenR = amount.mul(ratio).div(DENOMINATOR);\r\n\r\n        verifyBalance(\r\n            IERC20(tokenR).balanceOf(msg.sender),\r\n            inTokenR,\r\n            \"ERR_BAL_REDEEM\"\r\n        );\r\n\r\n        verifyBalance(\r\n            IPrime(tokenP).balanceOf(msg.sender),\r\n            amount,\r\n            \"ERR_BAL_PRIME\"\r\n        );\r\n\r\n        IERC20(tokenR).transferFrom(msg.sender, address(this), inTokenR);\r\n        IPrime(tokenP).transferFrom(msg.sender, address(this), amount);\r\n        (inTokenR, inTokenP, outTokenU) = IPrime(tokenP).close(receiver);\r\n    }\r\n\r\n    function verifyBalance(\r\n        uint256 balance,\r\n        uint256 minBalance,\r\n        string memory errorCode\r\n    ) internal pure {\r\n        minBalance == 0 ?\r\n            require(balance > minBalance, errorCode) :\r\n            require(balance >= minBalance, errorCode);\r\n    }\r\n}",
  "sourcePath": "C:\\Users\\alexa\\OneDrive\\Documents\\Master\\Blockchain\\Projects\\carbon\\contracts\\PrimeTrader.sol",
  "compiler": {
    "name": "solc",
    "version": "0.6.2+commit.bacdbe57.Emscripten.clang"
  },
  "schemaVersion": "3.0.23",
  "updatedAt": "2020-04-27T06:02:32.478Z",
  "devdoc": {
    "methods": {
      "safeClose(address,uint256,address)": {
        "details": "Burn Prime and Prime Redeem tokens to withdraw tokenU.",
        "params": {
          "amount": "Quantity of Primes to burn."
        }
      },
      "safeMint(address,uint256,address)": {
        "details": "Mint Primes by depositing tokenU.",
        "params": {
          "amount": "Quantity of Prime options to mint and tokenU to deposit.",
          "receiver": "The newly minted tokens are sent to the receiver address.",
          "tokenP": "The address of the Prime Option to trade with."
        }
      },
      "safeRedeem(address,uint256,address)": {
        "details": "Burns Prime Redeem tokens to withdraw available tokenS.",
        "params": {
          "amount": "Quantity of Prime Redeem to spend."
        }
      },
      "safeSwap(address,uint256,address)": {
        "details": "Swaps tokenS to tokenU using ratio as the exchange rate.",
        "params": {
          "amount": "Quantity of Primes to use to swap."
        }
      }
    }
  },
  "userdoc": {
    "methods": {
      "safeClose(address,uint256,address)": {
        "notice": "Takes paramter for quantity of Primes to burn. The Prime Redeems to burn is equal to the Primes * ratio."
      },
      "safeMint(address,uint256,address)": {
        "notice": "Also mints Prime Redeem tokens. Calls msg.sender with transferFrom."
      },
      "safeSwap(address,uint256,address)": {
        "notice": "Burns Prime, contract receives tokenS, user receives tokenU. Calls msg.sender with transferFrom."
      }
    }
  }
}