{
  "contractName": "PrimePool",
  "abi": [
    {
      "inputs": [
        {
          "internalType": "address payable",
          "name": "_weth",
          "type": "address"
        },
        {
          "internalType": "address",
          "name": "_oracle",
          "type": "address"
        },
        {
          "internalType": "string",
          "name": "name",
          "type": "string"
        },
        {
          "internalType": "string",
          "name": "symbol",
          "type": "string"
        }
      ],
      "stateMutability": "nonpayable",
      "type": "constructor"
    },
    {
      "anonymous": false,
      "inputs": [
        {
          "indexed": true,
          "internalType": "address",
          "name": "owner",
          "type": "address"
        },
        {
          "indexed": true,
          "internalType": "address",
          "name": "spender",
          "type": "address"
        },
        {
          "indexed": false,
          "internalType": "uint256",
          "name": "value",
          "type": "uint256"
        }
      ],
      "name": "Approval",
      "type": "event"
    },
    {
      "anonymous": false,
      "inputs": [
        {
          "indexed": true,
          "internalType": "address",
          "name": "user",
          "type": "address"
        },
        {
          "indexed": false,
          "internalType": "uint256",
          "name": "inTokenS",
          "type": "uint256"
        },
        {
          "indexed": false,
          "internalType": "uint256",
          "name": "outTokenU",
          "type": "uint256"
        },
        {
          "indexed": false,
          "internalType": "uint256",
          "name": "premium",
          "type": "uint256"
        }
      ],
      "name": "Buy",
      "type": "event"
    },
    {
      "anonymous": false,
      "inputs": [
        {
          "indexed": true,
          "internalType": "address",
          "name": "user",
          "type": "address"
        },
        {
          "indexed": false,
          "internalType": "uint256",
          "name": "inTokenU",
          "type": "uint256"
        },
        {
          "indexed": false,
          "internalType": "uint256",
          "name": "outTokenPULP",
          "type": "uint256"
        }
      ],
      "name": "Deposit",
      "type": "event"
    },
    {
      "anonymous": false,
      "inputs": [
        {
          "indexed": false,
          "internalType": "address",
          "name": "tokenP",
          "type": "address"
        }
      ],
      "name": "Market",
      "type": "event"
    },
    {
      "anonymous": false,
      "inputs": [
        {
          "indexed": true,
          "internalType": "address",
          "name": "previousOwner",
          "type": "address"
        },
        {
          "indexed": true,
          "internalType": "address",
          "name": "newOwner",
          "type": "address"
        }
      ],
      "name": "OwnershipTransferred",
      "type": "event"
    },
    {
      "anonymous": false,
      "inputs": [
        {
          "indexed": false,
          "internalType": "address",
          "name": "account",
          "type": "address"
        }
      ],
      "name": "Paused",
      "type": "event"
    },
    {
      "anonymous": false,
      "inputs": [
        {
          "indexed": true,
          "internalType": "address",
          "name": "from",
          "type": "address"
        },
        {
          "indexed": true,
          "internalType": "address",
          "name": "to",
          "type": "address"
        },
        {
          "indexed": false,
          "internalType": "uint256",
          "name": "value",
          "type": "uint256"
        }
      ],
      "name": "Transfer",
      "type": "event"
    },
    {
      "anonymous": false,
      "inputs": [
        {
          "indexed": false,
          "internalType": "address",
          "name": "account",
          "type": "address"
        }
      ],
      "name": "Unpaused",
      "type": "event"
    },
    {
      "anonymous": false,
      "inputs": [
        {
          "indexed": true,
          "internalType": "address",
          "name": "user",
          "type": "address"
        },
        {
          "indexed": false,
          "internalType": "uint256",
          "name": "outTokenU",
          "type": "uint256"
        },
        {
          "indexed": false,
          "internalType": "uint256",
          "name": "inTokenR",
          "type": "uint256"
        }
      ],
      "name": "Withdraw",
      "type": "event"
    },
    {
      "inputs": [],
      "name": "COMPOUND_DAI",
      "outputs": [
        {
          "internalType": "address",
          "name": "",
          "type": "address"
        }
      ],
      "stateMutability": "view",
      "type": "function",
      "constant": true
    },
    {
      "inputs": [],
      "name": "ONE_ETHER",
      "outputs": [
        {
          "internalType": "uint256",
          "name": "",
          "type": "uint256"
        }
      ],
      "stateMutability": "view",
      "type": "function",
      "constant": true
    },
    {
      "inputs": [],
      "name": "SECONDS_IN_DAY",
      "outputs": [
        {
          "internalType": "uint256",
          "name": "",
          "type": "uint256"
        }
      ],
      "stateMutability": "view",
      "type": "function",
      "constant": true
    },
    {
      "inputs": [
        {
          "internalType": "address",
          "name": "owner",
          "type": "address"
        },
        {
          "internalType": "address",
          "name": "spender",
          "type": "address"
        }
      ],
      "name": "allowance",
      "outputs": [
        {
          "internalType": "uint256",
          "name": "",
          "type": "uint256"
        }
      ],
      "stateMutability": "view",
      "type": "function",
      "constant": true
    },
    {
      "inputs": [
        {
          "internalType": "address",
          "name": "spender",
          "type": "address"
        },
        {
          "internalType": "uint256",
          "name": "amount",
          "type": "uint256"
        }
      ],
      "name": "approve",
      "outputs": [
        {
          "internalType": "bool",
          "name": "",
          "type": "bool"
        }
      ],
      "stateMutability": "nonpayable",
      "type": "function"
    },
    {
      "inputs": [
        {
          "internalType": "address",
          "name": "account",
          "type": "address"
        }
      ],
      "name": "balanceOf",
      "outputs": [
        {
          "internalType": "uint256",
          "name": "",
          "type": "uint256"
        }
      ],
      "stateMutability": "view",
      "type": "function",
      "constant": true
    },
    {
      "inputs": [],
      "name": "decimals",
      "outputs": [
        {
          "internalType": "uint8",
          "name": "",
          "type": "uint8"
        }
      ],
      "stateMutability": "view",
      "type": "function",
      "constant": true
    },
    {
      "inputs": [
        {
          "internalType": "address",
          "name": "spender",
          "type": "address"
        },
        {
          "internalType": "uint256",
          "name": "subtractedValue",
          "type": "uint256"
        }
      ],
      "name": "decreaseAllowance",
      "outputs": [
        {
          "internalType": "bool",
          "name": "",
          "type": "bool"
        }
      ],
      "stateMutability": "nonpayable",
      "type": "function"
    },
    {
      "inputs": [
        {
          "internalType": "address",
          "name": "spender",
          "type": "address"
        },
        {
          "internalType": "uint256",
          "name": "addedValue",
          "type": "uint256"
        }
      ],
      "name": "increaseAllowance",
      "outputs": [
        {
          "internalType": "bool",
          "name": "",
          "type": "bool"
        }
      ],
      "stateMutability": "nonpayable",
      "type": "function"
    },
    {
      "inputs": [],
      "name": "name",
      "outputs": [
        {
          "internalType": "string",
          "name": "",
          "type": "string"
        }
      ],
      "stateMutability": "view",
      "type": "function",
      "constant": true
    },
    {
      "inputs": [],
      "name": "oracle",
      "outputs": [
        {
          "internalType": "address",
          "name": "",
          "type": "address"
        }
      ],
      "stateMutability": "view",
      "type": "function",
      "constant": true
    },
    {
      "inputs": [],
      "name": "owner",
      "outputs": [
        {
          "internalType": "address",
          "name": "",
          "type": "address"
        }
      ],
      "stateMutability": "view",
      "type": "function",
      "constant": true
    },
    {
      "inputs": [],
      "name": "paused",
      "outputs": [
        {
          "internalType": "bool",
          "name": "",
          "type": "bool"
        }
      ],
      "stateMutability": "view",
      "type": "function",
      "constant": true
    },
    {
      "inputs": [
        {
          "internalType": "uint256",
          "name": "",
          "type": "uint256"
        }
      ],
      "name": "primes",
      "outputs": [
        {
          "internalType": "address",
          "name": "",
          "type": "address"
        }
      ],
      "stateMutability": "view",
      "type": "function",
      "constant": true
    },
    {
      "inputs": [],
      "name": "renounceOwnership",
      "outputs": [],
      "stateMutability": "nonpayable",
      "type": "function"
    },
    {
      "inputs": [],
      "name": "symbol",
      "outputs": [
        {
          "internalType": "string",
          "name": "",
          "type": "string"
        }
      ],
      "stateMutability": "view",
      "type": "function",
      "constant": true
    },
    {
      "inputs": [],
      "name": "totalSupply",
      "outputs": [
        {
          "internalType": "uint256",
          "name": "",
          "type": "uint256"
        }
      ],
      "stateMutability": "view",
      "type": "function",
      "constant": true
    },
    {
      "inputs": [
        {
          "internalType": "address",
          "name": "recipient",
          "type": "address"
        },
        {
          "internalType": "uint256",
          "name": "amount",
          "type": "uint256"
        }
      ],
      "name": "transfer",
      "outputs": [
        {
          "internalType": "bool",
          "name": "",
          "type": "bool"
        }
      ],
      "stateMutability": "nonpayable",
      "type": "function"
    },
    {
      "inputs": [
        {
          "internalType": "address",
          "name": "sender",
          "type": "address"
        },
        {
          "internalType": "address",
          "name": "recipient",
          "type": "address"
        },
        {
          "internalType": "uint256",
          "name": "amount",
          "type": "uint256"
        }
      ],
      "name": "transferFrom",
      "outputs": [
        {
          "internalType": "bool",
          "name": "",
          "type": "bool"
        }
      ],
      "stateMutability": "nonpayable",
      "type": "function"
    },
    {
      "inputs": [
        {
          "internalType": "address",
          "name": "newOwner",
          "type": "address"
        }
      ],
      "name": "transferOwnership",
      "outputs": [],
      "stateMutability": "nonpayable",
      "type": "function"
    },
    {
      "inputs": [],
      "name": "volatility",
      "outputs": [
        {
          "internalType": "uint256",
          "name": "",
          "type": "uint256"
        }
      ],
      "stateMutability": "view",
      "type": "function",
      "constant": true
    },
    {
      "inputs": [],
      "name": "weth",
      "outputs": [
        {
          "internalType": "address payable",
          "name": "",
          "type": "address"
        }
      ],
      "stateMutability": "view",
      "type": "function",
      "constant": true
    },
    {
      "stateMutability": "payable",
      "type": "receive",
      "payable": true
    },
    {
      "inputs": [
        {
          "internalType": "address",
          "name": "tokenP",
          "type": "address"
        }
      ],
      "name": "addMarket",
      "outputs": [
        {
          "internalType": "address",
          "name": "",
          "type": "address"
        }
      ],
      "stateMutability": "nonpayable",
      "type": "function"
    },
    {
      "inputs": [],
      "name": "kill",
      "outputs": [
        {
          "internalType": "bool",
          "name": "",
          "type": "bool"
        }
      ],
      "stateMutability": "nonpayable",
      "type": "function"
    },
    {
      "inputs": [
        {
          "internalType": "uint256",
          "name": "amount",
          "type": "uint256"
        },
        {
          "internalType": "address",
          "name": "tokenP",
          "type": "address"
        }
      ],
      "name": "deposit",
      "outputs": [
        {
          "internalType": "bool",
          "name": "",
          "type": "bool"
        }
      ],
      "stateMutability": "payable",
      "type": "function",
      "payable": true
    },
    {
      "inputs": [
        {
          "internalType": "uint256",
          "name": "amount",
          "type": "uint256"
        },
        {
          "internalType": "address",
          "name": "tokenP",
          "type": "address"
        }
      ],
      "name": "withdraw",
      "outputs": [
        {
          "internalType": "bool",
          "name": "",
          "type": "bool"
        }
      ],
      "stateMutability": "nonpayable",
      "type": "function"
    },
    {
      "inputs": [
        {
          "internalType": "uint256",
          "name": "amount",
          "type": "uint256"
        },
        {
          "internalType": "address",
          "name": "tokenP",
          "type": "address"
        }
      ],
      "name": "buy",
      "outputs": [
        {
          "internalType": "bool",
          "name": "",
          "type": "bool"
        }
      ],
      "stateMutability": "payable",
      "type": "function",
      "payable": true
    },
    {
      "inputs": [
        {
          "internalType": "uint256",
          "name": "base",
          "type": "uint256"
        },
        {
          "internalType": "uint256",
          "name": "price",
          "type": "uint256"
        },
        {
          "internalType": "uint256",
          "name": "expiry",
          "type": "uint256"
        }
      ],
      "name": "calculatePremium",
      "outputs": [
        {
          "internalType": "uint256",
          "name": "premium",
          "type": "uint256"
        },
        {
          "internalType": "uint256",
          "name": "timeRemainder",
          "type": "uint256"
        }
      ],
      "stateMutability": "view",
      "type": "function",
      "constant": true
    },
    {
      "inputs": [
        {
          "internalType": "address",
          "name": "tokenU",
          "type": "address"
        },
        {
          "internalType": "address",
          "name": "tokenR",
          "type": "address"
        },
        {
          "internalType": "uint256",
          "name": "base",
          "type": "uint256"
        },
        {
          "internalType": "uint256",
          "name": "price",
          "type": "uint256"
        }
      ],
      "name": "calculateVolatilityProxy",
      "outputs": [
        {
          "internalType": "uint256",
          "name": "_volatility",
          "type": "uint256"
        }
      ],
      "stateMutability": "view",
      "type": "function",
      "constant": true
    },
    {
      "inputs": [
        {
          "internalType": "address",
          "name": "tokenR",
          "type": "address"
        },
        {
          "internalType": "uint256",
          "name": "base",
          "type": "uint256"
        },
        {
          "internalType": "uint256",
          "name": "price",
          "type": "uint256"
        }
      ],
      "name": "poolUtilized",
      "outputs": [
        {
          "internalType": "uint256",
          "name": "utilized",
          "type": "uint256"
        }
      ],
      "stateMutability": "view",
      "type": "function",
      "constant": true
    },
    {
      "inputs": [
        {
          "internalType": "uint256",
          "name": "y",
          "type": "uint256"
        }
      ],
      "name": "sqrt",
      "outputs": [
        {
          "internalType": "uint256",
          "name": "z",
          "type": "uint256"
        }
      ],
      "stateMutability": "pure",
      "type": "function",
      "constant": true
    }
  ],
  "bytecode": "0x6080604052735d3a536e4d6dbd6114cc1ead35777bab948e3643600660016101000a81548173ffffffffffffffffffffffffffffffffffffffff021916908373ffffffffffffffffffffffffffffffffffffffff1602179055503480156200006657600080fd5b5060405162004f1238038062004f12833981810160405260808110156200008c57600080fd5b81019080805190602001909291908051906020019092919080516040519392919084640100000000821115620000c157600080fd5b83820191506020820185811115620000d857600080fd5b8251866001820283011164010000000082111715620000f657600080fd5b8083526020830192505050908051906020019080838360005b838110156200012c5780820151818401526020810190506200010f565b50505050905090810190601f1680156200015a5780820380516001836020036101000a031916815260200191505b50604052602001805160405193929190846401000000008211156200017e57600080fd5b838201915060208201858111156200019557600080fd5b8251866001820283011164010000000082111715620001b357600080fd5b8083526020830192505050908051906020019080838360005b83811015620001e9578082015181840152602081019050620001cc565b50505050905090810190601f168015620002175780820380516001836020036101000a031916815260200191505b506040525050508181600062000232620003e960201b60201c565b9050806000806101000a81548173ffffffffffffffffffffffffffffffffffffffff021916908373ffffffffffffffffffffffffffffffffffffffff1602179055508073ffffffffffffffffffffffffffffffffffffffff16600073ffffffffffffffffffffffffffffffffffffffff167f8be0079c531659141344cd1fd0a4f28419497f9722a3daafe3b4186f6b6457e060405160405180910390a35060008060146101000a81548160ff0219169083151502179055506001600060156101000a81548160ff02191690831515021790555081600490805190602001906200031d929190620003f1565b50806005908051906020019062000336929190620003f1565b506012600660006101000a81548160ff021916908360ff160217905550505083600960006101000a81548173ffffffffffffffffffffffffffffffffffffffff021916908373ffffffffffffffffffffffffffffffffffffffff16021790555082600860006101000a81548173ffffffffffffffffffffffffffffffffffffffff021916908373ffffffffffffffffffffffffffffffffffffffff160217905550606460078190555050505050620004a0565b600033905090565b828054600181600116156101000203166002900490600052602060002090601f016020900481019282601f106200043457805160ff191683800117855562000465565b8280016001018555821562000465579182015b828111156200046457825182559160200191906001019062000447565b5b50905062000474919062000478565b5090565b6200049d91905b80821115620004995760008160009055506001016200047f565b5090565b90565b614a6280620004b06000396000f3fe6080604052600436106101db5760003560e01c806367e65cf31161010257806393e3063311610095578063bf9d839311610064578063bf9d839314610c40578063cce9923014610cbb578063dd62ed3e14610ce6578063f2fde38b14610d6b57610239565b806393e3063314610a3957806395d89b4114610aca578063a457c2d714610b5a578063a9059cbb14610bcd57610239565b8063749a60dd116100d1578063749a60dd1461088c5780637dc0d1d0146109255780637deb60251461097c5780638da5cb5b146109e257610239565b806367e65cf3146107535780636e553f65146107aa57806370a0823114610810578063715018a61461087557610239565b8063313ce5671161017a57806341c0e1b51161014957806341c0e1b51461067b5780635c975abb146106aa57806361a52a36146106d9578063677342ce1461070457610239565b8063313ce5671461055557806339509351146105865780633da18341146105f95780633fc8cef31461062457610239565b8063156f1d74116101b6578063156f1d74146103b457806318160ddd1461041e57806323b872dd14610449578063287807cd146104dc57610239565b8062f714ce1461023e57806306fdde03146102b1578063095ea7b31461034157610239565b3661023957600960009054906101000a900473ffffffffffffffffffffffffffffffffffffffff1673ffffffffffffffffffffffffffffffffffffffff163373ffffffffffffffffffffffffffffffffffffffff161461023757fe5b005b600080fd5b34801561024a57600080fd5b506102976004803603604081101561026157600080fd5b8101908080359060200190929190803573ffffffffffffffffffffffffffffffffffffffff169060200190929190505050610dbc565b604051808215151515815260200191505060405180910390f35b3480156102bd57600080fd5b506102c66117f1565b6040518080602001828103825283818151815260200191508051906020019080838360005b838110156103065780820151818401526020810190506102eb565b50505050905090810190601f1680156103335780820380516001836020036101000a031916815260200191505b509250505060405180910390f35b34801561034d57600080fd5b5061039a6004803603604081101561036457600080fd5b81019080803573ffffffffffffffffffffffffffffffffffffffff16906020019092919080359060200190929190505050611893565b604051808215151515815260200191505060405180910390f35b3480156103c057600080fd5b50610401600480360360608110156103d757600080fd5b810190808035906020019092919080359060200190929190803590602001909291905050506118b1565b604051808381526020018281526020019250505060405180910390f35b34801561042a57600080fd5b50610433611b46565b6040518082815260200191505060405180910390f35b34801561045557600080fd5b506104c26004803603606081101561046c57600080fd5b81019080803573ffffffffffffffffffffffffffffffffffffffff169060200190929190803573ffffffffffffffffffffffffffffffffffffffff16906020019092919080359060200190929190505050611b50565b604051808215151515815260200191505060405180910390f35b3480156104e857600080fd5b5061053f600480360360608110156104ff57600080fd5b81019080803573ffffffffffffffffffffffffffffffffffffffff1690602001909291908035906020019092919080359060200190929190505050611c29565b6040518082815260200191505060405180910390f35b34801561056157600080fd5b5061056a611d44565b604051808260ff1660ff16815260200191505060405180910390f35b34801561059257600080fd5b506105df600480360360408110156105a957600080fd5b81019080803573ffffffffffffffffffffffffffffffffffffffff16906020019092919080359060200190929190505050611d5b565b604051808215151515815260200191505060405180910390f35b34801561060557600080fd5b5061060e611e0e565b6040518082815260200191505060405180910390f35b34801561063057600080fd5b50610639611e1a565b604051808273ffffffffffffffffffffffffffffffffffffffff1673ffffffffffffffffffffffffffffffffffffffff16815260200191505060405180910390f35b34801561068757600080fd5b50610690611e40565b604051808215151515815260200191505060405180910390f35b3480156106b657600080fd5b506106bf611f35565b604051808215151515815260200191505060405180910390f35b3480156106e557600080fd5b506106ee611f4b565b6040518082815260200191505060405180910390f35b34801561071057600080fd5b5061073d6004803603602081101561072757600080fd5b8101908080359060200190929190505050611f52565b6040518082815260200191505060405180910390f35b34801561075f57600080fd5b50610768611fb4565b604051808273ffffffffffffffffffffffffffffffffffffffff1673ffffffffffffffffffffffffffffffffffffffff16815260200191505060405180910390f35b6107f6600480360360408110156107c057600080fd5b8101908080359060200190929190803573ffffffffffffffffffffffffffffffffffffffff169060200190929190505050611fda565b604051808215151515815260200191505060405180910390f35b34801561081c57600080fd5b5061085f6004803603602081101561083357600080fd5b81019080803573ffffffffffffffffffffffffffffffffffffffff1690602001909291905050506127b5565b6040518082815260200191505060405180910390f35b34801561088157600080fd5b5061088a6127fe565b005b34801561089857600080fd5b5061090f600480360360808110156108af57600080fd5b81019080803573ffffffffffffffffffffffffffffffffffffffff169060200190929190803573ffffffffffffffffffffffffffffffffffffffff1690602001909291908035906020019092919080359060200190929190505050612986565b6040518082815260200191505060405180910390f35b34801561093157600080fd5b5061093a612aa7565b604051808273ffffffffffffffffffffffffffffffffffffffff1673ffffffffffffffffffffffffffffffffffffffff16815260200191505060405180910390f35b6109c86004803603604081101561099257600080fd5b8101908080359060200190929190803573ffffffffffffffffffffffffffffffffffffffff169060200190929190505050612acd565b604051808215151515815260200191505060405180910390f35b3480156109ee57600080fd5b506109f761339d565b604051808273ffffffffffffffffffffffffffffffffffffffff1673ffffffffffffffffffffffffffffffffffffffff16815260200191505060405180910390f35b348015610a4557600080fd5b50610a8860048036036020811015610a5c57600080fd5b81019080803573ffffffffffffffffffffffffffffffffffffffff1690602001909291905050506133c6565b604051808273ffffffffffffffffffffffffffffffffffffffff1673ffffffffffffffffffffffffffffffffffffffff16815260200191505060405180910390f35b348015610ad657600080fd5b50610adf6135ce565b6040518080602001828103825283818151815260200191508051906020019080838360005b83811015610b1f578082015181840152602081019050610b04565b50505050905090810190601f168015610b4c5780820380516001836020036101000a031916815260200191505b509250505060405180910390f35b348015610b6657600080fd5b50610bb360048036036040811015610b7d57600080fd5b81019080803573ffffffffffffffffffffffffffffffffffffffff16906020019092919080359060200190929190505050613670565b604051808215151515815260200191505060405180910390f35b348015610bd957600080fd5b50610c2660048036036040811015610bf057600080fd5b81019080803573ffffffffffffffffffffffffffffffffffffffff1690602001909291908035906020019092919050505061373d565b604051808215151515815260200191505060405180910390f35b348015610c4c57600080fd5b50610c7960048036036020811015610c6357600080fd5b810190808035906020019092919050505061375b565b604051808273ffffffffffffffffffffffffffffffffffffffff1673ffffffffffffffffffffffffffffffffffffffff16815260200191505060405180910390f35b348015610cc757600080fd5b50610cd061378e565b6040518082815260200191505060405180910390f35b348015610cf257600080fd5b50610d5560048036036040811015610d0957600080fd5b81019080803573ffffffffffffffffffffffffffffffffffffffff169060200190929190803573ffffffffffffffffffffffffffffffffffffffff169060200190929190505050613794565b6040518082815260200191505060405180910390f35b348015610d7757600080fd5b50610dba60048036036020811015610d8e57600080fd5b81019080803573ffffffffffffffffffffffffffffffffffffffff16906020019092919050505061381b565b005b60008060159054906101000a900460ff16610e3f576040517f08c379a000000000000000000000000000000000000000000000000000000000815260040180806020018281038252601f8152602001807f5265656e7472616e637947756172643a207265656e7472616e742063616c6c0081525060200191505060405180910390fd5b60008060156101000a81548160ff021916908315150217905550818073ffffffffffffffffffffffffffffffffffffffff16600a60008373ffffffffffffffffffffffffffffffffffffffff16636ed71ede6040518163ffffffff1660e01b815260040160206040518083038186803b158015610ebb57600080fd5b505afa158015610ecf573d6000803e3d6000fd5b505050506040513d6020811015610ee557600080fd5b8101908080519060200190929190505050815260200190815260200160002060009054906101000a900473ffffffffffffffffffffffffffffffffffffffff1673ffffffffffffffffffffffffffffffffffffffff1614610fae576040517f08c379a00000000000000000000000000000000000000000000000000000000081526004018080602001828103825260098152602001807f4552525f5052494d45000000000000000000000000000000000000000000000081525060200191505060405180910390fd5b83610fb8336127b5565b10158015610fc65750600084115b611038576040517f08c379a000000000000000000000000000000000000000000000000000000000815260040180806020018281038252600c8152602001807f4552525f42414c5f50554c50000000000000000000000000000000000000000081525060200191505060405180910390fd5b6000611042611b46565b905061104e3386613a28565b60008473ffffffffffffffffffffffffffffffffffffffff16634a244e546040518163ffffffff1660e01b815260040160206040518083038186803b15801561109657600080fd5b505afa1580156110aa573d6000803e3d6000fd5b505050506040513d60208110156110c057600080fd5b8101908080519060200190929190505050905060008573ffffffffffffffffffffffffffffffffffffffff166360f880356040518163ffffffff1660e01b815260040160206040518083038186803b15801561111b57600080fd5b505afa15801561112f573d6000803e3d6000fd5b505050506040513d602081101561114557600080fd5b810190808051906020019092919050505090506000611236846112288573ffffffffffffffffffffffffffffffffffffffff166370a08231306040518263ffffffff1660e01b8152600401808273ffffffffffffffffffffffffffffffffffffffff1673ffffffffffffffffffffffffffffffffffffffff16815260200191505060206040518083038186803b1580156111de57600080fd5b505afa1580156111f2573d6000803e3d6000fd5b505050506040513d602081101561120857600080fd5b81019080805190602001909291905050508b613bee90919063ffffffff16565b613c7490919063ffffffff16565b90506000611316856113088573ffffffffffffffffffffffffffffffffffffffff166370a08231306040518263ffffffff1660e01b8152600401808273ffffffffffffffffffffffffffffffffffffffff1673ffffffffffffffffffffffffffffffffffffffff16815260200191505060206040518083038186803b1580156112be57600080fd5b505afa1580156112d2573d6000803e3d6000fd5b505050506040513d60208110156112e857600080fd5b81019080805190602001909291905050508c613bee90919063ffffffff16565b613c7490919063ffffffff16565b905060008111156115b65760008873ffffffffffffffffffffffffffffffffffffffff16634e11482f6040518163ffffffff1660e01b815260040160206040518083038186803b15801561136957600080fd5b505afa15801561137d573d6000803e3d6000fd5b505050506040513d602081101561139357600080fd5b810190808051906020019092919050505090508181101561141c576040517f08c379a000000000000000000000000000000000000000000000000000000000815260040180806020018281038252600e8152602001807f4552525f42414c5f535452494b4500000000000000000000000000000000000081525060200191505060405180910390fd5b60008473ffffffffffffffffffffffffffffffffffffffff1663a9059cbb8b856040518363ffffffff1660e01b8152600401808373ffffffffffffffffffffffffffffffffffffffff1673ffffffffffffffffffffffffffffffffffffffff16815260200182815260200192505050602060405180830381600087803b1580156114a557600080fd5b505af11580156114b9573d6000803e3d6000fd5b505050506040513d60208110156114cf57600080fd5b8101908080519060200190929190505050905060008a73ffffffffffffffffffffffffffffffffffffffff166395a2251f336040518263ffffffff1660e01b8152600401808273ffffffffffffffffffffffffffffffffffffffff1673ffffffffffffffffffffffffffffffffffffffff168152602001915050602060405180830381600087803b15801561156357600080fd5b505af1158015611577573d6000803e3d6000fd5b505050506040513d602081101561158d57600080fd5b8101908080519060200190929190505050905083811480156115ac5750815b6115b257fe5b5050505b3373ffffffffffffffffffffffffffffffffffffffff167ff279e6a1f5e320cca91135676d9cb6e44ca8a08c0b88342bcdb1144f6511b5688383604051808381526020018281526020019250505060405180910390a2600960009054906101000a900473ffffffffffffffffffffffffffffffffffffffff1673ffffffffffffffffffffffffffffffffffffffff168473ffffffffffffffffffffffffffffffffffffffff16141561170557600960009054906101000a900473ffffffffffffffffffffffffffffffffffffffff1673ffffffffffffffffffffffffffffffffffffffff16632e1a7d4d836040518263ffffffff1660e01b815260040180828152602001915050600060405180830381600087803b1580156116d757600080fd5b505af11580156116eb573d6000803e3d6000fd5b505050506116f93383613cbe565b965050505050506117cf565b8373ffffffffffffffffffffffffffffffffffffffff1663a9059cbb33846040518363ffffffff1660e01b8152600401808373ffffffffffffffffffffffffffffffffffffffff1673ffffffffffffffffffffffffffffffffffffffff16815260200182815260200192505050602060405180830381600087803b15801561178c57600080fd5b505af11580156117a0573d6000803e3d6000fd5b505050506040513d60208110156117b657600080fd5b8101908080519060200190929190505050965050505050505b506001600060156101000a81548160ff02191690831515021790555092915050565b606060048054600181600116156101000203166002900480601f0160208091040260200160405190810160405280929190818152602001828054600181600116156101000203166002900480156118895780601f1061185e57610100808354040283529160200191611889565b820191906000526020600020905b81548152906001019060200180831161186c57829003601f168201915b5050505050905090565b60006118a76118a0613da5565b8484613dad565b6001905092915050565b6000806000600860009054906101000a900473ffffffffffffffffffffffffffffffffffffffff1673ffffffffffffffffffffffffffffffffffffffff1663fc57d4df600660019054906101000a900473ffffffffffffffffffffffffffffffffffffffff166040518263ffffffff1660e01b8152600401808273ffffffffffffffffffffffffffffffffffffffff1673ffffffffffffffffffffffffffffffffffffffff16815260200191505060206040518083038186803b15801561197757600080fd5b505afa15801561198b573d6000803e3d6000fd5b505050506040513d60208110156119a157600080fd5b8101908080519060200190929190505050905060006119e3876119d5670de0b6b3a764000089613bee90919063ffffffff16565b613c7490919063ffffffff16565b90506000611a0c826119fe858b613bee90919063ffffffff16565b613c7490919063ffffffff16565b9050600088821015611a1f576000611a33565b611a328983613fa490919063ffffffff16565b5b9050611a484288613fa490919063ffffffff16565b94506000611a7985611a6b670de0b6b3a764000087613bee90919063ffffffff16565b613c7490919063ffffffff16565b90506000611af562015180611ae7670de0b6b3a7640000611ad9611a9c8c611f52565b611acb600754611abd670de0b6b3a76400008b613bee90919063ffffffff16565b613bee90919063ffffffff16565b613bee90919063ffffffff16565b613c7490919063ffffffff16565b613c7490919063ffffffff16565b9050611b36670de0b6b3a7640000611b2888611b1a8786613fee90919063ffffffff16565b613bee90919063ffffffff16565b613c7490919063ffffffff16565b9750505050505050935093915050565b6000600354905090565b6000611b5d848484614076565b611c1e84611b69613da5565b611c198560405180606001604052806028815260200161497660289139600260008b73ffffffffffffffffffffffffffffffffffffffff1673ffffffffffffffffffffffffffffffffffffffff1681526020019081526020016000206000611bcf613da5565b73ffffffffffffffffffffffffffffffffffffffff1673ffffffffffffffffffffffffffffffffffffffff1681526020019081526020016000205461433b9092919063ffffffff16565b613dad565b600190509392505050565b6000611d3b670de0b6b3a7640000611d2d85611d1f670de0b6b3a7640000611d11888b73ffffffffffffffffffffffffffffffffffffffff166370a08231306040518263ffffffff1660e01b8152600401808273ffffffffffffffffffffffffffffffffffffffff1673ffffffffffffffffffffffffffffffffffffffff16815260200191505060206040518083038186803b158015611cc857600080fd5b505afa158015611cdc573d6000803e3d6000fd5b505050506040513d6020811015611cf257600080fd5b8101908080519060200190929190505050613bee90919063ffffffff16565b613bee90919063ffffffff16565b613c7490919063ffffffff16565b613c7490919063ffffffff16565b90509392505050565b6000600660009054906101000a900460ff16905090565b6000611e04611d68613da5565b84611dff8560026000611d79613da5565b73ffffffffffffffffffffffffffffffffffffffff1673ffffffffffffffffffffffffffffffffffffffff16815260200190815260200160002060008973ffffffffffffffffffffffffffffffffffffffff1673ffffffffffffffffffffffffffffffffffffffff16815260200190815260200160002054613fee90919063ffffffff16565b613dad565b6001905092915050565b670de0b6b3a764000081565b600960009054906101000a900473ffffffffffffffffffffffffffffffffffffffff1681565b6000611e4a613da5565b73ffffffffffffffffffffffffffffffffffffffff166000809054906101000a900473ffffffffffffffffffffffffffffffffffffffff1673ffffffffffffffffffffffffffffffffffffffff1614611f0b576040517f08c379a00000000000000000000000000000000000000000000000000000000081526004018080602001828103825260208152602001807f4f776e61626c653a2063616c6c6572206973206e6f7420746865206f776e657281525060200191505060405180910390fd5b611f13611f35565b15611f2557611f206143fb565b611f2e565b611f2d614503565b5b6001905090565b60008060149054906101000a900460ff16905090565b6201518081565b60006003821115611fa157600060026001840181611f6c57fe5b0490508291505b81811015611f9b57809150600281828581611f8a57fe5b040181611f9357fe5b049050611f73565b50611faf565b60008214611fae57600190505b5b919050565b600660019054906101000a900473ffffffffffffffffffffffffffffffffffffffff1681565b60008060149054906101000a900460ff161561205e576040517f08c379a00000000000000000000000000000000000000000000000000000000081526004018080602001828103825260108152602001807f5061757361626c653a207061757365640000000000000000000000000000000081525060200191505060405180910390fd5b600060159054906101000a900460ff166120e0576040517f08c379a000000000000000000000000000000000000000000000000000000000815260040180806020018281038252601f8152602001807f5265656e7472616e637947756172643a207265656e7472616e742063616c6c0081525060200191505060405180910390fd5b60008060156101000a81548160ff02191690831515021790555060008273ffffffffffffffffffffffffffffffffffffffff16634a244e546040518163ffffffff1660e01b815260040160206040518083038186803b15801561214257600080fd5b505afa158015612156573d6000803e3d6000fd5b505050506040513d602081101561216c57600080fd5b81019080805190602001909291905050509050600960009054906101000a900473ffffffffffffffffffffffffffffffffffffffff1673ffffffffffffffffffffffffffffffffffffffff168173ffffffffffffffffffffffffffffffffffffffff16141561225b5783341480156121e45750600084115b612256576040517f08c379a000000000000000000000000000000000000000000000000000000000815260040180806020018281038252600b8152602001807f4552525f42414c5f45544800000000000000000000000000000000000000000081525060200191505060405180910390fd5b612395565b838173ffffffffffffffffffffffffffffffffffffffff166370a08231336040518263ffffffff1660e01b8152600401808273ffffffffffffffffffffffffffffffffffffffff1673ffffffffffffffffffffffffffffffffffffffff16815260200191505060206040518083038186803b1580156122d957600080fd5b505afa1580156122ed573d6000803e3d6000fd5b505050506040513d602081101561230357600080fd5b8101908080519060200190929190505050101580156123225750600084115b612394576040517f08c379a00000000000000000000000000000000000000000000000000000000081526004018080602001828103825260128152602001807f4552525f42414c5f554e4445524c59494e47000000000000000000000000000081525060200191505060405180910390fd5b5b6000808273ffffffffffffffffffffffffffffffffffffffff166370a08231306040518263ffffffff1660e01b8152600401808273ffffffffffffffffffffffffffffffffffffffff1673ffffffffffffffffffffffffffffffffffffffff16815260200191505060206040518083038186803b15801561241557600080fd5b505afa158015612429573d6000803e3d6000fd5b505050506040513d602081101561243f57600080fd5b81019080805190602001909291905050509050600061245c611b46565b905060006124738284613bee90919063ffffffff16565b141561248157869250612551565b816124958289613bee90919063ffffffff16565b101561252857816124af8289613bee90919063ffffffff16565b1015612523576040517f08c379a00000000000000000000000000000000000000000000000000000000081526004018080602001828103825260088152602001807f4552525f5a45524f00000000000000000000000000000000000000000000000081525060200191505060405180910390fd5b612550565b61254d8261253f838a613bee90919063ffffffff16565b613c7490919063ffffffff16565b92505b5b61255b338461460d565b3373ffffffffffffffffffffffffffffffffffffffff167f90890809c654f11d6e72a28fa60149770a0d11ec6c92319d6ceb2bb0a4ea1a158885604051808381526020018281526020019250505060405180910390a2600960009054906101000a900473ffffffffffffffffffffffffffffffffffffffff1673ffffffffffffffffffffffffffffffffffffffff168473ffffffffffffffffffffffffffffffffffffffff16141561269757600960009054906101000a900473ffffffffffffffffffffffffffffffffffffffff1673ffffffffffffffffffffffffffffffffffffffff1663d0e30db0346040518263ffffffff1660e01b81526004016000604051808303818588803b15801561267157600080fd5b505af1158015612685573d6000803e3d6000fd5b50505050506001945050505050612794565b8373ffffffffffffffffffffffffffffffffffffffff166323b872dd33308a6040518463ffffffff1660e01b8152600401808473ffffffffffffffffffffffffffffffffffffffff1673ffffffffffffffffffffffffffffffffffffffff1681526020018373ffffffffffffffffffffffffffffffffffffffff1673ffffffffffffffffffffffffffffffffffffffff1681526020018281526020019350505050602060405180830381600087803b15801561275257600080fd5b505af1158015612766573d6000803e3d6000fd5b505050506040513d602081101561277c57600080fd5b81019080805190602001909291905050509450505050505b6001600060156101000a81548160ff02191690831515021790555092915050565b6000600160008373ffffffffffffffffffffffffffffffffffffffff1673ffffffffffffffffffffffffffffffffffffffff168152602001908152602001600020549050919050565b612806613da5565b73ffffffffffffffffffffffffffffffffffffffff166000809054906101000a900473ffffffffffffffffffffffffffffffffffffffff1673ffffffffffffffffffffffffffffffffffffffff16146128c7576040517f08c379a00000000000000000000000000000000000000000000000000000000081526004018080602001828103825260208152602001807f4f776e61626c653a2063616c6c6572206973206e6f7420746865206f776e657281525060200191505060405180910390fd5b600073ffffffffffffffffffffffffffffffffffffffff166000809054906101000a900473ffffffffffffffffffffffffffffffffffffffff1673ffffffffffffffffffffffffffffffffffffffff167f8be0079c531659141344cd1fd0a4f28419497f9722a3daafe3b4186f6b6457e060405160405180910390a360008060006101000a81548173ffffffffffffffffffffffffffffffffffffffff021916908373ffffffffffffffffffffffffffffffffffffffff160217905550565b600080612994858585611c29565b905060008673ffffffffffffffffffffffffffffffffffffffff166370a08231306040518263ffffffff1660e01b8152600401808273ffffffffffffffffffffffffffffffffffffffff1673ffffffffffffffffffffffffffffffffffffffff16815260200191505060206040518083038186803b158015612a1557600080fd5b505afa158015612a29573d6000803e3d6000fd5b505050506040513d6020811015612a3f57600080fd5b8101908080519060200190929190505050905060008211612a61576064612a9b565b612a9a612a778383613fee90919063ffffffff16565b612a8c6103e885613bee90919063ffffffff16565b613c7490919063ffffffff16565b5b92505050949350505050565b600860009054906101000a900473ffffffffffffffffffffffffffffffffffffffff1681565b60008060159054906101000a900460ff16612b50576040517f08c379a000000000000000000000000000000000000000000000000000000000815260040180806020018281038252601f8152602001807f5265656e7472616e637947756172643a207265656e7472616e742063616c6c0081525060200191505060405180910390fd5b60008060156101000a81548160ff021916908315150217905550818073ffffffffffffffffffffffffffffffffffffffff16600a60008373ffffffffffffffffffffffffffffffffffffffff16636ed71ede6040518163ffffffff1660e01b815260040160206040518083038186803b158015612bcc57600080fd5b505afa158015612be0573d6000803e3d6000fd5b505050506040513d6020811015612bf657600080fd5b8101908080519060200190929190505050815260200190815260200160002060009054906101000a900473ffffffffffffffffffffffffffffffffffffffff1673ffffffffffffffffffffffffffffffffffffffff1614612cbf576040517f08c379a00000000000000000000000000000000000000000000000000000000081526004018080602001828103825260098152602001807f4552525f5052494d45000000000000000000000000000000000000000000000081525060200191505060405180910390fd5b6000806000806000808873ffffffffffffffffffffffffffffffffffffffff1663c7ee005e6040518163ffffffff1660e01b815260040160c06040518083038186803b158015612d0e57600080fd5b505afa158015612d22573d6000803e3d6000fd5b505050506040513d60c0811015612d3857600080fd5b81019080805190602001909291908051906020019092919080519060200190929190805190602001909291908051906020019092919080519060200190929190505050955095509550955095509550612d9386858585612986565b6007819055506000612da68484846118b1565b509050612dd6670de0b6b3a7640000612dc8838e613bee90919063ffffffff16565b613c7490919063ffffffff16565b9050600960009054906101000a900473ffffffffffffffffffffffffffffffffffffffff1673ffffffffffffffffffffffffffffffffffffffff168673ffffffffffffffffffffffffffffffffffffffff161415612f5557803410158015612e3e5750600081115b612eb0576040517f08c379a000000000000000000000000000000000000000000000000000000000815260040180806020018281038252600b8152602001807f4552525f42414c5f45544800000000000000000000000000000000000000000081525060200191505060405180910390fd5b600960009054906101000a900473ffffffffffffffffffffffffffffffffffffffff1673ffffffffffffffffffffffffffffffffffffffff1663d0e30db0826040518263ffffffff1660e01b81526004016000604051808303818588803b158015612f1a57600080fd5b505af1158015612f2e573d6000803e3d6000fd5b5050505050612f4f33612f4a8334613fa490919063ffffffff16565b613cbe565b5061308f565b8a8673ffffffffffffffffffffffffffffffffffffffff166370a08231336040518263ffffffff1660e01b8152600401808273ffffffffffffffffffffffffffffffffffffffff1673ffffffffffffffffffffffffffffffffffffffff16815260200191505060206040518083038186803b158015612fd357600080fd5b505afa158015612fe7573d6000803e3d6000fd5b505050506040513d6020811015612ffd57600080fd5b81019080805190602001909291905050501015801561301c575060008b115b61308e576040517f08c379a000000000000000000000000000000000000000000000000000000000815260040180806020018281038252600e8152602001807f4552525f42414c5f535452494b4500000000000000000000000000000000000081525060200191505060405180910390fd5b5b60006130b6846130a8878f613bee90919063ffffffff16565b613c7490919063ffffffff16565b905060008873ffffffffffffffffffffffffffffffffffffffff1663a9059cbb8d846040518363ffffffff1660e01b8152600401808373ffffffffffffffffffffffffffffffffffffffff1673ffffffffffffffffffffffffffffffffffffffff16815260200182815260200192505050602060405180830381600087803b15801561314157600080fd5b505af1158015613155573d6000803e3d6000fd5b505050506040513d602081101561316b57600080fd5b8101908080519060200190929190505050905060008c73ffffffffffffffffffffffffffffffffffffffff16636a627842306040518263ffffffff1660e01b8152600401808273ffffffffffffffffffffffffffffffffffffffff1673ffffffffffffffffffffffffffffffffffffffff1681526020019150506040805180830381600087803b1580156131fe57600080fd5b505af1158015613212573d6000803e3d6000fd5b505050506040513d604081101561322857600080fd5b8101908080519060200190929190805190602001909291905050505090503373ffffffffffffffffffffffffffffffffffffffff167fbeae048c6d270d9469f86cf6e8fedda3c60ad770f16c24c9fc131c8e9a09101d8f858760405180848152602001838152602001828152602001935050505060405180910390a281801561336f57508c73ffffffffffffffffffffffffffffffffffffffff1663a9059cbb33836040518363ffffffff1660e01b8152600401808373ffffffffffffffffffffffffffffffffffffffff1673ffffffffffffffffffffffffffffffffffffffff16815260200182815260200192505050602060405180830381600087803b15801561333357600080fd5b505af1158015613347573d6000803e3d6000fd5b505050506040513d602081101561335d57600080fd5b81019080805190602001909291905050505b9b5050505050505050505050506001600060156101000a81548160ff02191690831515021790555092915050565b60008060009054906101000a900473ffffffffffffffffffffffffffffffffffffffff16905090565b60006133d0613da5565b73ffffffffffffffffffffffffffffffffffffffff166000809054906101000a900473ffffffffffffffffffffffffffffffffffffffff1673ffffffffffffffffffffffffffffffffffffffff1614613491576040517f08c379a00000000000000000000000000000000000000000000000000000000081526004018080602001828103825260208152602001807f4f776e61626c653a2063616c6c6572206973206e6f7420746865206f776e657281525060200191505060405180910390fd5b81600a60008473ffffffffffffffffffffffffffffffffffffffff16636ed71ede6040518163ffffffff1660e01b815260040160206040518083038186803b1580156134dc57600080fd5b505afa1580156134f0573d6000803e3d6000fd5b505050506040513d602081101561350657600080fd5b8101908080519060200190929190505050815260200190815260200160002060006101000a81548173ffffffffffffffffffffffffffffffffffffffff021916908373ffffffffffffffffffffffffffffffffffffffff1602179055507f10a6f3b321a2a208b61ef604cd6ef66d5d79ee16620737c0ca6cfc0649fcc94f82604051808273ffffffffffffffffffffffffffffffffffffffff1673ffffffffffffffffffffffffffffffffffffffff16815260200191505060405180910390a1819050919050565b606060058054600181600116156101000203166002900480601f0160208091040260200160405190810160405280929190818152602001828054600181600116156101000203166002900480156136665780601f1061363b57610100808354040283529160200191613666565b820191906000526020600020905b81548152906001019060200180831161364957829003601f168201915b5050505050905090565b600061373361367d613da5565b8461372e85604051806060016040528060258152602001614a0860259139600260006136a7613da5565b73ffffffffffffffffffffffffffffffffffffffff1673ffffffffffffffffffffffffffffffffffffffff16815260200190815260200160002060008a73ffffffffffffffffffffffffffffffffffffffff1673ffffffffffffffffffffffffffffffffffffffff1681526020019081526020016000205461433b9092919063ffffffff16565b613dad565b6001905092915050565b600061375161374a613da5565b8484614076565b6001905092915050565b600a6020528060005260406000206000915054906101000a900473ffffffffffffffffffffffffffffffffffffffff1681565b60075481565b6000600260008473ffffffffffffffffffffffffffffffffffffffff1673ffffffffffffffffffffffffffffffffffffffff16815260200190815260200160002060008373ffffffffffffffffffffffffffffffffffffffff1673ffffffffffffffffffffffffffffffffffffffff16815260200190815260200160002054905092915050565b613823613da5565b73ffffffffffffffffffffffffffffffffffffffff166000809054906101000a900473ffffffffffffffffffffffffffffffffffffffff1673ffffffffffffffffffffffffffffffffffffffff16146138e4576040517f08c379a00000000000000000000000000000000000000000000000000000000081526004018080602001828103825260208152602001807f4f776e61626c653a2063616c6c6572206973206e6f7420746865206f776e657281525060200191505060405180910390fd5b600073ffffffffffffffffffffffffffffffffffffffff168173ffffffffffffffffffffffffffffffffffffffff16141561396a576040517f08c379a00000000000000000000000000000000000000000000000000000000081526004018080602001828103825260268152602001806148e76026913960400191505060405180910390fd5b8073ffffffffffffffffffffffffffffffffffffffff166000809054906101000a900473ffffffffffffffffffffffffffffffffffffffff1673ffffffffffffffffffffffffffffffffffffffff167f8be0079c531659141344cd1fd0a4f28419497f9722a3daafe3b4186f6b6457e060405160405180910390a3806000806101000a81548173ffffffffffffffffffffffffffffffffffffffff021916908373ffffffffffffffffffffffffffffffffffffffff16021790555050565b600073ffffffffffffffffffffffffffffffffffffffff168273ffffffffffffffffffffffffffffffffffffffff161415613aae576040517f08c379a000000000000000000000000000000000000000000000000000000000815260040180806020018281038252602181526020018061499e6021913960400191505060405180910390fd5b613aba826000836147d6565b613b26816040518060600160405280602281526020016148c560229139600160008673ffffffffffffffffffffffffffffffffffffffff1673ffffffffffffffffffffffffffffffffffffffff1681526020019081526020016000205461433b9092919063ffffffff16565b600160008473ffffffffffffffffffffffffffffffffffffffff1673ffffffffffffffffffffffffffffffffffffffff16815260200190815260200160002081905550613b7e81600354613fa490919063ffffffff16565b600381905550600073ffffffffffffffffffffffffffffffffffffffff168273ffffffffffffffffffffffffffffffffffffffff167fddf252ad1be2c89b69c2b068fc378daa952ba7f163c4a11628f55a4df523b3ef836040518082815260200191505060405180910390a35050565b600080831415613c015760009050613c6e565b6000828402905082848281613c1257fe5b0414613c69576040517f08c379a00000000000000000000000000000000000000000000000000000000081526004018080602001828103825260218152602001806149556021913960400191505060405180910390fd5b809150505b92915050565b6000613cb683836040518060400160405280601a81526020017f536166654d6174683a206469766973696f6e206279207a65726f0000000000008152506147db565b905092915050565b6000808373ffffffffffffffffffffffffffffffffffffffff168360405180600001905060006040518083038185875af1925050503d8060008114613d1f576040519150601f19603f3d011682016040523d82523d6000602084013e613d24565b606091505b5050905080613d9b576040517f08c379a000000000000000000000000000000000000000000000000000000000815260040180806020018281038252600e8152602001807f4552525f53454e445f455448455200000000000000000000000000000000000081525060200191505060405180910390fd5b8091505092915050565b600033905090565b600073ffffffffffffffffffffffffffffffffffffffff168373ffffffffffffffffffffffffffffffffffffffff161415613e33576040517f08c379a00000000000000000000000000000000000000000000000000000000081526004018080602001828103825260248152602001806149e46024913960400191505060405180910390fd5b600073ffffffffffffffffffffffffffffffffffffffff168273ffffffffffffffffffffffffffffffffffffffff161415613eb9576040517f08c379a000000000000000000000000000000000000000000000000000000000815260040180806020018281038252602281526020018061490d6022913960400191505060405180910390fd5b80600260008573ffffffffffffffffffffffffffffffffffffffff1673ffffffffffffffffffffffffffffffffffffffff16815260200190815260200160002060008473ffffffffffffffffffffffffffffffffffffffff1673ffffffffffffffffffffffffffffffffffffffff168152602001908152602001600020819055508173ffffffffffffffffffffffffffffffffffffffff168373ffffffffffffffffffffffffffffffffffffffff167f8c5be1e5ebec7d5bd14f71427d1e84f3dd0314c0f7b2291e5b200ac8c7c3b925836040518082815260200191505060405180910390a3505050565b6000613fe683836040518060400160405280601e81526020017f536166654d6174683a207375627472616374696f6e206f766572666c6f77000081525061433b565b905092915050565b60008082840190508381101561406c576040517f08c379a000000000000000000000000000000000000000000000000000000000815260040180806020018281038252601b8152602001807f536166654d6174683a206164646974696f6e206f766572666c6f77000000000081525060200191505060405180910390fd5b8091505092915050565b600073ffffffffffffffffffffffffffffffffffffffff168373ffffffffffffffffffffffffffffffffffffffff1614156140fc576040517f08c379a00000000000000000000000000000000000000000000000000000000081526004018080602001828103825260258152602001806149bf6025913960400191505060405180910390fd5b600073ffffffffffffffffffffffffffffffffffffffff168273ffffffffffffffffffffffffffffffffffffffff161415614182576040517f08c379a00000000000000000000000000000000000000000000000000000000081526004018080602001828103825260238152602001806148a26023913960400191505060405180910390fd5b61418d8383836147d6565b6141f98160405180606001604052806026815260200161492f60269139600160008773ffffffffffffffffffffffffffffffffffffffff1673ffffffffffffffffffffffffffffffffffffffff1681526020019081526020016000205461433b9092919063ffffffff16565b600160008573ffffffffffffffffffffffffffffffffffffffff1673ffffffffffffffffffffffffffffffffffffffff1681526020019081526020016000208190555061428e81600160008573ffffffffffffffffffffffffffffffffffffffff1673ffffffffffffffffffffffffffffffffffffffff16815260200190815260200160002054613fee90919063ffffffff16565b600160008473ffffffffffffffffffffffffffffffffffffffff1673ffffffffffffffffffffffffffffffffffffffff168152602001908152602001600020819055508173ffffffffffffffffffffffffffffffffffffffff168373ffffffffffffffffffffffffffffffffffffffff167fddf252ad1be2c89b69c2b068fc378daa952ba7f163c4a11628f55a4df523b3ef836040518082815260200191505060405180910390a3505050565b60008383111582906143e8576040517f08c379a00000000000000000000000000000000000000000000000000000000081526004018080602001828103825283818151815260200191508051906020019080838360005b838110156143ad578082015181840152602081019050614392565b50505050905090810190601f1680156143da5780820380516001836020036101000a031916815260200191505b509250505060405180910390fd5b5060008385039050809150509392505050565b600060149054906101000a900460ff1661447d576040517f08c379a00000000000000000000000000000000000000000000000000000000081526004018080602001828103825260148152602001807f5061757361626c653a206e6f742070617573656400000000000000000000000081525060200191505060405180910390fd5b60008060146101000a81548160ff0219169083151502179055507f5db9ee0a495bf2e6ff9c91a7834c1ba4fdd244a5e8aa4e537bd38aeae4b073aa6144c0613da5565b604051808273ffffffffffffffffffffffffffffffffffffffff1673ffffffffffffffffffffffffffffffffffffffff16815260200191505060405180910390a1565b600060149054906101000a900460ff1615614586576040517f08c379a00000000000000000000000000000000000000000000000000000000081526004018080602001828103825260108152602001807f5061757361626c653a207061757365640000000000000000000000000000000081525060200191505060405180910390fd5b6001600060146101000a81548160ff0219169083151502179055507f62e78cea01bee320cd4e420270b5ea74000d11b0c9f74754ebdbfc544b05a2586145ca613da5565b604051808273ffffffffffffffffffffffffffffffffffffffff1673ffffffffffffffffffffffffffffffffffffffff16815260200191505060405180910390a1565b600073ffffffffffffffffffffffffffffffffffffffff168273ffffffffffffffffffffffffffffffffffffffff1614156146b0576040517f08c379a000000000000000000000000000000000000000000000000000000000815260040180806020018281038252601f8152602001807f45524332303a206d696e7420746f20746865207a65726f20616464726573730081525060200191505060405180910390fd5b6146bc600083836147d6565b6146d181600354613fee90919063ffffffff16565b60038190555061472981600160008573ffffffffffffffffffffffffffffffffffffffff1673ffffffffffffffffffffffffffffffffffffffff16815260200190815260200160002054613fee90919063ffffffff16565b600160008473ffffffffffffffffffffffffffffffffffffffff1673ffffffffffffffffffffffffffffffffffffffff168152602001908152602001600020819055508173ffffffffffffffffffffffffffffffffffffffff16600073ffffffffffffffffffffffffffffffffffffffff167fddf252ad1be2c89b69c2b068fc378daa952ba7f163c4a11628f55a4df523b3ef836040518082815260200191505060405180910390a35050565b505050565b60008083118290614887576040517f08c379a00000000000000000000000000000000000000000000000000000000081526004018080602001828103825283818151815260200191508051906020019080838360005b8381101561484c578082015181840152602081019050614831565b50505050905090810190601f1680156148795780820380516001836020036101000a031916815260200191505b509250505060405180910390fd5b50600083858161489357fe5b04905080915050939250505056fe45524332303a207472616e7366657220746f20746865207a65726f206164647265737345524332303a206275726e20616d6f756e7420657863656564732062616c616e63654f776e61626c653a206e6577206f776e657220697320746865207a65726f206164647265737345524332303a20617070726f766520746f20746865207a65726f206164647265737345524332303a207472616e7366657220616d6f756e7420657863656564732062616c616e6365536166654d6174683a206d756c7469706c69636174696f6e206f766572666c6f7745524332303a207472616e7366657220616d6f756e74206578636565647320616c6c6f77616e636545524332303a206275726e2066726f6d20746865207a65726f206164647265737345524332303a207472616e736665722066726f6d20746865207a65726f206164647265737345524332303a20617070726f76652066726f6d20746865207a65726f206164647265737345524332303a2064656372656173656420616c6c6f77616e63652062656c6f77207a65726fa2646970667358221220ec44cd48f19f77b4307d8e55c8a36dfbaa4b355cf53daeea4b22712257ce31c464736f6c63430006020033",
  "source": "pragma solidity ^0.6.2;\r\n\r\n/**\r\n * @title   Primitive's Pool for Writing Short Ether Puts \r\n * @author  Primitive\r\n */\r\n\r\n\r\nimport \"./PrimeInterface.sol\";\r\nimport \"@openzeppelin/contracts/math/SafeMath.sol\";\r\nimport \"@openzeppelin/contracts/access/Ownable.sol\";\r\nimport \"@openzeppelin/contracts/utils/ReentrancyGuard.sol\";\r\nimport \"@openzeppelin/contracts/utils/Pausable.sol\";\r\nimport \"@openzeppelin/contracts/token/ERC20/ERC20.sol\";\r\n\r\n\r\ninterface IWETH {\r\n    function deposit() external payable;\r\n    function withdraw(uint wad) external;\r\n    function totalSupply() external view returns (uint);\r\n    function approve(address guy, uint wad) external returns (bool);\r\n    function transfer(address dst, uint wad) external returns (bool);\r\n    function transferFrom(address src, address dst, uint wad) external returns (bool);\r\n}\r\n\r\ninterface PriceOracleProxy {\r\n    function getUnderlyingPrice(address cToken) external view returns (uint);\r\n}\r\n\r\ncontract PrimePool is Ownable, Pausable, ReentrancyGuard, ERC20 {\r\n    using SafeMath for uint256;\r\n\r\n    address public COMPOUND_DAI = 0x5d3a536E4D6DbD6114cc1Ead35777bAB948E3643;\r\n    uint256 public constant SECONDS_IN_DAY = 86400;\r\n    uint256 public constant ONE_ETHER = 1 ether;\r\n\r\n    uint256 public volatility;\r\n\r\n    address public oracle;\r\n    address payable public weth;\r\n    \r\n    mapping(uint256 => address) public primes;\r\n\r\n    event Market(address tokenP);\r\n    event Deposit(address indexed user, uint256 inTokenU, uint256 outTokenPULP);\r\n    event Withdraw(address indexed user, uint256 outTokenU, uint256 inTokenR);\r\n    event Buy(address indexed user, uint256 inTokenS, uint256 outTokenU, uint256 premium);\r\n\r\n    constructor (\r\n        address payable _weth,\r\n        address _oracle,\r\n        string memory name,\r\n        string memory symbol\r\n    ) \r\n        public\r\n        ERC20(name, symbol)\r\n    {\r\n        weth = _weth;\r\n        oracle = _oracle;\r\n        volatility = 100;\r\n    }\r\n\r\n    function addMarket(address tokenP) public onlyOwner returns (address) {\r\n        primes[IPrime(tokenP).marketId()] = tokenP;\r\n        emit Market(tokenP);\r\n        return tokenP;\r\n    }\r\n\r\n    function kill() public onlyOwner returns (bool) {\r\n        if(paused()) {\r\n            _unpause();\r\n        } else {\r\n            _pause();\r\n        }\r\n        return true;\r\n    }\r\n\r\n    modifier valid(address tokenP) {\r\n        require(primes[IPrime(tokenP).marketId()] == tokenP, \"ERR_PRIME\");\r\n        _;\r\n    }\r\n\r\n\r\n    receive() external payable {\r\n        assert(msg.sender == weth);\r\n    }\r\n\r\n\r\n    /* =========== MAKER FUNCTIONS =========== */\r\n\r\n    /**\r\n     * @dev Adds liquidity by depositing tokenU. Receives tokenPULP.\r\n     * @param amount The quantity of tokenU to deposit.\r\n     * @return bool True if the transaction suceeds.\r\n     */\r\n    function deposit(\r\n        uint256 amount,\r\n        address tokenP\r\n    )\r\n        external\r\n        payable\r\n        whenNotPaused\r\n        nonReentrant\r\n        returns (bool)\r\n    {\r\n        // Store locally for gas savings.\r\n        address tokenU = IPrime(tokenP).tokenU();\r\n        if(tokenU == weth) {\r\n            require(msg.value == amount && amount > 0, \"ERR_BAL_ETH\");\r\n        } else {\r\n            require(IERC20(tokenU).balanceOf(msg.sender) >= amount && amount > 0, \"ERR_BAL_UNDERLYING\");\r\n        }\r\n\r\n        // Mint LP tokens proportional to the Total LP Supply and Total Pool Balance.\r\n        uint256 outTokenPULP;\r\n        uint256 balanceU = IERC20(tokenU).balanceOf(address(this));\r\n        uint256 totalSupply = totalSupply();\r\n         \r\n        // If liquidity is not intiialized, mint LP tokens equal to deposit.\r\n        if(balanceU.mul(totalSupply) == 0) {\r\n            outTokenPULP = amount;\r\n        } else if(amount.mul(totalSupply) < balanceU) {\r\n            require(amount.mul(totalSupply) >= balanceU, \"ERR_ZERO\");\r\n        } else {\r\n            outTokenPULP = amount.mul(totalSupply).div(balanceU);\r\n        }\r\n\r\n        _mint(msg.sender, outTokenPULP);\r\n        emit Deposit(msg.sender, amount, outTokenPULP);\r\n\r\n        // Assume we hold the tokenU asset until it is utilized in minting a Prime.\r\n        if(tokenU == weth) {\r\n            IWETH(weth).deposit.value(msg.value)();\r\n            return true;\r\n        } else {\r\n            return IERC20(tokenU).transferFrom(msg.sender, address(this), amount);\r\n        }\r\n    }\r\n\r\n    /**\r\n     * @dev liquidity Provider burns their tokenPULP for proportional amount of tokenU + tokenS.\r\n     * @notice  outTokenU = inTokenPULP * balanceU / Total Supply tokenPULP, \r\n     *          outTokenS = inTokenPULP * balanceR / Total Supply tokenPULP,\r\n     *          If the pool is fully utilized and there are no strike assets to redeem,\r\n     *          the LPs will have to wait for options to be exercised or become expired.\r\n     * @param amount The quantity of liquidity tokens to burn.\r\n     * @param tokenP The address of the Prime option token.\r\n     * @return bool True if liquidity tokens were burned, and both tokenU + tokenS were sent to user.\r\n     */\r\n    function withdraw(\r\n        uint256 amount,\r\n        address tokenP\r\n    ) \r\n        external\r\n        nonReentrant\r\n        valid(tokenP)\r\n        returns (bool)\r\n    {\r\n        // Check tokenPULP balance.\r\n        require(balanceOf(msg.sender) >= amount && amount > 0, \"ERR_BAL_PULP\");\r\n        \r\n        // Store Total Supply before we burn\r\n        uint256 totalSupply = totalSupply();\r\n\r\n        // Burn tokenPULP.\r\n        _burn(msg.sender, amount);\r\n\r\n        // Store locally for gas savings.\r\n        address tokenU = IPrime(tokenP).tokenU();\r\n        address tokenR = IPrime(tokenP).tokenR();\r\n\r\n        // outTokenU = inTokenPULP * Balance of tokenU / Total Supply of tokenPULP.\r\n        uint256 outTokenU = amount.mul(IERC20(tokenU).balanceOf(address(this))).div(totalSupply);\r\n\r\n        // TokenR:TokenS = 1:1.\r\n        // outTokenR = inTokenPULP * Balance of tokenR / Total Supply of tokenPULP.\r\n        uint256 outTokenR = amount.mul(IERC20(tokenR).balanceOf(address(this))).div(totalSupply);\r\n\r\n        // Balance of tokenS in tokenP must be >= outTokenR.\r\n        if(outTokenR > 0) {\r\n            (uint256 maxDraw) = IPrime(tokenP).maxDraw();\r\n            require(maxDraw >= outTokenR, \"ERR_BAL_STRIKE\");\r\n\r\n            // Send tokenR to tokenP so we can call redeem() later to tokenP.\r\n            (bool success) = IERC20(tokenR).transfer(tokenP, outTokenR);\r\n\r\n            // Call redeem function to send tokenS to msg.sender.\r\n            (uint256 inTokenR) = IPrime(tokenP).redeem(msg.sender);\r\n            assert(inTokenR == outTokenR && success);\r\n        }\r\n\r\n        // Send outTokenU to msg.sender.\r\n        emit Withdraw(msg.sender, outTokenU, outTokenR);\r\n        if(tokenU == weth) {\r\n            IWETH(weth).withdraw(outTokenU);\r\n            return sendEther(msg.sender, outTokenU);\r\n        } else {\r\n            return IERC20(tokenU).transfer(msg.sender, outTokenU);\r\n        }\r\n    }\r\n\r\n\r\n    /* =========== TAKER FUNCTIONS =========== */\r\n\r\n\r\n    /**\r\n     * @dev Purchase ETH Put.\r\n     * @notice An eth put is 200 DAI / 1 ETH. The right to swap 1 ETH (tokenS) for 200 Dai (tokenU).\r\n     * As a user, you want to cover ETH, so you pay in ETH. Every 1 Quantity of ETH covers 200 DAI.\r\n     * A user specifies the amount of ETH they want covered, i.e. the amount of ETH they can swap.\r\n     * @param amount The quantity of tokenS (ETH) to 'cover' with an option. Denominated in tokenS (WETH).\r\n     * @return bool True if the msg.sender receives tokenP.\r\n     */\r\n    function buy(\r\n        uint256 amount,\r\n        address tokenP\r\n    )\r\n        external \r\n        payable\r\n        nonReentrant\r\n        valid(tokenP)\r\n        returns (bool)\r\n    {\r\n        // Store locally for gas savings.\r\n        (\r\n            address _tokenU, // Assume DAI\r\n            address _tokenS, // Assume ETH\r\n            address _tokenR, // Assume Redeemable for DAI 1:1.\r\n            uint256 _base,\r\n            uint256 _price,\r\n            uint256 _expiry\r\n        ) = IPrime(tokenP).prime();\r\n\r\n        // Calculates the Intrinsic + Extrinsic value of tokenP.\r\n        volatility = calculateVolatilityProxy(_tokenU, _tokenR, _base, _price);\r\n        (uint256 premium, ) = calculatePremium(_base, _price, _expiry);\r\n        premium = amount.mul(premium).div(ONE_ETHER);\r\n\r\n        // Premium is paid in tokenS. If tokenS is WETH, its paid with ETH, which is then swapped to WETH.\r\n        if(_tokenS == weth) {\r\n            require(msg.value >= premium && premium > 0, \"ERR_BAL_ETH\");\r\n            IWETH(weth).deposit.value(premium)();\r\n            // Refunds remainder.\r\n            sendEther(msg.sender, msg.value.sub(premium));\r\n        } else {\r\n            require(IERC20(_tokenS).balanceOf(msg.sender) >= amount && amount > 0, \"ERR_BAL_STRIKE\");\r\n        }\r\n\r\n        // tokenU = Amount * Quantity of tokenU (base) / Quantity of tokenS (price).\r\n        uint256 outTokenU = amount.mul(_base).div(_price); \r\n\r\n        // Transfer tokenU (assume DAI) to option contract using Pool funds.\r\n        (bool transferU) = IERC20(_tokenU).transfer(tokenP, outTokenU);\r\n\r\n        // Mint Prime and Prime Redeem to this contract.\r\n        (uint256 inTokenU,) = IPrime(tokenP).mint(address(this));\r\n\r\n        // Send Prime to msg.sender.\r\n        emit Buy(msg.sender, amount, outTokenU, premium);\r\n        return transferU && IPrime(tokenP).transfer(msg.sender, inTokenU);\r\n    }\r\n\r\n    /**\r\n     * @dev Calculates the intrinsic + extrinsic value of the option.\r\n     * @notice Strike / Market * (Volatility * 1000) * sqrt(T in seconds remaining) / Seconds in a Day.\r\n     */\r\n    function calculatePremium(uint256 base, uint256 price, uint256 expiry)\r\n        public\r\n        view\r\n        returns (uint256 premium, uint256 timeRemainder)\r\n    {\r\n        // Assume the oracle gets the Price of ETH using compound's oracle for DAI per ETH.\r\n        // Price = ETH per DAI.\r\n        uint256 market = PriceOracleProxy(oracle).getUnderlyingPrice(COMPOUND_DAI);\r\n        // Strike price of DAI per ETH. ETH / DAI = price of dai per eth, then scaled to 10^18 units.\r\n        uint256 strike = price.mul(ONE_ETHER).div(base);\r\n        // Difference = Base * market price / strike price.\r\n        uint256 difference = base.mul(market).div(strike);\r\n        // Intrinsic value in DAI.\r\n        uint256 intrinsic = difference >= base ? difference.sub(base) : 0;\r\n        // Time left in seconds.\r\n        timeRemainder = (expiry.sub(block.timestamp));\r\n        // Strike / market scaled to 1e18.\r\n        uint256 moneyness = strike.mul(ONE_ETHER).div(market);\r\n        // Extrinsic value in DAI.\r\n        uint256 extrinsic = moneyness\r\n                            .mul(ONE_ETHER)\r\n                            .mul(volatility)\r\n                            .mul(sqrt(timeRemainder))\r\n                                .div(ONE_ETHER)\r\n                                .div(SECONDS_IN_DAY);\r\n        // Total Premium in ETH.\r\n        premium = (extrinsic.add(intrinsic)).mul(market).div(ONE_ETHER);\r\n    }\r\n\r\n    /**\r\n     * @dev Calculates the Pool's Utilization to use as a proxy for volatility.\r\n     * @notice If Pool is not utilized at all, the default volatility is 100.\r\n     */\r\n    function calculateVolatilityProxy(address tokenU, address tokenR, uint256 base, uint256 price)\r\n        public\r\n        view\r\n        returns (uint256 _volatility)\r\n    {\r\n        (uint256 utilized) = poolUtilized(tokenR, base, price);\r\n        uint256 balanceU = IERC20(tokenU).balanceOf(address(this));\r\n        _volatility = utilized > 0 ?\r\n                        utilized\r\n                        .mul(1000)\r\n                        .div(balanceU.add(utilized)) :\r\n                        100;\r\n\r\n    }\r\n\r\n    /**\r\n     * @dev Calculates the utilization of the Pool based on the proportion of tokenR owned.\r\n     */\r\n    function poolUtilized(address tokenR, uint256 base, uint256 price) public view returns (uint256 utilized) {\r\n        utilized = IERC20(tokenR).balanceOf(address(this))\r\n                    .mul(price)\r\n                    .mul(ONE_ETHER)\r\n                    .div(base)\r\n                    .div(ONE_ETHER);\r\n    }\r\n\r\n    /**\r\n     * @dev Utility function to send ethers safely.\r\n     */\r\n    function sendEther(address to, uint256 amount) private returns (bool) {\r\n        (bool success, ) = to.call.value(amount)(\"\");\r\n        require(success, \"ERR_SEND_ETHER\");\r\n        return success;\r\n    }\r\n\r\n    /**\r\n     * @dev Utility function to calculate the square root of an integer. Used in calculating premium.\r\n     */\r\n    function sqrt(uint256 y) public pure returns (uint256 z) {\r\n        if (y > 3) {\r\n            uint256 x = (y + 1) / 2;\r\n            z = y;\r\n            while (x < z) {\r\n                z = x;\r\n                x = (y / x + x) / 2;\r\n            }\r\n        } else if (y != 0) {\r\n            z = 1;\r\n        }\r\n    }\r\n}\r\n\r\n    ",
  "sourcePath": "C:\\Users\\alexa\\OneDrive\\Documents\\Master\\Blockchain\\Projects\\carbon\\contracts\\PrimePool.sol",
  "compiler": {
    "name": "solc",
    "version": "0.6.2+commit.bacdbe57.Emscripten.clang"
  },
  "schemaVersion": "3.0.23",
  "updatedAt": "2020-05-01T05:39:29.703Z",
  "networkType": "ethereum",
  "devdoc": {
    "methods": {
      "allowance(address,address)": {
        "details": "See {IERC20-allowance}."
      },
      "approve(address,uint256)": {
        "details": "See {IERC20-approve}.     * Requirements:     * - `spender` cannot be the zero address."
      },
      "balanceOf(address)": {
        "details": "See {IERC20-balanceOf}."
      },
      "buy(uint256,address)": {
        "details": "Purchase ETH Put.",
        "params": {
          "amount": "The quantity of tokenS (ETH) to 'cover' with an option. Denominated in tokenS (WETH)."
        },
        "returns": {
          "_0": "bool True if the msg.sender receives tokenP."
        }
      },
      "calculatePremium(uint256,uint256,uint256)": {
        "details": "Calculates the intrinsic + extrinsic value of the option."
      },
      "calculateVolatilityProxy(address,address,uint256,uint256)": {
        "details": "Calculates the Pool's Utilization to use as a proxy for volatility."
      },
      "decimals()": {
        "details": "Returns the number of decimals used to get its user representation. For example, if `decimals` equals `2`, a balance of `505` tokens should be displayed to a user as `5,05` (`505 / 10 ** 2`).     * Tokens usually opt for a value of 18, imitating the relationship between Ether and Wei. This is the value {ERC20} uses, unless {_setupDecimals} is called.     * NOTE: This information is only used for _display_ purposes: it in no way affects any of the arithmetic of the contract, including {IERC20-balanceOf} and {IERC20-transfer}."
      },
      "decreaseAllowance(address,uint256)": {
        "details": "Atomically decreases the allowance granted to `spender` by the caller.     * This is an alternative to {approve} that can be used as a mitigation for problems described in {IERC20-approve}.     * Emits an {Approval} event indicating the updated allowance.     * Requirements:     * - `spender` cannot be the zero address. - `spender` must have allowance for the caller of at least `subtractedValue`."
      },
      "deposit(uint256,address)": {
        "details": "Adds liquidity by depositing tokenU. Receives tokenPULP.",
        "params": {
          "amount": "The quantity of tokenU to deposit."
        },
        "returns": {
          "_0": "bool True if the transaction suceeds."
        }
      },
      "increaseAllowance(address,uint256)": {
        "details": "Atomically increases the allowance granted to `spender` by the caller.     * This is an alternative to {approve} that can be used as a mitigation for problems described in {IERC20-approve}.     * Emits an {Approval} event indicating the updated allowance.     * Requirements:     * - `spender` cannot be the zero address."
      },
      "name()": {
        "details": "Returns the name of the token."
      },
      "owner()": {
        "details": "Returns the address of the current owner."
      },
      "paused()": {
        "details": "Returns true if the contract is paused, and false otherwise."
      },
      "poolUtilized(address,uint256,uint256)": {
        "details": "Calculates the utilization of the Pool based on the proportion of tokenR owned."
      },
      "renounceOwnership()": {
        "details": "Leaves the contract without owner. It will not be possible to call `onlyOwner` functions anymore. Can only be called by the current owner.     * NOTE: Renouncing ownership will leave the contract without an owner, thereby removing any functionality that is only available to the owner."
      },
      "sqrt(uint256)": {
        "details": "Utility function to calculate the square root of an integer. Used in calculating premium."
      },
      "symbol()": {
        "details": "Returns the symbol of the token, usually a shorter version of the name."
      },
      "totalSupply()": {
        "details": "See {IERC20-totalSupply}."
      },
      "transfer(address,uint256)": {
        "details": "See {IERC20-transfer}.     * Requirements:     * - `recipient` cannot be the zero address. - the caller must have a balance of at least `amount`."
      },
      "transferFrom(address,address,uint256)": {
        "details": "See {IERC20-transferFrom}.     * Emits an {Approval} event indicating the updated allowance. This is not required by the EIP. See the note at the beginning of {ERC20};     * Requirements: - `sender` and `recipient` cannot be the zero address. - `sender` must have a balance of at least `amount`. - the caller must have allowance for ``sender``'s tokens of at least `amount`."
      },
      "transferOwnership(address)": {
        "details": "Transfers ownership of the contract to a new account (`newOwner`). Can only be called by the current owner."
      },
      "withdraw(uint256,address)": {
        "details": "liquidity Provider burns their tokenPULP for proportional amount of tokenU + tokenS.",
        "params": {
          "amount": "The quantity of liquidity tokens to burn.",
          "tokenP": "The address of the Prime option token."
        },
        "returns": {
          "_0": "bool True if liquidity tokens were burned, and both tokenU + tokenS were sent to user."
        }
      }
    }
  },
  "userdoc": {
    "methods": {
      "buy(uint256,address)": {
        "notice": "An eth put is 200 DAI / 1 ETH. The right to swap 1 ETH (tokenS) for 200 Dai (tokenU). As a user, you want to cover ETH, so you pay in ETH. Every 1 Quantity of ETH covers 200 DAI. A user specifies the amount of ETH they want covered, i.e. the amount of ETH they can swap."
      },
      "calculatePremium(uint256,uint256,uint256)": {
        "notice": "Strike / Market * (Volatility * 1000) * sqrt(T in seconds remaining) / Seconds in a Day."
      },
      "calculateVolatilityProxy(address,address,uint256,uint256)": {
        "notice": "If Pool is not utilized at all, the default volatility is 100."
      },
      "withdraw(uint256,address)": {
        "notice": "outTokenU = inTokenPULP * balanceU / Total Supply tokenPULP,          outTokenS = inTokenPULP * balanceR / Total Supply tokenPULP,         If the pool is fully utilized and there are no strike assets to redeem,         the LPs will have to wait for options to be exercised or become expired."
      }
    }
  }
}