{
  "contractName": "PrimeOption",
  "abi": [
    {
      "inputs": [
        {
          "internalType": "string",
          "name": "name",
          "type": "string"
        },
        {
          "internalType": "string",
          "name": "symbol",
          "type": "string"
        },
        {
          "internalType": "uint256",
          "name": "_marketId",
          "type": "uint256"
        },
        {
          "internalType": "address",
          "name": "tokenU",
          "type": "address"
        },
        {
          "internalType": "address",
          "name": "tokenS",
          "type": "address"
        },
        {
          "internalType": "uint256",
          "name": "ratio",
          "type": "uint256"
        },
        {
          "internalType": "uint256",
          "name": "expiry",
          "type": "uint256"
        }
      ],
      "stateMutability": "nonpayable",
      "type": "constructor"
    },
    {
      "anonymous": false,
      "inputs": [
        {
          "indexed": true,
          "internalType": "address",
          "name": "owner",
          "type": "address"
        },
        {
          "indexed": true,
          "internalType": "address",
          "name": "spender",
          "type": "address"
        },
        {
          "indexed": false,
          "internalType": "uint256",
          "name": "value",
          "type": "uint256"
        }
      ],
      "name": "Approval",
      "type": "event"
    },
    {
      "anonymous": false,
      "inputs": [
        {
          "indexed": true,
          "internalType": "address",
          "name": "from",
          "type": "address"
        },
        {
          "indexed": false,
          "internalType": "uint256",
          "name": "inTokenP",
          "type": "uint256"
        }
      ],
      "name": "Close",
      "type": "event"
    },
    {
      "anonymous": false,
      "inputs": [
        {
          "indexed": false,
          "internalType": "uint256",
          "name": "cacheU",
          "type": "uint256"
        },
        {
          "indexed": false,
          "internalType": "uint256",
          "name": "cacheS",
          "type": "uint256"
        },
        {
          "indexed": false,
          "internalType": "uint256",
          "name": "cacheR",
          "type": "uint256"
        }
      ],
      "name": "Fund",
      "type": "event"
    },
    {
      "anonymous": false,
      "inputs": [
        {
          "indexed": true,
          "internalType": "address",
          "name": "from",
          "type": "address"
        },
        {
          "indexed": false,
          "internalType": "uint256",
          "name": "outTokenP",
          "type": "uint256"
        },
        {
          "indexed": false,
          "internalType": "uint256",
          "name": "outTokenR",
          "type": "uint256"
        }
      ],
      "name": "Mint",
      "type": "event"
    },
    {
      "anonymous": false,
      "inputs": [
        {
          "indexed": true,
          "internalType": "address",
          "name": "from",
          "type": "address"
        },
        {
          "indexed": false,
          "internalType": "uint256",
          "name": "inTokenR",
          "type": "uint256"
        }
      ],
      "name": "Redeem",
      "type": "event"
    },
    {
      "anonymous": false,
      "inputs": [
        {
          "indexed": true,
          "internalType": "address",
          "name": "from",
          "type": "address"
        },
        {
          "indexed": false,
          "internalType": "uint256",
          "name": "outTokenU",
          "type": "uint256"
        },
        {
          "indexed": false,
          "internalType": "uint256",
          "name": "inTokenS",
          "type": "uint256"
        }
      ],
      "name": "Swap",
      "type": "event"
    },
    {
      "anonymous": false,
      "inputs": [
        {
          "indexed": true,
          "internalType": "address",
          "name": "from",
          "type": "address"
        },
        {
          "indexed": true,
          "internalType": "address",
          "name": "to",
          "type": "address"
        },
        {
          "indexed": false,
          "internalType": "uint256",
          "name": "value",
          "type": "uint256"
        }
      ],
      "name": "Transfer",
      "type": "event"
    },
    {
      "inputs": [],
      "name": "DENOMINATOR",
      "outputs": [
        {
          "internalType": "uint256",
          "name": "",
          "type": "uint256"
        }
      ],
      "stateMutability": "view",
      "type": "function"
    },
    {
      "inputs": [
        {
          "internalType": "address",
          "name": "owner",
          "type": "address"
        },
        {
          "internalType": "address",
          "name": "spender",
          "type": "address"
        }
      ],
      "name": "allowance",
      "outputs": [
        {
          "internalType": "uint256",
          "name": "",
          "type": "uint256"
        }
      ],
      "stateMutability": "view",
      "type": "function"
    },
    {
      "inputs": [
        {
          "internalType": "address",
          "name": "spender",
          "type": "address"
        },
        {
          "internalType": "uint256",
          "name": "amount",
          "type": "uint256"
        }
      ],
      "name": "approve",
      "outputs": [
        {
          "internalType": "bool",
          "name": "",
          "type": "bool"
        }
      ],
      "stateMutability": "nonpayable",
      "type": "function"
    },
    {
      "inputs": [
        {
          "internalType": "address",
          "name": "account",
          "type": "address"
        }
      ],
      "name": "balanceOf",
      "outputs": [
        {
          "internalType": "uint256",
          "name": "",
          "type": "uint256"
        }
      ],
      "stateMutability": "view",
      "type": "function"
    },
    {
      "inputs": [],
      "name": "cacheR",
      "outputs": [
        {
          "internalType": "uint256",
          "name": "",
          "type": "uint256"
        }
      ],
      "stateMutability": "view",
      "type": "function"
    },
    {
      "inputs": [],
      "name": "cacheS",
      "outputs": [
        {
          "internalType": "uint256",
          "name": "",
          "type": "uint256"
        }
      ],
      "stateMutability": "view",
      "type": "function"
    },
    {
      "inputs": [],
      "name": "cacheU",
      "outputs": [
        {
          "internalType": "uint256",
          "name": "",
          "type": "uint256"
        }
      ],
      "stateMutability": "view",
      "type": "function"
    },
    {
      "inputs": [],
      "name": "decimals",
      "outputs": [
        {
          "internalType": "uint8",
          "name": "",
          "type": "uint8"
        }
      ],
      "stateMutability": "view",
      "type": "function"
    },
    {
      "inputs": [
        {
          "internalType": "address",
          "name": "spender",
          "type": "address"
        },
        {
          "internalType": "uint256",
          "name": "subtractedValue",
          "type": "uint256"
        }
      ],
      "name": "decreaseAllowance",
      "outputs": [
        {
          "internalType": "bool",
          "name": "",
          "type": "bool"
        }
      ],
      "stateMutability": "nonpayable",
      "type": "function"
    },
    {
      "inputs": [],
      "name": "factory",
      "outputs": [
        {
          "internalType": "address",
          "name": "",
          "type": "address"
        }
      ],
      "stateMutability": "view",
      "type": "function"
    },
    {
      "inputs": [
        {
          "internalType": "address",
          "name": "spender",
          "type": "address"
        },
        {
          "internalType": "uint256",
          "name": "addedValue",
          "type": "uint256"
        }
      ],
      "name": "increaseAllowance",
      "outputs": [
        {
          "internalType": "bool",
          "name": "",
          "type": "bool"
        }
      ],
      "stateMutability": "nonpayable",
      "type": "function"
    },
    {
      "inputs": [],
      "name": "marketId",
      "outputs": [
        {
          "internalType": "uint256",
          "name": "",
          "type": "uint256"
        }
      ],
      "stateMutability": "view",
      "type": "function"
    },
    {
      "inputs": [],
      "name": "name",
      "outputs": [
        {
          "internalType": "string",
          "name": "",
          "type": "string"
        }
      ],
      "stateMutability": "view",
      "type": "function"
    },
    {
      "inputs": [],
      "name": "option",
      "outputs": [
        {
          "internalType": "address",
          "name": "tokenU",
          "type": "address"
        },
        {
          "internalType": "address",
          "name": "tokenS",
          "type": "address"
        },
        {
          "internalType": "uint256",
          "name": "ratio",
          "type": "uint256"
        },
        {
          "internalType": "uint256",
          "name": "expiry",
          "type": "uint256"
        }
      ],
      "stateMutability": "view",
      "type": "function"
    },
    {
      "inputs": [],
      "name": "symbol",
      "outputs": [
        {
          "internalType": "string",
          "name": "",
          "type": "string"
        }
      ],
      "stateMutability": "view",
      "type": "function"
    },
    {
      "inputs": [],
      "name": "test",
      "outputs": [
        {
          "internalType": "uint256",
          "name": "",
          "type": "uint256"
        }
      ],
      "stateMutability": "view",
      "type": "function"
    },
    {
      "inputs": [],
      "name": "tokenR",
      "outputs": [
        {
          "internalType": "address",
          "name": "",
          "type": "address"
        }
      ],
      "stateMutability": "view",
      "type": "function"
    },
    {
      "inputs": [],
      "name": "totalSupply",
      "outputs": [
        {
          "internalType": "uint256",
          "name": "",
          "type": "uint256"
        }
      ],
      "stateMutability": "view",
      "type": "function"
    },
    {
      "inputs": [
        {
          "internalType": "address",
          "name": "recipient",
          "type": "address"
        },
        {
          "internalType": "uint256",
          "name": "amount",
          "type": "uint256"
        }
      ],
      "name": "transfer",
      "outputs": [
        {
          "internalType": "bool",
          "name": "",
          "type": "bool"
        }
      ],
      "stateMutability": "nonpayable",
      "type": "function"
    },
    {
      "inputs": [
        {
          "internalType": "address",
          "name": "sender",
          "type": "address"
        },
        {
          "internalType": "address",
          "name": "recipient",
          "type": "address"
        },
        {
          "internalType": "uint256",
          "name": "amount",
          "type": "uint256"
        }
      ],
      "name": "transferFrom",
      "outputs": [
        {
          "internalType": "bool",
          "name": "",
          "type": "bool"
        }
      ],
      "stateMutability": "nonpayable",
      "type": "function"
    },
    {
      "inputs": [
        {
          "internalType": "address",
          "name": "_tokenR",
          "type": "address"
        }
      ],
      "name": "initTokenR",
      "outputs": [
        {
          "internalType": "bool",
          "name": "",
          "type": "bool"
        }
      ],
      "stateMutability": "nonpayable",
      "type": "function"
    },
    {
      "inputs": [],
      "name": "getCaches",
      "outputs": [
        {
          "internalType": "uint256",
          "name": "_cacheU",
          "type": "uint256"
        },
        {
          "internalType": "uint256",
          "name": "_cacheS",
          "type": "uint256"
        },
        {
          "internalType": "uint256",
          "name": "_cacheR",
          "type": "uint256"
        }
      ],
      "stateMutability": "view",
      "type": "function"
    },
    {
      "inputs": [],
      "name": "getTokens",
      "outputs": [
        {
          "internalType": "address",
          "name": "_tokenU",
          "type": "address"
        },
        {
          "internalType": "address",
          "name": "_tokenS",
          "type": "address"
        },
        {
          "internalType": "address",
          "name": "_tokenR",
          "type": "address"
        }
      ],
      "stateMutability": "view",
      "type": "function"
    },
    {
      "inputs": [],
      "name": "update",
      "outputs": [],
      "stateMutability": "nonpayable",
      "type": "function"
    },
    {
      "inputs": [],
      "name": "take",
      "outputs": [],
      "stateMutability": "nonpayable",
      "type": "function"
    },
    {
      "inputs": [
        {
          "internalType": "address",
          "name": "receiver",
          "type": "address"
        }
      ],
      "name": "mint",
      "outputs": [
        {
          "internalType": "uint256",
          "name": "inTokenU",
          "type": "uint256"
        },
        {
          "internalType": "uint256",
          "name": "outTokenR",
          "type": "uint256"
        }
      ],
      "stateMutability": "nonpayable",
      "type": "function"
    },
    {
      "inputs": [
        {
          "internalType": "address",
          "name": "receiver",
          "type": "address"
        }
      ],
      "name": "swap",
      "outputs": [
        {
          "internalType": "uint256",
          "name": "inTokenS",
          "type": "uint256"
        },
        {
          "internalType": "uint256",
          "name": "inTokenP",
          "type": "uint256"
        },
        {
          "internalType": "uint256",
          "name": "outTokenU",
          "type": "uint256"
        }
      ],
      "stateMutability": "nonpayable",
      "type": "function"
    },
    {
      "inputs": [
        {
          "internalType": "address",
          "name": "receiver",
          "type": "address"
        }
      ],
      "name": "redeem",
      "outputs": [
        {
          "internalType": "uint256",
          "name": "inTokenR",
          "type": "uint256"
        }
      ],
      "stateMutability": "nonpayable",
      "type": "function"
    },
    {
      "inputs": [
        {
          "internalType": "address",
          "name": "receiver",
          "type": "address"
        }
      ],
      "name": "close",
      "outputs": [
        {
          "internalType": "uint256",
          "name": "inTokenR",
          "type": "uint256"
        },
        {
          "internalType": "uint256",
          "name": "inTokenP",
          "type": "uint256"
        },
        {
          "internalType": "uint256",
          "name": "outTokenU",
          "type": "uint256"
        }
      ],
      "stateMutability": "nonpayable",
      "type": "function"
    },
    {
      "inputs": [],
      "name": "tokenS",
      "outputs": [
        {
          "internalType": "address",
          "name": "",
          "type": "address"
        }
      ],
      "stateMutability": "view",
      "type": "function"
    },
    {
      "inputs": [],
      "name": "tokenU",
      "outputs": [
        {
          "internalType": "address",
          "name": "",
          "type": "address"
        }
      ],
      "stateMutability": "view",
      "type": "function"
    },
    {
      "inputs": [],
      "name": "ratio",
      "outputs": [
        {
          "internalType": "uint256",
          "name": "",
          "type": "uint256"
        }
      ],
      "stateMutability": "view",
      "type": "function"
    },
    {
      "inputs": [],
      "name": "expiry",
      "outputs": [
        {
          "internalType": "uint256",
          "name": "",
          "type": "uint256"
        }
      ],
      "stateMutability": "view",
      "type": "function"
    },
    {
      "inputs": [],
      "name": "maxDraw",
      "outputs": [
        {
          "internalType": "uint256",
          "name": "draw",
          "type": "uint256"
        }
      ],
      "stateMutability": "view",
      "type": "function"
    }
  ],
  "bytecode": "0x60806040523480156200001157600080fd5b5060405162004ada38038062004ada833981810160405260e08110156200003757600080fd5b81019080805160405193929190846401000000008211156200005857600080fd5b838201915060208201858111156200006f57600080fd5b82518660018202830111640100000000821117156200008d57600080fd5b8083526020830192505050908051906020019080838360005b83811015620000c3578082015181840152602081019050620000a6565b50505050905090810190601f168015620000f15780820380516001836020036101000a031916815260200191505b50604052602001805160405193929190846401000000008211156200011557600080fd5b838201915060208201858111156200012c57600080fd5b82518660018202830111640100000000821117156200014a57600080fd5b8083526020830192505050908051906020019080838360005b838110156200018057808201518184015260208101905062000163565b50505050905090810190601f168015620001ae5780820380516001836020036101000a031916815260200191505b5060405260200180519060200190929190805190602001909291908051906020019092919080519060200190929190805190602001909291905050508686816003908051906020019062000204929190620003a0565b5080600490805190602001906200021d929190620003a0565b506012600560006101000a81548160ff021916908360ff16021790555050506001600560016101000a81548160ff02191690831515021790555084600a8190555033600660006101000a81548173ffffffffffffffffffffffffffffffffffffffff021916908373ffffffffffffffffffffffffffffffffffffffff16021790555060405180608001604052808573ffffffffffffffffffffffffffffffffffffffff1681526020018473ffffffffffffffffffffffffffffffffffffffff16815260200183815260200182815250600b60008201518160000160006101000a81548173ffffffffffffffffffffffffffffffffffffffff021916908373ffffffffffffffffffffffffffffffffffffffff16021790555060208201518160010160006101000a81548173ffffffffffffffffffffffffffffffffffffffff021916908373ffffffffffffffffffffffffffffffffffffffff1602179055506040820151816002015560608201518160030155905050505050505050506200044f565b828054600181600116156101000203166002900490600052602060002090601f016020900481019282601f10620003e357805160ff191683800117855562000414565b8280016001018555821562000414579182015b8281111562000413578251825591602001919060010190620003f6565b5b50905062000423919062000427565b5090565b6200044c91905b80821115620004485760008160009055506001016200042e565b5090565b90565b61467b806200045f6000396000f3fe608060405234801561001057600080fd5b50600436106102065760003560e01c806371ca337d1161011a578063aa6ca808116100ad578063dd62ed3e1161007c578063dd62ed3e14610ae1578063e184c9be14610b59578063ef57128e14610b77578063f1e34fbb14610b95578063f8a8fd6d14610bb357610206565b8063aa6ca80814610925578063bc2841b5146109d5578063c45a015514610a31578063c74073a114610a7b57610206565b80639cc5d5cc116100e95780639cc5d5cc14610823578063a2e620451461084f578063a457c2d714610859578063a9059cbb146108bf57610206565b806371ca337d1461070c578063918f86741461072a57806395a2251f1461074857806395d89b41146107a057610206565b806323b872dd1161019d5780634e11482f1161016c5780634e11482f146105cf57806360f88035146105ed5780636a627842146106375780636ed71ede1461069657806370a08231146106b457610206565b806323b872dd14610475578063313ce567146104fb578063395093511461051f5780634a244e541461058557610206565b8063095ea7b3116101d9578063095ea7b3146103c95780630f53ad571461042f578063159090bd1461044d57806318160ddd1461045757610206565b8063010035af1461020b57806303438dd01461029657806306fdde03146102fc5780630727d5d21461037f575b600080fd5b610213610bd1565b604051808573ffffffffffffffffffffffffffffffffffffffff1673ffffffffffffffffffffffffffffffffffffffff1681526020018473ffffffffffffffffffffffffffffffffffffffff1673ffffffffffffffffffffffffffffffffffffffff16815260200183815260200182815260200194505050505060405180910390f35b6102d8600480360360208110156102ac57600080fd5b81019080803573ffffffffffffffffffffffffffffffffffffffff169060200190929190505050610c2f565b60405180848152602001838152602001828152602001935050505060405180910390f35b610304611342565b6040518080602001828103825283818151815260200191508051906020019080838360005b83811015610344578082015181840152602081019050610329565b50505050905090810190601f1680156103715780820380516001836020036101000a031916815260200191505b509250505060405180910390f35b6103876113e4565b604051808273ffffffffffffffffffffffffffffffffffffffff1673ffffffffffffffffffffffffffffffffffffffff16815260200191505060405180910390f35b610415600480360360408110156103df57600080fd5b81019080803573ffffffffffffffffffffffffffffffffffffffff16906020019092919080359060200190929190505050611411565b604051808215151515815260200191505060405180910390f35b61043761142f565b6040518082815260200191505060405180910390f35b610455611435565b005b61045f611b29565b6040518082815260200191505060405180910390f35b6104e16004803603606081101561048b57600080fd5b81019080803573ffffffffffffffffffffffffffffffffffffffff169060200190929190803573ffffffffffffffffffffffffffffffffffffffff16906020019092919080359060200190929190505050611b33565b604051808215151515815260200191505060405180910390f35b610503611c0c565b604051808260ff1660ff16815260200191505060405180910390f35b61056b6004803603604081101561053557600080fd5b81019080803573ffffffffffffffffffffffffffffffffffffffff16906020019092919080359060200190929190505050611c23565b604051808215151515815260200191505060405180910390f35b61058d611cd6565b604051808273ffffffffffffffffffffffffffffffffffffffff1673ffffffffffffffffffffffffffffffffffffffff16815260200191505060405180910390f35b6105d7611d03565b6040518082815260200191505060405180910390f35b6105f5611e00565b604051808273ffffffffffffffffffffffffffffffffffffffff1673ffffffffffffffffffffffffffffffffffffffff16815260200191505060405180910390f35b6106796004803603602081101561064d57600080fd5b81019080803573ffffffffffffffffffffffffffffffffffffffff169060200190929190505050611e26565b604051808381526020018281526020019250505060405180910390f35b61069e612258565b6040518082815260200191505060405180910390f35b6106f6600480360360208110156106ca57600080fd5b81019080803573ffffffffffffffffffffffffffffffffffffffff16906020019092919050505061225e565b6040518082815260200191505060405180910390f35b6107146122a6565b6040518082815260200191505060405180910390f35b6107326122b3565b6040518082815260200191505060405180910390f35b61078a6004803603602081101561075e57600080fd5b81019080803573ffffffffffffffffffffffffffffffffffffffff1690602001909291905050506122bf565b6040518082815260200191505060405180910390f35b6107a86128f7565b6040518080602001828103825283818151815260200191508051906020019080838360005b838110156107e85780820151818401526020810190506107cd565b50505050905090810190601f1680156108155780820380516001836020036101000a031916815260200191505b509250505060405180910390f35b61082b612999565b60405180848152602001838152602001828152602001935050505060405180910390f35b6108576129b2565b005b6108a56004803603604081101561086f57600080fd5b81019080803573ffffffffffffffffffffffffffffffffffffffff16906020019092919080359060200190929190505050612d08565b604051808215151515815260200191505060405180910390f35b61090b600480360360408110156108d557600080fd5b81019080803573ffffffffffffffffffffffffffffffffffffffff16906020019092919080359060200190929190505050612dd5565b604051808215151515815260200191505060405180910390f35b61092d612df3565b604051808473ffffffffffffffffffffffffffffffffffffffff1673ffffffffffffffffffffffffffffffffffffffff1681526020018373ffffffffffffffffffffffffffffffffffffffff1673ffffffffffffffffffffffffffffffffffffffff1681526020018273ffffffffffffffffffffffffffffffffffffffff1673ffffffffffffffffffffffffffffffffffffffff168152602001935050505060405180910390f35b610a17600480360360208110156109eb57600080fd5b81019080803573ffffffffffffffffffffffffffffffffffffffff169060200190929190505050612e72565b604051808215151515815260200191505060405180910390f35b610a39612f81565b604051808273ffffffffffffffffffffffffffffffffffffffff1673ffffffffffffffffffffffffffffffffffffffff16815260200191505060405180910390f35b610abd60048036036020811015610a9157600080fd5b81019080803573ffffffffffffffffffffffffffffffffffffffff169060200190929190505050612fa7565b60405180848152602001838152602001828152602001935050505060405180910390f35b610b4360048036036040811015610af757600080fd5b81019080803573ffffffffffffffffffffffffffffffffffffffff169060200190929190803573ffffffffffffffffffffffffffffffffffffffff1690602001909291905050506136f7565b6040518082815260200191505060405180910390f35b610b6161377e565b6040518082815260200191505060405180910390f35b610b7f61378b565b6040518082815260200191505060405180910390f35b610b9d613791565b6040518082815260200191505060405180910390f35b610bbb613797565b6040518082815260200191505060405180910390f35b600b8060000160009054906101000a900473ffffffffffffffffffffffffffffffffffffffff16908060010160009054906101000a900473ffffffffffffffffffffffffffffffffffffffff16908060020154908060030154905084565b6000806000600560019054906101000a900460ff16610cb6576040517f08c379a000000000000000000000000000000000000000000000000000000000815260040180806020018281038252601f8152602001807f5265656e7472616e637947756172643a207265656e7472616e742063616c6c0081525060200191505060405180910390fd5b6000600560016101000a81548160ff02191690831515021790555042600b600301541015610d4c576040517f08c379a000000000000000000000000000000000000000000000000000000000815260040180806020018281038252600b8152602001807f4552525f4558504952454400000000000000000000000000000000000000000081525060200191505060405180910390fd5b6000600b60000160009054906101000a900473ffffffffffffffffffffffffffffffffffffffff1690506000600b60010160009054906101000a900473ffffffffffffffffffffffffffffffffffffffff16905060008173ffffffffffffffffffffffffffffffffffffffff166370a08231306040518263ffffffff1660e01b8152600401808273ffffffffffffffffffffffffffffffffffffffff1673ffffffffffffffffffffffffffffffffffffffff16815260200191505060206040518083038186803b158015610e1f57600080fd5b505afa158015610e33573d6000803e3d6000fd5b505050506040513d6020811015610e4957600080fd5b8101908080519060200190929190505050905060008373ffffffffffffffffffffffffffffffffffffffff166370a08231306040518263ffffffff1660e01b8152600401808273ffffffffffffffffffffffffffffffffffffffff1673ffffffffffffffffffffffffffffffffffffffff16815260200191505060206040518083038186803b158015610edb57600080fd5b505afa158015610eef573d6000803e3d6000fd5b505050506040513d6020811015610f0557600080fd5b810190808051906020019092919050505090506000610f233061225e565b9050610f3a6008548461379d90919063ffffffff16565b9750809650610f71600b60020154610f63670de0b6b3a76400008b6137e790919063ffffffff16565b61386d90919063ffffffff16565b9550600088118015610f835750600087115b610ff5576040517f08c379a00000000000000000000000000000000000000000000000000000000081526004018080602001828103825260088152602001807f4552525f5a45524f00000000000000000000000000000000000000000000000081525060200191505060405180910390fd5b8587101580156110055750858210155b611077576040517f08c379a00000000000000000000000000000000000000000000000000000000081526004018080602001828103825260128152602001807f4552525f42414c5f554e4445524c59494e47000000000000000000000000000081525060200191505060405180910390fd5b61108130886138b7565b8473ffffffffffffffffffffffffffffffffffffffff1663a9059cbb8a886040518363ffffffff1660e01b8152600401808373ffffffffffffffffffffffffffffffffffffffff1673ffffffffffffffffffffffffffffffffffffffff16815260200182815260200192505050602060405180830381600087803b15801561110857600080fd5b505af115801561111c573d6000803e3d6000fd5b505050506040513d602081101561113257600080fd5b8101908080519060200190929190505050508373ffffffffffffffffffffffffffffffffffffffff166370a08231306040518263ffffffff1660e01b8152600401808273ffffffffffffffffffffffffffffffffffffffff1673ffffffffffffffffffffffffffffffffffffffff16815260200191505060206040518083038186803b1580156111c157600080fd5b505afa1580156111d5573d6000803e3d6000fd5b505050506040513d60208110156111eb57600080fd5b810190808051906020019092919050505092508473ffffffffffffffffffffffffffffffffffffffff166370a08231306040518263ffffffff1660e01b8152600401808273ffffffffffffffffffffffffffffffffffffffff1673ffffffffffffffffffffffffffffffffffffffff16815260200191505060206040518083038186803b15801561127b57600080fd5b505afa15801561128f573d6000803e3d6000fd5b505050506040513d60208110156112a557600080fd5b810190808051906020019092919050505091506112c58284600954613a7b565b8873ffffffffffffffffffffffffffffffffffffffff167f77f92a1b6a1a11de8ca49515ad4c1fad45632dd3442167d74b90b304a3c7a758878a604051808381526020018281526020019250505060405180910390a250505050506001600560016101000a81548160ff0219169083151502179055509193909250565b606060038054600181600116156101000203166002900480601f0160208091040260200160405190810160405280929190818152602001828054600181600116156101000203166002900480156113da5780601f106113af576101008083540402835291602001916113da565b820191906000526020600020905b8154815290600101906020018083116113bd57829003601f168201915b5050505050905090565b6000600b60010160009054906101000a900473ffffffffffffffffffffffffffffffffffffffff16905090565b600061142561141e613adc565b8484613ae4565b6001905092915050565b60095481565b600560019054906101000a900460ff166114b7576040517f08c379a000000000000000000000000000000000000000000000000000000000815260040180806020018281038252601f8152602001807f5265656e7472616e637947756172643a207265656e7472616e742063616c6c0081525060200191505060405180910390fd5b6000600560016101000a81548160ff02191690831515021790555060008060006114df612df3565b9250925092508273ffffffffffffffffffffffffffffffffffffffff1663a9059cbb336115ce6007548773ffffffffffffffffffffffffffffffffffffffff166370a08231306040518263ffffffff1660e01b8152600401808273ffffffffffffffffffffffffffffffffffffffff1673ffffffffffffffffffffffffffffffffffffffff16815260200191505060206040518083038186803b15801561158557600080fd5b505afa158015611599573d6000803e3d6000fd5b505050506040513d60208110156115af57600080fd5b810190808051906020019092919050505061379d90919063ffffffff16565b6040518363ffffffff1660e01b8152600401808373ffffffffffffffffffffffffffffffffffffffff1673ffffffffffffffffffffffffffffffffffffffff16815260200182815260200192505050602060405180830381600087803b15801561163757600080fd5b505af115801561164b573d6000803e3d6000fd5b505050506040513d602081101561166157600080fd5b8101908080519060200190929190505050508173ffffffffffffffffffffffffffffffffffffffff1663a9059cbb3361175c6008548673ffffffffffffffffffffffffffffffffffffffff166370a08231306040518263ffffffff1660e01b8152600401808273ffffffffffffffffffffffffffffffffffffffff1673ffffffffffffffffffffffffffffffffffffffff16815260200191505060206040518083038186803b15801561171357600080fd5b505afa158015611727573d6000803e3d6000fd5b505050506040513d602081101561173d57600080fd5b810190808051906020019092919050505061379d90919063ffffffff16565b6040518363ffffffff1660e01b8152600401808373ffffffffffffffffffffffffffffffffffffffff1673ffffffffffffffffffffffffffffffffffffffff16815260200182815260200192505050602060405180830381600087803b1580156117c557600080fd5b505af11580156117d9573d6000803e3d6000fd5b505050506040513d60208110156117ef57600080fd5b8101908080519060200190929190505050508073ffffffffffffffffffffffffffffffffffffffff1663a9059cbb336118ea6009548573ffffffffffffffffffffffffffffffffffffffff166370a08231306040518263ffffffff1660e01b8152600401808273ffffffffffffffffffffffffffffffffffffffff1673ffffffffffffffffffffffffffffffffffffffff16815260200191505060206040518083038186803b1580156118a157600080fd5b505afa1580156118b5573d6000803e3d6000fd5b505050506040513d60208110156118cb57600080fd5b810190808051906020019092919050505061379d90919063ffffffff16565b6040518363ffffffff1660e01b8152600401808373ffffffffffffffffffffffffffffffffffffffff1673ffffffffffffffffffffffffffffffffffffffff16815260200182815260200192505050602060405180830381600087803b15801561195357600080fd5b505af1158015611967573d6000803e3d6000fd5b505050506040513d602081101561197d57600080fd5b8101908080519060200190929190505050503073ffffffffffffffffffffffffffffffffffffffff1663a9059cbb333073ffffffffffffffffffffffffffffffffffffffff166370a08231306040518263ffffffff1660e01b8152600401808273ffffffffffffffffffffffffffffffffffffffff1673ffffffffffffffffffffffffffffffffffffffff16815260200191505060206040518083038186803b158015611a2957600080fd5b505afa158015611a3d573d6000803e3d6000fd5b505050506040513d6020811015611a5357600080fd5b81019080805190602001909291905050506040518363ffffffff1660e01b8152600401808373ffffffffffffffffffffffffffffffffffffffff1673ffffffffffffffffffffffffffffffffffffffff16815260200182815260200192505050602060405180830381600087803b158015611acd57600080fd5b505af1158015611ae1573d6000803e3d6000fd5b505050506040513d6020811015611af757600080fd5b8101908080519060200190929190505050505050506001600560016101000a81548160ff021916908315150217905550565b6000600254905090565b6000611b40848484613cdb565b611c0184611b4c613adc565b611bfc8560405180606001604052806028815260200161458f60289139600160008b73ffffffffffffffffffffffffffffffffffffffff1673ffffffffffffffffffffffffffffffffffffffff1681526020019081526020016000206000611bb2613adc565b73ffffffffffffffffffffffffffffffffffffffff1673ffffffffffffffffffffffffffffffffffffffff16815260200190815260200160002054613f9c9092919063ffffffff16565b613ae4565b600190509392505050565b6000600560009054906101000a900460ff16905090565b6000611ccc611c30613adc565b84611cc78560016000611c41613adc565b73ffffffffffffffffffffffffffffffffffffffff1673ffffffffffffffffffffffffffffffffffffffff16815260200190815260200160002060008973ffffffffffffffffffffffffffffffffffffffff1673ffffffffffffffffffffffffffffffffffffffff1681526020019081526020016000205461405c90919063ffffffff16565b613ae4565b6001905092915050565b6000600b60000160009054906101000a900473ffffffffffffffffffffffffffffffffffffffff16905090565b600080600560029054906101000a900473ffffffffffffffffffffffffffffffffffffffff1673ffffffffffffffffffffffffffffffffffffffff166370a08231336040518263ffffffff1660e01b8152600401808273ffffffffffffffffffffffffffffffffffffffff1673ffffffffffffffffffffffffffffffffffffffff16815260200191505060206040518083038186803b158015611da557600080fd5b505afa158015611db9573d6000803e3d6000fd5b505050506040513d6020811015611dcf57600080fd5b810190808051906020019092919050505090508060085411611df657600854915081611dfb565b809150815b505090565b600560029054906101000a900473ffffffffffffffffffffffffffffffffffffffff1681565b600080600560019054906101000a900460ff16611eab576040517f08c379a000000000000000000000000000000000000000000000000000000000815260040180806020018281038252601f8152602001807f5265656e7472616e637947756172643a207265656e7472616e742063616c6c0081525060200191505060405180910390fd5b6000600560016101000a81548160ff02191690831515021790555042600b600301541015611f41576040517f08c379a000000000000000000000000000000000000000000000000000000000815260040180806020018281038252600b8152602001807f4552525f4558504952454400000000000000000000000000000000000000000081525060200191505060405180910390fd5b6000600b60000160009054906101000a900473ffffffffffffffffffffffffffffffffffffffff1673ffffffffffffffffffffffffffffffffffffffff166370a08231306040518263ffffffff1660e01b8152600401808273ffffffffffffffffffffffffffffffffffffffff1673ffffffffffffffffffffffffffffffffffffffff16815260200191505060206040518083038186803b158015611fe557600080fd5b505afa158015611ff9573d6000803e3d6000fd5b505050506040513d602081101561200f57600080fd5b810190808051906020019092919050505090506120376007548261379d90919063ffffffff16565b925061206b670de0b6b3a764000061205d600b60020154866137e790919063ffffffff16565b61386d90919063ffffffff16565b9150600083116120e3576040517f08c379a00000000000000000000000000000000000000000000000000000000081526004018080602001828103825260088152602001807f4552525f5a45524f00000000000000000000000000000000000000000000000081525060200191505060405180910390fd5b600560029054906101000a900473ffffffffffffffffffffffffffffffffffffffff1673ffffffffffffffffffffffffffffffffffffffff166340c10f1985846040518363ffffffff1660e01b8152600401808373ffffffffffffffffffffffffffffffffffffffff1673ffffffffffffffffffffffffffffffffffffffff16815260200182815260200192505050602060405180830381600087803b15801561218c57600080fd5b505af11580156121a0573d6000803e3d6000fd5b505050506040513d60208110156121b657600080fd5b8101908080519060200190929190505050506121d284846140e4565b6121e181600854600954613a7b565b8373ffffffffffffffffffffffffffffffffffffffff167f4c209b5fc8ad50758f13e2e1088ba56a560dff690a1c6fef26394f4c03821c4f8484604051808381526020018281526020019250505060405180910390a2506001600560016101000a81548160ff021916908315150217905550915091565b600a5481565b60008060008373ffffffffffffffffffffffffffffffffffffffff1673ffffffffffffffffffffffffffffffffffffffff168152602001908152602001600020549050919050565b6000600b60020154905090565b670de0b6b3a764000081565b6000600560019054906101000a900460ff16612343576040517f08c379a000000000000000000000000000000000000000000000000000000000815260040180806020018281038252601f8152602001807f5265656e7472616e637947756172643a207265656e7472616e742063616c6c0081525060200191505060405180910390fd5b6000600560016101000a81548160ff0219169083151502179055506000600b60010160009054906101000a900473ffffffffffffffffffffffffffffffffffffffff1690506000600560029054906101000a900473ffffffffffffffffffffffffffffffffffffffff16905060008273ffffffffffffffffffffffffffffffffffffffff166370a08231306040518263ffffffff1660e01b8152600401808273ffffffffffffffffffffffffffffffffffffffff1673ffffffffffffffffffffffffffffffffffffffff16815260200191505060206040518083038186803b15801561242e57600080fd5b505afa158015612442573d6000803e3d6000fd5b505050506040513d602081101561245857600080fd5b8101908080519060200190929190505050905060008273ffffffffffffffffffffffffffffffffffffffff166370a08231306040518263ffffffff1660e01b8152600401808273ffffffffffffffffffffffffffffffffffffffff1673ffffffffffffffffffffffffffffffffffffffff16815260200191505060206040518083038186803b1580156124ea57600080fd5b505afa1580156124fe573d6000803e3d6000fd5b505050506040513d602081101561251457600080fd5b8101908080519060200190929190505050905061253c6009548261379d90919063ffffffff16565b945061257e82866040518060400160405280600e81526020017f4552525f42414c5f535452494b450000000000000000000000000000000000008152506142ab565b8273ffffffffffffffffffffffffffffffffffffffff16639dc29fac30876040518363ffffffff1660e01b8152600401808373ffffffffffffffffffffffffffffffffffffffff1673ffffffffffffffffffffffffffffffffffffffff16815260200182815260200192505050602060405180830381600087803b15801561260557600080fd5b505af1158015612619573d6000803e3d6000fd5b505050506040513d602081101561262f57600080fd5b8101908080519060200190929190505050508373ffffffffffffffffffffffffffffffffffffffff1663a9059cbb87876040518363ffffffff1660e01b8152600401808373ffffffffffffffffffffffffffffffffffffffff1673ffffffffffffffffffffffffffffffffffffffff16815260200182815260200192505050602060405180830381600087803b1580156126c857600080fd5b505af11580156126dc573d6000803e3d6000fd5b505050506040513d60208110156126f257600080fd5b8101908080519060200190929190505050508373ffffffffffffffffffffffffffffffffffffffff166370a08231306040518263ffffffff1660e01b8152600401808273ffffffffffffffffffffffffffffffffffffffff1673ffffffffffffffffffffffffffffffffffffffff16815260200191505060206040518083038186803b15801561278157600080fd5b505afa158015612795573d6000803e3d6000fd5b505050506040513d60208110156127ab57600080fd5b810190808051906020019092919050505091508273ffffffffffffffffffffffffffffffffffffffff166370a08231306040518263ffffffff1660e01b8152600401808273ffffffffffffffffffffffffffffffffffffffff1673ffffffffffffffffffffffffffffffffffffffff16815260200191505060206040518083038186803b15801561283b57600080fd5b505afa15801561284f573d6000803e3d6000fd5b505050506040513d602081101561286557600080fd5b810190808051906020019092919050505090506128856007548383613a7b565b8573ffffffffffffffffffffffffffffffffffffffff167f222838db2794d11532d940e8dec38ae307ed0b63cd97c233322e221f998767a6866040518082815260200191505060405180910390a2505050506001600560016101000a81548160ff021916908315150217905550919050565b606060048054600181600116156101000203166002900480601f01602080910402602001604051908101604052809291908181526020018280546001816001161561010002031660029004801561298f5780601f106129645761010080835404028352916020019161298f565b820191906000526020600020905b81548152906001019060200180831161297257829003601f168201915b5050505050905090565b6000806000600754925060085491506009549050909192565b600560019054906101000a900460ff16612a34576040517f08c379a000000000000000000000000000000000000000000000000000000000815260040180806020018281038252601f8152602001807f5265656e7472616e637947756172643a207265656e7472616e742063616c6c0081525060200191505060405180910390fd5b6000600560016101000a81548160ff021916908315150217905550612ceb600b60000160009054906101000a900473ffffffffffffffffffffffffffffffffffffffff1673ffffffffffffffffffffffffffffffffffffffff166370a08231306040518263ffffffff1660e01b8152600401808273ffffffffffffffffffffffffffffffffffffffff1673ffffffffffffffffffffffffffffffffffffffff16815260200191505060206040518083038186803b158015612af457600080fd5b505afa158015612b08573d6000803e3d6000fd5b505050506040513d6020811015612b1e57600080fd5b8101908080519060200190929190505050600b60010160009054906101000a900473ffffffffffffffffffffffffffffffffffffffff1673ffffffffffffffffffffffffffffffffffffffff166370a08231306040518263ffffffff1660e01b8152600401808273ffffffffffffffffffffffffffffffffffffffff1673ffffffffffffffffffffffffffffffffffffffff16815260200191505060206040518083038186803b158015612bd157600080fd5b505afa158015612be5573d6000803e3d6000fd5b505050506040513d6020811015612bfb57600080fd5b8101908080519060200190929190505050600560029054906101000a900473ffffffffffffffffffffffffffffffffffffffff1673ffffffffffffffffffffffffffffffffffffffff166370a08231306040518263ffffffff1660e01b8152600401808273ffffffffffffffffffffffffffffffffffffffff1673ffffffffffffffffffffffffffffffffffffffff16815260200191505060206040518083038186803b158015612cab57600080fd5b505afa158015612cbf573d6000803e3d6000fd5b505050506040513d6020811015612cd557600080fd5b8101908080519060200190929190505050613a7b565b6001600560016101000a81548160ff021916908315150217905550565b6000612dcb612d15613adc565b84612dc6856040518060600160405280602581526020016146216025913960016000612d3f613adc565b73ffffffffffffffffffffffffffffffffffffffff1673ffffffffffffffffffffffffffffffffffffffff16815260200190815260200160002060008a73ffffffffffffffffffffffffffffffffffffffff1673ffffffffffffffffffffffffffffffffffffffff16815260200190815260200160002054613f9c9092919063ffffffff16565b613ae4565b6001905092915050565b6000612de9612de2613adc565b8484613cdb565b6001905092915050565b6000806000600b60000160009054906101000a900473ffffffffffffffffffffffffffffffffffffffff169250600b60010160009054906101000a900473ffffffffffffffffffffffffffffffffffffffff169150600560029054906101000a900473ffffffffffffffffffffffffffffffffffffffff169050909192565b6000600660009054906101000a900473ffffffffffffffffffffffffffffffffffffffff1673ffffffffffffffffffffffffffffffffffffffff163373ffffffffffffffffffffffffffffffffffffffff1614612f37576040517f08c379a000000000000000000000000000000000000000000000000000000000815260040180806020018281038252600d8152602001807f4552525f4e4f545f4f574e45520000000000000000000000000000000000000081525060200191505060405180910390fd5b81600560026101000a81548173ffffffffffffffffffffffffffffffffffffffff021916908373ffffffffffffffffffffffffffffffffffffffff16021790555060019050919050565b600660009054906101000a900473ffffffffffffffffffffffffffffffffffffffff1681565b6000806000600560019054906101000a900460ff1661302e576040517f08c379a000000000000000000000000000000000000000000000000000000000815260040180806020018281038252601f8152602001807f5265656e7472616e637947756172643a207265656e7472616e742063616c6c0081525060200191505060405180910390fd5b6000600560016101000a81548160ff0219169083151502179055506000600b60000160009054906101000a900473ffffffffffffffffffffffffffffffffffffffff1690506000600560029054906101000a900473ffffffffffffffffffffffffffffffffffffffff16905060008273ffffffffffffffffffffffffffffffffffffffff166370a08231306040518263ffffffff1660e01b8152600401808273ffffffffffffffffffffffffffffffffffffffff1673ffffffffffffffffffffffffffffffffffffffff16815260200191505060206040518083038186803b15801561311957600080fd5b505afa15801561312d573d6000803e3d6000fd5b505050506040513d602081101561314357600080fd5b8101908080519060200190929190505050905060008273ffffffffffffffffffffffffffffffffffffffff166370a08231306040518263ffffffff1660e01b8152600401808273ffffffffffffffffffffffffffffffffffffffff1673ffffffffffffffffffffffffffffffffffffffff16815260200191505060206040518083038186803b1580156131d557600080fd5b505afa1580156131e9573d6000803e3d6000fd5b505050506040513d60208110156131ff57600080fd5b81019080805190602001909291905050509050600061321d3061225e565b90506132346009548361379d90919063ffffffff16565b975080965061326b600b6002015461325d670de0b6b3a76400008b6137e790919063ffffffff16565b61386d90919063ffffffff16565b955060008811801561327d5750600087115b6132ef576040517f08c379a00000000000000000000000000000000000000000000000000000000081526004018080602001828103825260088152602001807f4552525f5a45524f00000000000000000000000000000000000000000000000081525060200191505060405180910390fd5b8587101580156132ff5750858310155b613371576040517f08c379a00000000000000000000000000000000000000000000000000000000081526004018080602001828103825260128152602001807f4552525f42414c5f554e4445524c59494e47000000000000000000000000000081525060200191505060405180910390fd5b8373ffffffffffffffffffffffffffffffffffffffff16639dc29fac308a6040518363ffffffff1660e01b8152600401808373ffffffffffffffffffffffffffffffffffffffff1673ffffffffffffffffffffffffffffffffffffffff16815260200182815260200192505050602060405180830381600087803b1580156133f857600080fd5b505af115801561340c573d6000803e3d6000fd5b505050506040513d602081101561342257600080fd5b81019080805190602001909291905050505061343e30886138b7565b8473ffffffffffffffffffffffffffffffffffffffff1663a9059cbb8a886040518363ffffffff1660e01b8152600401808373ffffffffffffffffffffffffffffffffffffffff1673ffffffffffffffffffffffffffffffffffffffff16815260200182815260200192505050602060405180830381600087803b1580156134c557600080fd5b505af11580156134d9573d6000803e3d6000fd5b505050506040513d60208110156134ef57600080fd5b8101908080519060200190929190505050508473ffffffffffffffffffffffffffffffffffffffff166370a08231306040518263ffffffff1660e01b8152600401808273ffffffffffffffffffffffffffffffffffffffff1673ffffffffffffffffffffffffffffffffffffffff16815260200191505060206040518083038186803b15801561357e57600080fd5b505afa158015613592573d6000803e3d6000fd5b505050506040513d60208110156135a857600080fd5b810190808051906020019092919050505092508373ffffffffffffffffffffffffffffffffffffffff166370a08231306040518263ffffffff1660e01b8152600401808273ffffffffffffffffffffffffffffffffffffffff1673ffffffffffffffffffffffffffffffffffffffff16815260200191505060206040518083038186803b15801561363857600080fd5b505afa15801561364c573d6000803e3d6000fd5b505050506040513d602081101561366257600080fd5b810190808051906020019092919050505091506136828360085484613a7b565b8873ffffffffffffffffffffffffffffffffffffffff167f684222b0069d4a2e5e0d986611cc5182d543904c4e4264bf770d4e51faefc822876040518082815260200191505060405180910390a250505050506001600560016101000a81548160ff0219169083151502179055509193909250565b6000600160008473ffffffffffffffffffffffffffffffffffffffff1673ffffffffffffffffffffffffffffffffffffffff16815260200190815260200160002060008373ffffffffffffffffffffffffffffffffffffffff1673ffffffffffffffffffffffffffffffffffffffff16815260200190815260200160002054905092915050565b6000600b60030154905090565b60085481565b60075481565b600f5481565b60006137df83836040518060400160405280601e81526020017f536166654d6174683a207375627472616374696f6e206f766572666c6f770000815250613f9c565b905092915050565b6000808314156137fa5760009050613867565b600082840290508284828161380b57fe5b0414613862576040517f08c379a000000000000000000000000000000000000000000000000000000000815260040180806020018281038252602181526020018061456e6021913960400191505060405180910390fd5b809150505b92915050565b60006138af83836040518060400160405280601a81526020017f536166654d6174683a206469766973696f6e206279207a65726f000000000000815250614415565b905092915050565b600073ffffffffffffffffffffffffffffffffffffffff168273ffffffffffffffffffffffffffffffffffffffff16141561393d576040517f08c379a00000000000000000000000000000000000000000000000000000000081526004018080602001828103825260218152602001806145b76021913960400191505060405180910390fd5b613949826000836144db565b6139b481604051806060016040528060228152602001614504602291396000808673ffffffffffffffffffffffffffffffffffffffff1673ffffffffffffffffffffffffffffffffffffffff16815260200190815260200160002054613f9c9092919063ffffffff16565b6000808473ffffffffffffffffffffffffffffffffffffffff1673ffffffffffffffffffffffffffffffffffffffff16815260200190815260200160002081905550613a0b8160025461379d90919063ffffffff16565b600281905550600073ffffffffffffffffffffffffffffffffffffffff168273ffffffffffffffffffffffffffffffffffffffff167fddf252ad1be2c89b69c2b068fc378daa952ba7f163c4a11628f55a4df523b3ef836040518082815260200191505060405180910390a35050565b8260078190555081600881905550806009819055507f83646b5da018143f952d3aaf3adca46d3cb6dd8782f9a91609d9ad731f8bdd1e83838360405180848152602001838152602001828152602001935050505060405180910390a1505050565b600033905090565b600073ffffffffffffffffffffffffffffffffffffffff168373ffffffffffffffffffffffffffffffffffffffff161415613b6a576040517f08c379a00000000000000000000000000000000000000000000000000000000081526004018080602001828103825260248152602001806145fd6024913960400191505060405180910390fd5b600073ffffffffffffffffffffffffffffffffffffffff168273ffffffffffffffffffffffffffffffffffffffff161415613bf0576040517f08c379a00000000000000000000000000000000000000000000000000000000081526004018080602001828103825260228152602001806145266022913960400191505060405180910390fd5b80600160008573ffffffffffffffffffffffffffffffffffffffff1673ffffffffffffffffffffffffffffffffffffffff16815260200190815260200160002060008473ffffffffffffffffffffffffffffffffffffffff1673ffffffffffffffffffffffffffffffffffffffff168152602001908152602001600020819055508173ffffffffffffffffffffffffffffffffffffffff168373ffffffffffffffffffffffffffffffffffffffff167f8c5be1e5ebec7d5bd14f71427d1e84f3dd0314c0f7b2291e5b200ac8c7c3b925836040518082815260200191505060405180910390a3505050565b600073ffffffffffffffffffffffffffffffffffffffff168373ffffffffffffffffffffffffffffffffffffffff161415613d61576040517f08c379a00000000000000000000000000000000000000000000000000000000081526004018080602001828103825260258152602001806145d86025913960400191505060405180910390fd5b600073ffffffffffffffffffffffffffffffffffffffff168273ffffffffffffffffffffffffffffffffffffffff161415613de7576040517f08c379a00000000000000000000000000000000000000000000000000000000081526004018080602001828103825260238152602001806144e16023913960400191505060405180910390fd5b613df28383836144db565b613e5d81604051806060016040528060268152602001614548602691396000808773ffffffffffffffffffffffffffffffffffffffff1673ffffffffffffffffffffffffffffffffffffffff16815260200190815260200160002054613f9c9092919063ffffffff16565b6000808573ffffffffffffffffffffffffffffffffffffffff1673ffffffffffffffffffffffffffffffffffffffff16815260200190815260200160002081905550613ef0816000808573ffffffffffffffffffffffffffffffffffffffff1673ffffffffffffffffffffffffffffffffffffffff1681526020019081526020016000205461405c90919063ffffffff16565b6000808473ffffffffffffffffffffffffffffffffffffffff1673ffffffffffffffffffffffffffffffffffffffff168152602001908152602001600020819055508173ffffffffffffffffffffffffffffffffffffffff168373ffffffffffffffffffffffffffffffffffffffff167fddf252ad1be2c89b69c2b068fc378daa952ba7f163c4a11628f55a4df523b3ef836040518082815260200191505060405180910390a3505050565b6000838311158290614049576040517f08c379a00000000000000000000000000000000000000000000000000000000081526004018080602001828103825283818151815260200191508051906020019080838360005b8381101561400e578082015181840152602081019050613ff3565b50505050905090810190601f16801561403b5780820380516001836020036101000a031916815260200191505b509250505060405180910390fd5b5060008385039050809150509392505050565b6000808284019050838110156140da576040517f08c379a000000000000000000000000000000000000000000000000000000000815260040180806020018281038252601b8152602001807f536166654d6174683a206164646974696f6e206f766572666c6f77000000000081525060200191505060405180910390fd5b8091505092915050565b600073ffffffffffffffffffffffffffffffffffffffff168273ffffffffffffffffffffffffffffffffffffffff161415614187576040517f08c379a000000000000000000000000000000000000000000000000000000000815260040180806020018281038252601f8152602001807f45524332303a206d696e7420746f20746865207a65726f20616464726573730081525060200191505060405180910390fd5b614193600083836144db565b6141a88160025461405c90919063ffffffff16565b6002819055506141ff816000808573ffffffffffffffffffffffffffffffffffffffff1673ffffffffffffffffffffffffffffffffffffffff1681526020019081526020016000205461405c90919063ffffffff16565b6000808473ffffffffffffffffffffffffffffffffffffffff1673ffffffffffffffffffffffffffffffffffffffff168152602001908152602001600020819055508173ffffffffffffffffffffffffffffffffffffffff16600073ffffffffffffffffffffffffffffffffffffffff167fddf252ad1be2c89b69c2b068fc378daa952ba7f163c4a11628f55a4df523b3ef836040518082815260200191505060405180910390a35050565b600082146143645781831015819061435e576040517f08c379a00000000000000000000000000000000000000000000000000000000081526004018080602001828103825283818151815260200191508051906020019080838360005b83811015614323578082015181840152602081019050614308565b50505050905090810190601f1680156143505780820380516001836020036101000a031916815260200191505b509250505060405180910390fd5b50614410565b818311819061440e576040517f08c379a00000000000000000000000000000000000000000000000000000000081526004018080602001828103825283818151815260200191508051906020019080838360005b838110156143d35780820151818401526020810190506143b8565b50505050905090810190601f1680156144005780820380516001836020036101000a031916815260200191505b509250505060405180910390fd5b505b505050565b600080831182906144c1576040517f08c379a00000000000000000000000000000000000000000000000000000000081526004018080602001828103825283818151815260200191508051906020019080838360005b8381101561448657808201518184015260208101905061446b565b50505050905090810190601f1680156144b35780820380516001836020036101000a031916815260200191505b509250505060405180910390fd5b5060008385816144cd57fe5b049050809150509392505050565b50505056fe45524332303a207472616e7366657220746f20746865207a65726f206164647265737345524332303a206275726e20616d6f756e7420657863656564732062616c616e636545524332303a20617070726f766520746f20746865207a65726f206164647265737345524332303a207472616e7366657220616d6f756e7420657863656564732062616c616e6365536166654d6174683a206d756c7469706c69636174696f6e206f766572666c6f7745524332303a207472616e7366657220616d6f756e74206578636565647320616c6c6f77616e636545524332303a206275726e2066726f6d20746865207a65726f206164647265737345524332303a207472616e736665722066726f6d20746865207a65726f206164647265737345524332303a20617070726f76652066726f6d20746865207a65726f206164647265737345524332303a2064656372656173656420616c6c6f77616e63652062656c6f77207a65726fa2646970667358221220db085e85d0d1ac369d8d7cb8edd86ac210be2fdef9af17f6a731178af51c562164736f6c63430006020033",
  "source": "pragma solidity ^0.6.2;\r\n\r\n/**\r\n * @title Primitive's Base ERC-20 Option\r\n * @author Primitive\r\n */\r\n\r\nimport \"./PrimeInterface.sol\";\r\nimport \"./controller/Instruments.sol\";\r\nimport \"@openzeppelin/contracts/math/SafeMath.sol\";\r\nimport \"@openzeppelin/contracts/token/ERC20/ERC20.sol\";\r\nimport \"@openzeppelin/contracts/utils/ReentrancyGuard.sol\";\r\n\r\ncontract PrimeOption is ERC20, ReentrancyGuard {\r\n    using SafeMath for uint256;\r\n\r\n    uint256 public constant DENOMINATOR = 1 ether;\r\n\r\n    address public tokenR;\r\n    address public factory;\r\n\r\n    uint256 public cacheU;\r\n    uint256 public cacheS;\r\n    uint256 public cacheR;\r\n\r\n    uint256 public marketId;\r\n\r\n    Instruments.PrimeOption public option;\r\n\r\n    uint256 public test;\r\n\r\n    event Mint(address indexed from, uint256 outTokenP, uint256 outTokenR);\r\n    event Swap(address indexed from, uint256 outTokenU, uint256 inTokenS);\r\n    event Redeem(address indexed from, uint256 inTokenR);\r\n    event Close(address indexed from, uint256 inTokenP);\r\n    event Fund(uint256 cacheU, uint256 cacheS, uint256 cacheR);\r\n\r\n    constructor (\r\n        string memory name,\r\n        string memory symbol,\r\n        uint256 _marketId,\r\n        address tokenU,\r\n        address tokenS,\r\n        uint256 ratio,\r\n        uint256 expiry\r\n    )\r\n        public\r\n        ERC20(name, symbol)\r\n    {\r\n        marketId = _marketId;\r\n        factory = msg.sender;\r\n        option = Instruments.PrimeOption(\r\n            tokenU,\r\n            tokenS,\r\n            ratio,\r\n            expiry\r\n        );\r\n    }\r\n\r\n    modifier notExpired {\r\n        require(option.expiry >= block.timestamp, \"ERR_EXPIRED\");\r\n        _;\r\n    }\r\n\r\n    // Called by factory on deployment once.\r\n    function initTokenR(address _tokenR) public returns (bool) {\r\n        require(msg.sender == factory, \"ERR_NOT_OWNER\");\r\n        tokenR = _tokenR;\r\n        return true;\r\n    }\r\n\r\n\r\n    /* =========== CACHE & TOKEN GETTER FUNCTIONS =========== */\r\n\r\n\r\n    function getCaches() public view returns (uint256 _cacheU, uint256 _cacheS, uint256 _cacheR) {\r\n        _cacheU = cacheU;\r\n        _cacheS = cacheS;\r\n        _cacheR = cacheR;\r\n    }\r\n\r\n    function getTokens() public view returns (address _tokenU, address _tokenS, address _tokenR) {\r\n        _tokenU = option.tokenU;\r\n        _tokenS = option.tokenS;\r\n        _tokenR = tokenR;\r\n    }\r\n\r\n\r\n    /* =========== ACCOUNTING FUNCTIONS =========== */\r\n\r\n\r\n    /**\r\n     * @dev Updates the cached balances to the actual current balances.\r\n     */\r\n    function update() external nonReentrant {\r\n        _fund(\r\n            IERC20(option.tokenU).balanceOf(address(this)),\r\n            IERC20(option.tokenS).balanceOf(address(this)),\r\n            IERC20(tokenR).balanceOf(address(this))\r\n        );\r\n    }\r\n\r\n    /**\r\n     * @dev Difference between balances and caches is sent out so balances == caches.\r\n     * Fixes tokenU, tokenS, tokenR, and tokenP.\r\n     */\r\n    function take() external nonReentrant {\r\n        (\r\n            address _tokenU,\r\n            address _tokenS,\r\n            address _tokenR\r\n        ) = getTokens();\r\n        IERC20(_tokenU).transfer(msg.sender,\r\n            IERC20(_tokenU).balanceOf(address(this))\r\n                .sub(cacheU)\r\n        );\r\n        IERC20(_tokenS).transfer(msg.sender,\r\n            IERC20(_tokenS).balanceOf(address(this))\r\n                .sub(cacheS)\r\n        );\r\n        IERC20(_tokenR).transfer(msg.sender,\r\n            IERC20(_tokenR).balanceOf(address(this))\r\n                .sub(cacheR)\r\n        );\r\n        IERC20(address(this)).transfer(msg.sender,\r\n            IERC20(address(this)).balanceOf(address(this))\r\n        );\r\n\r\n        /* transfer(msg.sender, balanceOf(address(this)).sub(1)); */ \r\n        // FIX, DOES NOT TRANSFER: EXCEEDS BALANCE\r\n    }\r\n\r\n    /**\r\n     * @dev Sets the cache balances to new values.\r\n     */\r\n    function _fund(uint256 balanceU, uint256 balanceS, uint256 balanceR) private {\r\n        cacheU = balanceU;\r\n        cacheS = balanceS;\r\n        cacheR = balanceR;\r\n        emit Fund(balanceU, balanceS, balanceR);\r\n    }\r\n\r\n\r\n    /* =========== CRITICAL STATE MUTABLE FUNCTIONS =========== */\r\n\r\n\r\n    /**\r\n     * @dev Core function to mint new Prime ERC-20 Options.\r\n     * @notice inTokenU = outTokenP, inTokenU * ratio = outTokenR\r\n     * Checks the balance of the contract against the token's 'cache',\r\n     * The difference is the amount of tokenU sent into the contract.\r\n     * The difference determines how many Primes and Redeems to mint.\r\n     * Only callable when the option is not expired.\r\n     * @param receiver The newly minted tokens are sent to the receiver address.\r\n     */\r\n    function mint(address receiver)\r\n        external\r\n        nonReentrant\r\n        notExpired\r\n        returns (uint256 inTokenU, uint256 outTokenR)\r\n    {\r\n        // Current balance of tokenU.\r\n        uint256 balanceU = IERC20(option.tokenU).balanceOf(address(this));\r\n\r\n        // Mint inTokenU equal to the difference between current balance and previous balance of tokenU.\r\n        inTokenU = balanceU.sub(cacheU);\r\n\r\n        // Mint outTokenR equal to tokenU * ratio\r\n        outTokenR = inTokenU.mul(option.ratio).div(DENOMINATOR);\r\n\r\n        // Mint the tokens.\r\n        require(inTokenU > 0, \"ERR_ZERO\");\r\n        IPrimeRedeem(tokenR).mint(receiver, outTokenR);\r\n        _mint(receiver, inTokenU);\r\n\r\n        // Update the caches.\r\n        _fund(balanceU, cacheS, cacheR);\r\n        emit Mint(receiver, inTokenU, outTokenR);\r\n    }\r\n\r\n    /**\r\n     * @dev Swap tokenS to tokenU at a rate of tokenS / ratio = tokenU.\r\n     * @notice inTokenS / ratio = outTokenU && inTokenP >= outTokenU\r\n     * Checks the balance against the previously cached balance.\r\n     * The difference is the amount of tokenS sent into the contract.\r\n     * The difference determines how much tokenU to send out.\r\n     * Only callable when the option is not expired.\r\n     * @param receiver The outTokenU is sent to the receiver address.\r\n     */\r\n    function swap(\r\n        address receiver\r\n    )\r\n        external\r\n        nonReentrant\r\n        notExpired\r\n        returns (uint256 inTokenS, uint256 inTokenP, uint256 outTokenU)\r\n    {\r\n        // Stores addresses locally for gas savings.\r\n        address _tokenU = option.tokenU;\r\n        address _tokenS = option.tokenS;\r\n\r\n        // Current balances.\r\n        uint256 balanceS = IERC20(_tokenS).balanceOf(address(this));\r\n        uint256 balanceU = IERC20(_tokenU).balanceOf(address(this));\r\n        uint256 balanceP = balanceOf(address(this));\r\n\r\n        // Differences between tokenS balance less cache.\r\n        inTokenS = balanceS.sub(cacheS);\r\n\r\n        // Assumes the cached balance is 0.\r\n        // This is because the close function burns the Primes received.\r\n        // Only external transfers will be able to send Primes to this contract.\r\n        // Close() and swap() are the only function that check for the Primes balance.\r\n        inTokenP = balanceP;\r\n\r\n        // inTokenS / ratio = outTokenU\r\n        /* outTokenU = inTokenP.mul(inTokenS).div(option.ratio); */\r\n        outTokenU = inTokenS.mul(DENOMINATOR).div(option.ratio);\r\n\r\n        require(inTokenS > 0 && inTokenP > 0, \"ERR_ZERO\");\r\n        require(\r\n            inTokenP >= outTokenU && \r\n            balanceU >= outTokenU,\r\n            \"ERR_BAL_UNDERLYING\"\r\n        );\r\n\r\n        // Burn the Prime options at a 1:1 ratio to outTokenU.\r\n        _burn(address(this), inTokenP);\r\n\r\n        // Transfer the swapped tokenU to receiver.\r\n        IERC20(_tokenU).transfer(receiver, outTokenU);\r\n\r\n        // Current balances.\r\n        balanceS = IERC20(_tokenS).balanceOf(address(this));\r\n        balanceU = IERC20(_tokenU).balanceOf(address(this));\r\n\r\n        // Update the cached balances.\r\n        _fund(balanceU, balanceS, cacheR);\r\n        emit Swap(receiver, outTokenU, inTokenS);\r\n    }\r\n\r\n    /**\r\n     * @dev Burns tokenR to withdraw tokenS at a ratio of 1:1.\r\n     * @notice inTokenR = outTokenS\r\n     * Should only be called by a contract that checks the balanaces to be sent correctly.\r\n     * Checks the tokenR balance against the previously cached tokenR balance.\r\n     * The difference is the amount of tokenR sent into the contract.\r\n     * The difference is equal to the amount of tokenS sent out.\r\n     * Callable even when expired.\r\n     * @param receiver The inTokenR quantity of tokenS is sent to the receiver address.\r\n     */\r\n    function redeem(address receiver) external nonReentrant returns (uint256 inTokenR) {\r\n        address _tokenS = option.tokenS;\r\n        address _tokenR = tokenR;\r\n\r\n        // Current balances.\r\n        uint256 balanceS = IERC20(_tokenS).balanceOf(address(this));\r\n        uint256 balanceR = IERC20(_tokenR).balanceOf(address(this));\r\n\r\n        // Difference between tokenR balance and cache.\r\n        inTokenR = balanceR.sub(cacheR);\r\n        verifyBalance(balanceS, inTokenR, \"ERR_BAL_STRIKE\");\r\n\r\n        // Burn tokenR in the contract. Send tokenS to msg.sender.\r\n        IPrimeRedeem(_tokenR).burn(address(this), inTokenR);\r\n        IERC20(_tokenS).transfer(receiver, inTokenR);\r\n\r\n        // Current balances.\r\n        balanceS = IERC20(_tokenS).balanceOf(address(this));\r\n        balanceR = IERC20(_tokenR).balanceOf(address(this));\r\n\r\n        // Update the cached balances.\r\n        _fund(cacheU, balanceS, balanceR);\r\n        emit Redeem(receiver, inTokenR);\r\n    }\r\n\r\n    /**\r\n     * @dev Burn Prime and Prime Redeem tokens to withdraw tokenU.\r\n     * @notice inTokenR / ratio = outTokenU && inTokenP >= outTokenU\r\n     * Checks the balances against the previously cached balances.\r\n     * The difference between the tokenR balance and cache is the inTokenR.\r\n     * The balance of tokenP is equal to the inTokenP.\r\n     * The outTokenU is equal to the inTokenR / ratio.\r\n     * The contract requires the inTokenP >= outTokenU and the balanceU >= outTokenU.\r\n     * The contract burns the inTokenR and inTokenP amounts.\r\n     * @param receiver The outTokenU is sent to the receiver address.\r\n     */\r\n    function close(address receiver)\r\n        external\r\n        nonReentrant\r\n        returns (uint256 inTokenR, uint256 inTokenP, uint256 outTokenU)\r\n    {\r\n        // Stores addresses locally for gas savings.\r\n        address _tokenU = option.tokenU;\r\n        address _tokenR = tokenR;\r\n\r\n        // Current balances.\r\n        uint256 balanceU = IERC20(_tokenU).balanceOf(address(this));\r\n        uint256 balanceR = IPrimeRedeem(_tokenR).balanceOf(address(this));\r\n        uint256 balanceP = balanceOf(address(this));\r\n\r\n        // Differences between current and cached balances.\r\n        inTokenR = balanceR.sub(cacheR);\r\n\r\n        // Assumes the cached balance is 0.\r\n        // This is because the close function burns the Primes received.\r\n        // Only external transfers will be able to send Primes to this contract.\r\n        // Close() and swap() are the only function that check for the Primes balance.\r\n        inTokenP = balanceP;\r\n\r\n        // The quantity of tokenU to send out it still determined by the amount of inTokenR.\r\n        // This outTokenU amount is checked against inTokenP.\r\n        // inTokenP must be greater than or equal to outTokenU.\r\n        // balanceP must be greater than or equal to outTokenU.\r\n        // Neither inTokenR or inTokenP can be zero.\r\n        outTokenU = inTokenR.mul(DENOMINATOR).div(option.ratio);\r\n        require(inTokenR > 0 && inTokenP > 0, \"ERR_ZERO\");\r\n        require(inTokenP >= outTokenU && balanceU >= outTokenU, \"ERR_BAL_UNDERLYING\");\r\n\r\n        // Burn inTokenR and inTokenP.\r\n        IPrimeRedeem(_tokenR).burn(address(this), inTokenR);\r\n        _burn(address(this), inTokenP);\r\n\r\n        // Send outTokenU to user.\r\n        // User does not receive extra tokenU if there was extra tokenP in the contract.\r\n        // User receives outTokenU proportional to inTokenR.\r\n        // Amount of inTokenP must be greater than outTokenU.\r\n        // If tokenP was sent to the contract from an external call,\r\n        // a user could send only tokenR and receive the proportional amount of tokenU,\r\n        // as long as the amount of outTokenU is less than or equal to\r\n        // the balance of tokenU and tokenP.\r\n        IERC20(_tokenU).transfer(receiver, outTokenU);\r\n\r\n        // Current balances of tokenU and tokenR.\r\n        balanceU = IERC20(_tokenU).balanceOf(address(this));\r\n        balanceR = IPrimeRedeem(_tokenR).balanceOf(address(this));\r\n\r\n        // Update the cached balances.\r\n        _fund(balanceU, cacheS, balanceR);\r\n        emit Close(receiver, outTokenU);\r\n    }\r\n\r\n\r\n    /* =========== UTILITY =========== */\r\n\r\n\r\n    function tokenS() public view returns (address) {\r\n        return option.tokenS;\r\n    }\r\n\r\n    function tokenU() public view returns (address) {\r\n        return option.tokenU;\r\n    }\r\n\r\n    function ratio() public view returns (uint256) {\r\n        return option.ratio;\r\n    }\r\n\r\n    function expiry() public view returns (uint256) {\r\n        return option.expiry;\r\n    }\r\n\r\n    /**\r\n     * @dev Utility function to get the max withdrawable tokenS amount of msg.sender.\r\n     */\r\n    function maxDraw() public view returns (uint256 draw) {\r\n        uint256 balanceR = IPrimeRedeem(tokenR).balanceOf(msg.sender);\r\n        cacheS > balanceR ?\r\n            draw = balanceR :\r\n            draw = cacheS;\r\n    }\r\n\r\n    /**\r\n     * @dev Utility function to check if balance is >= minBalance.\r\n     */\r\n    function verifyBalance(\r\n        uint256 balance,\r\n        uint256 minBalance,\r\n        string memory errorCode\r\n    ) internal pure {\r\n        minBalance == 0 ?\r\n            require(balance > minBalance, errorCode) :\r\n            require(balance >= minBalance, errorCode);\r\n    }\r\n}",
  "sourcePath": "C:\\Users\\alexa\\OneDrive\\Documents\\Master\\Blockchain\\Projects\\carbon\\contracts\\PrimeOption.sol",
  "compiler": {
    "name": "solc",
    "version": "0.6.2+commit.bacdbe57.Emscripten.clang"
  },
  "schemaVersion": "3.0.23",
  "updatedAt": "2020-04-27T06:02:32.426Z",
  "devdoc": {
    "methods": {
      "allowance(address,address)": {
        "details": "See {IERC20-allowance}."
      },
      "approve(address,uint256)": {
        "details": "See {IERC20-approve}.     * Requirements:     * - `spender` cannot be the zero address."
      },
      "balanceOf(address)": {
        "details": "See {IERC20-balanceOf}."
      },
      "close(address)": {
        "details": "Burn Prime and Prime Redeem tokens to withdraw tokenU.",
        "params": {
          "receiver": "The outTokenU is sent to the receiver address."
        }
      },
      "decimals()": {
        "details": "Returns the number of decimals used to get its user representation. For example, if `decimals` equals `2`, a balance of `505` tokens should be displayed to a user as `5,05` (`505 / 10 ** 2`).     * Tokens usually opt for a value of 18, imitating the relationship between Ether and Wei. This is the value {ERC20} uses, unless {_setupDecimals} is called.     * NOTE: This information is only used for _display_ purposes: it in no way affects any of the arithmetic of the contract, including {IERC20-balanceOf} and {IERC20-transfer}."
      },
      "decreaseAllowance(address,uint256)": {
        "details": "Atomically decreases the allowance granted to `spender` by the caller.     * This is an alternative to {approve} that can be used as a mitigation for problems described in {IERC20-approve}.     * Emits an {Approval} event indicating the updated allowance.     * Requirements:     * - `spender` cannot be the zero address. - `spender` must have allowance for the caller of at least `subtractedValue`."
      },
      "increaseAllowance(address,uint256)": {
        "details": "Atomically increases the allowance granted to `spender` by the caller.     * This is an alternative to {approve} that can be used as a mitigation for problems described in {IERC20-approve}.     * Emits an {Approval} event indicating the updated allowance.     * Requirements:     * - `spender` cannot be the zero address."
      },
      "maxDraw()": {
        "details": "Utility function to get the max withdrawable tokenS amount of msg.sender."
      },
      "mint(address)": {
        "details": "Core function to mint new Prime ERC-20 Options.",
        "params": {
          "receiver": "The newly minted tokens are sent to the receiver address."
        }
      },
      "name()": {
        "details": "Returns the name of the token."
      },
      "redeem(address)": {
        "details": "Burns tokenR to withdraw tokenS at a ratio of 1:1.",
        "params": {
          "receiver": "The inTokenR quantity of tokenS is sent to the receiver address."
        }
      },
      "swap(address)": {
        "details": "Swap tokenS to tokenU at a rate of tokenS / ratio = tokenU.",
        "params": {
          "receiver": "The outTokenU is sent to the receiver address."
        }
      },
      "symbol()": {
        "details": "Returns the symbol of the token, usually a shorter version of the name."
      },
      "take()": {
        "details": "Difference between balances and caches is sent out so balances == caches. Fixes tokenU, tokenS, tokenR, and tokenP."
      },
      "totalSupply()": {
        "details": "See {IERC20-totalSupply}."
      },
      "transfer(address,uint256)": {
        "details": "See {IERC20-transfer}.     * Requirements:     * - `recipient` cannot be the zero address. - the caller must have a balance of at least `amount`."
      },
      "transferFrom(address,address,uint256)": {
        "details": "See {IERC20-transferFrom}.     * Emits an {Approval} event indicating the updated allowance. This is not required by the EIP. See the note at the beginning of {ERC20};     * Requirements: - `sender` and `recipient` cannot be the zero address. - `sender` must have a balance of at least `amount`. - the caller must have allowance for ``sender``'s tokens of at least `amount`."
      },
      "update()": {
        "details": "Updates the cached balances to the actual current balances."
      }
    }
  },
  "userdoc": {
    "methods": {
      "close(address)": {
        "notice": "inTokenR / ratio = outTokenU && inTokenP >= outTokenU Checks the balances against the previously cached balances. The difference between the tokenR balance and cache is the inTokenR. The balance of tokenP is equal to the inTokenP. The outTokenU is equal to the inTokenR / ratio. The contract requires the inTokenP >= outTokenU and the balanceU >= outTokenU. The contract burns the inTokenR and inTokenP amounts."
      },
      "mint(address)": {
        "notice": "inTokenU = outTokenP, inTokenU * ratio = outTokenR Checks the balance of the contract against the token's 'cache', The difference is the amount of tokenU sent into the contract. The difference determines how many Primes and Redeems to mint. Only callable when the option is not expired."
      },
      "redeem(address)": {
        "notice": "inTokenR = outTokenS Should only be called by a contract that checks the balanaces to be sent correctly. Checks the tokenR balance against the previously cached tokenR balance. The difference is the amount of tokenR sent into the contract. The difference is equal to the amount of tokenS sent out. Callable even when expired."
      },
      "swap(address)": {
        "notice": "inTokenS / ratio = outTokenU && inTokenP >= outTokenU Checks the balance against the previously cached balance. The difference is the amount of tokenS sent into the contract. The difference determines how much tokenU to send out. Only callable when the option is not expired."
      }
    }
  }
}