{
  "contractName": "PrimeTrader",
  "abi": [
    {
      "inputs": [
        {
          "internalType": "address payable",
          "name": "_weth",
          "type": "address"
        }
      ],
      "stateMutability": "nonpayable",
      "type": "constructor"
    },
    {
      "anonymous": false,
      "inputs": [
        {
          "indexed": true,
          "internalType": "address",
          "name": "from",
          "type": "address"
        },
        {
          "indexed": false,
          "internalType": "uint256",
          "name": "inTokenP",
          "type": "uint256"
        }
      ],
      "name": "Close",
      "type": "event"
    },
    {
      "anonymous": false,
      "inputs": [
        {
          "indexed": true,
          "internalType": "address",
          "name": "from",
          "type": "address"
        },
        {
          "indexed": false,
          "internalType": "uint256",
          "name": "outTokenP",
          "type": "uint256"
        },
        {
          "indexed": false,
          "internalType": "uint256",
          "name": "outTokenR",
          "type": "uint256"
        }
      ],
      "name": "Mint",
      "type": "event"
    },
    {
      "anonymous": false,
      "inputs": [
        {
          "indexed": true,
          "internalType": "address",
          "name": "from",
          "type": "address"
        },
        {
          "indexed": false,
          "internalType": "uint256",
          "name": "inTokenR",
          "type": "uint256"
        }
      ],
      "name": "Redeem",
      "type": "event"
    },
    {
      "anonymous": false,
      "inputs": [
        {
          "indexed": true,
          "internalType": "address",
          "name": "from",
          "type": "address"
        },
        {
          "indexed": false,
          "internalType": "uint256",
          "name": "outTokenU",
          "type": "uint256"
        },
        {
          "indexed": false,
          "internalType": "uint256",
          "name": "inTokenS",
          "type": "uint256"
        }
      ],
      "name": "Swap",
      "type": "event"
    },
    {
      "inputs": [],
      "name": "DENOMINATOR",
      "outputs": [
        {
          "internalType": "uint256",
          "name": "",
          "type": "uint256"
        }
      ],
      "stateMutability": "view",
      "type": "function"
    },
    {
      "inputs": [],
      "name": "weth",
      "outputs": [
        {
          "internalType": "address payable",
          "name": "",
          "type": "address"
        }
      ],
      "stateMutability": "view",
      "type": "function"
    },
    {
      "inputs": [
        {
          "internalType": "address",
          "name": "tokenP",
          "type": "address"
        },
        {
          "internalType": "uint256",
          "name": "amount",
          "type": "uint256"
        },
        {
          "internalType": "address",
          "name": "receiver",
          "type": "address"
        }
      ],
      "name": "safeMint",
      "outputs": [
        {
          "internalType": "uint256",
          "name": "inTokenU",
          "type": "uint256"
        },
        {
          "internalType": "uint256",
          "name": "outTokenR",
          "type": "uint256"
        }
      ],
      "stateMutability": "nonpayable",
      "type": "function"
    },
    {
      "inputs": [
        {
          "internalType": "address",
          "name": "tokenP",
          "type": "address"
        },
        {
          "internalType": "uint256",
          "name": "amount",
          "type": "uint256"
        },
        {
          "internalType": "address",
          "name": "receiver",
          "type": "address"
        }
      ],
      "name": "safeSwap",
      "outputs": [
        {
          "internalType": "uint256",
          "name": "inTokenS",
          "type": "uint256"
        },
        {
          "internalType": "uint256",
          "name": "inTokenP",
          "type": "uint256"
        },
        {
          "internalType": "uint256",
          "name": "outTokenU",
          "type": "uint256"
        }
      ],
      "stateMutability": "nonpayable",
      "type": "function"
    },
    {
      "inputs": [
        {
          "internalType": "address",
          "name": "tokenP",
          "type": "address"
        },
        {
          "internalType": "uint256",
          "name": "amount",
          "type": "uint256"
        },
        {
          "internalType": "address",
          "name": "receiver",
          "type": "address"
        }
      ],
      "name": "safeRedeem",
      "outputs": [
        {
          "internalType": "uint256",
          "name": "inTokenR",
          "type": "uint256"
        }
      ],
      "stateMutability": "nonpayable",
      "type": "function"
    },
    {
      "inputs": [
        {
          "internalType": "address",
          "name": "tokenP",
          "type": "address"
        },
        {
          "internalType": "uint256",
          "name": "amount",
          "type": "uint256"
        },
        {
          "internalType": "address",
          "name": "receiver",
          "type": "address"
        }
      ],
      "name": "safeClose",
      "outputs": [
        {
          "internalType": "uint256",
          "name": "inTokenR",
          "type": "uint256"
        },
        {
          "internalType": "uint256",
          "name": "inTokenP",
          "type": "uint256"
        },
        {
          "internalType": "uint256",
          "name": "outTokenU",
          "type": "uint256"
        }
      ],
      "stateMutability": "nonpayable",
      "type": "function"
    }
  ],
  "bytecode": "0x608060405234801561001057600080fd5b506040516123f23803806123f28339818101604052602081101561003357600080fd5b810190808051906020019092919050505060016000806101000a81548160ff02191690831515021790555080600060016101000a81548173ffffffffffffffffffffffffffffffffffffffff021916908373ffffffffffffffffffffffffffffffffffffffff16021790555050612343806100af6000396000f3fe608060405234801561001057600080fd5b50600436106100625760003560e01c806320e469d6146100675780633f60b9bf146100f05780633fc8cef314610180578063918f8674146101ca578063a1d8778f146101e8578063b8a6bb3b1461026a575b600080fd5b6100d36004803603606081101561007d57600080fd5b81019080803573ffffffffffffffffffffffffffffffffffffffff16906020019092919080359060200190929190803573ffffffffffffffffffffffffffffffffffffffff1690602001909291905050506102fa565b604051808381526020018281526020019250505060405180910390f35b61015c6004803603606081101561010657600080fd5b81019080803573ffffffffffffffffffffffffffffffffffffffff16906020019092919080359060200190929190803573ffffffffffffffffffffffffffffffffffffffff169060200190929190505050610836565b60405180848152602001838152602001828152602001935050505060405180910390f35b6101886110ac565b604051808273ffffffffffffffffffffffffffffffffffffffff1673ffffffffffffffffffffffffffffffffffffffff16815260200191505060405180910390f35b6101d26110d2565b6040518082815260200191505060405180910390f35b610254600480360360608110156101fe57600080fd5b81019080803573ffffffffffffffffffffffffffffffffffffffff16906020019092919080359060200190929190803573ffffffffffffffffffffffffffffffffffffffff1690602001909291905050506110de565b6040518082815260200191505060405180910390f35b6102d66004803603606081101561028057600080fd5b81019080803573ffffffffffffffffffffffffffffffffffffffff16906020019092919080359060200190929190803573ffffffffffffffffffffffffffffffffffffffff16906020019092919050505061177e565b60405180848152602001838152602001828152602001935050505060405180910390f35b6000806000809054906101000a900460ff1661037e576040517f08c379a000000000000000000000000000000000000000000000000000000000815260040180806020018281038252601f8152602001807f5265656e7472616e637947756172643a207265656e7472616e742063616c6c0081525060200191505060405180910390fd5b60008060006101000a81548160ff0219169083151502179055506000841161040e576040517f08c379a00000000000000000000000000000000000000000000000000000000081526004018080602001828103825260088152602001807f4552525f5a45524f00000000000000000000000000000000000000000000000081525060200191505060405180910390fd5b60008573ffffffffffffffffffffffffffffffffffffffff16634a244e546040518163ffffffff1660e01b815260040160206040518083038186803b15801561045657600080fd5b505afa15801561046a573d6000803e3d6000fd5b505050506040513d602081101561048057600080fd5b8101908080519060200190929190505050905061058a8173ffffffffffffffffffffffffffffffffffffffff166370a08231336040518263ffffffff1660e01b8152600401808273ffffffffffffffffffffffffffffffffffffffff1673ffffffffffffffffffffffffffffffffffffffff16815260200191505060206040518083038186803b15801561051357600080fd5b505afa158015610527573d6000803e3d6000fd5b505050506040513d602081101561053d57600080fd5b8101908080519060200190929190505050866040518060400160405280601281526020017f4552525f42414c5f554e4445524c59494e470000000000000000000000000000815250611fec565b8073ffffffffffffffffffffffffffffffffffffffff166323b872dd3388886040518463ffffffff1660e01b8152600401808473ffffffffffffffffffffffffffffffffffffffff1673ffffffffffffffffffffffffffffffffffffffff1681526020018373ffffffffffffffffffffffffffffffffffffffff1673ffffffffffffffffffffffffffffffffffffffff1681526020018281526020019350505050602060405180830381600087803b15801561064557600080fd5b505af1158015610659573d6000803e3d6000fd5b505050506040513d602081101561066f57600080fd5b81019080805190602001909291905050506106f2576040517f08c379a00000000000000000000000000000000000000000000000000000000081526004018080602001828103825260148152602001807f4552525f5452414e534645525f494e5f4641494c00000000000000000000000081525060200191505060405180910390fd5b8573ffffffffffffffffffffffffffffffffffffffff16636a627842856040518263ffffffff1660e01b8152600401808273ffffffffffffffffffffffffffffffffffffffff1673ffffffffffffffffffffffffffffffffffffffff1681526020019150506040805180830381600087803b15801561077057600080fd5b505af1158015610784573d6000803e3d6000fd5b505050506040513d604081101561079a57600080fd5b81019080805190602001909291908051906020019092919050505080935081945050503373ffffffffffffffffffffffffffffffffffffffff167f4c209b5fc8ad50758f13e2e1088ba56a560dff690a1c6fef26394f4c03821c4f8484604051808381526020018281526020019250505060405180910390a25060016000806101000a81548160ff021916908315150217905550935093915050565b60008060008060009054906101000a900460ff166108bc576040517f08c379a000000000000000000000000000000000000000000000000000000000815260040180806020018281038252601f8152602001807f5265656e7472616e637947756172643a207265656e7472616e742063616c6c0081525060200191505060405180910390fd5b60008060006101000a81548160ff0219169083151502179055506000851161094c576040517f08c379a00000000000000000000000000000000000000000000000000000000081526004018080602001828103825260088152602001807f4552525f5a45524f00000000000000000000000000000000000000000000000081525060200191505060405180910390fd5b60008673ffffffffffffffffffffffffffffffffffffffff16630727d5d26040518163ffffffff1660e01b815260040160206040518083038186803b15801561099457600080fd5b505afa1580156109a8573d6000803e3d6000fd5b505050506040513d60208110156109be57600080fd5b81019080805190602001909291905050509050610ac88773ffffffffffffffffffffffffffffffffffffffff166370a08231336040518263ffffffff1660e01b8152600401808273ffffffffffffffffffffffffffffffffffffffff1673ffffffffffffffffffffffffffffffffffffffff16815260200191505060206040518083038186803b158015610a5157600080fd5b505afa158015610a65573d6000803e3d6000fd5b505050506040513d6020811015610a7b57600080fd5b8101908080519060200190929190505050876040518060400160405280600d81526020017f4552525f42414c5f5052494d4500000000000000000000000000000000000000815250611fec565b610bed8773ffffffffffffffffffffffffffffffffffffffff16635001f3b56040518163ffffffff1660e01b815260040160206040518083038186803b158015610b1157600080fd5b505afa158015610b25573d6000803e3d6000fd5b505050506040513d6020811015610b3b57600080fd5b8101908080519060200190929190505050610bdf8973ffffffffffffffffffffffffffffffffffffffff1663a035b1fe6040518163ffffffff1660e01b815260040160206040518083038186803b158015610b9557600080fd5b505afa158015610ba9573d6000803e3d6000fd5b505050506040513d6020811015610bbf57600080fd5b81019080805190602001909291905050508961215690919063ffffffff16565b6121dc90919063ffffffff16565b9350610ce68173ffffffffffffffffffffffffffffffffffffffff166370a08231336040518263ffffffff1660e01b8152600401808273ffffffffffffffffffffffffffffffffffffffff1673ffffffffffffffffffffffffffffffffffffffff16815260200191505060206040518083038186803b158015610c6f57600080fd5b505afa158015610c83573d6000803e3d6000fd5b505050506040513d6020811015610c9957600080fd5b8101908080519060200190929190505050856040518060400160405280600e81526020017f4552525f42414c5f535452494b45000000000000000000000000000000000000815250611fec565b60008173ffffffffffffffffffffffffffffffffffffffff166323b872dd338a886040518463ffffffff1660e01b8152600401808473ffffffffffffffffffffffffffffffffffffffff1673ffffffffffffffffffffffffffffffffffffffff1681526020018373ffffffffffffffffffffffffffffffffffffffff1673ffffffffffffffffffffffffffffffffffffffff1681526020018281526020019350505050602060405180830381600087803b158015610da357600080fd5b505af1158015610db7573d6000803e3d6000fd5b505050506040513d6020811015610dcd57600080fd5b8101908080519060200190929190505050905060008873ffffffffffffffffffffffffffffffffffffffff166323b872dd338b8b6040518463ffffffff1660e01b8152600401808473ffffffffffffffffffffffffffffffffffffffff1673ffffffffffffffffffffffffffffffffffffffff1681526020018373ffffffffffffffffffffffffffffffffffffffff1673ffffffffffffffffffffffffffffffffffffffff1681526020018281526020019350505050602060405180830381600087803b158015610e9d57600080fd5b505af1158015610eb1573d6000803e3d6000fd5b505050506040513d6020811015610ec757600080fd5b81019080805190602001909291905050509050818015610ee45750805b610f56576040517f08c379a00000000000000000000000000000000000000000000000000000000081526004018080602001828103825260148152602001807f4552525f5452414e534645525f494e5f4641494c00000000000000000000000081525060200191505060405180910390fd5b8873ffffffffffffffffffffffffffffffffffffffff166303438dd0886040518263ffffffff1660e01b8152600401808273ffffffffffffffffffffffffffffffffffffffff1673ffffffffffffffffffffffffffffffffffffffff168152602001915050606060405180830381600087803b158015610fd557600080fd5b505af1158015610fe9573d6000803e3d6000fd5b505050506040513d6060811015610fff57600080fd5b810190808051906020019092919080519060200190929190805190602001909291905050508096508197508298505050503373ffffffffffffffffffffffffffffffffffffffff167f77f92a1b6a1a11de8ca49515ad4c1fad45632dd3442167d74b90b304a3c7a7588588604051808381526020018281526020019250505060405180910390a250505060016000806101000a81548160ff02191690831515021790555093509350939050565b600060019054906101000a900473ffffffffffffffffffffffffffffffffffffffff1681565b670de0b6b3a764000081565b60008060009054906101000a900460ff16611161576040517f08c379a000000000000000000000000000000000000000000000000000000000815260040180806020018281038252601f8152602001807f5265656e7472616e637947756172643a207265656e7472616e742063616c6c0081525060200191505060405180910390fd5b60008060006101000a81548160ff021916908315150217905550600083116111f1576040517f08c379a00000000000000000000000000000000000000000000000000000000081526004018080602001828103825260088152602001807f4552525f5a45524f00000000000000000000000000000000000000000000000081525060200191505060405180910390fd5b60008473ffffffffffffffffffffffffffffffffffffffff16630727d5d26040518163ffffffff1660e01b815260040160206040518083038186803b15801561123957600080fd5b505afa15801561124d573d6000803e3d6000fd5b505050506040513d602081101561126357600080fd5b8101908080519060200190929190505050905060008573ffffffffffffffffffffffffffffffffffffffff166360f880356040518163ffffffff1660e01b815260040160206040518083038186803b1580156112be57600080fd5b505afa1580156112d2573d6000803e3d6000fd5b505050506040513d60208110156112e857600080fd5b810190808051906020019092919050505090506113f28173ffffffffffffffffffffffffffffffffffffffff166370a08231336040518263ffffffff1660e01b8152600401808273ffffffffffffffffffffffffffffffffffffffff1673ffffffffffffffffffffffffffffffffffffffff16815260200191505060206040518083038186803b15801561137b57600080fd5b505afa15801561138f573d6000803e3d6000fd5b505050506040513d60208110156113a557600080fd5b8101908080519060200190929190505050866040518060400160405280600e81526020017f4552525f42414c5f52454445454d000000000000000000000000000000000000815250611fec565b6114e98273ffffffffffffffffffffffffffffffffffffffff166370a08231886040518263ffffffff1660e01b8152600401808273ffffffffffffffffffffffffffffffffffffffff1673ffffffffffffffffffffffffffffffffffffffff16815260200191505060206040518083038186803b15801561147257600080fd5b505afa158015611486573d6000803e3d6000fd5b505050506040513d602081101561149c57600080fd5b8101908080519060200190929190505050866040518060400160405280600e81526020017f4552525f42414c5f535452494b45000000000000000000000000000000000000815250611fec565b8073ffffffffffffffffffffffffffffffffffffffff166323b872dd3388886040518463ffffffff1660e01b8152600401808473ffffffffffffffffffffffffffffffffffffffff1673ffffffffffffffffffffffffffffffffffffffff1681526020018373ffffffffffffffffffffffffffffffffffffffff1673ffffffffffffffffffffffffffffffffffffffff1681526020018281526020019350505050602060405180830381600087803b1580156115a457600080fd5b505af11580156115b8573d6000803e3d6000fd5b505050506040513d60208110156115ce57600080fd5b8101908080519060200190929190505050611651576040517f08c379a00000000000000000000000000000000000000000000000000000000081526004018080602001828103825260148152602001807f4552525f5452414e534645525f494e5f4641494c00000000000000000000000081525060200191505060405180910390fd5b8573ffffffffffffffffffffffffffffffffffffffff166395a2251f856040518263ffffffff1660e01b8152600401808273ffffffffffffffffffffffffffffffffffffffff1673ffffffffffffffffffffffffffffffffffffffff168152602001915050602060405180830381600087803b1580156116d057600080fd5b505af11580156116e4573d6000803e3d6000fd5b505050506040513d60208110156116fa57600080fd5b810190808051906020019092919050505092503373ffffffffffffffffffffffffffffffffffffffff167f222838db2794d11532d940e8dec38ae307ed0b63cd97c233322e221f998767a6846040518082815260200191505060405180910390a2505060016000806101000a81548160ff0219169083151502179055509392505050565b60008060008060009054906101000a900460ff16611804576040517f08c379a000000000000000000000000000000000000000000000000000000000815260040180806020018281038252601f8152602001807f5265656e7472616e637947756172643a207265656e7472616e742063616c6c0081525060200191505060405180910390fd5b60008060006101000a81548160ff02191690831515021790555060008511611894576040517f08c379a00000000000000000000000000000000000000000000000000000000081526004018080602001828103825260088152602001807f4552525f5a45524f00000000000000000000000000000000000000000000000081525060200191505060405180910390fd5b60008673ffffffffffffffffffffffffffffffffffffffff166360f880356040518163ffffffff1660e01b815260040160206040518083038186803b1580156118dc57600080fd5b505afa1580156118f0573d6000803e3d6000fd5b505050506040513d602081101561190657600080fd5b81019080805190602001909291905050509050611a3e8773ffffffffffffffffffffffffffffffffffffffff16635001f3b56040518163ffffffff1660e01b815260040160206040518083038186803b15801561196257600080fd5b505afa158015611976573d6000803e3d6000fd5b505050506040513d602081101561198c57600080fd5b8101908080519060200190929190505050611a308973ffffffffffffffffffffffffffffffffffffffff1663a035b1fe6040518163ffffffff1660e01b815260040160206040518083038186803b1580156119e657600080fd5b505afa1580156119fa573d6000803e3d6000fd5b505050506040513d6020811015611a1057600080fd5b81019080805190602001909291905050508961215690919063ffffffff16565b6121dc90919063ffffffff16565b9350611b378173ffffffffffffffffffffffffffffffffffffffff166370a08231336040518263ffffffff1660e01b8152600401808273ffffffffffffffffffffffffffffffffffffffff1673ffffffffffffffffffffffffffffffffffffffff16815260200191505060206040518083038186803b158015611ac057600080fd5b505afa158015611ad4573d6000803e3d6000fd5b505050506040513d6020811015611aea57600080fd5b8101908080519060200190929190505050856040518060400160405280600e81526020017f4552525f42414c5f52454445454d000000000000000000000000000000000000815250611fec565b611c2e8773ffffffffffffffffffffffffffffffffffffffff166370a08231336040518263ffffffff1660e01b8152600401808273ffffffffffffffffffffffffffffffffffffffff1673ffffffffffffffffffffffffffffffffffffffff16815260200191505060206040518083038186803b158015611bb757600080fd5b505afa158015611bcb573d6000803e3d6000fd5b505050506040513d6020811015611be157600080fd5b8101908080519060200190929190505050876040518060400160405280600d81526020017f4552525f42414c5f5052494d4500000000000000000000000000000000000000815250611fec565b60008173ffffffffffffffffffffffffffffffffffffffff166323b872dd338a886040518463ffffffff1660e01b8152600401808473ffffffffffffffffffffffffffffffffffffffff1673ffffffffffffffffffffffffffffffffffffffff1681526020018373ffffffffffffffffffffffffffffffffffffffff1673ffffffffffffffffffffffffffffffffffffffff1681526020018281526020019350505050602060405180830381600087803b158015611ceb57600080fd5b505af1158015611cff573d6000803e3d6000fd5b505050506040513d6020811015611d1557600080fd5b8101908080519060200190929190505050905060008873ffffffffffffffffffffffffffffffffffffffff166323b872dd338b8b6040518463ffffffff1660e01b8152600401808473ffffffffffffffffffffffffffffffffffffffff1673ffffffffffffffffffffffffffffffffffffffff1681526020018373ffffffffffffffffffffffffffffffffffffffff1673ffffffffffffffffffffffffffffffffffffffff1681526020018281526020019350505050602060405180830381600087803b158015611de557600080fd5b505af1158015611df9573d6000803e3d6000fd5b505050506040513d6020811015611e0f57600080fd5b81019080805190602001909291905050509050818015611e2c5750805b611e9e576040517f08c379a00000000000000000000000000000000000000000000000000000000081526004018080602001828103825260148152602001807f4552525f5452414e534645525f494e5f4641494c00000000000000000000000081525060200191505060405180910390fd5b8873ffffffffffffffffffffffffffffffffffffffff1663c74073a1886040518263ffffffff1660e01b8152600401808273ffffffffffffffffffffffffffffffffffffffff1673ffffffffffffffffffffffffffffffffffffffff168152602001915050606060405180830381600087803b158015611f1d57600080fd5b505af1158015611f31573d6000803e3d6000fd5b505050506040513d6060811015611f4757600080fd5b810190808051906020019092919080519060200190929190805190602001909291905050508096508197508298505050503373ffffffffffffffffffffffffffffffffffffffff167f684222b0069d4a2e5e0d986611cc5182d543904c4e4264bf770d4e51faefc822866040518082815260200191505060405180910390a250505060016000806101000a81548160ff02191690831515021790555093509350939050565b600082146120a55781831015819061209f576040517f08c379a00000000000000000000000000000000000000000000000000000000081526004018080602001828103825283818151815260200191508051906020019080838360005b83811015612064578082015181840152602081019050612049565b50505050905090810190601f1680156120915780820380516001836020036101000a031916815260200191505b509250505060405180910390fd5b50612151565b818311819061214f576040517f08c379a00000000000000000000000000000000000000000000000000000000081526004018080602001828103825283818151815260200191508051906020019080838360005b838110156121145780820151818401526020810190506120f9565b50505050905090810190601f1680156121415780820380516001836020036101000a031916815260200191505b509250505060405180910390fd5b505b505050565b60008083141561216957600090506121d6565b600082840290508284828161217a57fe5b04146121d1576040517f08c379a00000000000000000000000000000000000000000000000000000000081526004018080602001828103825260218152602001806122ed6021913960400191505060405180910390fd5b809150505b92915050565b600061221e83836040518060400160405280601a81526020017f536166654d6174683a206469766973696f6e206279207a65726f000000000000815250612226565b905092915050565b600080831182906122d2576040517f08c379a00000000000000000000000000000000000000000000000000000000081526004018080602001828103825283818151815260200191508051906020019080838360005b8381101561229757808201518184015260208101905061227c565b50505050905090810190601f1680156122c45780820380516001836020036101000a031916815260200191505b509250505060405180910390fd5b5060008385816122de57fe5b04905080915050939250505056fe536166654d6174683a206d756c7469706c69636174696f6e206f766572666c6f77a2646970667358221220bc77e2d2b5ac450678087ab657b5a5de7dc481c4e436a23f55d79f6736c4245764736f6c63430006020033",
  "source": "pragma solidity ^0.6.2;\r\n\r\n/**\r\n * @title Primitive's Trader Contract\r\n * @notice Safely interacts with the Prime Base ERC-20 Option\r\n * @author Primitive\r\n */\r\n\r\nimport \"./PrimeInterface.sol\";\r\nimport \"@openzeppelin/contracts/math/SafeMath.sol\";\r\nimport \"@openzeppelin/contracts/token/ERC20/ERC20.sol\";\r\nimport \"@openzeppelin/contracts/utils/ReentrancyGuard.sol\";\r\n\r\ncontract PrimeTrader is ReentrancyGuard {\r\n    using SafeMath for uint256;\r\n\r\n    uint256 public constant DENOMINATOR = 1 ether;\r\n\r\n    address payable public weth;\r\n\r\n    event Mint(address indexed from, uint256 outTokenP, uint256 outTokenR);\r\n    event Swap(address indexed from, uint256 outTokenU, uint256 inTokenS);\r\n    event Redeem(address indexed from, uint256 inTokenR);\r\n    event Close(address indexed from, uint256 inTokenP);\r\n\r\n    constructor (address payable _weth) public {\r\n        weth = _weth;\r\n    }\r\n\r\n    /**\r\n     * @dev Mint Primes by depositing tokenU.\r\n     * @notice Also mints Prime Redeem tokens. Calls msg.sender with transferFrom.\r\n     * @param tokenP The address of the Prime Option to trade with.\r\n     * @param amount Quantity of Prime options to mint and tokenU to deposit.\r\n     * @param receiver The newly minted tokens are sent to the receiver address.\r\n     */\r\n    function safeMint(\r\n        address tokenP,\r\n        uint256 amount,\r\n        address receiver\r\n    )\r\n        external\r\n        nonReentrant\r\n        returns (uint256 inTokenU, uint256 outTokenR)\r\n    {\r\n        require(amount > 0, \"ERR_ZERO\");\r\n        address tokenU = IPrime(tokenP).tokenU();\r\n        verifyBalance(\r\n            IERC20(tokenU).balanceOf(msg.sender),\r\n            amount,\r\n            \"ERR_BAL_UNDERLYING\"\r\n        );\r\n        require(\r\n            IERC20(tokenU).transferFrom(msg.sender, tokenP, amount),\r\n            \"ERR_TRANSFER_IN_FAIL\"\r\n        );\r\n        (inTokenU, outTokenR) = IPrime(tokenP).mint(receiver);\r\n        emit Mint(msg.sender, inTokenU, outTokenR);\r\n    }\r\n\r\n    /**\r\n     * @dev Swaps tokenS to tokenU using ratio as the exchange rate.\r\n     * @notice Burns Prime, contract receives tokenS, user receives tokenU.\r\n     * Calls msg.sender with transferFrom.\r\n     * @param amount Quantity of Primes to use to swap.\r\n     */\r\n    function safeSwap(\r\n        address tokenP,\r\n        uint256 amount,\r\n        address receiver\r\n    )\r\n        external\r\n        nonReentrant\r\n        returns (uint256 inTokenS, uint256 inTokenP, uint256 outTokenU)\r\n    {\r\n        require(amount > 0, \"ERR_ZERO\");\r\n        address tokenS = IPrime(tokenP).tokenS();\r\n        verifyBalance(\r\n            IPrime(tokenP).balanceOf(msg.sender),\r\n            amount,\r\n            \"ERR_BAL_PRIME\"\r\n        );\r\n\r\n        inTokenS = amount.mul(IPrime(tokenP).price()).div(IPrime(tokenP).base());\r\n        verifyBalance(\r\n            IERC20(tokenS).balanceOf(msg.sender),\r\n            inTokenS,\r\n            \"ERR_BAL_STRIKE\"\r\n        );\r\n        (bool inTransferS) = IERC20(tokenS).transferFrom(msg.sender, tokenP, inTokenS);\r\n        (bool inTransferP) = IPrime(tokenP).transferFrom(msg.sender, tokenP, amount);\r\n        require(inTransferS && inTransferP, \"ERR_TRANSFER_IN_FAIL\");\r\n        (inTokenS, inTokenP, outTokenU) = IPrime(tokenP).swap(receiver);\r\n        emit Swap(msg.sender, outTokenU, inTokenS);\r\n    }\r\n\r\n    /**\r\n     * @dev Burns Prime Redeem tokens to withdraw available tokenS.\r\n     * @param amount Quantity of Prime Redeem to spend.\r\n     */\r\n    function safeRedeem(\r\n        address tokenP,\r\n        uint256 amount,\r\n        address receiver\r\n    )\r\n        external\r\n        nonReentrant\r\n        returns (uint256 inTokenR)\r\n    {\r\n        require(amount > 0, \"ERR_ZERO\");\r\n        address tokenS = IPrime(tokenP).tokenS();\r\n        address tokenR = IPrime(tokenP).tokenR();\r\n\r\n        verifyBalance(\r\n            IERC20(tokenR).balanceOf(msg.sender),\r\n            amount,\r\n            \"ERR_BAL_REDEEM\"\r\n        );\r\n\r\n        // There can be the case there is no available tokenS to redeem.\r\n        // This is the first verification of a tokenS balance to draw from.\r\n        // There is a second verification in the redeem() function.\r\n        verifyBalance(\r\n            IERC20(tokenS).balanceOf(tokenP),\r\n            amount,\r\n            \"ERR_BAL_STRIKE\"\r\n        );\r\n        require(\r\n            IERC20(tokenR).transferFrom(msg.sender, tokenP, amount),\r\n            \"ERR_TRANSFER_IN_FAIL\"\r\n        );\r\n        (inTokenR) = IPrime(tokenP).redeem(receiver);\r\n        emit Redeem(msg.sender, inTokenR);\r\n    }\r\n\r\n    /**\r\n     * @dev Burn Prime and Prime Redeem tokens to withdraw tokenU.\r\n     * @notice Takes paramter for quantity of Primes to burn.\r\n     * The Prime Redeems to burn is equal to the Primes * ratio.\r\n     * @param amount Quantity of Primes to burn.\r\n     */\r\n    function safeClose(\r\n        address tokenP,\r\n        uint256 amount,\r\n        address receiver\r\n    )\r\n        external\r\n        nonReentrant\r\n        returns (uint256 inTokenR, uint256 inTokenP, uint256 outTokenU)\r\n    {\r\n        require(amount > 0, \"ERR_ZERO\");\r\n        address tokenR = IPrime(tokenP).tokenR();\r\n\r\n        inTokenR = amount.mul(IPrime(tokenP).price()).div(IPrime(tokenP).base());\r\n\r\n        verifyBalance(\r\n            IERC20(tokenR).balanceOf(msg.sender),\r\n            inTokenR,\r\n            \"ERR_BAL_REDEEM\"\r\n        );\r\n\r\n        verifyBalance(\r\n            IPrime(tokenP).balanceOf(msg.sender),\r\n            amount,\r\n            \"ERR_BAL_PRIME\"\r\n        );\r\n\r\n        (bool inTransferR) = IERC20(tokenR).transferFrom(msg.sender, tokenP, inTokenR);\r\n        (bool inTransferP) = IPrime(tokenP).transferFrom(msg.sender, tokenP, amount);\r\n        require(inTransferR && inTransferP, \"ERR_TRANSFER_IN_FAIL\");\r\n        (inTokenR, inTokenP, outTokenU) = IPrime(tokenP).close(receiver);\r\n        emit Close(msg.sender, inTokenP);\r\n    }\r\n\r\n    function verifyBalance(\r\n        uint256 balance,\r\n        uint256 minBalance,\r\n        string memory errorCode\r\n    ) internal pure {\r\n        minBalance == 0 ?\r\n            require(balance > minBalance, errorCode) :\r\n            require(balance >= minBalance, errorCode);\r\n    }\r\n}",
  "sourcePath": "C:\\Users\\alexa\\OneDrive\\Documents\\Master\\Blockchain\\Projects\\carbon\\contracts\\PrimeTrader.sol",
  "compiler": {
    "name": "solc",
    "version": "0.6.2+commit.bacdbe57.Emscripten.clang"
  },
  "schemaVersion": "3.0.23",
  "updatedAt": "2020-04-29T18:19:58.952Z",
  "devdoc": {
    "methods": {
      "safeClose(address,uint256,address)": {
        "details": "Burn Prime and Prime Redeem tokens to withdraw tokenU.",
        "params": {
          "amount": "Quantity of Primes to burn."
        }
      },
      "safeMint(address,uint256,address)": {
        "details": "Mint Primes by depositing tokenU.",
        "params": {
          "amount": "Quantity of Prime options to mint and tokenU to deposit.",
          "receiver": "The newly minted tokens are sent to the receiver address.",
          "tokenP": "The address of the Prime Option to trade with."
        }
      },
      "safeRedeem(address,uint256,address)": {
        "details": "Burns Prime Redeem tokens to withdraw available tokenS.",
        "params": {
          "amount": "Quantity of Prime Redeem to spend."
        }
      },
      "safeSwap(address,uint256,address)": {
        "details": "Swaps tokenS to tokenU using ratio as the exchange rate.",
        "params": {
          "amount": "Quantity of Primes to use to swap."
        }
      }
    }
  },
  "userdoc": {
    "methods": {
      "safeClose(address,uint256,address)": {
        "notice": "Takes paramter for quantity of Primes to burn. The Prime Redeems to burn is equal to the Primes * ratio."
      },
      "safeMint(address,uint256,address)": {
        "notice": "Also mints Prime Redeem tokens. Calls msg.sender with transferFrom."
      },
      "safeSwap(address,uint256,address)": {
        "notice": "Burns Prime, contract receives tokenS, user receives tokenU. Calls msg.sender with transferFrom."
      }
    }
  }
}