{
  "contractName": "PrimePool",
  "abi": [
    {
      "inputs": [
        {
          "internalType": "address payable",
          "name": "_weth",
          "type": "address"
        },
        {
          "internalType": "address",
          "name": "_oracle",
          "type": "address"
        },
        {
          "internalType": "string",
          "name": "name",
          "type": "string"
        },
        {
          "internalType": "string",
          "name": "symbol",
          "type": "string"
        },
        {
          "internalType": "address",
          "name": "_tokenU",
          "type": "address"
        },
        {
          "internalType": "address",
          "name": "_tokenS",
          "type": "address"
        }
      ],
      "stateMutability": "nonpayable",
      "type": "constructor"
    },
    {
      "anonymous": false,
      "inputs": [
        {
          "indexed": true,
          "internalType": "address",
          "name": "owner",
          "type": "address"
        },
        {
          "indexed": true,
          "internalType": "address",
          "name": "spender",
          "type": "address"
        },
        {
          "indexed": false,
          "internalType": "uint256",
          "name": "value",
          "type": "uint256"
        }
      ],
      "name": "Approval",
      "type": "event"
    },
    {
      "anonymous": false,
      "inputs": [
        {
          "indexed": true,
          "internalType": "address",
          "name": "user",
          "type": "address"
        },
        {
          "indexed": false,
          "internalType": "uint256",
          "name": "inTokenS",
          "type": "uint256"
        },
        {
          "indexed": false,
          "internalType": "uint256",
          "name": "outTokenU",
          "type": "uint256"
        },
        {
          "indexed": false,
          "internalType": "uint256",
          "name": "premium",
          "type": "uint256"
        }
      ],
      "name": "Buy",
      "type": "event"
    },
    {
      "anonymous": false,
      "inputs": [
        {
          "indexed": true,
          "internalType": "address",
          "name": "user",
          "type": "address"
        },
        {
          "indexed": false,
          "internalType": "uint256",
          "name": "inTokenU",
          "type": "uint256"
        },
        {
          "indexed": false,
          "internalType": "uint256",
          "name": "outTokenPULP",
          "type": "uint256"
        }
      ],
      "name": "Deposit",
      "type": "event"
    },
    {
      "anonymous": false,
      "inputs": [
        {
          "indexed": false,
          "internalType": "address",
          "name": "tokenP",
          "type": "address"
        }
      ],
      "name": "Market",
      "type": "event"
    },
    {
      "anonymous": false,
      "inputs": [
        {
          "indexed": true,
          "internalType": "address",
          "name": "previousOwner",
          "type": "address"
        },
        {
          "indexed": true,
          "internalType": "address",
          "name": "newOwner",
          "type": "address"
        }
      ],
      "name": "OwnershipTransferred",
      "type": "event"
    },
    {
      "anonymous": false,
      "inputs": [
        {
          "indexed": false,
          "internalType": "address",
          "name": "account",
          "type": "address"
        }
      ],
      "name": "Paused",
      "type": "event"
    },
    {
      "anonymous": false,
      "inputs": [
        {
          "indexed": true,
          "internalType": "address",
          "name": "from",
          "type": "address"
        },
        {
          "indexed": true,
          "internalType": "address",
          "name": "to",
          "type": "address"
        },
        {
          "indexed": false,
          "internalType": "uint256",
          "name": "value",
          "type": "uint256"
        }
      ],
      "name": "Transfer",
      "type": "event"
    },
    {
      "anonymous": false,
      "inputs": [
        {
          "indexed": false,
          "internalType": "address",
          "name": "account",
          "type": "address"
        }
      ],
      "name": "Unpaused",
      "type": "event"
    },
    {
      "anonymous": false,
      "inputs": [
        {
          "indexed": true,
          "internalType": "address",
          "name": "user",
          "type": "address"
        },
        {
          "indexed": false,
          "internalType": "uint256",
          "name": "outTokenU",
          "type": "uint256"
        },
        {
          "indexed": false,
          "internalType": "uint256",
          "name": "inTokenR",
          "type": "uint256"
        }
      ],
      "name": "Withdraw",
      "type": "event"
    },
    {
      "inputs": [],
      "name": "COMPOUND_DAI",
      "outputs": [
        {
          "internalType": "address",
          "name": "",
          "type": "address"
        }
      ],
      "stateMutability": "view",
      "type": "function"
    },
    {
      "inputs": [],
      "name": "ONE_ETHER",
      "outputs": [
        {
          "internalType": "uint256",
          "name": "",
          "type": "uint256"
        }
      ],
      "stateMutability": "view",
      "type": "function"
    },
    {
      "inputs": [],
      "name": "SECONDS_IN_DAY",
      "outputs": [
        {
          "internalType": "uint256",
          "name": "",
          "type": "uint256"
        }
      ],
      "stateMutability": "view",
      "type": "function"
    },
    {
      "inputs": [
        {
          "internalType": "uint256",
          "name": "",
          "type": "uint256"
        }
      ],
      "name": "_optionMarkets",
      "outputs": [
        {
          "internalType": "address",
          "name": "",
          "type": "address"
        }
      ],
      "stateMutability": "view",
      "type": "function"
    },
    {
      "inputs": [
        {
          "internalType": "address",
          "name": "owner",
          "type": "address"
        },
        {
          "internalType": "address",
          "name": "spender",
          "type": "address"
        }
      ],
      "name": "allowance",
      "outputs": [
        {
          "internalType": "uint256",
          "name": "",
          "type": "uint256"
        }
      ],
      "stateMutability": "view",
      "type": "function"
    },
    {
      "inputs": [
        {
          "internalType": "address",
          "name": "spender",
          "type": "address"
        },
        {
          "internalType": "uint256",
          "name": "amount",
          "type": "uint256"
        }
      ],
      "name": "approve",
      "outputs": [
        {
          "internalType": "bool",
          "name": "",
          "type": "bool"
        }
      ],
      "stateMutability": "nonpayable",
      "type": "function"
    },
    {
      "inputs": [
        {
          "internalType": "address",
          "name": "account",
          "type": "address"
        }
      ],
      "name": "balanceOf",
      "outputs": [
        {
          "internalType": "uint256",
          "name": "",
          "type": "uint256"
        }
      ],
      "stateMutability": "view",
      "type": "function"
    },
    {
      "inputs": [],
      "name": "decimals",
      "outputs": [
        {
          "internalType": "uint8",
          "name": "",
          "type": "uint8"
        }
      ],
      "stateMutability": "view",
      "type": "function"
    },
    {
      "inputs": [
        {
          "internalType": "address",
          "name": "spender",
          "type": "address"
        },
        {
          "internalType": "uint256",
          "name": "subtractedValue",
          "type": "uint256"
        }
      ],
      "name": "decreaseAllowance",
      "outputs": [
        {
          "internalType": "bool",
          "name": "",
          "type": "bool"
        }
      ],
      "stateMutability": "nonpayable",
      "type": "function"
    },
    {
      "inputs": [
        {
          "internalType": "address",
          "name": "spender",
          "type": "address"
        },
        {
          "internalType": "uint256",
          "name": "addedValue",
          "type": "uint256"
        }
      ],
      "name": "increaseAllowance",
      "outputs": [
        {
          "internalType": "bool",
          "name": "",
          "type": "bool"
        }
      ],
      "stateMutability": "nonpayable",
      "type": "function"
    },
    {
      "inputs": [],
      "name": "name",
      "outputs": [
        {
          "internalType": "string",
          "name": "",
          "type": "string"
        }
      ],
      "stateMutability": "view",
      "type": "function"
    },
    {
      "inputs": [],
      "name": "oracle",
      "outputs": [
        {
          "internalType": "address",
          "name": "",
          "type": "address"
        }
      ],
      "stateMutability": "view",
      "type": "function"
    },
    {
      "inputs": [],
      "name": "owner",
      "outputs": [
        {
          "internalType": "address",
          "name": "",
          "type": "address"
        }
      ],
      "stateMutability": "view",
      "type": "function"
    },
    {
      "inputs": [],
      "name": "paused",
      "outputs": [
        {
          "internalType": "bool",
          "name": "",
          "type": "bool"
        }
      ],
      "stateMutability": "view",
      "type": "function"
    },
    {
      "inputs": [],
      "name": "renounceOwnership",
      "outputs": [],
      "stateMutability": "nonpayable",
      "type": "function"
    },
    {
      "inputs": [],
      "name": "symbol",
      "outputs": [
        {
          "internalType": "string",
          "name": "",
          "type": "string"
        }
      ],
      "stateMutability": "view",
      "type": "function"
    },
    {
      "inputs": [],
      "name": "tokenR",
      "outputs": [
        {
          "internalType": "address",
          "name": "",
          "type": "address"
        }
      ],
      "stateMutability": "view",
      "type": "function"
    },
    {
      "inputs": [],
      "name": "tokenS",
      "outputs": [
        {
          "internalType": "address",
          "name": "",
          "type": "address"
        }
      ],
      "stateMutability": "view",
      "type": "function"
    },
    {
      "inputs": [],
      "name": "tokenU",
      "outputs": [
        {
          "internalType": "address",
          "name": "",
          "type": "address"
        }
      ],
      "stateMutability": "view",
      "type": "function"
    },
    {
      "inputs": [],
      "name": "totalSupply",
      "outputs": [
        {
          "internalType": "uint256",
          "name": "",
          "type": "uint256"
        }
      ],
      "stateMutability": "view",
      "type": "function"
    },
    {
      "inputs": [
        {
          "internalType": "address",
          "name": "recipient",
          "type": "address"
        },
        {
          "internalType": "uint256",
          "name": "amount",
          "type": "uint256"
        }
      ],
      "name": "transfer",
      "outputs": [
        {
          "internalType": "bool",
          "name": "",
          "type": "bool"
        }
      ],
      "stateMutability": "nonpayable",
      "type": "function"
    },
    {
      "inputs": [
        {
          "internalType": "address",
          "name": "sender",
          "type": "address"
        },
        {
          "internalType": "address",
          "name": "recipient",
          "type": "address"
        },
        {
          "internalType": "uint256",
          "name": "amount",
          "type": "uint256"
        }
      ],
      "name": "transferFrom",
      "outputs": [
        {
          "internalType": "bool",
          "name": "",
          "type": "bool"
        }
      ],
      "stateMutability": "nonpayable",
      "type": "function"
    },
    {
      "inputs": [
        {
          "internalType": "address",
          "name": "newOwner",
          "type": "address"
        }
      ],
      "name": "transferOwnership",
      "outputs": [],
      "stateMutability": "nonpayable",
      "type": "function"
    },
    {
      "inputs": [],
      "name": "volatility",
      "outputs": [
        {
          "internalType": "uint256",
          "name": "",
          "type": "uint256"
        }
      ],
      "stateMutability": "view",
      "type": "function"
    },
    {
      "inputs": [],
      "name": "weth",
      "outputs": [
        {
          "internalType": "address payable",
          "name": "",
          "type": "address"
        }
      ],
      "stateMutability": "view",
      "type": "function"
    },
    {
      "stateMutability": "payable",
      "type": "receive"
    },
    {
      "inputs": [
        {
          "internalType": "address",
          "name": "tokenP",
          "type": "address"
        }
      ],
      "name": "addMarket",
      "outputs": [
        {
          "internalType": "address",
          "name": "",
          "type": "address"
        }
      ],
      "stateMutability": "nonpayable",
      "type": "function"
    },
    {
      "inputs": [
        {
          "internalType": "uint256",
          "name": "amount",
          "type": "uint256"
        }
      ],
      "name": "deposit",
      "outputs": [
        {
          "internalType": "bool",
          "name": "",
          "type": "bool"
        }
      ],
      "stateMutability": "payable",
      "type": "function"
    },
    {
      "inputs": [
        {
          "internalType": "uint256",
          "name": "amount",
          "type": "uint256"
        },
        {
          "internalType": "address",
          "name": "tokenP",
          "type": "address"
        }
      ],
      "name": "withdraw",
      "outputs": [
        {
          "internalType": "bool",
          "name": "",
          "type": "bool"
        }
      ],
      "stateMutability": "nonpayable",
      "type": "function"
    },
    {
      "inputs": [
        {
          "internalType": "uint256",
          "name": "amount",
          "type": "uint256"
        },
        {
          "internalType": "address",
          "name": "tokenP",
          "type": "address"
        }
      ],
      "name": "buy",
      "outputs": [
        {
          "internalType": "bool",
          "name": "",
          "type": "bool"
        }
      ],
      "stateMutability": "payable",
      "type": "function"
    },
    {
      "inputs": [
        {
          "internalType": "address",
          "name": "tokenP",
          "type": "address"
        }
      ],
      "name": "calculatePremium",
      "outputs": [
        {
          "internalType": "uint256",
          "name": "timeRemainder",
          "type": "uint256"
        },
        {
          "internalType": "uint256",
          "name": "premium",
          "type": "uint256"
        }
      ],
      "stateMutability": "view",
      "type": "function"
    },
    {
      "inputs": [
        {
          "internalType": "uint256",
          "name": "base",
          "type": "uint256"
        },
        {
          "internalType": "uint256",
          "name": "price",
          "type": "uint256"
        }
      ],
      "name": "calculateVolatilityProxy",
      "outputs": [
        {
          "internalType": "uint256",
          "name": "_volatility",
          "type": "uint256"
        }
      ],
      "stateMutability": "view",
      "type": "function"
    },
    {
      "inputs": [
        {
          "internalType": "uint256",
          "name": "base",
          "type": "uint256"
        },
        {
          "internalType": "uint256",
          "name": "price",
          "type": "uint256"
        }
      ],
      "name": "poolUtilized",
      "outputs": [
        {
          "internalType": "uint256",
          "name": "utilized",
          "type": "uint256"
        }
      ],
      "stateMutability": "view",
      "type": "function"
    },
    {
      "inputs": [
        {
          "internalType": "uint256",
          "name": "y",
          "type": "uint256"
        }
      ],
      "name": "sqrt",
      "outputs": [
        {
          "internalType": "uint256",
          "name": "z",
          "type": "uint256"
        }
      ],
      "stateMutability": "pure",
      "type": "function"
    }
  ],
  "bytecode": "0x6080604052735d3a536e4d6dbd6114cc1ead35777bab948e3643600660016101000a81548173ffffffffffffffffffffffffffffffffffffffff021916908373ffffffffffffffffffffffffffffffffffffffff1602179055503480156200006657600080fd5b506040516200514238038062005142833981810160405260c08110156200008c57600080fd5b81019080805190602001909291908051906020019092919080516040519392919084640100000000821115620000c157600080fd5b83820191506020820185811115620000d857600080fd5b8251866001820283011164010000000082111715620000f657600080fd5b8083526020830192505050908051906020019080838360005b838110156200012c5780820151818401526020810190506200010f565b50505050905090810190601f1680156200015a5780820380516001836020036101000a031916815260200191505b50604052602001805160405193929190846401000000008211156200017e57600080fd5b838201915060208201858111156200019557600080fd5b8251866001820283011164010000000082111715620001b357600080fd5b8083526020830192505050908051906020019080838360005b83811015620001e9578082015181840152602081019050620001cc565b50505050905090810190601f168015620002175780820380516001836020036101000a031916815260200191505b50604052602001805190602001909291908051906020019092919050505083836000620002496200047c60201b60201c565b9050806000806101000a81548173ffffffffffffffffffffffffffffffffffffffff021916908373ffffffffffffffffffffffffffffffffffffffff1602179055508073ffffffffffffffffffffffffffffffffffffffff16600073ffffffffffffffffffffffffffffffffffffffff167f8be0079c531659141344cd1fd0a4f28419497f9722a3daafe3b4186f6b6457e060405160405180910390a35060008060146101000a81548160ff0219169083151502179055506001600060156101000a81548160ff02191690831515021790555081600490805190602001906200033492919062000484565b5080600590805190602001906200034d92919062000484565b506012600660006101000a81548160ff021916908360ff160217905550505085600c60006101000a81548173ffffffffffffffffffffffffffffffffffffffff021916908373ffffffffffffffffffffffffffffffffffffffff16021790555084600860006101000a81548173ffffffffffffffffffffffffffffffffffffffff021916908373ffffffffffffffffffffffffffffffffffffffff16021790555081600960006101000a81548173ffffffffffffffffffffffffffffffffffffffff021916908373ffffffffffffffffffffffffffffffffffffffff16021790555080600a60006101000a81548173ffffffffffffffffffffffffffffffffffffffff021916908373ffffffffffffffffffffffffffffffffffffffff16021790555050505050505062000533565b600033905090565b828054600181600116156101000203166002900490600052602060002090601f016020900481019282601f10620004c757805160ff1916838001178555620004f8565b82800160010185558215620004f8579182015b82811115620004f7578251825591602001919060010190620004da565b5b5090506200050791906200050b565b5090565b6200053091905b808211156200052c57600081600090555060010162000512565b5090565b90565b614bff80620005436000396000f3fe6080604052600436106101f15760003560e01c8063677342ce1161010d5780638da5cb5b116100a0578063a9059cbb1161006f578063a9059cbb14610c70578063b6b55f2514610ce3578063cce9923014610d29578063dd62ed3e14610d54578063f2fde38b14610dd95761024f565b80638da5cb5b14610a8557806393e3063314610adc57806395d89b4114610b6d578063a457c2d714610bfd5761024f565b806374f22010116100dc57806374f22010146108e15780637b3b67f11461094d5780637dc0d1d0146109c85780637deb602514610a1f5761024f565b8063677342ce146107bf57806367e65cf31461080e57806370a0823114610865578063715018a6146108ca5761024f565b806339509351116101855780634a244e54116101545780634a244e54146106b75780635c975abb1461070e57806360f880351461073d57806361a52a36146107945761024f565b806339509351146105695780633da18341146105dc5780633fc8cef31461060757806349a9881f1461065e5761024f565b806318160ddd116101c157806318160ddd1461042157806323b872dd1461044c5780632867c0d1146104df578063313ce567146105385761024f565b8062f714ce1461025457806306fdde03146102c75780630727d5d214610357578063095ea7b3146103ae5761024f565b3661024f57600c60009054906101000a900473ffffffffffffffffffffffffffffffffffffffff1673ffffffffffffffffffffffffffffffffffffffff163373ffffffffffffffffffffffffffffffffffffffff161461024d57fe5b005b600080fd5b34801561026057600080fd5b506102ad6004803603604081101561027757600080fd5b8101908080359060200190929190803573ffffffffffffffffffffffffffffffffffffffff169060200190929190505050610e2a565b604051808215151515815260200191505060405180910390f35b3480156102d357600080fd5b506102dc611750565b6040518080602001828103825283818151815260200191508051906020019080838360005b8381101561031c578082015181840152602081019050610301565b50505050905090810190601f1680156103495780820380516001836020036101000a031916815260200191505b509250505060405180910390f35b34801561036357600080fd5b5061036c6117f2565b604051808273ffffffffffffffffffffffffffffffffffffffff1673ffffffffffffffffffffffffffffffffffffffff16815260200191505060405180910390f35b3480156103ba57600080fd5b50610407600480360360408110156103d157600080fd5b81019080803573ffffffffffffffffffffffffffffffffffffffff16906020019092919080359060200190929190505050611818565b604051808215151515815260200191505060405180910390f35b34801561042d57600080fd5b50610436611836565b6040518082815260200191505060405180910390f35b34801561045857600080fd5b506104c56004803603606081101561046f57600080fd5b81019080803573ffffffffffffffffffffffffffffffffffffffff169060200190929190803573ffffffffffffffffffffffffffffffffffffffff16906020019092919080359060200190929190505050611840565b604051808215151515815260200191505060405180910390f35b3480156104eb57600080fd5b506105226004803603604081101561050257600080fd5b810190808035906020019092919080359060200190929190505050611919565b6040518082815260200191505060405180910390f35b34801561054457600080fd5b5061054d611a59565b604051808260ff1660ff16815260200191505060405180910390f35b34801561057557600080fd5b506105c26004803603604081101561058c57600080fd5b81019080803573ffffffffffffffffffffffffffffffffffffffff16906020019092919080359060200190929190505050611a70565b604051808215151515815260200191505060405180910390f35b3480156105e857600080fd5b506105f1611b23565b6040518082815260200191505060405180910390f35b34801561061357600080fd5b5061061c611b2f565b604051808273ffffffffffffffffffffffffffffffffffffffff1673ffffffffffffffffffffffffffffffffffffffff16815260200191505060405180910390f35b34801561066a57600080fd5b506106a16004803603604081101561068157600080fd5b810190808035906020019092919080359060200190929190505050611b55565b6040518082815260200191505060405180910390f35b3480156106c357600080fd5b506106cc611c91565b604051808273ffffffffffffffffffffffffffffffffffffffff1673ffffffffffffffffffffffffffffffffffffffff16815260200191505060405180910390f35b34801561071a57600080fd5b50610723611cb7565b604051808215151515815260200191505060405180910390f35b34801561074957600080fd5b50610752611ccd565b604051808273ffffffffffffffffffffffffffffffffffffffff1673ffffffffffffffffffffffffffffffffffffffff16815260200191505060405180910390f35b3480156107a057600080fd5b506107a9611cf3565b6040518082815260200191505060405180910390f35b3480156107cb57600080fd5b506107f8600480360360208110156107e257600080fd5b8101908080359060200190929190505050611cfa565b6040518082815260200191505060405180910390f35b34801561081a57600080fd5b50610823611d5c565b604051808273ffffffffffffffffffffffffffffffffffffffff1673ffffffffffffffffffffffffffffffffffffffff16815260200191505060405180910390f35b34801561087157600080fd5b506108b46004803603602081101561088857600080fd5b81019080803573ffffffffffffffffffffffffffffffffffffffff169060200190929190505050611d82565b6040518082815260200191505060405180910390f35b3480156108d657600080fd5b506108df611dcb565b005b3480156108ed57600080fd5b506109306004803603602081101561090457600080fd5b81019080803573ffffffffffffffffffffffffffffffffffffffff169060200190929190505050611f53565b604051808381526020018281526020019250505060405180910390f35b34801561095957600080fd5b506109866004803603602081101561097057600080fd5b810190808035906020019092919050505061236b565b604051808273ffffffffffffffffffffffffffffffffffffffff1673ffffffffffffffffffffffffffffffffffffffff16815260200191505060405180910390f35b3480156109d457600080fd5b506109dd6123a7565b604051808273ffffffffffffffffffffffffffffffffffffffff1673ffffffffffffffffffffffffffffffffffffffff16815260200191505060405180910390f35b610a6b60048036036040811015610a3557600080fd5b8101908080359060200190929190803573ffffffffffffffffffffffffffffffffffffffff1690602001909291905050506123cd565b604051808215151515815260200191505060405180910390f35b348015610a9157600080fd5b50610a9a612de1565b604051808273ffffffffffffffffffffffffffffffffffffffff1673ffffffffffffffffffffffffffffffffffffffff16815260200191505060405180910390f35b348015610ae857600080fd5b50610b2b60048036036020811015610aff57600080fd5b81019080803573ffffffffffffffffffffffffffffffffffffffff169060200190929190505050612e0a565b604051808273ffffffffffffffffffffffffffffffffffffffff1673ffffffffffffffffffffffffffffffffffffffff16815260200191505060405180910390f35b348015610b7957600080fd5b50610b8261331b565b6040518080602001828103825283818151815260200191508051906020019080838360005b83811015610bc2578082015181840152602081019050610ba7565b50505050905090810190601f168015610bef5780820380516001836020036101000a031916815260200191505b509250505060405180910390f35b348015610c0957600080fd5b50610c5660048036036040811015610c2057600080fd5b81019080803573ffffffffffffffffffffffffffffffffffffffff169060200190929190803590602001909291905050506133bd565b604051808215151515815260200191505060405180910390f35b348015610c7c57600080fd5b50610cc960048036036040811015610c9357600080fd5b81019080803573ffffffffffffffffffffffffffffffffffffffff1690602001909291908035906020019092919050505061348a565b604051808215151515815260200191505060405180910390f35b610d0f60048036036020811015610cf957600080fd5b81019080803590602001909291905050506134a8565b604051808215151515815260200191505060405180910390f35b348015610d3557600080fd5b50610d3e613c24565b6040518082815260200191505060405180910390f35b348015610d6057600080fd5b50610dc360048036036040811015610d7757600080fd5b81019080803573ffffffffffffffffffffffffffffffffffffffff169060200190929190803573ffffffffffffffffffffffffffffffffffffffff169060200190929190505050613c2a565b6040518082815260200191505060405180910390f35b348015610de557600080fd5b50610e2860048036036020811015610dfc57600080fd5b81019080803573ffffffffffffffffffffffffffffffffffffffff169060200190929190505050613cb1565b005b60008060159054906101000a900460ff16610ead576040517f08c379a000000000000000000000000000000000000000000000000000000000815260040180806020018281038252601f8152602001807f5265656e7472616e637947756172643a207265656e7472616e742063616c6c0081525060200191505060405180910390fd5b60008060156101000a81548160ff02191690831515021790555082610ed133611d82565b10158015610edf5750600083115b610f51576040517f08c379a000000000000000000000000000000000000000000000000000000000815260040180806020018281038252600c8152602001807f4552525f42414c5f50554c50000000000000000000000000000000000000000081525060200191505060405180910390fd5b6000610f5b611836565b9050610f673385613ebe565b6000600960009054906101000a900473ffffffffffffffffffffffffffffffffffffffff1690506000600a60009054906101000a900473ffffffffffffffffffffffffffffffffffffffff1690506000600b60009054906101000a900473ffffffffffffffffffffffffffffffffffffffff16905060008373ffffffffffffffffffffffffffffffffffffffff166370a08231306040518263ffffffff1660e01b8152600401808273ffffffffffffffffffffffffffffffffffffffff1673ffffffffffffffffffffffffffffffffffffffff16815260200191505060206040518083038186803b15801561105b57600080fd5b505afa15801561106f573d6000803e3d6000fd5b505050506040513d602081101561108557600080fd5b8101908080519060200190929190505050905060008273ffffffffffffffffffffffffffffffffffffffff166370a08231306040518263ffffffff1660e01b8152600401808273ffffffffffffffffffffffffffffffffffffffff1673ffffffffffffffffffffffffffffffffffffffff16815260200191505060206040518083038186803b15801561111757600080fd5b505afa15801561112b573d6000803e3d6000fd5b505050506040513d602081101561114157600080fd5b81019080805190602001909291905050509050600061117b8761116d858d61408490919063ffffffff16565b61410a90919063ffffffff16565b905060006111a488611196858e61408490919063ffffffff16565b61410a90919063ffffffff16565b905060008a73ffffffffffffffffffffffffffffffffffffffff16634e11482f6040518163ffffffff1660e01b815260040160206040518083038186803b1580156111ee57600080fd5b505afa158015611202573d6000803e3d6000fd5b505050506040513d602081101561121857600080fd5b81019080805190602001909291905050509050818110156112a1576040517f08c379a000000000000000000000000000000000000000000000000000000000815260040180806020018281038252600e8152602001807f4552525f42414c5f535452494b4500000000000000000000000000000000000081525060200191505060405180910390fd5b60008673ffffffffffffffffffffffffffffffffffffffff1663a9059cbb8d856040518363ffffffff1660e01b8152600401808373ffffffffffffffffffffffffffffffffffffffff1673ffffffffffffffffffffffffffffffffffffffff16815260200182815260200192505050602060405180830381600087803b15801561132a57600080fd5b505af115801561133e573d6000803e3d6000fd5b505050506040513d602081101561135457600080fd5b810190808051906020019092919050505090503373ffffffffffffffffffffffffffffffffffffffff167ff279e6a1f5e320cca91135676d9cb6e44ca8a08c0b88342bcdb1144f6511b5688585604051808381526020018281526020019250505060405180910390a260008c73ffffffffffffffffffffffffffffffffffffffff166395a2251f336040518263ffffffff1660e01b8152600401808273ffffffffffffffffffffffffffffffffffffffff1673ffffffffffffffffffffffffffffffffffffffff168152602001915050602060405180830381600087803b15801561143e57600080fd5b505af1158015611452573d6000803e3d6000fd5b505050506040513d602081101561146857600080fd5b8101908080519060200190929190505050905083811480156114875750815b61148d57fe5b600c60009054906101000a900473ffffffffffffffffffffffffffffffffffffffff1673ffffffffffffffffffffffffffffffffffffffff168a73ffffffffffffffffffffffffffffffffffffffff16141561165f57600c60009054906101000a900473ffffffffffffffffffffffffffffffffffffffff1673ffffffffffffffffffffffffffffffffffffffff16632e1a7d4d866040518263ffffffff1660e01b815260040180828152602001915050600060405180830381600087803b15801561155857600080fd5b505af115801561156c573d6000803e3d6000fd5b505050503373ffffffffffffffffffffffffffffffffffffffff168560405180600001905060006040518083038185875af1925050503d80600081146115ce576040519150601f19603f3d011682016040523d82523d6000602084013e6115d3565b606091505b5050809250508161164c576040517f08c379a000000000000000000000000000000000000000000000000000000000815260040180806020018281038252600f8152602001807f53656e64206574686572206661696c000000000000000000000000000000000081525060200191505060405180910390fd5b819b50505050505050505050505061172f565b8973ffffffffffffffffffffffffffffffffffffffff1663a9059cbb33876040518363ffffffff1660e01b8152600401808373ffffffffffffffffffffffffffffffffffffffff1673ffffffffffffffffffffffffffffffffffffffff16815260200182815260200192505050602060405180830381600087803b1580156116e657600080fd5b505af11580156116fa573d6000803e3d6000fd5b505050506040513d602081101561171057600080fd5b81019080805190602001909291905050509b5050505050505050505050505b6001600060156101000a81548160ff02191690831515021790555092915050565b606060048054600181600116156101000203166002900480601f0160208091040260200160405190810160405280929190818152602001828054600181600116156101000203166002900480156117e85780601f106117bd576101008083540402835291602001916117e8565b820191906000526020600020905b8154815290600101906020018083116117cb57829003601f168201915b5050505050905090565b600a60009054906101000a900473ffffffffffffffffffffffffffffffffffffffff1681565b600061182c611825614154565b848461415c565b6001905092915050565b6000600354905090565b600061184d848484614353565b61190e84611859614154565b61190985604051806060016040528060288152602001614b1360289139600260008b73ffffffffffffffffffffffffffffffffffffffff1673ffffffffffffffffffffffffffffffffffffffff16815260200190815260200160002060006118bf614154565b73ffffffffffffffffffffffffffffffffffffffff1673ffffffffffffffffffffffffffffffffffffffff168152602001908152602001600020546146189092919063ffffffff16565b61415c565b600190509392505050565b6000806119268484611b55565b90506000600960009054906101000a900473ffffffffffffffffffffffffffffffffffffffff1673ffffffffffffffffffffffffffffffffffffffff166370a08231306040518263ffffffff1660e01b8152600401808273ffffffffffffffffffffffffffffffffffffffff1673ffffffffffffffffffffffffffffffffffffffff16815260200191505060206040518083038186803b1580156119c957600080fd5b505afa1580156119dd573d6000803e3d6000fd5b505050506040513d60208110156119f357600080fd5b8101908080519060200190929190505050905060008211611a15576001611a4f565b611a4e611a2b83836146d890919063ffffffff16565b611a406103e88561408490919063ffffffff16565b61410a90919063ffffffff16565b5b9250505092915050565b6000600660009054906101000a900460ff16905090565b6000611b19611a7d614154565b84611b148560026000611a8e614154565b73ffffffffffffffffffffffffffffffffffffffff1673ffffffffffffffffffffffffffffffffffffffff16815260200190815260200160002060008973ffffffffffffffffffffffffffffffffffffffff1673ffffffffffffffffffffffffffffffffffffffff168152602001908152602001600020546146d890919063ffffffff16565b61415c565b6001905092915050565b670de0b6b3a764000081565b600c60009054906101000a900473ffffffffffffffffffffffffffffffffffffffff1681565b6000611c89670de0b6b3a7640000611c7b85611c6d670de0b6b3a7640000611c5f88600b60009054906101000a900473ffffffffffffffffffffffffffffffffffffffff1673ffffffffffffffffffffffffffffffffffffffff166370a08231306040518263ffffffff1660e01b8152600401808273ffffffffffffffffffffffffffffffffffffffff1673ffffffffffffffffffffffffffffffffffffffff16815260200191505060206040518083038186803b158015611c1657600080fd5b505afa158015611c2a573d6000803e3d6000fd5b505050506040513d6020811015611c4057600080fd5b810190808051906020019092919050505061408490919063ffffffff16565b61408490919063ffffffff16565b61410a90919063ffffffff16565b61410a90919063ffffffff16565b905092915050565b600960009054906101000a900473ffffffffffffffffffffffffffffffffffffffff1681565b60008060149054906101000a900460ff16905090565b600b60009054906101000a900473ffffffffffffffffffffffffffffffffffffffff1681565b6201518081565b60006003821115611d4957600060026001840181611d1457fe5b0490508291505b81811015611d4357809150600281828581611d3257fe5b040181611d3b57fe5b049050611d1b565b50611d57565b60008214611d5657600190505b5b919050565b600660019054906101000a900473ffffffffffffffffffffffffffffffffffffffff1681565b6000600160008373ffffffffffffffffffffffffffffffffffffffff1673ffffffffffffffffffffffffffffffffffffffff168152602001908152602001600020549050919050565b611dd3614154565b73ffffffffffffffffffffffffffffffffffffffff166000809054906101000a900473ffffffffffffffffffffffffffffffffffffffff1673ffffffffffffffffffffffffffffffffffffffff1614611e94576040517f08c379a00000000000000000000000000000000000000000000000000000000081526004018080602001828103825260208152602001807f4f776e61626c653a2063616c6c6572206973206e6f7420746865206f776e657281525060200191505060405180910390fd5b600073ffffffffffffffffffffffffffffffffffffffff166000809054906101000a900473ffffffffffffffffffffffffffffffffffffffff1673ffffffffffffffffffffffffffffffffffffffff167f8be0079c531659141344cd1fd0a4f28419497f9722a3daafe3b4186f6b6457e060405160405180910390a360008060006101000a81548173ffffffffffffffffffffffffffffffffffffffff021916908373ffffffffffffffffffffffffffffffffffffffff160217905550565b6000806000600860009054906101000a900473ffffffffffffffffffffffffffffffffffffffff1673ffffffffffffffffffffffffffffffffffffffff1663fc57d4df600660019054906101000a900473ffffffffffffffffffffffffffffffffffffffff166040518263ffffffff1660e01b8152600401808273ffffffffffffffffffffffffffffffffffffffff1673ffffffffffffffffffffffffffffffffffffffff16815260200191505060206040518083038186803b15801561201957600080fd5b505afa15801561202d573d6000803e3d6000fd5b505050506040513d602081101561204357600080fd5b8101908080519060200190929190505050905060008473ffffffffffffffffffffffffffffffffffffffff16635001f3b56040518163ffffffff1660e01b815260040160206040518083038186803b15801561209e57600080fd5b505afa1580156120b2573d6000803e3d6000fd5b505050506040513d60208110156120c857600080fd5b81019080805190602001909291905050509050600061218a8261217c670de0b6b3a76400008973ffffffffffffffffffffffffffffffffffffffff1663a035b1fe6040518163ffffffff1660e01b815260040160206040518083038186803b15801561213357600080fd5b505afa158015612147573d6000803e3d6000fd5b505050506040513d602081101561215d57600080fd5b810190808051906020019092919050505061408490919063ffffffff16565b61410a90919063ffffffff16565b905060006121b3826121a5868661408490919063ffffffff16565b61410a90919063ffffffff16565b90506000838210156121c65760006121da565b6121d9848361476090919063ffffffff16565b5b905061226f428973ffffffffffffffffffffffffffffffffffffffff1663e184c9be6040518163ffffffff1660e01b815260040160206040518083038186803b15801561222657600080fd5b505afa15801561223a573d6000803e3d6000fd5b505050506040513d602081101561225057600080fd5b810190808051906020019092919050505061476090919063ffffffff16565b965060006122a086612292670de0b6b3a76400008761408490919063ffffffff16565b61410a90919063ffffffff16565b9050600061231c6201518061230e670de0b6b3a76400006123006122c38e611cfa565b6122f26007546122e4670de0b6b3a76400008b61408490919063ffffffff16565b61408490919063ffffffff16565b61408490919063ffffffff16565b61410a90919063ffffffff16565b61410a90919063ffffffff16565b905061235d670de0b6b3a764000061234f8961234187866146d890919063ffffffff16565b61408490919063ffffffff16565b61410a90919063ffffffff16565b975050505050505050915091565b600d818154811061237857fe5b906000526020600020016000915054906101000a900473ffffffffffffffffffffffffffffffffffffffff1681565b600860009054906101000a900473ffffffffffffffffffffffffffffffffffffffff1681565b60008060159054906101000a900460ff16612450576040517f08c379a000000000000000000000000000000000000000000000000000000000815260040180806020018281038252601f8152602001807f5265656e7472616e637947756172643a207265656e7472616e742063616c6c0081525060200191505060405180910390fd5b60008060156101000a81548160ff02191690831515021790555060008290506000600960009054906101000a900473ffffffffffffffffffffffffffffffffffffffff1690506000600a60009054906101000a900473ffffffffffffffffffffffffffffffffffffffff1690506125c78573ffffffffffffffffffffffffffffffffffffffff16635001f3b56040518163ffffffff1660e01b815260040160206040518083038186803b15801561250657600080fd5b505afa15801561251a573d6000803e3d6000fd5b505050506040513d602081101561253057600080fd5b81019080805190602001909291905050508673ffffffffffffffffffffffffffffffffffffffff1663a035b1fe6040518163ffffffff1660e01b815260040160206040518083038186803b15801561258757600080fd5b505afa15801561259b573d6000803e3d6000fd5b505050506040513d60208110156125b157600080fd5b8101908080519060200190929190505050611919565b60078190555060006125d886611f53565b509050612608670de0b6b3a76400006125fa838a61408490919063ffffffff16565b61410a90919063ffffffff16565b9050600c60009054906101000a900473ffffffffffffffffffffffffffffffffffffffff1673ffffffffffffffffffffffffffffffffffffffff168273ffffffffffffffffffffffffffffffffffffffff16141561276a578034101580156126705750600081115b6126e2576040517f08c379a000000000000000000000000000000000000000000000000000000000815260040180806020018281038252600b8152602001807f4552525f42414c5f45544800000000000000000000000000000000000000000081525060200191505060405180910390fd5b600c60009054906101000a900473ffffffffffffffffffffffffffffffffffffffff1673ffffffffffffffffffffffffffffffffffffffff1663d0e30db0826040518263ffffffff1660e01b81526004016000604051808303818588803b15801561274c57600080fd5b505af1158015612760573d6000803e3d6000fd5b50505050506128a4565b868273ffffffffffffffffffffffffffffffffffffffff166370a08231336040518263ffffffff1660e01b8152600401808273ffffffffffffffffffffffffffffffffffffffff1673ffffffffffffffffffffffffffffffffffffffff16815260200191505060206040518083038186803b1580156127e857600080fd5b505afa1580156127fc573d6000803e3d6000fd5b505050506040513d602081101561281257600080fd5b8101908080519060200190929190505050101580156128315750600087115b6128a3576040517f08c379a000000000000000000000000000000000000000000000000000000000815260040180806020018281038252600e8152602001807f4552525f42414c5f535452494b4500000000000000000000000000000000000081525060200191505060405180910390fd5b5b60008373ffffffffffffffffffffffffffffffffffffffff166370a08231306040518263ffffffff1660e01b8152600401808273ffffffffffffffffffffffffffffffffffffffff1673ffffffffffffffffffffffffffffffffffffffff16815260200191505060206040518083038186803b15801561292357600080fd5b505afa158015612937573d6000803e3d6000fd5b505050506040513d602081101561294d57600080fd5b810190808051906020019092919050505090506000612a878673ffffffffffffffffffffffffffffffffffffffff1663a035b1fe6040518163ffffffff1660e01b815260040160206040518083038186803b1580156129ab57600080fd5b505afa1580156129bf573d6000803e3d6000fd5b505050506040513d60208110156129d557600080fd5b8101908080519060200190929190505050612a798873ffffffffffffffffffffffffffffffffffffffff16635001f3b56040518163ffffffff1660e01b815260040160206040518083038186803b158015612a2f57600080fd5b505afa158015612a43573d6000803e3d6000fd5b505050506040513d6020811015612a5957600080fd5b81019080805190602001909291905050508c61408490919063ffffffff16565b61410a90919063ffffffff16565b905080821015612aff576040517f08c379a00000000000000000000000000000000000000000000000000000000081526004018080602001828103825260128152602001807f4552525f42414c5f554e4445524c59494e47000000000000000000000000000081525060200191505060405180910390fd5b60008573ffffffffffffffffffffffffffffffffffffffff1663a9059cbb88846040518363ffffffff1660e01b8152600401808373ffffffffffffffffffffffffffffffffffffffff1673ffffffffffffffffffffffffffffffffffffffff16815260200182815260200192505050602060405180830381600087803b158015612b8857600080fd5b505af1158015612b9c573d6000803e3d6000fd5b505050506040513d6020811015612bb257600080fd5b8101908080519060200190929190505050905060008773ffffffffffffffffffffffffffffffffffffffff16636a627842306040518263ffffffff1660e01b8152600401808273ffffffffffffffffffffffffffffffffffffffff1673ffffffffffffffffffffffffffffffffffffffff1681526020019150506040805180830381600087803b158015612c4557600080fd5b505af1158015612c59573d6000803e3d6000fd5b505050506040513d6040811015612c6f57600080fd5b8101908080519060200190929190805190602001909291905050505090503373ffffffffffffffffffffffffffffffffffffffff167fbeae048c6d270d9469f86cf6e8fedda3c60ad770f16c24c9fc131c8e9a09101d8c858860405180848152602001838152602001828152602001935050505060405180910390a2818015612db657508773ffffffffffffffffffffffffffffffffffffffff1663a9059cbb33836040518363ffffffff1660e01b8152600401808373ffffffffffffffffffffffffffffffffffffffff1673ffffffffffffffffffffffffffffffffffffffff16815260200182815260200192505050602060405180830381600087803b158015612d7a57600080fd5b505af1158015612d8e573d6000803e3d6000fd5b505050506040513d6020811015612da457600080fd5b81019080805190602001909291905050505b985050505050505050506001600060156101000a81548160ff02191690831515021790555092915050565b60008060009054906101000a900473ffffffffffffffffffffffffffffffffffffffff16905090565b6000612e14614154565b73ffffffffffffffffffffffffffffffffffffffff166000809054906101000a900473ffffffffffffffffffffffffffffffffffffffff1673ffffffffffffffffffffffffffffffffffffffff1614612ed5576040517f08c379a00000000000000000000000000000000000000000000000000000000081526004018080602001828103825260208152602001807f4f776e61626c653a2063616c6c6572206973206e6f7420746865206f776e657281525060200191505060405180910390fd5b600d829080600181540180825580915050600190039060005260206000200160009091909190916101000a81548173ffffffffffffffffffffffffffffffffffffffff021916908373ffffffffffffffffffffffffffffffffffffffff16021790555060008273ffffffffffffffffffffffffffffffffffffffff166360f880356040518163ffffffff1660e01b815260040160206040518083038186803b158015612f8057600080fd5b505afa158015612f94573d6000803e3d6000fd5b505050506040513d6020811015612faa57600080fd5b8101908080519060200190929190505050905080600b60006101000a81548173ffffffffffffffffffffffffffffffffffffffff021916908373ffffffffffffffffffffffffffffffffffffffff160217905550600a60009054906101000a900473ffffffffffffffffffffffffffffffffffffffff1673ffffffffffffffffffffffffffffffffffffffff1663095ea7b3846b033b2e3c9fd0803ce80000006040518363ffffffff1660e01b8152600401808373ffffffffffffffffffffffffffffffffffffffff1673ffffffffffffffffffffffffffffffffffffffff16815260200182815260200192505050602060405180830381600087803b1580156130b357600080fd5b505af11580156130c7573d6000803e3d6000fd5b505050506040513d60208110156130dd57600080fd5b810190808051906020019092919050505050600960009054906101000a900473ffffffffffffffffffffffffffffffffffffffff1673ffffffffffffffffffffffffffffffffffffffff1663095ea7b3846b033b2e3c9fd0803ce80000006040518363ffffffff1660e01b8152600401808373ffffffffffffffffffffffffffffffffffffffff1673ffffffffffffffffffffffffffffffffffffffff16815260200182815260200192505050602060405180830381600087803b1580156131a457600080fd5b505af11580156131b8573d6000803e3d6000fd5b505050506040513d60208110156131ce57600080fd5b8101908080519060200190929190505050508073ffffffffffffffffffffffffffffffffffffffff1663095ea7b3846b033b2e3c9fd0803ce80000006040518363ffffffff1660e01b8152600401808373ffffffffffffffffffffffffffffffffffffffff1673ffffffffffffffffffffffffffffffffffffffff16815260200182815260200192505050602060405180830381600087803b15801561327357600080fd5b505af1158015613287573d6000803e3d6000fd5b505050506040513d602081101561329d57600080fd5b8101908080519060200190929190505050507f10a6f3b321a2a208b61ef604cd6ef66d5d79ee16620737c0ca6cfc0649fcc94f83604051808273ffffffffffffffffffffffffffffffffffffffff1673ffffffffffffffffffffffffffffffffffffffff16815260200191505060405180910390a182915050919050565b606060058054600181600116156101000203166002900480601f0160208091040260200160405190810160405280929190818152602001828054600181600116156101000203166002900480156133b35780601f10613388576101008083540402835291602001916133b3565b820191906000526020600020905b81548152906001019060200180831161339657829003601f168201915b5050505050905090565b60006134806133ca614154565b8461347b85604051806060016040528060258152602001614ba560259139600260006133f4614154565b73ffffffffffffffffffffffffffffffffffffffff1673ffffffffffffffffffffffffffffffffffffffff16815260200190815260200160002060008a73ffffffffffffffffffffffffffffffffffffffff1673ffffffffffffffffffffffffffffffffffffffff168152602001908152602001600020546146189092919063ffffffff16565b61415c565b6001905092915050565b600061349e613497614154565b8484614353565b6001905092915050565b60008060149054906101000a900460ff161561352c576040517f08c379a00000000000000000000000000000000000000000000000000000000081526004018080602001828103825260108152602001807f5061757361626c653a207061757365640000000000000000000000000000000081525060200191505060405180910390fd5b600060159054906101000a900460ff166135ae576040517f08c379a000000000000000000000000000000000000000000000000000000000815260040180806020018281038252601f8152602001807f5265656e7472616e637947756172643a207265656e7472616e742063616c6c0081525060200191505060405180910390fd5b60008060156101000a81548160ff0219169083151502179055506000600960009054906101000a900473ffffffffffffffffffffffffffffffffffffffff169050600c60009054906101000a900473ffffffffffffffffffffffffffffffffffffffff1673ffffffffffffffffffffffffffffffffffffffff168173ffffffffffffffffffffffffffffffffffffffff1614156136cb5782341480156136545750600083115b6136c6576040517f08c379a000000000000000000000000000000000000000000000000000000000815260040180806020018281038252600b8152602001807f4552525f42414c5f45544800000000000000000000000000000000000000000081525060200191505060405180910390fd5b613805565b828173ffffffffffffffffffffffffffffffffffffffff166370a08231336040518263ffffffff1660e01b8152600401808273ffffffffffffffffffffffffffffffffffffffff1673ffffffffffffffffffffffffffffffffffffffff16815260200191505060206040518083038186803b15801561374957600080fd5b505afa15801561375d573d6000803e3d6000fd5b505050506040513d602081101561377357600080fd5b8101908080519060200190929190505050101580156137925750600083115b613804576040517f08c379a00000000000000000000000000000000000000000000000000000000081526004018080602001828103825260128152602001807f4552525f42414c5f554e4445524c59494e47000000000000000000000000000081525060200191505060405180910390fd5b5b6000808273ffffffffffffffffffffffffffffffffffffffff166370a08231306040518263ffffffff1660e01b8152600401808273ffffffffffffffffffffffffffffffffffffffff1673ffffffffffffffffffffffffffffffffffffffff16815260200191505060206040518083038186803b15801561388557600080fd5b505afa158015613899573d6000803e3d6000fd5b505050506040513d60208110156138af57600080fd5b8101908080519060200190929190505050905060006138cc611836565b905060006138e3828461408490919063ffffffff16565b14156138f1578592506139c1565b81613905828861408490919063ffffffff16565b1015613998578161391f828861408490919063ffffffff16565b1015613993576040517f08c379a00000000000000000000000000000000000000000000000000000000081526004018080602001828103825260088152602001807f4552525f5a45524f00000000000000000000000000000000000000000000000081525060200191505060405180910390fd5b6139c0565b6139bd826139af838961408490919063ffffffff16565b61410a90919063ffffffff16565b92505b5b6139cb33846147aa565b3373ffffffffffffffffffffffffffffffffffffffff167f90890809c654f11d6e72a28fa60149770a0d11ec6c92319d6ceb2bb0a4ea1a158785604051808381526020018281526020019250505060405180910390a2600c60009054906101000a900473ffffffffffffffffffffffffffffffffffffffff1673ffffffffffffffffffffffffffffffffffffffff168473ffffffffffffffffffffffffffffffffffffffff161415613b0757600c60009054906101000a900473ffffffffffffffffffffffffffffffffffffffff1673ffffffffffffffffffffffffffffffffffffffff1663d0e30db0346040518263ffffffff1660e01b81526004016000604051808303818588803b158015613ae157600080fd5b505af1158015613af5573d6000803e3d6000fd5b50505050506001945050505050613c04565b8373ffffffffffffffffffffffffffffffffffffffff166323b872dd3330896040518463ffffffff1660e01b8152600401808473ffffffffffffffffffffffffffffffffffffffff1673ffffffffffffffffffffffffffffffffffffffff1681526020018373ffffffffffffffffffffffffffffffffffffffff1673ffffffffffffffffffffffffffffffffffffffff1681526020018281526020019350505050602060405180830381600087803b158015613bc257600080fd5b505af1158015613bd6573d6000803e3d6000fd5b505050506040513d6020811015613bec57600080fd5b81019080805190602001909291905050509450505050505b6001600060156101000a81548160ff021916908315150217905550919050565b60075481565b6000600260008473ffffffffffffffffffffffffffffffffffffffff1673ffffffffffffffffffffffffffffffffffffffff16815260200190815260200160002060008373ffffffffffffffffffffffffffffffffffffffff1673ffffffffffffffffffffffffffffffffffffffff16815260200190815260200160002054905092915050565b613cb9614154565b73ffffffffffffffffffffffffffffffffffffffff166000809054906101000a900473ffffffffffffffffffffffffffffffffffffffff1673ffffffffffffffffffffffffffffffffffffffff1614613d7a576040517f08c379a00000000000000000000000000000000000000000000000000000000081526004018080602001828103825260208152602001807f4f776e61626c653a2063616c6c6572206973206e6f7420746865206f776e657281525060200191505060405180910390fd5b600073ffffffffffffffffffffffffffffffffffffffff168173ffffffffffffffffffffffffffffffffffffffff161415613e00576040517f08c379a0000000000000000000000000000000000000000000000000000000008152600401808060200182810382526026815260200180614a846026913960400191505060405180910390fd5b8073ffffffffffffffffffffffffffffffffffffffff166000809054906101000a900473ffffffffffffffffffffffffffffffffffffffff1673ffffffffffffffffffffffffffffffffffffffff167f8be0079c531659141344cd1fd0a4f28419497f9722a3daafe3b4186f6b6457e060405160405180910390a3806000806101000a81548173ffffffffffffffffffffffffffffffffffffffff021916908373ffffffffffffffffffffffffffffffffffffffff16021790555050565b600073ffffffffffffffffffffffffffffffffffffffff168273ffffffffffffffffffffffffffffffffffffffff161415613f44576040517f08c379a0000000000000000000000000000000000000000000000000000000008152600401808060200182810382526021815260200180614b3b6021913960400191505060405180910390fd5b613f5082600083614973565b613fbc81604051806060016040528060228152602001614a6260229139600160008673ffffffffffffffffffffffffffffffffffffffff1673ffffffffffffffffffffffffffffffffffffffff168152602001908152602001600020546146189092919063ffffffff16565b600160008473ffffffffffffffffffffffffffffffffffffffff1673ffffffffffffffffffffffffffffffffffffffff168152602001908152602001600020819055506140148160035461476090919063ffffffff16565b600381905550600073ffffffffffffffffffffffffffffffffffffffff168273ffffffffffffffffffffffffffffffffffffffff167fddf252ad1be2c89b69c2b068fc378daa952ba7f163c4a11628f55a4df523b3ef836040518082815260200191505060405180910390a35050565b6000808314156140975760009050614104565b60008284029050828482816140a857fe5b04146140ff576040517f08c379a0000000000000000000000000000000000000000000000000000000008152600401808060200182810382526021815260200180614af26021913960400191505060405180910390fd5b809150505b92915050565b600061414c83836040518060400160405280601a81526020017f536166654d6174683a206469766973696f6e206279207a65726f000000000000815250614978565b905092915050565b600033905090565b600073ffffffffffffffffffffffffffffffffffffffff168373ffffffffffffffffffffffffffffffffffffffff1614156141e2576040517f08c379a0000000000000000000000000000000000000000000000000000000008152600401808060200182810382526024815260200180614b816024913960400191505060405180910390fd5b600073ffffffffffffffffffffffffffffffffffffffff168273ffffffffffffffffffffffffffffffffffffffff161415614268576040517f08c379a0000000000000000000000000000000000000000000000000000000008152600401808060200182810382526022815260200180614aaa6022913960400191505060405180910390fd5b80600260008573ffffffffffffffffffffffffffffffffffffffff1673ffffffffffffffffffffffffffffffffffffffff16815260200190815260200160002060008473ffffffffffffffffffffffffffffffffffffffff1673ffffffffffffffffffffffffffffffffffffffff168152602001908152602001600020819055508173ffffffffffffffffffffffffffffffffffffffff168373ffffffffffffffffffffffffffffffffffffffff167f8c5be1e5ebec7d5bd14f71427d1e84f3dd0314c0f7b2291e5b200ac8c7c3b925836040518082815260200191505060405180910390a3505050565b600073ffffffffffffffffffffffffffffffffffffffff168373ffffffffffffffffffffffffffffffffffffffff1614156143d9576040517f08c379a0000000000000000000000000000000000000000000000000000000008152600401808060200182810382526025815260200180614b5c6025913960400191505060405180910390fd5b600073ffffffffffffffffffffffffffffffffffffffff168273ffffffffffffffffffffffffffffffffffffffff16141561445f576040517f08c379a0000000000000000000000000000000000000000000000000000000008152600401808060200182810382526023815260200180614a3f6023913960400191505060405180910390fd5b61446a838383614973565b6144d681604051806060016040528060268152602001614acc60269139600160008773ffffffffffffffffffffffffffffffffffffffff1673ffffffffffffffffffffffffffffffffffffffff168152602001908152602001600020546146189092919063ffffffff16565b600160008573ffffffffffffffffffffffffffffffffffffffff1673ffffffffffffffffffffffffffffffffffffffff1681526020019081526020016000208190555061456b81600160008573ffffffffffffffffffffffffffffffffffffffff1673ffffffffffffffffffffffffffffffffffffffff168152602001908152602001600020546146d890919063ffffffff16565b600160008473ffffffffffffffffffffffffffffffffffffffff1673ffffffffffffffffffffffffffffffffffffffff168152602001908152602001600020819055508173ffffffffffffffffffffffffffffffffffffffff168373ffffffffffffffffffffffffffffffffffffffff167fddf252ad1be2c89b69c2b068fc378daa952ba7f163c4a11628f55a4df523b3ef836040518082815260200191505060405180910390a3505050565b60008383111582906146c5576040517f08c379a00000000000000000000000000000000000000000000000000000000081526004018080602001828103825283818151815260200191508051906020019080838360005b8381101561468a57808201518184015260208101905061466f565b50505050905090810190601f1680156146b75780820380516001836020036101000a031916815260200191505b509250505060405180910390fd5b5060008385039050809150509392505050565b600080828401905083811015614756576040517f08c379a000000000000000000000000000000000000000000000000000000000815260040180806020018281038252601b8152602001807f536166654d6174683a206164646974696f6e206f766572666c6f77000000000081525060200191505060405180910390fd5b8091505092915050565b60006147a283836040518060400160405280601e81526020017f536166654d6174683a207375627472616374696f6e206f766572666c6f770000815250614618565b905092915050565b600073ffffffffffffffffffffffffffffffffffffffff168273ffffffffffffffffffffffffffffffffffffffff16141561484d576040517f08c379a000000000000000000000000000000000000000000000000000000000815260040180806020018281038252601f8152602001807f45524332303a206d696e7420746f20746865207a65726f20616464726573730081525060200191505060405180910390fd5b61485960008383614973565b61486e816003546146d890919063ffffffff16565b6003819055506148c681600160008573ffffffffffffffffffffffffffffffffffffffff1673ffffffffffffffffffffffffffffffffffffffff168152602001908152602001600020546146d890919063ffffffff16565b600160008473ffffffffffffffffffffffffffffffffffffffff1673ffffffffffffffffffffffffffffffffffffffff168152602001908152602001600020819055508173ffffffffffffffffffffffffffffffffffffffff16600073ffffffffffffffffffffffffffffffffffffffff167fddf252ad1be2c89b69c2b068fc378daa952ba7f163c4a11628f55a4df523b3ef836040518082815260200191505060405180910390a35050565b505050565b60008083118290614a24576040517f08c379a00000000000000000000000000000000000000000000000000000000081526004018080602001828103825283818151815260200191508051906020019080838360005b838110156149e95780820151818401526020810190506149ce565b50505050905090810190601f168015614a165780820380516001836020036101000a031916815260200191505b509250505060405180910390fd5b506000838581614a3057fe5b04905080915050939250505056fe45524332303a207472616e7366657220746f20746865207a65726f206164647265737345524332303a206275726e20616d6f756e7420657863656564732062616c616e63654f776e61626c653a206e6577206f776e657220697320746865207a65726f206164647265737345524332303a20617070726f766520746f20746865207a65726f206164647265737345524332303a207472616e7366657220616d6f756e7420657863656564732062616c616e6365536166654d6174683a206d756c7469706c69636174696f6e206f766572666c6f7745524332303a207472616e7366657220616d6f756e74206578636565647320616c6c6f77616e636545524332303a206275726e2066726f6d20746865207a65726f206164647265737345524332303a207472616e736665722066726f6d20746865207a65726f206164647265737345524332303a20617070726f76652066726f6d20746865207a65726f206164647265737345524332303a2064656372656173656420616c6c6f77616e63652062656c6f77207a65726fa2646970667358221220ddf699d8e54de5156958c8f9cf34d4563077549b0266bd05f791b8120d0eab4d64736f6c63430006020033",
  "source": "pragma solidity ^0.6.2;\r\n\r\n/**\r\n * @title   Primitive's Pool for Writing Short Ether Puts \r\n * @author  Primitive\r\n */\r\n\r\n\r\nimport \"./PrimeInterface.sol\";\r\nimport \"./controller/Instruments.sol\";\r\nimport \"@openzeppelin/contracts/math/SafeMath.sol\";\r\nimport \"@openzeppelin/contracts/access/Ownable.sol\";\r\nimport \"@openzeppelin/contracts/utils/ReentrancyGuard.sol\";\r\nimport \"@openzeppelin/contracts/utils/Pausable.sol\";\r\nimport \"@openzeppelin/contracts/token/ERC20/ERC20.sol\";\r\n\r\n\r\ninterface IWETH {\r\n    function deposit() external payable;\r\n    function withdraw(uint wad) external;\r\n    function totalSupply() external view returns (uint);\r\n    function approve(address guy, uint wad) external returns (bool);\r\n    function transfer(address dst, uint wad) external returns (bool);\r\n    function transferFrom(address src, address dst, uint wad) external returns (bool);\r\n}\r\n\r\ninterface ICDai {\r\n\r\n    /*** User Interface ***/\r\n\r\n    function mint(uint mintAmount) external returns (uint);\r\n    function redeem(uint redeemTokens) external returns (uint);\r\n    function redeemUnderlying(uint redeemAmount) external returns (uint);\r\n    function borrow(uint borrowAmount) external returns (uint);\r\n    function repayBorrow(uint repayAmount) external returns (uint);\r\n    function repayBorrowBehalf(address borrower, uint repayAmount) external returns (uint);\r\n    function balanceOf(address owner) external view returns (uint);\r\n    function balanceOfUnderlying(address owner) external returns (uint);\r\n    function transfer(address dst, uint amount) external returns (bool);\r\n    function transferFrom(address src, address dst, uint amount) external returns (bool);\r\n    function approve(address spender, uint amount) external returns (bool);\r\n    function allowance(address owner, address spender) external view returns (uint);\r\n}\r\n\r\ninterface PriceOracleProxy {\r\n    function getUnderlyingPrice(address cToken) external view returns (uint);\r\n}\r\n\r\ncontract PrimePool is Ownable, Pausable, ReentrancyGuard, ERC20 {\r\n    using SafeMath for uint256;\r\n\r\n    address public COMPOUND_DAI = 0x5d3a536E4D6DbD6114cc1Ead35777bAB948E3643;\r\n    /* uint256 public constant VOLATILITY = 870; */ // 87% * 1000\r\n    uint256 public constant SECONDS_IN_DAY = 86400;\r\n    uint256 public constant ONE_ETHER = 1 ether;\r\n\r\n    uint256 public volatility;\r\n\r\n    address public oracle;\r\n    address public tokenU;\r\n    address public tokenS;\r\n    address public tokenR;\r\n    address payable public weth;\r\n    address[] public _optionMarkets;\r\n\r\n    event Deposit(address indexed user, uint256 inTokenU, uint256 outTokenPULP);\r\n    event Withdraw(address indexed user, uint256 outTokenU, uint256 inTokenR);\r\n    event Buy(address indexed user, uint256 inTokenS, uint256 outTokenU, uint256 premium);\r\n    event Market(address tokenP);\r\n\r\n    constructor (\r\n        address payable _weth,\r\n        address _oracle,\r\n        string memory name,\r\n        string memory symbol,\r\n        address _tokenU,\r\n        address _tokenS\r\n    ) \r\n        public\r\n        ERC20(name, symbol)\r\n    {\r\n        weth = _weth;\r\n        oracle = _oracle;\r\n        tokenU = _tokenU;\r\n        tokenS = _tokenS;\r\n    }\r\n\r\n    /* function assets() public view returns (address _tokenU, address _tokenS) {\r\n        _tokenU = tokenU;\r\n        _tokenS = tokenS;\r\n    } */\r\n\r\n    function addMarket(address tokenP) public onlyOwner returns (address) {\r\n        /* isValidOption[tokenP] = true; */\r\n        _optionMarkets.push(tokenP);\r\n        address _tokenR = IPrime(tokenP).tokenR();\r\n        tokenR = _tokenR;\r\n\r\n        IERC20(tokenS).approve(tokenP, 1000000000 ether);\r\n        IERC20(tokenU).approve(tokenP, 1000000000 ether);\r\n        IERC20(_tokenR).approve(tokenP, 1000000000 ether);\r\n        emit Market(tokenP);\r\n        return tokenP;\r\n    }\r\n\r\n\r\n    receive() external payable {\r\n        assert(msg.sender == weth);\r\n    }\r\n\r\n\r\n    /* =========== MAKER FUNCTIONS =========== */\r\n\r\n    /**\r\n     * @dev Adds liquidity by depositing tokenU. Receives tokenPULP.\r\n     * @param amount The quantity of tokenU to deposit.\r\n     * @return bool True if the transaction suceeds.\r\n     */\r\n    function deposit(\r\n        uint256 amount\r\n    )\r\n        external\r\n        payable\r\n        whenNotPaused\r\n        nonReentrant\r\n        returns (bool)\r\n    {\r\n        // Store locally for gas savings.\r\n        address _tokenU = tokenU;\r\n        if(_tokenU == weth) {\r\n            require(msg.value == amount && amount > 0, \"ERR_BAL_ETH\");\r\n        } else {\r\n            require(IERC20(_tokenU).balanceOf(msg.sender) >= amount && amount > 0, \"ERR_BAL_UNDERLYING\");\r\n        }\r\n        \r\n\r\n        // Mint LP tokens proportional to the Total LP Supply and Total Pool Balance\r\n        uint256 outTokenPULP;\r\n        uint256 balanceU = IERC20(_tokenU).balanceOf(address(this));\r\n        uint256 totalSupply = totalSupply();\r\n         \r\n        // If liquidity is not intiialized, mint LP tokens equal to deposit\r\n        if(balanceU.mul(totalSupply) == 0) {\r\n            outTokenPULP = amount;\r\n        } else if(amount.mul(totalSupply) < balanceU) {\r\n            require(amount.mul(totalSupply) >= balanceU, \"ERR_ZERO\");\r\n        } else {\r\n            outTokenPULP = amount.mul(totalSupply).div(balanceU);\r\n        }\r\n\r\n        _mint(msg.sender, outTokenPULP);\r\n        emit Deposit(msg.sender, amount, outTokenPULP);\r\n\r\n        // Assume we hold the _tokenU asset until it is utilized in minting a Prime\r\n        if(_tokenU == weth) {\r\n            IWETH(weth).deposit.value(msg.value)();\r\n            return true;\r\n        } else {\r\n            return IERC20(_tokenU).transferFrom(msg.sender, address(this), amount);\r\n        }\r\n    }\r\n\r\n    /**\r\n     * @dev liquidity Provider burns their tokenPULP for proportional amount of tokenU + tokenS.\r\n     * @notice  outTokenU = inTokenPULP * balanceU / Total Supply tokenPULP, \r\n     *          outTokenS = inTokenPULP * balanceR / Total Supply tokenPULP,\r\n     *          If the pool is fully utilized and there are no strike assets to redeem,\r\n     *          the LPs will have to wait for options to be exercised or become expired.\r\n     * @param amount The quantity of liquidity tokens to burn.\r\n     * @return bool True if liquidity tokens were burned, and both tokenU + tokenS were sent to user.\r\n     */\r\n    function withdraw(\r\n        uint256 amount,\r\n        address tokenP\r\n    ) \r\n        external \r\n        nonReentrant \r\n        returns (bool)\r\n    {\r\n        // Check tokenPULP balance.\r\n        require(balanceOf(msg.sender) >= amount && amount > 0, \"ERR_BAL_PULP\");\r\n        \r\n        // Store Total Supply before we burn\r\n        uint256 totalSupply = totalSupply();\r\n\r\n        // Burn tokenPULP.\r\n        _burn(msg.sender, amount);\r\n\r\n        // Store locally for gas savings.\r\n        address _tokenU = tokenU;\r\n        address _tokenS = tokenS;\r\n        address _tokenR = tokenR;\r\n        \r\n        // Current balance.\r\n        uint256 balanceU = IERC20(_tokenU).balanceOf(address(this));\r\n        uint256 balanceR = IERC20(_tokenR).balanceOf(address(this));\r\n\r\n        // outTokenU = inTokenPULP * Balance of tokenU / Total Supply of tokenPULP.\r\n        uint256 outTokenU = amount.mul(balanceU).div(totalSupply);\r\n\r\n        // TokenR:TokenS = 1:1.\r\n        // outTokenR = inTokenPULP * Balance of tokenR / Total Supply of tokenPULP.\r\n        uint256 outTokenR = amount.mul(balanceR).div(totalSupply);\r\n\r\n        // Balance of tokenS in tokenP must be >= outTokenR.\r\n        (uint256 maxDraw) = IPrime(tokenP).maxDraw();\r\n        require(maxDraw >= outTokenR, \"ERR_BAL_STRIKE\");\r\n\r\n        // Send tokenR to tokenP so we can call redeem() later to tokenP.\r\n        (bool success) = IERC20(_tokenR).transfer(tokenP, outTokenR);\r\n        emit Withdraw(msg.sender, outTokenU, outTokenR);\r\n    \r\n        // Call redeem function to send tokenS to msg.sender.\r\n        (uint256 inTokenR) = IPrime(tokenP).redeem(msg.sender);\r\n        assert(inTokenR == outTokenR && success);\r\n\r\n        // Send outTokenU to msg.sender.\r\n        if(_tokenU == weth) {\r\n            IWETH(weth).withdraw(outTokenU);\r\n            (success, ) = msg.sender.call.value(outTokenU)(\"\");\r\n            require(success, \"Send ether fail\");\r\n            return success;\r\n        } else {\r\n            return IERC20(_tokenU).transfer(msg.sender, outTokenU);\r\n        }\r\n    }\r\n\r\n\r\n    /* =========== TAKER FUNCTIONS =========== */\r\n\r\n\r\n    /**\r\n     * @dev Purchase ETH Put.\r\n     * @notice An eth put is 200 DAI / 1 ETH. The right to Swap 1 ETH (tokenS) for 200 Dai (tokenU).\r\n     * As a user, you want to cover ETH, so you pay in ETH. Every 1 Quantity of ETH covers 200 DAI.\r\n     * A user specifies the amount of ETH they want covered, i.e. the amount of ETH they can swap.\r\n     * @param amount The quantity of tokenU (ETH) to 'cover' with an option. Denominated in tokenS (WETH).\r\n     * @return bool True if the msg.sender receives tokenP.\r\n     */\r\n    function buy(\r\n        uint256 amount,\r\n        address tokenP\r\n    )\r\n        external \r\n        payable\r\n        nonReentrant\r\n        returns (bool)\r\n    {\r\n        // Store locally for gas savings.\r\n        address _tokenP = tokenP; // Assume Option\r\n        address _tokenU = tokenU; // Assume DAI\r\n        address _tokenS = tokenS; // Assume ETH\r\n\r\n        // Calculates the Intrinsic + Extrinsic value of tokenP.\r\n        volatility = calculateVolatilityProxy(IPrime(tokenP).base(), IPrime(tokenP).price());\r\n        (uint256 premium, ) = calculatePremium(tokenP);\r\n        premium = amount.mul(premium).div(ONE_ETHER);\r\n\r\n        // Premium is paid in tokenS. If tokenS is WETH, its paid with ETH, which is then swapped to WETH.\r\n        if(_tokenS == weth) {\r\n            require(msg.value >= premium && premium > 0, \"ERR_BAL_ETH\");\r\n            IWETH(weth).deposit.value(premium)();\r\n        } else {\r\n            require(IERC20(_tokenS).balanceOf(msg.sender) >= amount && amount > 0, \"ERR_BAL_STRIKE\");\r\n        }\r\n\r\n        // Current balance.\r\n        uint256 balanceU = IERC20(_tokenU).balanceOf(address(this));\r\n\r\n        // tokenU = Amount * Quantity of tokenU (base) / Quantity of tokenS (price)\r\n        uint256 outTokenU = amount.mul(IPrime(_tokenP).base()).div(IPrime(_tokenP).price()); \r\n\r\n        // Transfer tokenU (assume DAI) to option contract using Pool funds.\r\n        require(balanceU >= outTokenU, \"ERR_BAL_UNDERLYING\");\r\n        (bool transferU) = IERC20(_tokenU).transfer(_tokenP, outTokenU);\r\n\r\n        // Mint Prime and Prime Redeem to this contract.\r\n        (uint256 inTokenU,) = IPrime(_tokenP).mint(address(this));\r\n\r\n        // Send Prime to msg.sender.\r\n        emit Buy(msg.sender, amount, outTokenU, premium);\r\n        return transferU && IPrime(_tokenP).transfer(msg.sender, inTokenU);\r\n    }\r\n\r\n    /**\r\n     * @dev Calculates the intrinsic + extrinsic value of the option.\r\n     * @notice Strike / Market * (Volatility * 1000) * sqrt(T in seconds remaining) / Seconds in a Day\r\n     */\r\n    function calculatePremium(address tokenP) public view returns (uint256 timeRemainder, uint256 premium) {\r\n        // Assume the oracle gets the Price of ETH using compound's oracle for Dai per ETH.\r\n\r\n        // Price = ETH per DAI.\r\n        uint256 market = PriceOracleProxy(oracle).getUnderlyingPrice(COMPOUND_DAI);\r\n        // Quantity of DAI.\r\n        uint256 base = IPrime(tokenP).base();\r\n        // Strike price of DAI per ETH. ETH / DAI = price of dai per eth, then scaled to 10^18 units.\r\n        uint256 strike = IPrime(tokenP).price().mul(ONE_ETHER).div(base);\r\n        // Difference = Base * market price / strike price.\r\n        uint256 difference = base.mul(market).div(strike);\r\n        // Intrinsic value in DAI.\r\n        uint256 intrinsic = difference >= base ? difference.sub(base) : 0;\r\n        // Time left in seconds.\r\n        timeRemainder = (IPrime(tokenP).expiry().sub(block.timestamp));\r\n        // Strike / market scaled to 1e18.\r\n        uint256 moneyness = strike.mul(ONE_ETHER).div(market);\r\n        // Extrinsic value in DAI.\r\n        uint256 extrinsic = moneyness\r\n                            .mul(ONE_ETHER)\r\n                            .mul(volatility)\r\n                            .mul(sqrt(timeRemainder))\r\n                                .div(ONE_ETHER)\r\n                                .div(SECONDS_IN_DAY);\r\n        // Total Premium in ETH.\r\n        premium = (extrinsic.add(intrinsic)).mul(market).div(ONE_ETHER);\r\n    }\r\n\r\n    function calculateVolatilityProxy(uint256 base, uint256 price) public view returns (uint256 _volatility) {\r\n        (uint256 utilized) = poolUtilized(base, price);\r\n        uint256 balanceU = IERC20(tokenU).balanceOf(address(this));\r\n        _volatility = utilized > 0 ?\r\n                        utilized\r\n                        .mul(1000)\r\n                        .div(balanceU.add(utilized)) :\r\n                        1;\r\n\r\n    }\r\n\r\n    function poolUtilized(uint256 base, uint256 price) public view returns (uint256 utilized) {\r\n        utilized = IERC20(tokenR).balanceOf(address(this))\r\n                    .mul(price)\r\n                    .mul(ONE_ETHER)\r\n                    .div(base)\r\n                    .div(ONE_ETHER);\r\n    }\r\n\r\n    function sqrt(uint256 y) public pure returns (uint256 z) {\r\n        if (y > 3) {\r\n            uint256 x = (y + 1) / 2;\r\n            z = y;\r\n            while (x < z) {\r\n                z = x;\r\n                x = (y / x + x) / 2;\r\n            }\r\n        } else if (y != 0) {\r\n            z = 1;\r\n        }\r\n    }\r\n}\r\n\r\n    ",
  "sourcePath": "C:\\Users\\alexa\\OneDrive\\Documents\\Master\\Blockchain\\Projects\\carbon\\contracts\\PrimePool.sol",
  "compiler": {
    "name": "solc",
    "version": "0.6.2+commit.bacdbe57.Emscripten.clang"
  },
  "schemaVersion": "3.0.23",
  "updatedAt": "2020-04-29T18:19:58.939Z",
  "devdoc": {
    "methods": {
      "allowance(address,address)": {
        "details": "See {IERC20-allowance}."
      },
      "approve(address,uint256)": {
        "details": "See {IERC20-approve}.     * Requirements:     * - `spender` cannot be the zero address."
      },
      "balanceOf(address)": {
        "details": "See {IERC20-balanceOf}."
      },
      "buy(uint256,address)": {
        "details": "Purchase ETH Put.",
        "params": {
          "amount": "The quantity of tokenU (ETH) to 'cover' with an option. Denominated in tokenS (WETH)."
        },
        "returns": {
          "_0": "bool True if the msg.sender receives tokenP."
        }
      },
      "calculatePremium(address)": {
        "details": "Calculates the intrinsic + extrinsic value of the option."
      },
      "decimals()": {
        "details": "Returns the number of decimals used to get its user representation. For example, if `decimals` equals `2`, a balance of `505` tokens should be displayed to a user as `5,05` (`505 / 10 ** 2`).     * Tokens usually opt for a value of 18, imitating the relationship between Ether and Wei. This is the value {ERC20} uses, unless {_setupDecimals} is called.     * NOTE: This information is only used for _display_ purposes: it in no way affects any of the arithmetic of the contract, including {IERC20-balanceOf} and {IERC20-transfer}."
      },
      "decreaseAllowance(address,uint256)": {
        "details": "Atomically decreases the allowance granted to `spender` by the caller.     * This is an alternative to {approve} that can be used as a mitigation for problems described in {IERC20-approve}.     * Emits an {Approval} event indicating the updated allowance.     * Requirements:     * - `spender` cannot be the zero address. - `spender` must have allowance for the caller of at least `subtractedValue`."
      },
      "deposit(uint256)": {
        "details": "Adds liquidity by depositing tokenU. Receives tokenPULP.",
        "params": {
          "amount": "The quantity of tokenU to deposit."
        },
        "returns": {
          "_0": "bool True if the transaction suceeds."
        }
      },
      "increaseAllowance(address,uint256)": {
        "details": "Atomically increases the allowance granted to `spender` by the caller.     * This is an alternative to {approve} that can be used as a mitigation for problems described in {IERC20-approve}.     * Emits an {Approval} event indicating the updated allowance.     * Requirements:     * - `spender` cannot be the zero address."
      },
      "name()": {
        "details": "Returns the name of the token."
      },
      "owner()": {
        "details": "Returns the address of the current owner."
      },
      "paused()": {
        "details": "Returns true if the contract is paused, and false otherwise."
      },
      "renounceOwnership()": {
        "details": "Leaves the contract without owner. It will not be possible to call `onlyOwner` functions anymore. Can only be called by the current owner.     * NOTE: Renouncing ownership will leave the contract without an owner, thereby removing any functionality that is only available to the owner."
      },
      "symbol()": {
        "details": "Returns the symbol of the token, usually a shorter version of the name."
      },
      "totalSupply()": {
        "details": "See {IERC20-totalSupply}."
      },
      "transfer(address,uint256)": {
        "details": "See {IERC20-transfer}.     * Requirements:     * - `recipient` cannot be the zero address. - the caller must have a balance of at least `amount`."
      },
      "transferFrom(address,address,uint256)": {
        "details": "See {IERC20-transferFrom}.     * Emits an {Approval} event indicating the updated allowance. This is not required by the EIP. See the note at the beginning of {ERC20};     * Requirements: - `sender` and `recipient` cannot be the zero address. - `sender` must have a balance of at least `amount`. - the caller must have allowance for ``sender``'s tokens of at least `amount`."
      },
      "transferOwnership(address)": {
        "details": "Transfers ownership of the contract to a new account (`newOwner`). Can only be called by the current owner."
      },
      "withdraw(uint256,address)": {
        "details": "liquidity Provider burns their tokenPULP for proportional amount of tokenU + tokenS.",
        "params": {
          "amount": "The quantity of liquidity tokens to burn."
        },
        "returns": {
          "_0": "bool True if liquidity tokens were burned, and both tokenU + tokenS were sent to user."
        }
      }
    }
  },
  "userdoc": {
    "methods": {
      "buy(uint256,address)": {
        "notice": "An eth put is 200 DAI / 1 ETH. The right to Swap 1 ETH (tokenS) for 200 Dai (tokenU). As a user, you want to cover ETH, so you pay in ETH. Every 1 Quantity of ETH covers 200 DAI. A user specifies the amount of ETH they want covered, i.e. the amount of ETH they can swap."
      },
      "calculatePremium(address)": {
        "notice": "Strike / Market * (Volatility * 1000) * sqrt(T in seconds remaining) / Seconds in a Day"
      },
      "withdraw(uint256,address)": {
        "notice": "outTokenU = inTokenPULP * balanceU / Total Supply tokenPULP,          outTokenS = inTokenPULP * balanceR / Total Supply tokenPULP,         If the pool is fully utilized and there are no strike assets to redeem,         the LPs will have to wait for options to be exercised or become expired."
      }
    }
  }
}