{
  "contractName": "Prime",
  "abi": [
    {
      "anonymous": false,
      "inputs": [
        {
          "indexed": true,
          "internalType": "address",
          "name": "owner",
          "type": "address"
        },
        {
          "indexed": true,
          "internalType": "address",
          "name": "approved",
          "type": "address"
        },
        {
          "indexed": true,
          "internalType": "uint256",
          "name": "tokenId",
          "type": "uint256"
        }
      ],
      "name": "Approval",
      "type": "event"
    },
    {
      "anonymous": false,
      "inputs": [
        {
          "indexed": true,
          "internalType": "address",
          "name": "owner",
          "type": "address"
        },
        {
          "indexed": true,
          "internalType": "address",
          "name": "operator",
          "type": "address"
        },
        {
          "indexed": false,
          "internalType": "bool",
          "name": "approved",
          "type": "bool"
        }
      ],
      "name": "ApprovalForAll",
      "type": "event"
    },
    {
      "anonymous": false,
      "inputs": [
        {
          "indexed": true,
          "internalType": "address",
          "name": "_user",
          "type": "address"
        },
        {
          "indexed": true,
          "internalType": "address",
          "name": "_asset",
          "type": "address"
        },
        {
          "indexed": false,
          "internalType": "uint256",
          "name": "_amount",
          "type": "uint256"
        },
        {
          "indexed": true,
          "internalType": "uint256",
          "name": "_tokenId",
          "type": "uint256"
        },
        {
          "indexed": false,
          "internalType": "uint256",
          "name": "_timestamp",
          "type": "uint256"
        }
      ],
      "name": "Close",
      "type": "event"
    },
    {
      "anonymous": false,
      "inputs": [
        {
          "indexed": false,
          "internalType": "uint256",
          "name": "_amount",
          "type": "uint256"
        },
        {
          "indexed": true,
          "internalType": "uint256",
          "name": "_tokenId",
          "type": "uint256"
        },
        {
          "indexed": false,
          "internalType": "uint256",
          "name": "_timestamp",
          "type": "uint256"
        }
      ],
      "name": "CollateralUpdate",
      "type": "event"
    },
    {
      "anonymous": false,
      "inputs": [
        {
          "indexed": true,
          "internalType": "address",
          "name": "_user",
          "type": "address"
        },
        {
          "indexed": true,
          "internalType": "address",
          "name": "_asset",
          "type": "address"
        },
        {
          "indexed": false,
          "internalType": "uint256",
          "name": "_amount",
          "type": "uint256"
        },
        {
          "indexed": true,
          "internalType": "uint256",
          "name": "_tokenId",
          "type": "uint256"
        },
        {
          "indexed": false,
          "internalType": "uint256",
          "name": "_timestamp",
          "type": "uint256"
        }
      ],
      "name": "CreateSlate",
      "type": "event"
    },
    {
      "anonymous": false,
      "inputs": [
        {
          "indexed": true,
          "internalType": "address",
          "name": "_user",
          "type": "address"
        },
        {
          "indexed": true,
          "internalType": "address",
          "name": "_asset",
          "type": "address"
        },
        {
          "indexed": false,
          "internalType": "uint256",
          "name": "_amount",
          "type": "uint256"
        },
        {
          "indexed": true,
          "internalType": "uint256",
          "name": "_tokenId",
          "type": "uint256"
        },
        {
          "indexed": false,
          "internalType": "uint256",
          "name": "_timestamp",
          "type": "uint256"
        }
      ],
      "name": "Exercise",
      "type": "event"
    },
    {
      "anonymous": false,
      "inputs": [
        {
          "indexed": true,
          "internalType": "uint256",
          "name": "_tokenId",
          "type": "uint256"
        },
        {
          "indexed": false,
          "internalType": "uint256",
          "name": "_timestamp",
          "type": "uint256"
        }
      ],
      "name": "SlateMinted",
      "type": "event"
    },
    {
      "anonymous": false,
      "inputs": [
        {
          "indexed": true,
          "internalType": "address",
          "name": "from",
          "type": "address"
        },
        {
          "indexed": true,
          "internalType": "address",
          "name": "to",
          "type": "address"
        },
        {
          "indexed": true,
          "internalType": "uint256",
          "name": "tokenId",
          "type": "uint256"
        }
      ],
      "name": "Transfer",
      "type": "event"
    },
    {
      "inputs": [],
      "name": "_INTERFACE_ID_ERC721_METADATA",
      "outputs": [
        {
          "internalType": "bytes4",
          "name": "",
          "type": "bytes4"
        }
      ],
      "stateMutability": "view",
      "type": "function",
      "constant": true
    },
    {
      "inputs": [],
      "name": "_baseURI",
      "outputs": [
        {
          "internalType": "string",
          "name": "",
          "type": "string"
        }
      ],
      "stateMutability": "view",
      "type": "function",
      "constant": true
    },
    {
      "inputs": [
        {
          "internalType": "uint256",
          "name": "",
          "type": "uint256"
        }
      ],
      "name": "_collateral",
      "outputs": [
        {
          "internalType": "uint256",
          "name": "",
          "type": "uint256"
        }
      ],
      "stateMutability": "view",
      "type": "function",
      "constant": true
    },
    {
      "inputs": [],
      "name": "_controller",
      "outputs": [
        {
          "internalType": "address",
          "name": "",
          "type": "address"
        }
      ],
      "stateMutability": "view",
      "type": "function",
      "constant": true
    },
    {
      "inputs": [],
      "name": "_name",
      "outputs": [
        {
          "internalType": "string",
          "name": "",
          "type": "string"
        }
      ],
      "stateMutability": "view",
      "type": "function",
      "constant": true
    },
    {
      "inputs": [],
      "name": "_slate",
      "outputs": [
        {
          "internalType": "address",
          "name": "ace",
          "type": "address"
        },
        {
          "internalType": "uint256",
          "name": "xis",
          "type": "uint256"
        },
        {
          "internalType": "address",
          "name": "yak",
          "type": "address"
        },
        {
          "internalType": "uint256",
          "name": "zed",
          "type": "uint256"
        },
        {
          "internalType": "address",
          "name": "wax",
          "type": "address"
        },
        {
          "internalType": "uint256",
          "name": "pow",
          "type": "uint256"
        },
        {
          "internalType": "address",
          "name": "gem",
          "type": "address"
        }
      ],
      "stateMutability": "view",
      "type": "function",
      "constant": true
    },
    {
      "inputs": [
        {
          "internalType": "uint256",
          "name": "",
          "type": "uint256"
        }
      ],
      "name": "_slates",
      "outputs": [
        {
          "internalType": "address",
          "name": "ace",
          "type": "address"
        },
        {
          "internalType": "uint256",
          "name": "xis",
          "type": "uint256"
        },
        {
          "internalType": "address",
          "name": "yak",
          "type": "address"
        },
        {
          "internalType": "uint256",
          "name": "zed",
          "type": "uint256"
        },
        {
          "internalType": "address",
          "name": "wax",
          "type": "address"
        },
        {
          "internalType": "uint256",
          "name": "pow",
          "type": "uint256"
        },
        {
          "internalType": "address",
          "name": "gem",
          "type": "address"
        }
      ],
      "stateMutability": "view",
      "type": "function",
      "constant": true
    },
    {
      "inputs": [],
      "name": "_symbol",
      "outputs": [
        {
          "internalType": "string",
          "name": "",
          "type": "string"
        }
      ],
      "stateMutability": "view",
      "type": "function",
      "constant": true
    },
    {
      "inputs": [
        {
          "internalType": "address",
          "name": "to",
          "type": "address"
        },
        {
          "internalType": "uint256",
          "name": "tokenId",
          "type": "uint256"
        }
      ],
      "name": "approve",
      "outputs": [],
      "stateMutability": "nonpayable",
      "type": "function"
    },
    {
      "inputs": [
        {
          "internalType": "address",
          "name": "owner",
          "type": "address"
        }
      ],
      "name": "balanceOf",
      "outputs": [
        {
          "internalType": "uint256",
          "name": "",
          "type": "uint256"
        }
      ],
      "stateMutability": "view",
      "type": "function",
      "constant": true
    },
    {
      "inputs": [],
      "name": "baseURI",
      "outputs": [
        {
          "internalType": "string",
          "name": "",
          "type": "string"
        }
      ],
      "stateMutability": "view",
      "type": "function",
      "constant": true
    },
    {
      "inputs": [
        {
          "internalType": "address",
          "name": "owner",
          "type": "address"
        },
        {
          "internalType": "uint256",
          "name": "tokenId",
          "type": "uint256"
        }
      ],
      "name": "burn",
      "outputs": [
        {
          "internalType": "bool",
          "name": "",
          "type": "bool"
        }
      ],
      "stateMutability": "nonpayable",
      "type": "function"
    },
    {
      "inputs": [
        {
          "internalType": "uint256",
          "name": "tokenId",
          "type": "uint256"
        }
      ],
      "name": "getApproved",
      "outputs": [
        {
          "internalType": "address",
          "name": "",
          "type": "address"
        }
      ],
      "stateMutability": "view",
      "type": "function",
      "constant": true
    },
    {
      "inputs": [
        {
          "internalType": "address",
          "name": "owner",
          "type": "address"
        },
        {
          "internalType": "address",
          "name": "operator",
          "type": "address"
        }
      ],
      "name": "isApprovedForAll",
      "outputs": [
        {
          "internalType": "bool",
          "name": "",
          "type": "bool"
        }
      ],
      "stateMutability": "view",
      "type": "function",
      "constant": true
    },
    {
      "inputs": [
        {
          "internalType": "address",
          "name": "to",
          "type": "address"
        },
        {
          "internalType": "uint256",
          "name": "tokenId",
          "type": "uint256"
        },
        {
          "internalType": "string",
          "name": "tokenURI",
          "type": "string"
        }
      ],
      "name": "mint",
      "outputs": [
        {
          "internalType": "bool",
          "name": "",
          "type": "bool"
        }
      ],
      "stateMutability": "nonpayable",
      "type": "function"
    },
    {
      "inputs": [],
      "name": "name",
      "outputs": [
        {
          "internalType": "string",
          "name": "",
          "type": "string"
        }
      ],
      "stateMutability": "view",
      "type": "function",
      "constant": true
    },
    {
      "inputs": [],
      "name": "oNonce",
      "outputs": [
        {
          "internalType": "uint256",
          "name": "",
          "type": "uint256"
        }
      ],
      "stateMutability": "view",
      "type": "function",
      "constant": true
    },
    {
      "inputs": [
        {
          "internalType": "uint256",
          "name": "tokenId",
          "type": "uint256"
        }
      ],
      "name": "ownerOf",
      "outputs": [
        {
          "internalType": "address",
          "name": "",
          "type": "address"
        }
      ],
      "stateMutability": "view",
      "type": "function",
      "constant": true
    },
    {
      "inputs": [
        {
          "internalType": "address",
          "name": "from",
          "type": "address"
        },
        {
          "internalType": "address",
          "name": "to",
          "type": "address"
        },
        {
          "internalType": "uint256",
          "name": "tokenId",
          "type": "uint256"
        }
      ],
      "name": "safeTransferFrom",
      "outputs": [],
      "stateMutability": "nonpayable",
      "type": "function"
    },
    {
      "inputs": [
        {
          "internalType": "address",
          "name": "from",
          "type": "address"
        },
        {
          "internalType": "address",
          "name": "to",
          "type": "address"
        },
        {
          "internalType": "uint256",
          "name": "tokenId",
          "type": "uint256"
        },
        {
          "internalType": "bytes",
          "name": "_data",
          "type": "bytes"
        }
      ],
      "name": "safeTransferFrom",
      "outputs": [],
      "stateMutability": "nonpayable",
      "type": "function"
    },
    {
      "inputs": [
        {
          "internalType": "address",
          "name": "operator",
          "type": "address"
        },
        {
          "internalType": "bool",
          "name": "approved",
          "type": "bool"
        }
      ],
      "name": "setApprovalForAll",
      "outputs": [],
      "stateMutability": "nonpayable",
      "type": "function"
    },
    {
      "inputs": [
        {
          "internalType": "address",
          "name": "controller",
          "type": "address"
        }
      ],
      "name": "setController",
      "outputs": [
        {
          "internalType": "bool",
          "name": "",
          "type": "bool"
        }
      ],
      "stateMutability": "nonpayable",
      "type": "function"
    },
    {
      "inputs": [
        {
          "internalType": "bytes4",
          "name": "interfaceId",
          "type": "bytes4"
        }
      ],
      "name": "supportsInterface",
      "outputs": [
        {
          "internalType": "bool",
          "name": "",
          "type": "bool"
        }
      ],
      "stateMutability": "view",
      "type": "function",
      "constant": true
    },
    {
      "inputs": [],
      "name": "symbol",
      "outputs": [
        {
          "internalType": "string",
          "name": "",
          "type": "string"
        }
      ],
      "stateMutability": "view",
      "type": "function",
      "constant": true
    },
    {
      "inputs": [
        {
          "internalType": "uint256",
          "name": "tokenId",
          "type": "uint256"
        }
      ],
      "name": "tokenURI",
      "outputs": [
        {
          "internalType": "string",
          "name": "",
          "type": "string"
        }
      ],
      "stateMutability": "view",
      "type": "function",
      "constant": true
    },
    {
      "inputs": [
        {
          "internalType": "address",
          "name": "from",
          "type": "address"
        },
        {
          "internalType": "address",
          "name": "to",
          "type": "address"
        },
        {
          "internalType": "uint256",
          "name": "tokenId",
          "type": "uint256"
        }
      ],
      "name": "transferFrom",
      "outputs": [],
      "stateMutability": "nonpayable",
      "type": "function"
    },
    {
      "inputs": [
        {
          "internalType": "uint256",
          "name": "_xis",
          "type": "uint256"
        },
        {
          "internalType": "address",
          "name": "_yak",
          "type": "address"
        },
        {
          "internalType": "uint256",
          "name": "_zed",
          "type": "uint256"
        },
        {
          "internalType": "address",
          "name": "_wax",
          "type": "address"
        },
        {
          "internalType": "uint256",
          "name": "_pow",
          "type": "uint256"
        },
        {
          "internalType": "address",
          "name": "_gem",
          "type": "address"
        }
      ],
      "name": "createSlate",
      "outputs": [
        {
          "internalType": "bool",
          "name": "success",
          "type": "bool"
        }
      ],
      "stateMutability": "nonpayable",
      "type": "function"
    },
    {
      "inputs": [
        {
          "internalType": "uint256",
          "name": "_tokenId",
          "type": "uint256"
        }
      ],
      "name": "exercise",
      "outputs": [
        {
          "internalType": "bool",
          "name": "",
          "type": "bool"
        }
      ],
      "stateMutability": "nonpayable",
      "type": "function"
    },
    {
      "inputs": [
        {
          "internalType": "uint256",
          "name": "_tokenId",
          "type": "uint256"
        }
      ],
      "name": "close",
      "outputs": [
        {
          "internalType": "bool",
          "name": "",
          "type": "bool"
        }
      ],
      "stateMutability": "nonpayable",
      "type": "function"
    },
    {
      "inputs": [
        {
          "internalType": "uint256",
          "name": "_amount",
          "type": "uint256"
        },
        {
          "internalType": "address",
          "name": "_addr",
          "type": "address"
        }
      ],
      "name": "withdraw",
      "outputs": [
        {
          "internalType": "bool",
          "name": "",
          "type": "bool"
        }
      ],
      "stateMutability": "nonpayable",
      "type": "function"
    },
    {
      "inputs": [
        {
          "internalType": "uint256",
          "name": "_tokenId",
          "type": "uint256"
        }
      ],
      "name": "getCollateralAmount",
      "outputs": [
        {
          "internalType": "uint256",
          "name": "",
          "type": "uint256"
        }
      ],
      "stateMutability": "view",
      "type": "function",
      "constant": true
    }
  ],
  "bytecode": "0x60806040526040518060400160405280600e81526020017f5072696d6520436f6e74726163740000000000000000000000000000000000008152506040518060400160405280600281526020017f5350000000000000000000000000000000000000000000000000000000000000815250620000886301ffc9a760e01b6200013360201b60201c565b620000a06380ac58cd60e01b6200013360201b60201c565b8160059080519060200190620000b89291906200023c565b508060069080519060200190620000d19291906200023c565b5033600860006101000a81548173ffffffffffffffffffffffffffffffffffffffff021916908373ffffffffffffffffffffffffffffffffffffffff1602179055506200012b635b5e139f60e01b6200013360201b60201c565b5050620002eb565b63ffffffff60e01b817bffffffffffffffffffffffffffffffffffffffffffffffffffffffff19161415620001d0576040517f08c379a000000000000000000000000000000000000000000000000000000000815260040180806020018281038252601c8152602001807f4552433136353a20696e76616c696420696e746572666163652069640000000081525060200191505060405180910390fd5b6001600080837bffffffffffffffffffffffffffffffffffffffffffffffffffffffff19167bffffffffffffffffffffffffffffffffffffffffffffffffffffffff1916815260200190815260200160002060006101000a81548160ff02191690831515021790555050565b828054600181600116156101000203166002900490600052602060002090601f016020900481019282601f106200027f57805160ff1916838001178555620002b0565b82800160010185558215620002b0579182015b82811115620002af57825182559160200191906001019062000292565b5b509050620002bf9190620002c3565b5090565b620002e891905b80821115620002e4576000816000905550600101620002ca565b5090565b90565b614aa880620002fb6000396000f3fe608060405234801561001057600080fd5b50600436106101e45760003560e01c806394a509dd1161010f578063bbfc229d116100a2578063d3fc986411610071578063d3fc986414610e42578063dd3f952614610f3f578063e985e9c514610f89578063f85b165b14611005576101e4565b8063bbfc229d14610c94578063bdc7c12b14610cd6578063c87b56dd14610d18578063d28d885214610dbf576101e4565b8063ae44148b116100de578063ae44148b14610aa8578063b07f0a4114610ac6578063b09f126614610b0c578063b88d4fde14610b8f576101e4565b806394a509dd1461091357806395d89b411461096f5780639dc29fac146109f2578063a22cb46514610a58576101e4565b8063244204da1161018757806370a082311161015657806370a0823114610722578063743976a01461077a57806377d11bf1146107fd57806392eefe9b146108b7576101e4565b8063244204da146104a757806342842e0e146105c35780636352211e146106315780636c0360eb1461069f576101e4565b8063081812fc116101c3578063081812fc14610337578063095ea7b3146103a55780630aebeb4e146103f357806323b872dd14610439576101e4565b8062f714ce146101e957806301ffc9a71461024f57806306fdde03146102b4575b600080fd5b610235600480360360408110156101ff57600080fd5b8101908080359060200190929190803573ffffffffffffffffffffffffffffffffffffffff1690602001909291905050506110fd565b604051808215151515815260200191505060405180910390f35b61029a6004803603602081101561026557600080fd5b8101908080357bffffffffffffffffffffffffffffffffffffffffffffffffffffffff191690602001909291905050506112c6565b604051808215151515815260200191505060405180910390f35b6102bc61132d565b6040518080602001828103825283818151815260200191508051906020019080838360005b838110156102fc5780820151818401526020810190506102e1565b50505050905090810190601f1680156103295780820380516001836020036101000a031916815260200191505b509250505060405180910390f35b6103636004803603602081101561034d57600080fd5b81019080803590602001909291905050506113cf565b604051808273ffffffffffffffffffffffffffffffffffffffff1673ffffffffffffffffffffffffffffffffffffffff16815260200191505060405180910390f35b6103f1600480360360408110156103bb57600080fd5b81019080803573ffffffffffffffffffffffffffffffffffffffff1690602001909291908035906020019092919050505061146a565b005b61041f6004803603602081101561040957600080fd5b81019080803590602001909291905050506115ae565b604051808215151515815260200191505060405180910390f35b6104a56004803603606081101561044f57600080fd5b81019080803573ffffffffffffffffffffffffffffffffffffffff169060200190929190803573ffffffffffffffffffffffffffffffffffffffff16906020019092919080359060200190929190505050611b9c565b005b6104d3600480360360208110156104bd57600080fd5b8101908080359060200190929190505050611c12565b604051808873ffffffffffffffffffffffffffffffffffffffff1673ffffffffffffffffffffffffffffffffffffffff1681526020018781526020018673ffffffffffffffffffffffffffffffffffffffff1673ffffffffffffffffffffffffffffffffffffffff1681526020018581526020018473ffffffffffffffffffffffffffffffffffffffff1673ffffffffffffffffffffffffffffffffffffffff1681526020018381526020018273ffffffffffffffffffffffffffffffffffffffff1673ffffffffffffffffffffffffffffffffffffffff16815260200197505050505050505060405180910390f35b61062f600480360360608110156105d957600080fd5b81019080803573ffffffffffffffffffffffffffffffffffffffff169060200190929190803573ffffffffffffffffffffffffffffffffffffffff16906020019092919080359060200190929190505050611cd4565b005b61065d6004803603602081101561064757600080fd5b8101908080359060200190929190505050611cf4565b604051808273ffffffffffffffffffffffffffffffffffffffff1673ffffffffffffffffffffffffffffffffffffffff16815260200191505060405180910390f35b6106a7611dbc565b6040518080602001828103825283818151815260200191508051906020019080838360005b838110156106e75780820151818401526020810190506106cc565b50505050905090810190601f1680156107145780820380516001836020036101000a031916815260200191505b509250505060405180910390f35b6107646004803603602081101561073857600080fd5b81019080803573ffffffffffffffffffffffffffffffffffffffff169060200190929190505050611e5e565b6040518082815260200191505060405180910390f35b610782611f33565b6040518080602001828103825283818151815260200191508051906020019080838360005b838110156107c25780820151818401526020810190506107a7565b50505050905090810190601f1680156107ef5780820380516001836020036101000a031916815260200191505b509250505060405180910390f35b61089d600480360360c081101561081357600080fd5b8101908080359060200190929190803573ffffffffffffffffffffffffffffffffffffffff16906020019092919080359060200190929190803573ffffffffffffffffffffffffffffffffffffffff16906020019092919080359060200190929190803573ffffffffffffffffffffffffffffffffffffffff169060200190929190505050611fd1565b604051808215151515815260200191505060405180910390f35b6108f9600480360360208110156108cd57600080fd5b81019080803573ffffffffffffffffffffffffffffffffffffffff16906020019092919050505061250f565b604051808215151515815260200191505060405180910390f35b61091b61261e565b60405180827bffffffffffffffffffffffffffffffffffffffffffffffffffffffff19167bffffffffffffffffffffffffffffffffffffffffffffffffffffffff1916815260200191505060405180910390f35b610977612629565b6040518080602001828103825283818151815260200191508051906020019080838360005b838110156109b757808201518184015260208101905061099c565b50505050905090810190601f1680156109e45780820380516001836020036101000a031916815260200191505b509250505060405180910390f35b610a3e60048036036040811015610a0857600080fd5b81019080803573ffffffffffffffffffffffffffffffffffffffff169060200190929190803590602001909291905050506126cb565b604051808215151515815260200191505060405180910390f35b610aa660048036036040811015610a6e57600080fd5b81019080803573ffffffffffffffffffffffffffffffffffffffff1690602001909291908035151590602001909291905050506126e1565b005b610ab0612899565b6040518082815260200191505060405180910390f35b610af260048036036020811015610adc57600080fd5b810190808035906020019092919050505061289f565b604051808215151515815260200191505060405180910390f35b610b146130a0565b6040518080602001828103825283818151815260200191508051906020019080838360005b83811015610b54578082015181840152602081019050610b39565b50505050905090810190601f168015610b815780820380516001836020036101000a031916815260200191505b509250505060405180910390f35b610c9260048036036080811015610ba557600080fd5b81019080803573ffffffffffffffffffffffffffffffffffffffff169060200190929190803573ffffffffffffffffffffffffffffffffffffffff1690602001909291908035906020019092919080359060200190640100000000811115610c0c57600080fd5b820183602082011115610c1e57600080fd5b80359060200191846001830284011164010000000083111715610c4057600080fd5b91908080601f016020809104026020016040519081016040528093929190818152602001838380828437600081840152601f19601f82011690508083019250505050505050919291929050505061313e565b005b610cc060048036036020811015610caa57600080fd5b81019080803590602001909291905050506131b6565b6040518082815260200191505060405180910390f35b610d0260048036036020811015610cec57600080fd5b81019080803590602001909291905050506131ce565b6040518082815260200191505060405180910390f35b610d4460048036036020811015610d2e57600080fd5b81019080803590602001909291905050506131eb565b6040518080602001828103825283818151815260200191508051906020019080838360005b83811015610d84578082015181840152602081019050610d69565b50505050905090810190601f168015610db15780820380516001836020036101000a031916815260200191505b509250505060405180910390f35b610dc76133ed565b6040518080602001828103825283818151815260200191508051906020019080838360005b83811015610e07578082015181840152602081019050610dec565b50505050905090810190601f168015610e345780820380516001836020036101000a031916815260200191505b509250505060405180910390f35b610f2560048036036060811015610e5857600080fd5b81019080803573ffffffffffffffffffffffffffffffffffffffff1690602001909291908035906020019092919080359060200190640100000000811115610e9f57600080fd5b820183602082011115610eb157600080fd5b80359060200191846001830284011164010000000083111715610ed357600080fd5b91908080601f016020809104026020016040519081016040528093929190818152602001838380828437600081840152601f19601f82011690508083019250505050505050919291929050505061348b565b604051808215151515815260200191505060405180910390f35b610f4761356f565b604051808273ffffffffffffffffffffffffffffffffffffffff1673ffffffffffffffffffffffffffffffffffffffff16815260200191505060405180910390f35b610feb60048036036040811015610f9f57600080fd5b81019080803573ffffffffffffffffffffffffffffffffffffffff169060200190929190803573ffffffffffffffffffffffffffffffffffffffff169060200190929190505050613595565b604051808215151515815260200191505060405180910390f35b61100d613629565b604051808873ffffffffffffffffffffffffffffffffffffffff1673ffffffffffffffffffffffffffffffffffffffff1681526020018781526020018673ffffffffffffffffffffffffffffffffffffffff1673ffffffffffffffffffffffffffffffffffffffff1681526020018581526020018473ffffffffffffffffffffffffffffffffffffffff1673ffffffffffffffffffffffffffffffffffffffff1681526020018381526020018273ffffffffffffffffffffffffffffffffffffffff1673ffffffffffffffffffffffffffffffffffffffff16815260200197505050505050505060405180910390f35b600080601460003373ffffffffffffffffffffffffffffffffffffffff1673ffffffffffffffffffffffffffffffffffffffff16815260200190815260200160002060008473ffffffffffffffffffffffffffffffffffffffff1673ffffffffffffffffffffffffffffffffffffffff168152602001908152602001600020549050838110156111f5576040517f08c379a000000000000000000000000000000000000000000000000000000000815260040180806020018281038252601c8152602001807f43616e6e6f7420776974686472617720616d6f756e74203e2062616c0000000081525060200191505060405180910390fd5b60008390508073ffffffffffffffffffffffffffffffffffffffff1663a9059cbb33876040518363ffffffff1660e01b8152600401808373ffffffffffffffffffffffffffffffffffffffff1673ffffffffffffffffffffffffffffffffffffffff16815260200182815260200192505050602060405180830381600087803b15801561128157600080fd5b505af1158015611295573d6000803e3d6000fd5b505050506040513d60208110156112ab57600080fd5b81019080805190602001909291905050509250505092915050565b6000806000837bffffffffffffffffffffffffffffffffffffffffffffffffffffffff19167bffffffffffffffffffffffffffffffffffffffffffffffffffffffff1916815260200190815260200160002060009054906101000a900460ff169050919050565b606060058054600181600116156101000203166002900480601f0160208091040260200160405190810160405280929190818152602001828054600181600116156101000203166002900480156113c55780601f1061139a576101008083540402835291602001916113c5565b820191906000526020600020905b8154815290600101906020018083116113a857829003601f168201915b5050505050905090565b60006113da826136d9565b61142f576040517f08c379a000000000000000000000000000000000000000000000000000000000815260040180806020018281038252602c81526020018061494c602c913960400191505060405180910390fd5b6002600083815260200190815260200160002060009054906101000a900473ffffffffffffffffffffffffffffffffffffffff169050919050565b600061147582611cf4565b90508073ffffffffffffffffffffffffffffffffffffffff168373ffffffffffffffffffffffffffffffffffffffff1614156114fc576040517f08c379a00000000000000000000000000000000000000000000000000000000081526004018080602001828103825260218152602001806149fc6021913960400191505060405180910390fd5b8073ffffffffffffffffffffffffffffffffffffffff1661151b61374b565b73ffffffffffffffffffffffffffffffffffffffff16148061154a57506115498161154461374b565b613595565b5b61159f576040517f08c379a00000000000000000000000000000000000000000000000000000000081526004018080602001828103825260388152602001806148c16038913960400191505060405180910390fd5b6115a98383613753565b505050565b6000806115ba33611e5e565b90506001811015611633576040517f08c379a00000000000000000000000000000000000000000000000000000000081526004018080602001828103825260188152602001807f43616e6e6f742073656e6420616d6f756e74203e2062616c000000000000000081525060200191505060405180910390fd5b600061163e84611cf4565b90503373ffffffffffffffffffffffffffffffffffffffff168173ffffffffffffffffffffffffffffffffffffffff16146116e1576040517f08c379a00000000000000000000000000000000000000000000000000000000081526004018080602001828103825260138152602001807f4f776e6572206973206e6f742073656e6465720000000000000000000000000081525060200191505060405180910390fd5b60006012600086815260200190815260200160002060000160009054906101000a900473ffffffffffffffffffffffffffffffffffffffff16905060006012600087815260200190815260200160002060010154905060006012600088815260200190815260200160002060020160009054906101000a900473ffffffffffffffffffffffffffffffffffffffff1690506000601260008981526020019081526020016000206005015490506000601260008a815260200190815260200160002060020160009054906101000a900473ffffffffffffffffffffffffffffffffffffffff1690508473ffffffffffffffffffffffffffffffffffffffff163373ffffffffffffffffffffffffffffffffffffffff1614611869576040517f08c379a00000000000000000000000000000000000000000000000000000000081526004018080602001828103825260198152602001807f55736572206973206e6f7420536c6174652063726561746f720000000000000081525060200191505060405180910390fd5b6000601460003373ffffffffffffffffffffffffffffffffffffffff1673ffffffffffffffffffffffffffffffffffffffff16815260200190815260200160002060008573ffffffffffffffffffffffffffffffffffffffff1673ffffffffffffffffffffffffffffffffffffffff168152602001908152602001600020541161195b576040517f08c379a000000000000000000000000000000000000000000000000000000000815260040180806020018281038252601f8152602001807f5573657220686173206e6f20636f6c6c61746572616c20746f20636c61696d0081525060200191505060405180910390fd5b428210156119d1576040517f08c379a000000000000000000000000000000000000000000000000000000000815260040180806020018281038252600d8152602001807f4578706972656420536c6174650000000000000000000000000000000000000081525060200191505060405180910390fd5b6000601460003373ffffffffffffffffffffffffffffffffffffffff1673ffffffffffffffffffffffffffffffffffffffff16815260200190815260200160002060008573ffffffffffffffffffffffffffffffffffffffff1673ffffffffffffffffffffffffffffffffffffffff16815260200190815260200160002081905550888373ffffffffffffffffffffffffffffffffffffffff163373ffffffffffffffffffffffffffffffffffffffff167fb149470201600d81e1698a9d001d20f8d2a036d2c0f425436b65a154e95eb53a8742604051808381526020018281526020019250505060405180910390a4611acb338a6126cb565b508073ffffffffffffffffffffffffffffffffffffffff1663a9059cbb33866040518363ffffffff1660e01b8152600401808373ffffffffffffffffffffffffffffffffffffffff1673ffffffffffffffffffffffffffffffffffffffff16815260200182815260200192505050602060405180830381600087803b158015611b5357600080fd5b505af1158015611b67573d6000803e3d6000fd5b505050506040513d6020811015611b7d57600080fd5b8101908080519060200190929190505050975050505050505050919050565b611bad611ba761374b565b8261380c565b611c02576040517f08c379a0000000000000000000000000000000000000000000000000000000008152600401808060200182810382526031815260200180614a1d6031913960400191505060405180910390fd5b611c0d838383613900565b505050565b60126020528060005260406000206000915090508060000160009054906101000a900473ffffffffffffffffffffffffffffffffffffffff16908060010154908060020160009054906101000a900473ffffffffffffffffffffffffffffffffffffffff16908060030154908060040160009054906101000a900473ffffffffffffffffffffffffffffffffffffffff16908060050154908060060160009054906101000a900473ffffffffffffffffffffffffffffffffffffffff16905087565b611cef8383836040518060200160405280600081525061313e565b505050565b6000806001600084815260200190815260200160002060009054906101000a900473ffffffffffffffffffffffffffffffffffffffff169050600073ffffffffffffffffffffffffffffffffffffffff168173ffffffffffffffffffffffffffffffffffffffff161415611db3576040517f08c379a00000000000000000000000000000000000000000000000000000000081526004018080602001828103825260298152602001806149236029913960400191505060405180910390fd5b80915050919050565b606060078054600181600116156101000203166002900480601f016020809104026020016040519081016040528092919081815260200182805460018160011615610100020316600290048015611e545780601f10611e2957610100808354040283529160200191611e54565b820191906000526020600020905b815481529060010190602001808311611e3757829003601f168201915b5050505050905090565b60008073ffffffffffffffffffffffffffffffffffffffff168273ffffffffffffffffffffffffffffffffffffffff161415611ee5576040517f08c379a000000000000000000000000000000000000000000000000000000000815260040180806020018281038252602a8152602001806148f9602a913960400191505060405180910390fd5b611f2c600360008473ffffffffffffffffffffffffffffffffffffffff1673ffffffffffffffffffffffffffffffffffffffff168152602001908152602001600020613b68565b9050919050565b60078054600181600116156101000203166002900480601f016020809104026020016040519081016040528092919081815260200182805460018160011615610100020316600290048015611fc95780601f10611f9e57610100808354040283529160200191611fc9565b820191906000526020600020905b815481529060010190602001808311611fac57829003601f168201915b505050505081565b60008086905060008173ffffffffffffffffffffffffffffffffffffffff166370a08231336040518263ffffffff1660e01b8152600401808273ffffffffffffffffffffffffffffffffffffffff1673ffffffffffffffffffffffffffffffffffffffff168152602001915050602060405180830381600087803b15801561205857600080fd5b505af115801561206c573d6000803e3d6000fd5b505050506040513d602081101561208257600080fd5b810190808051906020019092919050505090508881101561210b576040517f08c379a00000000000000000000000000000000000000000000000000000000081526004018080602001828103825260188152602001807f43616e6e6f742073656e6420616d6f756e74203e2062616c000000000000000081525060200191505060405180910390fd5b612113613b76565b506040518060e001604052803373ffffffffffffffffffffffffffffffffffffffff1681526020018a81526020018973ffffffffffffffffffffffffffffffffffffffff1681526020018881526020018773ffffffffffffffffffffffffffffffffffffffff1681526020018681526020018573ffffffffffffffffffffffffffffffffffffffff1681525060126000601154815260200190815260200160002060008201518160000160006101000a81548173ffffffffffffffffffffffffffffffffffffffff021916908373ffffffffffffffffffffffffffffffffffffffff1602179055506020820151816001015560408201518160020160006101000a81548173ffffffffffffffffffffffffffffffffffffffff021916908373ffffffffffffffffffffffffffffffffffffffff1602179055506060820151816003015560808201518160040160006101000a81548173ffffffffffffffffffffffffffffffffffffffff021916908373ffffffffffffffffffffffffffffffffffffffff16021790555060a0820151816005015560c08201518160060160006101000a81548173ffffffffffffffffffffffffffffffffffffffff021916908373ffffffffffffffffffffffffffffffffffffffff1602179055509050506122fd89601154613bd6565b88601460003373ffffffffffffffffffffffffffffffffffffffff1673ffffffffffffffffffffffffffffffffffffffff16815260200190815260200160002060008a73ffffffffffffffffffffffffffffffffffffffff1673ffffffffffffffffffffffffffffffffffffffff168152602001908152602001600020819055506011548873ffffffffffffffffffffffffffffffffffffffff163373ffffffffffffffffffffffffffffffffffffffff167f848240abb43c0203cdc110ab1e2262101759039113cdb81b7f23b08d90dd5c0d8c42604051808381526020018281526020019250505060405180910390a461240a336011546040518060200160405280600081525061348b565b508173ffffffffffffffffffffffffffffffffffffffff166323b872dd33308c6040518463ffffffff1660e01b8152600401808473ffffffffffffffffffffffffffffffffffffffff1673ffffffffffffffffffffffffffffffffffffffff1681526020018373ffffffffffffffffffffffffffffffffffffffff1673ffffffffffffffffffffffffffffffffffffffff1681526020018281526020019350505050602060405180830381600087803b1580156124c657600080fd5b505af11580156124da573d6000803e3d6000fd5b505050506040513d60208110156124f057600080fd5b8101908080519060200190929190505050925050509695505050505050565b60003373ffffffffffffffffffffffffffffffffffffffff16600860009054906101000a900473ffffffffffffffffffffffffffffffffffffffff1673ffffffffffffffffffffffffffffffffffffffff16146125d4576040517f08c379a00000000000000000000000000000000000000000000000000000000081526004018080602001828103825260158152602001807f53656e646572206e6f7420636f6e74726f6c6c6572000000000000000000000081525060200191505060405180910390fd5b81600860006101000a81548173ffffffffffffffffffffffffffffffffffffffff021916908373ffffffffffffffffffffffffffffffffffffffff16021790555060019050919050565b635b5e139f60e01b81565b606060068054600181600116156101000203166002900480601f0160208091040260200160405190810160405280929190818152602001828054600181600116156101000203166002900480156126c15780601f10612696576101008083540402835291602001916126c1565b820191906000526020600020905b8154815290600101906020018083116126a457829003601f168201915b5050505050905090565b60006126d78383613c32565b6001905092915050565b6126e961374b565b73ffffffffffffffffffffffffffffffffffffffff168273ffffffffffffffffffffffffffffffffffffffff16141561278a576040517f08c379a00000000000000000000000000000000000000000000000000000000081526004018080602001828103825260198152602001807f4552433732313a20617070726f766520746f2063616c6c65720000000000000081525060200191505060405180910390fd5b806004600061279761374b565b73ffffffffffffffffffffffffffffffffffffffff1673ffffffffffffffffffffffffffffffffffffffff16815260200190815260200160002060008473ffffffffffffffffffffffffffffffffffffffff1673ffffffffffffffffffffffffffffffffffffffff16815260200190815260200160002060006101000a81548160ff0219169083151502179055508173ffffffffffffffffffffffffffffffffffffffff1661284461374b565b73ffffffffffffffffffffffffffffffffffffffff167f17307eab39ab6107e8899845ad3d59bd9653f200f220920489ca2b5937696c3183604051808215151515815260200191505060405180910390a35050565b60115481565b6000806128ab33611e5e565b90506001811015612924576040517f08c379a00000000000000000000000000000000000000000000000000000000081526004018080602001828103825260188152602001807f43616e6e6f742073656e6420616d6f756e74203e2062616c000000000000000081525060200191505060405180910390fd5b600061292f84611cf4565b90503373ffffffffffffffffffffffffffffffffffffffff168173ffffffffffffffffffffffffffffffffffffffff16146129d2576040517f08c379a00000000000000000000000000000000000000000000000000000000081526004018080602001828103825260138152602001807f4f776e6572206973206e6f742073656e6465720000000000000000000000000081525060200191505060405180910390fd5b60006012600086815260200190815260200160002060000160009054906101000a900473ffffffffffffffffffffffffffffffffffffffff16905060006012600087815260200190815260200160002060010154905060006012600088815260200190815260200160002060020160009054906101000a900473ffffffffffffffffffffffffffffffffffffffff1690506000601260008981526020019081526020016000206003015490506000601260008a815260200190815260200160002060040160009054906101000a900473ffffffffffffffffffffffffffffffffffffffff1690506000601260008b81526020019081526020016000206005015490506000601260008c815260200190815260200160002060060160009054906101000a900473ffffffffffffffffffffffffffffffffffffffff1690506000601260008d815260200190815260200160002060020160009054906101000a900473ffffffffffffffffffffffffffffffffffffffff1690506000601260008e815260200190815260200160002060040160009054906101000a900473ffffffffffffffffffffffffffffffffffffffff169050858173ffffffffffffffffffffffffffffffffffffffff166370a08231336040518263ffffffff1660e01b8152600401808273ffffffffffffffffffffffffffffffffffffffff1673ffffffffffffffffffffffffffffffffffffffff168152602001915050602060405180830381600087803b158015612c0557600080fd5b505af1158015612c19573d6000803e3d6000fd5b505050506040513d6020811015612c2f57600080fd5b81019080805190602001909291905050501015612cb4576040517f08c379a00000000000000000000000000000000000000000000000000000000081526004018080602001828103825260148152602001807f42616c203c207061796d656e7420616d6f756e7400000000000000000000000081525060200191505060405180910390fd5b42841015612d2a576040517f08c379a000000000000000000000000000000000000000000000000000000000815260040180806020018281038252600d8152602001807f4578706972656420536c6174650000000000000000000000000000000000000081525060200191505060405180910390fd5b8073ffffffffffffffffffffffffffffffffffffffff166323b872dd3330896040518463ffffffff1660e01b8152600401808473ffffffffffffffffffffffffffffffffffffffff1673ffffffffffffffffffffffffffffffffffffffff1681526020018373ffffffffffffffffffffffffffffffffffffffff1673ffffffffffffffffffffffffffffffffffffffff1681526020018281526020019350505050602060405180830381600087803b158015612de557600080fd5b505af1158015612df9573d6000803e3d6000fd5b505050506040513d6020811015612e0f57600080fd5b8101908080519060200190929190505050612e92576040517f08c379a00000000000000000000000000000000000000000000000000000000081526004018080602001828103825260178152602001807f5061796d656e74206e6f74207472616e7366657272656400000000000000000081525060200191505060405180910390fd5b6000601460008b73ffffffffffffffffffffffffffffffffffffffff1673ffffffffffffffffffffffffffffffffffffffff16815260200190815260200160002060008973ffffffffffffffffffffffffffffffffffffffff1673ffffffffffffffffffffffffffffffffffffffff1681526020019081526020016000208190555085601460008573ffffffffffffffffffffffffffffffffffffffff1673ffffffffffffffffffffffffffffffffffffffff16815260200190815260200160002060008773ffffffffffffffffffffffffffffffffffffffff1673ffffffffffffffffffffffffffffffffffffffff1681526020019081526020016000208190555087601460003373ffffffffffffffffffffffffffffffffffffffff1673ffffffffffffffffffffffffffffffffffffffff16815260200190815260200160002060008973ffffffffffffffffffffffffffffffffffffffff1673ffffffffffffffffffffffffffffffffffffffff168152602001908152602001600020819055508c8573ffffffffffffffffffffffffffffffffffffffff163373ffffffffffffffffffffffffffffffffffffffff167f978c10a90e4af47c2ea0f8cb52a4cf148a570253eabcde033cb163c6352c425c8942604051808381526020018281526020019250505060405180910390a461308e338e6126cb565b9b505050505050505050505050919050565b60068054600181600116156101000203166002900480601f0160208091040260200160405190810160405280929190818152602001828054600181600116156101000203166002900480156131365780601f1061310b57610100808354040283529160200191613136565b820191906000526020600020905b81548152906001019060200180831161311957829003601f168201915b505050505081565b61314f61314961374b565b8361380c565b6131a4576040517f08c379a0000000000000000000000000000000000000000000000000000000008152600401808060200182810382526031815260200180614a1d6031913960400191505060405180910390fd5b6131b084848484613dcf565b50505050565b60136020528060005260406000206000915090505481565b600060136000838152602001908152602001600020549050919050565b60606131f6826136d9565b61324b576040517f08c379a000000000000000000000000000000000000000000000000000000000815260040180806020018281038252602f8152602001806149cd602f913960400191505060405180910390fd5b6060600960008481526020019081526020016000208054600181600116156101000203166002900480601f0160208091040260200160405190810160405280929190818152602001828054600181600116156101000203166002900480156132f45780601f106132c9576101008083540402835291602001916132f4565b820191906000526020600020905b8154815290600101906020018083116132d757829003601f168201915b5050505050905060008151141561331d57604051806020016040528060008152509150506133e8565b600781604051602001808380546001816001161561010002031660029004801561337e5780601f1061335c57610100808354040283529182019161337e565b820191906000526020600020905b81548152906001019060200180831161336a575b505082805190602001908083835b602083106133af578051825260208201915060208101905060208303925061338c565b6001836020036101000a038019825116818451168082178552505050505050905001925050506040516020818303038152906040529150505b919050565b60058054600181600116156101000203166002900480601f0160208091040260200160405190810160405280929190818152602001828054600181600116156101000203166002900480156134835780601f1061345857610100808354040283529160200191613483565b820191906000526020600020905b81548152906001019060200180831161346657829003601f168201915b505050505081565b60003373ffffffffffffffffffffffffffffffffffffffff16600860009054906101000a900473ffffffffffffffffffffffffffffffffffffffff1673ffffffffffffffffffffffffffffffffffffffff1614613550576040517f08c379a00000000000000000000000000000000000000000000000000000000081526004018080602001828103825260158152602001807f53656e646572206e6f7420636f6e74726f6c6c6572000000000000000000000081525060200191505060405180910390fd5b61355a8383613e41565b6135648484613ecb565b600190509392505050565b600860009054906101000a900473ffffffffffffffffffffffffffffffffffffffff1681565b6000600460008473ffffffffffffffffffffffffffffffffffffffff1673ffffffffffffffffffffffffffffffffffffffff16815260200190815260200160002060008373ffffffffffffffffffffffffffffffffffffffff1673ffffffffffffffffffffffffffffffffffffffff16815260200190815260200160002060009054906101000a900460ff16905092915050565b600a8060000160009054906101000a900473ffffffffffffffffffffffffffffffffffffffff16908060010154908060020160009054906101000a900473ffffffffffffffffffffffffffffffffffffffff16908060030154908060040160009054906101000a900473ffffffffffffffffffffffffffffffffffffffff16908060050154908060060160009054906101000a900473ffffffffffffffffffffffffffffffffffffffff16905087565b6000806001600084815260200190815260200160002060009054906101000a900473ffffffffffffffffffffffffffffffffffffffff169050600073ffffffffffffffffffffffffffffffffffffffff168173ffffffffffffffffffffffffffffffffffffffff161415915050919050565b600033905090565b816002600083815260200190815260200160002060006101000a81548173ffffffffffffffffffffffffffffffffffffffff021916908373ffffffffffffffffffffffffffffffffffffffff160217905550808273ffffffffffffffffffffffffffffffffffffffff166137c683611cf4565b73ffffffffffffffffffffffffffffffffffffffff167f8c5be1e5ebec7d5bd14f71427d1e84f3dd0314c0f7b2291e5b200ac8c7c3b92560405160405180910390a45050565b6000613817826136d9565b61386c576040517f08c379a000000000000000000000000000000000000000000000000000000000815260040180806020018281038252602c815260200180614895602c913960400191505060405180910390fd5b600061387783611cf4565b90508073ffffffffffffffffffffffffffffffffffffffff168473ffffffffffffffffffffffffffffffffffffffff1614806138e657508373ffffffffffffffffffffffffffffffffffffffff166138ce846113cf565b73ffffffffffffffffffffffffffffffffffffffff16145b806138f757506138f68185613595565b5b91505092915050565b8273ffffffffffffffffffffffffffffffffffffffff1661392082611cf4565b73ffffffffffffffffffffffffffffffffffffffff161461398c576040517f08c379a00000000000000000000000000000000000000000000000000000000081526004018080602001828103825260298152602001806149a46029913960400191505060405180910390fd5b600073ffffffffffffffffffffffffffffffffffffffff168273ffffffffffffffffffffffffffffffffffffffff161415613a12576040517f08c379a00000000000000000000000000000000000000000000000000000000081526004018080602001828103825260248152602001806148716024913960400191505060405180910390fd5b613a1d838383613ee9565b613a28600082613753565b613a6f600360008573ffffffffffffffffffffffffffffffffffffffff1673ffffffffffffffffffffffffffffffffffffffff168152602001908152602001600020613f7e565b613ab6600360008473ffffffffffffffffffffffffffffffffffffffff1673ffffffffffffffffffffffffffffffffffffffff168152602001908152602001600020613fa1565b816001600083815260200190815260200160002060006101000a81548173ffffffffffffffffffffffffffffffffffffffff021916908373ffffffffffffffffffffffffffffffffffffffff160217905550808273ffffffffffffffffffffffffffffffffffffffff168473ffffffffffffffffffffffffffffffffffffffff167fddf252ad1be2c89b69c2b068fc378daa952ba7f163c4a11628f55a4df523b3ef60405160405180910390a4505050565b600081600001549050919050565b6000613b8e6001601154613fb790919063ffffffff16565b6011819055506011547fb4bcf9459f9699c004da7c6a098f3236af1438f08bd00f6dfbfec07828a19009426040518082815260200191505060405180910390a2601154905090565b816013600083815260200190815260200160002081905550807f5164b7fdb972944d0fc9099e48de8734c19110f665c6e528debe96666d913b178342604051808381526020018281526020019250505060405180910390a25050565b8173ffffffffffffffffffffffffffffffffffffffff16613c5282611cf4565b73ffffffffffffffffffffffffffffffffffffffff1614613cbe576040517f08c379a0000000000000000000000000000000000000000000000000000000008152600401808060200182810382526025815260200180614a4e6025913960400191505060405180910390fd5b613cca82600083613ee9565b613cd5600082613753565b613d1c600360008473ffffffffffffffffffffffffffffffffffffffff1673ffffffffffffffffffffffffffffffffffffffff168152602001908152602001600020613f7e565b60006001600083815260200190815260200160002060006101000a81548173ffffffffffffffffffffffffffffffffffffffff021916908373ffffffffffffffffffffffffffffffffffffffff16021790555080600073ffffffffffffffffffffffffffffffffffffffff168373ffffffffffffffffffffffffffffffffffffffff167fddf252ad1be2c89b69c2b068fc378daa952ba7f163c4a11628f55a4df523b3ef60405160405180910390a45050565b613dda848484613900565b613de68484848461403f565b613e3b576040517f08c379a000000000000000000000000000000000000000000000000000000000815260040180806020018281038252603281526020018061483f6032913960400191505060405180910390fd5b50505050565b613e4a826136d9565b613e9f576040517f08c379a000000000000000000000000000000000000000000000000000000000815260040180806020018281038252602c815260200180614978602c913960400191505060405180910390fd5b80600960008481526020019081526020016000209080519060200190613ec6929190614751565b505050565b613ee5828260405180602001604052806000815250614362565b5050565b613ef48383836143d3565b600073ffffffffffffffffffffffffffffffffffffffff168273ffffffffffffffffffffffffffffffffffffffff161415613f795760006009600083815260200190815260200160002080546001816001161561010002031660029004905014613f7857600960008281526020019081526020016000206000613f7791906147d1565b5b5b505050565b613f96600182600001546143d890919063ffffffff16565b816000018190555050565b6001816000016000828254019250508190555050565b600080828401905083811015614035576040517f08c379a000000000000000000000000000000000000000000000000000000000815260040180806020018281038252601b8152602001807f536166654d6174683a206164646974696f6e206f766572666c6f77000000000081525060200191505060405180910390fd5b8091505092915050565b60006140608473ffffffffffffffffffffffffffffffffffffffff16614422565b61406d576001905061435a565b600060608573ffffffffffffffffffffffffffffffffffffffff1663150b7a0260e01b61409861374b565b898888604051602401808573ffffffffffffffffffffffffffffffffffffffff1673ffffffffffffffffffffffffffffffffffffffff1681526020018473ffffffffffffffffffffffffffffffffffffffff1673ffffffffffffffffffffffffffffffffffffffff16815260200183815260200180602001828103825283818151815260200191508051906020019080838360005b8381101561414857808201518184015260208101905061412d565b50505050905090810190601f1680156141755780820380516001836020036101000a031916815260200191505b5095505050505050604051602081830303815290604052907bffffffffffffffffffffffffffffffffffffffffffffffffffffffff19166020820180517bffffffffffffffffffffffffffffffffffffffffffffffffffffffff83818316178352505050506040518082805190602001908083835b6020831061420d57805182526020820191506020810190506020830392506141ea565b6001836020036101000a0380198251168184511680821785525050505050509050019150506000604051808303816000865af19150503d806000811461426f576040519150601f19603f3d011682016040523d82523d6000602084013e614274565b606091505b5091509150816142e2576000815111156142915780518082602001fd5b6040517f08c379a000000000000000000000000000000000000000000000000000000000815260040180806020018281038252603281526020018061483f6032913960400191505060405180910390fd5b60008180602001905160208110156142f957600080fd5b8101908080519060200190929190505050905063150b7a0260e01b7bffffffffffffffffffffffffffffffffffffffffffffffffffffffff1916817bffffffffffffffffffffffffffffffffffffffffffffffffffffffff19161493505050505b949350505050565b61436c838361446d565b614379600084848461403f565b6143ce576040517f08c379a000000000000000000000000000000000000000000000000000000000815260040180806020018281038252603281526020018061483f6032913960400191505060405180910390fd5b505050565b505050565b600061441a83836040518060400160405280601e81526020017f536166654d6174683a207375627472616374696f6e206f766572666c6f770000815250614691565b905092915050565b60008060007fc5d2460186f7233c927e7db2dcc703c0e500b653ca82273b7bfad8045d85a47060001b9050833f915080821415801561446457506000801b8214155b92505050919050565b600073ffffffffffffffffffffffffffffffffffffffff168273ffffffffffffffffffffffffffffffffffffffff161415614510576040517f08c379a00000000000000000000000000000000000000000000000000000000081526004018080602001828103825260208152602001807f4552433732313a206d696e7420746f20746865207a65726f206164647265737381525060200191505060405180910390fd5b614519816136d9565b1561458c576040517f08c379a000000000000000000000000000000000000000000000000000000000815260040180806020018281038252601c8152602001807f4552433732313a20746f6b656e20616c7265616479206d696e7465640000000081525060200191505060405180910390fd5b61459860008383613ee9565b816001600083815260200190815260200160002060006101000a81548173ffffffffffffffffffffffffffffffffffffffff021916908373ffffffffffffffffffffffffffffffffffffffff160217905550614631600360008473ffffffffffffffffffffffffffffffffffffffff1673ffffffffffffffffffffffffffffffffffffffff168152602001908152602001600020613fa1565b808273ffffffffffffffffffffffffffffffffffffffff16600073ffffffffffffffffffffffffffffffffffffffff167fddf252ad1be2c89b69c2b068fc378daa952ba7f163c4a11628f55a4df523b3ef60405160405180910390a45050565b600083831115829061473e576040517f08c379a00000000000000000000000000000000000000000000000000000000081526004018080602001828103825283818151815260200191508051906020019080838360005b838110156147035780820151818401526020810190506146e8565b50505050905090810190601f1680156147305780820380516001836020036101000a031916815260200191505b509250505060405180910390fd5b5060008385039050809150509392505050565b828054600181600116156101000203166002900490600052602060002090601f016020900481019282601f1061479257805160ff19168380011785556147c0565b828001600101855582156147c0579182015b828111156147bf5782518255916020019190600101906147a4565b5b5090506147cd9190614819565b5090565b50805460018160011615610100020316600290046000825580601f106147f75750614816565b601f0160209004906000526020600020908101906148159190614819565b5b50565b61483b91905b8082111561483757600081600090555060010161481f565b5090565b9056fe4552433732313a207472616e7366657220746f206e6f6e20455243373231526563656976657220696d706c656d656e7465724552433732313a207472616e7366657220746f20746865207a65726f20616464726573734552433732313a206f70657261746f7220717565727920666f72206e6f6e6578697374656e7420746f6b656e4552433732313a20617070726f76652063616c6c6572206973206e6f74206f776e6572206e6f7220617070726f76656420666f7220616c6c4552433732313a2062616c616e636520717565727920666f7220746865207a65726f20616464726573734552433732313a206f776e657220717565727920666f72206e6f6e6578697374656e7420746f6b656e4552433732313a20617070726f76656420717565727920666f72206e6f6e6578697374656e7420746f6b656e4552433732314d657461646174613a2055524920736574206f66206e6f6e6578697374656e7420746f6b656e4552433732313a207472616e73666572206f6620746f6b656e2074686174206973206e6f74206f776e4552433732314d657461646174613a2055524920717565727920666f72206e6f6e6578697374656e7420746f6b656e4552433732313a20617070726f76616c20746f2063757272656e74206f776e65724552433732313a207472616e736665722063616c6c6572206973206e6f74206f776e6572206e6f7220617070726f7665644552433732313a206275726e206f6620746f6b656e2074686174206973206e6f74206f776ea2646970667358221220967495f8d1c4f25487af3bbf4216b881fe6c493e62459b1ca6acd094776789c064736f6c63430006020033",
  "source": "pragma solidity ^0.6.2;\r\n\r\n/**\r\n * @title Carbon's Prime Contract\r\n * @notice The core ERC721 contract that holds all Slates.\r\n * @author Carbon\r\n */\r\n\r\nimport \"./tokens/SafeMath.sol\";\r\nimport \"./Slate.sol\";\r\n\r\n\r\nabstract contract ERC20 {\r\n    function balanceOf(address _owner) virtual external returns(uint256);\r\n    function transferFrom(address sender, address recipient, uint256 amount) public virtual returns (bool);\r\n    function transfer(address recipient, uint256 amount) public virtual returns (bool);\r\n}\r\n\r\n// abstract contract Slate {\r\n//     function mint(address to, uint256 tokenId, string memory tokenURI) public virtual returns (bool);\r\n//     function burn(address owner, uint256 tokenId) public virtual returns (bool);\r\n//     function ownerOf(uint256 tokenId) public view virtual returns (address);\r\n//     function balanceOf(address owner) public view virtual returns (uint256);\r\n// }\r\n\r\nabstract contract IPrime {\r\n    /**\r\n    * @dev Emitted on new slate.\r\n    * @param _user Address of user.\r\n    * @param _asset Address if deposited asset.\r\n    * @param _amount Quantity of deposited asset.\r\n    * @param _tokenId Nonce of minted Slate -> ID.\r\n    * @param _timestamp Block.timestamp of deposit.\r\n    **/\r\n    event CreateSlate(\r\n        address indexed _user,\r\n        address indexed _asset, \r\n        uint256 _amount, \r\n        uint256 indexed _tokenId, \r\n        uint256 _timestamp\r\n    );\r\n\r\n    event Exercise(\r\n        address indexed _user, \r\n        address indexed _asset, \r\n        uint256 _amount, \r\n        uint256 indexed _tokenId, \r\n        uint256 _timestamp\r\n    );\r\n\r\n    event Close(\r\n        address indexed _user, \r\n        address indexed _asset, \r\n        uint256 _amount, \r\n        uint256 indexed _tokenId, \r\n        uint256 _timestamp\r\n    );\r\n\r\n    event CollateralUpdate(\r\n        uint256 _amount, \r\n        uint256 indexed _tokenId, \r\n        uint256 _timestamp\r\n    );\r\n\r\n    event SlateMinted(\r\n        uint256 indexed _tokenId, \r\n        uint256 _timestamp\r\n    );\r\n\r\n    //function initialize(address _ocall) public virtual returns (bool);\r\n    function createSlate(uint256 _xis, address _yak, uint256 _zed, address _wax, uint256 _pow, address _gem) public virtual returns (bool);\r\n    function exercise(uint256 _tokenId) public virtual returns (bool);\r\n    function withdraw(uint256 _amount, address _addr) public virtual returns (bool);\r\n    function close(uint256 _tokenId) public virtual returns (bool);\r\n    function getCollateralAmount(uint256 _tokenId) public view virtual returns (uint256);\r\n}\r\n\r\n\r\ncontract Prime is IPrime, Slate(\"Prime Contract\", \"SP\") {\r\n    using SafeMath for uint256;\r\n\r\n    /** \r\n     * @dev A slate is the defining traits of the NFT prime.\r\n     * @param ace `msg.sender` of the createSlate function.\r\n     * @param xis Quantity of collateral asset token.\r\n     * @param yak Address of collateral asset token.\r\n     * @param zed Purchase price of collateral, denominated in quantity of token z.\r\n     * @param wax Address of purchase price asset token.\r\n     * @param pow UNIX timestamp of valid time period.\r\n     * @param gem Address of payment receiver of token z.\r\n     */\r\n    struct Slates {\r\n        address ace;\r\n        uint256 xis;\r\n        address yak;\r\n        uint256 zed;\r\n        address wax;\r\n        uint256 pow;\r\n        address gem;\r\n    }\r\n\r\n    string constant URI = '';\r\n    uint256 constant INCREMENT = 1;\r\n    Slates public _slate;\r\n    uint256 public oNonce;\r\n    \r\n    mapping(uint256 => Slates) public _slates; // NFT ID -> Slate.\r\n    mapping(uint256 => uint256) public _collateral; // NFT ID -> collateral amount.\r\n    mapping(address => mapping(address => uint256)) private _bank; // Users -> asset -> withdrawable balance.\r\n\r\n    ///** \r\n    // * @dev `msg.sender` Sets the NFT and controller address.\r\n    // * @param slate Address of NFT contract.\r\n    // * @return success\r\n    // */\r\n    //function initialize(address slate) public override returns (bool) {\r\n    //    _slate = Slate(slate);\r\n    //    return true;\r\n    //}\r\n\r\n    /** \r\n     * @dev `msg.sender` Deposits asset x, mints new Slate.\r\n     * @param _xis Amount of collateral to deposit.\r\n     * @param _yak Address of collateral asset.\r\n     * @param _zed Amount of payment asset.\r\n     * @param _wax Payment asset address.\r\n     * @param _pow Expiry timestamp.\r\n     * @param _gem Receiver address.\r\n     * @return success\r\n     */\r\n    function createSlate(\r\n            uint256 _xis,\r\n            address _yak,\r\n            uint256 _zed,\r\n            address _wax,\r\n            uint256 _pow,\r\n            address _gem\r\n        ) public override returns (bool success) {\r\n        // CHECKS\r\n        ERC20 yak = ERC20(_yak);\r\n        uint256 bal = yak.balanceOf(msg.sender);\r\n        require(bal >= _xis, 'Cannot send amount > bal');\r\n\r\n        // EFFECTS\r\n        _incrementNonce();\r\n        _slates[oNonce] = Slates(msg.sender, _xis, _yak, _zed, _wax, _pow, _gem);\r\n        _updateCollateral(_xis, oNonce);\r\n        _bank[msg.sender][_yak] = _xis; // Depositor can withdraw collateral\r\n\r\n        // INTERACTIONS\r\n        emit CreateSlate(msg.sender, _yak, _xis, oNonce, block.timestamp);\r\n        mint(msg.sender, oNonce, URI);\r\n        return yak.transferFrom(msg.sender, address(this), _xis);\r\n    }\r\n\r\n    /** \r\n     * @dev `msg.sender` Exercises right to purchase collateral.\r\n     * @param _tokenId ID of Slate.\r\n     * @return success\r\n     */\r\n    function exercise(uint256 _tokenId) public override returns (bool) {\r\n        // CHECKS\r\n        uint256 bal = balanceOf(msg.sender);\r\n        require(bal >= 1, 'Cannot send amount > bal');\r\n\r\n        address own = ownerOf(_tokenId);\r\n        require(own == msg.sender, 'Owner is not sender');\r\n\r\n        address ace = _slates[_tokenId].ace;\r\n        uint256 xis = _slates[_tokenId].xis;\r\n        address yak = _slates[_tokenId].yak;\r\n        uint256 zed = _slates[_tokenId].zed;\r\n        address wax = _slates[_tokenId].wax;\r\n        uint256 pow = _slates[_tokenId].pow;\r\n        address gem = _slates[_tokenId].gem;\r\n        ERC20 _yak = ERC20(_slates[_tokenId].yak);\r\n        ERC20 _wax = ERC20(_slates[_tokenId].wax);\r\n\r\n        require(_wax.balanceOf(msg.sender) >= zed, 'Bal < payment amount');\r\n        require(pow >= block.timestamp, 'Expired Slate');\r\n\r\n        // EFFECTS\r\n        require(_wax.transferFrom(msg.sender, address(this), zed), 'Payment not transferred');\r\n        _bank[ace][yak] = 0; // Depositor cannot withdraw collateral x.\r\n        _bank[gem][wax] = zed; // Payment receiver can withdraw payment z.\r\n        _bank[msg.sender][yak] = xis; // Payer can withdraw collateral x.\r\n\r\n        // INTERACTIONS\r\n        emit Exercise(msg.sender, wax, zed, _tokenId, block.timestamp);\r\n        return burn(msg.sender, _tokenId);\r\n    }\r\n\r\n    /** \r\n     * @dev `msg.sender` Close Slate and withdraw collateral as Slate minter.\r\n     * @param _tokenId Slate NFT ID to close.\r\n     * @return success\r\n     */\r\n    function close(uint256 _tokenId) public override returns (bool) {\r\n        // CHECKS\r\n        uint256 bal = balanceOf(msg.sender);\r\n        require(bal >= 1, 'Cannot send amount > bal');\r\n\r\n        address own = ownerOf(_tokenId);\r\n        require(own == msg.sender, 'Owner is not sender');\r\n\r\n        address ace = _slates[_tokenId].ace;\r\n        uint256 xis = _slates[_tokenId].xis;\r\n        address yak = _slates[_tokenId].yak;\r\n        uint256 pow = _slates[_tokenId].pow;\r\n        ERC20 _yak = ERC20(_slates[_tokenId].yak);\r\n\r\n        require(msg.sender == ace, 'User is not Slate creator');\r\n        require(_bank[msg.sender][yak] > 0, 'User has no collateral to claim');\r\n        require(pow >= block.timestamp, 'Expired Slate');\r\n\r\n        // EFFECTS\r\n        _bank[msg.sender][yak] = 0;\r\n\r\n        // INTERACTIONS\r\n        emit Close(msg.sender, yak, xis, _tokenId, block.timestamp);\r\n        burn(msg.sender, _tokenId);\r\n        return _yak.transfer(msg.sender, xis);\r\n    }\r\n\r\n    /** \r\n     * @dev `msg.sender` Withdraw assets from contract.\r\n     * @param _amount Quantity to withdraw.\r\n     * @param _addr Address of asset.\r\n     * @return success\r\n     */\r\n    function withdraw(uint256 _amount, address _addr) public override returns (bool) {\r\n        // CHECKS\r\n        uint256 bank = _bank[msg.sender][_addr];\r\n        require(bank >= _amount, 'Cannot withdraw amount > bal');\r\n\r\n        // INTERACTIONS \r\n        ERC20 erc20 = ERC20(_addr);\r\n        return erc20.transfer(msg.sender, _amount);\r\n    }\r\n\r\n    /** \r\n     * @dev Utility to update [tokenId] = collateral mapping.\r\n     * @param _amount Quantity of Slate Collateral.\r\n     * @param _tokenId Nonce of Slate.\r\n     */\r\n    function _updateCollateral(uint256 _amount, uint256 _tokenId) internal {\r\n        _collateral[_tokenId] = _amount;\r\n        emit CollateralUpdate(_amount, _tokenId, block.timestamp);\r\n    }\r\n\r\n    /** \r\n     * @dev Utility to update tokenId Nonce.\r\n     * @return Nonce.\r\n     */\r\n    function _incrementNonce() internal returns (uint256) {\r\n        oNonce = oNonce.add(INCREMENT);\r\n        emit SlateMinted(oNonce, block.timestamp);\r\n        return oNonce;\r\n    }\r\n\r\n    /** \r\n     * @dev `msg.sender` Get Collateral tied to token ID.\r\n     * @param _tokenId Nonce of token.\r\n     * @return uint256 Collateral quantitiy.\r\n     */\r\n    function getCollateralAmount(uint256 _tokenId) public view override returns (uint256) {\r\n        return _collateral[_tokenId];\r\n    }\r\n}",
  "sourcePath": "C:\\Users\\alexa\\OneDrive\\Documents\\Master\\Blockchain\\Projects\\carbon\\contracts\\Prime.sol",
  "compiler": {
    "name": "solc",
    "version": "0.6.2+commit.bacdbe57.Emscripten.clang"
  },
  "schemaVersion": "3.0.23",
  "updatedAt": "2020-02-29T00:02:26.219Z",
  "networkType": "ethereum",
  "devdoc": {
    "methods": {
      "approve(address,uint256)": {
        "details": "Approves another address to transfer the given token ID The zero address indicates there is no approved address. There can only be one approved address per token at a given time. Can only be called by the token owner or an approved operator.",
        "params": {
          "to": "address to be approved for the given token ID",
          "tokenId": "uint256 ID of the token to be approved"
        }
      },
      "balanceOf(address)": {
        "details": "Gets the balance of the specified address.",
        "params": {
          "owner": "address to query the balance of"
        },
        "returns": {
          "_0": "uint256 representing the amount owned by the passed address"
        }
      },
      "baseURI()": {
        "details": "Returns the base URI set via {_setBaseURI}. This will be automatically added as a preffix in {tokenURI} to each token's URI, when they are non-empty.     * _Available since v2.5.0._"
      },
      "close(uint256)": {
        "details": "`msg.sender` Close Slate and withdraw collateral as Slate minter.",
        "params": {
          "_tokenId": "Slate NFT ID to close."
        },
        "returns": {
          "_0": "success"
        }
      },
      "createSlate(uint256,address,uint256,address,uint256,address)": {
        "details": "`msg.sender` Deposits asset x, mints new Slate.",
        "params": {
          "_gem": "Receiver address.",
          "_pow": "Expiry timestamp.",
          "_wax": "Payment asset address.",
          "_xis": "Amount of collateral to deposit.",
          "_yak": "Address of collateral asset.",
          "_zed": "Amount of payment asset."
        },
        "returns": {
          "success": "success"
        }
      },
      "exercise(uint256)": {
        "details": "`msg.sender` Exercises right to purchase collateral.",
        "params": {
          "_tokenId": "ID of Slate."
        },
        "returns": {
          "_0": "success"
        }
      },
      "getApproved(uint256)": {
        "details": "Gets the approved address for a token ID, or zero if no address set Reverts if the token ID does not exist.",
        "params": {
          "tokenId": "uint256 ID of the token to query the approval of"
        },
        "returns": {
          "_0": "address currently approved for the given token ID"
        }
      },
      "getCollateralAmount(uint256)": {
        "details": "`msg.sender` Get Collateral tied to token ID.",
        "params": {
          "_tokenId": "Nonce of token."
        },
        "returns": {
          "_0": "uint256 Collateral quantitiy."
        }
      },
      "isApprovedForAll(address,address)": {
        "details": "Tells whether an operator is approved by a given owner.",
        "params": {
          "operator": "operator address which you want to query the approval of",
          "owner": "owner address which you want to query the approval of"
        },
        "returns": {
          "_0": "bool whether the given operator is approved by the given owner"
        }
      },
      "name()": {
        "details": "Gets the token name.",
        "returns": {
          "_0": "string representing the token name"
        }
      },
      "ownerOf(uint256)": {
        "details": "Gets the owner of the specified token ID.",
        "params": {
          "tokenId": "uint256 ID of the token to query the owner of"
        },
        "returns": {
          "_0": "address currently marked as the owner of the given token ID"
        }
      },
      "safeTransferFrom(address,address,uint256)": {
        "details": "Safely transfers the ownership of a given token ID to another address If the target address is a contract, it must implement {IERC721Receiver-onERC721Received}, which is called upon a safe transfer, and return the magic value `bytes4(keccak256(\"onERC721Received(address,address,uint256,bytes)\"))`; otherwise, the transfer is reverted. Requires the msg.sender to be the owner, approved, or operator",
        "params": {
          "from": "current owner of the token",
          "to": "address to receive the ownership of the given token ID",
          "tokenId": "uint256 ID of the token to be transferred"
        }
      },
      "safeTransferFrom(address,address,uint256,bytes)": {
        "details": "Safely transfers the ownership of a given token ID to another address If the target address is a contract, it must implement {IERC721Receiver-onERC721Received}, which is called upon a safe transfer, and return the magic value `bytes4(keccak256(\"onERC721Received(address,address,uint256,bytes)\"))`; otherwise, the transfer is reverted. Requires the _msgSender() to be the owner, approved, or operator",
        "params": {
          "_data": "bytes data to send along with a safe transfer check",
          "from": "current owner of the token",
          "to": "address to receive the ownership of the given token ID",
          "tokenId": "uint256 ID of the token to be transferred"
        }
      },
      "setApprovalForAll(address,bool)": {
        "details": "Sets or unsets the approval of a given operator An operator is allowed to transfer all tokens of the sender on their behalf.",
        "params": {
          "approved": "representing the status of the approval to be set",
          "operator": "operator address to set the approval"
        }
      },
      "supportsInterface(bytes4)": {
        "details": "See {IERC165-supportsInterface}.      * Time complexity O(1), guaranteed to always use less than 30 000 gas."
      },
      "symbol()": {
        "details": "Gets the token symbol.",
        "returns": {
          "_0": "string representing the token symbol"
        }
      },
      "tokenURI(uint256)": {
        "details": "Returns the URI for a given token ID. May return an empty string.      * If the token's URI is non-empty and a base URI was set (via {_setBaseURI}), it will be added to the token ID's URI as a prefix.      * Reverts if the token ID does not exist."
      },
      "transferFrom(address,address,uint256)": {
        "details": "Transfers the ownership of a given token ID to another address. Usage of this method is discouraged, use {safeTransferFrom} whenever possible. Requires the msg.sender to be the owner, approved, or operator.",
        "params": {
          "from": "current owner of the token",
          "to": "address to receive the ownership of the given token ID",
          "tokenId": "uint256 ID of the token to be transferred"
        }
      },
      "withdraw(uint256,address)": {
        "details": "`msg.sender` Withdraw assets from contract.",
        "params": {
          "_addr": "Address of asset.",
          "_amount": "Quantity to withdraw."
        },
        "returns": {
          "_0": "success"
        }
      }
    }
  },
  "userdoc": {
    "methods": {}
  }
}