{
  "contractName": "PrimeTrader",
  "abi": [
    {
      "inputs": [
        {
          "internalType": "address payable",
          "name": "_weth",
          "type": "address"
        }
      ],
      "stateMutability": "nonpayable",
      "type": "constructor"
    },
    {
      "anonymous": false,
      "inputs": [
        {
          "indexed": true,
          "internalType": "address",
          "name": "from",
          "type": "address"
        },
        {
          "indexed": false,
          "internalType": "uint256",
          "name": "inTokenP",
          "type": "uint256"
        }
      ],
      "name": "Close",
      "type": "event"
    },
    {
      "anonymous": false,
      "inputs": [
        {
          "indexed": true,
          "internalType": "address",
          "name": "from",
          "type": "address"
        },
        {
          "indexed": false,
          "internalType": "uint256",
          "name": "outTokenP",
          "type": "uint256"
        },
        {
          "indexed": false,
          "internalType": "uint256",
          "name": "outTokenR",
          "type": "uint256"
        }
      ],
      "name": "Mint",
      "type": "event"
    },
    {
      "anonymous": false,
      "inputs": [
        {
          "indexed": true,
          "internalType": "address",
          "name": "from",
          "type": "address"
        },
        {
          "indexed": false,
          "internalType": "uint256",
          "name": "inTokenR",
          "type": "uint256"
        }
      ],
      "name": "Redeem",
      "type": "event"
    },
    {
      "anonymous": false,
      "inputs": [
        {
          "indexed": true,
          "internalType": "address",
          "name": "from",
          "type": "address"
        },
        {
          "indexed": false,
          "internalType": "uint256",
          "name": "outTokenU",
          "type": "uint256"
        },
        {
          "indexed": false,
          "internalType": "uint256",
          "name": "inTokenS",
          "type": "uint256"
        }
      ],
      "name": "Swap",
      "type": "event"
    },
    {
      "inputs": [],
      "name": "DENOMINATOR",
      "outputs": [
        {
          "internalType": "uint256",
          "name": "",
          "type": "uint256"
        }
      ],
      "stateMutability": "view",
      "type": "function"
    },
    {
      "inputs": [],
      "name": "weth",
      "outputs": [
        {
          "internalType": "address payable",
          "name": "",
          "type": "address"
        }
      ],
      "stateMutability": "view",
      "type": "function"
    },
    {
      "inputs": [
        {
          "internalType": "address",
          "name": "tokenP",
          "type": "address"
        },
        {
          "internalType": "uint256",
          "name": "amount",
          "type": "uint256"
        },
        {
          "internalType": "address",
          "name": "receiver",
          "type": "address"
        }
      ],
      "name": "safeMint",
      "outputs": [
        {
          "internalType": "uint256",
          "name": "inTokenU",
          "type": "uint256"
        },
        {
          "internalType": "uint256",
          "name": "outTokenR",
          "type": "uint256"
        }
      ],
      "stateMutability": "nonpayable",
      "type": "function"
    },
    {
      "inputs": [
        {
          "internalType": "address",
          "name": "tokenP",
          "type": "address"
        },
        {
          "internalType": "uint256",
          "name": "amount",
          "type": "uint256"
        },
        {
          "internalType": "address",
          "name": "receiver",
          "type": "address"
        }
      ],
      "name": "safeSwap",
      "outputs": [
        {
          "internalType": "uint256",
          "name": "inTokenS",
          "type": "uint256"
        },
        {
          "internalType": "uint256",
          "name": "inTokenP",
          "type": "uint256"
        },
        {
          "internalType": "uint256",
          "name": "outTokenU",
          "type": "uint256"
        }
      ],
      "stateMutability": "nonpayable",
      "type": "function"
    },
    {
      "inputs": [
        {
          "internalType": "address",
          "name": "tokenP",
          "type": "address"
        },
        {
          "internalType": "uint256",
          "name": "amount",
          "type": "uint256"
        },
        {
          "internalType": "address",
          "name": "receiver",
          "type": "address"
        }
      ],
      "name": "safeRedeem",
      "outputs": [
        {
          "internalType": "uint256",
          "name": "inTokenR",
          "type": "uint256"
        }
      ],
      "stateMutability": "nonpayable",
      "type": "function"
    },
    {
      "inputs": [
        {
          "internalType": "address",
          "name": "tokenP",
          "type": "address"
        },
        {
          "internalType": "uint256",
          "name": "amount",
          "type": "uint256"
        },
        {
          "internalType": "address",
          "name": "receiver",
          "type": "address"
        }
      ],
      "name": "safeClose",
      "outputs": [
        {
          "internalType": "uint256",
          "name": "inTokenR",
          "type": "uint256"
        },
        {
          "internalType": "uint256",
          "name": "inTokenP",
          "type": "uint256"
        },
        {
          "internalType": "uint256",
          "name": "outTokenU",
          "type": "uint256"
        }
      ],
      "stateMutability": "nonpayable",
      "type": "function"
    },
    {
      "inputs": [
        {
          "internalType": "address",
          "name": "tokenP",
          "type": "address"
        },
        {
          "internalType": "uint256",
          "name": "amount",
          "type": "uint256"
        },
        {
          "internalType": "address",
          "name": "receiver",
          "type": "address"
        }
      ],
      "name": "safeUnwind",
      "outputs": [
        {
          "internalType": "uint256",
          "name": "inTokenR",
          "type": "uint256"
        },
        {
          "internalType": "uint256",
          "name": "inTokenP",
          "type": "uint256"
        },
        {
          "internalType": "uint256",
          "name": "outTokenU",
          "type": "uint256"
        }
      ],
      "stateMutability": "nonpayable",
      "type": "function"
    }
  ],
  "bytecode": "0x608060405234801561001057600080fd5b50604051612c05380380612c058339818101604052602081101561003357600080fd5b810190808051906020019092919050505060016000806101000a81548160ff02191690831515021790555080600060016101000a81548173ffffffffffffffffffffffffffffffffffffffff021916908373ffffffffffffffffffffffffffffffffffffffff16021790555050612b56806100af6000396000f3fe608060405234801561001057600080fd5b506004361061007d5760003560e01c80633fc8cef31161005b5780633fc8cef31461022b578063918f867414610275578063a1d8778f14610293578063b8a6bb3b146103155761007d565b8063154fa0891461008257806320e469d6146101125780633f60b9bf1461019b575b600080fd5b6100ee6004803603606081101561009857600080fd5b81019080803573ffffffffffffffffffffffffffffffffffffffff16906020019092919080359060200190929190803573ffffffffffffffffffffffffffffffffffffffff1690602001909291905050506103a5565b60405180848152602001838152602001828152602001935050505060405180910390f35b61017e6004803603606081101561012857600080fd5b81019080803573ffffffffffffffffffffffffffffffffffffffff16906020019092919080359060200190929190803573ffffffffffffffffffffffffffffffffffffffff169060200190929190505050610b0d565b604051808381526020018281526020019250505060405180910390f35b610207600480360360608110156101b157600080fd5b81019080803573ffffffffffffffffffffffffffffffffffffffff16906020019092919080359060200190929190803573ffffffffffffffffffffffffffffffffffffffff169060200190929190505050611049565b60405180848152602001838152602001828152602001935050505060405180910390f35b6102336118bf565b604051808273ffffffffffffffffffffffffffffffffffffffff1673ffffffffffffffffffffffffffffffffffffffff16815260200191505060405180910390f35b61027d6118e5565b6040518082815260200191505060405180910390f35b6102ff600480360360608110156102a957600080fd5b81019080803573ffffffffffffffffffffffffffffffffffffffff16906020019092919080359060200190929190803573ffffffffffffffffffffffffffffffffffffffff1690602001909291905050506118f1565b6040518082815260200191505060405180910390f35b6103816004803603606081101561032b57600080fd5b81019080803573ffffffffffffffffffffffffffffffffffffffff16906020019092919080359060200190929190803573ffffffffffffffffffffffffffffffffffffffff169060200190929190505050611f91565b60405180848152602001838152602001828152602001935050505060405180910390f35b60008060008060009054906101000a900460ff1661042b576040517f08c379a000000000000000000000000000000000000000000000000000000000815260040180806020018281038252601f8152602001807f5265656e7472616e637947756172643a207265656e7472616e742063616c6c0081525060200191505060405180910390fd5b60008060006101000a81548160ff021916908315150217905550600085116104bb576040517f08c379a00000000000000000000000000000000000000000000000000000000081526004018080602001828103825260088152602001807f4552525f5a45524f00000000000000000000000000000000000000000000000081525060200191505060405180910390fd5b428673ffffffffffffffffffffffffffffffffffffffff1663e184c9be6040518163ffffffff1660e01b815260040160206040518083038186803b15801561050257600080fd5b505afa158015610516573d6000803e3d6000fd5b505050506040513d602081101561052c57600080fd5b8101908080519060200190929190505050106105b0576040517f08c379a000000000000000000000000000000000000000000000000000000000815260040180806020018281038252600f8152602001807f4552525f4e4f545f45585049524544000000000000000000000000000000000081525060200191505060405180910390fd5b60008673ffffffffffffffffffffffffffffffffffffffff166360f880356040518163ffffffff1660e01b815260040160206040518083038186803b1580156105f857600080fd5b505afa15801561060c573d6000803e3d6000fd5b505050506040513d602081101561062257600080fd5b8101908080519060200190929190505050905061075a8773ffffffffffffffffffffffffffffffffffffffff16635001f3b56040518163ffffffff1660e01b815260040160206040518083038186803b15801561067e57600080fd5b505afa158015610692573d6000803e3d6000fd5b505050506040513d60208110156106a857600080fd5b810190808051906020019092919050505061074c8973ffffffffffffffffffffffffffffffffffffffff1663a035b1fe6040518163ffffffff1660e01b815260040160206040518083038186803b15801561070257600080fd5b505afa158015610716573d6000803e3d6000fd5b505050506040513d602081101561072c57600080fd5b8101908080519060200190929190505050896127ff90919063ffffffff16565b61288590919063ffffffff16565b93506108538173ffffffffffffffffffffffffffffffffffffffff166370a08231336040518263ffffffff1660e01b8152600401808273ffffffffffffffffffffffffffffffffffffffff1673ffffffffffffffffffffffffffffffffffffffff16815260200191505060206040518083038186803b1580156107dc57600080fd5b505afa1580156107f0573d6000803e3d6000fd5b505050506040513d602081101561080657600080fd5b8101908080519060200190929190505050856040518060400160405280600e81526020017f4552525f42414c5f52454445454d0000000000000000000000000000000000008152506128cf565b60008173ffffffffffffffffffffffffffffffffffffffff166323b872dd338a886040518463ffffffff1660e01b8152600401808473ffffffffffffffffffffffffffffffffffffffff1673ffffffffffffffffffffffffffffffffffffffff1681526020018373ffffffffffffffffffffffffffffffffffffffff1673ffffffffffffffffffffffffffffffffffffffff1681526020018281526020019350505050602060405180830381600087803b15801561091057600080fd5b505af1158015610924573d6000803e3d6000fd5b505050506040513d602081101561093a57600080fd5b81019080805190602001909291905050509050806109c0576040517f08c379a00000000000000000000000000000000000000000000000000000000081526004018080602001828103825260148152602001807f4552525f5452414e534645525f494e5f4641494c00000000000000000000000081525060200191505060405180910390fd5b8773ffffffffffffffffffffffffffffffffffffffff1663c74073a1876040518263ffffffff1660e01b8152600401808273ffffffffffffffffffffffffffffffffffffffff1673ffffffffffffffffffffffffffffffffffffffff168152602001915050606060405180830381600087803b158015610a3f57600080fd5b505af1158015610a53573d6000803e3d6000fd5b505050506040513d6060811015610a6957600080fd5b810190808051906020019092919080519060200190929190805190602001909291905050508095508196508297505050503373ffffffffffffffffffffffffffffffffffffffff167f684222b0069d4a2e5e0d986611cc5182d543904c4e4264bf770d4e51faefc822856040518082815260200191505060405180910390a2505060016000806101000a81548160ff02191690831515021790555093509350939050565b6000806000809054906101000a900460ff16610b91576040517f08c379a000000000000000000000000000000000000000000000000000000000815260040180806020018281038252601f8152602001807f5265656e7472616e637947756172643a207265656e7472616e742063616c6c0081525060200191505060405180910390fd5b60008060006101000a81548160ff02191690831515021790555060008411610c21576040517f08c379a00000000000000000000000000000000000000000000000000000000081526004018080602001828103825260088152602001807f4552525f5a45524f00000000000000000000000000000000000000000000000081525060200191505060405180910390fd5b60008573ffffffffffffffffffffffffffffffffffffffff16634a244e546040518163ffffffff1660e01b815260040160206040518083038186803b158015610c6957600080fd5b505afa158015610c7d573d6000803e3d6000fd5b505050506040513d6020811015610c9357600080fd5b81019080805190602001909291905050509050610d9d8173ffffffffffffffffffffffffffffffffffffffff166370a08231336040518263ffffffff1660e01b8152600401808273ffffffffffffffffffffffffffffffffffffffff1673ffffffffffffffffffffffffffffffffffffffff16815260200191505060206040518083038186803b158015610d2657600080fd5b505afa158015610d3a573d6000803e3d6000fd5b505050506040513d6020811015610d5057600080fd5b8101908080519060200190929190505050866040518060400160405280601281526020017f4552525f42414c5f554e4445524c59494e4700000000000000000000000000008152506128cf565b8073ffffffffffffffffffffffffffffffffffffffff166323b872dd3388886040518463ffffffff1660e01b8152600401808473ffffffffffffffffffffffffffffffffffffffff1673ffffffffffffffffffffffffffffffffffffffff1681526020018373ffffffffffffffffffffffffffffffffffffffff1673ffffffffffffffffffffffffffffffffffffffff1681526020018281526020019350505050602060405180830381600087803b158015610e5857600080fd5b505af1158015610e6c573d6000803e3d6000fd5b505050506040513d6020811015610e8257600080fd5b8101908080519060200190929190505050610f05576040517f08c379a00000000000000000000000000000000000000000000000000000000081526004018080602001828103825260148152602001807f4552525f5452414e534645525f494e5f4641494c00000000000000000000000081525060200191505060405180910390fd5b8573ffffffffffffffffffffffffffffffffffffffff16636a627842856040518263ffffffff1660e01b8152600401808273ffffffffffffffffffffffffffffffffffffffff1673ffffffffffffffffffffffffffffffffffffffff1681526020019150506040805180830381600087803b158015610f8357600080fd5b505af1158015610f97573d6000803e3d6000fd5b505050506040513d6040811015610fad57600080fd5b81019080805190602001909291908051906020019092919050505080935081945050503373ffffffffffffffffffffffffffffffffffffffff167f4c209b5fc8ad50758f13e2e1088ba56a560dff690a1c6fef26394f4c03821c4f8484604051808381526020018281526020019250505060405180910390a25060016000806101000a81548160ff021916908315150217905550935093915050565b60008060008060009054906101000a900460ff166110cf576040517f08c379a000000000000000000000000000000000000000000000000000000000815260040180806020018281038252601f8152602001807f5265656e7472616e637947756172643a207265656e7472616e742063616c6c0081525060200191505060405180910390fd5b60008060006101000a81548160ff0219169083151502179055506000851161115f576040517f08c379a00000000000000000000000000000000000000000000000000000000081526004018080602001828103825260088152602001807f4552525f5a45524f00000000000000000000000000000000000000000000000081525060200191505060405180910390fd5b60008673ffffffffffffffffffffffffffffffffffffffff16630727d5d26040518163ffffffff1660e01b815260040160206040518083038186803b1580156111a757600080fd5b505afa1580156111bb573d6000803e3d6000fd5b505050506040513d60208110156111d157600080fd5b810190808051906020019092919050505090506112db8773ffffffffffffffffffffffffffffffffffffffff166370a08231336040518263ffffffff1660e01b8152600401808273ffffffffffffffffffffffffffffffffffffffff1673ffffffffffffffffffffffffffffffffffffffff16815260200191505060206040518083038186803b15801561126457600080fd5b505afa158015611278573d6000803e3d6000fd5b505050506040513d602081101561128e57600080fd5b8101908080519060200190929190505050876040518060400160405280600d81526020017f4552525f42414c5f5052494d45000000000000000000000000000000000000008152506128cf565b6114008773ffffffffffffffffffffffffffffffffffffffff16635001f3b56040518163ffffffff1660e01b815260040160206040518083038186803b15801561132457600080fd5b505afa158015611338573d6000803e3d6000fd5b505050506040513d602081101561134e57600080fd5b81019080805190602001909291905050506113f28973ffffffffffffffffffffffffffffffffffffffff1663a035b1fe6040518163ffffffff1660e01b815260040160206040518083038186803b1580156113a857600080fd5b505afa1580156113bc573d6000803e3d6000fd5b505050506040513d60208110156113d257600080fd5b8101908080519060200190929190505050896127ff90919063ffffffff16565b61288590919063ffffffff16565b93506114f98173ffffffffffffffffffffffffffffffffffffffff166370a08231336040518263ffffffff1660e01b8152600401808273ffffffffffffffffffffffffffffffffffffffff1673ffffffffffffffffffffffffffffffffffffffff16815260200191505060206040518083038186803b15801561148257600080fd5b505afa158015611496573d6000803e3d6000fd5b505050506040513d60208110156114ac57600080fd5b8101908080519060200190929190505050856040518060400160405280600e81526020017f4552525f42414c5f535452494b450000000000000000000000000000000000008152506128cf565b60008173ffffffffffffffffffffffffffffffffffffffff166323b872dd338a886040518463ffffffff1660e01b8152600401808473ffffffffffffffffffffffffffffffffffffffff1673ffffffffffffffffffffffffffffffffffffffff1681526020018373ffffffffffffffffffffffffffffffffffffffff1673ffffffffffffffffffffffffffffffffffffffff1681526020018281526020019350505050602060405180830381600087803b1580156115b657600080fd5b505af11580156115ca573d6000803e3d6000fd5b505050506040513d60208110156115e057600080fd5b8101908080519060200190929190505050905060008873ffffffffffffffffffffffffffffffffffffffff166323b872dd338b8b6040518463ffffffff1660e01b8152600401808473ffffffffffffffffffffffffffffffffffffffff1673ffffffffffffffffffffffffffffffffffffffff1681526020018373ffffffffffffffffffffffffffffffffffffffff1673ffffffffffffffffffffffffffffffffffffffff1681526020018281526020019350505050602060405180830381600087803b1580156116b057600080fd5b505af11580156116c4573d6000803e3d6000fd5b505050506040513d60208110156116da57600080fd5b810190808051906020019092919050505090508180156116f75750805b611769576040517f08c379a00000000000000000000000000000000000000000000000000000000081526004018080602001828103825260148152602001807f4552525f5452414e534645525f494e5f4641494c00000000000000000000000081525060200191505060405180910390fd5b8873ffffffffffffffffffffffffffffffffffffffff166303438dd0886040518263ffffffff1660e01b8152600401808273ffffffffffffffffffffffffffffffffffffffff1673ffffffffffffffffffffffffffffffffffffffff168152602001915050606060405180830381600087803b1580156117e857600080fd5b505af11580156117fc573d6000803e3d6000fd5b505050506040513d606081101561181257600080fd5b810190808051906020019092919080519060200190929190805190602001909291905050508096508197508298505050503373ffffffffffffffffffffffffffffffffffffffff167f77f92a1b6a1a11de8ca49515ad4c1fad45632dd3442167d74b90b304a3c7a7588588604051808381526020018281526020019250505060405180910390a250505060016000806101000a81548160ff02191690831515021790555093509350939050565b600060019054906101000a900473ffffffffffffffffffffffffffffffffffffffff1681565b670de0b6b3a764000081565b60008060009054906101000a900460ff16611974576040517f08c379a000000000000000000000000000000000000000000000000000000000815260040180806020018281038252601f8152602001807f5265656e7472616e637947756172643a207265656e7472616e742063616c6c0081525060200191505060405180910390fd5b60008060006101000a81548160ff02191690831515021790555060008311611a04576040517f08c379a00000000000000000000000000000000000000000000000000000000081526004018080602001828103825260088152602001807f4552525f5a45524f00000000000000000000000000000000000000000000000081525060200191505060405180910390fd5b60008473ffffffffffffffffffffffffffffffffffffffff16630727d5d26040518163ffffffff1660e01b815260040160206040518083038186803b158015611a4c57600080fd5b505afa158015611a60573d6000803e3d6000fd5b505050506040513d6020811015611a7657600080fd5b8101908080519060200190929190505050905060008573ffffffffffffffffffffffffffffffffffffffff166360f880356040518163ffffffff1660e01b815260040160206040518083038186803b158015611ad157600080fd5b505afa158015611ae5573d6000803e3d6000fd5b505050506040513d6020811015611afb57600080fd5b81019080805190602001909291905050509050611c058173ffffffffffffffffffffffffffffffffffffffff166370a08231336040518263ffffffff1660e01b8152600401808273ffffffffffffffffffffffffffffffffffffffff1673ffffffffffffffffffffffffffffffffffffffff16815260200191505060206040518083038186803b158015611b8e57600080fd5b505afa158015611ba2573d6000803e3d6000fd5b505050506040513d6020811015611bb857600080fd5b8101908080519060200190929190505050866040518060400160405280600e81526020017f4552525f42414c5f52454445454d0000000000000000000000000000000000008152506128cf565b611cfc8273ffffffffffffffffffffffffffffffffffffffff166370a08231886040518263ffffffff1660e01b8152600401808273ffffffffffffffffffffffffffffffffffffffff1673ffffffffffffffffffffffffffffffffffffffff16815260200191505060206040518083038186803b158015611c8557600080fd5b505afa158015611c99573d6000803e3d6000fd5b505050506040513d6020811015611caf57600080fd5b8101908080519060200190929190505050866040518060400160405280600e81526020017f4552525f42414c5f535452494b450000000000000000000000000000000000008152506128cf565b8073ffffffffffffffffffffffffffffffffffffffff166323b872dd3388886040518463ffffffff1660e01b8152600401808473ffffffffffffffffffffffffffffffffffffffff1673ffffffffffffffffffffffffffffffffffffffff1681526020018373ffffffffffffffffffffffffffffffffffffffff1673ffffffffffffffffffffffffffffffffffffffff1681526020018281526020019350505050602060405180830381600087803b158015611db757600080fd5b505af1158015611dcb573d6000803e3d6000fd5b505050506040513d6020811015611de157600080fd5b8101908080519060200190929190505050611e64576040517f08c379a00000000000000000000000000000000000000000000000000000000081526004018080602001828103825260148152602001807f4552525f5452414e534645525f494e5f4641494c00000000000000000000000081525060200191505060405180910390fd5b8573ffffffffffffffffffffffffffffffffffffffff166395a2251f856040518263ffffffff1660e01b8152600401808273ffffffffffffffffffffffffffffffffffffffff1673ffffffffffffffffffffffffffffffffffffffff168152602001915050602060405180830381600087803b158015611ee357600080fd5b505af1158015611ef7573d6000803e3d6000fd5b505050506040513d6020811015611f0d57600080fd5b810190808051906020019092919050505092503373ffffffffffffffffffffffffffffffffffffffff167f222838db2794d11532d940e8dec38ae307ed0b63cd97c233322e221f998767a6846040518082815260200191505060405180910390a2505060016000806101000a81548160ff0219169083151502179055509392505050565b60008060008060009054906101000a900460ff16612017576040517f08c379a000000000000000000000000000000000000000000000000000000000815260040180806020018281038252601f8152602001807f5265656e7472616e637947756172643a207265656e7472616e742063616c6c0081525060200191505060405180910390fd5b60008060006101000a81548160ff021916908315150217905550600085116120a7576040517f08c379a00000000000000000000000000000000000000000000000000000000081526004018080602001828103825260088152602001807f4552525f5a45524f00000000000000000000000000000000000000000000000081525060200191505060405180910390fd5b60008673ffffffffffffffffffffffffffffffffffffffff166360f880356040518163ffffffff1660e01b815260040160206040518083038186803b1580156120ef57600080fd5b505afa158015612103573d6000803e3d6000fd5b505050506040513d602081101561211957600080fd5b810190808051906020019092919050505090506122518773ffffffffffffffffffffffffffffffffffffffff16635001f3b56040518163ffffffff1660e01b815260040160206040518083038186803b15801561217557600080fd5b505afa158015612189573d6000803e3d6000fd5b505050506040513d602081101561219f57600080fd5b81019080805190602001909291905050506122438973ffffffffffffffffffffffffffffffffffffffff1663a035b1fe6040518163ffffffff1660e01b815260040160206040518083038186803b1580156121f957600080fd5b505afa15801561220d573d6000803e3d6000fd5b505050506040513d602081101561222357600080fd5b8101908080519060200190929190505050896127ff90919063ffffffff16565b61288590919063ffffffff16565b935061234a8173ffffffffffffffffffffffffffffffffffffffff166370a08231336040518263ffffffff1660e01b8152600401808273ffffffffffffffffffffffffffffffffffffffff1673ffffffffffffffffffffffffffffffffffffffff16815260200191505060206040518083038186803b1580156122d357600080fd5b505afa1580156122e7573d6000803e3d6000fd5b505050506040513d60208110156122fd57600080fd5b8101908080519060200190929190505050856040518060400160405280600e81526020017f4552525f42414c5f52454445454d0000000000000000000000000000000000008152506128cf565b6124418773ffffffffffffffffffffffffffffffffffffffff166370a08231336040518263ffffffff1660e01b8152600401808273ffffffffffffffffffffffffffffffffffffffff1673ffffffffffffffffffffffffffffffffffffffff16815260200191505060206040518083038186803b1580156123ca57600080fd5b505afa1580156123de573d6000803e3d6000fd5b505050506040513d60208110156123f457600080fd5b8101908080519060200190929190505050876040518060400160405280600d81526020017f4552525f42414c5f5052494d45000000000000000000000000000000000000008152506128cf565b60008173ffffffffffffffffffffffffffffffffffffffff166323b872dd338a886040518463ffffffff1660e01b8152600401808473ffffffffffffffffffffffffffffffffffffffff1673ffffffffffffffffffffffffffffffffffffffff1681526020018373ffffffffffffffffffffffffffffffffffffffff1673ffffffffffffffffffffffffffffffffffffffff1681526020018281526020019350505050602060405180830381600087803b1580156124fe57600080fd5b505af1158015612512573d6000803e3d6000fd5b505050506040513d602081101561252857600080fd5b8101908080519060200190929190505050905060008873ffffffffffffffffffffffffffffffffffffffff166323b872dd338b8b6040518463ffffffff1660e01b8152600401808473ffffffffffffffffffffffffffffffffffffffff1673ffffffffffffffffffffffffffffffffffffffff1681526020018373ffffffffffffffffffffffffffffffffffffffff1673ffffffffffffffffffffffffffffffffffffffff1681526020018281526020019350505050602060405180830381600087803b1580156125f857600080fd5b505af115801561260c573d6000803e3d6000fd5b505050506040513d602081101561262257600080fd5b8101908080519060200190929190505050905081801561263f5750805b6126b1576040517f08c379a00000000000000000000000000000000000000000000000000000000081526004018080602001828103825260148152602001807f4552525f5452414e534645525f494e5f4641494c00000000000000000000000081525060200191505060405180910390fd5b8873ffffffffffffffffffffffffffffffffffffffff1663c74073a1886040518263ffffffff1660e01b8152600401808273ffffffffffffffffffffffffffffffffffffffff1673ffffffffffffffffffffffffffffffffffffffff168152602001915050606060405180830381600087803b15801561273057600080fd5b505af1158015612744573d6000803e3d6000fd5b505050506040513d606081101561275a57600080fd5b810190808051906020019092919080519060200190929190805190602001909291905050508096508197508298505050503373ffffffffffffffffffffffffffffffffffffffff167f684222b0069d4a2e5e0d986611cc5182d543904c4e4264bf770d4e51faefc822866040518082815260200191505060405180910390a250505060016000806101000a81548160ff02191690831515021790555093509350939050565b600080831415612812576000905061287f565b600082840290508284828161282357fe5b041461287a576040517f08c379a0000000000000000000000000000000000000000000000000000000008152600401808060200182810382526021815260200180612b006021913960400191505060405180910390fd5b809150505b92915050565b60006128c783836040518060400160405280601a81526020017f536166654d6174683a206469766973696f6e206279207a65726f000000000000815250612a39565b905092915050565b6000821461298857818310158190612982576040517f08c379a00000000000000000000000000000000000000000000000000000000081526004018080602001828103825283818151815260200191508051906020019080838360005b8381101561294757808201518184015260208101905061292c565b50505050905090810190601f1680156129745780820380516001836020036101000a031916815260200191505b509250505060405180910390fd5b50612a34565b8183118190612a32576040517f08c379a00000000000000000000000000000000000000000000000000000000081526004018080602001828103825283818151815260200191508051906020019080838360005b838110156129f75780820151818401526020810190506129dc565b50505050905090810190601f168015612a245780820380516001836020036101000a031916815260200191505b509250505060405180910390fd5b505b505050565b60008083118290612ae5576040517f08c379a00000000000000000000000000000000000000000000000000000000081526004018080602001828103825283818151815260200191508051906020019080838360005b83811015612aaa578082015181840152602081019050612a8f565b50505050905090810190601f168015612ad75780820380516001836020036101000a031916815260200191505b509250505060405180910390fd5b506000838581612af157fe5b04905080915050939250505056fe536166654d6174683a206d756c7469706c69636174696f6e206f766572666c6f77a26469706673582212204ebdcf20bdeb9d7e59182153f968e18d4731ea1e8ccf146ccefeb3a09fc3e2b064736f6c63430006020033",
  "source": "pragma solidity ^0.6.2;\r\n\r\n/**\r\n * @title Primitive's Trader Contract\r\n * @notice Safely interacts with the Prime Base ERC-20 Option\r\n * @author Primitive\r\n */\r\n\r\nimport \"./PrimeInterface.sol\";\r\nimport \"@openzeppelin/contracts/math/SafeMath.sol\";\r\nimport \"@openzeppelin/contracts/token/ERC20/ERC20.sol\";\r\nimport \"@openzeppelin/contracts/utils/ReentrancyGuard.sol\";\r\n\r\ncontract PrimeTrader is ReentrancyGuard {\r\n    using SafeMath for uint256;\r\n\r\n    uint256 public constant DENOMINATOR = 1 ether;\r\n\r\n    address payable public weth;\r\n\r\n    event Mint(address indexed from, uint256 outTokenP, uint256 outTokenR);\r\n    event Swap(address indexed from, uint256 outTokenU, uint256 inTokenS);\r\n    event Redeem(address indexed from, uint256 inTokenR);\r\n    event Close(address indexed from, uint256 inTokenP);\r\n\r\n    constructor (address payable _weth) public {\r\n        weth = _weth;\r\n    }\r\n\r\n    /**\r\n     * @dev Mint Primes by depositing tokenU.\r\n     * @notice Also mints Prime Redeem tokens. Calls msg.sender with transferFrom.\r\n     * @param tokenP The address of the Prime Option to trade with.\r\n     * @param amount Quantity of Prime options to mint and tokenU to deposit.\r\n     * @param receiver The newly minted tokens are sent to the receiver address.\r\n     */\r\n    function safeMint(\r\n        address tokenP,\r\n        uint256 amount,\r\n        address receiver\r\n    )\r\n        external\r\n        nonReentrant\r\n        returns (uint256 inTokenU, uint256 outTokenR)\r\n    {\r\n        require(amount > 0, \"ERR_ZERO\");\r\n        address tokenU = IPrime(tokenP).tokenU();\r\n        verifyBalance(\r\n            IERC20(tokenU).balanceOf(msg.sender),\r\n            amount,\r\n            \"ERR_BAL_UNDERLYING\"\r\n        );\r\n        require(\r\n            IERC20(tokenU).transferFrom(msg.sender, tokenP, amount),\r\n            \"ERR_TRANSFER_IN_FAIL\"\r\n        );\r\n        (inTokenU, outTokenR) = IPrime(tokenP).mint(receiver);\r\n        emit Mint(msg.sender, inTokenU, outTokenR);\r\n    }\r\n\r\n    /**\r\n     * @dev Swaps tokenS to tokenU using ratio as the exchange rate.\r\n     * @notice Burns Prime, contract receives tokenS, user receives tokenU.\r\n     * Calls msg.sender with transferFrom.\r\n     * @param amount Quantity of Primes to use to swap.\r\n     */\r\n    function safeSwap(\r\n        address tokenP,\r\n        uint256 amount,\r\n        address receiver\r\n    )\r\n        external\r\n        nonReentrant\r\n        returns (uint256 inTokenS, uint256 inTokenP, uint256 outTokenU)\r\n    {\r\n        require(amount > 0, \"ERR_ZERO\");\r\n        address tokenS = IPrime(tokenP).tokenS();\r\n        verifyBalance(\r\n            IPrime(tokenP).balanceOf(msg.sender),\r\n            amount,\r\n            \"ERR_BAL_PRIME\"\r\n        );\r\n\r\n        inTokenS = amount.mul(IPrime(tokenP).price()).div(IPrime(tokenP).base());\r\n        verifyBalance(\r\n            IERC20(tokenS).balanceOf(msg.sender),\r\n            inTokenS,\r\n            \"ERR_BAL_STRIKE\"\r\n        );\r\n        (bool inTransferS) = IERC20(tokenS).transferFrom(msg.sender, tokenP, inTokenS);\r\n        (bool inTransferP) = IPrime(tokenP).transferFrom(msg.sender, tokenP, amount);\r\n        require(inTransferS && inTransferP, \"ERR_TRANSFER_IN_FAIL\");\r\n        (inTokenS, inTokenP, outTokenU) = IPrime(tokenP).swap(receiver);\r\n        emit Swap(msg.sender, outTokenU, inTokenS);\r\n    }\r\n\r\n    /**\r\n     * @dev Burns Prime Redeem tokens to withdraw available tokenS.\r\n     * @param amount Quantity of Prime Redeem to spend.\r\n     */\r\n    function safeRedeem(\r\n        address tokenP,\r\n        uint256 amount,\r\n        address receiver\r\n    )\r\n        external\r\n        nonReentrant\r\n        returns (uint256 inTokenR)\r\n    {\r\n        require(amount > 0, \"ERR_ZERO\");\r\n        address tokenS = IPrime(tokenP).tokenS();\r\n        address tokenR = IPrime(tokenP).tokenR();\r\n\r\n        verifyBalance(\r\n            IERC20(tokenR).balanceOf(msg.sender),\r\n            amount,\r\n            \"ERR_BAL_REDEEM\"\r\n        );\r\n\r\n        // There can be the case there is no available tokenS to redeem.\r\n        // This is the first verification of a tokenS balance to draw from.\r\n        // There is a second verification in the redeem() function.\r\n        verifyBalance(\r\n            IERC20(tokenS).balanceOf(tokenP),\r\n            amount,\r\n            \"ERR_BAL_STRIKE\"\r\n        );\r\n        require(\r\n            IERC20(tokenR).transferFrom(msg.sender, tokenP, amount),\r\n            \"ERR_TRANSFER_IN_FAIL\"\r\n        );\r\n        (inTokenR) = IPrime(tokenP).redeem(receiver);\r\n        emit Redeem(msg.sender, inTokenR);\r\n    }\r\n\r\n    /**\r\n     * @dev Burn Prime and Prime Redeem tokens to withdraw tokenU.\r\n     * @notice Takes paramter for quantity of Primes to burn.\r\n     * The Prime Redeems to burn is equal to the Primes * ratio.\r\n     * @param amount Quantity of Primes to burn.\r\n     */\r\n    function safeClose(\r\n        address tokenP,\r\n        uint256 amount,\r\n        address receiver\r\n    )\r\n        external\r\n        nonReentrant\r\n        returns (uint256 inTokenR, uint256 inTokenP, uint256 outTokenU)\r\n    {\r\n        require(amount > 0, \"ERR_ZERO\");\r\n        address tokenR = IPrime(tokenP).tokenR();\r\n\r\n        inTokenR = amount.mul(IPrime(tokenP).price()).div(IPrime(tokenP).base());\r\n\r\n        verifyBalance(\r\n            IERC20(tokenR).balanceOf(msg.sender),\r\n            inTokenR,\r\n            \"ERR_BAL_REDEEM\"\r\n        );\r\n\r\n        verifyBalance(\r\n            IPrime(tokenP).balanceOf(msg.sender),\r\n            amount,\r\n            \"ERR_BAL_PRIME\"\r\n        );\r\n\r\n        (bool inTransferR) = IERC20(tokenR).transferFrom(msg.sender, tokenP, inTokenR);\r\n        (bool inTransferP) = IPrime(tokenP).transferFrom(msg.sender, tokenP, amount);\r\n        require(inTransferR && inTransferP, \"ERR_TRANSFER_IN_FAIL\");\r\n        (inTokenR, inTokenP, outTokenU) = IPrime(tokenP).close(receiver);\r\n        emit Close(msg.sender, inTokenP);\r\n    }\r\n\r\n    /**\r\n     * @dev Burn Prime Redeem tokens to withdraw tokenU and tokenS from expired options.\r\n     * @notice Takes paramter for quantity of Primes to burn.\r\n     * The Prime Redeems to burn is equal to the Primes * ratio.\r\n     * @param amount Quantity of tokenU to withdraw.\r\n     */\r\n    function safeUnwind(\r\n        address tokenP,\r\n        uint256 amount,\r\n        address receiver\r\n    )\r\n        external\r\n        nonReentrant\r\n        returns (uint256 inTokenR, uint256 inTokenP, uint256 outTokenU)\r\n    {\r\n        require(amount > 0, \"ERR_ZERO\");\r\n        require(IPrime(tokenP).expiry() < block.timestamp, \"ERR_NOT_EXPIRED\");\r\n        address tokenR = IPrime(tokenP).tokenR();\r\n\r\n        inTokenR = amount.mul(IPrime(tokenP).price()).div(IPrime(tokenP).base());\r\n\r\n        verifyBalance(\r\n            IERC20(tokenR).balanceOf(msg.sender),\r\n            inTokenR,\r\n            \"ERR_BAL_REDEEM\"\r\n        );\r\n\r\n        (bool inTransferR) = IERC20(tokenR).transferFrom(msg.sender, tokenP, inTokenR);\r\n        require(inTransferR, \"ERR_TRANSFER_IN_FAIL\");\r\n        (inTokenR, inTokenP, outTokenU) = IPrime(tokenP).close(receiver);\r\n        emit Close(msg.sender, inTokenP);\r\n    }\r\n\r\n    function verifyBalance(\r\n        uint256 balance,\r\n        uint256 minBalance,\r\n        string memory errorCode\r\n    ) internal pure {\r\n        minBalance == 0 ?\r\n            require(balance > minBalance, errorCode) :\r\n            require(balance >= minBalance, errorCode);\r\n    }\r\n}",
  "sourcePath": "C:\\Users\\alexa\\OneDrive\\Documents\\Master\\Blockchain\\Projects\\carbon\\contracts\\PrimeTrader.sol",
  "compiler": {
    "name": "solc",
    "version": "0.6.2+commit.bacdbe57.Emscripten.clang"
  },
  "schemaVersion": "3.0.23",
  "updatedAt": "2020-05-01T00:51:30.155Z",
  "devdoc": {
    "methods": {
      "safeClose(address,uint256,address)": {
        "details": "Burn Prime and Prime Redeem tokens to withdraw tokenU.",
        "params": {
          "amount": "Quantity of Primes to burn."
        }
      },
      "safeMint(address,uint256,address)": {
        "details": "Mint Primes by depositing tokenU.",
        "params": {
          "amount": "Quantity of Prime options to mint and tokenU to deposit.",
          "receiver": "The newly minted tokens are sent to the receiver address.",
          "tokenP": "The address of the Prime Option to trade with."
        }
      },
      "safeRedeem(address,uint256,address)": {
        "details": "Burns Prime Redeem tokens to withdraw available tokenS.",
        "params": {
          "amount": "Quantity of Prime Redeem to spend."
        }
      },
      "safeSwap(address,uint256,address)": {
        "details": "Swaps tokenS to tokenU using ratio as the exchange rate.",
        "params": {
          "amount": "Quantity of Primes to use to swap."
        }
      },
      "safeUnwind(address,uint256,address)": {
        "details": "Burn Prime Redeem tokens to withdraw tokenU and tokenS from expired options.",
        "params": {
          "amount": "Quantity of tokenU to withdraw."
        }
      }
    }
  },
  "userdoc": {
    "methods": {
      "safeClose(address,uint256,address)": {
        "notice": "Takes paramter for quantity of Primes to burn. The Prime Redeems to burn is equal to the Primes * ratio."
      },
      "safeMint(address,uint256,address)": {
        "notice": "Also mints Prime Redeem tokens. Calls msg.sender with transferFrom."
      },
      "safeSwap(address,uint256,address)": {
        "notice": "Burns Prime, contract receives tokenS, user receives tokenU. Calls msg.sender with transferFrom."
      },
      "safeUnwind(address,uint256,address)": {
        "notice": "Takes paramter for quantity of Primes to burn. The Prime Redeems to burn is equal to the Primes * ratio."
      }
    }
  }
}