{
  "contractName": "PrimeTrader",
  "abi": [
    {
      "inputs": [
        {
          "internalType": "address payable",
          "name": "_weth",
          "type": "address"
        }
      ],
      "stateMutability": "nonpayable",
      "type": "constructor"
    },
    {
      "anonymous": false,
      "inputs": [
        {
          "indexed": true,
          "internalType": "address",
          "name": "from",
          "type": "address"
        },
        {
          "indexed": false,
          "internalType": "uint256",
          "name": "inTokenP",
          "type": "uint256"
        }
      ],
      "name": "Close",
      "type": "event"
    },
    {
      "anonymous": false,
      "inputs": [
        {
          "indexed": true,
          "internalType": "address",
          "name": "from",
          "type": "address"
        },
        {
          "indexed": false,
          "internalType": "uint256",
          "name": "outTokenP",
          "type": "uint256"
        },
        {
          "indexed": false,
          "internalType": "uint256",
          "name": "outTokenR",
          "type": "uint256"
        }
      ],
      "name": "Mint",
      "type": "event"
    },
    {
      "anonymous": false,
      "inputs": [
        {
          "indexed": true,
          "internalType": "address",
          "name": "from",
          "type": "address"
        },
        {
          "indexed": false,
          "internalType": "uint256",
          "name": "inTokenR",
          "type": "uint256"
        }
      ],
      "name": "Redeem",
      "type": "event"
    },
    {
      "anonymous": false,
      "inputs": [
        {
          "indexed": true,
          "internalType": "address",
          "name": "from",
          "type": "address"
        },
        {
          "indexed": false,
          "internalType": "uint256",
          "name": "outTokenU",
          "type": "uint256"
        },
        {
          "indexed": false,
          "internalType": "uint256",
          "name": "inTokenS",
          "type": "uint256"
        }
      ],
      "name": "Swap",
      "type": "event"
    },
    {
      "inputs": [],
      "name": "weth",
      "outputs": [
        {
          "internalType": "address payable",
          "name": "",
          "type": "address"
        }
      ],
      "stateMutability": "view",
      "type": "function"
    },
    {
      "inputs": [
        {
          "internalType": "address",
          "name": "tokenP",
          "type": "address"
        },
        {
          "internalType": "uint256",
          "name": "amount",
          "type": "uint256"
        },
        {
          "internalType": "address",
          "name": "receiver",
          "type": "address"
        }
      ],
      "name": "safeMint",
      "outputs": [
        {
          "internalType": "uint256",
          "name": "inTokenU",
          "type": "uint256"
        },
        {
          "internalType": "uint256",
          "name": "outTokenR",
          "type": "uint256"
        }
      ],
      "stateMutability": "nonpayable",
      "type": "function"
    },
    {
      "inputs": [
        {
          "internalType": "address",
          "name": "tokenP",
          "type": "address"
        },
        {
          "internalType": "uint256",
          "name": "amount",
          "type": "uint256"
        },
        {
          "internalType": "address",
          "name": "receiver",
          "type": "address"
        }
      ],
      "name": "safeSwap",
      "outputs": [
        {
          "internalType": "uint256",
          "name": "inTokenS",
          "type": "uint256"
        },
        {
          "internalType": "uint256",
          "name": "inTokenP",
          "type": "uint256"
        },
        {
          "internalType": "uint256",
          "name": "outTokenU",
          "type": "uint256"
        }
      ],
      "stateMutability": "nonpayable",
      "type": "function"
    },
    {
      "inputs": [
        {
          "internalType": "address",
          "name": "tokenP",
          "type": "address"
        },
        {
          "internalType": "uint256",
          "name": "amount",
          "type": "uint256"
        },
        {
          "internalType": "address",
          "name": "receiver",
          "type": "address"
        }
      ],
      "name": "safeRedeem",
      "outputs": [
        {
          "internalType": "uint256",
          "name": "inTokenR",
          "type": "uint256"
        }
      ],
      "stateMutability": "nonpayable",
      "type": "function"
    },
    {
      "inputs": [
        {
          "internalType": "address",
          "name": "tokenP",
          "type": "address"
        },
        {
          "internalType": "uint256",
          "name": "amount",
          "type": "uint256"
        },
        {
          "internalType": "address",
          "name": "receiver",
          "type": "address"
        }
      ],
      "name": "safeClose",
      "outputs": [
        {
          "internalType": "uint256",
          "name": "inTokenR",
          "type": "uint256"
        },
        {
          "internalType": "uint256",
          "name": "inTokenP",
          "type": "uint256"
        },
        {
          "internalType": "uint256",
          "name": "outTokenU",
          "type": "uint256"
        }
      ],
      "stateMutability": "nonpayable",
      "type": "function"
    },
    {
      "inputs": [
        {
          "internalType": "address",
          "name": "tokenP",
          "type": "address"
        },
        {
          "internalType": "uint256",
          "name": "amount",
          "type": "uint256"
        },
        {
          "internalType": "address",
          "name": "receiver",
          "type": "address"
        }
      ],
      "name": "safeUnwind",
      "outputs": [
        {
          "internalType": "uint256",
          "name": "inTokenR",
          "type": "uint256"
        },
        {
          "internalType": "uint256",
          "name": "inTokenP",
          "type": "uint256"
        },
        {
          "internalType": "uint256",
          "name": "outTokenU",
          "type": "uint256"
        }
      ],
      "stateMutability": "nonpayable",
      "type": "function"
    }
  ],
  "bytecode": "0x608060405234801561001057600080fd5b50604051612bc0380380612bc08339818101604052602081101561003357600080fd5b810190808051906020019092919050505060016000806101000a81548160ff02191690831515021790555080600060016101000a81548173ffffffffffffffffffffffffffffffffffffffff021916908373ffffffffffffffffffffffffffffffffffffffff16021790555050612b11806100af6000396000f3fe608060405234801561001057600080fd5b50600436106100625760003560e01c8063154fa0891461006757806320e469d6146100f75780633f60b9bf146101805780633fc8cef314610210578063a1d8778f1461025a578063b8a6bb3b146102dc575b600080fd5b6100d36004803603606081101561007d57600080fd5b81019080803573ffffffffffffffffffffffffffffffffffffffff16906020019092919080359060200190929190803573ffffffffffffffffffffffffffffffffffffffff16906020019092919050505061036c565b60405180848152602001838152602001828152602001935050505060405180910390f35b6101636004803603606081101561010d57600080fd5b81019080803573ffffffffffffffffffffffffffffffffffffffff16906020019092919080359060200190929190803573ffffffffffffffffffffffffffffffffffffffff169060200190929190505050610ad4565b604051808381526020018281526020019250505060405180910390f35b6101ec6004803603606081101561019657600080fd5b81019080803573ffffffffffffffffffffffffffffffffffffffff16906020019092919080359060200190929190803573ffffffffffffffffffffffffffffffffffffffff169060200190929190505050611010565b60405180848152602001838152602001828152602001935050505060405180910390f35b610218611886565b604051808273ffffffffffffffffffffffffffffffffffffffff1673ffffffffffffffffffffffffffffffffffffffff16815260200191505060405180910390f35b6102c66004803603606081101561027057600080fd5b81019080803573ffffffffffffffffffffffffffffffffffffffff16906020019092919080359060200190929190803573ffffffffffffffffffffffffffffffffffffffff1690602001909291905050506118ac565b6040518082815260200191505060405180910390f35b610348600480360360608110156102f257600080fd5b81019080803573ffffffffffffffffffffffffffffffffffffffff16906020019092919080359060200190929190803573ffffffffffffffffffffffffffffffffffffffff169060200190929190505050611f4c565b60405180848152602001838152602001828152602001935050505060405180910390f35b60008060008060009054906101000a900460ff166103f2576040517f08c379a000000000000000000000000000000000000000000000000000000000815260040180806020018281038252601f8152602001807f5265656e7472616e637947756172643a207265656e7472616e742063616c6c0081525060200191505060405180910390fd5b60008060006101000a81548160ff02191690831515021790555060008511610482576040517f08c379a00000000000000000000000000000000000000000000000000000000081526004018080602001828103825260088152602001807f4552525f5a45524f00000000000000000000000000000000000000000000000081525060200191505060405180910390fd5b428673ffffffffffffffffffffffffffffffffffffffff1663e184c9be6040518163ffffffff1660e01b815260040160206040518083038186803b1580156104c957600080fd5b505afa1580156104dd573d6000803e3d6000fd5b505050506040513d60208110156104f357600080fd5b810190808051906020019092919050505010610577576040517f08c379a000000000000000000000000000000000000000000000000000000000815260040180806020018281038252600f8152602001807f4552525f4e4f545f45585049524544000000000000000000000000000000000081525060200191505060405180910390fd5b60008673ffffffffffffffffffffffffffffffffffffffff166360f880356040518163ffffffff1660e01b815260040160206040518083038186803b1580156105bf57600080fd5b505afa1580156105d3573d6000803e3d6000fd5b505050506040513d60208110156105e957600080fd5b810190808051906020019092919050505090506107218773ffffffffffffffffffffffffffffffffffffffff16635001f3b56040518163ffffffff1660e01b815260040160206040518083038186803b15801561064557600080fd5b505afa158015610659573d6000803e3d6000fd5b505050506040513d602081101561066f57600080fd5b81019080805190602001909291905050506107138973ffffffffffffffffffffffffffffffffffffffff1663a035b1fe6040518163ffffffff1660e01b815260040160206040518083038186803b1580156106c957600080fd5b505afa1580156106dd573d6000803e3d6000fd5b505050506040513d60208110156106f357600080fd5b8101908080519060200190929190505050896127ba90919063ffffffff16565b61284090919063ffffffff16565b935061081a8173ffffffffffffffffffffffffffffffffffffffff166370a08231336040518263ffffffff1660e01b8152600401808273ffffffffffffffffffffffffffffffffffffffff1673ffffffffffffffffffffffffffffffffffffffff16815260200191505060206040518083038186803b1580156107a357600080fd5b505afa1580156107b7573d6000803e3d6000fd5b505050506040513d60208110156107cd57600080fd5b8101908080519060200190929190505050856040518060400160405280600e81526020017f4552525f42414c5f52454445454d00000000000000000000000000000000000081525061288a565b60008173ffffffffffffffffffffffffffffffffffffffff166323b872dd338a886040518463ffffffff1660e01b8152600401808473ffffffffffffffffffffffffffffffffffffffff1673ffffffffffffffffffffffffffffffffffffffff1681526020018373ffffffffffffffffffffffffffffffffffffffff1673ffffffffffffffffffffffffffffffffffffffff1681526020018281526020019350505050602060405180830381600087803b1580156108d757600080fd5b505af11580156108eb573d6000803e3d6000fd5b505050506040513d602081101561090157600080fd5b8101908080519060200190929190505050905080610987576040517f08c379a00000000000000000000000000000000000000000000000000000000081526004018080602001828103825260148152602001807f4552525f5452414e534645525f494e5f4641494c00000000000000000000000081525060200191505060405180910390fd5b8773ffffffffffffffffffffffffffffffffffffffff1663c74073a1876040518263ffffffff1660e01b8152600401808273ffffffffffffffffffffffffffffffffffffffff1673ffffffffffffffffffffffffffffffffffffffff168152602001915050606060405180830381600087803b158015610a0657600080fd5b505af1158015610a1a573d6000803e3d6000fd5b505050506040513d6060811015610a3057600080fd5b810190808051906020019092919080519060200190929190805190602001909291905050508095508196508297505050503373ffffffffffffffffffffffffffffffffffffffff167f684222b0069d4a2e5e0d986611cc5182d543904c4e4264bf770d4e51faefc822856040518082815260200191505060405180910390a2505060016000806101000a81548160ff02191690831515021790555093509350939050565b6000806000809054906101000a900460ff16610b58576040517f08c379a000000000000000000000000000000000000000000000000000000000815260040180806020018281038252601f8152602001807f5265656e7472616e637947756172643a207265656e7472616e742063616c6c0081525060200191505060405180910390fd5b60008060006101000a81548160ff02191690831515021790555060008411610be8576040517f08c379a00000000000000000000000000000000000000000000000000000000081526004018080602001828103825260088152602001807f4552525f5a45524f00000000000000000000000000000000000000000000000081525060200191505060405180910390fd5b60008573ffffffffffffffffffffffffffffffffffffffff16634a244e546040518163ffffffff1660e01b815260040160206040518083038186803b158015610c3057600080fd5b505afa158015610c44573d6000803e3d6000fd5b505050506040513d6020811015610c5a57600080fd5b81019080805190602001909291905050509050610d648173ffffffffffffffffffffffffffffffffffffffff166370a08231336040518263ffffffff1660e01b8152600401808273ffffffffffffffffffffffffffffffffffffffff1673ffffffffffffffffffffffffffffffffffffffff16815260200191505060206040518083038186803b158015610ced57600080fd5b505afa158015610d01573d6000803e3d6000fd5b505050506040513d6020811015610d1757600080fd5b8101908080519060200190929190505050866040518060400160405280601281526020017f4552525f42414c5f554e4445524c59494e47000000000000000000000000000081525061288a565b8073ffffffffffffffffffffffffffffffffffffffff166323b872dd3388886040518463ffffffff1660e01b8152600401808473ffffffffffffffffffffffffffffffffffffffff1673ffffffffffffffffffffffffffffffffffffffff1681526020018373ffffffffffffffffffffffffffffffffffffffff1673ffffffffffffffffffffffffffffffffffffffff1681526020018281526020019350505050602060405180830381600087803b158015610e1f57600080fd5b505af1158015610e33573d6000803e3d6000fd5b505050506040513d6020811015610e4957600080fd5b8101908080519060200190929190505050610ecc576040517f08c379a00000000000000000000000000000000000000000000000000000000081526004018080602001828103825260148152602001807f4552525f5452414e534645525f494e5f4641494c00000000000000000000000081525060200191505060405180910390fd5b8573ffffffffffffffffffffffffffffffffffffffff16636a627842856040518263ffffffff1660e01b8152600401808273ffffffffffffffffffffffffffffffffffffffff1673ffffffffffffffffffffffffffffffffffffffff1681526020019150506040805180830381600087803b158015610f4a57600080fd5b505af1158015610f5e573d6000803e3d6000fd5b505050506040513d6040811015610f7457600080fd5b81019080805190602001909291908051906020019092919050505080935081945050503373ffffffffffffffffffffffffffffffffffffffff167f4c209b5fc8ad50758f13e2e1088ba56a560dff690a1c6fef26394f4c03821c4f8484604051808381526020018281526020019250505060405180910390a25060016000806101000a81548160ff021916908315150217905550935093915050565b60008060008060009054906101000a900460ff16611096576040517f08c379a000000000000000000000000000000000000000000000000000000000815260040180806020018281038252601f8152602001807f5265656e7472616e637947756172643a207265656e7472616e742063616c6c0081525060200191505060405180910390fd5b60008060006101000a81548160ff02191690831515021790555060008511611126576040517f08c379a00000000000000000000000000000000000000000000000000000000081526004018080602001828103825260088152602001807f4552525f5a45524f00000000000000000000000000000000000000000000000081525060200191505060405180910390fd5b60008673ffffffffffffffffffffffffffffffffffffffff16630727d5d26040518163ffffffff1660e01b815260040160206040518083038186803b15801561116e57600080fd5b505afa158015611182573d6000803e3d6000fd5b505050506040513d602081101561119857600080fd5b810190808051906020019092919050505090506112a28773ffffffffffffffffffffffffffffffffffffffff166370a08231336040518263ffffffff1660e01b8152600401808273ffffffffffffffffffffffffffffffffffffffff1673ffffffffffffffffffffffffffffffffffffffff16815260200191505060206040518083038186803b15801561122b57600080fd5b505afa15801561123f573d6000803e3d6000fd5b505050506040513d602081101561125557600080fd5b8101908080519060200190929190505050876040518060400160405280600d81526020017f4552525f42414c5f5052494d450000000000000000000000000000000000000081525061288a565b6113c78773ffffffffffffffffffffffffffffffffffffffff16635001f3b56040518163ffffffff1660e01b815260040160206040518083038186803b1580156112eb57600080fd5b505afa1580156112ff573d6000803e3d6000fd5b505050506040513d602081101561131557600080fd5b81019080805190602001909291905050506113b98973ffffffffffffffffffffffffffffffffffffffff1663a035b1fe6040518163ffffffff1660e01b815260040160206040518083038186803b15801561136f57600080fd5b505afa158015611383573d6000803e3d6000fd5b505050506040513d602081101561139957600080fd5b8101908080519060200190929190505050896127ba90919063ffffffff16565b61284090919063ffffffff16565b93506114c08173ffffffffffffffffffffffffffffffffffffffff166370a08231336040518263ffffffff1660e01b8152600401808273ffffffffffffffffffffffffffffffffffffffff1673ffffffffffffffffffffffffffffffffffffffff16815260200191505060206040518083038186803b15801561144957600080fd5b505afa15801561145d573d6000803e3d6000fd5b505050506040513d602081101561147357600080fd5b8101908080519060200190929190505050856040518060400160405280600e81526020017f4552525f42414c5f535452494b4500000000000000000000000000000000000081525061288a565b60008173ffffffffffffffffffffffffffffffffffffffff166323b872dd338a886040518463ffffffff1660e01b8152600401808473ffffffffffffffffffffffffffffffffffffffff1673ffffffffffffffffffffffffffffffffffffffff1681526020018373ffffffffffffffffffffffffffffffffffffffff1673ffffffffffffffffffffffffffffffffffffffff1681526020018281526020019350505050602060405180830381600087803b15801561157d57600080fd5b505af1158015611591573d6000803e3d6000fd5b505050506040513d60208110156115a757600080fd5b8101908080519060200190929190505050905060008873ffffffffffffffffffffffffffffffffffffffff166323b872dd338b8b6040518463ffffffff1660e01b8152600401808473ffffffffffffffffffffffffffffffffffffffff1673ffffffffffffffffffffffffffffffffffffffff1681526020018373ffffffffffffffffffffffffffffffffffffffff1673ffffffffffffffffffffffffffffffffffffffff1681526020018281526020019350505050602060405180830381600087803b15801561167757600080fd5b505af115801561168b573d6000803e3d6000fd5b505050506040513d60208110156116a157600080fd5b810190808051906020019092919050505090508180156116be5750805b611730576040517f08c379a00000000000000000000000000000000000000000000000000000000081526004018080602001828103825260148152602001807f4552525f5452414e534645525f494e5f4641494c00000000000000000000000081525060200191505060405180910390fd5b8873ffffffffffffffffffffffffffffffffffffffff166303438dd0886040518263ffffffff1660e01b8152600401808273ffffffffffffffffffffffffffffffffffffffff1673ffffffffffffffffffffffffffffffffffffffff168152602001915050606060405180830381600087803b1580156117af57600080fd5b505af11580156117c3573d6000803e3d6000fd5b505050506040513d60608110156117d957600080fd5b810190808051906020019092919080519060200190929190805190602001909291905050508096508197508298505050503373ffffffffffffffffffffffffffffffffffffffff167f77f92a1b6a1a11de8ca49515ad4c1fad45632dd3442167d74b90b304a3c7a7588588604051808381526020018281526020019250505060405180910390a250505060016000806101000a81548160ff02191690831515021790555093509350939050565b600060019054906101000a900473ffffffffffffffffffffffffffffffffffffffff1681565b60008060009054906101000a900460ff1661192f576040517f08c379a000000000000000000000000000000000000000000000000000000000815260040180806020018281038252601f8152602001807f5265656e7472616e637947756172643a207265656e7472616e742063616c6c0081525060200191505060405180910390fd5b60008060006101000a81548160ff021916908315150217905550600083116119bf576040517f08c379a00000000000000000000000000000000000000000000000000000000081526004018080602001828103825260088152602001807f4552525f5a45524f00000000000000000000000000000000000000000000000081525060200191505060405180910390fd5b60008473ffffffffffffffffffffffffffffffffffffffff16630727d5d26040518163ffffffff1660e01b815260040160206040518083038186803b158015611a0757600080fd5b505afa158015611a1b573d6000803e3d6000fd5b505050506040513d6020811015611a3157600080fd5b8101908080519060200190929190505050905060008573ffffffffffffffffffffffffffffffffffffffff166360f880356040518163ffffffff1660e01b815260040160206040518083038186803b158015611a8c57600080fd5b505afa158015611aa0573d6000803e3d6000fd5b505050506040513d6020811015611ab657600080fd5b81019080805190602001909291905050509050611bc08173ffffffffffffffffffffffffffffffffffffffff166370a08231336040518263ffffffff1660e01b8152600401808273ffffffffffffffffffffffffffffffffffffffff1673ffffffffffffffffffffffffffffffffffffffff16815260200191505060206040518083038186803b158015611b4957600080fd5b505afa158015611b5d573d6000803e3d6000fd5b505050506040513d6020811015611b7357600080fd5b8101908080519060200190929190505050866040518060400160405280600e81526020017f4552525f42414c5f52454445454d00000000000000000000000000000000000081525061288a565b611cb78273ffffffffffffffffffffffffffffffffffffffff166370a08231886040518263ffffffff1660e01b8152600401808273ffffffffffffffffffffffffffffffffffffffff1673ffffffffffffffffffffffffffffffffffffffff16815260200191505060206040518083038186803b158015611c4057600080fd5b505afa158015611c54573d6000803e3d6000fd5b505050506040513d6020811015611c6a57600080fd5b8101908080519060200190929190505050866040518060400160405280600e81526020017f4552525f42414c5f535452494b4500000000000000000000000000000000000081525061288a565b8073ffffffffffffffffffffffffffffffffffffffff166323b872dd3388886040518463ffffffff1660e01b8152600401808473ffffffffffffffffffffffffffffffffffffffff1673ffffffffffffffffffffffffffffffffffffffff1681526020018373ffffffffffffffffffffffffffffffffffffffff1673ffffffffffffffffffffffffffffffffffffffff1681526020018281526020019350505050602060405180830381600087803b158015611d7257600080fd5b505af1158015611d86573d6000803e3d6000fd5b505050506040513d6020811015611d9c57600080fd5b8101908080519060200190929190505050611e1f576040517f08c379a00000000000000000000000000000000000000000000000000000000081526004018080602001828103825260148152602001807f4552525f5452414e534645525f494e5f4641494c00000000000000000000000081525060200191505060405180910390fd5b8573ffffffffffffffffffffffffffffffffffffffff166395a2251f856040518263ffffffff1660e01b8152600401808273ffffffffffffffffffffffffffffffffffffffff1673ffffffffffffffffffffffffffffffffffffffff168152602001915050602060405180830381600087803b158015611e9e57600080fd5b505af1158015611eb2573d6000803e3d6000fd5b505050506040513d6020811015611ec857600080fd5b810190808051906020019092919050505092503373ffffffffffffffffffffffffffffffffffffffff167f222838db2794d11532d940e8dec38ae307ed0b63cd97c233322e221f998767a6846040518082815260200191505060405180910390a2505060016000806101000a81548160ff0219169083151502179055509392505050565b60008060008060009054906101000a900460ff16611fd2576040517f08c379a000000000000000000000000000000000000000000000000000000000815260040180806020018281038252601f8152602001807f5265656e7472616e637947756172643a207265656e7472616e742063616c6c0081525060200191505060405180910390fd5b60008060006101000a81548160ff02191690831515021790555060008511612062576040517f08c379a00000000000000000000000000000000000000000000000000000000081526004018080602001828103825260088152602001807f4552525f5a45524f00000000000000000000000000000000000000000000000081525060200191505060405180910390fd5b60008673ffffffffffffffffffffffffffffffffffffffff166360f880356040518163ffffffff1660e01b815260040160206040518083038186803b1580156120aa57600080fd5b505afa1580156120be573d6000803e3d6000fd5b505050506040513d60208110156120d457600080fd5b8101908080519060200190929190505050905061220c8773ffffffffffffffffffffffffffffffffffffffff16635001f3b56040518163ffffffff1660e01b815260040160206040518083038186803b15801561213057600080fd5b505afa158015612144573d6000803e3d6000fd5b505050506040513d602081101561215a57600080fd5b81019080805190602001909291905050506121fe8973ffffffffffffffffffffffffffffffffffffffff1663a035b1fe6040518163ffffffff1660e01b815260040160206040518083038186803b1580156121b457600080fd5b505afa1580156121c8573d6000803e3d6000fd5b505050506040513d60208110156121de57600080fd5b8101908080519060200190929190505050896127ba90919063ffffffff16565b61284090919063ffffffff16565b93506123058173ffffffffffffffffffffffffffffffffffffffff166370a08231336040518263ffffffff1660e01b8152600401808273ffffffffffffffffffffffffffffffffffffffff1673ffffffffffffffffffffffffffffffffffffffff16815260200191505060206040518083038186803b15801561228e57600080fd5b505afa1580156122a2573d6000803e3d6000fd5b505050506040513d60208110156122b857600080fd5b8101908080519060200190929190505050856040518060400160405280600e81526020017f4552525f42414c5f52454445454d00000000000000000000000000000000000081525061288a565b6123fc8773ffffffffffffffffffffffffffffffffffffffff166370a08231336040518263ffffffff1660e01b8152600401808273ffffffffffffffffffffffffffffffffffffffff1673ffffffffffffffffffffffffffffffffffffffff16815260200191505060206040518083038186803b15801561238557600080fd5b505afa158015612399573d6000803e3d6000fd5b505050506040513d60208110156123af57600080fd5b8101908080519060200190929190505050876040518060400160405280600d81526020017f4552525f42414c5f5052494d450000000000000000000000000000000000000081525061288a565b60008173ffffffffffffffffffffffffffffffffffffffff166323b872dd338a886040518463ffffffff1660e01b8152600401808473ffffffffffffffffffffffffffffffffffffffff1673ffffffffffffffffffffffffffffffffffffffff1681526020018373ffffffffffffffffffffffffffffffffffffffff1673ffffffffffffffffffffffffffffffffffffffff1681526020018281526020019350505050602060405180830381600087803b1580156124b957600080fd5b505af11580156124cd573d6000803e3d6000fd5b505050506040513d60208110156124e357600080fd5b8101908080519060200190929190505050905060008873ffffffffffffffffffffffffffffffffffffffff166323b872dd338b8b6040518463ffffffff1660e01b8152600401808473ffffffffffffffffffffffffffffffffffffffff1673ffffffffffffffffffffffffffffffffffffffff1681526020018373ffffffffffffffffffffffffffffffffffffffff1673ffffffffffffffffffffffffffffffffffffffff1681526020018281526020019350505050602060405180830381600087803b1580156125b357600080fd5b505af11580156125c7573d6000803e3d6000fd5b505050506040513d60208110156125dd57600080fd5b810190808051906020019092919050505090508180156125fa5750805b61266c576040517f08c379a00000000000000000000000000000000000000000000000000000000081526004018080602001828103825260148152602001807f4552525f5452414e534645525f494e5f4641494c00000000000000000000000081525060200191505060405180910390fd5b8873ffffffffffffffffffffffffffffffffffffffff1663c74073a1886040518263ffffffff1660e01b8152600401808273ffffffffffffffffffffffffffffffffffffffff1673ffffffffffffffffffffffffffffffffffffffff168152602001915050606060405180830381600087803b1580156126eb57600080fd5b505af11580156126ff573d6000803e3d6000fd5b505050506040513d606081101561271557600080fd5b810190808051906020019092919080519060200190929190805190602001909291905050508096508197508298505050503373ffffffffffffffffffffffffffffffffffffffff167f684222b0069d4a2e5e0d986611cc5182d543904c4e4264bf770d4e51faefc822866040518082815260200191505060405180910390a250505060016000806101000a81548160ff02191690831515021790555093509350939050565b6000808314156127cd576000905061283a565b60008284029050828482816127de57fe5b0414612835576040517f08c379a0000000000000000000000000000000000000000000000000000000008152600401808060200182810382526021815260200180612abb6021913960400191505060405180910390fd5b809150505b92915050565b600061288283836040518060400160405280601a81526020017f536166654d6174683a206469766973696f6e206279207a65726f0000000000008152506129f4565b905092915050565b600082146129435781831015819061293d576040517f08c379a00000000000000000000000000000000000000000000000000000000081526004018080602001828103825283818151815260200191508051906020019080838360005b838110156129025780820151818401526020810190506128e7565b50505050905090810190601f16801561292f5780820380516001836020036101000a031916815260200191505b509250505060405180910390fd5b506129ef565b81831181906129ed576040517f08c379a00000000000000000000000000000000000000000000000000000000081526004018080602001828103825283818151815260200191508051906020019080838360005b838110156129b2578082015181840152602081019050612997565b50505050905090810190601f1680156129df5780820380516001836020036101000a031916815260200191505b509250505060405180910390fd5b505b505050565b60008083118290612aa0576040517f08c379a00000000000000000000000000000000000000000000000000000000081526004018080602001828103825283818151815260200191508051906020019080838360005b83811015612a65578082015181840152602081019050612a4a565b50505050905090810190601f168015612a925780820380516001836020036101000a031916815260200191505b509250505060405180910390fd5b506000838581612aac57fe5b04905080915050939250505056fe536166654d6174683a206d756c7469706c69636174696f6e206f766572666c6f77a2646970667358221220d45eefee84a0933829601ead3ad0124f4a2044497a8b782eafc2a1f2a87230a664736f6c63430006020033",
  "source": "pragma solidity ^0.6.2;\r\n\r\n/**\r\n * @title   Primitive's Trader Contract\r\n * @notice  Safely interacts with the Prime Base ERC-20 Option Primitive\r\n * @author  Primitive\r\n */\r\n\r\nimport \"./PrimeInterface.sol\";\r\nimport \"@openzeppelin/contracts/math/SafeMath.sol\";\r\nimport \"@openzeppelin/contracts/token/ERC20/ERC20.sol\";\r\nimport \"@openzeppelin/contracts/utils/ReentrancyGuard.sol\";\r\n\r\ncontract PrimeTrader is ReentrancyGuard {\r\n    using SafeMath for uint256;\r\n\r\n    address payable public weth;\r\n\r\n    event Mint(address indexed from, uint256 outTokenP, uint256 outTokenR);\r\n    event Swap(address indexed from, uint256 outTokenU, uint256 inTokenS);\r\n    event Redeem(address indexed from, uint256 inTokenR);\r\n    event Close(address indexed from, uint256 inTokenP);\r\n\r\n    constructor (address payable _weth) public {\r\n        weth = _weth;\r\n    }\r\n\r\n    /**\r\n     * @dev Mint Primes by depositing tokenU.\r\n     * @notice Also mints Prime Redeem tokens. Calls msg.sender with transferFrom.\r\n     * @param tokenP The address of the Prime Option to trade with.\r\n     * @param amount Quantity of Prime options to mint and tokenU to deposit.\r\n     * @param receiver The newly minted tokens are sent to the receiver address.\r\n     */\r\n    function safeMint(\r\n        address tokenP,\r\n        uint256 amount,\r\n        address receiver\r\n    )\r\n        external\r\n        nonReentrant\r\n        returns (uint256 inTokenU, uint256 outTokenR)\r\n    {\r\n        require(amount > 0, \"ERR_ZERO\");\r\n        address tokenU = IPrime(tokenP).tokenU();\r\n        verifyBalance(\r\n            IERC20(tokenU).balanceOf(msg.sender),\r\n            amount,\r\n            \"ERR_BAL_UNDERLYING\"\r\n        );\r\n        require(\r\n            IERC20(tokenU).transferFrom(msg.sender, tokenP, amount),\r\n            \"ERR_TRANSFER_IN_FAIL\"\r\n        );\r\n        (inTokenU, outTokenR) = IPrime(tokenP).mint(receiver);\r\n        emit Mint(msg.sender, inTokenU, outTokenR);\r\n    }\r\n\r\n    /**\r\n     * @dev Swaps tokenS to tokenU using ratio as the exchange rate.\r\n     * @notice Burns Prime, contract receives tokenS, user receives tokenU.\r\n     * Calls msg.sender with transferFrom.\r\n     * @param amount Quantity of Primes to use to swap.\r\n     */\r\n    function safeSwap(\r\n        address tokenP,\r\n        uint256 amount,\r\n        address receiver\r\n    )\r\n        external\r\n        nonReentrant\r\n        returns (uint256 inTokenS, uint256 inTokenP, uint256 outTokenU)\r\n    {\r\n        require(amount > 0, \"ERR_ZERO\");\r\n        address tokenS = IPrime(tokenP).tokenS();\r\n        verifyBalance(\r\n            IPrime(tokenP).balanceOf(msg.sender),\r\n            amount,\r\n            \"ERR_BAL_PRIME\"\r\n        );\r\n\r\n        inTokenS = amount.mul(IPrime(tokenP).price()).div(IPrime(tokenP).base());\r\n        verifyBalance(\r\n            IERC20(tokenS).balanceOf(msg.sender),\r\n            inTokenS,\r\n            \"ERR_BAL_STRIKE\"\r\n        );\r\n        (bool inTransferS) = IERC20(tokenS).transferFrom(msg.sender, tokenP, inTokenS);\r\n        (bool inTransferP) = IPrime(tokenP).transferFrom(msg.sender, tokenP, amount);\r\n        require(inTransferS && inTransferP, \"ERR_TRANSFER_IN_FAIL\");\r\n        (inTokenS, inTokenP, outTokenU) = IPrime(tokenP).swap(receiver);\r\n        emit Swap(msg.sender, outTokenU, inTokenS);\r\n    }\r\n\r\n    /**\r\n     * @dev Burns Prime Redeem tokens to withdraw available tokenS.\r\n     * @param amount Quantity of Prime Redeem to spend.\r\n     */\r\n    function safeRedeem(\r\n        address tokenP,\r\n        uint256 amount,\r\n        address receiver\r\n    )\r\n        external\r\n        nonReentrant\r\n        returns (uint256 inTokenR)\r\n    {\r\n        require(amount > 0, \"ERR_ZERO\");\r\n        address tokenS = IPrime(tokenP).tokenS();\r\n        address tokenR = IPrime(tokenP).tokenR();\r\n\r\n        verifyBalance(\r\n            IERC20(tokenR).balanceOf(msg.sender),\r\n            amount,\r\n            \"ERR_BAL_REDEEM\"\r\n        );\r\n\r\n        // There can be the case there is no available tokenS to redeem.\r\n        // This is the first verification of a tokenS balance to draw from.\r\n        // There is a second verification in the redeem() function.\r\n        verifyBalance(\r\n            IERC20(tokenS).balanceOf(tokenP),\r\n            amount,\r\n            \"ERR_BAL_STRIKE\"\r\n        );\r\n        require(\r\n            IERC20(tokenR).transferFrom(msg.sender, tokenP, amount),\r\n            \"ERR_TRANSFER_IN_FAIL\"\r\n        );\r\n        (inTokenR) = IPrime(tokenP).redeem(receiver);\r\n        emit Redeem(msg.sender, inTokenR);\r\n    }\r\n\r\n    /**\r\n     * @dev Burn Prime and Prime Redeem tokens to withdraw tokenU.\r\n     * @notice Takes paramter for quantity of Primes to burn.\r\n     * The Prime Redeems to burn is equal to the Primes * ratio.\r\n     * @param amount Quantity of Primes to burn.\r\n     */\r\n    function safeClose(\r\n        address tokenP,\r\n        uint256 amount,\r\n        address receiver\r\n    )\r\n        external\r\n        nonReentrant\r\n        returns (uint256 inTokenR, uint256 inTokenP, uint256 outTokenU)\r\n    {\r\n        require(amount > 0, \"ERR_ZERO\");\r\n        address tokenR = IPrime(tokenP).tokenR();\r\n\r\n        inTokenR = amount.mul(IPrime(tokenP).price()).div(IPrime(tokenP).base());\r\n\r\n        verifyBalance(\r\n            IERC20(tokenR).balanceOf(msg.sender),\r\n            inTokenR,\r\n            \"ERR_BAL_REDEEM\"\r\n        );\r\n\r\n        verifyBalance(\r\n            IPrime(tokenP).balanceOf(msg.sender),\r\n            amount,\r\n            \"ERR_BAL_PRIME\"\r\n        );\r\n\r\n        (bool inTransferR) = IERC20(tokenR).transferFrom(msg.sender, tokenP, inTokenR);\r\n        (bool inTransferP) = IPrime(tokenP).transferFrom(msg.sender, tokenP, amount);\r\n        require(inTransferR && inTransferP, \"ERR_TRANSFER_IN_FAIL\");\r\n        (inTokenR, inTokenP, outTokenU) = IPrime(tokenP).close(receiver);\r\n        emit Close(msg.sender, inTokenP);\r\n    }\r\n\r\n    /**\r\n     * @dev Burn Prime Redeem tokens to withdraw tokenU and tokenS from expired options.\r\n     * @notice Takes paramter for quantity of Primes to burn.\r\n     * The Prime Redeems to burn is equal to the Primes * ratio.\r\n     * @param amount Quantity of tokenU to withdraw.\r\n     */\r\n    function safeUnwind(\r\n        address tokenP,\r\n        uint256 amount,\r\n        address receiver\r\n    )\r\n        external\r\n        nonReentrant\r\n        returns (uint256 inTokenR, uint256 inTokenP, uint256 outTokenU)\r\n    {\r\n        require(amount > 0, \"ERR_ZERO\");\r\n        require(IPrime(tokenP).expiry() < block.timestamp, \"ERR_NOT_EXPIRED\");\r\n        address tokenR = IPrime(tokenP).tokenR();\r\n\r\n        inTokenR = amount.mul(IPrime(tokenP).price()).div(IPrime(tokenP).base());\r\n\r\n        verifyBalance(\r\n            IERC20(tokenR).balanceOf(msg.sender),\r\n            inTokenR,\r\n            \"ERR_BAL_REDEEM\"\r\n        );\r\n\r\n        (bool inTransferR) = IERC20(tokenR).transferFrom(msg.sender, tokenP, inTokenR);\r\n        require(inTransferR, \"ERR_TRANSFER_IN_FAIL\");\r\n        (inTokenR, inTokenP, outTokenU) = IPrime(tokenP).close(receiver);\r\n        emit Close(msg.sender, inTokenP);\r\n    }\r\n\r\n    function verifyBalance(\r\n        uint256 balance,\r\n        uint256 minBalance,\r\n        string memory errorCode\r\n    ) internal pure {\r\n        minBalance == 0 ?\r\n            require(balance > minBalance, errorCode) :\r\n            require(balance >= minBalance, errorCode);\r\n    }\r\n}",
  "sourcePath": "C:\\Users\\alexa\\OneDrive\\Documents\\Master\\Blockchain\\Projects\\carbon\\contracts\\PrimeTrader.sol",
  "compiler": {
    "name": "solc",
    "version": "0.6.2+commit.bacdbe57.Emscripten.clang"
  },
  "schemaVersion": "3.0.23",
  "updatedAt": "2020-05-01T02:08:26.736Z",
  "devdoc": {
    "methods": {
      "safeClose(address,uint256,address)": {
        "details": "Burn Prime and Prime Redeem tokens to withdraw tokenU.",
        "params": {
          "amount": "Quantity of Primes to burn."
        }
      },
      "safeMint(address,uint256,address)": {
        "details": "Mint Primes by depositing tokenU.",
        "params": {
          "amount": "Quantity of Prime options to mint and tokenU to deposit.",
          "receiver": "The newly minted tokens are sent to the receiver address.",
          "tokenP": "The address of the Prime Option to trade with."
        }
      },
      "safeRedeem(address,uint256,address)": {
        "details": "Burns Prime Redeem tokens to withdraw available tokenS.",
        "params": {
          "amount": "Quantity of Prime Redeem to spend."
        }
      },
      "safeSwap(address,uint256,address)": {
        "details": "Swaps tokenS to tokenU using ratio as the exchange rate.",
        "params": {
          "amount": "Quantity of Primes to use to swap."
        }
      },
      "safeUnwind(address,uint256,address)": {
        "details": "Burn Prime Redeem tokens to withdraw tokenU and tokenS from expired options.",
        "params": {
          "amount": "Quantity of tokenU to withdraw."
        }
      }
    }
  },
  "userdoc": {
    "methods": {
      "safeClose(address,uint256,address)": {
        "notice": "Takes paramter for quantity of Primes to burn. The Prime Redeems to burn is equal to the Primes * ratio."
      },
      "safeMint(address,uint256,address)": {
        "notice": "Also mints Prime Redeem tokens. Calls msg.sender with transferFrom."
      },
      "safeSwap(address,uint256,address)": {
        "notice": "Burns Prime, contract receives tokenS, user receives tokenU. Calls msg.sender with transferFrom."
      },
      "safeUnwind(address,uint256,address)": {
        "notice": "Takes paramter for quantity of Primes to burn. The Prime Redeems to burn is equal to the Primes * ratio."
      }
    }
  }
}