{
  "contractName": "PrimePool",
  "abi": [
    {
      "inputs": [
        {
          "internalType": "address payable",
          "name": "_weth",
          "type": "address"
        },
        {
          "internalType": "address",
          "name": "_oracle",
          "type": "address"
        },
        {
          "internalType": "string",
          "name": "name",
          "type": "string"
        },
        {
          "internalType": "string",
          "name": "symbol",
          "type": "string"
        },
        {
          "internalType": "address",
          "name": "_tokenU",
          "type": "address"
        },
        {
          "internalType": "address",
          "name": "_tokenS",
          "type": "address"
        }
      ],
      "stateMutability": "nonpayable",
      "type": "constructor"
    },
    {
      "anonymous": false,
      "inputs": [
        {
          "indexed": true,
          "internalType": "address",
          "name": "owner",
          "type": "address"
        },
        {
          "indexed": true,
          "internalType": "address",
          "name": "spender",
          "type": "address"
        },
        {
          "indexed": false,
          "internalType": "uint256",
          "name": "value",
          "type": "uint256"
        }
      ],
      "name": "Approval",
      "type": "event"
    },
    {
      "anonymous": false,
      "inputs": [
        {
          "indexed": true,
          "internalType": "address",
          "name": "user",
          "type": "address"
        },
        {
          "indexed": false,
          "internalType": "uint256",
          "name": "inTokenS",
          "type": "uint256"
        },
        {
          "indexed": false,
          "internalType": "uint256",
          "name": "outTokenU",
          "type": "uint256"
        },
        {
          "indexed": false,
          "internalType": "uint256",
          "name": "premium",
          "type": "uint256"
        }
      ],
      "name": "Buy",
      "type": "event"
    },
    {
      "anonymous": false,
      "inputs": [
        {
          "indexed": true,
          "internalType": "address",
          "name": "user",
          "type": "address"
        },
        {
          "indexed": false,
          "internalType": "uint256",
          "name": "inTokenU",
          "type": "uint256"
        },
        {
          "indexed": false,
          "internalType": "uint256",
          "name": "outTokenPULP",
          "type": "uint256"
        }
      ],
      "name": "Deposit",
      "type": "event"
    },
    {
      "anonymous": false,
      "inputs": [
        {
          "indexed": false,
          "internalType": "uint256",
          "name": "cacheU",
          "type": "uint256"
        },
        {
          "indexed": false,
          "internalType": "uint256",
          "name": "cacheS",
          "type": "uint256"
        },
        {
          "indexed": false,
          "internalType": "uint256",
          "name": "cacheR",
          "type": "uint256"
        }
      ],
      "name": "Fund",
      "type": "event"
    },
    {
      "anonymous": false,
      "inputs": [
        {
          "indexed": false,
          "internalType": "address",
          "name": "tokenP",
          "type": "address"
        }
      ],
      "name": "Market",
      "type": "event"
    },
    {
      "anonymous": false,
      "inputs": [
        {
          "indexed": true,
          "internalType": "address",
          "name": "previousOwner",
          "type": "address"
        },
        {
          "indexed": true,
          "internalType": "address",
          "name": "newOwner",
          "type": "address"
        }
      ],
      "name": "OwnershipTransferred",
      "type": "event"
    },
    {
      "anonymous": false,
      "inputs": [
        {
          "indexed": false,
          "internalType": "address",
          "name": "account",
          "type": "address"
        }
      ],
      "name": "Paused",
      "type": "event"
    },
    {
      "anonymous": false,
      "inputs": [
        {
          "indexed": true,
          "internalType": "address",
          "name": "from",
          "type": "address"
        },
        {
          "indexed": true,
          "internalType": "address",
          "name": "to",
          "type": "address"
        },
        {
          "indexed": false,
          "internalType": "uint256",
          "name": "value",
          "type": "uint256"
        }
      ],
      "name": "Transfer",
      "type": "event"
    },
    {
      "anonymous": false,
      "inputs": [
        {
          "indexed": false,
          "internalType": "address",
          "name": "account",
          "type": "address"
        }
      ],
      "name": "Unpaused",
      "type": "event"
    },
    {
      "anonymous": false,
      "inputs": [
        {
          "indexed": true,
          "internalType": "address",
          "name": "user",
          "type": "address"
        },
        {
          "indexed": false,
          "internalType": "uint256",
          "name": "outTokenU",
          "type": "uint256"
        },
        {
          "indexed": false,
          "internalType": "uint256",
          "name": "inTokenR",
          "type": "uint256"
        }
      ],
      "name": "Withdraw",
      "type": "event"
    },
    {
      "inputs": [],
      "name": "FIVE_HUNDRED_BPS",
      "outputs": [
        {
          "internalType": "uint256",
          "name": "",
          "type": "uint256"
        }
      ],
      "stateMutability": "view",
      "type": "function"
    },
    {
      "inputs": [],
      "name": "ONE_HUNDRED_BPS",
      "outputs": [
        {
          "internalType": "uint256",
          "name": "",
          "type": "uint256"
        }
      ],
      "stateMutability": "view",
      "type": "function"
    },
    {
      "inputs": [],
      "name": "THOUSAND_BPS",
      "outputs": [
        {
          "internalType": "uint256",
          "name": "",
          "type": "uint256"
        }
      ],
      "stateMutability": "view",
      "type": "function"
    },
    {
      "inputs": [
        {
          "internalType": "uint256",
          "name": "",
          "type": "uint256"
        }
      ],
      "name": "_optionMarkets",
      "outputs": [
        {
          "internalType": "address",
          "name": "",
          "type": "address"
        }
      ],
      "stateMutability": "view",
      "type": "function"
    },
    {
      "inputs": [
        {
          "internalType": "address",
          "name": "owner",
          "type": "address"
        },
        {
          "internalType": "address",
          "name": "spender",
          "type": "address"
        }
      ],
      "name": "allowance",
      "outputs": [
        {
          "internalType": "uint256",
          "name": "",
          "type": "uint256"
        }
      ],
      "stateMutability": "view",
      "type": "function"
    },
    {
      "inputs": [
        {
          "internalType": "address",
          "name": "spender",
          "type": "address"
        },
        {
          "internalType": "uint256",
          "name": "amount",
          "type": "uint256"
        }
      ],
      "name": "approve",
      "outputs": [
        {
          "internalType": "bool",
          "name": "",
          "type": "bool"
        }
      ],
      "stateMutability": "nonpayable",
      "type": "function"
    },
    {
      "inputs": [
        {
          "internalType": "address",
          "name": "account",
          "type": "address"
        }
      ],
      "name": "balanceOf",
      "outputs": [
        {
          "internalType": "uint256",
          "name": "",
          "type": "uint256"
        }
      ],
      "stateMutability": "view",
      "type": "function"
    },
    {
      "inputs": [],
      "name": "cacheR",
      "outputs": [
        {
          "internalType": "uint256",
          "name": "",
          "type": "uint256"
        }
      ],
      "stateMutability": "view",
      "type": "function"
    },
    {
      "inputs": [],
      "name": "cacheS",
      "outputs": [
        {
          "internalType": "uint256",
          "name": "",
          "type": "uint256"
        }
      ],
      "stateMutability": "view",
      "type": "function"
    },
    {
      "inputs": [],
      "name": "cacheU",
      "outputs": [
        {
          "internalType": "uint256",
          "name": "",
          "type": "uint256"
        }
      ],
      "stateMutability": "view",
      "type": "function"
    },
    {
      "inputs": [],
      "name": "decimals",
      "outputs": [
        {
          "internalType": "uint8",
          "name": "",
          "type": "uint8"
        }
      ],
      "stateMutability": "view",
      "type": "function"
    },
    {
      "inputs": [
        {
          "internalType": "address",
          "name": "spender",
          "type": "address"
        },
        {
          "internalType": "uint256",
          "name": "subtractedValue",
          "type": "uint256"
        }
      ],
      "name": "decreaseAllowance",
      "outputs": [
        {
          "internalType": "bool",
          "name": "",
          "type": "bool"
        }
      ],
      "stateMutability": "nonpayable",
      "type": "function"
    },
    {
      "inputs": [
        {
          "internalType": "address",
          "name": "spender",
          "type": "address"
        },
        {
          "internalType": "uint256",
          "name": "addedValue",
          "type": "uint256"
        }
      ],
      "name": "increaseAllowance",
      "outputs": [
        {
          "internalType": "bool",
          "name": "",
          "type": "bool"
        }
      ],
      "stateMutability": "nonpayable",
      "type": "function"
    },
    {
      "inputs": [
        {
          "internalType": "address",
          "name": "",
          "type": "address"
        }
      ],
      "name": "isValidOption",
      "outputs": [
        {
          "internalType": "bool",
          "name": "",
          "type": "bool"
        }
      ],
      "stateMutability": "view",
      "type": "function"
    },
    {
      "inputs": [],
      "name": "name",
      "outputs": [
        {
          "internalType": "string",
          "name": "",
          "type": "string"
        }
      ],
      "stateMutability": "view",
      "type": "function"
    },
    {
      "inputs": [],
      "name": "oracle",
      "outputs": [
        {
          "internalType": "contract AggregatorInterface",
          "name": "",
          "type": "address"
        }
      ],
      "stateMutability": "view",
      "type": "function"
    },
    {
      "inputs": [],
      "name": "owner",
      "outputs": [
        {
          "internalType": "address",
          "name": "",
          "type": "address"
        }
      ],
      "stateMutability": "view",
      "type": "function"
    },
    {
      "inputs": [],
      "name": "paused",
      "outputs": [
        {
          "internalType": "bool",
          "name": "",
          "type": "bool"
        }
      ],
      "stateMutability": "view",
      "type": "function"
    },
    {
      "inputs": [],
      "name": "renounceOwnership",
      "outputs": [],
      "stateMutability": "nonpayable",
      "type": "function"
    },
    {
      "inputs": [],
      "name": "symbol",
      "outputs": [
        {
          "internalType": "string",
          "name": "",
          "type": "string"
        }
      ],
      "stateMutability": "view",
      "type": "function"
    },
    {
      "inputs": [],
      "name": "tokenR",
      "outputs": [
        {
          "internalType": "address",
          "name": "",
          "type": "address"
        }
      ],
      "stateMutability": "view",
      "type": "function"
    },
    {
      "inputs": [],
      "name": "tokenS",
      "outputs": [
        {
          "internalType": "address",
          "name": "",
          "type": "address"
        }
      ],
      "stateMutability": "view",
      "type": "function"
    },
    {
      "inputs": [],
      "name": "tokenU",
      "outputs": [
        {
          "internalType": "address",
          "name": "",
          "type": "address"
        }
      ],
      "stateMutability": "view",
      "type": "function"
    },
    {
      "inputs": [],
      "name": "totalSupply",
      "outputs": [
        {
          "internalType": "uint256",
          "name": "",
          "type": "uint256"
        }
      ],
      "stateMutability": "view",
      "type": "function"
    },
    {
      "inputs": [
        {
          "internalType": "address",
          "name": "recipient",
          "type": "address"
        },
        {
          "internalType": "uint256",
          "name": "amount",
          "type": "uint256"
        }
      ],
      "name": "transfer",
      "outputs": [
        {
          "internalType": "bool",
          "name": "",
          "type": "bool"
        }
      ],
      "stateMutability": "nonpayable",
      "type": "function"
    },
    {
      "inputs": [
        {
          "internalType": "address",
          "name": "sender",
          "type": "address"
        },
        {
          "internalType": "address",
          "name": "recipient",
          "type": "address"
        },
        {
          "internalType": "uint256",
          "name": "amount",
          "type": "uint256"
        }
      ],
      "name": "transferFrom",
      "outputs": [
        {
          "internalType": "bool",
          "name": "",
          "type": "bool"
        }
      ],
      "stateMutability": "nonpayable",
      "type": "function"
    },
    {
      "inputs": [
        {
          "internalType": "address",
          "name": "newOwner",
          "type": "address"
        }
      ],
      "name": "transferOwnership",
      "outputs": [],
      "stateMutability": "nonpayable",
      "type": "function"
    },
    {
      "inputs": [],
      "name": "weth",
      "outputs": [
        {
          "internalType": "address payable",
          "name": "",
          "type": "address"
        }
      ],
      "stateMutability": "view",
      "type": "function"
    },
    {
      "stateMutability": "payable",
      "type": "receive"
    },
    {
      "inputs": [],
      "name": "assets",
      "outputs": [
        {
          "internalType": "address",
          "name": "_tokenU",
          "type": "address"
        },
        {
          "internalType": "address",
          "name": "_tokenS",
          "type": "address"
        }
      ],
      "stateMutability": "view",
      "type": "function"
    },
    {
      "inputs": [
        {
          "internalType": "address",
          "name": "tokenP",
          "type": "address"
        }
      ],
      "name": "addMarket",
      "outputs": [
        {
          "internalType": "address",
          "name": "",
          "type": "address"
        }
      ],
      "stateMutability": "nonpayable",
      "type": "function"
    },
    {
      "inputs": [
        {
          "internalType": "uint256",
          "name": "amount",
          "type": "uint256"
        }
      ],
      "name": "deposit",
      "outputs": [
        {
          "internalType": "bool",
          "name": "",
          "type": "bool"
        }
      ],
      "stateMutability": "payable",
      "type": "function"
    },
    {
      "inputs": [
        {
          "internalType": "uint256",
          "name": "amount",
          "type": "uint256"
        },
        {
          "internalType": "address",
          "name": "tokenP",
          "type": "address"
        }
      ],
      "name": "withdraw",
      "outputs": [
        {
          "internalType": "bool",
          "name": "",
          "type": "bool"
        }
      ],
      "stateMutability": "nonpayable",
      "type": "function"
    },
    {
      "inputs": [
        {
          "internalType": "uint256",
          "name": "amount",
          "type": "uint256"
        },
        {
          "internalType": "address",
          "name": "tokenP",
          "type": "address"
        }
      ],
      "name": "buy",
      "outputs": [
        {
          "internalType": "bool",
          "name": "",
          "type": "bool"
        }
      ],
      "stateMutability": "payable",
      "type": "function"
    }
  ],
  "bytecode": "0x60806040523480156200001157600080fd5b5060405162004c2a38038062004c2a833981810160405260c08110156200003757600080fd5b810190808051906020019092919080519060200190929190805160405193929190846401000000008211156200006c57600080fd5b838201915060208201858111156200008357600080fd5b8251866001820283011164010000000082111715620000a157600080fd5b8083526020830192505050908051906020019080838360005b83811015620000d7578082015181840152602081019050620000ba565b50505050905090810190601f168015620001055780820380516001836020036101000a031916815260200191505b50604052602001805160405193929190846401000000008211156200012957600080fd5b838201915060208201858111156200014057600080fd5b82518660018202830111640100000000821117156200015e57600080fd5b8083526020830192505050908051906020019080838360005b838110156200019457808201518184015260208101905062000177565b50505050905090810190601f168015620001c25780820380516001836020036101000a031916815260200191505b50604052602001805190602001909291908051906020019092919050505083836000620001f46200042760201b60201c565b9050806000806101000a81548173ffffffffffffffffffffffffffffffffffffffff021916908373ffffffffffffffffffffffffffffffffffffffff1602179055508073ffffffffffffffffffffffffffffffffffffffff16600073ffffffffffffffffffffffffffffffffffffffff167f8be0079c531659141344cd1fd0a4f28419497f9722a3daafe3b4186f6b6457e060405160405180910390a35060008060146101000a81548160ff0219169083151502179055506001600060156101000a81548160ff0219169083151502179055508160049080519060200190620002df9291906200042f565b508060059080519060200190620002f89291906200042f565b506012600660006101000a81548160ff021916908360ff160217905550505084600660016101000a81548173ffffffffffffffffffffffffffffffffffffffff021916908373ffffffffffffffffffffffffffffffffffffffff16021790555085600a60006101000a81548173ffffffffffffffffffffffffffffffffffffffff021916908373ffffffffffffffffffffffffffffffffffffffff16021790555081600760006101000a81548173ffffffffffffffffffffffffffffffffffffffff021916908373ffffffffffffffffffffffffffffffffffffffff16021790555080600860006101000a81548173ffffffffffffffffffffffffffffffffffffffff021916908373ffffffffffffffffffffffffffffffffffffffff160217905550505050505050620004de565b600033905090565b828054600181600116156101000203166002900490600052602060002090601f016020900481019282601f106200047257805160ff1916838001178555620004a3565b82800160010185558215620004a3579182015b82811115620004a257825182559160200191906001019062000485565b5b509050620004b29190620004b6565b5090565b620004db91905b80821115620004d7576000816000905550600101620004bd565b5090565b90565b61473c80620004ee6000396000f3fe6080604052600436106101f15760003560e01c806371a973051161010d578063a457c2d7116100a0578063c4b3af9c1161006f578063c4b3af9c14610c83578063dd62ed3e14610cae578063ef57128e14610d33578063f1e34fbb14610d5e578063f2fde38b14610d895761024f565b8063a457c2d714610b2c578063a9059cbb14610b9f578063b6b55f2514610c12578063b8e2be9b14610c585761024f565b80638da5cb5b116100dc5780638da5cb5b1461098957806393e30633146109e057806395d89b4114610a71578063975f081314610b015761024f565b806371a97305146107c75780637b3b67f1146108515780637dc0d1d0146108cc5780637deb6025146109235761024f565b8063313ce567116101855780635c975abb116101545780635c975abb146106c557806360f88035146106f457806370a082311461074b578063715018a6146107b05761024f565b8063313ce5671461057357806339509351146105a45780633fc8cef3146106175780634a244e541461066e5761024f565b80630f53ad57116101c15780630f53ad571461042157806318160ddd1461044c5780631a7db9c41461047757806323b872dd146104e05761024f565b8062f714ce1461025457806306fdde03146102c75780630727d5d214610357578063095ea7b3146103ae5761024f565b3661024f57600a60009054906101000a900473ffffffffffffffffffffffffffffffffffffffff1673ffffffffffffffffffffffffffffffffffffffff163373ffffffffffffffffffffffffffffffffffffffff161461024d57fe5b005b600080fd5b34801561026057600080fd5b506102ad6004803603604081101561027757600080fd5b8101908080359060200190929190803573ffffffffffffffffffffffffffffffffffffffff169060200190929190505050610dda565b604051808215151515815260200191505060405180910390f35b3480156102d357600080fd5b506102dc6117a6565b6040518080602001828103825283818151815260200191508051906020019080838360005b8381101561031c578082015181840152602081019050610301565b50505050905090810190601f1680156103495780820380516001836020036101000a031916815260200191505b509250505060405180910390f35b34801561036357600080fd5b5061036c611848565b604051808273ffffffffffffffffffffffffffffffffffffffff1673ffffffffffffffffffffffffffffffffffffffff16815260200191505060405180910390f35b3480156103ba57600080fd5b50610407600480360360408110156103d157600080fd5b81019080803573ffffffffffffffffffffffffffffffffffffffff1690602001909291908035906020019092919050505061186e565b604051808215151515815260200191505060405180910390f35b34801561042d57600080fd5b5061043661188c565b6040518082815260200191505060405180910390f35b34801561045857600080fd5b50610461611892565b6040518082815260200191505060405180910390f35b34801561048357600080fd5b506104c66004803603602081101561049a57600080fd5b81019080803573ffffffffffffffffffffffffffffffffffffffff16906020019092919050505061189c565b604051808215151515815260200191505060405180910390f35b3480156104ec57600080fd5b506105596004803603606081101561050357600080fd5b81019080803573ffffffffffffffffffffffffffffffffffffffff169060200190929190803573ffffffffffffffffffffffffffffffffffffffff169060200190929190803590602001909291905050506118bc565b604051808215151515815260200191505060405180910390f35b34801561057f57600080fd5b50610588611995565b604051808260ff1660ff16815260200191505060405180910390f35b3480156105b057600080fd5b506105fd600480360360408110156105c757600080fd5b81019080803573ffffffffffffffffffffffffffffffffffffffff169060200190929190803590602001909291905050506119ac565b604051808215151515815260200191505060405180910390f35b34801561062357600080fd5b5061062c611a5f565b604051808273ffffffffffffffffffffffffffffffffffffffff1673ffffffffffffffffffffffffffffffffffffffff16815260200191505060405180910390f35b34801561067a57600080fd5b50610683611a85565b604051808273ffffffffffffffffffffffffffffffffffffffff1673ffffffffffffffffffffffffffffffffffffffff16815260200191505060405180910390f35b3480156106d157600080fd5b506106da611aab565b604051808215151515815260200191505060405180910390f35b34801561070057600080fd5b50610709611ac1565b604051808273ffffffffffffffffffffffffffffffffffffffff1673ffffffffffffffffffffffffffffffffffffffff16815260200191505060405180910390f35b34801561075757600080fd5b5061079a6004803603602081101561076e57600080fd5b81019080803573ffffffffffffffffffffffffffffffffffffffff169060200190929190505050611ae7565b6040518082815260200191505060405180910390f35b3480156107bc57600080fd5b506107c5611b30565b005b3480156107d357600080fd5b506107dc611cb8565b604051808373ffffffffffffffffffffffffffffffffffffffff1673ffffffffffffffffffffffffffffffffffffffff1681526020018273ffffffffffffffffffffffffffffffffffffffff1673ffffffffffffffffffffffffffffffffffffffff1681526020019250505060405180910390f35b34801561085d57600080fd5b5061088a6004803603602081101561087457600080fd5b8101908080359060200190929190505050611d09565b604051808273ffffffffffffffffffffffffffffffffffffffff1673ffffffffffffffffffffffffffffffffffffffff16815260200191505060405180910390f35b3480156108d857600080fd5b506108e1611d45565b604051808273ffffffffffffffffffffffffffffffffffffffff1673ffffffffffffffffffffffffffffffffffffffff16815260200191505060405180910390f35b61096f6004803603604081101561093957600080fd5b8101908080359060200190929190803573ffffffffffffffffffffffffffffffffffffffff169060200190929190505050611d6b565b604051808215151515815260200191505060405180910390f35b34801561099557600080fd5b5061099e612829565b604051808273ffffffffffffffffffffffffffffffffffffffff1673ffffffffffffffffffffffffffffffffffffffff16815260200191505060405180910390f35b3480156109ec57600080fd5b50610a2f60048036036020811015610a0357600080fd5b81019080803573ffffffffffffffffffffffffffffffffffffffff169060200190929190505050612852565b604051808273ffffffffffffffffffffffffffffffffffffffff1673ffffffffffffffffffffffffffffffffffffffff16815260200191505060405180910390f35b348015610a7d57600080fd5b50610a86612dbb565b6040518080602001828103825283818151815260200191508051906020019080838360005b83811015610ac6578082015181840152602081019050610aab565b50505050905090810190601f168015610af35780820380516001836020036101000a031916815260200191505b509250505060405180910390f35b348015610b0d57600080fd5b50610b16612e5d565b6040518082815260200191505060405180910390f35b348015610b3857600080fd5b50610b8560048036036040811015610b4f57600080fd5b81019080803573ffffffffffffffffffffffffffffffffffffffff16906020019092919080359060200190929190505050612e62565b604051808215151515815260200191505060405180910390f35b348015610bab57600080fd5b50610bf860048036036040811015610bc257600080fd5b81019080803573ffffffffffffffffffffffffffffffffffffffff16906020019092919080359060200190929190505050612f2f565b604051808215151515815260200191505060405180910390f35b610c3e60048036036020811015610c2857600080fd5b8101908080359060200190929190505050612f4d565b604051808215151515815260200191505060405180910390f35b348015610c6457600080fd5b50610c6d613603565b6040518082815260200191505060405180910390f35b348015610c8f57600080fd5b50610c98613608565b6040518082815260200191505060405180910390f35b348015610cba57600080fd5b50610d1d60048036036040811015610cd157600080fd5b81019080803573ffffffffffffffffffffffffffffffffffffffff169060200190929190803573ffffffffffffffffffffffffffffffffffffffff16906020019092919050505061360d565b6040518082815260200191505060405180910390f35b348015610d3f57600080fd5b50610d48613694565b6040518082815260200191505060405180910390f35b348015610d6a57600080fd5b50610d7361369a565b6040518082815260200191505060405180910390f35b348015610d9557600080fd5b50610dd860048036036020811015610dac57600080fd5b81019080803573ffffffffffffffffffffffffffffffffffffffff1690602001909291905050506136a0565b005b60008060159054906101000a900460ff16610e5d576040517f08c379a000000000000000000000000000000000000000000000000000000000815260040180806020018281038252601f8152602001807f5265656e7472616e637947756172643a207265656e7472616e742063616c6c0081525060200191505060405180910390fd5b60008060156101000a81548160ff02191690831515021790555082610e8133611ae7565b10158015610e8f5750600083115b610f01576040517f08c379a000000000000000000000000000000000000000000000000000000000815260040180806020018281038252600c8152602001807f4552525f42414c5f50554c50000000000000000000000000000000000000000081525060200191505060405180910390fd5b610f0b33846138ad565b6000600760009054906101000a900473ffffffffffffffffffffffffffffffffffffffff1690506000600860009054906101000a900473ffffffffffffffffffffffffffffffffffffffff1690506000600960009054906101000a900473ffffffffffffffffffffffffffffffffffffffff1690506000610f8a611892565b905060008473ffffffffffffffffffffffffffffffffffffffff166370a08231306040518263ffffffff1660e01b8152600401808273ffffffffffffffffffffffffffffffffffffffff1673ffffffffffffffffffffffffffffffffffffffff16815260200191505060206040518083038186803b15801561100b57600080fd5b505afa15801561101f573d6000803e3d6000fd5b505050506040513d602081101561103557600080fd5b81019080805190602001909291905050509050600061107183611063600d548c613a7390919063ffffffff16565b613af990919063ffffffff16565b9050600061109c8461108e600c548d613a7390919063ffffffff16565b613af990919063ffffffff16565b905060008973ffffffffffffffffffffffffffffffffffffffff16634e11482f6040518163ffffffff1660e01b815260040160206040518083038186803b1580156110e657600080fd5b505afa1580156110fa573d6000803e3d6000fd5b505050506040513d602081101561111057600080fd5b8101908080519060200190929190505050905081811015611199576040517f08c379a000000000000000000000000000000000000000000000000000000000815260040180806020018281038252600e8152602001807f4552525f42414c5f535452494b4500000000000000000000000000000000000081525060200191505060405180910390fd5b8573ffffffffffffffffffffffffffffffffffffffff1663a9059cbb8b846040518363ffffffff1660e01b8152600401808373ffffffffffffffffffffffffffffffffffffffff1673ffffffffffffffffffffffffffffffffffffffff16815260200182815260200192505050602060405180830381600087803b15801561122057600080fd5b505af1158015611234573d6000803e3d6000fd5b505050506040513d602081101561124a57600080fd5b8101908080519060200190929190505050508773ffffffffffffffffffffffffffffffffffffffff166370a08231306040518263ffffffff1660e01b8152600401808273ffffffffffffffffffffffffffffffffffffffff1673ffffffffffffffffffffffffffffffffffffffff16815260200191505060206040518083038186803b1580156112d957600080fd5b505afa1580156112ed573d6000803e3d6000fd5b505050506040513d602081101561130357600080fd5b8101908080519060200190929190505050935060008773ffffffffffffffffffffffffffffffffffffffff166370a08231306040518263ffffffff1660e01b8152600401808273ffffffffffffffffffffffffffffffffffffffff1673ffffffffffffffffffffffffffffffffffffffff16815260200191505060206040518083038186803b15801561139557600080fd5b505afa1580156113a9573d6000803e3d6000fd5b505050506040513d60208110156113bf57600080fd5b8101908080519060200190929190505050905060008773ffffffffffffffffffffffffffffffffffffffff166370a08231306040518263ffffffff1660e01b8152600401808273ffffffffffffffffffffffffffffffffffffffff1673ffffffffffffffffffffffffffffffffffffffff16815260200191505060206040518083038186803b15801561145157600080fd5b505afa158015611465573d6000803e3d6000fd5b505050506040513d602081101561147b57600080fd5b81019080805190602001909291905050509050611499868383613b43565b3373ffffffffffffffffffffffffffffffffffffffff167ff279e6a1f5e320cca91135676d9cb6e44ca8a08c0b88342bcdb1144f6511b5688686604051808381526020018281526020019250505060405180910390a260008c73ffffffffffffffffffffffffffffffffffffffff166395a2251f336040518263ffffffff1660e01b8152600401808273ffffffffffffffffffffffffffffffffffffffff1673ffffffffffffffffffffffffffffffffffffffff168152602001915050602060405180830381600087803b15801561157057600080fd5b505af1158015611584573d6000803e3d6000fd5b505050506040513d602081101561159a57600080fd5b810190808051906020019092919050505090508481146115b657fe5b600a60009054906101000a900473ffffffffffffffffffffffffffffffffffffffff1673ffffffffffffffffffffffffffffffffffffffff168b73ffffffffffffffffffffffffffffffffffffffff1614156116b557600a60009054906101000a900473ffffffffffffffffffffffffffffffffffffffff1673ffffffffffffffffffffffffffffffffffffffff16632e1a7d4d876040518263ffffffff1660e01b815260040180828152602001915050600060405180830381600087803b15801561168157600080fd5b505af1158015611695573d6000803e3d6000fd5b505050506116a33387613baa565b9b505050505050505050505050611785565b8a73ffffffffffffffffffffffffffffffffffffffff1663a9059cbb33886040518363ffffffff1660e01b8152600401808373ffffffffffffffffffffffffffffffffffffffff1673ffffffffffffffffffffffffffffffffffffffff16815260200182815260200192505050602060405180830381600087803b15801561173c57600080fd5b505af1158015611750573d6000803e3d6000fd5b505050506040513d602081101561176657600080fd5b81019080805190602001909291905050509b5050505050505050505050505b6001600060156101000a81548160ff02191690831515021790555092915050565b606060048054600181600116156101000203166002900480601f01602080910402602001604051908101604052809291908181526020018280546001816001161561010002031660029004801561183e5780601f106118135761010080835404028352916020019161183e565b820191906000526020600020905b81548152906001019060200180831161182157829003601f168201915b5050505050905090565b600860009054906101000a900473ffffffffffffffffffffffffffffffffffffffff1681565b600061188261187b613c91565b8484613c99565b6001905092915050565b600c5481565b6000600354905090565b600f6020528060005260406000206000915054906101000a900460ff1681565b60006118c9848484613e90565b61198a846118d5613c91565b6119858560405180606001604052806028815260200161465060289139600260008b73ffffffffffffffffffffffffffffffffffffffff1673ffffffffffffffffffffffffffffffffffffffff168152602001908152602001600020600061193b613c91565b73ffffffffffffffffffffffffffffffffffffffff1673ffffffffffffffffffffffffffffffffffffffff168152602001908152602001600020546141559092919063ffffffff16565b613c99565b600190509392505050565b6000600660009054906101000a900460ff16905090565b6000611a556119b9613c91565b84611a5085600260006119ca613c91565b73ffffffffffffffffffffffffffffffffffffffff1673ffffffffffffffffffffffffffffffffffffffff16815260200190815260200160002060008973ffffffffffffffffffffffffffffffffffffffff1673ffffffffffffffffffffffffffffffffffffffff1681526020019081526020016000205461421590919063ffffffff16565b613c99565b6001905092915050565b600a60009054906101000a900473ffffffffffffffffffffffffffffffffffffffff1681565b600760009054906101000a900473ffffffffffffffffffffffffffffffffffffffff1681565b60008060149054906101000a900460ff16905090565b600960009054906101000a900473ffffffffffffffffffffffffffffffffffffffff1681565b6000600160008373ffffffffffffffffffffffffffffffffffffffff1673ffffffffffffffffffffffffffffffffffffffff168152602001908152602001600020549050919050565b611b38613c91565b73ffffffffffffffffffffffffffffffffffffffff166000809054906101000a900473ffffffffffffffffffffffffffffffffffffffff1673ffffffffffffffffffffffffffffffffffffffff1614611bf9576040517f08c379a00000000000000000000000000000000000000000000000000000000081526004018080602001828103825260208152602001807f4f776e61626c653a2063616c6c6572206973206e6f7420746865206f776e657281525060200191505060405180910390fd5b600073ffffffffffffffffffffffffffffffffffffffff166000809054906101000a900473ffffffffffffffffffffffffffffffffffffffff1673ffffffffffffffffffffffffffffffffffffffff167f8be0079c531659141344cd1fd0a4f28419497f9722a3daafe3b4186f6b6457e060405160405180910390a360008060006101000a81548173ffffffffffffffffffffffffffffffffffffffff021916908373ffffffffffffffffffffffffffffffffffffffff160217905550565b600080600760009054906101000a900473ffffffffffffffffffffffffffffffffffffffff169150600860009054906101000a900473ffffffffffffffffffffffffffffffffffffffff1690509091565b600b8181548110611d1657fe5b906000526020600020016000915054906101000a900473ffffffffffffffffffffffffffffffffffffffff1681565b600660019054906101000a900473ffffffffffffffffffffffffffffffffffffffff1681565b60008060159054906101000a900460ff16611dee576040517f08c379a000000000000000000000000000000000000000000000000000000000815260040180806020018281038252601f8152602001807f5265656e7472616e637947756172643a207265656e7472616e742063616c6c0081525060200191505060405180910390fd5b60008060156101000a81548160ff02191690831515021790555060008290506000600760009054906101000a900473ffffffffffffffffffffffffffffffffffffffff1690506000600860009054906101000a900473ffffffffffffffffffffffffffffffffffffffff1690506000611e71606488613af990919063ffffffff16565b9050600a60009054906101000a900473ffffffffffffffffffffffffffffffffffffffff1673ffffffffffffffffffffffffffffffffffffffff168273ffffffffffffffffffffffffffffffffffffffff161415611fd357803410158015611ed95750600081115b611f4b576040517f08c379a000000000000000000000000000000000000000000000000000000000815260040180806020018281038252600b8152602001807f4552525f42414c5f45544800000000000000000000000000000000000000000081525060200191505060405180910390fd5b600a60009054906101000a900473ffffffffffffffffffffffffffffffffffffffff1673ffffffffffffffffffffffffffffffffffffffff1663d0e30db0826040518263ffffffff1660e01b81526004016000604051808303818588803b158015611fb557600080fd5b505af1158015611fc9573d6000803e3d6000fd5b505050505061210d565b868273ffffffffffffffffffffffffffffffffffffffff166370a08231336040518263ffffffff1660e01b8152600401808273ffffffffffffffffffffffffffffffffffffffff1673ffffffffffffffffffffffffffffffffffffffff16815260200191505060206040518083038186803b15801561205157600080fd5b505afa158015612065573d6000803e3d6000fd5b505050506040513d602081101561207b57600080fd5b81019080805190602001909291905050501015801561209a5750600087115b61210c576040517f08c379a000000000000000000000000000000000000000000000000000000000815260040180806020018281038252600e8152602001807f4552525f42414c5f535452494b4500000000000000000000000000000000000081525060200191505060405180910390fd5b5b60008373ffffffffffffffffffffffffffffffffffffffff166370a08231306040518263ffffffff1660e01b8152600401808273ffffffffffffffffffffffffffffffffffffffff1673ffffffffffffffffffffffffffffffffffffffff16815260200191505060206040518083038186803b15801561218c57600080fd5b505afa1580156121a0573d6000803e3d6000fd5b505050506040513d60208110156121b657600080fd5b810190808051906020019092919050505090506000612278670de0b6b3a764000061226a8873ffffffffffffffffffffffffffffffffffffffff166371ca337d6040518163ffffffff1660e01b815260040160206040518083038186803b15801561222057600080fd5b505afa158015612234573d6000803e3d6000fd5b505050506040513d602081101561224a57600080fd5b81019080805190602001909291905050508c613a7390919063ffffffff16565b613af990919063ffffffff16565b9050808210156122f0576040517f08c379a00000000000000000000000000000000000000000000000000000000081526004018080602001828103825260128152602001807f4552525f42414c5f554e4445524c59494e47000000000000000000000000000081525060200191505060405180910390fd5b8473ffffffffffffffffffffffffffffffffffffffff1663a9059cbb87836040518363ffffffff1660e01b8152600401808373ffffffffffffffffffffffffffffffffffffffff1673ffffffffffffffffffffffffffffffffffffffff16815260200182815260200192505050602060405180830381600087803b15801561237757600080fd5b505af115801561238b573d6000803e3d6000fd5b505050506040513d60208110156123a157600080fd5b81019080805190602001909291905050505060008673ffffffffffffffffffffffffffffffffffffffff16636a627842306040518263ffffffff1660e01b8152600401808273ffffffffffffffffffffffffffffffffffffffff1673ffffffffffffffffffffffffffffffffffffffff1681526020019150506040805180830381600087803b15801561243357600080fd5b505af1158015612447573d6000803e3d6000fd5b505050506040513d604081101561245d57600080fd5b8101908080519060200190929190805190602001909291905050505090508673ffffffffffffffffffffffffffffffffffffffff1663a9059cbb33836040518363ffffffff1660e01b8152600401808373ffffffffffffffffffffffffffffffffffffffff1673ffffffffffffffffffffffffffffffffffffffff16815260200182815260200192505050602060405180830381600087803b15801561250257600080fd5b505af1158015612516573d6000803e3d6000fd5b505050506040513d602081101561252c57600080fd5b8101908080519060200190929190505050508573ffffffffffffffffffffffffffffffffffffffff166370a08231306040518263ffffffff1660e01b8152600401808273ffffffffffffffffffffffffffffffffffffffff1673ffffffffffffffffffffffffffffffffffffffff16815260200191505060206040518083038186803b1580156125bb57600080fd5b505afa1580156125cf573d6000803e3d6000fd5b505050506040513d60208110156125e557600080fd5b8101908080519060200190929190505050925060008573ffffffffffffffffffffffffffffffffffffffff166370a08231306040518263ffffffff1660e01b8152600401808273ffffffffffffffffffffffffffffffffffffffff1673ffffffffffffffffffffffffffffffffffffffff16815260200191505060206040518083038186803b15801561267757600080fd5b505afa15801561268b573d6000803e3d6000fd5b505050506040513d60208110156126a157600080fd5b810190808051906020019092919050505090506000600960009054906101000a900473ffffffffffffffffffffffffffffffffffffffff1673ffffffffffffffffffffffffffffffffffffffff166370a08231306040518263ffffffff1660e01b8152600401808273ffffffffffffffffffffffffffffffffffffffff1673ffffffffffffffffffffffffffffffffffffffff16815260200191505060206040518083038186803b15801561275557600080fd5b505afa158015612769573d6000803e3d6000fd5b505050506040513d602081101561277f57600080fd5b8101908080519060200190929190505050905061279d858383613b43565b3373ffffffffffffffffffffffffffffffffffffffff167fbeae048c6d270d9469f86cf6e8fedda3c60ad770f16c24c9fc131c8e9a09101d8d868960405180848152602001838152602001828152602001935050505060405180910390a2600199505050505050505050506001600060156101000a81548160ff02191690831515021790555092915050565b60008060009054906101000a900473ffffffffffffffffffffffffffffffffffffffff16905090565b600061285c613c91565b73ffffffffffffffffffffffffffffffffffffffff166000809054906101000a900473ffffffffffffffffffffffffffffffffffffffff1673ffffffffffffffffffffffffffffffffffffffff161461291d576040517f08c379a00000000000000000000000000000000000000000000000000000000081526004018080602001828103825260208152602001807f4f776e61626c653a2063616c6c6572206973206e6f7420746865206f776e657281525060200191505060405180910390fd5b6001600f60008473ffffffffffffffffffffffffffffffffffffffff1673ffffffffffffffffffffffffffffffffffffffff16815260200190815260200160002060006101000a81548160ff021916908315150217905550600b829080600181540180825580915050600190039060005260206000200160009091909190916101000a81548173ffffffffffffffffffffffffffffffffffffffff021916908373ffffffffffffffffffffffffffffffffffffffff16021790555060008273ffffffffffffffffffffffffffffffffffffffff166360f880356040518163ffffffff1660e01b815260040160206040518083038186803b158015612a2057600080fd5b505afa158015612a34573d6000803e3d6000fd5b505050506040513d6020811015612a4a57600080fd5b8101908080519060200190929190505050905080600960006101000a81548173ffffffffffffffffffffffffffffffffffffffff021916908373ffffffffffffffffffffffffffffffffffffffff160217905550600860009054906101000a900473ffffffffffffffffffffffffffffffffffffffff1673ffffffffffffffffffffffffffffffffffffffff1663095ea7b3846b033b2e3c9fd0803ce80000006040518363ffffffff1660e01b8152600401808373ffffffffffffffffffffffffffffffffffffffff1673ffffffffffffffffffffffffffffffffffffffff16815260200182815260200192505050602060405180830381600087803b158015612b5357600080fd5b505af1158015612b67573d6000803e3d6000fd5b505050506040513d6020811015612b7d57600080fd5b810190808051906020019092919050505050600760009054906101000a900473ffffffffffffffffffffffffffffffffffffffff1673ffffffffffffffffffffffffffffffffffffffff1663095ea7b3846b033b2e3c9fd0803ce80000006040518363ffffffff1660e01b8152600401808373ffffffffffffffffffffffffffffffffffffffff1673ffffffffffffffffffffffffffffffffffffffff16815260200182815260200192505050602060405180830381600087803b158015612c4457600080fd5b505af1158015612c58573d6000803e3d6000fd5b505050506040513d6020811015612c6e57600080fd5b8101908080519060200190929190505050508073ffffffffffffffffffffffffffffffffffffffff1663095ea7b3846b033b2e3c9fd0803ce80000006040518363ffffffff1660e01b8152600401808373ffffffffffffffffffffffffffffffffffffffff1673ffffffffffffffffffffffffffffffffffffffff16815260200182815260200192505050602060405180830381600087803b158015612d1357600080fd5b505af1158015612d27573d6000803e3d6000fd5b505050506040513d6020811015612d3d57600080fd5b8101908080519060200190929190505050507f10a6f3b321a2a208b61ef604cd6ef66d5d79ee16620737c0ca6cfc0649fcc94f83604051808273ffffffffffffffffffffffffffffffffffffffff1673ffffffffffffffffffffffffffffffffffffffff16815260200191505060405180910390a182915050919050565b606060058054600181600116156101000203166002900480601f016020809104026020016040519081016040528092919081815260200182805460018160011615610100020316600290048015612e535780601f10612e2857610100808354040283529160200191612e53565b820191906000526020600020905b815481529060010190602001808311612e3657829003601f168201915b5050505050905090565b601481565b6000612f25612e6f613c91565b84612f20856040518060600160405280602581526020016146e26025913960026000612e99613c91565b73ffffffffffffffffffffffffffffffffffffffff1673ffffffffffffffffffffffffffffffffffffffff16815260200190815260200160002060008a73ffffffffffffffffffffffffffffffffffffffff1673ffffffffffffffffffffffffffffffffffffffff168152602001908152602001600020546141559092919063ffffffff16565b613c99565b6001905092915050565b6000612f43612f3c613c91565b8484613e90565b6001905092915050565b60008060149054906101000a900460ff1615612fd1576040517f08c379a00000000000000000000000000000000000000000000000000000000081526004018080602001828103825260108152602001807f5061757361626c653a207061757365640000000000000000000000000000000081525060200191505060405180910390fd5b600060159054906101000a900460ff16613053576040517f08c379a000000000000000000000000000000000000000000000000000000000815260040180806020018281038252601f8152602001807f5265656e7472616e637947756172643a207265656e7472616e742063616c6c0081525060200191505060405180910390fd5b60008060156101000a81548160ff0219169083151502179055506000600760009054906101000a900473ffffffffffffffffffffffffffffffffffffffff169050600a60009054906101000a900473ffffffffffffffffffffffffffffffffffffffff1673ffffffffffffffffffffffffffffffffffffffff168173ffffffffffffffffffffffffffffffffffffffff1614156131705782341480156130f95750600083115b61316b576040517f08c379a000000000000000000000000000000000000000000000000000000000815260040180806020018281038252600b8152602001807f4552525f42414c5f45544800000000000000000000000000000000000000000081525060200191505060405180910390fd5b6132aa565b828173ffffffffffffffffffffffffffffffffffffffff166370a08231336040518263ffffffff1660e01b8152600401808273ffffffffffffffffffffffffffffffffffffffff1673ffffffffffffffffffffffffffffffffffffffff16815260200191505060206040518083038186803b1580156131ee57600080fd5b505afa158015613202573d6000803e3d6000fd5b505050506040513d602081101561321857600080fd5b8101908080519060200190929190505050101580156132375750600083115b6132a9576040517f08c379a00000000000000000000000000000000000000000000000000000000081526004018080602001828103825260128152602001807f4552525f42414c5f554e4445524c59494e47000000000000000000000000000081525060200191505060405180910390fd5b5b600080600d54905060006132bc611892565b905060006132d38284613a7390919063ffffffff16565b14156132e157859250613391565b816132f58288613a7390919063ffffffff16565b1015613369576040517f08c379a00000000000000000000000000000000000000000000000000000000081526004018080602001828103825260088152602001807f4552525f5a45524f00000000000000000000000000000000000000000000000081525060200191505060405180910390fd5b61338e826133808389613a7390919063ffffffff16565b613af990919063ffffffff16565b92505b61339b338461429d565b6133aa86600e54600c54613b43565b3373ffffffffffffffffffffffffffffffffffffffff167f90890809c654f11d6e72a28fa60149770a0d11ec6c92319d6ceb2bb0a4ea1a158785604051808381526020018281526020019250505060405180910390a2600a60009054906101000a900473ffffffffffffffffffffffffffffffffffffffff1673ffffffffffffffffffffffffffffffffffffffff168473ffffffffffffffffffffffffffffffffffffffff1614156134e657600a60009054906101000a900473ffffffffffffffffffffffffffffffffffffffff1673ffffffffffffffffffffffffffffffffffffffff1663d0e30db0346040518263ffffffff1660e01b81526004016000604051808303818588803b1580156134c057600080fd5b505af11580156134d4573d6000803e3d6000fd5b505050505060019450505050506135e3565b8373ffffffffffffffffffffffffffffffffffffffff166323b872dd3330896040518463ffffffff1660e01b8152600401808473ffffffffffffffffffffffffffffffffffffffff1673ffffffffffffffffffffffffffffffffffffffff1681526020018373ffffffffffffffffffffffffffffffffffffffff1673ffffffffffffffffffffffffffffffffffffffff1681526020018281526020019350505050602060405180830381600087803b1580156135a157600080fd5b505af11580156135b5573d6000803e3d6000fd5b505050506040513d60208110156135cb57600080fd5b81019080805190602001909291905050509450505050505b6001600060156101000a81548160ff021916908315150217905550919050565b600a81565b606481565b6000600260008473ffffffffffffffffffffffffffffffffffffffff1673ffffffffffffffffffffffffffffffffffffffff16815260200190815260200160002060008373ffffffffffffffffffffffffffffffffffffffff1673ffffffffffffffffffffffffffffffffffffffff16815260200190815260200160002054905092915050565b600e5481565b600d5481565b6136a8613c91565b73ffffffffffffffffffffffffffffffffffffffff166000809054906101000a900473ffffffffffffffffffffffffffffffffffffffff1673ffffffffffffffffffffffffffffffffffffffff1614613769576040517f08c379a00000000000000000000000000000000000000000000000000000000081526004018080602001828103825260208152602001807f4f776e61626c653a2063616c6c6572206973206e6f7420746865206f776e657281525060200191505060405180910390fd5b600073ffffffffffffffffffffffffffffffffffffffff168173ffffffffffffffffffffffffffffffffffffffff1614156137ef576040517f08c379a00000000000000000000000000000000000000000000000000000000081526004018080602001828103825260268152602001806145c16026913960400191505060405180910390fd5b8073ffffffffffffffffffffffffffffffffffffffff166000809054906101000a900473ffffffffffffffffffffffffffffffffffffffff1673ffffffffffffffffffffffffffffffffffffffff167f8be0079c531659141344cd1fd0a4f28419497f9722a3daafe3b4186f6b6457e060405160405180910390a3806000806101000a81548173ffffffffffffffffffffffffffffffffffffffff021916908373ffffffffffffffffffffffffffffffffffffffff16021790555050565b600073ffffffffffffffffffffffffffffffffffffffff168273ffffffffffffffffffffffffffffffffffffffff161415613933576040517f08c379a00000000000000000000000000000000000000000000000000000000081526004018080602001828103825260218152602001806146786021913960400191505060405180910390fd5b61393f82600083614466565b6139ab8160405180606001604052806022815260200161459f60229139600160008673ffffffffffffffffffffffffffffffffffffffff1673ffffffffffffffffffffffffffffffffffffffff168152602001908152602001600020546141559092919063ffffffff16565b600160008473ffffffffffffffffffffffffffffffffffffffff1673ffffffffffffffffffffffffffffffffffffffff16815260200190815260200160002081905550613a038160035461446b90919063ffffffff16565b600381905550600073ffffffffffffffffffffffffffffffffffffffff168273ffffffffffffffffffffffffffffffffffffffff167fddf252ad1be2c89b69c2b068fc378daa952ba7f163c4a11628f55a4df523b3ef836040518082815260200191505060405180910390a35050565b600080831415613a865760009050613af3565b6000828402905082848281613a9757fe5b0414613aee576040517f08c379a000000000000000000000000000000000000000000000000000000000815260040180806020018281038252602181526020018061462f6021913960400191505060405180910390fd5b809150505b92915050565b6000613b3b83836040518060400160405280601a81526020017f536166654d6174683a206469766973696f6e206279207a65726f0000000000008152506144b5565b905092915050565b82600d8190555081600e8190555080600c819055507f83646b5da018143f952d3aaf3adca46d3cb6dd8782f9a91609d9ad731f8bdd1e600d54600e54600c5460405180848152602001838152602001828152602001935050505060405180910390a1505050565b6000808373ffffffffffffffffffffffffffffffffffffffff168360405180600001905060006040518083038185875af1925050503d8060008114613c0b576040519150601f19603f3d011682016040523d82523d6000602084013e613c10565b606091505b5050905080613c87576040517f08c379a000000000000000000000000000000000000000000000000000000000815260040180806020018281038252600f8152602001807f53656e64206574686572206661696c000000000000000000000000000000000081525060200191505060405180910390fd5b8091505092915050565b600033905090565b600073ffffffffffffffffffffffffffffffffffffffff168373ffffffffffffffffffffffffffffffffffffffff161415613d1f576040517f08c379a00000000000000000000000000000000000000000000000000000000081526004018080602001828103825260248152602001806146be6024913960400191505060405180910390fd5b600073ffffffffffffffffffffffffffffffffffffffff168273ffffffffffffffffffffffffffffffffffffffff161415613da5576040517f08c379a00000000000000000000000000000000000000000000000000000000081526004018080602001828103825260228152602001806145e76022913960400191505060405180910390fd5b80600260008573ffffffffffffffffffffffffffffffffffffffff1673ffffffffffffffffffffffffffffffffffffffff16815260200190815260200160002060008473ffffffffffffffffffffffffffffffffffffffff1673ffffffffffffffffffffffffffffffffffffffff168152602001908152602001600020819055508173ffffffffffffffffffffffffffffffffffffffff168373ffffffffffffffffffffffffffffffffffffffff167f8c5be1e5ebec7d5bd14f71427d1e84f3dd0314c0f7b2291e5b200ac8c7c3b925836040518082815260200191505060405180910390a3505050565b600073ffffffffffffffffffffffffffffffffffffffff168373ffffffffffffffffffffffffffffffffffffffff161415613f16576040517f08c379a00000000000000000000000000000000000000000000000000000000081526004018080602001828103825260258152602001806146996025913960400191505060405180910390fd5b600073ffffffffffffffffffffffffffffffffffffffff168273ffffffffffffffffffffffffffffffffffffffff161415613f9c576040517f08c379a000000000000000000000000000000000000000000000000000000000815260040180806020018281038252602381526020018061457c6023913960400191505060405180910390fd5b613fa7838383614466565b6140138160405180606001604052806026815260200161460960269139600160008773ffffffffffffffffffffffffffffffffffffffff1673ffffffffffffffffffffffffffffffffffffffff168152602001908152602001600020546141559092919063ffffffff16565b600160008573ffffffffffffffffffffffffffffffffffffffff1673ffffffffffffffffffffffffffffffffffffffff168152602001908152602001600020819055506140a881600160008573ffffffffffffffffffffffffffffffffffffffff1673ffffffffffffffffffffffffffffffffffffffff1681526020019081526020016000205461421590919063ffffffff16565b600160008473ffffffffffffffffffffffffffffffffffffffff1673ffffffffffffffffffffffffffffffffffffffff168152602001908152602001600020819055508173ffffffffffffffffffffffffffffffffffffffff168373ffffffffffffffffffffffffffffffffffffffff167fddf252ad1be2c89b69c2b068fc378daa952ba7f163c4a11628f55a4df523b3ef836040518082815260200191505060405180910390a3505050565b6000838311158290614202576040517f08c379a00000000000000000000000000000000000000000000000000000000081526004018080602001828103825283818151815260200191508051906020019080838360005b838110156141c75780820151818401526020810190506141ac565b50505050905090810190601f1680156141f45780820380516001836020036101000a031916815260200191505b509250505060405180910390fd5b5060008385039050809150509392505050565b600080828401905083811015614293576040517f08c379a000000000000000000000000000000000000000000000000000000000815260040180806020018281038252601b8152602001807f536166654d6174683a206164646974696f6e206f766572666c6f77000000000081525060200191505060405180910390fd5b8091505092915050565b600073ffffffffffffffffffffffffffffffffffffffff168273ffffffffffffffffffffffffffffffffffffffff161415614340576040517f08c379a000000000000000000000000000000000000000000000000000000000815260040180806020018281038252601f8152602001807f45524332303a206d696e7420746f20746865207a65726f20616464726573730081525060200191505060405180910390fd5b61434c60008383614466565b6143618160035461421590919063ffffffff16565b6003819055506143b981600160008573ffffffffffffffffffffffffffffffffffffffff1673ffffffffffffffffffffffffffffffffffffffff1681526020019081526020016000205461421590919063ffffffff16565b600160008473ffffffffffffffffffffffffffffffffffffffff1673ffffffffffffffffffffffffffffffffffffffff168152602001908152602001600020819055508173ffffffffffffffffffffffffffffffffffffffff16600073ffffffffffffffffffffffffffffffffffffffff167fddf252ad1be2c89b69c2b068fc378daa952ba7f163c4a11628f55a4df523b3ef836040518082815260200191505060405180910390a35050565b505050565b60006144ad83836040518060400160405280601e81526020017f536166654d6174683a207375627472616374696f6e206f766572666c6f770000815250614155565b905092915050565b60008083118290614561576040517f08c379a00000000000000000000000000000000000000000000000000000000081526004018080602001828103825283818151815260200191508051906020019080838360005b8381101561452657808201518184015260208101905061450b565b50505050905090810190601f1680156145535780820380516001836020036101000a031916815260200191505b509250505060405180910390fd5b50600083858161456d57fe5b04905080915050939250505056fe45524332303a207472616e7366657220746f20746865207a65726f206164647265737345524332303a206275726e20616d6f756e7420657863656564732062616c616e63654f776e61626c653a206e6577206f776e657220697320746865207a65726f206164647265737345524332303a20617070726f766520746f20746865207a65726f206164647265737345524332303a207472616e7366657220616d6f756e7420657863656564732062616c616e6365536166654d6174683a206d756c7469706c69636174696f6e206f766572666c6f7745524332303a207472616e7366657220616d6f756e74206578636565647320616c6c6f77616e636545524332303a206275726e2066726f6d20746865207a65726f206164647265737345524332303a207472616e736665722066726f6d20746865207a65726f206164647265737345524332303a20617070726f76652066726f6d20746865207a65726f206164647265737345524332303a2064656372656173656420616c6c6f77616e63652062656c6f77207a65726fa2646970667358221220811ad55a07ab2698b50cc0c1f475c03c17a72160151ab2b58fe6d1602e7d5fee64736f6c63430006020033",
  "source": "pragma solidity ^0.6.2;\r\n\r\n/**\r\n * @title   Primitive's Market Maker Pool\r\n * @author  Primitive\r\n */\r\n\r\n\r\nimport \"./PrimeInterface.sol\";\r\nimport \"./controller/Instruments.sol\";\r\nimport \"@openzeppelin/contracts/math/SafeMath.sol\";\r\nimport \"@openzeppelin/contracts/access/Ownable.sol\";\r\nimport \"@openzeppelin/contracts/utils/ReentrancyGuard.sol\";\r\nimport \"@openzeppelin/contracts/utils/Pausable.sol\";\r\nimport \"@openzeppelin/contracts/token/ERC20/ERC20.sol\";\r\n\r\n\r\ninterface IWETH {\r\n    function deposit() external payable;\r\n    function withdraw(uint wad) external;\r\n    function totalSupply() external view returns (uint);\r\n    function approve(address guy, uint wad) external returns (bool);\r\n    function transfer(address dst, uint wad) external returns (bool);\r\n    function transferFrom(address src, address dst, uint wad) external returns (bool);\r\n}\r\n\r\ninterface AggregatorInterface {\r\n  function currentAnswer() external view returns (int256);\r\n}\r\n\r\n\r\ncontract PrimePool is Ownable, Pausable, ReentrancyGuard, ERC20 {\r\n    using SafeMath for uint256;\r\n\r\n    uint256 public constant THOUSAND_BPS = 10;\r\n    uint256 public constant FIVE_HUNDRED_BPS = 20;\r\n    uint256 public constant ONE_HUNDRED_BPS = 100;\r\n\r\n    AggregatorInterface public oracle;\r\n\r\n    address public tokenU;\r\n    address public tokenS;\r\n    address public tokenR;\r\n    address payable public weth;\r\n    address[] public _optionMarkets;\r\n\r\n    uint256 public cacheR;\r\n    uint256 public cacheU;\r\n    uint256 public cacheS;\r\n\r\n    mapping(address => bool) public isValidOption;\r\n\r\n    event Deposit(address indexed user, uint256 inTokenU, uint256 outTokenPULP);\r\n    event Withdraw(address indexed user, uint256 outTokenU, uint256 inTokenR);\r\n    event Buy(address indexed user, uint256 inTokenS, uint256 outTokenU, uint256 premium);\r\n    event Fund(uint256 cacheU, uint256 cacheS, uint256 cacheR);\r\n    event Market(address tokenP);\r\n\r\n    constructor (\r\n        address payable _weth,\r\n        address _oracle,\r\n        string memory name,\r\n        string memory symbol,\r\n        address _tokenU,\r\n        address _tokenS\r\n    ) \r\n        public\r\n        ERC20(name, symbol)\r\n    {\r\n        oracle = AggregatorInterface(_oracle);\r\n        weth = _weth;\r\n        tokenU = _tokenU;\r\n        tokenS = _tokenS;\r\n    }\r\n\r\n    function assets() public view returns (address _tokenU, address _tokenS) {\r\n        _tokenU = tokenU;\r\n        _tokenS = tokenS;\r\n    }\r\n\r\n    function _fund(uint256 _cacheU, uint256 _cacheS, uint256 _cacheR) private {\r\n        cacheU = _cacheU;\r\n        cacheS = _cacheS;\r\n        cacheR = _cacheR;\r\n        emit Fund(cacheU, cacheS, cacheR);\r\n    }\r\n\r\n    function addMarket(address tokenP) public onlyOwner returns (address) {\r\n        isValidOption[tokenP] = true;\r\n        _optionMarkets.push(tokenP);\r\n        address _tokenR = IPrime(tokenP).tokenR();\r\n        tokenR = _tokenR;\r\n\r\n        IERC20(tokenS).approve(tokenP, 1000000000 ether);\r\n        IERC20(tokenU).approve(tokenP, 1000000000 ether);\r\n        IERC20(_tokenR).approve(tokenP, 1000000000 ether);\r\n        emit Market(tokenP);\r\n        return tokenP;\r\n    }\r\n\r\n\r\n    receive() external payable {\r\n        assert(msg.sender == weth);\r\n    }\r\n\r\n\r\n    /* =========== MAKER FUNCTIONS =========== */\r\n\r\n    /**\r\n     * @dev Adds liquidity by depositing tokenU. Receives tokenPULP.\r\n     * @param amount The quantity of tokenU to deposit.\r\n     * @return bool True if the transaction suceeds.\r\n     */\r\n    function deposit(\r\n        uint256 amount\r\n    )\r\n        external\r\n        payable\r\n        whenNotPaused\r\n        nonReentrant\r\n        returns (bool)\r\n    {\r\n\r\n        // Store locally for gas savings.\r\n        address _tokenU = tokenU;\r\n        if(_tokenU == weth) {\r\n            require(msg.value == amount && amount > 0, \"ERR_BAL_ETH\");\r\n        } else {\r\n            require(IERC20(_tokenU).balanceOf(msg.sender) >= amount && amount > 0, \"ERR_BAL_UNDERLYING\");\r\n        }\r\n        \r\n\r\n        // Mint LP tokens proportional to the Total LP Supply and Total Pool Balance\r\n        uint256 outTokenPULP;\r\n        uint256 _cacheU = cacheU;\r\n        uint256 totalSupply = totalSupply();\r\n         \r\n        // If liquidity is not intiialized, mint LP tokens equal to deposit\r\n        if(_cacheU.mul(totalSupply) == 0) {\r\n            outTokenPULP = amount;\r\n        } else {\r\n            require(amount.mul(totalSupply) >= _cacheU, \"ERR_ZERO\");\r\n            outTokenPULP = amount.mul(totalSupply).div(_cacheU);\r\n        }\r\n\r\n\r\n        _mint(msg.sender, outTokenPULP);\r\n        _fund(amount, cacheS, cacheR);\r\n        emit Deposit(msg.sender, amount, outTokenPULP);\r\n\r\n        // Assume we hold the _tokenU asset until it is utilized in minting a Prime\r\n        if(_tokenU == weth) {\r\n            IWETH(weth).deposit.value(msg.value)();\r\n            return true;\r\n        } else {\r\n            return IERC20(_tokenU).transferFrom(msg.sender, address(this), amount);\r\n        }\r\n    }\r\n\r\n    /**\r\n     * @dev liquidity Provider burns their tokenPULP for proportional amount of tokenU + tokenS.\r\n     * @notice  outTokenU = inTokenPULP * cacheU / total supply tokenPULP, \r\n     *          outTokenS = inTokenPULP * cacheR / total supply tokenPULP \r\n     *          If the pool is fully utilized and there are no strike assets to redeem,\r\n     *          the LPs will have to wait.\r\n     * @param amount The quantity of liquidity tokens to burn.\r\n     * @return bool Returns true if liquidity tokens were burned both tokenU + tokenS were sent to user.\r\n     */\r\n    function withdraw(\r\n        uint256 amount,\r\n        address tokenP\r\n    ) \r\n        external \r\n        nonReentrant \r\n        returns (bool)\r\n    {\r\n        // Check tokenPULP balance.\r\n        require(balanceOf(msg.sender) >= amount && amount > 0, \"ERR_BAL_PULP\");\r\n        \r\n        // Burn tokenPULP.\r\n        _burn(msg.sender, amount);\r\n\r\n        // Store locally for gas savings.\r\n        address _tokenU = tokenU;\r\n        address _tokenS = tokenS;\r\n        address _tokenR = tokenR;\r\n        uint256 totalSupply = totalSupply();\r\n\r\n        // Current balance.\r\n        uint256 balanceU = IERC20(_tokenU).balanceOf(address(this));\r\n\r\n        // outTokenU = inTokenPULP * cached balance of tokenU / Total Supply of tokenPULP\r\n        uint256 outTokenU = amount.mul(cacheU).div(totalSupply);\r\n\r\n        // outTokenR = inTokenPULP * cached balance of tokenR / Total Supply of tokenPULP\r\n        // tokenR is redeemable for 1:1 of tokenS.\r\n        // Redeem outTokenS amount of tokenR.\r\n        // Send redeemed tokenS to msg.sender.\r\n        uint256 outTokenR = amount.mul(cacheR).div(totalSupply);\r\n\r\n        // Cached balance of tokenS in tokenP must be >= outTokenR.\r\n        (uint256 maxDraw) = IPrime(tokenP).maxDraw();\r\n        require(maxDraw >= outTokenR, \"ERR_BAL_STRIKE\");\r\n\r\n        // Send tokenR to tokenP so we can call redeem() later to tokenP.\r\n        IERC20(_tokenR).transfer(tokenP, outTokenR);\r\n\r\n        // Current balances.\r\n        balanceU = IERC20(_tokenU).balanceOf(address(this));\r\n        uint256 balanceS = IERC20(_tokenS).balanceOf(address(this));\r\n        uint256 balanceR = IERC20(_tokenR).balanceOf(address(this));\r\n\r\n        // Update cached balances.\r\n        _fund(balanceU, balanceS, balanceR);\r\n        emit Withdraw(msg.sender, outTokenU, outTokenR);\r\n    \r\n        // Call redeem.\r\n        (uint256 inTokenR) = IPrime(tokenP).redeem(msg.sender);\r\n        assert(inTokenR == outTokenR);\r\n\r\n        // Send outTokenU to msg.sender.\r\n        if(_tokenU == weth) {\r\n            IWETH(weth).withdraw(outTokenU);\r\n            return sendEther(msg.sender, outTokenU);\r\n        } else {\r\n            return IERC20(_tokenU).transfer(msg.sender, outTokenU);\r\n        }\r\n    }\r\n\r\n\r\n    /* =========== TAKER FUNCTIONS =========== */\r\n\r\n\r\n    /**\r\n     * @dev Purchase ETH Put -> tokenU is DAI and tokenS is WETH. Pool holds tokenU.\r\n     */\r\n    function buy(\r\n        uint256 amount,\r\n        address tokenP\r\n    )\r\n        public \r\n        payable\r\n        nonReentrant\r\n        returns (bool)\r\n    {\r\n        // Store locally for gas savings.\r\n        address _tokenP = tokenP; // Assume Option\r\n        address _tokenU = tokenU; // Assume DAI\r\n        address _tokenS = tokenS; // Assume ETH\r\n\r\n        // Premium is 1% - FIX\r\n        uint256 premium = amount.div(ONE_HUNDRED_BPS);\r\n\r\n        // Premium is paid in tokenS. If tokenS is WETH, its paid with ETH.\r\n        if(_tokenS == weth) {\r\n            require(msg.value >= premium && premium > 0, \"ERR_BAL_ETH\");\r\n            IWETH(weth).deposit.value(premium)();\r\n        } else {\r\n            require(IERC20(_tokenS).balanceOf(msg.sender) >= amount && amount > 0, \"ERR_BAL_STRIKE\");\r\n        }\r\n\r\n        // Current balance.\r\n        uint256 balanceU = IERC20(_tokenU).balanceOf(address(this));\r\n\r\n        // ex. 0.99*10^18 ETH * 100*10^18 DAI / 10^18 = 0.99*10^18 * 100 = 99*10^18 DAI = outTokenU\r\n        uint256 outTokenU = amount.mul(IPrime(_tokenP).ratio()).div(1 ether); \r\n\r\n        // Transfer tokenU (assume DAI) to option contract using Pool funds.\r\n        require(balanceU >= outTokenU, \"ERR_BAL_UNDERLYING\");\r\n        IERC20(_tokenU).transfer(_tokenP, outTokenU);\r\n\r\n        // Mint Prime.\r\n        (uint256 inTokenU,) = IPrime(_tokenP).mint(address(this)); // MAYBE FIX MINT FUNC\r\n\r\n        // Send Prime to msg.sender.\r\n        IPrime(_tokenP).transfer(msg.sender, inTokenU);\r\n\r\n        // Current balances.\r\n        balanceU = IERC20(_tokenU).balanceOf(address(this));\r\n        uint256 balanceS = IERC20(_tokenS).balanceOf(address(this));\r\n        uint256 balanceR = IERC20(tokenR).balanceOf(address(this));\r\n\r\n        // Update cached balances.\r\n        _fund(balanceU, balanceS, balanceR);\r\n        emit Buy(msg.sender, amount, outTokenU, premium);\r\n        return true;\r\n    }\r\n\r\n    /* CAPITAL MANAGEMENT FUNCTIONS */\r\n\r\n    /**\r\n     @dev function to send ether with the most security\r\n     */\r\n    function sendEther(address payable user, uint256 amount) internal returns (bool) {\r\n        (bool success, ) = user.call.value(amount)(\"\");\r\n        require(success, \"Send ether fail\");\r\n        return success;\r\n    }\r\n}\r\n\r\n    ",
  "sourcePath": "C:\\Users\\alexa\\OneDrive\\Documents\\Master\\Blockchain\\Projects\\carbon\\contracts\\PrimePoolV1.sol",
  "compiler": {
    "name": "solc",
    "version": "0.6.2+commit.bacdbe57.Emscripten.clang"
  },
  "schemaVersion": "3.0.23",
  "updatedAt": "2020-04-27T04:08:24.469Z",
  "devdoc": {
    "methods": {
      "allowance(address,address)": {
        "details": "See {IERC20-allowance}."
      },
      "approve(address,uint256)": {
        "details": "See {IERC20-approve}.     * Requirements:     * - `spender` cannot be the zero address."
      },
      "balanceOf(address)": {
        "details": "See {IERC20-balanceOf}."
      },
      "buy(uint256,address)": {
        "details": "Purchase ETH Put -> tokenU is DAI and tokenS is WETH. Pool holds tokenU."
      },
      "decimals()": {
        "details": "Returns the number of decimals used to get its user representation. For example, if `decimals` equals `2`, a balance of `505` tokens should be displayed to a user as `5,05` (`505 / 10 ** 2`).     * Tokens usually opt for a value of 18, imitating the relationship between Ether and Wei. This is the value {ERC20} uses, unless {_setupDecimals} is called.     * NOTE: This information is only used for _display_ purposes: it in no way affects any of the arithmetic of the contract, including {IERC20-balanceOf} and {IERC20-transfer}."
      },
      "decreaseAllowance(address,uint256)": {
        "details": "Atomically decreases the allowance granted to `spender` by the caller.     * This is an alternative to {approve} that can be used as a mitigation for problems described in {IERC20-approve}.     * Emits an {Approval} event indicating the updated allowance.     * Requirements:     * - `spender` cannot be the zero address. - `spender` must have allowance for the caller of at least `subtractedValue`."
      },
      "deposit(uint256)": {
        "details": "Adds liquidity by depositing tokenU. Receives tokenPULP.",
        "params": {
          "amount": "The quantity of tokenU to deposit."
        },
        "returns": {
          "_0": "bool True if the transaction suceeds."
        }
      },
      "increaseAllowance(address,uint256)": {
        "details": "Atomically increases the allowance granted to `spender` by the caller.     * This is an alternative to {approve} that can be used as a mitigation for problems described in {IERC20-approve}.     * Emits an {Approval} event indicating the updated allowance.     * Requirements:     * - `spender` cannot be the zero address."
      },
      "name()": {
        "details": "Returns the name of the token."
      },
      "owner()": {
        "details": "Returns the address of the current owner."
      },
      "paused()": {
        "details": "Returns true if the contract is paused, and false otherwise."
      },
      "renounceOwnership()": {
        "details": "Leaves the contract without owner. It will not be possible to call `onlyOwner` functions anymore. Can only be called by the current owner.     * NOTE: Renouncing ownership will leave the contract without an owner, thereby removing any functionality that is only available to the owner."
      },
      "symbol()": {
        "details": "Returns the symbol of the token, usually a shorter version of the name."
      },
      "totalSupply()": {
        "details": "See {IERC20-totalSupply}."
      },
      "transfer(address,uint256)": {
        "details": "See {IERC20-transfer}.     * Requirements:     * - `recipient` cannot be the zero address. - the caller must have a balance of at least `amount`."
      },
      "transferFrom(address,address,uint256)": {
        "details": "See {IERC20-transferFrom}.     * Emits an {Approval} event indicating the updated allowance. This is not required by the EIP. See the note at the beginning of {ERC20};     * Requirements: - `sender` and `recipient` cannot be the zero address. - `sender` must have a balance of at least `amount`. - the caller must have allowance for ``sender``'s tokens of at least `amount`."
      },
      "transferOwnership(address)": {
        "details": "Transfers ownership of the contract to a new account (`newOwner`). Can only be called by the current owner."
      },
      "withdraw(uint256,address)": {
        "details": "liquidity Provider burns their tokenPULP for proportional amount of tokenU + tokenS.",
        "params": {
          "amount": "The quantity of liquidity tokens to burn."
        },
        "returns": {
          "_0": "bool Returns true if liquidity tokens were burned both tokenU + tokenS were sent to user."
        }
      }
    }
  },
  "userdoc": {
    "methods": {
      "withdraw(uint256,address)": {
        "notice": "outTokenU = inTokenPULP * cacheU / total supply tokenPULP,          outTokenS = inTokenPULP * cacheR / total supply tokenPULP          If the pool is fully utilized and there are no strike assets to redeem,         the LPs will have to wait."
      }
    }
  }
}