{
  "contractName": "PrimePool",
  "abi": [
    {
      "inputs": [
        {
          "internalType": "address payable",
          "name": "_weth",
          "type": "address"
        },
        {
          "internalType": "address",
          "name": "_oracle",
          "type": "address"
        },
        {
          "internalType": "string",
          "name": "name",
          "type": "string"
        },
        {
          "internalType": "string",
          "name": "symbol",
          "type": "string"
        },
        {
          "internalType": "address",
          "name": "_tokenU",
          "type": "address"
        },
        {
          "internalType": "address",
          "name": "_tokenS",
          "type": "address"
        }
      ],
      "stateMutability": "nonpayable",
      "type": "constructor"
    },
    {
      "anonymous": false,
      "inputs": [
        {
          "indexed": true,
          "internalType": "address",
          "name": "owner",
          "type": "address"
        },
        {
          "indexed": true,
          "internalType": "address",
          "name": "spender",
          "type": "address"
        },
        {
          "indexed": false,
          "internalType": "uint256",
          "name": "value",
          "type": "uint256"
        }
      ],
      "name": "Approval",
      "type": "event"
    },
    {
      "anonymous": false,
      "inputs": [
        {
          "indexed": true,
          "internalType": "address",
          "name": "user",
          "type": "address"
        },
        {
          "indexed": false,
          "internalType": "uint256",
          "name": "inTokenS",
          "type": "uint256"
        },
        {
          "indexed": false,
          "internalType": "uint256",
          "name": "outTokenU",
          "type": "uint256"
        },
        {
          "indexed": false,
          "internalType": "uint256",
          "name": "premium",
          "type": "uint256"
        }
      ],
      "name": "Buy",
      "type": "event"
    },
    {
      "anonymous": false,
      "inputs": [
        {
          "indexed": true,
          "internalType": "address",
          "name": "user",
          "type": "address"
        },
        {
          "indexed": false,
          "internalType": "uint256",
          "name": "inTokenU",
          "type": "uint256"
        },
        {
          "indexed": false,
          "internalType": "uint256",
          "name": "outTokenPULP",
          "type": "uint256"
        }
      ],
      "name": "Deposit",
      "type": "event"
    },
    {
      "anonymous": false,
      "inputs": [
        {
          "indexed": false,
          "internalType": "uint256",
          "name": "cacheU",
          "type": "uint256"
        },
        {
          "indexed": false,
          "internalType": "uint256",
          "name": "cacheS",
          "type": "uint256"
        },
        {
          "indexed": false,
          "internalType": "uint256",
          "name": "cacheR",
          "type": "uint256"
        }
      ],
      "name": "Fund",
      "type": "event"
    },
    {
      "anonymous": false,
      "inputs": [
        {
          "indexed": false,
          "internalType": "address",
          "name": "tokenP",
          "type": "address"
        }
      ],
      "name": "Market",
      "type": "event"
    },
    {
      "anonymous": false,
      "inputs": [
        {
          "indexed": true,
          "internalType": "address",
          "name": "previousOwner",
          "type": "address"
        },
        {
          "indexed": true,
          "internalType": "address",
          "name": "newOwner",
          "type": "address"
        }
      ],
      "name": "OwnershipTransferred",
      "type": "event"
    },
    {
      "anonymous": false,
      "inputs": [
        {
          "indexed": false,
          "internalType": "address",
          "name": "account",
          "type": "address"
        }
      ],
      "name": "Paused",
      "type": "event"
    },
    {
      "anonymous": false,
      "inputs": [
        {
          "indexed": true,
          "internalType": "address",
          "name": "from",
          "type": "address"
        },
        {
          "indexed": true,
          "internalType": "address",
          "name": "to",
          "type": "address"
        },
        {
          "indexed": false,
          "internalType": "uint256",
          "name": "value",
          "type": "uint256"
        }
      ],
      "name": "Transfer",
      "type": "event"
    },
    {
      "anonymous": false,
      "inputs": [
        {
          "indexed": false,
          "internalType": "address",
          "name": "account",
          "type": "address"
        }
      ],
      "name": "Unpaused",
      "type": "event"
    },
    {
      "anonymous": false,
      "inputs": [
        {
          "indexed": true,
          "internalType": "address",
          "name": "user",
          "type": "address"
        },
        {
          "indexed": false,
          "internalType": "uint256",
          "name": "outTokenU",
          "type": "uint256"
        },
        {
          "indexed": false,
          "internalType": "uint256",
          "name": "inTokenR",
          "type": "uint256"
        }
      ],
      "name": "Withdraw",
      "type": "event"
    },
    {
      "inputs": [],
      "name": "FIVE_HUNDRED_BPS",
      "outputs": [
        {
          "internalType": "uint256",
          "name": "",
          "type": "uint256"
        }
      ],
      "stateMutability": "view",
      "type": "function"
    },
    {
      "inputs": [],
      "name": "ONE_HUNDRED_BPS",
      "outputs": [
        {
          "internalType": "uint256",
          "name": "",
          "type": "uint256"
        }
      ],
      "stateMutability": "view",
      "type": "function"
    },
    {
      "inputs": [],
      "name": "THOUSAND_BPS",
      "outputs": [
        {
          "internalType": "uint256",
          "name": "",
          "type": "uint256"
        }
      ],
      "stateMutability": "view",
      "type": "function"
    },
    {
      "inputs": [
        {
          "internalType": "uint256",
          "name": "",
          "type": "uint256"
        }
      ],
      "name": "_optionMarkets",
      "outputs": [
        {
          "internalType": "address",
          "name": "",
          "type": "address"
        }
      ],
      "stateMutability": "view",
      "type": "function"
    },
    {
      "inputs": [
        {
          "internalType": "address",
          "name": "owner",
          "type": "address"
        },
        {
          "internalType": "address",
          "name": "spender",
          "type": "address"
        }
      ],
      "name": "allowance",
      "outputs": [
        {
          "internalType": "uint256",
          "name": "",
          "type": "uint256"
        }
      ],
      "stateMutability": "view",
      "type": "function"
    },
    {
      "inputs": [
        {
          "internalType": "address",
          "name": "spender",
          "type": "address"
        },
        {
          "internalType": "uint256",
          "name": "amount",
          "type": "uint256"
        }
      ],
      "name": "approve",
      "outputs": [
        {
          "internalType": "bool",
          "name": "",
          "type": "bool"
        }
      ],
      "stateMutability": "nonpayable",
      "type": "function"
    },
    {
      "inputs": [
        {
          "internalType": "address",
          "name": "account",
          "type": "address"
        }
      ],
      "name": "balanceOf",
      "outputs": [
        {
          "internalType": "uint256",
          "name": "",
          "type": "uint256"
        }
      ],
      "stateMutability": "view",
      "type": "function"
    },
    {
      "inputs": [],
      "name": "cacheR",
      "outputs": [
        {
          "internalType": "uint256",
          "name": "",
          "type": "uint256"
        }
      ],
      "stateMutability": "view",
      "type": "function"
    },
    {
      "inputs": [],
      "name": "cacheS",
      "outputs": [
        {
          "internalType": "uint256",
          "name": "",
          "type": "uint256"
        }
      ],
      "stateMutability": "view",
      "type": "function"
    },
    {
      "inputs": [],
      "name": "cacheU",
      "outputs": [
        {
          "internalType": "uint256",
          "name": "",
          "type": "uint256"
        }
      ],
      "stateMutability": "view",
      "type": "function"
    },
    {
      "inputs": [],
      "name": "decimals",
      "outputs": [
        {
          "internalType": "uint8",
          "name": "",
          "type": "uint8"
        }
      ],
      "stateMutability": "view",
      "type": "function"
    },
    {
      "inputs": [
        {
          "internalType": "address",
          "name": "spender",
          "type": "address"
        },
        {
          "internalType": "uint256",
          "name": "subtractedValue",
          "type": "uint256"
        }
      ],
      "name": "decreaseAllowance",
      "outputs": [
        {
          "internalType": "bool",
          "name": "",
          "type": "bool"
        }
      ],
      "stateMutability": "nonpayable",
      "type": "function"
    },
    {
      "inputs": [
        {
          "internalType": "address",
          "name": "spender",
          "type": "address"
        },
        {
          "internalType": "uint256",
          "name": "addedValue",
          "type": "uint256"
        }
      ],
      "name": "increaseAllowance",
      "outputs": [
        {
          "internalType": "bool",
          "name": "",
          "type": "bool"
        }
      ],
      "stateMutability": "nonpayable",
      "type": "function"
    },
    {
      "inputs": [
        {
          "internalType": "address",
          "name": "",
          "type": "address"
        }
      ],
      "name": "isValidOption",
      "outputs": [
        {
          "internalType": "bool",
          "name": "",
          "type": "bool"
        }
      ],
      "stateMutability": "view",
      "type": "function"
    },
    {
      "inputs": [],
      "name": "name",
      "outputs": [
        {
          "internalType": "string",
          "name": "",
          "type": "string"
        }
      ],
      "stateMutability": "view",
      "type": "function"
    },
    {
      "inputs": [],
      "name": "oracle",
      "outputs": [
        {
          "internalType": "contract AggregatorInterface",
          "name": "",
          "type": "address"
        }
      ],
      "stateMutability": "view",
      "type": "function"
    },
    {
      "inputs": [],
      "name": "owner",
      "outputs": [
        {
          "internalType": "address",
          "name": "",
          "type": "address"
        }
      ],
      "stateMutability": "view",
      "type": "function"
    },
    {
      "inputs": [],
      "name": "paused",
      "outputs": [
        {
          "internalType": "bool",
          "name": "",
          "type": "bool"
        }
      ],
      "stateMutability": "view",
      "type": "function"
    },
    {
      "inputs": [],
      "name": "renounceOwnership",
      "outputs": [],
      "stateMutability": "nonpayable",
      "type": "function"
    },
    {
      "inputs": [],
      "name": "symbol",
      "outputs": [
        {
          "internalType": "string",
          "name": "",
          "type": "string"
        }
      ],
      "stateMutability": "view",
      "type": "function"
    },
    {
      "inputs": [],
      "name": "tokenR",
      "outputs": [
        {
          "internalType": "address",
          "name": "",
          "type": "address"
        }
      ],
      "stateMutability": "view",
      "type": "function"
    },
    {
      "inputs": [],
      "name": "tokenS",
      "outputs": [
        {
          "internalType": "address",
          "name": "",
          "type": "address"
        }
      ],
      "stateMutability": "view",
      "type": "function"
    },
    {
      "inputs": [],
      "name": "tokenU",
      "outputs": [
        {
          "internalType": "address",
          "name": "",
          "type": "address"
        }
      ],
      "stateMutability": "view",
      "type": "function"
    },
    {
      "inputs": [],
      "name": "totalSupply",
      "outputs": [
        {
          "internalType": "uint256",
          "name": "",
          "type": "uint256"
        }
      ],
      "stateMutability": "view",
      "type": "function"
    },
    {
      "inputs": [
        {
          "internalType": "address",
          "name": "recipient",
          "type": "address"
        },
        {
          "internalType": "uint256",
          "name": "amount",
          "type": "uint256"
        }
      ],
      "name": "transfer",
      "outputs": [
        {
          "internalType": "bool",
          "name": "",
          "type": "bool"
        }
      ],
      "stateMutability": "nonpayable",
      "type": "function"
    },
    {
      "inputs": [
        {
          "internalType": "address",
          "name": "sender",
          "type": "address"
        },
        {
          "internalType": "address",
          "name": "recipient",
          "type": "address"
        },
        {
          "internalType": "uint256",
          "name": "amount",
          "type": "uint256"
        }
      ],
      "name": "transferFrom",
      "outputs": [
        {
          "internalType": "bool",
          "name": "",
          "type": "bool"
        }
      ],
      "stateMutability": "nonpayable",
      "type": "function"
    },
    {
      "inputs": [
        {
          "internalType": "address",
          "name": "newOwner",
          "type": "address"
        }
      ],
      "name": "transferOwnership",
      "outputs": [],
      "stateMutability": "nonpayable",
      "type": "function"
    },
    {
      "inputs": [],
      "name": "weth",
      "outputs": [
        {
          "internalType": "address payable",
          "name": "",
          "type": "address"
        }
      ],
      "stateMutability": "view",
      "type": "function"
    },
    {
      "stateMutability": "payable",
      "type": "receive"
    },
    {
      "inputs": [],
      "name": "assets",
      "outputs": [
        {
          "internalType": "address",
          "name": "_tokenU",
          "type": "address"
        },
        {
          "internalType": "address",
          "name": "_tokenS",
          "type": "address"
        }
      ],
      "stateMutability": "view",
      "type": "function"
    },
    {
      "inputs": [
        {
          "internalType": "address",
          "name": "tokenP",
          "type": "address"
        }
      ],
      "name": "addMarket",
      "outputs": [
        {
          "internalType": "address",
          "name": "",
          "type": "address"
        }
      ],
      "stateMutability": "nonpayable",
      "type": "function"
    },
    {
      "inputs": [
        {
          "internalType": "uint256",
          "name": "amount",
          "type": "uint256"
        }
      ],
      "name": "deposit",
      "outputs": [
        {
          "internalType": "bool",
          "name": "",
          "type": "bool"
        }
      ],
      "stateMutability": "payable",
      "type": "function"
    },
    {
      "inputs": [
        {
          "internalType": "uint256",
          "name": "amount",
          "type": "uint256"
        },
        {
          "internalType": "address",
          "name": "tokenP",
          "type": "address"
        }
      ],
      "name": "withdraw",
      "outputs": [
        {
          "internalType": "bool",
          "name": "",
          "type": "bool"
        }
      ],
      "stateMutability": "nonpayable",
      "type": "function"
    },
    {
      "inputs": [
        {
          "internalType": "uint256",
          "name": "amount",
          "type": "uint256"
        },
        {
          "internalType": "address",
          "name": "tokenP",
          "type": "address"
        }
      ],
      "name": "buy",
      "outputs": [
        {
          "internalType": "bool",
          "name": "",
          "type": "bool"
        }
      ],
      "stateMutability": "payable",
      "type": "function"
    },
    {
      "inputs": [
        {
          "internalType": "uint256",
          "name": "amount",
          "type": "uint256"
        }
      ],
      "name": "calculatePremium",
      "outputs": [
        {
          "internalType": "uint256",
          "name": "premium",
          "type": "uint256"
        }
      ],
      "stateMutability": "nonpayable",
      "type": "function"
    }
  ],
  "bytecode": "0x60806040523480156200001157600080fd5b5060405162004e2938038062004e29833981810160405260c08110156200003757600080fd5b810190808051906020019092919080519060200190929190805160405193929190846401000000008211156200006c57600080fd5b838201915060208201858111156200008357600080fd5b8251866001820283011164010000000082111715620000a157600080fd5b8083526020830192505050908051906020019080838360005b83811015620000d7578082015181840152602081019050620000ba565b50505050905090810190601f168015620001055780820380516001836020036101000a031916815260200191505b50604052602001805160405193929190846401000000008211156200012957600080fd5b838201915060208201858111156200014057600080fd5b82518660018202830111640100000000821117156200015e57600080fd5b8083526020830192505050908051906020019080838360005b838110156200019457808201518184015260208101905062000177565b50505050905090810190601f168015620001c25780820380516001836020036101000a031916815260200191505b50604052602001805190602001909291908051906020019092919050505083836000620001f46200042760201b60201c565b9050806000806101000a81548173ffffffffffffffffffffffffffffffffffffffff021916908373ffffffffffffffffffffffffffffffffffffffff1602179055508073ffffffffffffffffffffffffffffffffffffffff16600073ffffffffffffffffffffffffffffffffffffffff167f8be0079c531659141344cd1fd0a4f28419497f9722a3daafe3b4186f6b6457e060405160405180910390a35060008060146101000a81548160ff0219169083151502179055506001600060156101000a81548160ff0219169083151502179055508160049080519060200190620002df9291906200042f565b508060059080519060200190620002f89291906200042f565b506012600660006101000a81548160ff021916908360ff160217905550505084600660016101000a81548173ffffffffffffffffffffffffffffffffffffffff021916908373ffffffffffffffffffffffffffffffffffffffff16021790555085600a60006101000a81548173ffffffffffffffffffffffffffffffffffffffff021916908373ffffffffffffffffffffffffffffffffffffffff16021790555081600760006101000a81548173ffffffffffffffffffffffffffffffffffffffff021916908373ffffffffffffffffffffffffffffffffffffffff16021790555080600860006101000a81548173ffffffffffffffffffffffffffffffffffffffff021916908373ffffffffffffffffffffffffffffffffffffffff160217905550505050505050620004de565b600033905090565b828054600181600116156101000203166002900490600052602060002090601f016020900481019282601f106200047257805160ff1916838001178555620004a3565b82800160010185558215620004a3579182015b82811115620004a257825182559160200191906001019062000485565b5b509050620004b29190620004b6565b5090565b620004db91905b80821115620004d7576000816000905550600101620004bd565b5090565b90565b61493b80620004ee6000396000f3fe6080604052600436106101fc5760003560e01c806371a973051161010d578063a457c2d7116100a0578063c4b3af9c1161006f578063c4b3af9c14610cdd578063dd62ed3e14610d08578063ef57128e14610d8d578063f1e34fbb14610db8578063f2fde38b14610de35761025a565b8063a457c2d714610b86578063a9059cbb14610bf9578063b6b55f2514610c6c578063b8e2be9b14610cb25761025a565b80638da5cb5b116100dc5780638da5cb5b146109e357806393e3063314610a3a57806395d89b4114610acb578063975f081314610b5b5761025a565b806371a97305146108215780637b3b67f1146108ab5780637dc0d1d0146109265780637deb60251461097d5761025a565b8063313ce567116101905780634a244e541161015f5780634a244e54146106c85780635c975abb1461071f57806360f880351461074e57806370a08231146107a5578063715018a61461080a5761025a565b8063313ce5671461057e57806339509351146105af5780633fc8cef31461062257806348f54f03146106795761025a565b80630f53ad57116101cc5780630f53ad571461042c57806318160ddd146104575780631a7db9c41461048257806323b872dd146104eb5761025a565b8062f714ce1461025f57806306fdde03146102d25780630727d5d214610362578063095ea7b3146103b95761025a565b3661025a57600a60009054906101000a900473ffffffffffffffffffffffffffffffffffffffff1673ffffffffffffffffffffffffffffffffffffffff163373ffffffffffffffffffffffffffffffffffffffff161461025857fe5b005b600080fd5b34801561026b57600080fd5b506102b86004803603604081101561028257600080fd5b8101908080359060200190929190803573ffffffffffffffffffffffffffffffffffffffff169060200190929190505050610e34565b604051808215151515815260200191505060405180910390f35b3480156102de57600080fd5b506102e76118e2565b6040518080602001828103825283818151815260200191508051906020019080838360005b8381101561032757808201518184015260208101905061030c565b50505050905090810190601f1680156103545780820380516001836020036101000a031916815260200191505b509250505060405180910390f35b34801561036e57600080fd5b50610377611984565b604051808273ffffffffffffffffffffffffffffffffffffffff1673ffffffffffffffffffffffffffffffffffffffff16815260200191505060405180910390f35b3480156103c557600080fd5b50610412600480360360408110156103dc57600080fd5b81019080803573ffffffffffffffffffffffffffffffffffffffff169060200190929190803590602001909291905050506119aa565b604051808215151515815260200191505060405180910390f35b34801561043857600080fd5b506104416119c8565b6040518082815260200191505060405180910390f35b34801561046357600080fd5b5061046c6119ce565b6040518082815260200191505060405180910390f35b34801561048e57600080fd5b506104d1600480360360208110156104a557600080fd5b81019080803573ffffffffffffffffffffffffffffffffffffffff1690602001909291905050506119d8565b604051808215151515815260200191505060405180910390f35b3480156104f757600080fd5b506105646004803603606081101561050e57600080fd5b81019080803573ffffffffffffffffffffffffffffffffffffffff169060200190929190803573ffffffffffffffffffffffffffffffffffffffff169060200190929190803590602001909291905050506119f8565b604051808215151515815260200191505060405180910390f35b34801561058a57600080fd5b50610593611ad1565b604051808260ff1660ff16815260200191505060405180910390f35b3480156105bb57600080fd5b50610608600480360360408110156105d257600080fd5b81019080803573ffffffffffffffffffffffffffffffffffffffff16906020019092919080359060200190929190505050611ae8565b604051808215151515815260200191505060405180910390f35b34801561062e57600080fd5b50610637611b9b565b604051808273ffffffffffffffffffffffffffffffffffffffff1673ffffffffffffffffffffffffffffffffffffffff16815260200191505060405180910390f35b34801561068557600080fd5b506106b26004803603602081101561069c57600080fd5b8101908080359060200190929190505050611bc1565b6040518082815260200191505060405180910390f35b3480156106d457600080fd5b506106dd611c6f565b604051808273ffffffffffffffffffffffffffffffffffffffff1673ffffffffffffffffffffffffffffffffffffffff16815260200191505060405180910390f35b34801561072b57600080fd5b50610734611c95565b604051808215151515815260200191505060405180910390f35b34801561075a57600080fd5b50610763611cab565b604051808273ffffffffffffffffffffffffffffffffffffffff1673ffffffffffffffffffffffffffffffffffffffff16815260200191505060405180910390f35b3480156107b157600080fd5b506107f4600480360360208110156107c857600080fd5b81019080803573ffffffffffffffffffffffffffffffffffffffff169060200190929190505050611cd1565b6040518082815260200191505060405180910390f35b34801561081657600080fd5b5061081f611d1a565b005b34801561082d57600080fd5b50610836611ea2565b604051808373ffffffffffffffffffffffffffffffffffffffff1673ffffffffffffffffffffffffffffffffffffffff1681526020018273ffffffffffffffffffffffffffffffffffffffff1673ffffffffffffffffffffffffffffffffffffffff1681526020019250505060405180910390f35b3480156108b757600080fd5b506108e4600480360360208110156108ce57600080fd5b8101908080359060200190929190505050611ef3565b604051808273ffffffffffffffffffffffffffffffffffffffff1673ffffffffffffffffffffffffffffffffffffffff16815260200191505060405180910390f35b34801561093257600080fd5b5061093b611f2f565b604051808273ffffffffffffffffffffffffffffffffffffffff1673ffffffffffffffffffffffffffffffffffffffff16815260200191505060405180910390f35b6109c96004803603604081101561099357600080fd5b8101908080359060200190929190803573ffffffffffffffffffffffffffffffffffffffff169060200190929190505050611f55565b604051808215151515815260200191505060405180910390f35b3480156109ef57600080fd5b506109f8612b0f565b604051808273ffffffffffffffffffffffffffffffffffffffff1673ffffffffffffffffffffffffffffffffffffffff16815260200191505060405180910390f35b348015610a4657600080fd5b50610a8960048036036020811015610a5d57600080fd5b81019080803573ffffffffffffffffffffffffffffffffffffffff169060200190929190505050612b38565b604051808273ffffffffffffffffffffffffffffffffffffffff1673ffffffffffffffffffffffffffffffffffffffff16815260200191505060405180910390f35b348015610ad757600080fd5b50610ae06130a1565b6040518080602001828103825283818151815260200191508051906020019080838360005b83811015610b20578082015181840152602081019050610b05565b50505050905090810190601f168015610b4d5780820380516001836020036101000a031916815260200191505b509250505060405180910390f35b348015610b6757600080fd5b50610b70613143565b6040518082815260200191505060405180910390f35b348015610b9257600080fd5b50610bdf60048036036040811015610ba957600080fd5b81019080803573ffffffffffffffffffffffffffffffffffffffff16906020019092919080359060200190929190505050613148565b604051808215151515815260200191505060405180910390f35b348015610c0557600080fd5b50610c5260048036036040811015610c1c57600080fd5b81019080803573ffffffffffffffffffffffffffffffffffffffff16906020019092919080359060200190929190505050613215565b604051808215151515815260200191505060405180910390f35b610c9860048036036020811015610c8257600080fd5b8101908080359060200190929190505050613233565b604051808215151515815260200191505060405180910390f35b348015610cbe57600080fd5b50610cc76138e9565b6040518082815260200191505060405180910390f35b348015610ce957600080fd5b50610cf26138ee565b6040518082815260200191505060405180910390f35b348015610d1457600080fd5b50610d7760048036036040811015610d2b57600080fd5b81019080803573ffffffffffffffffffffffffffffffffffffffff169060200190929190803573ffffffffffffffffffffffffffffffffffffffff1690602001909291905050506138f3565b6040518082815260200191505060405180910390f35b348015610d9957600080fd5b50610da261397a565b6040518082815260200191505060405180910390f35b348015610dc457600080fd5b50610dcd613980565b6040518082815260200191505060405180910390f35b348015610def57600080fd5b50610e3260048036036020811015610e0657600080fd5b81019080803573ffffffffffffffffffffffffffffffffffffffff169060200190929190505050613986565b005b60008060159054906101000a900460ff16610eb7576040517f08c379a000000000000000000000000000000000000000000000000000000000815260040180806020018281038252601f8152602001807f5265656e7472616e637947756172643a207265656e7472616e742063616c6c0081525060200191505060405180910390fd5b60008060156101000a81548160ff02191690831515021790555082610edb33611cd1565b10158015610ee95750600083115b610f5b576040517f08c379a000000000000000000000000000000000000000000000000000000000815260040180806020018281038252600c8152602001807f4552525f42414c5f50554c50000000000000000000000000000000000000000081525060200191505060405180910390fd5b6000610f656119ce565b9050610f713385613b93565b6000600760009054906101000a900473ffffffffffffffffffffffffffffffffffffffff1690506000600860009054906101000a900473ffffffffffffffffffffffffffffffffffffffff1690506000600960009054906101000a900473ffffffffffffffffffffffffffffffffffffffff16905060008373ffffffffffffffffffffffffffffffffffffffff166370a08231306040518263ffffffff1660e01b8152600401808273ffffffffffffffffffffffffffffffffffffffff1673ffffffffffffffffffffffffffffffffffffffff16815260200191505060206040518083038186803b15801561106557600080fd5b505afa158015611079573d6000803e3d6000fd5b505050506040513d602081101561108f57600080fd5b8101908080519060200190929190505050905060006110cb866110bd600d548c613d5990919063ffffffff16565b613ddf90919063ffffffff16565b905060006110f6876110e8600c548d613d5990919063ffffffff16565b613ddf90919063ffffffff16565b905060008973ffffffffffffffffffffffffffffffffffffffff16634e11482f6040518163ffffffff1660e01b815260040160206040518083038186803b15801561114057600080fd5b505afa158015611154573d6000803e3d6000fd5b505050506040513d602081101561116a57600080fd5b81019080805190602001909291905050509050818110156111f3576040517f08c379a000000000000000000000000000000000000000000000000000000000815260040180806020018281038252600e8152602001807f4552525f42414c5f535452494b4500000000000000000000000000000000000081525060200191505060405180910390fd5b60008573ffffffffffffffffffffffffffffffffffffffff1663a9059cbb8c856040518363ffffffff1660e01b8152600401808373ffffffffffffffffffffffffffffffffffffffff1673ffffffffffffffffffffffffffffffffffffffff16815260200182815260200192505050602060405180830381600087803b15801561127c57600080fd5b505af1158015611290573d6000803e3d6000fd5b505050506040513d60208110156112a657600080fd5b810190808051906020019092919050505090508773ffffffffffffffffffffffffffffffffffffffff166370a08231306040518263ffffffff1660e01b8152600401808273ffffffffffffffffffffffffffffffffffffffff1673ffffffffffffffffffffffffffffffffffffffff16815260200191505060206040518083038186803b15801561133657600080fd5b505afa15801561134a573d6000803e3d6000fd5b505050506040513d602081101561136057600080fd5b8101908080519060200190929190505050945060008773ffffffffffffffffffffffffffffffffffffffff166370a08231306040518263ffffffff1660e01b8152600401808273ffffffffffffffffffffffffffffffffffffffff1673ffffffffffffffffffffffffffffffffffffffff16815260200191505060206040518083038186803b1580156113f257600080fd5b505afa158015611406573d6000803e3d6000fd5b505050506040513d602081101561141c57600080fd5b8101908080519060200190929190505050905060008773ffffffffffffffffffffffffffffffffffffffff166370a08231306040518263ffffffff1660e01b8152600401808273ffffffffffffffffffffffffffffffffffffffff1673ffffffffffffffffffffffffffffffffffffffff16815260200191505060206040518083038186803b1580156114ae57600080fd5b505afa1580156114c2573d6000803e3d6000fd5b505050506040513d60208110156114d857600080fd5b810190808051906020019092919050505090506114f6878383613e29565b3373ffffffffffffffffffffffffffffffffffffffff167ff279e6a1f5e320cca91135676d9cb6e44ca8a08c0b88342bcdb1144f6511b5688787604051808381526020018281526020019250505060405180910390a260008d73ffffffffffffffffffffffffffffffffffffffff166395a2251f336040518263ffffffff1660e01b8152600401808273ffffffffffffffffffffffffffffffffffffffff1673ffffffffffffffffffffffffffffffffffffffff168152602001915050602060405180830381600087803b1580156115cd57600080fd5b505af11580156115e1573d6000803e3d6000fd5b505050506040513d60208110156115f757600080fd5b8101908080519060200190929190505050905085811480156116165750835b61161c57fe5b600a60009054906101000a900473ffffffffffffffffffffffffffffffffffffffff1673ffffffffffffffffffffffffffffffffffffffff168b73ffffffffffffffffffffffffffffffffffffffff1614156117f057600a60009054906101000a900473ffffffffffffffffffffffffffffffffffffffff1673ffffffffffffffffffffffffffffffffffffffff16632e1a7d4d886040518263ffffffff1660e01b815260040180828152602001915050600060405180830381600087803b1580156116e757600080fd5b505af11580156116fb573d6000803e3d6000fd5b5050505060003373ffffffffffffffffffffffffffffffffffffffff168860405180600001905060006040518083038185875af1925050503d806000811461175f576040519150601f19603f3d011682016040523d82523d6000602084013e611764565b606091505b50509050806117db576040517f08c379a000000000000000000000000000000000000000000000000000000000815260040180806020018281038252600f8152602001807f53656e64206574686572206661696c000000000000000000000000000000000081525060200191505060405180910390fd5b809d50505050505050505050505050506118c1565b8a73ffffffffffffffffffffffffffffffffffffffff1663a9059cbb33896040518363ffffffff1660e01b8152600401808373ffffffffffffffffffffffffffffffffffffffff1673ffffffffffffffffffffffffffffffffffffffff16815260200182815260200192505050602060405180830381600087803b15801561187757600080fd5b505af115801561188b573d6000803e3d6000fd5b505050506040513d60208110156118a157600080fd5b81019080805190602001909291905050509c505050505050505050505050505b6001600060156101000a81548160ff02191690831515021790555092915050565b606060048054600181600116156101000203166002900480601f01602080910402602001604051908101604052809291908181526020018280546001816001161561010002031660029004801561197a5780601f1061194f5761010080835404028352916020019161197a565b820191906000526020600020905b81548152906001019060200180831161195d57829003601f168201915b5050505050905090565b600860009054906101000a900473ffffffffffffffffffffffffffffffffffffffff1681565b60006119be6119b7613e90565b8484613e98565b6001905092915050565b600c5481565b6000600354905090565b600f6020528060005260406000206000915054906101000a900460ff1681565b6000611a0584848461408f565b611ac684611a11613e90565b611ac18560405180606001604052806028815260200161484f60289139600260008b73ffffffffffffffffffffffffffffffffffffffff1673ffffffffffffffffffffffffffffffffffffffff1681526020019081526020016000206000611a77613e90565b73ffffffffffffffffffffffffffffffffffffffff1673ffffffffffffffffffffffffffffffffffffffff168152602001908152602001600020546143549092919063ffffffff16565b613e98565b600190509392505050565b6000600660009054906101000a900460ff16905090565b6000611b91611af5613e90565b84611b8c8560026000611b06613e90565b73ffffffffffffffffffffffffffffffffffffffff1673ffffffffffffffffffffffffffffffffffffffff16815260200190815260200160002060008973ffffffffffffffffffffffffffffffffffffffff1673ffffffffffffffffffffffffffffffffffffffff1681526020019081526020016000205461441490919063ffffffff16565b613e98565b6001905092915050565b600a60009054906101000a900473ffffffffffffffffffffffffffffffffffffffff1681565b600080600660019054906101000a900473ffffffffffffffffffffffffffffffffffffffff1673ffffffffffffffffffffffffffffffffffffffff16637e1b4cb06040518163ffffffff1660e01b815260040160206040518083038186803b158015611c2c57600080fd5b505afa158015611c40573d6000803e3d6000fd5b505050506040513d6020811015611c5657600080fd5b8101908080519060200190929190505050905050919050565b600760009054906101000a900473ffffffffffffffffffffffffffffffffffffffff1681565b60008060149054906101000a900460ff16905090565b600960009054906101000a900473ffffffffffffffffffffffffffffffffffffffff1681565b6000600160008373ffffffffffffffffffffffffffffffffffffffff1673ffffffffffffffffffffffffffffffffffffffff168152602001908152602001600020549050919050565b611d22613e90565b73ffffffffffffffffffffffffffffffffffffffff166000809054906101000a900473ffffffffffffffffffffffffffffffffffffffff1673ffffffffffffffffffffffffffffffffffffffff1614611de3576040517f08c379a00000000000000000000000000000000000000000000000000000000081526004018080602001828103825260208152602001807f4f776e61626c653a2063616c6c6572206973206e6f7420746865206f776e657281525060200191505060405180910390fd5b600073ffffffffffffffffffffffffffffffffffffffff166000809054906101000a900473ffffffffffffffffffffffffffffffffffffffff1673ffffffffffffffffffffffffffffffffffffffff167f8be0079c531659141344cd1fd0a4f28419497f9722a3daafe3b4186f6b6457e060405160405180910390a360008060006101000a81548173ffffffffffffffffffffffffffffffffffffffff021916908373ffffffffffffffffffffffffffffffffffffffff160217905550565b600080600760009054906101000a900473ffffffffffffffffffffffffffffffffffffffff169150600860009054906101000a900473ffffffffffffffffffffffffffffffffffffffff1690509091565b600b8181548110611f0057fe5b906000526020600020016000915054906101000a900473ffffffffffffffffffffffffffffffffffffffff1681565b600660019054906101000a900473ffffffffffffffffffffffffffffffffffffffff1681565b60008060159054906101000a900460ff16611fd8576040517f08c379a000000000000000000000000000000000000000000000000000000000815260040180806020018281038252601f8152602001807f5265656e7472616e637947756172643a207265656e7472616e742063616c6c0081525060200191505060405180910390fd5b60008060156101000a81548160ff02191690831515021790555060008290506000600760009054906101000a900473ffffffffffffffffffffffffffffffffffffffff1690506000600860009054906101000a900473ffffffffffffffffffffffffffffffffffffffff169050600061205b606488613ddf90919063ffffffff16565b9050600a60009054906101000a900473ffffffffffffffffffffffffffffffffffffffff1673ffffffffffffffffffffffffffffffffffffffff168273ffffffffffffffffffffffffffffffffffffffff1614156121bd578034101580156120c35750600081115b612135576040517f08c379a000000000000000000000000000000000000000000000000000000000815260040180806020018281038252600b8152602001807f4552525f42414c5f45544800000000000000000000000000000000000000000081525060200191505060405180910390fd5b600a60009054906101000a900473ffffffffffffffffffffffffffffffffffffffff1673ffffffffffffffffffffffffffffffffffffffff1663d0e30db0826040518263ffffffff1660e01b81526004016000604051808303818588803b15801561219f57600080fd5b505af11580156121b3573d6000803e3d6000fd5b50505050506122f7565b868273ffffffffffffffffffffffffffffffffffffffff166370a08231336040518263ffffffff1660e01b8152600401808273ffffffffffffffffffffffffffffffffffffffff1673ffffffffffffffffffffffffffffffffffffffff16815260200191505060206040518083038186803b15801561223b57600080fd5b505afa15801561224f573d6000803e3d6000fd5b505050506040513d602081101561226557600080fd5b8101908080519060200190929190505050101580156122845750600087115b6122f6576040517f08c379a000000000000000000000000000000000000000000000000000000000815260040180806020018281038252600e8152602001807f4552525f42414c5f535452494b4500000000000000000000000000000000000081525060200191505060405180910390fd5b5b60008373ffffffffffffffffffffffffffffffffffffffff166370a08231306040518263ffffffff1660e01b8152600401808273ffffffffffffffffffffffffffffffffffffffff1673ffffffffffffffffffffffffffffffffffffffff16815260200191505060206040518083038186803b15801561237657600080fd5b505afa15801561238a573d6000803e3d6000fd5b505050506040513d60208110156123a057600080fd5b8101908080519060200190929190505050905060006124da8673ffffffffffffffffffffffffffffffffffffffff1663a035b1fe6040518163ffffffff1660e01b815260040160206040518083038186803b1580156123fe57600080fd5b505afa158015612412573d6000803e3d6000fd5b505050506040513d602081101561242857600080fd5b81019080805190602001909291905050506124cc8873ffffffffffffffffffffffffffffffffffffffff16635001f3b56040518163ffffffff1660e01b815260040160206040518083038186803b15801561248257600080fd5b505afa158015612496573d6000803e3d6000fd5b505050506040513d60208110156124ac57600080fd5b81019080805190602001909291905050508c613d5990919063ffffffff16565b613ddf90919063ffffffff16565b905080821015612552576040517f08c379a00000000000000000000000000000000000000000000000000000000081526004018080602001828103825260128152602001807f4552525f42414c5f554e4445524c59494e47000000000000000000000000000081525060200191505060405180910390fd5b60008573ffffffffffffffffffffffffffffffffffffffff1663a9059cbb88846040518363ffffffff1660e01b8152600401808373ffffffffffffffffffffffffffffffffffffffff1673ffffffffffffffffffffffffffffffffffffffff16815260200182815260200192505050602060405180830381600087803b1580156125db57600080fd5b505af11580156125ef573d6000803e3d6000fd5b505050506040513d602081101561260557600080fd5b8101908080519060200190929190505050905060008773ffffffffffffffffffffffffffffffffffffffff16636a627842306040518263ffffffff1660e01b8152600401808273ffffffffffffffffffffffffffffffffffffffff1673ffffffffffffffffffffffffffffffffffffffff1681526020019150506040805180830381600087803b15801561269857600080fd5b505af11580156126ac573d6000803e3d6000fd5b505050506040513d60408110156126c257600080fd5b81019080805190602001909291908051906020019092919050505050905060008873ffffffffffffffffffffffffffffffffffffffff1663a9059cbb33846040518363ffffffff1660e01b8152600401808373ffffffffffffffffffffffffffffffffffffffff1673ffffffffffffffffffffffffffffffffffffffff16815260200182815260200192505050602060405180830381600087803b15801561276957600080fd5b505af115801561277d573d6000803e3d6000fd5b505050506040513d602081101561279357600080fd5b810190808051906020019092919050505090508280156127b05750805b612822576040517f08c379a00000000000000000000000000000000000000000000000000000000081526004018080602001828103825260118152602001807f4552525f5452414e534645525f4641494c00000000000000000000000000000081525060200191505060405180910390fd5b8773ffffffffffffffffffffffffffffffffffffffff166370a08231306040518263ffffffff1660e01b8152600401808273ffffffffffffffffffffffffffffffffffffffff1673ffffffffffffffffffffffffffffffffffffffff16815260200191505060206040518083038186803b15801561289f57600080fd5b505afa1580156128b3573d6000803e3d6000fd5b505050506040513d60208110156128c957600080fd5b8101908080519060200190929190505050945060008773ffffffffffffffffffffffffffffffffffffffff166370a08231306040518263ffffffff1660e01b8152600401808273ffffffffffffffffffffffffffffffffffffffff1673ffffffffffffffffffffffffffffffffffffffff16815260200191505060206040518083038186803b15801561295b57600080fd5b505afa15801561296f573d6000803e3d6000fd5b505050506040513d602081101561298557600080fd5b810190808051906020019092919050505090506000600960009054906101000a900473ffffffffffffffffffffffffffffffffffffffff1673ffffffffffffffffffffffffffffffffffffffff166370a08231306040518263ffffffff1660e01b8152600401808273ffffffffffffffffffffffffffffffffffffffff1673ffffffffffffffffffffffffffffffffffffffff16815260200191505060206040518083038186803b158015612a3957600080fd5b505afa158015612a4d573d6000803e3d6000fd5b505050506040513d6020811015612a6357600080fd5b81019080805190602001909291905050509050612a81878383613e29565b3373ffffffffffffffffffffffffffffffffffffffff167fbeae048c6d270d9469f86cf6e8fedda3c60ad770f16c24c9fc131c8e9a09101d8f888b60405180848152602001838152602001828152602001935050505060405180910390a260019b5050505050505050505050506001600060156101000a81548160ff02191690831515021790555092915050565b60008060009054906101000a900473ffffffffffffffffffffffffffffffffffffffff16905090565b6000612b42613e90565b73ffffffffffffffffffffffffffffffffffffffff166000809054906101000a900473ffffffffffffffffffffffffffffffffffffffff1673ffffffffffffffffffffffffffffffffffffffff1614612c03576040517f08c379a00000000000000000000000000000000000000000000000000000000081526004018080602001828103825260208152602001807f4f776e61626c653a2063616c6c6572206973206e6f7420746865206f776e657281525060200191505060405180910390fd5b6001600f60008473ffffffffffffffffffffffffffffffffffffffff1673ffffffffffffffffffffffffffffffffffffffff16815260200190815260200160002060006101000a81548160ff021916908315150217905550600b829080600181540180825580915050600190039060005260206000200160009091909190916101000a81548173ffffffffffffffffffffffffffffffffffffffff021916908373ffffffffffffffffffffffffffffffffffffffff16021790555060008273ffffffffffffffffffffffffffffffffffffffff166360f880356040518163ffffffff1660e01b815260040160206040518083038186803b158015612d0657600080fd5b505afa158015612d1a573d6000803e3d6000fd5b505050506040513d6020811015612d3057600080fd5b8101908080519060200190929190505050905080600960006101000a81548173ffffffffffffffffffffffffffffffffffffffff021916908373ffffffffffffffffffffffffffffffffffffffff160217905550600860009054906101000a900473ffffffffffffffffffffffffffffffffffffffff1673ffffffffffffffffffffffffffffffffffffffff1663095ea7b3846b033b2e3c9fd0803ce80000006040518363ffffffff1660e01b8152600401808373ffffffffffffffffffffffffffffffffffffffff1673ffffffffffffffffffffffffffffffffffffffff16815260200182815260200192505050602060405180830381600087803b158015612e3957600080fd5b505af1158015612e4d573d6000803e3d6000fd5b505050506040513d6020811015612e6357600080fd5b810190808051906020019092919050505050600760009054906101000a900473ffffffffffffffffffffffffffffffffffffffff1673ffffffffffffffffffffffffffffffffffffffff1663095ea7b3846b033b2e3c9fd0803ce80000006040518363ffffffff1660e01b8152600401808373ffffffffffffffffffffffffffffffffffffffff1673ffffffffffffffffffffffffffffffffffffffff16815260200182815260200192505050602060405180830381600087803b158015612f2a57600080fd5b505af1158015612f3e573d6000803e3d6000fd5b505050506040513d6020811015612f5457600080fd5b8101908080519060200190929190505050508073ffffffffffffffffffffffffffffffffffffffff1663095ea7b3846b033b2e3c9fd0803ce80000006040518363ffffffff1660e01b8152600401808373ffffffffffffffffffffffffffffffffffffffff1673ffffffffffffffffffffffffffffffffffffffff16815260200182815260200192505050602060405180830381600087803b158015612ff957600080fd5b505af115801561300d573d6000803e3d6000fd5b505050506040513d602081101561302357600080fd5b8101908080519060200190929190505050507f10a6f3b321a2a208b61ef604cd6ef66d5d79ee16620737c0ca6cfc0649fcc94f83604051808273ffffffffffffffffffffffffffffffffffffffff1673ffffffffffffffffffffffffffffffffffffffff16815260200191505060405180910390a182915050919050565b606060058054600181600116156101000203166002900480601f0160208091040260200160405190810160405280929190818152602001828054600181600116156101000203166002900480156131395780601f1061310e57610100808354040283529160200191613139565b820191906000526020600020905b81548152906001019060200180831161311c57829003601f168201915b5050505050905090565b601481565b600061320b613155613e90565b84613206856040518060600160405280602581526020016148e1602591396002600061317f613e90565b73ffffffffffffffffffffffffffffffffffffffff1673ffffffffffffffffffffffffffffffffffffffff16815260200190815260200160002060008a73ffffffffffffffffffffffffffffffffffffffff1673ffffffffffffffffffffffffffffffffffffffff168152602001908152602001600020546143549092919063ffffffff16565b613e98565b6001905092915050565b6000613229613222613e90565b848461408f565b6001905092915050565b60008060149054906101000a900460ff16156132b7576040517f08c379a00000000000000000000000000000000000000000000000000000000081526004018080602001828103825260108152602001807f5061757361626c653a207061757365640000000000000000000000000000000081525060200191505060405180910390fd5b600060159054906101000a900460ff16613339576040517f08c379a000000000000000000000000000000000000000000000000000000000815260040180806020018281038252601f8152602001807f5265656e7472616e637947756172643a207265656e7472616e742063616c6c0081525060200191505060405180910390fd5b60008060156101000a81548160ff0219169083151502179055506000600760009054906101000a900473ffffffffffffffffffffffffffffffffffffffff169050600a60009054906101000a900473ffffffffffffffffffffffffffffffffffffffff1673ffffffffffffffffffffffffffffffffffffffff168173ffffffffffffffffffffffffffffffffffffffff1614156134565782341480156133df5750600083115b613451576040517f08c379a000000000000000000000000000000000000000000000000000000000815260040180806020018281038252600b8152602001807f4552525f42414c5f45544800000000000000000000000000000000000000000081525060200191505060405180910390fd5b613590565b828173ffffffffffffffffffffffffffffffffffffffff166370a08231336040518263ffffffff1660e01b8152600401808273ffffffffffffffffffffffffffffffffffffffff1673ffffffffffffffffffffffffffffffffffffffff16815260200191505060206040518083038186803b1580156134d457600080fd5b505afa1580156134e8573d6000803e3d6000fd5b505050506040513d60208110156134fe57600080fd5b81019080805190602001909291905050501015801561351d5750600083115b61358f576040517f08c379a00000000000000000000000000000000000000000000000000000000081526004018080602001828103825260128152602001807f4552525f42414c5f554e4445524c59494e47000000000000000000000000000081525060200191505060405180910390fd5b5b600080600d54905060006135a26119ce565b905060006135b98284613d5990919063ffffffff16565b14156135c757859250613677565b816135db8288613d5990919063ffffffff16565b101561364f576040517f08c379a00000000000000000000000000000000000000000000000000000000081526004018080602001828103825260088152602001807f4552525f5a45524f00000000000000000000000000000000000000000000000081525060200191505060405180910390fd5b613674826136668389613d5990919063ffffffff16565b613ddf90919063ffffffff16565b92505b613681338461449c565b61369086600e54600c54613e29565b3373ffffffffffffffffffffffffffffffffffffffff167f90890809c654f11d6e72a28fa60149770a0d11ec6c92319d6ceb2bb0a4ea1a158785604051808381526020018281526020019250505060405180910390a2600a60009054906101000a900473ffffffffffffffffffffffffffffffffffffffff1673ffffffffffffffffffffffffffffffffffffffff168473ffffffffffffffffffffffffffffffffffffffff1614156137cc57600a60009054906101000a900473ffffffffffffffffffffffffffffffffffffffff1673ffffffffffffffffffffffffffffffffffffffff1663d0e30db0346040518263ffffffff1660e01b81526004016000604051808303818588803b1580156137a657600080fd5b505af11580156137ba573d6000803e3d6000fd5b505050505060019450505050506138c9565b8373ffffffffffffffffffffffffffffffffffffffff166323b872dd3330896040518463ffffffff1660e01b8152600401808473ffffffffffffffffffffffffffffffffffffffff1673ffffffffffffffffffffffffffffffffffffffff1681526020018373ffffffffffffffffffffffffffffffffffffffff1673ffffffffffffffffffffffffffffffffffffffff1681526020018281526020019350505050602060405180830381600087803b15801561388757600080fd5b505af115801561389b573d6000803e3d6000fd5b505050506040513d60208110156138b157600080fd5b81019080805190602001909291905050509450505050505b6001600060156101000a81548160ff021916908315150217905550919050565b600a81565b606481565b6000600260008473ffffffffffffffffffffffffffffffffffffffff1673ffffffffffffffffffffffffffffffffffffffff16815260200190815260200160002060008373ffffffffffffffffffffffffffffffffffffffff1673ffffffffffffffffffffffffffffffffffffffff16815260200190815260200160002054905092915050565b600e5481565b600d5481565b61398e613e90565b73ffffffffffffffffffffffffffffffffffffffff166000809054906101000a900473ffffffffffffffffffffffffffffffffffffffff1673ffffffffffffffffffffffffffffffffffffffff1614613a4f576040517f08c379a00000000000000000000000000000000000000000000000000000000081526004018080602001828103825260208152602001807f4f776e61626c653a2063616c6c6572206973206e6f7420746865206f776e657281525060200191505060405180910390fd5b600073ffffffffffffffffffffffffffffffffffffffff168173ffffffffffffffffffffffffffffffffffffffff161415613ad5576040517f08c379a00000000000000000000000000000000000000000000000000000000081526004018080602001828103825260268152602001806147c06026913960400191505060405180910390fd5b8073ffffffffffffffffffffffffffffffffffffffff166000809054906101000a900473ffffffffffffffffffffffffffffffffffffffff1673ffffffffffffffffffffffffffffffffffffffff167f8be0079c531659141344cd1fd0a4f28419497f9722a3daafe3b4186f6b6457e060405160405180910390a3806000806101000a81548173ffffffffffffffffffffffffffffffffffffffff021916908373ffffffffffffffffffffffffffffffffffffffff16021790555050565b600073ffffffffffffffffffffffffffffffffffffffff168273ffffffffffffffffffffffffffffffffffffffff161415613c19576040517f08c379a00000000000000000000000000000000000000000000000000000000081526004018080602001828103825260218152602001806148776021913960400191505060405180910390fd5b613c2582600083614665565b613c918160405180606001604052806022815260200161479e60229139600160008673ffffffffffffffffffffffffffffffffffffffff1673ffffffffffffffffffffffffffffffffffffffff168152602001908152602001600020546143549092919063ffffffff16565b600160008473ffffffffffffffffffffffffffffffffffffffff1673ffffffffffffffffffffffffffffffffffffffff16815260200190815260200160002081905550613ce98160035461466a90919063ffffffff16565b600381905550600073ffffffffffffffffffffffffffffffffffffffff168273ffffffffffffffffffffffffffffffffffffffff167fddf252ad1be2c89b69c2b068fc378daa952ba7f163c4a11628f55a4df523b3ef836040518082815260200191505060405180910390a35050565b600080831415613d6c5760009050613dd9565b6000828402905082848281613d7d57fe5b0414613dd4576040517f08c379a000000000000000000000000000000000000000000000000000000000815260040180806020018281038252602181526020018061482e6021913960400191505060405180910390fd5b809150505b92915050565b6000613e2183836040518060400160405280601a81526020017f536166654d6174683a206469766973696f6e206279207a65726f0000000000008152506146b4565b905092915050565b82600d8190555081600e8190555080600c819055507f83646b5da018143f952d3aaf3adca46d3cb6dd8782f9a91609d9ad731f8bdd1e600d54600e54600c5460405180848152602001838152602001828152602001935050505060405180910390a1505050565b600033905090565b600073ffffffffffffffffffffffffffffffffffffffff168373ffffffffffffffffffffffffffffffffffffffff161415613f1e576040517f08c379a00000000000000000000000000000000000000000000000000000000081526004018080602001828103825260248152602001806148bd6024913960400191505060405180910390fd5b600073ffffffffffffffffffffffffffffffffffffffff168273ffffffffffffffffffffffffffffffffffffffff161415613fa4576040517f08c379a00000000000000000000000000000000000000000000000000000000081526004018080602001828103825260228152602001806147e66022913960400191505060405180910390fd5b80600260008573ffffffffffffffffffffffffffffffffffffffff1673ffffffffffffffffffffffffffffffffffffffff16815260200190815260200160002060008473ffffffffffffffffffffffffffffffffffffffff1673ffffffffffffffffffffffffffffffffffffffff168152602001908152602001600020819055508173ffffffffffffffffffffffffffffffffffffffff168373ffffffffffffffffffffffffffffffffffffffff167f8c5be1e5ebec7d5bd14f71427d1e84f3dd0314c0f7b2291e5b200ac8c7c3b925836040518082815260200191505060405180910390a3505050565b600073ffffffffffffffffffffffffffffffffffffffff168373ffffffffffffffffffffffffffffffffffffffff161415614115576040517f08c379a00000000000000000000000000000000000000000000000000000000081526004018080602001828103825260258152602001806148986025913960400191505060405180910390fd5b600073ffffffffffffffffffffffffffffffffffffffff168273ffffffffffffffffffffffffffffffffffffffff16141561419b576040517f08c379a000000000000000000000000000000000000000000000000000000000815260040180806020018281038252602381526020018061477b6023913960400191505060405180910390fd5b6141a6838383614665565b6142128160405180606001604052806026815260200161480860269139600160008773ffffffffffffffffffffffffffffffffffffffff1673ffffffffffffffffffffffffffffffffffffffff168152602001908152602001600020546143549092919063ffffffff16565b600160008573ffffffffffffffffffffffffffffffffffffffff1673ffffffffffffffffffffffffffffffffffffffff168152602001908152602001600020819055506142a781600160008573ffffffffffffffffffffffffffffffffffffffff1673ffffffffffffffffffffffffffffffffffffffff1681526020019081526020016000205461441490919063ffffffff16565b600160008473ffffffffffffffffffffffffffffffffffffffff1673ffffffffffffffffffffffffffffffffffffffff168152602001908152602001600020819055508173ffffffffffffffffffffffffffffffffffffffff168373ffffffffffffffffffffffffffffffffffffffff167fddf252ad1be2c89b69c2b068fc378daa952ba7f163c4a11628f55a4df523b3ef836040518082815260200191505060405180910390a3505050565b6000838311158290614401576040517f08c379a00000000000000000000000000000000000000000000000000000000081526004018080602001828103825283818151815260200191508051906020019080838360005b838110156143c65780820151818401526020810190506143ab565b50505050905090810190601f1680156143f35780820380516001836020036101000a031916815260200191505b509250505060405180910390fd5b5060008385039050809150509392505050565b600080828401905083811015614492576040517f08c379a000000000000000000000000000000000000000000000000000000000815260040180806020018281038252601b8152602001807f536166654d6174683a206164646974696f6e206f766572666c6f77000000000081525060200191505060405180910390fd5b8091505092915050565b600073ffffffffffffffffffffffffffffffffffffffff168273ffffffffffffffffffffffffffffffffffffffff16141561453f576040517f08c379a000000000000000000000000000000000000000000000000000000000815260040180806020018281038252601f8152602001807f45524332303a206d696e7420746f20746865207a65726f20616464726573730081525060200191505060405180910390fd5b61454b60008383614665565b6145608160035461441490919063ffffffff16565b6003819055506145b881600160008573ffffffffffffffffffffffffffffffffffffffff1673ffffffffffffffffffffffffffffffffffffffff1681526020019081526020016000205461441490919063ffffffff16565b600160008473ffffffffffffffffffffffffffffffffffffffff1673ffffffffffffffffffffffffffffffffffffffff168152602001908152602001600020819055508173ffffffffffffffffffffffffffffffffffffffff16600073ffffffffffffffffffffffffffffffffffffffff167fddf252ad1be2c89b69c2b068fc378daa952ba7f163c4a11628f55a4df523b3ef836040518082815260200191505060405180910390a35050565b505050565b60006146ac83836040518060400160405280601e81526020017f536166654d6174683a207375627472616374696f6e206f766572666c6f770000815250614354565b905092915050565b60008083118290614760576040517f08c379a00000000000000000000000000000000000000000000000000000000081526004018080602001828103825283818151815260200191508051906020019080838360005b8381101561472557808201518184015260208101905061470a565b50505050905090810190601f1680156147525780820380516001836020036101000a031916815260200191505b509250505060405180910390fd5b50600083858161476c57fe5b04905080915050939250505056fe45524332303a207472616e7366657220746f20746865207a65726f206164647265737345524332303a206275726e20616d6f756e7420657863656564732062616c616e63654f776e61626c653a206e6577206f776e657220697320746865207a65726f206164647265737345524332303a20617070726f766520746f20746865207a65726f206164647265737345524332303a207472616e7366657220616d6f756e7420657863656564732062616c616e6365536166654d6174683a206d756c7469706c69636174696f6e206f766572666c6f7745524332303a207472616e7366657220616d6f756e74206578636565647320616c6c6f77616e636545524332303a206275726e2066726f6d20746865207a65726f206164647265737345524332303a207472616e736665722066726f6d20746865207a65726f206164647265737345524332303a20617070726f76652066726f6d20746865207a65726f206164647265737345524332303a2064656372656173656420616c6c6f77616e63652062656c6f77207a65726fa26469706673582212207554ef2062bbf97cc4be5c134fa1a367f1bb2ea17fb1eb86dbdad82b17ab500d64736f6c63430006020033",
  "source": "pragma solidity ^0.6.2;\r\n\r\n/**\r\n * @title   Primitive's Market Maker Pool\r\n * @author  Primitive\r\n */\r\n\r\n\r\nimport \"./PrimeInterface.sol\";\r\nimport \"./controller/Instruments.sol\";\r\nimport \"@openzeppelin/contracts/math/SafeMath.sol\";\r\nimport \"@openzeppelin/contracts/access/Ownable.sol\";\r\nimport \"@openzeppelin/contracts/utils/ReentrancyGuard.sol\";\r\nimport \"@openzeppelin/contracts/utils/Pausable.sol\";\r\nimport \"@openzeppelin/contracts/token/ERC20/ERC20.sol\";\r\n\r\n\r\ninterface IWETH {\r\n    function deposit() external payable;\r\n    function withdraw(uint wad) external;\r\n    function totalSupply() external view returns (uint);\r\n    function approve(address guy, uint wad) external returns (bool);\r\n    function transfer(address dst, uint wad) external returns (bool);\r\n    function transferFrom(address src, address dst, uint wad) external returns (bool);\r\n}\r\n\r\ninterface AggregatorInterface {\r\n  function currentAnswer() external view returns (int256);\r\n}\r\n\r\n\r\ncontract PrimePool is Ownable, Pausable, ReentrancyGuard, ERC20 {\r\n    using SafeMath for uint256;\r\n\r\n    uint256 public constant THOUSAND_BPS = 10;\r\n    uint256 public constant FIVE_HUNDRED_BPS = 20;\r\n    uint256 public constant ONE_HUNDRED_BPS = 100;\r\n\r\n    AggregatorInterface public oracle;\r\n\r\n    address public tokenU;\r\n    address public tokenS;\r\n    address public tokenR;\r\n    address payable public weth;\r\n    address[] public _optionMarkets;\r\n\r\n    uint256 public cacheR;\r\n    uint256 public cacheU;\r\n    uint256 public cacheS;\r\n\r\n    mapping(address => bool) public isValidOption;\r\n\r\n    event Deposit(address indexed user, uint256 inTokenU, uint256 outTokenPULP);\r\n    event Withdraw(address indexed user, uint256 outTokenU, uint256 inTokenR);\r\n    event Buy(address indexed user, uint256 inTokenS, uint256 outTokenU, uint256 premium);\r\n    event Fund(uint256 cacheU, uint256 cacheS, uint256 cacheR);\r\n    event Market(address tokenP);\r\n\r\n    constructor (\r\n        address payable _weth,\r\n        address _oracle,\r\n        string memory name,\r\n        string memory symbol,\r\n        address _tokenU,\r\n        address _tokenS\r\n    ) \r\n        public\r\n        ERC20(name, symbol)\r\n    {\r\n        oracle = AggregatorInterface(_oracle);\r\n        weth = _weth;\r\n        tokenU = _tokenU;\r\n        tokenS = _tokenS;\r\n    }\r\n\r\n    function assets() public view returns (address _tokenU, address _tokenS) {\r\n        _tokenU = tokenU;\r\n        _tokenS = tokenS;\r\n    }\r\n\r\n    function _fund(uint256 _cacheU, uint256 _cacheS, uint256 _cacheR) private {\r\n        cacheU = _cacheU;\r\n        cacheS = _cacheS;\r\n        cacheR = _cacheR;\r\n        emit Fund(cacheU, cacheS, cacheR);\r\n    }\r\n\r\n    function addMarket(address tokenP) public onlyOwner returns (address) {\r\n        isValidOption[tokenP] = true;\r\n        _optionMarkets.push(tokenP);\r\n        address _tokenR = IPrime(tokenP).tokenR();\r\n        tokenR = _tokenR;\r\n\r\n        IERC20(tokenS).approve(tokenP, 1000000000 ether);\r\n        IERC20(tokenU).approve(tokenP, 1000000000 ether);\r\n        IERC20(_tokenR).approve(tokenP, 1000000000 ether);\r\n        emit Market(tokenP);\r\n        return tokenP;\r\n    }\r\n\r\n\r\n    receive() external payable {\r\n        assert(msg.sender == weth);\r\n    }\r\n\r\n\r\n    /* =========== MAKER FUNCTIONS =========== */\r\n\r\n    /**\r\n     * @dev Adds liquidity by depositing tokenU. Receives tokenPULP.\r\n     * @param amount The quantity of tokenU to deposit.\r\n     * @return bool True if the transaction suceeds.\r\n     */\r\n    function deposit(\r\n        uint256 amount\r\n    )\r\n        external\r\n        payable\r\n        whenNotPaused\r\n        nonReentrant\r\n        returns (bool)\r\n    {\r\n\r\n        // Store locally for gas savings.\r\n        address _tokenU = tokenU;\r\n        if(_tokenU == weth) {\r\n            require(msg.value == amount && amount > 0, \"ERR_BAL_ETH\");\r\n        } else {\r\n            require(IERC20(_tokenU).balanceOf(msg.sender) >= amount && amount > 0, \"ERR_BAL_UNDERLYING\");\r\n        }\r\n        \r\n\r\n        // Mint LP tokens proportional to the Total LP Supply and Total Pool Balance\r\n        uint256 outTokenPULP;\r\n        uint256 _cacheU = cacheU;\r\n        uint256 totalSupply = totalSupply();\r\n         \r\n        // If liquidity is not intiialized, mint LP tokens equal to deposit\r\n        if(_cacheU.mul(totalSupply) == 0) {\r\n            outTokenPULP = amount;\r\n        } else {\r\n            require(amount.mul(totalSupply) >= _cacheU, \"ERR_ZERO\");\r\n            outTokenPULP = amount.mul(totalSupply).div(_cacheU);\r\n        }\r\n\r\n\r\n        _mint(msg.sender, outTokenPULP);\r\n        _fund(amount, cacheS, cacheR);\r\n        emit Deposit(msg.sender, amount, outTokenPULP);\r\n\r\n        // Assume we hold the _tokenU asset until it is utilized in minting a Prime\r\n        if(_tokenU == weth) {\r\n            IWETH(weth).deposit.value(msg.value)();\r\n            return true;\r\n        } else {\r\n            return IERC20(_tokenU).transferFrom(msg.sender, address(this), amount);\r\n        }\r\n    }\r\n\r\n    /**\r\n     * @dev liquidity Provider burns their tokenPULP for proportional amount of tokenU + tokenS.\r\n     * @notice  outTokenU = inTokenPULP * cacheU / total supply tokenPULP, \r\n     *          outTokenS = inTokenPULP * cacheR / total supply tokenPULP \r\n     *          If the pool is fully utilized and there are no strike assets to redeem,\r\n     *          the LPs will have to wait.\r\n     * @param amount The quantity of liquidity tokens to burn.\r\n     * @return bool Returns true if liquidity tokens were burned both tokenU + tokenS were sent to user.\r\n     */\r\n    function withdraw(\r\n        uint256 amount,\r\n        address tokenP\r\n    ) \r\n        external \r\n        nonReentrant \r\n        returns (bool)\r\n    {\r\n        // Check tokenPULP balance.\r\n        require(balanceOf(msg.sender) >= amount && amount > 0, \"ERR_BAL_PULP\");\r\n        \r\n        // Store total supply before we burn\r\n        uint256 totalSupply = totalSupply();\r\n\r\n        // Burn tokenPULP.\r\n        _burn(msg.sender, amount);\r\n\r\n        // Store locally for gas savings.\r\n        address _tokenU = tokenU;\r\n        address _tokenS = tokenS;\r\n        address _tokenR = tokenR;\r\n        \r\n        // Current balance.\r\n        uint256 balanceU = IERC20(_tokenU).balanceOf(address(this));\r\n\r\n        // outTokenU = inTokenPULP * cached balance of tokenU / Total Supply of tokenPULP\r\n        uint256 outTokenU = amount.mul(cacheU).div(totalSupply);\r\n\r\n        // outTokenR = inTokenPULP * cached balance of tokenR / Total Supply of tokenPULP\r\n        // tokenR is redeemable for 1:1 of tokenS.\r\n        // Redeem outTokenS amount of tokenR.\r\n        // Send redeemed tokenS to msg.sender.\r\n        uint256 outTokenR = amount.mul(cacheR).div(totalSupply);\r\n\r\n        // Cached balance of tokenS in tokenP must be >= outTokenR.\r\n        (uint256 maxDraw) = IPrime(tokenP).maxDraw();\r\n        require(maxDraw >= outTokenR, \"ERR_BAL_STRIKE\");\r\n\r\n        // Send tokenR to tokenP so we can call redeem() later to tokenP.\r\n        (bool success) = IERC20(_tokenR).transfer(tokenP, outTokenR);\r\n\r\n        // Current balances.\r\n        balanceU = IERC20(_tokenU).balanceOf(address(this));\r\n        uint256 balanceS = IERC20(_tokenS).balanceOf(address(this));\r\n        uint256 balanceR = IERC20(_tokenR).balanceOf(address(this));\r\n\r\n        // Update cached balances.\r\n        _fund(balanceU, balanceS, balanceR);\r\n        emit Withdraw(msg.sender, outTokenU, outTokenR);\r\n    \r\n        // Call redeem.\r\n        (uint256 inTokenR) = IPrime(tokenP).redeem(msg.sender);\r\n        assert(inTokenR == outTokenR && success);\r\n\r\n        // Send outTokenU to msg.sender.\r\n        if(_tokenU == weth) {\r\n            IWETH(weth).withdraw(outTokenU);\r\n            (bool success, ) = msg.sender.call.value(outTokenU)(\"\");\r\n            require(success, \"Send ether fail\");\r\n            return success;\r\n        } else {\r\n            return IERC20(_tokenU).transfer(msg.sender, outTokenU);\r\n        }\r\n    }\r\n\r\n\r\n    /* =========== TAKER FUNCTIONS =========== */\r\n\r\n\r\n    /**\r\n     * @dev Purchase ETH Put -> tokenU is DAI and tokenS is WETH. Pool holds tokenU.\r\n     * @param amount The quantity of tokenU to 'cover' with an option. Denominated in tokenS.\r\n     */\r\n    function buy(\r\n        uint256 amount,\r\n        address tokenP\r\n    )\r\n        external \r\n        payable\r\n        nonReentrant\r\n        returns (bool)\r\n    {\r\n        // Store locally for gas savings.\r\n        address _tokenP = tokenP; // Assume Option\r\n        address _tokenU = tokenU; // Assume DAI\r\n        address _tokenS = tokenS; // Assume ETH\r\n\r\n        // Premium is 1% - FIX\r\n        uint256 premium = amount.div(ONE_HUNDRED_BPS);\r\n\r\n        // Premium is paid in tokenS. If tokenS is WETH, its paid with ETH.\r\n        if(_tokenS == weth) {\r\n            require(msg.value >= premium && premium > 0, \"ERR_BAL_ETH\");\r\n            IWETH(weth).deposit.value(premium)();\r\n        } else {\r\n            require(IERC20(_tokenS).balanceOf(msg.sender) >= amount && amount > 0, \"ERR_BAL_STRIKE\");\r\n        }\r\n\r\n        // Current balance.\r\n        uint256 balanceU = IERC20(_tokenU).balanceOf(address(this));\r\n\r\n        // ex. 1-0.1=0.9, 0.9 * 200 / 1 = 180.\r\n        uint256 outTokenU = amount.mul(IPrime(_tokenP).base()).div(IPrime(_tokenP).price()); \r\n\r\n        // Transfer tokenU (assume DAI) to option contract using Pool funds.\r\n        require(balanceU >= outTokenU, \"ERR_BAL_UNDERLYING\");\r\n        (bool transferU) = IERC20(_tokenU).transfer(_tokenP, outTokenU);\r\n\r\n        // Mint Prime.\r\n        (uint256 inTokenU,) = IPrime(_tokenP).mint(address(this)); // MAYBE FIX MINT FUNC\r\n\r\n        // Send Prime to msg.sender.\r\n        (bool transferP) = IPrime(_tokenP).transfer(msg.sender, inTokenU);\r\n\r\n        // Assert transfers were successful\r\n        require(transferU && transferP, \"ERR_TRANSFER_FAIL\");\r\n\r\n        // Current balances.\r\n        balanceU = IERC20(_tokenU).balanceOf(address(this));\r\n        uint256 balanceS = IERC20(_tokenS).balanceOf(address(this));\r\n        uint256 balanceR = IERC20(tokenR).balanceOf(address(this));\r\n\r\n        // Update cached balances.\r\n        _fund(balanceU, balanceS, balanceR);\r\n        emit Buy(msg.sender, amount, outTokenU, premium);\r\n        return true;\r\n    }\r\n\r\n    function calculatePremium(uint256 amount) public returns (uint256 premium) {\r\n        uint256 price = uint(oracle.currentAnswer()); // FIX ONLY WORKS ON MAINNET Assume price of ETHER\r\n    }\r\n}\r\n\r\n    ",
  "sourcePath": "C:\\Users\\alexa\\OneDrive\\Documents\\Master\\Blockchain\\Projects\\carbon\\contracts\\PrimePool.sol",
  "compiler": {
    "name": "solc",
    "version": "0.6.2+commit.bacdbe57.Emscripten.clang"
  },
  "schemaVersion": "3.0.23",
  "updatedAt": "2020-04-28T18:00:30.225Z",
  "devdoc": {
    "methods": {
      "allowance(address,address)": {
        "details": "See {IERC20-allowance}."
      },
      "approve(address,uint256)": {
        "details": "See {IERC20-approve}.     * Requirements:     * - `spender` cannot be the zero address."
      },
      "balanceOf(address)": {
        "details": "See {IERC20-balanceOf}."
      },
      "buy(uint256,address)": {
        "details": "Purchase ETH Put -> tokenU is DAI and tokenS is WETH. Pool holds tokenU.",
        "params": {
          "amount": "The quantity of tokenU to 'cover' with an option. Denominated in tokenS."
        }
      },
      "decimals()": {
        "details": "Returns the number of decimals used to get its user representation. For example, if `decimals` equals `2`, a balance of `505` tokens should be displayed to a user as `5,05` (`505 / 10 ** 2`).     * Tokens usually opt for a value of 18, imitating the relationship between Ether and Wei. This is the value {ERC20} uses, unless {_setupDecimals} is called.     * NOTE: This information is only used for _display_ purposes: it in no way affects any of the arithmetic of the contract, including {IERC20-balanceOf} and {IERC20-transfer}."
      },
      "decreaseAllowance(address,uint256)": {
        "details": "Atomically decreases the allowance granted to `spender` by the caller.     * This is an alternative to {approve} that can be used as a mitigation for problems described in {IERC20-approve}.     * Emits an {Approval} event indicating the updated allowance.     * Requirements:     * - `spender` cannot be the zero address. - `spender` must have allowance for the caller of at least `subtractedValue`."
      },
      "deposit(uint256)": {
        "details": "Adds liquidity by depositing tokenU. Receives tokenPULP.",
        "params": {
          "amount": "The quantity of tokenU to deposit."
        },
        "returns": {
          "_0": "bool True if the transaction suceeds."
        }
      },
      "increaseAllowance(address,uint256)": {
        "details": "Atomically increases the allowance granted to `spender` by the caller.     * This is an alternative to {approve} that can be used as a mitigation for problems described in {IERC20-approve}.     * Emits an {Approval} event indicating the updated allowance.     * Requirements:     * - `spender` cannot be the zero address."
      },
      "name()": {
        "details": "Returns the name of the token."
      },
      "owner()": {
        "details": "Returns the address of the current owner."
      },
      "paused()": {
        "details": "Returns true if the contract is paused, and false otherwise."
      },
      "renounceOwnership()": {
        "details": "Leaves the contract without owner. It will not be possible to call `onlyOwner` functions anymore. Can only be called by the current owner.     * NOTE: Renouncing ownership will leave the contract without an owner, thereby removing any functionality that is only available to the owner."
      },
      "symbol()": {
        "details": "Returns the symbol of the token, usually a shorter version of the name."
      },
      "totalSupply()": {
        "details": "See {IERC20-totalSupply}."
      },
      "transfer(address,uint256)": {
        "details": "See {IERC20-transfer}.     * Requirements:     * - `recipient` cannot be the zero address. - the caller must have a balance of at least `amount`."
      },
      "transferFrom(address,address,uint256)": {
        "details": "See {IERC20-transferFrom}.     * Emits an {Approval} event indicating the updated allowance. This is not required by the EIP. See the note at the beginning of {ERC20};     * Requirements: - `sender` and `recipient` cannot be the zero address. - `sender` must have a balance of at least `amount`. - the caller must have allowance for ``sender``'s tokens of at least `amount`."
      },
      "transferOwnership(address)": {
        "details": "Transfers ownership of the contract to a new account (`newOwner`). Can only be called by the current owner."
      },
      "withdraw(uint256,address)": {
        "details": "liquidity Provider burns their tokenPULP for proportional amount of tokenU + tokenS.",
        "params": {
          "amount": "The quantity of liquidity tokens to burn."
        },
        "returns": {
          "_0": "bool Returns true if liquidity tokens were burned both tokenU + tokenS were sent to user."
        }
      }
    }
  },
  "userdoc": {
    "methods": {
      "withdraw(uint256,address)": {
        "notice": "outTokenU = inTokenPULP * cacheU / total supply tokenPULP,          outTokenS = inTokenPULP * cacheR / total supply tokenPULP          If the pool is fully utilized and there are no strike assets to redeem,         the LPs will have to wait."
      }
    }
  }
}