{
  "address": "0xccAc85a39478A550e97d6ce712Cef41431165B4C",
  "abi": [
    {
      "inputs": [
        {
          "internalType": "address",
          "name": "registry",
          "type": "address"
        }
      ],
      "stateMutability": "nonpayable",
      "type": "constructor"
    },
    {
      "anonymous": false,
      "inputs": [
        {
          "indexed": true,
          "internalType": "address",
          "name": "previousOwner",
          "type": "address"
        },
        {
          "indexed": true,
          "internalType": "address",
          "name": "newOwner",
          "type": "address"
        }
      ],
      "name": "OwnershipTransferred",
      "type": "event"
    },
    {
      "inputs": [
        {
          "internalType": "address",
          "name": "underlyingToken",
          "type": "address"
        },
        {
          "internalType": "address",
          "name": "strikeToken",
          "type": "address"
        },
        {
          "internalType": "uint256",
          "name": "base",
          "type": "uint256"
        },
        {
          "internalType": "uint256",
          "name": "quote",
          "type": "uint256"
        },
        {
          "internalType": "uint256",
          "name": "expiry",
          "type": "uint256"
        }
      ],
      "name": "calculateOptionAddress",
      "outputs": [
        {
          "internalType": "address",
          "name": "",
          "type": "address"
        }
      ],
      "stateMutability": "view",
      "type": "function"
    },
    {
      "inputs": [
        {
          "internalType": "bytes",
          "name": "consData",
          "type": "bytes"
        }
      ],
      "name": "cloneConstructor",
      "outputs": [],
      "stateMutability": "nonpayable",
      "type": "function"
    },
    {
      "inputs": [
        {
          "internalType": "address",
          "name": "underlyingToken",
          "type": "address"
        },
        {
          "internalType": "address",
          "name": "strikeToken",
          "type": "address"
        },
        {
          "internalType": "uint256",
          "name": "base",
          "type": "uint256"
        },
        {
          "internalType": "uint256",
          "name": "quote",
          "type": "uint256"
        },
        {
          "internalType": "uint256",
          "name": "expiry",
          "type": "uint256"
        }
      ],
      "name": "deployClone",
      "outputs": [
        {
          "internalType": "address",
          "name": "",
          "type": "address"
        }
      ],
      "stateMutability": "nonpayable",
      "type": "function"
    },
    {
      "inputs": [],
      "name": "deployOptionTemplate",
      "outputs": [],
      "stateMutability": "nonpayable",
      "type": "function"
    },
    {
      "inputs": [
        {
          "internalType": "address",
          "name": "optionAddress",
          "type": "address"
        },
        {
          "internalType": "address",
          "name": "redeemAddress",
          "type": "address"
        }
      ],
      "name": "initRedeemToken",
      "outputs": [],
      "stateMutability": "nonpayable",
      "type": "function"
    },
    {
      "inputs": [],
      "name": "optionTemplate",
      "outputs": [
        {
          "internalType": "address",
          "name": "",
          "type": "address"
        }
      ],
      "stateMutability": "view",
      "type": "function"
    },
    {
      "inputs": [],
      "name": "owner",
      "outputs": [
        {
          "internalType": "address",
          "name": "",
          "type": "address"
        }
      ],
      "stateMutability": "view",
      "type": "function"
    },
    {
      "inputs": [],
      "name": "renounceOwnership",
      "outputs": [],
      "stateMutability": "nonpayable",
      "type": "function"
    },
    {
      "inputs": [
        {
          "internalType": "address",
          "name": "newOwner",
          "type": "address"
        }
      ],
      "name": "transferOwnership",
      "outputs": [],
      "stateMutability": "nonpayable",
      "type": "function"
    }
  ],
  "transactionHash": "0x8a7190947f3a83a9f0aaee560ea8e5bcf8864c334bbbaee8ec877c941e0e5dbd",
  "args": [
    "0x76582d77C4e9e14e5A95429E9C18C3780eaB38fB"
  ],
  "solcInputHash": "e8df3bbc9cd68519fa878cebbe263f7f",
  "bytecode": "0x608060405234801561001057600080fd5b50604051610d12380380610d128339818101604052602081101561003357600080fd5b505160006100486001600160e01b0361009816565b600080546001600160a01b0319166001600160a01b038316908117825560405192935091600080516020610cf2833981519152908290a350610092816001600160e01b0361009c16565b5061019d565b3390565b6100ad6001600160e01b0361009816565b6000546001600160a01b0390811691161461010f576040805162461bcd60e51b815260206004820181905260248201527f4f776e61626c653a2063616c6c6572206973206e6f7420746865206f776e6572604482015290519081900360640190fd5b6001600160a01b0381166101545760405162461bcd60e51b8152600401808060200182810382526026815260200180610ccc6026913960400191505060405180910390fd5b600080546040516001600160a01b0380851693921691600080516020610cf283398151915291a3600080546001600160a01b0319166001600160a01b0392909216919091179055565b610b20806101ac6000396000f3fe608060405234801561001057600080fd5b50600436106100935760003560e01c80638da5cb5b116100665780638da5cb5b146101d45780638dd7cc90146101dc578063b570eed8146101e4578063d604a1ef146101ec578063f2fde38b1461022e57610093565b80632e53926d1461009857806335638b6b146100f657806352e831dd14610126578063715018a6146101cc575b600080fd5b6100da600480360360a08110156100ae57600080fd5b506001600160a01b03813581169160208101359091169060408101359060608101359060800135610254565b604080516001600160a01b039092168252519081900360200190f35b6101246004803603604081101561010c57600080fd5b506001600160a01b03813581169160200135166102de565b005b6101246004803603602081101561013c57600080fd5b81019060208101813564010000000081111561015757600080fd5b82018360208201111561016957600080fd5b8035906020019184600183028401116401000000008311171561018b57600080fd5b91908080601f0160208091040260200160405190810160405280939291908181526020018383808284376000920191909152509295506103aa945050505050565b6101246103ad565b6100da61044f565b6100da61045e565b61012461046d565b6100da600480360360a081101561020257600080fd5b506001600160a01b038135811691602081013590911690604081013590606081013590608001356104fe565b6101246004803603602081101561024457600080fd5b50356001600160a01b03166106c1565b60008061025f6107b9565b604080516020808201939093526001600160601b031960608b811b8216838501528a901b166054820152606881018890526088810187905260a88082018790528251808303909101815260c890910190915280519101206001549091506000906102d2906001600160a01b0316836107dd565b98975050505050505050565b6102e66107ff565b6000546001600160a01b03908116911614610336576040805162461bcd60e51b81526020600482018190526024820152600080516020610acb833981519152604482015290519081900360640190fd5b816001600160a01b031663b43bb135826040518263ffffffff1660e01b815260040180826001600160a01b03166001600160a01b03168152602001915050600060405180830381600087803b15801561038e57600080fd5b505af11580156103a2573d6000803e3d6000fd5b505050505050565b50565b6103b56107ff565b6000546001600160a01b03908116911614610405576040805162461bcd60e51b81526020600482018190526024820152600080516020610acb833981519152604482015290519081900360640190fd5b600080546040516001600160a01b03909116907f8be0079c531659141344cd1fd0a4f28419497f9722a3daafe3b4186f6b6457e0908390a3600080546001600160a01b0319169055565b6000546001600160a01b031690565b6001546001600160a01b031681565b737A36212D8B979965d9B99A68F9709eD14cf04e38634b5e54886040518163ffffffff1660e01b815260040160206040518083038186803b1580156104b157600080fd5b505af41580156104c5573d6000803e3d6000fd5b505050506040513d60208110156104db57600080fd5b5051600180546001600160a01b0319166001600160a01b03909216919091179055565b60006105086107ff565b6000546001600160a01b03908116911614610558576040805162461bcd60e51b81526020600482018190526024820152600080516020610acb833981519152604482015290519081900360640190fd5b6001546001600160a01b03166105b5576040805162461bcd60e51b815260206004820152601860248201527f4552525f4e4f5f4445504c4f5945445f54454d504c4154450000000000000000604482015290519081900360640190fd5b60006105bf6107b9565b604080516020808201939093526001600160601b031960608b811b8216838501528a901b166054820152606881018890526088810187905260a88082018790528251808303909101815260c89091019091528051910120600154909150600090610632906001600160a01b031683610803565b6040805163344fe42d60e21b81526001600160a01b038b811660048301528a81166024830152604482018a9052606482018990526084820188905291519293509083169163d13f90b49160a48082019260009290919082900301818387803b15801561069d57600080fd5b505af11580156106b1573d6000803e3d6000fd5b50929a9950505050505050505050565b6106c96107ff565b6000546001600160a01b03908116911614610719576040805162461bcd60e51b81526020600482018190526024820152600080516020610acb833981519152604482015290519081900360640190fd5b6001600160a01b03811661075e5760405162461bcd60e51b8152600401808060200182810382526026815260200180610aa56026913960400191505060405180910390fd5b600080546040516001600160a01b03808516939216917f8be0079c531659141344cd1fd0a4f28419497f9722a3daafe3b4186f6b6457e091a3600080546001600160a01b0319166001600160a01b0392909216919091179055565b7f56f3a99c8e36689645460020839ea1340cbbb2e507b7effe3f180a89db85dd8790565b60006107f8826107ec8561087b565b8051906020012061088d565b9392505050565b3390565b600060606108108461087b565b80519091508390602083018282826000f5945050506001600160a01b038316610873576040805162461bcd60e51b815260206004820152601060248201526f11549497d0d4915055114c97d190525360821b604482015290519081900360640190fd5b505092915050565b6060610887308361089a565b92915050565b60006107f8838330610a45565b6040805160008082526020808301938490526044830190815282516064840181905260609485949383926084860192918190849084905b838110156108e95781810151838201526020016108d1565b50505050905090810190601f1680156109165780820380516001836020036101000a031916815260200191505b5060408051601f1981840381018252928252602080820180516001600160e01b03166352e831dd60e01b17905281518351606382018082526082909201909516850190910190925295509093509150508015610979576020820181803883390190505b507f3d3d606380380380913d393d73bebebebebebebebebebebebebebebebebebebe6020820152600160601b858102602d8301527f5af4602a57600080fd5b602d8060366000396000f3363d3d373d3d3d363d73be6041830152840260608201526e5af43d82803e903d91602b57fd5bf360881b6074820152915060005b815181101561087357818181518110610a0c57fe5b602001015160f81c60f81b838260630181518110610a2657fe5b60200101906001600160f81b031916908160001a9053506001016109f7565b604080516001600160f81b031960208083019190915260609390931b6001600160601b0319166021820152603581019490945260558085019390935280518085039093018352607590930190925280519101206001600160a01b03169056fe4f776e61626c653a206e6577206f776e657220697320746865207a65726f20616464726573734f776e61626c653a2063616c6c6572206973206e6f7420746865206f776e6572a26469706673582212205ddb26e3d7342748075c8fda6d11629538894b626ab38819890b2eb5f11a08d664736f6c634300060200334f776e61626c653a206e6577206f776e657220697320746865207a65726f20616464726573738be0079c531659141344cd1fd0a4f28419497f9722a3daafe3b4186f6b6457e0",
  "deployedBytecode": "0x608060405234801561001057600080fd5b50600436106100935760003560e01c80638da5cb5b116100665780638da5cb5b146101d45780638dd7cc90146101dc578063b570eed8146101e4578063d604a1ef146101ec578063f2fde38b1461022e57610093565b80632e53926d1461009857806335638b6b146100f657806352e831dd14610126578063715018a6146101cc575b600080fd5b6100da600480360360a08110156100ae57600080fd5b506001600160a01b03813581169160208101359091169060408101359060608101359060800135610254565b604080516001600160a01b039092168252519081900360200190f35b6101246004803603604081101561010c57600080fd5b506001600160a01b03813581169160200135166102de565b005b6101246004803603602081101561013c57600080fd5b81019060208101813564010000000081111561015757600080fd5b82018360208201111561016957600080fd5b8035906020019184600183028401116401000000008311171561018b57600080fd5b91908080601f0160208091040260200160405190810160405280939291908181526020018383808284376000920191909152509295506103aa945050505050565b6101246103ad565b6100da61044f565b6100da61045e565b61012461046d565b6100da600480360360a081101561020257600080fd5b506001600160a01b038135811691602081013590911690604081013590606081013590608001356104fe565b6101246004803603602081101561024457600080fd5b50356001600160a01b03166106c1565b60008061025f6107b9565b604080516020808201939093526001600160601b031960608b811b8216838501528a901b166054820152606881018890526088810187905260a88082018790528251808303909101815260c890910190915280519101206001549091506000906102d2906001600160a01b0316836107dd565b98975050505050505050565b6102e66107ff565b6000546001600160a01b03908116911614610336576040805162461bcd60e51b81526020600482018190526024820152600080516020610acb833981519152604482015290519081900360640190fd5b816001600160a01b031663b43bb135826040518263ffffffff1660e01b815260040180826001600160a01b03166001600160a01b03168152602001915050600060405180830381600087803b15801561038e57600080fd5b505af11580156103a2573d6000803e3d6000fd5b505050505050565b50565b6103b56107ff565b6000546001600160a01b03908116911614610405576040805162461bcd60e51b81526020600482018190526024820152600080516020610acb833981519152604482015290519081900360640190fd5b600080546040516001600160a01b03909116907f8be0079c531659141344cd1fd0a4f28419497f9722a3daafe3b4186f6b6457e0908390a3600080546001600160a01b0319169055565b6000546001600160a01b031690565b6001546001600160a01b031681565b73__$e66ec45a77c89e1b8bb13f01de0ae8794c$__634b5e54886040518163ffffffff1660e01b815260040160206040518083038186803b1580156104b157600080fd5b505af41580156104c5573d6000803e3d6000fd5b505050506040513d60208110156104db57600080fd5b5051600180546001600160a01b0319166001600160a01b03909216919091179055565b60006105086107ff565b6000546001600160a01b03908116911614610558576040805162461bcd60e51b81526020600482018190526024820152600080516020610acb833981519152604482015290519081900360640190fd5b6001546001600160a01b03166105b5576040805162461bcd60e51b815260206004820152601860248201527f4552525f4e4f5f4445504c4f5945445f54454d504c4154450000000000000000604482015290519081900360640190fd5b60006105bf6107b9565b604080516020808201939093526001600160601b031960608b811b8216838501528a901b166054820152606881018890526088810187905260a88082018790528251808303909101815260c89091019091528051910120600154909150600090610632906001600160a01b031683610803565b6040805163344fe42d60e21b81526001600160a01b038b811660048301528a81166024830152604482018a9052606482018990526084820188905291519293509083169163d13f90b49160a48082019260009290919082900301818387803b15801561069d57600080fd5b505af11580156106b1573d6000803e3d6000fd5b50929a9950505050505050505050565b6106c96107ff565b6000546001600160a01b03908116911614610719576040805162461bcd60e51b81526020600482018190526024820152600080516020610acb833981519152604482015290519081900360640190fd5b6001600160a01b03811661075e5760405162461bcd60e51b8152600401808060200182810382526026815260200180610aa56026913960400191505060405180910390fd5b600080546040516001600160a01b03808516939216917f8be0079c531659141344cd1fd0a4f28419497f9722a3daafe3b4186f6b6457e091a3600080546001600160a01b0319166001600160a01b0392909216919091179055565b7f56f3a99c8e36689645460020839ea1340cbbb2e507b7effe3f180a89db85dd8790565b60006107f8826107ec8561087b565b8051906020012061088d565b9392505050565b3390565b600060606108108461087b565b80519091508390602083018282826000f5945050506001600160a01b038316610873576040805162461bcd60e51b815260206004820152601060248201526f11549497d0d4915055114c97d190525360821b604482015290519081900360640190fd5b505092915050565b6060610887308361089a565b92915050565b60006107f8838330610a45565b6040805160008082526020808301938490526044830190815282516064840181905260609485949383926084860192918190849084905b838110156108e95781810151838201526020016108d1565b50505050905090810190601f1680156109165780820380516001836020036101000a031916815260200191505b5060408051601f1981840381018252928252602080820180516001600160e01b03166352e831dd60e01b17905281518351606382018082526082909201909516850190910190925295509093509150508015610979576020820181803883390190505b507f3d3d606380380380913d393d73bebebebebebebebebebebebebebebebebebebe6020820152600160601b858102602d8301527f5af4602a57600080fd5b602d8060366000396000f3363d3d373d3d3d363d73be6041830152840260608201526e5af43d82803e903d91602b57fd5bf360881b6074820152915060005b815181101561087357818181518110610a0c57fe5b602001015160f81c60f81b838260630181518110610a2657fe5b60200101906001600160f81b031916908160001a9053506001016109f7565b604080516001600160f81b031960208083019190915260609390931b6001600160601b0319166021820152603581019490945260558085019390935280518085039093018352607590930190925280519101206001600160a01b03169056fe4f776e61626c653a206e6577206f776e657220697320746865207a65726f20616464726573734f776e61626c653a2063616c6c6572206973206e6f7420746865206f776e6572a26469706673582212205ddb26e3d7342748075c8fda6d11629538894b626ab38819890b2eb5f11a08d664736f6c63430006020033",
  "libraries": {
    "OptionTemplateLib": "0x7A36212D8B979965d9B99A68F9709eD14cf04e38"
  },
  "devdoc": {
    "methods": {
      "calculateOptionAddress(address,address,uint256,uint256,uint256)": {
        "details": "Calculates the option token's address using the five option parameters.",
        "returns": {
          "_0": "The address of the option with the parameter arguments."
        }
      },
      "deployClone(address,address,uint256,uint256,uint256)": {
        "details": "Deploys a create2 clone of the option template contract.",
        "params": {
          "base": "The quantity of underlying tokens per unit of quote amount of strike tokens.",
          "expiry": "The unix timestamp for option expiry.",
          "quote": "The quantity of strike tokens per unit of base amount of underlying tokens.",
          "strikeToken": "The address of the strike ERC-20 token.",
          "underlyingToken": "The address of the underlying ERC-20 token."
        }
      },
      "deployOptionTemplate()": {
        "details": "Deploys the bytecode for the Option contract."
      },
      "initRedeemToken(address,address)": {
        "details": "Only the factory can call the initRedeemToken function to set the redeem token address. This function is only callable by the Registry contract (the owner)."
      },
      "owner()": {
        "details": "Returns the address of the current owner."
      },
      "renounceOwnership()": {
        "details": "Leaves the contract without owner. It will not be possible to call `onlyOwner` functions anymore. Can only be called by the current owner.     * NOTE: Renouncing ownership will leave the contract without an owner, thereby removing any functionality that is only available to the owner."
      },
      "transferOwnership(address)": {
        "details": "Transfers ownership of the contract to a new account (`newOwner`). Can only be called by the current owner."
      }
    }
  },
  "userdoc": {
    "methods": {}
  },
  "storageLayout": {
    "storage": [
      {
        "astId": 33,
        "contract": "contracts/option/applications/factories/OptionFactory.sol:OptionFactory",
        "label": "_owner",
        "offset": 0,
        "slot": "0",
        "type": "t_address"
      },
      {
        "astId": 1941,
        "contract": "contracts/option/applications/factories/OptionFactory.sol:OptionFactory",
        "label": "optionTemplate",
        "offset": 0,
        "slot": "1",
        "type": "t_address"
      }
    ],
    "types": {
      "t_address": {
        "encoding": "inplace",
        "label": "address",
        "numberOfBytes": "20"
      }
    }
  }
}