{
  "address": "0x2d77b1D0fF56f6c0bA59A8993F58823D68285e0F",
  "abi": [
    {
      "inputs": [
        {
          "internalType": "address",
          "name": "registry",
          "type": "address"
        }
      ],
      "stateMutability": "nonpayable",
      "type": "constructor"
    },
    {
      "anonymous": false,
      "inputs": [
        {
          "indexed": true,
          "internalType": "address",
          "name": "previousOwner",
          "type": "address"
        },
        {
          "indexed": true,
          "internalType": "address",
          "name": "newOwner",
          "type": "address"
        }
      ],
      "name": "OwnershipTransferred",
      "type": "event"
    },
    {
      "inputs": [
        {
          "internalType": "bytes",
          "name": "consData",
          "type": "bytes"
        }
      ],
      "name": "cloneConstructor",
      "outputs": [],
      "stateMutability": "nonpayable",
      "type": "function"
    },
    {
      "inputs": [
        {
          "internalType": "address",
          "name": "optionToken",
          "type": "address"
        }
      ],
      "name": "deployClone",
      "outputs": [
        {
          "internalType": "address",
          "name": "",
          "type": "address"
        }
      ],
      "stateMutability": "nonpayable",
      "type": "function"
    },
    {
      "inputs": [],
      "name": "deployRedeemTemplate",
      "outputs": [],
      "stateMutability": "nonpayable",
      "type": "function"
    },
    {
      "inputs": [],
      "name": "owner",
      "outputs": [
        {
          "internalType": "address",
          "name": "",
          "type": "address"
        }
      ],
      "stateMutability": "view",
      "type": "function"
    },
    {
      "inputs": [],
      "name": "redeemTemplate",
      "outputs": [
        {
          "internalType": "address",
          "name": "",
          "type": "address"
        }
      ],
      "stateMutability": "view",
      "type": "function"
    },
    {
      "inputs": [],
      "name": "renounceOwnership",
      "outputs": [],
      "stateMutability": "nonpayable",
      "type": "function"
    },
    {
      "inputs": [
        {
          "internalType": "address",
          "name": "newOwner",
          "type": "address"
        }
      ],
      "name": "transferOwnership",
      "outputs": [],
      "stateMutability": "nonpayable",
      "type": "function"
    }
  ],
  "transactionHash": "0x08bbcedc704bbbcf54e882057d14d61735c7172edb1543b79acbe3df111404c0",
  "args": [
    "0x76582d77C4e9e14e5A95429E9C18C3780eaB38fB"
  ],
  "solcInputHash": "e8df3bbc9cd68519fa878cebbe263f7f",
  "bytecode": "0x608060405234801561001057600080fd5b50604051610a36380380610a368339818101604052602081101561003357600080fd5b505160006100486001600160e01b0361009816565b600080546001600160a01b0319166001600160a01b038316908117825560405192935091600080516020610a16833981519152908290a350610092816001600160e01b0361009c16565b5061019d565b3390565b6100ad6001600160e01b0361009816565b6000546001600160a01b0390811691161461010f576040805162461bcd60e51b815260206004820181905260248201527f4f776e61626c653a2063616c6c6572206973206e6f7420746865206f776e6572604482015290519081900360640190fd5b6001600160a01b0381166101545760405162461bcd60e51b81526004018080602001828103825260268152602001806109f06026913960400191505060405180910390fd5b600080546040516001600160a01b0380851693921691600080516020610a1683398151915291a3600080546001600160a01b0319166001600160a01b0392909216919091179055565b610844806101ac6000396000f3fe608060405234801561001057600080fd5b506004361061007d5760003560e01c80638da5cb5b1161005b5780638da5cb5b1461013a5780639951c8af1461015e578063f2fde38b14610166578063fe8d63961461018c5761007d565b80631458ab4a1461008257806352e831dd1461008c578063715018a614610132575b600080fd5b61008a6101b2565b005b61008a600480360360208110156100a257600080fd5b8101906020810181356401000000008111156100bd57600080fd5b8201836020820111156100cf57600080fd5b803590602001918460018302840111640100000000831117156100f157600080fd5b91908080601f016020809104026020016040519081016040528093929190818152602001838380828437600092019190915250929550610243945050505050565b61008a610246565b6101426102fa565b604080516001600160a01b039092168252519081900360200190f35b610142610309565b61008a6004803603602081101561017c57600080fd5b50356001600160a01b0316610318565b610142600480360360208110156101a257600080fd5b50356001600160a01b0316610422565b7340203FeAd1b362f2B9ad41d5971DF163CC0767f9634b5e54886040518163ffffffff1660e01b815260040160206040518083038186803b1580156101f657600080fd5b505af415801561020a573d6000803e3d6000fd5b505050506040513d602081101561022057600080fd5b5051600180546001600160a01b0319166001600160a01b03909216919091179055565b50565b61024e61058b565b6000546001600160a01b039081169116146102b0576040805162461bcd60e51b815260206004820181905260248201527f4f776e61626c653a2063616c6c6572206973206e6f7420746865206f776e6572604482015290519081900360640190fd5b600080546040516001600160a01b03909116907f8be0079c531659141344cd1fd0a4f28419497f9722a3daafe3b4186f6b6457e0908390a3600080546001600160a01b0319169055565b6000546001600160a01b031690565b6001546001600160a01b031681565b61032061058b565b6000546001600160a01b03908116911614610382576040805162461bcd60e51b815260206004820181905260248201527f4f776e61626c653a2063616c6c6572206973206e6f7420746865206f776e6572604482015290519081900360640190fd5b6001600160a01b0381166103c75760405162461bcd60e51b81526004018080602001828103825260268152602001806107e96026913960400191505060405180910390fd5b600080546040516001600160a01b03808516939216917f8be0079c531659141344cd1fd0a4f28419497f9722a3daafe3b4186f6b6457e091a3600080546001600160a01b0319166001600160a01b0392909216919091179055565b600061042c61058b565b6000546001600160a01b0390811691161461048e576040805162461bcd60e51b815260206004820181905260248201527f4f776e61626c653a2063616c6c6572206973206e6f7420746865206f776e6572604482015290519081900360640190fd5b600061049861058f565b6104a06102fa565b604080516020808201949094526bffffffffffffffffffffffff19606093841b8116828401529287901b909216605483015280516048818403018152606890920190528051910120600154909150600090610504906001600160a01b0316836105b3565b9050806001600160a01b031663485cc95561051d6102fa565b604080516001600160e01b031960e085901b1681526001600160a01b039283166004820152918816602483015251604480830192600092919082900301818387803b15801561056b57600080fd5b505af115801561057f573d6000803e3d6000fd5b50929695505050505050565b3390565b7fe7383acf78b06b8f24cfa7359d041702736fa6a58e63dd38afea80889c4636e290565b600060606105c08461062b565b80519091508390602083018282826000f5945050506001600160a01b038316610623576040805162461bcd60e51b815260206004820152601060248201526f11549497d0d4915055114c97d190525360821b604482015290519081900360640190fd5b505092915050565b6060610637308361063d565b92915050565b6040805160008082526020808301938490526044830190815282516064840181905260609485949383926084860192918190849084905b8381101561068c578181015183820152602001610674565b50505050905090810190601f1680156106b95780820380516001836020036101000a031916815260200191505b5060408051601f1981840381018252928252602080820180516001600160e01b03166352e831dd60e01b1790528151835160638201808252608290920190951685019091019092529550909350915050801561071c576020820181803883390190505b507f3d3d606380380380913d393d73bebebebebebebebebebebebebebebebebebebe6020820152600160601b858102602d8301527f5af4602a57600080fd5b602d8060366000396000f3363d3d373d3d3d363d73be6041830152840260608201526e5af43d82803e903d91602b57fd5bf360881b6074820152915060005b8151811015610623578181815181106107af57fe5b602001015160f81c60f81b8382606301815181106107c957fe5b60200101906001600160f81b031916908160001a90535060010161079a56fe4f776e61626c653a206e6577206f776e657220697320746865207a65726f2061646472657373a26469706673582212209bdb01a32db59b6717e3349d8756f85440ad079f0f39da602016c1529a7ff3b764736f6c634300060200334f776e61626c653a206e6577206f776e657220697320746865207a65726f20616464726573738be0079c531659141344cd1fd0a4f28419497f9722a3daafe3b4186f6b6457e0",
  "deployedBytecode": "0x608060405234801561001057600080fd5b506004361061007d5760003560e01c80638da5cb5b1161005b5780638da5cb5b1461013a5780639951c8af1461015e578063f2fde38b14610166578063fe8d63961461018c5761007d565b80631458ab4a1461008257806352e831dd1461008c578063715018a614610132575b600080fd5b61008a6101b2565b005b61008a600480360360208110156100a257600080fd5b8101906020810181356401000000008111156100bd57600080fd5b8201836020820111156100cf57600080fd5b803590602001918460018302840111640100000000831117156100f157600080fd5b91908080601f016020809104026020016040519081016040528093929190818152602001838380828437600092019190915250929550610243945050505050565b61008a610246565b6101426102fa565b604080516001600160a01b039092168252519081900360200190f35b610142610309565b61008a6004803603602081101561017c57600080fd5b50356001600160a01b0316610318565b610142600480360360208110156101a257600080fd5b50356001600160a01b0316610422565b73__$9d5e8c0708ade2d55359313f562ebf5c4c$__634b5e54886040518163ffffffff1660e01b815260040160206040518083038186803b1580156101f657600080fd5b505af415801561020a573d6000803e3d6000fd5b505050506040513d602081101561022057600080fd5b5051600180546001600160a01b0319166001600160a01b03909216919091179055565b50565b61024e61058b565b6000546001600160a01b039081169116146102b0576040805162461bcd60e51b815260206004820181905260248201527f4f776e61626c653a2063616c6c6572206973206e6f7420746865206f776e6572604482015290519081900360640190fd5b600080546040516001600160a01b03909116907f8be0079c531659141344cd1fd0a4f28419497f9722a3daafe3b4186f6b6457e0908390a3600080546001600160a01b0319169055565b6000546001600160a01b031690565b6001546001600160a01b031681565b61032061058b565b6000546001600160a01b03908116911614610382576040805162461bcd60e51b815260206004820181905260248201527f4f776e61626c653a2063616c6c6572206973206e6f7420746865206f776e6572604482015290519081900360640190fd5b6001600160a01b0381166103c75760405162461bcd60e51b81526004018080602001828103825260268152602001806107e96026913960400191505060405180910390fd5b600080546040516001600160a01b03808516939216917f8be0079c531659141344cd1fd0a4f28419497f9722a3daafe3b4186f6b6457e091a3600080546001600160a01b0319166001600160a01b0392909216919091179055565b600061042c61058b565b6000546001600160a01b0390811691161461048e576040805162461bcd60e51b815260206004820181905260248201527f4f776e61626c653a2063616c6c6572206973206e6f7420746865206f776e6572604482015290519081900360640190fd5b600061049861058f565b6104a06102fa565b604080516020808201949094526bffffffffffffffffffffffff19606093841b8116828401529287901b909216605483015280516048818403018152606890920190528051910120600154909150600090610504906001600160a01b0316836105b3565b9050806001600160a01b031663485cc95561051d6102fa565b604080516001600160e01b031960e085901b1681526001600160a01b039283166004820152918816602483015251604480830192600092919082900301818387803b15801561056b57600080fd5b505af115801561057f573d6000803e3d6000fd5b50929695505050505050565b3390565b7fe7383acf78b06b8f24cfa7359d041702736fa6a58e63dd38afea80889c4636e290565b600060606105c08461062b565b80519091508390602083018282826000f5945050506001600160a01b038316610623576040805162461bcd60e51b815260206004820152601060248201526f11549497d0d4915055114c97d190525360821b604482015290519081900360640190fd5b505092915050565b6060610637308361063d565b92915050565b6040805160008082526020808301938490526044830190815282516064840181905260609485949383926084860192918190849084905b8381101561068c578181015183820152602001610674565b50505050905090810190601f1680156106b95780820380516001836020036101000a031916815260200191505b5060408051601f1981840381018252928252602080820180516001600160e01b03166352e831dd60e01b1790528151835160638201808252608290920190951685019091019092529550909350915050801561071c576020820181803883390190505b507f3d3d606380380380913d393d73bebebebebebebebebebebebebebebebebebebe6020820152600160601b858102602d8301527f5af4602a57600080fd5b602d8060366000396000f3363d3d373d3d3d363d73be6041830152840260608201526e5af43d82803e903d91602b57fd5bf360881b6074820152915060005b8151811015610623578181815181106107af57fe5b602001015160f81c60f81b8382606301815181106107c957fe5b60200101906001600160f81b031916908160001a90535060010161079a56fe4f776e61626c653a206e6577206f776e657220697320746865207a65726f2061646472657373a26469706673582212209bdb01a32db59b6717e3349d8756f85440ad079f0f39da602016c1529a7ff3b764736f6c63430006020033",
  "libraries": {
    "RedeemTemplateLib": "0x40203FeAd1b362f2B9ad41d5971DF163CC0767f9"
  },
  "devdoc": {
    "methods": {
      "deployClone(address)": {
        "details": "Deploys a cloned instance of the template Redeem contract.",
        "params": {
          "optionToken": "The address of the option token which this redeem clone will be paired with."
        },
        "returns": {
          "_0": "redeemAddress The address of the deployed Redeem token clone."
        }
      },
      "deployRedeemTemplate()": {
        "details": "Deploys the full bytecode of the Redeem contract to be used as a template for clones."
      },
      "owner()": {
        "details": "Returns the address of the current owner."
      },
      "renounceOwnership()": {
        "details": "Leaves the contract without owner. It will not be possible to call `onlyOwner` functions anymore. Can only be called by the current owner.     * NOTE: Renouncing ownership will leave the contract without an owner, thereby removing any functionality that is only available to the owner."
      },
      "transferOwnership(address)": {
        "details": "Transfers ownership of the contract to a new account (`newOwner`). Can only be called by the current owner."
      }
    }
  },
  "userdoc": {
    "methods": {}
  },
  "storageLayout": {
    "storage": [
      {
        "astId": 33,
        "contract": "contracts/option/applications/factories/RedeemFactory.sol:RedeemFactory",
        "label": "_owner",
        "offset": 0,
        "slot": "0",
        "type": "t_address"
      },
      {
        "astId": 2120,
        "contract": "contracts/option/applications/factories/RedeemFactory.sol:RedeemFactory",
        "label": "redeemTemplate",
        "offset": 0,
        "slot": "1",
        "type": "t_address"
      }
    ],
    "types": {
      "t_address": {
        "encoding": "inplace",
        "label": "address",
        "numberOfBytes": "20"
      }
    }
  }
}