{
  "address": "0xBA4Fc7f352dDb414cEFefA97Da4C6FeB60d5Cca0",
  "abi": [
    {
      "inputs": [
        {
          "internalType": "address payable",
          "name": "_weth",
          "type": "address"
        }
      ],
      "stateMutability": "nonpayable",
      "type": "constructor"
    },
    {
      "anonymous": false,
      "inputs": [
        {
          "indexed": true,
          "internalType": "address",
          "name": "from",
          "type": "address"
        },
        {
          "indexed": true,
          "internalType": "address",
          "name": "option",
          "type": "address"
        },
        {
          "indexed": false,
          "internalType": "uint256",
          "name": "inOptions",
          "type": "uint256"
        }
      ],
      "name": "TraderClose",
      "type": "event"
    },
    {
      "anonymous": false,
      "inputs": [
        {
          "indexed": true,
          "internalType": "address",
          "name": "from",
          "type": "address"
        },
        {
          "indexed": true,
          "internalType": "address",
          "name": "option",
          "type": "address"
        },
        {
          "indexed": false,
          "internalType": "uint256",
          "name": "outUnderlyings",
          "type": "uint256"
        },
        {
          "indexed": false,
          "internalType": "uint256",
          "name": "inStrikes",
          "type": "uint256"
        }
      ],
      "name": "TraderExercise",
      "type": "event"
    },
    {
      "anonymous": false,
      "inputs": [
        {
          "indexed": true,
          "internalType": "address",
          "name": "from",
          "type": "address"
        },
        {
          "indexed": true,
          "internalType": "address",
          "name": "option",
          "type": "address"
        },
        {
          "indexed": false,
          "internalType": "uint256",
          "name": "outputOptions",
          "type": "uint256"
        },
        {
          "indexed": false,
          "internalType": "uint256",
          "name": "outputRedeems",
          "type": "uint256"
        }
      ],
      "name": "TraderMint",
      "type": "event"
    },
    {
      "anonymous": false,
      "inputs": [
        {
          "indexed": true,
          "internalType": "address",
          "name": "from",
          "type": "address"
        },
        {
          "indexed": true,
          "internalType": "address",
          "name": "option",
          "type": "address"
        },
        {
          "indexed": false,
          "internalType": "uint256",
          "name": "inRedeems",
          "type": "uint256"
        }
      ],
      "name": "TraderRedeem",
      "type": "event"
    },
    {
      "anonymous": false,
      "inputs": [
        {
          "indexed": true,
          "internalType": "address",
          "name": "from",
          "type": "address"
        },
        {
          "indexed": true,
          "internalType": "address",
          "name": "option",
          "type": "address"
        },
        {
          "indexed": false,
          "internalType": "uint256",
          "name": "inOptions",
          "type": "uint256"
        }
      ],
      "name": "TraderUnwind",
      "type": "event"
    },
    {
      "inputs": [
        {
          "internalType": "contract IOption",
          "name": "optionToken",
          "type": "address"
        },
        {
          "internalType": "uint256",
          "name": "closeQuantity",
          "type": "uint256"
        },
        {
          "internalType": "address",
          "name": "receiver",
          "type": "address"
        }
      ],
      "name": "safeClose",
      "outputs": [
        {
          "internalType": "uint256",
          "name": "",
          "type": "uint256"
        },
        {
          "internalType": "uint256",
          "name": "",
          "type": "uint256"
        },
        {
          "internalType": "uint256",
          "name": "",
          "type": "uint256"
        }
      ],
      "stateMutability": "nonpayable",
      "type": "function"
    },
    {
      "inputs": [
        {
          "internalType": "contract IOption",
          "name": "optionToken",
          "type": "address"
        },
        {
          "internalType": "uint256",
          "name": "exerciseQuantity",
          "type": "uint256"
        },
        {
          "internalType": "address",
          "name": "receiver",
          "type": "address"
        }
      ],
      "name": "safeExercise",
      "outputs": [
        {
          "internalType": "uint256",
          "name": "",
          "type": "uint256"
        },
        {
          "internalType": "uint256",
          "name": "",
          "type": "uint256"
        }
      ],
      "stateMutability": "nonpayable",
      "type": "function"
    },
    {
      "inputs": [
        {
          "internalType": "contract IOption",
          "name": "optionToken",
          "type": "address"
        },
        {
          "internalType": "uint256",
          "name": "mintQuantity",
          "type": "uint256"
        },
        {
          "internalType": "address",
          "name": "receiver",
          "type": "address"
        }
      ],
      "name": "safeMint",
      "outputs": [
        {
          "internalType": "uint256",
          "name": "",
          "type": "uint256"
        },
        {
          "internalType": "uint256",
          "name": "",
          "type": "uint256"
        }
      ],
      "stateMutability": "nonpayable",
      "type": "function"
    },
    {
      "inputs": [
        {
          "internalType": "contract IOption",
          "name": "optionToken",
          "type": "address"
        },
        {
          "internalType": "uint256",
          "name": "redeemQuantity",
          "type": "uint256"
        },
        {
          "internalType": "address",
          "name": "receiver",
          "type": "address"
        }
      ],
      "name": "safeRedeem",
      "outputs": [
        {
          "internalType": "uint256",
          "name": "",
          "type": "uint256"
        }
      ],
      "stateMutability": "nonpayable",
      "type": "function"
    },
    {
      "inputs": [
        {
          "internalType": "contract IOption",
          "name": "optionToken",
          "type": "address"
        },
        {
          "internalType": "uint256",
          "name": "unwindQuantity",
          "type": "uint256"
        },
        {
          "internalType": "address",
          "name": "receiver",
          "type": "address"
        }
      ],
      "name": "safeUnwind",
      "outputs": [
        {
          "internalType": "uint256",
          "name": "",
          "type": "uint256"
        },
        {
          "internalType": "uint256",
          "name": "",
          "type": "uint256"
        },
        {
          "internalType": "uint256",
          "name": "",
          "type": "uint256"
        }
      ],
      "stateMutability": "nonpayable",
      "type": "function"
    },
    {
      "inputs": [],
      "name": "weth",
      "outputs": [
        {
          "internalType": "address payable",
          "name": "",
          "type": "address"
        }
      ],
      "stateMutability": "view",
      "type": "function"
    }
  ],
  "transactionHash": "0x6581b34afd105e9fe5f6fe8467ce5ec8bb34a4afa13cbba8f8dfa98367ac085b",
  "args": [
    "0xd0a1e359811322d97991e03f863a0c30c2cf029c"
  ],
  "solcInputHash": "e8df3bbc9cd68519fa878cebbe263f7f",
  "bytecode": "0x608060405234801561001057600080fd5b506040516118b93803806118b98339818101604052602081101561003357600080fd5b5051600080546001600160a01b0390921661010002610100600160a81b031960ff1990931660011792909216919091179055611845806100746000396000f3fe608060405234801561001057600080fd5b50600436106100625760003560e01c8063087b063214610067578063154fa089146100b657806320e469d61461010a5780633fc8cef314610140578063a1d8778f14610164578063b8a6bb3b146101ac575b600080fd5b61009d6004803603606081101561007d57600080fd5b506001600160a01b038135811691602081013591604090910135166101e2565b6040805192835260208301919091528051918290030190f35b6100ec600480360360608110156100cc57600080fd5b506001600160a01b038135811691602081013591604090910135166102a5565b60408051938452602084019290925282820152519081900360600190f35b61009d6004803603606081101561012057600080fd5b506001600160a01b03813581169160208101359160409091013516610373565b610148610436565b604080516001600160a01b039092168252519081900360200190f35b61019a6004803603606081101561017a57600080fd5b506001600160a01b0381358116916020810135916040909101351661044a565b60408051918252519081900360200190f35b6100ec600480360360608110156101c257600080fd5b506001600160a01b038135811691602081013591604090910135166104ff565b60008054819060ff1661022a576040805162461bcd60e51b815260206004820152601f60248201526000805160206117a5833981519152604482015290519081900360640190fd5b6000805460ff19168155806102408787876105cd565b604080518981526020810184905281519395509193506001600160a01b038a169233927f453315713d2b83893ec1df8cf529328bf25e4fe72b6c4d880edb03243e80119b92908290030190a36000805460ff1916600117905590969095509350505050565b600080548190819060ff166102ef576040805162461bcd60e51b815260206004820152601f60248201526000805160206117a5833981519152604482015290519081900360640190fd5b6000805460ff191681558080610306898989610a83565b925092509250886001600160a01b0316336001600160a01b03167fd0c7e26bb5b37129e4f53759eb48fc9e0c4bafd336a94f6b87c5ce9f139183e5846040518082815260200191505060405180910390a36000805460ff1916600117905591989097509095509350505050565b60008054819060ff166103bb576040805162461bcd60e51b815260206004820152601f60248201526000805160206117a5833981519152604482015290519081900360640190fd5b6000805460ff19168155806103d1878787610e5a565b604080518381526020810183905281519395509193506001600160a01b038a169233927f58fb17601901d5509bf49bedd00d55850ef2ebff3adb67a5f517b86eed08a0c892908290030190a36000805460ff1916600117905590969095509350505050565b60005461010090046001600160a01b031681565b6000805460ff16610490576040805162461bcd60e51b815260206004820152601f60248201526000805160206117a5833981519152604482015290519081900360640190fd5b6000805460ff191681556104a5858585610f27565b6040805182815290519192506001600160a01b0387169133917fd75e50ef6162896bf5efc868c48b0c44d04ab08196d3e2b4c3aba5062c5ce94d919081900360200190a390506000805460ff191660011790559392505050565b600080548190819060ff16610549576040805162461bcd60e51b815260206004820152601f60248201526000805160206117a5833981519152604482015290519081900360640190fd5b6000805460ff191681558080610560898989611154565b925092509250886001600160a01b0316336001600160a01b03167f602dc153bc8f9d064b879f6bc973338b7c009689b9cacc58a250c3fb3da51808846040518082815260200191505060405180910390a36000805460ff1916600117905591989097509095509350505050565b60008060008411610610576040805162461bcd60e51b81526020600482015260086024820152674552525f5a45524f60c01b604482015290519081900360640190fd5b604080516370a0823160e01b8152336004820152905185916001600160a01b038816916370a0823191602480820192602092909190829003018186803b15801561065957600080fd5b505afa15801561066d573d6000803e3d6000fd5b505050506040513d602081101561068357600080fd5b505110156106ca576040805162461bcd60e51b815260206004820152600f60248201526e4552525f42414c5f4f5054494f4e5360881b604482015290519081900360640190fd5b60006107bc866001600160a01b031663b592a1386040518163ffffffff1660e01b815260040160206040518083038186803b15801561070857600080fd5b505afa15801561071c573d6000803e3d6000fd5b505050506040513d602081101561073257600080fd5b505160408051627f0cfd60e11b815290516107b0916001600160a01b038b169162fe19fa91600480820192602092909190829003018186803b15801561077757600080fd5b505afa15801561078b573d6000803e3d6000fd5b505050506040513d60208110156107a157600080fd5b5051889063ffffffff61140a16565b9063ffffffff61146c16565b905080866001600160a01b031663a1a407616040518163ffffffff1660e01b815260040160206040518083038186803b1580156107f857600080fd5b505afa15801561080c573d6000803e3d6000fd5b505050506040513d602081101561082257600080fd5b5051604080516370a0823160e01b815233600482015290516001600160a01b03909216916370a0823191602480820192602092909190829003018186803b15801561086c57600080fd5b505afa158015610880573d6000803e3d6000fd5b505050506040513d602081101561089657600080fd5b505110156108dc576040805162461bcd60e51b815260206004820152600e60248201526d4552525f42414c5f535452494b4560901b604482015290519081900360640190fd5b61095e338783896001600160a01b031663a1a407616040518163ffffffff1660e01b815260040160206040518083038186803b15801561091b57600080fd5b505afa15801561092f573d6000803e3d6000fd5b505050506040513d602081101561094557600080fd5b50516001600160a01b031692919063ffffffff6114ae16565b6109796001600160a01b03871633888863ffffffff6114ae16565b6040805160008082526020820192839052630787eae360e41b83526001600160a01b0387811660248401908152604484018a90526060606485019081528451608486018190529395928c169463787eae30948b948d9492939160a4850191908083838d5b838110156109f55781810151838201526020016109dd565b50505050905090810190601f168015610a225780820380516001836020036101000a031916815260200191505b509450505050506040805180830381600087803b158015610a4257600080fd5b505af1158015610a56573d6000803e3d6000fd5b505050506040513d6040811015610a6c57600080fd5b508051602090910151909890975095505050505050565b6000806000808511610ac7576040805162461bcd60e51b81526020600482015260086024820152674552525f5a45524f60c01b604482015290519081900360640190fd5b42866001600160a01b03166325cb5bc06040518163ffffffff1660e01b815260040160206040518083038186803b158015610b0157600080fd5b505afa158015610b15573d6000803e3d6000fd5b505050506040513d6020811015610b2b57600080fd5b505110610b71576040805162461bcd60e51b815260206004820152600f60248201526e11549497d393d517d1561412549151608a1b604482015290519081900360640190fd5b6000610c57876001600160a01b031663b592a1386040518163ffffffff1660e01b815260040160206040518083038186803b158015610baf57600080fd5b505afa158015610bc3573d6000803e3d6000fd5b505050506040513d6020811015610bd957600080fd5b505160408051627f0cfd60e11b815290516107b0916001600160a01b038c169162fe19fa91600480820192602092909190829003018186803b158015610c1e57600080fd5b505afa158015610c32573d6000803e3d6000fd5b505050506040513d6020811015610c4857600080fd5b5051899063ffffffff61140a16565b905080876001600160a01b0316632f310bad6040518163ffffffff1660e01b815260040160206040518083038186803b158015610c9357600080fd5b505afa158015610ca7573d6000803e3d6000fd5b505050506040513d6020811015610cbd57600080fd5b5051604080516370a0823160e01b815233600482015290516001600160a01b03909216916370a0823191602480820192602092909190829003018186803b158015610d0757600080fd5b505afa158015610d1b573d6000803e3d6000fd5b505050506040513d6020811015610d3157600080fd5b50511015610d77576040805162461bcd60e51b815260206004820152600e60248201526d4552525f42414c5f52454445454d60901b604482015290519081900360640190fd5b610db63388838a6001600160a01b0316632f310bad6040518163ffffffff1660e01b815260040160206040518083038186803b15801561091b57600080fd5b600080886001600160a01b03166383499805886040518263ffffffff1660e01b815260040180826001600160a01b03166001600160a01b03168152602001915050606060405180830381600087803b158015610e1157600080fd5b505af1158015610e25573d6000803e3d6000fd5b505050506040513d6060811015610e3b57600080fd5b5080516020820151604090920151909b919a5098509650505050505050565b60008060008411610e9d576040805162461bcd60e51b81526020600482015260086024820152674552525f5a45524f60c01b604482015290519081900360640190fd5b610edc338686886001600160a01b031663440f5fd26040518163ffffffff1660e01b815260040160206040518083038186803b15801561091b57600080fd5b60408051633ea6b5f160e21b81526001600160a01b03858116600483015282516000938493928a169263fa9ad7c4926024808301939282900301818787803b158015610a4257600080fd5b6000808311610f68576040805162461bcd60e51b81526020600482015260086024820152674552525f5a45524f60c01b604482015290519081900360640190fd5b82846001600160a01b0316632f310bad6040518163ffffffff1660e01b815260040160206040518083038186803b158015610fa257600080fd5b505afa158015610fb6573d6000803e3d6000fd5b505050506040513d6020811015610fcc57600080fd5b5051604080516370a0823160e01b815233600482015290516001600160a01b03909216916370a0823191602480820192602092909190829003018186803b15801561101657600080fd5b505afa15801561102a573d6000803e3d6000fd5b505050506040513d602081101561104057600080fd5b50511015611086576040805162461bcd60e51b815260206004820152600e60248201526d4552525f42414c5f52454445454d60901b604482015290519081900360640190fd5b6110c5338585876001600160a01b0316632f310bad6040518163ffffffff1660e01b815260040160206040518083038186803b15801561091b57600080fd5b6000846001600160a01b0316635e86929d846040518263ffffffff1660e01b815260040180826001600160a01b03166001600160a01b03168152602001915050602060405180830381600087803b15801561111f57600080fd5b505af1158015611133573d6000803e3d6000fd5b505050506040513d602081101561114957600080fd5b505195945050505050565b6000806000808511611198576040805162461bcd60e51b81526020600482015260086024820152674552525f5a45524f60c01b604482015290519081900360640190fd5b604080516370a0823160e01b8152336004820152905186916001600160a01b038916916370a0823191602480820192602092909190829003018186803b1580156111e157600080fd5b505afa1580156111f5573d6000803e3d6000fd5b505050506040513d602081101561120b57600080fd5b50511015611252576040805162461bcd60e51b815260206004820152600f60248201526e4552525f42414c5f4f5054494f4e5360881b604482015290519081900360640190fd5b6000611290876001600160a01b031663b592a1386040518163ffffffff1660e01b815260040160206040518083038186803b158015610baf57600080fd5b905080876001600160a01b0316632f310bad6040518163ffffffff1660e01b815260040160206040518083038186803b1580156112cc57600080fd5b505afa1580156112e0573d6000803e3d6000fd5b505050506040513d60208110156112f657600080fd5b5051604080516370a0823160e01b815233600482015290516001600160a01b03909216916370a0823191602480820192602092909190829003018186803b15801561134057600080fd5b505afa158015611354573d6000803e3d6000fd5b505050506040513d602081101561136a57600080fd5b505110156113b0576040805162461bcd60e51b815260206004820152600e60248201526d4552525f42414c5f52454445454d60901b604482015290519081900360640190fd5b6113ef3388838a6001600160a01b0316632f310bad6040518163ffffffff1660e01b815260040160206040518083038186803b15801561091b57600080fd5b610db66001600160a01b03881633898963ffffffff6114ae16565b60008261141957506000611466565b8282028284828161142657fe5b04146114635760405162461bcd60e51b81526004018080602001828103825260218152602001806117c56021913960400191505060405180910390fd5b90505b92915050565b600061146383836040518060400160405280601a81526020017f536166654d6174683a206469766973696f6e206279207a65726f00000000000081525061150e565b604080516001600160a01b0380861660248301528416604482015260648082018490528251808303909101815260849091019091526020810180516001600160e01b03166323b872dd60e01b1790526115089085906115b0565b50505050565b6000818361159a5760405162461bcd60e51b81526004018080602001828103825283818151815260200191508051906020019080838360005b8381101561155f578181015183820152602001611547565b50505050905090810190601f16801561158c5780820380516001836020036101000a031916815260200191505b509250505060405180910390fd5b5060008385816115a657fe5b0495945050505050565b6115c2826001600160a01b0316611768565b611613576040805162461bcd60e51b815260206004820152601f60248201527f5361666545524332303a2063616c6c20746f206e6f6e2d636f6e747261637400604482015290519081900360640190fd5b60006060836001600160a01b0316836040518082805190602001908083835b602083106116515780518252601f199092019160209182019101611632565b6001836020036101000a0380198251168184511680821785525050505050509050019150506000604051808303816000865af19150503d80600081146116b3576040519150601f19603f3d011682016040523d82523d6000602084013e6116b8565b606091505b50915091508161170f576040805162461bcd60e51b815260206004820181905260248201527f5361666545524332303a206c6f772d6c6576656c2063616c6c206661696c6564604482015290519081900360640190fd5b8051156115085780806020019051602081101561172b57600080fd5b50516115085760405162461bcd60e51b815260040180806020018281038252602a8152602001806117e6602a913960400191505060405180910390fd5b6000813f7fc5d2460186f7233c927e7db2dcc703c0e500b653ca82273b7bfad8045d85a47081811480159061179c57508115155b94935050505056fe5265656e7472616e637947756172643a207265656e7472616e742063616c6c00536166654d6174683a206d756c7469706c69636174696f6e206f766572666c6f775361666545524332303a204552433230206f7065726174696f6e20646964206e6f742073756363656564a26469706673582212208478890b5d14d5b08cd0e1291d4fb61f2ddfd097099755fc0f6fe4add9c181f364736f6c63430006020033",
  "devdoc": {
    "methods": {
      "safeClose(address,uint256,address)": {
        "details": "Burn optionTokens and redeemTokens to withdraw underlyingTokens.",
        "params": {
          "closeQuantity": "Quantity of optionTokens to burn. (Implictly will burn the strike ratio quantity of redeemTokens).",
          "optionToken": "The address of the option contract.",
          "receiver": "The underlyingTokens are sent to the receiver address."
        }
      },
      "safeExercise(address,uint256,address)": {
        "details": "Swaps strikeTokens to underlyingTokens using the strike ratio as the exchange rate.",
        "params": {
          "exerciseQuantity": "Quantity of optionTokens to exercise.",
          "optionToken": "The address of the option contract.",
          "receiver": "The underlyingTokens are sent to the receiver address."
        }
      },
      "safeMint(address,uint256,address)": {
        "details": "Mint options at a 1:1 ratio with deposited underlying tokens.",
        "params": {
          "mintQuantity": "Quantity of options to mint and underlyingToken to deposit.",
          "optionToken": "The address of the option contract.",
          "receiver": "The newly minted options and redeems are sent to the receiver address."
        }
      },
      "safeRedeem(address,uint256,address)": {
        "details": "Burns redeemTokens to withdraw available strikeTokens.",
        "params": {
          "optionToken": "The address of the option contract.",
          "receiver": "The strikeTokens are sent to the receiver address.",
          "redeemQuantity": "redeemQuantity of redeemTokens to burn."
        }
      },
      "safeUnwind(address,uint256,address)": {
        "details": "Burn redeemTokens to withdraw underlyingTokens and strikeTokens from expired options.",
        "params": {
          "optionToken": "The address of the option contract.",
          "receiver": "The underlyingTokens and redeemTokens are sent to the receiver address.",
          "unwindQuantity": "Quantity of option tokens used to calculate the amount of redeem tokens to burn."
        }
      }
    }
  },
  "userdoc": {
    "methods": {
      "safeClose(address,uint256,address)": {
        "notice": "The redeemTokens to burn is equal to the optionTokens * strike ratio. inOptions = inRedeems / strike ratio = outUnderlyings"
      },
      "safeExercise(address,uint256,address)": {
        "notice": "Burns optionTokens, option contract receives strikeTokens, user receives underlyingTokens."
      },
      "safeMint(address,uint256,address)": {
        "notice": "Also mints redeems at a strike ratio to the deposited underlyings. Warning: Calls msg.sender with safeTransferFrom."
      },
      "safeRedeem(address,uint256,address)": {
        "notice": "inRedeems = outStrikes."
      }
    }
  },
  "storageLayout": {
    "storage": [
      {
        "astId": 1351,
        "contract": "contracts/option/extensions/Trader.sol:Trader",
        "label": "_notEntered",
        "offset": 0,
        "slot": "0",
        "type": "t_bool"
      },
      {
        "astId": 2210,
        "contract": "contracts/option/extensions/Trader.sol:Trader",
        "label": "weth",
        "offset": 1,
        "slot": "0",
        "type": "t_address_payable"
      }
    ],
    "types": {
      "t_address_payable": {
        "encoding": "inplace",
        "label": "address payable",
        "numberOfBytes": "20"
      },
      "t_bool": {
        "encoding": "inplace",
        "label": "bool",
        "numberOfBytes": "1"
      }
    }
  }
}